{"contracts/Authorizer.sol":{"Authorizer":{"abi":[{"inputs":[],"stateMutability":"nonpayable","type":"constructor"},{"anonymous":false,"inputs":[{"indexed":true,"internalType":"address","name":"who","type":"address"},{"indexed":true,"internalType":"address","name":"where","type":"address"},{"indexed":true,"internalType":"bytes4","name":"what","type":"bytes4"},{"components":[{"internalType":"uint8","name":"op","type":"uint8"},{"internalType":"uint248","name":"value","type":"uint248"}],"indexed":false,"internalType":"struct IAuthorizer.Param[]","name":"params","type":"tuple[]"}],"name":"Authorized","type":"event"},{"anonymous":false,"inputs":[{"indexed":false,"internalType":"uint8","name":"version","type":"uint8"}],"name":"Initialized","type":"event"},{"anonymous":false,"inputs":[{"indexed":true,"internalType":"address","name":"who","type":"address"},{"indexed":true,"internalType":"address","name":"where","type":"address"},{"indexed":true,"internalType":"bytes4","name":"what","type":"bytes4"}],"name":"Unauthorized","type":"event"},{"inputs":[],"name":"ANYONE","outputs":[{"internalType":"address","name":"","type":"address"}],"stateMutability":"view","type":"function"},{"inputs":[],"name":"ANYWHERE","outputs":[{"internalType":"address","name":"","type":"address"}],"stateMutability":"view","type":"function"},{"inputs":[{"internalType":"address","name":"who","type":"address"},{"internalType":"address","name":"where","type":"address"},{"internalType":"bytes4","name":"what","type":"bytes4"},{"components":[{"internalType":"uint8","name":"op","type":"uint8"},{"internalType":"uint248","name":"value","type":"uint248"}],"internalType":"struct IAuthorizer.Param[]","name":"params","type":"tuple[]"}],"name":"authorize","outputs":[],"stateMutability":"nonpayable","type":"function"},{"inputs":[{"components":[{"internalType":"address","name":"where","type":"address"},{"components":[{"internalType":"address","name":"who","type":"address"},{"internalType":"bytes4","name":"what","type":"bytes4"},{"components":[{"internalType":"uint8","name":"op","type":"uint8"},{"internalType":"uint248","name":"value","type":"uint248"}],"internalType":"struct IAuthorizer.Param[]","name":"params","type":"tuple[]"}],"internalType":"struct IAuthorizer.GrantPermission[]","name":"grants","type":"tuple[]"},{"components":[{"internalType":"address","name":"who","type":"address"},{"internalType":"bytes4","name":"what","type":"bytes4"}],"internalType":"struct IAuthorizer.RevokePermission[]","name":"revokes","type":"tuple[]"}],"internalType":"struct IAuthorizer.PermissionChange[]","name":"changes","type":"tuple[]"}],"name":"changePermissions","outputs":[],"stateMutability":"nonpayable","type":"function"},{"inputs":[{"internalType":"address","name":"who","type":"address"},{"internalType":"address","name":"where","type":"address"},{"internalType":"bytes4","name":"what","type":"bytes4"}],"name":"getPermissionParams","outputs":[{"components":[{"internalType":"uint8","name":"op","type":"uint8"},{"internalType":"uint248","name":"value","type":"uint248"}],"internalType":"struct IAuthorizer.Param[]","name":"","type":"tuple[]"}],"stateMutability":"view","type":"function"},{"inputs":[{"internalType":"address","name":"who","type":"address"},{"internalType":"address","name":"where","type":"address"}],"name":"getPermissionsLength","outputs":[{"internalType":"uint256","name":"","type":"uint256"}],"stateMutability":"view","type":"function"},{"inputs":[{"internalType":"address","name":"who","type":"address"},{"internalType":"address","name":"where","type":"address"}],"name":"hasPermissions","outputs":[{"internalType":"bool","name":"","type":"bool"}],"stateMutability":"view","type":"function"},{"inputs":[{"internalType":"address[]","name":"owners","type":"address[]"}],"name":"initialize","outputs":[],"stateMutability":"nonpayable","type":"function"},{"inputs":[{"internalType":"address","name":"who","type":"address"},{"internalType":"address","name":"where","type":"address"},{"internalType":"bytes4","name":"what","type":"bytes4"},{"internalType":"uint256[]","name":"how","type":"uint256[]"}],"name":"isAuthorized","outputs":[{"internalType":"bool","name":"","type":"bool"}],"stateMutability":"view","type":"function"},{"inputs":[{"internalType":"address","name":"who","type":"address"},{"internalType":"address","name":"where","type":"address"},{"internalType":"bytes4","name":"what","type":"bytes4"}],"name":"unauthorize","outputs":[],"stateMutability":"nonpayable","type":"function"}],"evm":{"bytecode":{"linkReferences":{},"object":"608060405234801561001057600080fd5b5061001961001e565b6100de565b600054610100900460ff161561008a5760405162461bcd60e51b815260206004820152602760248201527f496e697469616c697a61626c653a20636f6e747261637420697320696e697469604482015266616c697a696e6760c81b606482015260840160405180910390fd5b60005460ff90811610156100dc576000805460ff191660ff9081179091556040519081527f7f26b83ff96e1f2b6a682f133852f6798a09c465da95921460cefb38474024989060200160405180910390a15b565b611ced806100ed6000396000f3fe608060405234801561001057600080fd5b50600436106100be5760003560e01c8063a224cee711610076578063ca7c51d01161005b578063ca7c51d014610194578063e8a67dad146101a7578063fd1ccc9b146101ef57600080fd5b8063a224cee714610161578063b091986d1461017457600080fd5b806328522895116100a757806328522895146100fe578063405d30af14610121578063840510cc1461012157600080fd5b80630eb39344146100c3578063261a48af146100e9575b600080fd5b6100d66100d136600461142b565b610202565b6040519081526020015b60405180910390f35b6100fc6100f736600461148e565b61023c565b005b61011161010c3660046115bf565b61036e565b60405190151581526020016100e0565b61013c73ffffffffffffffffffffffffffffffffffffffff81565b60405173ffffffffffffffffffffffffffffffffffffffff90911681526020016100e0565b6100fc61016f366004611687565b61041c565b61018761018236600461148e565b6106ea565b6040516100e0919061171f565b6100fc6101a23660046118e7565b6107d7565b6101116101b536600461142b565b73ffffffffffffffffffffffffffffffffffffffff9182166000908152603360209081526040808320939094168252919091522054151590565b6100fc6101fd366004611b4e565b6108d4565b73ffffffffffffffffffffffffffffffffffffffff8083166000908152603360209081526040808320938516835292905220545b92915050565b6002600154036102ad576040517f08c379a000000000000000000000000000000000000000000000000000000000815260206004820152601f60248201527f5265656e7472616e637947756172643a207265656e7472616e742063616c6c0060448201526064015b60405180910390fd5b600260015560006102bf848484610a03565b905060006102ef33307f261a48af000000000000000000000000000000000000000000000000000000008561036e565b905080610358576040517f08c379a000000000000000000000000000000000000000000000000000000000815260206004820152601d60248201527f415554484f52495a45525f53454e4445525f4e4f545f414c4c4f57454400000060448201526064016102a4565b610363858585610ac1565b505060018055505050565b600061037c85858585610c2d565b1561038957506001610414565b6103a973ffffffffffffffffffffffffffffffffffffffff858585610c2d565b156103b657506001610414565b6103d68573ffffffffffffffffffffffffffffffffffffffff8585610c2d565b156103e357506001610414565b61040373ffffffffffffffffffffffffffffffffffffffff808585610c2d565b1561041057506001610414565b5060005b949350505050565b600054610100900460ff161580801561043c5750600054600160ff909116105b806104565750303b158015610456575060005460ff166001145b6104e2576040517f08c379a000000000000000000000000000000000000000000000000000000000815260206004820152602e60248201527f496e697469616c697a61626c653a20636f6e747261637420697320616c72656160448201527f647920696e697469616c697a656400000000000000000000000000000000000060648201526084016102a4565b600080547fffffffffffffffffffffffffffffffffffffffffffffffffffffffffffffff00166001179055801561054057600080547fffffffffffffffffffffffffffffffffffffffffffffffffffffffffffff00ff166101001790555b610548610d34565b60005b8251811015610682576105e383828151811061056957610569611bbd565b6020908102919091010151307ffd1ccc9b0000000000000000000000000000000000000000000000000000000060006040519080825280602002602001820160405280156105dd57816020015b60408051808201909152600080825260208201528152602001906001900390816105b65790505b50610dd5565b6106708382815181106105f8576105f8611bbd565b6020908102919091010151307f261a48af0000000000000000000000000000000000000000000000000000000060006040519080825280602002602001820160405280156105dd578160200160408051808201909152600080825260208201528152602001906001900390816105b657905050610dd5565b8061067a81611c1b565b91505061054b565b5080156106e657600080547fffffffffffffffffffffffffffffffffffffffffffffffffffffffffffff00ff169055604051600181527f7f26b83ff96e1f2b6a682f133852f6798a09c465da95921460cefb38474024989060200160405180910390a15b5050565b73ffffffffffffffffffffffffffffffffffffffff808416600090815260336020908152604080832093861683529281528282207fffffffff00000000000000000000000000000000000000000000000000000000851683526001908101825283832001805484518184028101840190955280855260609493919290919084015b828210156107ca576000848152602090819020604080518082019091529084015460ff8116825261010090047effffffffffffffffffffffffffffffffffffffffffffffffffffffffffffff168183015282526001909201910161076b565b5050505090509392505050565b60005b81518110156106e65760008282815181106107f7576107f7611bbd565b6020026020010151905060005b8160200151518110156108625760008260200151828151811061082957610829611bbd565b6020026020010151905061084f81600001518460000151836020015184604001516108d4565b508061085a81611c1b565b915050610804565b5060005b8160400151518110156108bf5760008260400151828151811061088b5761088b611bbd565b602002602001015190506108ac81600001518460000151836020015161023c565b50806108b781611c1b565b915050610866565b505080806108cc90611c1b565b9150506107da565b600260015403610940576040517f08c379a000000000000000000000000000000000000000000000000000000000815260206004820152601f60248201527f5265656e7472616e637947756172643a207265656e7472616e742063616c6c0060448201526064016102a4565b60026001556000610952858585610a03565b9050600061098233307ffd1ccc9b000000000000000000000000000000000000000000000000000000008561036e565b9050806109eb576040517f08c379a000000000000000000000000000000000000000000000000000000000815260206004820152601d60248201527f415554484f52495a45525f53454e4445525f4e4f545f414c4c4f57454400000060448201526064016102a4565b6109f786868686610dd5565b50506001805550505050565b604080516003808252608082019092526060916020820183803683370190505090508373ffffffffffffffffffffffffffffffffffffffff1681600081518110610a4f57610a4f611bbd565b6020026020010181815250508273ffffffffffffffffffffffffffffffffffffffff1681600181518110610a8557610a85611bbd565b6020026020010181815250508160e01c63ffffffff1681600281518110610aae57610aae611bbd565b6020026020010181815250509392505050565b73ffffffffffffffffffffffffffffffffffffffff808416600090815260336020908152604080832093861683529281528282207fffffffff000000000000000000000000000000000000000000000000000000008516835260018101909152919020805460ff1615610b42578154826000610b3c83611c53565b91905055505b7fffffffff000000000000000000000000000000000000000000000000000000008316600090815260018084016020526040822080547fffffffffffffffffffffffffffffffffffffffffffffffffffffffffffffff001681559190610baa908301826113c8565b5050827bffffffffffffffffffffffffffffffffffffffffffffffffffffffff19168473ffffffffffffffffffffffffffffffffffffffff168673ffffffffffffffffffffffffffffffffffffffff167fa8095e01dcc1c206b8b64f0bcaf4fee219b0ee0bd623ea32f9876e19600cdb6360405160405180910390a45050505050565b73ffffffffffffffffffffffffffffffffffffffff808516600090815260336020908152604080832093871683529281528282207fffffffff00000000000000000000000000000000000000000000000000000000861683526001019052908120805460ff168015610d2a5750610d2a81600101805480602002602001604051908101604052809291908181526020016000905b82821015610d20576000848152602090819020604080518082019091529084015460ff8116825261010090047effffffffffffffffffffffffffffffffffffffffffffffffffffffffffffff1681830152825260019092019101610cc1565b5050505084610fa1565b9695505050505050565b600054610100900460ff16610dcb576040517f08c379a000000000000000000000000000000000000000000000000000000000815260206004820152602b60248201527f496e697469616c697a61626c653a20636f6e7472616374206973206e6f74206960448201527f6e697469616c697a696e6700000000000000000000000000000000000000000060648201526084016102a4565b610dd3611067565b565b73ffffffffffffffffffffffffffffffffffffffff808516600090815260336020908152604080832093871683529281528282207fffffffff000000000000000000000000000000000000000000000000000000008616835260018101909152919020805460ff16610e55578154826000610e4f83611c1b565b91905055505b80547fffffffffffffffffffffffffffffffffffffffffffffffffffffffffffffff001660019081178255610e8d90820160006113c8565b60005b8351811015610f135781600101848281518110610eaf57610eaf611bbd565b6020908102919091018101518254600181018455600093845292829020815191909201517effffffffffffffffffffffffffffffffffffffffffffffffffffffffffffff166101000260ff9091161791015580610f0b81611c1b565b915050610e90565b50837bffffffffffffffffffffffffffffffffffffffffffffffffffffffff19168573ffffffffffffffffffffffffffffffffffffffff168773ffffffffffffffffffffffffffffffffffffffff167fa4e3ad0d161589a3d7d368c479c5c4bd9d753ea8f4865b26801b7e9823235ff586604051610f91919061171f565b60405180910390a4505050505050565b6000805b835181101561105d576000848281518110610fc257610fc2611bbd565b60200260200101519050835182108015610ffc5750610ffa81858481518110610fed57610fed611bbd565b6020026020010151611104565b155b8061103a57508351821015801561103a57506000815160ff16600681111561102657611026611c88565b600681111561103757611037611c88565b14155b1561104a57600092505050610236565b508061105581611c1b565b915050610fa5565b5060019392505050565b600054610100900460ff166110fe576040517f08c379a000000000000000000000000000000000000000000000000000000000815260206004820152602b60248201527f496e697469616c697a61626c653a20636f6e7472616374206973206e6f74206960448201527f6e697469616c697a696e6700000000000000000000000000000000000000000060648201526084016102a4565b60018055565b600080835160ff16600681111561111d5761111d611c88565b600681111561112e5761112e611c88565b0361113b57506001610236565b6001835160ff16600681111561115357611153611c88565b600681111561116457611164611c88565b03611197575060208201517effffffffffffffffffffffffffffffffffffffffffffffffffffffffffffff168114610236565b6002835160ff1660068111156111af576111af611c88565b60068111156111c0576111c0611c88565b036111f4575060208201517effffffffffffffffffffffffffffffffffffffffffffffffffffffffffffff16811415610236565b6003835160ff16600681111561120c5761120c611c88565b600681111561121d5761121d611c88565b03611250575060208201517effffffffffffffffffffffffffffffffffffffffffffffffffffffffffffff168111610236565b6004835160ff16600681111561126857611268611c88565b600681111561127957611279611c88565b036112ac575060208201517effffffffffffffffffffffffffffffffffffffffffffffffffffffffffffff168110610236565b6005835160ff1660068111156112c4576112c4611c88565b60068111156112d5576112d5611c88565b03611309575060208201517effffffffffffffffffffffffffffffffffffffffffffffffffffffffffffff16811015610236565b6006835160ff16600681111561132157611321611c88565b600681111561133257611332611c88565b03611366575060208201517effffffffffffffffffffffffffffffffffffffffffffffffffffffffffffff16811115610236565b6040517f08c379a000000000000000000000000000000000000000000000000000000000815260206004820152601b60248201527f415554484f52495a45525f494e56414c49445f504152414d5f4f50000000000060448201526064016102a4565b50805460008255906000526020600020908101906113e691906113e9565b50565b5b808211156113fe57600081556001016113ea565b5090565b803573ffffffffffffffffffffffffffffffffffffffff8116811461142657600080fd5b919050565b6000806040838503121561143e57600080fd5b61144783611402565b915061145560208401611402565b90509250929050565b80357fffffffff000000000000000000000000000000000000000000000000000000008116811461142657600080fd5b6000806000606084860312156114a357600080fd5b6114ac84611402565b92506114ba60208501611402565b91506114c86040850161145e565b90509250925092565b7f4e487b7100000000000000000000000000000000000000000000000000000000600052604160045260246000fd5b6040805190810167ffffffffffffffff81118282101715611523576115236114d1565b60405290565b6040516060810167ffffffffffffffff81118282101715611523576115236114d1565b604051601f82017fffffffffffffffffffffffffffffffffffffffffffffffffffffffffffffffe016810167ffffffffffffffff81118282101715611593576115936114d1565b604052919050565b600067ffffffffffffffff8211156115b5576115b56114d1565b5060051b60200190565b600080600080608085870312156115d557600080fd5b6115de85611402565b935060206115ed818701611402565b93506115fb6040870161145e565b9250606086013567ffffffffffffffff81111561161757600080fd5b8601601f8101881361162857600080fd5b803561163b6116368261159b565b61154c565b81815260059190911b8201830190838101908a83111561165a57600080fd5b928401925b828410156116785783358252928401929084019061165f565b979a9699509497505050505050565b6000602080838503121561169a57600080fd5b823567ffffffffffffffff8111156116b157600080fd5b8301601f810185136116c257600080fd5b80356116d06116368261159b565b81815260059190911b820183019083810190878311156116ef57600080fd5b928401925b828410156117145761170584611402565b825292840192908401906116f4565b979650505050505050565b602080825282518282018190526000919060409081850190868401855b82811015611785578151805160ff1685528601517effffffffffffffffffffffffffffffffffffffffffffffffffffffffffffff1686850152928401929085019060010161173c565b5091979650505050505050565b600082601f8301126117a357600080fd5b813560206117b36116368361159b565b82815260069290921b840181019181810190868411156117d257600080fd5b8286015b8481101561184f57604081890312156117ef5760008081fd5b6117f7611500565b813560ff811681146118095760008081fd5b8152818501357effffffffffffffffffffffffffffffffffffffffffffffffffffffffffffff8116811461183d5760008081fd5b818601528352918301916040016117d6565b509695505050505050565b600082601f83011261186b57600080fd5b8135602061187b6116368361159b565b82815260069290921b8401810191818101908684111561189a57600080fd5b8286015b8481101561184f57604081890312156118b75760008081fd5b6118bf611500565b6118c882611402565b81526118d585830161145e565b8186015283529183019160400161189e565b6000602082840312156118f957600080fd5b67ffffffffffffffff8235111561190f57600080fd5b8135820183601f82011261192257600080fd5b61192f611636823561159b565b81358082526020808301929160051b84010186101561194d57600080fd5b602083015b6020843560051b850101811015611b445767ffffffffffffffff8135111561197957600080fd5b8035840160607fffffffffffffffffffffffffffffffffffffffffffffffffffffffffffffffe0828a030112156119af57600080fd5b6119b7611529565b6119c360208301611402565b815267ffffffffffffffff604083013511156119de57600080fd5b6040820135820189603f8201126119f457600080fd5b611a04611636602083013561159b565b602082810135808352908201919060051b83016040018c1015611a2657600080fd5b604083015b6040602085013560051b850101811015611afc5767ffffffffffffffff81351115611a5557600080fd5b60607fffffffffffffffffffffffffffffffffffffffffffffffffffffffffffffffc0823586018f03011215611a8a57600080fd5b611a92611529565b611aa160408335870101611402565b8152611ab26060833587010161145e565b602082015267ffffffffffffffff60808335870101351115611ad357600080fd5b611ae98e83358701608081013501604001611792565b6040820152835260209283019201611a2b565b506020840152505067ffffffffffffffff60608301351115611b1d57600080fd5b611b30896020606085013585010161185a565b604082015284525060209283019201611952565b5095945050505050565b60008060008060808587031215611b6457600080fd5b611b6d85611402565b9350611b7b60208601611402565b9250611b896040860161145e565b9150606085013567ffffffffffffffff811115611ba557600080fd5b611bb187828801611792565b91505092959194509250565b7f4e487b7100000000000000000000000000000000000000000000000000000000600052603260045260246000fd5b7f4e487b7100000000000000000000000000000000000000000000000000000000600052601160045260246000fd5b60007fffffffffffffffffffffffffffffffffffffffffffffffffffffffffffffffff8203611c4c57611c4c611bec565b5060010190565b600081611c6257611c62611bec565b507fffffffffffffffffffffffffffffffffffffffffffffffffffffffffffffffff0190565b7f4e487b7100000000000000000000000000000000000000000000000000000000600052602160045260246000fdfea26469706673582212206b6f33879449ad885cd29fd570635d642df53bc5c9505d6391105168ee0413b864736f6c63430008110033","opcodes":"PUSH1 0x80 PUSH1 0x40 MSTORE CALLVALUE DUP1 ISZERO PUSH2 0x10 JUMPI PUSH1 0x0 DUP1 REVERT JUMPDEST POP PUSH2 0x19 PUSH2 0x1E JUMP JUMPDEST PUSH2 0xDE JUMP JUMPDEST PUSH1 0x0 SLOAD PUSH2 0x100 SWAP1 DIV PUSH1 0xFF AND ISZERO PUSH2 0x8A JUMPI PUSH1 0x40 MLOAD PUSH3 0x461BCD PUSH1 0xE5 SHL DUP2 MSTORE PUSH1 0x20 PUSH1 0x4 DUP3 ADD MSTORE PUSH1 0x27 PUSH1 0x24 DUP3 ADD MSTORE PUSH32 0x496E697469616C697A61626C653A20636F6E747261637420697320696E697469 PUSH1 0x44 DUP3 ADD MSTORE PUSH7 0x616C697A696E67 PUSH1 0xC8 SHL PUSH1 0x64 DUP3 ADD MSTORE PUSH1 0x84 ADD PUSH1 0x40 MLOAD DUP1 SWAP2 SUB SWAP1 REVERT JUMPDEST PUSH1 0x0 SLOAD PUSH1 0xFF SWAP1 DUP2 AND LT ISZERO PUSH2 0xDC JUMPI PUSH1 0x0 DUP1 SLOAD PUSH1 0xFF NOT AND PUSH1 0xFF SWAP1 DUP2 OR SWAP1 SWAP2 SSTORE PUSH1 0x40 MLOAD SWAP1 DUP2 MSTORE PUSH32 0x7F26B83FF96E1F2B6A682F133852F6798A09C465DA95921460CEFB3847402498 SWAP1 PUSH1 0x20 ADD PUSH1 0x40 MLOAD DUP1 SWAP2 SUB SWAP1 LOG1 JUMPDEST JUMP JUMPDEST PUSH2 0x1CED DUP1 PUSH2 0xED PUSH1 0x0 CODECOPY PUSH1 0x0 RETURN INVALID PUSH1 0x80 PUSH1 0x40 MSTORE CALLVALUE DUP1 ISZERO PUSH2 0x10 JUMPI PUSH1 0x0 DUP1 REVERT JUMPDEST POP PUSH1 0x4 CALLDATASIZE LT PUSH2 0xBE JUMPI PUSH1 0x0 CALLDATALOAD PUSH1 0xE0 SHR DUP1 PUSH4 0xA224CEE7 GT PUSH2 0x76 JUMPI DUP1 PUSH4 0xCA7C51D0 GT PUSH2 0x5B JUMPI DUP1 PUSH4 0xCA7C51D0 EQ PUSH2 0x194 JUMPI DUP1 PUSH4 0xE8A67DAD EQ PUSH2 0x1A7 JUMPI DUP1 PUSH4 0xFD1CCC9B EQ PUSH2 0x1EF JUMPI PUSH1 0x0 DUP1 REVERT JUMPDEST DUP1 PUSH4 0xA224CEE7 EQ PUSH2 0x161 JUMPI DUP1 PUSH4 0xB091986D EQ PUSH2 0x174 JUMPI PUSH1 0x0 DUP1 REVERT JUMPDEST DUP1 PUSH4 0x28522895 GT PUSH2 0xA7 JUMPI DUP1 PUSH4 0x28522895 EQ PUSH2 0xFE JUMPI DUP1 PUSH4 0x405D30AF EQ PUSH2 0x121 JUMPI DUP1 PUSH4 0x840510CC EQ PUSH2 0x121 JUMPI PUSH1 0x0 DUP1 REVERT JUMPDEST DUP1 PUSH4 0xEB39344 EQ PUSH2 0xC3 JUMPI DUP1 PUSH4 0x261A48AF EQ PUSH2 0xE9 JUMPI JUMPDEST PUSH1 0x0 DUP1 REVERT JUMPDEST PUSH2 0xD6 PUSH2 0xD1 CALLDATASIZE PUSH1 0x4 PUSH2 0x142B JUMP JUMPDEST PUSH2 0x202 JUMP JUMPDEST PUSH1 0x40 MLOAD SWAP1 DUP2 MSTORE PUSH1 0x20 ADD JUMPDEST PUSH1 0x40 MLOAD DUP1 SWAP2 SUB SWAP1 RETURN JUMPDEST PUSH2 0xFC PUSH2 0xF7 CALLDATASIZE PUSH1 0x4 PUSH2 0x148E JUMP JUMPDEST PUSH2 0x23C JUMP JUMPDEST STOP JUMPDEST PUSH2 0x111 PUSH2 0x10C CALLDATASIZE PUSH1 0x4 PUSH2 0x15BF JUMP JUMPDEST PUSH2 0x36E JUMP JUMPDEST PUSH1 0x40 MLOAD SWAP1 ISZERO ISZERO DUP2 MSTORE PUSH1 0x20 ADD PUSH2 0xE0 JUMP JUMPDEST PUSH2 0x13C PUSH20 0xFFFFFFFFFFFFFFFFFFFFFFFFFFFFFFFFFFFFFFFF DUP2 JUMP JUMPDEST PUSH1 0x40 MLOAD PUSH20 0xFFFFFFFFFFFFFFFFFFFFFFFFFFFFFFFFFFFFFFFF SWAP1 SWAP2 AND DUP2 MSTORE PUSH1 0x20 ADD PUSH2 0xE0 JUMP JUMPDEST PUSH2 0xFC PUSH2 0x16F CALLDATASIZE PUSH1 0x4 PUSH2 0x1687 JUMP JUMPDEST PUSH2 0x41C JUMP JUMPDEST PUSH2 0x187 PUSH2 0x182 CALLDATASIZE PUSH1 0x4 PUSH2 0x148E JUMP JUMPDEST PUSH2 0x6EA JUMP JUMPDEST PUSH1 0x40 MLOAD PUSH2 0xE0 SWAP2 SWAP1 PUSH2 0x171F JUMP JUMPDEST PUSH2 0xFC PUSH2 0x1A2 CALLDATASIZE PUSH1 0x4 PUSH2 0x18E7 JUMP JUMPDEST PUSH2 0x7D7 JUMP JUMPDEST PUSH2 0x111 PUSH2 0x1B5 CALLDATASIZE PUSH1 0x4 PUSH2 0x142B JUMP JUMPDEST PUSH20 0xFFFFFFFFFFFFFFFFFFFFFFFFFFFFFFFFFFFFFFFF SWAP2 DUP3 AND PUSH1 0x0 SWAP1 DUP2 MSTORE PUSH1 0x33 PUSH1 0x20 SWAP1 DUP2 MSTORE PUSH1 0x40 DUP1 DUP4 KECCAK256 SWAP4 SWAP1 SWAP5 AND DUP3 MSTORE SWAP2 SWAP1 SWAP2 MSTORE KECCAK256 SLOAD ISZERO ISZERO SWAP1 JUMP JUMPDEST PUSH2 0xFC PUSH2 0x1FD CALLDATASIZE PUSH1 0x4 PUSH2 0x1B4E JUMP JUMPDEST PUSH2 0x8D4 JUMP JUMPDEST PUSH20 0xFFFFFFFFFFFFFFFFFFFFFFFFFFFFFFFFFFFFFFFF DUP1 DUP4 AND PUSH1 0x0 SWAP1 DUP2 MSTORE PUSH1 0x33 PUSH1 0x20 SWAP1 DUP2 MSTORE PUSH1 0x40 DUP1 DUP4 KECCAK256 SWAP4 DUP6 AND DUP4 MSTORE SWAP3 SWAP1 MSTORE KECCAK256 SLOAD JUMPDEST SWAP3 SWAP2 POP POP JUMP JUMPDEST PUSH1 0x2 PUSH1 0x1 SLOAD SUB PUSH2 0x2AD JUMPI PUSH1 0x40 MLOAD PUSH32 0x8C379A000000000000000000000000000000000000000000000000000000000 DUP2 MSTORE PUSH1 0x20 PUSH1 0x4 DUP3 ADD MSTORE PUSH1 0x1F PUSH1 0x24 DUP3 ADD MSTORE PUSH32 0x5265656E7472616E637947756172643A207265656E7472616E742063616C6C00 PUSH1 0x44 DUP3 ADD MSTORE PUSH1 0x64 ADD JUMPDEST PUSH1 0x40 MLOAD DUP1 SWAP2 SUB SWAP1 REVERT JUMPDEST PUSH1 0x2 PUSH1 0x1 SSTORE PUSH1 0x0 PUSH2 0x2BF DUP5 DUP5 DUP5 PUSH2 0xA03 JUMP JUMPDEST SWAP1 POP PUSH1 0x0 PUSH2 0x2EF CALLER ADDRESS PUSH32 0x261A48AF00000000000000000000000000000000000000000000000000000000 DUP6 PUSH2 0x36E JUMP JUMPDEST SWAP1 POP DUP1 PUSH2 0x358 JUMPI PUSH1 0x40 MLOAD PUSH32 0x8C379A000000000000000000000000000000000000000000000000000000000 DUP2 MSTORE PUSH1 0x20 PUSH1 0x4 DUP3 ADD MSTORE PUSH1 0x1D PUSH1 0x24 DUP3 ADD MSTORE PUSH32 0x415554484F52495A45525F53454E4445525F4E4F545F414C4C4F574544000000 PUSH1 0x44 DUP3 ADD MSTORE PUSH1 0x64 ADD PUSH2 0x2A4 JUMP JUMPDEST PUSH2 0x363 DUP6 DUP6 DUP6 PUSH2 0xAC1 JUMP JUMPDEST POP POP PUSH1 0x1 DUP1 SSTORE POP POP POP JUMP JUMPDEST PUSH1 0x0 PUSH2 0x37C DUP6 DUP6 DUP6 DUP6 PUSH2 0xC2D JUMP JUMPDEST ISZERO PUSH2 0x389 JUMPI POP PUSH1 0x1 PUSH2 0x414 JUMP JUMPDEST PUSH2 0x3A9 PUSH20 0xFFFFFFFFFFFFFFFFFFFFFFFFFFFFFFFFFFFFFFFF DUP6 DUP6 DUP6 PUSH2 0xC2D JUMP JUMPDEST ISZERO PUSH2 0x3B6 JUMPI POP PUSH1 0x1 PUSH2 0x414 JUMP JUMPDEST PUSH2 0x3D6 DUP6 PUSH20 0xFFFFFFFFFFFFFFFFFFFFFFFFFFFFFFFFFFFFFFFF DUP6 DUP6 PUSH2 0xC2D JUMP JUMPDEST ISZERO PUSH2 0x3E3 JUMPI POP PUSH1 0x1 PUSH2 0x414 JUMP JUMPDEST PUSH2 0x403 PUSH20 0xFFFFFFFFFFFFFFFFFFFFFFFFFFFFFFFFFFFFFFFF DUP1 DUP6 DUP6 PUSH2 0xC2D JUMP JUMPDEST ISZERO PUSH2 0x410 JUMPI POP PUSH1 0x1 PUSH2 0x414 JUMP JUMPDEST POP PUSH1 0x0 JUMPDEST SWAP5 SWAP4 POP POP POP POP JUMP JUMPDEST PUSH1 0x0 SLOAD PUSH2 0x100 SWAP1 DIV PUSH1 0xFF AND ISZERO DUP1 DUP1 ISZERO PUSH2 0x43C JUMPI POP PUSH1 0x0 SLOAD PUSH1 0x1 PUSH1 0xFF SWAP1 SWAP2 AND LT JUMPDEST DUP1 PUSH2 0x456 JUMPI POP ADDRESS EXTCODESIZE ISZERO DUP1 ISZERO PUSH2 0x456 JUMPI POP PUSH1 0x0 SLOAD PUSH1 0xFF AND PUSH1 0x1 EQ JUMPDEST PUSH2 0x4E2 JUMPI PUSH1 0x40 MLOAD PUSH32 0x8C379A000000000000000000000000000000000000000000000000000000000 DUP2 MSTORE PUSH1 0x20 PUSH1 0x4 DUP3 ADD MSTORE PUSH1 0x2E PUSH1 0x24 DUP3 ADD MSTORE PUSH32 0x496E697469616C697A61626C653A20636F6E747261637420697320616C726561 PUSH1 0x44 DUP3 ADD MSTORE PUSH32 0x647920696E697469616C697A6564000000000000000000000000000000000000 PUSH1 0x64 DUP3 ADD MSTORE PUSH1 0x84 ADD PUSH2 0x2A4 JUMP JUMPDEST PUSH1 0x0 DUP1 SLOAD PUSH32 0xFFFFFFFFFFFFFFFFFFFFFFFFFFFFFFFFFFFFFFFFFFFFFFFFFFFFFFFFFFFFFF00 AND PUSH1 0x1 OR SWAP1 SSTORE DUP1 ISZERO PUSH2 0x540 JUMPI PUSH1 0x0 DUP1 SLOAD PUSH32 0xFFFFFFFFFFFFFFFFFFFFFFFFFFFFFFFFFFFFFFFFFFFFFFFFFFFFFFFFFFFF00FF AND PUSH2 0x100 OR SWAP1 SSTORE JUMPDEST PUSH2 0x548 PUSH2 0xD34 JUMP JUMPDEST PUSH1 0x0 JUMPDEST DUP3 MLOAD DUP2 LT ISZERO PUSH2 0x682 JUMPI PUSH2 0x5E3 DUP4 DUP3 DUP2 MLOAD DUP2 LT PUSH2 0x569 JUMPI PUSH2 0x569 PUSH2 0x1BBD JUMP JUMPDEST PUSH1 0x20 SWAP1 DUP2 MUL SWAP2 SWAP1 SWAP2 ADD ADD MLOAD ADDRESS PUSH32 0xFD1CCC9B00000000000000000000000000000000000000000000000000000000 PUSH1 0x0 PUSH1 0x40 MLOAD SWAP1 DUP1 DUP3 MSTORE DUP1 PUSH1 0x20 MUL PUSH1 0x20 ADD DUP3 ADD PUSH1 0x40 MSTORE DUP1 ISZERO PUSH2 0x5DD JUMPI DUP2 PUSH1 0x20 ADD JUMPDEST PUSH1 0x40 DUP1 MLOAD DUP1 DUP3 ADD SWAP1 SWAP2 MSTORE PUSH1 0x0 DUP1 DUP3 MSTORE PUSH1 0x20 DUP3 ADD MSTORE DUP2 MSTORE PUSH1 0x20 ADD SWAP1 PUSH1 0x1 SWAP1 SUB SWAP1 DUP2 PUSH2 0x5B6 JUMPI SWAP1 POP JUMPDEST POP PUSH2 0xDD5 JUMP JUMPDEST PUSH2 0x670 DUP4 DUP3 DUP2 MLOAD DUP2 LT PUSH2 0x5F8 JUMPI PUSH2 0x5F8 PUSH2 0x1BBD JUMP JUMPDEST PUSH1 0x20 SWAP1 DUP2 MUL SWAP2 SWAP1 SWAP2 ADD ADD MLOAD ADDRESS PUSH32 0x261A48AF00000000000000000000000000000000000000000000000000000000 PUSH1 0x0 PUSH1 0x40 MLOAD SWAP1 DUP1 DUP3 MSTORE DUP1 PUSH1 0x20 MUL PUSH1 0x20 ADD DUP3 ADD PUSH1 0x40 MSTORE DUP1 ISZERO PUSH2 0x5DD JUMPI DUP2 PUSH1 0x20 ADD PUSH1 0x40 DUP1 MLOAD DUP1 DUP3 ADD SWAP1 SWAP2 MSTORE PUSH1 0x0 DUP1 DUP3 MSTORE PUSH1 0x20 DUP3 ADD MSTORE DUP2 MSTORE PUSH1 0x20 ADD SWAP1 PUSH1 0x1 SWAP1 SUB SWAP1 DUP2 PUSH2 0x5B6 JUMPI SWAP1 POP POP PUSH2 0xDD5 JUMP JUMPDEST DUP1 PUSH2 0x67A DUP2 PUSH2 0x1C1B JUMP JUMPDEST SWAP2 POP POP PUSH2 0x54B JUMP JUMPDEST POP DUP1 ISZERO PUSH2 0x6E6 JUMPI PUSH1 0x0 DUP1 SLOAD PUSH32 0xFFFFFFFFFFFFFFFFFFFFFFFFFFFFFFFFFFFFFFFFFFFFFFFFFFFFFFFFFFFF00FF AND SWAP1 SSTORE PUSH1 0x40 MLOAD PUSH1 0x1 DUP2 MSTORE PUSH32 0x7F26B83FF96E1F2B6A682F133852F6798A09C465DA95921460CEFB3847402498 SWAP1 PUSH1 0x20 ADD PUSH1 0x40 MLOAD DUP1 SWAP2 SUB SWAP1 LOG1 JUMPDEST POP POP JUMP JUMPDEST PUSH20 0xFFFFFFFFFFFFFFFFFFFFFFFFFFFFFFFFFFFFFFFF DUP1 DUP5 AND PUSH1 0x0 SWAP1 DUP2 MSTORE PUSH1 0x33 PUSH1 0x20 SWAP1 DUP2 MSTORE PUSH1 0x40 DUP1 DUP4 KECCAK256 SWAP4 DUP7 AND DUP4 MSTORE SWAP3 DUP2 MSTORE DUP3 DUP3 KECCAK256 PUSH32 0xFFFFFFFF00000000000000000000000000000000000000000000000000000000 DUP6 AND DUP4 MSTORE PUSH1 0x1 SWAP1 DUP2 ADD DUP3 MSTORE DUP4 DUP4 KECCAK256 ADD DUP1 SLOAD DUP5 MLOAD DUP2 DUP5 MUL DUP2 ADD DUP5 ADD SWAP1 SWAP6 MSTORE DUP1 DUP6 MSTORE PUSH1 0x60 SWAP5 SWAP4 SWAP2 SWAP3 SWAP1 SWAP2 SWAP1 DUP5 ADD JUMPDEST DUP3 DUP3 LT ISZERO PUSH2 0x7CA JUMPI PUSH1 0x0 DUP5 DUP2 MSTORE PUSH1 0x20 SWAP1 DUP2 SWAP1 KECCAK256 PUSH1 0x40 DUP1 MLOAD DUP1 DUP3 ADD SWAP1 SWAP2 MSTORE SWAP1 DUP5 ADD SLOAD PUSH1 0xFF DUP2 AND DUP3 MSTORE PUSH2 0x100 SWAP1 DIV PUSH31 0xFFFFFFFFFFFFFFFFFFFFFFFFFFFFFFFFFFFFFFFFFFFFFFFFFFFFFFFFFFFFFF AND DUP2 DUP4 ADD MSTORE DUP3 MSTORE PUSH1 0x1 SWAP1 SWAP3 ADD SWAP2 ADD PUSH2 0x76B JUMP JUMPDEST POP POP POP POP SWAP1 POP SWAP4 SWAP3 POP POP POP JUMP JUMPDEST PUSH1 0x0 JUMPDEST DUP2 MLOAD DUP2 LT ISZERO PUSH2 0x6E6 JUMPI PUSH1 0x0 DUP3 DUP3 DUP2 MLOAD DUP2 LT PUSH2 0x7F7 JUMPI PUSH2 0x7F7 PUSH2 0x1BBD JUMP JUMPDEST PUSH1 0x20 MUL PUSH1 0x20 ADD ADD MLOAD SWAP1 POP PUSH1 0x0 JUMPDEST DUP2 PUSH1 0x20 ADD MLOAD MLOAD DUP2 LT ISZERO PUSH2 0x862 JUMPI PUSH1 0x0 DUP3 PUSH1 0x20 ADD MLOAD DUP3 DUP2 MLOAD DUP2 LT PUSH2 0x829 JUMPI PUSH2 0x829 PUSH2 0x1BBD JUMP JUMPDEST PUSH1 0x20 MUL PUSH1 0x20 ADD ADD MLOAD SWAP1 POP PUSH2 0x84F DUP2 PUSH1 0x0 ADD MLOAD DUP5 PUSH1 0x0 ADD MLOAD DUP4 PUSH1 0x20 ADD MLOAD DUP5 PUSH1 0x40 ADD MLOAD PUSH2 0x8D4 JUMP JUMPDEST POP DUP1 PUSH2 0x85A DUP2 PUSH2 0x1C1B JUMP JUMPDEST SWAP2 POP POP PUSH2 0x804 JUMP JUMPDEST POP PUSH1 0x0 JUMPDEST DUP2 PUSH1 0x40 ADD MLOAD MLOAD DUP2 LT ISZERO PUSH2 0x8BF JUMPI PUSH1 0x0 DUP3 PUSH1 0x40 ADD MLOAD DUP3 DUP2 MLOAD DUP2 LT PUSH2 0x88B JUMPI PUSH2 0x88B PUSH2 0x1BBD JUMP JUMPDEST PUSH1 0x20 MUL PUSH1 0x20 ADD ADD MLOAD SWAP1 POP PUSH2 0x8AC DUP2 PUSH1 0x0 ADD MLOAD DUP5 PUSH1 0x0 ADD MLOAD DUP4 PUSH1 0x20 ADD MLOAD PUSH2 0x23C JUMP JUMPDEST POP DUP1 PUSH2 0x8B7 DUP2 PUSH2 0x1C1B JUMP JUMPDEST SWAP2 POP POP PUSH2 0x866 JUMP JUMPDEST POP POP DUP1 DUP1 PUSH2 0x8CC SWAP1 PUSH2 0x1C1B JUMP JUMPDEST SWAP2 POP POP PUSH2 0x7DA JUMP JUMPDEST PUSH1 0x2 PUSH1 0x1 SLOAD SUB PUSH2 0x940 JUMPI PUSH1 0x40 MLOAD PUSH32 0x8C379A000000000000000000000000000000000000000000000000000000000 DUP2 MSTORE PUSH1 0x20 PUSH1 0x4 DUP3 ADD MSTORE PUSH1 0x1F PUSH1 0x24 DUP3 ADD MSTORE PUSH32 0x5265656E7472616E637947756172643A207265656E7472616E742063616C6C00 PUSH1 0x44 DUP3 ADD MSTORE PUSH1 0x64 ADD PUSH2 0x2A4 JUMP JUMPDEST PUSH1 0x2 PUSH1 0x1 SSTORE PUSH1 0x0 PUSH2 0x952 DUP6 DUP6 DUP6 PUSH2 0xA03 JUMP JUMPDEST SWAP1 POP PUSH1 0x0 PUSH2 0x982 CALLER ADDRESS PUSH32 0xFD1CCC9B00000000000000000000000000000000000000000000000000000000 DUP6 PUSH2 0x36E JUMP JUMPDEST SWAP1 POP DUP1 PUSH2 0x9EB JUMPI PUSH1 0x40 MLOAD PUSH32 0x8C379A000000000000000000000000000000000000000000000000000000000 DUP2 MSTORE PUSH1 0x20 PUSH1 0x4 DUP3 ADD MSTORE PUSH1 0x1D PUSH1 0x24 DUP3 ADD MSTORE PUSH32 0x415554484F52495A45525F53454E4445525F4E4F545F414C4C4F574544000000 PUSH1 0x44 DUP3 ADD MSTORE PUSH1 0x64 ADD PUSH2 0x2A4 JUMP JUMPDEST PUSH2 0x9F7 DUP7 DUP7 DUP7 DUP7 PUSH2 0xDD5 JUMP JUMPDEST POP POP PUSH1 0x1 DUP1 SSTORE POP POP POP POP JUMP JUMPDEST PUSH1 0x40 DUP1 MLOAD PUSH1 0x3 DUP1 DUP3 MSTORE PUSH1 0x80 DUP3 ADD SWAP1 SWAP3 MSTORE PUSH1 0x60 SWAP2 PUSH1 0x20 DUP3 ADD DUP4 DUP1 CALLDATASIZE DUP4 CALLDATACOPY ADD SWAP1 POP POP SWAP1 POP DUP4 PUSH20 0xFFFFFFFFFFFFFFFFFFFFFFFFFFFFFFFFFFFFFFFF AND DUP2 PUSH1 0x0 DUP2 MLOAD DUP2 LT PUSH2 0xA4F JUMPI PUSH2 0xA4F PUSH2 0x1BBD JUMP JUMPDEST PUSH1 0x20 MUL PUSH1 0x20 ADD ADD DUP2 DUP2 MSTORE POP POP DUP3 PUSH20 0xFFFFFFFFFFFFFFFFFFFFFFFFFFFFFFFFFFFFFFFF AND DUP2 PUSH1 0x1 DUP2 MLOAD DUP2 LT PUSH2 0xA85 JUMPI PUSH2 0xA85 PUSH2 0x1BBD JUMP JUMPDEST PUSH1 0x20 MUL PUSH1 0x20 ADD ADD DUP2 DUP2 MSTORE POP POP DUP2 PUSH1 0xE0 SHR PUSH4 0xFFFFFFFF AND DUP2 PUSH1 0x2 DUP2 MLOAD DUP2 LT PUSH2 0xAAE JUMPI PUSH2 0xAAE PUSH2 0x1BBD JUMP JUMPDEST PUSH1 0x20 MUL PUSH1 0x20 ADD ADD DUP2 DUP2 MSTORE POP POP SWAP4 SWAP3 POP POP POP JUMP JUMPDEST PUSH20 0xFFFFFFFFFFFFFFFFFFFFFFFFFFFFFFFFFFFFFFFF DUP1 DUP5 AND PUSH1 0x0 SWAP1 DUP2 MSTORE PUSH1 0x33 PUSH1 0x20 SWAP1 DUP2 MSTORE PUSH1 0x40 DUP1 DUP4 KECCAK256 SWAP4 DUP7 AND DUP4 MSTORE SWAP3 DUP2 MSTORE DUP3 DUP3 KECCAK256 PUSH32 0xFFFFFFFF00000000000000000000000000000000000000000000000000000000 DUP6 AND DUP4 MSTORE PUSH1 0x1 DUP2 ADD SWAP1 SWAP2 MSTORE SWAP2 SWAP1 KECCAK256 DUP1 SLOAD PUSH1 0xFF AND ISZERO PUSH2 0xB42 JUMPI DUP2 SLOAD DUP3 PUSH1 0x0 PUSH2 0xB3C DUP4 PUSH2 0x1C53 JUMP JUMPDEST SWAP2 SWAP1 POP SSTORE POP JUMPDEST PUSH32 0xFFFFFFFF00000000000000000000000000000000000000000000000000000000 DUP4 AND PUSH1 0x0 SWAP1 DUP2 MSTORE PUSH1 0x1 DUP1 DUP5 ADD PUSH1 0x20 MSTORE PUSH1 0x40 DUP3 KECCAK256 DUP1 SLOAD PUSH32 0xFFFFFFFFFFFFFFFFFFFFFFFFFFFFFFFFFFFFFFFFFFFFFFFFFFFFFFFFFFFFFF00 AND DUP2 SSTORE SWAP2 SWAP1 PUSH2 0xBAA SWAP1 DUP4 ADD DUP3 PUSH2 0x13C8 JUMP JUMPDEST POP POP DUP3 PUSH28 0xFFFFFFFFFFFFFFFFFFFFFFFFFFFFFFFFFFFFFFFFFFFFFFFFFFFFFFFF NOT AND DUP5 PUSH20 0xFFFFFFFFFFFFFFFFFFFFFFFFFFFFFFFFFFFFFFFF AND DUP7 PUSH20 0xFFFFFFFFFFFFFFFFFFFFFFFFFFFFFFFFFFFFFFFF AND PUSH32 0xA8095E01DCC1C206B8B64F0BCAF4FEE219B0EE0BD623EA32F9876E19600CDB63 PUSH1 0x40 MLOAD PUSH1 0x40 MLOAD DUP1 SWAP2 SUB SWAP1 LOG4 POP POP POP POP POP JUMP JUMPDEST PUSH20 0xFFFFFFFFFFFFFFFFFFFFFFFFFFFFFFFFFFFFFFFF DUP1 DUP6 AND PUSH1 0x0 SWAP1 DUP2 MSTORE PUSH1 0x33 PUSH1 0x20 SWAP1 DUP2 MSTORE PUSH1 0x40 DUP1 DUP4 KECCAK256 SWAP4 DUP8 AND DUP4 MSTORE SWAP3 DUP2 MSTORE DUP3 DUP3 KECCAK256 PUSH32 0xFFFFFFFF00000000000000000000000000000000000000000000000000000000 DUP7 AND DUP4 MSTORE PUSH1 0x1 ADD SWAP1 MSTORE SWAP1 DUP2 KECCAK256 DUP1 SLOAD PUSH1 0xFF AND DUP1 ISZERO PUSH2 0xD2A JUMPI POP PUSH2 0xD2A DUP2 PUSH1 0x1 ADD DUP1 SLOAD DUP1 PUSH1 0x20 MUL PUSH1 0x20 ADD PUSH1 0x40 MLOAD SWAP1 DUP2 ADD PUSH1 0x40 MSTORE DUP1 SWAP3 SWAP2 SWAP1 DUP2 DUP2 MSTORE PUSH1 0x20 ADD PUSH1 0x0 SWAP1 JUMPDEST DUP3 DUP3 LT ISZERO PUSH2 0xD20 JUMPI PUSH1 0x0 DUP5 DUP2 MSTORE PUSH1 0x20 SWAP1 DUP2 SWAP1 KECCAK256 PUSH1 0x40 DUP1 MLOAD DUP1 DUP3 ADD SWAP1 SWAP2 MSTORE SWAP1 DUP5 ADD SLOAD PUSH1 0xFF DUP2 AND DUP3 MSTORE PUSH2 0x100 SWAP1 DIV PUSH31 0xFFFFFFFFFFFFFFFFFFFFFFFFFFFFFFFFFFFFFFFFFFFFFFFFFFFFFFFFFFFFFF AND DUP2 DUP4 ADD MSTORE DUP3 MSTORE PUSH1 0x1 SWAP1 SWAP3 ADD SWAP2 ADD PUSH2 0xCC1 JUMP JUMPDEST POP POP POP POP DUP5 PUSH2 0xFA1 JUMP JUMPDEST SWAP7 SWAP6 POP POP POP POP POP POP JUMP JUMPDEST PUSH1 0x0 SLOAD PUSH2 0x100 SWAP1 DIV PUSH1 0xFF AND PUSH2 0xDCB JUMPI PUSH1 0x40 MLOAD PUSH32 0x8C379A000000000000000000000000000000000000000000000000000000000 DUP2 MSTORE PUSH1 0x20 PUSH1 0x4 DUP3 ADD MSTORE PUSH1 0x2B PUSH1 0x24 DUP3 ADD MSTORE PUSH32 0x496E697469616C697A61626C653A20636F6E7472616374206973206E6F742069 PUSH1 0x44 DUP3 ADD MSTORE PUSH32 0x6E697469616C697A696E67000000000000000000000000000000000000000000 PUSH1 0x64 DUP3 ADD MSTORE PUSH1 0x84 ADD PUSH2 0x2A4 JUMP JUMPDEST PUSH2 0xDD3 PUSH2 0x1067 JUMP JUMPDEST JUMP JUMPDEST PUSH20 0xFFFFFFFFFFFFFFFFFFFFFFFFFFFFFFFFFFFFFFFF DUP1 DUP6 AND PUSH1 0x0 SWAP1 DUP2 MSTORE PUSH1 0x33 PUSH1 0x20 SWAP1 DUP2 MSTORE PUSH1 0x40 DUP1 DUP4 KECCAK256 SWAP4 DUP8 AND DUP4 MSTORE SWAP3 DUP2 MSTORE DUP3 DUP3 KECCAK256 PUSH32 0xFFFFFFFF00000000000000000000000000000000000000000000000000000000 DUP7 AND DUP4 MSTORE PUSH1 0x1 DUP2 ADD SWAP1 SWAP2 MSTORE SWAP2 SWAP1 KECCAK256 DUP1 SLOAD PUSH1 0xFF AND PUSH2 0xE55 JUMPI DUP2 SLOAD DUP3 PUSH1 0x0 PUSH2 0xE4F DUP4 PUSH2 0x1C1B JUMP JUMPDEST SWAP2 SWAP1 POP SSTORE POP JUMPDEST DUP1 SLOAD PUSH32 0xFFFFFFFFFFFFFFFFFFFFFFFFFFFFFFFFFFFFFFFFFFFFFFFFFFFFFFFFFFFFFF00 AND PUSH1 0x1 SWAP1 DUP2 OR DUP3 SSTORE PUSH2 0xE8D SWAP1 DUP3 ADD PUSH1 0x0 PUSH2 0x13C8 JUMP JUMPDEST PUSH1 0x0 JUMPDEST DUP4 MLOAD DUP2 LT ISZERO PUSH2 0xF13 JUMPI DUP2 PUSH1 0x1 ADD DUP5 DUP3 DUP2 MLOAD DUP2 LT PUSH2 0xEAF JUMPI PUSH2 0xEAF PUSH2 0x1BBD JUMP JUMPDEST PUSH1 0x20 SWAP1 DUP2 MUL SWAP2 SWAP1 SWAP2 ADD DUP2 ADD MLOAD DUP3 SLOAD PUSH1 0x1 DUP2 ADD DUP5 SSTORE PUSH1 0x0 SWAP4 DUP5 MSTORE SWAP3 DUP3 SWAP1 KECCAK256 DUP2 MLOAD SWAP2 SWAP1 SWAP3 ADD MLOAD PUSH31 0xFFFFFFFFFFFFFFFFFFFFFFFFFFFFFFFFFFFFFFFFFFFFFFFFFFFFFFFFFFFFFF AND PUSH2 0x100 MUL PUSH1 0xFF SWAP1 SWAP2 AND OR SWAP2 ADD SSTORE DUP1 PUSH2 0xF0B DUP2 PUSH2 0x1C1B JUMP JUMPDEST SWAP2 POP POP PUSH2 0xE90 JUMP JUMPDEST POP DUP4 PUSH28 0xFFFFFFFFFFFFFFFFFFFFFFFFFFFFFFFFFFFFFFFFFFFFFFFFFFFFFFFF NOT AND DUP6 PUSH20 0xFFFFFFFFFFFFFFFFFFFFFFFFFFFFFFFFFFFFFFFF AND DUP8 PUSH20 0xFFFFFFFFFFFFFFFFFFFFFFFFFFFFFFFFFFFFFFFF AND PUSH32 0xA4E3AD0D161589A3D7D368C479C5C4BD9D753EA8F4865B26801B7E9823235FF5 DUP7 PUSH1 0x40 MLOAD PUSH2 0xF91 SWAP2 SWAP1 PUSH2 0x171F JUMP JUMPDEST PUSH1 0x40 MLOAD DUP1 SWAP2 SUB SWAP1 LOG4 POP POP POP POP POP POP JUMP JUMPDEST PUSH1 0x0 DUP1 JUMPDEST DUP4 MLOAD DUP2 LT ISZERO PUSH2 0x105D JUMPI PUSH1 0x0 DUP5 DUP3 DUP2 MLOAD DUP2 LT PUSH2 0xFC2 JUMPI PUSH2 0xFC2 PUSH2 0x1BBD JUMP JUMPDEST PUSH1 0x20 MUL PUSH1 0x20 ADD ADD MLOAD SWAP1 POP DUP4 MLOAD DUP3 LT DUP1 ISZERO PUSH2 0xFFC JUMPI POP PUSH2 0xFFA DUP2 DUP6 DUP5 DUP2 MLOAD DUP2 LT PUSH2 0xFED JUMPI PUSH2 0xFED PUSH2 0x1BBD JUMP JUMPDEST PUSH1 0x20 MUL PUSH1 0x20 ADD ADD MLOAD PUSH2 0x1104 JUMP JUMPDEST ISZERO JUMPDEST DUP1 PUSH2 0x103A JUMPI POP DUP4 MLOAD DUP3 LT ISZERO DUP1 ISZERO PUSH2 0x103A JUMPI POP PUSH1 0x0 DUP2 MLOAD PUSH1 0xFF AND PUSH1 0x6 DUP2 GT ISZERO PUSH2 0x1026 JUMPI PUSH2 0x1026 PUSH2 0x1C88 JUMP JUMPDEST PUSH1 0x6 DUP2 GT ISZERO PUSH2 0x1037 JUMPI PUSH2 0x1037 PUSH2 0x1C88 JUMP JUMPDEST EQ ISZERO JUMPDEST ISZERO PUSH2 0x104A JUMPI PUSH1 0x0 SWAP3 POP POP POP PUSH2 0x236 JUMP JUMPDEST POP DUP1 PUSH2 0x1055 DUP2 PUSH2 0x1C1B JUMP JUMPDEST SWAP2 POP POP PUSH2 0xFA5 JUMP JUMPDEST POP PUSH1 0x1 SWAP4 SWAP3 POP POP POP JUMP JUMPDEST PUSH1 0x0 SLOAD PUSH2 0x100 SWAP1 DIV PUSH1 0xFF AND PUSH2 0x10FE JUMPI PUSH1 0x40 MLOAD PUSH32 0x8C379A000000000000000000000000000000000000000000000000000000000 DUP2 MSTORE PUSH1 0x20 PUSH1 0x4 DUP3 ADD MSTORE PUSH1 0x2B PUSH1 0x24 DUP3 ADD MSTORE PUSH32 0x496E697469616C697A61626C653A20636F6E7472616374206973206E6F742069 PUSH1 0x44 DUP3 ADD MSTORE PUSH32 0x6E697469616C697A696E67000000000000000000000000000000000000000000 PUSH1 0x64 DUP3 ADD MSTORE PUSH1 0x84 ADD PUSH2 0x2A4 JUMP JUMPDEST PUSH1 0x1 DUP1 SSTORE JUMP JUMPDEST PUSH1 0x0 DUP1 DUP4 MLOAD PUSH1 0xFF AND PUSH1 0x6 DUP2 GT ISZERO PUSH2 0x111D JUMPI PUSH2 0x111D PUSH2 0x1C88 JUMP JUMPDEST PUSH1 0x6 DUP2 GT ISZERO PUSH2 0x112E JUMPI PUSH2 0x112E PUSH2 0x1C88 JUMP JUMPDEST SUB PUSH2 0x113B JUMPI POP PUSH1 0x1 PUSH2 0x236 JUMP JUMPDEST PUSH1 0x1 DUP4 MLOAD PUSH1 0xFF AND PUSH1 0x6 DUP2 GT ISZERO PUSH2 0x1153 JUMPI PUSH2 0x1153 PUSH2 0x1C88 JUMP JUMPDEST PUSH1 0x6 DUP2 GT ISZERO PUSH2 0x1164 JUMPI PUSH2 0x1164 PUSH2 0x1C88 JUMP JUMPDEST SUB PUSH2 0x1197 JUMPI POP PUSH1 0x20 DUP3 ADD MLOAD PUSH31 0xFFFFFFFFFFFFFFFFFFFFFFFFFFFFFFFFFFFFFFFFFFFFFFFFFFFFFFFFFFFFFF AND DUP2 EQ PUSH2 0x236 JUMP JUMPDEST PUSH1 0x2 DUP4 MLOAD PUSH1 0xFF AND PUSH1 0x6 DUP2 GT ISZERO PUSH2 0x11AF JUMPI PUSH2 0x11AF PUSH2 0x1C88 JUMP JUMPDEST PUSH1 0x6 DUP2 GT ISZERO PUSH2 0x11C0 JUMPI PUSH2 0x11C0 PUSH2 0x1C88 JUMP JUMPDEST SUB PUSH2 0x11F4 JUMPI POP PUSH1 0x20 DUP3 ADD MLOAD PUSH31 0xFFFFFFFFFFFFFFFFFFFFFFFFFFFFFFFFFFFFFFFFFFFFFFFFFFFFFFFFFFFFFF AND DUP2 EQ ISZERO PUSH2 0x236 JUMP JUMPDEST PUSH1 0x3 DUP4 MLOAD PUSH1 0xFF AND PUSH1 0x6 DUP2 GT ISZERO PUSH2 0x120C JUMPI PUSH2 0x120C PUSH2 0x1C88 JUMP JUMPDEST PUSH1 0x6 DUP2 GT ISZERO PUSH2 0x121D JUMPI PUSH2 0x121D PUSH2 0x1C88 JUMP JUMPDEST SUB PUSH2 0x1250 JUMPI POP PUSH1 0x20 DUP3 ADD MLOAD PUSH31 0xFFFFFFFFFFFFFFFFFFFFFFFFFFFFFFFFFFFFFFFFFFFFFFFFFFFFFFFFFFFFFF AND DUP2 GT PUSH2 0x236 JUMP JUMPDEST PUSH1 0x4 DUP4 MLOAD PUSH1 0xFF AND PUSH1 0x6 DUP2 GT ISZERO PUSH2 0x1268 JUMPI PUSH2 0x1268 PUSH2 0x1C88 JUMP JUMPDEST PUSH1 0x6 DUP2 GT ISZERO PUSH2 0x1279 JUMPI PUSH2 0x1279 PUSH2 0x1C88 JUMP JUMPDEST SUB PUSH2 0x12AC JUMPI POP PUSH1 0x20 DUP3 ADD MLOAD PUSH31 0xFFFFFFFFFFFFFFFFFFFFFFFFFFFFFFFFFFFFFFFFFFFFFFFFFFFFFFFFFFFFFF AND DUP2 LT PUSH2 0x236 JUMP JUMPDEST PUSH1 0x5 DUP4 MLOAD PUSH1 0xFF AND PUSH1 0x6 DUP2 GT ISZERO PUSH2 0x12C4 JUMPI PUSH2 0x12C4 PUSH2 0x1C88 JUMP JUMPDEST PUSH1 0x6 DUP2 GT ISZERO PUSH2 0x12D5 JUMPI PUSH2 0x12D5 PUSH2 0x1C88 JUMP JUMPDEST SUB PUSH2 0x1309 JUMPI POP PUSH1 0x20 DUP3 ADD MLOAD PUSH31 0xFFFFFFFFFFFFFFFFFFFFFFFFFFFFFFFFFFFFFFFFFFFFFFFFFFFFFFFFFFFFFF AND DUP2 LT ISZERO PUSH2 0x236 JUMP JUMPDEST PUSH1 0x6 DUP4 MLOAD PUSH1 0xFF AND PUSH1 0x6 DUP2 GT ISZERO PUSH2 0x1321 JUMPI PUSH2 0x1321 PUSH2 0x1C88 JUMP JUMPDEST PUSH1 0x6 DUP2 GT ISZERO PUSH2 0x1332 JUMPI PUSH2 0x1332 PUSH2 0x1C88 JUMP JUMPDEST SUB PUSH2 0x1366 JUMPI POP PUSH1 0x20 DUP3 ADD MLOAD PUSH31 0xFFFFFFFFFFFFFFFFFFFFFFFFFFFFFFFFFFFFFFFFFFFFFFFFFFFFFFFFFFFFFF AND DUP2 GT ISZERO PUSH2 0x236 JUMP JUMPDEST PUSH1 0x40 MLOAD PUSH32 0x8C379A000000000000000000000000000000000000000000000000000000000 DUP2 MSTORE PUSH1 0x20 PUSH1 0x4 DUP3 ADD MSTORE PUSH1 0x1B PUSH1 0x24 DUP3 ADD MSTORE PUSH32 0x415554484F52495A45525F494E56414C49445F504152414D5F4F500000000000 PUSH1 0x44 DUP3 ADD MSTORE PUSH1 0x64 ADD PUSH2 0x2A4 JUMP JUMPDEST POP DUP1 SLOAD PUSH1 0x0 DUP3 SSTORE SWAP1 PUSH1 0x0 MSTORE PUSH1 0x20 PUSH1 0x0 KECCAK256 SWAP1 DUP2 ADD SWAP1 PUSH2 0x13E6 SWAP2 SWAP1 PUSH2 0x13E9 JUMP JUMPDEST POP JUMP JUMPDEST JUMPDEST DUP1 DUP3 GT ISZERO PUSH2 0x13FE JUMPI PUSH1 0x0 DUP2 SSTORE PUSH1 0x1 ADD PUSH2 0x13EA JUMP JUMPDEST POP SWAP1 JUMP JUMPDEST DUP1 CALLDATALOAD PUSH20 0xFFFFFFFFFFFFFFFFFFFFFFFFFFFFFFFFFFFFFFFF DUP2 AND DUP2 EQ PUSH2 0x1426 JUMPI PUSH1 0x0 DUP1 REVERT JUMPDEST SWAP2 SWAP1 POP JUMP JUMPDEST PUSH1 0x0 DUP1 PUSH1 0x40 DUP4 DUP6 SUB SLT ISZERO PUSH2 0x143E JUMPI PUSH1 0x0 DUP1 REVERT JUMPDEST PUSH2 0x1447 DUP4 PUSH2 0x1402 JUMP JUMPDEST SWAP2 POP PUSH2 0x1455 PUSH1 0x20 DUP5 ADD PUSH2 0x1402 JUMP JUMPDEST SWAP1 POP SWAP3 POP SWAP3 SWAP1 POP JUMP JUMPDEST DUP1 CALLDATALOAD PUSH32 0xFFFFFFFF00000000000000000000000000000000000000000000000000000000 DUP2 AND DUP2 EQ PUSH2 0x1426 JUMPI PUSH1 0x0 DUP1 REVERT JUMPDEST PUSH1 0x0 DUP1 PUSH1 0x0 PUSH1 0x60 DUP5 DUP7 SUB SLT ISZERO PUSH2 0x14A3 JUMPI PUSH1 0x0 DUP1 REVERT JUMPDEST PUSH2 0x14AC DUP5 PUSH2 0x1402 JUMP JUMPDEST SWAP3 POP PUSH2 0x14BA PUSH1 0x20 DUP6 ADD PUSH2 0x1402 JUMP JUMPDEST SWAP2 POP PUSH2 0x14C8 PUSH1 0x40 DUP6 ADD PUSH2 0x145E JUMP JUMPDEST SWAP1 POP SWAP3 POP SWAP3 POP SWAP3 JUMP JUMPDEST PUSH32 0x4E487B7100000000000000000000000000000000000000000000000000000000 PUSH1 0x0 MSTORE PUSH1 0x41 PUSH1 0x4 MSTORE PUSH1 0x24 PUSH1 0x0 REVERT JUMPDEST PUSH1 0x40 DUP1 MLOAD SWAP1 DUP2 ADD PUSH8 0xFFFFFFFFFFFFFFFF DUP2 GT DUP3 DUP3 LT OR ISZERO PUSH2 0x1523 JUMPI PUSH2 0x1523 PUSH2 0x14D1 JUMP JUMPDEST PUSH1 0x40 MSTORE SWAP1 JUMP JUMPDEST PUSH1 0x40 MLOAD PUSH1 0x60 DUP2 ADD PUSH8 0xFFFFFFFFFFFFFFFF DUP2 GT DUP3 DUP3 LT OR ISZERO PUSH2 0x1523 JUMPI PUSH2 0x1523 PUSH2 0x14D1 JUMP JUMPDEST PUSH1 0x40 MLOAD PUSH1 0x1F DUP3 ADD PUSH32 0xFFFFFFFFFFFFFFFFFFFFFFFFFFFFFFFFFFFFFFFFFFFFFFFFFFFFFFFFFFFFFFE0 AND DUP2 ADD PUSH8 0xFFFFFFFFFFFFFFFF DUP2 GT DUP3 DUP3 LT OR ISZERO PUSH2 0x1593 JUMPI PUSH2 0x1593 PUSH2 0x14D1 JUMP JUMPDEST PUSH1 0x40 MSTORE SWAP2 SWAP1 POP JUMP JUMPDEST PUSH1 0x0 PUSH8 0xFFFFFFFFFFFFFFFF DUP3 GT ISZERO PUSH2 0x15B5 JUMPI PUSH2 0x15B5 PUSH2 0x14D1 JUMP JUMPDEST POP PUSH1 0x5 SHL PUSH1 0x20 ADD SWAP1 JUMP JUMPDEST PUSH1 0x0 DUP1 PUSH1 0x0 DUP1 PUSH1 0x80 DUP6 DUP8 SUB SLT ISZERO PUSH2 0x15D5 JUMPI PUSH1 0x0 DUP1 REVERT JUMPDEST PUSH2 0x15DE DUP6 PUSH2 0x1402 JUMP JUMPDEST SWAP4 POP PUSH1 0x20 PUSH2 0x15ED DUP2 DUP8 ADD PUSH2 0x1402 JUMP JUMPDEST SWAP4 POP PUSH2 0x15FB PUSH1 0x40 DUP8 ADD PUSH2 0x145E JUMP JUMPDEST SWAP3 POP PUSH1 0x60 DUP7 ADD CALLDATALOAD PUSH8 0xFFFFFFFFFFFFFFFF DUP2 GT ISZERO PUSH2 0x1617 JUMPI PUSH1 0x0 DUP1 REVERT JUMPDEST DUP7 ADD PUSH1 0x1F DUP2 ADD DUP9 SGT PUSH2 0x1628 JUMPI PUSH1 0x0 DUP1 REVERT JUMPDEST DUP1 CALLDATALOAD PUSH2 0x163B PUSH2 0x1636 DUP3 PUSH2 0x159B JUMP JUMPDEST PUSH2 0x154C JUMP JUMPDEST DUP2 DUP2 MSTORE PUSH1 0x5 SWAP2 SWAP1 SWAP2 SHL DUP3 ADD DUP4 ADD SWAP1 DUP4 DUP2 ADD SWAP1 DUP11 DUP4 GT ISZERO PUSH2 0x165A JUMPI PUSH1 0x0 DUP1 REVERT JUMPDEST SWAP3 DUP5 ADD SWAP3 JUMPDEST DUP3 DUP5 LT ISZERO PUSH2 0x1678 JUMPI DUP4 CALLDATALOAD DUP3 MSTORE SWAP3 DUP5 ADD SWAP3 SWAP1 DUP5 ADD SWAP1 PUSH2 0x165F JUMP JUMPDEST SWAP8 SWAP11 SWAP7 SWAP10 POP SWAP5 SWAP8 POP POP POP POP POP POP JUMP JUMPDEST PUSH1 0x0 PUSH1 0x20 DUP1 DUP4 DUP6 SUB SLT ISZERO PUSH2 0x169A JUMPI PUSH1 0x0 DUP1 REVERT JUMPDEST DUP3 CALLDATALOAD PUSH8 0xFFFFFFFFFFFFFFFF DUP2 GT ISZERO PUSH2 0x16B1 JUMPI PUSH1 0x0 DUP1 REVERT JUMPDEST DUP4 ADD PUSH1 0x1F DUP2 ADD DUP6 SGT PUSH2 0x16C2 JUMPI PUSH1 0x0 DUP1 REVERT JUMPDEST DUP1 CALLDATALOAD PUSH2 0x16D0 PUSH2 0x1636 DUP3 PUSH2 0x159B JUMP JUMPDEST DUP2 DUP2 MSTORE PUSH1 0x5 SWAP2 SWAP1 SWAP2 SHL DUP3 ADD DUP4 ADD SWAP1 DUP4 DUP2 ADD SWAP1 DUP8 DUP4 GT ISZERO PUSH2 0x16EF JUMPI PUSH1 0x0 DUP1 REVERT JUMPDEST SWAP3 DUP5 ADD SWAP3 JUMPDEST DUP3 DUP5 LT ISZERO PUSH2 0x1714 JUMPI PUSH2 0x1705 DUP5 PUSH2 0x1402 JUMP JUMPDEST DUP3 MSTORE SWAP3 DUP5 ADD SWAP3 SWAP1 DUP5 ADD SWAP1 PUSH2 0x16F4 JUMP JUMPDEST SWAP8 SWAP7 POP POP POP POP POP POP POP JUMP JUMPDEST PUSH1 0x20 DUP1 DUP3 MSTORE DUP3 MLOAD DUP3 DUP3 ADD DUP2 SWAP1 MSTORE PUSH1 0x0 SWAP2 SWAP1 PUSH1 0x40 SWAP1 DUP2 DUP6 ADD SWAP1 DUP7 DUP5 ADD DUP6 JUMPDEST DUP3 DUP2 LT ISZERO PUSH2 0x1785 JUMPI DUP2 MLOAD DUP1 MLOAD PUSH1 0xFF AND DUP6 MSTORE DUP7 ADD MLOAD PUSH31 0xFFFFFFFFFFFFFFFFFFFFFFFFFFFFFFFFFFFFFFFFFFFFFFFFFFFFFFFFFFFFFF AND DUP7 DUP6 ADD MSTORE SWAP3 DUP5 ADD SWAP3 SWAP1 DUP6 ADD SWAP1 PUSH1 0x1 ADD PUSH2 0x173C JUMP JUMPDEST POP SWAP2 SWAP8 SWAP7 POP POP POP POP POP POP POP JUMP JUMPDEST PUSH1 0x0 DUP3 PUSH1 0x1F DUP4 ADD SLT PUSH2 0x17A3 JUMPI PUSH1 0x0 DUP1 REVERT JUMPDEST DUP2 CALLDATALOAD PUSH1 0x20 PUSH2 0x17B3 PUSH2 0x1636 DUP4 PUSH2 0x159B JUMP JUMPDEST DUP3 DUP2 MSTORE PUSH1 0x6 SWAP3 SWAP1 SWAP3 SHL DUP5 ADD DUP2 ADD SWAP2 DUP2 DUP2 ADD SWAP1 DUP7 DUP5 GT ISZERO PUSH2 0x17D2 JUMPI PUSH1 0x0 DUP1 REVERT JUMPDEST DUP3 DUP7 ADD JUMPDEST DUP5 DUP2 LT ISZERO PUSH2 0x184F JUMPI PUSH1 0x40 DUP2 DUP10 SUB SLT ISZERO PUSH2 0x17EF JUMPI PUSH1 0x0 DUP1 DUP2 REVERT JUMPDEST PUSH2 0x17F7 PUSH2 0x1500 JUMP JUMPDEST DUP2 CALLDATALOAD PUSH1 0xFF DUP2 AND DUP2 EQ PUSH2 0x1809 JUMPI PUSH1 0x0 DUP1 DUP2 REVERT JUMPDEST DUP2 MSTORE DUP2 DUP6 ADD CALLDATALOAD PUSH31 0xFFFFFFFFFFFFFFFFFFFFFFFFFFFFFFFFFFFFFFFFFFFFFFFFFFFFFFFFFFFFFF DUP2 AND DUP2 EQ PUSH2 0x183D JUMPI PUSH1 0x0 DUP1 DUP2 REVERT JUMPDEST DUP2 DUP7 ADD MSTORE DUP4 MSTORE SWAP2 DUP4 ADD SWAP2 PUSH1 0x40 ADD PUSH2 0x17D6 JUMP JUMPDEST POP SWAP7 SWAP6 POP POP POP POP POP POP JUMP JUMPDEST PUSH1 0x0 DUP3 PUSH1 0x1F DUP4 ADD SLT PUSH2 0x186B JUMPI PUSH1 0x0 DUP1 REVERT JUMPDEST DUP2 CALLDATALOAD PUSH1 0x20 PUSH2 0x187B PUSH2 0x1636 DUP4 PUSH2 0x159B JUMP JUMPDEST DUP3 DUP2 MSTORE PUSH1 0x6 SWAP3 SWAP1 SWAP3 SHL DUP5 ADD DUP2 ADD SWAP2 DUP2 DUP2 ADD SWAP1 DUP7 DUP5 GT ISZERO PUSH2 0x189A JUMPI PUSH1 0x0 DUP1 REVERT JUMPDEST DUP3 DUP7 ADD JUMPDEST DUP5 DUP2 LT ISZERO PUSH2 0x184F JUMPI PUSH1 0x40 DUP2 DUP10 SUB SLT ISZERO PUSH2 0x18B7 JUMPI PUSH1 0x0 DUP1 DUP2 REVERT JUMPDEST PUSH2 0x18BF PUSH2 0x1500 JUMP JUMPDEST PUSH2 0x18C8 DUP3 PUSH2 0x1402 JUMP JUMPDEST DUP2 MSTORE PUSH2 0x18D5 DUP6 DUP4 ADD PUSH2 0x145E JUMP JUMPDEST DUP2 DUP7 ADD MSTORE DUP4 MSTORE SWAP2 DUP4 ADD SWAP2 PUSH1 0x40 ADD PUSH2 0x189E JUMP JUMPDEST PUSH1 0x0 PUSH1 0x20 DUP3 DUP5 SUB SLT ISZERO PUSH2 0x18F9 JUMPI PUSH1 0x0 DUP1 REVERT JUMPDEST PUSH8 0xFFFFFFFFFFFFFFFF DUP3 CALLDATALOAD GT ISZERO PUSH2 0x190F JUMPI PUSH1 0x0 DUP1 REVERT JUMPDEST DUP2 CALLDATALOAD DUP3 ADD DUP4 PUSH1 0x1F DUP3 ADD SLT PUSH2 0x1922 JUMPI PUSH1 0x0 DUP1 REVERT JUMPDEST PUSH2 0x192F PUSH2 0x1636 DUP3 CALLDATALOAD PUSH2 0x159B JUMP JUMPDEST DUP2 CALLDATALOAD DUP1 DUP3 MSTORE PUSH1 0x20 DUP1 DUP4 ADD SWAP3 SWAP2 PUSH1 0x5 SHL DUP5 ADD ADD DUP7 LT ISZERO PUSH2 0x194D JUMPI PUSH1 0x0 DUP1 REVERT JUMPDEST PUSH1 0x20 DUP4 ADD JUMPDEST PUSH1 0x20 DUP5 CALLDATALOAD PUSH1 0x5 SHL DUP6 ADD ADD DUP2 LT ISZERO PUSH2 0x1B44 JUMPI PUSH8 0xFFFFFFFFFFFFFFFF DUP2 CALLDATALOAD GT ISZERO PUSH2 0x1979 JUMPI PUSH1 0x0 DUP1 REVERT JUMPDEST DUP1 CALLDATALOAD DUP5 ADD PUSH1 0x60 PUSH32 0xFFFFFFFFFFFFFFFFFFFFFFFFFFFFFFFFFFFFFFFFFFFFFFFFFFFFFFFFFFFFFFE0 DUP3 DUP11 SUB ADD SLT ISZERO PUSH2 0x19AF JUMPI PUSH1 0x0 DUP1 REVERT JUMPDEST PUSH2 0x19B7 PUSH2 0x1529 JUMP JUMPDEST PUSH2 0x19C3 PUSH1 0x20 DUP4 ADD PUSH2 0x1402 JUMP JUMPDEST DUP2 MSTORE PUSH8 0xFFFFFFFFFFFFFFFF PUSH1 0x40 DUP4 ADD CALLDATALOAD GT ISZERO PUSH2 0x19DE JUMPI PUSH1 0x0 DUP1 REVERT JUMPDEST PUSH1 0x40 DUP3 ADD CALLDATALOAD DUP3 ADD DUP10 PUSH1 0x3F DUP3 ADD SLT PUSH2 0x19F4 JUMPI PUSH1 0x0 DUP1 REVERT JUMPDEST PUSH2 0x1A04 PUSH2 0x1636 PUSH1 0x20 DUP4 ADD CALLDATALOAD PUSH2 0x159B JUMP JUMPDEST PUSH1 0x20 DUP3 DUP2 ADD CALLDATALOAD DUP1 DUP4 MSTORE SWAP1 DUP3 ADD SWAP2 SWAP1 PUSH1 0x5 SHL DUP4 ADD PUSH1 0x40 ADD DUP13 LT ISZERO PUSH2 0x1A26 JUMPI PUSH1 0x0 DUP1 REVERT JUMPDEST PUSH1 0x40 DUP4 ADD JUMPDEST PUSH1 0x40 PUSH1 0x20 DUP6 ADD CALLDATALOAD PUSH1 0x5 SHL DUP6 ADD ADD DUP2 LT ISZERO PUSH2 0x1AFC JUMPI PUSH8 0xFFFFFFFFFFFFFFFF DUP2 CALLDATALOAD GT ISZERO PUSH2 0x1A55 JUMPI PUSH1 0x0 DUP1 REVERT JUMPDEST PUSH1 0x60 PUSH32 0xFFFFFFFFFFFFFFFFFFFFFFFFFFFFFFFFFFFFFFFFFFFFFFFFFFFFFFFFFFFFFFC0 DUP3 CALLDATALOAD DUP7 ADD DUP16 SUB ADD SLT ISZERO PUSH2 0x1A8A JUMPI PUSH1 0x0 DUP1 REVERT JUMPDEST PUSH2 0x1A92 PUSH2 0x1529 JUMP JUMPDEST PUSH2 0x1AA1 PUSH1 0x40 DUP4 CALLDATALOAD DUP8 ADD ADD PUSH2 0x1402 JUMP JUMPDEST DUP2 MSTORE PUSH2 0x1AB2 PUSH1 0x60 DUP4 CALLDATALOAD DUP8 ADD ADD PUSH2 0x145E JUMP JUMPDEST PUSH1 0x20 DUP3 ADD MSTORE PUSH8 0xFFFFFFFFFFFFFFFF PUSH1 0x80 DUP4 CALLDATALOAD DUP8 ADD ADD CALLDATALOAD GT ISZERO PUSH2 0x1AD3 JUMPI PUSH1 0x0 DUP1 REVERT JUMPDEST PUSH2 0x1AE9 DUP15 DUP4 CALLDATALOAD DUP8 ADD PUSH1 0x80 DUP2 ADD CALLDATALOAD ADD PUSH1 0x40 ADD PUSH2 0x1792 JUMP JUMPDEST PUSH1 0x40 DUP3 ADD MSTORE DUP4 MSTORE PUSH1 0x20 SWAP3 DUP4 ADD SWAP3 ADD PUSH2 0x1A2B JUMP JUMPDEST POP PUSH1 0x20 DUP5 ADD MSTORE POP POP PUSH8 0xFFFFFFFFFFFFFFFF PUSH1 0x60 DUP4 ADD CALLDATALOAD GT ISZERO PUSH2 0x1B1D JUMPI PUSH1 0x0 DUP1 REVERT JUMPDEST PUSH2 0x1B30 DUP10 PUSH1 0x20 PUSH1 0x60 DUP6 ADD CALLDATALOAD DUP6 ADD ADD PUSH2 0x185A JUMP JUMPDEST PUSH1 0x40 DUP3 ADD MSTORE DUP5 MSTORE POP PUSH1 0x20 SWAP3 DUP4 ADD SWAP3 ADD PUSH2 0x1952 JUMP JUMPDEST POP SWAP6 SWAP5 POP POP POP POP POP JUMP JUMPDEST PUSH1 0x0 DUP1 PUSH1 0x0 DUP1 PUSH1 0x80 DUP6 DUP8 SUB SLT ISZERO PUSH2 0x1B64 JUMPI PUSH1 0x0 DUP1 REVERT JUMPDEST PUSH2 0x1B6D DUP6 PUSH2 0x1402 JUMP JUMPDEST SWAP4 POP PUSH2 0x1B7B PUSH1 0x20 DUP7 ADD PUSH2 0x1402 JUMP JUMPDEST SWAP3 POP PUSH2 0x1B89 PUSH1 0x40 DUP7 ADD PUSH2 0x145E JUMP JUMPDEST SWAP2 POP PUSH1 0x60 DUP6 ADD CALLDATALOAD PUSH8 0xFFFFFFFFFFFFFFFF DUP2 GT ISZERO PUSH2 0x1BA5 JUMPI PUSH1 0x0 DUP1 REVERT JUMPDEST PUSH2 0x1BB1 DUP8 DUP3 DUP9 ADD PUSH2 0x1792 JUMP JUMPDEST SWAP2 POP POP SWAP3 SWAP6 SWAP2 SWAP5 POP SWAP3 POP JUMP JUMPDEST PUSH32 0x4E487B7100000000000000000000000000000000000000000000000000000000 PUSH1 0x0 MSTORE PUSH1 0x32 PUSH1 0x4 MSTORE PUSH1 0x24 PUSH1 0x0 REVERT JUMPDEST PUSH32 0x4E487B7100000000000000000000000000000000000000000000000000000000 PUSH1 0x0 MSTORE PUSH1 0x11 PUSH1 0x4 MSTORE PUSH1 0x24 PUSH1 0x0 REVERT JUMPDEST PUSH1 0x0 PUSH32 0xFFFFFFFFFFFFFFFFFFFFFFFFFFFFFFFFFFFFFFFFFFFFFFFFFFFFFFFFFFFFFFFF DUP3 SUB PUSH2 0x1C4C JUMPI PUSH2 0x1C4C PUSH2 0x1BEC JUMP JUMPDEST POP PUSH1 0x1 ADD SWAP1 JUMP JUMPDEST PUSH1 0x0 DUP2 PUSH2 0x1C62 JUMPI PUSH2 0x1C62 PUSH2 0x1BEC JUMP JUMPDEST POP PUSH32 0xFFFFFFFFFFFFFFFFFFFFFFFFFFFFFFFFFFFFFFFFFFFFFFFFFFFFFFFFFFFFFFFF ADD SWAP1 JUMP JUMPDEST PUSH32 0x4E487B7100000000000000000000000000000000000000000000000000000000 PUSH1 0x0 MSTORE PUSH1 0x21 PUSH1 0x4 MSTORE PUSH1 0x24 PUSH1 0x0 REVERT INVALID LOG2 PUSH5 0x6970667358 0x22 SLT KECCAK256 PUSH12 0x6F33879449AD885CD29FD570 PUSH4 0x5D642DF5 EXTCODESIZE 0xC5 0xC9 POP 0x5D PUSH4 0x91105168 0xEE DIV SGT 0xB8 PUSH5 0x736F6C6343 STOP ADDMOD GT STOP CALLER "},"methodIdentifiers":{"ANYONE()":"405d30af","ANYWHERE()":"840510cc","authorize(address,address,bytes4,(uint8,uint248)[])":"fd1ccc9b","changePermissions((address,(address,bytes4,(uint8,uint248)[])[],(address,bytes4)[])[])":"ca7c51d0","getPermissionParams(address,address,bytes4)":"b091986d","getPermissionsLength(address,address)":"0eb39344","hasPermissions(address,address)":"e8a67dad","initialize(address[])":"a224cee7","isAuthorized(address,address,bytes4,uint256[])":"28522895","unauthorize(address,address,bytes4)":"261a48af"}}}}}