{"contracts/Relayer.sol":{"Relayer":{"abi":[{"inputs":[{"internalType":"address","name":"executor","type":"address"},{"internalType":"address","name":"collector","type":"address"},{"internalType":"address","name":"owner","type":"address"}],"stateMutability":"nonpayable","type":"constructor"},{"inputs":[],"name":"RelayerAmountZero","type":"error"},{"inputs":[],"name":"RelayerCollectorZero","type":"error"},{"inputs":[{"internalType":"address","name":"sender","type":"address"}],"name":"RelayerExecutorNotAllowed","type":"error"},{"inputs":[],"name":"RelayerExecutorZero","type":"error"},{"inputs":[],"name":"RelayerInputLengthMismatch","type":"error"},{"inputs":[{"internalType":"address","name":"task","type":"address"},{"internalType":"address","name":"taskSmartVault","type":"address"},{"internalType":"address","name":"expectedSmartVault","type":"address"}],"name":"RelayerMultipleTaskSmartVaults","type":"error"},{"inputs":[],"name":"RelayerNoTaskGiven","type":"error"},{"inputs":[{"internalType":"address","name":"smartVault","type":"address"},{"internalType":"uint256","name":"amount","type":"uint256"},{"internalType":"uint256","name":"quota","type":"uint256"}],"name":"RelayerPaymentFailed","type":"error"},{"inputs":[{"internalType":"address","name":"smartVault","type":"address"},{"internalType":"uint256","name":"balance","type":"uint256"},{"internalType":"uint256","name":"quota","type":"uint256"},{"internalType":"uint256","name":"amount","type":"uint256"}],"name":"RelayerPaymentInsufficientBalance","type":"error"},{"inputs":[],"name":"RelayerRecipientZero","type":"error"},{"inputs":[{"components":[{"internalType":"bool","name":"success","type":"bool"},{"internalType":"bytes","name":"result","type":"bytes"}],"internalType":"struct IRelayer.TaskResult[]","name":"taskResults","type":"tuple[]"}],"name":"RelayerSimulationResult","type":"error"},{"inputs":[{"internalType":"address","name":"task","type":"address"},{"internalType":"address","name":"smartVault","type":"address"}],"name":"RelayerTaskDoesNotHavePermissions","type":"error"},{"inputs":[],"name":"RelayerTokenZero","type":"error"},{"inputs":[{"internalType":"uint256","name":"value","type":"uint256"},{"internalType":"uint256","name":"amount","type":"uint256"}],"name":"RelayerValueDoesNotMatchAmount","type":"error"},{"inputs":[{"internalType":"address","name":"sender","type":"address"},{"internalType":"uint256","name":"amount","type":"uint256"}],"name":"RelayerWithdrawFailed","type":"error"},{"inputs":[{"internalType":"address","name":"sender","type":"address"},{"internalType":"uint256","name":"balance","type":"uint256"},{"internalType":"uint256","name":"amount","type":"uint256"}],"name":"RelayerWithdrawInsufficientBalance","type":"error"},{"anonymous":false,"inputs":[{"indexed":true,"internalType":"address","name":"collector","type":"address"}],"name":"DefaultCollectorSet","type":"event"},{"anonymous":false,"inputs":[{"indexed":true,"internalType":"address","name":"smartVault","type":"address"},{"indexed":false,"internalType":"uint256","name":"amount","type":"uint256"}],"name":"Deposited","type":"event"},{"anonymous":false,"inputs":[{"indexed":true,"internalType":"address","name":"executor","type":"address"},{"indexed":false,"internalType":"bool","name":"allowed","type":"bool"}],"name":"ExecutorSet","type":"event"},{"anonymous":false,"inputs":[{"indexed":true,"internalType":"address","name":"token","type":"address"},{"indexed":true,"internalType":"address","name":"recipient","type":"address"},{"indexed":false,"internalType":"uint256","name":"amount","type":"uint256"}],"name":"FundsRescued","type":"event"},{"anonymous":false,"inputs":[{"indexed":true,"internalType":"address","name":"smartVault","type":"address"},{"indexed":false,"internalType":"uint256","name":"amount","type":"uint256"},{"indexed":false,"internalType":"uint256","name":"quota","type":"uint256"}],"name":"GasPaid","type":"event"},{"anonymous":false,"inputs":[{"indexed":true,"internalType":"address","name":"previousOwner","type":"address"},{"indexed":true,"internalType":"address","name":"newOwner","type":"address"}],"name":"OwnershipTransferred","type":"event"},{"anonymous":false,"inputs":[{"indexed":true,"internalType":"address","name":"smartVault","type":"address"},{"indexed":false,"internalType":"uint256","name":"amount","type":"uint256"}],"name":"QuotaPaid","type":"event"},{"anonymous":false,"inputs":[{"indexed":true,"internalType":"address","name":"smartVault","type":"address"},{"indexed":true,"internalType":"address","name":"collector","type":"address"}],"name":"SmartVaultCollectorSet","type":"event"},{"anonymous":false,"inputs":[{"indexed":true,"internalType":"address","name":"smartVault","type":"address"},{"indexed":false,"internalType":"uint256","name":"maxQuota","type":"uint256"}],"name":"SmartVaultMaxQuotaSet","type":"event"},{"anonymous":false,"inputs":[{"indexed":true,"internalType":"address","name":"smartVault","type":"address"},{"indexed":true,"internalType":"address","name":"task","type":"address"},{"indexed":false,"internalType":"bytes","name":"data","type":"bytes"},{"indexed":false,"internalType":"bool","name":"success","type":"bool"},{"indexed":false,"internalType":"bytes","name":"result","type":"bytes"},{"indexed":false,"internalType":"uint256","name":"gas","type":"uint256"},{"indexed":false,"internalType":"uint256","name":"index","type":"uint256"}],"name":"TaskExecuted","type":"event"},{"anonymous":false,"inputs":[{"indexed":true,"internalType":"address","name":"smartVault","type":"address"},{"indexed":false,"internalType":"uint256","name":"amount","type":"uint256"}],"name":"Withdrawn","type":"event"},{"inputs":[],"name":"BASE_GAS","outputs":[{"internalType":"uint256","name":"","type":"uint256"}],"stateMutability":"view","type":"function"},{"inputs":[],"name":"defaultCollector","outputs":[{"internalType":"address","name":"","type":"address"}],"stateMutability":"view","type":"function"},{"inputs":[{"internalType":"address","name":"smartVault","type":"address"},{"internalType":"uint256","name":"amount","type":"uint256"}],"name":"deposit","outputs":[],"stateMutability":"payable","type":"function"},{"inputs":[{"internalType":"address[]","name":"tasks","type":"address[]"},{"internalType":"bytes[]","name":"data","type":"bytes[]"},{"internalType":"bool","name":"continueIfFailed","type":"bool"}],"name":"execute","outputs":[],"stateMutability":"nonpayable","type":"function"},{"inputs":[{"internalType":"address","name":"smartVault","type":"address"}],"name":"getApplicableCollector","outputs":[{"internalType":"address","name":"","type":"address"}],"stateMutability":"view","type":"function"},{"inputs":[{"internalType":"address","name":"","type":"address"}],"name":"getSmartVaultBalance","outputs":[{"internalType":"uint256","name":"","type":"uint256"}],"stateMutability":"view","type":"function"},{"inputs":[{"internalType":"address","name":"","type":"address"}],"name":"getSmartVaultCollector","outputs":[{"internalType":"address","name":"","type":"address"}],"stateMutability":"view","type":"function"},{"inputs":[{"internalType":"address","name":"","type":"address"}],"name":"getSmartVaultMaxQuota","outputs":[{"internalType":"uint256","name":"","type":"uint256"}],"stateMutability":"view","type":"function"},{"inputs":[{"internalType":"address","name":"","type":"address"}],"name":"getSmartVaultUsedQuota","outputs":[{"internalType":"uint256","name":"","type":"uint256"}],"stateMutability":"view","type":"function"},{"inputs":[{"internalType":"address","name":"","type":"address"}],"name":"isExecutorAllowed","outputs":[{"internalType":"bool","name":"","type":"bool"}],"stateMutability":"view","type":"function"},{"inputs":[],"name":"owner","outputs":[{"internalType":"address","name":"","type":"address"}],"stateMutability":"view","type":"function"},{"inputs":[],"name":"renounceOwnership","outputs":[],"stateMutability":"nonpayable","type":"function"},{"inputs":[{"internalType":"address","name":"token","type":"address"},{"internalType":"address","name":"recipient","type":"address"},{"internalType":"uint256","name":"amount","type":"uint256"}],"name":"rescueFunds","outputs":[],"stateMutability":"nonpayable","type":"function"},{"inputs":[{"internalType":"address","name":"collector","type":"address"}],"name":"setDefaultCollector","outputs":[],"stateMutability":"nonpayable","type":"function"},{"inputs":[{"internalType":"address","name":"executor","type":"address"},{"internalType":"bool","name":"allowed","type":"bool"}],"name":"setExecutor","outputs":[],"stateMutability":"nonpayable","type":"function"},{"inputs":[{"internalType":"address","name":"smartVault","type":"address"},{"internalType":"address","name":"collector","type":"address"}],"name":"setSmartVaultCollector","outputs":[],"stateMutability":"nonpayable","type":"function"},{"inputs":[{"internalType":"address","name":"smartVault","type":"address"},{"internalType":"uint256","name":"maxQuota","type":"uint256"}],"name":"setSmartVaultMaxQuota","outputs":[],"stateMutability":"nonpayable","type":"function"},{"inputs":[{"internalType":"address[]","name":"tasks","type":"address[]"},{"internalType":"bytes[]","name":"data","type":"bytes[]"},{"internalType":"bool","name":"continueIfFailed","type":"bool"}],"name":"simulate","outputs":[],"stateMutability":"nonpayable","type":"function"},{"inputs":[{"internalType":"address","name":"newOwner","type":"address"}],"name":"transferOwnership","outputs":[],"stateMutability":"nonpayable","type":"function"},{"inputs":[{"internalType":"uint256","name":"amount","type":"uint256"}],"name":"withdraw","outputs":[],"stateMutability":"nonpayable","type":"function"}],"evm":{"bytecode":{"linkReferences":{},"object":"60806040523480156200001157600080fd5b506040516200203b3803806200203b8339810160408190526200003491620001d1565b6200003f336200006b565b6200004c836001620000bb565b620000578262000142565b62000062816200006b565b5050506200021b565b600080546001600160a01b038381166001600160a01b0319831681178455604051919092169283917f8be0079c531659141344cd1fd0a4f28419497f9722a3daafe3b4186f6b6457e09190a35050565b6001600160a01b038216620000e357604051632b26eb8b60e21b815260040160405180910390fd5b6001600160a01b038216600081815260026020908152604091829020805460ff191685151590811790915591519182527f278b09622564dd3991fe7744514513d64ea2c8ed2b2b9ec1150ad964fde80a99910160405180910390a25050565b6001600160a01b0381166200016a5760405163e044c84560e01b815260040160405180910390fd5b600180546001600160a01b0319166001600160a01b0383169081179091556040517fc0021c55037758881ecb38510bbc7a75898649236006215fa3ee18e3ac8c718e90600090a250565b80516001600160a01b0381168114620001cc57600080fd5b919050565b600080600060608486031215620001e757600080fd5b620001f284620001b4565b92506200020260208501620001b4565b91506200021260408501620001b4565b90509250925092565b611e10806200022b6000396000f3fe60806040526004361061015f5760003560e01c80637d701102116100c0578063d629123411610074578063e976479911610059578063e9764799146103eb578063f2fde38b1461040b578063f46ca4e41461042b57600080fd5b8063d62912341461039e578063dc9fc0d2146103cb57600080fd5b8063b3120853116100a5578063b312085314610331578063d05c2c9414610351578063d581ae931461037157600080fd5b80637d701102146102d35780638da5cb5b1461031357600080fd5b8063389aa34211610117578063586171a0116100fc578063586171a01461027e5780636ccae0541461029e578063715018a6146102be57600080fd5b8063389aa3421461025457806347e7ef241461026b57600080fd5b80631e1bff3f116101485780631e1bff3f146101f25780632e1a7d4d146102145780633738ea521461023457600080fd5b8063151ac3a81461016457806316f91b8f146101a4575b600080fd5b34801561017057600080fd5b5061019161017f3660046117b7565b60056020526000908152604090205481565b6040519081526020015b60405180910390f35b3480156101b057600080fd5b506101da6101bf3660046117b7565b6004602052600090815260409020546001600160a01b031681565b6040516001600160a01b03909116815260200161019b565b3480156101fe57600080fd5b5061021261020d3660046117f2565b61044b565b005b34801561022057600080fd5b5061021261022f36600461182b565b610461565b34801561024057600080fd5b5061021261024f366004611844565b6105a8565b34801561026057600080fd5b506101916201136481565b610212610279366004611872565b61061f565b34801561028a57600080fd5b506101da6102993660046117b7565b6106f1565b3480156102aa57600080fd5b506102126102b936600461189e565b61072d565b3480156102ca57600080fd5b50610212610855565b3480156102df57600080fd5b506103036102ee3660046117b7565b60026020526000908152604090205460ff1681565b604051901515815260200161019b565b34801561031f57600080fd5b506000546001600160a01b03166101da565b34801561033d57600080fd5b5061021261034c3660046117b7565b610869565b34801561035d57600080fd5b5061021261036c366004611a88565b61087d565b34801561037d57600080fd5b5061019161038c3660046117b7565b60036020526000908152604090205481565b3480156103aa57600080fd5b506101916103b93660046117b7565b60066020526000908152604090205481565b3480156103d757600080fd5b506102126103e6366004611872565b61088e565b3480156103f757600080fd5b50610212610406366004611a88565b6108ef565b34801561041757600080fd5b506102126104263660046117b7565b61092d565b34801561043757600080fd5b506001546101da906001600160a01b031681565b6104536109d4565b61045d8282610a48565b5050565b33600090815260036020526040902054808211156104c0576040517f4e4cd2e600000000000000000000000000000000000000000000000000000000815233600482015260248101829052604481018390526064015b60405180910390fd5b6104ca8282611b89565b33600081815260036020526040908190209290925590517f7084f5476618d8e60b11ef0d7d3f06914655adb8793e28ff7f018d4c76d505d5906105109085815260200190565b60405180910390a2604051600090339084908381818185875af1925050503d806000811461055a576040519150601f19603f3d011682016040523d82523d6000602084013e61055f565b606091505b50509050806105a3576040517f9e2673b3000000000000000000000000000000000000000000000000000000008152336004820152602481018490526044016104b7565b505050565b6105b06109d4565b6001600160a01b0382811660008181526004602052604080822080547fffffffffffffffffffffffff0000000000000000000000000000000000000000169486169485179055517f0d446d315256b8ce0010028b95bcdb8f8ff5534f0a7546c573296f8d8ccfeab79190a35050565b803414610661576040517f40062810000000000000000000000000000000000000000000000000000000008152346004820152602481018290526044016104b7565b600061066d8383610afe565b9050600061067b8284611b89565b6001600160a01b0385166000908152600360205260408120805492935083929091906106a8908490611b9c565b90915550506040518181526001600160a01b038516907f2da466a7b24304f47e87fa2e1e5a81b9831ce54fec19055ce277ca2f39ba42c49060200160405180910390a250505050565b6001600160a01b0380821660009081526004602052604081205490911680610724576001546001600160a01b0316610726565b805b9392505050565b6107356109d4565b6001600160a01b038316610775576040517ff179a02100000000000000000000000000000000000000000000000000000000815260040160405180910390fd5b6001600160a01b0382166107b5576040517f0a38b94900000000000000000000000000000000000000000000000000000000815260040160405180910390fd5b806000036107ef576040517f26b97ea400000000000000000000000000000000000000000000000000000000815260040160405180910390fd5b6108036001600160a01b0384168383610bc3565b816001600160a01b0316836001600160a01b03167fed2837b80b3489773c5f1ed30dd2884b4c90dbf7b87428ea03c49b24ef59a8058360405161084891815260200190565b60405180910390a3505050565b61085d6109d4565b6108676000610c43565b565b6108716109d4565b61087a81610cab565b50565b610888838383610d4d565b50505050565b6108966109d4565b6001600160a01b03821660008181526005602052604090819020839055517fac2d1a21b245ceb74d21ba8d4bbe0ae6d14473563f17aae4958afe3253ed603f906108e39084815260200190565b60405180910390a25050565b6108fa838383610d4d565b6040517ff7dce3930000000000000000000000000000000000000000000000000000000081526004016104b79190611c1d565b6109356109d4565b6001600160a01b0381166109cb576040517f08c379a000000000000000000000000000000000000000000000000000000000815260206004820152602660248201527f4f776e61626c653a206e6577206f776e657220697320746865207a65726f206160448201527f646472657373000000000000000000000000000000000000000000000000000060648201526084016104b7565b61087a81610c43565b6000546001600160a01b03163314610867576040517f08c379a000000000000000000000000000000000000000000000000000000000815260206004820181905260248201527f4f776e61626c653a2063616c6c6572206973206e6f7420746865206f776e657260448201526064016104b7565b6001600160a01b038216610a88576040517fac9bae2c00000000000000000000000000000000000000000000000000000000815260040160405180910390fd5b6001600160a01b03821660008181526002602090815260409182902080547fffffffffffffffffffffffffffffffffffffffffffffffffffffffffffffff001685151590811790915591519182527f278b09622564dd3991fe7744514513d64ea2c8ed2b2b9ec1150ad964fde80a9991016108e3565b6001600160a01b038216600090815260066020526040812054808203610b28576000915050610bbd565b80831115610b51576001600160a01b038416600090815260066020526040812055905080610b78565b610b5b8382611b89565b6001600160a01b0385166000908152600660205260409020558291505b836001600160a01b03167fadde402c2cbae39776ebbb17c3619b0df48792f0ae294012433667cc4f30aa9083604051610bb391815260200190565b60405180910390a2505b92915050565b604080516001600160a01b038416602482015260448082018490528251808303909101815260649091019091526020810180517bffffffffffffffffffffffffffffffffffffffffffffffffffffffff167fa9059cbb000000000000000000000000000000000000000000000000000000001790526105a3908490611272565b600080546001600160a01b038381167fffffffffffffffffffffffff0000000000000000000000000000000000000000831681178455604051919092169283917f8be0079c531659141344cd1fd0a4f28419497f9722a3daafe3b4186f6b6457e09190a35050565b6001600160a01b038116610ceb576040517fe044c84500000000000000000000000000000000000000000000000000000000815260040160405180910390fd5b600180547fffffffffffffffffffffffff0000000000000000000000000000000000000000166001600160a01b0383169081179091556040517fc0021c55037758881ecb38510bbc7a75898649236006215fa3ee18e3ac8c718e90600090a250565b3360009081526002602052604090205460609060ff16610d9b576040517f8b8ed3d40000000000000000000000000000000000000000000000000000000081523360048201526024016104b7565b8351600003610dd6576040517f0e4bc11400000000000000000000000000000000000000000000000000000000815260040160405180910390fd5b8251845114610e11576040517f9c2136e400000000000000000000000000000000000000000000000000000000815260040160405180910390fd5b6000620113649050600085600081518110610e2e57610e2e611cb1565b60200260200101516001600160a01b0316634fd49efd6040518163ffffffff1660e01b8152600401602060405180830381865afa158015610e73573d6000803e3d6000fd5b505050506040513d601f19601f82011682018060405250810190610e979190611ce0565b9050855167ffffffffffffffff811115610eb357610eb36118df565b604051908082528060200260200182016040528015610ef957816020015b604080518082019091526000815260606020820152815260200190600190039081610ed15790505b50925060005b865181101561123e5760005a90506000888381518110610f2157610f21611cb1565b602002602001015190506000816001600160a01b0316634fd49efd6040518163ffffffff1660e01b8152600401602060405180830381865afa158015610f6b573d6000803e3d6000fd5b505050506040513d601f19601f82011682018060405250810190610f8f9190611ce0565b9050846001600160a01b0316816001600160a01b031614610ff7576040517fb6bc94370000000000000000000000000000000000000000000000000000000081526001600160a01b0380841660048301528083166024830152861660448201526064016104b7565b6040517f1ffa27f90000000000000000000000000000000000000000000000000000000081526001600160a01b03838116600483015260009190871690631ffa27f990602401602060405180830381865afa15801561105a573d6000803e3d6000fd5b505050506040513d601f19601f8201168201806040525081019061107e9190611cfd565b9050806110ca576040517f0482fe140000000000000000000000000000000000000000000000000000000081526001600160a01b038085166004830152871660248201526044016104b7565b600080846001600160a01b03168c88815181106110e9576110e9611cb1565b60200260200101516040516110fe9190611d1a565b6000604051808303816000865af19150503d806000811461113b576040519150601f19603f3d011682016040523d82523d6000602084013e611140565b606091505b509150915060405180604001604052808315158152602001828152508a888151811061116e5761116e611cb1565b602002602001018190525060005a6111869088611b89565b9050821561119b57611198818b611b9c565b99505b856001600160a01b0316896001600160a01b03167f20e6470760a122f57acdfd383093a746ee742adcbc9ffbbdd00f4d29aff426128f8b815181106111e2576111e2611cb1565b60200260200101518686868e6040516111ff959493929190611d36565b60405180910390a38215801561121357508b155b15611224575050505050505061123e565b50505050505050808061123690611d78565b915050610eff565b50620113648203611250575050610726565b600061125c3a84611db0565b90506112688282611374565b5050509392505050565b60006112c7826040518060400160405280602081526020017f5361666545524332303a206c6f772d6c6576656c2063616c6c206661696c6564815250856001600160a01b03166115ad9092919063ffffffff16565b90508051600014806112e85750808060200190518101906112e89190611cfd565b6105a3576040517f08c379a000000000000000000000000000000000000000000000000000000000815260206004820152602a60248201527f5361666545524332303a204552433230206f7065726174696f6e20646964206e60448201527f6f7420737563636565640000000000000000000000000000000000000000000060648201526084016104b7565b6001600160a01b03821660009081526003602090815260408083205460058352818420546006909352908320549092828210156113ba576113b58284611b89565b6113bd565b60005b905060006113cb8286611b9c565b861115905080611427576040517f836df07f0000000000000000000000000000000000000000000000000000000081526001600160a01b03881660048201526024810186905260448101839052606481018790526084016104b7565b60008087871061145c5761143b8888611b89565b6001600160a01b038a166000908152600360205260409020558791506114a8565b6114668789611b89565b6001600160a01b038a16600090815260036020526040812055905061148b8186611b9c565b6001600160a01b038a166000908152600660205260409020558691505b811561155e5760006114b98a6106f1565b6001600160a01b03168360405160006040518083038185875af1925050503d8060008114611503576040519150601f19603f3d011682016040523d82523d6000602084013e611508565b606091505b505090508061155c576040517f236adc760000000000000000000000000000000000000000000000000000000081526001600160a01b038b166004820152602481018a9052604481018390526064016104b7565b505b60408051898152602081018390526001600160a01b038b16917fc34a4660c18505a3cc0299553e73cd78f1de9b3ae9714a1dddd2fea59fa50f8f910160405180910390a2505050505050505050565b60606115bc84846000856115c4565b949350505050565b606082471015611656576040517f08c379a000000000000000000000000000000000000000000000000000000000815260206004820152602660248201527f416464726573733a20696e73756666696369656e742062616c616e636520666f60448201527f722063616c6c000000000000000000000000000000000000000000000000000060648201526084016104b7565b600080866001600160a01b031685876040516116729190611d1a565b60006040518083038185875af1925050503d80600081146116af576040519150601f19603f3d011682016040523d82523d6000602084013e6116b4565b606091505b50915091506116c5878383876116d0565b979650505050505050565b60608315611759578251600003611752576001600160a01b0385163b611752576040517f08c379a000000000000000000000000000000000000000000000000000000000815260206004820152601d60248201527f416464726573733a2063616c6c20746f206e6f6e2d636f6e747261637400000060448201526064016104b7565b50816115bc565b6115bc838381511561176e5781518083602001fd5b806040517f08c379a00000000000000000000000000000000000000000000000000000000081526004016104b79190611dc7565b6001600160a01b038116811461087a57600080fd5b6000602082840312156117c957600080fd5b8135610726816117a2565b801515811461087a57600080fd5b80356117ed816117d4565b919050565b6000806040838503121561180557600080fd5b8235611810816117a2565b91506020830135611820816117d4565b809150509250929050565b60006020828403121561183d57600080fd5b5035919050565b6000806040838503121561185757600080fd5b8235611862816117a2565b91506020830135611820816117a2565b6000806040838503121561188557600080fd5b8235611890816117a2565b946020939093013593505050565b6000806000606084860312156118b357600080fd5b83356118be816117a2565b925060208401356118ce816117a2565b929592945050506040919091013590565b7f4e487b7100000000000000000000000000000000000000000000000000000000600052604160045260246000fd5b604051601f82017fffffffffffffffffffffffffffffffffffffffffffffffffffffffffffffffe016810167ffffffffffffffff81118282101715611955576119556118df565b604052919050565b600067ffffffffffffffff821115611977576119776118df565b5060051b60200190565b6000601f838184011261199357600080fd5b823560206119a86119a38361195d565b61190e565b82815260059290921b850181019181810190878411156119c757600080fd5b8287015b84811015611a7c57803567ffffffffffffffff808211156119ec5760008081fd5b818a0191508a603f830112611a015760008081fd5b85820135604082821115611a1757611a176118df565b611a46887fffffffffffffffffffffffffffffffffffffffffffffffffffffffffffffffe08c8501160161190e565b92508183528c81838601011115611a5d5760008081fd5b81818501898501375060009082018701528452509183019183016119cb565b50979650505050505050565b600080600060608486031215611a9d57600080fd5b833567ffffffffffffffff80821115611ab557600080fd5b818601915086601f830112611ac957600080fd5b81356020611ad96119a38361195d565b82815260059290921b8401810191818101908a841115611af857600080fd5b948201945b83861015611b1f578535611b10816117a2565b82529482019490820190611afd565b97505087013592505080821115611b3557600080fd5b50611b4286828701611981565b925050611b51604085016117e2565b90509250925092565b7f4e487b7100000000000000000000000000000000000000000000000000000000600052601160045260246000fd5b81810381811115610bbd57610bbd611b5a565b80820180821115610bbd57610bbd611b5a565b60005b83811015611bca578181015183820152602001611bb2565b50506000910152565b60008151808452611beb816020860160208601611baf565b601f017fffffffffffffffffffffffffffffffffffffffffffffffffffffffffffffffe0169290920160200192915050565b60006020808301818452808551808352604092508286019150828160051b87010184880160005b83811015611ca3578883037fffffffffffffffffffffffffffffffffffffffffffffffffffffffffffffffc00185528151805115158452870151878401879052611c9087850182611bd3565b9588019593505090860190600101611c44565b509098975050505050505050565b7f4e487b7100000000000000000000000000000000000000000000000000000000600052603260045260246000fd5b600060208284031215611cf257600080fd5b8151610726816117a2565b600060208284031215611d0f57600080fd5b8151610726816117d4565b60008251611d2c818460208701611baf565b9190910192915050565b60a081526000611d4960a0830188611bd3565b86151560208401528281036040840152611d638187611bd3565b60608401959095525050608001529392505050565b60007fffffffffffffffffffffffffffffffffffffffffffffffffffffffffffffffff8203611da957611da9611b5a565b5060010190565b8082028115828204841417610bbd57610bbd611b5a565b6020815260006107266020830184611bd356fea2646970667358221220a76c15afc191dadc794a48076d07c386f8b21f49b399363ebc7d7f6be040f0b564736f6c63430008110033","opcodes":"PUSH1 0x80 PUSH1 0x40 MSTORE CALLVALUE DUP1 ISZERO PUSH3 0x11 JUMPI PUSH1 0x0 DUP1 REVERT JUMPDEST POP PUSH1 0x40 MLOAD PUSH3 0x203B CODESIZE SUB DUP1 PUSH3 0x203B DUP4 CODECOPY DUP2 ADD PUSH1 0x40 DUP2 SWAP1 MSTORE PUSH3 0x34 SWAP2 PUSH3 0x1D1 JUMP JUMPDEST PUSH3 0x3F CALLER PUSH3 0x6B JUMP JUMPDEST PUSH3 0x4C DUP4 PUSH1 0x1 PUSH3 0xBB JUMP JUMPDEST PUSH3 0x57 DUP3 PUSH3 0x142 JUMP JUMPDEST PUSH3 0x62 DUP2 PUSH3 0x6B JUMP JUMPDEST POP POP POP PUSH3 0x21B JUMP JUMPDEST PUSH1 0x0 DUP1 SLOAD PUSH1 0x1 PUSH1 0x1 PUSH1 0xA0 SHL SUB DUP4 DUP2 AND PUSH1 0x1 PUSH1 0x1 PUSH1 0xA0 SHL SUB NOT DUP4 AND DUP2 OR DUP5 SSTORE PUSH1 0x40 MLOAD SWAP2 SWAP1 SWAP3 AND SWAP3 DUP4 SWAP2 PUSH32 0x8BE0079C531659141344CD1FD0A4F28419497F9722A3DAAFE3B4186F6B6457E0 SWAP2 SWAP1 LOG3 POP POP JUMP JUMPDEST PUSH1 0x1 PUSH1 0x1 PUSH1 0xA0 SHL SUB DUP3 AND PUSH3 0xE3 JUMPI PUSH1 0x40 MLOAD PUSH4 0x2B26EB8B PUSH1 0xE2 SHL DUP2 MSTORE PUSH1 0x4 ADD PUSH1 0x40 MLOAD DUP1 SWAP2 SUB SWAP1 REVERT JUMPDEST PUSH1 0x1 PUSH1 0x1 PUSH1 0xA0 SHL SUB DUP3 AND PUSH1 0x0 DUP2 DUP2 MSTORE PUSH1 0x2 PUSH1 0x20 SWAP1 DUP2 MSTORE PUSH1 0x40 SWAP2 DUP3 SWAP1 KECCAK256 DUP1 SLOAD PUSH1 0xFF NOT AND DUP6 ISZERO ISZERO SWAP1 DUP2 OR SWAP1 SWAP2 SSTORE SWAP2 MLOAD SWAP2 DUP3 MSTORE PUSH32 0x278B09622564DD3991FE7744514513D64EA2C8ED2B2B9EC1150AD964FDE80A99 SWAP2 ADD PUSH1 0x40 MLOAD DUP1 SWAP2 SUB SWAP1 LOG2 POP POP JUMP JUMPDEST PUSH1 0x1 PUSH1 0x1 PUSH1 0xA0 SHL SUB DUP2 AND PUSH3 0x16A JUMPI PUSH1 0x40 MLOAD PUSH4 0xE044C845 PUSH1 0xE0 SHL DUP2 MSTORE PUSH1 0x4 ADD PUSH1 0x40 MLOAD DUP1 SWAP2 SUB SWAP1 REVERT JUMPDEST PUSH1 0x1 DUP1 SLOAD PUSH1 0x1 PUSH1 0x1 PUSH1 0xA0 SHL SUB NOT AND PUSH1 0x1 PUSH1 0x1 PUSH1 0xA0 SHL SUB DUP4 AND SWAP1 DUP2 OR SWAP1 SWAP2 SSTORE PUSH1 0x40 MLOAD PUSH32 0xC0021C55037758881ECB38510BBC7A75898649236006215FA3EE18E3AC8C718E SWAP1 PUSH1 0x0 SWAP1 LOG2 POP JUMP JUMPDEST DUP1 MLOAD PUSH1 0x1 PUSH1 0x1 PUSH1 0xA0 SHL SUB DUP2 AND DUP2 EQ PUSH3 0x1CC JUMPI PUSH1 0x0 DUP1 REVERT JUMPDEST SWAP2 SWAP1 POP JUMP JUMPDEST PUSH1 0x0 DUP1 PUSH1 0x0 PUSH1 0x60 DUP5 DUP7 SUB SLT ISZERO PUSH3 0x1E7 JUMPI PUSH1 0x0 DUP1 REVERT JUMPDEST PUSH3 0x1F2 DUP5 PUSH3 0x1B4 JUMP JUMPDEST SWAP3 POP PUSH3 0x202 PUSH1 0x20 DUP6 ADD PUSH3 0x1B4 JUMP JUMPDEST SWAP2 POP PUSH3 0x212 PUSH1 0x40 DUP6 ADD PUSH3 0x1B4 JUMP JUMPDEST SWAP1 POP SWAP3 POP SWAP3 POP SWAP3 JUMP JUMPDEST PUSH2 0x1E10 DUP1 PUSH3 0x22B PUSH1 0x0 CODECOPY PUSH1 0x0 RETURN INVALID PUSH1 0x80 PUSH1 0x40 MSTORE PUSH1 0x4 CALLDATASIZE LT PUSH2 0x15F JUMPI PUSH1 0x0 CALLDATALOAD PUSH1 0xE0 SHR DUP1 PUSH4 0x7D701102 GT PUSH2 0xC0 JUMPI DUP1 PUSH4 0xD6291234 GT PUSH2 0x74 JUMPI DUP1 PUSH4 0xE9764799 GT PUSH2 0x59 JUMPI DUP1 PUSH4 0xE9764799 EQ PUSH2 0x3EB JUMPI DUP1 PUSH4 0xF2FDE38B EQ PUSH2 0x40B JUMPI DUP1 PUSH4 0xF46CA4E4 EQ PUSH2 0x42B JUMPI PUSH1 0x0 DUP1 REVERT JUMPDEST DUP1 PUSH4 0xD6291234 EQ PUSH2 0x39E JUMPI DUP1 PUSH4 0xDC9FC0D2 EQ PUSH2 0x3CB JUMPI PUSH1 0x0 DUP1 REVERT JUMPDEST DUP1 PUSH4 0xB3120853 GT PUSH2 0xA5 JUMPI DUP1 PUSH4 0xB3120853 EQ PUSH2 0x331 JUMPI DUP1 PUSH4 0xD05C2C94 EQ PUSH2 0x351 JUMPI DUP1 PUSH4 0xD581AE93 EQ PUSH2 0x371 JUMPI PUSH1 0x0 DUP1 REVERT JUMPDEST DUP1 PUSH4 0x7D701102 EQ PUSH2 0x2D3 JUMPI DUP1 PUSH4 0x8DA5CB5B EQ PUSH2 0x313 JUMPI PUSH1 0x0 DUP1 REVERT JUMPDEST DUP1 PUSH4 0x389AA342 GT PUSH2 0x117 JUMPI DUP1 PUSH4 0x586171A0 GT PUSH2 0xFC JUMPI DUP1 PUSH4 0x586171A0 EQ PUSH2 0x27E JUMPI DUP1 PUSH4 0x6CCAE054 EQ PUSH2 0x29E JUMPI DUP1 PUSH4 0x715018A6 EQ PUSH2 0x2BE JUMPI PUSH1 0x0 DUP1 REVERT JUMPDEST DUP1 PUSH4 0x389AA342 EQ PUSH2 0x254 JUMPI DUP1 PUSH4 0x47E7EF24 EQ PUSH2 0x26B JUMPI PUSH1 0x0 DUP1 REVERT JUMPDEST DUP1 PUSH4 0x1E1BFF3F GT PUSH2 0x148 JUMPI DUP1 PUSH4 0x1E1BFF3F EQ PUSH2 0x1F2 JUMPI DUP1 PUSH4 0x2E1A7D4D EQ PUSH2 0x214 JUMPI DUP1 PUSH4 0x3738EA52 EQ PUSH2 0x234 JUMPI PUSH1 0x0 DUP1 REVERT JUMPDEST DUP1 PUSH4 0x151AC3A8 EQ PUSH2 0x164 JUMPI DUP1 PUSH4 0x16F91B8F EQ PUSH2 0x1A4 JUMPI JUMPDEST PUSH1 0x0 DUP1 REVERT JUMPDEST CALLVALUE DUP1 ISZERO PUSH2 0x170 JUMPI PUSH1 0x0 DUP1 REVERT JUMPDEST POP PUSH2 0x191 PUSH2 0x17F CALLDATASIZE PUSH1 0x4 PUSH2 0x17B7 JUMP JUMPDEST PUSH1 0x5 PUSH1 0x20 MSTORE PUSH1 0x0 SWAP1 DUP2 MSTORE PUSH1 0x40 SWAP1 KECCAK256 SLOAD DUP2 JUMP JUMPDEST PUSH1 0x40 MLOAD SWAP1 DUP2 MSTORE PUSH1 0x20 ADD JUMPDEST PUSH1 0x40 MLOAD DUP1 SWAP2 SUB SWAP1 RETURN JUMPDEST CALLVALUE DUP1 ISZERO PUSH2 0x1B0 JUMPI PUSH1 0x0 DUP1 REVERT JUMPDEST POP PUSH2 0x1DA PUSH2 0x1BF CALLDATASIZE PUSH1 0x4 PUSH2 0x17B7 JUMP JUMPDEST PUSH1 0x4 PUSH1 0x20 MSTORE PUSH1 0x0 SWAP1 DUP2 MSTORE PUSH1 0x40 SWAP1 KECCAK256 SLOAD PUSH1 0x1 PUSH1 0x1 PUSH1 0xA0 SHL SUB AND DUP2 JUMP JUMPDEST PUSH1 0x40 MLOAD PUSH1 0x1 PUSH1 0x1 PUSH1 0xA0 SHL SUB SWAP1 SWAP2 AND DUP2 MSTORE PUSH1 0x20 ADD PUSH2 0x19B JUMP JUMPDEST CALLVALUE DUP1 ISZERO PUSH2 0x1FE JUMPI PUSH1 0x0 DUP1 REVERT JUMPDEST POP PUSH2 0x212 PUSH2 0x20D CALLDATASIZE PUSH1 0x4 PUSH2 0x17F2 JUMP JUMPDEST PUSH2 0x44B JUMP JUMPDEST STOP JUMPDEST CALLVALUE DUP1 ISZERO PUSH2 0x220 JUMPI PUSH1 0x0 DUP1 REVERT JUMPDEST POP PUSH2 0x212 PUSH2 0x22F CALLDATASIZE PUSH1 0x4 PUSH2 0x182B JUMP JUMPDEST PUSH2 0x461 JUMP JUMPDEST CALLVALUE DUP1 ISZERO PUSH2 0x240 JUMPI PUSH1 0x0 DUP1 REVERT JUMPDEST POP PUSH2 0x212 PUSH2 0x24F CALLDATASIZE PUSH1 0x4 PUSH2 0x1844 JUMP JUMPDEST PUSH2 0x5A8 JUMP JUMPDEST CALLVALUE DUP1 ISZERO PUSH2 0x260 JUMPI PUSH1 0x0 DUP1 REVERT JUMPDEST POP PUSH2 0x191 PUSH3 0x11364 DUP2 JUMP JUMPDEST PUSH2 0x212 PUSH2 0x279 CALLDATASIZE PUSH1 0x4 PUSH2 0x1872 JUMP JUMPDEST PUSH2 0x61F JUMP JUMPDEST CALLVALUE DUP1 ISZERO PUSH2 0x28A JUMPI PUSH1 0x0 DUP1 REVERT JUMPDEST POP PUSH2 0x1DA PUSH2 0x299 CALLDATASIZE PUSH1 0x4 PUSH2 0x17B7 JUMP JUMPDEST PUSH2 0x6F1 JUMP JUMPDEST CALLVALUE DUP1 ISZERO PUSH2 0x2AA JUMPI PUSH1 0x0 DUP1 REVERT JUMPDEST POP PUSH2 0x212 PUSH2 0x2B9 CALLDATASIZE PUSH1 0x4 PUSH2 0x189E JUMP JUMPDEST PUSH2 0x72D JUMP JUMPDEST CALLVALUE DUP1 ISZERO PUSH2 0x2CA JUMPI PUSH1 0x0 DUP1 REVERT JUMPDEST POP PUSH2 0x212 PUSH2 0x855 JUMP JUMPDEST CALLVALUE DUP1 ISZERO PUSH2 0x2DF JUMPI PUSH1 0x0 DUP1 REVERT JUMPDEST POP PUSH2 0x303 PUSH2 0x2EE CALLDATASIZE PUSH1 0x4 PUSH2 0x17B7 JUMP JUMPDEST PUSH1 0x2 PUSH1 0x20 MSTORE PUSH1 0x0 SWAP1 DUP2 MSTORE PUSH1 0x40 SWAP1 KECCAK256 SLOAD PUSH1 0xFF AND DUP2 JUMP JUMPDEST PUSH1 0x40 MLOAD SWAP1 ISZERO ISZERO DUP2 MSTORE PUSH1 0x20 ADD PUSH2 0x19B JUMP JUMPDEST CALLVALUE DUP1 ISZERO PUSH2 0x31F JUMPI PUSH1 0x0 DUP1 REVERT JUMPDEST POP PUSH1 0x0 SLOAD PUSH1 0x1 PUSH1 0x1 PUSH1 0xA0 SHL SUB AND PUSH2 0x1DA JUMP JUMPDEST CALLVALUE DUP1 ISZERO PUSH2 0x33D JUMPI PUSH1 0x0 DUP1 REVERT JUMPDEST POP PUSH2 0x212 PUSH2 0x34C CALLDATASIZE PUSH1 0x4 PUSH2 0x17B7 JUMP JUMPDEST PUSH2 0x869 JUMP JUMPDEST CALLVALUE DUP1 ISZERO PUSH2 0x35D JUMPI PUSH1 0x0 DUP1 REVERT JUMPDEST POP PUSH2 0x212 PUSH2 0x36C CALLDATASIZE PUSH1 0x4 PUSH2 0x1A88 JUMP JUMPDEST PUSH2 0x87D JUMP JUMPDEST CALLVALUE DUP1 ISZERO PUSH2 0x37D JUMPI PUSH1 0x0 DUP1 REVERT JUMPDEST POP PUSH2 0x191 PUSH2 0x38C CALLDATASIZE PUSH1 0x4 PUSH2 0x17B7 JUMP JUMPDEST PUSH1 0x3 PUSH1 0x20 MSTORE PUSH1 0x0 SWAP1 DUP2 MSTORE PUSH1 0x40 SWAP1 KECCAK256 SLOAD DUP2 JUMP JUMPDEST CALLVALUE DUP1 ISZERO PUSH2 0x3AA JUMPI PUSH1 0x0 DUP1 REVERT JUMPDEST POP PUSH2 0x191 PUSH2 0x3B9 CALLDATASIZE PUSH1 0x4 PUSH2 0x17B7 JUMP JUMPDEST PUSH1 0x6 PUSH1 0x20 MSTORE PUSH1 0x0 SWAP1 DUP2 MSTORE PUSH1 0x40 SWAP1 KECCAK256 SLOAD DUP2 JUMP JUMPDEST CALLVALUE DUP1 ISZERO PUSH2 0x3D7 JUMPI PUSH1 0x0 DUP1 REVERT JUMPDEST POP PUSH2 0x212 PUSH2 0x3E6 CALLDATASIZE PUSH1 0x4 PUSH2 0x1872 JUMP JUMPDEST PUSH2 0x88E JUMP JUMPDEST CALLVALUE DUP1 ISZERO PUSH2 0x3F7 JUMPI PUSH1 0x0 DUP1 REVERT JUMPDEST POP PUSH2 0x212 PUSH2 0x406 CALLDATASIZE PUSH1 0x4 PUSH2 0x1A88 JUMP JUMPDEST PUSH2 0x8EF JUMP JUMPDEST CALLVALUE DUP1 ISZERO PUSH2 0x417 JUMPI PUSH1 0x0 DUP1 REVERT JUMPDEST POP PUSH2 0x212 PUSH2 0x426 CALLDATASIZE PUSH1 0x4 PUSH2 0x17B7 JUMP JUMPDEST PUSH2 0x92D JUMP JUMPDEST CALLVALUE DUP1 ISZERO PUSH2 0x437 JUMPI PUSH1 0x0 DUP1 REVERT JUMPDEST POP PUSH1 0x1 SLOAD PUSH2 0x1DA SWAP1 PUSH1 0x1 PUSH1 0x1 PUSH1 0xA0 SHL SUB AND DUP2 JUMP JUMPDEST PUSH2 0x453 PUSH2 0x9D4 JUMP JUMPDEST PUSH2 0x45D DUP3 DUP3 PUSH2 0xA48 JUMP JUMPDEST POP POP JUMP JUMPDEST CALLER PUSH1 0x0 SWAP1 DUP2 MSTORE PUSH1 0x3 PUSH1 0x20 MSTORE PUSH1 0x40 SWAP1 KECCAK256 SLOAD DUP1 DUP3 GT ISZERO PUSH2 0x4C0 JUMPI PUSH1 0x40 MLOAD PUSH32 0x4E4CD2E600000000000000000000000000000000000000000000000000000000 DUP2 MSTORE CALLER PUSH1 0x4 DUP3 ADD MSTORE PUSH1 0x24 DUP2 ADD DUP3 SWAP1 MSTORE PUSH1 0x44 DUP2 ADD DUP4 SWAP1 MSTORE PUSH1 0x64 ADD JUMPDEST PUSH1 0x40 MLOAD DUP1 SWAP2 SUB SWAP1 REVERT JUMPDEST PUSH2 0x4CA DUP3 DUP3 PUSH2 0x1B89 JUMP JUMPDEST CALLER PUSH1 0x0 DUP2 DUP2 MSTORE PUSH1 0x3 PUSH1 0x20 MSTORE PUSH1 0x40 SWAP1 DUP2 SWAP1 KECCAK256 SWAP3 SWAP1 SWAP3 SSTORE SWAP1 MLOAD PUSH32 0x7084F5476618D8E60B11EF0D7D3F06914655ADB8793E28FF7F018D4C76D505D5 SWAP1 PUSH2 0x510 SWAP1 DUP6 DUP2 MSTORE PUSH1 0x20 ADD SWAP1 JUMP JUMPDEST PUSH1 0x40 MLOAD DUP1 SWAP2 SUB SWAP1 LOG2 PUSH1 0x40 MLOAD PUSH1 0x0 SWAP1 CALLER SWAP1 DUP5 SWAP1 DUP4 DUP2 DUP2 DUP2 DUP6 DUP8 GAS CALL SWAP3 POP POP POP RETURNDATASIZE DUP1 PUSH1 0x0 DUP2 EQ PUSH2 0x55A JUMPI PUSH1 0x40 MLOAD SWAP2 POP PUSH1 0x1F NOT PUSH1 0x3F RETURNDATASIZE ADD AND DUP3 ADD PUSH1 0x40 MSTORE RETURNDATASIZE DUP3 MSTORE RETURNDATASIZE PUSH1 0x0 PUSH1 0x20 DUP5 ADD RETURNDATACOPY PUSH2 0x55F JUMP JUMPDEST PUSH1 0x60 SWAP2 POP JUMPDEST POP POP SWAP1 POP DUP1 PUSH2 0x5A3 JUMPI PUSH1 0x40 MLOAD PUSH32 0x9E2673B300000000000000000000000000000000000000000000000000000000 DUP2 MSTORE CALLER PUSH1 0x4 DUP3 ADD MSTORE PUSH1 0x24 DUP2 ADD DUP5 SWAP1 MSTORE PUSH1 0x44 ADD PUSH2 0x4B7 JUMP JUMPDEST POP POP POP JUMP JUMPDEST PUSH2 0x5B0 PUSH2 0x9D4 JUMP JUMPDEST PUSH1 0x1 PUSH1 0x1 PUSH1 0xA0 SHL SUB DUP3 DUP2 AND PUSH1 0x0 DUP2 DUP2 MSTORE PUSH1 0x4 PUSH1 0x20 MSTORE PUSH1 0x40 DUP1 DUP3 KECCAK256 DUP1 SLOAD PUSH32 0xFFFFFFFFFFFFFFFFFFFFFFFF0000000000000000000000000000000000000000 AND SWAP5 DUP7 AND SWAP5 DUP6 OR SWAP1 SSTORE MLOAD PUSH32 0xD446D315256B8CE0010028B95BCDB8F8FF5534F0A7546C573296F8D8CCFEAB7 SWAP2 SWAP1 LOG3 POP POP JUMP JUMPDEST DUP1 CALLVALUE EQ PUSH2 0x661 JUMPI PUSH1 0x40 MLOAD PUSH32 0x4006281000000000000000000000000000000000000000000000000000000000 DUP2 MSTORE CALLVALUE PUSH1 0x4 DUP3 ADD MSTORE PUSH1 0x24 DUP2 ADD DUP3 SWAP1 MSTORE PUSH1 0x44 ADD PUSH2 0x4B7 JUMP JUMPDEST PUSH1 0x0 PUSH2 0x66D DUP4 DUP4 PUSH2 0xAFE JUMP JUMPDEST SWAP1 POP PUSH1 0x0 PUSH2 0x67B DUP3 DUP5 PUSH2 0x1B89 JUMP JUMPDEST PUSH1 0x1 PUSH1 0x1 PUSH1 0xA0 SHL SUB DUP6 AND PUSH1 0x0 SWAP1 DUP2 MSTORE PUSH1 0x3 PUSH1 0x20 MSTORE PUSH1 0x40 DUP2 KECCAK256 DUP1 SLOAD SWAP3 SWAP4 POP DUP4 SWAP3 SWAP1 SWAP2 SWAP1 PUSH2 0x6A8 SWAP1 DUP5 SWAP1 PUSH2 0x1B9C JUMP JUMPDEST SWAP1 SWAP2 SSTORE POP POP PUSH1 0x40 MLOAD DUP2 DUP2 MSTORE PUSH1 0x1 PUSH1 0x1 PUSH1 0xA0 SHL SUB DUP6 AND SWAP1 PUSH32 0x2DA466A7B24304F47E87FA2E1E5A81B9831CE54FEC19055CE277CA2F39BA42C4 SWAP1 PUSH1 0x20 ADD PUSH1 0x40 MLOAD DUP1 SWAP2 SUB SWAP1 LOG2 POP POP POP POP JUMP JUMPDEST PUSH1 0x1 PUSH1 0x1 PUSH1 0xA0 SHL SUB DUP1 DUP3 AND PUSH1 0x0 SWAP1 DUP2 MSTORE PUSH1 0x4 PUSH1 0x20 MSTORE PUSH1 0x40 DUP2 KECCAK256 SLOAD SWAP1 SWAP2 AND DUP1 PUSH2 0x724 JUMPI PUSH1 0x1 SLOAD PUSH1 0x1 PUSH1 0x1 PUSH1 0xA0 SHL SUB AND PUSH2 0x726 JUMP JUMPDEST DUP1 JUMPDEST SWAP4 SWAP3 POP POP POP JUMP JUMPDEST PUSH2 0x735 PUSH2 0x9D4 JUMP JUMPDEST PUSH1 0x1 PUSH1 0x1 PUSH1 0xA0 SHL SUB DUP4 AND PUSH2 0x775 JUMPI PUSH1 0x40 MLOAD PUSH32 0xF179A02100000000000000000000000000000000000000000000000000000000 DUP2 MSTORE PUSH1 0x4 ADD PUSH1 0x40 MLOAD DUP1 SWAP2 SUB SWAP1 REVERT JUMPDEST PUSH1 0x1 PUSH1 0x1 PUSH1 0xA0 SHL SUB DUP3 AND PUSH2 0x7B5 JUMPI PUSH1 0x40 MLOAD PUSH32 0xA38B94900000000000000000000000000000000000000000000000000000000 DUP2 MSTORE PUSH1 0x4 ADD PUSH1 0x40 MLOAD DUP1 SWAP2 SUB SWAP1 REVERT JUMPDEST DUP1 PUSH1 0x0 SUB PUSH2 0x7EF JUMPI PUSH1 0x40 MLOAD PUSH32 0x26B97EA400000000000000000000000000000000000000000000000000000000 DUP2 MSTORE PUSH1 0x4 ADD PUSH1 0x40 MLOAD DUP1 SWAP2 SUB SWAP1 REVERT JUMPDEST PUSH2 0x803 PUSH1 0x1 PUSH1 0x1 PUSH1 0xA0 SHL SUB DUP5 AND DUP4 DUP4 PUSH2 0xBC3 JUMP JUMPDEST DUP2 PUSH1 0x1 PUSH1 0x1 PUSH1 0xA0 SHL SUB AND DUP4 PUSH1 0x1 PUSH1 0x1 PUSH1 0xA0 SHL SUB AND PUSH32 0xED2837B80B3489773C5F1ED30DD2884B4C90DBF7B87428EA03C49B24EF59A805 DUP4 PUSH1 0x40 MLOAD PUSH2 0x848 SWAP2 DUP2 MSTORE PUSH1 0x20 ADD SWAP1 JUMP JUMPDEST PUSH1 0x40 MLOAD DUP1 SWAP2 SUB SWAP1 LOG3 POP POP POP JUMP JUMPDEST PUSH2 0x85D PUSH2 0x9D4 JUMP JUMPDEST PUSH2 0x867 PUSH1 0x0 PUSH2 0xC43 JUMP JUMPDEST JUMP JUMPDEST PUSH2 0x871 PUSH2 0x9D4 JUMP JUMPDEST PUSH2 0x87A DUP2 PUSH2 0xCAB JUMP JUMPDEST POP JUMP JUMPDEST PUSH2 0x888 DUP4 DUP4 DUP4 PUSH2 0xD4D JUMP JUMPDEST POP POP POP POP JUMP JUMPDEST PUSH2 0x896 PUSH2 0x9D4 JUMP JUMPDEST PUSH1 0x1 PUSH1 0x1 PUSH1 0xA0 SHL SUB DUP3 AND PUSH1 0x0 DUP2 DUP2 MSTORE PUSH1 0x5 PUSH1 0x20 MSTORE PUSH1 0x40 SWAP1 DUP2 SWAP1 KECCAK256 DUP4 SWAP1 SSTORE MLOAD PUSH32 0xAC2D1A21B245CEB74D21BA8D4BBE0AE6D14473563F17AAE4958AFE3253ED603F SWAP1 PUSH2 0x8E3 SWAP1 DUP5 DUP2 MSTORE PUSH1 0x20 ADD SWAP1 JUMP JUMPDEST PUSH1 0x40 MLOAD DUP1 SWAP2 SUB SWAP1 LOG2 POP POP JUMP JUMPDEST PUSH2 0x8FA DUP4 DUP4 DUP4 PUSH2 0xD4D JUMP JUMPDEST PUSH1 0x40 MLOAD PUSH32 0xF7DCE39300000000000000000000000000000000000000000000000000000000 DUP2 MSTORE PUSH1 0x4 ADD PUSH2 0x4B7 SWAP2 SWAP1 PUSH2 0x1C1D JUMP JUMPDEST PUSH2 0x935 PUSH2 0x9D4 JUMP JUMPDEST PUSH1 0x1 PUSH1 0x1 PUSH1 0xA0 SHL SUB DUP2 AND PUSH2 0x9CB JUMPI PUSH1 0x40 MLOAD PUSH32 0x8C379A000000000000000000000000000000000000000000000000000000000 DUP2 MSTORE PUSH1 0x20 PUSH1 0x4 DUP3 ADD MSTORE PUSH1 0x26 PUSH1 0x24 DUP3 ADD MSTORE PUSH32 0x4F776E61626C653A206E6577206F776E657220697320746865207A65726F2061 PUSH1 0x44 DUP3 ADD MSTORE PUSH32 0x6464726573730000000000000000000000000000000000000000000000000000 PUSH1 0x64 DUP3 ADD MSTORE PUSH1 0x84 ADD PUSH2 0x4B7 JUMP JUMPDEST PUSH2 0x87A DUP2 PUSH2 0xC43 JUMP JUMPDEST PUSH1 0x0 SLOAD PUSH1 0x1 PUSH1 0x1 PUSH1 0xA0 SHL SUB AND CALLER EQ PUSH2 0x867 JUMPI PUSH1 0x40 MLOAD PUSH32 0x8C379A000000000000000000000000000000000000000000000000000000000 DUP2 MSTORE PUSH1 0x20 PUSH1 0x4 DUP3 ADD DUP2 SWAP1 MSTORE PUSH1 0x24 DUP3 ADD MSTORE PUSH32 0x4F776E61626C653A2063616C6C6572206973206E6F7420746865206F776E6572 PUSH1 0x44 DUP3 ADD MSTORE PUSH1 0x64 ADD PUSH2 0x4B7 JUMP JUMPDEST PUSH1 0x1 PUSH1 0x1 PUSH1 0xA0 SHL SUB DUP3 AND PUSH2 0xA88 JUMPI PUSH1 0x40 MLOAD PUSH32 0xAC9BAE2C00000000000000000000000000000000000000000000000000000000 DUP2 MSTORE PUSH1 0x4 ADD PUSH1 0x40 MLOAD DUP1 SWAP2 SUB SWAP1 REVERT JUMPDEST PUSH1 0x1 PUSH1 0x1 PUSH1 0xA0 SHL SUB DUP3 AND PUSH1 0x0 DUP2 DUP2 MSTORE PUSH1 0x2 PUSH1 0x20 SWAP1 DUP2 MSTORE PUSH1 0x40 SWAP2 DUP3 SWAP1 KECCAK256 DUP1 SLOAD PUSH32 0xFFFFFFFFFFFFFFFFFFFFFFFFFFFFFFFFFFFFFFFFFFFFFFFFFFFFFFFFFFFFFF00 AND DUP6 ISZERO ISZERO SWAP1 DUP2 OR SWAP1 SWAP2 SSTORE SWAP2 MLOAD SWAP2 DUP3 MSTORE PUSH32 0x278B09622564DD3991FE7744514513D64EA2C8ED2B2B9EC1150AD964FDE80A99 SWAP2 ADD PUSH2 0x8E3 JUMP JUMPDEST PUSH1 0x1 PUSH1 0x1 PUSH1 0xA0 SHL SUB DUP3 AND PUSH1 0x0 SWAP1 DUP2 MSTORE PUSH1 0x6 PUSH1 0x20 MSTORE PUSH1 0x40 DUP2 KECCAK256 SLOAD DUP1 DUP3 SUB PUSH2 0xB28 JUMPI PUSH1 0x0 SWAP2 POP POP PUSH2 0xBBD JUMP JUMPDEST DUP1 DUP4 GT ISZERO PUSH2 0xB51 JUMPI PUSH1 0x1 PUSH1 0x1 PUSH1 0xA0 SHL SUB DUP5 AND PUSH1 0x0 SWAP1 DUP2 MSTORE PUSH1 0x6 PUSH1 0x20 MSTORE PUSH1 0x40 DUP2 KECCAK256 SSTORE SWAP1 POP DUP1 PUSH2 0xB78 JUMP JUMPDEST PUSH2 0xB5B DUP4 DUP3 PUSH2 0x1B89 JUMP JUMPDEST PUSH1 0x1 PUSH1 0x1 PUSH1 0xA0 SHL SUB DUP6 AND PUSH1 0x0 SWAP1 DUP2 MSTORE PUSH1 0x6 PUSH1 0x20 MSTORE PUSH1 0x40 SWAP1 KECCAK256 SSTORE DUP3 SWAP2 POP JUMPDEST DUP4 PUSH1 0x1 PUSH1 0x1 PUSH1 0xA0 SHL SUB AND PUSH32 0xADDE402C2CBAE39776EBBB17C3619B0DF48792F0AE294012433667CC4F30AA90 DUP4 PUSH1 0x40 MLOAD PUSH2 0xBB3 SWAP2 DUP2 MSTORE PUSH1 0x20 ADD SWAP1 JUMP JUMPDEST PUSH1 0x40 MLOAD DUP1 SWAP2 SUB SWAP1 LOG2 POP JUMPDEST SWAP3 SWAP2 POP POP JUMP JUMPDEST PUSH1 0x40 DUP1 MLOAD PUSH1 0x1 PUSH1 0x1 PUSH1 0xA0 SHL SUB DUP5 AND PUSH1 0x24 DUP3 ADD MSTORE PUSH1 0x44 DUP1 DUP3 ADD DUP5 SWAP1 MSTORE DUP3 MLOAD DUP1 DUP4 SUB SWAP1 SWAP2 ADD DUP2 MSTORE PUSH1 0x64 SWAP1 SWAP2 ADD SWAP1 SWAP2 MSTORE PUSH1 0x20 DUP2 ADD DUP1 MLOAD PUSH28 0xFFFFFFFFFFFFFFFFFFFFFFFFFFFFFFFFFFFFFFFFFFFFFFFFFFFFFFFF AND PUSH32 0xA9059CBB00000000000000000000000000000000000000000000000000000000 OR SWAP1 MSTORE PUSH2 0x5A3 SWAP1 DUP5 SWAP1 PUSH2 0x1272 JUMP JUMPDEST PUSH1 0x0 DUP1 SLOAD PUSH1 0x1 PUSH1 0x1 PUSH1 0xA0 SHL SUB DUP4 DUP2 AND PUSH32 0xFFFFFFFFFFFFFFFFFFFFFFFF0000000000000000000000000000000000000000 DUP4 AND DUP2 OR DUP5 SSTORE PUSH1 0x40 MLOAD SWAP2 SWAP1 SWAP3 AND SWAP3 DUP4 SWAP2 PUSH32 0x8BE0079C531659141344CD1FD0A4F28419497F9722A3DAAFE3B4186F6B6457E0 SWAP2 SWAP1 LOG3 POP POP JUMP JUMPDEST PUSH1 0x1 PUSH1 0x1 PUSH1 0xA0 SHL SUB DUP2 AND PUSH2 0xCEB JUMPI PUSH1 0x40 MLOAD PUSH32 0xE044C84500000000000000000000000000000000000000000000000000000000 DUP2 MSTORE PUSH1 0x4 ADD PUSH1 0x40 MLOAD DUP1 SWAP2 SUB SWAP1 REVERT JUMPDEST PUSH1 0x1 DUP1 SLOAD PUSH32 0xFFFFFFFFFFFFFFFFFFFFFFFF0000000000000000000000000000000000000000 AND PUSH1 0x1 PUSH1 0x1 PUSH1 0xA0 SHL SUB DUP4 AND SWAP1 DUP2 OR SWAP1 SWAP2 SSTORE PUSH1 0x40 MLOAD PUSH32 0xC0021C55037758881ECB38510BBC7A75898649236006215FA3EE18E3AC8C718E SWAP1 PUSH1 0x0 SWAP1 LOG2 POP JUMP JUMPDEST CALLER PUSH1 0x0 SWAP1 DUP2 MSTORE PUSH1 0x2 PUSH1 0x20 MSTORE PUSH1 0x40 SWAP1 KECCAK256 SLOAD PUSH1 0x60 SWAP1 PUSH1 0xFF AND PUSH2 0xD9B JUMPI PUSH1 0x40 MLOAD PUSH32 0x8B8ED3D400000000000000000000000000000000000000000000000000000000 DUP2 MSTORE CALLER PUSH1 0x4 DUP3 ADD MSTORE PUSH1 0x24 ADD PUSH2 0x4B7 JUMP JUMPDEST DUP4 MLOAD PUSH1 0x0 SUB PUSH2 0xDD6 JUMPI PUSH1 0x40 MLOAD PUSH32 0xE4BC11400000000000000000000000000000000000000000000000000000000 DUP2 MSTORE PUSH1 0x4 ADD PUSH1 0x40 MLOAD DUP1 SWAP2 SUB SWAP1 REVERT JUMPDEST DUP3 MLOAD DUP5 MLOAD EQ PUSH2 0xE11 JUMPI PUSH1 0x40 MLOAD PUSH32 0x9C2136E400000000000000000000000000000000000000000000000000000000 DUP2 MSTORE PUSH1 0x4 ADD PUSH1 0x40 MLOAD DUP1 SWAP2 SUB SWAP1 REVERT JUMPDEST PUSH1 0x0 PUSH3 0x11364 SWAP1 POP PUSH1 0x0 DUP6 PUSH1 0x0 DUP2 MLOAD DUP2 LT PUSH2 0xE2E JUMPI PUSH2 0xE2E PUSH2 0x1CB1 JUMP JUMPDEST PUSH1 0x20 MUL PUSH1 0x20 ADD ADD MLOAD PUSH1 0x1 PUSH1 0x1 PUSH1 0xA0 SHL SUB AND PUSH4 0x4FD49EFD PUSH1 0x40 MLOAD DUP2 PUSH4 0xFFFFFFFF AND PUSH1 0xE0 SHL DUP2 MSTORE PUSH1 0x4 ADD PUSH1 0x20 PUSH1 0x40 MLOAD DUP1 DUP4 SUB DUP2 DUP7 GAS STATICCALL ISZERO DUP1 ISZERO PUSH2 0xE73 JUMPI RETURNDATASIZE PUSH1 0x0 DUP1 RETURNDATACOPY RETURNDATASIZE PUSH1 0x0 REVERT JUMPDEST POP POP POP POP PUSH1 0x40 MLOAD RETURNDATASIZE PUSH1 0x1F NOT PUSH1 0x1F DUP3 ADD AND DUP3 ADD DUP1 PUSH1 0x40 MSTORE POP DUP2 ADD SWAP1 PUSH2 0xE97 SWAP2 SWAP1 PUSH2 0x1CE0 JUMP JUMPDEST SWAP1 POP DUP6 MLOAD PUSH8 0xFFFFFFFFFFFFFFFF DUP2 GT ISZERO PUSH2 0xEB3 JUMPI PUSH2 0xEB3 PUSH2 0x18DF JUMP JUMPDEST PUSH1 0x40 MLOAD SWAP1 DUP1 DUP3 MSTORE DUP1 PUSH1 0x20 MUL PUSH1 0x20 ADD DUP3 ADD PUSH1 0x40 MSTORE DUP1 ISZERO PUSH2 0xEF9 JUMPI DUP2 PUSH1 0x20 ADD JUMPDEST PUSH1 0x40 DUP1 MLOAD DUP1 DUP3 ADD SWAP1 SWAP2 MSTORE PUSH1 0x0 DUP2 MSTORE PUSH1 0x60 PUSH1 0x20 DUP3 ADD MSTORE DUP2 MSTORE PUSH1 0x20 ADD SWAP1 PUSH1 0x1 SWAP1 SUB SWAP1 DUP2 PUSH2 0xED1 JUMPI SWAP1 POP JUMPDEST POP SWAP3 POP PUSH1 0x0 JUMPDEST DUP7 MLOAD DUP2 LT ISZERO PUSH2 0x123E JUMPI PUSH1 0x0 GAS SWAP1 POP PUSH1 0x0 DUP9 DUP4 DUP2 MLOAD DUP2 LT PUSH2 0xF21 JUMPI PUSH2 0xF21 PUSH2 0x1CB1 JUMP JUMPDEST PUSH1 0x20 MUL PUSH1 0x20 ADD ADD MLOAD SWAP1 POP PUSH1 0x0 DUP2 PUSH1 0x1 PUSH1 0x1 PUSH1 0xA0 SHL SUB AND PUSH4 0x4FD49EFD PUSH1 0x40 MLOAD DUP2 PUSH4 0xFFFFFFFF AND PUSH1 0xE0 SHL DUP2 MSTORE PUSH1 0x4 ADD PUSH1 0x20 PUSH1 0x40 MLOAD DUP1 DUP4 SUB DUP2 DUP7 GAS STATICCALL ISZERO DUP1 ISZERO PUSH2 0xF6B JUMPI RETURNDATASIZE PUSH1 0x0 DUP1 RETURNDATACOPY RETURNDATASIZE PUSH1 0x0 REVERT JUMPDEST POP POP POP POP PUSH1 0x40 MLOAD RETURNDATASIZE PUSH1 0x1F NOT PUSH1 0x1F DUP3 ADD AND DUP3 ADD DUP1 PUSH1 0x40 MSTORE POP DUP2 ADD SWAP1 PUSH2 0xF8F SWAP2 SWAP1 PUSH2 0x1CE0 JUMP JUMPDEST SWAP1 POP DUP5 PUSH1 0x1 PUSH1 0x1 PUSH1 0xA0 SHL SUB AND DUP2 PUSH1 0x1 PUSH1 0x1 PUSH1 0xA0 SHL SUB AND EQ PUSH2 0xFF7 JUMPI PUSH1 0x40 MLOAD PUSH32 0xB6BC943700000000000000000000000000000000000000000000000000000000 DUP2 MSTORE PUSH1 0x1 PUSH1 0x1 PUSH1 0xA0 SHL SUB DUP1 DUP5 AND PUSH1 0x4 DUP4 ADD MSTORE DUP1 DUP4 AND PUSH1 0x24 DUP4 ADD MSTORE DUP7 AND PUSH1 0x44 DUP3 ADD MSTORE PUSH1 0x64 ADD PUSH2 0x4B7 JUMP JUMPDEST PUSH1 0x40 MLOAD PUSH32 0x1FFA27F900000000000000000000000000000000000000000000000000000000 DUP2 MSTORE PUSH1 0x1 PUSH1 0x1 PUSH1 0xA0 SHL SUB DUP4 DUP2 AND PUSH1 0x4 DUP4 ADD MSTORE PUSH1 0x0 SWAP2 SWAP1 DUP8 AND SWAP1 PUSH4 0x1FFA27F9 SWAP1 PUSH1 0x24 ADD PUSH1 0x20 PUSH1 0x40 MLOAD DUP1 DUP4 SUB DUP2 DUP7 GAS STATICCALL ISZERO DUP1 ISZERO PUSH2 0x105A JUMPI RETURNDATASIZE PUSH1 0x0 DUP1 RETURNDATACOPY RETURNDATASIZE PUSH1 0x0 REVERT JUMPDEST POP POP POP POP PUSH1 0x40 MLOAD RETURNDATASIZE PUSH1 0x1F NOT PUSH1 0x1F DUP3 ADD AND DUP3 ADD DUP1 PUSH1 0x40 MSTORE POP DUP2 ADD SWAP1 PUSH2 0x107E SWAP2 SWAP1 PUSH2 0x1CFD JUMP JUMPDEST SWAP1 POP DUP1 PUSH2 0x10CA JUMPI PUSH1 0x40 MLOAD PUSH32 0x482FE1400000000000000000000000000000000000000000000000000000000 DUP2 MSTORE PUSH1 0x1 PUSH1 0x1 PUSH1 0xA0 SHL SUB DUP1 DUP6 AND PUSH1 0x4 DUP4 ADD MSTORE DUP8 AND PUSH1 0x24 DUP3 ADD MSTORE PUSH1 0x44 ADD PUSH2 0x4B7 JUMP JUMPDEST PUSH1 0x0 DUP1 DUP5 PUSH1 0x1 PUSH1 0x1 PUSH1 0xA0 SHL SUB AND DUP13 DUP9 DUP2 MLOAD DUP2 LT PUSH2 0x10E9 JUMPI PUSH2 0x10E9 PUSH2 0x1CB1 JUMP JUMPDEST PUSH1 0x20 MUL PUSH1 0x20 ADD ADD MLOAD PUSH1 0x40 MLOAD PUSH2 0x10FE SWAP2 SWAP1 PUSH2 0x1D1A JUMP JUMPDEST PUSH1 0x0 PUSH1 0x40 MLOAD DUP1 DUP4 SUB DUP2 PUSH1 0x0 DUP7 GAS CALL SWAP2 POP POP RETURNDATASIZE DUP1 PUSH1 0x0 DUP2 EQ PUSH2 0x113B JUMPI PUSH1 0x40 MLOAD SWAP2 POP PUSH1 0x1F NOT PUSH1 0x3F RETURNDATASIZE ADD AND DUP3 ADD PUSH1 0x40 MSTORE RETURNDATASIZE DUP3 MSTORE RETURNDATASIZE PUSH1 0x0 PUSH1 0x20 DUP5 ADD RETURNDATACOPY PUSH2 0x1140 JUMP JUMPDEST PUSH1 0x60 SWAP2 POP JUMPDEST POP SWAP2 POP SWAP2 POP PUSH1 0x40 MLOAD DUP1 PUSH1 0x40 ADD PUSH1 0x40 MSTORE DUP1 DUP4 ISZERO ISZERO DUP2 MSTORE PUSH1 0x20 ADD DUP3 DUP2 MSTORE POP DUP11 DUP9 DUP2 MLOAD DUP2 LT PUSH2 0x116E JUMPI PUSH2 0x116E PUSH2 0x1CB1 JUMP JUMPDEST PUSH1 0x20 MUL PUSH1 0x20 ADD ADD DUP2 SWAP1 MSTORE POP PUSH1 0x0 GAS PUSH2 0x1186 SWAP1 DUP9 PUSH2 0x1B89 JUMP JUMPDEST SWAP1 POP DUP3 ISZERO PUSH2 0x119B JUMPI PUSH2 0x1198 DUP2 DUP12 PUSH2 0x1B9C JUMP JUMPDEST SWAP10 POP JUMPDEST DUP6 PUSH1 0x1 PUSH1 0x1 PUSH1 0xA0 SHL SUB AND DUP10 PUSH1 0x1 PUSH1 0x1 PUSH1 0xA0 SHL SUB AND PUSH32 0x20E6470760A122F57ACDFD383093A746EE742ADCBC9FFBBDD00F4D29AFF42612 DUP16 DUP12 DUP2 MLOAD DUP2 LT PUSH2 0x11E2 JUMPI PUSH2 0x11E2 PUSH2 0x1CB1 JUMP JUMPDEST PUSH1 0x20 MUL PUSH1 0x20 ADD ADD MLOAD DUP7 DUP7 DUP7 DUP15 PUSH1 0x40 MLOAD PUSH2 0x11FF SWAP6 SWAP5 SWAP4 SWAP3 SWAP2 SWAP1 PUSH2 0x1D36 JUMP JUMPDEST PUSH1 0x40 MLOAD DUP1 SWAP2 SUB SWAP1 LOG3 DUP3 ISZERO DUP1 ISZERO PUSH2 0x1213 JUMPI POP DUP12 ISZERO JUMPDEST ISZERO PUSH2 0x1224 JUMPI POP POP POP POP POP POP POP PUSH2 0x123E JUMP JUMPDEST POP POP POP POP POP POP POP DUP1 DUP1 PUSH2 0x1236 SWAP1 PUSH2 0x1D78 JUMP JUMPDEST SWAP2 POP POP PUSH2 0xEFF JUMP JUMPDEST POP PUSH3 0x11364 DUP3 SUB PUSH2 0x1250 JUMPI POP POP PUSH2 0x726 JUMP JUMPDEST PUSH1 0x0 PUSH2 0x125C GASPRICE DUP5 PUSH2 0x1DB0 JUMP JUMPDEST SWAP1 POP PUSH2 0x1268 DUP3 DUP3 PUSH2 0x1374 JUMP JUMPDEST POP POP POP SWAP4 SWAP3 POP POP POP JUMP JUMPDEST PUSH1 0x0 PUSH2 0x12C7 DUP3 PUSH1 0x40 MLOAD DUP1 PUSH1 0x40 ADD PUSH1 0x40 MSTORE DUP1 PUSH1 0x20 DUP2 MSTORE PUSH1 0x20 ADD PUSH32 0x5361666545524332303A206C6F772D6C6576656C2063616C6C206661696C6564 DUP2 MSTORE POP DUP6 PUSH1 0x1 PUSH1 0x1 PUSH1 0xA0 SHL SUB AND PUSH2 0x15AD SWAP1 SWAP3 SWAP2 SWAP1 PUSH4 0xFFFFFFFF AND JUMP JUMPDEST SWAP1 POP DUP1 MLOAD PUSH1 0x0 EQ DUP1 PUSH2 0x12E8 JUMPI POP DUP1 DUP1 PUSH1 0x20 ADD SWAP1 MLOAD DUP2 ADD SWAP1 PUSH2 0x12E8 SWAP2 SWAP1 PUSH2 0x1CFD JUMP JUMPDEST PUSH2 0x5A3 JUMPI PUSH1 0x40 MLOAD PUSH32 0x8C379A000000000000000000000000000000000000000000000000000000000 DUP2 MSTORE PUSH1 0x20 PUSH1 0x4 DUP3 ADD MSTORE PUSH1 0x2A PUSH1 0x24 DUP3 ADD MSTORE PUSH32 0x5361666545524332303A204552433230206F7065726174696F6E20646964206E PUSH1 0x44 DUP3 ADD MSTORE PUSH32 0x6F74207375636365656400000000000000000000000000000000000000000000 PUSH1 0x64 DUP3 ADD MSTORE PUSH1 0x84 ADD PUSH2 0x4B7 JUMP JUMPDEST PUSH1 0x1 PUSH1 0x1 PUSH1 0xA0 SHL SUB DUP3 AND PUSH1 0x0 SWAP1 DUP2 MSTORE PUSH1 0x3 PUSH1 0x20 SWAP1 DUP2 MSTORE PUSH1 0x40 DUP1 DUP4 KECCAK256 SLOAD PUSH1 0x5 DUP4 MSTORE DUP2 DUP5 KECCAK256 SLOAD PUSH1 0x6 SWAP1 SWAP4 MSTORE SWAP1 DUP4 KECCAK256 SLOAD SWAP1 SWAP3 DUP3 DUP3 LT ISZERO PUSH2 0x13BA JUMPI PUSH2 0x13B5 DUP3 DUP5 PUSH2 0x1B89 JUMP JUMPDEST PUSH2 0x13BD JUMP JUMPDEST PUSH1 0x0 JUMPDEST SWAP1 POP PUSH1 0x0 PUSH2 0x13CB DUP3 DUP7 PUSH2 0x1B9C JUMP JUMPDEST DUP7 GT ISZERO SWAP1 POP DUP1 PUSH2 0x1427 JUMPI PUSH1 0x40 MLOAD PUSH32 0x836DF07F00000000000000000000000000000000000000000000000000000000 DUP2 MSTORE PUSH1 0x1 PUSH1 0x1 PUSH1 0xA0 SHL SUB DUP9 AND PUSH1 0x4 DUP3 ADD MSTORE PUSH1 0x24 DUP2 ADD DUP7 SWAP1 MSTORE PUSH1 0x44 DUP2 ADD DUP4 SWAP1 MSTORE PUSH1 0x64 DUP2 ADD DUP8 SWAP1 MSTORE PUSH1 0x84 ADD PUSH2 0x4B7 JUMP JUMPDEST PUSH1 0x0 DUP1 DUP8 DUP8 LT PUSH2 0x145C JUMPI PUSH2 0x143B DUP9 DUP9 PUSH2 0x1B89 JUMP JUMPDEST PUSH1 0x1 PUSH1 0x1 PUSH1 0xA0 SHL SUB DUP11 AND PUSH1 0x0 SWAP1 DUP2 MSTORE PUSH1 0x3 PUSH1 0x20 MSTORE PUSH1 0x40 SWAP1 KECCAK256 SSTORE DUP8 SWAP2 POP PUSH2 0x14A8 JUMP JUMPDEST PUSH2 0x1466 DUP8 DUP10 PUSH2 0x1B89 JUMP JUMPDEST PUSH1 0x1 PUSH1 0x1 PUSH1 0xA0 SHL SUB DUP11 AND PUSH1 0x0 SWAP1 DUP2 MSTORE PUSH1 0x3 PUSH1 0x20 MSTORE PUSH1 0x40 DUP2 KECCAK256 SSTORE SWAP1 POP PUSH2 0x148B DUP2 DUP7 PUSH2 0x1B9C JUMP JUMPDEST PUSH1 0x1 PUSH1 0x1 PUSH1 0xA0 SHL SUB DUP11 AND PUSH1 0x0 SWAP1 DUP2 MSTORE PUSH1 0x6 PUSH1 0x20 MSTORE PUSH1 0x40 SWAP1 KECCAK256 SSTORE DUP7 SWAP2 POP JUMPDEST DUP2 ISZERO PUSH2 0x155E JUMPI PUSH1 0x0 PUSH2 0x14B9 DUP11 PUSH2 0x6F1 JUMP JUMPDEST PUSH1 0x1 PUSH1 0x1 PUSH1 0xA0 SHL SUB AND DUP4 PUSH1 0x40 MLOAD PUSH1 0x0 PUSH1 0x40 MLOAD DUP1 DUP4 SUB DUP2 DUP6 DUP8 GAS CALL SWAP3 POP POP POP RETURNDATASIZE DUP1 PUSH1 0x0 DUP2 EQ PUSH2 0x1503 JUMPI PUSH1 0x40 MLOAD SWAP2 POP PUSH1 0x1F NOT PUSH1 0x3F RETURNDATASIZE ADD AND DUP3 ADD PUSH1 0x40 MSTORE RETURNDATASIZE DUP3 MSTORE RETURNDATASIZE PUSH1 0x0 PUSH1 0x20 DUP5 ADD RETURNDATACOPY PUSH2 0x1508 JUMP JUMPDEST PUSH1 0x60 SWAP2 POP JUMPDEST POP POP SWAP1 POP DUP1 PUSH2 0x155C JUMPI PUSH1 0x40 MLOAD PUSH32 0x236ADC7600000000000000000000000000000000000000000000000000000000 DUP2 MSTORE PUSH1 0x1 PUSH1 0x1 PUSH1 0xA0 SHL SUB DUP12 AND PUSH1 0x4 DUP3 ADD MSTORE PUSH1 0x24 DUP2 ADD DUP11 SWAP1 MSTORE PUSH1 0x44 DUP2 ADD DUP4 SWAP1 MSTORE PUSH1 0x64 ADD PUSH2 0x4B7 JUMP JUMPDEST POP JUMPDEST PUSH1 0x40 DUP1 MLOAD DUP10 DUP2 MSTORE PUSH1 0x20 DUP2 ADD DUP4 SWAP1 MSTORE PUSH1 0x1 PUSH1 0x1 PUSH1 0xA0 SHL SUB DUP12 AND SWAP2 PUSH32 0xC34A4660C18505A3CC0299553E73CD78F1DE9B3AE9714A1DDDD2FEA59FA50F8F SWAP2 ADD PUSH1 0x40 MLOAD DUP1 SWAP2 SUB SWAP1 LOG2 POP POP POP POP POP POP POP POP POP JUMP JUMPDEST PUSH1 0x60 PUSH2 0x15BC DUP5 DUP5 PUSH1 0x0 DUP6 PUSH2 0x15C4 JUMP JUMPDEST SWAP5 SWAP4 POP POP POP POP JUMP JUMPDEST PUSH1 0x60 DUP3 SELFBALANCE LT ISZERO PUSH2 0x1656 JUMPI PUSH1 0x40 MLOAD PUSH32 0x8C379A000000000000000000000000000000000000000000000000000000000 DUP2 MSTORE PUSH1 0x20 PUSH1 0x4 DUP3 ADD MSTORE PUSH1 0x26 PUSH1 0x24 DUP3 ADD MSTORE PUSH32 0x416464726573733A20696E73756666696369656E742062616C616E636520666F PUSH1 0x44 DUP3 ADD MSTORE PUSH32 0x722063616C6C0000000000000000000000000000000000000000000000000000 PUSH1 0x64 DUP3 ADD MSTORE PUSH1 0x84 ADD PUSH2 0x4B7 JUMP JUMPDEST PUSH1 0x0 DUP1 DUP7 PUSH1 0x1 PUSH1 0x1 PUSH1 0xA0 SHL SUB AND DUP6 DUP8 PUSH1 0x40 MLOAD PUSH2 0x1672 SWAP2 SWAP1 PUSH2 0x1D1A JUMP JUMPDEST PUSH1 0x0 PUSH1 0x40 MLOAD DUP1 DUP4 SUB DUP2 DUP6 DUP8 GAS CALL SWAP3 POP POP POP RETURNDATASIZE DUP1 PUSH1 0x0 DUP2 EQ PUSH2 0x16AF JUMPI PUSH1 0x40 MLOAD SWAP2 POP PUSH1 0x1F NOT PUSH1 0x3F RETURNDATASIZE ADD AND DUP3 ADD PUSH1 0x40 MSTORE RETURNDATASIZE DUP3 MSTORE RETURNDATASIZE PUSH1 0x0 PUSH1 0x20 DUP5 ADD RETURNDATACOPY PUSH2 0x16B4 JUMP JUMPDEST PUSH1 0x60 SWAP2 POP JUMPDEST POP SWAP2 POP SWAP2 POP PUSH2 0x16C5 DUP8 DUP4 DUP4 DUP8 PUSH2 0x16D0 JUMP JUMPDEST SWAP8 SWAP7 POP POP POP POP POP POP POP JUMP JUMPDEST PUSH1 0x60 DUP4 ISZERO PUSH2 0x1759 JUMPI DUP3 MLOAD PUSH1 0x0 SUB PUSH2 0x1752 JUMPI PUSH1 0x1 PUSH1 0x1 PUSH1 0xA0 SHL SUB DUP6 AND EXTCODESIZE PUSH2 0x1752 JUMPI PUSH1 0x40 MLOAD PUSH32 0x8C379A000000000000000000000000000000000000000000000000000000000 DUP2 MSTORE PUSH1 0x20 PUSH1 0x4 DUP3 ADD MSTORE PUSH1 0x1D PUSH1 0x24 DUP3 ADD MSTORE PUSH32 0x416464726573733A2063616C6C20746F206E6F6E2D636F6E7472616374000000 PUSH1 0x44 DUP3 ADD MSTORE PUSH1 0x64 ADD PUSH2 0x4B7 JUMP JUMPDEST POP DUP2 PUSH2 0x15BC JUMP JUMPDEST PUSH2 0x15BC DUP4 DUP4 DUP2 MLOAD ISZERO PUSH2 0x176E JUMPI DUP2 MLOAD DUP1 DUP4 PUSH1 0x20 ADD REVERT JUMPDEST DUP1 PUSH1 0x40 MLOAD PUSH32 0x8C379A000000000000000000000000000000000000000000000000000000000 DUP2 MSTORE PUSH1 0x4 ADD PUSH2 0x4B7 SWAP2 SWAP1 PUSH2 0x1DC7 JUMP JUMPDEST PUSH1 0x1 PUSH1 0x1 PUSH1 0xA0 SHL SUB DUP2 AND DUP2 EQ PUSH2 0x87A JUMPI PUSH1 0x0 DUP1 REVERT JUMPDEST PUSH1 0x0 PUSH1 0x20 DUP3 DUP5 SUB SLT ISZERO PUSH2 0x17C9 JUMPI PUSH1 0x0 DUP1 REVERT JUMPDEST DUP2 CALLDATALOAD PUSH2 0x726 DUP2 PUSH2 0x17A2 JUMP JUMPDEST DUP1 ISZERO ISZERO DUP2 EQ PUSH2 0x87A JUMPI PUSH1 0x0 DUP1 REVERT JUMPDEST DUP1 CALLDATALOAD PUSH2 0x17ED DUP2 PUSH2 0x17D4 JUMP JUMPDEST SWAP2 SWAP1 POP JUMP JUMPDEST PUSH1 0x0 DUP1 PUSH1 0x40 DUP4 DUP6 SUB SLT ISZERO PUSH2 0x1805 JUMPI PUSH1 0x0 DUP1 REVERT JUMPDEST DUP3 CALLDATALOAD PUSH2 0x1810 DUP2 PUSH2 0x17A2 JUMP JUMPDEST SWAP2 POP PUSH1 0x20 DUP4 ADD CALLDATALOAD PUSH2 0x1820 DUP2 PUSH2 0x17D4 JUMP JUMPDEST DUP1 SWAP2 POP POP SWAP3 POP SWAP3 SWAP1 POP JUMP JUMPDEST PUSH1 0x0 PUSH1 0x20 DUP3 DUP5 SUB SLT ISZERO PUSH2 0x183D JUMPI PUSH1 0x0 DUP1 REVERT JUMPDEST POP CALLDATALOAD SWAP2 SWAP1 POP JUMP JUMPDEST PUSH1 0x0 DUP1 PUSH1 0x40 DUP4 DUP6 SUB SLT ISZERO PUSH2 0x1857 JUMPI PUSH1 0x0 DUP1 REVERT JUMPDEST DUP3 CALLDATALOAD PUSH2 0x1862 DUP2 PUSH2 0x17A2 JUMP JUMPDEST SWAP2 POP PUSH1 0x20 DUP4 ADD CALLDATALOAD PUSH2 0x1820 DUP2 PUSH2 0x17A2 JUMP JUMPDEST PUSH1 0x0 DUP1 PUSH1 0x40 DUP4 DUP6 SUB SLT ISZERO PUSH2 0x1885 JUMPI PUSH1 0x0 DUP1 REVERT JUMPDEST DUP3 CALLDATALOAD PUSH2 0x1890 DUP2 PUSH2 0x17A2 JUMP JUMPDEST SWAP5 PUSH1 0x20 SWAP4 SWAP1 SWAP4 ADD CALLDATALOAD SWAP4 POP POP POP JUMP JUMPDEST PUSH1 0x0 DUP1 PUSH1 0x0 PUSH1 0x60 DUP5 DUP7 SUB SLT ISZERO PUSH2 0x18B3 JUMPI PUSH1 0x0 DUP1 REVERT JUMPDEST DUP4 CALLDATALOAD PUSH2 0x18BE DUP2 PUSH2 0x17A2 JUMP JUMPDEST SWAP3 POP PUSH1 0x20 DUP5 ADD CALLDATALOAD PUSH2 0x18CE DUP2 PUSH2 0x17A2 JUMP JUMPDEST SWAP3 SWAP6 SWAP3 SWAP5 POP POP POP PUSH1 0x40 SWAP2 SWAP1 SWAP2 ADD CALLDATALOAD SWAP1 JUMP JUMPDEST PUSH32 0x4E487B7100000000000000000000000000000000000000000000000000000000 PUSH1 0x0 MSTORE PUSH1 0x41 PUSH1 0x4 MSTORE PUSH1 0x24 PUSH1 0x0 REVERT JUMPDEST PUSH1 0x40 MLOAD PUSH1 0x1F DUP3 ADD PUSH32 0xFFFFFFFFFFFFFFFFFFFFFFFFFFFFFFFFFFFFFFFFFFFFFFFFFFFFFFFFFFFFFFE0 AND DUP2 ADD PUSH8 0xFFFFFFFFFFFFFFFF DUP2 GT DUP3 DUP3 LT OR ISZERO PUSH2 0x1955 JUMPI PUSH2 0x1955 PUSH2 0x18DF JUMP JUMPDEST PUSH1 0x40 MSTORE SWAP2 SWAP1 POP JUMP JUMPDEST PUSH1 0x0 PUSH8 0xFFFFFFFFFFFFFFFF DUP3 GT ISZERO PUSH2 0x1977 JUMPI PUSH2 0x1977 PUSH2 0x18DF JUMP JUMPDEST POP PUSH1 0x5 SHL PUSH1 0x20 ADD SWAP1 JUMP JUMPDEST PUSH1 0x0 PUSH1 0x1F DUP4 DUP2 DUP5 ADD SLT PUSH2 0x1993 JUMPI PUSH1 0x0 DUP1 REVERT JUMPDEST DUP3 CALLDATALOAD PUSH1 0x20 PUSH2 0x19A8 PUSH2 0x19A3 DUP4 PUSH2 0x195D JUMP JUMPDEST PUSH2 0x190E JUMP JUMPDEST DUP3 DUP2 MSTORE PUSH1 0x5 SWAP3 SWAP1 SWAP3 SHL DUP6 ADD DUP2 ADD SWAP2 DUP2 DUP2 ADD SWAP1 DUP8 DUP5 GT ISZERO PUSH2 0x19C7 JUMPI PUSH1 0x0 DUP1 REVERT JUMPDEST DUP3 DUP8 ADD JUMPDEST DUP5 DUP2 LT ISZERO PUSH2 0x1A7C JUMPI DUP1 CALLDATALOAD PUSH8 0xFFFFFFFFFFFFFFFF DUP1 DUP3 GT ISZERO PUSH2 0x19EC JUMPI PUSH1 0x0 DUP1 DUP2 REVERT JUMPDEST DUP2 DUP11 ADD SWAP2 POP DUP11 PUSH1 0x3F DUP4 ADD SLT PUSH2 0x1A01 JUMPI PUSH1 0x0 DUP1 DUP2 REVERT JUMPDEST DUP6 DUP3 ADD CALLDATALOAD PUSH1 0x40 DUP3 DUP3 GT ISZERO PUSH2 0x1A17 JUMPI PUSH2 0x1A17 PUSH2 0x18DF JUMP JUMPDEST PUSH2 0x1A46 DUP9 PUSH32 0xFFFFFFFFFFFFFFFFFFFFFFFFFFFFFFFFFFFFFFFFFFFFFFFFFFFFFFFFFFFFFFE0 DUP13 DUP6 ADD AND ADD PUSH2 0x190E JUMP JUMPDEST SWAP3 POP DUP2 DUP4 MSTORE DUP13 DUP2 DUP4 DUP7 ADD ADD GT ISZERO PUSH2 0x1A5D JUMPI PUSH1 0x0 DUP1 DUP2 REVERT JUMPDEST DUP2 DUP2 DUP6 ADD DUP10 DUP6 ADD CALLDATACOPY POP PUSH1 0x0 SWAP1 DUP3 ADD DUP8 ADD MSTORE DUP5 MSTORE POP SWAP2 DUP4 ADD SWAP2 DUP4 ADD PUSH2 0x19CB JUMP JUMPDEST POP SWAP8 SWAP7 POP POP POP POP POP POP POP JUMP JUMPDEST PUSH1 0x0 DUP1 PUSH1 0x0 PUSH1 0x60 DUP5 DUP7 SUB SLT ISZERO PUSH2 0x1A9D JUMPI PUSH1 0x0 DUP1 REVERT JUMPDEST DUP4 CALLDATALOAD PUSH8 0xFFFFFFFFFFFFFFFF DUP1 DUP3 GT ISZERO PUSH2 0x1AB5 JUMPI PUSH1 0x0 DUP1 REVERT JUMPDEST DUP2 DUP7 ADD SWAP2 POP DUP7 PUSH1 0x1F DUP4 ADD SLT PUSH2 0x1AC9 JUMPI PUSH1 0x0 DUP1 REVERT JUMPDEST DUP2 CALLDATALOAD PUSH1 0x20 PUSH2 0x1AD9 PUSH2 0x19A3 DUP4 PUSH2 0x195D JUMP JUMPDEST DUP3 DUP2 MSTORE PUSH1 0x5 SWAP3 SWAP1 SWAP3 SHL DUP5 ADD DUP2 ADD SWAP2 DUP2 DUP2 ADD SWAP1 DUP11 DUP5 GT ISZERO PUSH2 0x1AF8 JUMPI PUSH1 0x0 DUP1 REVERT JUMPDEST SWAP5 DUP3 ADD SWAP5 JUMPDEST DUP4 DUP7 LT ISZERO PUSH2 0x1B1F JUMPI DUP6 CALLDATALOAD PUSH2 0x1B10 DUP2 PUSH2 0x17A2 JUMP JUMPDEST DUP3 MSTORE SWAP5 DUP3 ADD SWAP5 SWAP1 DUP3 ADD SWAP1 PUSH2 0x1AFD JUMP JUMPDEST SWAP8 POP POP DUP8 ADD CALLDATALOAD SWAP3 POP POP DUP1 DUP3 GT ISZERO PUSH2 0x1B35 JUMPI PUSH1 0x0 DUP1 REVERT JUMPDEST POP PUSH2 0x1B42 DUP7 DUP3 DUP8 ADD PUSH2 0x1981 JUMP JUMPDEST SWAP3 POP POP PUSH2 0x1B51 PUSH1 0x40 DUP6 ADD PUSH2 0x17E2 JUMP JUMPDEST SWAP1 POP SWAP3 POP SWAP3 POP SWAP3 JUMP JUMPDEST PUSH32 0x4E487B7100000000000000000000000000000000000000000000000000000000 PUSH1 0x0 MSTORE PUSH1 0x11 PUSH1 0x4 MSTORE PUSH1 0x24 PUSH1 0x0 REVERT JUMPDEST DUP2 DUP2 SUB DUP2 DUP2 GT ISZERO PUSH2 0xBBD JUMPI PUSH2 0xBBD PUSH2 0x1B5A JUMP JUMPDEST DUP1 DUP3 ADD DUP1 DUP3 GT ISZERO PUSH2 0xBBD JUMPI PUSH2 0xBBD PUSH2 0x1B5A JUMP JUMPDEST PUSH1 0x0 JUMPDEST DUP4 DUP2 LT ISZERO PUSH2 0x1BCA JUMPI DUP2 DUP2 ADD MLOAD DUP4 DUP3 ADD MSTORE PUSH1 0x20 ADD PUSH2 0x1BB2 JUMP JUMPDEST POP POP PUSH1 0x0 SWAP2 ADD MSTORE JUMP JUMPDEST PUSH1 0x0 DUP2 MLOAD DUP1 DUP5 MSTORE PUSH2 0x1BEB DUP2 PUSH1 0x20 DUP7 ADD PUSH1 0x20 DUP7 ADD PUSH2 0x1BAF JUMP JUMPDEST PUSH1 0x1F ADD PUSH32 0xFFFFFFFFFFFFFFFFFFFFFFFFFFFFFFFFFFFFFFFFFFFFFFFFFFFFFFFFFFFFFFE0 AND SWAP3 SWAP1 SWAP3 ADD PUSH1 0x20 ADD SWAP3 SWAP2 POP POP JUMP JUMPDEST PUSH1 0x0 PUSH1 0x20 DUP1 DUP4 ADD DUP2 DUP5 MSTORE DUP1 DUP6 MLOAD DUP1 DUP4 MSTORE PUSH1 0x40 SWAP3 POP DUP3 DUP7 ADD SWAP2 POP DUP3 DUP2 PUSH1 0x5 SHL DUP8 ADD ADD DUP5 DUP9 ADD PUSH1 0x0 JUMPDEST DUP4 DUP2 LT ISZERO PUSH2 0x1CA3 JUMPI DUP9 DUP4 SUB PUSH32 0xFFFFFFFFFFFFFFFFFFFFFFFFFFFFFFFFFFFFFFFFFFFFFFFFFFFFFFFFFFFFFFC0 ADD DUP6 MSTORE DUP2 MLOAD DUP1 MLOAD ISZERO ISZERO DUP5 MSTORE DUP8 ADD MLOAD DUP8 DUP5 ADD DUP8 SWAP1 MSTORE PUSH2 0x1C90 DUP8 DUP6 ADD DUP3 PUSH2 0x1BD3 JUMP JUMPDEST SWAP6 DUP9 ADD SWAP6 SWAP4 POP POP SWAP1 DUP7 ADD SWAP1 PUSH1 0x1 ADD PUSH2 0x1C44 JUMP JUMPDEST POP SWAP1 SWAP9 SWAP8 POP POP POP POP POP POP POP POP JUMP JUMPDEST PUSH32 0x4E487B7100000000000000000000000000000000000000000000000000000000 PUSH1 0x0 MSTORE PUSH1 0x32 PUSH1 0x4 MSTORE PUSH1 0x24 PUSH1 0x0 REVERT JUMPDEST PUSH1 0x0 PUSH1 0x20 DUP3 DUP5 SUB SLT ISZERO PUSH2 0x1CF2 JUMPI PUSH1 0x0 DUP1 REVERT JUMPDEST DUP2 MLOAD PUSH2 0x726 DUP2 PUSH2 0x17A2 JUMP JUMPDEST PUSH1 0x0 PUSH1 0x20 DUP3 DUP5 SUB SLT ISZERO PUSH2 0x1D0F JUMPI PUSH1 0x0 DUP1 REVERT JUMPDEST DUP2 MLOAD PUSH2 0x726 DUP2 PUSH2 0x17D4 JUMP JUMPDEST PUSH1 0x0 DUP3 MLOAD PUSH2 0x1D2C DUP2 DUP5 PUSH1 0x20 DUP8 ADD PUSH2 0x1BAF JUMP JUMPDEST SWAP2 SWAP1 SWAP2 ADD SWAP3 SWAP2 POP POP JUMP JUMPDEST PUSH1 0xA0 DUP2 MSTORE PUSH1 0x0 PUSH2 0x1D49 PUSH1 0xA0 DUP4 ADD DUP9 PUSH2 0x1BD3 JUMP JUMPDEST DUP7 ISZERO ISZERO PUSH1 0x20 DUP5 ADD MSTORE DUP3 DUP2 SUB PUSH1 0x40 DUP5 ADD MSTORE PUSH2 0x1D63 DUP2 DUP8 PUSH2 0x1BD3 JUMP JUMPDEST PUSH1 0x60 DUP5 ADD SWAP6 SWAP1 SWAP6 MSTORE POP POP PUSH1 0x80 ADD MSTORE SWAP4 SWAP3 POP POP POP JUMP JUMPDEST PUSH1 0x0 PUSH32 0xFFFFFFFFFFFFFFFFFFFFFFFFFFFFFFFFFFFFFFFFFFFFFFFFFFFFFFFFFFFFFFFF DUP3 SUB PUSH2 0x1DA9 JUMPI PUSH2 0x1DA9 PUSH2 0x1B5A JUMP JUMPDEST POP PUSH1 0x1 ADD SWAP1 JUMP JUMPDEST DUP1 DUP3 MUL DUP2 ISZERO DUP3 DUP3 DIV DUP5 EQ OR PUSH2 0xBBD JUMPI PUSH2 0xBBD PUSH2 0x1B5A JUMP JUMPDEST PUSH1 0x20 DUP2 MSTORE PUSH1 0x0 PUSH2 0x726 PUSH1 0x20 DUP4 ADD DUP5 PUSH2 0x1BD3 JUMP INVALID LOG2 PUSH5 0x6970667358 0x22 SLT KECCAK256 0xA7 PUSH13 0x15AFC191DADC794A48076D07C3 DUP7 0xF8 0xB2 0x1F 0x49 0xB3 SWAP10 CALLDATASIZE RETURNDATACOPY 0xBC PUSH30 0x7F6BE040F0B564736F6C6343000811003300000000000000000000000000 "},"methodIdentifiers":{"BASE_GAS()":"389aa342","defaultCollector()":"f46ca4e4","deposit(address,uint256)":"47e7ef24","execute(address[],bytes[],bool)":"d05c2c94","getApplicableCollector(address)":"586171a0","getSmartVaultBalance(address)":"d581ae93","getSmartVaultCollector(address)":"16f91b8f","getSmartVaultMaxQuota(address)":"151ac3a8","getSmartVaultUsedQuota(address)":"d6291234","isExecutorAllowed(address)":"7d701102","owner()":"8da5cb5b","renounceOwnership()":"715018a6","rescueFunds(address,address,uint256)":"6ccae054","setDefaultCollector(address)":"b3120853","setExecutor(address,bool)":"1e1bff3f","setSmartVaultCollector(address,address)":"3738ea52","setSmartVaultMaxQuota(address,uint256)":"dc9fc0d2","simulate(address[],bytes[],bool)":"e9764799","transferOwnership(address)":"f2fde38b","withdraw(uint256)":"2e1a7d4d"}}}}}