{"contracts/FeeController.sol":{"FeeController":{"abi":[{"inputs":[{"internalType":"address","name":"collector","type":"address"},{"internalType":"address","name":"owner","type":"address"}],"stateMutability":"nonpayable","type":"constructor"},{"inputs":[],"name":"FeeControllerCollectorZero","type":"error"},{"inputs":[],"name":"FeeControllerMaxPctAboveOne","type":"error"},{"inputs":[{"internalType":"address","name":"smartVault","type":"address"},{"internalType":"uint256","name":"requestedMaxPct","type":"uint256"},{"internalType":"uint256","name":"previousMaxPct","type":"uint256"}],"name":"FeeControllerMaxPctAbovePrevious","type":"error"},{"inputs":[{"internalType":"address","name":"smartVault","type":"address"}],"name":"FeeControllerMaxPctNotSet","type":"error"},{"inputs":[],"name":"FeeControllerMaxPctZero","type":"error"},{"inputs":[{"internalType":"address","name":"smartVault","type":"address"},{"internalType":"uint256","name":"pct","type":"uint256"},{"internalType":"uint256","name":"maxPct","type":"uint256"}],"name":"FeeControllerPctAboveMax","type":"error"},{"anonymous":false,"inputs":[{"indexed":true,"internalType":"address","name":"collector","type":"address"}],"name":"DefaultFeeCollectorSet","type":"event"},{"anonymous":false,"inputs":[{"indexed":true,"internalType":"address","name":"smartVault","type":"address"},{"indexed":true,"internalType":"address","name":"collector","type":"address"}],"name":"FeeCollectorSet","type":"event"},{"anonymous":false,"inputs":[{"indexed":true,"internalType":"address","name":"smartVault","type":"address"},{"indexed":false,"internalType":"uint256","name":"pct","type":"uint256"}],"name":"FeePercentageSet","type":"event"},{"anonymous":false,"inputs":[{"indexed":true,"internalType":"address","name":"smartVault","type":"address"},{"indexed":false,"internalType":"uint256","name":"maxPct","type":"uint256"}],"name":"MaxFeePercentageSet","type":"event"},{"anonymous":false,"inputs":[{"indexed":true,"internalType":"address","name":"previousOwner","type":"address"},{"indexed":true,"internalType":"address","name":"newOwner","type":"address"}],"name":"OwnershipTransferred","type":"event"},{"inputs":[],"name":"defaultFeeCollector","outputs":[{"internalType":"address","name":"","type":"address"}],"stateMutability":"view","type":"function"},{"inputs":[{"internalType":"address","name":"smartVault","type":"address"}],"name":"getFee","outputs":[{"internalType":"uint256","name":"max","type":"uint256"},{"internalType":"uint256","name":"pct","type":"uint256"},{"internalType":"address","name":"collector","type":"address"}],"stateMutability":"view","type":"function"},{"inputs":[{"internalType":"address","name":"smartVault","type":"address"}],"name":"hasFee","outputs":[{"internalType":"bool","name":"","type":"bool"}],"stateMutability":"view","type":"function"},{"inputs":[],"name":"owner","outputs":[{"internalType":"address","name":"","type":"address"}],"stateMutability":"view","type":"function"},{"inputs":[],"name":"renounceOwnership","outputs":[],"stateMutability":"nonpayable","type":"function"},{"inputs":[{"internalType":"address","name":"collector","type":"address"}],"name":"setDefaultFeeCollector","outputs":[],"stateMutability":"nonpayable","type":"function"},{"inputs":[{"internalType":"address","name":"smartVault","type":"address"},{"internalType":"address","name":"collector","type":"address"}],"name":"setFeeCollector","outputs":[],"stateMutability":"nonpayable","type":"function"},{"inputs":[{"internalType":"address","name":"smartVault","type":"address"},{"internalType":"uint256","name":"pct","type":"uint256"}],"name":"setFeePercentage","outputs":[],"stateMutability":"nonpayable","type":"function"},{"inputs":[{"internalType":"address","name":"smartVault","type":"address"},{"internalType":"uint256","name":"maxPct","type":"uint256"}],"name":"setMaxFeePercentage","outputs":[],"stateMutability":"nonpayable","type":"function"},{"inputs":[{"internalType":"address","name":"newOwner","type":"address"}],"name":"transferOwnership","outputs":[],"stateMutability":"nonpayable","type":"function"}],"evm":{"bytecode":{"linkReferences":{},"object":"608060405234801561001057600080fd5b50604051610c1e380380610c1e83398101604081905261002f9161012e565b61003833610051565b61004181610051565b61004a826100a1565b5050610161565b600080546001600160a01b038381166001600160a01b0319831681178455604051919092169283917f8be0079c531659141344cd1fd0a4f28419497f9722a3daafe3b4186f6b6457e09190a35050565b6001600160a01b0381166100c85760405163797e2b3160e11b815260040160405180910390fd5b600180546001600160a01b0319166001600160a01b0383169081179091556040517ff50168d604b49c86e8d064593a3e10cc6144163ca0b009a56510cd4654be2a8290600090a250565b80516001600160a01b038116811461012957600080fd5b919050565b6000806040838503121561014157600080fd5b61014a83610112565b915061015860208401610112565b90509250929050565b610aae806101706000396000f3fe608060405234801561001057600080fd5b50600436106100be5760003560e01c8063b88c914811610076578063ccceb7cd1161005b578063ccceb7cd146101ea578063f2fde38b146101fd578063f5e3ff2e1461021057600080fd5b8063b88c914814610193578063cbe0130e146101d757600080fd5b80637497e296116100a75780637497e296146100e057806375926137146101305780638da5cb5b1461017557600080fd5b806329149799146100c3578063715018a6146100d8575b600080fd5b6100d66100d13660046109f9565b610223565b005b6100d6610371565b61011b6100ee366004610a2c565b73ffffffffffffffffffffffffffffffffffffffff16600090815260026020526040902060010154151590565b60405190151581526020015b60405180910390f35b6001546101509073ffffffffffffffffffffffffffffffffffffffff1681565b60405173ffffffffffffffffffffffffffffffffffffffff9091168152602001610127565b60005473ffffffffffffffffffffffffffffffffffffffff16610150565b6101a66101a1366004610a2c565b610385565b60408051938452602084019290925273ffffffffffffffffffffffffffffffffffffffff1690820152606001610127565b6100d66101e5366004610a4e565b610472565b6100d66101f8366004610a2c565b610488565b6100d661020b366004610a2c565b61049c565b6100d661021e366004610a4e565b610550565b61022b6106e6565b73ffffffffffffffffffffffffffffffffffffffff8116610278576040517ff2fc566200000000000000000000000000000000000000000000000000000000815260040160405180910390fd5b73ffffffffffffffffffffffffffffffffffffffff8216600090815260026020526040812060018101549091036102f8576040517f1951a0de00000000000000000000000000000000000000000000000000000000815273ffffffffffffffffffffffffffffffffffffffff841660048201526024015b60405180910390fd5b6002810180547fffffffffffffffffffffffff00000000000000000000000000000000000000001673ffffffffffffffffffffffffffffffffffffffff84811691821790925560405190918516907f089588e3f10370c99a6f74177eacb5361ba90e1b70a123bfeccb6619c21cd72190600090a3505050565b6103796106e6565b6103836000610767565b565b73ffffffffffffffffffffffffffffffffffffffff811660009081526002602052604081206001810154829182918203610403576040517f1951a0de00000000000000000000000000000000000000000000000000000000815273ffffffffffffffffffffffffffffffffffffffff861660048201526024016102ef565b80546001820154600283015490955090935073ffffffffffffffffffffffffffffffffffffffff1661044d5760015473ffffffffffffffffffffffffffffffffffffffff16610469565b600281015473ffffffffffffffffffffffffffffffffffffffff165b93959294505050565b61047a6106e6565b61048482826107dc565b5050565b6104906106e6565b61049981610914565b50565b6104a46106e6565b73ffffffffffffffffffffffffffffffffffffffff8116610547576040517f08c379a000000000000000000000000000000000000000000000000000000000815260206004820152602660248201527f4f776e61626c653a206e6577206f776e657220697320746865207a65726f206160448201527f646472657373000000000000000000000000000000000000000000000000000060648201526084016102ef565b61049981610767565b6105586106e6565b80600003610592576040517fc1567a4800000000000000000000000000000000000000000000000000000000815260040160405180910390fd5b73ffffffffffffffffffffffffffffffffffffffff82166000908152600260205260408120600181015490910361060957670de0b6b3a76400008210610604576040517f18da869200000000000000000000000000000000000000000000000000000000815260040160405180910390fd5b610672565b806001015482106106725760018101546040517ff5ee78d300000000000000000000000000000000000000000000000000000000815273ffffffffffffffffffffffffffffffffffffffff851660048201526024810184905260448101919091526064016102ef565b6001810182905560405182815273ffffffffffffffffffffffffffffffffffffffff8416907f481d14805617b376d10b914540d5a35df311950d549f9bfd4381a643cca52eb99060200160405180910390a2805415806106d25750805482105b156106e1576106e183836107dc565b505050565b60005473ffffffffffffffffffffffffffffffffffffffff163314610383576040517f08c379a000000000000000000000000000000000000000000000000000000000815260206004820181905260248201527f4f776e61626c653a2063616c6c6572206973206e6f7420746865206f776e657260448201526064016102ef565b6000805473ffffffffffffffffffffffffffffffffffffffff8381167fffffffffffffffffffffffff0000000000000000000000000000000000000000831681178455604051919092169283917f8be0079c531659141344cd1fd0a4f28419497f9722a3daafe3b4186f6b6457e09190a35050565b73ffffffffffffffffffffffffffffffffffffffff821660009081526002602052604081206001810154909103610857576040517f1951a0de00000000000000000000000000000000000000000000000000000000815273ffffffffffffffffffffffffffffffffffffffff841660048201526024016102ef565b80600101548211156108c15760018101546040517ff77cc70100000000000000000000000000000000000000000000000000000000815273ffffffffffffffffffffffffffffffffffffffff851660048201526024810184905260448101919091526064016102ef565b81815560405182815273ffffffffffffffffffffffffffffffffffffffff8416907f59ac1250f26f38c2e2e4fee3c4131335122f06eda9f550b7fcf3f04171a69fec9060200160405180910390a2505050565b73ffffffffffffffffffffffffffffffffffffffff8116610961576040517ff2fc566200000000000000000000000000000000000000000000000000000000815260040160405180910390fd5b600180547fffffffffffffffffffffffff00000000000000000000000000000000000000001673ffffffffffffffffffffffffffffffffffffffff83169081179091556040517ff50168d604b49c86e8d064593a3e10cc6144163ca0b009a56510cd4654be2a8290600090a250565b803573ffffffffffffffffffffffffffffffffffffffff811681146109f457600080fd5b919050565b60008060408385031215610a0c57600080fd5b610a15836109d0565b9150610a23602084016109d0565b90509250929050565b600060208284031215610a3e57600080fd5b610a47826109d0565b9392505050565b60008060408385031215610a6157600080fd5b610a6a836109d0565b94602093909301359350505056fea2646970667358221220b56bc6e5d300a048c84dc4d239e36479815463a50d08bc4b44fffb16ef3d534964736f6c63430008110033","opcodes":"PUSH1 0x80 PUSH1 0x40 MSTORE CALLVALUE DUP1 ISZERO PUSH2 0x10 JUMPI PUSH1 0x0 DUP1 REVERT JUMPDEST POP PUSH1 0x40 MLOAD PUSH2 0xC1E CODESIZE SUB DUP1 PUSH2 0xC1E DUP4 CODECOPY DUP2 ADD PUSH1 0x40 DUP2 SWAP1 MSTORE PUSH2 0x2F SWAP2 PUSH2 0x12E JUMP JUMPDEST PUSH2 0x38 CALLER PUSH2 0x51 JUMP JUMPDEST PUSH2 0x41 DUP2 PUSH2 0x51 JUMP JUMPDEST PUSH2 0x4A DUP3 PUSH2 0xA1 JUMP JUMPDEST POP POP PUSH2 0x161 JUMP JUMPDEST PUSH1 0x0 DUP1 SLOAD PUSH1 0x1 PUSH1 0x1 PUSH1 0xA0 SHL SUB DUP4 DUP2 AND PUSH1 0x1 PUSH1 0x1 PUSH1 0xA0 SHL SUB NOT DUP4 AND DUP2 OR DUP5 SSTORE PUSH1 0x40 MLOAD SWAP2 SWAP1 SWAP3 AND SWAP3 DUP4 SWAP2 PUSH32 0x8BE0079C531659141344CD1FD0A4F28419497F9722A3DAAFE3B4186F6B6457E0 SWAP2 SWAP1 LOG3 POP POP JUMP JUMPDEST PUSH1 0x1 PUSH1 0x1 PUSH1 0xA0 SHL SUB DUP2 AND PUSH2 0xC8 JUMPI PUSH1 0x40 MLOAD PUSH4 0x797E2B31 PUSH1 0xE1 SHL DUP2 MSTORE PUSH1 0x4 ADD PUSH1 0x40 MLOAD DUP1 SWAP2 SUB SWAP1 REVERT JUMPDEST PUSH1 0x1 DUP1 SLOAD PUSH1 0x1 PUSH1 0x1 PUSH1 0xA0 SHL SUB NOT AND PUSH1 0x1 PUSH1 0x1 PUSH1 0xA0 SHL SUB DUP4 AND SWAP1 DUP2 OR SWAP1 SWAP2 SSTORE PUSH1 0x40 MLOAD PUSH32 0xF50168D604B49C86E8D064593A3E10CC6144163CA0B009A56510CD4654BE2A82 SWAP1 PUSH1 0x0 SWAP1 LOG2 POP JUMP JUMPDEST DUP1 MLOAD PUSH1 0x1 PUSH1 0x1 PUSH1 0xA0 SHL SUB DUP2 AND DUP2 EQ PUSH2 0x129 JUMPI PUSH1 0x0 DUP1 REVERT JUMPDEST SWAP2 SWAP1 POP JUMP JUMPDEST PUSH1 0x0 DUP1 PUSH1 0x40 DUP4 DUP6 SUB SLT ISZERO PUSH2 0x141 JUMPI PUSH1 0x0 DUP1 REVERT JUMPDEST PUSH2 0x14A DUP4 PUSH2 0x112 JUMP JUMPDEST SWAP2 POP PUSH2 0x158 PUSH1 0x20 DUP5 ADD PUSH2 0x112 JUMP JUMPDEST SWAP1 POP SWAP3 POP SWAP3 SWAP1 POP JUMP JUMPDEST PUSH2 0xAAE DUP1 PUSH2 0x170 PUSH1 0x0 CODECOPY PUSH1 0x0 RETURN INVALID PUSH1 0x80 PUSH1 0x40 MSTORE CALLVALUE DUP1 ISZERO PUSH2 0x10 JUMPI PUSH1 0x0 DUP1 REVERT JUMPDEST POP PUSH1 0x4 CALLDATASIZE LT PUSH2 0xBE JUMPI PUSH1 0x0 CALLDATALOAD PUSH1 0xE0 SHR DUP1 PUSH4 0xB88C9148 GT PUSH2 0x76 JUMPI DUP1 PUSH4 0xCCCEB7CD GT PUSH2 0x5B JUMPI DUP1 PUSH4 0xCCCEB7CD EQ PUSH2 0x1EA JUMPI DUP1 PUSH4 0xF2FDE38B EQ PUSH2 0x1FD JUMPI DUP1 PUSH4 0xF5E3FF2E EQ PUSH2 0x210 JUMPI PUSH1 0x0 DUP1 REVERT JUMPDEST DUP1 PUSH4 0xB88C9148 EQ PUSH2 0x193 JUMPI DUP1 PUSH4 0xCBE0130E EQ PUSH2 0x1D7 JUMPI PUSH1 0x0 DUP1 REVERT JUMPDEST DUP1 PUSH4 0x7497E296 GT PUSH2 0xA7 JUMPI DUP1 PUSH4 0x7497E296 EQ PUSH2 0xE0 JUMPI DUP1 PUSH4 0x75926137 EQ PUSH2 0x130 JUMPI DUP1 PUSH4 0x8DA5CB5B EQ PUSH2 0x175 JUMPI PUSH1 0x0 DUP1 REVERT JUMPDEST DUP1 PUSH4 0x29149799 EQ PUSH2 0xC3 JUMPI DUP1 PUSH4 0x715018A6 EQ PUSH2 0xD8 JUMPI JUMPDEST PUSH1 0x0 DUP1 REVERT JUMPDEST PUSH2 0xD6 PUSH2 0xD1 CALLDATASIZE PUSH1 0x4 PUSH2 0x9F9 JUMP JUMPDEST PUSH2 0x223 JUMP JUMPDEST STOP JUMPDEST PUSH2 0xD6 PUSH2 0x371 JUMP JUMPDEST PUSH2 0x11B PUSH2 0xEE CALLDATASIZE PUSH1 0x4 PUSH2 0xA2C JUMP JUMPDEST PUSH20 0xFFFFFFFFFFFFFFFFFFFFFFFFFFFFFFFFFFFFFFFF AND PUSH1 0x0 SWAP1 DUP2 MSTORE PUSH1 0x2 PUSH1 0x20 MSTORE PUSH1 0x40 SWAP1 KECCAK256 PUSH1 0x1 ADD SLOAD ISZERO ISZERO SWAP1 JUMP JUMPDEST PUSH1 0x40 MLOAD SWAP1 ISZERO ISZERO DUP2 MSTORE PUSH1 0x20 ADD JUMPDEST PUSH1 0x40 MLOAD DUP1 SWAP2 SUB SWAP1 RETURN JUMPDEST PUSH1 0x1 SLOAD PUSH2 0x150 SWAP1 PUSH20 0xFFFFFFFFFFFFFFFFFFFFFFFFFFFFFFFFFFFFFFFF AND DUP2 JUMP JUMPDEST PUSH1 0x40 MLOAD PUSH20 0xFFFFFFFFFFFFFFFFFFFFFFFFFFFFFFFFFFFFFFFF SWAP1 SWAP2 AND DUP2 MSTORE PUSH1 0x20 ADD PUSH2 0x127 JUMP JUMPDEST PUSH1 0x0 SLOAD PUSH20 0xFFFFFFFFFFFFFFFFFFFFFFFFFFFFFFFFFFFFFFFF AND PUSH2 0x150 JUMP JUMPDEST PUSH2 0x1A6 PUSH2 0x1A1 CALLDATASIZE PUSH1 0x4 PUSH2 0xA2C JUMP JUMPDEST PUSH2 0x385 JUMP JUMPDEST PUSH1 0x40 DUP1 MLOAD SWAP4 DUP5 MSTORE PUSH1 0x20 DUP5 ADD SWAP3 SWAP1 SWAP3 MSTORE PUSH20 0xFFFFFFFFFFFFFFFFFFFFFFFFFFFFFFFFFFFFFFFF AND SWAP1 DUP3 ADD MSTORE PUSH1 0x60 ADD PUSH2 0x127 JUMP JUMPDEST PUSH2 0xD6 PUSH2 0x1E5 CALLDATASIZE PUSH1 0x4 PUSH2 0xA4E JUMP JUMPDEST PUSH2 0x472 JUMP JUMPDEST PUSH2 0xD6 PUSH2 0x1F8 CALLDATASIZE PUSH1 0x4 PUSH2 0xA2C JUMP JUMPDEST PUSH2 0x488 JUMP JUMPDEST PUSH2 0xD6 PUSH2 0x20B CALLDATASIZE PUSH1 0x4 PUSH2 0xA2C JUMP JUMPDEST PUSH2 0x49C JUMP JUMPDEST PUSH2 0xD6 PUSH2 0x21E CALLDATASIZE PUSH1 0x4 PUSH2 0xA4E JUMP JUMPDEST PUSH2 0x550 JUMP JUMPDEST PUSH2 0x22B PUSH2 0x6E6 JUMP JUMPDEST PUSH20 0xFFFFFFFFFFFFFFFFFFFFFFFFFFFFFFFFFFFFFFFF DUP2 AND PUSH2 0x278 JUMPI PUSH1 0x40 MLOAD PUSH32 0xF2FC566200000000000000000000000000000000000000000000000000000000 DUP2 MSTORE PUSH1 0x4 ADD PUSH1 0x40 MLOAD DUP1 SWAP2 SUB SWAP1 REVERT JUMPDEST PUSH20 0xFFFFFFFFFFFFFFFFFFFFFFFFFFFFFFFFFFFFFFFF DUP3 AND PUSH1 0x0 SWAP1 DUP2 MSTORE PUSH1 0x2 PUSH1 0x20 MSTORE PUSH1 0x40 DUP2 KECCAK256 PUSH1 0x1 DUP2 ADD SLOAD SWAP1 SWAP2 SUB PUSH2 0x2F8 JUMPI PUSH1 0x40 MLOAD PUSH32 0x1951A0DE00000000000000000000000000000000000000000000000000000000 DUP2 MSTORE PUSH20 0xFFFFFFFFFFFFFFFFFFFFFFFFFFFFFFFFFFFFFFFF DUP5 AND PUSH1 0x4 DUP3 ADD MSTORE PUSH1 0x24 ADD JUMPDEST PUSH1 0x40 MLOAD DUP1 SWAP2 SUB SWAP1 REVERT JUMPDEST PUSH1 0x2 DUP2 ADD DUP1 SLOAD PUSH32 0xFFFFFFFFFFFFFFFFFFFFFFFF0000000000000000000000000000000000000000 AND PUSH20 0xFFFFFFFFFFFFFFFFFFFFFFFFFFFFFFFFFFFFFFFF DUP5 DUP2 AND SWAP2 DUP3 OR SWAP1 SWAP3 SSTORE PUSH1 0x40 MLOAD SWAP1 SWAP2 DUP6 AND SWAP1 PUSH32 0x89588E3F10370C99A6F74177EACB5361BA90E1B70A123BFECCB6619C21CD721 SWAP1 PUSH1 0x0 SWAP1 LOG3 POP POP POP JUMP JUMPDEST PUSH2 0x379 PUSH2 0x6E6 JUMP JUMPDEST PUSH2 0x383 PUSH1 0x0 PUSH2 0x767 JUMP JUMPDEST JUMP JUMPDEST PUSH20 0xFFFFFFFFFFFFFFFFFFFFFFFFFFFFFFFFFFFFFFFF DUP2 AND PUSH1 0x0 SWAP1 DUP2 MSTORE PUSH1 0x2 PUSH1 0x20 MSTORE PUSH1 0x40 DUP2 KECCAK256 PUSH1 0x1 DUP2 ADD SLOAD DUP3 SWAP2 DUP3 SWAP2 DUP3 SUB PUSH2 0x403 JUMPI PUSH1 0x40 MLOAD PUSH32 0x1951A0DE00000000000000000000000000000000000000000000000000000000 DUP2 MSTORE PUSH20 0xFFFFFFFFFFFFFFFFFFFFFFFFFFFFFFFFFFFFFFFF DUP7 AND PUSH1 0x4 DUP3 ADD MSTORE PUSH1 0x24 ADD PUSH2 0x2EF JUMP JUMPDEST DUP1 SLOAD PUSH1 0x1 DUP3 ADD SLOAD PUSH1 0x2 DUP4 ADD SLOAD SWAP1 SWAP6 POP SWAP1 SWAP4 POP PUSH20 0xFFFFFFFFFFFFFFFFFFFFFFFFFFFFFFFFFFFFFFFF AND PUSH2 0x44D JUMPI PUSH1 0x1 SLOAD PUSH20 0xFFFFFFFFFFFFFFFFFFFFFFFFFFFFFFFFFFFFFFFF AND PUSH2 0x469 JUMP JUMPDEST PUSH1 0x2 DUP2 ADD SLOAD PUSH20 0xFFFFFFFFFFFFFFFFFFFFFFFFFFFFFFFFFFFFFFFF AND JUMPDEST SWAP4 SWAP6 SWAP3 SWAP5 POP POP POP JUMP JUMPDEST PUSH2 0x47A PUSH2 0x6E6 JUMP JUMPDEST PUSH2 0x484 DUP3 DUP3 PUSH2 0x7DC JUMP JUMPDEST POP POP JUMP JUMPDEST PUSH2 0x490 PUSH2 0x6E6 JUMP JUMPDEST PUSH2 0x499 DUP2 PUSH2 0x914 JUMP JUMPDEST POP JUMP JUMPDEST PUSH2 0x4A4 PUSH2 0x6E6 JUMP JUMPDEST PUSH20 0xFFFFFFFFFFFFFFFFFFFFFFFFFFFFFFFFFFFFFFFF DUP2 AND PUSH2 0x547 JUMPI PUSH1 0x40 MLOAD PUSH32 0x8C379A000000000000000000000000000000000000000000000000000000000 DUP2 MSTORE PUSH1 0x20 PUSH1 0x4 DUP3 ADD MSTORE PUSH1 0x26 PUSH1 0x24 DUP3 ADD MSTORE PUSH32 0x4F776E61626C653A206E6577206F776E657220697320746865207A65726F2061 PUSH1 0x44 DUP3 ADD MSTORE PUSH32 0x6464726573730000000000000000000000000000000000000000000000000000 PUSH1 0x64 DUP3 ADD MSTORE PUSH1 0x84 ADD PUSH2 0x2EF JUMP JUMPDEST PUSH2 0x499 DUP2 PUSH2 0x767 JUMP JUMPDEST PUSH2 0x558 PUSH2 0x6E6 JUMP JUMPDEST DUP1 PUSH1 0x0 SUB PUSH2 0x592 JUMPI PUSH1 0x40 MLOAD PUSH32 0xC1567A4800000000000000000000000000000000000000000000000000000000 DUP2 MSTORE PUSH1 0x4 ADD PUSH1 0x40 MLOAD DUP1 SWAP2 SUB SWAP1 REVERT JUMPDEST PUSH20 0xFFFFFFFFFFFFFFFFFFFFFFFFFFFFFFFFFFFFFFFF DUP3 AND PUSH1 0x0 SWAP1 DUP2 MSTORE PUSH1 0x2 PUSH1 0x20 MSTORE PUSH1 0x40 DUP2 KECCAK256 PUSH1 0x1 DUP2 ADD SLOAD SWAP1 SWAP2 SUB PUSH2 0x609 JUMPI PUSH8 0xDE0B6B3A7640000 DUP3 LT PUSH2 0x604 JUMPI PUSH1 0x40 MLOAD PUSH32 0x18DA869200000000000000000000000000000000000000000000000000000000 DUP2 MSTORE PUSH1 0x4 ADD PUSH1 0x40 MLOAD DUP1 SWAP2 SUB SWAP1 REVERT JUMPDEST PUSH2 0x672 JUMP JUMPDEST DUP1 PUSH1 0x1 ADD SLOAD DUP3 LT PUSH2 0x672 JUMPI PUSH1 0x1 DUP2 ADD SLOAD PUSH1 0x40 MLOAD PUSH32 0xF5EE78D300000000000000000000000000000000000000000000000000000000 DUP2 MSTORE PUSH20 0xFFFFFFFFFFFFFFFFFFFFFFFFFFFFFFFFFFFFFFFF DUP6 AND PUSH1 0x4 DUP3 ADD MSTORE PUSH1 0x24 DUP2 ADD DUP5 SWAP1 MSTORE PUSH1 0x44 DUP2 ADD SWAP2 SWAP1 SWAP2 MSTORE PUSH1 0x64 ADD PUSH2 0x2EF JUMP JUMPDEST PUSH1 0x1 DUP2 ADD DUP3 SWAP1 SSTORE PUSH1 0x40 MLOAD DUP3 DUP2 MSTORE PUSH20 0xFFFFFFFFFFFFFFFFFFFFFFFFFFFFFFFFFFFFFFFF DUP5 AND SWAP1 PUSH32 0x481D14805617B376D10B914540D5A35DF311950D549F9BFD4381A643CCA52EB9 SWAP1 PUSH1 0x20 ADD PUSH1 0x40 MLOAD DUP1 SWAP2 SUB SWAP1 LOG2 DUP1 SLOAD ISZERO DUP1 PUSH2 0x6D2 JUMPI POP DUP1 SLOAD DUP3 LT JUMPDEST ISZERO PUSH2 0x6E1 JUMPI PUSH2 0x6E1 DUP4 DUP4 PUSH2 0x7DC JUMP JUMPDEST POP POP POP JUMP JUMPDEST PUSH1 0x0 SLOAD PUSH20 0xFFFFFFFFFFFFFFFFFFFFFFFFFFFFFFFFFFFFFFFF AND CALLER EQ PUSH2 0x383 JUMPI PUSH1 0x40 MLOAD PUSH32 0x8C379A000000000000000000000000000000000000000000000000000000000 DUP2 MSTORE PUSH1 0x20 PUSH1 0x4 DUP3 ADD DUP2 SWAP1 MSTORE PUSH1 0x24 DUP3 ADD MSTORE PUSH32 0x4F776E61626C653A2063616C6C6572206973206E6F7420746865206F776E6572 PUSH1 0x44 DUP3 ADD MSTORE PUSH1 0x64 ADD PUSH2 0x2EF JUMP JUMPDEST PUSH1 0x0 DUP1 SLOAD PUSH20 0xFFFFFFFFFFFFFFFFFFFFFFFFFFFFFFFFFFFFFFFF DUP4 DUP2 AND PUSH32 0xFFFFFFFFFFFFFFFFFFFFFFFF0000000000000000000000000000000000000000 DUP4 AND DUP2 OR DUP5 SSTORE PUSH1 0x40 MLOAD SWAP2 SWAP1 SWAP3 AND SWAP3 DUP4 SWAP2 PUSH32 0x8BE0079C531659141344CD1FD0A4F28419497F9722A3DAAFE3B4186F6B6457E0 SWAP2 SWAP1 LOG3 POP POP JUMP JUMPDEST PUSH20 0xFFFFFFFFFFFFFFFFFFFFFFFFFFFFFFFFFFFFFFFF DUP3 AND PUSH1 0x0 SWAP1 DUP2 MSTORE PUSH1 0x2 PUSH1 0x20 MSTORE PUSH1 0x40 DUP2 KECCAK256 PUSH1 0x1 DUP2 ADD SLOAD SWAP1 SWAP2 SUB PUSH2 0x857 JUMPI PUSH1 0x40 MLOAD PUSH32 0x1951A0DE00000000000000000000000000000000000000000000000000000000 DUP2 MSTORE PUSH20 0xFFFFFFFFFFFFFFFFFFFFFFFFFFFFFFFFFFFFFFFF DUP5 AND PUSH1 0x4 DUP3 ADD MSTORE PUSH1 0x24 ADD PUSH2 0x2EF JUMP JUMPDEST DUP1 PUSH1 0x1 ADD SLOAD DUP3 GT ISZERO PUSH2 0x8C1 JUMPI PUSH1 0x1 DUP2 ADD SLOAD PUSH1 0x40 MLOAD PUSH32 0xF77CC70100000000000000000000000000000000000000000000000000000000 DUP2 MSTORE PUSH20 0xFFFFFFFFFFFFFFFFFFFFFFFFFFFFFFFFFFFFFFFF DUP6 AND PUSH1 0x4 DUP3 ADD MSTORE PUSH1 0x24 DUP2 ADD DUP5 SWAP1 MSTORE PUSH1 0x44 DUP2 ADD SWAP2 SWAP1 SWAP2 MSTORE PUSH1 0x64 ADD PUSH2 0x2EF JUMP JUMPDEST DUP2 DUP2 SSTORE PUSH1 0x40 MLOAD DUP3 DUP2 MSTORE PUSH20 0xFFFFFFFFFFFFFFFFFFFFFFFFFFFFFFFFFFFFFFFF DUP5 AND SWAP1 PUSH32 0x59AC1250F26F38C2E2E4FEE3C4131335122F06EDA9F550B7FCF3F04171A69FEC SWAP1 PUSH1 0x20 ADD PUSH1 0x40 MLOAD DUP1 SWAP2 SUB SWAP1 LOG2 POP POP POP JUMP JUMPDEST PUSH20 0xFFFFFFFFFFFFFFFFFFFFFFFFFFFFFFFFFFFFFFFF DUP2 AND PUSH2 0x961 JUMPI PUSH1 0x40 MLOAD PUSH32 0xF2FC566200000000000000000000000000000000000000000000000000000000 DUP2 MSTORE PUSH1 0x4 ADD PUSH1 0x40 MLOAD DUP1 SWAP2 SUB SWAP1 REVERT JUMPDEST PUSH1 0x1 DUP1 SLOAD PUSH32 0xFFFFFFFFFFFFFFFFFFFFFFFF0000000000000000000000000000000000000000 AND PUSH20 0xFFFFFFFFFFFFFFFFFFFFFFFFFFFFFFFFFFFFFFFF DUP4 AND SWAP1 DUP2 OR SWAP1 SWAP2 SSTORE PUSH1 0x40 MLOAD PUSH32 0xF50168D604B49C86E8D064593A3E10CC6144163CA0B009A56510CD4654BE2A82 SWAP1 PUSH1 0x0 SWAP1 LOG2 POP JUMP JUMPDEST DUP1 CALLDATALOAD PUSH20 0xFFFFFFFFFFFFFFFFFFFFFFFFFFFFFFFFFFFFFFFF DUP2 AND DUP2 EQ PUSH2 0x9F4 JUMPI PUSH1 0x0 DUP1 REVERT JUMPDEST SWAP2 SWAP1 POP JUMP JUMPDEST PUSH1 0x0 DUP1 PUSH1 0x40 DUP4 DUP6 SUB SLT ISZERO PUSH2 0xA0C JUMPI PUSH1 0x0 DUP1 REVERT JUMPDEST PUSH2 0xA15 DUP4 PUSH2 0x9D0 JUMP JUMPDEST SWAP2 POP PUSH2 0xA23 PUSH1 0x20 DUP5 ADD PUSH2 0x9D0 JUMP JUMPDEST SWAP1 POP SWAP3 POP SWAP3 SWAP1 POP JUMP JUMPDEST PUSH1 0x0 PUSH1 0x20 DUP3 DUP5 SUB SLT ISZERO PUSH2 0xA3E JUMPI PUSH1 0x0 DUP1 REVERT JUMPDEST PUSH2 0xA47 DUP3 PUSH2 0x9D0 JUMP JUMPDEST SWAP4 SWAP3 POP POP POP JUMP JUMPDEST PUSH1 0x0 DUP1 PUSH1 0x40 DUP4 DUP6 SUB SLT ISZERO PUSH2 0xA61 JUMPI PUSH1 0x0 DUP1 REVERT JUMPDEST PUSH2 0xA6A DUP4 PUSH2 0x9D0 JUMP JUMPDEST SWAP5 PUSH1 0x20 SWAP4 SWAP1 SWAP4 ADD CALLDATALOAD SWAP4 POP POP POP JUMP INVALID LOG2 PUSH5 0x6970667358 0x22 SLT KECCAK256 0xB5 PUSH12 0xC6E5D300A048C84DC4D239E3 PUSH5 0x79815463A5 0xD ADDMOD 0xBC 0x4B DIFFICULTY SELFDESTRUCT 0xFB AND 0xEF RETURNDATASIZE MSTORE8 0x49 PUSH5 0x736F6C6343 STOP ADDMOD GT STOP CALLER "},"methodIdentifiers":{"defaultFeeCollector()":"75926137","getFee(address)":"b88c9148","hasFee(address)":"7497e296","owner()":"8da5cb5b","renounceOwnership()":"715018a6","setDefaultFeeCollector(address)":"ccceb7cd","setFeeCollector(address,address)":"29149799","setFeePercentage(address,uint256)":"cbe0130e","setMaxFeePercentage(address,uint256)":"f5e3ff2e","transferOwnership(address)":"f2fde38b"}}}}}