{"contracts/PriceOracle.sol":{"PriceOracle":{"abi":[{"inputs":[{"internalType":"address","name":"who","type":"address"},{"internalType":"bytes4","name":"what","type":"bytes4"},{"internalType":"uint256[]","name":"how","type":"uint256[]"}],"name":"AuthSenderNotAllowed","type":"error"},{"inputs":[{"internalType":"uint256","name":"start","type":"uint256"},{"internalType":"uint256","name":"length","type":"uint256"}],"name":"BytesOutOfBounds","type":"error"},{"inputs":[{"internalType":"uint256","name":"a","type":"uint256"},{"internalType":"uint256","name":"aInflated","type":"uint256"}],"name":"FixedPointDivInternal","type":"error"},{"inputs":[],"name":"FixedPointZeroDivision","type":"error"},{"inputs":[{"internalType":"address","name":"base","type":"address"},{"internalType":"uint256","name":"baseDecimals","type":"uint256"},{"internalType":"address","name":"quote","type":"address"},{"internalType":"uint256","name":"quoteDecimals","type":"uint256"}],"name":"PriceOracleBaseDecimalsTooBig","type":"error"},{"inputs":[{"internalType":"address","name":"signer","type":"address"}],"name":"PriceOracleInvalidSigner","type":"error"},{"inputs":[{"internalType":"address","name":"inverseFeed","type":"address"},{"internalType":"uint256","name":"inverseFeedDecimals","type":"uint256"}],"name":"PriceOracleInverseFeedDecimalsTooBig","type":"error"},{"inputs":[{"internalType":"address","name":"base","type":"address"},{"internalType":"address","name":"quote","type":"address"}],"name":"PriceOracleMissingFeed","type":"error"},{"inputs":[{"internalType":"address","name":"base","type":"address"},{"internalType":"address","name":"quote","type":"address"},{"internalType":"uint256","name":"deadline","type":"uint256"},{"internalType":"uint256","name":"currentTimestamp","type":"uint256"}],"name":"PriceOracleOutdatedPrice","type":"error"},{"inputs":[{"internalType":"uint256","name":"quoteFeedDecimals","type":"uint256"},{"internalType":"uint256","name":"baseFeedDecimals","type":"uint256"}],"name":"PriceOracleQuoteFeedDecimalsTooBig","type":"error"},{"anonymous":false,"inputs":[{"indexed":true,"internalType":"address","name":"base","type":"address"},{"indexed":true,"internalType":"address","name":"quote","type":"address"},{"indexed":false,"internalType":"address","name":"feed","type":"address"}],"name":"FeedSet","type":"event"},{"anonymous":false,"inputs":[{"indexed":false,"internalType":"uint8","name":"version","type":"uint8"}],"name":"Initialized","type":"event"},{"anonymous":false,"inputs":[{"indexed":true,"internalType":"address","name":"signer","type":"address"},{"indexed":false,"internalType":"bool","name":"allowed","type":"bool"}],"name":"SignerSet","type":"event"},{"inputs":[],"name":"authorizer","outputs":[{"internalType":"address","name":"","type":"address"}],"stateMutability":"view","type":"function"},{"inputs":[],"name":"getAllowedSigners","outputs":[{"internalType":"address[]","name":"","type":"address[]"}],"stateMutability":"view","type":"function"},{"inputs":[{"internalType":"address","name":"","type":"address"},{"internalType":"address","name":"","type":"address"}],"name":"getFeed","outputs":[{"internalType":"address","name":"","type":"address"}],"stateMutability":"view","type":"function"},{"inputs":[{"internalType":"address","name":"base","type":"address"},{"internalType":"address","name":"quote","type":"address"},{"internalType":"bytes","name":"data","type":"bytes"}],"name":"getPrice","outputs":[{"internalType":"uint256","name":"","type":"uint256"}],"stateMutability":"view","type":"function"},{"inputs":[{"internalType":"address","name":"base","type":"address"},{"internalType":"address","name":"quote","type":"address"}],"name":"getPrice","outputs":[{"internalType":"uint256","name":"","type":"uint256"}],"stateMutability":"view","type":"function"},{"inputs":[{"components":[{"internalType":"address","name":"base","type":"address"},{"internalType":"address","name":"quote","type":"address"},{"internalType":"uint256","name":"rate","type":"uint256"},{"internalType":"uint256","name":"deadline","type":"uint256"}],"internalType":"struct IPriceOracle.PriceData[]","name":"prices","type":"tuple[]"}],"name":"getPricesDigest","outputs":[{"internalType":"bytes32","name":"","type":"bytes32"}],"stateMutability":"pure","type":"function"},{"inputs":[{"internalType":"address","name":"_authorizer","type":"address"},{"internalType":"address","name":"_signer","type":"address"},{"internalType":"address","name":"_pivot","type":"address"},{"components":[{"internalType":"address","name":"base","type":"address"},{"internalType":"address","name":"quote","type":"address"},{"internalType":"address","name":"feed","type":"address"}],"internalType":"struct PriceOracle.FeedData[]","name":"_feeds","type":"tuple[]"}],"name":"initialize","outputs":[],"stateMutability":"nonpayable","type":"function"},{"inputs":[{"internalType":"address","name":"signer","type":"address"}],"name":"isSignerAllowed","outputs":[{"internalType":"bool","name":"","type":"bool"}],"stateMutability":"view","type":"function"},{"inputs":[],"name":"pivot","outputs":[{"internalType":"address","name":"","type":"address"}],"stateMutability":"view","type":"function"},{"inputs":[{"internalType":"address","name":"base","type":"address"},{"internalType":"address","name":"quote","type":"address"},{"internalType":"address","name":"feed","type":"address"}],"name":"setFeed","outputs":[],"stateMutability":"nonpayable","type":"function"},{"inputs":[{"internalType":"address","name":"signer","type":"address"},{"internalType":"bool","name":"allowed","type":"bool"}],"name":"setSigner","outputs":[],"stateMutability":"nonpayable","type":"function"}],"evm":{"bytecode":{"linkReferences":{},"object":"60806040523480156200001157600080fd5b506200001c62000022565b620000e4565b600054610100900460ff16156200008f5760405162461bcd60e51b815260206004820152602760248201527f496e697469616c697a61626c653a20636f6e747261637420697320696e697469604482015266616c697a696e6760c81b606482015260840160405180910390fd5b60005460ff9081161015620000e2576000805460ff191660ff9081179091556040519081527f7f26b83ff96e1f2b6a682f133852f6798a09c465da95921460cefb38474024989060200160405180910390a15b565b6129ea80620000f46000396000f3fe608060405234801561001057600080fd5b50600436106100c95760003560e01c8063ac41865a11610081578063d2edb6dd1161005b578063d2edb6dd146101b9578063d77fe1cd146101fa578063dddf6ff91461021a57600080fd5b8063ac41865a14610148578063cc47cae91461015b578063d09edf311461016e57600080fd5b806333162394116100b257806333162394146100f6578063355efdd914610114578063a60216901461013557600080fd5b8063230a7658146100ce57806331cb6105146100e3575b600080fd5b6100e16100dc366004611e54565b61023d565b005b6100e16100f1366004611ead565b610302565b6100fe6103bf565b60405161010b9190611ee6565b60405180910390f35b610127610122366004612050565b6103d0565b60405190815260200161010b565b6100e1610143366004612119565b610568565b610127610156366004612228565b610702565b610127610169366004612256565b6108ee565b6000546101949062010000900473ffffffffffffffffffffffffffffffffffffffff1681565b60405173ffffffffffffffffffffffffffffffffffffffff909116815260200161010b565b6101946101c7366004612228565b603460209081526000928352604080842090915290825290205473ffffffffffffffffffffffffffffffffffffffff1681565b6033546101949073ffffffffffffffffffffffffffffffffffffffff1681565b61022d610228366004612332565b610982565b604051901515815260200161010b565b6002600154036102ae576040517f08c379a000000000000000000000000000000000000000000000000000000000815260206004820152601f60248201527f5265656e7472616e637947756172643a207265656e7472616e742063616c6c0060448201526064015b60405180910390fd5b60026001556102be83838361098f565b6102ed336000357fffffffff000000000000000000000000000000000000000000000000000000001683610a5a565b6102f8848484610aa6565b5050600180555050565b60026001540361036e576040517f08c379a000000000000000000000000000000000000000000000000000000000815260206004820152601f60248201527f5265656e7472616e637947756172643a207265656e7472616e742063616c6c0060448201526064016102a5565b600260015561037d8282610b3e565b6103ac336000357fffffffff000000000000000000000000000000000000000000000000000000001683610a5a565b6103b68383610bcb565b50506001805550565b60606103cb6035610c42565b905090565b60008273ffffffffffffffffffffffffffffffffffffffff168473ffffffffffffffffffffffffffffffffffffffff16036104145750670de0b6b3a7640000610561565b600061041f83610c4f565b905060005b81518110156105525760008282815181106104415761044161234f565b602002602001015190508673ffffffffffffffffffffffffffffffffffffffff16816000015173ffffffffffffffffffffffffffffffffffffffff161480156104b957508573ffffffffffffffffffffffffffffffffffffffff16816020015173ffffffffffffffffffffffffffffffffffffffff16145b1561053f576060810151421180156105305760608201516040517fe3b0edfb00000000000000000000000000000000000000000000000000000000815273ffffffffffffffffffffffffffffffffffffffff808b1660048301528916602482015260448101919091524260648201526084016102a5565b50604001519250610561915050565b508061054a816123ad565b915050610424565b5061055d8585610702565b9150505b9392505050565b600054610100900460ff16158080156105885750600054600160ff909116105b806105a25750303b1580156105a2575060005460ff166001145b61062e576040517f08c379a000000000000000000000000000000000000000000000000000000000815260206004820152602e60248201527f496e697469616c697a61626c653a20636f6e747261637420697320616c72656160448201527f647920696e697469616c697a656400000000000000000000000000000000000060648201526084016102a5565b600080547fffffffffffffffffffffffffffffffffffffffffffffffffffffffffffffff00166001179055801561068c57600080547fffffffffffffffffffffffffffffffffffffffffffffffffffffffffffff00ff166101001790555b61069885858585610d84565b80156106fb57600080547fffffffffffffffffffffffffffffffffffffffffffffffffffffffffffff00ff169055604051600181527f7f26b83ff96e1f2b6a682f133852f6798a09c465da95921460cefb38474024989060200160405180910390a15b5050505050565b60008173ffffffffffffffffffffffffffffffffffffffff168373ffffffffffffffffffffffffffffffffffffffff16036107465750670de0b6b3a76400006108e8565b60008373ffffffffffffffffffffffffffffffffffffffff1663313ce5676040518163ffffffff1660e01b8152600401602060405180830381865afa158015610793573d6000803e3d6000fd5b505050506040513d601f19601f820116820180604052508101906107b791906123e5565b60ff16905060008373ffffffffffffffffffffffffffffffffffffffff1663313ce5676040518163ffffffff1660e01b8152600401602060405180830381865afa158015610809573d6000803e3d6000fd5b505050506040513d601f19601f8201168201806040525081019061082d91906123e5565b60ff169050600061083f601283612408565b8311905080156108a9576040517f979a1d5b00000000000000000000000000000000000000000000000000000000815273ffffffffffffffffffffffffffffffffffffffff80881660048301526024820185905286166044820152606481018390526084016102a5565b6000836108b7601285612408565b6108c1919061241b565b90506000806108d08989610e3e565b915091506108df828285610fca565b96505050505050505b92915050565b60006108e882604051602001610904919061242e565b604080517fffffffffffffffffffffffffffffffffffffffffffffffffffffffffffffffe081840301815282825280516020918201207f19457468657265756d205369676e6564204d6573736167653a0a33320000000084830152603c8085019190915282518085039091018152605c909301909152815191012090565b60006108e860358361101f565b604080516003808252608082019092526060916020820183803683370190505090508373ffffffffffffffffffffffffffffffffffffffff16816000815181106109db576109db61234f565b6020026020010181815250508273ffffffffffffffffffffffffffffffffffffffff1681600181518110610a1157610a1161234f565b6020026020010181815250508173ffffffffffffffffffffffffffffffffffffffff1681600281518110610a4757610a4761234f565b6020026020010181815250509392505050565b610a6583838361104e565b610aa1578282826040517f960c80da0000000000000000000000000000000000000000000000000000000081526004016102a5939291906124e6565b505050565b73ffffffffffffffffffffffffffffffffffffffff83811660008181526034602090815260408083208786168085529083529281902080547fffffffffffffffffffffffff00000000000000000000000000000000000000001695871695861790555193845290927f285223a4171e109a39625d11cc785e338bfe64401273078192ce054455d0c785910160405180910390a3505050565b60408051600280825260608083018452926020830190803683370190505090508273ffffffffffffffffffffffffffffffffffffffff1681600081518110610b8857610b8861234f565b60200260200101818152505081610ba0576000610ba3565b60015b60ff1681600181518110610bb957610bb961234f565b60200260200101818152505092915050565b80610be057610bdb6035836110f1565b610beb565b610beb603583611113565b508173ffffffffffffffffffffffffffffffffffffffff167ffc4acb499491cd850a8a21ab98c7f128850c0f0e5f1a875a62b7fa055c2ecf1982604051610c36911515815260200190565b60405180910390a25050565b6060600061056183611135565b6060610c5a82611191565b610ccd576040805160008082526020820190925290610cc6565b6040805160808101825260008082526020808301829052928201819052606082015282527fffffffffffffffffffffffffffffffffffffffffffffffffffffffffffffffff909201910181610c745790505b5092915050565b60008083806020019051810190610ce491906125ab565b91509150600080610cfd610cf7856108ee565b84611332565b9092509050600080826004811115610d1757610d176126b2565b148015610d285750610d2883610982565b905080610d79576040517f9a74fc4800000000000000000000000000000000000000000000000000000000815273ffffffffffffffffffffffffffffffffffffffff841660048201526024016102a5565b509295945050505050565b600054610100900460ff16610e1b576040517f08c379a000000000000000000000000000000000000000000000000000000000815260206004820152602b60248201527f496e697469616c697a61626c653a20636f6e7472616374206973206e6f74206960448201527f6e697469616c697a696e6700000000000000000000000000000000000000000060648201526084016102a5565b610e23611392565b610e2c84611433565b610e38848484846114d6565b50505050565b73ffffffffffffffffffffffffffffffffffffffff8083166000908152603460209081526040808320858516845290915281205490918291168015610e9057610e8681611638565b9250925050610fc3565b73ffffffffffffffffffffffffffffffffffffffff80851660009081526034602090815260408083208985168452909152902054168015610edf57610ed481611737565b935093505050610fc3565b73ffffffffffffffffffffffffffffffffffffffff80871660009081526034602081815260408084206033548616808652908352818520548b871686529383528185209085529091529091205490821691168115801590610f55575073ffffffffffffffffffffffffffffffffffffffff811615155b15610f7157610f6482826117cf565b9550955050505050610fc3565b6040517fcb84d12b00000000000000000000000000000000000000000000000000000000815273ffffffffffffffffffffffffffffffffffffffff808a166004830152881660248201526044016102a5565b9250929050565b600082821015610ff857610fde828461241b565b610fe990600a612801565b610ff3908561283c565b611017565b611002838361241b565b61100d90600a612801565b6110179085612877565b949350505050565b73ffffffffffffffffffffffffffffffffffffffff811660009081526001830160205260408120541515610561565b600080546040517f285228950000000000000000000000000000000000000000000000000000000081526201000090910473ffffffffffffffffffffffffffffffffffffffff16906328522895906110b090879030908890889060040161288e565b602060405180830381865afa1580156110cd573d6000803e3d6000fd5b505050506040513d601f19601f8201168201806040525081019061101791906128f9565b60006105618373ffffffffffffffffffffffffffffffffffffffff8416611876565b60006105618373ffffffffffffffffffffffffffffffffffffffff8416611969565b60608160000180548060200260200160405190810160405280929190818152602001828054801561118557602002820191906000526020600020905b815481526020019060010190808311611171575b50505050509050919050565b60008060e0905080835110156111aa5750600092915050565b60006111b684826119b8565b905080845110156111cb575060009392505050565b60006111d785836119b8565b90506111e4816080612877565b6111ee9084612408565b85511461120057506000949350505050565b600061120d8660206119b8565b905061121a826080612877565b611225906060612408565b81146112375750600095945050505050565b600061124387836119b8565b905080604014158015611257575080604114155b15611269575060009695505050505050565b60005b83811015611324576000611281826080612877565b9050600061129a611293836060612408565b8b906119b8565b905073ffffffffffffffffffffffffffffffffffffffff8111156112c8575060009998505050505050505050565b60006112df6112d8846080612408565b8c906119b8565b905073ffffffffffffffffffffffffffffffffffffffff81111561130e575060009a9950505050505050505050565b505050808061131c906123ad565b91505061126c565b506001979650505050505050565b60008082516041036113685760208301516040840151606085015160001a61135c87828585611a15565b94509450505050610fc3565b82516040036113865760208301516040840151610ed4868383611b2d565b50600090506002610fc3565b600054610100900460ff16611429576040517f08c379a000000000000000000000000000000000000000000000000000000000815260206004820152602b60248201527f496e697469616c697a61626c653a20636f6e7472616374206973206e6f74206960448201527f6e697469616c697a696e6700000000000000000000000000000000000000000060648201526084016102a5565b611431611b7f565b565b600054610100900460ff166114ca576040517f08c379a000000000000000000000000000000000000000000000000000000000815260206004820152602b60248201527f496e697469616c697a61626c653a20636f6e7472616374206973206e6f74206960448201527f6e697469616c697a696e6700000000000000000000000000000000000000000060648201526084016102a5565b6114d381611c1c565b50565b600054610100900460ff1661156d576040517f08c379a000000000000000000000000000000000000000000000000000000000815260206004820152602b60248201527f496e697469616c697a61626c653a20636f6e7472616374206973206e6f74206960448201527f6e697469616c697a696e6700000000000000000000000000000000000000000060648201526084016102a5565b611578836001610bcb565b603380547fffffffffffffffffffffffff00000000000000000000000000000000000000001673ffffffffffffffffffffffffffffffffffffffff841617905560005b81518110156106fb576116268282815181106115d9576115d961234f565b6020026020010151600001518383815181106115f7576115f761234f565b6020026020010151602001518484815181106116155761161561234f565b602002602001015160400151610aa6565b80611630816123ad565b9150506115bb565b6000808273ffffffffffffffffffffffffffffffffffffffff1663313ce5676040518163ffffffff1660e01b8152600401602060405180830381865afa158015611686573d6000803e3d6000fd5b505050506040513d601f19601f820116820180604052508101906116aa91906123e5565b60ff16905060008373ffffffffffffffffffffffffffffffffffffffff1663feaf968c6040518163ffffffff1660e01b815260040160a060405180830381865afa1580156116fc573d6000803e3d6000fd5b505050506040513d601f19601f820116820180604052508101906117209190612935565b50505091505061172f81611d00565b925050915091565b60008060008061174685611638565b90925090506024811180156117a6576040517f6dd967aa00000000000000000000000000000000000000000000000000000000815273ffffffffffffffffffffffffffffffffffffffff87166004820152602481018390526044016102a5565b6117b8670de0b6b3a764000084611d70565b94506117c582602461241b565b9350505050915091565b6000806000806117de86611638565b915091506000806117ee87611638565b90925090506000611800601285612408565b821190508015611846576040517f46cd794e00000000000000000000000000000000000000000000000000000000815260048101839052602481018590526044016102a5565b6118508584611d70565b96508161185e601286612408565b611868919061241b565b955050505050509250929050565b6000818152600183016020526040812054801561195f57600061189a60018361241b565b85549091506000906118ae9060019061241b565b90508181146119135760008660000182815481106118ce576118ce61234f565b90600052602060002001549050808760000184815481106118f1576118f161234f565b6000918252602080832090910192909255918252600188019052604090208390555b855486908061192457611924612985565b6001900381819060005260206000200160009055905585600101600086815260200190815260200160002060009055600193505050506108e8565b60009150506108e8565b60008181526001830160205260408120546119b0575081546001818101845560008481526020808220909301849055845484825282860190935260409020919091556108e8565b5060006108e8565b60006119c5826020612408565b83511015611a0c5782516040517f9b722da70000000000000000000000000000000000000000000000000000000081526102a5918491600401918252602082015260400190565b50016020015190565b6000807f7fffffffffffffffffffffffffffffff5d576e7357a4501ddfe92f46681b20a0831115611a4c5750600090506003611b24565b8460ff16601b14158015611a6457508460ff16601c14155b15611a755750600090506004611b24565b6040805160008082526020820180845289905260ff881692820192909252606081018690526080810185905260019060a0016020604051602081039080840390855afa158015611ac9573d6000803e3d6000fd5b50506040517fffffffffffffffffffffffffffffffffffffffffffffffffffffffffffffffe0015191505073ffffffffffffffffffffffffffffffffffffffff8116611b1d57600060019250925050611b24565b9150600090505b94509492505050565b6000807f7fffffffffffffffffffffffffffffffffffffffffffffffffffffffffffffff831681611b6360ff86901c601b612408565b9050611b7187828885611a15565b935093505050935093915050565b600054610100900460ff16611c16576040517f08c379a000000000000000000000000000000000000000000000000000000000815260206004820152602b60248201527f496e697469616c697a61626c653a20636f6e7472616374206973206e6f74206960448201527f6e697469616c697a696e6700000000000000000000000000000000000000000060648201526084016102a5565b60018055565b600054610100900460ff16611cb3576040517f08c379a000000000000000000000000000000000000000000000000000000000815260206004820152602b60248201527f496e697469616c697a61626c653a20636f6e7472616374206973206e6f74206960448201527f6e697469616c697a696e6700000000000000000000000000000000000000000060648201526084016102a5565b6000805473ffffffffffffffffffffffffffffffffffffffff90921662010000027fffffffffffffffffffff0000000000000000000000000000000000000000ffff909216919091179055565b600080821215611d6c576040517f08c379a000000000000000000000000000000000000000000000000000000000815260206004820181905260248201527f53616665436173743a2076616c7565206d75737420626520706f73697469766560448201526064016102a5565b5090565b600081600003611dac576040517fb8a2f92100000000000000000000000000000000000000000000000000000000815260040160405180910390fd5b82600003611dbc575060006108e8565b670de0b6b3a764000083810290848281611dd857611dd861280d565b0414611e1a576040517fea7b49e600000000000000000000000000000000000000000000000000000000815260048101859052602481018290526044016102a5565b828181611e2957611e2961280d565b04949350505050565b73ffffffffffffffffffffffffffffffffffffffff811681146114d357600080fd5b600080600060608486031215611e6957600080fd5b8335611e7481611e32565b92506020840135611e8481611e32565b91506040840135611e9481611e32565b809150509250925092565b80151581146114d357600080fd5b60008060408385031215611ec057600080fd5b8235611ecb81611e32565b91506020830135611edb81611e9f565b809150509250929050565b6020808252825182820181905260009190848201906040850190845b81811015611f3457835173ffffffffffffffffffffffffffffffffffffffff1683529284019291840191600101611f02565b50909695505050505050565b7f4e487b7100000000000000000000000000000000000000000000000000000000600052604160045260246000fd5b6040516060810167ffffffffffffffff81118282101715611f9257611f92611f40565b60405290565b6040516080810167ffffffffffffffff81118282101715611f9257611f92611f40565b604051601f82017fffffffffffffffffffffffffffffffffffffffffffffffffffffffffffffffe016810167ffffffffffffffff8111828210171561200257612002611f40565b604052919050565b600067ffffffffffffffff82111561202457612024611f40565b50601f017fffffffffffffffffffffffffffffffffffffffffffffffffffffffffffffffe01660200190565b60008060006060848603121561206557600080fd5b833561207081611e32565b9250602084013561208081611e32565b9150604084013567ffffffffffffffff81111561209c57600080fd5b8401601f810186136120ad57600080fd5b80356120c06120bb8261200a565b611fbb565b8181528760208385010111156120d557600080fd5b816020840160208301376000602083830101528093505050509250925092565b600067ffffffffffffffff82111561210f5761210f611f40565b5060051b60200190565b6000806000806080858703121561212f57600080fd5b843561213a81611e32565b935060208581013561214b81611e32565b935060408681013561215c81611e32565b935060608781013567ffffffffffffffff81111561217957600080fd5b8801601f81018a1361218a57600080fd5b80356121986120bb826120f5565b8181529083028201850190858101908c8311156121b457600080fd5b928601925b828410156122175784848e0312156121d15760008081fd5b6121d9611f6f565b84356121e481611e32565b8152848801356121f381611e32565b818901528487013561220481611e32565b81880152825292840192908601906121b9565b999c989b5096995050505050505050565b6000806040838503121561223b57600080fd5b823561224681611e32565b91506020830135611edb81611e32565b6000602080838503121561226957600080fd5b823567ffffffffffffffff81111561228057600080fd5b8301601f8101851361229157600080fd5b803561229f6120bb826120f5565b81815260079190911b820183019083810190878311156122be57600080fd5b928401925b8284101561232757608084890312156122dc5760008081fd5b6122e4611f98565b84356122ef81611e32565b8152848601356122fe81611e32565b8187015260408581013590820152606080860135908201528252608090930192908401906122c3565b979650505050505050565b60006020828403121561234457600080fd5b813561056181611e32565b7f4e487b7100000000000000000000000000000000000000000000000000000000600052603260045260246000fd5b7f4e487b7100000000000000000000000000000000000000000000000000000000600052601160045260246000fd5b60007fffffffffffffffffffffffffffffffffffffffffffffffffffffffffffffffff82036123de576123de61237e565b5060010190565b6000602082840312156123f757600080fd5b815160ff8116811461056157600080fd5b808201808211156108e8576108e861237e565b818103818111156108e8576108e861237e565b602080825282518282018190526000919060409081850190868401855b8281101561249e578151805173ffffffffffffffffffffffffffffffffffffffff90811686528782015116878601528581015186860152606090810151908501526080909301929085019060010161244b565b5091979650505050505050565b600081518084526020808501945080840160005b838110156124db578151875295820195908201906001016124bf565b509495945050505050565b73ffffffffffffffffffffffffffffffffffffffff841681527fffffffff000000000000000000000000000000000000000000000000000000008316602082015260606040820152600061253d60608301846124ab565b95945050505050565b600082601f83011261255757600080fd5b81516125656120bb8261200a565b8181526020858184870101111561257b57600080fd5b60005b8381101561259957858101820151838201830152810161257e565b50600092820101919091529392505050565b60008060408084860312156125bf57600080fd5b835167ffffffffffffffff808211156125d757600080fd5b818601915086601f8301126125eb57600080fd5b815160206125fb6120bb836120f5565b82815260079290921b8401810191818101908a84111561261a57600080fd5b948201945b83861015612681576080868c0312156126385760008081fd5b612640611f98565b865161264b81611e32565b81528684015161265a81611e32565b8185015286880151888201526060808801519082015282526080909501949082019061261f565b9189015191975090945050508083111561269a57600080fd5b50506126a885828601612546565b9150509250929050565b7f4e487b7100000000000000000000000000000000000000000000000000000000600052602160045260246000fd5b600181815b8085111561273a57817fffffffffffffffffffffffffffffffffffffffffffffffffffffffffffffffff048211156127205761272061237e565b8085161561272d57918102915b93841c93908002906126e6565b509250929050565b600082612751575060016108e8565b8161275e575060006108e8565b8160018114612774576002811461277e5761279a565b60019150506108e8565b60ff84111561278f5761278f61237e565b50506001821b6108e8565b5060208310610133831016604e8410600b84101617156127bd575081810a6108e8565b6127c783836126e1565b807fffffffffffffffffffffffffffffffffffffffffffffffffffffffffffffffff048211156127f9576127f961237e565b029392505050565b60006105618383612742565b7f4e487b7100000000000000000000000000000000000000000000000000000000600052601260045260246000fd5b600082612872577f4e487b7100000000000000000000000000000000000000000000000000000000600052601260045260246000fd5b500490565b80820281158282048414176108e8576108e861237e565b600073ffffffffffffffffffffffffffffffffffffffff80871683528086166020840152507fffffffff0000000000000000000000000000000000000000000000000000000084166040830152608060608301526128ef60808301846124ab565b9695505050505050565b60006020828403121561290b57600080fd5b815161056181611e9f565b805169ffffffffffffffffffff8116811461293057600080fd5b919050565b600080600080600060a0868803121561294d57600080fd5b61295686612916565b945060208601519350604086015192506060860151915061297960808701612916565b90509295509295909350565b7f4e487b7100000000000000000000000000000000000000000000000000000000600052603160045260246000fdfea26469706673582212206fd140288d566ac8b266c3854581bb432f513c9e005d3ad8915c02d0edc9988964736f6c63430008110033","opcodes":"PUSH1 0x80 PUSH1 0x40 MSTORE CALLVALUE DUP1 ISZERO PUSH3 0x11 JUMPI PUSH1 0x0 DUP1 REVERT JUMPDEST POP PUSH3 0x1C PUSH3 0x22 JUMP JUMPDEST PUSH3 0xE4 JUMP JUMPDEST PUSH1 0x0 SLOAD PUSH2 0x100 SWAP1 DIV PUSH1 0xFF AND ISZERO PUSH3 0x8F JUMPI PUSH1 0x40 MLOAD PUSH3 0x461BCD PUSH1 0xE5 SHL DUP2 MSTORE PUSH1 0x20 PUSH1 0x4 DUP3 ADD MSTORE PUSH1 0x27 PUSH1 0x24 DUP3 ADD MSTORE PUSH32 0x496E697469616C697A61626C653A20636F6E747261637420697320696E697469 PUSH1 0x44 DUP3 ADD MSTORE PUSH7 0x616C697A696E67 PUSH1 0xC8 SHL PUSH1 0x64 DUP3 ADD MSTORE PUSH1 0x84 ADD PUSH1 0x40 MLOAD DUP1 SWAP2 SUB SWAP1 REVERT JUMPDEST PUSH1 0x0 SLOAD PUSH1 0xFF SWAP1 DUP2 AND LT ISZERO PUSH3 0xE2 JUMPI PUSH1 0x0 DUP1 SLOAD PUSH1 0xFF NOT AND PUSH1 0xFF SWAP1 DUP2 OR SWAP1 SWAP2 SSTORE PUSH1 0x40 MLOAD SWAP1 DUP2 MSTORE PUSH32 0x7F26B83FF96E1F2B6A682F133852F6798A09C465DA95921460CEFB3847402498 SWAP1 PUSH1 0x20 ADD PUSH1 0x40 MLOAD DUP1 SWAP2 SUB SWAP1 LOG1 JUMPDEST JUMP JUMPDEST PUSH2 0x29EA DUP1 PUSH3 0xF4 PUSH1 0x0 CODECOPY PUSH1 0x0 RETURN INVALID PUSH1 0x80 PUSH1 0x40 MSTORE CALLVALUE DUP1 ISZERO PUSH2 0x10 JUMPI PUSH1 0x0 DUP1 REVERT JUMPDEST POP PUSH1 0x4 CALLDATASIZE LT PUSH2 0xC9 JUMPI PUSH1 0x0 CALLDATALOAD PUSH1 0xE0 SHR DUP1 PUSH4 0xAC41865A GT PUSH2 0x81 JUMPI DUP1 PUSH4 0xD2EDB6DD GT PUSH2 0x5B JUMPI DUP1 PUSH4 0xD2EDB6DD EQ PUSH2 0x1B9 JUMPI DUP1 PUSH4 0xD77FE1CD EQ PUSH2 0x1FA JUMPI DUP1 PUSH4 0xDDDF6FF9 EQ PUSH2 0x21A JUMPI PUSH1 0x0 DUP1 REVERT JUMPDEST DUP1 PUSH4 0xAC41865A EQ PUSH2 0x148 JUMPI DUP1 PUSH4 0xCC47CAE9 EQ PUSH2 0x15B JUMPI DUP1 PUSH4 0xD09EDF31 EQ PUSH2 0x16E JUMPI PUSH1 0x0 DUP1 REVERT JUMPDEST DUP1 PUSH4 0x33162394 GT PUSH2 0xB2 JUMPI DUP1 PUSH4 0x33162394 EQ PUSH2 0xF6 JUMPI DUP1 PUSH4 0x355EFDD9 EQ PUSH2 0x114 JUMPI DUP1 PUSH4 0xA6021690 EQ PUSH2 0x135 JUMPI PUSH1 0x0 DUP1 REVERT JUMPDEST DUP1 PUSH4 0x230A7658 EQ PUSH2 0xCE JUMPI DUP1 PUSH4 0x31CB6105 EQ PUSH2 0xE3 JUMPI JUMPDEST PUSH1 0x0 DUP1 REVERT JUMPDEST PUSH2 0xE1 PUSH2 0xDC CALLDATASIZE PUSH1 0x4 PUSH2 0x1E54 JUMP JUMPDEST PUSH2 0x23D JUMP JUMPDEST STOP JUMPDEST PUSH2 0xE1 PUSH2 0xF1 CALLDATASIZE PUSH1 0x4 PUSH2 0x1EAD JUMP JUMPDEST PUSH2 0x302 JUMP JUMPDEST PUSH2 0xFE PUSH2 0x3BF JUMP JUMPDEST PUSH1 0x40 MLOAD PUSH2 0x10B SWAP2 SWAP1 PUSH2 0x1EE6 JUMP JUMPDEST PUSH1 0x40 MLOAD DUP1 SWAP2 SUB SWAP1 RETURN JUMPDEST PUSH2 0x127 PUSH2 0x122 CALLDATASIZE PUSH1 0x4 PUSH2 0x2050 JUMP JUMPDEST PUSH2 0x3D0 JUMP JUMPDEST PUSH1 0x40 MLOAD SWAP1 DUP2 MSTORE PUSH1 0x20 ADD PUSH2 0x10B JUMP JUMPDEST PUSH2 0xE1 PUSH2 0x143 CALLDATASIZE PUSH1 0x4 PUSH2 0x2119 JUMP JUMPDEST PUSH2 0x568 JUMP JUMPDEST PUSH2 0x127 PUSH2 0x156 CALLDATASIZE PUSH1 0x4 PUSH2 0x2228 JUMP JUMPDEST PUSH2 0x702 JUMP JUMPDEST PUSH2 0x127 PUSH2 0x169 CALLDATASIZE PUSH1 0x4 PUSH2 0x2256 JUMP JUMPDEST PUSH2 0x8EE JUMP JUMPDEST PUSH1 0x0 SLOAD PUSH2 0x194 SWAP1 PUSH3 0x10000 SWAP1 DIV PUSH20 0xFFFFFFFFFFFFFFFFFFFFFFFFFFFFFFFFFFFFFFFF AND DUP2 JUMP JUMPDEST PUSH1 0x40 MLOAD PUSH20 0xFFFFFFFFFFFFFFFFFFFFFFFFFFFFFFFFFFFFFFFF SWAP1 SWAP2 AND DUP2 MSTORE PUSH1 0x20 ADD PUSH2 0x10B JUMP JUMPDEST PUSH2 0x194 PUSH2 0x1C7 CALLDATASIZE PUSH1 0x4 PUSH2 0x2228 JUMP JUMPDEST PUSH1 0x34 PUSH1 0x20 SWAP1 DUP2 MSTORE PUSH1 0x0 SWAP3 DUP4 MSTORE PUSH1 0x40 DUP1 DUP5 KECCAK256 SWAP1 SWAP2 MSTORE SWAP1 DUP3 MSTORE SWAP1 KECCAK256 SLOAD PUSH20 0xFFFFFFFFFFFFFFFFFFFFFFFFFFFFFFFFFFFFFFFF AND DUP2 JUMP JUMPDEST PUSH1 0x33 SLOAD PUSH2 0x194 SWAP1 PUSH20 0xFFFFFFFFFFFFFFFFFFFFFFFFFFFFFFFFFFFFFFFF AND DUP2 JUMP JUMPDEST PUSH2 0x22D PUSH2 0x228 CALLDATASIZE PUSH1 0x4 PUSH2 0x2332 JUMP JUMPDEST PUSH2 0x982 JUMP JUMPDEST PUSH1 0x40 MLOAD SWAP1 ISZERO ISZERO DUP2 MSTORE PUSH1 0x20 ADD PUSH2 0x10B JUMP JUMPDEST PUSH1 0x2 PUSH1 0x1 SLOAD SUB PUSH2 0x2AE JUMPI PUSH1 0x40 MLOAD PUSH32 0x8C379A000000000000000000000000000000000000000000000000000000000 DUP2 MSTORE PUSH1 0x20 PUSH1 0x4 DUP3 ADD MSTORE PUSH1 0x1F PUSH1 0x24 DUP3 ADD MSTORE PUSH32 0x5265656E7472616E637947756172643A207265656E7472616E742063616C6C00 PUSH1 0x44 DUP3 ADD MSTORE PUSH1 0x64 ADD JUMPDEST PUSH1 0x40 MLOAD DUP1 SWAP2 SUB SWAP1 REVERT JUMPDEST PUSH1 0x2 PUSH1 0x1 SSTORE PUSH2 0x2BE DUP4 DUP4 DUP4 PUSH2 0x98F JUMP JUMPDEST PUSH2 0x2ED CALLER PUSH1 0x0 CALLDATALOAD PUSH32 0xFFFFFFFF00000000000000000000000000000000000000000000000000000000 AND DUP4 PUSH2 0xA5A JUMP JUMPDEST PUSH2 0x2F8 DUP5 DUP5 DUP5 PUSH2 0xAA6 JUMP JUMPDEST POP POP PUSH1 0x1 DUP1 SSTORE POP POP JUMP JUMPDEST PUSH1 0x2 PUSH1 0x1 SLOAD SUB PUSH2 0x36E JUMPI PUSH1 0x40 MLOAD PUSH32 0x8C379A000000000000000000000000000000000000000000000000000000000 DUP2 MSTORE PUSH1 0x20 PUSH1 0x4 DUP3 ADD MSTORE PUSH1 0x1F PUSH1 0x24 DUP3 ADD MSTORE PUSH32 0x5265656E7472616E637947756172643A207265656E7472616E742063616C6C00 PUSH1 0x44 DUP3 ADD MSTORE PUSH1 0x64 ADD PUSH2 0x2A5 JUMP JUMPDEST PUSH1 0x2 PUSH1 0x1 SSTORE PUSH2 0x37D DUP3 DUP3 PUSH2 0xB3E JUMP JUMPDEST PUSH2 0x3AC CALLER PUSH1 0x0 CALLDATALOAD PUSH32 0xFFFFFFFF00000000000000000000000000000000000000000000000000000000 AND DUP4 PUSH2 0xA5A JUMP JUMPDEST PUSH2 0x3B6 DUP4 DUP4 PUSH2 0xBCB JUMP JUMPDEST POP POP PUSH1 0x1 DUP1 SSTORE POP JUMP JUMPDEST PUSH1 0x60 PUSH2 0x3CB PUSH1 0x35 PUSH2 0xC42 JUMP JUMPDEST SWAP1 POP SWAP1 JUMP JUMPDEST PUSH1 0x0 DUP3 PUSH20 0xFFFFFFFFFFFFFFFFFFFFFFFFFFFFFFFFFFFFFFFF AND DUP5 PUSH20 0xFFFFFFFFFFFFFFFFFFFFFFFFFFFFFFFFFFFFFFFF AND SUB PUSH2 0x414 JUMPI POP PUSH8 0xDE0B6B3A7640000 PUSH2 0x561 JUMP JUMPDEST PUSH1 0x0 PUSH2 0x41F DUP4 PUSH2 0xC4F JUMP JUMPDEST SWAP1 POP PUSH1 0x0 JUMPDEST DUP2 MLOAD DUP2 LT ISZERO PUSH2 0x552 JUMPI PUSH1 0x0 DUP3 DUP3 DUP2 MLOAD DUP2 LT PUSH2 0x441 JUMPI PUSH2 0x441 PUSH2 0x234F JUMP JUMPDEST PUSH1 0x20 MUL PUSH1 0x20 ADD ADD MLOAD SWAP1 POP DUP7 PUSH20 0xFFFFFFFFFFFFFFFFFFFFFFFFFFFFFFFFFFFFFFFF AND DUP2 PUSH1 0x0 ADD MLOAD PUSH20 0xFFFFFFFFFFFFFFFFFFFFFFFFFFFFFFFFFFFFFFFF AND EQ DUP1 ISZERO PUSH2 0x4B9 JUMPI POP DUP6 PUSH20 0xFFFFFFFFFFFFFFFFFFFFFFFFFFFFFFFFFFFFFFFF AND DUP2 PUSH1 0x20 ADD MLOAD PUSH20 0xFFFFFFFFFFFFFFFFFFFFFFFFFFFFFFFFFFFFFFFF AND EQ JUMPDEST ISZERO PUSH2 0x53F JUMPI PUSH1 0x60 DUP2 ADD MLOAD TIMESTAMP GT DUP1 ISZERO PUSH2 0x530 JUMPI PUSH1 0x60 DUP3 ADD MLOAD PUSH1 0x40 MLOAD PUSH32 0xE3B0EDFB00000000000000000000000000000000000000000000000000000000 DUP2 MSTORE PUSH20 0xFFFFFFFFFFFFFFFFFFFFFFFFFFFFFFFFFFFFFFFF DUP1 DUP12 AND PUSH1 0x4 DUP4 ADD MSTORE DUP10 AND PUSH1 0x24 DUP3 ADD MSTORE PUSH1 0x44 DUP2 ADD SWAP2 SWAP1 SWAP2 MSTORE TIMESTAMP PUSH1 0x64 DUP3 ADD MSTORE PUSH1 0x84 ADD PUSH2 0x2A5 JUMP JUMPDEST POP PUSH1 0x40 ADD MLOAD SWAP3 POP PUSH2 0x561 SWAP2 POP POP JUMP JUMPDEST POP DUP1 PUSH2 0x54A DUP2 PUSH2 0x23AD JUMP JUMPDEST SWAP2 POP POP PUSH2 0x424 JUMP JUMPDEST POP PUSH2 0x55D DUP6 DUP6 PUSH2 0x702 JUMP JUMPDEST SWAP2 POP POP JUMPDEST SWAP4 SWAP3 POP POP POP JUMP JUMPDEST PUSH1 0x0 SLOAD PUSH2 0x100 SWAP1 DIV PUSH1 0xFF AND ISZERO DUP1 DUP1 ISZERO PUSH2 0x588 JUMPI POP PUSH1 0x0 SLOAD PUSH1 0x1 PUSH1 0xFF SWAP1 SWAP2 AND LT JUMPDEST DUP1 PUSH2 0x5A2 JUMPI POP ADDRESS EXTCODESIZE ISZERO DUP1 ISZERO PUSH2 0x5A2 JUMPI POP PUSH1 0x0 SLOAD PUSH1 0xFF AND PUSH1 0x1 EQ JUMPDEST PUSH2 0x62E JUMPI PUSH1 0x40 MLOAD PUSH32 0x8C379A000000000000000000000000000000000000000000000000000000000 DUP2 MSTORE PUSH1 0x20 PUSH1 0x4 DUP3 ADD MSTORE PUSH1 0x2E PUSH1 0x24 DUP3 ADD MSTORE PUSH32 0x496E697469616C697A61626C653A20636F6E747261637420697320616C726561 PUSH1 0x44 DUP3 ADD MSTORE PUSH32 0x647920696E697469616C697A6564000000000000000000000000000000000000 PUSH1 0x64 DUP3 ADD MSTORE PUSH1 0x84 ADD PUSH2 0x2A5 JUMP JUMPDEST PUSH1 0x0 DUP1 SLOAD PUSH32 0xFFFFFFFFFFFFFFFFFFFFFFFFFFFFFFFFFFFFFFFFFFFFFFFFFFFFFFFFFFFFFF00 AND PUSH1 0x1 OR SWAP1 SSTORE DUP1 ISZERO PUSH2 0x68C JUMPI PUSH1 0x0 DUP1 SLOAD PUSH32 0xFFFFFFFFFFFFFFFFFFFFFFFFFFFFFFFFFFFFFFFFFFFFFFFFFFFFFFFFFFFF00FF AND PUSH2 0x100 OR SWAP1 SSTORE JUMPDEST PUSH2 0x698 DUP6 DUP6 DUP6 DUP6 PUSH2 0xD84 JUMP JUMPDEST DUP1 ISZERO PUSH2 0x6FB JUMPI PUSH1 0x0 DUP1 SLOAD PUSH32 0xFFFFFFFFFFFFFFFFFFFFFFFFFFFFFFFFFFFFFFFFFFFFFFFFFFFFFFFFFFFF00FF AND SWAP1 SSTORE PUSH1 0x40 MLOAD PUSH1 0x1 DUP2 MSTORE PUSH32 0x7F26B83FF96E1F2B6A682F133852F6798A09C465DA95921460CEFB3847402498 SWAP1 PUSH1 0x20 ADD PUSH1 0x40 MLOAD DUP1 SWAP2 SUB SWAP1 LOG1 JUMPDEST POP POP POP POP POP JUMP JUMPDEST PUSH1 0x0 DUP2 PUSH20 0xFFFFFFFFFFFFFFFFFFFFFFFFFFFFFFFFFFFFFFFF AND DUP4 PUSH20 0xFFFFFFFFFFFFFFFFFFFFFFFFFFFFFFFFFFFFFFFF AND SUB PUSH2 0x746 JUMPI POP PUSH8 0xDE0B6B3A7640000 PUSH2 0x8E8 JUMP JUMPDEST PUSH1 0x0 DUP4 PUSH20 0xFFFFFFFFFFFFFFFFFFFFFFFFFFFFFFFFFFFFFFFF AND PUSH4 0x313CE567 PUSH1 0x40 MLOAD DUP2 PUSH4 0xFFFFFFFF AND PUSH1 0xE0 SHL DUP2 MSTORE PUSH1 0x4 ADD PUSH1 0x20 PUSH1 0x40 MLOAD DUP1 DUP4 SUB DUP2 DUP7 GAS STATICCALL ISZERO DUP1 ISZERO PUSH2 0x793 JUMPI RETURNDATASIZE PUSH1 0x0 DUP1 RETURNDATACOPY RETURNDATASIZE PUSH1 0x0 REVERT JUMPDEST POP POP POP POP PUSH1 0x40 MLOAD RETURNDATASIZE PUSH1 0x1F NOT PUSH1 0x1F DUP3 ADD AND DUP3 ADD DUP1 PUSH1 0x40 MSTORE POP DUP2 ADD SWAP1 PUSH2 0x7B7 SWAP2 SWAP1 PUSH2 0x23E5 JUMP JUMPDEST PUSH1 0xFF AND SWAP1 POP PUSH1 0x0 DUP4 PUSH20 0xFFFFFFFFFFFFFFFFFFFFFFFFFFFFFFFFFFFFFFFF AND PUSH4 0x313CE567 PUSH1 0x40 MLOAD DUP2 PUSH4 0xFFFFFFFF AND PUSH1 0xE0 SHL DUP2 MSTORE PUSH1 0x4 ADD PUSH1 0x20 PUSH1 0x40 MLOAD DUP1 DUP4 SUB DUP2 DUP7 GAS STATICCALL ISZERO DUP1 ISZERO PUSH2 0x809 JUMPI RETURNDATASIZE PUSH1 0x0 DUP1 RETURNDATACOPY RETURNDATASIZE PUSH1 0x0 REVERT JUMPDEST POP POP POP POP PUSH1 0x40 MLOAD RETURNDATASIZE PUSH1 0x1F NOT PUSH1 0x1F DUP3 ADD AND DUP3 ADD DUP1 PUSH1 0x40 MSTORE POP DUP2 ADD SWAP1 PUSH2 0x82D SWAP2 SWAP1 PUSH2 0x23E5 JUMP JUMPDEST PUSH1 0xFF AND SWAP1 POP PUSH1 0x0 PUSH2 0x83F PUSH1 0x12 DUP4 PUSH2 0x2408 JUMP JUMPDEST DUP4 GT SWAP1 POP DUP1 ISZERO PUSH2 0x8A9 JUMPI PUSH1 0x40 MLOAD PUSH32 0x979A1D5B00000000000000000000000000000000000000000000000000000000 DUP2 MSTORE PUSH20 0xFFFFFFFFFFFFFFFFFFFFFFFFFFFFFFFFFFFFFFFF DUP1 DUP9 AND PUSH1 0x4 DUP4 ADD MSTORE PUSH1 0x24 DUP3 ADD DUP6 SWAP1 MSTORE DUP7 AND PUSH1 0x44 DUP3 ADD MSTORE PUSH1 0x64 DUP2 ADD DUP4 SWAP1 MSTORE PUSH1 0x84 ADD PUSH2 0x2A5 JUMP JUMPDEST PUSH1 0x0 DUP4 PUSH2 0x8B7 PUSH1 0x12 DUP6 PUSH2 0x2408 JUMP JUMPDEST PUSH2 0x8C1 SWAP2 SWAP1 PUSH2 0x241B JUMP JUMPDEST SWAP1 POP PUSH1 0x0 DUP1 PUSH2 0x8D0 DUP10 DUP10 PUSH2 0xE3E JUMP JUMPDEST SWAP2 POP SWAP2 POP PUSH2 0x8DF DUP3 DUP3 DUP6 PUSH2 0xFCA JUMP JUMPDEST SWAP7 POP POP POP POP POP POP POP JUMPDEST SWAP3 SWAP2 POP POP JUMP JUMPDEST PUSH1 0x0 PUSH2 0x8E8 DUP3 PUSH1 0x40 MLOAD PUSH1 0x20 ADD PUSH2 0x904 SWAP2 SWAP1 PUSH2 0x242E JUMP JUMPDEST PUSH1 0x40 DUP1 MLOAD PUSH32 0xFFFFFFFFFFFFFFFFFFFFFFFFFFFFFFFFFFFFFFFFFFFFFFFFFFFFFFFFFFFFFFE0 DUP2 DUP5 SUB ADD DUP2 MSTORE DUP3 DUP3 MSTORE DUP1 MLOAD PUSH1 0x20 SWAP2 DUP3 ADD KECCAK256 PUSH32 0x19457468657265756D205369676E6564204D6573736167653A0A333200000000 DUP5 DUP4 ADD MSTORE PUSH1 0x3C DUP1 DUP6 ADD SWAP2 SWAP1 SWAP2 MSTORE DUP3 MLOAD DUP1 DUP6 SUB SWAP1 SWAP2 ADD DUP2 MSTORE PUSH1 0x5C SWAP1 SWAP4 ADD SWAP1 SWAP2 MSTORE DUP2 MLOAD SWAP2 ADD KECCAK256 SWAP1 JUMP JUMPDEST PUSH1 0x0 PUSH2 0x8E8 PUSH1 0x35 DUP4 PUSH2 0x101F JUMP JUMPDEST PUSH1 0x40 DUP1 MLOAD PUSH1 0x3 DUP1 DUP3 MSTORE PUSH1 0x80 DUP3 ADD SWAP1 SWAP3 MSTORE PUSH1 0x60 SWAP2 PUSH1 0x20 DUP3 ADD DUP4 DUP1 CALLDATASIZE DUP4 CALLDATACOPY ADD SWAP1 POP POP SWAP1 POP DUP4 PUSH20 0xFFFFFFFFFFFFFFFFFFFFFFFFFFFFFFFFFFFFFFFF AND DUP2 PUSH1 0x0 DUP2 MLOAD DUP2 LT PUSH2 0x9DB JUMPI PUSH2 0x9DB PUSH2 0x234F JUMP JUMPDEST PUSH1 0x20 MUL PUSH1 0x20 ADD ADD DUP2 DUP2 MSTORE POP POP DUP3 PUSH20 0xFFFFFFFFFFFFFFFFFFFFFFFFFFFFFFFFFFFFFFFF AND DUP2 PUSH1 0x1 DUP2 MLOAD DUP2 LT PUSH2 0xA11 JUMPI PUSH2 0xA11 PUSH2 0x234F JUMP JUMPDEST PUSH1 0x20 MUL PUSH1 0x20 ADD ADD DUP2 DUP2 MSTORE POP POP DUP2 PUSH20 0xFFFFFFFFFFFFFFFFFFFFFFFFFFFFFFFFFFFFFFFF AND DUP2 PUSH1 0x2 DUP2 MLOAD DUP2 LT PUSH2 0xA47 JUMPI PUSH2 0xA47 PUSH2 0x234F JUMP JUMPDEST PUSH1 0x20 MUL PUSH1 0x20 ADD ADD DUP2 DUP2 MSTORE POP POP SWAP4 SWAP3 POP POP POP JUMP JUMPDEST PUSH2 0xA65 DUP4 DUP4 DUP4 PUSH2 0x104E JUMP JUMPDEST PUSH2 0xAA1 JUMPI DUP3 DUP3 DUP3 PUSH1 0x40 MLOAD PUSH32 0x960C80DA00000000000000000000000000000000000000000000000000000000 DUP2 MSTORE PUSH1 0x4 ADD PUSH2 0x2A5 SWAP4 SWAP3 SWAP2 SWAP1 PUSH2 0x24E6 JUMP JUMPDEST POP POP POP JUMP JUMPDEST PUSH20 0xFFFFFFFFFFFFFFFFFFFFFFFFFFFFFFFFFFFFFFFF DUP4 DUP2 AND PUSH1 0x0 DUP2 DUP2 MSTORE PUSH1 0x34 PUSH1 0x20 SWAP1 DUP2 MSTORE PUSH1 0x40 DUP1 DUP4 KECCAK256 DUP8 DUP7 AND DUP1 DUP6 MSTORE SWAP1 DUP4 MSTORE SWAP3 DUP2 SWAP1 KECCAK256 DUP1 SLOAD PUSH32 0xFFFFFFFFFFFFFFFFFFFFFFFF0000000000000000000000000000000000000000 AND SWAP6 DUP8 AND SWAP6 DUP7 OR SWAP1 SSTORE MLOAD SWAP4 DUP5 MSTORE SWAP1 SWAP3 PUSH32 0x285223A4171E109A39625D11CC785E338BFE64401273078192CE054455D0C785 SWAP2 ADD PUSH1 0x40 MLOAD DUP1 SWAP2 SUB SWAP1 LOG3 POP POP POP JUMP JUMPDEST PUSH1 0x40 DUP1 MLOAD PUSH1 0x2 DUP1 DUP3 MSTORE PUSH1 0x60 DUP1 DUP4 ADD DUP5 MSTORE SWAP3 PUSH1 0x20 DUP4 ADD SWAP1 DUP1 CALLDATASIZE DUP4 CALLDATACOPY ADD SWAP1 POP POP SWAP1 POP DUP3 PUSH20 0xFFFFFFFFFFFFFFFFFFFFFFFFFFFFFFFFFFFFFFFF AND DUP2 PUSH1 0x0 DUP2 MLOAD DUP2 LT PUSH2 0xB88 JUMPI PUSH2 0xB88 PUSH2 0x234F JUMP JUMPDEST PUSH1 0x20 MUL PUSH1 0x20 ADD ADD DUP2 DUP2 MSTORE POP POP DUP2 PUSH2 0xBA0 JUMPI PUSH1 0x0 PUSH2 0xBA3 JUMP JUMPDEST PUSH1 0x1 JUMPDEST PUSH1 0xFF AND DUP2 PUSH1 0x1 DUP2 MLOAD DUP2 LT PUSH2 0xBB9 JUMPI PUSH2 0xBB9 PUSH2 0x234F JUMP JUMPDEST PUSH1 0x20 MUL PUSH1 0x20 ADD ADD DUP2 DUP2 MSTORE POP POP SWAP3 SWAP2 POP POP JUMP JUMPDEST DUP1 PUSH2 0xBE0 JUMPI PUSH2 0xBDB PUSH1 0x35 DUP4 PUSH2 0x10F1 JUMP JUMPDEST PUSH2 0xBEB JUMP JUMPDEST PUSH2 0xBEB PUSH1 0x35 DUP4 PUSH2 0x1113 JUMP JUMPDEST POP DUP2 PUSH20 0xFFFFFFFFFFFFFFFFFFFFFFFFFFFFFFFFFFFFFFFF AND PUSH32 0xFC4ACB499491CD850A8A21AB98C7F128850C0F0E5F1A875A62B7FA055C2ECF19 DUP3 PUSH1 0x40 MLOAD PUSH2 0xC36 SWAP2 ISZERO ISZERO DUP2 MSTORE PUSH1 0x20 ADD SWAP1 JUMP JUMPDEST PUSH1 0x40 MLOAD DUP1 SWAP2 SUB SWAP1 LOG2 POP POP JUMP JUMPDEST PUSH1 0x60 PUSH1 0x0 PUSH2 0x561 DUP4 PUSH2 0x1135 JUMP JUMPDEST PUSH1 0x60 PUSH2 0xC5A DUP3 PUSH2 0x1191 JUMP JUMPDEST PUSH2 0xCCD JUMPI PUSH1 0x40 DUP1 MLOAD PUSH1 0x0 DUP1 DUP3 MSTORE PUSH1 0x20 DUP3 ADD SWAP1 SWAP3 MSTORE SWAP1 PUSH2 0xCC6 JUMP JUMPDEST PUSH1 0x40 DUP1 MLOAD PUSH1 0x80 DUP2 ADD DUP3 MSTORE PUSH1 0x0 DUP1 DUP3 MSTORE PUSH1 0x20 DUP1 DUP4 ADD DUP3 SWAP1 MSTORE SWAP3 DUP3 ADD DUP2 SWAP1 MSTORE PUSH1 0x60 DUP3 ADD MSTORE DUP3 MSTORE PUSH32 0xFFFFFFFFFFFFFFFFFFFFFFFFFFFFFFFFFFFFFFFFFFFFFFFFFFFFFFFFFFFFFFFF SWAP1 SWAP3 ADD SWAP2 ADD DUP2 PUSH2 0xC74 JUMPI SWAP1 POP JUMPDEST POP SWAP3 SWAP2 POP POP JUMP JUMPDEST PUSH1 0x0 DUP1 DUP4 DUP1 PUSH1 0x20 ADD SWAP1 MLOAD DUP2 ADD SWAP1 PUSH2 0xCE4 SWAP2 SWAP1 PUSH2 0x25AB JUMP JUMPDEST SWAP2 POP SWAP2 POP PUSH1 0x0 DUP1 PUSH2 0xCFD PUSH2 0xCF7 DUP6 PUSH2 0x8EE JUMP JUMPDEST DUP5 PUSH2 0x1332 JUMP JUMPDEST SWAP1 SWAP3 POP SWAP1 POP PUSH1 0x0 DUP1 DUP3 PUSH1 0x4 DUP2 GT ISZERO PUSH2 0xD17 JUMPI PUSH2 0xD17 PUSH2 0x26B2 JUMP JUMPDEST EQ DUP1 ISZERO PUSH2 0xD28 JUMPI POP PUSH2 0xD28 DUP4 PUSH2 0x982 JUMP JUMPDEST SWAP1 POP DUP1 PUSH2 0xD79 JUMPI PUSH1 0x40 MLOAD PUSH32 0x9A74FC4800000000000000000000000000000000000000000000000000000000 DUP2 MSTORE PUSH20 0xFFFFFFFFFFFFFFFFFFFFFFFFFFFFFFFFFFFFFFFF DUP5 AND PUSH1 0x4 DUP3 ADD MSTORE PUSH1 0x24 ADD PUSH2 0x2A5 JUMP JUMPDEST POP SWAP3 SWAP6 SWAP5 POP POP POP POP POP JUMP JUMPDEST PUSH1 0x0 SLOAD PUSH2 0x100 SWAP1 DIV PUSH1 0xFF AND PUSH2 0xE1B JUMPI PUSH1 0x40 MLOAD PUSH32 0x8C379A000000000000000000000000000000000000000000000000000000000 DUP2 MSTORE PUSH1 0x20 PUSH1 0x4 DUP3 ADD MSTORE PUSH1 0x2B PUSH1 0x24 DUP3 ADD MSTORE PUSH32 0x496E697469616C697A61626C653A20636F6E7472616374206973206E6F742069 PUSH1 0x44 DUP3 ADD MSTORE PUSH32 0x6E697469616C697A696E67000000000000000000000000000000000000000000 PUSH1 0x64 DUP3 ADD MSTORE PUSH1 0x84 ADD PUSH2 0x2A5 JUMP JUMPDEST PUSH2 0xE23 PUSH2 0x1392 JUMP JUMPDEST PUSH2 0xE2C DUP5 PUSH2 0x1433 JUMP JUMPDEST PUSH2 0xE38 DUP5 DUP5 DUP5 DUP5 PUSH2 0x14D6 JUMP JUMPDEST POP POP POP POP JUMP JUMPDEST PUSH20 0xFFFFFFFFFFFFFFFFFFFFFFFFFFFFFFFFFFFFFFFF DUP1 DUP4 AND PUSH1 0x0 SWAP1 DUP2 MSTORE PUSH1 0x34 PUSH1 0x20 SWAP1 DUP2 MSTORE PUSH1 0x40 DUP1 DUP4 KECCAK256 DUP6 DUP6 AND DUP5 MSTORE SWAP1 SWAP2 MSTORE DUP2 KECCAK256 SLOAD SWAP1 SWAP2 DUP3 SWAP2 AND DUP1 ISZERO PUSH2 0xE90 JUMPI PUSH2 0xE86 DUP2 PUSH2 0x1638 JUMP JUMPDEST SWAP3 POP SWAP3 POP POP PUSH2 0xFC3 JUMP JUMPDEST PUSH20 0xFFFFFFFFFFFFFFFFFFFFFFFFFFFFFFFFFFFFFFFF DUP1 DUP6 AND PUSH1 0x0 SWAP1 DUP2 MSTORE PUSH1 0x34 PUSH1 0x20 SWAP1 DUP2 MSTORE PUSH1 0x40 DUP1 DUP4 KECCAK256 DUP10 DUP6 AND DUP5 MSTORE SWAP1 SWAP2 MSTORE SWAP1 KECCAK256 SLOAD AND DUP1 ISZERO PUSH2 0xEDF JUMPI PUSH2 0xED4 DUP2 PUSH2 0x1737 JUMP JUMPDEST SWAP4 POP SWAP4 POP POP POP PUSH2 0xFC3 JUMP JUMPDEST PUSH20 0xFFFFFFFFFFFFFFFFFFFFFFFFFFFFFFFFFFFFFFFF DUP1 DUP8 AND PUSH1 0x0 SWAP1 DUP2 MSTORE PUSH1 0x34 PUSH1 0x20 DUP2 DUP2 MSTORE PUSH1 0x40 DUP1 DUP5 KECCAK256 PUSH1 0x33 SLOAD DUP7 AND DUP1 DUP7 MSTORE SWAP1 DUP4 MSTORE DUP2 DUP6 KECCAK256 SLOAD DUP12 DUP8 AND DUP7 MSTORE SWAP4 DUP4 MSTORE DUP2 DUP6 KECCAK256 SWAP1 DUP6 MSTORE SWAP1 SWAP2 MSTORE SWAP1 SWAP2 KECCAK256 SLOAD SWAP1 DUP3 AND SWAP2 AND DUP2 ISZERO DUP1 ISZERO SWAP1 PUSH2 0xF55 JUMPI POP PUSH20 0xFFFFFFFFFFFFFFFFFFFFFFFFFFFFFFFFFFFFFFFF DUP2 AND ISZERO ISZERO JUMPDEST ISZERO PUSH2 0xF71 JUMPI PUSH2 0xF64 DUP3 DUP3 PUSH2 0x17CF JUMP JUMPDEST SWAP6 POP SWAP6 POP POP POP POP POP PUSH2 0xFC3 JUMP JUMPDEST PUSH1 0x40 MLOAD PUSH32 0xCB84D12B00000000000000000000000000000000000000000000000000000000 DUP2 MSTORE PUSH20 0xFFFFFFFFFFFFFFFFFFFFFFFFFFFFFFFFFFFFFFFF DUP1 DUP11 AND PUSH1 0x4 DUP4 ADD MSTORE DUP9 AND PUSH1 0x24 DUP3 ADD MSTORE PUSH1 0x44 ADD PUSH2 0x2A5 JUMP JUMPDEST SWAP3 POP SWAP3 SWAP1 POP JUMP JUMPDEST PUSH1 0x0 DUP3 DUP3 LT ISZERO PUSH2 0xFF8 JUMPI PUSH2 0xFDE DUP3 DUP5 PUSH2 0x241B JUMP JUMPDEST PUSH2 0xFE9 SWAP1 PUSH1 0xA PUSH2 0x2801 JUMP JUMPDEST PUSH2 0xFF3 SWAP1 DUP6 PUSH2 0x283C JUMP JUMPDEST PUSH2 0x1017 JUMP JUMPDEST PUSH2 0x1002 DUP4 DUP4 PUSH2 0x241B JUMP JUMPDEST PUSH2 0x100D SWAP1 PUSH1 0xA PUSH2 0x2801 JUMP JUMPDEST PUSH2 0x1017 SWAP1 DUP6 PUSH2 0x2877 JUMP JUMPDEST SWAP5 SWAP4 POP POP POP POP JUMP JUMPDEST PUSH20 0xFFFFFFFFFFFFFFFFFFFFFFFFFFFFFFFFFFFFFFFF DUP2 AND PUSH1 0x0 SWAP1 DUP2 MSTORE PUSH1 0x1 DUP4 ADD PUSH1 0x20 MSTORE PUSH1 0x40 DUP2 KECCAK256 SLOAD ISZERO ISZERO PUSH2 0x561 JUMP JUMPDEST PUSH1 0x0 DUP1 SLOAD PUSH1 0x40 MLOAD PUSH32 0x2852289500000000000000000000000000000000000000000000000000000000 DUP2 MSTORE PUSH3 0x10000 SWAP1 SWAP2 DIV PUSH20 0xFFFFFFFFFFFFFFFFFFFFFFFFFFFFFFFFFFFFFFFF AND SWAP1 PUSH4 0x28522895 SWAP1 PUSH2 0x10B0 SWAP1 DUP8 SWAP1 ADDRESS SWAP1 DUP9 SWAP1 DUP9 SWAP1 PUSH1 0x4 ADD PUSH2 0x288E JUMP JUMPDEST PUSH1 0x20 PUSH1 0x40 MLOAD DUP1 DUP4 SUB DUP2 DUP7 GAS STATICCALL ISZERO DUP1 ISZERO PUSH2 0x10CD JUMPI RETURNDATASIZE PUSH1 0x0 DUP1 RETURNDATACOPY RETURNDATASIZE PUSH1 0x0 REVERT JUMPDEST POP POP POP POP PUSH1 0x40 MLOAD RETURNDATASIZE PUSH1 0x1F NOT PUSH1 0x1F DUP3 ADD AND DUP3 ADD DUP1 PUSH1 0x40 MSTORE POP DUP2 ADD SWAP1 PUSH2 0x1017 SWAP2 SWAP1 PUSH2 0x28F9 JUMP JUMPDEST PUSH1 0x0 PUSH2 0x561 DUP4 PUSH20 0xFFFFFFFFFFFFFFFFFFFFFFFFFFFFFFFFFFFFFFFF DUP5 AND PUSH2 0x1876 JUMP JUMPDEST PUSH1 0x0 PUSH2 0x561 DUP4 PUSH20 0xFFFFFFFFFFFFFFFFFFFFFFFFFFFFFFFFFFFFFFFF DUP5 AND PUSH2 0x1969 JUMP JUMPDEST PUSH1 0x60 DUP2 PUSH1 0x0 ADD DUP1 SLOAD DUP1 PUSH1 0x20 MUL PUSH1 0x20 ADD PUSH1 0x40 MLOAD SWAP1 DUP2 ADD PUSH1 0x40 MSTORE DUP1 SWAP3 SWAP2 SWAP1 DUP2 DUP2 MSTORE PUSH1 0x20 ADD DUP3 DUP1 SLOAD DUP1 ISZERO PUSH2 0x1185 JUMPI PUSH1 0x20 MUL DUP3 ADD SWAP2 SWAP1 PUSH1 0x0 MSTORE PUSH1 0x20 PUSH1 0x0 KECCAK256 SWAP1 JUMPDEST DUP2 SLOAD DUP2 MSTORE PUSH1 0x20 ADD SWAP1 PUSH1 0x1 ADD SWAP1 DUP1 DUP4 GT PUSH2 0x1171 JUMPI JUMPDEST POP POP POP POP POP SWAP1 POP SWAP2 SWAP1 POP JUMP JUMPDEST PUSH1 0x0 DUP1 PUSH1 0xE0 SWAP1 POP DUP1 DUP4 MLOAD LT ISZERO PUSH2 0x11AA JUMPI POP PUSH1 0x0 SWAP3 SWAP2 POP POP JUMP JUMPDEST PUSH1 0x0 PUSH2 0x11B6 DUP5 DUP3 PUSH2 0x19B8 JUMP JUMPDEST SWAP1 POP DUP1 DUP5 MLOAD LT ISZERO PUSH2 0x11CB JUMPI POP PUSH1 0x0 SWAP4 SWAP3 POP POP POP JUMP JUMPDEST PUSH1 0x0 PUSH2 0x11D7 DUP6 DUP4 PUSH2 0x19B8 JUMP JUMPDEST SWAP1 POP PUSH2 0x11E4 DUP2 PUSH1 0x80 PUSH2 0x2877 JUMP JUMPDEST PUSH2 0x11EE SWAP1 DUP5 PUSH2 0x2408 JUMP JUMPDEST DUP6 MLOAD EQ PUSH2 0x1200 JUMPI POP PUSH1 0x0 SWAP5 SWAP4 POP POP POP POP JUMP JUMPDEST PUSH1 0x0 PUSH2 0x120D DUP7 PUSH1 0x20 PUSH2 0x19B8 JUMP JUMPDEST SWAP1 POP PUSH2 0x121A DUP3 PUSH1 0x80 PUSH2 0x2877 JUMP JUMPDEST PUSH2 0x1225 SWAP1 PUSH1 0x60 PUSH2 0x2408 JUMP JUMPDEST DUP2 EQ PUSH2 0x1237 JUMPI POP PUSH1 0x0 SWAP6 SWAP5 POP POP POP POP POP JUMP JUMPDEST PUSH1 0x0 PUSH2 0x1243 DUP8 DUP4 PUSH2 0x19B8 JUMP JUMPDEST SWAP1 POP DUP1 PUSH1 0x40 EQ ISZERO DUP1 ISZERO PUSH2 0x1257 JUMPI POP DUP1 PUSH1 0x41 EQ ISZERO JUMPDEST ISZERO PUSH2 0x1269 JUMPI POP PUSH1 0x0 SWAP7 SWAP6 POP POP POP POP POP POP JUMP JUMPDEST PUSH1 0x0 JUMPDEST DUP4 DUP2 LT ISZERO PUSH2 0x1324 JUMPI PUSH1 0x0 PUSH2 0x1281 DUP3 PUSH1 0x80 PUSH2 0x2877 JUMP JUMPDEST SWAP1 POP PUSH1 0x0 PUSH2 0x129A PUSH2 0x1293 DUP4 PUSH1 0x60 PUSH2 0x2408 JUMP JUMPDEST DUP12 SWAP1 PUSH2 0x19B8 JUMP JUMPDEST SWAP1 POP PUSH20 0xFFFFFFFFFFFFFFFFFFFFFFFFFFFFFFFFFFFFFFFF DUP2 GT ISZERO PUSH2 0x12C8 JUMPI POP PUSH1 0x0 SWAP10 SWAP9 POP POP POP POP POP POP POP POP POP JUMP JUMPDEST PUSH1 0x0 PUSH2 0x12DF PUSH2 0x12D8 DUP5 PUSH1 0x80 PUSH2 0x2408 JUMP JUMPDEST DUP13 SWAP1 PUSH2 0x19B8 JUMP JUMPDEST SWAP1 POP PUSH20 0xFFFFFFFFFFFFFFFFFFFFFFFFFFFFFFFFFFFFFFFF DUP2 GT ISZERO PUSH2 0x130E JUMPI POP PUSH1 0x0 SWAP11 SWAP10 POP POP POP POP POP POP POP POP POP POP JUMP JUMPDEST POP POP POP DUP1 DUP1 PUSH2 0x131C SWAP1 PUSH2 0x23AD JUMP JUMPDEST SWAP2 POP POP PUSH2 0x126C JUMP JUMPDEST POP PUSH1 0x1 SWAP8 SWAP7 POP POP POP POP POP POP POP JUMP JUMPDEST PUSH1 0x0 DUP1 DUP3 MLOAD PUSH1 0x41 SUB PUSH2 0x1368 JUMPI PUSH1 0x20 DUP4 ADD MLOAD PUSH1 0x40 DUP5 ADD MLOAD PUSH1 0x60 DUP6 ADD MLOAD PUSH1 0x0 BYTE PUSH2 0x135C DUP8 DUP3 DUP6 DUP6 PUSH2 0x1A15 JUMP JUMPDEST SWAP5 POP SWAP5 POP POP POP POP PUSH2 0xFC3 JUMP JUMPDEST DUP3 MLOAD PUSH1 0x40 SUB PUSH2 0x1386 JUMPI PUSH1 0x20 DUP4 ADD MLOAD PUSH1 0x40 DUP5 ADD MLOAD PUSH2 0xED4 DUP7 DUP4 DUP4 PUSH2 0x1B2D JUMP JUMPDEST POP PUSH1 0x0 SWAP1 POP PUSH1 0x2 PUSH2 0xFC3 JUMP JUMPDEST PUSH1 0x0 SLOAD PUSH2 0x100 SWAP1 DIV PUSH1 0xFF AND PUSH2 0x1429 JUMPI PUSH1 0x40 MLOAD PUSH32 0x8C379A000000000000000000000000000000000000000000000000000000000 DUP2 MSTORE PUSH1 0x20 PUSH1 0x4 DUP3 ADD MSTORE PUSH1 0x2B PUSH1 0x24 DUP3 ADD MSTORE PUSH32 0x496E697469616C697A61626C653A20636F6E7472616374206973206E6F742069 PUSH1 0x44 DUP3 ADD MSTORE PUSH32 0x6E697469616C697A696E67000000000000000000000000000000000000000000 PUSH1 0x64 DUP3 ADD MSTORE PUSH1 0x84 ADD PUSH2 0x2A5 JUMP JUMPDEST PUSH2 0x1431 PUSH2 0x1B7F JUMP JUMPDEST JUMP JUMPDEST PUSH1 0x0 SLOAD PUSH2 0x100 SWAP1 DIV PUSH1 0xFF AND PUSH2 0x14CA JUMPI PUSH1 0x40 MLOAD PUSH32 0x8C379A000000000000000000000000000000000000000000000000000000000 DUP2 MSTORE PUSH1 0x20 PUSH1 0x4 DUP3 ADD MSTORE PUSH1 0x2B PUSH1 0x24 DUP3 ADD MSTORE PUSH32 0x496E697469616C697A61626C653A20636F6E7472616374206973206E6F742069 PUSH1 0x44 DUP3 ADD MSTORE PUSH32 0x6E697469616C697A696E67000000000000000000000000000000000000000000 PUSH1 0x64 DUP3 ADD MSTORE PUSH1 0x84 ADD PUSH2 0x2A5 JUMP JUMPDEST PUSH2 0x14D3 DUP2 PUSH2 0x1C1C JUMP JUMPDEST POP JUMP JUMPDEST PUSH1 0x0 SLOAD PUSH2 0x100 SWAP1 DIV PUSH1 0xFF AND PUSH2 0x156D JUMPI PUSH1 0x40 MLOAD PUSH32 0x8C379A000000000000000000000000000000000000000000000000000000000 DUP2 MSTORE PUSH1 0x20 PUSH1 0x4 DUP3 ADD MSTORE PUSH1 0x2B PUSH1 0x24 DUP3 ADD MSTORE PUSH32 0x496E697469616C697A61626C653A20636F6E7472616374206973206E6F742069 PUSH1 0x44 DUP3 ADD MSTORE PUSH32 0x6E697469616C697A696E67000000000000000000000000000000000000000000 PUSH1 0x64 DUP3 ADD MSTORE PUSH1 0x84 ADD PUSH2 0x2A5 JUMP JUMPDEST PUSH2 0x1578 DUP4 PUSH1 0x1 PUSH2 0xBCB JUMP JUMPDEST PUSH1 0x33 DUP1 SLOAD PUSH32 0xFFFFFFFFFFFFFFFFFFFFFFFF0000000000000000000000000000000000000000 AND PUSH20 0xFFFFFFFFFFFFFFFFFFFFFFFFFFFFFFFFFFFFFFFF DUP5 AND OR SWAP1 SSTORE PUSH1 0x0 JUMPDEST DUP2 MLOAD DUP2 LT ISZERO PUSH2 0x6FB JUMPI PUSH2 0x1626 DUP3 DUP3 DUP2 MLOAD DUP2 LT PUSH2 0x15D9 JUMPI PUSH2 0x15D9 PUSH2 0x234F JUMP JUMPDEST PUSH1 0x20 MUL PUSH1 0x20 ADD ADD MLOAD PUSH1 0x0 ADD MLOAD DUP4 DUP4 DUP2 MLOAD DUP2 LT PUSH2 0x15F7 JUMPI PUSH2 0x15F7 PUSH2 0x234F JUMP JUMPDEST PUSH1 0x20 MUL PUSH1 0x20 ADD ADD MLOAD PUSH1 0x20 ADD MLOAD DUP5 DUP5 DUP2 MLOAD DUP2 LT PUSH2 0x1615 JUMPI PUSH2 0x1615 PUSH2 0x234F JUMP JUMPDEST PUSH1 0x20 MUL PUSH1 0x20 ADD ADD MLOAD PUSH1 0x40 ADD MLOAD PUSH2 0xAA6 JUMP JUMPDEST DUP1 PUSH2 0x1630 DUP2 PUSH2 0x23AD JUMP JUMPDEST SWAP2 POP POP PUSH2 0x15BB JUMP JUMPDEST PUSH1 0x0 DUP1 DUP3 PUSH20 0xFFFFFFFFFFFFFFFFFFFFFFFFFFFFFFFFFFFFFFFF AND PUSH4 0x313CE567 PUSH1 0x40 MLOAD DUP2 PUSH4 0xFFFFFFFF AND PUSH1 0xE0 SHL DUP2 MSTORE PUSH1 0x4 ADD PUSH1 0x20 PUSH1 0x40 MLOAD DUP1 DUP4 SUB DUP2 DUP7 GAS STATICCALL ISZERO DUP1 ISZERO PUSH2 0x1686 JUMPI RETURNDATASIZE PUSH1 0x0 DUP1 RETURNDATACOPY RETURNDATASIZE PUSH1 0x0 REVERT JUMPDEST POP POP POP POP PUSH1 0x40 MLOAD RETURNDATASIZE PUSH1 0x1F NOT PUSH1 0x1F DUP3 ADD AND DUP3 ADD DUP1 PUSH1 0x40 MSTORE POP DUP2 ADD SWAP1 PUSH2 0x16AA SWAP2 SWAP1 PUSH2 0x23E5 JUMP JUMPDEST PUSH1 0xFF AND SWAP1 POP PUSH1 0x0 DUP4 PUSH20 0xFFFFFFFFFFFFFFFFFFFFFFFFFFFFFFFFFFFFFFFF AND PUSH4 0xFEAF968C PUSH1 0x40 MLOAD DUP2 PUSH4 0xFFFFFFFF AND PUSH1 0xE0 SHL DUP2 MSTORE PUSH1 0x4 ADD PUSH1 0xA0 PUSH1 0x40 MLOAD DUP1 DUP4 SUB DUP2 DUP7 GAS STATICCALL ISZERO DUP1 ISZERO PUSH2 0x16FC JUMPI RETURNDATASIZE PUSH1 0x0 DUP1 RETURNDATACOPY RETURNDATASIZE PUSH1 0x0 REVERT JUMPDEST POP POP POP POP PUSH1 0x40 MLOAD RETURNDATASIZE PUSH1 0x1F NOT PUSH1 0x1F DUP3 ADD AND DUP3 ADD DUP1 PUSH1 0x40 MSTORE POP DUP2 ADD SWAP1 PUSH2 0x1720 SWAP2 SWAP1 PUSH2 0x2935 JUMP JUMPDEST POP POP POP SWAP2 POP POP PUSH2 0x172F DUP2 PUSH2 0x1D00 JUMP JUMPDEST SWAP3 POP POP SWAP2 POP SWAP2 JUMP JUMPDEST PUSH1 0x0 DUP1 PUSH1 0x0 DUP1 PUSH2 0x1746 DUP6 PUSH2 0x1638 JUMP JUMPDEST SWAP1 SWAP3 POP SWAP1 POP PUSH1 0x24 DUP2 GT DUP1 ISZERO PUSH2 0x17A6 JUMPI PUSH1 0x40 MLOAD PUSH32 0x6DD967AA00000000000000000000000000000000000000000000000000000000 DUP2 MSTORE PUSH20 0xFFFFFFFFFFFFFFFFFFFFFFFFFFFFFFFFFFFFFFFF DUP8 AND PUSH1 0x4 DUP3 ADD MSTORE PUSH1 0x24 DUP2 ADD DUP4 SWAP1 MSTORE PUSH1 0x44 ADD PUSH2 0x2A5 JUMP JUMPDEST PUSH2 0x17B8 PUSH8 0xDE0B6B3A7640000 DUP5 PUSH2 0x1D70 JUMP JUMPDEST SWAP5 POP PUSH2 0x17C5 DUP3 PUSH1 0x24 PUSH2 0x241B JUMP JUMPDEST SWAP4 POP POP POP POP SWAP2 POP SWAP2 JUMP JUMPDEST PUSH1 0x0 DUP1 PUSH1 0x0 DUP1 PUSH2 0x17DE DUP7 PUSH2 0x1638 JUMP JUMPDEST SWAP2 POP SWAP2 POP PUSH1 0x0 DUP1 PUSH2 0x17EE DUP8 PUSH2 0x1638 JUMP JUMPDEST SWAP1 SWAP3 POP SWAP1 POP PUSH1 0x0 PUSH2 0x1800 PUSH1 0x12 DUP6 PUSH2 0x2408 JUMP JUMPDEST DUP3 GT SWAP1 POP DUP1 ISZERO PUSH2 0x1846 JUMPI PUSH1 0x40 MLOAD PUSH32 0x46CD794E00000000000000000000000000000000000000000000000000000000 DUP2 MSTORE PUSH1 0x4 DUP2 ADD DUP4 SWAP1 MSTORE PUSH1 0x24 DUP2 ADD DUP6 SWAP1 MSTORE PUSH1 0x44 ADD PUSH2 0x2A5 JUMP JUMPDEST PUSH2 0x1850 DUP6 DUP5 PUSH2 0x1D70 JUMP JUMPDEST SWAP7 POP DUP2 PUSH2 0x185E PUSH1 0x12 DUP7 PUSH2 0x2408 JUMP JUMPDEST PUSH2 0x1868 SWAP2 SWAP1 PUSH2 0x241B JUMP JUMPDEST SWAP6 POP POP POP POP POP POP SWAP3 POP SWAP3 SWAP1 POP JUMP JUMPDEST PUSH1 0x0 DUP2 DUP2 MSTORE PUSH1 0x1 DUP4 ADD PUSH1 0x20 MSTORE PUSH1 0x40 DUP2 KECCAK256 SLOAD DUP1 ISZERO PUSH2 0x195F JUMPI PUSH1 0x0 PUSH2 0x189A PUSH1 0x1 DUP4 PUSH2 0x241B JUMP JUMPDEST DUP6 SLOAD SWAP1 SWAP2 POP PUSH1 0x0 SWAP1 PUSH2 0x18AE SWAP1 PUSH1 0x1 SWAP1 PUSH2 0x241B JUMP JUMPDEST SWAP1 POP DUP2 DUP2 EQ PUSH2 0x1913 JUMPI PUSH1 0x0 DUP7 PUSH1 0x0 ADD DUP3 DUP2 SLOAD DUP2 LT PUSH2 0x18CE JUMPI PUSH2 0x18CE PUSH2 0x234F JUMP JUMPDEST SWAP1 PUSH1 0x0 MSTORE PUSH1 0x20 PUSH1 0x0 KECCAK256 ADD SLOAD SWAP1 POP DUP1 DUP8 PUSH1 0x0 ADD DUP5 DUP2 SLOAD DUP2 LT PUSH2 0x18F1 JUMPI PUSH2 0x18F1 PUSH2 0x234F JUMP JUMPDEST PUSH1 0x0 SWAP2 DUP3 MSTORE PUSH1 0x20 DUP1 DUP4 KECCAK256 SWAP1 SWAP2 ADD SWAP3 SWAP1 SWAP3 SSTORE SWAP2 DUP3 MSTORE PUSH1 0x1 DUP9 ADD SWAP1 MSTORE PUSH1 0x40 SWAP1 KECCAK256 DUP4 SWAP1 SSTORE JUMPDEST DUP6 SLOAD DUP7 SWAP1 DUP1 PUSH2 0x1924 JUMPI PUSH2 0x1924 PUSH2 0x2985 JUMP JUMPDEST PUSH1 0x1 SWAP1 SUB DUP2 DUP2 SWAP1 PUSH1 0x0 MSTORE PUSH1 0x20 PUSH1 0x0 KECCAK256 ADD PUSH1 0x0 SWAP1 SSTORE SWAP1 SSTORE DUP6 PUSH1 0x1 ADD PUSH1 0x0 DUP7 DUP2 MSTORE PUSH1 0x20 ADD SWAP1 DUP2 MSTORE PUSH1 0x20 ADD PUSH1 0x0 KECCAK256 PUSH1 0x0 SWAP1 SSTORE PUSH1 0x1 SWAP4 POP POP POP POP PUSH2 0x8E8 JUMP JUMPDEST PUSH1 0x0 SWAP2 POP POP PUSH2 0x8E8 JUMP JUMPDEST PUSH1 0x0 DUP2 DUP2 MSTORE PUSH1 0x1 DUP4 ADD PUSH1 0x20 MSTORE PUSH1 0x40 DUP2 KECCAK256 SLOAD PUSH2 0x19B0 JUMPI POP DUP2 SLOAD PUSH1 0x1 DUP2 DUP2 ADD DUP5 SSTORE PUSH1 0x0 DUP5 DUP2 MSTORE PUSH1 0x20 DUP1 DUP3 KECCAK256 SWAP1 SWAP4 ADD DUP5 SWAP1 SSTORE DUP5 SLOAD DUP5 DUP3 MSTORE DUP3 DUP7 ADD SWAP1 SWAP4 MSTORE PUSH1 0x40 SWAP1 KECCAK256 SWAP2 SWAP1 SWAP2 SSTORE PUSH2 0x8E8 JUMP JUMPDEST POP PUSH1 0x0 PUSH2 0x8E8 JUMP JUMPDEST PUSH1 0x0 PUSH2 0x19C5 DUP3 PUSH1 0x20 PUSH2 0x2408 JUMP JUMPDEST DUP4 MLOAD LT ISZERO PUSH2 0x1A0C JUMPI DUP3 MLOAD PUSH1 0x40 MLOAD PUSH32 0x9B722DA700000000000000000000000000000000000000000000000000000000 DUP2 MSTORE PUSH2 0x2A5 SWAP2 DUP5 SWAP2 PUSH1 0x4 ADD SWAP2 DUP3 MSTORE PUSH1 0x20 DUP3 ADD MSTORE PUSH1 0x40 ADD SWAP1 JUMP JUMPDEST POP ADD PUSH1 0x20 ADD MLOAD SWAP1 JUMP JUMPDEST PUSH1 0x0 DUP1 PUSH32 0x7FFFFFFFFFFFFFFFFFFFFFFFFFFFFFFF5D576E7357A4501DDFE92F46681B20A0 DUP4 GT ISZERO PUSH2 0x1A4C JUMPI POP PUSH1 0x0 SWAP1 POP PUSH1 0x3 PUSH2 0x1B24 JUMP JUMPDEST DUP5 PUSH1 0xFF AND PUSH1 0x1B EQ ISZERO DUP1 ISZERO PUSH2 0x1A64 JUMPI POP DUP5 PUSH1 0xFF AND PUSH1 0x1C EQ ISZERO JUMPDEST ISZERO PUSH2 0x1A75 JUMPI POP PUSH1 0x0 SWAP1 POP PUSH1 0x4 PUSH2 0x1B24 JUMP JUMPDEST PUSH1 0x40 DUP1 MLOAD PUSH1 0x0 DUP1 DUP3 MSTORE PUSH1 0x20 DUP3 ADD DUP1 DUP5 MSTORE DUP10 SWAP1 MSTORE PUSH1 0xFF DUP9 AND SWAP3 DUP3 ADD SWAP3 SWAP1 SWAP3 MSTORE PUSH1 0x60 DUP2 ADD DUP7 SWAP1 MSTORE PUSH1 0x80 DUP2 ADD DUP6 SWAP1 MSTORE PUSH1 0x1 SWAP1 PUSH1 0xA0 ADD PUSH1 0x20 PUSH1 0x40 MLOAD PUSH1 0x20 DUP2 SUB SWAP1 DUP1 DUP5 SUB SWAP1 DUP6 GAS STATICCALL ISZERO DUP1 ISZERO PUSH2 0x1AC9 JUMPI RETURNDATASIZE PUSH1 0x0 DUP1 RETURNDATACOPY RETURNDATASIZE PUSH1 0x0 REVERT JUMPDEST POP POP PUSH1 0x40 MLOAD PUSH32 0xFFFFFFFFFFFFFFFFFFFFFFFFFFFFFFFFFFFFFFFFFFFFFFFFFFFFFFFFFFFFFFE0 ADD MLOAD SWAP2 POP POP PUSH20 0xFFFFFFFFFFFFFFFFFFFFFFFFFFFFFFFFFFFFFFFF DUP2 AND PUSH2 0x1B1D JUMPI PUSH1 0x0 PUSH1 0x1 SWAP3 POP SWAP3 POP POP PUSH2 0x1B24 JUMP JUMPDEST SWAP2 POP PUSH1 0x0 SWAP1 POP JUMPDEST SWAP5 POP SWAP5 SWAP3 POP POP POP JUMP JUMPDEST PUSH1 0x0 DUP1 PUSH32 0x7FFFFFFFFFFFFFFFFFFFFFFFFFFFFFFFFFFFFFFFFFFFFFFFFFFFFFFFFFFFFFFF DUP4 AND DUP2 PUSH2 0x1B63 PUSH1 0xFF DUP7 SWAP1 SHR PUSH1 0x1B PUSH2 0x2408 JUMP JUMPDEST SWAP1 POP PUSH2 0x1B71 DUP8 DUP3 DUP9 DUP6 PUSH2 0x1A15 JUMP JUMPDEST SWAP4 POP SWAP4 POP POP POP SWAP4 POP SWAP4 SWAP2 POP POP JUMP JUMPDEST PUSH1 0x0 SLOAD PUSH2 0x100 SWAP1 DIV PUSH1 0xFF AND PUSH2 0x1C16 JUMPI PUSH1 0x40 MLOAD PUSH32 0x8C379A000000000000000000000000000000000000000000000000000000000 DUP2 MSTORE PUSH1 0x20 PUSH1 0x4 DUP3 ADD MSTORE PUSH1 0x2B PUSH1 0x24 DUP3 ADD MSTORE PUSH32 0x496E697469616C697A61626C653A20636F6E7472616374206973206E6F742069 PUSH1 0x44 DUP3 ADD MSTORE PUSH32 0x6E697469616C697A696E67000000000000000000000000000000000000000000 PUSH1 0x64 DUP3 ADD MSTORE PUSH1 0x84 ADD PUSH2 0x2A5 JUMP JUMPDEST PUSH1 0x1 DUP1 SSTORE JUMP JUMPDEST PUSH1 0x0 SLOAD PUSH2 0x100 SWAP1 DIV PUSH1 0xFF AND PUSH2 0x1CB3 JUMPI PUSH1 0x40 MLOAD PUSH32 0x8C379A000000000000000000000000000000000000000000000000000000000 DUP2 MSTORE PUSH1 0x20 PUSH1 0x4 DUP3 ADD MSTORE PUSH1 0x2B PUSH1 0x24 DUP3 ADD MSTORE PUSH32 0x496E697469616C697A61626C653A20636F6E7472616374206973206E6F742069 PUSH1 0x44 DUP3 ADD MSTORE PUSH32 0x6E697469616C697A696E67000000000000000000000000000000000000000000 PUSH1 0x64 DUP3 ADD MSTORE PUSH1 0x84 ADD PUSH2 0x2A5 JUMP JUMPDEST PUSH1 0x0 DUP1 SLOAD PUSH20 0xFFFFFFFFFFFFFFFFFFFFFFFFFFFFFFFFFFFFFFFF SWAP1 SWAP3 AND PUSH3 0x10000 MUL PUSH32 0xFFFFFFFFFFFFFFFFFFFF0000000000000000000000000000000000000000FFFF SWAP1 SWAP3 AND SWAP2 SWAP1 SWAP2 OR SWAP1 SSTORE JUMP JUMPDEST PUSH1 0x0 DUP1 DUP3 SLT ISZERO PUSH2 0x1D6C JUMPI PUSH1 0x40 MLOAD PUSH32 0x8C379A000000000000000000000000000000000000000000000000000000000 DUP2 MSTORE PUSH1 0x20 PUSH1 0x4 DUP3 ADD DUP2 SWAP1 MSTORE PUSH1 0x24 DUP3 ADD MSTORE PUSH32 0x53616665436173743A2076616C7565206D75737420626520706F736974697665 PUSH1 0x44 DUP3 ADD MSTORE PUSH1 0x64 ADD PUSH2 0x2A5 JUMP JUMPDEST POP SWAP1 JUMP JUMPDEST PUSH1 0x0 DUP2 PUSH1 0x0 SUB PUSH2 0x1DAC JUMPI PUSH1 0x40 MLOAD PUSH32 0xB8A2F92100000000000000000000000000000000000000000000000000000000 DUP2 MSTORE PUSH1 0x4 ADD PUSH1 0x40 MLOAD DUP1 SWAP2 SUB SWAP1 REVERT JUMPDEST DUP3 PUSH1 0x0 SUB PUSH2 0x1DBC JUMPI POP PUSH1 0x0 PUSH2 0x8E8 JUMP JUMPDEST PUSH8 0xDE0B6B3A7640000 DUP4 DUP2 MUL SWAP1 DUP5 DUP3 DUP2 PUSH2 0x1DD8 JUMPI PUSH2 0x1DD8 PUSH2 0x280D JUMP JUMPDEST DIV EQ PUSH2 0x1E1A JUMPI PUSH1 0x40 MLOAD PUSH32 0xEA7B49E600000000000000000000000000000000000000000000000000000000 DUP2 MSTORE PUSH1 0x4 DUP2 ADD DUP6 SWAP1 MSTORE PUSH1 0x24 DUP2 ADD DUP3 SWAP1 MSTORE PUSH1 0x44 ADD PUSH2 0x2A5 JUMP JUMPDEST DUP3 DUP2 DUP2 PUSH2 0x1E29 JUMPI PUSH2 0x1E29 PUSH2 0x280D JUMP JUMPDEST DIV SWAP5 SWAP4 POP POP POP POP JUMP JUMPDEST PUSH20 0xFFFFFFFFFFFFFFFFFFFFFFFFFFFFFFFFFFFFFFFF DUP2 AND DUP2 EQ PUSH2 0x14D3 JUMPI PUSH1 0x0 DUP1 REVERT JUMPDEST PUSH1 0x0 DUP1 PUSH1 0x0 PUSH1 0x60 DUP5 DUP7 SUB SLT ISZERO PUSH2 0x1E69 JUMPI PUSH1 0x0 DUP1 REVERT JUMPDEST DUP4 CALLDATALOAD PUSH2 0x1E74 DUP2 PUSH2 0x1E32 JUMP JUMPDEST SWAP3 POP PUSH1 0x20 DUP5 ADD CALLDATALOAD PUSH2 0x1E84 DUP2 PUSH2 0x1E32 JUMP JUMPDEST SWAP2 POP PUSH1 0x40 DUP5 ADD CALLDATALOAD PUSH2 0x1E94 DUP2 PUSH2 0x1E32 JUMP JUMPDEST DUP1 SWAP2 POP POP SWAP3 POP SWAP3 POP SWAP3 JUMP JUMPDEST DUP1 ISZERO ISZERO DUP2 EQ PUSH2 0x14D3 JUMPI PUSH1 0x0 DUP1 REVERT JUMPDEST PUSH1 0x0 DUP1 PUSH1 0x40 DUP4 DUP6 SUB SLT ISZERO PUSH2 0x1EC0 JUMPI PUSH1 0x0 DUP1 REVERT JUMPDEST DUP3 CALLDATALOAD PUSH2 0x1ECB DUP2 PUSH2 0x1E32 JUMP JUMPDEST SWAP2 POP PUSH1 0x20 DUP4 ADD CALLDATALOAD PUSH2 0x1EDB DUP2 PUSH2 0x1E9F JUMP JUMPDEST DUP1 SWAP2 POP POP SWAP3 POP SWAP3 SWAP1 POP JUMP JUMPDEST PUSH1 0x20 DUP1 DUP3 MSTORE DUP3 MLOAD DUP3 DUP3 ADD DUP2 SWAP1 MSTORE PUSH1 0x0 SWAP2 SWAP1 DUP5 DUP3 ADD SWAP1 PUSH1 0x40 DUP6 ADD SWAP1 DUP5 JUMPDEST DUP2 DUP2 LT ISZERO PUSH2 0x1F34 JUMPI DUP4 MLOAD PUSH20 0xFFFFFFFFFFFFFFFFFFFFFFFFFFFFFFFFFFFFFFFF AND DUP4 MSTORE SWAP3 DUP5 ADD SWAP3 SWAP2 DUP5 ADD SWAP2 PUSH1 0x1 ADD PUSH2 0x1F02 JUMP JUMPDEST POP SWAP1 SWAP7 SWAP6 POP POP POP POP POP POP JUMP JUMPDEST PUSH32 0x4E487B7100000000000000000000000000000000000000000000000000000000 PUSH1 0x0 MSTORE PUSH1 0x41 PUSH1 0x4 MSTORE PUSH1 0x24 PUSH1 0x0 REVERT JUMPDEST PUSH1 0x40 MLOAD PUSH1 0x60 DUP2 ADD PUSH8 0xFFFFFFFFFFFFFFFF DUP2 GT DUP3 DUP3 LT OR ISZERO PUSH2 0x1F92 JUMPI PUSH2 0x1F92 PUSH2 0x1F40 JUMP JUMPDEST PUSH1 0x40 MSTORE SWAP1 JUMP JUMPDEST PUSH1 0x40 MLOAD PUSH1 0x80 DUP2 ADD PUSH8 0xFFFFFFFFFFFFFFFF DUP2 GT DUP3 DUP3 LT OR ISZERO PUSH2 0x1F92 JUMPI PUSH2 0x1F92 PUSH2 0x1F40 JUMP JUMPDEST PUSH1 0x40 MLOAD PUSH1 0x1F DUP3 ADD PUSH32 0xFFFFFFFFFFFFFFFFFFFFFFFFFFFFFFFFFFFFFFFFFFFFFFFFFFFFFFFFFFFFFFE0 AND DUP2 ADD PUSH8 0xFFFFFFFFFFFFFFFF DUP2 GT DUP3 DUP3 LT OR ISZERO PUSH2 0x2002 JUMPI PUSH2 0x2002 PUSH2 0x1F40 JUMP JUMPDEST PUSH1 0x40 MSTORE SWAP2 SWAP1 POP JUMP JUMPDEST PUSH1 0x0 PUSH8 0xFFFFFFFFFFFFFFFF DUP3 GT ISZERO PUSH2 0x2024 JUMPI PUSH2 0x2024 PUSH2 0x1F40 JUMP JUMPDEST POP PUSH1 0x1F ADD PUSH32 0xFFFFFFFFFFFFFFFFFFFFFFFFFFFFFFFFFFFFFFFFFFFFFFFFFFFFFFFFFFFFFFE0 AND PUSH1 0x20 ADD SWAP1 JUMP JUMPDEST PUSH1 0x0 DUP1 PUSH1 0x0 PUSH1 0x60 DUP5 DUP7 SUB SLT ISZERO PUSH2 0x2065 JUMPI PUSH1 0x0 DUP1 REVERT JUMPDEST DUP4 CALLDATALOAD PUSH2 0x2070 DUP2 PUSH2 0x1E32 JUMP JUMPDEST SWAP3 POP PUSH1 0x20 DUP5 ADD CALLDATALOAD PUSH2 0x2080 DUP2 PUSH2 0x1E32 JUMP JUMPDEST SWAP2 POP PUSH1 0x40 DUP5 ADD CALLDATALOAD PUSH8 0xFFFFFFFFFFFFFFFF DUP2 GT ISZERO PUSH2 0x209C JUMPI PUSH1 0x0 DUP1 REVERT JUMPDEST DUP5 ADD PUSH1 0x1F DUP2 ADD DUP7 SGT PUSH2 0x20AD JUMPI PUSH1 0x0 DUP1 REVERT JUMPDEST DUP1 CALLDATALOAD PUSH2 0x20C0 PUSH2 0x20BB DUP3 PUSH2 0x200A JUMP JUMPDEST PUSH2 0x1FBB JUMP JUMPDEST DUP2 DUP2 MSTORE DUP8 PUSH1 0x20 DUP4 DUP6 ADD ADD GT ISZERO PUSH2 0x20D5 JUMPI PUSH1 0x0 DUP1 REVERT JUMPDEST DUP2 PUSH1 0x20 DUP5 ADD PUSH1 0x20 DUP4 ADD CALLDATACOPY PUSH1 0x0 PUSH1 0x20 DUP4 DUP4 ADD ADD MSTORE DUP1 SWAP4 POP POP POP POP SWAP3 POP SWAP3 POP SWAP3 JUMP JUMPDEST PUSH1 0x0 PUSH8 0xFFFFFFFFFFFFFFFF DUP3 GT ISZERO PUSH2 0x210F JUMPI PUSH2 0x210F PUSH2 0x1F40 JUMP JUMPDEST POP PUSH1 0x5 SHL PUSH1 0x20 ADD SWAP1 JUMP JUMPDEST PUSH1 0x0 DUP1 PUSH1 0x0 DUP1 PUSH1 0x80 DUP6 DUP8 SUB SLT ISZERO PUSH2 0x212F JUMPI PUSH1 0x0 DUP1 REVERT JUMPDEST DUP5 CALLDATALOAD PUSH2 0x213A DUP2 PUSH2 0x1E32 JUMP JUMPDEST SWAP4 POP PUSH1 0x20 DUP6 DUP2 ADD CALLDATALOAD PUSH2 0x214B DUP2 PUSH2 0x1E32 JUMP JUMPDEST SWAP4 POP PUSH1 0x40 DUP7 DUP2 ADD CALLDATALOAD PUSH2 0x215C DUP2 PUSH2 0x1E32 JUMP JUMPDEST SWAP4 POP PUSH1 0x60 DUP8 DUP2 ADD CALLDATALOAD PUSH8 0xFFFFFFFFFFFFFFFF DUP2 GT ISZERO PUSH2 0x2179 JUMPI PUSH1 0x0 DUP1 REVERT JUMPDEST DUP9 ADD PUSH1 0x1F DUP2 ADD DUP11 SGT PUSH2 0x218A JUMPI PUSH1 0x0 DUP1 REVERT JUMPDEST DUP1 CALLDATALOAD PUSH2 0x2198 PUSH2 0x20BB DUP3 PUSH2 0x20F5 JUMP JUMPDEST DUP2 DUP2 MSTORE SWAP1 DUP4 MUL DUP3 ADD DUP6 ADD SWAP1 DUP6 DUP2 ADD SWAP1 DUP13 DUP4 GT ISZERO PUSH2 0x21B4 JUMPI PUSH1 0x0 DUP1 REVERT JUMPDEST SWAP3 DUP7 ADD SWAP3 JUMPDEST DUP3 DUP5 LT ISZERO PUSH2 0x2217 JUMPI DUP5 DUP5 DUP15 SUB SLT ISZERO PUSH2 0x21D1 JUMPI PUSH1 0x0 DUP1 DUP2 REVERT JUMPDEST PUSH2 0x21D9 PUSH2 0x1F6F JUMP JUMPDEST DUP5 CALLDATALOAD PUSH2 0x21E4 DUP2 PUSH2 0x1E32 JUMP JUMPDEST DUP2 MSTORE DUP5 DUP9 ADD CALLDATALOAD PUSH2 0x21F3 DUP2 PUSH2 0x1E32 JUMP JUMPDEST DUP2 DUP10 ADD MSTORE DUP5 DUP8 ADD CALLDATALOAD PUSH2 0x2204 DUP2 PUSH2 0x1E32 JUMP JUMPDEST DUP2 DUP9 ADD MSTORE DUP3 MSTORE SWAP3 DUP5 ADD SWAP3 SWAP1 DUP7 ADD SWAP1 PUSH2 0x21B9 JUMP JUMPDEST SWAP10 SWAP13 SWAP9 SWAP12 POP SWAP7 SWAP10 POP POP POP POP POP POP POP POP JUMP JUMPDEST PUSH1 0x0 DUP1 PUSH1 0x40 DUP4 DUP6 SUB SLT ISZERO PUSH2 0x223B JUMPI PUSH1 0x0 DUP1 REVERT JUMPDEST DUP3 CALLDATALOAD PUSH2 0x2246 DUP2 PUSH2 0x1E32 JUMP JUMPDEST SWAP2 POP PUSH1 0x20 DUP4 ADD CALLDATALOAD PUSH2 0x1EDB DUP2 PUSH2 0x1E32 JUMP JUMPDEST PUSH1 0x0 PUSH1 0x20 DUP1 DUP4 DUP6 SUB SLT ISZERO PUSH2 0x2269 JUMPI PUSH1 0x0 DUP1 REVERT JUMPDEST DUP3 CALLDATALOAD PUSH8 0xFFFFFFFFFFFFFFFF DUP2 GT ISZERO PUSH2 0x2280 JUMPI PUSH1 0x0 DUP1 REVERT JUMPDEST DUP4 ADD PUSH1 0x1F DUP2 ADD DUP6 SGT PUSH2 0x2291 JUMPI PUSH1 0x0 DUP1 REVERT JUMPDEST DUP1 CALLDATALOAD PUSH2 0x229F PUSH2 0x20BB DUP3 PUSH2 0x20F5 JUMP JUMPDEST DUP2 DUP2 MSTORE PUSH1 0x7 SWAP2 SWAP1 SWAP2 SHL DUP3 ADD DUP4 ADD SWAP1 DUP4 DUP2 ADD SWAP1 DUP8 DUP4 GT ISZERO PUSH2 0x22BE JUMPI PUSH1 0x0 DUP1 REVERT JUMPDEST SWAP3 DUP5 ADD SWAP3 JUMPDEST DUP3 DUP5 LT ISZERO PUSH2 0x2327 JUMPI PUSH1 0x80 DUP5 DUP10 SUB SLT ISZERO PUSH2 0x22DC JUMPI PUSH1 0x0 DUP1 DUP2 REVERT JUMPDEST PUSH2 0x22E4 PUSH2 0x1F98 JUMP JUMPDEST DUP5 CALLDATALOAD PUSH2 0x22EF DUP2 PUSH2 0x1E32 JUMP JUMPDEST DUP2 MSTORE DUP5 DUP7 ADD CALLDATALOAD PUSH2 0x22FE DUP2 PUSH2 0x1E32 JUMP JUMPDEST DUP2 DUP8 ADD MSTORE PUSH1 0x40 DUP6 DUP2 ADD CALLDATALOAD SWAP1 DUP3 ADD MSTORE PUSH1 0x60 DUP1 DUP7 ADD CALLDATALOAD SWAP1 DUP3 ADD MSTORE DUP3 MSTORE PUSH1 0x80 SWAP1 SWAP4 ADD SWAP3 SWAP1 DUP5 ADD SWAP1 PUSH2 0x22C3 JUMP JUMPDEST SWAP8 SWAP7 POP POP POP POP POP POP POP JUMP JUMPDEST PUSH1 0x0 PUSH1 0x20 DUP3 DUP5 SUB SLT ISZERO PUSH2 0x2344 JUMPI PUSH1 0x0 DUP1 REVERT JUMPDEST DUP2 CALLDATALOAD PUSH2 0x561 DUP2 PUSH2 0x1E32 JUMP JUMPDEST PUSH32 0x4E487B7100000000000000000000000000000000000000000000000000000000 PUSH1 0x0 MSTORE PUSH1 0x32 PUSH1 0x4 MSTORE PUSH1 0x24 PUSH1 0x0 REVERT JUMPDEST PUSH32 0x4E487B7100000000000000000000000000000000000000000000000000000000 PUSH1 0x0 MSTORE PUSH1 0x11 PUSH1 0x4 MSTORE PUSH1 0x24 PUSH1 0x0 REVERT JUMPDEST PUSH1 0x0 PUSH32 0xFFFFFFFFFFFFFFFFFFFFFFFFFFFFFFFFFFFFFFFFFFFFFFFFFFFFFFFFFFFFFFFF DUP3 SUB PUSH2 0x23DE JUMPI PUSH2 0x23DE PUSH2 0x237E JUMP JUMPDEST POP PUSH1 0x1 ADD SWAP1 JUMP JUMPDEST PUSH1 0x0 PUSH1 0x20 DUP3 DUP5 SUB SLT ISZERO PUSH2 0x23F7 JUMPI PUSH1 0x0 DUP1 REVERT JUMPDEST DUP2 MLOAD PUSH1 0xFF DUP2 AND DUP2 EQ PUSH2 0x561 JUMPI PUSH1 0x0 DUP1 REVERT JUMPDEST DUP1 DUP3 ADD DUP1 DUP3 GT ISZERO PUSH2 0x8E8 JUMPI PUSH2 0x8E8 PUSH2 0x237E JUMP JUMPDEST DUP2 DUP2 SUB DUP2 DUP2 GT ISZERO PUSH2 0x8E8 JUMPI PUSH2 0x8E8 PUSH2 0x237E JUMP JUMPDEST PUSH1 0x20 DUP1 DUP3 MSTORE DUP3 MLOAD DUP3 DUP3 ADD DUP2 SWAP1 MSTORE PUSH1 0x0 SWAP2 SWAP1 PUSH1 0x40 SWAP1 DUP2 DUP6 ADD SWAP1 DUP7 DUP5 ADD DUP6 JUMPDEST DUP3 DUP2 LT ISZERO PUSH2 0x249E JUMPI DUP2 MLOAD DUP1 MLOAD PUSH20 0xFFFFFFFFFFFFFFFFFFFFFFFFFFFFFFFFFFFFFFFF SWAP1 DUP2 AND DUP7 MSTORE DUP8 DUP3 ADD MLOAD AND DUP8 DUP7 ADD MSTORE DUP6 DUP2 ADD MLOAD DUP7 DUP7 ADD MSTORE PUSH1 0x60 SWAP1 DUP2 ADD MLOAD SWAP1 DUP6 ADD MSTORE PUSH1 0x80 SWAP1 SWAP4 ADD SWAP3 SWAP1 DUP6 ADD SWAP1 PUSH1 0x1 ADD PUSH2 0x244B JUMP JUMPDEST POP SWAP2 SWAP8 SWAP7 POP POP POP POP POP POP POP JUMP JUMPDEST PUSH1 0x0 DUP2 MLOAD DUP1 DUP5 MSTORE PUSH1 0x20 DUP1 DUP6 ADD SWAP5 POP DUP1 DUP5 ADD PUSH1 0x0 JUMPDEST DUP4 DUP2 LT ISZERO PUSH2 0x24DB JUMPI DUP2 MLOAD DUP8 MSTORE SWAP6 DUP3 ADD SWAP6 SWAP1 DUP3 ADD SWAP1 PUSH1 0x1 ADD PUSH2 0x24BF JUMP JUMPDEST POP SWAP5 SWAP6 SWAP5 POP POP POP POP POP JUMP JUMPDEST PUSH20 0xFFFFFFFFFFFFFFFFFFFFFFFFFFFFFFFFFFFFFFFF DUP5 AND DUP2 MSTORE PUSH32 0xFFFFFFFF00000000000000000000000000000000000000000000000000000000 DUP4 AND PUSH1 0x20 DUP3 ADD MSTORE PUSH1 0x60 PUSH1 0x40 DUP3 ADD MSTORE PUSH1 0x0 PUSH2 0x253D PUSH1 0x60 DUP4 ADD DUP5 PUSH2 0x24AB JUMP JUMPDEST SWAP6 SWAP5 POP POP POP POP POP JUMP JUMPDEST PUSH1 0x0 DUP3 PUSH1 0x1F DUP4 ADD SLT PUSH2 0x2557 JUMPI PUSH1 0x0 DUP1 REVERT JUMPDEST DUP2 MLOAD PUSH2 0x2565 PUSH2 0x20BB DUP3 PUSH2 0x200A JUMP JUMPDEST DUP2 DUP2 MSTORE PUSH1 0x20 DUP6 DUP2 DUP5 DUP8 ADD ADD GT ISZERO PUSH2 0x257B JUMPI PUSH1 0x0 DUP1 REVERT JUMPDEST PUSH1 0x0 JUMPDEST DUP4 DUP2 LT ISZERO PUSH2 0x2599 JUMPI DUP6 DUP2 ADD DUP3 ADD MLOAD DUP4 DUP3 ADD DUP4 ADD MSTORE DUP2 ADD PUSH2 0x257E JUMP JUMPDEST POP PUSH1 0x0 SWAP3 DUP3 ADD ADD SWAP2 SWAP1 SWAP2 MSTORE SWAP4 SWAP3 POP POP POP JUMP JUMPDEST PUSH1 0x0 DUP1 PUSH1 0x40 DUP1 DUP5 DUP7 SUB SLT ISZERO PUSH2 0x25BF JUMPI PUSH1 0x0 DUP1 REVERT JUMPDEST DUP4 MLOAD PUSH8 0xFFFFFFFFFFFFFFFF DUP1 DUP3 GT ISZERO PUSH2 0x25D7 JUMPI PUSH1 0x0 DUP1 REVERT JUMPDEST DUP2 DUP7 ADD SWAP2 POP DUP7 PUSH1 0x1F DUP4 ADD SLT PUSH2 0x25EB JUMPI PUSH1 0x0 DUP1 REVERT JUMPDEST DUP2 MLOAD PUSH1 0x20 PUSH2 0x25FB PUSH2 0x20BB DUP4 PUSH2 0x20F5 JUMP JUMPDEST DUP3 DUP2 MSTORE PUSH1 0x7 SWAP3 SWAP1 SWAP3 SHL DUP5 ADD DUP2 ADD SWAP2 DUP2 DUP2 ADD SWAP1 DUP11 DUP5 GT ISZERO PUSH2 0x261A JUMPI PUSH1 0x0 DUP1 REVERT JUMPDEST SWAP5 DUP3 ADD SWAP5 JUMPDEST DUP4 DUP7 LT ISZERO PUSH2 0x2681 JUMPI PUSH1 0x80 DUP7 DUP13 SUB SLT ISZERO PUSH2 0x2638 JUMPI PUSH1 0x0 DUP1 DUP2 REVERT JUMPDEST PUSH2 0x2640 PUSH2 0x1F98 JUMP JUMPDEST DUP7 MLOAD PUSH2 0x264B DUP2 PUSH2 0x1E32 JUMP JUMPDEST DUP2 MSTORE DUP7 DUP5 ADD MLOAD PUSH2 0x265A DUP2 PUSH2 0x1E32 JUMP JUMPDEST DUP2 DUP6 ADD MSTORE DUP7 DUP9 ADD MLOAD DUP9 DUP3 ADD MSTORE PUSH1 0x60 DUP1 DUP9 ADD MLOAD SWAP1 DUP3 ADD MSTORE DUP3 MSTORE PUSH1 0x80 SWAP1 SWAP6 ADD SWAP5 SWAP1 DUP3 ADD SWAP1 PUSH2 0x261F JUMP JUMPDEST SWAP2 DUP10 ADD MLOAD SWAP2 SWAP8 POP SWAP1 SWAP5 POP POP POP DUP1 DUP4 GT ISZERO PUSH2 0x269A JUMPI PUSH1 0x0 DUP1 REVERT JUMPDEST POP POP PUSH2 0x26A8 DUP6 DUP3 DUP7 ADD PUSH2 0x2546 JUMP JUMPDEST SWAP2 POP POP SWAP3 POP SWAP3 SWAP1 POP JUMP JUMPDEST PUSH32 0x4E487B7100000000000000000000000000000000000000000000000000000000 PUSH1 0x0 MSTORE PUSH1 0x21 PUSH1 0x4 MSTORE PUSH1 0x24 PUSH1 0x0 REVERT JUMPDEST PUSH1 0x1 DUP2 DUP2 JUMPDEST DUP1 DUP6 GT ISZERO PUSH2 0x273A JUMPI DUP2 PUSH32 0xFFFFFFFFFFFFFFFFFFFFFFFFFFFFFFFFFFFFFFFFFFFFFFFFFFFFFFFFFFFFFFFF DIV DUP3 GT ISZERO PUSH2 0x2720 JUMPI PUSH2 0x2720 PUSH2 0x237E JUMP JUMPDEST DUP1 DUP6 AND ISZERO PUSH2 0x272D JUMPI SWAP2 DUP2 MUL SWAP2 JUMPDEST SWAP4 DUP5 SHR SWAP4 SWAP1 DUP1 MUL SWAP1 PUSH2 0x26E6 JUMP JUMPDEST POP SWAP3 POP SWAP3 SWAP1 POP JUMP JUMPDEST PUSH1 0x0 DUP3 PUSH2 0x2751 JUMPI POP PUSH1 0x1 PUSH2 0x8E8 JUMP JUMPDEST DUP2 PUSH2 0x275E JUMPI POP PUSH1 0x0 PUSH2 0x8E8 JUMP JUMPDEST DUP2 PUSH1 0x1 DUP2 EQ PUSH2 0x2774 JUMPI PUSH1 0x2 DUP2 EQ PUSH2 0x277E JUMPI PUSH2 0x279A JUMP JUMPDEST PUSH1 0x1 SWAP2 POP POP PUSH2 0x8E8 JUMP JUMPDEST PUSH1 0xFF DUP5 GT ISZERO PUSH2 0x278F JUMPI PUSH2 0x278F PUSH2 0x237E JUMP JUMPDEST POP POP PUSH1 0x1 DUP3 SHL PUSH2 0x8E8 JUMP JUMPDEST POP PUSH1 0x20 DUP4 LT PUSH2 0x133 DUP4 LT AND PUSH1 0x4E DUP5 LT PUSH1 0xB DUP5 LT AND OR ISZERO PUSH2 0x27BD JUMPI POP DUP2 DUP2 EXP PUSH2 0x8E8 JUMP JUMPDEST PUSH2 0x27C7 DUP4 DUP4 PUSH2 0x26E1 JUMP JUMPDEST DUP1 PUSH32 0xFFFFFFFFFFFFFFFFFFFFFFFFFFFFFFFFFFFFFFFFFFFFFFFFFFFFFFFFFFFFFFFF DIV DUP3 GT ISZERO PUSH2 0x27F9 JUMPI PUSH2 0x27F9 PUSH2 0x237E JUMP JUMPDEST MUL SWAP4 SWAP3 POP POP POP JUMP JUMPDEST PUSH1 0x0 PUSH2 0x561 DUP4 DUP4 PUSH2 0x2742 JUMP JUMPDEST PUSH32 0x4E487B7100000000000000000000000000000000000000000000000000000000 PUSH1 0x0 MSTORE PUSH1 0x12 PUSH1 0x4 MSTORE PUSH1 0x24 PUSH1 0x0 REVERT JUMPDEST PUSH1 0x0 DUP3 PUSH2 0x2872 JUMPI PUSH32 0x4E487B7100000000000000000000000000000000000000000000000000000000 PUSH1 0x0 MSTORE PUSH1 0x12 PUSH1 0x4 MSTORE PUSH1 0x24 PUSH1 0x0 REVERT JUMPDEST POP DIV SWAP1 JUMP JUMPDEST DUP1 DUP3 MUL DUP2 ISZERO DUP3 DUP3 DIV DUP5 EQ OR PUSH2 0x8E8 JUMPI PUSH2 0x8E8 PUSH2 0x237E JUMP JUMPDEST PUSH1 0x0 PUSH20 0xFFFFFFFFFFFFFFFFFFFFFFFFFFFFFFFFFFFFFFFF DUP1 DUP8 AND DUP4 MSTORE DUP1 DUP7 AND PUSH1 0x20 DUP5 ADD MSTORE POP PUSH32 0xFFFFFFFF00000000000000000000000000000000000000000000000000000000 DUP5 AND PUSH1 0x40 DUP4 ADD MSTORE PUSH1 0x80 PUSH1 0x60 DUP4 ADD MSTORE PUSH2 0x28EF PUSH1 0x80 DUP4 ADD DUP5 PUSH2 0x24AB JUMP JUMPDEST SWAP7 SWAP6 POP POP POP POP POP POP JUMP JUMPDEST PUSH1 0x0 PUSH1 0x20 DUP3 DUP5 SUB SLT ISZERO PUSH2 0x290B JUMPI PUSH1 0x0 DUP1 REVERT JUMPDEST DUP2 MLOAD PUSH2 0x561 DUP2 PUSH2 0x1E9F JUMP JUMPDEST DUP1 MLOAD PUSH10 0xFFFFFFFFFFFFFFFFFFFF DUP2 AND DUP2 EQ PUSH2 0x2930 JUMPI PUSH1 0x0 DUP1 REVERT JUMPDEST SWAP2 SWAP1 POP JUMP JUMPDEST PUSH1 0x0 DUP1 PUSH1 0x0 DUP1 PUSH1 0x0 PUSH1 0xA0 DUP7 DUP9 SUB SLT ISZERO PUSH2 0x294D JUMPI PUSH1 0x0 DUP1 REVERT JUMPDEST PUSH2 0x2956 DUP7 PUSH2 0x2916 JUMP JUMPDEST SWAP5 POP PUSH1 0x20 DUP7 ADD MLOAD SWAP4 POP PUSH1 0x40 DUP7 ADD MLOAD SWAP3 POP PUSH1 0x60 DUP7 ADD MLOAD SWAP2 POP PUSH2 0x2979 PUSH1 0x80 DUP8 ADD PUSH2 0x2916 JUMP JUMPDEST SWAP1 POP SWAP3 SWAP6 POP SWAP3 SWAP6 SWAP1 SWAP4 POP JUMP JUMPDEST PUSH32 0x4E487B7100000000000000000000000000000000000000000000000000000000 PUSH1 0x0 MSTORE PUSH1 0x31 PUSH1 0x4 MSTORE PUSH1 0x24 PUSH1 0x0 REVERT INVALID LOG2 PUSH5 0x6970667358 0x22 SLT KECCAK256 PUSH16 0xD140288D566AC8B266C3854581BB432F MLOAD EXTCODECOPY SWAP15 STOP 0x5D GASPRICE 0xD8 SWAP2 0x5C MUL 0xD0 0xED 0xC9 SWAP9 DUP10 PUSH5 0x736F6C6343 STOP ADDMOD GT STOP CALLER "},"methodIdentifiers":{"authorizer()":"d09edf31","getAllowedSigners()":"33162394","getFeed(address,address)":"d2edb6dd","getPrice(address,address)":"ac41865a","getPrice(address,address,bytes)":"355efdd9","getPricesDigest((address,address,uint256,uint256)[])":"cc47cae9","initialize(address,address,address,(address,address,address)[])":"a6021690","isSignerAllowed(address)":"dddf6ff9","pivot()":"d77fe1cd","setFeed(address,address,address)":"230a7658","setSigner(address,bool)":"31cb6105"}}}}}