{"contracts/Authorizer.sol":{"Authorizer":{"abi":[{"inputs":[],"stateMutability":"nonpayable","type":"constructor"},{"inputs":[{"internalType":"uint8","name":"op","type":"uint8"}],"name":"AuthorizerInvalidParamOp","type":"error"},{"inputs":[{"internalType":"address","name":"who","type":"address"},{"internalType":"address","name":"where","type":"address"},{"internalType":"bytes4","name":"what","type":"bytes4"},{"internalType":"uint256[]","name":"how","type":"uint256[]"}],"name":"AuthorizerSenderNotAllowed","type":"error"},{"anonymous":false,"inputs":[{"indexed":true,"internalType":"address","name":"who","type":"address"},{"indexed":true,"internalType":"address","name":"where","type":"address"},{"indexed":true,"internalType":"bytes4","name":"what","type":"bytes4"},{"components":[{"internalType":"uint8","name":"op","type":"uint8"},{"internalType":"uint248","name":"value","type":"uint248"}],"indexed":false,"internalType":"struct IAuthorizer.Param[]","name":"params","type":"tuple[]"}],"name":"Authorized","type":"event"},{"anonymous":false,"inputs":[{"indexed":false,"internalType":"uint8","name":"version","type":"uint8"}],"name":"Initialized","type":"event"},{"anonymous":false,"inputs":[{"indexed":true,"internalType":"address","name":"who","type":"address"},{"indexed":true,"internalType":"address","name":"where","type":"address"},{"indexed":true,"internalType":"bytes4","name":"what","type":"bytes4"}],"name":"Unauthorized","type":"event"},{"inputs":[],"name":"ANYONE","outputs":[{"internalType":"address","name":"","type":"address"}],"stateMutability":"view","type":"function"},{"inputs":[],"name":"ANYWHERE","outputs":[{"internalType":"address","name":"","type":"address"}],"stateMutability":"view","type":"function"},{"inputs":[{"internalType":"address","name":"who","type":"address"},{"internalType":"address","name":"where","type":"address"},{"internalType":"bytes4","name":"what","type":"bytes4"},{"components":[{"internalType":"uint8","name":"op","type":"uint8"},{"internalType":"uint248","name":"value","type":"uint248"}],"internalType":"struct IAuthorizer.Param[]","name":"params","type":"tuple[]"}],"name":"authorize","outputs":[],"stateMutability":"nonpayable","type":"function"},{"inputs":[{"components":[{"internalType":"address","name":"where","type":"address"},{"components":[{"internalType":"address","name":"who","type":"address"},{"internalType":"bytes4","name":"what","type":"bytes4"},{"components":[{"internalType":"uint8","name":"op","type":"uint8"},{"internalType":"uint248","name":"value","type":"uint248"}],"internalType":"struct IAuthorizer.Param[]","name":"params","type":"tuple[]"}],"internalType":"struct IAuthorizer.GrantPermission[]","name":"grants","type":"tuple[]"},{"components":[{"internalType":"address","name":"who","type":"address"},{"internalType":"bytes4","name":"what","type":"bytes4"}],"internalType":"struct IAuthorizer.RevokePermission[]","name":"revokes","type":"tuple[]"}],"internalType":"struct IAuthorizer.PermissionChange[]","name":"changes","type":"tuple[]"}],"name":"changePermissions","outputs":[],"stateMutability":"nonpayable","type":"function"},{"inputs":[{"internalType":"address","name":"who","type":"address"},{"internalType":"address","name":"where","type":"address"},{"internalType":"bytes4","name":"what","type":"bytes4"}],"name":"getPermissionParams","outputs":[{"components":[{"internalType":"uint8","name":"op","type":"uint8"},{"internalType":"uint248","name":"value","type":"uint248"}],"internalType":"struct IAuthorizer.Param[]","name":"","type":"tuple[]"}],"stateMutability":"view","type":"function"},{"inputs":[{"internalType":"address","name":"who","type":"address"},{"internalType":"address","name":"where","type":"address"}],"name":"getPermissionsLength","outputs":[{"internalType":"uint256","name":"","type":"uint256"}],"stateMutability":"view","type":"function"},{"inputs":[{"internalType":"address","name":"who","type":"address"},{"internalType":"address","name":"where","type":"address"}],"name":"hasPermissions","outputs":[{"internalType":"bool","name":"","type":"bool"}],"stateMutability":"view","type":"function"},{"inputs":[{"internalType":"address[]","name":"owners","type":"address[]"}],"name":"initialize","outputs":[],"stateMutability":"nonpayable","type":"function"},{"inputs":[{"internalType":"address","name":"who","type":"address"},{"internalType":"address","name":"where","type":"address"},{"internalType":"bytes4","name":"what","type":"bytes4"},{"internalType":"uint256[]","name":"how","type":"uint256[]"}],"name":"isAuthorized","outputs":[{"internalType":"bool","name":"","type":"bool"}],"stateMutability":"view","type":"function"},{"inputs":[{"internalType":"address","name":"who","type":"address"},{"internalType":"address","name":"where","type":"address"},{"internalType":"bytes4","name":"what","type":"bytes4"}],"name":"unauthorize","outputs":[],"stateMutability":"nonpayable","type":"function"}],"evm":{"bytecode":{"linkReferences":{},"object":"608060405234801561001057600080fd5b5061001961001e565b6100de565b600054610100900460ff161561008a5760405162461bcd60e51b815260206004820152602760248201527f496e697469616c697a61626c653a20636f6e747261637420697320696e697469604482015266616c697a696e6760c81b606482015260840160405180910390fd5b60005460ff90811610156100dc576000805460ff191660ff9081179091556040519081527f7f26b83ff96e1f2b6a682f133852f6798a09c465da95921460cefb38474024989060200160405180910390a15b565b611cd9806100ed6000396000f3fe608060405234801561001057600080fd5b50600436106100be5760003560e01c8063a224cee711610076578063ca7c51d01161005b578063ca7c51d014610194578063e8a67dad146101a7578063fd1ccc9b146101ef57600080fd5b8063a224cee714610161578063b091986d1461017457600080fd5b806328522895116100a757806328522895146100fe578063405d30af14610121578063840510cc1461012157600080fd5b80630eb39344146100c3578063261a48af146100e9575b600080fd5b6100d66100d136600461137e565b610202565b6040519081526020015b60405180910390f35b6100fc6100f73660046113e1565b61023c565b005b61011161010c366004611512565b610301565b60405190151581526020016100e0565b61013c73ffffffffffffffffffffffffffffffffffffffff81565b60405173ffffffffffffffffffffffffffffffffffffffff90911681526020016100e0565b6100fc61016f3660046115da565b6103af565b6101876101823660046113e1565b61067d565b6040516100e09190611672565b6100fc6101a236600461183a565b61076a565b6101116101b536600461137e565b73ffffffffffffffffffffffffffffffffffffffff9182166000908152603360209081526040808320939094168252919091522054151590565b6100fc6101fd366004611aa1565b610867565b73ffffffffffffffffffffffffffffffffffffffff8083166000908152603360209081526040808320938516835292905220545b92915050565b6002600154036102ad576040517f08c379a000000000000000000000000000000000000000000000000000000000815260206004820152601f60248201527f5265656e7472616e637947756172643a207265656e7472616e742063616c6c0060448201526064015b60405180910390fd5b600260015560006102bf848484610929565b90506102ec337f261a48af00000000000000000000000000000000000000000000000000000000836109e7565b6102f7848484610a3c565b5050600180555050565b600061030f85858585610ba8565b1561031c575060016103a7565b61033c73ffffffffffffffffffffffffffffffffffffffff858585610ba8565b15610349575060016103a7565b6103698573ffffffffffffffffffffffffffffffffffffffff8585610ba8565b15610376575060016103a7565b61039673ffffffffffffffffffffffffffffffffffffffff808585610ba8565b156103a3575060016103a7565b5060005b949350505050565b600054610100900460ff16158080156103cf5750600054600160ff909116105b806103e95750303b1580156103e9575060005460ff166001145b610475576040517f08c379a000000000000000000000000000000000000000000000000000000000815260206004820152602e60248201527f496e697469616c697a61626c653a20636f6e747261637420697320616c72656160448201527f647920696e697469616c697a656400000000000000000000000000000000000060648201526084016102a4565b600080547fffffffffffffffffffffffffffffffffffffffffffffffffffffffffffffff0016600117905580156104d357600080547fffffffffffffffffffffffffffffffffffffffffffffffffffffffffffff00ff166101001790555b6104db610caf565b60005b8251811015610615576105768382815181106104fc576104fc611b10565b6020908102919091010151307ffd1ccc9b00000000000000000000000000000000000000000000000000000000600060405190808252806020026020018201604052801561057057816020015b60408051808201909152600080825260208201528152602001906001900390816105495790505b50610d50565b61060383828151811061058b5761058b611b10565b6020908102919091010151307f261a48af0000000000000000000000000000000000000000000000000000000060006040519080825280602002602001820160405280156105705781602001604080518082019091526000808252602082015281526020019060019003908161054957905050610d50565b8061060d81611b6e565b9150506104de565b50801561067957600080547fffffffffffffffffffffffffffffffffffffffffffffffffffffffffffff00ff169055604051600181527f7f26b83ff96e1f2b6a682f133852f6798a09c465da95921460cefb38474024989060200160405180910390a15b5050565b73ffffffffffffffffffffffffffffffffffffffff808416600090815260336020908152604080832093861683529281528282207fffffffff00000000000000000000000000000000000000000000000000000000851683526001908101825283832001805484518184028101840190955280855260609493919290919084015b8282101561075d576000848152602090819020604080518082019091529084015460ff8116825261010090047effffffffffffffffffffffffffffffffffffffffffffffffffffffffffffff16818301528252600190920191016106fe565b5050505090509392505050565b60005b815181101561067957600082828151811061078a5761078a611b10565b6020026020010151905060005b8160200151518110156107f5576000826020015182815181106107bc576107bc611b10565b602002602001015190506107e28160000151846000015183602001518460400151610867565b50806107ed81611b6e565b915050610797565b5060005b8160400151518110156108525760008260400151828151811061081e5761081e611b10565b6020026020010151905061083f81600001518460000151836020015161023c565b508061084a81611b6e565b9150506107f9565b5050808061085f90611b6e565b91505061076d565b6002600154036108d3576040517f08c379a000000000000000000000000000000000000000000000000000000000815260206004820152601f60248201527f5265656e7472616e637947756172643a207265656e7472616e742063616c6c0060448201526064016102a4565b600260015560006108e5858585610929565b9050610912337ffd1ccc9b00000000000000000000000000000000000000000000000000000000836109e7565b61091e85858585610d50565b505060018055505050565b604080516003808252608082019092526060916020820183803683370190505090508373ffffffffffffffffffffffffffffffffffffffff168160008151811061097557610975611b10565b6020026020010181815250508273ffffffffffffffffffffffffffffffffffffffff16816001815181106109ab576109ab611b10565b6020026020010181815250508160e01c63ffffffff16816002815181106109d4576109d4611b10565b6020026020010181815250509392505050565b60006109f584308585610301565b905080610a3657833084846040517f61174e880000000000000000000000000000000000000000000000000000000081526004016102a49493929190611ba6565b50505050565b73ffffffffffffffffffffffffffffffffffffffff808416600090815260336020908152604080832093861683529281528282207fffffffff000000000000000000000000000000000000000000000000000000008516835260018101909152919020805460ff1615610abd578154826000610ab783611c3f565b91905055505b7fffffffff000000000000000000000000000000000000000000000000000000008316600090815260018084016020526040822080547fffffffffffffffffffffffffffffffffffffffffffffffffffffffffffffff001681559190610b259083018261131b565b5050827bffffffffffffffffffffffffffffffffffffffffffffffffffffffff19168473ffffffffffffffffffffffffffffffffffffffff168673ffffffffffffffffffffffffffffffffffffffff167fa8095e01dcc1c206b8b64f0bcaf4fee219b0ee0bd623ea32f9876e19600cdb6360405160405180910390a45050505050565b73ffffffffffffffffffffffffffffffffffffffff808516600090815260336020908152604080832093871683529281528282207fffffffff00000000000000000000000000000000000000000000000000000000861683526001019052908120805460ff168015610ca55750610ca581600101805480602002602001604051908101604052809291908181526020016000905b82821015610c9b576000848152602090819020604080518082019091529084015460ff8116825261010090047effffffffffffffffffffffffffffffffffffffffffffffffffffffffffffff1681830152825260019092019101610c3c565b5050505084610f1c565b9695505050505050565b600054610100900460ff16610d46576040517f08c379a000000000000000000000000000000000000000000000000000000000815260206004820152602b60248201527f496e697469616c697a61626c653a20636f6e7472616374206973206e6f74206960448201527f6e697469616c697a696e6700000000000000000000000000000000000000000060648201526084016102a4565b610d4e610fe2565b565b73ffffffffffffffffffffffffffffffffffffffff808516600090815260336020908152604080832093871683529281528282207fffffffff000000000000000000000000000000000000000000000000000000008616835260018101909152919020805460ff16610dd0578154826000610dca83611b6e565b91905055505b80547fffffffffffffffffffffffffffffffffffffffffffffffffffffffffffffff001660019081178255610e08908201600061131b565b60005b8351811015610e8e5781600101848281518110610e2a57610e2a611b10565b6020908102919091018101518254600181018455600093845292829020815191909201517effffffffffffffffffffffffffffffffffffffffffffffffffffffffffffff166101000260ff9091161791015580610e8681611b6e565b915050610e0b565b50837bffffffffffffffffffffffffffffffffffffffffffffffffffffffff19168573ffffffffffffffffffffffffffffffffffffffff168773ffffffffffffffffffffffffffffffffffffffff167fa4e3ad0d161589a3d7d368c479c5c4bd9d753ea8f4865b26801b7e9823235ff586604051610f0c9190611672565b60405180910390a4505050505050565b6000805b8351811015610fd8576000848281518110610f3d57610f3d611b10565b60200260200101519050835182108015610f775750610f7581858481518110610f6857610f68611b10565b602002602001015161107f565b155b80610fb5575083518210158015610fb557506000815160ff166006811115610fa157610fa1611c74565b6006811115610fb257610fb2611c74565b14155b15610fc557600092505050610236565b5080610fd081611b6e565b915050610f20565b5060019392505050565b600054610100900460ff16611079576040517f08c379a000000000000000000000000000000000000000000000000000000000815260206004820152602b60248201527f496e697469616c697a61626c653a20636f6e7472616374206973206e6f74206960448201527f6e697469616c697a696e6700000000000000000000000000000000000000000060648201526084016102a4565b60018055565b600080835160ff16600681111561109857611098611c74565b60068111156110a9576110a9611c74565b036110b657506001610236565b6001835160ff1660068111156110ce576110ce611c74565b60068111156110df576110df611c74565b03611112575060208201517effffffffffffffffffffffffffffffffffffffffffffffffffffffffffffff168114610236565b6002835160ff16600681111561112a5761112a611c74565b600681111561113b5761113b611c74565b0361116f575060208201517effffffffffffffffffffffffffffffffffffffffffffffffffffffffffffff16811415610236565b6003835160ff16600681111561118757611187611c74565b600681111561119857611198611c74565b036111cb575060208201517effffffffffffffffffffffffffffffffffffffffffffffffffffffffffffff168111610236565b6004835160ff1660068111156111e3576111e3611c74565b60068111156111f4576111f4611c74565b03611227575060208201517effffffffffffffffffffffffffffffffffffffffffffffffffffffffffffff168110610236565b6005835160ff16600681111561123f5761123f611c74565b600681111561125057611250611c74565b03611284575060208201517effffffffffffffffffffffffffffffffffffffffffffffffffffffffffffff16811015610236565b6006835160ff16600681111561129c5761129c611c74565b60068111156112ad576112ad611c74565b036112e1575060208201517effffffffffffffffffffffffffffffffffffffffffffffffffffffffffffff16811115610236565b82516040517f69f2cbf500000000000000000000000000000000000000000000000000000000815260ff90911660048201526024016102a4565b5080546000825590600052602060002090810190611339919061133c565b50565b5b80821115611351576000815560010161133d565b5090565b803573ffffffffffffffffffffffffffffffffffffffff8116811461137957600080fd5b919050565b6000806040838503121561139157600080fd5b61139a83611355565b91506113a860208401611355565b90509250929050565b80357fffffffff000000000000000000000000000000000000000000000000000000008116811461137957600080fd5b6000806000606084860312156113f657600080fd5b6113ff84611355565b925061140d60208501611355565b915061141b604085016113b1565b90509250925092565b7f4e487b7100000000000000000000000000000000000000000000000000000000600052604160045260246000fd5b6040805190810167ffffffffffffffff8111828210171561147657611476611424565b60405290565b6040516060810167ffffffffffffffff8111828210171561147657611476611424565b604051601f82017fffffffffffffffffffffffffffffffffffffffffffffffffffffffffffffffe016810167ffffffffffffffff811182821017156114e6576114e6611424565b604052919050565b600067ffffffffffffffff82111561150857611508611424565b5060051b60200190565b6000806000806080858703121561152857600080fd5b61153185611355565b93506020611540818701611355565b935061154e604087016113b1565b9250606086013567ffffffffffffffff81111561156a57600080fd5b8601601f8101881361157b57600080fd5b803561158e611589826114ee565b61149f565b81815260059190911b8201830190838101908a8311156115ad57600080fd5b928401925b828410156115cb578335825292840192908401906115b2565b979a9699509497505050505050565b600060208083850312156115ed57600080fd5b823567ffffffffffffffff81111561160457600080fd5b8301601f8101851361161557600080fd5b8035611623611589826114ee565b81815260059190911b8201830190838101908783111561164257600080fd5b928401925b828410156116675761165884611355565b82529284019290840190611647565b979650505050505050565b602080825282518282018190526000919060409081850190868401855b828110156116d8578151805160ff1685528601517effffffffffffffffffffffffffffffffffffffffffffffffffffffffffffff1686850152928401929085019060010161168f565b5091979650505050505050565b600082601f8301126116f657600080fd5b81356020611706611589836114ee565b82815260069290921b8401810191818101908684111561172557600080fd5b8286015b848110156117a257604081890312156117425760008081fd5b61174a611453565b813560ff8116811461175c5760008081fd5b8152818501357effffffffffffffffffffffffffffffffffffffffffffffffffffffffffffff811681146117905760008081fd5b81860152835291830191604001611729565b509695505050505050565b600082601f8301126117be57600080fd5b813560206117ce611589836114ee565b82815260069290921b840181019181810190868411156117ed57600080fd5b8286015b848110156117a2576040818903121561180a5760008081fd5b611812611453565b61181b82611355565b81526118288583016113b1565b818601528352918301916040016117f1565b60006020828403121561184c57600080fd5b67ffffffffffffffff8235111561186257600080fd5b8135820183601f82011261187557600080fd5b61188261158982356114ee565b81358082526020808301929160051b8401018610156118a057600080fd5b602083015b6020843560051b850101811015611a975767ffffffffffffffff813511156118cc57600080fd5b8035840160607fffffffffffffffffffffffffffffffffffffffffffffffffffffffffffffffe0828a0301121561190257600080fd5b61190a61147c565b61191660208301611355565b815267ffffffffffffffff6040830135111561193157600080fd5b6040820135820189603f82011261194757600080fd5b61195761158960208301356114ee565b602082810135808352908201919060051b83016040018c101561197957600080fd5b604083015b6040602085013560051b850101811015611a4f5767ffffffffffffffff813511156119a857600080fd5b60607fffffffffffffffffffffffffffffffffffffffffffffffffffffffffffffffc0823586018f030112156119dd57600080fd5b6119e561147c565b6119f460408335870101611355565b8152611a05606083358701016113b1565b602082015267ffffffffffffffff60808335870101351115611a2657600080fd5b611a3c8e833587016080810135016040016116e5565b604082015283526020928301920161197e565b506020840152505067ffffffffffffffff60608301351115611a7057600080fd5b611a8389602060608501358501016117ad565b6040820152845250602092830192016118a5565b5095945050505050565b60008060008060808587031215611ab757600080fd5b611ac085611355565b9350611ace60208601611355565b9250611adc604086016113b1565b9150606085013567ffffffffffffffff811115611af857600080fd5b611b04878288016116e5565b91505092959194509250565b7f4e487b7100000000000000000000000000000000000000000000000000000000600052603260045260246000fd5b7f4e487b7100000000000000000000000000000000000000000000000000000000600052601160045260246000fd5b60007fffffffffffffffffffffffffffffffffffffffffffffffffffffffffffffffff8203611b9f57611b9f611b3f565b5060010190565b60006080820173ffffffffffffffffffffffffffffffffffffffff80881684526020818816818601527fffffffff000000000000000000000000000000000000000000000000000000008716604086015260806060860152829150855180845260a086019250818701935060005b81811015611c3057845184529382019392820192600101611c14565b50919998505050505050505050565b600081611c4e57611c4e611b3f565b507fffffffffffffffffffffffffffffffffffffffffffffffffffffffffffffffff0190565b7f4e487b7100000000000000000000000000000000000000000000000000000000600052602160045260246000fdfea264697066735822122065482614376100581836cb7c923eb92211479350661467aa892345d15048cea464736f6c63430008110033","opcodes":"PUSH1 0x80 PUSH1 0x40 MSTORE CALLVALUE DUP1 ISZERO PUSH2 0x10 JUMPI PUSH1 0x0 DUP1 REVERT JUMPDEST POP PUSH2 0x19 PUSH2 0x1E JUMP JUMPDEST PUSH2 0xDE JUMP JUMPDEST PUSH1 0x0 SLOAD PUSH2 0x100 SWAP1 DIV PUSH1 0xFF AND ISZERO PUSH2 0x8A JUMPI PUSH1 0x40 MLOAD PUSH3 0x461BCD PUSH1 0xE5 SHL DUP2 MSTORE PUSH1 0x20 PUSH1 0x4 DUP3 ADD MSTORE PUSH1 0x27 PUSH1 0x24 DUP3 ADD MSTORE PUSH32 0x496E697469616C697A61626C653A20636F6E747261637420697320696E697469 PUSH1 0x44 DUP3 ADD MSTORE PUSH7 0x616C697A696E67 PUSH1 0xC8 SHL PUSH1 0x64 DUP3 ADD MSTORE PUSH1 0x84 ADD PUSH1 0x40 MLOAD DUP1 SWAP2 SUB SWAP1 REVERT JUMPDEST PUSH1 0x0 SLOAD PUSH1 0xFF SWAP1 DUP2 AND LT ISZERO PUSH2 0xDC JUMPI PUSH1 0x0 DUP1 SLOAD PUSH1 0xFF NOT AND PUSH1 0xFF SWAP1 DUP2 OR SWAP1 SWAP2 SSTORE PUSH1 0x40 MLOAD SWAP1 DUP2 MSTORE PUSH32 0x7F26B83FF96E1F2B6A682F133852F6798A09C465DA95921460CEFB3847402498 SWAP1 PUSH1 0x20 ADD PUSH1 0x40 MLOAD DUP1 SWAP2 SUB SWAP1 LOG1 JUMPDEST JUMP JUMPDEST PUSH2 0x1CD9 DUP1 PUSH2 0xED PUSH1 0x0 CODECOPY PUSH1 0x0 RETURN INVALID PUSH1 0x80 PUSH1 0x40 MSTORE CALLVALUE DUP1 ISZERO PUSH2 0x10 JUMPI PUSH1 0x0 DUP1 REVERT JUMPDEST POP PUSH1 0x4 CALLDATASIZE LT PUSH2 0xBE JUMPI PUSH1 0x0 CALLDATALOAD PUSH1 0xE0 SHR DUP1 PUSH4 0xA224CEE7 GT PUSH2 0x76 JUMPI DUP1 PUSH4 0xCA7C51D0 GT PUSH2 0x5B JUMPI DUP1 PUSH4 0xCA7C51D0 EQ PUSH2 0x194 JUMPI DUP1 PUSH4 0xE8A67DAD EQ PUSH2 0x1A7 JUMPI DUP1 PUSH4 0xFD1CCC9B EQ PUSH2 0x1EF JUMPI PUSH1 0x0 DUP1 REVERT JUMPDEST DUP1 PUSH4 0xA224CEE7 EQ PUSH2 0x161 JUMPI DUP1 PUSH4 0xB091986D EQ PUSH2 0x174 JUMPI PUSH1 0x0 DUP1 REVERT JUMPDEST DUP1 PUSH4 0x28522895 GT PUSH2 0xA7 JUMPI DUP1 PUSH4 0x28522895 EQ PUSH2 0xFE JUMPI DUP1 PUSH4 0x405D30AF EQ PUSH2 0x121 JUMPI DUP1 PUSH4 0x840510CC EQ PUSH2 0x121 JUMPI PUSH1 0x0 DUP1 REVERT JUMPDEST DUP1 PUSH4 0xEB39344 EQ PUSH2 0xC3 JUMPI DUP1 PUSH4 0x261A48AF EQ PUSH2 0xE9 JUMPI JUMPDEST PUSH1 0x0 DUP1 REVERT JUMPDEST PUSH2 0xD6 PUSH2 0xD1 CALLDATASIZE PUSH1 0x4 PUSH2 0x137E JUMP JUMPDEST PUSH2 0x202 JUMP JUMPDEST PUSH1 0x40 MLOAD SWAP1 DUP2 MSTORE PUSH1 0x20 ADD JUMPDEST PUSH1 0x40 MLOAD DUP1 SWAP2 SUB SWAP1 RETURN JUMPDEST PUSH2 0xFC PUSH2 0xF7 CALLDATASIZE PUSH1 0x4 PUSH2 0x13E1 JUMP JUMPDEST PUSH2 0x23C JUMP JUMPDEST STOP JUMPDEST PUSH2 0x111 PUSH2 0x10C CALLDATASIZE PUSH1 0x4 PUSH2 0x1512 JUMP JUMPDEST PUSH2 0x301 JUMP JUMPDEST PUSH1 0x40 MLOAD SWAP1 ISZERO ISZERO DUP2 MSTORE PUSH1 0x20 ADD PUSH2 0xE0 JUMP JUMPDEST PUSH2 0x13C PUSH20 0xFFFFFFFFFFFFFFFFFFFFFFFFFFFFFFFFFFFFFFFF DUP2 JUMP JUMPDEST PUSH1 0x40 MLOAD PUSH20 0xFFFFFFFFFFFFFFFFFFFFFFFFFFFFFFFFFFFFFFFF SWAP1 SWAP2 AND DUP2 MSTORE PUSH1 0x20 ADD PUSH2 0xE0 JUMP JUMPDEST PUSH2 0xFC PUSH2 0x16F CALLDATASIZE PUSH1 0x4 PUSH2 0x15DA JUMP JUMPDEST PUSH2 0x3AF JUMP JUMPDEST PUSH2 0x187 PUSH2 0x182 CALLDATASIZE PUSH1 0x4 PUSH2 0x13E1 JUMP JUMPDEST PUSH2 0x67D JUMP JUMPDEST PUSH1 0x40 MLOAD PUSH2 0xE0 SWAP2 SWAP1 PUSH2 0x1672 JUMP JUMPDEST PUSH2 0xFC PUSH2 0x1A2 CALLDATASIZE PUSH1 0x4 PUSH2 0x183A JUMP JUMPDEST PUSH2 0x76A JUMP JUMPDEST PUSH2 0x111 PUSH2 0x1B5 CALLDATASIZE PUSH1 0x4 PUSH2 0x137E JUMP JUMPDEST PUSH20 0xFFFFFFFFFFFFFFFFFFFFFFFFFFFFFFFFFFFFFFFF SWAP2 DUP3 AND PUSH1 0x0 SWAP1 DUP2 MSTORE PUSH1 0x33 PUSH1 0x20 SWAP1 DUP2 MSTORE PUSH1 0x40 DUP1 DUP4 KECCAK256 SWAP4 SWAP1 SWAP5 AND DUP3 MSTORE SWAP2 SWAP1 SWAP2 MSTORE KECCAK256 SLOAD ISZERO ISZERO SWAP1 JUMP JUMPDEST PUSH2 0xFC PUSH2 0x1FD CALLDATASIZE PUSH1 0x4 PUSH2 0x1AA1 JUMP JUMPDEST PUSH2 0x867 JUMP JUMPDEST PUSH20 0xFFFFFFFFFFFFFFFFFFFFFFFFFFFFFFFFFFFFFFFF DUP1 DUP4 AND PUSH1 0x0 SWAP1 DUP2 MSTORE PUSH1 0x33 PUSH1 0x20 SWAP1 DUP2 MSTORE PUSH1 0x40 DUP1 DUP4 KECCAK256 SWAP4 DUP6 AND DUP4 MSTORE SWAP3 SWAP1 MSTORE KECCAK256 SLOAD JUMPDEST SWAP3 SWAP2 POP POP JUMP JUMPDEST PUSH1 0x2 PUSH1 0x1 SLOAD SUB PUSH2 0x2AD JUMPI PUSH1 0x40 MLOAD PUSH32 0x8C379A000000000000000000000000000000000000000000000000000000000 DUP2 MSTORE PUSH1 0x20 PUSH1 0x4 DUP3 ADD MSTORE PUSH1 0x1F PUSH1 0x24 DUP3 ADD MSTORE PUSH32 0x5265656E7472616E637947756172643A207265656E7472616E742063616C6C00 PUSH1 0x44 DUP3 ADD MSTORE PUSH1 0x64 ADD JUMPDEST PUSH1 0x40 MLOAD DUP1 SWAP2 SUB SWAP1 REVERT JUMPDEST PUSH1 0x2 PUSH1 0x1 SSTORE PUSH1 0x0 PUSH2 0x2BF DUP5 DUP5 DUP5 PUSH2 0x929 JUMP JUMPDEST SWAP1 POP PUSH2 0x2EC CALLER PUSH32 0x261A48AF00000000000000000000000000000000000000000000000000000000 DUP4 PUSH2 0x9E7 JUMP JUMPDEST PUSH2 0x2F7 DUP5 DUP5 DUP5 PUSH2 0xA3C JUMP JUMPDEST POP POP PUSH1 0x1 DUP1 SSTORE POP POP JUMP JUMPDEST PUSH1 0x0 PUSH2 0x30F DUP6 DUP6 DUP6 DUP6 PUSH2 0xBA8 JUMP JUMPDEST ISZERO PUSH2 0x31C JUMPI POP PUSH1 0x1 PUSH2 0x3A7 JUMP JUMPDEST PUSH2 0x33C PUSH20 0xFFFFFFFFFFFFFFFFFFFFFFFFFFFFFFFFFFFFFFFF DUP6 DUP6 DUP6 PUSH2 0xBA8 JUMP JUMPDEST ISZERO PUSH2 0x349 JUMPI POP PUSH1 0x1 PUSH2 0x3A7 JUMP JUMPDEST PUSH2 0x369 DUP6 PUSH20 0xFFFFFFFFFFFFFFFFFFFFFFFFFFFFFFFFFFFFFFFF DUP6 DUP6 PUSH2 0xBA8 JUMP JUMPDEST ISZERO PUSH2 0x376 JUMPI POP PUSH1 0x1 PUSH2 0x3A7 JUMP JUMPDEST PUSH2 0x396 PUSH20 0xFFFFFFFFFFFFFFFFFFFFFFFFFFFFFFFFFFFFFFFF DUP1 DUP6 DUP6 PUSH2 0xBA8 JUMP JUMPDEST ISZERO PUSH2 0x3A3 JUMPI POP PUSH1 0x1 PUSH2 0x3A7 JUMP JUMPDEST POP PUSH1 0x0 JUMPDEST SWAP5 SWAP4 POP POP POP POP JUMP JUMPDEST PUSH1 0x0 SLOAD PUSH2 0x100 SWAP1 DIV PUSH1 0xFF AND ISZERO DUP1 DUP1 ISZERO PUSH2 0x3CF JUMPI POP PUSH1 0x0 SLOAD PUSH1 0x1 PUSH1 0xFF SWAP1 SWAP2 AND LT JUMPDEST DUP1 PUSH2 0x3E9 JUMPI POP ADDRESS EXTCODESIZE ISZERO DUP1 ISZERO PUSH2 0x3E9 JUMPI POP PUSH1 0x0 SLOAD PUSH1 0xFF AND PUSH1 0x1 EQ JUMPDEST PUSH2 0x475 JUMPI PUSH1 0x40 MLOAD PUSH32 0x8C379A000000000000000000000000000000000000000000000000000000000 DUP2 MSTORE PUSH1 0x20 PUSH1 0x4 DUP3 ADD MSTORE PUSH1 0x2E PUSH1 0x24 DUP3 ADD MSTORE PUSH32 0x496E697469616C697A61626C653A20636F6E747261637420697320616C726561 PUSH1 0x44 DUP3 ADD MSTORE PUSH32 0x647920696E697469616C697A6564000000000000000000000000000000000000 PUSH1 0x64 DUP3 ADD MSTORE PUSH1 0x84 ADD PUSH2 0x2A4 JUMP JUMPDEST PUSH1 0x0 DUP1 SLOAD PUSH32 0xFFFFFFFFFFFFFFFFFFFFFFFFFFFFFFFFFFFFFFFFFFFFFFFFFFFFFFFFFFFFFF00 AND PUSH1 0x1 OR SWAP1 SSTORE DUP1 ISZERO PUSH2 0x4D3 JUMPI PUSH1 0x0 DUP1 SLOAD PUSH32 0xFFFFFFFFFFFFFFFFFFFFFFFFFFFFFFFFFFFFFFFFFFFFFFFFFFFFFFFFFFFF00FF AND PUSH2 0x100 OR SWAP1 SSTORE JUMPDEST PUSH2 0x4DB PUSH2 0xCAF JUMP JUMPDEST PUSH1 0x0 JUMPDEST DUP3 MLOAD DUP2 LT ISZERO PUSH2 0x615 JUMPI PUSH2 0x576 DUP4 DUP3 DUP2 MLOAD DUP2 LT PUSH2 0x4FC JUMPI PUSH2 0x4FC PUSH2 0x1B10 JUMP JUMPDEST PUSH1 0x20 SWAP1 DUP2 MUL SWAP2 SWAP1 SWAP2 ADD ADD MLOAD ADDRESS PUSH32 0xFD1CCC9B00000000000000000000000000000000000000000000000000000000 PUSH1 0x0 PUSH1 0x40 MLOAD SWAP1 DUP1 DUP3 MSTORE DUP1 PUSH1 0x20 MUL PUSH1 0x20 ADD DUP3 ADD PUSH1 0x40 MSTORE DUP1 ISZERO PUSH2 0x570 JUMPI DUP2 PUSH1 0x20 ADD JUMPDEST PUSH1 0x40 DUP1 MLOAD DUP1 DUP3 ADD SWAP1 SWAP2 MSTORE PUSH1 0x0 DUP1 DUP3 MSTORE PUSH1 0x20 DUP3 ADD MSTORE DUP2 MSTORE PUSH1 0x20 ADD SWAP1 PUSH1 0x1 SWAP1 SUB SWAP1 DUP2 PUSH2 0x549 JUMPI SWAP1 POP JUMPDEST POP PUSH2 0xD50 JUMP JUMPDEST PUSH2 0x603 DUP4 DUP3 DUP2 MLOAD DUP2 LT PUSH2 0x58B JUMPI PUSH2 0x58B PUSH2 0x1B10 JUMP JUMPDEST PUSH1 0x20 SWAP1 DUP2 MUL SWAP2 SWAP1 SWAP2 ADD ADD MLOAD ADDRESS PUSH32 0x261A48AF00000000000000000000000000000000000000000000000000000000 PUSH1 0x0 PUSH1 0x40 MLOAD SWAP1 DUP1 DUP3 MSTORE DUP1 PUSH1 0x20 MUL PUSH1 0x20 ADD DUP3 ADD PUSH1 0x40 MSTORE DUP1 ISZERO PUSH2 0x570 JUMPI DUP2 PUSH1 0x20 ADD PUSH1 0x40 DUP1 MLOAD DUP1 DUP3 ADD SWAP1 SWAP2 MSTORE PUSH1 0x0 DUP1 DUP3 MSTORE PUSH1 0x20 DUP3 ADD MSTORE DUP2 MSTORE PUSH1 0x20 ADD SWAP1 PUSH1 0x1 SWAP1 SUB SWAP1 DUP2 PUSH2 0x549 JUMPI SWAP1 POP POP PUSH2 0xD50 JUMP JUMPDEST DUP1 PUSH2 0x60D DUP2 PUSH2 0x1B6E JUMP JUMPDEST SWAP2 POP POP PUSH2 0x4DE JUMP JUMPDEST POP DUP1 ISZERO PUSH2 0x679 JUMPI PUSH1 0x0 DUP1 SLOAD PUSH32 0xFFFFFFFFFFFFFFFFFFFFFFFFFFFFFFFFFFFFFFFFFFFFFFFFFFFFFFFFFFFF00FF AND SWAP1 SSTORE PUSH1 0x40 MLOAD PUSH1 0x1 DUP2 MSTORE PUSH32 0x7F26B83FF96E1F2B6A682F133852F6798A09C465DA95921460CEFB3847402498 SWAP1 PUSH1 0x20 ADD PUSH1 0x40 MLOAD DUP1 SWAP2 SUB SWAP1 LOG1 JUMPDEST POP POP JUMP JUMPDEST PUSH20 0xFFFFFFFFFFFFFFFFFFFFFFFFFFFFFFFFFFFFFFFF DUP1 DUP5 AND PUSH1 0x0 SWAP1 DUP2 MSTORE PUSH1 0x33 PUSH1 0x20 SWAP1 DUP2 MSTORE PUSH1 0x40 DUP1 DUP4 KECCAK256 SWAP4 DUP7 AND DUP4 MSTORE SWAP3 DUP2 MSTORE DUP3 DUP3 KECCAK256 PUSH32 0xFFFFFFFF00000000000000000000000000000000000000000000000000000000 DUP6 AND DUP4 MSTORE PUSH1 0x1 SWAP1 DUP2 ADD DUP3 MSTORE DUP4 DUP4 KECCAK256 ADD DUP1 SLOAD DUP5 MLOAD DUP2 DUP5 MUL DUP2 ADD DUP5 ADD SWAP1 SWAP6 MSTORE DUP1 DUP6 MSTORE PUSH1 0x60 SWAP5 SWAP4 SWAP2 SWAP3 SWAP1 SWAP2 SWAP1 DUP5 ADD JUMPDEST DUP3 DUP3 LT ISZERO PUSH2 0x75D JUMPI PUSH1 0x0 DUP5 DUP2 MSTORE PUSH1 0x20 SWAP1 DUP2 SWAP1 KECCAK256 PUSH1 0x40 DUP1 MLOAD DUP1 DUP3 ADD SWAP1 SWAP2 MSTORE SWAP1 DUP5 ADD SLOAD PUSH1 0xFF DUP2 AND DUP3 MSTORE PUSH2 0x100 SWAP1 DIV PUSH31 0xFFFFFFFFFFFFFFFFFFFFFFFFFFFFFFFFFFFFFFFFFFFFFFFFFFFFFFFFFFFFFF AND DUP2 DUP4 ADD MSTORE DUP3 MSTORE PUSH1 0x1 SWAP1 SWAP3 ADD SWAP2 ADD PUSH2 0x6FE JUMP JUMPDEST POP POP POP POP SWAP1 POP SWAP4 SWAP3 POP POP POP JUMP JUMPDEST PUSH1 0x0 JUMPDEST DUP2 MLOAD DUP2 LT ISZERO PUSH2 0x679 JUMPI PUSH1 0x0 DUP3 DUP3 DUP2 MLOAD DUP2 LT PUSH2 0x78A JUMPI PUSH2 0x78A PUSH2 0x1B10 JUMP JUMPDEST PUSH1 0x20 MUL PUSH1 0x20 ADD ADD MLOAD SWAP1 POP PUSH1 0x0 JUMPDEST DUP2 PUSH1 0x20 ADD MLOAD MLOAD DUP2 LT ISZERO PUSH2 0x7F5 JUMPI PUSH1 0x0 DUP3 PUSH1 0x20 ADD MLOAD DUP3 DUP2 MLOAD DUP2 LT PUSH2 0x7BC JUMPI PUSH2 0x7BC PUSH2 0x1B10 JUMP JUMPDEST PUSH1 0x20 MUL PUSH1 0x20 ADD ADD MLOAD SWAP1 POP PUSH2 0x7E2 DUP2 PUSH1 0x0 ADD MLOAD DUP5 PUSH1 0x0 ADD MLOAD DUP4 PUSH1 0x20 ADD MLOAD DUP5 PUSH1 0x40 ADD MLOAD PUSH2 0x867 JUMP JUMPDEST POP DUP1 PUSH2 0x7ED DUP2 PUSH2 0x1B6E JUMP JUMPDEST SWAP2 POP POP PUSH2 0x797 JUMP JUMPDEST POP PUSH1 0x0 JUMPDEST DUP2 PUSH1 0x40 ADD MLOAD MLOAD DUP2 LT ISZERO PUSH2 0x852 JUMPI PUSH1 0x0 DUP3 PUSH1 0x40 ADD MLOAD DUP3 DUP2 MLOAD DUP2 LT PUSH2 0x81E JUMPI PUSH2 0x81E PUSH2 0x1B10 JUMP JUMPDEST PUSH1 0x20 MUL PUSH1 0x20 ADD ADD MLOAD SWAP1 POP PUSH2 0x83F DUP2 PUSH1 0x0 ADD MLOAD DUP5 PUSH1 0x0 ADD MLOAD DUP4 PUSH1 0x20 ADD MLOAD PUSH2 0x23C JUMP JUMPDEST POP DUP1 PUSH2 0x84A DUP2 PUSH2 0x1B6E JUMP JUMPDEST SWAP2 POP POP PUSH2 0x7F9 JUMP JUMPDEST POP POP DUP1 DUP1 PUSH2 0x85F SWAP1 PUSH2 0x1B6E JUMP JUMPDEST SWAP2 POP POP PUSH2 0x76D JUMP JUMPDEST PUSH1 0x2 PUSH1 0x1 SLOAD SUB PUSH2 0x8D3 JUMPI PUSH1 0x40 MLOAD PUSH32 0x8C379A000000000000000000000000000000000000000000000000000000000 DUP2 MSTORE PUSH1 0x20 PUSH1 0x4 DUP3 ADD MSTORE PUSH1 0x1F PUSH1 0x24 DUP3 ADD MSTORE PUSH32 0x5265656E7472616E637947756172643A207265656E7472616E742063616C6C00 PUSH1 0x44 DUP3 ADD MSTORE PUSH1 0x64 ADD PUSH2 0x2A4 JUMP JUMPDEST PUSH1 0x2 PUSH1 0x1 SSTORE PUSH1 0x0 PUSH2 0x8E5 DUP6 DUP6 DUP6 PUSH2 0x929 JUMP JUMPDEST SWAP1 POP PUSH2 0x912 CALLER PUSH32 0xFD1CCC9B00000000000000000000000000000000000000000000000000000000 DUP4 PUSH2 0x9E7 JUMP JUMPDEST PUSH2 0x91E DUP6 DUP6 DUP6 DUP6 PUSH2 0xD50 JUMP JUMPDEST POP POP PUSH1 0x1 DUP1 SSTORE POP POP POP JUMP JUMPDEST PUSH1 0x40 DUP1 MLOAD PUSH1 0x3 DUP1 DUP3 MSTORE PUSH1 0x80 DUP3 ADD SWAP1 SWAP3 MSTORE PUSH1 0x60 SWAP2 PUSH1 0x20 DUP3 ADD DUP4 DUP1 CALLDATASIZE DUP4 CALLDATACOPY ADD SWAP1 POP POP SWAP1 POP DUP4 PUSH20 0xFFFFFFFFFFFFFFFFFFFFFFFFFFFFFFFFFFFFFFFF AND DUP2 PUSH1 0x0 DUP2 MLOAD DUP2 LT PUSH2 0x975 JUMPI PUSH2 0x975 PUSH2 0x1B10 JUMP JUMPDEST PUSH1 0x20 MUL PUSH1 0x20 ADD ADD DUP2 DUP2 MSTORE POP POP DUP3 PUSH20 0xFFFFFFFFFFFFFFFFFFFFFFFFFFFFFFFFFFFFFFFF AND DUP2 PUSH1 0x1 DUP2 MLOAD DUP2 LT PUSH2 0x9AB JUMPI PUSH2 0x9AB PUSH2 0x1B10 JUMP JUMPDEST PUSH1 0x20 MUL PUSH1 0x20 ADD ADD DUP2 DUP2 MSTORE POP POP DUP2 PUSH1 0xE0 SHR PUSH4 0xFFFFFFFF AND DUP2 PUSH1 0x2 DUP2 MLOAD DUP2 LT PUSH2 0x9D4 JUMPI PUSH2 0x9D4 PUSH2 0x1B10 JUMP JUMPDEST PUSH1 0x20 MUL PUSH1 0x20 ADD ADD DUP2 DUP2 MSTORE POP POP SWAP4 SWAP3 POP POP POP JUMP JUMPDEST PUSH1 0x0 PUSH2 0x9F5 DUP5 ADDRESS DUP6 DUP6 PUSH2 0x301 JUMP JUMPDEST SWAP1 POP DUP1 PUSH2 0xA36 JUMPI DUP4 ADDRESS DUP5 DUP5 PUSH1 0x40 MLOAD PUSH32 0x61174E8800000000000000000000000000000000000000000000000000000000 DUP2 MSTORE PUSH1 0x4 ADD PUSH2 0x2A4 SWAP5 SWAP4 SWAP3 SWAP2 SWAP1 PUSH2 0x1BA6 JUMP JUMPDEST POP POP POP POP JUMP JUMPDEST PUSH20 0xFFFFFFFFFFFFFFFFFFFFFFFFFFFFFFFFFFFFFFFF DUP1 DUP5 AND PUSH1 0x0 SWAP1 DUP2 MSTORE PUSH1 0x33 PUSH1 0x20 SWAP1 DUP2 MSTORE PUSH1 0x40 DUP1 DUP4 KECCAK256 SWAP4 DUP7 AND DUP4 MSTORE SWAP3 DUP2 MSTORE DUP3 DUP3 KECCAK256 PUSH32 0xFFFFFFFF00000000000000000000000000000000000000000000000000000000 DUP6 AND DUP4 MSTORE PUSH1 0x1 DUP2 ADD SWAP1 SWAP2 MSTORE SWAP2 SWAP1 KECCAK256 DUP1 SLOAD PUSH1 0xFF AND ISZERO PUSH2 0xABD JUMPI DUP2 SLOAD DUP3 PUSH1 0x0 PUSH2 0xAB7 DUP4 PUSH2 0x1C3F JUMP JUMPDEST SWAP2 SWAP1 POP SSTORE POP JUMPDEST PUSH32 0xFFFFFFFF00000000000000000000000000000000000000000000000000000000 DUP4 AND PUSH1 0x0 SWAP1 DUP2 MSTORE PUSH1 0x1 DUP1 DUP5 ADD PUSH1 0x20 MSTORE PUSH1 0x40 DUP3 KECCAK256 DUP1 SLOAD PUSH32 0xFFFFFFFFFFFFFFFFFFFFFFFFFFFFFFFFFFFFFFFFFFFFFFFFFFFFFFFFFFFFFF00 AND DUP2 SSTORE SWAP2 SWAP1 PUSH2 0xB25 SWAP1 DUP4 ADD DUP3 PUSH2 0x131B JUMP JUMPDEST POP POP DUP3 PUSH28 0xFFFFFFFFFFFFFFFFFFFFFFFFFFFFFFFFFFFFFFFFFFFFFFFFFFFFFFFF NOT AND DUP5 PUSH20 0xFFFFFFFFFFFFFFFFFFFFFFFFFFFFFFFFFFFFFFFF AND DUP7 PUSH20 0xFFFFFFFFFFFFFFFFFFFFFFFFFFFFFFFFFFFFFFFF AND PUSH32 0xA8095E01DCC1C206B8B64F0BCAF4FEE219B0EE0BD623EA32F9876E19600CDB63 PUSH1 0x40 MLOAD PUSH1 0x40 MLOAD DUP1 SWAP2 SUB SWAP1 LOG4 POP POP POP POP POP JUMP JUMPDEST PUSH20 0xFFFFFFFFFFFFFFFFFFFFFFFFFFFFFFFFFFFFFFFF DUP1 DUP6 AND PUSH1 0x0 SWAP1 DUP2 MSTORE PUSH1 0x33 PUSH1 0x20 SWAP1 DUP2 MSTORE PUSH1 0x40 DUP1 DUP4 KECCAK256 SWAP4 DUP8 AND DUP4 MSTORE SWAP3 DUP2 MSTORE DUP3 DUP3 KECCAK256 PUSH32 0xFFFFFFFF00000000000000000000000000000000000000000000000000000000 DUP7 AND DUP4 MSTORE PUSH1 0x1 ADD SWAP1 MSTORE SWAP1 DUP2 KECCAK256 DUP1 SLOAD PUSH1 0xFF AND DUP1 ISZERO PUSH2 0xCA5 JUMPI POP PUSH2 0xCA5 DUP2 PUSH1 0x1 ADD DUP1 SLOAD DUP1 PUSH1 0x20 MUL PUSH1 0x20 ADD PUSH1 0x40 MLOAD SWAP1 DUP2 ADD PUSH1 0x40 MSTORE DUP1 SWAP3 SWAP2 SWAP1 DUP2 DUP2 MSTORE PUSH1 0x20 ADD PUSH1 0x0 SWAP1 JUMPDEST DUP3 DUP3 LT ISZERO PUSH2 0xC9B JUMPI PUSH1 0x0 DUP5 DUP2 MSTORE PUSH1 0x20 SWAP1 DUP2 SWAP1 KECCAK256 PUSH1 0x40 DUP1 MLOAD DUP1 DUP3 ADD SWAP1 SWAP2 MSTORE SWAP1 DUP5 ADD SLOAD PUSH1 0xFF DUP2 AND DUP3 MSTORE PUSH2 0x100 SWAP1 DIV PUSH31 0xFFFFFFFFFFFFFFFFFFFFFFFFFFFFFFFFFFFFFFFFFFFFFFFFFFFFFFFFFFFFFF AND DUP2 DUP4 ADD MSTORE DUP3 MSTORE PUSH1 0x1 SWAP1 SWAP3 ADD SWAP2 ADD PUSH2 0xC3C JUMP JUMPDEST POP POP POP POP DUP5 PUSH2 0xF1C JUMP JUMPDEST SWAP7 SWAP6 POP POP POP POP POP POP JUMP JUMPDEST PUSH1 0x0 SLOAD PUSH2 0x100 SWAP1 DIV PUSH1 0xFF AND PUSH2 0xD46 JUMPI PUSH1 0x40 MLOAD PUSH32 0x8C379A000000000000000000000000000000000000000000000000000000000 DUP2 MSTORE PUSH1 0x20 PUSH1 0x4 DUP3 ADD MSTORE PUSH1 0x2B PUSH1 0x24 DUP3 ADD MSTORE PUSH32 0x496E697469616C697A61626C653A20636F6E7472616374206973206E6F742069 PUSH1 0x44 DUP3 ADD MSTORE PUSH32 0x6E697469616C697A696E67000000000000000000000000000000000000000000 PUSH1 0x64 DUP3 ADD MSTORE PUSH1 0x84 ADD PUSH2 0x2A4 JUMP JUMPDEST PUSH2 0xD4E PUSH2 0xFE2 JUMP JUMPDEST JUMP JUMPDEST PUSH20 0xFFFFFFFFFFFFFFFFFFFFFFFFFFFFFFFFFFFFFFFF DUP1 DUP6 AND PUSH1 0x0 SWAP1 DUP2 MSTORE PUSH1 0x33 PUSH1 0x20 SWAP1 DUP2 MSTORE PUSH1 0x40 DUP1 DUP4 KECCAK256 SWAP4 DUP8 AND DUP4 MSTORE SWAP3 DUP2 MSTORE DUP3 DUP3 KECCAK256 PUSH32 0xFFFFFFFF00000000000000000000000000000000000000000000000000000000 DUP7 AND DUP4 MSTORE PUSH1 0x1 DUP2 ADD SWAP1 SWAP2 MSTORE SWAP2 SWAP1 KECCAK256 DUP1 SLOAD PUSH1 0xFF AND PUSH2 0xDD0 JUMPI DUP2 SLOAD DUP3 PUSH1 0x0 PUSH2 0xDCA DUP4 PUSH2 0x1B6E JUMP JUMPDEST SWAP2 SWAP1 POP SSTORE POP JUMPDEST DUP1 SLOAD PUSH32 0xFFFFFFFFFFFFFFFFFFFFFFFFFFFFFFFFFFFFFFFFFFFFFFFFFFFFFFFFFFFFFF00 AND PUSH1 0x1 SWAP1 DUP2 OR DUP3 SSTORE PUSH2 0xE08 SWAP1 DUP3 ADD PUSH1 0x0 PUSH2 0x131B JUMP JUMPDEST PUSH1 0x0 JUMPDEST DUP4 MLOAD DUP2 LT ISZERO PUSH2 0xE8E JUMPI DUP2 PUSH1 0x1 ADD DUP5 DUP3 DUP2 MLOAD DUP2 LT PUSH2 0xE2A JUMPI PUSH2 0xE2A PUSH2 0x1B10 JUMP JUMPDEST PUSH1 0x20 SWAP1 DUP2 MUL SWAP2 SWAP1 SWAP2 ADD DUP2 ADD MLOAD DUP3 SLOAD PUSH1 0x1 DUP2 ADD DUP5 SSTORE PUSH1 0x0 SWAP4 DUP5 MSTORE SWAP3 DUP3 SWAP1 KECCAK256 DUP2 MLOAD SWAP2 SWAP1 SWAP3 ADD MLOAD PUSH31 0xFFFFFFFFFFFFFFFFFFFFFFFFFFFFFFFFFFFFFFFFFFFFFFFFFFFFFFFFFFFFFF AND PUSH2 0x100 MUL PUSH1 0xFF SWAP1 SWAP2 AND OR SWAP2 ADD SSTORE DUP1 PUSH2 0xE86 DUP2 PUSH2 0x1B6E JUMP JUMPDEST SWAP2 POP POP PUSH2 0xE0B JUMP JUMPDEST POP DUP4 PUSH28 0xFFFFFFFFFFFFFFFFFFFFFFFFFFFFFFFFFFFFFFFFFFFFFFFFFFFFFFFF NOT AND DUP6 PUSH20 0xFFFFFFFFFFFFFFFFFFFFFFFFFFFFFFFFFFFFFFFF AND DUP8 PUSH20 0xFFFFFFFFFFFFFFFFFFFFFFFFFFFFFFFFFFFFFFFF AND PUSH32 0xA4E3AD0D161589A3D7D368C479C5C4BD9D753EA8F4865B26801B7E9823235FF5 DUP7 PUSH1 0x40 MLOAD PUSH2 0xF0C SWAP2 SWAP1 PUSH2 0x1672 JUMP JUMPDEST PUSH1 0x40 MLOAD DUP1 SWAP2 SUB SWAP1 LOG4 POP POP POP POP POP POP JUMP JUMPDEST PUSH1 0x0 DUP1 JUMPDEST DUP4 MLOAD DUP2 LT ISZERO PUSH2 0xFD8 JUMPI PUSH1 0x0 DUP5 DUP3 DUP2 MLOAD DUP2 LT PUSH2 0xF3D JUMPI PUSH2 0xF3D PUSH2 0x1B10 JUMP JUMPDEST PUSH1 0x20 MUL PUSH1 0x20 ADD ADD MLOAD SWAP1 POP DUP4 MLOAD DUP3 LT DUP1 ISZERO PUSH2 0xF77 JUMPI POP PUSH2 0xF75 DUP2 DUP6 DUP5 DUP2 MLOAD DUP2 LT PUSH2 0xF68 JUMPI PUSH2 0xF68 PUSH2 0x1B10 JUMP JUMPDEST PUSH1 0x20 MUL PUSH1 0x20 ADD ADD MLOAD PUSH2 0x107F JUMP JUMPDEST ISZERO JUMPDEST DUP1 PUSH2 0xFB5 JUMPI POP DUP4 MLOAD DUP3 LT ISZERO DUP1 ISZERO PUSH2 0xFB5 JUMPI POP PUSH1 0x0 DUP2 MLOAD PUSH1 0xFF AND PUSH1 0x6 DUP2 GT ISZERO PUSH2 0xFA1 JUMPI PUSH2 0xFA1 PUSH2 0x1C74 JUMP JUMPDEST PUSH1 0x6 DUP2 GT ISZERO PUSH2 0xFB2 JUMPI PUSH2 0xFB2 PUSH2 0x1C74 JUMP JUMPDEST EQ ISZERO JUMPDEST ISZERO PUSH2 0xFC5 JUMPI PUSH1 0x0 SWAP3 POP POP POP PUSH2 0x236 JUMP JUMPDEST POP DUP1 PUSH2 0xFD0 DUP2 PUSH2 0x1B6E JUMP JUMPDEST SWAP2 POP POP PUSH2 0xF20 JUMP JUMPDEST POP PUSH1 0x1 SWAP4 SWAP3 POP POP POP JUMP JUMPDEST PUSH1 0x0 SLOAD PUSH2 0x100 SWAP1 DIV PUSH1 0xFF AND PUSH2 0x1079 JUMPI PUSH1 0x40 MLOAD PUSH32 0x8C379A000000000000000000000000000000000000000000000000000000000 DUP2 MSTORE PUSH1 0x20 PUSH1 0x4 DUP3 ADD MSTORE PUSH1 0x2B PUSH1 0x24 DUP3 ADD MSTORE PUSH32 0x496E697469616C697A61626C653A20636F6E7472616374206973206E6F742069 PUSH1 0x44 DUP3 ADD MSTORE PUSH32 0x6E697469616C697A696E67000000000000000000000000000000000000000000 PUSH1 0x64 DUP3 ADD MSTORE PUSH1 0x84 ADD PUSH2 0x2A4 JUMP JUMPDEST PUSH1 0x1 DUP1 SSTORE JUMP JUMPDEST PUSH1 0x0 DUP1 DUP4 MLOAD PUSH1 0xFF AND PUSH1 0x6 DUP2 GT ISZERO PUSH2 0x1098 JUMPI PUSH2 0x1098 PUSH2 0x1C74 JUMP JUMPDEST PUSH1 0x6 DUP2 GT ISZERO PUSH2 0x10A9 JUMPI PUSH2 0x10A9 PUSH2 0x1C74 JUMP JUMPDEST SUB PUSH2 0x10B6 JUMPI POP PUSH1 0x1 PUSH2 0x236 JUMP JUMPDEST PUSH1 0x1 DUP4 MLOAD PUSH1 0xFF AND PUSH1 0x6 DUP2 GT ISZERO PUSH2 0x10CE JUMPI PUSH2 0x10CE PUSH2 0x1C74 JUMP JUMPDEST PUSH1 0x6 DUP2 GT ISZERO PUSH2 0x10DF JUMPI PUSH2 0x10DF PUSH2 0x1C74 JUMP JUMPDEST SUB PUSH2 0x1112 JUMPI POP PUSH1 0x20 DUP3 ADD MLOAD PUSH31 0xFFFFFFFFFFFFFFFFFFFFFFFFFFFFFFFFFFFFFFFFFFFFFFFFFFFFFFFFFFFFFF AND DUP2 EQ PUSH2 0x236 JUMP JUMPDEST PUSH1 0x2 DUP4 MLOAD PUSH1 0xFF AND PUSH1 0x6 DUP2 GT ISZERO PUSH2 0x112A JUMPI PUSH2 0x112A PUSH2 0x1C74 JUMP JUMPDEST PUSH1 0x6 DUP2 GT ISZERO PUSH2 0x113B JUMPI PUSH2 0x113B PUSH2 0x1C74 JUMP JUMPDEST SUB PUSH2 0x116F JUMPI POP PUSH1 0x20 DUP3 ADD MLOAD PUSH31 0xFFFFFFFFFFFFFFFFFFFFFFFFFFFFFFFFFFFFFFFFFFFFFFFFFFFFFFFFFFFFFF AND DUP2 EQ ISZERO PUSH2 0x236 JUMP JUMPDEST PUSH1 0x3 DUP4 MLOAD PUSH1 0xFF AND PUSH1 0x6 DUP2 GT ISZERO PUSH2 0x1187 JUMPI PUSH2 0x1187 PUSH2 0x1C74 JUMP JUMPDEST PUSH1 0x6 DUP2 GT ISZERO PUSH2 0x1198 JUMPI PUSH2 0x1198 PUSH2 0x1C74 JUMP JUMPDEST SUB PUSH2 0x11CB JUMPI POP PUSH1 0x20 DUP3 ADD MLOAD PUSH31 0xFFFFFFFFFFFFFFFFFFFFFFFFFFFFFFFFFFFFFFFFFFFFFFFFFFFFFFFFFFFFFF AND DUP2 GT PUSH2 0x236 JUMP JUMPDEST PUSH1 0x4 DUP4 MLOAD PUSH1 0xFF AND PUSH1 0x6 DUP2 GT ISZERO PUSH2 0x11E3 JUMPI PUSH2 0x11E3 PUSH2 0x1C74 JUMP JUMPDEST PUSH1 0x6 DUP2 GT ISZERO PUSH2 0x11F4 JUMPI PUSH2 0x11F4 PUSH2 0x1C74 JUMP JUMPDEST SUB PUSH2 0x1227 JUMPI POP PUSH1 0x20 DUP3 ADD MLOAD PUSH31 0xFFFFFFFFFFFFFFFFFFFFFFFFFFFFFFFFFFFFFFFFFFFFFFFFFFFFFFFFFFFFFF AND DUP2 LT PUSH2 0x236 JUMP JUMPDEST PUSH1 0x5 DUP4 MLOAD PUSH1 0xFF AND PUSH1 0x6 DUP2 GT ISZERO PUSH2 0x123F JUMPI PUSH2 0x123F PUSH2 0x1C74 JUMP JUMPDEST PUSH1 0x6 DUP2 GT ISZERO PUSH2 0x1250 JUMPI PUSH2 0x1250 PUSH2 0x1C74 JUMP JUMPDEST SUB PUSH2 0x1284 JUMPI POP PUSH1 0x20 DUP3 ADD MLOAD PUSH31 0xFFFFFFFFFFFFFFFFFFFFFFFFFFFFFFFFFFFFFFFFFFFFFFFFFFFFFFFFFFFFFF AND DUP2 LT ISZERO PUSH2 0x236 JUMP JUMPDEST PUSH1 0x6 DUP4 MLOAD PUSH1 0xFF AND PUSH1 0x6 DUP2 GT ISZERO PUSH2 0x129C JUMPI PUSH2 0x129C PUSH2 0x1C74 JUMP JUMPDEST PUSH1 0x6 DUP2 GT ISZERO PUSH2 0x12AD JUMPI PUSH2 0x12AD PUSH2 0x1C74 JUMP JUMPDEST SUB PUSH2 0x12E1 JUMPI POP PUSH1 0x20 DUP3 ADD MLOAD PUSH31 0xFFFFFFFFFFFFFFFFFFFFFFFFFFFFFFFFFFFFFFFFFFFFFFFFFFFFFFFFFFFFFF AND DUP2 GT ISZERO PUSH2 0x236 JUMP JUMPDEST DUP3 MLOAD PUSH1 0x40 MLOAD PUSH32 0x69F2CBF500000000000000000000000000000000000000000000000000000000 DUP2 MSTORE PUSH1 0xFF SWAP1 SWAP2 AND PUSH1 0x4 DUP3 ADD MSTORE PUSH1 0x24 ADD PUSH2 0x2A4 JUMP JUMPDEST POP DUP1 SLOAD PUSH1 0x0 DUP3 SSTORE SWAP1 PUSH1 0x0 MSTORE PUSH1 0x20 PUSH1 0x0 KECCAK256 SWAP1 DUP2 ADD SWAP1 PUSH2 0x1339 SWAP2 SWAP1 PUSH2 0x133C JUMP JUMPDEST POP JUMP JUMPDEST JUMPDEST DUP1 DUP3 GT ISZERO PUSH2 0x1351 JUMPI PUSH1 0x0 DUP2 SSTORE PUSH1 0x1 ADD PUSH2 0x133D JUMP JUMPDEST POP SWAP1 JUMP JUMPDEST DUP1 CALLDATALOAD PUSH20 0xFFFFFFFFFFFFFFFFFFFFFFFFFFFFFFFFFFFFFFFF DUP2 AND DUP2 EQ PUSH2 0x1379 JUMPI PUSH1 0x0 DUP1 REVERT JUMPDEST SWAP2 SWAP1 POP JUMP JUMPDEST PUSH1 0x0 DUP1 PUSH1 0x40 DUP4 DUP6 SUB SLT ISZERO PUSH2 0x1391 JUMPI PUSH1 0x0 DUP1 REVERT JUMPDEST PUSH2 0x139A DUP4 PUSH2 0x1355 JUMP JUMPDEST SWAP2 POP PUSH2 0x13A8 PUSH1 0x20 DUP5 ADD PUSH2 0x1355 JUMP JUMPDEST SWAP1 POP SWAP3 POP SWAP3 SWAP1 POP JUMP JUMPDEST DUP1 CALLDATALOAD PUSH32 0xFFFFFFFF00000000000000000000000000000000000000000000000000000000 DUP2 AND DUP2 EQ PUSH2 0x1379 JUMPI PUSH1 0x0 DUP1 REVERT JUMPDEST PUSH1 0x0 DUP1 PUSH1 0x0 PUSH1 0x60 DUP5 DUP7 SUB SLT ISZERO PUSH2 0x13F6 JUMPI PUSH1 0x0 DUP1 REVERT JUMPDEST PUSH2 0x13FF DUP5 PUSH2 0x1355 JUMP JUMPDEST SWAP3 POP PUSH2 0x140D PUSH1 0x20 DUP6 ADD PUSH2 0x1355 JUMP JUMPDEST SWAP2 POP PUSH2 0x141B PUSH1 0x40 DUP6 ADD PUSH2 0x13B1 JUMP JUMPDEST SWAP1 POP SWAP3 POP SWAP3 POP SWAP3 JUMP JUMPDEST PUSH32 0x4E487B7100000000000000000000000000000000000000000000000000000000 PUSH1 0x0 MSTORE PUSH1 0x41 PUSH1 0x4 MSTORE PUSH1 0x24 PUSH1 0x0 REVERT JUMPDEST PUSH1 0x40 DUP1 MLOAD SWAP1 DUP2 ADD PUSH8 0xFFFFFFFFFFFFFFFF DUP2 GT DUP3 DUP3 LT OR ISZERO PUSH2 0x1476 JUMPI PUSH2 0x1476 PUSH2 0x1424 JUMP JUMPDEST PUSH1 0x40 MSTORE SWAP1 JUMP JUMPDEST PUSH1 0x40 MLOAD PUSH1 0x60 DUP2 ADD PUSH8 0xFFFFFFFFFFFFFFFF DUP2 GT DUP3 DUP3 LT OR ISZERO PUSH2 0x1476 JUMPI PUSH2 0x1476 PUSH2 0x1424 JUMP JUMPDEST PUSH1 0x40 MLOAD PUSH1 0x1F DUP3 ADD PUSH32 0xFFFFFFFFFFFFFFFFFFFFFFFFFFFFFFFFFFFFFFFFFFFFFFFFFFFFFFFFFFFFFFE0 AND DUP2 ADD PUSH8 0xFFFFFFFFFFFFFFFF DUP2 GT DUP3 DUP3 LT OR ISZERO PUSH2 0x14E6 JUMPI PUSH2 0x14E6 PUSH2 0x1424 JUMP JUMPDEST PUSH1 0x40 MSTORE SWAP2 SWAP1 POP JUMP JUMPDEST PUSH1 0x0 PUSH8 0xFFFFFFFFFFFFFFFF DUP3 GT ISZERO PUSH2 0x1508 JUMPI PUSH2 0x1508 PUSH2 0x1424 JUMP JUMPDEST POP PUSH1 0x5 SHL PUSH1 0x20 ADD SWAP1 JUMP JUMPDEST PUSH1 0x0 DUP1 PUSH1 0x0 DUP1 PUSH1 0x80 DUP6 DUP8 SUB SLT ISZERO PUSH2 0x1528 JUMPI PUSH1 0x0 DUP1 REVERT JUMPDEST PUSH2 0x1531 DUP6 PUSH2 0x1355 JUMP JUMPDEST SWAP4 POP PUSH1 0x20 PUSH2 0x1540 DUP2 DUP8 ADD PUSH2 0x1355 JUMP JUMPDEST SWAP4 POP PUSH2 0x154E PUSH1 0x40 DUP8 ADD PUSH2 0x13B1 JUMP JUMPDEST SWAP3 POP PUSH1 0x60 DUP7 ADD CALLDATALOAD PUSH8 0xFFFFFFFFFFFFFFFF DUP2 GT ISZERO PUSH2 0x156A JUMPI PUSH1 0x0 DUP1 REVERT JUMPDEST DUP7 ADD PUSH1 0x1F DUP2 ADD DUP9 SGT PUSH2 0x157B JUMPI PUSH1 0x0 DUP1 REVERT JUMPDEST DUP1 CALLDATALOAD PUSH2 0x158E PUSH2 0x1589 DUP3 PUSH2 0x14EE JUMP JUMPDEST PUSH2 0x149F JUMP JUMPDEST DUP2 DUP2 MSTORE PUSH1 0x5 SWAP2 SWAP1 SWAP2 SHL DUP3 ADD DUP4 ADD SWAP1 DUP4 DUP2 ADD SWAP1 DUP11 DUP4 GT ISZERO PUSH2 0x15AD JUMPI PUSH1 0x0 DUP1 REVERT JUMPDEST SWAP3 DUP5 ADD SWAP3 JUMPDEST DUP3 DUP5 LT ISZERO PUSH2 0x15CB JUMPI DUP4 CALLDATALOAD DUP3 MSTORE SWAP3 DUP5 ADD SWAP3 SWAP1 DUP5 ADD SWAP1 PUSH2 0x15B2 JUMP JUMPDEST SWAP8 SWAP11 SWAP7 SWAP10 POP SWAP5 SWAP8 POP POP POP POP POP POP JUMP JUMPDEST PUSH1 0x0 PUSH1 0x20 DUP1 DUP4 DUP6 SUB SLT ISZERO PUSH2 0x15ED JUMPI PUSH1 0x0 DUP1 REVERT JUMPDEST DUP3 CALLDATALOAD PUSH8 0xFFFFFFFFFFFFFFFF DUP2 GT ISZERO PUSH2 0x1604 JUMPI PUSH1 0x0 DUP1 REVERT JUMPDEST DUP4 ADD PUSH1 0x1F DUP2 ADD DUP6 SGT PUSH2 0x1615 JUMPI PUSH1 0x0 DUP1 REVERT JUMPDEST DUP1 CALLDATALOAD PUSH2 0x1623 PUSH2 0x1589 DUP3 PUSH2 0x14EE JUMP JUMPDEST DUP2 DUP2 MSTORE PUSH1 0x5 SWAP2 SWAP1 SWAP2 SHL DUP3 ADD DUP4 ADD SWAP1 DUP4 DUP2 ADD SWAP1 DUP8 DUP4 GT ISZERO PUSH2 0x1642 JUMPI PUSH1 0x0 DUP1 REVERT JUMPDEST SWAP3 DUP5 ADD SWAP3 JUMPDEST DUP3 DUP5 LT ISZERO PUSH2 0x1667 JUMPI PUSH2 0x1658 DUP5 PUSH2 0x1355 JUMP JUMPDEST DUP3 MSTORE SWAP3 DUP5 ADD SWAP3 SWAP1 DUP5 ADD SWAP1 PUSH2 0x1647 JUMP JUMPDEST SWAP8 SWAP7 POP POP POP POP POP POP POP JUMP JUMPDEST PUSH1 0x20 DUP1 DUP3 MSTORE DUP3 MLOAD DUP3 DUP3 ADD DUP2 SWAP1 MSTORE PUSH1 0x0 SWAP2 SWAP1 PUSH1 0x40 SWAP1 DUP2 DUP6 ADD SWAP1 DUP7 DUP5 ADD DUP6 JUMPDEST DUP3 DUP2 LT ISZERO PUSH2 0x16D8 JUMPI DUP2 MLOAD DUP1 MLOAD PUSH1 0xFF AND DUP6 MSTORE DUP7 ADD MLOAD PUSH31 0xFFFFFFFFFFFFFFFFFFFFFFFFFFFFFFFFFFFFFFFFFFFFFFFFFFFFFFFFFFFFFF AND DUP7 DUP6 ADD MSTORE SWAP3 DUP5 ADD SWAP3 SWAP1 DUP6 ADD SWAP1 PUSH1 0x1 ADD PUSH2 0x168F JUMP JUMPDEST POP SWAP2 SWAP8 SWAP7 POP POP POP POP POP POP POP JUMP JUMPDEST PUSH1 0x0 DUP3 PUSH1 0x1F DUP4 ADD SLT PUSH2 0x16F6 JUMPI PUSH1 0x0 DUP1 REVERT JUMPDEST DUP2 CALLDATALOAD PUSH1 0x20 PUSH2 0x1706 PUSH2 0x1589 DUP4 PUSH2 0x14EE JUMP JUMPDEST DUP3 DUP2 MSTORE PUSH1 0x6 SWAP3 SWAP1 SWAP3 SHL DUP5 ADD DUP2 ADD SWAP2 DUP2 DUP2 ADD SWAP1 DUP7 DUP5 GT ISZERO PUSH2 0x1725 JUMPI PUSH1 0x0 DUP1 REVERT JUMPDEST DUP3 DUP7 ADD JUMPDEST DUP5 DUP2 LT ISZERO PUSH2 0x17A2 JUMPI PUSH1 0x40 DUP2 DUP10 SUB SLT ISZERO PUSH2 0x1742 JUMPI PUSH1 0x0 DUP1 DUP2 REVERT JUMPDEST PUSH2 0x174A PUSH2 0x1453 JUMP JUMPDEST DUP2 CALLDATALOAD PUSH1 0xFF DUP2 AND DUP2 EQ PUSH2 0x175C JUMPI PUSH1 0x0 DUP1 DUP2 REVERT JUMPDEST DUP2 MSTORE DUP2 DUP6 ADD CALLDATALOAD PUSH31 0xFFFFFFFFFFFFFFFFFFFFFFFFFFFFFFFFFFFFFFFFFFFFFFFFFFFFFFFFFFFFFF DUP2 AND DUP2 EQ PUSH2 0x1790 JUMPI PUSH1 0x0 DUP1 DUP2 REVERT JUMPDEST DUP2 DUP7 ADD MSTORE DUP4 MSTORE SWAP2 DUP4 ADD SWAP2 PUSH1 0x40 ADD PUSH2 0x1729 JUMP JUMPDEST POP SWAP7 SWAP6 POP POP POP POP POP POP JUMP JUMPDEST PUSH1 0x0 DUP3 PUSH1 0x1F DUP4 ADD SLT PUSH2 0x17BE JUMPI PUSH1 0x0 DUP1 REVERT JUMPDEST DUP2 CALLDATALOAD PUSH1 0x20 PUSH2 0x17CE PUSH2 0x1589 DUP4 PUSH2 0x14EE JUMP JUMPDEST DUP3 DUP2 MSTORE PUSH1 0x6 SWAP3 SWAP1 SWAP3 SHL DUP5 ADD DUP2 ADD SWAP2 DUP2 DUP2 ADD SWAP1 DUP7 DUP5 GT ISZERO PUSH2 0x17ED JUMPI PUSH1 0x0 DUP1 REVERT JUMPDEST DUP3 DUP7 ADD JUMPDEST DUP5 DUP2 LT ISZERO PUSH2 0x17A2 JUMPI PUSH1 0x40 DUP2 DUP10 SUB SLT ISZERO PUSH2 0x180A JUMPI PUSH1 0x0 DUP1 DUP2 REVERT JUMPDEST PUSH2 0x1812 PUSH2 0x1453 JUMP JUMPDEST PUSH2 0x181B DUP3 PUSH2 0x1355 JUMP JUMPDEST DUP2 MSTORE PUSH2 0x1828 DUP6 DUP4 ADD PUSH2 0x13B1 JUMP JUMPDEST DUP2 DUP7 ADD MSTORE DUP4 MSTORE SWAP2 DUP4 ADD SWAP2 PUSH1 0x40 ADD PUSH2 0x17F1 JUMP JUMPDEST PUSH1 0x0 PUSH1 0x20 DUP3 DUP5 SUB SLT ISZERO PUSH2 0x184C JUMPI PUSH1 0x0 DUP1 REVERT JUMPDEST PUSH8 0xFFFFFFFFFFFFFFFF DUP3 CALLDATALOAD GT ISZERO PUSH2 0x1862 JUMPI PUSH1 0x0 DUP1 REVERT JUMPDEST DUP2 CALLDATALOAD DUP3 ADD DUP4 PUSH1 0x1F DUP3 ADD SLT PUSH2 0x1875 JUMPI PUSH1 0x0 DUP1 REVERT JUMPDEST PUSH2 0x1882 PUSH2 0x1589 DUP3 CALLDATALOAD PUSH2 0x14EE JUMP JUMPDEST DUP2 CALLDATALOAD DUP1 DUP3 MSTORE PUSH1 0x20 DUP1 DUP4 ADD SWAP3 SWAP2 PUSH1 0x5 SHL DUP5 ADD ADD DUP7 LT ISZERO PUSH2 0x18A0 JUMPI PUSH1 0x0 DUP1 REVERT JUMPDEST PUSH1 0x20 DUP4 ADD JUMPDEST PUSH1 0x20 DUP5 CALLDATALOAD PUSH1 0x5 SHL DUP6 ADD ADD DUP2 LT ISZERO PUSH2 0x1A97 JUMPI PUSH8 0xFFFFFFFFFFFFFFFF DUP2 CALLDATALOAD GT ISZERO PUSH2 0x18CC JUMPI PUSH1 0x0 DUP1 REVERT JUMPDEST DUP1 CALLDATALOAD DUP5 ADD PUSH1 0x60 PUSH32 0xFFFFFFFFFFFFFFFFFFFFFFFFFFFFFFFFFFFFFFFFFFFFFFFFFFFFFFFFFFFFFFE0 DUP3 DUP11 SUB ADD SLT ISZERO PUSH2 0x1902 JUMPI PUSH1 0x0 DUP1 REVERT JUMPDEST PUSH2 0x190A PUSH2 0x147C JUMP JUMPDEST PUSH2 0x1916 PUSH1 0x20 DUP4 ADD PUSH2 0x1355 JUMP JUMPDEST DUP2 MSTORE PUSH8 0xFFFFFFFFFFFFFFFF PUSH1 0x40 DUP4 ADD CALLDATALOAD GT ISZERO PUSH2 0x1931 JUMPI PUSH1 0x0 DUP1 REVERT JUMPDEST PUSH1 0x40 DUP3 ADD CALLDATALOAD DUP3 ADD DUP10 PUSH1 0x3F DUP3 ADD SLT PUSH2 0x1947 JUMPI PUSH1 0x0 DUP1 REVERT JUMPDEST PUSH2 0x1957 PUSH2 0x1589 PUSH1 0x20 DUP4 ADD CALLDATALOAD PUSH2 0x14EE JUMP JUMPDEST PUSH1 0x20 DUP3 DUP2 ADD CALLDATALOAD DUP1 DUP4 MSTORE SWAP1 DUP3 ADD SWAP2 SWAP1 PUSH1 0x5 SHL DUP4 ADD PUSH1 0x40 ADD DUP13 LT ISZERO PUSH2 0x1979 JUMPI PUSH1 0x0 DUP1 REVERT JUMPDEST PUSH1 0x40 DUP4 ADD JUMPDEST PUSH1 0x40 PUSH1 0x20 DUP6 ADD CALLDATALOAD PUSH1 0x5 SHL DUP6 ADD ADD DUP2 LT ISZERO PUSH2 0x1A4F JUMPI PUSH8 0xFFFFFFFFFFFFFFFF DUP2 CALLDATALOAD GT ISZERO PUSH2 0x19A8 JUMPI PUSH1 0x0 DUP1 REVERT JUMPDEST PUSH1 0x60 PUSH32 0xFFFFFFFFFFFFFFFFFFFFFFFFFFFFFFFFFFFFFFFFFFFFFFFFFFFFFFFFFFFFFFC0 DUP3 CALLDATALOAD DUP7 ADD DUP16 SUB ADD SLT ISZERO PUSH2 0x19DD JUMPI PUSH1 0x0 DUP1 REVERT JUMPDEST PUSH2 0x19E5 PUSH2 0x147C JUMP JUMPDEST PUSH2 0x19F4 PUSH1 0x40 DUP4 CALLDATALOAD DUP8 ADD ADD PUSH2 0x1355 JUMP JUMPDEST DUP2 MSTORE PUSH2 0x1A05 PUSH1 0x60 DUP4 CALLDATALOAD DUP8 ADD ADD PUSH2 0x13B1 JUMP JUMPDEST PUSH1 0x20 DUP3 ADD MSTORE PUSH8 0xFFFFFFFFFFFFFFFF PUSH1 0x80 DUP4 CALLDATALOAD DUP8 ADD ADD CALLDATALOAD GT ISZERO PUSH2 0x1A26 JUMPI PUSH1 0x0 DUP1 REVERT JUMPDEST PUSH2 0x1A3C DUP15 DUP4 CALLDATALOAD DUP8 ADD PUSH1 0x80 DUP2 ADD CALLDATALOAD ADD PUSH1 0x40 ADD PUSH2 0x16E5 JUMP JUMPDEST PUSH1 0x40 DUP3 ADD MSTORE DUP4 MSTORE PUSH1 0x20 SWAP3 DUP4 ADD SWAP3 ADD PUSH2 0x197E JUMP JUMPDEST POP PUSH1 0x20 DUP5 ADD MSTORE POP POP PUSH8 0xFFFFFFFFFFFFFFFF PUSH1 0x60 DUP4 ADD CALLDATALOAD GT ISZERO PUSH2 0x1A70 JUMPI PUSH1 0x0 DUP1 REVERT JUMPDEST PUSH2 0x1A83 DUP10 PUSH1 0x20 PUSH1 0x60 DUP6 ADD CALLDATALOAD DUP6 ADD ADD PUSH2 0x17AD JUMP JUMPDEST PUSH1 0x40 DUP3 ADD MSTORE DUP5 MSTORE POP PUSH1 0x20 SWAP3 DUP4 ADD SWAP3 ADD PUSH2 0x18A5 JUMP JUMPDEST POP SWAP6 SWAP5 POP POP POP POP POP JUMP JUMPDEST PUSH1 0x0 DUP1 PUSH1 0x0 DUP1 PUSH1 0x80 DUP6 DUP8 SUB SLT ISZERO PUSH2 0x1AB7 JUMPI PUSH1 0x0 DUP1 REVERT JUMPDEST PUSH2 0x1AC0 DUP6 PUSH2 0x1355 JUMP JUMPDEST SWAP4 POP PUSH2 0x1ACE PUSH1 0x20 DUP7 ADD PUSH2 0x1355 JUMP JUMPDEST SWAP3 POP PUSH2 0x1ADC PUSH1 0x40 DUP7 ADD PUSH2 0x13B1 JUMP JUMPDEST SWAP2 POP PUSH1 0x60 DUP6 ADD CALLDATALOAD PUSH8 0xFFFFFFFFFFFFFFFF DUP2 GT ISZERO PUSH2 0x1AF8 JUMPI PUSH1 0x0 DUP1 REVERT JUMPDEST PUSH2 0x1B04 DUP8 DUP3 DUP9 ADD PUSH2 0x16E5 JUMP JUMPDEST SWAP2 POP POP SWAP3 SWAP6 SWAP2 SWAP5 POP SWAP3 POP JUMP JUMPDEST PUSH32 0x4E487B7100000000000000000000000000000000000000000000000000000000 PUSH1 0x0 MSTORE PUSH1 0x32 PUSH1 0x4 MSTORE PUSH1 0x24 PUSH1 0x0 REVERT JUMPDEST PUSH32 0x4E487B7100000000000000000000000000000000000000000000000000000000 PUSH1 0x0 MSTORE PUSH1 0x11 PUSH1 0x4 MSTORE PUSH1 0x24 PUSH1 0x0 REVERT JUMPDEST PUSH1 0x0 PUSH32 0xFFFFFFFFFFFFFFFFFFFFFFFFFFFFFFFFFFFFFFFFFFFFFFFFFFFFFFFFFFFFFFFF DUP3 SUB PUSH2 0x1B9F JUMPI PUSH2 0x1B9F PUSH2 0x1B3F JUMP JUMPDEST POP PUSH1 0x1 ADD SWAP1 JUMP JUMPDEST PUSH1 0x0 PUSH1 0x80 DUP3 ADD PUSH20 0xFFFFFFFFFFFFFFFFFFFFFFFFFFFFFFFFFFFFFFFF DUP1 DUP9 AND DUP5 MSTORE PUSH1 0x20 DUP2 DUP9 AND DUP2 DUP7 ADD MSTORE PUSH32 0xFFFFFFFF00000000000000000000000000000000000000000000000000000000 DUP8 AND PUSH1 0x40 DUP7 ADD MSTORE PUSH1 0x80 PUSH1 0x60 DUP7 ADD MSTORE DUP3 SWAP2 POP DUP6 MLOAD DUP1 DUP5 MSTORE PUSH1 0xA0 DUP7 ADD SWAP3 POP DUP2 DUP8 ADD SWAP4 POP PUSH1 0x0 JUMPDEST DUP2 DUP2 LT ISZERO PUSH2 0x1C30 JUMPI DUP5 MLOAD DUP5 MSTORE SWAP4 DUP3 ADD SWAP4 SWAP3 DUP3 ADD SWAP3 PUSH1 0x1 ADD PUSH2 0x1C14 JUMP JUMPDEST POP SWAP2 SWAP10 SWAP9 POP POP POP POP POP POP POP POP POP JUMP JUMPDEST PUSH1 0x0 DUP2 PUSH2 0x1C4E JUMPI PUSH2 0x1C4E PUSH2 0x1B3F JUMP JUMPDEST POP PUSH32 0xFFFFFFFFFFFFFFFFFFFFFFFFFFFFFFFFFFFFFFFFFFFFFFFFFFFFFFFFFFFFFFFF ADD SWAP1 JUMP JUMPDEST PUSH32 0x4E487B7100000000000000000000000000000000000000000000000000000000 PUSH1 0x0 MSTORE PUSH1 0x21 PUSH1 0x4 MSTORE PUSH1 0x24 PUSH1 0x0 REVERT INVALID LOG2 PUSH5 0x6970667358 0x22 SLT KECCAK256 PUSH6 0x482614376100 PC XOR CALLDATASIZE 0xCB PUSH29 0x923EB92211479350661467AA892345D15048CEA464736F6C6343000811 STOP CALLER "},"methodIdentifiers":{"ANYONE()":"405d30af","ANYWHERE()":"840510cc","authorize(address,address,bytes4,(uint8,uint248)[])":"fd1ccc9b","changePermissions((address,(address,bytes4,(uint8,uint248)[])[],(address,bytes4)[])[])":"ca7c51d0","getPermissionParams(address,address,bytes4)":"b091986d","getPermissionsLength(address,address)":"0eb39344","hasPermissions(address,address)":"e8a67dad","initialize(address[])":"a224cee7","isAuthorized(address,address,bytes4,uint256[])":"28522895","unauthorize(address,address,bytes4)":"261a48af"}}}}}