{"contracts/BalancerClaimer.sol":{"BalancerClaimer":{"abi":[{"inputs":[{"internalType":"address","name":"who","type":"address"},{"internalType":"bytes4","name":"what","type":"bytes4"},{"internalType":"uint256[]","name":"how","type":"uint256[]"}],"name":"AuthSenderNotAllowed","type":"error"},{"inputs":[{"internalType":"uint256","name":"a","type":"uint256"},{"internalType":"uint256","name":"aInflated","type":"uint256"}],"name":"FixedPointDivInternal","type":"error"},{"inputs":[{"internalType":"uint256","name":"a","type":"uint256"},{"internalType":"uint256","name":"b","type":"uint256"}],"name":"FixedPointMulOverflow","type":"error"},{"inputs":[],"name":"FixedPointZeroDivision","type":"error"},{"inputs":[],"name":"TaskAcceptanceInputLengthMismatch","type":"error"},{"inputs":[],"name":"TaskAcceptanceTokenZero","type":"error"},{"inputs":[],"name":"TaskAmountZero","type":"error"},{"inputs":[],"name":"TaskGasNotInitialized","type":"error"},{"inputs":[{"internalType":"uint256","name":"gasPrice","type":"uint256"},{"internalType":"uint256","name":"gasPriceLimit","type":"uint256"}],"name":"TaskGasPriceLimitExceeded","type":"error"},{"inputs":[{"internalType":"uint8","name":"mode","type":"uint8"},{"internalType":"uint256","name":"date","type":"uint256"}],"name":"TaskInvalidAllowedDate","type":"error"},{"inputs":[{"internalType":"uint8","name":"mode","type":"uint8"},{"internalType":"uint256","name":"window","type":"uint256"}],"name":"TaskInvalidAllowedWindow","type":"error"},{"inputs":[{"internalType":"uint8","name":"mode","type":"uint8"},{"internalType":"uint256","name":"frequency","type":"uint256"}],"name":"TaskInvalidFrequency","type":"error"},{"inputs":[{"internalType":"uint8","name":"mode","type":"uint8"}],"name":"TaskInvalidFrequencyMode","type":"error"},{"inputs":[{"internalType":"address","name":"token","type":"address"},{"internalType":"uint256","name":"min","type":"uint256"},{"internalType":"uint256","name":"max","type":"uint256"}],"name":"TaskInvalidThresholdInput","type":"error"},{"inputs":[{"internalType":"address","name":"token","type":"address"},{"internalType":"uint256","name":"amount","type":"uint256"},{"internalType":"uint256","name":"period","type":"uint256"}],"name":"TaskInvalidVolumeLimitInput","type":"error"},{"inputs":[],"name":"TaskPaused","type":"error"},{"inputs":[{"internalType":"bytes32","name":"id","type":"bytes32"}],"name":"TaskPreviousConnectorNotZero","type":"error"},{"inputs":[{"internalType":"uint256","name":"priorityFee","type":"uint256"},{"internalType":"uint256","name":"priorityFeeLimit","type":"uint256"}],"name":"TaskPriorityFeeLimitExceeded","type":"error"},{"inputs":[],"name":"TaskProtocolFeeWithdrawerZero","type":"error"},{"inputs":[],"name":"TaskProtocolFeesCollectorZero","type":"error"},{"inputs":[{"internalType":"bytes32","name":"connectorId","type":"bytes32"}],"name":"TaskSameBalanceConnectors","type":"error"},{"inputs":[{"internalType":"address","name":"smartVault","type":"address"}],"name":"TaskSmartVaultPriceOracleNotSet","type":"error"},{"inputs":[],"name":"TaskThresholdTokenZero","type":"error"},{"inputs":[{"internalType":"uint256","name":"currentTimestamp","type":"uint256"},{"internalType":"uint256","name":"expiration","type":"uint256"}],"name":"TaskTimeLockActive","type":"error"},{"inputs":[{"internalType":"address","name":"token","type":"address"}],"name":"TaskTokenNotAllowed","type":"error"},{"inputs":[{"internalType":"address","name":"token","type":"address"},{"internalType":"uint256","name":"amount","type":"uint256"},{"internalType":"uint256","name":"min","type":"uint256"},{"internalType":"uint256","name":"max","type":"uint256"}],"name":"TaskTokenThresholdNotMet","type":"error"},{"inputs":[],"name":"TaskTokenZero","type":"error"},{"inputs":[{"internalType":"uint256","name":"txCost","type":"uint256"},{"internalType":"uint256","name":"txCostLimit","type":"uint256"}],"name":"TaskTxCostLimitExceeded","type":"error"},{"inputs":[],"name":"TaskTxCostLimitPctAboveOne","type":"error"},{"inputs":[{"internalType":"uint256","name":"txCostPct","type":"uint256"},{"internalType":"uint256","name":"txCostLimitPct","type":"uint256"}],"name":"TaskTxCostLimitPctExceeded","type":"error"},{"inputs":[],"name":"TaskUnpaused","type":"error"},{"inputs":[{"internalType":"address","name":"token","type":"address"},{"internalType":"uint256","name":"limit","type":"uint256"},{"internalType":"uint256","name":"volume","type":"uint256"}],"name":"TaskVolumeLimitExceeded","type":"error"},{"inputs":[],"name":"TaskVolumeLimitTokenZero","type":"error"},{"anonymous":false,"inputs":[{"indexed":true,"internalType":"bytes32","name":"previous","type":"bytes32"},{"indexed":true,"internalType":"bytes32","name":"next","type":"bytes32"}],"name":"BalanceConnectorsSet","type":"event"},{"anonymous":false,"inputs":[{"indexed":true,"internalType":"address","name":"token","type":"address"},{"indexed":false,"internalType":"address","name":"thresholdToken","type":"address"},{"indexed":false,"internalType":"uint256","name":"min","type":"uint256"},{"indexed":false,"internalType":"uint256","name":"max","type":"uint256"}],"name":"CustomTokenThresholdSet","type":"event"},{"anonymous":false,"inputs":[{"indexed":true,"internalType":"address","name":"token","type":"address"},{"indexed":true,"internalType":"address","name":"limitToken","type":"address"},{"indexed":false,"internalType":"uint256","name":"amount","type":"uint256"},{"indexed":false,"internalType":"uint256","name":"period","type":"uint256"}],"name":"CustomVolumeLimitSet","type":"event"},{"anonymous":false,"inputs":[{"indexed":false,"internalType":"address","name":"token","type":"address"},{"indexed":false,"internalType":"uint256","name":"min","type":"uint256"},{"indexed":false,"internalType":"uint256","name":"max","type":"uint256"}],"name":"DefaultTokenThresholdSet","type":"event"},{"anonymous":false,"inputs":[{"indexed":true,"internalType":"address","name":"limitToken","type":"address"},{"indexed":false,"internalType":"uint256","name":"amount","type":"uint256"},{"indexed":false,"internalType":"uint256","name":"period","type":"uint256"}],"name":"DefaultVolumeLimitSet","type":"event"},{"anonymous":false,"inputs":[],"name":"Executed","type":"event"},{"anonymous":false,"inputs":[{"indexed":false,"internalType":"uint256","name":"gasPriceLimit","type":"uint256"},{"indexed":false,"internalType":"uint256","name":"priorityFeeLimit","type":"uint256"},{"indexed":false,"internalType":"uint256","name":"txCostLimit","type":"uint256"},{"indexed":false,"internalType":"uint256","name":"txCostLimitPct","type":"uint256"}],"name":"GasLimitsSet","type":"event"},{"anonymous":false,"inputs":[{"indexed":false,"internalType":"uint8","name":"version","type":"uint8"}],"name":"Initialized","type":"event"},{"anonymous":false,"inputs":[],"name":"Paused","type":"event"},{"anonymous":false,"inputs":[{"indexed":true,"internalType":"address","name":"protocolFeeWithdrawer","type":"address"}],"name":"ProtocolFeeWithdrawerSet","type":"event"},{"anonymous":false,"inputs":[{"indexed":true,"internalType":"address","name":"protocolFeesCollector","type":"address"}],"name":"ProtocolFeesCollectorSet","type":"event"},{"anonymous":false,"inputs":[{"indexed":false,"internalType":"uint256","name":"allowedAt","type":"uint256"}],"name":"TimeLockAllowedAtSet","type":"event"},{"anonymous":false,"inputs":[{"indexed":false,"internalType":"uint8","name":"mode","type":"uint8"},{"indexed":false,"internalType":"uint256","name":"frequency","type":"uint256"},{"indexed":false,"internalType":"uint256","name":"allowedAt","type":"uint256"},{"indexed":false,"internalType":"uint256","name":"window","type":"uint256"}],"name":"TimeLockSet","type":"event"},{"anonymous":false,"inputs":[{"indexed":true,"internalType":"address","name":"token","type":"address"},{"indexed":false,"internalType":"bool","name":"added","type":"bool"}],"name":"TokensAcceptanceListSet","type":"event"},{"anonymous":false,"inputs":[{"indexed":false,"internalType":"enum ITokenIndexedTask.TokensAcceptanceType","name":"acceptanceType","type":"uint8"}],"name":"TokensAcceptanceTypeSet","type":"event"},{"anonymous":false,"inputs":[],"name":"Unpaused","type":"event"},{"inputs":[],"name":"EXECUTION_TYPE","outputs":[{"internalType":"bytes32","name":"","type":"bytes32"}],"stateMutability":"view","type":"function"},{"inputs":[],"name":"authorizer","outputs":[{"internalType":"address","name":"","type":"address"}],"stateMutability":"view","type":"function"},{"inputs":[{"internalType":"address","name":"token","type":"address"},{"internalType":"uint256","name":"amount","type":"uint256"}],"name":"call","outputs":[],"stateMutability":"nonpayable","type":"function"},{"inputs":[{"internalType":"address","name":"token","type":"address"}],"name":"customTokenThreshold","outputs":[{"internalType":"address","name":"thresholdToken","type":"address"},{"internalType":"uint256","name":"min","type":"uint256"},{"internalType":"uint256","name":"max","type":"uint256"}],"stateMutability":"view","type":"function"},{"inputs":[{"internalType":"address","name":"token","type":"address"}],"name":"customVolumeLimit","outputs":[{"internalType":"address","name":"limitToken","type":"address"},{"internalType":"uint256","name":"amount","type":"uint256"},{"internalType":"uint256","name":"accrued","type":"uint256"},{"internalType":"uint256","name":"period","type":"uint256"},{"internalType":"uint256","name":"nextResetTime","type":"uint256"}],"stateMutability":"view","type":"function"},{"inputs":[],"name":"defaultTokenThreshold","outputs":[{"internalType":"address","name":"thresholdToken","type":"address"},{"internalType":"uint256","name":"min","type":"uint256"},{"internalType":"uint256","name":"max","type":"uint256"}],"stateMutability":"view","type":"function"},{"inputs":[],"name":"defaultVolumeLimit","outputs":[{"internalType":"address","name":"limitToken","type":"address"},{"internalType":"uint256","name":"amount","type":"uint256"},{"internalType":"uint256","name":"accrued","type":"uint256"},{"internalType":"uint256","name":"period","type":"uint256"},{"internalType":"uint256","name":"nextResetTime","type":"uint256"}],"stateMutability":"view","type":"function"},{"inputs":[],"name":"getBalanceConnectors","outputs":[{"internalType":"bytes32","name":"previous","type":"bytes32"},{"internalType":"bytes32","name":"next","type":"bytes32"}],"stateMutability":"view","type":"function"},{"inputs":[],"name":"getGasLimits","outputs":[{"internalType":"uint256","name":"gasPriceLimit","type":"uint256"},{"internalType":"uint256","name":"priorityFeeLimit","type":"uint256"},{"internalType":"uint256","name":"txCostLimit","type":"uint256"},{"internalType":"uint256","name":"txCostLimitPct","type":"uint256"}],"stateMutability":"view","type":"function"},{"inputs":[{"internalType":"address","name":"token","type":"address"}],"name":"getTaskAmount","outputs":[{"internalType":"uint256","name":"","type":"uint256"}],"stateMutability":"view","type":"function"},{"inputs":[],"name":"getTimeLock","outputs":[{"internalType":"uint8","name":"mode","type":"uint8"},{"internalType":"uint256","name":"frequency","type":"uint256"},{"internalType":"uint256","name":"allowedAt","type":"uint256"},{"internalType":"uint256","name":"window","type":"uint256"}],"stateMutability":"view","type":"function"},{"inputs":[{"internalType":"address","name":"token","type":"address"}],"name":"getTokenThreshold","outputs":[{"internalType":"address","name":"thresholdToken","type":"address"},{"internalType":"uint256","name":"min","type":"uint256"},{"internalType":"uint256","name":"max","type":"uint256"}],"stateMutability":"view","type":"function"},{"inputs":[],"name":"getTokensSource","outputs":[{"internalType":"address","name":"","type":"address"}],"stateMutability":"view","type":"function"},{"inputs":[{"internalType":"address","name":"token","type":"address"}],"name":"getVolumeLimit","outputs":[{"internalType":"address","name":"limitToken","type":"address"},{"internalType":"uint256","name":"amount","type":"uint256"},{"internalType":"uint256","name":"accrued","type":"uint256"},{"internalType":"uint256","name":"period","type":"uint256"},{"internalType":"uint256","name":"nextResetTime","type":"uint256"}],"stateMutability":"view","type":"function"},{"inputs":[{"components":[{"components":[{"internalType":"address","name":"smartVault","type":"address"},{"internalType":"bytes32","name":"previousBalanceConnectorId","type":"bytes32"},{"internalType":"bytes32","name":"nextBalanceConnectorId","type":"bytes32"}],"internalType":"struct BaseTask.BaseConfig","name":"baseConfig","type":"tuple"},{"components":[{"internalType":"uint256","name":"gasPriceLimit","type":"uint256"},{"internalType":"uint256","name":"priorityFeeLimit","type":"uint256"},{"internalType":"uint256","name":"txCostLimit","type":"uint256"},{"internalType":"uint256","name":"txCostLimitPct","type":"uint256"}],"internalType":"struct GasLimitedTask.GasLimitConfig","name":"gasLimitConfig","type":"tuple"},{"components":[{"internalType":"uint8","name":"mode","type":"uint8"},{"internalType":"uint256","name":"frequency","type":"uint256"},{"internalType":"uint256","name":"allowedAt","type":"uint256"},{"internalType":"uint256","name":"window","type":"uint256"}],"internalType":"struct TimeLockedTask.TimeLockConfig","name":"timeLockConfig","type":"tuple"},{"components":[{"internalType":"enum ITokenIndexedTask.TokensAcceptanceType","name":"acceptanceType","type":"uint8"},{"internalType":"address[]","name":"tokens","type":"address[]"}],"internalType":"struct TokenIndexedTask.TokenIndexConfig","name":"tokenIndexConfig","type":"tuple"},{"components":[{"components":[{"internalType":"address","name":"token","type":"address"},{"internalType":"uint256","name":"min","type":"uint256"},{"internalType":"uint256","name":"max","type":"uint256"}],"internalType":"struct TokenThresholdTask.Threshold","name":"defaultThreshold","type":"tuple"},{"components":[{"internalType":"address","name":"token","type":"address"},{"components":[{"internalType":"address","name":"token","type":"address"},{"internalType":"uint256","name":"min","type":"uint256"},{"internalType":"uint256","name":"max","type":"uint256"}],"internalType":"struct TokenThresholdTask.Threshold","name":"threshold","type":"tuple"}],"internalType":"struct TokenThresholdTask.CustomThresholdConfig[]","name":"customThresholdConfigs","type":"tuple[]"}],"internalType":"struct TokenThresholdTask.TokenThresholdConfig","name":"tokenThresholdConfig","type":"tuple"},{"components":[{"components":[{"internalType":"address","name":"token","type":"address"},{"internalType":"uint256","name":"amount","type":"uint256"},{"internalType":"uint256","name":"period","type":"uint256"}],"internalType":"struct VolumeLimitedTask.VolumeLimitParams","name":"defaultVolumeLimit","type":"tuple"},{"components":[{"internalType":"address","name":"token","type":"address"},{"components":[{"internalType":"address","name":"token","type":"address"},{"internalType":"uint256","name":"amount","type":"uint256"},{"internalType":"uint256","name":"period","type":"uint256"}],"internalType":"struct VolumeLimitedTask.VolumeLimitParams","name":"volumeLimit","type":"tuple"}],"internalType":"struct VolumeLimitedTask.CustomVolumeLimitConfig[]","name":"customVolumeLimitConfigs","type":"tuple[]"}],"internalType":"struct VolumeLimitedTask.VolumeLimitConfig","name":"volumeLimitConfig","type":"tuple"}],"internalType":"struct Task.TaskConfig","name":"config","type":"tuple"},{"internalType":"address","name":"withdrawer","type":"address"},{"internalType":"address","name":"collector","type":"address"}],"name":"initializeBalancerClaimer","outputs":[],"stateMutability":"nonpayable","type":"function"},{"inputs":[],"name":"isPaused","outputs":[{"internalType":"bool","name":"","type":"bool"}],"stateMutability":"view","type":"function"},{"inputs":[{"internalType":"address","name":"token","type":"address"}],"name":"isTokenAllowed","outputs":[{"internalType":"bool","name":"","type":"bool"}],"stateMutability":"view","type":"function"},{"inputs":[],"name":"pause","outputs":[],"stateMutability":"nonpayable","type":"function"},{"inputs":[],"name":"protocolFeeWithdrawer","outputs":[{"internalType":"address","name":"","type":"address"}],"stateMutability":"view","type":"function"},{"inputs":[],"name":"protocolFeesCollector","outputs":[{"internalType":"address","name":"","type":"address"}],"stateMutability":"view","type":"function"},{"inputs":[{"internalType":"bytes32","name":"previous","type":"bytes32"},{"internalType":"bytes32","name":"next","type":"bytes32"}],"name":"setBalanceConnectors","outputs":[],"stateMutability":"nonpayable","type":"function"},{"inputs":[{"internalType":"address","name":"token","type":"address"},{"internalType":"address","name":"thresholdToken","type":"address"},{"internalType":"uint256","name":"min","type":"uint256"},{"internalType":"uint256","name":"max","type":"uint256"}],"name":"setCustomTokenThreshold","outputs":[],"stateMutability":"nonpayable","type":"function"},{"inputs":[{"internalType":"address","name":"token","type":"address"},{"internalType":"address","name":"limitToken","type":"address"},{"internalType":"uint256","name":"limitAmount","type":"uint256"},{"internalType":"uint256","name":"limitPeriod","type":"uint256"}],"name":"setCustomVolumeLimit","outputs":[],"stateMutability":"nonpayable","type":"function"},{"inputs":[{"internalType":"address","name":"thresholdToken","type":"address"},{"internalType":"uint256","name":"min","type":"uint256"},{"internalType":"uint256","name":"max","type":"uint256"}],"name":"setDefaultTokenThreshold","outputs":[],"stateMutability":"nonpayable","type":"function"},{"inputs":[{"internalType":"address","name":"limitToken","type":"address"},{"internalType":"uint256","name":"limitAmount","type":"uint256"},{"internalType":"uint256","name":"limitPeriod","type":"uint256"}],"name":"setDefaultVolumeLimit","outputs":[],"stateMutability":"nonpayable","type":"function"},{"inputs":[{"internalType":"uint256","name":"newGasPriceLimit","type":"uint256"},{"internalType":"uint256","name":"newPriorityFeeLimit","type":"uint256"},{"internalType":"uint256","name":"newTxCostLimit","type":"uint256"},{"internalType":"uint256","name":"newTxCostLimitPct","type":"uint256"}],"name":"setGasLimits","outputs":[],"stateMutability":"nonpayable","type":"function"},{"inputs":[{"internalType":"address","name":"newProtocolFeeWithdrawer","type":"address"}],"name":"setProtocolFeeWithdrawer","outputs":[],"stateMutability":"nonpayable","type":"function"},{"inputs":[{"internalType":"address","name":"newProtocolFeesCollector","type":"address"}],"name":"setProtocolFeesCollector","outputs":[],"stateMutability":"nonpayable","type":"function"},{"inputs":[{"internalType":"uint8","name":"mode","type":"uint8"},{"internalType":"uint256","name":"frequency","type":"uint256"},{"internalType":"uint256","name":"allowedAt","type":"uint256"},{"internalType":"uint256","name":"window","type":"uint256"}],"name":"setTimeLock","outputs":[],"stateMutability":"nonpayable","type":"function"},{"inputs":[{"internalType":"address[]","name":"tokens","type":"address[]"},{"internalType":"bool[]","name":"added","type":"bool[]"}],"name":"setTokensAcceptanceList","outputs":[],"stateMutability":"nonpayable","type":"function"},{"inputs":[{"internalType":"enum ITokenIndexedTask.TokensAcceptanceType","name":"newTokensAcceptanceType","type":"uint8"}],"name":"setTokensAcceptanceType","outputs":[],"stateMutability":"nonpayable","type":"function"},{"inputs":[],"name":"smartVault","outputs":[{"internalType":"address","name":"","type":"address"}],"stateMutability":"view","type":"function"},{"inputs":[],"name":"tokensAcceptanceType","outputs":[{"internalType":"enum ITokenIndexedTask.TokensAcceptanceType","name":"","type":"uint8"}],"stateMutability":"view","type":"function"},{"inputs":[],"name":"unpause","outputs":[],"stateMutability":"nonpayable","type":"function"}],"evm":{"bytecode":{"linkReferences":{},"object":"60806040523480156200001157600080fd5b506200001c62000022565b620000e4565b600054610100900460ff16156200008f5760405162461bcd60e51b815260206004820152602760248201527f496e697469616c697a61626c653a20636f6e747261637420697320696e697469604482015266616c697a696e6760c81b606482015260840160405180910390fd5b60005460ff9081161015620000e2576000805460ff191660ff9081179091556040519081527f7f26b83ff96e1f2b6a682f133852f6798a09c465da95921460cefb38474024989060200160405180910390a15b565b61524b80620000f46000396000f3fe608060405234801561001057600080fd5b50600436106102265760003560e01c80636b1239191161012a578063b187bd26116100bd578063d45a76cf1161008c578063e6b5be9811610071578063e6b5be9814610648578063e97b80711461065b578063f9eaee0d1461066e57600080fd5b8063d45a76cf14610622578063db20de821461063557600080fd5b8063b187bd26146105c8578063c267621e146105e5578063d09edf31146105f6578063d3feb6021461060f57600080fd5b806390333ba8116100f957806390333ba814610515578063a0c3774f14610528578063a33741771461053b578063a5900c4d1461056e57600080fd5b80636b123919146104d45780637125590a146104e75780637cbd3a56146104fa5780638456cb591461050d57600080fd5b80633f4ba83a116101bd5780634fd49efd1161018c5780635670e2ce116101715780635670e2ce146104415780635ea54eee1461045c5780636aacaad81461048857600080fd5b80634fd49efd146103de57806351a424b11461040957600080fd5b80633f4ba83a14610374578063423a4b401461037c57806342d4693e1461038f5780634a45a3a8146103a957600080fd5b8063221a8c68116101f9578063221a8c68146102975780632384c32d1461033b57806330eae5721461034e5780633bd9ef281461036157600080fd5b80630ef917ed1461022b5780630fe105e814610240578063119a5e96146102535780632197238414610284575b600080fd5b61023e6102393660046144a0565b610681565b005b61023e61024e3660046144ce565b6106c6565b61025b610717565b6040805160ff909516855260208501939093529183015260608201526080015b60405180910390f35b61023e61029236600461467c565b61074e565b6103096102a53660046144a0565b6001600160a01b039081166000908152601b6020908152604091829020825160a08101845281549094168085526001820154928501839052600282015493850184905260038201546060860181905260049092015460809095018590529491939091565b604080516001600160a01b0390961686526020860194909452928401919091526060830152608082015260a00161027b565b61023e610349366004614740565b610816565b61023e61035c366004614795565b61085d565b61023e61036f3660046147b0565b6108b2565b61023e61099e565b61023e61038a366004614740565b610a5b565b600f5461039c9060ff1681565b60405161027b919061480b565b6103d07f4f1a5aef466c18f2eefd210f80b744aa3b40590af293e84b695be7d70fd862b381565b60405190815260200161027b565b6001546103f1906001600160a01b031681565b6040516001600160a01b03909116815260200161027b565b61041c6104173660046144a0565b610aa2565b604080516001600160a01b03909416845260208401929092529082015260600161027b565b6002546003546040805192835260208301919091520161027b565b60065460075460085460095460408051948552602085019390935291830152606082015260800161027b565b6103096040805160a0810182526016546001600160a01b03168082526017546020830181905260185493830184905260195460608401819052601a546080909401849052919490939290565b601c546103f1906001600160a01b031681565b61023e6104f536600461484c565b610acb565b61023e610508366004614b5f565b610b0e565b61023e610c92565b61023e610523366004614c70565b610d53565b6103d06105363660046144a0565b610d98565b61041c604080516060810182526012546001600160a01b0316808252601354602083018190526014549290930182905292565b61041c61057c3660046144a0565b6001600160a01b03808216600090815260156020908152604091829020825160608101845281549094168085526001820154928501839052600290910154939092018390529093909250565b6004546105d59060ff1681565b604051901515815260200161027b565b601d546001600160a01b03166103f1565b6000546103f1906201000090046001600160a01b031681565b61023e61061d366004614c70565b610db8565b6103096106303660046144a0565b610dfd565b61023e6106433660046144a0565b610e6c565b61023e610656366004614ca5565b610ead565b601d546103f1906001600160a01b031681565b6105d561067c3660046144a0565b610ef4565b61068a81610f32565b6106b9336000357fffffffff000000000000000000000000000000000000000000000000000000001683610f46565b6106c282610f8d565b5050565b6106d58460ff1684848461102f565b610704336000357fffffffff000000000000000000000000000000000000000000000000000000001683610f46565b610710858585856110da565b5050505050565b600a5460009081908190819060ff166002811115610737576107376147dc565b600b54600c54600e54935093509350935090919293565b61077c336000357fffffffff0000000000000000000000000000000000000000000000000000000016611497565b80518251146107b7576040517f5d32021a00000000000000000000000000000000000000000000000000000000815260040160405180910390fd5b60005b8251811015610811576107ff8382815181106107d8576107d8614cd7565b60200260200101518383815181106107f2576107f2614cd7565b60200260200101516114b3565b8061080981614d35565b9150506107ba565b505050565b6108228484848461155d565b610851336000357fffffffff000000000000000000000000000000000000000000000000000000001683610f46565b610710858585856115c6565b61087a816001811115610872576108726147dc565b60ff1661167f565b6108a9336000357fffffffff000000000000000000000000000000000000000000000000000000001683610f46565b6106c2826116c6565b6108bc8282611741565b6108eb336000357fffffffff000000000000000000000000000000000000000000000000000000001683610f46565b816000036108ff576108fc83610d98565b91505b61090983836117b0565b600154601c546001600160a01b0391821691634ae00041911661092c8686611834565b60006040518463ffffffff1660e01b815260040161094c93929190614dbd565b6000604051808303816000875af115801561096b573d6000803e3d6000fd5b505050506040513d6000823e601f3d908101601f191682016040526109939190810190614def565b506108118383611977565b6109cc336000357fffffffff0000000000000000000000000000000000000000000000000000000016611497565b60045460ff16610a08576040517f9e6558bd00000000000000000000000000000000000000000000000000000000815260040160405180910390fd5b600480547fffffffffffffffffffffffffffffffffffffffffffffffffffffffffffffff001690556040517fa45f47fdea8a1efdd9029a5691c7f759c32b7c698632b563573e155625d1693390600090a1565b610a678484848461155d565b610a96336000357fffffffff000000000000000000000000000000000000000000000000000000001683610f46565b6107108585858561198b565b600080600080610ab185611a4b565b805160208201516040909201519097919650945092505050565b610ad58282611ad6565b610b04336000357fffffffff000000000000000000000000000000000000000000000000000000001683610f46565b6108118383611b30565b600054610100900460ff1615808015610b2e5750600054600160ff909116105b80610b485750303b158015610b48575060005460ff166001145b610bbf5760405162461bcd60e51b815260206004820152602e60248201527f496e697469616c697a61626c653a20636f6e747261637420697320616c72656160448201527f647920696e697469616c697a656400000000000000000000000000000000000060648201526084015b60405180910390fd5b600080547fffffffffffffffffffffffffffffffffffffffffffffffffffffffffffffff001660011790558015610c1d57600080547fffffffffffffffffffffffffffffffffffffffffffffffffffffffffffff00ff166101001790555b610c28848484611b75565b8015610c8c57600080547fffffffffffffffffffffffffffffffffffffffffffffffffffffffffffff00ff169055604051600181527f7f26b83ff96e1f2b6a682f133852f6798a09c465da95921460cefb3847402498906020015b60405180910390a15b50505050565b610cc0336000357fffffffff0000000000000000000000000000000000000000000000000000000016611497565b60045460ff1615610cfd576040517fc0f2312800000000000000000000000000000000000000000000000000000000815260040160405180910390fd5b600480547fffffffffffffffffffffffffffffffffffffffffffffffffffffffffffffff001660011790556040517f9e87fac88ff661f02d44f95383c817fece4bce600a3dab7a54406878b965e75290600090a1565b610d5e838383611bf4565b610d8d336000357fffffffff000000000000000000000000000000000000000000000000000000001683610f46565b610c8c848484611c86565b601d54600090610db29083906001600160a01b0316611cdc565b92915050565b610dc3838383611bf4565b610df2336000357fffffffff000000000000000000000000000000000000000000000000000000001683610f46565b610c8c848484611d9d565b600080600080600080610e0f87611df9565b6040805160a08101825282546001600160a01b031680825260018401546020830181905260028501549383018490526003850154606084018190526004909501546080909301839052909b909a5091985091965090945092505050565b610e7581610f32565b610ea4336000357fffffffff000000000000000000000000000000000000000000000000000000001683610f46565b6106c282611e2d565b610eb98484848461102f565b610ee8336000357fffffffff000000000000000000000000000000000000000000000000000000001683610f46565b61071085858585611ecf565b600080610f02601084611f6a565b90506001600f5460ff166001811115610f1d57610f1d6147dc565b14610f29578015610f2b565b805b9392505050565b6060610db2826001600160a01b031661167f565b610f51838383611f8c565b610811578282826040517f960c80da000000000000000000000000000000000000000000000000000000008152600401610bb693929190614ebe565b6001600160a01b038116610fcd576040517fdb6cf18100000000000000000000000000000000000000000000000000000000815260040160405180910390fd5b601d80547fffffffffffffffffffffffff0000000000000000000000000000000000000000166001600160a01b0383169081179091556040517f0c7d25a41bb896a3d198b4b4593a58cb7f37d8340b0b58bffa244676e2ef803a90600090a250565b60408051600480825260a0820190925260609160208201608080368337019050509050848160008151811061106657611066614cd7565b602002602001018181525050838160018151811061108657611086614cd7565b60200260200101818152505082816002815181106110a6576110a6614cd7565b60200260200101818152505081816003815181106110c6576110c6614cd7565b602002602001018181525050949350505050565b60ff84166111d65760008111806110f15750600082115b156111d1578260000361113c576040517fbea499cb00000000000000000000000000000000000000000000000000000000815260ff8516600482015260248101849052604401610bb6565b80158061114857508281115b1561118b576040517f9e12fccf00000000000000000000000000000000000000000000000000000000815260ff8516600482015260248101829052604401610bb6565b816000036111d1576040517fad0d7eb200000000000000000000000000000000000000000000000000000000815260ff8516600482015260248101839052604401610bb6565b6113ec565b8260000361121c576040517fbea499cb00000000000000000000000000000000000000000000000000000000815260ff8516600482015260248101849052604401610bb6565b80158061123457506112316224ea0084614f08565b81115b15611277576040517f9e12fccf00000000000000000000000000000000000000000000000000000000815260ff8516600482015260248101829052604401610bb6565b816000036112bd576040517fad0d7eb200000000000000000000000000000000000000000000000000000000815260ff8516600482015260248101839052604401610bb6565b7fffffffffffffffffffffffffffffffffffffffffffffffffffffffffffffffff60ff85160161133657601c6112f28361202a565b11156111d1576040517fad0d7eb200000000000000000000000000000000000000000000000000000000815260ff8516600482015260248101839052604401610bb6565b7ffffffffffffffffffffffffffffffffffffffffffffffffffffffffffffffffe60ff8516016113b55761136982612041565b6113728361202a565b146111d1576040517fad0d7eb200000000000000000000000000000000000000000000000000000000815260ff8516600482015260248101839052604401610bb6565b6040517f33a738bc00000000000000000000000000000000000000000000000000000000815260ff85166004820152602401610bb6565b8360ff166002811115611401576114016147dc565b600a80547fffffffffffffffffffffffffffffffffffffffffffffffffffffffffffffff0016600183600281111561143b5761143b6147dc565b0217905550600b839055600c829055600e8190556040805160ff8616815260208101859052908101839052606081018290527f182fd6fa2a8560221614c1396dd4fcc78d26dfacf821a6afb61d25876057e41290608001610c83565b6040805160008152602081019091526106c29083908390610f46565b6001600160a01b0382166114f3576040517fc41a13ec00000000000000000000000000000000000000000000000000000000815260040160405180910390fd5b8061150857611503601083612064565b611513565b611513601083612079565b50816001600160a01b03167f6264362e9de26efefda321dfaeb4e4a9090deef40c5435fad8e9e2e306889a1c82604051611551911515815260200190565b60405180910390a25050565b60408051600480825260a0820190925260609160208201608080368337019050509050846001600160a01b03168160008151811061159d5761159d614cd7565b602002602001018181525050836001600160a01b03168160018151811061108657611086614cd7565b6001600160a01b038416611606576040517fe7ba3e4a00000000000000000000000000000000000000000000000000000000815260040160405180910390fd5b6001600160a01b038416600090815260156020526040902061162a9084848461208e565b604080516001600160a01b03858116825260208201859052918101839052908516907ff099617c054d3a65e02a9c3b786f23cc03d5982bc7cfae84dff0408049cf17079060600160405180910390a250505050565b6040805160018082528183019092526060916020808301908036833701905050905081816000815181106116b5576116b5614cd7565b602002602001018181525050919050565b600f80548291907fffffffffffffffffffffffffffffffffffffffffffffffffffffffffffffff001660018381811115611702576117026147dc565b02179055507f216b6a9618d607ba436d0f2e17e9a83e70929adff805ac2385d67401360e551a81604051611736919061480b565b60405180910390a150565b6040805160028082526060808301845292602083019080368337019050509050826001600160a01b03168160008151811061177e5761177e614cd7565b602002602001018181525050818160018151811061179e5761179e614cd7565b60200260200101818152505092915050565b6117ba8282612176565b6001600160a01b0382166117fa576040517fc0e0f12200000000000000000000000000000000000000000000000000000000815260040160405180910390fd5b806000036106c2576040517f1463acbe00000000000000000000000000000000000000000000000000000000815260040160405180910390fd5b6040805160018082528183019092526060916000919060208083019080368337019050509050838160008151811061186e5761186e614cd7565b6001600160a01b03929092166020928302919091019091015260408051600180825281830190925260009181602001602082028036833701905050905083816000815181106118bf576118bf614cd7565b60209081029190910101526001546040517f6daefab6000000000000000000000000000000000000000000000000000000009161190e91859185916001600160a01b0390911690602401614f1f565b60408051601f198184030181529190526020810180517bffffffffffffffffffffffffffffffffffffffffffffffffffffffff167fffffffff00000000000000000000000000000000000000000000000000000000909316929092179091529250505092915050565b61198182826121bc565b6106c2828261225b565b6001600160a01b0384166119cb576040517f1de0c9c700000000000000000000000000000000000000000000000000000000815260040160405180910390fd5b6001600160a01b0384166000908152601b602052604090206119ef90848484612283565b826001600160a01b0316846001600160a01b03167f1b5c5e27ed5443e409bae85849d41d7bf12d5352e8fddb3728b6408f836e14488484604051611a3d929190918252602082015260400190565b60405180910390a350505050565b611a78604051806060016040528060006001600160a01b0316815260200160008152602001600081525090565b6001600160a01b038083166000908152601560205260409020805490911615611aa15780611aa4565b60125b6040805160608101825282546001600160a01b0316815260018301546020820152600290920154908201529392505050565b60408051600280825260608083018452926020830190803683370190505090508260001c81600081518110611b0d57611b0d614cd7565b6020026020010181815250508160001c8160018151811061179e5761179e614cd7565b8115611b6b576040517fade7e16800000000000000000000000000000000000000000000000000000000815260048101839052602401610bb6565b6106c282826123fa565b600054610100900460ff16611be05760405162461bcd60e51b815260206004820152602b60248201527f496e697469616c697a61626c653a20636f6e7472616374206973206e6f74206960448201526a6e697469616c697a696e6760a81b6064820152608401610bb6565b611be98361247d565b610811838383612548565b60408051600380825260808201909252606091602082018380368337019050509050836001600160a01b031681600081518110611c3357611c33614cd7565b6020026020010181815250508281600181518110611c5357611c53614cd7565b6020026020010181815250508181600281518110611c7357611c73614cd7565b6020026020010181815250509392505050565b611c936016848484612283565b60408051838152602081018390526001600160a01b038516917f6324b5f18e615697a2b44f16d7a649deb0bbbc7cb09dad4c610306105730e7d9910160405180910390a2505050565b600073eeeeeeeeeeeeeeeeeeeeeeeeeeeeeeeeeeeeeeee6001600160a01b03841603611d1357506001600160a01b03811631610db2565b6040517f70a082310000000000000000000000000000000000000000000000000000000081526001600160a01b0383811660048301528416906370a0823190602401602060405180830381865afa158015611d72573d6000803e3d6000fd5b505050506040513d601f19601f82011682018060405250810190611d969190614f90565b9050610db2565b611daa601284848461208e565b604080516001600160a01b0385168152602081018490529081018290527fa80953bdc344b2ebd0bcdd001a3418a8fd1b858bdecf12a4ba5a9366ad65d3459060600160405180910390a1505050565b6001600160a01b038082166000908152601b602052604081208054919290911615611e245780610f2b565b60169392505050565b6001600160a01b038116611e6d576040517f382928fe00000000000000000000000000000000000000000000000000000000815260040160405180910390fd5b601c80547fffffffffffffffffffffffff0000000000000000000000000000000000000000166001600160a01b0383169081179091556040517ffdbd8fd3124d4abea1394a5bf9d535d8b716508569491ceae023fc8f0221c73a90600090a250565b670de0b6b3a7640000811115611f11576040517fce57496100000000000000000000000000000000000000000000000000000000815260040160405180910390fd5b60068490556007839055600882905560098190556040805185815260208101859052908101839052606081018290527f746dc5eb53c5de07c40b06d428506d6982ea10c423ac2875abfc44038927d69190608001610c83565b6001600160a01b03811660009081526001830160205260408120541515610f2b565b600080546040517f28522895000000000000000000000000000000000000000000000000000000008152620100009091046001600160a01b031690632852289590611fe1908790309088908890600401614fa9565b602060405180830381865afa158015611ffe573d6000803e3d6000fd5b505050506040513d601f19601f820116820180604052508101906120229190615007565b949350505050565b600061202261203c6201518084615053565b6125c5565b6000808061205561203c6201518086615053565b5091509150612022828261267f565b6000610f2b836001600160a01b038416612705565b6000610f2b836001600160a01b0384166127ff565b60006001600160a01b0384161580156120a5575082155b80156120af575081155b905060006001600160a01b038516158015906120d357508215806120d35750838310155b9050811580156120e1575080155b15612131576040517fca1f04830000000000000000000000000000000000000000000000000000000081526001600160a01b03861660048201526024810185905260448101849052606401610bb6565b505083547fffffffffffffffffffffffff0000000000000000000000000000000000000000166001600160a01b03939093169290921783556001830155600290910155565b612180828261284e565b61218a8282612858565b6121948282612895565b61219e8282612989565b6121a88282612bdc565b6121b28282612c26565b6106c28282612d13565b600354156106c257600180546003546040517feb056bbb00000000000000000000000000000000000000000000000000000000815260048101919091526001600160a01b03858116602483015260448201859052606482019390935291169063eb056bbb906084015b600060405180830381600087803b15801561223f57600080fd5b505af1158015612253573d6000803e3d6000fd5b505050505050565b6122658282612e29565b61226f8282612ecb565b6122798282612eed565b6106c28282613137565b60006001600160a01b03841615801561229a575082155b80156122a4575081155b905060006001600160a01b038516158015906122c05750600084115b80156122cc5750600083115b9050811580156122da575080155b1561232a576040517ff5deb5dc0000000000000000000000000000000000000000000000000000000081526001600160a01b03861660048201526024810185905260448101849052606401610bb6565b600386018390556001860184905581156123515760006002870181905560048701556123bd565b8560040154600003612378576000600287015561236e8342615067565b60048701556123bd565b85546001600160a01b038681169116146123bd5785546000906123a4906001600160a01b031687613164565b60028801549091506123b69082613170565b6002880155505b505083547fffffffffffffffffffffffff0000000000000000000000000000000000000000166001600160a01b0393909316929092179092555050565b808214801561240857508115155b15612442576040517f0fb49edb00000000000000000000000000000000000000000000000000000000815260048101839052602401610bb6565b60028290556003819055604051819083907ff950a929751d87db181a0a517df21bb3ecd433abba584594402db4b58a55483590600090a35050565b600054610100900460ff166124e85760405162461bcd60e51b815260206004820152602b60248201527f496e697469616c697a61626c653a20636f6e7472616374206973206e6f74206960448201526a6e697469616c697a696e6760a81b6064820152608401610bb6565b80516124f3906131e6565b6124fb6132c8565b612508816020015161333d565b61251581604001516133b1565b6125228160600151613425565b61252f8160800151613499565b61253c8160a0015161350d565b61254581613581565b50565b600054610100900460ff166125b35760405162461bcd60e51b815260206004820152602b60248201527f496e697469616c697a61626c653a20636f6e7472616374206973206e6f74206960448201526a6e697469616c697a696e6760a81b6064820152608401610bb6565b6125bc82611e2d565b61081181610f8d565b60008080836226496581018262023ab1600483020590506004600362023ab18302010590910390600062164b09610fa0600185010205905060046105b58202058303601f019250600061098f846050028161262257612622615024565b0590506000605061098f83020585039050600b82057fffffffffffffffffffffffffffffffffffffffffffffffffffffffffffffffcf94909401606402929092018301996002600c90940290910392909201975095509350505050565b600081600114806126905750816003145b8061269b5750816005145b806126a65750816007145b806126b15750816008145b806126bc575081600a145b806126c7575081600c145b156126d45750601f610db2565b816002146126e45750601e610db2565b6126ed836135ec565b6126f857601c6126fb565b601d5b60ff169392505050565b600081815260018301602052604081205480156127ee57600061272960018361507a565b855490915060009061273d9060019061507a565b90508181146127a257600086600001828154811061275d5761275d614cd7565b906000526020600020015490508087600001848154811061278057612780614cd7565b6000918252602080832090910192909255918252600188019052604090208390555b85548690806127b3576127b361508d565b600190038181906000526020600020016000905590558560010160008681526020019081526020016000206000905560019350505050610db2565b6000915050610db2565b5092915050565b600081815260018301602052604081205461284657508154600181810184556000848152602080822090930184905584548482528286019093526040902091909155610db2565b506000610db2565b6106c28282613628565b60045460ff16156106c2576040517fc0f2312800000000000000000000000000000000000000000000000000000000815260040160405180910390fd5b5a6005556040805160808101825260065480825260075460208301526008549282019290925260095460608201529060009015806128d4575081513a11155b9050806129195781516040517fcbb35eb70000000000000000000000000000000000000000000000000000000081523a60048201526024810191909152604401610bb6565b6000612925483a61507a565b90506000836020015160001480612940575083602001518211155b9050806122535760208401516040517f56e5387f000000000000000000000000000000000000000000000000000000008152610bb6918491600401918252602082015260400190565b600a54600b54600c54600e5460ff90931692428211156129de576040517f013ce60b00000000000000000000000000000000000000000000000000000000815242600482015260248101839052604401610bb6565b60008460028111156129f2576129f26147dc565b03612ac45782600003612a0757505050505050565b80600003612a2157612a198342615067565b600d55612253565b6000612a2d834261507a565b90506000612a3b8583615053565b90506000612a498683614f08565b612a53908461507a565b905083811115612a98576040517f013ce60b00000000000000000000000000000000000000000000000000000000815242600482015260248101869052604401610bb6565b85612aa4836001615067565b612aae9190614f08565b612ab89086615067565b600d5550612253915050565b814210158015612add5750612ad98183615067565b4211155b15612aec57612a198284613694565b60006001856002811115612b0257612b026147dc565b14612b1557612b1042612041565b612b1e565b612b1e8361202a565b90506000612b2c848361372c565b905080421015612b71576040517f013ce60b00000000000000000000000000000000000000000000000000000000815242600482015260248101829052604401610bb6565b6000612b7d8483615067565b90504281108015612bc3576040517f013ce60b00000000000000000000000000000000000000000000000000000000815242600482015260248101839052604401610bb6565b612bcd8388613694565b600d5550505050505050505050565b612be582610ef4565b6106c2576040517f7a2410450000000000000000000000000000000000000000000000000000000081526001600160a01b0383166004820152602401610bb6565b6000612c3183611a4b565b80519091506001600160a01b0316612c4857505050565b6000836001600160a01b031682600001516001600160a01b031614612c8457612c7f612c78858460000151613164565b8490613170565b612c86565b825b9050600082602001518210158015612cae575060408301511580612cae575082604001518211155b905080610710578251602084015160408086015190517f7c63a4b00000000000000000000000000000000000000000000000000000000081526001600160a01b0390931660048401526024830185905260448301919091526064820152608401610bb6565b6000612d1e83611df9565b6040805160a08101825282546001600160a01b031680825260018401546020830152600284015492820192909252600383015460608201526004909201546080830152909150612d6d57505050565b6000836001600160a01b031682600001516001600160a01b031614612da257612d9d612c78858460000151613164565b612da4565b825b9050600082608001514210612dba576000612dc0565b82604001515b612dca9083615067565b9050826020015181111561071057825160208401516040517fb8858d5d0000000000000000000000000000000000000000000000000000000081526001600160a01b039092166004830152602482015260448101829052606401610bb6565b6000612e3483611df9565b80549091506001600160a01b0316612e4b57505050565b80546000906001600160a01b03858116911614612e81578154612e7c90612c789086906001600160a01b0316613164565b612e83565b825b905081600401544210612eac57600060028301556003820154612ea69042615067565b60048301555b80826002016000828254612ec09190615067565b909155505050505050565b600d54600003612ed9575050565b612ee4600d54613754565b50506000600d55565b600554600003612f29576040517f1f5b8fc600000000000000000000000000000000000000000000000000000000815260040160405180910390fd5b604080516080810182526006548152600754602082015260085491810191909152600954606082015260005a600554612f62919061507a565b90506000612f703a83614f08565b90506000836040015160001480612f8b575083604001518211155b905080612fd5578184604001516040517faf258ef2000000000000000000000000000000000000000000000000000000008152600401610bb6929190918252602082015260400190565b6000600555606084015115801590612fed5750600085115b156122535760006130c0306001600160a01b0316634fd49efd6040518163ffffffff1660e01b8152600401602060405180830381865afa158015613035573d6000803e3d6000fd5b505050506040513d601f19601f8201168201806040525081019061305991906150bc565b6001600160a01b03166317fcb39b6040518163ffffffff1660e01b8152600401602060405180830381865afa158015613096573d6000803e3d6000fd5b505050506040513d601f19601f820116820180604052508101906130ba91906150bc565b88613164565b905060006130ce8483613789565b905060006130dc8289613832565b9050866060015181111561312c5760608701516040517f0297747f000000000000000000000000000000000000000000000000000000008152610bb6918391600401918252602082015260400190565b505050505050505050565b6040517f68f46c45a243a0e9065a97649faf9a5afe1692f2679e650c2f853b9cd734cc0e90600090a15050565b6000610f2b83836138fb565b6000828202831580159061319357508284828161318f5761318f615024565b0414155b156131d4576040517fe8e4a4fa0000000000000000000000000000000000000000000000000000000081526004810185905260248101849052604401610bb6565b670de0b6b3a764000090049392505050565b600054610100900460ff166132515760405162461bcd60e51b815260206004820152602b60248201527f496e697469616c697a61626c653a20636f6e7472616374206973206e6f74206960448201526a6e697469616c697a696e6760a81b6064820152608401610bb6565b6132bf81600001516001600160a01b031663d09edf316040518163ffffffff1660e01b8152600401602060405180830381865afa158015613296573d6000803e3d6000fd5b505050506040513d601f19601f820116820180604052508101906132ba91906150bc565b613b09565b61254581613b7d565b600054610100900460ff166133335760405162461bcd60e51b815260206004820152602b60248201527f496e697469616c697a61626c653a20636f6e7472616374206973206e6f74206960448201526a6e697469616c697a696e6760a81b6064820152608401610bb6565b61333b613c35565b565b600054610100900460ff166133a85760405162461bcd60e51b815260206004820152602b60248201527f496e697469616c697a61626c653a20636f6e7472616374206973206e6f74206960448201526a6e697469616c697a696e6760a81b6064820152608401610bb6565b61254581613ca0565b600054610100900460ff1661341c5760405162461bcd60e51b815260206004820152602b60248201527f496e697469616c697a61626c653a20636f6e7472616374206973206e6f74206960448201526a6e697469616c697a696e6760a81b6064820152608401610bb6565b61254581613d27565b600054610100900460ff166134905760405162461bcd60e51b815260206004820152602b60248201527f496e697469616c697a61626c653a20636f6e7472616374206973206e6f74206960448201526a6e697469616c697a696e6760a81b6064820152608401610bb6565b61254581613dae565b600054610100900460ff166135045760405162461bcd60e51b815260206004820152602b60248201527f496e697469616c697a61626c653a20636f6e7472616374206973206e6f74206960448201526a6e697469616c697a696e6760a81b6064820152608401610bb6565b61254581613e6e565b600054610100900460ff166135785760405162461bcd60e51b815260206004820152602b60248201527f496e697469616c697a61626c653a20636f6e7472616374206973206e6f74206960448201526a6e697469616c697a696e6760a81b6064820152608401610bb6565b61254581613f5e565b600054610100900460ff166125455760405162461bcd60e51b815260206004820152602b60248201527f496e697469616c697a61626c653a20636f6e7472616374206973206e6f74206960448201526a6e697469616c697a696e6760a81b6064820152608401610bb6565b60006135f96004836150d9565b15801561360f575061360c6064836150d9565b15155b80610db25750613621610190836150d9565b1592915050565b600254156106c2576001546002546040517feb056bbb00000000000000000000000000000000000000000000000000000000815260048101919091526001600160a01b03848116602483015260448201849052600060648301529091169063eb056bbb90608401612225565b6000806000806136a38661404e565b9194509250905060006136b68684615067565b905060006136c5600c836150d9565b905060006136d4600c84615053565b6136de9087615067565b905060006002600a5460ff1660028111156136fb576136fb6147dc565b146137065784613710565b613710828461267f565b905061371e8a83858461406d565b9a9950505050505050505050565b600080600061373a4261404e565b509150915061374b8583838761406d565b95945050505050565b600c8190556040518181527ff90744bee56935ec5acc9de37b89c0c545298c667ee417bd9469e9c6836ad06490602001611736565b600082820283158015906137ac5750828482816137a8576137a8615024565b0414155b156137ed576040517fe8e4a4fa0000000000000000000000000000000000000000000000000000000081526004810185905260248101849052604401610bb6565b801561382857670de0b6b3a76400007fffffffffffffffffffffffffffffffffffffffffffffffffffffffffffffffff820104600101612022565b6000949350505050565b60008160000361386e576040517fb8a2f92100000000000000000000000000000000000000000000000000000000815260040160405180910390fd5b8260000361387e57506000610db2565b670de0b6b3a76400008381029084828161389a5761389a615024565b04146138dc576040517fea7b49e60000000000000000000000000000000000000000000000000000000081526004810185905260248101829052604401610bb6565b8260018203816138ee576138ee615024565b0460010191505092915050565b600080600160009054906101000a90046001600160a01b03166001600160a01b0316632630c12f6040518163ffffffff1660e01b8152600401602060405180830381865afa158015613951573d6000803e3d6000fd5b505050506040513d601f19601f8201168201806040525081019061397591906150bc565b90506001600160a01b0381166139c6576001546040517f38d2baae0000000000000000000000000000000000000000000000000000000081526001600160a01b039091166004820152602401610bb6565b60006139d0614095565b90508051600014613a6157816001600160a01b031663355efdd96139f387614115565b6139fc87614115565b846040518463ffffffff1660e01b8152600401613a1b939291906150ed565b602060405180830381865afa158015613a38573d6000803e3d6000fd5b505050506040513d601f19601f82011682018060405250810190613a5c9190614f90565b61374b565b816001600160a01b031663ac41865a613a7987614115565b613a8287614115565b6040517fffffffff0000000000000000000000000000000000000000000000000000000060e085901b1681526001600160a01b03928316600482015291166024820152604401602060405180830381865afa158015613ae5573d6000803e3d6000fd5b505050506040513d601f19601f8201168201806040525081019061374b9190614f90565b600054610100900460ff16613b745760405162461bcd60e51b815260206004820152602b60248201527f496e697469616c697a61626c653a20636f6e7472616374206973206e6f74206960448201526a6e697469616c697a696e6760a81b6064820152608401610bb6565b61254581614149565b600054610100900460ff16613be85760405162461bcd60e51b815260206004820152602b60248201527f496e697469616c697a61626c653a20636f6e7472616374206973206e6f74206960448201526a6e697469616c697a696e6760a81b6064820152608401610bb6565b8051600180547fffffffffffffffffffffffff0000000000000000000000000000000000000000166001600160a01b03909216919091179055602081015160408201516125459190611b30565b600054610100900460ff1661333b5760405162461bcd60e51b815260206004820152602b60248201527f496e697469616c697a61626c653a20636f6e7472616374206973206e6f74206960448201526a6e697469616c697a696e6760a81b6064820152608401610bb6565b600054610100900460ff16613d0b5760405162461bcd60e51b815260206004820152602b60248201527f496e697469616c697a61626c653a20636f6e7472616374206973206e6f74206960448201526a6e697469616c697a696e6760a81b6064820152608401610bb6565b6125458160000151826020015183604001518460600151611ecf565b600054610100900460ff16613d925760405162461bcd60e51b815260206004820152602b60248201527f496e697469616c697a61626c653a20636f6e7472616374206973206e6f74206960448201526a6e697469616c697a696e6760a81b6064820152608401610bb6565b61254581600001518260200151836040015184606001516110da565b600054610100900460ff16613e195760405162461bcd60e51b815260206004820152602b60248201527f496e697469616c697a61626c653a20636f6e7472616374206973206e6f74206960448201526a6e697469616c697a696e6760a81b6064820152608401610bb6565b8051613e24906116c6565b60005b8160200151518110156106c257613e5c82602001518281518110613e4d57613e4d614cd7565b602002602001015160016114b3565b80613e6681614d35565b915050613e27565b600054610100900460ff16613ed95760405162461bcd60e51b815260206004820152602b60248201527f496e697469616c697a61626c653a20636f6e7472616374206973206e6f74206960448201526a6e697469616c697a696e6760a81b6064820152608401610bb6565b8051805160208201516040830151613ef2929190611d9d565b60005b82602001515181101561081157600083602001518281518110613f1a57613f1a614cd7565b60200260200101519050600081602001519050613f4982600001518260000151836020015184604001516115c6565b50508080613f5690614d35565b915050613ef5565b600054610100900460ff16613fc95760405162461bcd60e51b815260206004820152602b60248201527f496e697469616c697a61626c653a20636f6e7472616374206973206e6f74206960448201526a6e697469616c697a696e6760a81b6064820152608401610bb6565b8051805160208201516040830151613fe2929190611c86565b60005b8260200151518110156108115760008360200151828151811061400a5761400a614cd7565b60200260200101519050600081602001519050614039826000015182600001518360200151846040015161198b565b5050808061404690614d35565b915050613fe5565b600080806140606201518085046125c5565b9196909550909350915050565b600061374b84848461407e896141f4565b6140878a614212565b6140908b61422e565b61423b565b606060006140a1614297565b9050368111156140bf57505060408051600081526020810190915290565b8067ffffffffffffffff8111156140d8576140d8614507565b6040519080825280601f01601f191660200182016040528015614102576020820181803683370190505b5091508060208236030360208401375090565b600073eeeeeeeeeeeeeeeeeeeeeeeeeeeeeeeeeeeeeeee6001600160a01b038316146141415781610db2565b610db26142b2565b600054610100900460ff166141b45760405162461bcd60e51b815260206004820152602b60248201527f496e697469616c697a61626c653a20636f6e7472616374206973206e6f74206960448201526a6e697469616c697a696e6760a81b6064820152608401610bb6565b600080546001600160a01b0390921662010000027fffffffffffffffffffff0000000000000000000000000000000000000000ffff909216919091179055565b60008061420462015180846150d9565b9050610f2b610e1082615053565b600080614221610e10846150d9565b9050610f2b603c82615053565b6000610db2603c836150d9565b600081614249603c85614f08565b614255610e1087614f08565b620151806142648b8b8b61433e565b61426e9190614f08565b6142789190615067565b6142829190615067565b61428c9190615067565b979650505050505050565b600060243610156142a85750600090565b50601f1936013590565b600154604080517f17fcb39b00000000000000000000000000000000000000000000000000000000815290516000926001600160a01b0316916317fcb39b9160048083019260209291908290030181865afa158015614315573d6000803e3d6000fd5b505050506040513d601f19601f8201168201806040525081019061433991906150bc565b905090565b60006107b284101561434f57600080fd5b838383600062253d8c60046064600c614369600e88615119565b6143739190615139565b61437f886113246151a1565b61438991906151a1565b6143939190615139565b61439e9060036151c9565b6143a89190615139565b600c806143b6600e88615119565b6143c09190615139565b6143cb90600c6151c9565b6143d6600288615119565b6143e09190615119565b6143ec9061016f6151c9565b6143f69190615139565b6004600c614405600e89615119565b61440f9190615139565b61441b896112c06151a1565b61442591906151a1565b614431906105b56151c9565b61443b9190615139565b614447617d4b87615119565b61445191906151a1565b61445b91906151a1565b6144659190615119565b61446f9190615119565b98975050505050505050565b6001600160a01b038116811461254557600080fd5b803561449b8161447b565b919050565b6000602082840312156144b257600080fd5b8135610f2b8161447b565b803560ff8116811461449b57600080fd5b600080600080608085870312156144e457600080fd5b6144ed856144bd565b966020860135965060408601359560600135945092505050565b7f4e487b7100000000000000000000000000000000000000000000000000000000600052604160045260246000fd5b6040516080810167ffffffffffffffff8111828210171561455957614559614507565b60405290565b6040805190810167ffffffffffffffff8111828210171561455957614559614507565b60405160c0810167ffffffffffffffff8111828210171561455957614559614507565b604051601f8201601f1916810167ffffffffffffffff811182821017156145ce576145ce614507565b604052919050565b600067ffffffffffffffff8211156145f0576145f0614507565b5060051b60200190565b600082601f83011261460b57600080fd5b8135602061462061461b836145d6565b6145a5565b82815260059290921b8401810191818101908684111561463f57600080fd5b8286015b848110156146635780356146568161447b565b8352918301918301614643565b509695505050505050565b801515811461254557600080fd5b6000806040838503121561468f57600080fd5b823567ffffffffffffffff808211156146a757600080fd5b6146b3868387016145fa565b93506020915081850135818111156146ca57600080fd5b85019050601f810186136146dd57600080fd5b80356146eb61461b826145d6565b81815260059190911b8201830190838101908883111561470a57600080fd5b928401925b828410156147315783356147228161466e565b8252928401929084019061470f565b80955050505050509250929050565b6000806000806080858703121561475657600080fd5b84356147618161447b565b935060208501356147718161447b565b93969395505050506040820135916060013590565b80356002811061449b57600080fd5b6000602082840312156147a757600080fd5b610f2b82614786565b600080604083850312156147c357600080fd5b82356147ce8161447b565b946020939093013593505050565b7f4e487b7100000000000000000000000000000000000000000000000000000000600052602160045260246000fd5b6020810160028310614846577f4e487b7100000000000000000000000000000000000000000000000000000000600052602160045260246000fd5b91905290565b6000806040838503121561485f57600080fd5b50508035926020909101359150565b60006060828403121561488057600080fd5b6040516060810181811067ffffffffffffffff821117156148a3576148a3614507565b60405290508082356148b48161447b565b8082525060208301356020820152604083013560408201525092915050565b6000608082840312156148e557600080fd5b6148ed614536565b90508135815260208201356020820152604082013560408201526060820135606082015292915050565b60006080828403121561492957600080fd5b614931614536565b905061493c826144bd565b815260208201356020820152604082013560408201526060820135606082015292915050565b60006040828403121561497457600080fd5b61497c61455f565b905061498782614786565b8152602082013567ffffffffffffffff8111156149a357600080fd5b6149af848285016145fa565b60208301525092915050565b6000608082840312156149cd57600080fd5b6149d561455f565b905081356149e28161447b565b81526149f1836020840161486e565b602082015292915050565b60006080808385031215614a0f57600080fd5b614a1761455f565b9150614a23848461486e565b8252606083013567ffffffffffffffff811115614a3f57600080fd5b8301601f81018513614a5057600080fd5b80356020614a6061461b836145d6565b82815260079290921b83018101918181019088841115614a7f57600080fd5b938201935b83851015614aa557614a9689866149bb565b82529385019390820190614a84565b808388015250505050505092915050565b60006080808385031215614ac957600080fd5b614ad161455f565b9150614add848461486e565b8252606083013567ffffffffffffffff811115614af957600080fd5b8301601f81018513614b0a57600080fd5b80356020614b1a61461b836145d6565b82815260079290921b83018101918181019088841115614b3957600080fd5b938201935b83851015614aa557614b5089866149bb565b82529385019390820190614b3e565b600080600060608486031215614b7457600080fd5b833567ffffffffffffffff80821115614b8c57600080fd5b908501906101c08288031215614ba157600080fd5b614ba9614582565b614bb3888461486e565b8152614bc288606085016148d3565b6020820152614bd48860e08501614917565b604082015261016083013582811115614bec57600080fd5b614bf889828601614962565b60608301525061018083013582811115614c1157600080fd5b614c1d898286016149fc565b6080830152506101a083013582811115614c3657600080fd5b614c4289828601614ab6565b60a0830152509450614c5991505060208501614490565b9150614c6760408501614490565b90509250925092565b600080600060608486031215614c8557600080fd5b8335614c908161447b565b95602085013595506040909401359392505050565b60008060008060808587031215614cbb57600080fd5b5050823594602084013594506040840135936060013592509050565b7f4e487b7100000000000000000000000000000000000000000000000000000000600052603260045260246000fd5b7f4e487b7100000000000000000000000000000000000000000000000000000000600052601160045260246000fd5b60007fffffffffffffffffffffffffffffffffffffffffffffffffffffffffffffffff8203614d6657614d66614d06565b5060010190565b60005b83811015614d88578181015183820152602001614d70565b50506000910152565b60008151808452614da9816020860160208601614d6d565b601f01601f19169290920160200192915050565b6001600160a01b0384168152606060208201526000614ddf6060830185614d91565b9050826040830152949350505050565b600060208284031215614e0157600080fd5b815167ffffffffffffffff80821115614e1957600080fd5b818401915084601f830112614e2d57600080fd5b815181811115614e3f57614e3f614507565b614e526020601f19601f840116016145a5565b9150808252856020828501011115614e6957600080fd5b614e7a816020840160208601614d6d565b50949350505050565b600081518084526020808501945080840160005b83811015614eb357815187529582019590820190600101614e97565b509495945050505050565b6001600160a01b03841681527fffffffff000000000000000000000000000000000000000000000000000000008316602082015260606040820152600061374b6060830184614e83565b8082028115828204841417610db257610db2614d06565b606080825284519082018190526000906020906080840190828801845b82811015614f615781516001600160a01b031684529284019290840190600101614f3c565b50505083810382850152614f758187614e83565b925050506001600160a01b0383166040830152949350505050565b600060208284031215614fa257600080fd5b5051919050565b60006001600160a01b0380871683528086166020840152507fffffffff000000000000000000000000000000000000000000000000000000008416604083015260806060830152614ffd6080830184614e83565b9695505050505050565b60006020828403121561501957600080fd5b8151610f2b8161466e565b7f4e487b7100000000000000000000000000000000000000000000000000000000600052601260045260246000fd5b60008261506257615062615024565b500490565b80820180821115610db257610db2614d06565b81810381811115610db257610db2614d06565b7f4e487b7100000000000000000000000000000000000000000000000000000000600052603160045260246000fd5b6000602082840312156150ce57600080fd5b8151610f2b8161447b565b6000826150e8576150e8615024565b500690565b60006001600160a01b0380861683528085166020840152506060604083015261374b6060830184614d91565b81810360008312801583831316838312821617156127f8576127f8614d06565b60008261514857615148615024565b7fffffffffffffffffffffffffffffffffffffffffffffffffffffffffffffffff83147f80000000000000000000000000000000000000000000000000000000000000008314161561519c5761519c614d06565b500590565b80820182811260008312801582168215821617156151c1576151c1614d06565b505092915050565b808202600082127f80000000000000000000000000000000000000000000000000000000000000008414161561520157615201614d06565b8181058314821517610db257610db2614d0656fea26469706673582212207de720f5926ab24095fa8b96711dcf57194fd16c6ec392f6d5fa0a2dcca6f27364736f6c63430008110033","opcodes":"PUSH1 0x80 PUSH1 0x40 MSTORE CALLVALUE DUP1 ISZERO PUSH3 0x11 JUMPI PUSH1 0x0 DUP1 REVERT JUMPDEST POP PUSH3 0x1C PUSH3 0x22 JUMP JUMPDEST PUSH3 0xE4 JUMP JUMPDEST PUSH1 0x0 SLOAD PUSH2 0x100 SWAP1 DIV PUSH1 0xFF AND ISZERO PUSH3 0x8F JUMPI PUSH1 0x40 MLOAD PUSH3 0x461BCD PUSH1 0xE5 SHL DUP2 MSTORE PUSH1 0x20 PUSH1 0x4 DUP3 ADD MSTORE PUSH1 0x27 PUSH1 0x24 DUP3 ADD MSTORE PUSH32 0x496E697469616C697A61626C653A20636F6E747261637420697320696E697469 PUSH1 0x44 DUP3 ADD MSTORE PUSH7 0x616C697A696E67 PUSH1 0xC8 SHL PUSH1 0x64 DUP3 ADD MSTORE PUSH1 0x84 ADD PUSH1 0x40 MLOAD DUP1 SWAP2 SUB SWAP1 REVERT JUMPDEST PUSH1 0x0 SLOAD PUSH1 0xFF SWAP1 DUP2 AND LT ISZERO PUSH3 0xE2 JUMPI PUSH1 0x0 DUP1 SLOAD PUSH1 0xFF NOT AND PUSH1 0xFF SWAP1 DUP2 OR SWAP1 SWAP2 SSTORE PUSH1 0x40 MLOAD SWAP1 DUP2 MSTORE PUSH32 0x7F26B83FF96E1F2B6A682F133852F6798A09C465DA95921460CEFB3847402498 SWAP1 PUSH1 0x20 ADD PUSH1 0x40 MLOAD DUP1 SWAP2 SUB SWAP1 LOG1 JUMPDEST JUMP JUMPDEST PUSH2 0x524B DUP1 PUSH3 0xF4 PUSH1 0x0 CODECOPY PUSH1 0x0 RETURN INVALID PUSH1 0x80 PUSH1 0x40 MSTORE CALLVALUE DUP1 ISZERO PUSH2 0x10 JUMPI PUSH1 0x0 DUP1 REVERT JUMPDEST POP PUSH1 0x4 CALLDATASIZE LT PUSH2 0x226 JUMPI PUSH1 0x0 CALLDATALOAD PUSH1 0xE0 SHR DUP1 PUSH4 0x6B123919 GT PUSH2 0x12A JUMPI DUP1 PUSH4 0xB187BD26 GT PUSH2 0xBD JUMPI DUP1 PUSH4 0xD45A76CF GT PUSH2 0x8C JUMPI DUP1 PUSH4 0xE6B5BE98 GT PUSH2 0x71 JUMPI DUP1 PUSH4 0xE6B5BE98 EQ PUSH2 0x648 JUMPI DUP1 PUSH4 0xE97B8071 EQ PUSH2 0x65B JUMPI DUP1 PUSH4 0xF9EAEE0D EQ PUSH2 0x66E JUMPI PUSH1 0x0 DUP1 REVERT JUMPDEST DUP1 PUSH4 0xD45A76CF EQ PUSH2 0x622 JUMPI DUP1 PUSH4 0xDB20DE82 EQ PUSH2 0x635 JUMPI PUSH1 0x0 DUP1 REVERT JUMPDEST DUP1 PUSH4 0xB187BD26 EQ PUSH2 0x5C8 JUMPI DUP1 PUSH4 0xC267621E EQ PUSH2 0x5E5 JUMPI DUP1 PUSH4 0xD09EDF31 EQ PUSH2 0x5F6 JUMPI DUP1 PUSH4 0xD3FEB602 EQ PUSH2 0x60F JUMPI PUSH1 0x0 DUP1 REVERT JUMPDEST DUP1 PUSH4 0x90333BA8 GT PUSH2 0xF9 JUMPI DUP1 PUSH4 0x90333BA8 EQ PUSH2 0x515 JUMPI DUP1 PUSH4 0xA0C3774F EQ PUSH2 0x528 JUMPI DUP1 PUSH4 0xA3374177 EQ PUSH2 0x53B JUMPI DUP1 PUSH4 0xA5900C4D EQ PUSH2 0x56E JUMPI PUSH1 0x0 DUP1 REVERT JUMPDEST DUP1 PUSH4 0x6B123919 EQ PUSH2 0x4D4 JUMPI DUP1 PUSH4 0x7125590A EQ PUSH2 0x4E7 JUMPI DUP1 PUSH4 0x7CBD3A56 EQ PUSH2 0x4FA JUMPI DUP1 PUSH4 0x8456CB59 EQ PUSH2 0x50D JUMPI PUSH1 0x0 DUP1 REVERT JUMPDEST DUP1 PUSH4 0x3F4BA83A GT PUSH2 0x1BD JUMPI DUP1 PUSH4 0x4FD49EFD GT PUSH2 0x18C JUMPI DUP1 PUSH4 0x5670E2CE GT PUSH2 0x171 JUMPI DUP1 PUSH4 0x5670E2CE EQ PUSH2 0x441 JUMPI DUP1 PUSH4 0x5EA54EEE EQ PUSH2 0x45C JUMPI DUP1 PUSH4 0x6AACAAD8 EQ PUSH2 0x488 JUMPI PUSH1 0x0 DUP1 REVERT JUMPDEST DUP1 PUSH4 0x4FD49EFD EQ PUSH2 0x3DE JUMPI DUP1 PUSH4 0x51A424B1 EQ PUSH2 0x409 JUMPI PUSH1 0x0 DUP1 REVERT JUMPDEST DUP1 PUSH4 0x3F4BA83A EQ PUSH2 0x374 JUMPI DUP1 PUSH4 0x423A4B40 EQ PUSH2 0x37C JUMPI DUP1 PUSH4 0x42D4693E EQ PUSH2 0x38F JUMPI DUP1 PUSH4 0x4A45A3A8 EQ PUSH2 0x3A9 JUMPI PUSH1 0x0 DUP1 REVERT JUMPDEST DUP1 PUSH4 0x221A8C68 GT PUSH2 0x1F9 JUMPI DUP1 PUSH4 0x221A8C68 EQ PUSH2 0x297 JUMPI DUP1 PUSH4 0x2384C32D EQ PUSH2 0x33B JUMPI DUP1 PUSH4 0x30EAE572 EQ PUSH2 0x34E JUMPI DUP1 PUSH4 0x3BD9EF28 EQ PUSH2 0x361 JUMPI PUSH1 0x0 DUP1 REVERT JUMPDEST DUP1 PUSH4 0xEF917ED EQ PUSH2 0x22B JUMPI DUP1 PUSH4 0xFE105E8 EQ PUSH2 0x240 JUMPI DUP1 PUSH4 0x119A5E96 EQ PUSH2 0x253 JUMPI DUP1 PUSH4 0x21972384 EQ PUSH2 0x284 JUMPI JUMPDEST PUSH1 0x0 DUP1 REVERT JUMPDEST PUSH2 0x23E PUSH2 0x239 CALLDATASIZE PUSH1 0x4 PUSH2 0x44A0 JUMP JUMPDEST PUSH2 0x681 JUMP JUMPDEST STOP JUMPDEST PUSH2 0x23E PUSH2 0x24E CALLDATASIZE PUSH1 0x4 PUSH2 0x44CE JUMP JUMPDEST PUSH2 0x6C6 JUMP JUMPDEST PUSH2 0x25B PUSH2 0x717 JUMP JUMPDEST PUSH1 0x40 DUP1 MLOAD PUSH1 0xFF SWAP1 SWAP6 AND DUP6 MSTORE PUSH1 0x20 DUP6 ADD SWAP4 SWAP1 SWAP4 MSTORE SWAP2 DUP4 ADD MSTORE PUSH1 0x60 DUP3 ADD MSTORE PUSH1 0x80 ADD JUMPDEST PUSH1 0x40 MLOAD DUP1 SWAP2 SUB SWAP1 RETURN JUMPDEST PUSH2 0x23E PUSH2 0x292 CALLDATASIZE PUSH1 0x4 PUSH2 0x467C JUMP JUMPDEST PUSH2 0x74E JUMP JUMPDEST PUSH2 0x309 PUSH2 0x2A5 CALLDATASIZE PUSH1 0x4 PUSH2 0x44A0 JUMP JUMPDEST PUSH1 0x1 PUSH1 0x1 PUSH1 0xA0 SHL SUB SWAP1 DUP2 AND PUSH1 0x0 SWAP1 DUP2 MSTORE PUSH1 0x1B PUSH1 0x20 SWAP1 DUP2 MSTORE PUSH1 0x40 SWAP2 DUP3 SWAP1 KECCAK256 DUP3 MLOAD PUSH1 0xA0 DUP2 ADD DUP5 MSTORE DUP2 SLOAD SWAP1 SWAP5 AND DUP1 DUP6 MSTORE PUSH1 0x1 DUP3 ADD SLOAD SWAP3 DUP6 ADD DUP4 SWAP1 MSTORE PUSH1 0x2 DUP3 ADD SLOAD SWAP4 DUP6 ADD DUP5 SWAP1 MSTORE PUSH1 0x3 DUP3 ADD SLOAD PUSH1 0x60 DUP7 ADD DUP2 SWAP1 MSTORE PUSH1 0x4 SWAP1 SWAP3 ADD SLOAD PUSH1 0x80 SWAP1 SWAP6 ADD DUP6 SWAP1 MSTORE SWAP5 SWAP2 SWAP4 SWAP1 SWAP2 JUMP JUMPDEST PUSH1 0x40 DUP1 MLOAD PUSH1 0x1 PUSH1 0x1 PUSH1 0xA0 SHL SUB SWAP1 SWAP7 AND DUP7 MSTORE PUSH1 0x20 DUP7 ADD SWAP5 SWAP1 SWAP5 MSTORE SWAP3 DUP5 ADD SWAP2 SWAP1 SWAP2 MSTORE PUSH1 0x60 DUP4 ADD MSTORE PUSH1 0x80 DUP3 ADD MSTORE PUSH1 0xA0 ADD PUSH2 0x27B JUMP JUMPDEST PUSH2 0x23E PUSH2 0x349 CALLDATASIZE PUSH1 0x4 PUSH2 0x4740 JUMP JUMPDEST PUSH2 0x816 JUMP JUMPDEST PUSH2 0x23E PUSH2 0x35C CALLDATASIZE PUSH1 0x4 PUSH2 0x4795 JUMP JUMPDEST PUSH2 0x85D JUMP JUMPDEST PUSH2 0x23E PUSH2 0x36F CALLDATASIZE PUSH1 0x4 PUSH2 0x47B0 JUMP JUMPDEST PUSH2 0x8B2 JUMP JUMPDEST PUSH2 0x23E PUSH2 0x99E JUMP JUMPDEST PUSH2 0x23E PUSH2 0x38A CALLDATASIZE PUSH1 0x4 PUSH2 0x4740 JUMP JUMPDEST PUSH2 0xA5B JUMP JUMPDEST PUSH1 0xF SLOAD PUSH2 0x39C SWAP1 PUSH1 0xFF AND DUP2 JUMP JUMPDEST PUSH1 0x40 MLOAD PUSH2 0x27B SWAP2 SWAP1 PUSH2 0x480B JUMP JUMPDEST PUSH2 0x3D0 PUSH32 0x4F1A5AEF466C18F2EEFD210F80B744AA3B40590AF293E84B695BE7D70FD862B3 DUP2 JUMP JUMPDEST PUSH1 0x40 MLOAD SWAP1 DUP2 MSTORE PUSH1 0x20 ADD PUSH2 0x27B JUMP JUMPDEST PUSH1 0x1 SLOAD PUSH2 0x3F1 SWAP1 PUSH1 0x1 PUSH1 0x1 PUSH1 0xA0 SHL SUB AND DUP2 JUMP JUMPDEST PUSH1 0x40 MLOAD PUSH1 0x1 PUSH1 0x1 PUSH1 0xA0 SHL SUB SWAP1 SWAP2 AND DUP2 MSTORE PUSH1 0x20 ADD PUSH2 0x27B JUMP JUMPDEST PUSH2 0x41C PUSH2 0x417 CALLDATASIZE PUSH1 0x4 PUSH2 0x44A0 JUMP JUMPDEST PUSH2 0xAA2 JUMP JUMPDEST PUSH1 0x40 DUP1 MLOAD PUSH1 0x1 PUSH1 0x1 PUSH1 0xA0 SHL SUB SWAP1 SWAP5 AND DUP5 MSTORE PUSH1 0x20 DUP5 ADD SWAP3 SWAP1 SWAP3 MSTORE SWAP1 DUP3 ADD MSTORE PUSH1 0x60 ADD PUSH2 0x27B JUMP JUMPDEST PUSH1 0x2 SLOAD PUSH1 0x3 SLOAD PUSH1 0x40 DUP1 MLOAD SWAP3 DUP4 MSTORE PUSH1 0x20 DUP4 ADD SWAP2 SWAP1 SWAP2 MSTORE ADD PUSH2 0x27B JUMP JUMPDEST PUSH1 0x6 SLOAD PUSH1 0x7 SLOAD PUSH1 0x8 SLOAD PUSH1 0x9 SLOAD PUSH1 0x40 DUP1 MLOAD SWAP5 DUP6 MSTORE PUSH1 0x20 DUP6 ADD SWAP4 SWAP1 SWAP4 MSTORE SWAP2 DUP4 ADD MSTORE PUSH1 0x60 DUP3 ADD MSTORE PUSH1 0x80 ADD PUSH2 0x27B JUMP JUMPDEST PUSH2 0x309 PUSH1 0x40 DUP1 MLOAD PUSH1 0xA0 DUP2 ADD DUP3 MSTORE PUSH1 0x16 SLOAD PUSH1 0x1 PUSH1 0x1 PUSH1 0xA0 SHL SUB AND DUP1 DUP3 MSTORE PUSH1 0x17 SLOAD PUSH1 0x20 DUP4 ADD DUP2 SWAP1 MSTORE PUSH1 0x18 SLOAD SWAP4 DUP4 ADD DUP5 SWAP1 MSTORE PUSH1 0x19 SLOAD PUSH1 0x60 DUP5 ADD DUP2 SWAP1 MSTORE PUSH1 0x1A SLOAD PUSH1 0x80 SWAP1 SWAP5 ADD DUP5 SWAP1 MSTORE SWAP2 SWAP5 SWAP1 SWAP4 SWAP3 SWAP1 JUMP JUMPDEST PUSH1 0x1C SLOAD PUSH2 0x3F1 SWAP1 PUSH1 0x1 PUSH1 0x1 PUSH1 0xA0 SHL SUB AND DUP2 JUMP JUMPDEST PUSH2 0x23E PUSH2 0x4F5 CALLDATASIZE PUSH1 0x4 PUSH2 0x484C JUMP JUMPDEST PUSH2 0xACB JUMP JUMPDEST PUSH2 0x23E PUSH2 0x508 CALLDATASIZE PUSH1 0x4 PUSH2 0x4B5F JUMP JUMPDEST PUSH2 0xB0E JUMP JUMPDEST PUSH2 0x23E PUSH2 0xC92 JUMP JUMPDEST PUSH2 0x23E PUSH2 0x523 CALLDATASIZE PUSH1 0x4 PUSH2 0x4C70 JUMP JUMPDEST PUSH2 0xD53 JUMP JUMPDEST PUSH2 0x3D0 PUSH2 0x536 CALLDATASIZE PUSH1 0x4 PUSH2 0x44A0 JUMP JUMPDEST PUSH2 0xD98 JUMP JUMPDEST PUSH2 0x41C PUSH1 0x40 DUP1 MLOAD PUSH1 0x60 DUP2 ADD DUP3 MSTORE PUSH1 0x12 SLOAD PUSH1 0x1 PUSH1 0x1 PUSH1 0xA0 SHL SUB AND DUP1 DUP3 MSTORE PUSH1 0x13 SLOAD PUSH1 0x20 DUP4 ADD DUP2 SWAP1 MSTORE PUSH1 0x14 SLOAD SWAP3 SWAP1 SWAP4 ADD DUP3 SWAP1 MSTORE SWAP3 JUMP JUMPDEST PUSH2 0x41C PUSH2 0x57C CALLDATASIZE PUSH1 0x4 PUSH2 0x44A0 JUMP JUMPDEST PUSH1 0x1 PUSH1 0x1 PUSH1 0xA0 SHL SUB DUP1 DUP3 AND PUSH1 0x0 SWAP1 DUP2 MSTORE PUSH1 0x15 PUSH1 0x20 SWAP1 DUP2 MSTORE PUSH1 0x40 SWAP2 DUP3 SWAP1 KECCAK256 DUP3 MLOAD PUSH1 0x60 DUP2 ADD DUP5 MSTORE DUP2 SLOAD SWAP1 SWAP5 AND DUP1 DUP6 MSTORE PUSH1 0x1 DUP3 ADD SLOAD SWAP3 DUP6 ADD DUP4 SWAP1 MSTORE PUSH1 0x2 SWAP1 SWAP2 ADD SLOAD SWAP4 SWAP1 SWAP3 ADD DUP4 SWAP1 MSTORE SWAP1 SWAP4 SWAP1 SWAP3 POP JUMP JUMPDEST PUSH1 0x4 SLOAD PUSH2 0x5D5 SWAP1 PUSH1 0xFF AND DUP2 JUMP JUMPDEST PUSH1 0x40 MLOAD SWAP1 ISZERO ISZERO DUP2 MSTORE PUSH1 0x20 ADD PUSH2 0x27B JUMP JUMPDEST PUSH1 0x1D SLOAD PUSH1 0x1 PUSH1 0x1 PUSH1 0xA0 SHL SUB AND PUSH2 0x3F1 JUMP JUMPDEST PUSH1 0x0 SLOAD PUSH2 0x3F1 SWAP1 PUSH3 0x10000 SWAP1 DIV PUSH1 0x1 PUSH1 0x1 PUSH1 0xA0 SHL SUB AND DUP2 JUMP JUMPDEST PUSH2 0x23E PUSH2 0x61D CALLDATASIZE PUSH1 0x4 PUSH2 0x4C70 JUMP JUMPDEST PUSH2 0xDB8 JUMP JUMPDEST PUSH2 0x309 PUSH2 0x630 CALLDATASIZE PUSH1 0x4 PUSH2 0x44A0 JUMP JUMPDEST PUSH2 0xDFD JUMP JUMPDEST PUSH2 0x23E PUSH2 0x643 CALLDATASIZE PUSH1 0x4 PUSH2 0x44A0 JUMP JUMPDEST PUSH2 0xE6C JUMP JUMPDEST PUSH2 0x23E PUSH2 0x656 CALLDATASIZE PUSH1 0x4 PUSH2 0x4CA5 JUMP JUMPDEST PUSH2 0xEAD JUMP JUMPDEST PUSH1 0x1D SLOAD PUSH2 0x3F1 SWAP1 PUSH1 0x1 PUSH1 0x1 PUSH1 0xA0 SHL SUB AND DUP2 JUMP JUMPDEST PUSH2 0x5D5 PUSH2 0x67C CALLDATASIZE PUSH1 0x4 PUSH2 0x44A0 JUMP JUMPDEST PUSH2 0xEF4 JUMP JUMPDEST PUSH2 0x68A DUP2 PUSH2 0xF32 JUMP JUMPDEST PUSH2 0x6B9 CALLER PUSH1 0x0 CALLDATALOAD PUSH32 0xFFFFFFFF00000000000000000000000000000000000000000000000000000000 AND DUP4 PUSH2 0xF46 JUMP JUMPDEST PUSH2 0x6C2 DUP3 PUSH2 0xF8D JUMP JUMPDEST POP POP JUMP JUMPDEST PUSH2 0x6D5 DUP5 PUSH1 0xFF AND DUP5 DUP5 DUP5 PUSH2 0x102F JUMP JUMPDEST PUSH2 0x704 CALLER PUSH1 0x0 CALLDATALOAD PUSH32 0xFFFFFFFF00000000000000000000000000000000000000000000000000000000 AND DUP4 PUSH2 0xF46 JUMP JUMPDEST PUSH2 0x710 DUP6 DUP6 DUP6 DUP6 PUSH2 0x10DA JUMP JUMPDEST POP POP POP POP POP JUMP JUMPDEST PUSH1 0xA SLOAD PUSH1 0x0 SWAP1 DUP2 SWAP1 DUP2 SWAP1 DUP2 SWAP1 PUSH1 0xFF AND PUSH1 0x2 DUP2 GT ISZERO PUSH2 0x737 JUMPI PUSH2 0x737 PUSH2 0x47DC JUMP JUMPDEST PUSH1 0xB SLOAD PUSH1 0xC SLOAD PUSH1 0xE SLOAD SWAP4 POP SWAP4 POP SWAP4 POP SWAP4 POP SWAP1 SWAP2 SWAP3 SWAP4 JUMP JUMPDEST PUSH2 0x77C CALLER PUSH1 0x0 CALLDATALOAD PUSH32 0xFFFFFFFF00000000000000000000000000000000000000000000000000000000 AND PUSH2 0x1497 JUMP JUMPDEST DUP1 MLOAD DUP3 MLOAD EQ PUSH2 0x7B7 JUMPI PUSH1 0x40 MLOAD PUSH32 0x5D32021A00000000000000000000000000000000000000000000000000000000 DUP2 MSTORE PUSH1 0x4 ADD PUSH1 0x40 MLOAD DUP1 SWAP2 SUB SWAP1 REVERT JUMPDEST PUSH1 0x0 JUMPDEST DUP3 MLOAD DUP2 LT ISZERO PUSH2 0x811 JUMPI PUSH2 0x7FF DUP4 DUP3 DUP2 MLOAD DUP2 LT PUSH2 0x7D8 JUMPI PUSH2 0x7D8 PUSH2 0x4CD7 JUMP JUMPDEST PUSH1 0x20 MUL PUSH1 0x20 ADD ADD MLOAD DUP4 DUP4 DUP2 MLOAD DUP2 LT PUSH2 0x7F2 JUMPI PUSH2 0x7F2 PUSH2 0x4CD7 JUMP JUMPDEST PUSH1 0x20 MUL PUSH1 0x20 ADD ADD MLOAD PUSH2 0x14B3 JUMP JUMPDEST DUP1 PUSH2 0x809 DUP2 PUSH2 0x4D35 JUMP JUMPDEST SWAP2 POP POP PUSH2 0x7BA JUMP JUMPDEST POP POP POP JUMP JUMPDEST PUSH2 0x822 DUP5 DUP5 DUP5 DUP5 PUSH2 0x155D JUMP JUMPDEST PUSH2 0x851 CALLER PUSH1 0x0 CALLDATALOAD PUSH32 0xFFFFFFFF00000000000000000000000000000000000000000000000000000000 AND DUP4 PUSH2 0xF46 JUMP JUMPDEST PUSH2 0x710 DUP6 DUP6 DUP6 DUP6 PUSH2 0x15C6 JUMP JUMPDEST PUSH2 0x87A DUP2 PUSH1 0x1 DUP2 GT ISZERO PUSH2 0x872 JUMPI PUSH2 0x872 PUSH2 0x47DC JUMP JUMPDEST PUSH1 0xFF AND PUSH2 0x167F JUMP JUMPDEST PUSH2 0x8A9 CALLER PUSH1 0x0 CALLDATALOAD PUSH32 0xFFFFFFFF00000000000000000000000000000000000000000000000000000000 AND DUP4 PUSH2 0xF46 JUMP JUMPDEST PUSH2 0x6C2 DUP3 PUSH2 0x16C6 JUMP JUMPDEST PUSH2 0x8BC DUP3 DUP3 PUSH2 0x1741 JUMP JUMPDEST PUSH2 0x8EB CALLER PUSH1 0x0 CALLDATALOAD PUSH32 0xFFFFFFFF00000000000000000000000000000000000000000000000000000000 AND DUP4 PUSH2 0xF46 JUMP JUMPDEST DUP2 PUSH1 0x0 SUB PUSH2 0x8FF JUMPI PUSH2 0x8FC DUP4 PUSH2 0xD98 JUMP JUMPDEST SWAP2 POP JUMPDEST PUSH2 0x909 DUP4 DUP4 PUSH2 0x17B0 JUMP JUMPDEST PUSH1 0x1 SLOAD PUSH1 0x1C SLOAD PUSH1 0x1 PUSH1 0x1 PUSH1 0xA0 SHL SUB SWAP2 DUP3 AND SWAP2 PUSH4 0x4AE00041 SWAP2 AND PUSH2 0x92C DUP7 DUP7 PUSH2 0x1834 JUMP JUMPDEST PUSH1 0x0 PUSH1 0x40 MLOAD DUP5 PUSH4 0xFFFFFFFF AND PUSH1 0xE0 SHL DUP2 MSTORE PUSH1 0x4 ADD PUSH2 0x94C SWAP4 SWAP3 SWAP2 SWAP1 PUSH2 0x4DBD JUMP JUMPDEST PUSH1 0x0 PUSH1 0x40 MLOAD DUP1 DUP4 SUB DUP2 PUSH1 0x0 DUP8 GAS CALL ISZERO DUP1 ISZERO PUSH2 0x96B JUMPI RETURNDATASIZE PUSH1 0x0 DUP1 RETURNDATACOPY RETURNDATASIZE PUSH1 0x0 REVERT JUMPDEST POP POP POP POP PUSH1 0x40 MLOAD RETURNDATASIZE PUSH1 0x0 DUP3 RETURNDATACOPY PUSH1 0x1F RETURNDATASIZE SWAP1 DUP2 ADD PUSH1 0x1F NOT AND DUP3 ADD PUSH1 0x40 MSTORE PUSH2 0x993 SWAP2 SWAP1 DUP2 ADD SWAP1 PUSH2 0x4DEF JUMP JUMPDEST POP PUSH2 0x811 DUP4 DUP4 PUSH2 0x1977 JUMP JUMPDEST PUSH2 0x9CC CALLER PUSH1 0x0 CALLDATALOAD PUSH32 0xFFFFFFFF00000000000000000000000000000000000000000000000000000000 AND PUSH2 0x1497 JUMP JUMPDEST PUSH1 0x4 SLOAD PUSH1 0xFF AND PUSH2 0xA08 JUMPI PUSH1 0x40 MLOAD PUSH32 0x9E6558BD00000000000000000000000000000000000000000000000000000000 DUP2 MSTORE PUSH1 0x4 ADD PUSH1 0x40 MLOAD DUP1 SWAP2 SUB SWAP1 REVERT JUMPDEST PUSH1 0x4 DUP1 SLOAD PUSH32 0xFFFFFFFFFFFFFFFFFFFFFFFFFFFFFFFFFFFFFFFFFFFFFFFFFFFFFFFFFFFFFF00 AND SWAP1 SSTORE PUSH1 0x40 MLOAD PUSH32 0xA45F47FDEA8A1EFDD9029A5691C7F759C32B7C698632B563573E155625D16933 SWAP1 PUSH1 0x0 SWAP1 LOG1 JUMP JUMPDEST PUSH2 0xA67 DUP5 DUP5 DUP5 DUP5 PUSH2 0x155D JUMP JUMPDEST PUSH2 0xA96 CALLER PUSH1 0x0 CALLDATALOAD PUSH32 0xFFFFFFFF00000000000000000000000000000000000000000000000000000000 AND DUP4 PUSH2 0xF46 JUMP JUMPDEST PUSH2 0x710 DUP6 DUP6 DUP6 DUP6 PUSH2 0x198B JUMP JUMPDEST PUSH1 0x0 DUP1 PUSH1 0x0 DUP1 PUSH2 0xAB1 DUP6 PUSH2 0x1A4B JUMP JUMPDEST DUP1 MLOAD PUSH1 0x20 DUP3 ADD MLOAD PUSH1 0x40 SWAP1 SWAP3 ADD MLOAD SWAP1 SWAP8 SWAP2 SWAP7 POP SWAP5 POP SWAP3 POP POP POP JUMP JUMPDEST PUSH2 0xAD5 DUP3 DUP3 PUSH2 0x1AD6 JUMP JUMPDEST PUSH2 0xB04 CALLER PUSH1 0x0 CALLDATALOAD PUSH32 0xFFFFFFFF00000000000000000000000000000000000000000000000000000000 AND DUP4 PUSH2 0xF46 JUMP JUMPDEST PUSH2 0x811 DUP4 DUP4 PUSH2 0x1B30 JUMP JUMPDEST PUSH1 0x0 SLOAD PUSH2 0x100 SWAP1 DIV PUSH1 0xFF AND ISZERO DUP1 DUP1 ISZERO PUSH2 0xB2E JUMPI POP PUSH1 0x0 SLOAD PUSH1 0x1 PUSH1 0xFF SWAP1 SWAP2 AND LT JUMPDEST DUP1 PUSH2 0xB48 JUMPI POP ADDRESS EXTCODESIZE ISZERO DUP1 ISZERO PUSH2 0xB48 JUMPI POP PUSH1 0x0 SLOAD PUSH1 0xFF AND PUSH1 0x1 EQ JUMPDEST PUSH2 0xBBF JUMPI PUSH1 0x40 MLOAD PUSH3 0x461BCD PUSH1 0xE5 SHL DUP2 MSTORE PUSH1 0x20 PUSH1 0x4 DUP3 ADD MSTORE PUSH1 0x2E PUSH1 0x24 DUP3 ADD MSTORE PUSH32 0x496E697469616C697A61626C653A20636F6E747261637420697320616C726561 PUSH1 0x44 DUP3 ADD MSTORE PUSH32 0x647920696E697469616C697A6564000000000000000000000000000000000000 PUSH1 0x64 DUP3 ADD MSTORE PUSH1 0x84 ADD JUMPDEST PUSH1 0x40 MLOAD DUP1 SWAP2 SUB SWAP1 REVERT JUMPDEST PUSH1 0x0 DUP1 SLOAD PUSH32 0xFFFFFFFFFFFFFFFFFFFFFFFFFFFFFFFFFFFFFFFFFFFFFFFFFFFFFFFFFFFFFF00 AND PUSH1 0x1 OR SWAP1 SSTORE DUP1 ISZERO PUSH2 0xC1D JUMPI PUSH1 0x0 DUP1 SLOAD PUSH32 0xFFFFFFFFFFFFFFFFFFFFFFFFFFFFFFFFFFFFFFFFFFFFFFFFFFFFFFFFFFFF00FF AND PUSH2 0x100 OR SWAP1 SSTORE JUMPDEST PUSH2 0xC28 DUP5 DUP5 DUP5 PUSH2 0x1B75 JUMP JUMPDEST DUP1 ISZERO PUSH2 0xC8C JUMPI PUSH1 0x0 DUP1 SLOAD PUSH32 0xFFFFFFFFFFFFFFFFFFFFFFFFFFFFFFFFFFFFFFFFFFFFFFFFFFFFFFFFFFFF00FF AND SWAP1 SSTORE PUSH1 0x40 MLOAD PUSH1 0x1 DUP2 MSTORE PUSH32 0x7F26B83FF96E1F2B6A682F133852F6798A09C465DA95921460CEFB3847402498 SWAP1 PUSH1 0x20 ADD JUMPDEST PUSH1 0x40 MLOAD DUP1 SWAP2 SUB SWAP1 LOG1 JUMPDEST POP POP POP POP JUMP JUMPDEST PUSH2 0xCC0 CALLER PUSH1 0x0 CALLDATALOAD PUSH32 0xFFFFFFFF00000000000000000000000000000000000000000000000000000000 AND PUSH2 0x1497 JUMP JUMPDEST PUSH1 0x4 SLOAD PUSH1 0xFF AND ISZERO PUSH2 0xCFD JUMPI PUSH1 0x40 MLOAD PUSH32 0xC0F2312800000000000000000000000000000000000000000000000000000000 DUP2 MSTORE PUSH1 0x4 ADD PUSH1 0x40 MLOAD DUP1 SWAP2 SUB SWAP1 REVERT JUMPDEST PUSH1 0x4 DUP1 SLOAD PUSH32 0xFFFFFFFFFFFFFFFFFFFFFFFFFFFFFFFFFFFFFFFFFFFFFFFFFFFFFFFFFFFFFF00 AND PUSH1 0x1 OR SWAP1 SSTORE PUSH1 0x40 MLOAD PUSH32 0x9E87FAC88FF661F02D44F95383C817FECE4BCE600A3DAB7A54406878B965E752 SWAP1 PUSH1 0x0 SWAP1 LOG1 JUMP JUMPDEST PUSH2 0xD5E DUP4 DUP4 DUP4 PUSH2 0x1BF4 JUMP JUMPDEST PUSH2 0xD8D CALLER PUSH1 0x0 CALLDATALOAD PUSH32 0xFFFFFFFF00000000000000000000000000000000000000000000000000000000 AND DUP4 PUSH2 0xF46 JUMP JUMPDEST PUSH2 0xC8C DUP5 DUP5 DUP5 PUSH2 0x1C86 JUMP JUMPDEST PUSH1 0x1D SLOAD PUSH1 0x0 SWAP1 PUSH2 0xDB2 SWAP1 DUP4 SWAP1 PUSH1 0x1 PUSH1 0x1 PUSH1 0xA0 SHL SUB AND PUSH2 0x1CDC JUMP JUMPDEST SWAP3 SWAP2 POP POP JUMP JUMPDEST PUSH2 0xDC3 DUP4 DUP4 DUP4 PUSH2 0x1BF4 JUMP JUMPDEST PUSH2 0xDF2 CALLER PUSH1 0x0 CALLDATALOAD PUSH32 0xFFFFFFFF00000000000000000000000000000000000000000000000000000000 AND DUP4 PUSH2 0xF46 JUMP JUMPDEST PUSH2 0xC8C DUP5 DUP5 DUP5 PUSH2 0x1D9D JUMP JUMPDEST PUSH1 0x0 DUP1 PUSH1 0x0 DUP1 PUSH1 0x0 DUP1 PUSH2 0xE0F DUP8 PUSH2 0x1DF9 JUMP JUMPDEST PUSH1 0x40 DUP1 MLOAD PUSH1 0xA0 DUP2 ADD DUP3 MSTORE DUP3 SLOAD PUSH1 0x1 PUSH1 0x1 PUSH1 0xA0 SHL SUB AND DUP1 DUP3 MSTORE PUSH1 0x1 DUP5 ADD SLOAD PUSH1 0x20 DUP4 ADD DUP2 SWAP1 MSTORE PUSH1 0x2 DUP6 ADD SLOAD SWAP4 DUP4 ADD DUP5 SWAP1 MSTORE PUSH1 0x3 DUP6 ADD SLOAD PUSH1 0x60 DUP5 ADD DUP2 SWAP1 MSTORE PUSH1 0x4 SWAP1 SWAP6 ADD SLOAD PUSH1 0x80 SWAP1 SWAP4 ADD DUP4 SWAP1 MSTORE SWAP1 SWAP12 SWAP1 SWAP11 POP SWAP2 SWAP9 POP SWAP2 SWAP7 POP SWAP1 SWAP5 POP SWAP3 POP POP POP JUMP JUMPDEST PUSH2 0xE75 DUP2 PUSH2 0xF32 JUMP JUMPDEST PUSH2 0xEA4 CALLER PUSH1 0x0 CALLDATALOAD PUSH32 0xFFFFFFFF00000000000000000000000000000000000000000000000000000000 AND DUP4 PUSH2 0xF46 JUMP JUMPDEST PUSH2 0x6C2 DUP3 PUSH2 0x1E2D JUMP JUMPDEST PUSH2 0xEB9 DUP5 DUP5 DUP5 DUP5 PUSH2 0x102F JUMP JUMPDEST PUSH2 0xEE8 CALLER PUSH1 0x0 CALLDATALOAD PUSH32 0xFFFFFFFF00000000000000000000000000000000000000000000000000000000 AND DUP4 PUSH2 0xF46 JUMP JUMPDEST PUSH2 0x710 DUP6 DUP6 DUP6 DUP6 PUSH2 0x1ECF JUMP JUMPDEST PUSH1 0x0 DUP1 PUSH2 0xF02 PUSH1 0x10 DUP5 PUSH2 0x1F6A JUMP JUMPDEST SWAP1 POP PUSH1 0x1 PUSH1 0xF SLOAD PUSH1 0xFF AND PUSH1 0x1 DUP2 GT ISZERO PUSH2 0xF1D JUMPI PUSH2 0xF1D PUSH2 0x47DC JUMP JUMPDEST EQ PUSH2 0xF29 JUMPI DUP1 ISZERO PUSH2 0xF2B JUMP JUMPDEST DUP1 JUMPDEST SWAP4 SWAP3 POP POP POP JUMP JUMPDEST PUSH1 0x60 PUSH2 0xDB2 DUP3 PUSH1 0x1 PUSH1 0x1 PUSH1 0xA0 SHL SUB AND PUSH2 0x167F JUMP JUMPDEST PUSH2 0xF51 DUP4 DUP4 DUP4 PUSH2 0x1F8C JUMP JUMPDEST PUSH2 0x811 JUMPI DUP3 DUP3 DUP3 PUSH1 0x40 MLOAD PUSH32 0x960C80DA00000000000000000000000000000000000000000000000000000000 DUP2 MSTORE PUSH1 0x4 ADD PUSH2 0xBB6 SWAP4 SWAP3 SWAP2 SWAP1 PUSH2 0x4EBE JUMP JUMPDEST PUSH1 0x1 PUSH1 0x1 PUSH1 0xA0 SHL SUB DUP2 AND PUSH2 0xFCD JUMPI PUSH1 0x40 MLOAD PUSH32 0xDB6CF18100000000000000000000000000000000000000000000000000000000 DUP2 MSTORE PUSH1 0x4 ADD PUSH1 0x40 MLOAD DUP1 SWAP2 SUB SWAP1 REVERT JUMPDEST PUSH1 0x1D DUP1 SLOAD PUSH32 0xFFFFFFFFFFFFFFFFFFFFFFFF0000000000000000000000000000000000000000 AND PUSH1 0x1 PUSH1 0x1 PUSH1 0xA0 SHL SUB DUP4 AND SWAP1 DUP2 OR SWAP1 SWAP2 SSTORE PUSH1 0x40 MLOAD PUSH32 0xC7D25A41BB896A3D198B4B4593A58CB7F37D8340B0B58BFFA244676E2EF803A SWAP1 PUSH1 0x0 SWAP1 LOG2 POP JUMP JUMPDEST PUSH1 0x40 DUP1 MLOAD PUSH1 0x4 DUP1 DUP3 MSTORE PUSH1 0xA0 DUP3 ADD SWAP1 SWAP3 MSTORE PUSH1 0x60 SWAP2 PUSH1 0x20 DUP3 ADD PUSH1 0x80 DUP1 CALLDATASIZE DUP4 CALLDATACOPY ADD SWAP1 POP POP SWAP1 POP DUP5 DUP2 PUSH1 0x0 DUP2 MLOAD DUP2 LT PUSH2 0x1066 JUMPI PUSH2 0x1066 PUSH2 0x4CD7 JUMP JUMPDEST PUSH1 0x20 MUL PUSH1 0x20 ADD ADD DUP2 DUP2 MSTORE POP POP DUP4 DUP2 PUSH1 0x1 DUP2 MLOAD DUP2 LT PUSH2 0x1086 JUMPI PUSH2 0x1086 PUSH2 0x4CD7 JUMP JUMPDEST PUSH1 0x20 MUL PUSH1 0x20 ADD ADD DUP2 DUP2 MSTORE POP POP DUP3 DUP2 PUSH1 0x2 DUP2 MLOAD DUP2 LT PUSH2 0x10A6 JUMPI PUSH2 0x10A6 PUSH2 0x4CD7 JUMP JUMPDEST PUSH1 0x20 MUL PUSH1 0x20 ADD ADD DUP2 DUP2 MSTORE POP POP DUP2 DUP2 PUSH1 0x3 DUP2 MLOAD DUP2 LT PUSH2 0x10C6 JUMPI PUSH2 0x10C6 PUSH2 0x4CD7 JUMP JUMPDEST PUSH1 0x20 MUL PUSH1 0x20 ADD ADD DUP2 DUP2 MSTORE POP POP SWAP5 SWAP4 POP POP POP POP JUMP JUMPDEST PUSH1 0xFF DUP5 AND PUSH2 0x11D6 JUMPI PUSH1 0x0 DUP2 GT DUP1 PUSH2 0x10F1 JUMPI POP PUSH1 0x0 DUP3 GT JUMPDEST ISZERO PUSH2 0x11D1 JUMPI DUP3 PUSH1 0x0 SUB PUSH2 0x113C JUMPI PUSH1 0x40 MLOAD PUSH32 0xBEA499CB00000000000000000000000000000000000000000000000000000000 DUP2 MSTORE PUSH1 0xFF DUP6 AND PUSH1 0x4 DUP3 ADD MSTORE PUSH1 0x24 DUP2 ADD DUP5 SWAP1 MSTORE PUSH1 0x44 ADD PUSH2 0xBB6 JUMP JUMPDEST DUP1 ISZERO DUP1 PUSH2 0x1148 JUMPI POP DUP3 DUP2 GT JUMPDEST ISZERO PUSH2 0x118B JUMPI PUSH1 0x40 MLOAD PUSH32 0x9E12FCCF00000000000000000000000000000000000000000000000000000000 DUP2 MSTORE PUSH1 0xFF DUP6 AND PUSH1 0x4 DUP3 ADD MSTORE PUSH1 0x24 DUP2 ADD DUP3 SWAP1 MSTORE PUSH1 0x44 ADD PUSH2 0xBB6 JUMP JUMPDEST DUP2 PUSH1 0x0 SUB PUSH2 0x11D1 JUMPI PUSH1 0x40 MLOAD PUSH32 0xAD0D7EB200000000000000000000000000000000000000000000000000000000 DUP2 MSTORE PUSH1 0xFF DUP6 AND PUSH1 0x4 DUP3 ADD MSTORE PUSH1 0x24 DUP2 ADD DUP4 SWAP1 MSTORE PUSH1 0x44 ADD PUSH2 0xBB6 JUMP JUMPDEST PUSH2 0x13EC JUMP JUMPDEST DUP3 PUSH1 0x0 SUB PUSH2 0x121C JUMPI PUSH1 0x40 MLOAD PUSH32 0xBEA499CB00000000000000000000000000000000000000000000000000000000 DUP2 MSTORE PUSH1 0xFF DUP6 AND PUSH1 0x4 DUP3 ADD MSTORE PUSH1 0x24 DUP2 ADD DUP5 SWAP1 MSTORE PUSH1 0x44 ADD PUSH2 0xBB6 JUMP JUMPDEST DUP1 ISZERO DUP1 PUSH2 0x1234 JUMPI POP PUSH2 0x1231 PUSH3 0x24EA00 DUP5 PUSH2 0x4F08 JUMP JUMPDEST DUP2 GT JUMPDEST ISZERO PUSH2 0x1277 JUMPI PUSH1 0x40 MLOAD PUSH32 0x9E12FCCF00000000000000000000000000000000000000000000000000000000 DUP2 MSTORE PUSH1 0xFF DUP6 AND PUSH1 0x4 DUP3 ADD MSTORE PUSH1 0x24 DUP2 ADD DUP3 SWAP1 MSTORE PUSH1 0x44 ADD PUSH2 0xBB6 JUMP JUMPDEST DUP2 PUSH1 0x0 SUB PUSH2 0x12BD JUMPI PUSH1 0x40 MLOAD PUSH32 0xAD0D7EB200000000000000000000000000000000000000000000000000000000 DUP2 MSTORE PUSH1 0xFF DUP6 AND PUSH1 0x4 DUP3 ADD MSTORE PUSH1 0x24 DUP2 ADD DUP4 SWAP1 MSTORE PUSH1 0x44 ADD PUSH2 0xBB6 JUMP JUMPDEST PUSH32 0xFFFFFFFFFFFFFFFFFFFFFFFFFFFFFFFFFFFFFFFFFFFFFFFFFFFFFFFFFFFFFFFF PUSH1 0xFF DUP6 AND ADD PUSH2 0x1336 JUMPI PUSH1 0x1C PUSH2 0x12F2 DUP4 PUSH2 0x202A JUMP JUMPDEST GT ISZERO PUSH2 0x11D1 JUMPI PUSH1 0x40 MLOAD PUSH32 0xAD0D7EB200000000000000000000000000000000000000000000000000000000 DUP2 MSTORE PUSH1 0xFF DUP6 AND PUSH1 0x4 DUP3 ADD MSTORE PUSH1 0x24 DUP2 ADD DUP4 SWAP1 MSTORE PUSH1 0x44 ADD PUSH2 0xBB6 JUMP JUMPDEST PUSH32 0xFFFFFFFFFFFFFFFFFFFFFFFFFFFFFFFFFFFFFFFFFFFFFFFFFFFFFFFFFFFFFFFE PUSH1 0xFF DUP6 AND ADD PUSH2 0x13B5 JUMPI PUSH2 0x1369 DUP3 PUSH2 0x2041 JUMP JUMPDEST PUSH2 0x1372 DUP4 PUSH2 0x202A JUMP JUMPDEST EQ PUSH2 0x11D1 JUMPI PUSH1 0x40 MLOAD PUSH32 0xAD0D7EB200000000000000000000000000000000000000000000000000000000 DUP2 MSTORE PUSH1 0xFF DUP6 AND PUSH1 0x4 DUP3 ADD MSTORE PUSH1 0x24 DUP2 ADD DUP4 SWAP1 MSTORE PUSH1 0x44 ADD PUSH2 0xBB6 JUMP JUMPDEST PUSH1 0x40 MLOAD PUSH32 0x33A738BC00000000000000000000000000000000000000000000000000000000 DUP2 MSTORE PUSH1 0xFF DUP6 AND PUSH1 0x4 DUP3 ADD MSTORE PUSH1 0x24 ADD PUSH2 0xBB6 JUMP JUMPDEST DUP4 PUSH1 0xFF AND PUSH1 0x2 DUP2 GT ISZERO PUSH2 0x1401 JUMPI PUSH2 0x1401 PUSH2 0x47DC JUMP JUMPDEST PUSH1 0xA DUP1 SLOAD PUSH32 0xFFFFFFFFFFFFFFFFFFFFFFFFFFFFFFFFFFFFFFFFFFFFFFFFFFFFFFFFFFFFFF00 AND PUSH1 0x1 DUP4 PUSH1 0x2 DUP2 GT ISZERO PUSH2 0x143B JUMPI PUSH2 0x143B PUSH2 0x47DC JUMP JUMPDEST MUL OR SWAP1 SSTORE POP PUSH1 0xB DUP4 SWAP1 SSTORE PUSH1 0xC DUP3 SWAP1 SSTORE PUSH1 0xE DUP2 SWAP1 SSTORE PUSH1 0x40 DUP1 MLOAD PUSH1 0xFF DUP7 AND DUP2 MSTORE PUSH1 0x20 DUP2 ADD DUP6 SWAP1 MSTORE SWAP1 DUP2 ADD DUP4 SWAP1 MSTORE PUSH1 0x60 DUP2 ADD DUP3 SWAP1 MSTORE PUSH32 0x182FD6FA2A8560221614C1396DD4FCC78D26DFACF821A6AFB61D25876057E412 SWAP1 PUSH1 0x80 ADD PUSH2 0xC83 JUMP JUMPDEST PUSH1 0x40 DUP1 MLOAD PUSH1 0x0 DUP2 MSTORE PUSH1 0x20 DUP2 ADD SWAP1 SWAP2 MSTORE PUSH2 0x6C2 SWAP1 DUP4 SWAP1 DUP4 SWAP1 PUSH2 0xF46 JUMP JUMPDEST PUSH1 0x1 PUSH1 0x1 PUSH1 0xA0 SHL SUB DUP3 AND PUSH2 0x14F3 JUMPI PUSH1 0x40 MLOAD PUSH32 0xC41A13EC00000000000000000000000000000000000000000000000000000000 DUP2 MSTORE PUSH1 0x4 ADD PUSH1 0x40 MLOAD DUP1 SWAP2 SUB SWAP1 REVERT JUMPDEST DUP1 PUSH2 0x1508 JUMPI PUSH2 0x1503 PUSH1 0x10 DUP4 PUSH2 0x2064 JUMP JUMPDEST PUSH2 0x1513 JUMP JUMPDEST PUSH2 0x1513 PUSH1 0x10 DUP4 PUSH2 0x2079 JUMP JUMPDEST POP DUP2 PUSH1 0x1 PUSH1 0x1 PUSH1 0xA0 SHL SUB AND PUSH32 0x6264362E9DE26EFEFDA321DFAEB4E4A9090DEEF40C5435FAD8E9E2E306889A1C DUP3 PUSH1 0x40 MLOAD PUSH2 0x1551 SWAP2 ISZERO ISZERO DUP2 MSTORE PUSH1 0x20 ADD SWAP1 JUMP JUMPDEST PUSH1 0x40 MLOAD DUP1 SWAP2 SUB SWAP1 LOG2 POP POP JUMP JUMPDEST PUSH1 0x40 DUP1 MLOAD PUSH1 0x4 DUP1 DUP3 MSTORE PUSH1 0xA0 DUP3 ADD SWAP1 SWAP3 MSTORE PUSH1 0x60 SWAP2 PUSH1 0x20 DUP3 ADD PUSH1 0x80 DUP1 CALLDATASIZE DUP4 CALLDATACOPY ADD SWAP1 POP POP SWAP1 POP DUP5 PUSH1 0x1 PUSH1 0x1 PUSH1 0xA0 SHL SUB AND DUP2 PUSH1 0x0 DUP2 MLOAD DUP2 LT PUSH2 0x159D JUMPI PUSH2 0x159D PUSH2 0x4CD7 JUMP JUMPDEST PUSH1 0x20 MUL PUSH1 0x20 ADD ADD DUP2 DUP2 MSTORE POP POP DUP4 PUSH1 0x1 PUSH1 0x1 PUSH1 0xA0 SHL SUB AND DUP2 PUSH1 0x1 DUP2 MLOAD DUP2 LT PUSH2 0x1086 JUMPI PUSH2 0x1086 PUSH2 0x4CD7 JUMP JUMPDEST PUSH1 0x1 PUSH1 0x1 PUSH1 0xA0 SHL SUB DUP5 AND PUSH2 0x1606 JUMPI PUSH1 0x40 MLOAD PUSH32 0xE7BA3E4A00000000000000000000000000000000000000000000000000000000 DUP2 MSTORE PUSH1 0x4 ADD PUSH1 0x40 MLOAD DUP1 SWAP2 SUB SWAP1 REVERT JUMPDEST PUSH1 0x1 PUSH1 0x1 PUSH1 0xA0 SHL SUB DUP5 AND PUSH1 0x0 SWAP1 DUP2 MSTORE PUSH1 0x15 PUSH1 0x20 MSTORE PUSH1 0x40 SWAP1 KECCAK256 PUSH2 0x162A SWAP1 DUP5 DUP5 DUP5 PUSH2 0x208E JUMP JUMPDEST PUSH1 0x40 DUP1 MLOAD PUSH1 0x1 PUSH1 0x1 PUSH1 0xA0 SHL SUB DUP6 DUP2 AND DUP3 MSTORE PUSH1 0x20 DUP3 ADD DUP6 SWAP1 MSTORE SWAP2 DUP2 ADD DUP4 SWAP1 MSTORE SWAP1 DUP6 AND SWAP1 PUSH32 0xF099617C054D3A65E02A9C3B786F23CC03D5982BC7CFAE84DFF0408049CF1707 SWAP1 PUSH1 0x60 ADD PUSH1 0x40 MLOAD DUP1 SWAP2 SUB SWAP1 LOG2 POP POP POP POP JUMP JUMPDEST PUSH1 0x40 DUP1 MLOAD PUSH1 0x1 DUP1 DUP3 MSTORE DUP2 DUP4 ADD SWAP1 SWAP3 MSTORE PUSH1 0x60 SWAP2 PUSH1 0x20 DUP1 DUP4 ADD SWAP1 DUP1 CALLDATASIZE DUP4 CALLDATACOPY ADD SWAP1 POP POP SWAP1 POP DUP2 DUP2 PUSH1 0x0 DUP2 MLOAD DUP2 LT PUSH2 0x16B5 JUMPI PUSH2 0x16B5 PUSH2 0x4CD7 JUMP JUMPDEST PUSH1 0x20 MUL PUSH1 0x20 ADD ADD DUP2 DUP2 MSTORE POP POP SWAP2 SWAP1 POP JUMP JUMPDEST PUSH1 0xF DUP1 SLOAD DUP3 SWAP2 SWAP1 PUSH32 0xFFFFFFFFFFFFFFFFFFFFFFFFFFFFFFFFFFFFFFFFFFFFFFFFFFFFFFFFFFFFFF00 AND PUSH1 0x1 DUP4 DUP2 DUP2 GT ISZERO PUSH2 0x1702 JUMPI PUSH2 0x1702 PUSH2 0x47DC JUMP JUMPDEST MUL OR SWAP1 SSTORE POP PUSH32 0x216B6A9618D607BA436D0F2E17E9A83E70929ADFF805AC2385D67401360E551A DUP2 PUSH1 0x40 MLOAD PUSH2 0x1736 SWAP2 SWAP1 PUSH2 0x480B JUMP JUMPDEST PUSH1 0x40 MLOAD DUP1 SWAP2 SUB SWAP1 LOG1 POP JUMP JUMPDEST PUSH1 0x40 DUP1 MLOAD PUSH1 0x2 DUP1 DUP3 MSTORE PUSH1 0x60 DUP1 DUP4 ADD DUP5 MSTORE SWAP3 PUSH1 0x20 DUP4 ADD SWAP1 DUP1 CALLDATASIZE DUP4 CALLDATACOPY ADD SWAP1 POP POP SWAP1 POP DUP3 PUSH1 0x1 PUSH1 0x1 PUSH1 0xA0 SHL SUB AND DUP2 PUSH1 0x0 DUP2 MLOAD DUP2 LT PUSH2 0x177E JUMPI PUSH2 0x177E PUSH2 0x4CD7 JUMP JUMPDEST PUSH1 0x20 MUL PUSH1 0x20 ADD ADD DUP2 DUP2 MSTORE POP POP DUP2 DUP2 PUSH1 0x1 DUP2 MLOAD DUP2 LT PUSH2 0x179E JUMPI PUSH2 0x179E PUSH2 0x4CD7 JUMP JUMPDEST PUSH1 0x20 MUL PUSH1 0x20 ADD ADD DUP2 DUP2 MSTORE POP POP SWAP3 SWAP2 POP POP JUMP JUMPDEST PUSH2 0x17BA DUP3 DUP3 PUSH2 0x2176 JUMP JUMPDEST PUSH1 0x1 PUSH1 0x1 PUSH1 0xA0 SHL SUB DUP3 AND PUSH2 0x17FA JUMPI PUSH1 0x40 MLOAD PUSH32 0xC0E0F12200000000000000000000000000000000000000000000000000000000 DUP2 MSTORE PUSH1 0x4 ADD PUSH1 0x40 MLOAD DUP1 SWAP2 SUB SWAP1 REVERT JUMPDEST DUP1 PUSH1 0x0 SUB PUSH2 0x6C2 JUMPI PUSH1 0x40 MLOAD PUSH32 0x1463ACBE00000000000000000000000000000000000000000000000000000000 DUP2 MSTORE PUSH1 0x4 ADD PUSH1 0x40 MLOAD DUP1 SWAP2 SUB SWAP1 REVERT JUMPDEST PUSH1 0x40 DUP1 MLOAD PUSH1 0x1 DUP1 DUP3 MSTORE DUP2 DUP4 ADD SWAP1 SWAP3 MSTORE PUSH1 0x60 SWAP2 PUSH1 0x0 SWAP2 SWAP1 PUSH1 0x20 DUP1 DUP4 ADD SWAP1 DUP1 CALLDATASIZE DUP4 CALLDATACOPY ADD SWAP1 POP POP SWAP1 POP DUP4 DUP2 PUSH1 0x0 DUP2 MLOAD DUP2 LT PUSH2 0x186E JUMPI PUSH2 0x186E PUSH2 0x4CD7 JUMP JUMPDEST PUSH1 0x1 PUSH1 0x1 PUSH1 0xA0 SHL SUB SWAP3 SWAP1 SWAP3 AND PUSH1 0x20 SWAP3 DUP4 MUL SWAP2 SWAP1 SWAP2 ADD SWAP1 SWAP2 ADD MSTORE PUSH1 0x40 DUP1 MLOAD PUSH1 0x1 DUP1 DUP3 MSTORE DUP2 DUP4 ADD SWAP1 SWAP3 MSTORE PUSH1 0x0 SWAP2 DUP2 PUSH1 0x20 ADD PUSH1 0x20 DUP3 MUL DUP1 CALLDATASIZE DUP4 CALLDATACOPY ADD SWAP1 POP POP SWAP1 POP DUP4 DUP2 PUSH1 0x0 DUP2 MLOAD DUP2 LT PUSH2 0x18BF JUMPI PUSH2 0x18BF PUSH2 0x4CD7 JUMP JUMPDEST PUSH1 0x20 SWAP1 DUP2 MUL SWAP2 SWAP1 SWAP2 ADD ADD MSTORE PUSH1 0x1 SLOAD PUSH1 0x40 MLOAD PUSH32 0x6DAEFAB600000000000000000000000000000000000000000000000000000000 SWAP2 PUSH2 0x190E SWAP2 DUP6 SWAP2 DUP6 SWAP2 PUSH1 0x1 PUSH1 0x1 PUSH1 0xA0 SHL SUB SWAP1 SWAP2 AND SWAP1 PUSH1 0x24 ADD PUSH2 0x4F1F JUMP JUMPDEST PUSH1 0x40 DUP1 MLOAD PUSH1 0x1F NOT DUP2 DUP5 SUB ADD DUP2 MSTORE SWAP2 SWAP1 MSTORE PUSH1 0x20 DUP2 ADD DUP1 MLOAD PUSH28 0xFFFFFFFFFFFFFFFFFFFFFFFFFFFFFFFFFFFFFFFFFFFFFFFFFFFFFFFF AND PUSH32 0xFFFFFFFF00000000000000000000000000000000000000000000000000000000 SWAP1 SWAP4 AND SWAP3 SWAP1 SWAP3 OR SWAP1 SWAP2 MSTORE SWAP3 POP POP POP SWAP3 SWAP2 POP POP JUMP JUMPDEST PUSH2 0x1981 DUP3 DUP3 PUSH2 0x21BC JUMP JUMPDEST PUSH2 0x6C2 DUP3 DUP3 PUSH2 0x225B JUMP JUMPDEST PUSH1 0x1 PUSH1 0x1 PUSH1 0xA0 SHL SUB DUP5 AND PUSH2 0x19CB JUMPI PUSH1 0x40 MLOAD PUSH32 0x1DE0C9C700000000000000000000000000000000000000000000000000000000 DUP2 MSTORE PUSH1 0x4 ADD PUSH1 0x40 MLOAD DUP1 SWAP2 SUB SWAP1 REVERT JUMPDEST PUSH1 0x1 PUSH1 0x1 PUSH1 0xA0 SHL SUB DUP5 AND PUSH1 0x0 SWAP1 DUP2 MSTORE PUSH1 0x1B PUSH1 0x20 MSTORE PUSH1 0x40 SWAP1 KECCAK256 PUSH2 0x19EF SWAP1 DUP5 DUP5 DUP5 PUSH2 0x2283 JUMP JUMPDEST DUP3 PUSH1 0x1 PUSH1 0x1 PUSH1 0xA0 SHL SUB AND DUP5 PUSH1 0x1 PUSH1 0x1 PUSH1 0xA0 SHL SUB AND PUSH32 0x1B5C5E27ED5443E409BAE85849D41D7BF12D5352E8FDDB3728B6408F836E1448 DUP5 DUP5 PUSH1 0x40 MLOAD PUSH2 0x1A3D SWAP3 SWAP2 SWAP1 SWAP2 DUP3 MSTORE PUSH1 0x20 DUP3 ADD MSTORE PUSH1 0x40 ADD SWAP1 JUMP JUMPDEST PUSH1 0x40 MLOAD DUP1 SWAP2 SUB SWAP1 LOG3 POP POP POP POP JUMP JUMPDEST PUSH2 0x1A78 PUSH1 0x40 MLOAD DUP1 PUSH1 0x60 ADD PUSH1 0x40 MSTORE DUP1 PUSH1 0x0 PUSH1 0x1 PUSH1 0x1 PUSH1 0xA0 SHL SUB AND DUP2 MSTORE PUSH1 0x20 ADD PUSH1 0x0 DUP2 MSTORE PUSH1 0x20 ADD PUSH1 0x0 DUP2 MSTORE POP SWAP1 JUMP JUMPDEST PUSH1 0x1 PUSH1 0x1 PUSH1 0xA0 SHL SUB DUP1 DUP4 AND PUSH1 0x0 SWAP1 DUP2 MSTORE PUSH1 0x15 PUSH1 0x20 MSTORE PUSH1 0x40 SWAP1 KECCAK256 DUP1 SLOAD SWAP1 SWAP2 AND ISZERO PUSH2 0x1AA1 JUMPI DUP1 PUSH2 0x1AA4 JUMP JUMPDEST PUSH1 0x12 JUMPDEST PUSH1 0x40 DUP1 MLOAD PUSH1 0x60 DUP2 ADD DUP3 MSTORE DUP3 SLOAD PUSH1 0x1 PUSH1 0x1 PUSH1 0xA0 SHL SUB AND DUP2 MSTORE PUSH1 0x1 DUP4 ADD SLOAD PUSH1 0x20 DUP3 ADD MSTORE PUSH1 0x2 SWAP1 SWAP3 ADD SLOAD SWAP1 DUP3 ADD MSTORE SWAP4 SWAP3 POP POP POP JUMP JUMPDEST PUSH1 0x40 DUP1 MLOAD PUSH1 0x2 DUP1 DUP3 MSTORE PUSH1 0x60 DUP1 DUP4 ADD DUP5 MSTORE SWAP3 PUSH1 0x20 DUP4 ADD SWAP1 DUP1 CALLDATASIZE DUP4 CALLDATACOPY ADD SWAP1 POP POP SWAP1 POP DUP3 PUSH1 0x0 SHR DUP2 PUSH1 0x0 DUP2 MLOAD DUP2 LT PUSH2 0x1B0D JUMPI PUSH2 0x1B0D PUSH2 0x4CD7 JUMP JUMPDEST PUSH1 0x20 MUL PUSH1 0x20 ADD ADD DUP2 DUP2 MSTORE POP POP DUP2 PUSH1 0x0 SHR DUP2 PUSH1 0x1 DUP2 MLOAD DUP2 LT PUSH2 0x179E JUMPI PUSH2 0x179E PUSH2 0x4CD7 JUMP JUMPDEST DUP2 ISZERO PUSH2 0x1B6B JUMPI PUSH1 0x40 MLOAD PUSH32 0xADE7E16800000000000000000000000000000000000000000000000000000000 DUP2 MSTORE PUSH1 0x4 DUP2 ADD DUP4 SWAP1 MSTORE PUSH1 0x24 ADD PUSH2 0xBB6 JUMP JUMPDEST PUSH2 0x6C2 DUP3 DUP3 PUSH2 0x23FA JUMP JUMPDEST PUSH1 0x0 SLOAD PUSH2 0x100 SWAP1 DIV PUSH1 0xFF AND PUSH2 0x1BE0 JUMPI PUSH1 0x40 MLOAD PUSH3 0x461BCD PUSH1 0xE5 SHL DUP2 MSTORE PUSH1 0x20 PUSH1 0x4 DUP3 ADD MSTORE PUSH1 0x2B PUSH1 0x24 DUP3 ADD MSTORE PUSH32 0x496E697469616C697A61626C653A20636F6E7472616374206973206E6F742069 PUSH1 0x44 DUP3 ADD MSTORE PUSH11 0x6E697469616C697A696E67 PUSH1 0xA8 SHL PUSH1 0x64 DUP3 ADD MSTORE PUSH1 0x84 ADD PUSH2 0xBB6 JUMP JUMPDEST PUSH2 0x1BE9 DUP4 PUSH2 0x247D JUMP JUMPDEST PUSH2 0x811 DUP4 DUP4 DUP4 PUSH2 0x2548 JUMP JUMPDEST PUSH1 0x40 DUP1 MLOAD PUSH1 0x3 DUP1 DUP3 MSTORE PUSH1 0x80 DUP3 ADD SWAP1 SWAP3 MSTORE PUSH1 0x60 SWAP2 PUSH1 0x20 DUP3 ADD DUP4 DUP1 CALLDATASIZE DUP4 CALLDATACOPY ADD SWAP1 POP POP SWAP1 POP DUP4 PUSH1 0x1 PUSH1 0x1 PUSH1 0xA0 SHL SUB AND DUP2 PUSH1 0x0 DUP2 MLOAD DUP2 LT PUSH2 0x1C33 JUMPI PUSH2 0x1C33 PUSH2 0x4CD7 JUMP JUMPDEST PUSH1 0x20 MUL PUSH1 0x20 ADD ADD DUP2 DUP2 MSTORE POP POP DUP3 DUP2 PUSH1 0x1 DUP2 MLOAD DUP2 LT PUSH2 0x1C53 JUMPI PUSH2 0x1C53 PUSH2 0x4CD7 JUMP JUMPDEST PUSH1 0x20 MUL PUSH1 0x20 ADD ADD DUP2 DUP2 MSTORE POP POP DUP2 DUP2 PUSH1 0x2 DUP2 MLOAD DUP2 LT PUSH2 0x1C73 JUMPI PUSH2 0x1C73 PUSH2 0x4CD7 JUMP JUMPDEST PUSH1 0x20 MUL PUSH1 0x20 ADD ADD DUP2 DUP2 MSTORE POP POP SWAP4 SWAP3 POP POP POP JUMP JUMPDEST PUSH2 0x1C93 PUSH1 0x16 DUP5 DUP5 DUP5 PUSH2 0x2283 JUMP JUMPDEST PUSH1 0x40 DUP1 MLOAD DUP4 DUP2 MSTORE PUSH1 0x20 DUP2 ADD DUP4 SWAP1 MSTORE PUSH1 0x1 PUSH1 0x1 PUSH1 0xA0 SHL SUB DUP6 AND SWAP2 PUSH32 0x6324B5F18E615697A2B44F16D7A649DEB0BBBC7CB09DAD4C610306105730E7D9 SWAP2 ADD PUSH1 0x40 MLOAD DUP1 SWAP2 SUB SWAP1 LOG2 POP POP POP JUMP JUMPDEST PUSH1 0x0 PUSH20 0xEEEEEEEEEEEEEEEEEEEEEEEEEEEEEEEEEEEEEEEE PUSH1 0x1 PUSH1 0x1 PUSH1 0xA0 SHL SUB DUP5 AND SUB PUSH2 0x1D13 JUMPI POP PUSH1 0x1 PUSH1 0x1 PUSH1 0xA0 SHL SUB DUP2 AND BALANCE PUSH2 0xDB2 JUMP JUMPDEST PUSH1 0x40 MLOAD PUSH32 0x70A0823100000000000000000000000000000000000000000000000000000000 DUP2 MSTORE PUSH1 0x1 PUSH1 0x1 PUSH1 0xA0 SHL SUB DUP4 DUP2 AND PUSH1 0x4 DUP4 ADD MSTORE DUP5 AND SWAP1 PUSH4 0x70A08231 SWAP1 PUSH1 0x24 ADD PUSH1 0x20 PUSH1 0x40 MLOAD DUP1 DUP4 SUB DUP2 DUP7 GAS STATICCALL ISZERO DUP1 ISZERO PUSH2 0x1D72 JUMPI RETURNDATASIZE PUSH1 0x0 DUP1 RETURNDATACOPY RETURNDATASIZE PUSH1 0x0 REVERT JUMPDEST POP POP POP POP PUSH1 0x40 MLOAD RETURNDATASIZE PUSH1 0x1F NOT PUSH1 0x1F DUP3 ADD AND DUP3 ADD DUP1 PUSH1 0x40 MSTORE POP DUP2 ADD SWAP1 PUSH2 0x1D96 SWAP2 SWAP1 PUSH2 0x4F90 JUMP JUMPDEST SWAP1 POP PUSH2 0xDB2 JUMP JUMPDEST PUSH2 0x1DAA PUSH1 0x12 DUP5 DUP5 DUP5 PUSH2 0x208E JUMP JUMPDEST PUSH1 0x40 DUP1 MLOAD PUSH1 0x1 PUSH1 0x1 PUSH1 0xA0 SHL SUB DUP6 AND DUP2 MSTORE PUSH1 0x20 DUP2 ADD DUP5 SWAP1 MSTORE SWAP1 DUP2 ADD DUP3 SWAP1 MSTORE PUSH32 0xA80953BDC344B2EBD0BCDD001A3418A8FD1B858BDECF12A4BA5A9366AD65D345 SWAP1 PUSH1 0x60 ADD PUSH1 0x40 MLOAD DUP1 SWAP2 SUB SWAP1 LOG1 POP POP POP JUMP JUMPDEST PUSH1 0x1 PUSH1 0x1 PUSH1 0xA0 SHL SUB DUP1 DUP3 AND PUSH1 0x0 SWAP1 DUP2 MSTORE PUSH1 0x1B PUSH1 0x20 MSTORE PUSH1 0x40 DUP2 KECCAK256 DUP1 SLOAD SWAP2 SWAP3 SWAP1 SWAP2 AND ISZERO PUSH2 0x1E24 JUMPI DUP1 PUSH2 0xF2B JUMP JUMPDEST PUSH1 0x16 SWAP4 SWAP3 POP POP POP JUMP JUMPDEST PUSH1 0x1 PUSH1 0x1 PUSH1 0xA0 SHL SUB DUP2 AND PUSH2 0x1E6D JUMPI PUSH1 0x40 MLOAD PUSH32 0x382928FE00000000000000000000000000000000000000000000000000000000 DUP2 MSTORE PUSH1 0x4 ADD PUSH1 0x40 MLOAD DUP1 SWAP2 SUB SWAP1 REVERT JUMPDEST PUSH1 0x1C DUP1 SLOAD PUSH32 0xFFFFFFFFFFFFFFFFFFFFFFFF0000000000000000000000000000000000000000 AND PUSH1 0x1 PUSH1 0x1 PUSH1 0xA0 SHL SUB DUP4 AND SWAP1 DUP2 OR SWAP1 SWAP2 SSTORE PUSH1 0x40 MLOAD PUSH32 0xFDBD8FD3124D4ABEA1394A5BF9D535D8B716508569491CEAE023FC8F0221C73A SWAP1 PUSH1 0x0 SWAP1 LOG2 POP JUMP JUMPDEST PUSH8 0xDE0B6B3A7640000 DUP2 GT ISZERO PUSH2 0x1F11 JUMPI PUSH1 0x40 MLOAD PUSH32 0xCE57496100000000000000000000000000000000000000000000000000000000 DUP2 MSTORE PUSH1 0x4 ADD PUSH1 0x40 MLOAD DUP1 SWAP2 SUB SWAP1 REVERT JUMPDEST PUSH1 0x6 DUP5 SWAP1 SSTORE PUSH1 0x7 DUP4 SWAP1 SSTORE PUSH1 0x8 DUP3 SWAP1 SSTORE PUSH1 0x9 DUP2 SWAP1 SSTORE PUSH1 0x40 DUP1 MLOAD DUP6 DUP2 MSTORE PUSH1 0x20 DUP2 ADD DUP6 SWAP1 MSTORE SWAP1 DUP2 ADD DUP4 SWAP1 MSTORE PUSH1 0x60 DUP2 ADD DUP3 SWAP1 MSTORE PUSH32 0x746DC5EB53C5DE07C40B06D428506D6982EA10C423AC2875ABFC44038927D691 SWAP1 PUSH1 0x80 ADD PUSH2 0xC83 JUMP JUMPDEST PUSH1 0x1 PUSH1 0x1 PUSH1 0xA0 SHL SUB DUP2 AND PUSH1 0x0 SWAP1 DUP2 MSTORE PUSH1 0x1 DUP4 ADD PUSH1 0x20 MSTORE PUSH1 0x40 DUP2 KECCAK256 SLOAD ISZERO ISZERO PUSH2 0xF2B JUMP JUMPDEST PUSH1 0x0 DUP1 SLOAD PUSH1 0x40 MLOAD PUSH32 0x2852289500000000000000000000000000000000000000000000000000000000 DUP2 MSTORE PUSH3 0x10000 SWAP1 SWAP2 DIV PUSH1 0x1 PUSH1 0x1 PUSH1 0xA0 SHL SUB AND SWAP1 PUSH4 0x28522895 SWAP1 PUSH2 0x1FE1 SWAP1 DUP8 SWAP1 ADDRESS SWAP1 DUP9 SWAP1 DUP9 SWAP1 PUSH1 0x4 ADD PUSH2 0x4FA9 JUMP JUMPDEST PUSH1 0x20 PUSH1 0x40 MLOAD DUP1 DUP4 SUB DUP2 DUP7 GAS STATICCALL ISZERO DUP1 ISZERO PUSH2 0x1FFE JUMPI RETURNDATASIZE PUSH1 0x0 DUP1 RETURNDATACOPY RETURNDATASIZE PUSH1 0x0 REVERT JUMPDEST POP POP POP POP PUSH1 0x40 MLOAD RETURNDATASIZE PUSH1 0x1F NOT PUSH1 0x1F DUP3 ADD AND DUP3 ADD DUP1 PUSH1 0x40 MSTORE POP DUP2 ADD SWAP1 PUSH2 0x2022 SWAP2 SWAP1 PUSH2 0x5007 JUMP JUMPDEST SWAP5 SWAP4 POP POP POP POP JUMP JUMPDEST PUSH1 0x0 PUSH2 0x2022 PUSH2 0x203C PUSH3 0x15180 DUP5 PUSH2 0x5053 JUMP JUMPDEST PUSH2 0x25C5 JUMP JUMPDEST PUSH1 0x0 DUP1 DUP1 PUSH2 0x2055 PUSH2 0x203C PUSH3 0x15180 DUP7 PUSH2 0x5053 JUMP JUMPDEST POP SWAP2 POP SWAP2 POP PUSH2 0x2022 DUP3 DUP3 PUSH2 0x267F JUMP JUMPDEST PUSH1 0x0 PUSH2 0xF2B DUP4 PUSH1 0x1 PUSH1 0x1 PUSH1 0xA0 SHL SUB DUP5 AND PUSH2 0x2705 JUMP JUMPDEST PUSH1 0x0 PUSH2 0xF2B DUP4 PUSH1 0x1 PUSH1 0x1 PUSH1 0xA0 SHL SUB DUP5 AND PUSH2 0x27FF JUMP JUMPDEST PUSH1 0x0 PUSH1 0x1 PUSH1 0x1 PUSH1 0xA0 SHL SUB DUP5 AND ISZERO DUP1 ISZERO PUSH2 0x20A5 JUMPI POP DUP3 ISZERO JUMPDEST DUP1 ISZERO PUSH2 0x20AF JUMPI POP DUP2 ISZERO JUMPDEST SWAP1 POP PUSH1 0x0 PUSH1 0x1 PUSH1 0x1 PUSH1 0xA0 SHL SUB DUP6 AND ISZERO DUP1 ISZERO SWAP1 PUSH2 0x20D3 JUMPI POP DUP3 ISZERO DUP1 PUSH2 0x20D3 JUMPI POP DUP4 DUP4 LT ISZERO JUMPDEST SWAP1 POP DUP2 ISZERO DUP1 ISZERO PUSH2 0x20E1 JUMPI POP DUP1 ISZERO JUMPDEST ISZERO PUSH2 0x2131 JUMPI PUSH1 0x40 MLOAD PUSH32 0xCA1F048300000000000000000000000000000000000000000000000000000000 DUP2 MSTORE PUSH1 0x1 PUSH1 0x1 PUSH1 0xA0 SHL SUB DUP7 AND PUSH1 0x4 DUP3 ADD MSTORE PUSH1 0x24 DUP2 ADD DUP6 SWAP1 MSTORE PUSH1 0x44 DUP2 ADD DUP5 SWAP1 MSTORE PUSH1 0x64 ADD PUSH2 0xBB6 JUMP JUMPDEST POP POP DUP4 SLOAD PUSH32 0xFFFFFFFFFFFFFFFFFFFFFFFF0000000000000000000000000000000000000000 AND PUSH1 0x1 PUSH1 0x1 PUSH1 0xA0 SHL SUB SWAP4 SWAP1 SWAP4 AND SWAP3 SWAP1 SWAP3 OR DUP4 SSTORE PUSH1 0x1 DUP4 ADD SSTORE PUSH1 0x2 SWAP1 SWAP2 ADD SSTORE JUMP JUMPDEST PUSH2 0x2180 DUP3 DUP3 PUSH2 0x284E JUMP JUMPDEST PUSH2 0x218A DUP3 DUP3 PUSH2 0x2858 JUMP JUMPDEST PUSH2 0x2194 DUP3 DUP3 PUSH2 0x2895 JUMP JUMPDEST PUSH2 0x219E DUP3 DUP3 PUSH2 0x2989 JUMP JUMPDEST PUSH2 0x21A8 DUP3 DUP3 PUSH2 0x2BDC JUMP JUMPDEST PUSH2 0x21B2 DUP3 DUP3 PUSH2 0x2C26 JUMP JUMPDEST PUSH2 0x6C2 DUP3 DUP3 PUSH2 0x2D13 JUMP JUMPDEST PUSH1 0x3 SLOAD ISZERO PUSH2 0x6C2 JUMPI PUSH1 0x1 DUP1 SLOAD PUSH1 0x3 SLOAD PUSH1 0x40 MLOAD PUSH32 0xEB056BBB00000000000000000000000000000000000000000000000000000000 DUP2 MSTORE PUSH1 0x4 DUP2 ADD SWAP2 SWAP1 SWAP2 MSTORE PUSH1 0x1 PUSH1 0x1 PUSH1 0xA0 SHL SUB DUP6 DUP2 AND PUSH1 0x24 DUP4 ADD MSTORE PUSH1 0x44 DUP3 ADD DUP6 SWAP1 MSTORE PUSH1 0x64 DUP3 ADD SWAP4 SWAP1 SWAP4 MSTORE SWAP2 AND SWAP1 PUSH4 0xEB056BBB SWAP1 PUSH1 0x84 ADD JUMPDEST PUSH1 0x0 PUSH1 0x40 MLOAD DUP1 DUP4 SUB DUP2 PUSH1 0x0 DUP8 DUP1 EXTCODESIZE ISZERO DUP1 ISZERO PUSH2 0x223F JUMPI PUSH1 0x0 DUP1 REVERT JUMPDEST POP GAS CALL ISZERO DUP1 ISZERO PUSH2 0x2253 JUMPI RETURNDATASIZE PUSH1 0x0 DUP1 RETURNDATACOPY RETURNDATASIZE PUSH1 0x0 REVERT JUMPDEST POP POP POP POP POP POP JUMP JUMPDEST PUSH2 0x2265 DUP3 DUP3 PUSH2 0x2E29 JUMP JUMPDEST PUSH2 0x226F DUP3 DUP3 PUSH2 0x2ECB JUMP JUMPDEST PUSH2 0x2279 DUP3 DUP3 PUSH2 0x2EED JUMP JUMPDEST PUSH2 0x6C2 DUP3 DUP3 PUSH2 0x3137 JUMP JUMPDEST PUSH1 0x0 PUSH1 0x1 PUSH1 0x1 PUSH1 0xA0 SHL SUB DUP5 AND ISZERO DUP1 ISZERO PUSH2 0x229A JUMPI POP DUP3 ISZERO JUMPDEST DUP1 ISZERO PUSH2 0x22A4 JUMPI POP DUP2 ISZERO JUMPDEST SWAP1 POP PUSH1 0x0 PUSH1 0x1 PUSH1 0x1 PUSH1 0xA0 SHL SUB DUP6 AND ISZERO DUP1 ISZERO SWAP1 PUSH2 0x22C0 JUMPI POP PUSH1 0x0 DUP5 GT JUMPDEST DUP1 ISZERO PUSH2 0x22CC JUMPI POP PUSH1 0x0 DUP4 GT JUMPDEST SWAP1 POP DUP2 ISZERO DUP1 ISZERO PUSH2 0x22DA JUMPI POP DUP1 ISZERO JUMPDEST ISZERO PUSH2 0x232A JUMPI PUSH1 0x40 MLOAD PUSH32 0xF5DEB5DC00000000000000000000000000000000000000000000000000000000 DUP2 MSTORE PUSH1 0x1 PUSH1 0x1 PUSH1 0xA0 SHL SUB DUP7 AND PUSH1 0x4 DUP3 ADD MSTORE PUSH1 0x24 DUP2 ADD DUP6 SWAP1 MSTORE PUSH1 0x44 DUP2 ADD DUP5 SWAP1 MSTORE PUSH1 0x64 ADD PUSH2 0xBB6 JUMP JUMPDEST PUSH1 0x3 DUP7 ADD DUP4 SWAP1 SSTORE PUSH1 0x1 DUP7 ADD DUP5 SWAP1 SSTORE DUP2 ISZERO PUSH2 0x2351 JUMPI PUSH1 0x0 PUSH1 0x2 DUP8 ADD DUP2 SWAP1 SSTORE PUSH1 0x4 DUP8 ADD SSTORE PUSH2 0x23BD JUMP JUMPDEST DUP6 PUSH1 0x4 ADD SLOAD PUSH1 0x0 SUB PUSH2 0x2378 JUMPI PUSH1 0x0 PUSH1 0x2 DUP8 ADD SSTORE PUSH2 0x236E DUP4 TIMESTAMP PUSH2 0x5067 JUMP JUMPDEST PUSH1 0x4 DUP8 ADD SSTORE PUSH2 0x23BD JUMP JUMPDEST DUP6 SLOAD PUSH1 0x1 PUSH1 0x1 PUSH1 0xA0 SHL SUB DUP7 DUP2 AND SWAP2 AND EQ PUSH2 0x23BD JUMPI DUP6 SLOAD PUSH1 0x0 SWAP1 PUSH2 0x23A4 SWAP1 PUSH1 0x1 PUSH1 0x1 PUSH1 0xA0 SHL SUB AND DUP8 PUSH2 0x3164 JUMP JUMPDEST PUSH1 0x2 DUP9 ADD SLOAD SWAP1 SWAP2 POP PUSH2 0x23B6 SWAP1 DUP3 PUSH2 0x3170 JUMP JUMPDEST PUSH1 0x2 DUP9 ADD SSTORE POP JUMPDEST POP POP DUP4 SLOAD PUSH32 0xFFFFFFFFFFFFFFFFFFFFFFFF0000000000000000000000000000000000000000 AND PUSH1 0x1 PUSH1 0x1 PUSH1 0xA0 SHL SUB SWAP4 SWAP1 SWAP4 AND SWAP3 SWAP1 SWAP3 OR SWAP1 SWAP3 SSTORE POP POP JUMP JUMPDEST DUP1 DUP3 EQ DUP1 ISZERO PUSH2 0x2408 JUMPI POP DUP2 ISZERO ISZERO JUMPDEST ISZERO PUSH2 0x2442 JUMPI PUSH1 0x40 MLOAD PUSH32 0xFB49EDB00000000000000000000000000000000000000000000000000000000 DUP2 MSTORE PUSH1 0x4 DUP2 ADD DUP4 SWAP1 MSTORE PUSH1 0x24 ADD PUSH2 0xBB6 JUMP JUMPDEST PUSH1 0x2 DUP3 SWAP1 SSTORE PUSH1 0x3 DUP2 SWAP1 SSTORE PUSH1 0x40 MLOAD DUP2 SWAP1 DUP4 SWAP1 PUSH32 0xF950A929751D87DB181A0A517DF21BB3ECD433ABBA584594402DB4B58A554835 SWAP1 PUSH1 0x0 SWAP1 LOG3 POP POP JUMP JUMPDEST PUSH1 0x0 SLOAD PUSH2 0x100 SWAP1 DIV PUSH1 0xFF AND PUSH2 0x24E8 JUMPI PUSH1 0x40 MLOAD PUSH3 0x461BCD PUSH1 0xE5 SHL DUP2 MSTORE PUSH1 0x20 PUSH1 0x4 DUP3 ADD MSTORE PUSH1 0x2B PUSH1 0x24 DUP3 ADD MSTORE PUSH32 0x496E697469616C697A61626C653A20636F6E7472616374206973206E6F742069 PUSH1 0x44 DUP3 ADD MSTORE PUSH11 0x6E697469616C697A696E67 PUSH1 0xA8 SHL PUSH1 0x64 DUP3 ADD MSTORE PUSH1 0x84 ADD PUSH2 0xBB6 JUMP JUMPDEST DUP1 MLOAD PUSH2 0x24F3 SWAP1 PUSH2 0x31E6 JUMP JUMPDEST PUSH2 0x24FB PUSH2 0x32C8 JUMP JUMPDEST PUSH2 0x2508 DUP2 PUSH1 0x20 ADD MLOAD PUSH2 0x333D JUMP JUMPDEST PUSH2 0x2515 DUP2 PUSH1 0x40 ADD MLOAD PUSH2 0x33B1 JUMP JUMPDEST PUSH2 0x2522 DUP2 PUSH1 0x60 ADD MLOAD PUSH2 0x3425 JUMP JUMPDEST PUSH2 0x252F DUP2 PUSH1 0x80 ADD MLOAD PUSH2 0x3499 JUMP JUMPDEST PUSH2 0x253C DUP2 PUSH1 0xA0 ADD MLOAD PUSH2 0x350D JUMP JUMPDEST PUSH2 0x2545 DUP2 PUSH2 0x3581 JUMP JUMPDEST POP JUMP JUMPDEST PUSH1 0x0 SLOAD PUSH2 0x100 SWAP1 DIV PUSH1 0xFF AND PUSH2 0x25B3 JUMPI PUSH1 0x40 MLOAD PUSH3 0x461BCD PUSH1 0xE5 SHL DUP2 MSTORE PUSH1 0x20 PUSH1 0x4 DUP3 ADD MSTORE PUSH1 0x2B PUSH1 0x24 DUP3 ADD MSTORE PUSH32 0x496E697469616C697A61626C653A20636F6E7472616374206973206E6F742069 PUSH1 0x44 DUP3 ADD MSTORE PUSH11 0x6E697469616C697A696E67 PUSH1 0xA8 SHL PUSH1 0x64 DUP3 ADD MSTORE PUSH1 0x84 ADD PUSH2 0xBB6 JUMP JUMPDEST PUSH2 0x25BC DUP3 PUSH2 0x1E2D JUMP JUMPDEST PUSH2 0x811 DUP2 PUSH2 0xF8D JUMP JUMPDEST PUSH1 0x0 DUP1 DUP1 DUP4 PUSH3 0x264965 DUP2 ADD DUP3 PUSH3 0x23AB1 PUSH1 0x4 DUP4 MUL SDIV SWAP1 POP PUSH1 0x4 PUSH1 0x3 PUSH3 0x23AB1 DUP4 MUL ADD SDIV SWAP1 SWAP2 SUB SWAP1 PUSH1 0x0 PUSH3 0x164B09 PUSH2 0xFA0 PUSH1 0x1 DUP6 ADD MUL SDIV SWAP1 POP PUSH1 0x4 PUSH2 0x5B5 DUP3 MUL SDIV DUP4 SUB PUSH1 0x1F ADD SWAP3 POP PUSH1 0x0 PUSH2 0x98F DUP5 PUSH1 0x50 MUL DUP2 PUSH2 0x2622 JUMPI PUSH2 0x2622 PUSH2 0x5024 JUMP JUMPDEST SDIV SWAP1 POP PUSH1 0x0 PUSH1 0x50 PUSH2 0x98F DUP4 MUL SDIV DUP6 SUB SWAP1 POP PUSH1 0xB DUP3 SDIV PUSH32 0xFFFFFFFFFFFFFFFFFFFFFFFFFFFFFFFFFFFFFFFFFFFFFFFFFFFFFFFFFFFFFFCF SWAP5 SWAP1 SWAP5 ADD PUSH1 0x64 MUL SWAP3 SWAP1 SWAP3 ADD DUP4 ADD SWAP10 PUSH1 0x2 PUSH1 0xC SWAP1 SWAP5 MUL SWAP1 SWAP2 SUB SWAP3 SWAP1 SWAP3 ADD SWAP8 POP SWAP6 POP SWAP4 POP POP POP POP JUMP JUMPDEST PUSH1 0x0 DUP2 PUSH1 0x1 EQ DUP1 PUSH2 0x2690 JUMPI POP DUP2 PUSH1 0x3 EQ JUMPDEST DUP1 PUSH2 0x269B JUMPI POP DUP2 PUSH1 0x5 EQ JUMPDEST DUP1 PUSH2 0x26A6 JUMPI POP DUP2 PUSH1 0x7 EQ JUMPDEST DUP1 PUSH2 0x26B1 JUMPI POP DUP2 PUSH1 0x8 EQ JUMPDEST DUP1 PUSH2 0x26BC JUMPI POP DUP2 PUSH1 0xA EQ JUMPDEST DUP1 PUSH2 0x26C7 JUMPI POP DUP2 PUSH1 0xC EQ JUMPDEST ISZERO PUSH2 0x26D4 JUMPI POP PUSH1 0x1F PUSH2 0xDB2 JUMP JUMPDEST DUP2 PUSH1 0x2 EQ PUSH2 0x26E4 JUMPI POP PUSH1 0x1E PUSH2 0xDB2 JUMP JUMPDEST PUSH2 0x26ED DUP4 PUSH2 0x35EC JUMP JUMPDEST PUSH2 0x26F8 JUMPI PUSH1 0x1C PUSH2 0x26FB JUMP JUMPDEST PUSH1 0x1D JUMPDEST PUSH1 0xFF AND SWAP4 SWAP3 POP POP POP JUMP JUMPDEST PUSH1 0x0 DUP2 DUP2 MSTORE PUSH1 0x1 DUP4 ADD PUSH1 0x20 MSTORE PUSH1 0x40 DUP2 KECCAK256 SLOAD DUP1 ISZERO PUSH2 0x27EE JUMPI PUSH1 0x0 PUSH2 0x2729 PUSH1 0x1 DUP4 PUSH2 0x507A JUMP JUMPDEST DUP6 SLOAD SWAP1 SWAP2 POP PUSH1 0x0 SWAP1 PUSH2 0x273D SWAP1 PUSH1 0x1 SWAP1 PUSH2 0x507A JUMP JUMPDEST SWAP1 POP DUP2 DUP2 EQ PUSH2 0x27A2 JUMPI PUSH1 0x0 DUP7 PUSH1 0x0 ADD DUP3 DUP2 SLOAD DUP2 LT PUSH2 0x275D JUMPI PUSH2 0x275D PUSH2 0x4CD7 JUMP JUMPDEST SWAP1 PUSH1 0x0 MSTORE PUSH1 0x20 PUSH1 0x0 KECCAK256 ADD SLOAD SWAP1 POP DUP1 DUP8 PUSH1 0x0 ADD DUP5 DUP2 SLOAD DUP2 LT PUSH2 0x2780 JUMPI PUSH2 0x2780 PUSH2 0x4CD7 JUMP JUMPDEST PUSH1 0x0 SWAP2 DUP3 MSTORE PUSH1 0x20 DUP1 DUP4 KECCAK256 SWAP1 SWAP2 ADD SWAP3 SWAP1 SWAP3 SSTORE SWAP2 DUP3 MSTORE PUSH1 0x1 DUP9 ADD SWAP1 MSTORE PUSH1 0x40 SWAP1 KECCAK256 DUP4 SWAP1 SSTORE JUMPDEST DUP6 SLOAD DUP7 SWAP1 DUP1 PUSH2 0x27B3 JUMPI PUSH2 0x27B3 PUSH2 0x508D JUMP JUMPDEST PUSH1 0x1 SWAP1 SUB DUP2 DUP2 SWAP1 PUSH1 0x0 MSTORE PUSH1 0x20 PUSH1 0x0 KECCAK256 ADD PUSH1 0x0 SWAP1 SSTORE SWAP1 SSTORE DUP6 PUSH1 0x1 ADD PUSH1 0x0 DUP7 DUP2 MSTORE PUSH1 0x20 ADD SWAP1 DUP2 MSTORE PUSH1 0x20 ADD PUSH1 0x0 KECCAK256 PUSH1 0x0 SWAP1 SSTORE PUSH1 0x1 SWAP4 POP POP POP POP PUSH2 0xDB2 JUMP JUMPDEST PUSH1 0x0 SWAP2 POP POP PUSH2 0xDB2 JUMP JUMPDEST POP SWAP3 SWAP2 POP POP JUMP JUMPDEST PUSH1 0x0 DUP2 DUP2 MSTORE PUSH1 0x1 DUP4 ADD PUSH1 0x20 MSTORE PUSH1 0x40 DUP2 KECCAK256 SLOAD PUSH2 0x2846 JUMPI POP DUP2 SLOAD PUSH1 0x1 DUP2 DUP2 ADD DUP5 SSTORE PUSH1 0x0 DUP5 DUP2 MSTORE PUSH1 0x20 DUP1 DUP3 KECCAK256 SWAP1 SWAP4 ADD DUP5 SWAP1 SSTORE DUP5 SLOAD DUP5 DUP3 MSTORE DUP3 DUP7 ADD SWAP1 SWAP4 MSTORE PUSH1 0x40 SWAP1 KECCAK256 SWAP2 SWAP1 SWAP2 SSTORE PUSH2 0xDB2 JUMP JUMPDEST POP PUSH1 0x0 PUSH2 0xDB2 JUMP JUMPDEST PUSH2 0x6C2 DUP3 DUP3 PUSH2 0x3628 JUMP JUMPDEST PUSH1 0x4 SLOAD PUSH1 0xFF AND ISZERO PUSH2 0x6C2 JUMPI PUSH1 0x40 MLOAD PUSH32 0xC0F2312800000000000000000000000000000000000000000000000000000000 DUP2 MSTORE PUSH1 0x4 ADD PUSH1 0x40 MLOAD DUP1 SWAP2 SUB SWAP1 REVERT JUMPDEST GAS PUSH1 0x5 SSTORE PUSH1 0x40 DUP1 MLOAD PUSH1 0x80 DUP2 ADD DUP3 MSTORE PUSH1 0x6 SLOAD DUP1 DUP3 MSTORE PUSH1 0x7 SLOAD PUSH1 0x20 DUP4 ADD MSTORE PUSH1 0x8 SLOAD SWAP3 DUP3 ADD SWAP3 SWAP1 SWAP3 MSTORE PUSH1 0x9 SLOAD PUSH1 0x60 DUP3 ADD MSTORE SWAP1 PUSH1 0x0 SWAP1 ISZERO DUP1 PUSH2 0x28D4 JUMPI POP DUP2 MLOAD GASPRICE GT ISZERO JUMPDEST SWAP1 POP DUP1 PUSH2 0x2919 JUMPI DUP2 MLOAD PUSH1 0x40 MLOAD PUSH32 0xCBB35EB700000000000000000000000000000000000000000000000000000000 DUP2 MSTORE GASPRICE PUSH1 0x4 DUP3 ADD MSTORE PUSH1 0x24 DUP2 ADD SWAP2 SWAP1 SWAP2 MSTORE PUSH1 0x44 ADD PUSH2 0xBB6 JUMP JUMPDEST PUSH1 0x0 PUSH2 0x2925 BASEFEE GASPRICE PUSH2 0x507A JUMP JUMPDEST SWAP1 POP PUSH1 0x0 DUP4 PUSH1 0x20 ADD MLOAD PUSH1 0x0 EQ DUP1 PUSH2 0x2940 JUMPI POP DUP4 PUSH1 0x20 ADD MLOAD DUP3 GT ISZERO JUMPDEST SWAP1 POP DUP1 PUSH2 0x2253 JUMPI PUSH1 0x20 DUP5 ADD MLOAD PUSH1 0x40 MLOAD PUSH32 0x56E5387F00000000000000000000000000000000000000000000000000000000 DUP2 MSTORE PUSH2 0xBB6 SWAP2 DUP5 SWAP2 PUSH1 0x4 ADD SWAP2 DUP3 MSTORE PUSH1 0x20 DUP3 ADD MSTORE PUSH1 0x40 ADD SWAP1 JUMP JUMPDEST PUSH1 0xA SLOAD PUSH1 0xB SLOAD PUSH1 0xC SLOAD PUSH1 0xE SLOAD PUSH1 0xFF SWAP1 SWAP4 AND SWAP3 TIMESTAMP DUP3 GT ISZERO PUSH2 0x29DE JUMPI PUSH1 0x40 MLOAD PUSH32 0x13CE60B00000000000000000000000000000000000000000000000000000000 DUP2 MSTORE TIMESTAMP PUSH1 0x4 DUP3 ADD MSTORE PUSH1 0x24 DUP2 ADD DUP4 SWAP1 MSTORE PUSH1 0x44 ADD PUSH2 0xBB6 JUMP JUMPDEST PUSH1 0x0 DUP5 PUSH1 0x2 DUP2 GT ISZERO PUSH2 0x29F2 JUMPI PUSH2 0x29F2 PUSH2 0x47DC JUMP JUMPDEST SUB PUSH2 0x2AC4 JUMPI DUP3 PUSH1 0x0 SUB PUSH2 0x2A07 JUMPI POP POP POP POP POP POP JUMP JUMPDEST DUP1 PUSH1 0x0 SUB PUSH2 0x2A21 JUMPI PUSH2 0x2A19 DUP4 TIMESTAMP PUSH2 0x5067 JUMP JUMPDEST PUSH1 0xD SSTORE PUSH2 0x2253 JUMP JUMPDEST PUSH1 0x0 PUSH2 0x2A2D DUP4 TIMESTAMP PUSH2 0x507A JUMP JUMPDEST SWAP1 POP PUSH1 0x0 PUSH2 0x2A3B DUP6 DUP4 PUSH2 0x5053 JUMP JUMPDEST SWAP1 POP PUSH1 0x0 PUSH2 0x2A49 DUP7 DUP4 PUSH2 0x4F08 JUMP JUMPDEST PUSH2 0x2A53 SWAP1 DUP5 PUSH2 0x507A JUMP JUMPDEST SWAP1 POP DUP4 DUP2 GT ISZERO PUSH2 0x2A98 JUMPI PUSH1 0x40 MLOAD PUSH32 0x13CE60B00000000000000000000000000000000000000000000000000000000 DUP2 MSTORE TIMESTAMP PUSH1 0x4 DUP3 ADD MSTORE PUSH1 0x24 DUP2 ADD DUP7 SWAP1 MSTORE PUSH1 0x44 ADD PUSH2 0xBB6 JUMP JUMPDEST DUP6 PUSH2 0x2AA4 DUP4 PUSH1 0x1 PUSH2 0x5067 JUMP JUMPDEST PUSH2 0x2AAE SWAP2 SWAP1 PUSH2 0x4F08 JUMP JUMPDEST PUSH2 0x2AB8 SWAP1 DUP7 PUSH2 0x5067 JUMP JUMPDEST PUSH1 0xD SSTORE POP PUSH2 0x2253 SWAP2 POP POP JUMP JUMPDEST DUP2 TIMESTAMP LT ISZERO DUP1 ISZERO PUSH2 0x2ADD JUMPI POP PUSH2 0x2AD9 DUP2 DUP4 PUSH2 0x5067 JUMP JUMPDEST TIMESTAMP GT ISZERO JUMPDEST ISZERO PUSH2 0x2AEC JUMPI PUSH2 0x2A19 DUP3 DUP5 PUSH2 0x3694 JUMP JUMPDEST PUSH1 0x0 PUSH1 0x1 DUP6 PUSH1 0x2 DUP2 GT ISZERO PUSH2 0x2B02 JUMPI PUSH2 0x2B02 PUSH2 0x47DC JUMP JUMPDEST EQ PUSH2 0x2B15 JUMPI PUSH2 0x2B10 TIMESTAMP PUSH2 0x2041 JUMP JUMPDEST PUSH2 0x2B1E JUMP JUMPDEST PUSH2 0x2B1E DUP4 PUSH2 0x202A JUMP JUMPDEST SWAP1 POP PUSH1 0x0 PUSH2 0x2B2C DUP5 DUP4 PUSH2 0x372C JUMP JUMPDEST SWAP1 POP DUP1 TIMESTAMP LT ISZERO PUSH2 0x2B71 JUMPI PUSH1 0x40 MLOAD PUSH32 0x13CE60B00000000000000000000000000000000000000000000000000000000 DUP2 MSTORE TIMESTAMP PUSH1 0x4 DUP3 ADD MSTORE PUSH1 0x24 DUP2 ADD DUP3 SWAP1 MSTORE PUSH1 0x44 ADD PUSH2 0xBB6 JUMP JUMPDEST PUSH1 0x0 PUSH2 0x2B7D DUP5 DUP4 PUSH2 0x5067 JUMP JUMPDEST SWAP1 POP TIMESTAMP DUP2 LT DUP1 ISZERO PUSH2 0x2BC3 JUMPI PUSH1 0x40 MLOAD PUSH32 0x13CE60B00000000000000000000000000000000000000000000000000000000 DUP2 MSTORE TIMESTAMP PUSH1 0x4 DUP3 ADD MSTORE PUSH1 0x24 DUP2 ADD DUP4 SWAP1 MSTORE PUSH1 0x44 ADD PUSH2 0xBB6 JUMP JUMPDEST PUSH2 0x2BCD DUP4 DUP9 PUSH2 0x3694 JUMP JUMPDEST PUSH1 0xD SSTORE POP POP POP POP POP POP POP POP POP POP JUMP JUMPDEST PUSH2 0x2BE5 DUP3 PUSH2 0xEF4 JUMP JUMPDEST PUSH2 0x6C2 JUMPI PUSH1 0x40 MLOAD PUSH32 0x7A24104500000000000000000000000000000000000000000000000000000000 DUP2 MSTORE PUSH1 0x1 PUSH1 0x1 PUSH1 0xA0 SHL SUB DUP4 AND PUSH1 0x4 DUP3 ADD MSTORE PUSH1 0x24 ADD PUSH2 0xBB6 JUMP JUMPDEST PUSH1 0x0 PUSH2 0x2C31 DUP4 PUSH2 0x1A4B JUMP JUMPDEST DUP1 MLOAD SWAP1 SWAP2 POP PUSH1 0x1 PUSH1 0x1 PUSH1 0xA0 SHL SUB AND PUSH2 0x2C48 JUMPI POP POP POP JUMP JUMPDEST PUSH1 0x0 DUP4 PUSH1 0x1 PUSH1 0x1 PUSH1 0xA0 SHL SUB AND DUP3 PUSH1 0x0 ADD MLOAD PUSH1 0x1 PUSH1 0x1 PUSH1 0xA0 SHL SUB AND EQ PUSH2 0x2C84 JUMPI PUSH2 0x2C7F PUSH2 0x2C78 DUP6 DUP5 PUSH1 0x0 ADD MLOAD PUSH2 0x3164 JUMP JUMPDEST DUP5 SWAP1 PUSH2 0x3170 JUMP JUMPDEST PUSH2 0x2C86 JUMP JUMPDEST DUP3 JUMPDEST SWAP1 POP PUSH1 0x0 DUP3 PUSH1 0x20 ADD MLOAD DUP3 LT ISZERO DUP1 ISZERO PUSH2 0x2CAE JUMPI POP PUSH1 0x40 DUP4 ADD MLOAD ISZERO DUP1 PUSH2 0x2CAE JUMPI POP DUP3 PUSH1 0x40 ADD MLOAD DUP3 GT ISZERO JUMPDEST SWAP1 POP DUP1 PUSH2 0x710 JUMPI DUP3 MLOAD PUSH1 0x20 DUP5 ADD MLOAD PUSH1 0x40 DUP1 DUP7 ADD MLOAD SWAP1 MLOAD PUSH32 0x7C63A4B000000000000000000000000000000000000000000000000000000000 DUP2 MSTORE PUSH1 0x1 PUSH1 0x1 PUSH1 0xA0 SHL SUB SWAP1 SWAP4 AND PUSH1 0x4 DUP5 ADD MSTORE PUSH1 0x24 DUP4 ADD DUP6 SWAP1 MSTORE PUSH1 0x44 DUP4 ADD SWAP2 SWAP1 SWAP2 MSTORE PUSH1 0x64 DUP3 ADD MSTORE PUSH1 0x84 ADD PUSH2 0xBB6 JUMP JUMPDEST PUSH1 0x0 PUSH2 0x2D1E DUP4 PUSH2 0x1DF9 JUMP JUMPDEST PUSH1 0x40 DUP1 MLOAD PUSH1 0xA0 DUP2 ADD DUP3 MSTORE DUP3 SLOAD PUSH1 0x1 PUSH1 0x1 PUSH1 0xA0 SHL SUB AND DUP1 DUP3 MSTORE PUSH1 0x1 DUP5 ADD SLOAD PUSH1 0x20 DUP4 ADD MSTORE PUSH1 0x2 DUP5 ADD SLOAD SWAP3 DUP3 ADD SWAP3 SWAP1 SWAP3 MSTORE PUSH1 0x3 DUP4 ADD SLOAD PUSH1 0x60 DUP3 ADD MSTORE PUSH1 0x4 SWAP1 SWAP3 ADD SLOAD PUSH1 0x80 DUP4 ADD MSTORE SWAP1 SWAP2 POP PUSH2 0x2D6D JUMPI POP POP POP JUMP JUMPDEST PUSH1 0x0 DUP4 PUSH1 0x1 PUSH1 0x1 PUSH1 0xA0 SHL SUB AND DUP3 PUSH1 0x0 ADD MLOAD PUSH1 0x1 PUSH1 0x1 PUSH1 0xA0 SHL SUB AND EQ PUSH2 0x2DA2 JUMPI PUSH2 0x2D9D PUSH2 0x2C78 DUP6 DUP5 PUSH1 0x0 ADD MLOAD PUSH2 0x3164 JUMP JUMPDEST PUSH2 0x2DA4 JUMP JUMPDEST DUP3 JUMPDEST SWAP1 POP PUSH1 0x0 DUP3 PUSH1 0x80 ADD MLOAD TIMESTAMP LT PUSH2 0x2DBA JUMPI PUSH1 0x0 PUSH2 0x2DC0 JUMP JUMPDEST DUP3 PUSH1 0x40 ADD MLOAD JUMPDEST PUSH2 0x2DCA SWAP1 DUP4 PUSH2 0x5067 JUMP JUMPDEST SWAP1 POP DUP3 PUSH1 0x20 ADD MLOAD DUP2 GT ISZERO PUSH2 0x710 JUMPI DUP3 MLOAD PUSH1 0x20 DUP5 ADD MLOAD PUSH1 0x40 MLOAD PUSH32 0xB8858D5D00000000000000000000000000000000000000000000000000000000 DUP2 MSTORE PUSH1 0x1 PUSH1 0x1 PUSH1 0xA0 SHL SUB SWAP1 SWAP3 AND PUSH1 0x4 DUP4 ADD MSTORE PUSH1 0x24 DUP3 ADD MSTORE PUSH1 0x44 DUP2 ADD DUP3 SWAP1 MSTORE PUSH1 0x64 ADD PUSH2 0xBB6 JUMP JUMPDEST PUSH1 0x0 PUSH2 0x2E34 DUP4 PUSH2 0x1DF9 JUMP JUMPDEST DUP1 SLOAD SWAP1 SWAP2 POP PUSH1 0x1 PUSH1 0x1 PUSH1 0xA0 SHL SUB AND PUSH2 0x2E4B JUMPI POP POP POP JUMP JUMPDEST DUP1 SLOAD PUSH1 0x0 SWAP1 PUSH1 0x1 PUSH1 0x1 PUSH1 0xA0 SHL SUB DUP6 DUP2 AND SWAP2 AND EQ PUSH2 0x2E81 JUMPI DUP2 SLOAD PUSH2 0x2E7C SWAP1 PUSH2 0x2C78 SWAP1 DUP7 SWAP1 PUSH1 0x1 PUSH1 0x1 PUSH1 0xA0 SHL SUB AND PUSH2 0x3164 JUMP JUMPDEST PUSH2 0x2E83 JUMP JUMPDEST DUP3 JUMPDEST SWAP1 POP DUP2 PUSH1 0x4 ADD SLOAD TIMESTAMP LT PUSH2 0x2EAC JUMPI PUSH1 0x0 PUSH1 0x2 DUP4 ADD SSTORE PUSH1 0x3 DUP3 ADD SLOAD PUSH2 0x2EA6 SWAP1 TIMESTAMP PUSH2 0x5067 JUMP JUMPDEST PUSH1 0x4 DUP4 ADD SSTORE JUMPDEST DUP1 DUP3 PUSH1 0x2 ADD PUSH1 0x0 DUP3 DUP3 SLOAD PUSH2 0x2EC0 SWAP2 SWAP1 PUSH2 0x5067 JUMP JUMPDEST SWAP1 SWAP2 SSTORE POP POP POP POP POP POP JUMP JUMPDEST PUSH1 0xD SLOAD PUSH1 0x0 SUB PUSH2 0x2ED9 JUMPI POP POP JUMP JUMPDEST PUSH2 0x2EE4 PUSH1 0xD SLOAD PUSH2 0x3754 JUMP JUMPDEST POP POP PUSH1 0x0 PUSH1 0xD SSTORE JUMP JUMPDEST PUSH1 0x5 SLOAD PUSH1 0x0 SUB PUSH2 0x2F29 JUMPI PUSH1 0x40 MLOAD PUSH32 0x1F5B8FC600000000000000000000000000000000000000000000000000000000 DUP2 MSTORE PUSH1 0x4 ADD PUSH1 0x40 MLOAD DUP1 SWAP2 SUB SWAP1 REVERT JUMPDEST PUSH1 0x40 DUP1 MLOAD PUSH1 0x80 DUP2 ADD DUP3 MSTORE PUSH1 0x6 SLOAD DUP2 MSTORE PUSH1 0x7 SLOAD PUSH1 0x20 DUP3 ADD MSTORE PUSH1 0x8 SLOAD SWAP2 DUP2 ADD SWAP2 SWAP1 SWAP2 MSTORE PUSH1 0x9 SLOAD PUSH1 0x60 DUP3 ADD MSTORE PUSH1 0x0 GAS PUSH1 0x5 SLOAD PUSH2 0x2F62 SWAP2 SWAP1 PUSH2 0x507A JUMP JUMPDEST SWAP1 POP PUSH1 0x0 PUSH2 0x2F70 GASPRICE DUP4 PUSH2 0x4F08 JUMP JUMPDEST SWAP1 POP PUSH1 0x0 DUP4 PUSH1 0x40 ADD MLOAD PUSH1 0x0 EQ DUP1 PUSH2 0x2F8B JUMPI POP DUP4 PUSH1 0x40 ADD MLOAD DUP3 GT ISZERO JUMPDEST SWAP1 POP DUP1 PUSH2 0x2FD5 JUMPI DUP2 DUP5 PUSH1 0x40 ADD MLOAD PUSH1 0x40 MLOAD PUSH32 0xAF258EF200000000000000000000000000000000000000000000000000000000 DUP2 MSTORE PUSH1 0x4 ADD PUSH2 0xBB6 SWAP3 SWAP2 SWAP1 SWAP2 DUP3 MSTORE PUSH1 0x20 DUP3 ADD MSTORE PUSH1 0x40 ADD SWAP1 JUMP JUMPDEST PUSH1 0x0 PUSH1 0x5 SSTORE PUSH1 0x60 DUP5 ADD MLOAD ISZERO DUP1 ISZERO SWAP1 PUSH2 0x2FED JUMPI POP PUSH1 0x0 DUP6 GT JUMPDEST ISZERO PUSH2 0x2253 JUMPI PUSH1 0x0 PUSH2 0x30C0 ADDRESS PUSH1 0x1 PUSH1 0x1 PUSH1 0xA0 SHL SUB AND PUSH4 0x4FD49EFD PUSH1 0x40 MLOAD DUP2 PUSH4 0xFFFFFFFF AND PUSH1 0xE0 SHL DUP2 MSTORE PUSH1 0x4 ADD PUSH1 0x20 PUSH1 0x40 MLOAD DUP1 DUP4 SUB DUP2 DUP7 GAS STATICCALL ISZERO DUP1 ISZERO PUSH2 0x3035 JUMPI RETURNDATASIZE PUSH1 0x0 DUP1 RETURNDATACOPY RETURNDATASIZE PUSH1 0x0 REVERT JUMPDEST POP POP POP POP PUSH1 0x40 MLOAD RETURNDATASIZE PUSH1 0x1F NOT PUSH1 0x1F DUP3 ADD AND DUP3 ADD DUP1 PUSH1 0x40 MSTORE POP DUP2 ADD SWAP1 PUSH2 0x3059 SWAP2 SWAP1 PUSH2 0x50BC JUMP JUMPDEST PUSH1 0x1 PUSH1 0x1 PUSH1 0xA0 SHL SUB AND PUSH4 0x17FCB39B PUSH1 0x40 MLOAD DUP2 PUSH4 0xFFFFFFFF AND PUSH1 0xE0 SHL DUP2 MSTORE PUSH1 0x4 ADD PUSH1 0x20 PUSH1 0x40 MLOAD DUP1 DUP4 SUB DUP2 DUP7 GAS STATICCALL ISZERO DUP1 ISZERO PUSH2 0x3096 JUMPI RETURNDATASIZE PUSH1 0x0 DUP1 RETURNDATACOPY RETURNDATASIZE PUSH1 0x0 REVERT JUMPDEST POP POP POP POP PUSH1 0x40 MLOAD RETURNDATASIZE PUSH1 0x1F NOT PUSH1 0x1F DUP3 ADD AND DUP3 ADD DUP1 PUSH1 0x40 MSTORE POP DUP2 ADD SWAP1 PUSH2 0x30BA SWAP2 SWAP1 PUSH2 0x50BC JUMP JUMPDEST DUP9 PUSH2 0x3164 JUMP JUMPDEST SWAP1 POP PUSH1 0x0 PUSH2 0x30CE DUP5 DUP4 PUSH2 0x3789 JUMP JUMPDEST SWAP1 POP PUSH1 0x0 PUSH2 0x30DC DUP3 DUP10 PUSH2 0x3832 JUMP JUMPDEST SWAP1 POP DUP7 PUSH1 0x60 ADD MLOAD DUP2 GT ISZERO PUSH2 0x312C JUMPI PUSH1 0x60 DUP8 ADD MLOAD PUSH1 0x40 MLOAD PUSH32 0x297747F00000000000000000000000000000000000000000000000000000000 DUP2 MSTORE PUSH2 0xBB6 SWAP2 DUP4 SWAP2 PUSH1 0x4 ADD SWAP2 DUP3 MSTORE PUSH1 0x20 DUP3 ADD MSTORE PUSH1 0x40 ADD SWAP1 JUMP JUMPDEST POP POP POP POP POP POP POP POP POP JUMP JUMPDEST PUSH1 0x40 MLOAD PUSH32 0x68F46C45A243A0E9065A97649FAF9A5AFE1692F2679E650C2F853B9CD734CC0E SWAP1 PUSH1 0x0 SWAP1 LOG1 POP POP JUMP JUMPDEST PUSH1 0x0 PUSH2 0xF2B DUP4 DUP4 PUSH2 0x38FB JUMP JUMPDEST PUSH1 0x0 DUP3 DUP3 MUL DUP4 ISZERO DUP1 ISZERO SWAP1 PUSH2 0x3193 JUMPI POP DUP3 DUP5 DUP3 DUP2 PUSH2 0x318F JUMPI PUSH2 0x318F PUSH2 0x5024 JUMP JUMPDEST DIV EQ ISZERO JUMPDEST ISZERO PUSH2 0x31D4 JUMPI PUSH1 0x40 MLOAD PUSH32 0xE8E4A4FA00000000000000000000000000000000000000000000000000000000 DUP2 MSTORE PUSH1 0x4 DUP2 ADD DUP6 SWAP1 MSTORE PUSH1 0x24 DUP2 ADD DUP5 SWAP1 MSTORE PUSH1 0x44 ADD PUSH2 0xBB6 JUMP JUMPDEST PUSH8 0xDE0B6B3A7640000 SWAP1 DIV SWAP4 SWAP3 POP POP POP JUMP JUMPDEST PUSH1 0x0 SLOAD PUSH2 0x100 SWAP1 DIV PUSH1 0xFF AND PUSH2 0x3251 JUMPI PUSH1 0x40 MLOAD PUSH3 0x461BCD PUSH1 0xE5 SHL DUP2 MSTORE PUSH1 0x20 PUSH1 0x4 DUP3 ADD MSTORE PUSH1 0x2B PUSH1 0x24 DUP3 ADD MSTORE PUSH32 0x496E697469616C697A61626C653A20636F6E7472616374206973206E6F742069 PUSH1 0x44 DUP3 ADD MSTORE PUSH11 0x6E697469616C697A696E67 PUSH1 0xA8 SHL PUSH1 0x64 DUP3 ADD MSTORE PUSH1 0x84 ADD PUSH2 0xBB6 JUMP JUMPDEST PUSH2 0x32BF DUP2 PUSH1 0x0 ADD MLOAD PUSH1 0x1 PUSH1 0x1 PUSH1 0xA0 SHL SUB AND PUSH4 0xD09EDF31 PUSH1 0x40 MLOAD DUP2 PUSH4 0xFFFFFFFF AND PUSH1 0xE0 SHL DUP2 MSTORE PUSH1 0x4 ADD PUSH1 0x20 PUSH1 0x40 MLOAD DUP1 DUP4 SUB DUP2 DUP7 GAS STATICCALL ISZERO DUP1 ISZERO PUSH2 0x3296 JUMPI RETURNDATASIZE PUSH1 0x0 DUP1 RETURNDATACOPY RETURNDATASIZE PUSH1 0x0 REVERT JUMPDEST POP POP POP POP PUSH1 0x40 MLOAD RETURNDATASIZE PUSH1 0x1F NOT PUSH1 0x1F DUP3 ADD AND DUP3 ADD DUP1 PUSH1 0x40 MSTORE POP DUP2 ADD SWAP1 PUSH2 0x32BA SWAP2 SWAP1 PUSH2 0x50BC JUMP JUMPDEST PUSH2 0x3B09 JUMP JUMPDEST PUSH2 0x2545 DUP2 PUSH2 0x3B7D JUMP JUMPDEST PUSH1 0x0 SLOAD PUSH2 0x100 SWAP1 DIV PUSH1 0xFF AND PUSH2 0x3333 JUMPI PUSH1 0x40 MLOAD PUSH3 0x461BCD PUSH1 0xE5 SHL DUP2 MSTORE PUSH1 0x20 PUSH1 0x4 DUP3 ADD MSTORE PUSH1 0x2B PUSH1 0x24 DUP3 ADD MSTORE PUSH32 0x496E697469616C697A61626C653A20636F6E7472616374206973206E6F742069 PUSH1 0x44 DUP3 ADD MSTORE PUSH11 0x6E697469616C697A696E67 PUSH1 0xA8 SHL PUSH1 0x64 DUP3 ADD MSTORE PUSH1 0x84 ADD PUSH2 0xBB6 JUMP JUMPDEST PUSH2 0x333B PUSH2 0x3C35 JUMP JUMPDEST JUMP JUMPDEST PUSH1 0x0 SLOAD PUSH2 0x100 SWAP1 DIV PUSH1 0xFF AND PUSH2 0x33A8 JUMPI PUSH1 0x40 MLOAD PUSH3 0x461BCD PUSH1 0xE5 SHL DUP2 MSTORE PUSH1 0x20 PUSH1 0x4 DUP3 ADD MSTORE PUSH1 0x2B PUSH1 0x24 DUP3 ADD MSTORE PUSH32 0x496E697469616C697A61626C653A20636F6E7472616374206973206E6F742069 PUSH1 0x44 DUP3 ADD MSTORE PUSH11 0x6E697469616C697A696E67 PUSH1 0xA8 SHL PUSH1 0x64 DUP3 ADD MSTORE PUSH1 0x84 ADD PUSH2 0xBB6 JUMP JUMPDEST PUSH2 0x2545 DUP2 PUSH2 0x3CA0 JUMP JUMPDEST PUSH1 0x0 SLOAD PUSH2 0x100 SWAP1 DIV PUSH1 0xFF AND PUSH2 0x341C JUMPI PUSH1 0x40 MLOAD PUSH3 0x461BCD PUSH1 0xE5 SHL DUP2 MSTORE PUSH1 0x20 PUSH1 0x4 DUP3 ADD MSTORE PUSH1 0x2B PUSH1 0x24 DUP3 ADD MSTORE PUSH32 0x496E697469616C697A61626C653A20636F6E7472616374206973206E6F742069 PUSH1 0x44 DUP3 ADD MSTORE PUSH11 0x6E697469616C697A696E67 PUSH1 0xA8 SHL PUSH1 0x64 DUP3 ADD MSTORE PUSH1 0x84 ADD PUSH2 0xBB6 JUMP JUMPDEST PUSH2 0x2545 DUP2 PUSH2 0x3D27 JUMP JUMPDEST PUSH1 0x0 SLOAD PUSH2 0x100 SWAP1 DIV PUSH1 0xFF AND PUSH2 0x3490 JUMPI PUSH1 0x40 MLOAD PUSH3 0x461BCD PUSH1 0xE5 SHL DUP2 MSTORE PUSH1 0x20 PUSH1 0x4 DUP3 ADD MSTORE PUSH1 0x2B PUSH1 0x24 DUP3 ADD MSTORE PUSH32 0x496E697469616C697A61626C653A20636F6E7472616374206973206E6F742069 PUSH1 0x44 DUP3 ADD MSTORE PUSH11 0x6E697469616C697A696E67 PUSH1 0xA8 SHL PUSH1 0x64 DUP3 ADD MSTORE PUSH1 0x84 ADD PUSH2 0xBB6 JUMP JUMPDEST PUSH2 0x2545 DUP2 PUSH2 0x3DAE JUMP JUMPDEST PUSH1 0x0 SLOAD PUSH2 0x100 SWAP1 DIV PUSH1 0xFF AND PUSH2 0x3504 JUMPI PUSH1 0x40 MLOAD PUSH3 0x461BCD PUSH1 0xE5 SHL DUP2 MSTORE PUSH1 0x20 PUSH1 0x4 DUP3 ADD MSTORE PUSH1 0x2B PUSH1 0x24 DUP3 ADD MSTORE PUSH32 0x496E697469616C697A61626C653A20636F6E7472616374206973206E6F742069 PUSH1 0x44 DUP3 ADD MSTORE PUSH11 0x6E697469616C697A696E67 PUSH1 0xA8 SHL PUSH1 0x64 DUP3 ADD MSTORE PUSH1 0x84 ADD PUSH2 0xBB6 JUMP JUMPDEST PUSH2 0x2545 DUP2 PUSH2 0x3E6E JUMP JUMPDEST PUSH1 0x0 SLOAD PUSH2 0x100 SWAP1 DIV PUSH1 0xFF AND PUSH2 0x3578 JUMPI PUSH1 0x40 MLOAD PUSH3 0x461BCD PUSH1 0xE5 SHL DUP2 MSTORE PUSH1 0x20 PUSH1 0x4 DUP3 ADD MSTORE PUSH1 0x2B PUSH1 0x24 DUP3 ADD MSTORE PUSH32 0x496E697469616C697A61626C653A20636F6E7472616374206973206E6F742069 PUSH1 0x44 DUP3 ADD MSTORE PUSH11 0x6E697469616C697A696E67 PUSH1 0xA8 SHL PUSH1 0x64 DUP3 ADD MSTORE PUSH1 0x84 ADD PUSH2 0xBB6 JUMP JUMPDEST PUSH2 0x2545 DUP2 PUSH2 0x3F5E JUMP JUMPDEST PUSH1 0x0 SLOAD PUSH2 0x100 SWAP1 DIV PUSH1 0xFF AND PUSH2 0x2545 JUMPI PUSH1 0x40 MLOAD PUSH3 0x461BCD PUSH1 0xE5 SHL DUP2 MSTORE PUSH1 0x20 PUSH1 0x4 DUP3 ADD MSTORE PUSH1 0x2B PUSH1 0x24 DUP3 ADD MSTORE PUSH32 0x496E697469616C697A61626C653A20636F6E7472616374206973206E6F742069 PUSH1 0x44 DUP3 ADD MSTORE PUSH11 0x6E697469616C697A696E67 PUSH1 0xA8 SHL PUSH1 0x64 DUP3 ADD MSTORE PUSH1 0x84 ADD PUSH2 0xBB6 JUMP JUMPDEST PUSH1 0x0 PUSH2 0x35F9 PUSH1 0x4 DUP4 PUSH2 0x50D9 JUMP JUMPDEST ISZERO DUP1 ISZERO PUSH2 0x360F JUMPI POP PUSH2 0x360C PUSH1 0x64 DUP4 PUSH2 0x50D9 JUMP JUMPDEST ISZERO ISZERO JUMPDEST DUP1 PUSH2 0xDB2 JUMPI POP PUSH2 0x3621 PUSH2 0x190 DUP4 PUSH2 0x50D9 JUMP JUMPDEST ISZERO SWAP3 SWAP2 POP POP JUMP JUMPDEST PUSH1 0x2 SLOAD ISZERO PUSH2 0x6C2 JUMPI PUSH1 0x1 SLOAD PUSH1 0x2 SLOAD PUSH1 0x40 MLOAD PUSH32 0xEB056BBB00000000000000000000000000000000000000000000000000000000 DUP2 MSTORE PUSH1 0x4 DUP2 ADD SWAP2 SWAP1 SWAP2 MSTORE PUSH1 0x1 PUSH1 0x1 PUSH1 0xA0 SHL SUB DUP5 DUP2 AND PUSH1 0x24 DUP4 ADD MSTORE PUSH1 0x44 DUP3 ADD DUP5 SWAP1 MSTORE PUSH1 0x0 PUSH1 0x64 DUP4 ADD MSTORE SWAP1 SWAP2 AND SWAP1 PUSH4 0xEB056BBB SWAP1 PUSH1 0x84 ADD PUSH2 0x2225 JUMP JUMPDEST PUSH1 0x0 DUP1 PUSH1 0x0 DUP1 PUSH2 0x36A3 DUP7 PUSH2 0x404E JUMP JUMPDEST SWAP2 SWAP5 POP SWAP3 POP SWAP1 POP PUSH1 0x0 PUSH2 0x36B6 DUP7 DUP5 PUSH2 0x5067 JUMP JUMPDEST SWAP1 POP PUSH1 0x0 PUSH2 0x36C5 PUSH1 0xC DUP4 PUSH2 0x50D9 JUMP JUMPDEST SWAP1 POP PUSH1 0x0 PUSH2 0x36D4 PUSH1 0xC DUP5 PUSH2 0x5053 JUMP JUMPDEST PUSH2 0x36DE SWAP1 DUP8 PUSH2 0x5067 JUMP JUMPDEST SWAP1 POP PUSH1 0x0 PUSH1 0x2 PUSH1 0xA SLOAD PUSH1 0xFF AND PUSH1 0x2 DUP2 GT ISZERO PUSH2 0x36FB JUMPI PUSH2 0x36FB PUSH2 0x47DC JUMP JUMPDEST EQ PUSH2 0x3706 JUMPI DUP5 PUSH2 0x3710 JUMP JUMPDEST PUSH2 0x3710 DUP3 DUP5 PUSH2 0x267F JUMP JUMPDEST SWAP1 POP PUSH2 0x371E DUP11 DUP4 DUP6 DUP5 PUSH2 0x406D JUMP JUMPDEST SWAP11 SWAP10 POP POP POP POP POP POP POP POP POP POP JUMP JUMPDEST PUSH1 0x0 DUP1 PUSH1 0x0 PUSH2 0x373A TIMESTAMP PUSH2 0x404E JUMP JUMPDEST POP SWAP2 POP SWAP2 POP PUSH2 0x374B DUP6 DUP4 DUP4 DUP8 PUSH2 0x406D JUMP JUMPDEST SWAP6 SWAP5 POP POP POP POP POP JUMP JUMPDEST PUSH1 0xC DUP2 SWAP1 SSTORE PUSH1 0x40 MLOAD DUP2 DUP2 MSTORE PUSH32 0xF90744BEE56935EC5ACC9DE37B89C0C545298C667EE417BD9469E9C6836AD064 SWAP1 PUSH1 0x20 ADD PUSH2 0x1736 JUMP JUMPDEST PUSH1 0x0 DUP3 DUP3 MUL DUP4 ISZERO DUP1 ISZERO SWAP1 PUSH2 0x37AC JUMPI POP DUP3 DUP5 DUP3 DUP2 PUSH2 0x37A8 JUMPI PUSH2 0x37A8 PUSH2 0x5024 JUMP JUMPDEST DIV EQ ISZERO JUMPDEST ISZERO PUSH2 0x37ED JUMPI PUSH1 0x40 MLOAD PUSH32 0xE8E4A4FA00000000000000000000000000000000000000000000000000000000 DUP2 MSTORE PUSH1 0x4 DUP2 ADD DUP6 SWAP1 MSTORE PUSH1 0x24 DUP2 ADD DUP5 SWAP1 MSTORE PUSH1 0x44 ADD PUSH2 0xBB6 JUMP JUMPDEST DUP1 ISZERO PUSH2 0x3828 JUMPI PUSH8 0xDE0B6B3A7640000 PUSH32 0xFFFFFFFFFFFFFFFFFFFFFFFFFFFFFFFFFFFFFFFFFFFFFFFFFFFFFFFFFFFFFFFF DUP3 ADD DIV PUSH1 0x1 ADD PUSH2 0x2022 JUMP JUMPDEST PUSH1 0x0 SWAP5 SWAP4 POP POP POP POP JUMP JUMPDEST PUSH1 0x0 DUP2 PUSH1 0x0 SUB PUSH2 0x386E JUMPI PUSH1 0x40 MLOAD PUSH32 0xB8A2F92100000000000000000000000000000000000000000000000000000000 DUP2 MSTORE PUSH1 0x4 ADD PUSH1 0x40 MLOAD DUP1 SWAP2 SUB SWAP1 REVERT JUMPDEST DUP3 PUSH1 0x0 SUB PUSH2 0x387E JUMPI POP PUSH1 0x0 PUSH2 0xDB2 JUMP JUMPDEST PUSH8 0xDE0B6B3A7640000 DUP4 DUP2 MUL SWAP1 DUP5 DUP3 DUP2 PUSH2 0x389A JUMPI PUSH2 0x389A PUSH2 0x5024 JUMP JUMPDEST DIV EQ PUSH2 0x38DC JUMPI PUSH1 0x40 MLOAD PUSH32 0xEA7B49E600000000000000000000000000000000000000000000000000000000 DUP2 MSTORE PUSH1 0x4 DUP2 ADD DUP6 SWAP1 MSTORE PUSH1 0x24 DUP2 ADD DUP3 SWAP1 MSTORE PUSH1 0x44 ADD PUSH2 0xBB6 JUMP JUMPDEST DUP3 PUSH1 0x1 DUP3 SUB DUP2 PUSH2 0x38EE JUMPI PUSH2 0x38EE PUSH2 0x5024 JUMP JUMPDEST DIV PUSH1 0x1 ADD SWAP2 POP POP SWAP3 SWAP2 POP POP JUMP JUMPDEST PUSH1 0x0 DUP1 PUSH1 0x1 PUSH1 0x0 SWAP1 SLOAD SWAP1 PUSH2 0x100 EXP SWAP1 DIV PUSH1 0x1 PUSH1 0x1 PUSH1 0xA0 SHL SUB AND PUSH1 0x1 PUSH1 0x1 PUSH1 0xA0 SHL SUB AND PUSH4 0x2630C12F PUSH1 0x40 MLOAD DUP2 PUSH4 0xFFFFFFFF AND PUSH1 0xE0 SHL DUP2 MSTORE PUSH1 0x4 ADD PUSH1 0x20 PUSH1 0x40 MLOAD DUP1 DUP4 SUB DUP2 DUP7 GAS STATICCALL ISZERO DUP1 ISZERO PUSH2 0x3951 JUMPI RETURNDATASIZE PUSH1 0x0 DUP1 RETURNDATACOPY RETURNDATASIZE PUSH1 0x0 REVERT JUMPDEST POP POP POP POP PUSH1 0x40 MLOAD RETURNDATASIZE PUSH1 0x1F NOT PUSH1 0x1F DUP3 ADD AND DUP3 ADD DUP1 PUSH1 0x40 MSTORE POP DUP2 ADD SWAP1 PUSH2 0x3975 SWAP2 SWAP1 PUSH2 0x50BC JUMP JUMPDEST SWAP1 POP PUSH1 0x1 PUSH1 0x1 PUSH1 0xA0 SHL SUB DUP2 AND PUSH2 0x39C6 JUMPI PUSH1 0x1 SLOAD PUSH1 0x40 MLOAD PUSH32 0x38D2BAAE00000000000000000000000000000000000000000000000000000000 DUP2 MSTORE PUSH1 0x1 PUSH1 0x1 PUSH1 0xA0 SHL SUB SWAP1 SWAP2 AND PUSH1 0x4 DUP3 ADD MSTORE PUSH1 0x24 ADD PUSH2 0xBB6 JUMP JUMPDEST PUSH1 0x0 PUSH2 0x39D0 PUSH2 0x4095 JUMP JUMPDEST SWAP1 POP DUP1 MLOAD PUSH1 0x0 EQ PUSH2 0x3A61 JUMPI DUP2 PUSH1 0x1 PUSH1 0x1 PUSH1 0xA0 SHL SUB AND PUSH4 0x355EFDD9 PUSH2 0x39F3 DUP8 PUSH2 0x4115 JUMP JUMPDEST PUSH2 0x39FC DUP8 PUSH2 0x4115 JUMP JUMPDEST DUP5 PUSH1 0x40 MLOAD DUP5 PUSH4 0xFFFFFFFF AND PUSH1 0xE0 SHL DUP2 MSTORE PUSH1 0x4 ADD PUSH2 0x3A1B SWAP4 SWAP3 SWAP2 SWAP1 PUSH2 0x50ED JUMP JUMPDEST PUSH1 0x20 PUSH1 0x40 MLOAD DUP1 DUP4 SUB DUP2 DUP7 GAS STATICCALL ISZERO DUP1 ISZERO PUSH2 0x3A38 JUMPI RETURNDATASIZE PUSH1 0x0 DUP1 RETURNDATACOPY RETURNDATASIZE PUSH1 0x0 REVERT JUMPDEST POP POP POP POP PUSH1 0x40 MLOAD RETURNDATASIZE PUSH1 0x1F NOT PUSH1 0x1F DUP3 ADD AND DUP3 ADD DUP1 PUSH1 0x40 MSTORE POP DUP2 ADD SWAP1 PUSH2 0x3A5C SWAP2 SWAP1 PUSH2 0x4F90 JUMP JUMPDEST PUSH2 0x374B JUMP JUMPDEST DUP2 PUSH1 0x1 PUSH1 0x1 PUSH1 0xA0 SHL SUB AND PUSH4 0xAC41865A PUSH2 0x3A79 DUP8 PUSH2 0x4115 JUMP JUMPDEST PUSH2 0x3A82 DUP8 PUSH2 0x4115 JUMP JUMPDEST PUSH1 0x40 MLOAD PUSH32 0xFFFFFFFF00000000000000000000000000000000000000000000000000000000 PUSH1 0xE0 DUP6 SWAP1 SHL AND DUP2 MSTORE PUSH1 0x1 PUSH1 0x1 PUSH1 0xA0 SHL SUB SWAP3 DUP4 AND PUSH1 0x4 DUP3 ADD MSTORE SWAP2 AND PUSH1 0x24 DUP3 ADD MSTORE PUSH1 0x44 ADD PUSH1 0x20 PUSH1 0x40 MLOAD DUP1 DUP4 SUB DUP2 DUP7 GAS STATICCALL ISZERO DUP1 ISZERO PUSH2 0x3AE5 JUMPI RETURNDATASIZE PUSH1 0x0 DUP1 RETURNDATACOPY RETURNDATASIZE PUSH1 0x0 REVERT JUMPDEST POP POP POP POP PUSH1 0x40 MLOAD RETURNDATASIZE PUSH1 0x1F NOT PUSH1 0x1F DUP3 ADD AND DUP3 ADD DUP1 PUSH1 0x40 MSTORE POP DUP2 ADD SWAP1 PUSH2 0x374B SWAP2 SWAP1 PUSH2 0x4F90 JUMP JUMPDEST PUSH1 0x0 SLOAD PUSH2 0x100 SWAP1 DIV PUSH1 0xFF AND PUSH2 0x3B74 JUMPI PUSH1 0x40 MLOAD PUSH3 0x461BCD PUSH1 0xE5 SHL DUP2 MSTORE PUSH1 0x20 PUSH1 0x4 DUP3 ADD MSTORE PUSH1 0x2B PUSH1 0x24 DUP3 ADD MSTORE PUSH32 0x496E697469616C697A61626C653A20636F6E7472616374206973206E6F742069 PUSH1 0x44 DUP3 ADD MSTORE PUSH11 0x6E697469616C697A696E67 PUSH1 0xA8 SHL PUSH1 0x64 DUP3 ADD MSTORE PUSH1 0x84 ADD PUSH2 0xBB6 JUMP JUMPDEST PUSH2 0x2545 DUP2 PUSH2 0x4149 JUMP JUMPDEST PUSH1 0x0 SLOAD PUSH2 0x100 SWAP1 DIV PUSH1 0xFF AND PUSH2 0x3BE8 JUMPI PUSH1 0x40 MLOAD PUSH3 0x461BCD PUSH1 0xE5 SHL DUP2 MSTORE PUSH1 0x20 PUSH1 0x4 DUP3 ADD MSTORE PUSH1 0x2B PUSH1 0x24 DUP3 ADD MSTORE PUSH32 0x496E697469616C697A61626C653A20636F6E7472616374206973206E6F742069 PUSH1 0x44 DUP3 ADD MSTORE PUSH11 0x6E697469616C697A696E67 PUSH1 0xA8 SHL PUSH1 0x64 DUP3 ADD MSTORE PUSH1 0x84 ADD PUSH2 0xBB6 JUMP JUMPDEST DUP1 MLOAD PUSH1 0x1 DUP1 SLOAD PUSH32 0xFFFFFFFFFFFFFFFFFFFFFFFF0000000000000000000000000000000000000000 AND PUSH1 0x1 PUSH1 0x1 PUSH1 0xA0 SHL SUB SWAP1 SWAP3 AND SWAP2 SWAP1 SWAP2 OR SWAP1 SSTORE PUSH1 0x20 DUP2 ADD MLOAD PUSH1 0x40 DUP3 ADD MLOAD PUSH2 0x2545 SWAP2 SWAP1 PUSH2 0x1B30 JUMP JUMPDEST PUSH1 0x0 SLOAD PUSH2 0x100 SWAP1 DIV PUSH1 0xFF AND PUSH2 0x333B JUMPI PUSH1 0x40 MLOAD PUSH3 0x461BCD PUSH1 0xE5 SHL DUP2 MSTORE PUSH1 0x20 PUSH1 0x4 DUP3 ADD MSTORE PUSH1 0x2B PUSH1 0x24 DUP3 ADD MSTORE PUSH32 0x496E697469616C697A61626C653A20636F6E7472616374206973206E6F742069 PUSH1 0x44 DUP3 ADD MSTORE PUSH11 0x6E697469616C697A696E67 PUSH1 0xA8 SHL PUSH1 0x64 DUP3 ADD MSTORE PUSH1 0x84 ADD PUSH2 0xBB6 JUMP JUMPDEST PUSH1 0x0 SLOAD PUSH2 0x100 SWAP1 DIV PUSH1 0xFF AND PUSH2 0x3D0B JUMPI PUSH1 0x40 MLOAD PUSH3 0x461BCD PUSH1 0xE5 SHL DUP2 MSTORE PUSH1 0x20 PUSH1 0x4 DUP3 ADD MSTORE PUSH1 0x2B PUSH1 0x24 DUP3 ADD MSTORE PUSH32 0x496E697469616C697A61626C653A20636F6E7472616374206973206E6F742069 PUSH1 0x44 DUP3 ADD MSTORE PUSH11 0x6E697469616C697A696E67 PUSH1 0xA8 SHL PUSH1 0x64 DUP3 ADD MSTORE PUSH1 0x84 ADD PUSH2 0xBB6 JUMP JUMPDEST PUSH2 0x2545 DUP2 PUSH1 0x0 ADD MLOAD DUP3 PUSH1 0x20 ADD MLOAD DUP4 PUSH1 0x40 ADD MLOAD DUP5 PUSH1 0x60 ADD MLOAD PUSH2 0x1ECF JUMP JUMPDEST PUSH1 0x0 SLOAD PUSH2 0x100 SWAP1 DIV PUSH1 0xFF AND PUSH2 0x3D92 JUMPI PUSH1 0x40 MLOAD PUSH3 0x461BCD PUSH1 0xE5 SHL DUP2 MSTORE PUSH1 0x20 PUSH1 0x4 DUP3 ADD MSTORE PUSH1 0x2B PUSH1 0x24 DUP3 ADD MSTORE PUSH32 0x496E697469616C697A61626C653A20636F6E7472616374206973206E6F742069 PUSH1 0x44 DUP3 ADD MSTORE PUSH11 0x6E697469616C697A696E67 PUSH1 0xA8 SHL PUSH1 0x64 DUP3 ADD MSTORE PUSH1 0x84 ADD PUSH2 0xBB6 JUMP JUMPDEST PUSH2 0x2545 DUP2 PUSH1 0x0 ADD MLOAD DUP3 PUSH1 0x20 ADD MLOAD DUP4 PUSH1 0x40 ADD MLOAD DUP5 PUSH1 0x60 ADD MLOAD PUSH2 0x10DA JUMP JUMPDEST PUSH1 0x0 SLOAD PUSH2 0x100 SWAP1 DIV PUSH1 0xFF AND PUSH2 0x3E19 JUMPI PUSH1 0x40 MLOAD PUSH3 0x461BCD PUSH1 0xE5 SHL DUP2 MSTORE PUSH1 0x20 PUSH1 0x4 DUP3 ADD MSTORE PUSH1 0x2B PUSH1 0x24 DUP3 ADD MSTORE PUSH32 0x496E697469616C697A61626C653A20636F6E7472616374206973206E6F742069 PUSH1 0x44 DUP3 ADD MSTORE PUSH11 0x6E697469616C697A696E67 PUSH1 0xA8 SHL PUSH1 0x64 DUP3 ADD MSTORE PUSH1 0x84 ADD PUSH2 0xBB6 JUMP JUMPDEST DUP1 MLOAD PUSH2 0x3E24 SWAP1 PUSH2 0x16C6 JUMP JUMPDEST PUSH1 0x0 JUMPDEST DUP2 PUSH1 0x20 ADD MLOAD MLOAD DUP2 LT ISZERO PUSH2 0x6C2 JUMPI PUSH2 0x3E5C DUP3 PUSH1 0x20 ADD MLOAD DUP3 DUP2 MLOAD DUP2 LT PUSH2 0x3E4D JUMPI PUSH2 0x3E4D PUSH2 0x4CD7 JUMP JUMPDEST PUSH1 0x20 MUL PUSH1 0x20 ADD ADD MLOAD PUSH1 0x1 PUSH2 0x14B3 JUMP JUMPDEST DUP1 PUSH2 0x3E66 DUP2 PUSH2 0x4D35 JUMP JUMPDEST SWAP2 POP POP PUSH2 0x3E27 JUMP JUMPDEST PUSH1 0x0 SLOAD PUSH2 0x100 SWAP1 DIV PUSH1 0xFF AND PUSH2 0x3ED9 JUMPI PUSH1 0x40 MLOAD PUSH3 0x461BCD PUSH1 0xE5 SHL DUP2 MSTORE PUSH1 0x20 PUSH1 0x4 DUP3 ADD MSTORE PUSH1 0x2B PUSH1 0x24 DUP3 ADD MSTORE PUSH32 0x496E697469616C697A61626C653A20636F6E7472616374206973206E6F742069 PUSH1 0x44 DUP3 ADD MSTORE PUSH11 0x6E697469616C697A696E67 PUSH1 0xA8 SHL PUSH1 0x64 DUP3 ADD MSTORE PUSH1 0x84 ADD PUSH2 0xBB6 JUMP JUMPDEST DUP1 MLOAD DUP1 MLOAD PUSH1 0x20 DUP3 ADD MLOAD PUSH1 0x40 DUP4 ADD MLOAD PUSH2 0x3EF2 SWAP3 SWAP2 SWAP1 PUSH2 0x1D9D JUMP JUMPDEST PUSH1 0x0 JUMPDEST DUP3 PUSH1 0x20 ADD MLOAD MLOAD DUP2 LT ISZERO PUSH2 0x811 JUMPI PUSH1 0x0 DUP4 PUSH1 0x20 ADD MLOAD DUP3 DUP2 MLOAD DUP2 LT PUSH2 0x3F1A JUMPI PUSH2 0x3F1A PUSH2 0x4CD7 JUMP JUMPDEST PUSH1 0x20 MUL PUSH1 0x20 ADD ADD MLOAD SWAP1 POP PUSH1 0x0 DUP2 PUSH1 0x20 ADD MLOAD SWAP1 POP PUSH2 0x3F49 DUP3 PUSH1 0x0 ADD MLOAD DUP3 PUSH1 0x0 ADD MLOAD DUP4 PUSH1 0x20 ADD MLOAD DUP5 PUSH1 0x40 ADD MLOAD PUSH2 0x15C6 JUMP JUMPDEST POP POP DUP1 DUP1 PUSH2 0x3F56 SWAP1 PUSH2 0x4D35 JUMP JUMPDEST SWAP2 POP POP PUSH2 0x3EF5 JUMP JUMPDEST PUSH1 0x0 SLOAD PUSH2 0x100 SWAP1 DIV PUSH1 0xFF AND PUSH2 0x3FC9 JUMPI PUSH1 0x40 MLOAD PUSH3 0x461BCD PUSH1 0xE5 SHL DUP2 MSTORE PUSH1 0x20 PUSH1 0x4 DUP3 ADD MSTORE PUSH1 0x2B PUSH1 0x24 DUP3 ADD MSTORE PUSH32 0x496E697469616C697A61626C653A20636F6E7472616374206973206E6F742069 PUSH1 0x44 DUP3 ADD MSTORE PUSH11 0x6E697469616C697A696E67 PUSH1 0xA8 SHL PUSH1 0x64 DUP3 ADD MSTORE PUSH1 0x84 ADD PUSH2 0xBB6 JUMP JUMPDEST DUP1 MLOAD DUP1 MLOAD PUSH1 0x20 DUP3 ADD MLOAD PUSH1 0x40 DUP4 ADD MLOAD PUSH2 0x3FE2 SWAP3 SWAP2 SWAP1 PUSH2 0x1C86 JUMP JUMPDEST PUSH1 0x0 JUMPDEST DUP3 PUSH1 0x20 ADD MLOAD MLOAD DUP2 LT ISZERO PUSH2 0x811 JUMPI PUSH1 0x0 DUP4 PUSH1 0x20 ADD MLOAD DUP3 DUP2 MLOAD DUP2 LT PUSH2 0x400A JUMPI PUSH2 0x400A PUSH2 0x4CD7 JUMP JUMPDEST PUSH1 0x20 MUL PUSH1 0x20 ADD ADD MLOAD SWAP1 POP PUSH1 0x0 DUP2 PUSH1 0x20 ADD MLOAD SWAP1 POP PUSH2 0x4039 DUP3 PUSH1 0x0 ADD MLOAD DUP3 PUSH1 0x0 ADD MLOAD DUP4 PUSH1 0x20 ADD MLOAD DUP5 PUSH1 0x40 ADD MLOAD PUSH2 0x198B JUMP JUMPDEST POP POP DUP1 DUP1 PUSH2 0x4046 SWAP1 PUSH2 0x4D35 JUMP JUMPDEST SWAP2 POP POP PUSH2 0x3FE5 JUMP JUMPDEST PUSH1 0x0 DUP1 DUP1 PUSH2 0x4060 PUSH3 0x15180 DUP6 DIV PUSH2 0x25C5 JUMP JUMPDEST SWAP2 SWAP7 SWAP1 SWAP6 POP SWAP1 SWAP4 POP SWAP2 POP POP JUMP JUMPDEST PUSH1 0x0 PUSH2 0x374B DUP5 DUP5 DUP5 PUSH2 0x407E DUP10 PUSH2 0x41F4 JUMP JUMPDEST PUSH2 0x4087 DUP11 PUSH2 0x4212 JUMP JUMPDEST PUSH2 0x4090 DUP12 PUSH2 0x422E JUMP JUMPDEST PUSH2 0x423B JUMP JUMPDEST PUSH1 0x60 PUSH1 0x0 PUSH2 0x40A1 PUSH2 0x4297 JUMP JUMPDEST SWAP1 POP CALLDATASIZE DUP2 GT ISZERO PUSH2 0x40BF JUMPI POP POP PUSH1 0x40 DUP1 MLOAD PUSH1 0x0 DUP2 MSTORE PUSH1 0x20 DUP2 ADD SWAP1 SWAP2 MSTORE SWAP1 JUMP JUMPDEST DUP1 PUSH8 0xFFFFFFFFFFFFFFFF DUP2 GT ISZERO PUSH2 0x40D8 JUMPI PUSH2 0x40D8 PUSH2 0x4507 JUMP JUMPDEST PUSH1 0x40 MLOAD SWAP1 DUP1 DUP3 MSTORE DUP1 PUSH1 0x1F ADD PUSH1 0x1F NOT AND PUSH1 0x20 ADD DUP3 ADD PUSH1 0x40 MSTORE DUP1 ISZERO PUSH2 0x4102 JUMPI PUSH1 0x20 DUP3 ADD DUP2 DUP1 CALLDATASIZE DUP4 CALLDATACOPY ADD SWAP1 POP JUMPDEST POP SWAP2 POP DUP1 PUSH1 0x20 DUP3 CALLDATASIZE SUB SUB PUSH1 0x20 DUP5 ADD CALLDATACOPY POP SWAP1 JUMP JUMPDEST PUSH1 0x0 PUSH20 0xEEEEEEEEEEEEEEEEEEEEEEEEEEEEEEEEEEEEEEEE PUSH1 0x1 PUSH1 0x1 PUSH1 0xA0 SHL SUB DUP4 AND EQ PUSH2 0x4141 JUMPI DUP2 PUSH2 0xDB2 JUMP JUMPDEST PUSH2 0xDB2 PUSH2 0x42B2 JUMP JUMPDEST PUSH1 0x0 SLOAD PUSH2 0x100 SWAP1 DIV PUSH1 0xFF AND PUSH2 0x41B4 JUMPI PUSH1 0x40 MLOAD PUSH3 0x461BCD PUSH1 0xE5 SHL DUP2 MSTORE PUSH1 0x20 PUSH1 0x4 DUP3 ADD MSTORE PUSH1 0x2B PUSH1 0x24 DUP3 ADD MSTORE PUSH32 0x496E697469616C697A61626C653A20636F6E7472616374206973206E6F742069 PUSH1 0x44 DUP3 ADD MSTORE PUSH11 0x6E697469616C697A696E67 PUSH1 0xA8 SHL PUSH1 0x64 DUP3 ADD MSTORE PUSH1 0x84 ADD PUSH2 0xBB6 JUMP JUMPDEST PUSH1 0x0 DUP1 SLOAD PUSH1 0x1 PUSH1 0x1 PUSH1 0xA0 SHL SUB SWAP1 SWAP3 AND PUSH3 0x10000 MUL PUSH32 0xFFFFFFFFFFFFFFFFFFFF0000000000000000000000000000000000000000FFFF SWAP1 SWAP3 AND SWAP2 SWAP1 SWAP2 OR SWAP1 SSTORE JUMP JUMPDEST PUSH1 0x0 DUP1 PUSH2 0x4204 PUSH3 0x15180 DUP5 PUSH2 0x50D9 JUMP JUMPDEST SWAP1 POP PUSH2 0xF2B PUSH2 0xE10 DUP3 PUSH2 0x5053 JUMP JUMPDEST PUSH1 0x0 DUP1 PUSH2 0x4221 PUSH2 0xE10 DUP5 PUSH2 0x50D9 JUMP JUMPDEST SWAP1 POP PUSH2 0xF2B PUSH1 0x3C DUP3 PUSH2 0x5053 JUMP JUMPDEST PUSH1 0x0 PUSH2 0xDB2 PUSH1 0x3C DUP4 PUSH2 0x50D9 JUMP JUMPDEST PUSH1 0x0 DUP2 PUSH2 0x4249 PUSH1 0x3C DUP6 PUSH2 0x4F08 JUMP JUMPDEST PUSH2 0x4255 PUSH2 0xE10 DUP8 PUSH2 0x4F08 JUMP JUMPDEST PUSH3 0x15180 PUSH2 0x4264 DUP12 DUP12 DUP12 PUSH2 0x433E JUMP JUMPDEST PUSH2 0x426E SWAP2 SWAP1 PUSH2 0x4F08 JUMP JUMPDEST PUSH2 0x4278 SWAP2 SWAP1 PUSH2 0x5067 JUMP JUMPDEST PUSH2 0x4282 SWAP2 SWAP1 PUSH2 0x5067 JUMP JUMPDEST PUSH2 0x428C SWAP2 SWAP1 PUSH2 0x5067 JUMP JUMPDEST SWAP8 SWAP7 POP POP POP POP POP POP POP JUMP JUMPDEST PUSH1 0x0 PUSH1 0x24 CALLDATASIZE LT ISZERO PUSH2 0x42A8 JUMPI POP PUSH1 0x0 SWAP1 JUMP JUMPDEST POP PUSH1 0x1F NOT CALLDATASIZE ADD CALLDATALOAD SWAP1 JUMP JUMPDEST PUSH1 0x1 SLOAD PUSH1 0x40 DUP1 MLOAD PUSH32 0x17FCB39B00000000000000000000000000000000000000000000000000000000 DUP2 MSTORE SWAP1 MLOAD PUSH1 0x0 SWAP3 PUSH1 0x1 PUSH1 0x1 PUSH1 0xA0 SHL SUB AND SWAP2 PUSH4 0x17FCB39B SWAP2 PUSH1 0x4 DUP1 DUP4 ADD SWAP3 PUSH1 0x20 SWAP3 SWAP2 SWAP1 DUP3 SWAP1 SUB ADD DUP2 DUP7 GAS STATICCALL ISZERO DUP1 ISZERO PUSH2 0x4315 JUMPI RETURNDATASIZE PUSH1 0x0 DUP1 RETURNDATACOPY RETURNDATASIZE PUSH1 0x0 REVERT JUMPDEST POP POP POP POP PUSH1 0x40 MLOAD RETURNDATASIZE PUSH1 0x1F NOT PUSH1 0x1F DUP3 ADD AND DUP3 ADD DUP1 PUSH1 0x40 MSTORE POP DUP2 ADD SWAP1 PUSH2 0x4339 SWAP2 SWAP1 PUSH2 0x50BC JUMP JUMPDEST SWAP1 POP SWAP1 JUMP JUMPDEST PUSH1 0x0 PUSH2 0x7B2 DUP5 LT ISZERO PUSH2 0x434F JUMPI PUSH1 0x0 DUP1 REVERT JUMPDEST DUP4 DUP4 DUP4 PUSH1 0x0 PUSH3 0x253D8C PUSH1 0x4 PUSH1 0x64 PUSH1 0xC PUSH2 0x4369 PUSH1 0xE DUP9 PUSH2 0x5119 JUMP JUMPDEST PUSH2 0x4373 SWAP2 SWAP1 PUSH2 0x5139 JUMP JUMPDEST PUSH2 0x437F DUP9 PUSH2 0x1324 PUSH2 0x51A1 JUMP JUMPDEST PUSH2 0x4389 SWAP2 SWAP1 PUSH2 0x51A1 JUMP JUMPDEST PUSH2 0x4393 SWAP2 SWAP1 PUSH2 0x5139 JUMP JUMPDEST PUSH2 0x439E SWAP1 PUSH1 0x3 PUSH2 0x51C9 JUMP JUMPDEST PUSH2 0x43A8 SWAP2 SWAP1 PUSH2 0x5139 JUMP JUMPDEST PUSH1 0xC DUP1 PUSH2 0x43B6 PUSH1 0xE DUP9 PUSH2 0x5119 JUMP JUMPDEST PUSH2 0x43C0 SWAP2 SWAP1 PUSH2 0x5139 JUMP JUMPDEST PUSH2 0x43CB SWAP1 PUSH1 0xC PUSH2 0x51C9 JUMP JUMPDEST PUSH2 0x43D6 PUSH1 0x2 DUP9 PUSH2 0x5119 JUMP JUMPDEST PUSH2 0x43E0 SWAP2 SWAP1 PUSH2 0x5119 JUMP JUMPDEST PUSH2 0x43EC SWAP1 PUSH2 0x16F PUSH2 0x51C9 JUMP JUMPDEST PUSH2 0x43F6 SWAP2 SWAP1 PUSH2 0x5139 JUMP JUMPDEST PUSH1 0x4 PUSH1 0xC PUSH2 0x4405 PUSH1 0xE DUP10 PUSH2 0x5119 JUMP JUMPDEST PUSH2 0x440F SWAP2 SWAP1 PUSH2 0x5139 JUMP JUMPDEST PUSH2 0x441B DUP10 PUSH2 0x12C0 PUSH2 0x51A1 JUMP JUMPDEST PUSH2 0x4425 SWAP2 SWAP1 PUSH2 0x51A1 JUMP JUMPDEST PUSH2 0x4431 SWAP1 PUSH2 0x5B5 PUSH2 0x51C9 JUMP JUMPDEST PUSH2 0x443B SWAP2 SWAP1 PUSH2 0x5139 JUMP JUMPDEST PUSH2 0x4447 PUSH2 0x7D4B DUP8 PUSH2 0x5119 JUMP JUMPDEST PUSH2 0x4451 SWAP2 SWAP1 PUSH2 0x51A1 JUMP JUMPDEST PUSH2 0x445B SWAP2 SWAP1 PUSH2 0x51A1 JUMP JUMPDEST PUSH2 0x4465 SWAP2 SWAP1 PUSH2 0x5119 JUMP JUMPDEST PUSH2 0x446F SWAP2 SWAP1 PUSH2 0x5119 JUMP JUMPDEST SWAP9 SWAP8 POP POP POP POP POP POP POP POP JUMP JUMPDEST PUSH1 0x1 PUSH1 0x1 PUSH1 0xA0 SHL SUB DUP2 AND DUP2 EQ PUSH2 0x2545 JUMPI PUSH1 0x0 DUP1 REVERT JUMPDEST DUP1 CALLDATALOAD PUSH2 0x449B DUP2 PUSH2 0x447B JUMP JUMPDEST SWAP2 SWAP1 POP JUMP JUMPDEST PUSH1 0x0 PUSH1 0x20 DUP3 DUP5 SUB SLT ISZERO PUSH2 0x44B2 JUMPI PUSH1 0x0 DUP1 REVERT JUMPDEST DUP2 CALLDATALOAD PUSH2 0xF2B DUP2 PUSH2 0x447B JUMP JUMPDEST DUP1 CALLDATALOAD PUSH1 0xFF DUP2 AND DUP2 EQ PUSH2 0x449B JUMPI PUSH1 0x0 DUP1 REVERT JUMPDEST PUSH1 0x0 DUP1 PUSH1 0x0 DUP1 PUSH1 0x80 DUP6 DUP8 SUB SLT ISZERO PUSH2 0x44E4 JUMPI PUSH1 0x0 DUP1 REVERT JUMPDEST PUSH2 0x44ED DUP6 PUSH2 0x44BD JUMP JUMPDEST SWAP7 PUSH1 0x20 DUP7 ADD CALLDATALOAD SWAP7 POP PUSH1 0x40 DUP7 ADD CALLDATALOAD SWAP6 PUSH1 0x60 ADD CALLDATALOAD SWAP5 POP SWAP3 POP POP POP JUMP JUMPDEST PUSH32 0x4E487B7100000000000000000000000000000000000000000000000000000000 PUSH1 0x0 MSTORE PUSH1 0x41 PUSH1 0x4 MSTORE PUSH1 0x24 PUSH1 0x0 REVERT JUMPDEST PUSH1 0x40 MLOAD PUSH1 0x80 DUP2 ADD PUSH8 0xFFFFFFFFFFFFFFFF DUP2 GT DUP3 DUP3 LT OR ISZERO PUSH2 0x4559 JUMPI PUSH2 0x4559 PUSH2 0x4507 JUMP JUMPDEST PUSH1 0x40 MSTORE SWAP1 JUMP JUMPDEST PUSH1 0x40 DUP1 MLOAD SWAP1 DUP2 ADD PUSH8 0xFFFFFFFFFFFFFFFF DUP2 GT DUP3 DUP3 LT OR ISZERO PUSH2 0x4559 JUMPI PUSH2 0x4559 PUSH2 0x4507 JUMP JUMPDEST PUSH1 0x40 MLOAD PUSH1 0xC0 DUP2 ADD PUSH8 0xFFFFFFFFFFFFFFFF DUP2 GT DUP3 DUP3 LT OR ISZERO PUSH2 0x4559 JUMPI PUSH2 0x4559 PUSH2 0x4507 JUMP JUMPDEST PUSH1 0x40 MLOAD PUSH1 0x1F DUP3 ADD PUSH1 0x1F NOT AND DUP2 ADD PUSH8 0xFFFFFFFFFFFFFFFF DUP2 GT DUP3 DUP3 LT OR ISZERO PUSH2 0x45CE JUMPI PUSH2 0x45CE PUSH2 0x4507 JUMP JUMPDEST PUSH1 0x40 MSTORE SWAP2 SWAP1 POP JUMP JUMPDEST PUSH1 0x0 PUSH8 0xFFFFFFFFFFFFFFFF DUP3 GT ISZERO PUSH2 0x45F0 JUMPI PUSH2 0x45F0 PUSH2 0x4507 JUMP JUMPDEST POP PUSH1 0x5 SHL PUSH1 0x20 ADD SWAP1 JUMP JUMPDEST PUSH1 0x0 DUP3 PUSH1 0x1F DUP4 ADD SLT PUSH2 0x460B JUMPI PUSH1 0x0 DUP1 REVERT JUMPDEST DUP2 CALLDATALOAD PUSH1 0x20 PUSH2 0x4620 PUSH2 0x461B DUP4 PUSH2 0x45D6 JUMP JUMPDEST PUSH2 0x45A5 JUMP JUMPDEST DUP3 DUP2 MSTORE PUSH1 0x5 SWAP3 SWAP1 SWAP3 SHL DUP5 ADD DUP2 ADD SWAP2 DUP2 DUP2 ADD SWAP1 DUP7 DUP5 GT ISZERO PUSH2 0x463F JUMPI PUSH1 0x0 DUP1 REVERT JUMPDEST DUP3 DUP7 ADD JUMPDEST DUP5 DUP2 LT ISZERO PUSH2 0x4663 JUMPI DUP1 CALLDATALOAD PUSH2 0x4656 DUP2 PUSH2 0x447B JUMP JUMPDEST DUP4 MSTORE SWAP2 DUP4 ADD SWAP2 DUP4 ADD PUSH2 0x4643 JUMP JUMPDEST POP SWAP7 SWAP6 POP POP POP POP POP POP JUMP JUMPDEST DUP1 ISZERO ISZERO DUP2 EQ PUSH2 0x2545 JUMPI PUSH1 0x0 DUP1 REVERT JUMPDEST PUSH1 0x0 DUP1 PUSH1 0x40 DUP4 DUP6 SUB SLT ISZERO PUSH2 0x468F JUMPI PUSH1 0x0 DUP1 REVERT JUMPDEST DUP3 CALLDATALOAD PUSH8 0xFFFFFFFFFFFFFFFF DUP1 DUP3 GT ISZERO PUSH2 0x46A7 JUMPI PUSH1 0x0 DUP1 REVERT JUMPDEST PUSH2 0x46B3 DUP7 DUP4 DUP8 ADD PUSH2 0x45FA JUMP JUMPDEST SWAP4 POP PUSH1 0x20 SWAP2 POP DUP2 DUP6 ADD CALLDATALOAD DUP2 DUP2 GT ISZERO PUSH2 0x46CA JUMPI PUSH1 0x0 DUP1 REVERT JUMPDEST DUP6 ADD SWAP1 POP PUSH1 0x1F DUP2 ADD DUP7 SGT PUSH2 0x46DD JUMPI PUSH1 0x0 DUP1 REVERT JUMPDEST DUP1 CALLDATALOAD PUSH2 0x46EB PUSH2 0x461B DUP3 PUSH2 0x45D6 JUMP JUMPDEST DUP2 DUP2 MSTORE PUSH1 0x5 SWAP2 SWAP1 SWAP2 SHL DUP3 ADD DUP4 ADD SWAP1 DUP4 DUP2 ADD SWAP1 DUP9 DUP4 GT ISZERO PUSH2 0x470A JUMPI PUSH1 0x0 DUP1 REVERT JUMPDEST SWAP3 DUP5 ADD SWAP3 JUMPDEST DUP3 DUP5 LT ISZERO PUSH2 0x4731 JUMPI DUP4 CALLDATALOAD PUSH2 0x4722 DUP2 PUSH2 0x466E JUMP JUMPDEST DUP3 MSTORE SWAP3 DUP5 ADD SWAP3 SWAP1 DUP5 ADD SWAP1 PUSH2 0x470F JUMP JUMPDEST DUP1 SWAP6 POP POP POP POP POP POP SWAP3 POP SWAP3 SWAP1 POP JUMP JUMPDEST PUSH1 0x0 DUP1 PUSH1 0x0 DUP1 PUSH1 0x80 DUP6 DUP8 SUB SLT ISZERO PUSH2 0x4756 JUMPI PUSH1 0x0 DUP1 REVERT JUMPDEST DUP5 CALLDATALOAD PUSH2 0x4761 DUP2 PUSH2 0x447B JUMP JUMPDEST SWAP4 POP PUSH1 0x20 DUP6 ADD CALLDATALOAD PUSH2 0x4771 DUP2 PUSH2 0x447B JUMP JUMPDEST SWAP4 SWAP7 SWAP4 SWAP6 POP POP POP POP PUSH1 0x40 DUP3 ADD CALLDATALOAD SWAP2 PUSH1 0x60 ADD CALLDATALOAD SWAP1 JUMP JUMPDEST DUP1 CALLDATALOAD PUSH1 0x2 DUP2 LT PUSH2 0x449B JUMPI PUSH1 0x0 DUP1 REVERT JUMPDEST PUSH1 0x0 PUSH1 0x20 DUP3 DUP5 SUB SLT ISZERO PUSH2 0x47A7 JUMPI PUSH1 0x0 DUP1 REVERT JUMPDEST PUSH2 0xF2B DUP3 PUSH2 0x4786 JUMP JUMPDEST PUSH1 0x0 DUP1 PUSH1 0x40 DUP4 DUP6 SUB SLT ISZERO PUSH2 0x47C3 JUMPI PUSH1 0x0 DUP1 REVERT JUMPDEST DUP3 CALLDATALOAD PUSH2 0x47CE DUP2 PUSH2 0x447B JUMP JUMPDEST SWAP5 PUSH1 0x20 SWAP4 SWAP1 SWAP4 ADD CALLDATALOAD SWAP4 POP POP POP JUMP JUMPDEST PUSH32 0x4E487B7100000000000000000000000000000000000000000000000000000000 PUSH1 0x0 MSTORE PUSH1 0x21 PUSH1 0x4 MSTORE PUSH1 0x24 PUSH1 0x0 REVERT JUMPDEST PUSH1 0x20 DUP2 ADD PUSH1 0x2 DUP4 LT PUSH2 0x4846 JUMPI PUSH32 0x4E487B7100000000000000000000000000000000000000000000000000000000 PUSH1 0x0 MSTORE PUSH1 0x21 PUSH1 0x4 MSTORE PUSH1 0x24 PUSH1 0x0 REVERT JUMPDEST SWAP2 SWAP1 MSTORE SWAP1 JUMP JUMPDEST PUSH1 0x0 DUP1 PUSH1 0x40 DUP4 DUP6 SUB SLT ISZERO PUSH2 0x485F JUMPI PUSH1 0x0 DUP1 REVERT JUMPDEST POP POP DUP1 CALLDATALOAD SWAP3 PUSH1 0x20 SWAP1 SWAP2 ADD CALLDATALOAD SWAP2 POP JUMP JUMPDEST PUSH1 0x0 PUSH1 0x60 DUP3 DUP5 SUB SLT ISZERO PUSH2 0x4880 JUMPI PUSH1 0x0 DUP1 REVERT JUMPDEST PUSH1 0x40 MLOAD PUSH1 0x60 DUP2 ADD DUP2 DUP2 LT PUSH8 0xFFFFFFFFFFFFFFFF DUP3 GT OR ISZERO PUSH2 0x48A3 JUMPI PUSH2 0x48A3 PUSH2 0x4507 JUMP JUMPDEST PUSH1 0x40 MSTORE SWAP1 POP DUP1 DUP3 CALLDATALOAD PUSH2 0x48B4 DUP2 PUSH2 0x447B JUMP JUMPDEST DUP1 DUP3 MSTORE POP PUSH1 0x20 DUP4 ADD CALLDATALOAD PUSH1 0x20 DUP3 ADD MSTORE PUSH1 0x40 DUP4 ADD CALLDATALOAD PUSH1 0x40 DUP3 ADD MSTORE POP SWAP3 SWAP2 POP POP JUMP JUMPDEST PUSH1 0x0 PUSH1 0x80 DUP3 DUP5 SUB SLT ISZERO PUSH2 0x48E5 JUMPI PUSH1 0x0 DUP1 REVERT JUMPDEST PUSH2 0x48ED PUSH2 0x4536 JUMP JUMPDEST SWAP1 POP DUP2 CALLDATALOAD DUP2 MSTORE PUSH1 0x20 DUP3 ADD CALLDATALOAD PUSH1 0x20 DUP3 ADD MSTORE PUSH1 0x40 DUP3 ADD CALLDATALOAD PUSH1 0x40 DUP3 ADD MSTORE PUSH1 0x60 DUP3 ADD CALLDATALOAD PUSH1 0x60 DUP3 ADD MSTORE SWAP3 SWAP2 POP POP JUMP JUMPDEST PUSH1 0x0 PUSH1 0x80 DUP3 DUP5 SUB SLT ISZERO PUSH2 0x4929 JUMPI PUSH1 0x0 DUP1 REVERT JUMPDEST PUSH2 0x4931 PUSH2 0x4536 JUMP JUMPDEST SWAP1 POP PUSH2 0x493C DUP3 PUSH2 0x44BD JUMP JUMPDEST DUP2 MSTORE PUSH1 0x20 DUP3 ADD CALLDATALOAD PUSH1 0x20 DUP3 ADD MSTORE PUSH1 0x40 DUP3 ADD CALLDATALOAD PUSH1 0x40 DUP3 ADD MSTORE PUSH1 0x60 DUP3 ADD CALLDATALOAD PUSH1 0x60 DUP3 ADD MSTORE SWAP3 SWAP2 POP POP JUMP JUMPDEST PUSH1 0x0 PUSH1 0x40 DUP3 DUP5 SUB SLT ISZERO PUSH2 0x4974 JUMPI PUSH1 0x0 DUP1 REVERT JUMPDEST PUSH2 0x497C PUSH2 0x455F JUMP JUMPDEST SWAP1 POP PUSH2 0x4987 DUP3 PUSH2 0x4786 JUMP JUMPDEST DUP2 MSTORE PUSH1 0x20 DUP3 ADD CALLDATALOAD PUSH8 0xFFFFFFFFFFFFFFFF DUP2 GT ISZERO PUSH2 0x49A3 JUMPI PUSH1 0x0 DUP1 REVERT JUMPDEST PUSH2 0x49AF DUP5 DUP3 DUP6 ADD PUSH2 0x45FA JUMP JUMPDEST PUSH1 0x20 DUP4 ADD MSTORE POP SWAP3 SWAP2 POP POP JUMP JUMPDEST PUSH1 0x0 PUSH1 0x80 DUP3 DUP5 SUB SLT ISZERO PUSH2 0x49CD JUMPI PUSH1 0x0 DUP1 REVERT JUMPDEST PUSH2 0x49D5 PUSH2 0x455F JUMP JUMPDEST SWAP1 POP DUP2 CALLDATALOAD PUSH2 0x49E2 DUP2 PUSH2 0x447B JUMP JUMPDEST DUP2 MSTORE PUSH2 0x49F1 DUP4 PUSH1 0x20 DUP5 ADD PUSH2 0x486E JUMP JUMPDEST PUSH1 0x20 DUP3 ADD MSTORE SWAP3 SWAP2 POP POP JUMP JUMPDEST PUSH1 0x0 PUSH1 0x80 DUP1 DUP4 DUP6 SUB SLT ISZERO PUSH2 0x4A0F JUMPI PUSH1 0x0 DUP1 REVERT JUMPDEST PUSH2 0x4A17 PUSH2 0x455F JUMP JUMPDEST SWAP2 POP PUSH2 0x4A23 DUP5 DUP5 PUSH2 0x486E JUMP JUMPDEST DUP3 MSTORE PUSH1 0x60 DUP4 ADD CALLDATALOAD PUSH8 0xFFFFFFFFFFFFFFFF DUP2 GT ISZERO PUSH2 0x4A3F JUMPI PUSH1 0x0 DUP1 REVERT JUMPDEST DUP4 ADD PUSH1 0x1F DUP2 ADD DUP6 SGT PUSH2 0x4A50 JUMPI PUSH1 0x0 DUP1 REVERT JUMPDEST DUP1 CALLDATALOAD PUSH1 0x20 PUSH2 0x4A60 PUSH2 0x461B DUP4 PUSH2 0x45D6 JUMP JUMPDEST DUP3 DUP2 MSTORE PUSH1 0x7 SWAP3 SWAP1 SWAP3 SHL DUP4 ADD DUP2 ADD SWAP2 DUP2 DUP2 ADD SWAP1 DUP9 DUP5 GT ISZERO PUSH2 0x4A7F JUMPI PUSH1 0x0 DUP1 REVERT JUMPDEST SWAP4 DUP3 ADD SWAP4 JUMPDEST DUP4 DUP6 LT ISZERO PUSH2 0x4AA5 JUMPI PUSH2 0x4A96 DUP10 DUP7 PUSH2 0x49BB JUMP JUMPDEST DUP3 MSTORE SWAP4 DUP6 ADD SWAP4 SWAP1 DUP3 ADD SWAP1 PUSH2 0x4A84 JUMP JUMPDEST DUP1 DUP4 DUP9 ADD MSTORE POP POP POP POP POP POP SWAP3 SWAP2 POP POP JUMP JUMPDEST PUSH1 0x0 PUSH1 0x80 DUP1 DUP4 DUP6 SUB SLT ISZERO PUSH2 0x4AC9 JUMPI PUSH1 0x0 DUP1 REVERT JUMPDEST PUSH2 0x4AD1 PUSH2 0x455F JUMP JUMPDEST SWAP2 POP PUSH2 0x4ADD DUP5 DUP5 PUSH2 0x486E JUMP JUMPDEST DUP3 MSTORE PUSH1 0x60 DUP4 ADD CALLDATALOAD PUSH8 0xFFFFFFFFFFFFFFFF DUP2 GT ISZERO PUSH2 0x4AF9 JUMPI PUSH1 0x0 DUP1 REVERT JUMPDEST DUP4 ADD PUSH1 0x1F DUP2 ADD DUP6 SGT PUSH2 0x4B0A JUMPI PUSH1 0x0 DUP1 REVERT JUMPDEST DUP1 CALLDATALOAD PUSH1 0x20 PUSH2 0x4B1A PUSH2 0x461B DUP4 PUSH2 0x45D6 JUMP JUMPDEST DUP3 DUP2 MSTORE PUSH1 0x7 SWAP3 SWAP1 SWAP3 SHL DUP4 ADD DUP2 ADD SWAP2 DUP2 DUP2 ADD SWAP1 DUP9 DUP5 GT ISZERO PUSH2 0x4B39 JUMPI PUSH1 0x0 DUP1 REVERT JUMPDEST SWAP4 DUP3 ADD SWAP4 JUMPDEST DUP4 DUP6 LT ISZERO PUSH2 0x4AA5 JUMPI PUSH2 0x4B50 DUP10 DUP7 PUSH2 0x49BB JUMP JUMPDEST DUP3 MSTORE SWAP4 DUP6 ADD SWAP4 SWAP1 DUP3 ADD SWAP1 PUSH2 0x4B3E JUMP JUMPDEST PUSH1 0x0 DUP1 PUSH1 0x0 PUSH1 0x60 DUP5 DUP7 SUB SLT ISZERO PUSH2 0x4B74 JUMPI PUSH1 0x0 DUP1 REVERT JUMPDEST DUP4 CALLDATALOAD PUSH8 0xFFFFFFFFFFFFFFFF DUP1 DUP3 GT ISZERO PUSH2 0x4B8C JUMPI PUSH1 0x0 DUP1 REVERT JUMPDEST SWAP1 DUP6 ADD SWAP1 PUSH2 0x1C0 DUP3 DUP9 SUB SLT ISZERO PUSH2 0x4BA1 JUMPI PUSH1 0x0 DUP1 REVERT JUMPDEST PUSH2 0x4BA9 PUSH2 0x4582 JUMP JUMPDEST PUSH2 0x4BB3 DUP9 DUP5 PUSH2 0x486E JUMP JUMPDEST DUP2 MSTORE PUSH2 0x4BC2 DUP9 PUSH1 0x60 DUP6 ADD PUSH2 0x48D3 JUMP JUMPDEST PUSH1 0x20 DUP3 ADD MSTORE PUSH2 0x4BD4 DUP9 PUSH1 0xE0 DUP6 ADD PUSH2 0x4917 JUMP JUMPDEST PUSH1 0x40 DUP3 ADD MSTORE PUSH2 0x160 DUP4 ADD CALLDATALOAD DUP3 DUP2 GT ISZERO PUSH2 0x4BEC JUMPI PUSH1 0x0 DUP1 REVERT JUMPDEST PUSH2 0x4BF8 DUP10 DUP3 DUP7 ADD PUSH2 0x4962 JUMP JUMPDEST PUSH1 0x60 DUP4 ADD MSTORE POP PUSH2 0x180 DUP4 ADD CALLDATALOAD DUP3 DUP2 GT ISZERO PUSH2 0x4C11 JUMPI PUSH1 0x0 DUP1 REVERT JUMPDEST PUSH2 0x4C1D DUP10 DUP3 DUP7 ADD PUSH2 0x49FC JUMP JUMPDEST PUSH1 0x80 DUP4 ADD MSTORE POP PUSH2 0x1A0 DUP4 ADD CALLDATALOAD DUP3 DUP2 GT ISZERO PUSH2 0x4C36 JUMPI PUSH1 0x0 DUP1 REVERT JUMPDEST PUSH2 0x4C42 DUP10 DUP3 DUP7 ADD PUSH2 0x4AB6 JUMP JUMPDEST PUSH1 0xA0 DUP4 ADD MSTORE POP SWAP5 POP PUSH2 0x4C59 SWAP2 POP POP PUSH1 0x20 DUP6 ADD PUSH2 0x4490 JUMP JUMPDEST SWAP2 POP PUSH2 0x4C67 PUSH1 0x40 DUP6 ADD PUSH2 0x4490 JUMP JUMPDEST SWAP1 POP SWAP3 POP SWAP3 POP SWAP3 JUMP JUMPDEST PUSH1 0x0 DUP1 PUSH1 0x0 PUSH1 0x60 DUP5 DUP7 SUB SLT ISZERO PUSH2 0x4C85 JUMPI PUSH1 0x0 DUP1 REVERT JUMPDEST DUP4 CALLDATALOAD PUSH2 0x4C90 DUP2 PUSH2 0x447B JUMP JUMPDEST SWAP6 PUSH1 0x20 DUP6 ADD CALLDATALOAD SWAP6 POP PUSH1 0x40 SWAP1 SWAP5 ADD CALLDATALOAD SWAP4 SWAP3 POP POP POP JUMP JUMPDEST PUSH1 0x0 DUP1 PUSH1 0x0 DUP1 PUSH1 0x80 DUP6 DUP8 SUB SLT ISZERO PUSH2 0x4CBB JUMPI PUSH1 0x0 DUP1 REVERT JUMPDEST POP POP DUP3 CALLDATALOAD SWAP5 PUSH1 0x20 DUP5 ADD CALLDATALOAD SWAP5 POP PUSH1 0x40 DUP5 ADD CALLDATALOAD SWAP4 PUSH1 0x60 ADD CALLDATALOAD SWAP3 POP SWAP1 POP JUMP JUMPDEST PUSH32 0x4E487B7100000000000000000000000000000000000000000000000000000000 PUSH1 0x0 MSTORE PUSH1 0x32 PUSH1 0x4 MSTORE PUSH1 0x24 PUSH1 0x0 REVERT JUMPDEST PUSH32 0x4E487B7100000000000000000000000000000000000000000000000000000000 PUSH1 0x0 MSTORE PUSH1 0x11 PUSH1 0x4 MSTORE PUSH1 0x24 PUSH1 0x0 REVERT JUMPDEST PUSH1 0x0 PUSH32 0xFFFFFFFFFFFFFFFFFFFFFFFFFFFFFFFFFFFFFFFFFFFFFFFFFFFFFFFFFFFFFFFF DUP3 SUB PUSH2 0x4D66 JUMPI PUSH2 0x4D66 PUSH2 0x4D06 JUMP JUMPDEST POP PUSH1 0x1 ADD SWAP1 JUMP JUMPDEST PUSH1 0x0 JUMPDEST DUP4 DUP2 LT ISZERO PUSH2 0x4D88 JUMPI DUP2 DUP2 ADD MLOAD DUP4 DUP3 ADD MSTORE PUSH1 0x20 ADD PUSH2 0x4D70 JUMP JUMPDEST POP POP PUSH1 0x0 SWAP2 ADD MSTORE JUMP JUMPDEST PUSH1 0x0 DUP2 MLOAD DUP1 DUP5 MSTORE PUSH2 0x4DA9 DUP2 PUSH1 0x20 DUP7 ADD PUSH1 0x20 DUP7 ADD PUSH2 0x4D6D JUMP JUMPDEST PUSH1 0x1F ADD PUSH1 0x1F NOT AND SWAP3 SWAP1 SWAP3 ADD PUSH1 0x20 ADD SWAP3 SWAP2 POP POP JUMP JUMPDEST PUSH1 0x1 PUSH1 0x1 PUSH1 0xA0 SHL SUB DUP5 AND DUP2 MSTORE PUSH1 0x60 PUSH1 0x20 DUP3 ADD MSTORE PUSH1 0x0 PUSH2 0x4DDF PUSH1 0x60 DUP4 ADD DUP6 PUSH2 0x4D91 JUMP JUMPDEST SWAP1 POP DUP3 PUSH1 0x40 DUP4 ADD MSTORE SWAP5 SWAP4 POP POP POP POP JUMP JUMPDEST PUSH1 0x0 PUSH1 0x20 DUP3 DUP5 SUB SLT ISZERO PUSH2 0x4E01 JUMPI PUSH1 0x0 DUP1 REVERT JUMPDEST DUP2 MLOAD PUSH8 0xFFFFFFFFFFFFFFFF DUP1 DUP3 GT ISZERO PUSH2 0x4E19 JUMPI PUSH1 0x0 DUP1 REVERT JUMPDEST DUP2 DUP5 ADD SWAP2 POP DUP5 PUSH1 0x1F DUP4 ADD SLT PUSH2 0x4E2D JUMPI PUSH1 0x0 DUP1 REVERT JUMPDEST DUP2 MLOAD DUP2 DUP2 GT ISZERO PUSH2 0x4E3F JUMPI PUSH2 0x4E3F PUSH2 0x4507 JUMP JUMPDEST PUSH2 0x4E52 PUSH1 0x20 PUSH1 0x1F NOT PUSH1 0x1F DUP5 ADD AND ADD PUSH2 0x45A5 JUMP JUMPDEST SWAP2 POP DUP1 DUP3 MSTORE DUP6 PUSH1 0x20 DUP3 DUP6 ADD ADD GT ISZERO PUSH2 0x4E69 JUMPI PUSH1 0x0 DUP1 REVERT JUMPDEST PUSH2 0x4E7A DUP2 PUSH1 0x20 DUP5 ADD PUSH1 0x20 DUP7 ADD PUSH2 0x4D6D JUMP JUMPDEST POP SWAP5 SWAP4 POP POP POP POP JUMP JUMPDEST PUSH1 0x0 DUP2 MLOAD DUP1 DUP5 MSTORE PUSH1 0x20 DUP1 DUP6 ADD SWAP5 POP DUP1 DUP5 ADD PUSH1 0x0 JUMPDEST DUP4 DUP2 LT ISZERO PUSH2 0x4EB3 JUMPI DUP2 MLOAD DUP8 MSTORE SWAP6 DUP3 ADD SWAP6 SWAP1 DUP3 ADD SWAP1 PUSH1 0x1 ADD PUSH2 0x4E97 JUMP JUMPDEST POP SWAP5 SWAP6 SWAP5 POP POP POP POP POP JUMP JUMPDEST PUSH1 0x1 PUSH1 0x1 PUSH1 0xA0 SHL SUB DUP5 AND DUP2 MSTORE PUSH32 0xFFFFFFFF00000000000000000000000000000000000000000000000000000000 DUP4 AND PUSH1 0x20 DUP3 ADD MSTORE PUSH1 0x60 PUSH1 0x40 DUP3 ADD MSTORE PUSH1 0x0 PUSH2 0x374B PUSH1 0x60 DUP4 ADD DUP5 PUSH2 0x4E83 JUMP JUMPDEST DUP1 DUP3 MUL DUP2 ISZERO DUP3 DUP3 DIV DUP5 EQ OR PUSH2 0xDB2 JUMPI PUSH2 0xDB2 PUSH2 0x4D06 JUMP JUMPDEST PUSH1 0x60 DUP1 DUP3 MSTORE DUP5 MLOAD SWAP1 DUP3 ADD DUP2 SWAP1 MSTORE PUSH1 0x0 SWAP1 PUSH1 0x20 SWAP1 PUSH1 0x80 DUP5 ADD SWAP1 DUP3 DUP9 ADD DUP5 JUMPDEST DUP3 DUP2 LT ISZERO PUSH2 0x4F61 JUMPI DUP2 MLOAD PUSH1 0x1 PUSH1 0x1 PUSH1 0xA0 SHL SUB AND DUP5 MSTORE SWAP3 DUP5 ADD SWAP3 SWAP1 DUP5 ADD SWAP1 PUSH1 0x1 ADD PUSH2 0x4F3C JUMP JUMPDEST POP POP POP DUP4 DUP2 SUB DUP3 DUP6 ADD MSTORE PUSH2 0x4F75 DUP2 DUP8 PUSH2 0x4E83 JUMP JUMPDEST SWAP3 POP POP POP PUSH1 0x1 PUSH1 0x1 PUSH1 0xA0 SHL SUB DUP4 AND PUSH1 0x40 DUP4 ADD MSTORE SWAP5 SWAP4 POP POP POP POP JUMP JUMPDEST PUSH1 0x0 PUSH1 0x20 DUP3 DUP5 SUB SLT ISZERO PUSH2 0x4FA2 JUMPI PUSH1 0x0 DUP1 REVERT JUMPDEST POP MLOAD SWAP2 SWAP1 POP JUMP JUMPDEST PUSH1 0x0 PUSH1 0x1 PUSH1 0x1 PUSH1 0xA0 SHL SUB DUP1 DUP8 AND DUP4 MSTORE DUP1 DUP7 AND PUSH1 0x20 DUP5 ADD MSTORE POP PUSH32 0xFFFFFFFF00000000000000000000000000000000000000000000000000000000 DUP5 AND PUSH1 0x40 DUP4 ADD MSTORE PUSH1 0x80 PUSH1 0x60 DUP4 ADD MSTORE PUSH2 0x4FFD PUSH1 0x80 DUP4 ADD DUP5 PUSH2 0x4E83 JUMP JUMPDEST SWAP7 SWAP6 POP POP POP POP POP POP JUMP JUMPDEST PUSH1 0x0 PUSH1 0x20 DUP3 DUP5 SUB SLT ISZERO PUSH2 0x5019 JUMPI PUSH1 0x0 DUP1 REVERT JUMPDEST DUP2 MLOAD PUSH2 0xF2B DUP2 PUSH2 0x466E JUMP JUMPDEST PUSH32 0x4E487B7100000000000000000000000000000000000000000000000000000000 PUSH1 0x0 MSTORE PUSH1 0x12 PUSH1 0x4 MSTORE PUSH1 0x24 PUSH1 0x0 REVERT JUMPDEST PUSH1 0x0 DUP3 PUSH2 0x5062 JUMPI PUSH2 0x5062 PUSH2 0x5024 JUMP JUMPDEST POP DIV SWAP1 JUMP JUMPDEST DUP1 DUP3 ADD DUP1 DUP3 GT ISZERO PUSH2 0xDB2 JUMPI PUSH2 0xDB2 PUSH2 0x4D06 JUMP JUMPDEST DUP2 DUP2 SUB DUP2 DUP2 GT ISZERO PUSH2 0xDB2 JUMPI PUSH2 0xDB2 PUSH2 0x4D06 JUMP JUMPDEST PUSH32 0x4E487B7100000000000000000000000000000000000000000000000000000000 PUSH1 0x0 MSTORE PUSH1 0x31 PUSH1 0x4 MSTORE PUSH1 0x24 PUSH1 0x0 REVERT JUMPDEST PUSH1 0x0 PUSH1 0x20 DUP3 DUP5 SUB SLT ISZERO PUSH2 0x50CE JUMPI PUSH1 0x0 DUP1 REVERT JUMPDEST DUP2 MLOAD PUSH2 0xF2B DUP2 PUSH2 0x447B JUMP JUMPDEST PUSH1 0x0 DUP3 PUSH2 0x50E8 JUMPI PUSH2 0x50E8 PUSH2 0x5024 JUMP JUMPDEST POP MOD SWAP1 JUMP JUMPDEST PUSH1 0x0 PUSH1 0x1 PUSH1 0x1 PUSH1 0xA0 SHL SUB DUP1 DUP7 AND DUP4 MSTORE DUP1 DUP6 AND PUSH1 0x20 DUP5 ADD MSTORE POP PUSH1 0x60 PUSH1 0x40 DUP4 ADD MSTORE PUSH2 0x374B PUSH1 0x60 DUP4 ADD DUP5 PUSH2 0x4D91 JUMP JUMPDEST DUP2 DUP2 SUB PUSH1 0x0 DUP4 SLT DUP1 ISZERO DUP4 DUP4 SGT AND DUP4 DUP4 SLT DUP3 AND OR ISZERO PUSH2 0x27F8 JUMPI PUSH2 0x27F8 PUSH2 0x4D06 JUMP JUMPDEST PUSH1 0x0 DUP3 PUSH2 0x5148 JUMPI PUSH2 0x5148 PUSH2 0x5024 JUMP JUMPDEST PUSH32 0xFFFFFFFFFFFFFFFFFFFFFFFFFFFFFFFFFFFFFFFFFFFFFFFFFFFFFFFFFFFFFFFF DUP4 EQ PUSH32 0x8000000000000000000000000000000000000000000000000000000000000000 DUP4 EQ AND ISZERO PUSH2 0x519C JUMPI PUSH2 0x519C PUSH2 0x4D06 JUMP JUMPDEST POP SDIV SWAP1 JUMP JUMPDEST DUP1 DUP3 ADD DUP3 DUP2 SLT PUSH1 0x0 DUP4 SLT DUP1 ISZERO DUP3 AND DUP3 ISZERO DUP3 AND OR ISZERO PUSH2 0x51C1 JUMPI PUSH2 0x51C1 PUSH2 0x4D06 JUMP JUMPDEST POP POP SWAP3 SWAP2 POP POP JUMP JUMPDEST DUP1 DUP3 MUL PUSH1 0x0 DUP3 SLT PUSH32 0x8000000000000000000000000000000000000000000000000000000000000000 DUP5 EQ AND ISZERO PUSH2 0x5201 JUMPI PUSH2 0x5201 PUSH2 0x4D06 JUMP JUMPDEST DUP2 DUP2 SDIV DUP4 EQ DUP3 ISZERO OR PUSH2 0xDB2 JUMPI PUSH2 0xDB2 PUSH2 0x4D06 JUMP INVALID LOG2 PUSH5 0x6970667358 0x22 SLT KECCAK256 PUSH30 0xE720F5926AB24095FA8B96711DCF57194FD16C6EC392F6D5FA0A2DCCA6F2 PUSH20 0x64736F6C63430008110033000000000000000000 "},"methodIdentifiers":{"EXECUTION_TYPE()":"4a45a3a8","authorizer()":"d09edf31","call(address,uint256)":"3bd9ef28","customTokenThreshold(address)":"a5900c4d","customVolumeLimit(address)":"221a8c68","defaultTokenThreshold()":"a3374177","defaultVolumeLimit()":"6aacaad8","getBalanceConnectors()":"5670e2ce","getGasLimits()":"5ea54eee","getTaskAmount(address)":"a0c3774f","getTimeLock()":"119a5e96","getTokenThreshold(address)":"51a424b1","getTokensSource()":"c267621e","getVolumeLimit(address)":"d45a76cf","initializeBalancerClaimer(((address,bytes32,bytes32),(uint256,uint256,uint256,uint256),(uint8,uint256,uint256,uint256),(uint8,address[]),((address,uint256,uint256),(address,(address,uint256,uint256))[]),((address,uint256,uint256),(address,(address,uint256,uint256))[])),address,address)":"7cbd3a56","isPaused()":"b187bd26","isTokenAllowed(address)":"f9eaee0d","pause()":"8456cb59","protocolFeeWithdrawer()":"6b123919","protocolFeesCollector()":"e97b8071","setBalanceConnectors(bytes32,bytes32)":"7125590a","setCustomTokenThreshold(address,address,uint256,uint256)":"2384c32d","setCustomVolumeLimit(address,address,uint256,uint256)":"423a4b40","setDefaultTokenThreshold(address,uint256,uint256)":"d3feb602","setDefaultVolumeLimit(address,uint256,uint256)":"90333ba8","setGasLimits(uint256,uint256,uint256,uint256)":"e6b5be98","setProtocolFeeWithdrawer(address)":"db20de82","setProtocolFeesCollector(address)":"0ef917ed","setTimeLock(uint8,uint256,uint256,uint256)":"0fe105e8","setTokensAcceptanceList(address[],bool[])":"21972384","setTokensAcceptanceType(uint8)":"30eae572","smartVault()":"4fd49efd","tokensAcceptanceType()":"42d4693e","unpause()":"3f4ba83a"}}}}}