{"contracts/OneInchV5PublicSwapper.sol":{"OneInchV5PublicSwapper":{"abi":[{"inputs":[{"internalType":"address","name":"who","type":"address"},{"internalType":"bytes4","name":"what","type":"bytes4"},{"internalType":"uint256[]","name":"how","type":"uint256[]"}],"name":"AuthSenderNotAllowed","type":"error"},{"inputs":[{"internalType":"uint256","name":"start","type":"uint256"},{"internalType":"uint256","name":"length","type":"uint256"}],"name":"BytesOutOfBounds","type":"error"},{"inputs":[{"internalType":"uint256","name":"a","type":"uint256"},{"internalType":"uint256","name":"aInflated","type":"uint256"}],"name":"FixedPointDivInternal","type":"error"},{"inputs":[{"internalType":"uint256","name":"a","type":"uint256"},{"internalType":"uint256","name":"b","type":"uint256"}],"name":"FixedPointMulOverflow","type":"error"},{"inputs":[],"name":"FixedPointZeroDivision","type":"error"},{"inputs":[],"name":"SwapAmountInZero","type":"error"},{"inputs":[],"name":"SwapConnectorZero","type":"error"},{"inputs":[{"internalType":"uint256","name":"actual","type":"uint256"},{"internalType":"uint256","name":"expected","type":"uint256"}],"name":"SwapMinAmountOut","type":"error"},{"inputs":[],"name":"SwapMinAmountOutZero","type":"error"},{"inputs":[{"internalType":"bytes32","name":"id","type":"bytes32"}],"name":"SwapNextConnectorNotZero","type":"error"},{"inputs":[{"internalType":"uint256","name":"actual","type":"uint256"},{"internalType":"uint256","name":"expected","type":"uint256"}],"name":"SwapNotEnoughAllowance","type":"error"},{"inputs":[{"internalType":"bytes32","name":"id","type":"bytes32"}],"name":"SwapPreviousConnectorNotZero","type":"error"},{"inputs":[],"name":"SwapSameTokens","type":"error"},{"inputs":[],"name":"SwapTokenInZero","type":"error"},{"inputs":[],"name":"SwapTokenOutZero","type":"error"},{"inputs":[{"internalType":"uint256","name":"actual","type":"uint256"},{"internalType":"uint256","name":"expected","type":"uint256"}],"name":"SwapUnexpectedMsgValue","type":"error"},{"inputs":[],"name":"TaskAcceptanceInputLengthMismatch","type":"error"},{"inputs":[],"name":"TaskAcceptanceTokenZero","type":"error"},{"inputs":[],"name":"TaskGasNotInitialized","type":"error"},{"inputs":[{"internalType":"uint256","name":"gasPrice","type":"uint256"},{"internalType":"uint256","name":"gasPriceLimit","type":"uint256"}],"name":"TaskGasPriceLimitExceeded","type":"error"},{"inputs":[{"internalType":"uint8","name":"mode","type":"uint8"},{"internalType":"uint256","name":"date","type":"uint256"}],"name":"TaskInvalidAllowedDate","type":"error"},{"inputs":[{"internalType":"uint8","name":"mode","type":"uint8"},{"internalType":"uint256","name":"window","type":"uint256"}],"name":"TaskInvalidAllowedWindow","type":"error"},{"inputs":[{"internalType":"uint8","name":"mode","type":"uint8"},{"internalType":"uint256","name":"frequency","type":"uint256"}],"name":"TaskInvalidFrequency","type":"error"},{"inputs":[{"internalType":"uint8","name":"mode","type":"uint8"}],"name":"TaskInvalidFrequencyMode","type":"error"},{"inputs":[{"internalType":"address","name":"token","type":"address"},{"internalType":"uint256","name":"min","type":"uint256"},{"internalType":"uint256","name":"max","type":"uint256"}],"name":"TaskInvalidThresholdInput","type":"error"},{"inputs":[{"internalType":"address","name":"token","type":"address"},{"internalType":"uint256","name":"amount","type":"uint256"},{"internalType":"uint256","name":"period","type":"uint256"}],"name":"TaskInvalidVolumeLimitInput","type":"error"},{"inputs":[],"name":"TaskPaused","type":"error"},{"inputs":[{"internalType":"uint256","name":"priorityFee","type":"uint256"},{"internalType":"uint256","name":"priorityFeeLimit","type":"uint256"}],"name":"TaskPriorityFeeLimitExceeded","type":"error"},{"inputs":[{"internalType":"bytes32","name":"connectorId","type":"bytes32"}],"name":"TaskSameBalanceConnectors","type":"error"},{"inputs":[{"internalType":"address","name":"smartVault","type":"address"}],"name":"TaskSmartVaultPriceOracleNotSet","type":"error"},{"inputs":[],"name":"TaskThresholdTokenZero","type":"error"},{"inputs":[{"internalType":"uint256","name":"currentTimestamp","type":"uint256"},{"internalType":"uint256","name":"expiration","type":"uint256"}],"name":"TaskTimeLockActive","type":"error"},{"inputs":[{"internalType":"address","name":"token","type":"address"}],"name":"TaskTokenNotAllowed","type":"error"},{"inputs":[{"internalType":"address","name":"token","type":"address"},{"internalType":"uint256","name":"amount","type":"uint256"},{"internalType":"uint256","name":"min","type":"uint256"},{"internalType":"uint256","name":"max","type":"uint256"}],"name":"TaskTokenThresholdNotMet","type":"error"},{"inputs":[{"internalType":"uint256","name":"txCost","type":"uint256"},{"internalType":"uint256","name":"txCostLimit","type":"uint256"}],"name":"TaskTxCostLimitExceeded","type":"error"},{"inputs":[],"name":"TaskTxCostLimitPctAboveOne","type":"error"},{"inputs":[{"internalType":"uint256","name":"txCostPct","type":"uint256"},{"internalType":"uint256","name":"txCostLimitPct","type":"uint256"}],"name":"TaskTxCostLimitPctExceeded","type":"error"},{"inputs":[],"name":"TaskUnpaused","type":"error"},{"inputs":[{"internalType":"address","name":"token","type":"address"},{"internalType":"uint256","name":"limit","type":"uint256"},{"internalType":"uint256","name":"volume","type":"uint256"}],"name":"TaskVolumeLimitExceeded","type":"error"},{"inputs":[],"name":"TaskVolumeLimitTokenZero","type":"error"},{"anonymous":false,"inputs":[{"indexed":true,"internalType":"bytes32","name":"previous","type":"bytes32"},{"indexed":true,"internalType":"bytes32","name":"next","type":"bytes32"}],"name":"BalanceConnectorsSet","type":"event"},{"anonymous":false,"inputs":[{"indexed":true,"internalType":"address","name":"connector","type":"address"}],"name":"ConnectorSet","type":"event"},{"anonymous":false,"inputs":[{"indexed":true,"internalType":"address","name":"token","type":"address"},{"indexed":false,"internalType":"address","name":"thresholdToken","type":"address"},{"indexed":false,"internalType":"uint256","name":"min","type":"uint256"},{"indexed":false,"internalType":"uint256","name":"max","type":"uint256"}],"name":"CustomTokenThresholdSet","type":"event"},{"anonymous":false,"inputs":[{"indexed":true,"internalType":"address","name":"token","type":"address"},{"indexed":true,"internalType":"address","name":"limitToken","type":"address"},{"indexed":false,"internalType":"uint256","name":"amount","type":"uint256"},{"indexed":false,"internalType":"uint256","name":"period","type":"uint256"}],"name":"CustomVolumeLimitSet","type":"event"},{"anonymous":false,"inputs":[{"indexed":false,"internalType":"address","name":"token","type":"address"},{"indexed":false,"internalType":"uint256","name":"min","type":"uint256"},{"indexed":false,"internalType":"uint256","name":"max","type":"uint256"}],"name":"DefaultTokenThresholdSet","type":"event"},{"anonymous":false,"inputs":[{"indexed":true,"internalType":"address","name":"limitToken","type":"address"},{"indexed":false,"internalType":"uint256","name":"amount","type":"uint256"},{"indexed":false,"internalType":"uint256","name":"period","type":"uint256"}],"name":"DefaultVolumeLimitSet","type":"event"},{"anonymous":false,"inputs":[],"name":"Executed","type":"event"},{"anonymous":false,"inputs":[{"indexed":false,"internalType":"uint256","name":"gasPriceLimit","type":"uint256"},{"indexed":false,"internalType":"uint256","name":"priorityFeeLimit","type":"uint256"},{"indexed":false,"internalType":"uint256","name":"txCostLimit","type":"uint256"},{"indexed":false,"internalType":"uint256","name":"txCostLimitPct","type":"uint256"}],"name":"GasLimitsSet","type":"event"},{"anonymous":false,"inputs":[{"indexed":false,"internalType":"uint8","name":"version","type":"uint8"}],"name":"Initialized","type":"event"},{"anonymous":false,"inputs":[],"name":"Paused","type":"event"},{"anonymous":false,"inputs":[{"indexed":false,"internalType":"uint256","name":"allowedAt","type":"uint256"}],"name":"TimeLockAllowedAtSet","type":"event"},{"anonymous":false,"inputs":[{"indexed":false,"internalType":"uint8","name":"mode","type":"uint8"},{"indexed":false,"internalType":"uint256","name":"frequency","type":"uint256"},{"indexed":false,"internalType":"uint256","name":"allowedAt","type":"uint256"},{"indexed":false,"internalType":"uint256","name":"window","type":"uint256"}],"name":"TimeLockSet","type":"event"},{"anonymous":false,"inputs":[{"indexed":true,"internalType":"address","name":"token","type":"address"},{"indexed":false,"internalType":"bool","name":"added","type":"bool"}],"name":"TokensAcceptanceListSet","type":"event"},{"anonymous":false,"inputs":[{"indexed":false,"internalType":"enum ITokenIndexedTask.TokensAcceptanceType","name":"acceptanceType","type":"uint8"}],"name":"TokensAcceptanceTypeSet","type":"event"},{"anonymous":false,"inputs":[],"name":"Unpaused","type":"event"},{"inputs":[],"name":"EXECUTION_TYPE","outputs":[{"internalType":"bytes32","name":"","type":"bytes32"}],"stateMutability":"view","type":"function"},{"inputs":[],"name":"authorizer","outputs":[{"internalType":"address","name":"","type":"address"}],"stateMutability":"view","type":"function"},{"inputs":[{"internalType":"address","name":"tokenIn","type":"address"},{"internalType":"uint256","name":"amountIn","type":"uint256"},{"internalType":"address","name":"tokenOut","type":"address"},{"internalType":"uint256","name":"minAmountOut","type":"uint256"},{"internalType":"bytes","name":"data","type":"bytes"}],"name":"call","outputs":[],"stateMutability":"payable","type":"function"},{"inputs":[],"name":"connector","outputs":[{"internalType":"address","name":"","type":"address"}],"stateMutability":"view","type":"function"},{"inputs":[{"internalType":"address","name":"token","type":"address"}],"name":"customTokenThreshold","outputs":[{"internalType":"address","name":"thresholdToken","type":"address"},{"internalType":"uint256","name":"min","type":"uint256"},{"internalType":"uint256","name":"max","type":"uint256"}],"stateMutability":"view","type":"function"},{"inputs":[{"internalType":"address","name":"token","type":"address"}],"name":"customVolumeLimit","outputs":[{"internalType":"address","name":"limitToken","type":"address"},{"internalType":"uint256","name":"amount","type":"uint256"},{"internalType":"uint256","name":"accrued","type":"uint256"},{"internalType":"uint256","name":"period","type":"uint256"},{"internalType":"uint256","name":"nextResetTime","type":"uint256"}],"stateMutability":"view","type":"function"},{"inputs":[],"name":"defaultTokenThreshold","outputs":[{"internalType":"address","name":"thresholdToken","type":"address"},{"internalType":"uint256","name":"min","type":"uint256"},{"internalType":"uint256","name":"max","type":"uint256"}],"stateMutability":"view","type":"function"},{"inputs":[],"name":"defaultVolumeLimit","outputs":[{"internalType":"address","name":"limitToken","type":"address"},{"internalType":"uint256","name":"amount","type":"uint256"},{"internalType":"uint256","name":"accrued","type":"uint256"},{"internalType":"uint256","name":"period","type":"uint256"},{"internalType":"uint256","name":"nextResetTime","type":"uint256"}],"stateMutability":"view","type":"function"},{"inputs":[],"name":"getBalanceConnectors","outputs":[{"internalType":"bytes32","name":"previous","type":"bytes32"},{"internalType":"bytes32","name":"next","type":"bytes32"}],"stateMutability":"view","type":"function"},{"inputs":[],"name":"getGasLimits","outputs":[{"internalType":"uint256","name":"gasPriceLimit","type":"uint256"},{"internalType":"uint256","name":"priorityFeeLimit","type":"uint256"},{"internalType":"uint256","name":"txCostLimit","type":"uint256"},{"internalType":"uint256","name":"txCostLimitPct","type":"uint256"}],"stateMutability":"view","type":"function"},{"inputs":[{"internalType":"address","name":"token","type":"address"}],"name":"getTaskAmount","outputs":[{"internalType":"uint256","name":"","type":"uint256"}],"stateMutability":"view","type":"function"},{"inputs":[],"name":"getTimeLock","outputs":[{"internalType":"uint8","name":"mode","type":"uint8"},{"internalType":"uint256","name":"frequency","type":"uint256"},{"internalType":"uint256","name":"allowedAt","type":"uint256"},{"internalType":"uint256","name":"window","type":"uint256"}],"stateMutability":"view","type":"function"},{"inputs":[{"internalType":"address","name":"token","type":"address"}],"name":"getTokenThreshold","outputs":[{"internalType":"address","name":"thresholdToken","type":"address"},{"internalType":"uint256","name":"min","type":"uint256"},{"internalType":"uint256","name":"max","type":"uint256"}],"stateMutability":"view","type":"function"},{"inputs":[],"name":"getTokensSource","outputs":[{"internalType":"address","name":"","type":"address"}],"stateMutability":"view","type":"function"},{"inputs":[{"internalType":"address","name":"token","type":"address"}],"name":"getVolumeLimit","outputs":[{"internalType":"address","name":"limitToken","type":"address"},{"internalType":"uint256","name":"amount","type":"uint256"},{"internalType":"uint256","name":"accrued","type":"uint256"},{"internalType":"uint256","name":"period","type":"uint256"},{"internalType":"uint256","name":"nextResetTime","type":"uint256"}],"stateMutability":"view","type":"function"},{"inputs":[{"components":[{"components":[{"internalType":"address","name":"smartVault","type":"address"},{"internalType":"bytes32","name":"previousBalanceConnectorId","type":"bytes32"},{"internalType":"bytes32","name":"nextBalanceConnectorId","type":"bytes32"}],"internalType":"struct BaseTask.BaseConfig","name":"baseConfig","type":"tuple"},{"components":[{"internalType":"uint256","name":"gasPriceLimit","type":"uint256"},{"internalType":"uint256","name":"priorityFeeLimit","type":"uint256"},{"internalType":"uint256","name":"txCostLimit","type":"uint256"},{"internalType":"uint256","name":"txCostLimitPct","type":"uint256"}],"internalType":"struct GasLimitedTask.GasLimitConfig","name":"gasLimitConfig","type":"tuple"},{"components":[{"internalType":"uint8","name":"mode","type":"uint8"},{"internalType":"uint256","name":"frequency","type":"uint256"},{"internalType":"uint256","name":"allowedAt","type":"uint256"},{"internalType":"uint256","name":"window","type":"uint256"}],"internalType":"struct TimeLockedTask.TimeLockConfig","name":"timeLockConfig","type":"tuple"},{"components":[{"internalType":"enum ITokenIndexedTask.TokensAcceptanceType","name":"acceptanceType","type":"uint8"},{"internalType":"address[]","name":"tokens","type":"address[]"}],"internalType":"struct TokenIndexedTask.TokenIndexConfig","name":"tokenIndexConfig","type":"tuple"},{"components":[{"components":[{"internalType":"address","name":"token","type":"address"},{"internalType":"uint256","name":"min","type":"uint256"},{"internalType":"uint256","name":"max","type":"uint256"}],"internalType":"struct TokenThresholdTask.Threshold","name":"defaultThreshold","type":"tuple"},{"components":[{"internalType":"address","name":"token","type":"address"},{"components":[{"internalType":"address","name":"token","type":"address"},{"internalType":"uint256","name":"min","type":"uint256"},{"internalType":"uint256","name":"max","type":"uint256"}],"internalType":"struct TokenThresholdTask.Threshold","name":"threshold","type":"tuple"}],"internalType":"struct TokenThresholdTask.CustomThresholdConfig[]","name":"customThresholdConfigs","type":"tuple[]"}],"internalType":"struct TokenThresholdTask.TokenThresholdConfig","name":"tokenThresholdConfig","type":"tuple"},{"components":[{"components":[{"internalType":"address","name":"token","type":"address"},{"internalType":"uint256","name":"amount","type":"uint256"},{"internalType":"uint256","name":"period","type":"uint256"}],"internalType":"struct VolumeLimitedTask.VolumeLimitParams","name":"defaultVolumeLimit","type":"tuple"},{"components":[{"internalType":"address","name":"token","type":"address"},{"components":[{"internalType":"address","name":"token","type":"address"},{"internalType":"uint256","name":"amount","type":"uint256"},{"internalType":"uint256","name":"period","type":"uint256"}],"internalType":"struct VolumeLimitedTask.VolumeLimitParams","name":"volumeLimit","type":"tuple"}],"internalType":"struct VolumeLimitedTask.CustomVolumeLimitConfig[]","name":"customVolumeLimitConfigs","type":"tuple[]"}],"internalType":"struct VolumeLimitedTask.VolumeLimitConfig","name":"volumeLimitConfig","type":"tuple"}],"internalType":"struct Task.TaskConfig","name":"taskConfig","type":"tuple"},{"internalType":"address","name":"initialConnector","type":"address"}],"name":"initializePublicSwapper","outputs":[],"stateMutability":"nonpayable","type":"function"},{"inputs":[],"name":"isPaused","outputs":[{"internalType":"bool","name":"","type":"bool"}],"stateMutability":"view","type":"function"},{"inputs":[{"internalType":"address","name":"token","type":"address"}],"name":"isTokenAllowed","outputs":[{"internalType":"bool","name":"","type":"bool"}],"stateMutability":"view","type":"function"},{"inputs":[],"name":"pause","outputs":[],"stateMutability":"nonpayable","type":"function"},{"inputs":[{"internalType":"bytes32","name":"previous","type":"bytes32"},{"internalType":"bytes32","name":"next","type":"bytes32"}],"name":"setBalanceConnectors","outputs":[],"stateMutability":"nonpayable","type":"function"},{"inputs":[{"internalType":"address","name":"newConnector","type":"address"}],"name":"setConnector","outputs":[],"stateMutability":"nonpayable","type":"function"},{"inputs":[{"internalType":"address","name":"token","type":"address"},{"internalType":"address","name":"thresholdToken","type":"address"},{"internalType":"uint256","name":"min","type":"uint256"},{"internalType":"uint256","name":"max","type":"uint256"}],"name":"setCustomTokenThreshold","outputs":[],"stateMutability":"nonpayable","type":"function"},{"inputs":[{"internalType":"address","name":"token","type":"address"},{"internalType":"address","name":"limitToken","type":"address"},{"internalType":"uint256","name":"limitAmount","type":"uint256"},{"internalType":"uint256","name":"limitPeriod","type":"uint256"}],"name":"setCustomVolumeLimit","outputs":[],"stateMutability":"nonpayable","type":"function"},{"inputs":[{"internalType":"address","name":"thresholdToken","type":"address"},{"internalType":"uint256","name":"min","type":"uint256"},{"internalType":"uint256","name":"max","type":"uint256"}],"name":"setDefaultTokenThreshold","outputs":[],"stateMutability":"nonpayable","type":"function"},{"inputs":[{"internalType":"address","name":"limitToken","type":"address"},{"internalType":"uint256","name":"limitAmount","type":"uint256"},{"internalType":"uint256","name":"limitPeriod","type":"uint256"}],"name":"setDefaultVolumeLimit","outputs":[],"stateMutability":"nonpayable","type":"function"},{"inputs":[{"internalType":"uint256","name":"newGasPriceLimit","type":"uint256"},{"internalType":"uint256","name":"newPriorityFeeLimit","type":"uint256"},{"internalType":"uint256","name":"newTxCostLimit","type":"uint256"},{"internalType":"uint256","name":"newTxCostLimitPct","type":"uint256"}],"name":"setGasLimits","outputs":[],"stateMutability":"nonpayable","type":"function"},{"inputs":[{"internalType":"uint8","name":"mode","type":"uint8"},{"internalType":"uint256","name":"frequency","type":"uint256"},{"internalType":"uint256","name":"allowedAt","type":"uint256"},{"internalType":"uint256","name":"window","type":"uint256"}],"name":"setTimeLock","outputs":[],"stateMutability":"nonpayable","type":"function"},{"inputs":[{"internalType":"address[]","name":"tokens","type":"address[]"},{"internalType":"bool[]","name":"added","type":"bool[]"}],"name":"setTokensAcceptanceList","outputs":[],"stateMutability":"nonpayable","type":"function"},{"inputs":[{"internalType":"enum ITokenIndexedTask.TokensAcceptanceType","name":"newTokensAcceptanceType","type":"uint8"}],"name":"setTokensAcceptanceType","outputs":[],"stateMutability":"nonpayable","type":"function"},{"inputs":[],"name":"smartVault","outputs":[{"internalType":"address","name":"","type":"address"}],"stateMutability":"view","type":"function"},{"inputs":[],"name":"tokensAcceptanceType","outputs":[{"internalType":"enum ITokenIndexedTask.TokensAcceptanceType","name":"","type":"uint8"}],"stateMutability":"view","type":"function"},{"inputs":[],"name":"unpause","outputs":[],"stateMutability":"nonpayable","type":"function"},{"stateMutability":"payable","type":"receive"}],"evm":{"bytecode":{"linkReferences":{},"object":"60806040523480156200001157600080fd5b506200001c62000022565b620000e4565b600054610100900460ff16156200008f5760405162461bcd60e51b815260206004820152602760248201527f496e697469616c697a61626c653a20636f6e747261637420697320696e697469604482015266616c697a696e6760c81b606482015260840160405180910390fd5b60005460ff9081161015620000e2576000805460ff191660ff9081179091556040519081527f7f26b83ff96e1f2b6a682f133852f6798a09c465da95921460cefb38474024989060200160405180910390a15b565b6157f980620000f46000396000f3fe6080604052600436106101e75760003560e01c80636aacaad811610102578063b187bd2611610095578063d45a76cf11610064578063d45a76cf14610743578063e6b5be9814610763578063e788279b14610783578063f9eaee0d1461079657600080fd5b8063b187bd26146106b5578063c267621e146106df578063d09edf31146106fd578063d3feb6021461072357600080fd5b806390333ba8116100d157806390333ba8146105ce578063a0c3774f146105ee578063a33741771461060e578063a5900c4d1461064e57600080fd5b80636aacaad8146105205780637125590a1461057957806383f3084f146105995780638456cb59146105b957600080fd5b80633f4ba83a1161017a5780634fd49efd116101495780634fd49efd1461044257806351a424b11461047a5780635670e2ce146104bf5780635ea54eee146104e757600080fd5b80633f4ba83a146103a4578063423a4b40146103b957806342d4693e146103d95780634a45a3a81461040057600080fd5b806321972384116101b65780632197238414610293578063221a8c68146102b35780632384c32d1461036457806330eae5721461038457600080fd5b806308ae15b9146101f35780630fe105e81461021557806310188aef14610235578063119a5e961461025557600080fd5b366101ee57005b600080fd5b3480156101ff57600080fd5b5061021361020e366004614e95565b6107b6565b005b34801561022157600080fd5b50610213610230366004614f96565b610938565b34801561024157600080fd5b50610213610250366004614fcf565b610989565b34801561026157600080fd5b5061026a6109ce565b6040805160ff909516855260208501939093529183015260608201526080015b60405180910390f35b34801561029f57600080fd5b506102136102ae366004614ffa565b610a05565b3480156102bf57600080fd5b506103326102ce366004614fcf565b6001600160a01b039081166000908152601b6020908152604091829020825160a08101845281549094168085526001820154928501839052600282015493850184905260038201546060860181905260049092015460809095018590529491939091565b604080516001600160a01b0390961686526020860194909452928401919091526060830152608082015260a00161028a565b34801561037057600080fd5b5061021361037f3660046150be565b610ac8565b34801561039057600080fd5b5061021361039f366004615104565b610b0f565b3480156103b057600080fd5b50610213610b64565b3480156103c557600080fd5b506102136103d43660046150be565b610c21565b3480156103e557600080fd5b50600f546103f39060ff1681565b60405161028a919061514e565b34801561040c57600080fd5b506104347f5cf9bc10b1d3c2412d5489f46faf333da18b93136ae61afb88ee8fde62f3dd4181565b60405190815260200161028a565b34801561044e57600080fd5b50600154610462906001600160a01b031681565b6040516001600160a01b03909116815260200161028a565b34801561048657600080fd5b5061049a610495366004614fcf565b610c68565b604080516001600160a01b03909416845260208401929092529082015260600161028a565b3480156104cb57600080fd5b506002546003546040805192835260208301919091520161028a565b3480156104f357600080fd5b5060065460075460085460095460408051948552602085019390935291830152606082015260800161028a565b34801561052c57600080fd5b506103326040805160a0810182526016546001600160a01b03168082526017546020830181905260185493830184905260195460608401819052601a546080909401849052919490939290565b34801561058557600080fd5b5061021361059436600461518f565b610c91565b3480156105a557600080fd5b50601c54610462906001600160a01b031681565b3480156105c557600080fd5b50610213610cd4565b3480156105da57600080fd5b506102136105e93660046151b1565b610d95565b3480156105fa57600080fd5b50610434610609366004614fcf565b610de0565b34801561061a57600080fd5b5061049a604080516060810182526012546001600160a01b0316808252601354602083018190526014549290930182905292565b34801561065a57600080fd5b5061049a610669366004614fcf565b6001600160a01b03808216600090815260156020908152604091829020825160608101845281549094168085526001820154928501839052600290910154939092018390529093909250565b3480156106c157600080fd5b506004546106cf9060ff1681565b604051901515815260200161028a565b3480156106eb57600080fd5b506001546001600160a01b0316610462565b34801561070957600080fd5b50600054610462906201000090046001600160a01b031681565b34801561072f57600080fd5b5061021361073e3660046151b1565b610e77565b34801561074f57600080fd5b5061033261075e366004614fcf565b610ebc565b34801561076f57600080fd5b5061021361077e3660046151e6565b610f2b565b610213610791366004615240565b610f72565b3480156107a257600080fd5b506106cf6107b1366004614fcf565b611137565b600054610100900460ff16158080156107d65750600054600160ff909116105b806107f05750303b1580156107f0575060005460ff166001145b6108675760405162461bcd60e51b815260206004820152602e60248201527f496e697469616c697a61626c653a20636f6e747261637420697320616c72656160448201527f647920696e697469616c697a656400000000000000000000000000000000000060648201526084015b60405180910390fd5b600080547fffffffffffffffffffffffffffffffffffffffffffffffffffffffffffffff0016600117905580156108c557600080547fffffffffffffffffffffffffffffffffffffffffffffffffffffffffffff00ff166101001790555b6108cf8383611182565b801561093357600080547fffffffffffffffffffffffffffffffffffffffffffffffffffffffffffff00ff169055604051600181527f7f26b83ff96e1f2b6a682f133852f6798a09c465da95921460cefb3847402498906020015b60405180910390a15b505050565b6109478460ff16848484611200565b610976336000357fffffffff0000000000000000000000000000000000000000000000000000000016836112ab565b610982858585856112f2565b5050505050565b610992816116b9565b6109c1336000357fffffffff0000000000000000000000000000000000000000000000000000000016836112ab565b6109ca826116cd565b5050565b600a5460009081908190819060ff1660028111156109ee576109ee61511f565b600b54600c54600e54935093509350935090919293565b610a33336000357fffffffff000000000000000000000000000000000000000000000000000000001661176f565b8051825114610a6e576040517f5d32021a00000000000000000000000000000000000000000000000000000000815260040160405180910390fd5b60005b825181101561093357610ab6838281518110610a8f57610a8f6152f4565b6020026020010151838381518110610aa957610aa96152f4565b602002602001015161178b565b80610ac081615352565b915050610a71565b610ad484848484611835565b610b03336000357fffffffff0000000000000000000000000000000000000000000000000000000016836112ab565b6109828585858561189e565b610b2c816001811115610b2457610b2461511f565b60ff16611957565b610b5b336000357fffffffff0000000000000000000000000000000000000000000000000000000016836112ab565b6109ca8261199e565b610b92336000357fffffffff000000000000000000000000000000000000000000000000000000001661176f565b60045460ff16610bce576040517f9e6558bd00000000000000000000000000000000000000000000000000000000815260040160405180910390fd5b600480547fffffffffffffffffffffffffffffffffffffffffffffffffffffffffffffff001690556040517fa45f47fdea8a1efdd9029a5691c7f759c32b7c698632b563573e155625d1693390600090a1565b610c2d84848484611835565b610c5c336000357fffffffff0000000000000000000000000000000000000000000000000000000016836112ab565b61098285858585611a19565b600080600080610c7785611ad9565b805160208201516040909201519097919650945092505050565b610c9b8282611b64565b610cca336000357fffffffff0000000000000000000000000000000000000000000000000000000016836112ab565b6109338383611bd0565b610d02336000357fffffffff000000000000000000000000000000000000000000000000000000001661176f565b60045460ff1615610d3f576040517fc0f2312800000000000000000000000000000000000000000000000000000000815260040160405180910390fd5b600480547fffffffffffffffffffffffffffffffffffffffffffffffffffffffffffffff001660011790556040517f9e87fac88ff661f02d44f95383c817fece4bce600a3dab7a54406878b965e75290600090a1565b610da0838383611c50565b610dcf336000357fffffffff0000000000000000000000000000000000000000000000000000000016836112ab565b610dda848484611ce2565b50505050565b6001546002546040517ebc489400000000000000000000000000000000000000000000000000000000815260048101919091526001600160a01b038381166024830152600092169062bc489490604401602060405180830381865afa158015610e4d573d6000803e3d6000fd5b505050506040513d601f19601f82011682018060405250810190610e71919061538a565b92915050565b610e82838383611c50565b610eb1336000357fffffffff0000000000000000000000000000000000000000000000000000000016836112ab565b610dda848484611d38565b600080600080600080610ece87611d8c565b6040805160a08101825282546001600160a01b031680825260018401546020830181905260028501549383018490526003850154606084018190526004909501546080909301839052909b909a5091985091965090945092505050565b610f3784848484611200565b610f66336000357fffffffff0000000000000000000000000000000000000000000000000000000016836112ab565b61098285858585611dc0565b610f7c8584611e5b565b610fab336000357fffffffff0000000000000000000000000000000000000000000000000000000016836112ab565b610fb786868686611ec1565b600080610fc388612299565b90506000610fd087612299565b9050806001600160a01b0316826001600160a01b031603610ff35787925061111f565b600063f48221a360e01b83838b8a8a6040516024016110169594939291906153f3565b60408051601f198184030181529181526020820180517bffffffffffffffffffffffffffffffffffffffffffffffffffffffff167fffffffff0000000000000000000000000000000000000000000000000000000090941693909317909252600154601c5492517f1cff79cd0000000000000000000000000000000000000000000000000000000081529193506000926001600160a01b0391821692631cff79cd926110c8921690869060040161542b565b6000604051808303816000875af11580156110e7573d6000803e3d6000fd5b505050506040513d6000823e601f3d908101601f1916820160405261110f919081019061544d565b905061111a816122cd565b945050505b61112c898989868a6122da565b505050505050505050565b6001600160a01b038116600090815260116020526040812054600f549015159060019060ff168181111561116d5761116d61511f565b1461117957801561117b565b805b9392505050565b600054610100900460ff166111ed5760405162461bcd60e51b815260206004820152602b60248201527f496e697469616c697a61626c653a20636f6e7472616374206973206e6f74206960448201526a6e697469616c697a696e6760a81b606482015260840161085e565b6111f682612449565b6109ca8282612514565b60408051600480825260a08201909252606091602082016080803683370190505090508481600081518110611237576112376152f4565b6020026020010181815250508381600181518110611257576112576152f4565b6020026020010181815250508281600281518110611277576112776152f4565b6020026020010181815250508181600381518110611297576112976152f4565b602002602001018181525050949350505050565b6112b6838383612588565b610933578282826040517f960c80da00000000000000000000000000000000000000000000000000000000815260040161085e939291906154f6565b60ff84166113ee5760008111806113095750600082115b156113e95782600003611354576040517fbea499cb00000000000000000000000000000000000000000000000000000000815260ff851660048201526024810184905260440161085e565b80158061136057508281115b156113a3576040517f9e12fccf00000000000000000000000000000000000000000000000000000000815260ff851660048201526024810182905260440161085e565b816000036113e9576040517fad0d7eb200000000000000000000000000000000000000000000000000000000815260ff851660048201526024810183905260440161085e565b611604565b82600003611434576040517fbea499cb00000000000000000000000000000000000000000000000000000000815260ff851660048201526024810184905260440161085e565b80158061144c57506114496224ea0084615540565b81115b1561148f576040517f9e12fccf00000000000000000000000000000000000000000000000000000000815260ff851660048201526024810182905260440161085e565b816000036114d5576040517fad0d7eb200000000000000000000000000000000000000000000000000000000815260ff851660048201526024810183905260440161085e565b7fffffffffffffffffffffffffffffffffffffffffffffffffffffffffffffffff60ff85160161154e57601c61150a83612626565b11156113e9576040517fad0d7eb200000000000000000000000000000000000000000000000000000000815260ff851660048201526024810183905260440161085e565b7ffffffffffffffffffffffffffffffffffffffffffffffffffffffffffffffffe60ff8516016115cd576115818261263d565b61158a83612626565b146113e9576040517fad0d7eb200000000000000000000000000000000000000000000000000000000815260ff851660048201526024810183905260440161085e565b6040517f33a738bc00000000000000000000000000000000000000000000000000000000815260ff8516600482015260240161085e565b8360ff1660028111156116195761161961511f565b600a80547fffffffffffffffffffffffffffffffffffffffffffffffffffffffffffffff001660018360028111156116535761165361511f565b0217905550600b839055600c829055600e8190556040805160ff8616815260208101859052908101839052606081018290527f182fd6fa2a8560221614c1396dd4fcc78d26dfacf821a6afb61d25876057e412906080015b60405180910390a150505050565b6060610e71826001600160a01b0316611957565b6001600160a01b03811661170d576040517f4093a12000000000000000000000000000000000000000000000000000000000815260040160405180910390fd5b601c80547fffffffffffffffffffffffff0000000000000000000000000000000000000000166001600160a01b0383169081179091556040517f47fc0d82886e91fbb050eba4ff32c0c0d7fa2b4efffceba283e42975d9c894ff90600090a250565b6040805160008152602081019091526109ca90839083906112ab565b6001600160a01b0382166117cb576040517fc41a13ec00000000000000000000000000000000000000000000000000000000815260040160405180910390fd5b806117e0576117db601083612660565b6117eb565b6117eb601083612675565b50816001600160a01b03167f6264362e9de26efefda321dfaeb4e4a9090deef40c5435fad8e9e2e306889a1c82604051611829911515815260200190565b60405180910390a25050565b60408051600480825260a0820190925260609160208201608080368337019050509050846001600160a01b031681600081518110611875576118756152f4565b602002602001018181525050836001600160a01b031681600181518110611257576112576152f4565b6001600160a01b0384166118de576040517fe7ba3e4a00000000000000000000000000000000000000000000000000000000815260040160405180910390fd5b6001600160a01b03841660009081526015602052604090206119029084848461268a565b604080516001600160a01b03858116825260208201859052918101839052908516907ff099617c054d3a65e02a9c3b786f23cc03d5982bc7cfae84dff0408049cf17079060600160405180910390a250505050565b60408051600180825281830190925260609160208083019080368337019050509050818160008151811061198d5761198d6152f4565b602002602001018181525050919050565b600f80548291907fffffffffffffffffffffffffffffffffffffffffffffffffffffffffffffff0016600183818111156119da576119da61511f565b02179055507f216b6a9618d607ba436d0f2e17e9a83e70929adff805ac2385d67401360e551a81604051611a0e919061514e565b60405180910390a150565b6001600160a01b038416611a59576040517f1de0c9c700000000000000000000000000000000000000000000000000000000815260040160405180910390fd5b6001600160a01b0384166000908152601b60205260409020611a7d90848484612772565b826001600160a01b0316846001600160a01b03167f1b5c5e27ed5443e409bae85849d41d7bf12d5352e8fddb3728b6408f836e14488484604051611acb929190918252602082015260400190565b60405180910390a350505050565b611b06604051806060016040528060006001600160a01b0316815260200160008152602001600081525090565b6001600160a01b038083166000908152601560205260409020805490911615611b2f5780611b32565b60125b6040805160608101825282546001600160a01b0316815260018301546020820152600290920154908201529392505050565b60408051600280825260608083018452926020830190803683370190505090508260001c81600081518110611b9b57611b9b6152f4565b6020026020010181815250508160001c81600181518110611bbe57611bbe6152f4565b60200260200101818152505092915050565b8115611c0b576040517f951dbbe30000000000000000000000000000000000000000000000000000000081526004810183905260240161085e565b8015611c46576040517f4388b2940000000000000000000000000000000000000000000000000000000081526004810182905260240161085e565b6109ca82826128e9565b60408051600380825260808201909252606091602082018380368337019050509050836001600160a01b031681600081518110611c8f57611c8f6152f4565b6020026020010181815250508281600181518110611caf57611caf6152f4565b6020026020010181815250508181600281518110611ccf57611ccf6152f4565b6020026020010181815250509392505050565b611cef6016848484612772565b60408051838152602081018390526001600160a01b038516917f6324b5f18e615697a2b44f16d7a649deb0bbbc7cb09dad4c610306105730e7d9910160405180910390a2505050565b611d45601284848461268a565b604080516001600160a01b0385168152602081018490529081018290527fa80953bdc344b2ebd0bcdd001a3418a8fd1b858bdecf12a4ba5a9366ad65d3459060600161092a565b6001600160a01b038082166000908152601b602052604081208054919290911615611db7578061117b565b60169392505050565b670de0b6b3a7640000811115611e02576040517fce57496100000000000000000000000000000000000000000000000000000000815260040160405180910390fd5b60068490556007839055600882905560098190556040805185815260208101859052908101839052606081018290527f746dc5eb53c5de07c40b06d428506d6982ea10c423ac2875abfc44038927d691906080016116ab565b6040805160028082526060808301845292602083019080368337019050509050826001600160a01b031681600081518110611e9857611e986152f4565b602002602001018181525050816001600160a01b031681600181518110611bbe57611bbe6152f4565b611ecb848461296c565b816001600160a01b0316846001600160a01b031603611f16576040517f9ba62e0300000000000000000000000000000000000000000000000000000000815260040160405180910390fd5b6001600160a01b038416611f56576040517f58fab17b00000000000000000000000000000000000000000000000000000000815260040160405180910390fd5b6001600160a01b038216611f96576040517fc2c713e200000000000000000000000000000000000000000000000000000000815260040160405180910390fd5b82600003611fd0576040517f5f1ab64400000000000000000000000000000000000000000000000000000000815260040160405180910390fd5b8060000361200a576040517fb4fc530600000000000000000000000000000000000000000000000000000000815260040160405180910390fd5b73eeeeeeeeeeeeeeeeeeeeeeeeeeeeeeeeeeeeeeee6001600160a01b0385160361210257823414612070576040517fdc9baba80000000000000000000000000000000000000000000000000000000081523460048201526024810184905260440161085e565b600154612086906001600160a01b0316846129b2565b6001546040517fea598cb0000000000000000000000000000000000000000000000000000000008152600481018590526001600160a01b039091169063ea598cb090602401600060405180830381600087803b1580156120e557600080fd5b505af11580156120f9573d6000803e3d6000fd5b50505050610dda565b3415612143576040517fdc9baba80000000000000000000000000000000000000000000000000000000081523460048201526000602482015260440161085e565b6001546040517fdd62ed3e0000000000000000000000000000000000000000000000000000000081523360048201526001600160a01b03918216602482015260009186169063dd62ed3e90604401602060405180830381865afa1580156121ae573d6000803e3d6000fd5b505050506040513d601f19601f820116820180604052508101906121d2919061538a565b905083811015612218576040517f1736a36c000000000000000000000000000000000000000000000000000000008152600481018290526024810185905260440161085e565b6001546040517fc8fea2fb0000000000000000000000000000000000000000000000000000000081526001600160a01b038781166004830152336024830152604482018790529091169063c8fea2fb90606401600060405180830381600087803b15801561228557600080fd5b505af115801561112c573d6000803e3d6000fd5b600073eeeeeeeeeeeeeeeeeeeeeeeeeeeeeeeeeeeeeeee6001600160a01b038316146122c55781610e71565b610e71612acb565b6000610e71826000612b57565b8082101561231e576040517f38408338000000000000000000000000000000000000000000000000000000008152600481018390526024810182905260440161085e565b73eeeeeeeeeeeeeeeeeeeeeeeeeeeeeeeeeeeeeeee6001600160a01b038416036123ba576001546040517fde0e9a3e000000000000000000000000000000000000000000000000000000008152600481018490526001600160a01b039091169063de0e9a3e90602401600060405180830381600087803b1580156123a157600080fd5b505af11580156123b5573d6000803e3d6000fd5b505050505b6001546040517fd9caed120000000000000000000000000000000000000000000000000000000081526001600160a01b038581166004830152336024830152604482018590529091169063d9caed1290606401600060405180830381600087803b15801561242757600080fd5b505af115801561243b573d6000803e3d6000fd5b505050506109828585612bb4565b600054610100900460ff166124b45760405162461bcd60e51b815260206004820152602b60248201527f496e697469616c697a61626c653a20636f6e7472616374206973206e6f74206960448201526a6e697469616c697a696e6760a81b606482015260840161085e565b80516124bf90612bdc565b6124c7612cbe565b6124d48160200151612d33565b6124e18160400151612da7565b6124ee8160600151612e1b565b6124fb8160800151612e8f565b6125088160a00151612f03565b61251181612f77565b50565b600054610100900460ff1661257f5760405162461bcd60e51b815260206004820152602b60248201527f496e697469616c697a61626c653a20636f6e7472616374206973206e6f74206960448201526a6e697469616c697a696e6760a81b606482015260840161085e565b6109ca816116cd565b600080546040517f28522895000000000000000000000000000000000000000000000000000000008152620100009091046001600160a01b0316906328522895906125dd908790309088908890600401615557565b602060405180830381865afa1580156125fa573d6000803e3d6000fd5b505050506040513d601f19601f8201168201806040525081019061261e91906155b5565b949350505050565b600061261e6126386201518084615601565b612fe2565b600080806126516126386201518086615601565b509150915061261e828261309c565b600061117b836001600160a01b038416613122565b600061117b836001600160a01b03841661321c565b60006001600160a01b0384161580156126a1575082155b80156126ab575081155b905060006001600160a01b038516158015906126cf57508215806126cf5750838310155b9050811580156126dd575080155b1561272d576040517fca1f04830000000000000000000000000000000000000000000000000000000081526001600160a01b0386166004820152602481018590526044810184905260640161085e565b505083547fffffffffffffffffffffffff0000000000000000000000000000000000000000166001600160a01b03939093169290921783556001830155600290910155565b60006001600160a01b038416158015612789575082155b8015612793575081155b905060006001600160a01b038516158015906127af5750600084115b80156127bb5750600083115b9050811580156127c9575080155b15612819576040517ff5deb5dc0000000000000000000000000000000000000000000000000000000081526001600160a01b0386166004820152602481018590526044810184905260640161085e565b600386018390556001860184905581156128405760006002870181905560048701556128ac565b8560040154600003612867576000600287015561285d8342615615565b60048701556128ac565b85546001600160a01b038681169116146128ac578554600090612893906001600160a01b03168761326b565b60028801549091506128a59082613277565b6002880155505b505083547fffffffffffffffffffffffff0000000000000000000000000000000000000000166001600160a01b0393909316929092179092555050565b80821480156128f757508115155b15612931576040517f0fb49edb0000000000000000000000000000000000000000000000000000000081526004810183905260240161085e565b60028290556003819055604051819083907ff950a929751d87db181a0a517df21bb3ecd433abba584594402db4b58a55483590600090a35050565b61297682826132ed565b61298082826132f7565b61298a8282613334565b6129948282613430565b61299e8282613683565b6129a882826136cd565b6109ca82826137ba565b80471015612a025760405162461bcd60e51b815260206004820152601d60248201527f416464726573733a20696e73756666696369656e742062616c616e6365000000604482015260640161085e565b6000826001600160a01b03168260405160006040518083038185875af1925050503d8060008114612a4f576040519150601f19603f3d011682016040523d82523d6000602084013e612a54565b606091505b50509050806109335760405162461bcd60e51b815260206004820152603a60248201527f416464726573733a20756e61626c6520746f2073656e642076616c75652c207260448201527f6563697069656e74206d61792068617665207265766572746564000000000000606482015260840161085e565b600154604080517f17fcb39b00000000000000000000000000000000000000000000000000000000815290516000926001600160a01b0316916317fcb39b9160048083019260209291908290030181865afa158015612b2e573d6000803e3d6000fd5b505050506040513d601f19601f82011682018060405250810190612b529190615628565b905090565b6000612b64826020615615565b83511015612bab5782516040517f9b722da700000000000000000000000000000000000000000000000000000000815261085e918491600401918252602082015260400190565b50016020015190565b612bbe82826138d0565b612bc88282613972565b612bd28282613994565b6109ca8282613bd3565b600054610100900460ff16612c475760405162461bcd60e51b815260206004820152602b60248201527f496e697469616c697a61626c653a20636f6e7472616374206973206e6f74206960448201526a6e697469616c697a696e6760a81b606482015260840161085e565b612cb581600001516001600160a01b031663d09edf316040518163ffffffff1660e01b8152600401602060405180830381865afa158015612c8c573d6000803e3d6000fd5b505050506040513d601f19601f82011682018060405250810190612cb09190615628565b613c00565b61251181613c74565b600054610100900460ff16612d295760405162461bcd60e51b815260206004820152602b60248201527f496e697469616c697a61626c653a20636f6e7472616374206973206e6f74206960448201526a6e697469616c697a696e6760a81b606482015260840161085e565b612d31613d2c565b565b600054610100900460ff16612d9e5760405162461bcd60e51b815260206004820152602b60248201527f496e697469616c697a61626c653a20636f6e7472616374206973206e6f74206960448201526a6e697469616c697a696e6760a81b606482015260840161085e565b61251181613d97565b600054610100900460ff16612e125760405162461bcd60e51b815260206004820152602b60248201527f496e697469616c697a61626c653a20636f6e7472616374206973206e6f74206960448201526a6e697469616c697a696e6760a81b606482015260840161085e565b61251181613e1e565b600054610100900460ff16612e865760405162461bcd60e51b815260206004820152602b60248201527f496e697469616c697a61626c653a20636f6e7472616374206973206e6f74206960448201526a6e697469616c697a696e6760a81b606482015260840161085e565b61251181613ea5565b600054610100900460ff16612efa5760405162461bcd60e51b815260206004820152602b60248201527f496e697469616c697a61626c653a20636f6e7472616374206973206e6f74206960448201526a6e697469616c697a696e6760a81b606482015260840161085e565b61251181613f65565b600054610100900460ff16612f6e5760405162461bcd60e51b815260206004820152602b60248201527f496e697469616c697a61626c653a20636f6e7472616374206973206e6f74206960448201526a6e697469616c697a696e6760a81b606482015260840161085e565b61251181614055565b600054610100900460ff166125115760405162461bcd60e51b815260206004820152602b60248201527f496e697469616c697a61626c653a20636f6e7472616374206973206e6f74206960448201526a6e697469616c697a696e6760a81b606482015260840161085e565b60008080836226496581018262023ab1600483020590506004600362023ab18302010590910390600062164b09610fa0600185010205905060046105b58202058303601f019250600061098f846050028161303f5761303f6155d2565b0590506000605061098f83020585039050600b82057fffffffffffffffffffffffffffffffffffffffffffffffffffffffffffffffcf94909401606402929092018301996002600c90940290910392909201975095509350505050565b600081600114806130ad5750816003145b806130b85750816005145b806130c35750816007145b806130ce5750816008145b806130d9575081600a145b806130e4575081600c145b156130f15750601f610e71565b816002146131015750601e610e71565b61310a83614145565b61311557601c613118565b601d5b60ff169392505050565b6000818152600183016020526040812054801561320b576000613146600183615645565b855490915060009061315a90600190615645565b90508181146131bf57600086600001828154811061317a5761317a6152f4565b906000526020600020015490508087600001848154811061319d5761319d6152f4565b6000918252602080832090910192909255918252600188019052604090208390555b85548690806131d0576131d0615658565b600190038181906000526020600020016000905590558560010160008681526020019081526020016000206000905560019350505050610e71565b6000915050610e71565b5092915050565b600081815260018301602052604081205461326357508154600181810184556000848152602080822090930184905584548482528286019093526040902091909155610e71565b506000610e71565b600061117b8383614181565b6000828202831580159061329a575082848281613296576132966155d2565b0414155b156132db576040517fe8e4a4fa000000000000000000000000000000000000000000000000000000008152600481018590526024810184905260440161085e565b670de0b6b3a764000090049392505050565b6109ca8282614398565b60045460ff16156109ca576040517fc0f2312800000000000000000000000000000000000000000000000000000000815260040160405180910390fd5b5a600555604080516080810182526006548082526007546020830152600854928201929092526009546060820152906000901580613373575081513a11155b9050806133b85781516040517fcbb35eb70000000000000000000000000000000000000000000000000000000081523a6004820152602481019190915260440161085e565b60006133c4483a615645565b905060008360200151600014806133df575083602001518211155b9050806134285760208401516040517f56e5387f00000000000000000000000000000000000000000000000000000000815261085e918491600401918252602082015260400190565b505050505050565b600a54600b54600c54600e5460ff9093169242821115613485576040517f013ce60b0000000000000000000000000000000000000000000000000000000081524260048201526024810183905260440161085e565b60008460028111156134995761349961511f565b0361356b57826000036134ae57505050505050565b806000036134c8576134c08342615615565b600d55613428565b60006134d48342615645565b905060006134e28583615601565b905060006134f08683615540565b6134fa9084615645565b90508381111561353f576040517f013ce60b0000000000000000000000000000000000000000000000000000000081524260048201526024810186905260440161085e565b8561354b836001615615565b6135559190615540565b61355f9086615615565b600d5550613428915050565b81421015801561358457506135808183615615565b4211155b15613593576134c0828461442d565b600060018560028111156135a9576135a961511f565b146135bc576135b74261263d565b6135c5565b6135c583612626565b905060006135d384836144c5565b905080421015613618576040517f013ce60b0000000000000000000000000000000000000000000000000000000081524260048201526024810182905260440161085e565b60006136248483615615565b9050428110801561366a576040517f013ce60b0000000000000000000000000000000000000000000000000000000081524260048201526024810183905260440161085e565b613674838861442d565b600d5550505050505050505050565b61368c82611137565b6109ca576040517f7a2410450000000000000000000000000000000000000000000000000000000081526001600160a01b038316600482015260240161085e565b60006136d883611ad9565b80519091506001600160a01b03166136ef57505050565b6000836001600160a01b031682600001516001600160a01b03161461372b5761372661371f85846000015161326b565b8490613277565b61372d565b825b9050600082602001518210158015613755575060408301511580613755575082604001518211155b905080610982578251602084015160408086015190517f7c63a4b00000000000000000000000000000000000000000000000000000000081526001600160a01b039093166004840152602483018590526044830191909152606482015260840161085e565b60006137c583611d8c565b6040805160a08101825282546001600160a01b03168082526001840154602083015260028401549282019290925260038301546060820152600490920154608083015290915061381457505050565b6000836001600160a01b031682600001516001600160a01b0316146138495761384461371f85846000015161326b565b61384b565b825b9050600082608001514210613861576000613867565b82604001515b6138719083615615565b9050826020015181111561098257825160208401516040517fb8858d5d0000000000000000000000000000000000000000000000000000000081526001600160a01b03909216600483015260248201526044810182905260640161085e565b60006138db83611d8c565b80549091506001600160a01b03166138f257505050565b80546000906001600160a01b038581169116146139285781546139239061371f9086906001600160a01b031661326b565b61392a565b825b9050816004015442106139535760006002830155600382015461394d9042615615565b60048301555b808260020160008282546139679190615615565b909155505050505050565b600d54600003613980575050565b61398b600d546144e4565b50506000600d55565b6005546000036139d0576040517f1f5b8fc600000000000000000000000000000000000000000000000000000000815260040160405180910390fd5b604080516080810182526006548152600754602082015260085491810191909152600954606082015260005a600554613a099190615645565b90506000613a173a83615540565b90506000836040015160001480613a32575083604001518211155b905080613a7c578184604001516040517faf258ef200000000000000000000000000000000000000000000000000000000815260040161085e929190918252602082015260400190565b6000600555606084015115801590613a945750600085115b15613428576000613b67306001600160a01b0316634fd49efd6040518163ffffffff1660e01b8152600401602060405180830381865afa158015613adc573d6000803e3d6000fd5b505050506040513d601f19601f82011682018060405250810190613b009190615628565b6001600160a01b03166317fcb39b6040518163ffffffff1660e01b8152600401602060405180830381865afa158015613b3d573d6000803e3d6000fd5b505050506040513d601f19601f82011682018060405250810190613b619190615628565b8861326b565b90506000613b758483614519565b90506000613b8382896145c2565b9050866060015181111561112c5760608701516040517f0297747f00000000000000000000000000000000000000000000000000000000815261085e918391600401918252602082015260400190565b6040517f68f46c45a243a0e9065a97649faf9a5afe1692f2679e650c2f853b9cd734cc0e90600090a15050565b600054610100900460ff16613c6b5760405162461bcd60e51b815260206004820152602b60248201527f496e697469616c697a61626c653a20636f6e7472616374206973206e6f74206960448201526a6e697469616c697a696e6760a81b606482015260840161085e565b6125118161468b565b600054610100900460ff16613cdf5760405162461bcd60e51b815260206004820152602b60248201527f496e697469616c697a61626c653a20636f6e7472616374206973206e6f74206960448201526a6e697469616c697a696e6760a81b606482015260840161085e565b8051600180547fffffffffffffffffffffffff0000000000000000000000000000000000000000166001600160a01b03909216919091179055602081015160408201516125119190611bd0565b600054610100900460ff16612d315760405162461bcd60e51b815260206004820152602b60248201527f496e697469616c697a61626c653a20636f6e7472616374206973206e6f74206960448201526a6e697469616c697a696e6760a81b606482015260840161085e565b600054610100900460ff16613e025760405162461bcd60e51b815260206004820152602b60248201527f496e697469616c697a61626c653a20636f6e7472616374206973206e6f74206960448201526a6e697469616c697a696e6760a81b606482015260840161085e565b6125118160000151826020015183604001518460600151611dc0565b600054610100900460ff16613e895760405162461bcd60e51b815260206004820152602b60248201527f496e697469616c697a61626c653a20636f6e7472616374206973206e6f74206960448201526a6e697469616c697a696e6760a81b606482015260840161085e565b61251181600001518260200151836040015184606001516112f2565b600054610100900460ff16613f105760405162461bcd60e51b815260206004820152602b60248201527f496e697469616c697a61626c653a20636f6e7472616374206973206e6f74206960448201526a6e697469616c697a696e6760a81b606482015260840161085e565b8051613f1b9061199e565b60005b8160200151518110156109ca57613f5382602001518281518110613f4457613f446152f4565b6020026020010151600161178b565b80613f5d81615352565b915050613f1e565b600054610100900460ff16613fd05760405162461bcd60e51b815260206004820152602b60248201527f496e697469616c697a61626c653a20636f6e7472616374206973206e6f74206960448201526a6e697469616c697a696e6760a81b606482015260840161085e565b8051805160208201516040830151613fe9929190611d38565b60005b82602001515181101561093357600083602001518281518110614011576140116152f4565b60200260200101519050600081602001519050614040826000015182600001518360200151846040015161189e565b5050808061404d90615352565b915050613fec565b600054610100900460ff166140c05760405162461bcd60e51b815260206004820152602b60248201527f496e697469616c697a61626c653a20636f6e7472616374206973206e6f74206960448201526a6e697469616c697a696e6760a81b606482015260840161085e565b80518051602082015160408301516140d9929190611ce2565b60005b82602001515181101561093357600083602001518281518110614101576141016152f4565b602002602001015190506000816020015190506141308260000151826000015183602001518460400151611a19565b5050808061413d90615352565b9150506140dc565b6000614152600483615687565b1580156141685750614165606483615687565b15155b80610e71575061417a61019083615687565b1592915050565b600080600160009054906101000a90046001600160a01b03166001600160a01b0316632630c12f6040518163ffffffff1660e01b8152600401602060405180830381865afa1580156141d7573d6000803e3d6000fd5b505050506040513d601f19601f820116820180604052508101906141fb9190615628565b90506001600160a01b03811661424c576001546040517f38d2baae0000000000000000000000000000000000000000000000000000000081526001600160a01b03909116600482015260240161085e565b6000614256614736565b905080516000146142e757816001600160a01b031663355efdd961427987612299565b61428287612299565b846040518463ffffffff1660e01b81526004016142a19392919061569b565b602060405180830381865afa1580156142be573d6000803e3d6000fd5b505050506040513d601f19601f820116820180604052508101906142e2919061538a565b61438f565b816001600160a01b031663ac41865a6142ff87612299565b61430887612299565b6040517fffffffff0000000000000000000000000000000000000000000000000000000060e085901b1681526001600160a01b03928316600482015291166024820152604401602060405180830381865afa15801561436b573d6000803e3d6000fd5b505050506040513d601f19601f8201168201806040525081019061438f919061538a565b95945050505050565b600254156109ca576001546002546040517feb056bbb00000000000000000000000000000000000000000000000000000000815260048101919091526001600160a01b03848116602483015260448201849052600060648301529091169063eb056bbb90608401600060405180830381600087803b15801561441957600080fd5b505af1158015613428573d6000803e3d6000fd5b60008060008061443c866147b6565b91945092509050600061444f8684615615565b9050600061445e600c83615687565b9050600061446d600c84615601565b6144779087615615565b905060006002600a5460ff1660028111156144945761449461511f565b1461449f57846144a9565b6144a9828461309c565b90506144b78a8385846147d5565b9a9950505050505050505050565b60008060006144d3426147b6565b509150915061438f858383876147d5565b600c8190556040518181527ff90744bee56935ec5acc9de37b89c0c545298c667ee417bd9469e9c6836ad06490602001611a0e565b6000828202831580159061453c575082848281614538576145386155d2565b0414155b1561457d576040517fe8e4a4fa000000000000000000000000000000000000000000000000000000008152600481018590526024810184905260440161085e565b80156145b857670de0b6b3a76400007fffffffffffffffffffffffffffffffffffffffffffffffffffffffffffffffff82010460010161261e565b6000949350505050565b6000816000036145fe576040517fb8a2f92100000000000000000000000000000000000000000000000000000000815260040160405180910390fd5b8260000361460e57506000610e71565b670de0b6b3a76400008381029084828161462a5761462a6155d2565b041461466c576040517fea7b49e6000000000000000000000000000000000000000000000000000000008152600481018590526024810182905260440161085e565b82600182038161467e5761467e6155d2565b0460010191505092915050565b600054610100900460ff166146f65760405162461bcd60e51b815260206004820152602b60248201527f496e697469616c697a61626c653a20636f6e7472616374206973206e6f74206960448201526a6e697469616c697a696e6760a81b606482015260840161085e565b600080546001600160a01b0390921662010000027fffffffffffffffffffff0000000000000000000000000000000000000000ffff909216919091179055565b606060006147426147fd565b90503681111561476057505060408051600081526020810190915290565b8067ffffffffffffffff811115614779576147796149f8565b6040519080825280601f01601f1916602001820160405280156147a3576020820181803683370190505b5091508060208236030360208401375090565b600080806147c8620151808504612fe2565b9196909550909350915050565b600061438f8484846147e689614818565b6147ef8a614836565b6147f88b614852565b61485f565b6000602436101561480e5750600090565b50601f1936013590565b6000806148286201518084615687565b905061117b610e1082615601565b600080614845610e1084615687565b905061117b603c82615601565b6000610e71603c83615687565b60008161486d603c85615540565b614879610e1087615540565b620151806148888b8b8b6148bb565b6148929190615540565b61489c9190615615565b6148a69190615615565b6148b09190615615565b979650505050505050565b60006107b28410156148cc57600080fd5b838383600062253d8c60046064600c6148e6600e886156c7565b6148f091906156e7565b6148fc8861132461574f565b614906919061574f565b61491091906156e7565b61491b906003615777565b61492591906156e7565b600c80614933600e886156c7565b61493d91906156e7565b61494890600c615777565b6149536002886156c7565b61495d91906156c7565b6149699061016f615777565b61497391906156e7565b6004600c614982600e896156c7565b61498c91906156e7565b614998896112c061574f565b6149a2919061574f565b6149ae906105b5615777565b6149b891906156e7565b6149c4617d4b876156c7565b6149ce919061574f565b6149d8919061574f565b6149e291906156c7565b6149ec91906156c7565b98975050505050505050565b7f4e487b7100000000000000000000000000000000000000000000000000000000600052604160045260246000fd5b6040516080810167ffffffffffffffff81118282101715614a4a57614a4a6149f8565b60405290565b6040805190810167ffffffffffffffff81118282101715614a4a57614a4a6149f8565b60405160c0810167ffffffffffffffff81118282101715614a4a57614a4a6149f8565b604051601f8201601f1916810167ffffffffffffffff81118282101715614abf57614abf6149f8565b604052919050565b6001600160a01b038116811461251157600080fd5b8035614ae781614ac7565b919050565b600060608284031215614afe57600080fd5b6040516060810181811067ffffffffffffffff82111715614b2157614b216149f8565b6040529050808235614b3281614ac7565b8082525060208301356020820152604083013560408201525092915050565b600060808284031215614b6357600080fd5b614b6b614a27565b90508135815260208201356020820152604082013560408201526060820135606082015292915050565b803560ff81168114614ae757600080fd5b600060808284031215614bb857600080fd5b614bc0614a27565b9050614bcb82614b95565b815260208201356020820152604082013560408201526060820135606082015292915050565b803560028110614ae757600080fd5b600067ffffffffffffffff821115614c1a57614c1a6149f8565b5060051b60200190565b600082601f830112614c3557600080fd5b81356020614c4a614c4583614c00565b614a96565b82815260059290921b84018101918181019086841115614c6957600080fd5b8286015b84811015614c8d578035614c8081614ac7565b8352918301918301614c6d565b509695505050505050565b600060408284031215614caa57600080fd5b614cb2614a50565b9050614cbd82614bf1565b8152602082013567ffffffffffffffff811115614cd957600080fd5b614ce584828501614c24565b60208301525092915050565b600060808284031215614d0357600080fd5b614d0b614a50565b90508135614d1881614ac7565b8152614d278360208401614aec565b602082015292915050565b60006080808385031215614d4557600080fd5b614d4d614a50565b9150614d598484614aec565b8252606083013567ffffffffffffffff811115614d7557600080fd5b8301601f81018513614d8657600080fd5b80356020614d96614c4583614c00565b82815260079290921b83018101918181019088841115614db557600080fd5b938201935b83851015614ddb57614dcc8986614cf1565b82529385019390820190614dba565b808388015250505050505092915050565b60006080808385031215614dff57600080fd5b614e07614a50565b9150614e138484614aec565b8252606083013567ffffffffffffffff811115614e2f57600080fd5b8301601f81018513614e4057600080fd5b80356020614e50614c4583614c00565b82815260079290921b83018101918181019088841115614e6f57600080fd5b938201935b83851015614ddb57614e868986614cf1565b82529385019390820190614e74565b60008060408385031215614ea857600080fd5b823567ffffffffffffffff80821115614ec057600080fd5b908401906101c08287031215614ed557600080fd5b614edd614a73565b614ee78784614aec565b8152614ef68760608501614b51565b6020820152614f088760e08501614ba6565b604082015261016083013582811115614f2057600080fd5b614f2c88828601614c98565b60608301525061018083013582811115614f4557600080fd5b614f5188828601614d32565b6080830152506101a083013582811115614f6a57600080fd5b614f7688828601614dec565b60a0830152509350614f8d91505060208401614adc565b90509250929050565b60008060008060808587031215614fac57600080fd5b614fb585614b95565b966020860135965060408601359560600135945092505050565b600060208284031215614fe157600080fd5b813561117b81614ac7565b801515811461251157600080fd5b6000806040838503121561500d57600080fd5b823567ffffffffffffffff8082111561502557600080fd5b61503186838701614c24565b935060209150818501358181111561504857600080fd5b85019050601f8101861361505b57600080fd5b8035615069614c4582614c00565b81815260059190911b8201830190838101908883111561508857600080fd5b928401925b828410156150af5783356150a081614fec565b8252928401929084019061508d565b80955050505050509250929050565b600080600080608085870312156150d457600080fd5b84356150df81614ac7565b935060208501356150ef81614ac7565b93969395505050506040820135916060013590565b60006020828403121561511657600080fd5b61117b82614bf1565b7f4e487b7100000000000000000000000000000000000000000000000000000000600052602160045260246000fd5b6020810160028310615189577f4e487b7100000000000000000000000000000000000000000000000000000000600052602160045260246000fd5b91905290565b600080604083850312156151a257600080fd5b50508035926020909101359150565b6000806000606084860312156151c657600080fd5b83356151d181614ac7565b95602085013595506040909401359392505050565b600080600080608085870312156151fc57600080fd5b5050823594602084013594506040840135936060013592509050565b600067ffffffffffffffff821115615232576152326149f8565b50601f01601f191660200190565b600080600080600060a0868803121561525857600080fd5b853561526381614ac7565b945060208601359350604086013561527a81614ac7565b925060608601359150608086013567ffffffffffffffff81111561529d57600080fd5b8601601f810188136152ae57600080fd5b80356152bc614c4582615218565b8181528960208385010111156152d157600080fd5b816020840160208301376000602083830101528093505050509295509295909350565b7f4e487b7100000000000000000000000000000000000000000000000000000000600052603260045260246000fd5b7f4e487b7100000000000000000000000000000000000000000000000000000000600052601160045260246000fd5b60007fffffffffffffffffffffffffffffffffffffffffffffffffffffffffffffffff820361538357615383615323565b5060010190565b60006020828403121561539c57600080fd5b5051919050565b60005b838110156153be5781810151838201526020016153a6565b50506000910152565b600081518084526153df8160208601602086016153a3565b601f01601f19169290920160200192915050565b60006001600160a01b03808816835280871660208401525084604083015283606083015260a060808301526148b060a08301846153c7565b6001600160a01b038316815260406020820152600061261e60408301846153c7565b60006020828403121561545f57600080fd5b815167ffffffffffffffff81111561547657600080fd5b8201601f8101841361548757600080fd5b8051615495614c4582615218565b8181528560208385010111156154aa57600080fd5b61438f8260208301602086016153a3565b600081518084526020808501945080840160005b838110156154eb578151875295820195908201906001016154cf565b509495945050505050565b6001600160a01b03841681527fffffffff000000000000000000000000000000000000000000000000000000008316602082015260606040820152600061438f60608301846154bb565b8082028115828204841417610e7157610e71615323565b60006001600160a01b0380871683528086166020840152507fffffffff0000000000000000000000000000000000000000000000000000000084166040830152608060608301526155ab60808301846154bb565b9695505050505050565b6000602082840312156155c757600080fd5b815161117b81614fec565b7f4e487b7100000000000000000000000000000000000000000000000000000000600052601260045260246000fd5b600082615610576156106155d2565b500490565b80820180821115610e7157610e71615323565b60006020828403121561563a57600080fd5b815161117b81614ac7565b81810381811115610e7157610e71615323565b7f4e487b7100000000000000000000000000000000000000000000000000000000600052603160045260246000fd5b600082615696576156966155d2565b500690565b60006001600160a01b0380861683528085166020840152506060604083015261438f60608301846153c7565b818103600083128015838313168383128216171561321557613215615323565b6000826156f6576156f66155d2565b7fffffffffffffffffffffffffffffffffffffffffffffffffffffffffffffffff83147f80000000000000000000000000000000000000000000000000000000000000008314161561574a5761574a615323565b500590565b808201828112600083128015821682158216171561576f5761576f615323565b505092915050565b808202600082127f8000000000000000000000000000000000000000000000000000000000000000841416156157af576157af615323565b8181058314821517610e7157610e7161532356fea264697066735822122005a06fd44967c39b5e346875a7eb6111f3d8be5ab5d44ba2878efb5ffcac98d264736f6c63430008110033","opcodes":"PUSH1 0x80 PUSH1 0x40 MSTORE CALLVALUE DUP1 ISZERO PUSH3 0x11 JUMPI PUSH1 0x0 DUP1 REVERT JUMPDEST POP PUSH3 0x1C PUSH3 0x22 JUMP JUMPDEST PUSH3 0xE4 JUMP JUMPDEST PUSH1 0x0 SLOAD PUSH2 0x100 SWAP1 DIV PUSH1 0xFF AND ISZERO PUSH3 0x8F JUMPI PUSH1 0x40 MLOAD PUSH3 0x461BCD PUSH1 0xE5 SHL DUP2 MSTORE PUSH1 0x20 PUSH1 0x4 DUP3 ADD MSTORE PUSH1 0x27 PUSH1 0x24 DUP3 ADD MSTORE PUSH32 0x496E697469616C697A61626C653A20636F6E747261637420697320696E697469 PUSH1 0x44 DUP3 ADD MSTORE PUSH7 0x616C697A696E67 PUSH1 0xC8 SHL PUSH1 0x64 DUP3 ADD MSTORE PUSH1 0x84 ADD PUSH1 0x40 MLOAD DUP1 SWAP2 SUB SWAP1 REVERT JUMPDEST PUSH1 0x0 SLOAD PUSH1 0xFF SWAP1 DUP2 AND LT ISZERO PUSH3 0xE2 JUMPI PUSH1 0x0 DUP1 SLOAD PUSH1 0xFF NOT AND PUSH1 0xFF SWAP1 DUP2 OR SWAP1 SWAP2 SSTORE PUSH1 0x40 MLOAD SWAP1 DUP2 MSTORE PUSH32 0x7F26B83FF96E1F2B6A682F133852F6798A09C465DA95921460CEFB3847402498 SWAP1 PUSH1 0x20 ADD PUSH1 0x40 MLOAD DUP1 SWAP2 SUB SWAP1 LOG1 JUMPDEST JUMP JUMPDEST PUSH2 0x57F9 DUP1 PUSH3 0xF4 PUSH1 0x0 CODECOPY PUSH1 0x0 RETURN INVALID PUSH1 0x80 PUSH1 0x40 MSTORE PUSH1 0x4 CALLDATASIZE LT PUSH2 0x1E7 JUMPI PUSH1 0x0 CALLDATALOAD PUSH1 0xE0 SHR DUP1 PUSH4 0x6AACAAD8 GT PUSH2 0x102 JUMPI DUP1 PUSH4 0xB187BD26 GT PUSH2 0x95 JUMPI DUP1 PUSH4 0xD45A76CF GT PUSH2 0x64 JUMPI DUP1 PUSH4 0xD45A76CF EQ PUSH2 0x743 JUMPI DUP1 PUSH4 0xE6B5BE98 EQ PUSH2 0x763 JUMPI DUP1 PUSH4 0xE788279B EQ PUSH2 0x783 JUMPI DUP1 PUSH4 0xF9EAEE0D EQ PUSH2 0x796 JUMPI PUSH1 0x0 DUP1 REVERT JUMPDEST DUP1 PUSH4 0xB187BD26 EQ PUSH2 0x6B5 JUMPI DUP1 PUSH4 0xC267621E EQ PUSH2 0x6DF JUMPI DUP1 PUSH4 0xD09EDF31 EQ PUSH2 0x6FD JUMPI DUP1 PUSH4 0xD3FEB602 EQ PUSH2 0x723 JUMPI PUSH1 0x0 DUP1 REVERT JUMPDEST DUP1 PUSH4 0x90333BA8 GT PUSH2 0xD1 JUMPI DUP1 PUSH4 0x90333BA8 EQ PUSH2 0x5CE JUMPI DUP1 PUSH4 0xA0C3774F EQ PUSH2 0x5EE JUMPI DUP1 PUSH4 0xA3374177 EQ PUSH2 0x60E JUMPI DUP1 PUSH4 0xA5900C4D EQ PUSH2 0x64E JUMPI PUSH1 0x0 DUP1 REVERT JUMPDEST DUP1 PUSH4 0x6AACAAD8 EQ PUSH2 0x520 JUMPI DUP1 PUSH4 0x7125590A EQ PUSH2 0x579 JUMPI DUP1 PUSH4 0x83F3084F EQ PUSH2 0x599 JUMPI DUP1 PUSH4 0x8456CB59 EQ PUSH2 0x5B9 JUMPI PUSH1 0x0 DUP1 REVERT JUMPDEST DUP1 PUSH4 0x3F4BA83A GT PUSH2 0x17A JUMPI DUP1 PUSH4 0x4FD49EFD GT PUSH2 0x149 JUMPI DUP1 PUSH4 0x4FD49EFD EQ PUSH2 0x442 JUMPI DUP1 PUSH4 0x51A424B1 EQ PUSH2 0x47A JUMPI DUP1 PUSH4 0x5670E2CE EQ PUSH2 0x4BF JUMPI DUP1 PUSH4 0x5EA54EEE EQ PUSH2 0x4E7 JUMPI PUSH1 0x0 DUP1 REVERT JUMPDEST DUP1 PUSH4 0x3F4BA83A EQ PUSH2 0x3A4 JUMPI DUP1 PUSH4 0x423A4B40 EQ PUSH2 0x3B9 JUMPI DUP1 PUSH4 0x42D4693E EQ PUSH2 0x3D9 JUMPI DUP1 PUSH4 0x4A45A3A8 EQ PUSH2 0x400 JUMPI PUSH1 0x0 DUP1 REVERT JUMPDEST DUP1 PUSH4 0x21972384 GT PUSH2 0x1B6 JUMPI DUP1 PUSH4 0x21972384 EQ PUSH2 0x293 JUMPI DUP1 PUSH4 0x221A8C68 EQ PUSH2 0x2B3 JUMPI DUP1 PUSH4 0x2384C32D EQ PUSH2 0x364 JUMPI DUP1 PUSH4 0x30EAE572 EQ PUSH2 0x384 JUMPI PUSH1 0x0 DUP1 REVERT JUMPDEST DUP1 PUSH4 0x8AE15B9 EQ PUSH2 0x1F3 JUMPI DUP1 PUSH4 0xFE105E8 EQ PUSH2 0x215 JUMPI DUP1 PUSH4 0x10188AEF EQ PUSH2 0x235 JUMPI DUP1 PUSH4 0x119A5E96 EQ PUSH2 0x255 JUMPI PUSH1 0x0 DUP1 REVERT JUMPDEST CALLDATASIZE PUSH2 0x1EE JUMPI STOP JUMPDEST PUSH1 0x0 DUP1 REVERT JUMPDEST CALLVALUE DUP1 ISZERO PUSH2 0x1FF JUMPI PUSH1 0x0 DUP1 REVERT JUMPDEST POP PUSH2 0x213 PUSH2 0x20E CALLDATASIZE PUSH1 0x4 PUSH2 0x4E95 JUMP JUMPDEST PUSH2 0x7B6 JUMP JUMPDEST STOP JUMPDEST CALLVALUE DUP1 ISZERO PUSH2 0x221 JUMPI PUSH1 0x0 DUP1 REVERT JUMPDEST POP PUSH2 0x213 PUSH2 0x230 CALLDATASIZE PUSH1 0x4 PUSH2 0x4F96 JUMP JUMPDEST PUSH2 0x938 JUMP JUMPDEST CALLVALUE DUP1 ISZERO PUSH2 0x241 JUMPI PUSH1 0x0 DUP1 REVERT JUMPDEST POP PUSH2 0x213 PUSH2 0x250 CALLDATASIZE PUSH1 0x4 PUSH2 0x4FCF JUMP JUMPDEST PUSH2 0x989 JUMP JUMPDEST CALLVALUE DUP1 ISZERO PUSH2 0x261 JUMPI PUSH1 0x0 DUP1 REVERT JUMPDEST POP PUSH2 0x26A PUSH2 0x9CE JUMP JUMPDEST PUSH1 0x40 DUP1 MLOAD PUSH1 0xFF SWAP1 SWAP6 AND DUP6 MSTORE PUSH1 0x20 DUP6 ADD SWAP4 SWAP1 SWAP4 MSTORE SWAP2 DUP4 ADD MSTORE PUSH1 0x60 DUP3 ADD MSTORE PUSH1 0x80 ADD JUMPDEST PUSH1 0x40 MLOAD DUP1 SWAP2 SUB SWAP1 RETURN JUMPDEST CALLVALUE DUP1 ISZERO PUSH2 0x29F JUMPI PUSH1 0x0 DUP1 REVERT JUMPDEST POP PUSH2 0x213 PUSH2 0x2AE CALLDATASIZE PUSH1 0x4 PUSH2 0x4FFA JUMP JUMPDEST PUSH2 0xA05 JUMP JUMPDEST CALLVALUE DUP1 ISZERO PUSH2 0x2BF JUMPI PUSH1 0x0 DUP1 REVERT JUMPDEST POP PUSH2 0x332 PUSH2 0x2CE CALLDATASIZE PUSH1 0x4 PUSH2 0x4FCF JUMP JUMPDEST PUSH1 0x1 PUSH1 0x1 PUSH1 0xA0 SHL SUB SWAP1 DUP2 AND PUSH1 0x0 SWAP1 DUP2 MSTORE PUSH1 0x1B PUSH1 0x20 SWAP1 DUP2 MSTORE PUSH1 0x40 SWAP2 DUP3 SWAP1 KECCAK256 DUP3 MLOAD PUSH1 0xA0 DUP2 ADD DUP5 MSTORE DUP2 SLOAD SWAP1 SWAP5 AND DUP1 DUP6 MSTORE PUSH1 0x1 DUP3 ADD SLOAD SWAP3 DUP6 ADD DUP4 SWAP1 MSTORE PUSH1 0x2 DUP3 ADD SLOAD SWAP4 DUP6 ADD DUP5 SWAP1 MSTORE PUSH1 0x3 DUP3 ADD SLOAD PUSH1 0x60 DUP7 ADD DUP2 SWAP1 MSTORE PUSH1 0x4 SWAP1 SWAP3 ADD SLOAD PUSH1 0x80 SWAP1 SWAP6 ADD DUP6 SWAP1 MSTORE SWAP5 SWAP2 SWAP4 SWAP1 SWAP2 JUMP JUMPDEST PUSH1 0x40 DUP1 MLOAD PUSH1 0x1 PUSH1 0x1 PUSH1 0xA0 SHL SUB SWAP1 SWAP7 AND DUP7 MSTORE PUSH1 0x20 DUP7 ADD SWAP5 SWAP1 SWAP5 MSTORE SWAP3 DUP5 ADD SWAP2 SWAP1 SWAP2 MSTORE PUSH1 0x60 DUP4 ADD MSTORE PUSH1 0x80 DUP3 ADD MSTORE PUSH1 0xA0 ADD PUSH2 0x28A JUMP JUMPDEST CALLVALUE DUP1 ISZERO PUSH2 0x370 JUMPI PUSH1 0x0 DUP1 REVERT JUMPDEST POP PUSH2 0x213 PUSH2 0x37F CALLDATASIZE PUSH1 0x4 PUSH2 0x50BE JUMP JUMPDEST PUSH2 0xAC8 JUMP JUMPDEST CALLVALUE DUP1 ISZERO PUSH2 0x390 JUMPI PUSH1 0x0 DUP1 REVERT JUMPDEST POP PUSH2 0x213 PUSH2 0x39F CALLDATASIZE PUSH1 0x4 PUSH2 0x5104 JUMP JUMPDEST PUSH2 0xB0F JUMP JUMPDEST CALLVALUE DUP1 ISZERO PUSH2 0x3B0 JUMPI PUSH1 0x0 DUP1 REVERT JUMPDEST POP PUSH2 0x213 PUSH2 0xB64 JUMP JUMPDEST CALLVALUE DUP1 ISZERO PUSH2 0x3C5 JUMPI PUSH1 0x0 DUP1 REVERT JUMPDEST POP PUSH2 0x213 PUSH2 0x3D4 CALLDATASIZE PUSH1 0x4 PUSH2 0x50BE JUMP JUMPDEST PUSH2 0xC21 JUMP JUMPDEST CALLVALUE DUP1 ISZERO PUSH2 0x3E5 JUMPI PUSH1 0x0 DUP1 REVERT JUMPDEST POP PUSH1 0xF SLOAD PUSH2 0x3F3 SWAP1 PUSH1 0xFF AND DUP2 JUMP JUMPDEST PUSH1 0x40 MLOAD PUSH2 0x28A SWAP2 SWAP1 PUSH2 0x514E JUMP JUMPDEST CALLVALUE DUP1 ISZERO PUSH2 0x40C JUMPI PUSH1 0x0 DUP1 REVERT JUMPDEST POP PUSH2 0x434 PUSH32 0x5CF9BC10B1D3C2412D5489F46FAF333DA18B93136AE61AFB88EE8FDE62F3DD41 DUP2 JUMP JUMPDEST PUSH1 0x40 MLOAD SWAP1 DUP2 MSTORE PUSH1 0x20 ADD PUSH2 0x28A JUMP JUMPDEST CALLVALUE DUP1 ISZERO PUSH2 0x44E JUMPI PUSH1 0x0 DUP1 REVERT JUMPDEST POP PUSH1 0x1 SLOAD PUSH2 0x462 SWAP1 PUSH1 0x1 PUSH1 0x1 PUSH1 0xA0 SHL SUB AND DUP2 JUMP JUMPDEST PUSH1 0x40 MLOAD PUSH1 0x1 PUSH1 0x1 PUSH1 0xA0 SHL SUB SWAP1 SWAP2 AND DUP2 MSTORE PUSH1 0x20 ADD PUSH2 0x28A JUMP JUMPDEST CALLVALUE DUP1 ISZERO PUSH2 0x486 JUMPI PUSH1 0x0 DUP1 REVERT JUMPDEST POP PUSH2 0x49A PUSH2 0x495 CALLDATASIZE PUSH1 0x4 PUSH2 0x4FCF JUMP JUMPDEST PUSH2 0xC68 JUMP JUMPDEST PUSH1 0x40 DUP1 MLOAD PUSH1 0x1 PUSH1 0x1 PUSH1 0xA0 SHL SUB SWAP1 SWAP5 AND DUP5 MSTORE PUSH1 0x20 DUP5 ADD SWAP3 SWAP1 SWAP3 MSTORE SWAP1 DUP3 ADD MSTORE PUSH1 0x60 ADD PUSH2 0x28A JUMP JUMPDEST CALLVALUE DUP1 ISZERO PUSH2 0x4CB JUMPI PUSH1 0x0 DUP1 REVERT JUMPDEST POP PUSH1 0x2 SLOAD PUSH1 0x3 SLOAD PUSH1 0x40 DUP1 MLOAD SWAP3 DUP4 MSTORE PUSH1 0x20 DUP4 ADD SWAP2 SWAP1 SWAP2 MSTORE ADD PUSH2 0x28A JUMP JUMPDEST CALLVALUE DUP1 ISZERO PUSH2 0x4F3 JUMPI PUSH1 0x0 DUP1 REVERT JUMPDEST POP PUSH1 0x6 SLOAD PUSH1 0x7 SLOAD PUSH1 0x8 SLOAD PUSH1 0x9 SLOAD PUSH1 0x40 DUP1 MLOAD SWAP5 DUP6 MSTORE PUSH1 0x20 DUP6 ADD SWAP4 SWAP1 SWAP4 MSTORE SWAP2 DUP4 ADD MSTORE PUSH1 0x60 DUP3 ADD MSTORE PUSH1 0x80 ADD PUSH2 0x28A JUMP JUMPDEST CALLVALUE DUP1 ISZERO PUSH2 0x52C JUMPI PUSH1 0x0 DUP1 REVERT JUMPDEST POP PUSH2 0x332 PUSH1 0x40 DUP1 MLOAD PUSH1 0xA0 DUP2 ADD DUP3 MSTORE PUSH1 0x16 SLOAD PUSH1 0x1 PUSH1 0x1 PUSH1 0xA0 SHL SUB AND DUP1 DUP3 MSTORE PUSH1 0x17 SLOAD PUSH1 0x20 DUP4 ADD DUP2 SWAP1 MSTORE PUSH1 0x18 SLOAD SWAP4 DUP4 ADD DUP5 SWAP1 MSTORE PUSH1 0x19 SLOAD PUSH1 0x60 DUP5 ADD DUP2 SWAP1 MSTORE PUSH1 0x1A SLOAD PUSH1 0x80 SWAP1 SWAP5 ADD DUP5 SWAP1 MSTORE SWAP2 SWAP5 SWAP1 SWAP4 SWAP3 SWAP1 JUMP JUMPDEST CALLVALUE DUP1 ISZERO PUSH2 0x585 JUMPI PUSH1 0x0 DUP1 REVERT JUMPDEST POP PUSH2 0x213 PUSH2 0x594 CALLDATASIZE PUSH1 0x4 PUSH2 0x518F JUMP JUMPDEST PUSH2 0xC91 JUMP JUMPDEST CALLVALUE DUP1 ISZERO PUSH2 0x5A5 JUMPI PUSH1 0x0 DUP1 REVERT JUMPDEST POP PUSH1 0x1C SLOAD PUSH2 0x462 SWAP1 PUSH1 0x1 PUSH1 0x1 PUSH1 0xA0 SHL SUB AND DUP2 JUMP JUMPDEST CALLVALUE DUP1 ISZERO PUSH2 0x5C5 JUMPI PUSH1 0x0 DUP1 REVERT JUMPDEST POP PUSH2 0x213 PUSH2 0xCD4 JUMP JUMPDEST CALLVALUE DUP1 ISZERO PUSH2 0x5DA JUMPI PUSH1 0x0 DUP1 REVERT JUMPDEST POP PUSH2 0x213 PUSH2 0x5E9 CALLDATASIZE PUSH1 0x4 PUSH2 0x51B1 JUMP JUMPDEST PUSH2 0xD95 JUMP JUMPDEST CALLVALUE DUP1 ISZERO PUSH2 0x5FA JUMPI PUSH1 0x0 DUP1 REVERT JUMPDEST POP PUSH2 0x434 PUSH2 0x609 CALLDATASIZE PUSH1 0x4 PUSH2 0x4FCF JUMP JUMPDEST PUSH2 0xDE0 JUMP JUMPDEST CALLVALUE DUP1 ISZERO PUSH2 0x61A JUMPI PUSH1 0x0 DUP1 REVERT JUMPDEST POP PUSH2 0x49A PUSH1 0x40 DUP1 MLOAD PUSH1 0x60 DUP2 ADD DUP3 MSTORE PUSH1 0x12 SLOAD PUSH1 0x1 PUSH1 0x1 PUSH1 0xA0 SHL SUB AND DUP1 DUP3 MSTORE PUSH1 0x13 SLOAD PUSH1 0x20 DUP4 ADD DUP2 SWAP1 MSTORE PUSH1 0x14 SLOAD SWAP3 SWAP1 SWAP4 ADD DUP3 SWAP1 MSTORE SWAP3 JUMP JUMPDEST CALLVALUE DUP1 ISZERO PUSH2 0x65A JUMPI PUSH1 0x0 DUP1 REVERT JUMPDEST POP PUSH2 0x49A PUSH2 0x669 CALLDATASIZE PUSH1 0x4 PUSH2 0x4FCF JUMP JUMPDEST PUSH1 0x1 PUSH1 0x1 PUSH1 0xA0 SHL SUB DUP1 DUP3 AND PUSH1 0x0 SWAP1 DUP2 MSTORE PUSH1 0x15 PUSH1 0x20 SWAP1 DUP2 MSTORE PUSH1 0x40 SWAP2 DUP3 SWAP1 KECCAK256 DUP3 MLOAD PUSH1 0x60 DUP2 ADD DUP5 MSTORE DUP2 SLOAD SWAP1 SWAP5 AND DUP1 DUP6 MSTORE PUSH1 0x1 DUP3 ADD SLOAD SWAP3 DUP6 ADD DUP4 SWAP1 MSTORE PUSH1 0x2 SWAP1 SWAP2 ADD SLOAD SWAP4 SWAP1 SWAP3 ADD DUP4 SWAP1 MSTORE SWAP1 SWAP4 SWAP1 SWAP3 POP JUMP JUMPDEST CALLVALUE DUP1 ISZERO PUSH2 0x6C1 JUMPI PUSH1 0x0 DUP1 REVERT JUMPDEST POP PUSH1 0x4 SLOAD PUSH2 0x6CF SWAP1 PUSH1 0xFF AND DUP2 JUMP JUMPDEST PUSH1 0x40 MLOAD SWAP1 ISZERO ISZERO DUP2 MSTORE PUSH1 0x20 ADD PUSH2 0x28A JUMP JUMPDEST CALLVALUE DUP1 ISZERO PUSH2 0x6EB JUMPI PUSH1 0x0 DUP1 REVERT JUMPDEST POP PUSH1 0x1 SLOAD PUSH1 0x1 PUSH1 0x1 PUSH1 0xA0 SHL SUB AND PUSH2 0x462 JUMP JUMPDEST CALLVALUE DUP1 ISZERO PUSH2 0x709 JUMPI PUSH1 0x0 DUP1 REVERT JUMPDEST POP PUSH1 0x0 SLOAD PUSH2 0x462 SWAP1 PUSH3 0x10000 SWAP1 DIV PUSH1 0x1 PUSH1 0x1 PUSH1 0xA0 SHL SUB AND DUP2 JUMP JUMPDEST CALLVALUE DUP1 ISZERO PUSH2 0x72F JUMPI PUSH1 0x0 DUP1 REVERT JUMPDEST POP PUSH2 0x213 PUSH2 0x73E CALLDATASIZE PUSH1 0x4 PUSH2 0x51B1 JUMP JUMPDEST PUSH2 0xE77 JUMP JUMPDEST CALLVALUE DUP1 ISZERO PUSH2 0x74F JUMPI PUSH1 0x0 DUP1 REVERT JUMPDEST POP PUSH2 0x332 PUSH2 0x75E CALLDATASIZE PUSH1 0x4 PUSH2 0x4FCF JUMP JUMPDEST PUSH2 0xEBC JUMP JUMPDEST CALLVALUE DUP1 ISZERO PUSH2 0x76F JUMPI PUSH1 0x0 DUP1 REVERT JUMPDEST POP PUSH2 0x213 PUSH2 0x77E CALLDATASIZE PUSH1 0x4 PUSH2 0x51E6 JUMP JUMPDEST PUSH2 0xF2B JUMP JUMPDEST PUSH2 0x213 PUSH2 0x791 CALLDATASIZE PUSH1 0x4 PUSH2 0x5240 JUMP JUMPDEST PUSH2 0xF72 JUMP JUMPDEST CALLVALUE DUP1 ISZERO PUSH2 0x7A2 JUMPI PUSH1 0x0 DUP1 REVERT JUMPDEST POP PUSH2 0x6CF PUSH2 0x7B1 CALLDATASIZE PUSH1 0x4 PUSH2 0x4FCF JUMP JUMPDEST PUSH2 0x1137 JUMP JUMPDEST PUSH1 0x0 SLOAD PUSH2 0x100 SWAP1 DIV PUSH1 0xFF AND ISZERO DUP1 DUP1 ISZERO PUSH2 0x7D6 JUMPI POP PUSH1 0x0 SLOAD PUSH1 0x1 PUSH1 0xFF SWAP1 SWAP2 AND LT JUMPDEST DUP1 PUSH2 0x7F0 JUMPI POP ADDRESS EXTCODESIZE ISZERO DUP1 ISZERO PUSH2 0x7F0 JUMPI POP PUSH1 0x0 SLOAD PUSH1 0xFF AND PUSH1 0x1 EQ JUMPDEST PUSH2 0x867 JUMPI PUSH1 0x40 MLOAD PUSH3 0x461BCD PUSH1 0xE5 SHL DUP2 MSTORE PUSH1 0x20 PUSH1 0x4 DUP3 ADD MSTORE PUSH1 0x2E PUSH1 0x24 DUP3 ADD MSTORE PUSH32 0x496E697469616C697A61626C653A20636F6E747261637420697320616C726561 PUSH1 0x44 DUP3 ADD MSTORE PUSH32 0x647920696E697469616C697A6564000000000000000000000000000000000000 PUSH1 0x64 DUP3 ADD MSTORE PUSH1 0x84 ADD JUMPDEST PUSH1 0x40 MLOAD DUP1 SWAP2 SUB SWAP1 REVERT JUMPDEST PUSH1 0x0 DUP1 SLOAD PUSH32 0xFFFFFFFFFFFFFFFFFFFFFFFFFFFFFFFFFFFFFFFFFFFFFFFFFFFFFFFFFFFFFF00 AND PUSH1 0x1 OR SWAP1 SSTORE DUP1 ISZERO PUSH2 0x8C5 JUMPI PUSH1 0x0 DUP1 SLOAD PUSH32 0xFFFFFFFFFFFFFFFFFFFFFFFFFFFFFFFFFFFFFFFFFFFFFFFFFFFFFFFFFFFF00FF AND PUSH2 0x100 OR SWAP1 SSTORE JUMPDEST PUSH2 0x8CF DUP4 DUP4 PUSH2 0x1182 JUMP JUMPDEST DUP1 ISZERO PUSH2 0x933 JUMPI PUSH1 0x0 DUP1 SLOAD PUSH32 0xFFFFFFFFFFFFFFFFFFFFFFFFFFFFFFFFFFFFFFFFFFFFFFFFFFFFFFFFFFFF00FF AND SWAP1 SSTORE PUSH1 0x40 MLOAD PUSH1 0x1 DUP2 MSTORE PUSH32 0x7F26B83FF96E1F2B6A682F133852F6798A09C465DA95921460CEFB3847402498 SWAP1 PUSH1 0x20 ADD JUMPDEST PUSH1 0x40 MLOAD DUP1 SWAP2 SUB SWAP1 LOG1 JUMPDEST POP POP POP JUMP JUMPDEST PUSH2 0x947 DUP5 PUSH1 0xFF AND DUP5 DUP5 DUP5 PUSH2 0x1200 JUMP JUMPDEST PUSH2 0x976 CALLER PUSH1 0x0 CALLDATALOAD PUSH32 0xFFFFFFFF00000000000000000000000000000000000000000000000000000000 AND DUP4 PUSH2 0x12AB JUMP JUMPDEST PUSH2 0x982 DUP6 DUP6 DUP6 DUP6 PUSH2 0x12F2 JUMP JUMPDEST POP POP POP POP POP JUMP JUMPDEST PUSH2 0x992 DUP2 PUSH2 0x16B9 JUMP JUMPDEST PUSH2 0x9C1 CALLER PUSH1 0x0 CALLDATALOAD PUSH32 0xFFFFFFFF00000000000000000000000000000000000000000000000000000000 AND DUP4 PUSH2 0x12AB JUMP JUMPDEST PUSH2 0x9CA DUP3 PUSH2 0x16CD JUMP JUMPDEST POP POP JUMP JUMPDEST PUSH1 0xA SLOAD PUSH1 0x0 SWAP1 DUP2 SWAP1 DUP2 SWAP1 DUP2 SWAP1 PUSH1 0xFF AND PUSH1 0x2 DUP2 GT ISZERO PUSH2 0x9EE JUMPI PUSH2 0x9EE PUSH2 0x511F JUMP JUMPDEST PUSH1 0xB SLOAD PUSH1 0xC SLOAD PUSH1 0xE SLOAD SWAP4 POP SWAP4 POP SWAP4 POP SWAP4 POP SWAP1 SWAP2 SWAP3 SWAP4 JUMP JUMPDEST PUSH2 0xA33 CALLER PUSH1 0x0 CALLDATALOAD PUSH32 0xFFFFFFFF00000000000000000000000000000000000000000000000000000000 AND PUSH2 0x176F JUMP JUMPDEST DUP1 MLOAD DUP3 MLOAD EQ PUSH2 0xA6E JUMPI PUSH1 0x40 MLOAD PUSH32 0x5D32021A00000000000000000000000000000000000000000000000000000000 DUP2 MSTORE PUSH1 0x4 ADD PUSH1 0x40 MLOAD DUP1 SWAP2 SUB SWAP1 REVERT JUMPDEST PUSH1 0x0 JUMPDEST DUP3 MLOAD DUP2 LT ISZERO PUSH2 0x933 JUMPI PUSH2 0xAB6 DUP4 DUP3 DUP2 MLOAD DUP2 LT PUSH2 0xA8F JUMPI PUSH2 0xA8F PUSH2 0x52F4 JUMP JUMPDEST PUSH1 0x20 MUL PUSH1 0x20 ADD ADD MLOAD DUP4 DUP4 DUP2 MLOAD DUP2 LT PUSH2 0xAA9 JUMPI PUSH2 0xAA9 PUSH2 0x52F4 JUMP JUMPDEST PUSH1 0x20 MUL PUSH1 0x20 ADD ADD MLOAD PUSH2 0x178B JUMP JUMPDEST DUP1 PUSH2 0xAC0 DUP2 PUSH2 0x5352 JUMP JUMPDEST SWAP2 POP POP PUSH2 0xA71 JUMP JUMPDEST PUSH2 0xAD4 DUP5 DUP5 DUP5 DUP5 PUSH2 0x1835 JUMP JUMPDEST PUSH2 0xB03 CALLER PUSH1 0x0 CALLDATALOAD PUSH32 0xFFFFFFFF00000000000000000000000000000000000000000000000000000000 AND DUP4 PUSH2 0x12AB JUMP JUMPDEST PUSH2 0x982 DUP6 DUP6 DUP6 DUP6 PUSH2 0x189E JUMP JUMPDEST PUSH2 0xB2C DUP2 PUSH1 0x1 DUP2 GT ISZERO PUSH2 0xB24 JUMPI PUSH2 0xB24 PUSH2 0x511F JUMP JUMPDEST PUSH1 0xFF AND PUSH2 0x1957 JUMP JUMPDEST PUSH2 0xB5B CALLER PUSH1 0x0 CALLDATALOAD PUSH32 0xFFFFFFFF00000000000000000000000000000000000000000000000000000000 AND DUP4 PUSH2 0x12AB JUMP JUMPDEST PUSH2 0x9CA DUP3 PUSH2 0x199E JUMP JUMPDEST PUSH2 0xB92 CALLER PUSH1 0x0 CALLDATALOAD PUSH32 0xFFFFFFFF00000000000000000000000000000000000000000000000000000000 AND PUSH2 0x176F JUMP JUMPDEST PUSH1 0x4 SLOAD PUSH1 0xFF AND PUSH2 0xBCE JUMPI PUSH1 0x40 MLOAD PUSH32 0x9E6558BD00000000000000000000000000000000000000000000000000000000 DUP2 MSTORE PUSH1 0x4 ADD PUSH1 0x40 MLOAD DUP1 SWAP2 SUB SWAP1 REVERT JUMPDEST PUSH1 0x4 DUP1 SLOAD PUSH32 0xFFFFFFFFFFFFFFFFFFFFFFFFFFFFFFFFFFFFFFFFFFFFFFFFFFFFFFFFFFFFFF00 AND SWAP1 SSTORE PUSH1 0x40 MLOAD PUSH32 0xA45F47FDEA8A1EFDD9029A5691C7F759C32B7C698632B563573E155625D16933 SWAP1 PUSH1 0x0 SWAP1 LOG1 JUMP JUMPDEST PUSH2 0xC2D DUP5 DUP5 DUP5 DUP5 PUSH2 0x1835 JUMP JUMPDEST PUSH2 0xC5C CALLER PUSH1 0x0 CALLDATALOAD PUSH32 0xFFFFFFFF00000000000000000000000000000000000000000000000000000000 AND DUP4 PUSH2 0x12AB JUMP JUMPDEST PUSH2 0x982 DUP6 DUP6 DUP6 DUP6 PUSH2 0x1A19 JUMP JUMPDEST PUSH1 0x0 DUP1 PUSH1 0x0 DUP1 PUSH2 0xC77 DUP6 PUSH2 0x1AD9 JUMP JUMPDEST DUP1 MLOAD PUSH1 0x20 DUP3 ADD MLOAD PUSH1 0x40 SWAP1 SWAP3 ADD MLOAD SWAP1 SWAP8 SWAP2 SWAP7 POP SWAP5 POP SWAP3 POP POP POP JUMP JUMPDEST PUSH2 0xC9B DUP3 DUP3 PUSH2 0x1B64 JUMP JUMPDEST PUSH2 0xCCA CALLER PUSH1 0x0 CALLDATALOAD PUSH32 0xFFFFFFFF00000000000000000000000000000000000000000000000000000000 AND DUP4 PUSH2 0x12AB JUMP JUMPDEST PUSH2 0x933 DUP4 DUP4 PUSH2 0x1BD0 JUMP JUMPDEST PUSH2 0xD02 CALLER PUSH1 0x0 CALLDATALOAD PUSH32 0xFFFFFFFF00000000000000000000000000000000000000000000000000000000 AND PUSH2 0x176F JUMP JUMPDEST PUSH1 0x4 SLOAD PUSH1 0xFF AND ISZERO PUSH2 0xD3F JUMPI PUSH1 0x40 MLOAD PUSH32 0xC0F2312800000000000000000000000000000000000000000000000000000000 DUP2 MSTORE PUSH1 0x4 ADD PUSH1 0x40 MLOAD DUP1 SWAP2 SUB SWAP1 REVERT JUMPDEST PUSH1 0x4 DUP1 SLOAD PUSH32 0xFFFFFFFFFFFFFFFFFFFFFFFFFFFFFFFFFFFFFFFFFFFFFFFFFFFFFFFFFFFFFF00 AND PUSH1 0x1 OR SWAP1 SSTORE PUSH1 0x40 MLOAD PUSH32 0x9E87FAC88FF661F02D44F95383C817FECE4BCE600A3DAB7A54406878B965E752 SWAP1 PUSH1 0x0 SWAP1 LOG1 JUMP JUMPDEST PUSH2 0xDA0 DUP4 DUP4 DUP4 PUSH2 0x1C50 JUMP JUMPDEST PUSH2 0xDCF CALLER PUSH1 0x0 CALLDATALOAD PUSH32 0xFFFFFFFF00000000000000000000000000000000000000000000000000000000 AND DUP4 PUSH2 0x12AB JUMP JUMPDEST PUSH2 0xDDA DUP5 DUP5 DUP5 PUSH2 0x1CE2 JUMP JUMPDEST POP POP POP POP JUMP JUMPDEST PUSH1 0x1 SLOAD PUSH1 0x2 SLOAD PUSH1 0x40 MLOAD PUSH31 0xBC489400000000000000000000000000000000000000000000000000000000 DUP2 MSTORE PUSH1 0x4 DUP2 ADD SWAP2 SWAP1 SWAP2 MSTORE PUSH1 0x1 PUSH1 0x1 PUSH1 0xA0 SHL SUB DUP4 DUP2 AND PUSH1 0x24 DUP4 ADD MSTORE PUSH1 0x0 SWAP3 AND SWAP1 PUSH3 0xBC4894 SWAP1 PUSH1 0x44 ADD PUSH1 0x20 PUSH1 0x40 MLOAD DUP1 DUP4 SUB DUP2 DUP7 GAS STATICCALL ISZERO DUP1 ISZERO PUSH2 0xE4D JUMPI RETURNDATASIZE PUSH1 0x0 DUP1 RETURNDATACOPY RETURNDATASIZE PUSH1 0x0 REVERT JUMPDEST POP POP POP POP PUSH1 0x40 MLOAD RETURNDATASIZE PUSH1 0x1F NOT PUSH1 0x1F DUP3 ADD AND DUP3 ADD DUP1 PUSH1 0x40 MSTORE POP DUP2 ADD SWAP1 PUSH2 0xE71 SWAP2 SWAP1 PUSH2 0x538A JUMP JUMPDEST SWAP3 SWAP2 POP POP JUMP JUMPDEST PUSH2 0xE82 DUP4 DUP4 DUP4 PUSH2 0x1C50 JUMP JUMPDEST PUSH2 0xEB1 CALLER PUSH1 0x0 CALLDATALOAD PUSH32 0xFFFFFFFF00000000000000000000000000000000000000000000000000000000 AND DUP4 PUSH2 0x12AB JUMP JUMPDEST PUSH2 0xDDA DUP5 DUP5 DUP5 PUSH2 0x1D38 JUMP JUMPDEST PUSH1 0x0 DUP1 PUSH1 0x0 DUP1 PUSH1 0x0 DUP1 PUSH2 0xECE DUP8 PUSH2 0x1D8C JUMP JUMPDEST PUSH1 0x40 DUP1 MLOAD PUSH1 0xA0 DUP2 ADD DUP3 MSTORE DUP3 SLOAD PUSH1 0x1 PUSH1 0x1 PUSH1 0xA0 SHL SUB AND DUP1 DUP3 MSTORE PUSH1 0x1 DUP5 ADD SLOAD PUSH1 0x20 DUP4 ADD DUP2 SWAP1 MSTORE PUSH1 0x2 DUP6 ADD SLOAD SWAP4 DUP4 ADD DUP5 SWAP1 MSTORE PUSH1 0x3 DUP6 ADD SLOAD PUSH1 0x60 DUP5 ADD DUP2 SWAP1 MSTORE PUSH1 0x4 SWAP1 SWAP6 ADD SLOAD PUSH1 0x80 SWAP1 SWAP4 ADD DUP4 SWAP1 MSTORE SWAP1 SWAP12 SWAP1 SWAP11 POP SWAP2 SWAP9 POP SWAP2 SWAP7 POP SWAP1 SWAP5 POP SWAP3 POP POP POP JUMP JUMPDEST PUSH2 0xF37 DUP5 DUP5 DUP5 DUP5 PUSH2 0x1200 JUMP JUMPDEST PUSH2 0xF66 CALLER PUSH1 0x0 CALLDATALOAD PUSH32 0xFFFFFFFF00000000000000000000000000000000000000000000000000000000 AND DUP4 PUSH2 0x12AB JUMP JUMPDEST PUSH2 0x982 DUP6 DUP6 DUP6 DUP6 PUSH2 0x1DC0 JUMP JUMPDEST PUSH2 0xF7C DUP6 DUP5 PUSH2 0x1E5B JUMP JUMPDEST PUSH2 0xFAB CALLER PUSH1 0x0 CALLDATALOAD PUSH32 0xFFFFFFFF00000000000000000000000000000000000000000000000000000000 AND DUP4 PUSH2 0x12AB JUMP JUMPDEST PUSH2 0xFB7 DUP7 DUP7 DUP7 DUP7 PUSH2 0x1EC1 JUMP JUMPDEST PUSH1 0x0 DUP1 PUSH2 0xFC3 DUP9 PUSH2 0x2299 JUMP JUMPDEST SWAP1 POP PUSH1 0x0 PUSH2 0xFD0 DUP8 PUSH2 0x2299 JUMP JUMPDEST SWAP1 POP DUP1 PUSH1 0x1 PUSH1 0x1 PUSH1 0xA0 SHL SUB AND DUP3 PUSH1 0x1 PUSH1 0x1 PUSH1 0xA0 SHL SUB AND SUB PUSH2 0xFF3 JUMPI DUP8 SWAP3 POP PUSH2 0x111F JUMP JUMPDEST PUSH1 0x0 PUSH4 0xF48221A3 PUSH1 0xE0 SHL DUP4 DUP4 DUP12 DUP11 DUP11 PUSH1 0x40 MLOAD PUSH1 0x24 ADD PUSH2 0x1016 SWAP6 SWAP5 SWAP4 SWAP3 SWAP2 SWAP1 PUSH2 0x53F3 JUMP JUMPDEST PUSH1 0x40 DUP1 MLOAD PUSH1 0x1F NOT DUP2 DUP5 SUB ADD DUP2 MSTORE SWAP2 DUP2 MSTORE PUSH1 0x20 DUP3 ADD DUP1 MLOAD PUSH28 0xFFFFFFFFFFFFFFFFFFFFFFFFFFFFFFFFFFFFFFFFFFFFFFFFFFFFFFFF AND PUSH32 0xFFFFFFFF00000000000000000000000000000000000000000000000000000000 SWAP1 SWAP5 AND SWAP4 SWAP1 SWAP4 OR SWAP1 SWAP3 MSTORE PUSH1 0x1 SLOAD PUSH1 0x1C SLOAD SWAP3 MLOAD PUSH32 0x1CFF79CD00000000000000000000000000000000000000000000000000000000 DUP2 MSTORE SWAP2 SWAP4 POP PUSH1 0x0 SWAP3 PUSH1 0x1 PUSH1 0x1 PUSH1 0xA0 SHL SUB SWAP2 DUP3 AND SWAP3 PUSH4 0x1CFF79CD SWAP3 PUSH2 0x10C8 SWAP3 AND SWAP1 DUP7 SWAP1 PUSH1 0x4 ADD PUSH2 0x542B JUMP JUMPDEST PUSH1 0x0 PUSH1 0x40 MLOAD DUP1 DUP4 SUB DUP2 PUSH1 0x0 DUP8 GAS CALL ISZERO DUP1 ISZERO PUSH2 0x10E7 JUMPI RETURNDATASIZE PUSH1 0x0 DUP1 RETURNDATACOPY RETURNDATASIZE PUSH1 0x0 REVERT JUMPDEST POP POP POP POP PUSH1 0x40 MLOAD RETURNDATASIZE PUSH1 0x0 DUP3 RETURNDATACOPY PUSH1 0x1F RETURNDATASIZE SWAP1 DUP2 ADD PUSH1 0x1F NOT AND DUP3 ADD PUSH1 0x40 MSTORE PUSH2 0x110F SWAP2 SWAP1 DUP2 ADD SWAP1 PUSH2 0x544D JUMP JUMPDEST SWAP1 POP PUSH2 0x111A DUP2 PUSH2 0x22CD JUMP JUMPDEST SWAP5 POP POP POP JUMPDEST PUSH2 0x112C DUP10 DUP10 DUP10 DUP7 DUP11 PUSH2 0x22DA JUMP JUMPDEST POP POP POP POP POP POP POP POP POP JUMP JUMPDEST PUSH1 0x1 PUSH1 0x1 PUSH1 0xA0 SHL SUB DUP2 AND PUSH1 0x0 SWAP1 DUP2 MSTORE PUSH1 0x11 PUSH1 0x20 MSTORE PUSH1 0x40 DUP2 KECCAK256 SLOAD PUSH1 0xF SLOAD SWAP1 ISZERO ISZERO SWAP1 PUSH1 0x1 SWAP1 PUSH1 0xFF AND DUP2 DUP2 GT ISZERO PUSH2 0x116D JUMPI PUSH2 0x116D PUSH2 0x511F JUMP JUMPDEST EQ PUSH2 0x1179 JUMPI DUP1 ISZERO PUSH2 0x117B JUMP JUMPDEST DUP1 JUMPDEST SWAP4 SWAP3 POP POP POP JUMP JUMPDEST PUSH1 0x0 SLOAD PUSH2 0x100 SWAP1 DIV PUSH1 0xFF AND PUSH2 0x11ED JUMPI PUSH1 0x40 MLOAD PUSH3 0x461BCD PUSH1 0xE5 SHL DUP2 MSTORE PUSH1 0x20 PUSH1 0x4 DUP3 ADD MSTORE PUSH1 0x2B PUSH1 0x24 DUP3 ADD MSTORE PUSH32 0x496E697469616C697A61626C653A20636F6E7472616374206973206E6F742069 PUSH1 0x44 DUP3 ADD MSTORE PUSH11 0x6E697469616C697A696E67 PUSH1 0xA8 SHL PUSH1 0x64 DUP3 ADD MSTORE PUSH1 0x84 ADD PUSH2 0x85E JUMP JUMPDEST PUSH2 0x11F6 DUP3 PUSH2 0x2449 JUMP JUMPDEST PUSH2 0x9CA DUP3 DUP3 PUSH2 0x2514 JUMP JUMPDEST PUSH1 0x40 DUP1 MLOAD PUSH1 0x4 DUP1 DUP3 MSTORE PUSH1 0xA0 DUP3 ADD SWAP1 SWAP3 MSTORE PUSH1 0x60 SWAP2 PUSH1 0x20 DUP3 ADD PUSH1 0x80 DUP1 CALLDATASIZE DUP4 CALLDATACOPY ADD SWAP1 POP POP SWAP1 POP DUP5 DUP2 PUSH1 0x0 DUP2 MLOAD DUP2 LT PUSH2 0x1237 JUMPI PUSH2 0x1237 PUSH2 0x52F4 JUMP JUMPDEST PUSH1 0x20 MUL PUSH1 0x20 ADD ADD DUP2 DUP2 MSTORE POP POP DUP4 DUP2 PUSH1 0x1 DUP2 MLOAD DUP2 LT PUSH2 0x1257 JUMPI PUSH2 0x1257 PUSH2 0x52F4 JUMP JUMPDEST PUSH1 0x20 MUL PUSH1 0x20 ADD ADD DUP2 DUP2 MSTORE POP POP DUP3 DUP2 PUSH1 0x2 DUP2 MLOAD DUP2 LT PUSH2 0x1277 JUMPI PUSH2 0x1277 PUSH2 0x52F4 JUMP JUMPDEST PUSH1 0x20 MUL PUSH1 0x20 ADD ADD DUP2 DUP2 MSTORE POP POP DUP2 DUP2 PUSH1 0x3 DUP2 MLOAD DUP2 LT PUSH2 0x1297 JUMPI PUSH2 0x1297 PUSH2 0x52F4 JUMP JUMPDEST PUSH1 0x20 MUL PUSH1 0x20 ADD ADD DUP2 DUP2 MSTORE POP POP SWAP5 SWAP4 POP POP POP POP JUMP JUMPDEST PUSH2 0x12B6 DUP4 DUP4 DUP4 PUSH2 0x2588 JUMP JUMPDEST PUSH2 0x933 JUMPI DUP3 DUP3 DUP3 PUSH1 0x40 MLOAD PUSH32 0x960C80DA00000000000000000000000000000000000000000000000000000000 DUP2 MSTORE PUSH1 0x4 ADD PUSH2 0x85E SWAP4 SWAP3 SWAP2 SWAP1 PUSH2 0x54F6 JUMP JUMPDEST PUSH1 0xFF DUP5 AND PUSH2 0x13EE JUMPI PUSH1 0x0 DUP2 GT DUP1 PUSH2 0x1309 JUMPI POP PUSH1 0x0 DUP3 GT JUMPDEST ISZERO PUSH2 0x13E9 JUMPI DUP3 PUSH1 0x0 SUB PUSH2 0x1354 JUMPI PUSH1 0x40 MLOAD PUSH32 0xBEA499CB00000000000000000000000000000000000000000000000000000000 DUP2 MSTORE PUSH1 0xFF DUP6 AND PUSH1 0x4 DUP3 ADD MSTORE PUSH1 0x24 DUP2 ADD DUP5 SWAP1 MSTORE PUSH1 0x44 ADD PUSH2 0x85E JUMP JUMPDEST DUP1 ISZERO DUP1 PUSH2 0x1360 JUMPI POP DUP3 DUP2 GT JUMPDEST ISZERO PUSH2 0x13A3 JUMPI PUSH1 0x40 MLOAD PUSH32 0x9E12FCCF00000000000000000000000000000000000000000000000000000000 DUP2 MSTORE PUSH1 0xFF DUP6 AND PUSH1 0x4 DUP3 ADD MSTORE PUSH1 0x24 DUP2 ADD DUP3 SWAP1 MSTORE PUSH1 0x44 ADD PUSH2 0x85E JUMP JUMPDEST DUP2 PUSH1 0x0 SUB PUSH2 0x13E9 JUMPI PUSH1 0x40 MLOAD PUSH32 0xAD0D7EB200000000000000000000000000000000000000000000000000000000 DUP2 MSTORE PUSH1 0xFF DUP6 AND PUSH1 0x4 DUP3 ADD MSTORE PUSH1 0x24 DUP2 ADD DUP4 SWAP1 MSTORE PUSH1 0x44 ADD PUSH2 0x85E JUMP JUMPDEST PUSH2 0x1604 JUMP JUMPDEST DUP3 PUSH1 0x0 SUB PUSH2 0x1434 JUMPI PUSH1 0x40 MLOAD PUSH32 0xBEA499CB00000000000000000000000000000000000000000000000000000000 DUP2 MSTORE PUSH1 0xFF DUP6 AND PUSH1 0x4 DUP3 ADD MSTORE PUSH1 0x24 DUP2 ADD DUP5 SWAP1 MSTORE PUSH1 0x44 ADD PUSH2 0x85E JUMP JUMPDEST DUP1 ISZERO DUP1 PUSH2 0x144C JUMPI POP PUSH2 0x1449 PUSH3 0x24EA00 DUP5 PUSH2 0x5540 JUMP JUMPDEST DUP2 GT JUMPDEST ISZERO PUSH2 0x148F JUMPI PUSH1 0x40 MLOAD PUSH32 0x9E12FCCF00000000000000000000000000000000000000000000000000000000 DUP2 MSTORE PUSH1 0xFF DUP6 AND PUSH1 0x4 DUP3 ADD MSTORE PUSH1 0x24 DUP2 ADD DUP3 SWAP1 MSTORE PUSH1 0x44 ADD PUSH2 0x85E JUMP JUMPDEST DUP2 PUSH1 0x0 SUB PUSH2 0x14D5 JUMPI PUSH1 0x40 MLOAD PUSH32 0xAD0D7EB200000000000000000000000000000000000000000000000000000000 DUP2 MSTORE PUSH1 0xFF DUP6 AND PUSH1 0x4 DUP3 ADD MSTORE PUSH1 0x24 DUP2 ADD DUP4 SWAP1 MSTORE PUSH1 0x44 ADD PUSH2 0x85E JUMP JUMPDEST PUSH32 0xFFFFFFFFFFFFFFFFFFFFFFFFFFFFFFFFFFFFFFFFFFFFFFFFFFFFFFFFFFFFFFFF PUSH1 0xFF DUP6 AND ADD PUSH2 0x154E JUMPI PUSH1 0x1C PUSH2 0x150A DUP4 PUSH2 0x2626 JUMP JUMPDEST GT ISZERO PUSH2 0x13E9 JUMPI PUSH1 0x40 MLOAD PUSH32 0xAD0D7EB200000000000000000000000000000000000000000000000000000000 DUP2 MSTORE PUSH1 0xFF DUP6 AND PUSH1 0x4 DUP3 ADD MSTORE PUSH1 0x24 DUP2 ADD DUP4 SWAP1 MSTORE PUSH1 0x44 ADD PUSH2 0x85E JUMP JUMPDEST PUSH32 0xFFFFFFFFFFFFFFFFFFFFFFFFFFFFFFFFFFFFFFFFFFFFFFFFFFFFFFFFFFFFFFFE PUSH1 0xFF DUP6 AND ADD PUSH2 0x15CD JUMPI PUSH2 0x1581 DUP3 PUSH2 0x263D JUMP JUMPDEST PUSH2 0x158A DUP4 PUSH2 0x2626 JUMP JUMPDEST EQ PUSH2 0x13E9 JUMPI PUSH1 0x40 MLOAD PUSH32 0xAD0D7EB200000000000000000000000000000000000000000000000000000000 DUP2 MSTORE PUSH1 0xFF DUP6 AND PUSH1 0x4 DUP3 ADD MSTORE PUSH1 0x24 DUP2 ADD DUP4 SWAP1 MSTORE PUSH1 0x44 ADD PUSH2 0x85E JUMP JUMPDEST PUSH1 0x40 MLOAD PUSH32 0x33A738BC00000000000000000000000000000000000000000000000000000000 DUP2 MSTORE PUSH1 0xFF DUP6 AND PUSH1 0x4 DUP3 ADD MSTORE PUSH1 0x24 ADD PUSH2 0x85E JUMP JUMPDEST DUP4 PUSH1 0xFF AND PUSH1 0x2 DUP2 GT ISZERO PUSH2 0x1619 JUMPI PUSH2 0x1619 PUSH2 0x511F JUMP JUMPDEST PUSH1 0xA DUP1 SLOAD PUSH32 0xFFFFFFFFFFFFFFFFFFFFFFFFFFFFFFFFFFFFFFFFFFFFFFFFFFFFFFFFFFFFFF00 AND PUSH1 0x1 DUP4 PUSH1 0x2 DUP2 GT ISZERO PUSH2 0x1653 JUMPI PUSH2 0x1653 PUSH2 0x511F JUMP JUMPDEST MUL OR SWAP1 SSTORE POP PUSH1 0xB DUP4 SWAP1 SSTORE PUSH1 0xC DUP3 SWAP1 SSTORE PUSH1 0xE DUP2 SWAP1 SSTORE PUSH1 0x40 DUP1 MLOAD PUSH1 0xFF DUP7 AND DUP2 MSTORE PUSH1 0x20 DUP2 ADD DUP6 SWAP1 MSTORE SWAP1 DUP2 ADD DUP4 SWAP1 MSTORE PUSH1 0x60 DUP2 ADD DUP3 SWAP1 MSTORE PUSH32 0x182FD6FA2A8560221614C1396DD4FCC78D26DFACF821A6AFB61D25876057E412 SWAP1 PUSH1 0x80 ADD JUMPDEST PUSH1 0x40 MLOAD DUP1 SWAP2 SUB SWAP1 LOG1 POP POP POP POP JUMP JUMPDEST PUSH1 0x60 PUSH2 0xE71 DUP3 PUSH1 0x1 PUSH1 0x1 PUSH1 0xA0 SHL SUB AND PUSH2 0x1957 JUMP JUMPDEST PUSH1 0x1 PUSH1 0x1 PUSH1 0xA0 SHL SUB DUP2 AND PUSH2 0x170D JUMPI PUSH1 0x40 MLOAD PUSH32 0x4093A12000000000000000000000000000000000000000000000000000000000 DUP2 MSTORE PUSH1 0x4 ADD PUSH1 0x40 MLOAD DUP1 SWAP2 SUB SWAP1 REVERT JUMPDEST PUSH1 0x1C DUP1 SLOAD PUSH32 0xFFFFFFFFFFFFFFFFFFFFFFFF0000000000000000000000000000000000000000 AND PUSH1 0x1 PUSH1 0x1 PUSH1 0xA0 SHL SUB DUP4 AND SWAP1 DUP2 OR SWAP1 SWAP2 SSTORE PUSH1 0x40 MLOAD PUSH32 0x47FC0D82886E91FBB050EBA4FF32C0C0D7FA2B4EFFFCEBA283E42975D9C894FF SWAP1 PUSH1 0x0 SWAP1 LOG2 POP JUMP JUMPDEST PUSH1 0x40 DUP1 MLOAD PUSH1 0x0 DUP2 MSTORE PUSH1 0x20 DUP2 ADD SWAP1 SWAP2 MSTORE PUSH2 0x9CA SWAP1 DUP4 SWAP1 DUP4 SWAP1 PUSH2 0x12AB JUMP JUMPDEST PUSH1 0x1 PUSH1 0x1 PUSH1 0xA0 SHL SUB DUP3 AND PUSH2 0x17CB JUMPI PUSH1 0x40 MLOAD PUSH32 0xC41A13EC00000000000000000000000000000000000000000000000000000000 DUP2 MSTORE PUSH1 0x4 ADD PUSH1 0x40 MLOAD DUP1 SWAP2 SUB SWAP1 REVERT JUMPDEST DUP1 PUSH2 0x17E0 JUMPI PUSH2 0x17DB PUSH1 0x10 DUP4 PUSH2 0x2660 JUMP JUMPDEST PUSH2 0x17EB JUMP JUMPDEST PUSH2 0x17EB PUSH1 0x10 DUP4 PUSH2 0x2675 JUMP JUMPDEST POP DUP2 PUSH1 0x1 PUSH1 0x1 PUSH1 0xA0 SHL SUB AND PUSH32 0x6264362E9DE26EFEFDA321DFAEB4E4A9090DEEF40C5435FAD8E9E2E306889A1C DUP3 PUSH1 0x40 MLOAD PUSH2 0x1829 SWAP2 ISZERO ISZERO DUP2 MSTORE PUSH1 0x20 ADD SWAP1 JUMP JUMPDEST PUSH1 0x40 MLOAD DUP1 SWAP2 SUB SWAP1 LOG2 POP POP JUMP JUMPDEST PUSH1 0x40 DUP1 MLOAD PUSH1 0x4 DUP1 DUP3 MSTORE PUSH1 0xA0 DUP3 ADD SWAP1 SWAP3 MSTORE PUSH1 0x60 SWAP2 PUSH1 0x20 DUP3 ADD PUSH1 0x80 DUP1 CALLDATASIZE DUP4 CALLDATACOPY ADD SWAP1 POP POP SWAP1 POP DUP5 PUSH1 0x1 PUSH1 0x1 PUSH1 0xA0 SHL SUB AND DUP2 PUSH1 0x0 DUP2 MLOAD DUP2 LT PUSH2 0x1875 JUMPI PUSH2 0x1875 PUSH2 0x52F4 JUMP JUMPDEST PUSH1 0x20 MUL PUSH1 0x20 ADD ADD DUP2 DUP2 MSTORE POP POP DUP4 PUSH1 0x1 PUSH1 0x1 PUSH1 0xA0 SHL SUB AND DUP2 PUSH1 0x1 DUP2 MLOAD DUP2 LT PUSH2 0x1257 JUMPI PUSH2 0x1257 PUSH2 0x52F4 JUMP JUMPDEST PUSH1 0x1 PUSH1 0x1 PUSH1 0xA0 SHL SUB DUP5 AND PUSH2 0x18DE JUMPI PUSH1 0x40 MLOAD PUSH32 0xE7BA3E4A00000000000000000000000000000000000000000000000000000000 DUP2 MSTORE PUSH1 0x4 ADD PUSH1 0x40 MLOAD DUP1 SWAP2 SUB SWAP1 REVERT JUMPDEST PUSH1 0x1 PUSH1 0x1 PUSH1 0xA0 SHL SUB DUP5 AND PUSH1 0x0 SWAP1 DUP2 MSTORE PUSH1 0x15 PUSH1 0x20 MSTORE PUSH1 0x40 SWAP1 KECCAK256 PUSH2 0x1902 SWAP1 DUP5 DUP5 DUP5 PUSH2 0x268A JUMP JUMPDEST PUSH1 0x40 DUP1 MLOAD PUSH1 0x1 PUSH1 0x1 PUSH1 0xA0 SHL SUB DUP6 DUP2 AND DUP3 MSTORE PUSH1 0x20 DUP3 ADD DUP6 SWAP1 MSTORE SWAP2 DUP2 ADD DUP4 SWAP1 MSTORE SWAP1 DUP6 AND SWAP1 PUSH32 0xF099617C054D3A65E02A9C3B786F23CC03D5982BC7CFAE84DFF0408049CF1707 SWAP1 PUSH1 0x60 ADD PUSH1 0x40 MLOAD DUP1 SWAP2 SUB SWAP1 LOG2 POP POP POP POP JUMP JUMPDEST PUSH1 0x40 DUP1 MLOAD PUSH1 0x1 DUP1 DUP3 MSTORE DUP2 DUP4 ADD SWAP1 SWAP3 MSTORE PUSH1 0x60 SWAP2 PUSH1 0x20 DUP1 DUP4 ADD SWAP1 DUP1 CALLDATASIZE DUP4 CALLDATACOPY ADD SWAP1 POP POP SWAP1 POP DUP2 DUP2 PUSH1 0x0 DUP2 MLOAD DUP2 LT PUSH2 0x198D JUMPI PUSH2 0x198D PUSH2 0x52F4 JUMP JUMPDEST PUSH1 0x20 MUL PUSH1 0x20 ADD ADD DUP2 DUP2 MSTORE POP POP SWAP2 SWAP1 POP JUMP JUMPDEST PUSH1 0xF DUP1 SLOAD DUP3 SWAP2 SWAP1 PUSH32 0xFFFFFFFFFFFFFFFFFFFFFFFFFFFFFFFFFFFFFFFFFFFFFFFFFFFFFFFFFFFFFF00 AND PUSH1 0x1 DUP4 DUP2 DUP2 GT ISZERO PUSH2 0x19DA JUMPI PUSH2 0x19DA PUSH2 0x511F JUMP JUMPDEST MUL OR SWAP1 SSTORE POP PUSH32 0x216B6A9618D607BA436D0F2E17E9A83E70929ADFF805AC2385D67401360E551A DUP2 PUSH1 0x40 MLOAD PUSH2 0x1A0E SWAP2 SWAP1 PUSH2 0x514E JUMP JUMPDEST PUSH1 0x40 MLOAD DUP1 SWAP2 SUB SWAP1 LOG1 POP JUMP JUMPDEST PUSH1 0x1 PUSH1 0x1 PUSH1 0xA0 SHL SUB DUP5 AND PUSH2 0x1A59 JUMPI PUSH1 0x40 MLOAD PUSH32 0x1DE0C9C700000000000000000000000000000000000000000000000000000000 DUP2 MSTORE PUSH1 0x4 ADD PUSH1 0x40 MLOAD DUP1 SWAP2 SUB SWAP1 REVERT JUMPDEST PUSH1 0x1 PUSH1 0x1 PUSH1 0xA0 SHL SUB DUP5 AND PUSH1 0x0 SWAP1 DUP2 MSTORE PUSH1 0x1B PUSH1 0x20 MSTORE PUSH1 0x40 SWAP1 KECCAK256 PUSH2 0x1A7D SWAP1 DUP5 DUP5 DUP5 PUSH2 0x2772 JUMP JUMPDEST DUP3 PUSH1 0x1 PUSH1 0x1 PUSH1 0xA0 SHL SUB AND DUP5 PUSH1 0x1 PUSH1 0x1 PUSH1 0xA0 SHL SUB AND PUSH32 0x1B5C5E27ED5443E409BAE85849D41D7BF12D5352E8FDDB3728B6408F836E1448 DUP5 DUP5 PUSH1 0x40 MLOAD PUSH2 0x1ACB SWAP3 SWAP2 SWAP1 SWAP2 DUP3 MSTORE PUSH1 0x20 DUP3 ADD MSTORE PUSH1 0x40 ADD SWAP1 JUMP JUMPDEST PUSH1 0x40 MLOAD DUP1 SWAP2 SUB SWAP1 LOG3 POP POP POP POP JUMP JUMPDEST PUSH2 0x1B06 PUSH1 0x40 MLOAD DUP1 PUSH1 0x60 ADD PUSH1 0x40 MSTORE DUP1 PUSH1 0x0 PUSH1 0x1 PUSH1 0x1 PUSH1 0xA0 SHL SUB AND DUP2 MSTORE PUSH1 0x20 ADD PUSH1 0x0 DUP2 MSTORE PUSH1 0x20 ADD PUSH1 0x0 DUP2 MSTORE POP SWAP1 JUMP JUMPDEST PUSH1 0x1 PUSH1 0x1 PUSH1 0xA0 SHL SUB DUP1 DUP4 AND PUSH1 0x0 SWAP1 DUP2 MSTORE PUSH1 0x15 PUSH1 0x20 MSTORE PUSH1 0x40 SWAP1 KECCAK256 DUP1 SLOAD SWAP1 SWAP2 AND ISZERO PUSH2 0x1B2F JUMPI DUP1 PUSH2 0x1B32 JUMP JUMPDEST PUSH1 0x12 JUMPDEST PUSH1 0x40 DUP1 MLOAD PUSH1 0x60 DUP2 ADD DUP3 MSTORE DUP3 SLOAD PUSH1 0x1 PUSH1 0x1 PUSH1 0xA0 SHL SUB AND DUP2 MSTORE PUSH1 0x1 DUP4 ADD SLOAD PUSH1 0x20 DUP3 ADD MSTORE PUSH1 0x2 SWAP1 SWAP3 ADD SLOAD SWAP1 DUP3 ADD MSTORE SWAP4 SWAP3 POP POP POP JUMP JUMPDEST PUSH1 0x40 DUP1 MLOAD PUSH1 0x2 DUP1 DUP3 MSTORE PUSH1 0x60 DUP1 DUP4 ADD DUP5 MSTORE SWAP3 PUSH1 0x20 DUP4 ADD SWAP1 DUP1 CALLDATASIZE DUP4 CALLDATACOPY ADD SWAP1 POP POP SWAP1 POP DUP3 PUSH1 0x0 SHR DUP2 PUSH1 0x0 DUP2 MLOAD DUP2 LT PUSH2 0x1B9B JUMPI PUSH2 0x1B9B PUSH2 0x52F4 JUMP JUMPDEST PUSH1 0x20 MUL PUSH1 0x20 ADD ADD DUP2 DUP2 MSTORE POP POP DUP2 PUSH1 0x0 SHR DUP2 PUSH1 0x1 DUP2 MLOAD DUP2 LT PUSH2 0x1BBE JUMPI PUSH2 0x1BBE PUSH2 0x52F4 JUMP JUMPDEST PUSH1 0x20 MUL PUSH1 0x20 ADD ADD DUP2 DUP2 MSTORE POP POP SWAP3 SWAP2 POP POP JUMP JUMPDEST DUP2 ISZERO PUSH2 0x1C0B JUMPI PUSH1 0x40 MLOAD PUSH32 0x951DBBE300000000000000000000000000000000000000000000000000000000 DUP2 MSTORE PUSH1 0x4 DUP2 ADD DUP4 SWAP1 MSTORE PUSH1 0x24 ADD PUSH2 0x85E JUMP JUMPDEST DUP1 ISZERO PUSH2 0x1C46 JUMPI PUSH1 0x40 MLOAD PUSH32 0x4388B29400000000000000000000000000000000000000000000000000000000 DUP2 MSTORE PUSH1 0x4 DUP2 ADD DUP3 SWAP1 MSTORE PUSH1 0x24 ADD PUSH2 0x85E JUMP JUMPDEST PUSH2 0x9CA DUP3 DUP3 PUSH2 0x28E9 JUMP JUMPDEST PUSH1 0x40 DUP1 MLOAD PUSH1 0x3 DUP1 DUP3 MSTORE PUSH1 0x80 DUP3 ADD SWAP1 SWAP3 MSTORE PUSH1 0x60 SWAP2 PUSH1 0x20 DUP3 ADD DUP4 DUP1 CALLDATASIZE DUP4 CALLDATACOPY ADD SWAP1 POP POP SWAP1 POP DUP4 PUSH1 0x1 PUSH1 0x1 PUSH1 0xA0 SHL SUB AND DUP2 PUSH1 0x0 DUP2 MLOAD DUP2 LT PUSH2 0x1C8F JUMPI PUSH2 0x1C8F PUSH2 0x52F4 JUMP JUMPDEST PUSH1 0x20 MUL PUSH1 0x20 ADD ADD DUP2 DUP2 MSTORE POP POP DUP3 DUP2 PUSH1 0x1 DUP2 MLOAD DUP2 LT PUSH2 0x1CAF JUMPI PUSH2 0x1CAF PUSH2 0x52F4 JUMP JUMPDEST PUSH1 0x20 MUL PUSH1 0x20 ADD ADD DUP2 DUP2 MSTORE POP POP DUP2 DUP2 PUSH1 0x2 DUP2 MLOAD DUP2 LT PUSH2 0x1CCF JUMPI PUSH2 0x1CCF PUSH2 0x52F4 JUMP JUMPDEST PUSH1 0x20 MUL PUSH1 0x20 ADD ADD DUP2 DUP2 MSTORE POP POP SWAP4 SWAP3 POP POP POP JUMP JUMPDEST PUSH2 0x1CEF PUSH1 0x16 DUP5 DUP5 DUP5 PUSH2 0x2772 JUMP JUMPDEST PUSH1 0x40 DUP1 MLOAD DUP4 DUP2 MSTORE PUSH1 0x20 DUP2 ADD DUP4 SWAP1 MSTORE PUSH1 0x1 PUSH1 0x1 PUSH1 0xA0 SHL SUB DUP6 AND SWAP2 PUSH32 0x6324B5F18E615697A2B44F16D7A649DEB0BBBC7CB09DAD4C610306105730E7D9 SWAP2 ADD PUSH1 0x40 MLOAD DUP1 SWAP2 SUB SWAP1 LOG2 POP POP POP JUMP JUMPDEST PUSH2 0x1D45 PUSH1 0x12 DUP5 DUP5 DUP5 PUSH2 0x268A JUMP JUMPDEST PUSH1 0x40 DUP1 MLOAD PUSH1 0x1 PUSH1 0x1 PUSH1 0xA0 SHL SUB DUP6 AND DUP2 MSTORE PUSH1 0x20 DUP2 ADD DUP5 SWAP1 MSTORE SWAP1 DUP2 ADD DUP3 SWAP1 MSTORE PUSH32 0xA80953BDC344B2EBD0BCDD001A3418A8FD1B858BDECF12A4BA5A9366AD65D345 SWAP1 PUSH1 0x60 ADD PUSH2 0x92A JUMP JUMPDEST PUSH1 0x1 PUSH1 0x1 PUSH1 0xA0 SHL SUB DUP1 DUP3 AND PUSH1 0x0 SWAP1 DUP2 MSTORE PUSH1 0x1B PUSH1 0x20 MSTORE PUSH1 0x40 DUP2 KECCAK256 DUP1 SLOAD SWAP2 SWAP3 SWAP1 SWAP2 AND ISZERO PUSH2 0x1DB7 JUMPI DUP1 PUSH2 0x117B JUMP JUMPDEST PUSH1 0x16 SWAP4 SWAP3 POP POP POP JUMP JUMPDEST PUSH8 0xDE0B6B3A7640000 DUP2 GT ISZERO PUSH2 0x1E02 JUMPI PUSH1 0x40 MLOAD PUSH32 0xCE57496100000000000000000000000000000000000000000000000000000000 DUP2 MSTORE PUSH1 0x4 ADD PUSH1 0x40 MLOAD DUP1 SWAP2 SUB SWAP1 REVERT JUMPDEST PUSH1 0x6 DUP5 SWAP1 SSTORE PUSH1 0x7 DUP4 SWAP1 SSTORE PUSH1 0x8 DUP3 SWAP1 SSTORE PUSH1 0x9 DUP2 SWAP1 SSTORE PUSH1 0x40 DUP1 MLOAD DUP6 DUP2 MSTORE PUSH1 0x20 DUP2 ADD DUP6 SWAP1 MSTORE SWAP1 DUP2 ADD DUP4 SWAP1 MSTORE PUSH1 0x60 DUP2 ADD DUP3 SWAP1 MSTORE PUSH32 0x746DC5EB53C5DE07C40B06D428506D6982EA10C423AC2875ABFC44038927D691 SWAP1 PUSH1 0x80 ADD PUSH2 0x16AB JUMP JUMPDEST PUSH1 0x40 DUP1 MLOAD PUSH1 0x2 DUP1 DUP3 MSTORE PUSH1 0x60 DUP1 DUP4 ADD DUP5 MSTORE SWAP3 PUSH1 0x20 DUP4 ADD SWAP1 DUP1 CALLDATASIZE DUP4 CALLDATACOPY ADD SWAP1 POP POP SWAP1 POP DUP3 PUSH1 0x1 PUSH1 0x1 PUSH1 0xA0 SHL SUB AND DUP2 PUSH1 0x0 DUP2 MLOAD DUP2 LT PUSH2 0x1E98 JUMPI PUSH2 0x1E98 PUSH2 0x52F4 JUMP JUMPDEST PUSH1 0x20 MUL PUSH1 0x20 ADD ADD DUP2 DUP2 MSTORE POP POP DUP2 PUSH1 0x1 PUSH1 0x1 PUSH1 0xA0 SHL SUB AND DUP2 PUSH1 0x1 DUP2 MLOAD DUP2 LT PUSH2 0x1BBE JUMPI PUSH2 0x1BBE PUSH2 0x52F4 JUMP JUMPDEST PUSH2 0x1ECB DUP5 DUP5 PUSH2 0x296C JUMP JUMPDEST DUP2 PUSH1 0x1 PUSH1 0x1 PUSH1 0xA0 SHL SUB AND DUP5 PUSH1 0x1 PUSH1 0x1 PUSH1 0xA0 SHL SUB AND SUB PUSH2 0x1F16 JUMPI PUSH1 0x40 MLOAD PUSH32 0x9BA62E0300000000000000000000000000000000000000000000000000000000 DUP2 MSTORE PUSH1 0x4 ADD PUSH1 0x40 MLOAD DUP1 SWAP2 SUB SWAP1 REVERT JUMPDEST PUSH1 0x1 PUSH1 0x1 PUSH1 0xA0 SHL SUB DUP5 AND PUSH2 0x1F56 JUMPI PUSH1 0x40 MLOAD PUSH32 0x58FAB17B00000000000000000000000000000000000000000000000000000000 DUP2 MSTORE PUSH1 0x4 ADD PUSH1 0x40 MLOAD DUP1 SWAP2 SUB SWAP1 REVERT JUMPDEST PUSH1 0x1 PUSH1 0x1 PUSH1 0xA0 SHL SUB DUP3 AND PUSH2 0x1F96 JUMPI PUSH1 0x40 MLOAD PUSH32 0xC2C713E200000000000000000000000000000000000000000000000000000000 DUP2 MSTORE PUSH1 0x4 ADD PUSH1 0x40 MLOAD DUP1 SWAP2 SUB SWAP1 REVERT JUMPDEST DUP3 PUSH1 0x0 SUB PUSH2 0x1FD0 JUMPI PUSH1 0x40 MLOAD PUSH32 0x5F1AB64400000000000000000000000000000000000000000000000000000000 DUP2 MSTORE PUSH1 0x4 ADD PUSH1 0x40 MLOAD DUP1 SWAP2 SUB SWAP1 REVERT JUMPDEST DUP1 PUSH1 0x0 SUB PUSH2 0x200A JUMPI PUSH1 0x40 MLOAD PUSH32 0xB4FC530600000000000000000000000000000000000000000000000000000000 DUP2 MSTORE PUSH1 0x4 ADD PUSH1 0x40 MLOAD DUP1 SWAP2 SUB SWAP1 REVERT JUMPDEST PUSH20 0xEEEEEEEEEEEEEEEEEEEEEEEEEEEEEEEEEEEEEEEE PUSH1 0x1 PUSH1 0x1 PUSH1 0xA0 SHL SUB DUP6 AND SUB PUSH2 0x2102 JUMPI DUP3 CALLVALUE EQ PUSH2 0x2070 JUMPI PUSH1 0x40 MLOAD PUSH32 0xDC9BABA800000000000000000000000000000000000000000000000000000000 DUP2 MSTORE CALLVALUE PUSH1 0x4 DUP3 ADD MSTORE PUSH1 0x24 DUP2 ADD DUP5 SWAP1 MSTORE PUSH1 0x44 ADD PUSH2 0x85E JUMP JUMPDEST PUSH1 0x1 SLOAD PUSH2 0x2086 SWAP1 PUSH1 0x1 PUSH1 0x1 PUSH1 0xA0 SHL SUB AND DUP5 PUSH2 0x29B2 JUMP JUMPDEST PUSH1 0x1 SLOAD PUSH1 0x40 MLOAD PUSH32 0xEA598CB000000000000000000000000000000000000000000000000000000000 DUP2 MSTORE PUSH1 0x4 DUP2 ADD DUP6 SWAP1 MSTORE PUSH1 0x1 PUSH1 0x1 PUSH1 0xA0 SHL SUB SWAP1 SWAP2 AND SWAP1 PUSH4 0xEA598CB0 SWAP1 PUSH1 0x24 ADD PUSH1 0x0 PUSH1 0x40 MLOAD DUP1 DUP4 SUB DUP2 PUSH1 0x0 DUP8 DUP1 EXTCODESIZE ISZERO DUP1 ISZERO PUSH2 0x20E5 JUMPI PUSH1 0x0 DUP1 REVERT JUMPDEST POP GAS CALL ISZERO DUP1 ISZERO PUSH2 0x20F9 JUMPI RETURNDATASIZE PUSH1 0x0 DUP1 RETURNDATACOPY RETURNDATASIZE PUSH1 0x0 REVERT JUMPDEST POP POP POP POP PUSH2 0xDDA JUMP JUMPDEST CALLVALUE ISZERO PUSH2 0x2143 JUMPI PUSH1 0x40 MLOAD PUSH32 0xDC9BABA800000000000000000000000000000000000000000000000000000000 DUP2 MSTORE CALLVALUE PUSH1 0x4 DUP3 ADD MSTORE PUSH1 0x0 PUSH1 0x24 DUP3 ADD MSTORE PUSH1 0x44 ADD PUSH2 0x85E JUMP JUMPDEST PUSH1 0x1 SLOAD PUSH1 0x40 MLOAD PUSH32 0xDD62ED3E00000000000000000000000000000000000000000000000000000000 DUP2 MSTORE CALLER PUSH1 0x4 DUP3 ADD MSTORE PUSH1 0x1 PUSH1 0x1 PUSH1 0xA0 SHL SUB SWAP2 DUP3 AND PUSH1 0x24 DUP3 ADD MSTORE PUSH1 0x0 SWAP2 DUP7 AND SWAP1 PUSH4 0xDD62ED3E SWAP1 PUSH1 0x44 ADD PUSH1 0x20 PUSH1 0x40 MLOAD DUP1 DUP4 SUB DUP2 DUP7 GAS STATICCALL ISZERO DUP1 ISZERO PUSH2 0x21AE JUMPI RETURNDATASIZE PUSH1 0x0 DUP1 RETURNDATACOPY RETURNDATASIZE PUSH1 0x0 REVERT JUMPDEST POP POP POP POP PUSH1 0x40 MLOAD RETURNDATASIZE PUSH1 0x1F NOT PUSH1 0x1F DUP3 ADD AND DUP3 ADD DUP1 PUSH1 0x40 MSTORE POP DUP2 ADD SWAP1 PUSH2 0x21D2 SWAP2 SWAP1 PUSH2 0x538A JUMP JUMPDEST SWAP1 POP DUP4 DUP2 LT ISZERO PUSH2 0x2218 JUMPI PUSH1 0x40 MLOAD PUSH32 0x1736A36C00000000000000000000000000000000000000000000000000000000 DUP2 MSTORE PUSH1 0x4 DUP2 ADD DUP3 SWAP1 MSTORE PUSH1 0x24 DUP2 ADD DUP6 SWAP1 MSTORE PUSH1 0x44 ADD PUSH2 0x85E JUMP JUMPDEST PUSH1 0x1 SLOAD PUSH1 0x40 MLOAD PUSH32 0xC8FEA2FB00000000000000000000000000000000000000000000000000000000 DUP2 MSTORE PUSH1 0x1 PUSH1 0x1 PUSH1 0xA0 SHL SUB DUP8 DUP2 AND PUSH1 0x4 DUP4 ADD MSTORE CALLER PUSH1 0x24 DUP4 ADD MSTORE PUSH1 0x44 DUP3 ADD DUP8 SWAP1 MSTORE SWAP1 SWAP2 AND SWAP1 PUSH4 0xC8FEA2FB SWAP1 PUSH1 0x64 ADD PUSH1 0x0 PUSH1 0x40 MLOAD DUP1 DUP4 SUB DUP2 PUSH1 0x0 DUP8 DUP1 EXTCODESIZE ISZERO DUP1 ISZERO PUSH2 0x2285 JUMPI PUSH1 0x0 DUP1 REVERT JUMPDEST POP GAS CALL ISZERO DUP1 ISZERO PUSH2 0x112C JUMPI RETURNDATASIZE PUSH1 0x0 DUP1 RETURNDATACOPY RETURNDATASIZE PUSH1 0x0 REVERT JUMPDEST PUSH1 0x0 PUSH20 0xEEEEEEEEEEEEEEEEEEEEEEEEEEEEEEEEEEEEEEEE PUSH1 0x1 PUSH1 0x1 PUSH1 0xA0 SHL SUB DUP4 AND EQ PUSH2 0x22C5 JUMPI DUP2 PUSH2 0xE71 JUMP JUMPDEST PUSH2 0xE71 PUSH2 0x2ACB JUMP JUMPDEST PUSH1 0x0 PUSH2 0xE71 DUP3 PUSH1 0x0 PUSH2 0x2B57 JUMP JUMPDEST DUP1 DUP3 LT ISZERO PUSH2 0x231E JUMPI PUSH1 0x40 MLOAD PUSH32 0x3840833800000000000000000000000000000000000000000000000000000000 DUP2 MSTORE PUSH1 0x4 DUP2 ADD DUP4 SWAP1 MSTORE PUSH1 0x24 DUP2 ADD DUP3 SWAP1 MSTORE PUSH1 0x44 ADD PUSH2 0x85E JUMP JUMPDEST PUSH20 0xEEEEEEEEEEEEEEEEEEEEEEEEEEEEEEEEEEEEEEEE PUSH1 0x1 PUSH1 0x1 PUSH1 0xA0 SHL SUB DUP5 AND SUB PUSH2 0x23BA JUMPI PUSH1 0x1 SLOAD PUSH1 0x40 MLOAD PUSH32 0xDE0E9A3E00000000000000000000000000000000000000000000000000000000 DUP2 MSTORE PUSH1 0x4 DUP2 ADD DUP5 SWAP1 MSTORE PUSH1 0x1 PUSH1 0x1 PUSH1 0xA0 SHL SUB SWAP1 SWAP2 AND SWAP1 PUSH4 0xDE0E9A3E SWAP1 PUSH1 0x24 ADD PUSH1 0x0 PUSH1 0x40 MLOAD DUP1 DUP4 SUB DUP2 PUSH1 0x0 DUP8 DUP1 EXTCODESIZE ISZERO DUP1 ISZERO PUSH2 0x23A1 JUMPI PUSH1 0x0 DUP1 REVERT JUMPDEST POP GAS CALL ISZERO DUP1 ISZERO PUSH2 0x23B5 JUMPI RETURNDATASIZE PUSH1 0x0 DUP1 RETURNDATACOPY RETURNDATASIZE PUSH1 0x0 REVERT JUMPDEST POP POP POP POP JUMPDEST PUSH1 0x1 SLOAD PUSH1 0x40 MLOAD PUSH32 0xD9CAED1200000000000000000000000000000000000000000000000000000000 DUP2 MSTORE PUSH1 0x1 PUSH1 0x1 PUSH1 0xA0 SHL SUB DUP6 DUP2 AND PUSH1 0x4 DUP4 ADD MSTORE CALLER PUSH1 0x24 DUP4 ADD MSTORE PUSH1 0x44 DUP3 ADD DUP6 SWAP1 MSTORE SWAP1 SWAP2 AND SWAP1 PUSH4 0xD9CAED12 SWAP1 PUSH1 0x64 ADD PUSH1 0x0 PUSH1 0x40 MLOAD DUP1 DUP4 SUB DUP2 PUSH1 0x0 DUP8 DUP1 EXTCODESIZE ISZERO DUP1 ISZERO PUSH2 0x2427 JUMPI PUSH1 0x0 DUP1 REVERT JUMPDEST POP GAS CALL ISZERO DUP1 ISZERO PUSH2 0x243B JUMPI RETURNDATASIZE PUSH1 0x0 DUP1 RETURNDATACOPY RETURNDATASIZE PUSH1 0x0 REVERT JUMPDEST POP POP POP POP PUSH2 0x982 DUP6 DUP6 PUSH2 0x2BB4 JUMP JUMPDEST PUSH1 0x0 SLOAD PUSH2 0x100 SWAP1 DIV PUSH1 0xFF AND PUSH2 0x24B4 JUMPI PUSH1 0x40 MLOAD PUSH3 0x461BCD PUSH1 0xE5 SHL DUP2 MSTORE PUSH1 0x20 PUSH1 0x4 DUP3 ADD MSTORE PUSH1 0x2B PUSH1 0x24 DUP3 ADD MSTORE PUSH32 0x496E697469616C697A61626C653A20636F6E7472616374206973206E6F742069 PUSH1 0x44 DUP3 ADD MSTORE PUSH11 0x6E697469616C697A696E67 PUSH1 0xA8 SHL PUSH1 0x64 DUP3 ADD MSTORE PUSH1 0x84 ADD PUSH2 0x85E JUMP JUMPDEST DUP1 MLOAD PUSH2 0x24BF SWAP1 PUSH2 0x2BDC JUMP JUMPDEST PUSH2 0x24C7 PUSH2 0x2CBE JUMP JUMPDEST PUSH2 0x24D4 DUP2 PUSH1 0x20 ADD MLOAD PUSH2 0x2D33 JUMP JUMPDEST PUSH2 0x24E1 DUP2 PUSH1 0x40 ADD MLOAD PUSH2 0x2DA7 JUMP JUMPDEST PUSH2 0x24EE DUP2 PUSH1 0x60 ADD MLOAD PUSH2 0x2E1B JUMP JUMPDEST PUSH2 0x24FB DUP2 PUSH1 0x80 ADD MLOAD PUSH2 0x2E8F JUMP JUMPDEST PUSH2 0x2508 DUP2 PUSH1 0xA0 ADD MLOAD PUSH2 0x2F03 JUMP JUMPDEST PUSH2 0x2511 DUP2 PUSH2 0x2F77 JUMP JUMPDEST POP JUMP JUMPDEST PUSH1 0x0 SLOAD PUSH2 0x100 SWAP1 DIV PUSH1 0xFF AND PUSH2 0x257F JUMPI PUSH1 0x40 MLOAD PUSH3 0x461BCD PUSH1 0xE5 SHL DUP2 MSTORE PUSH1 0x20 PUSH1 0x4 DUP3 ADD MSTORE PUSH1 0x2B PUSH1 0x24 DUP3 ADD MSTORE PUSH32 0x496E697469616C697A61626C653A20636F6E7472616374206973206E6F742069 PUSH1 0x44 DUP3 ADD MSTORE PUSH11 0x6E697469616C697A696E67 PUSH1 0xA8 SHL PUSH1 0x64 DUP3 ADD MSTORE PUSH1 0x84 ADD PUSH2 0x85E JUMP JUMPDEST PUSH2 0x9CA DUP2 PUSH2 0x16CD JUMP JUMPDEST PUSH1 0x0 DUP1 SLOAD PUSH1 0x40 MLOAD PUSH32 0x2852289500000000000000000000000000000000000000000000000000000000 DUP2 MSTORE PUSH3 0x10000 SWAP1 SWAP2 DIV PUSH1 0x1 PUSH1 0x1 PUSH1 0xA0 SHL SUB AND SWAP1 PUSH4 0x28522895 SWAP1 PUSH2 0x25DD SWAP1 DUP8 SWAP1 ADDRESS SWAP1 DUP9 SWAP1 DUP9 SWAP1 PUSH1 0x4 ADD PUSH2 0x5557 JUMP JUMPDEST PUSH1 0x20 PUSH1 0x40 MLOAD DUP1 DUP4 SUB DUP2 DUP7 GAS STATICCALL ISZERO DUP1 ISZERO PUSH2 0x25FA JUMPI RETURNDATASIZE PUSH1 0x0 DUP1 RETURNDATACOPY RETURNDATASIZE PUSH1 0x0 REVERT JUMPDEST POP POP POP POP PUSH1 0x40 MLOAD RETURNDATASIZE PUSH1 0x1F NOT PUSH1 0x1F DUP3 ADD AND DUP3 ADD DUP1 PUSH1 0x40 MSTORE POP DUP2 ADD SWAP1 PUSH2 0x261E SWAP2 SWAP1 PUSH2 0x55B5 JUMP JUMPDEST SWAP5 SWAP4 POP POP POP POP JUMP JUMPDEST PUSH1 0x0 PUSH2 0x261E PUSH2 0x2638 PUSH3 0x15180 DUP5 PUSH2 0x5601 JUMP JUMPDEST PUSH2 0x2FE2 JUMP JUMPDEST PUSH1 0x0 DUP1 DUP1 PUSH2 0x2651 PUSH2 0x2638 PUSH3 0x15180 DUP7 PUSH2 0x5601 JUMP JUMPDEST POP SWAP2 POP SWAP2 POP PUSH2 0x261E DUP3 DUP3 PUSH2 0x309C JUMP JUMPDEST PUSH1 0x0 PUSH2 0x117B DUP4 PUSH1 0x1 PUSH1 0x1 PUSH1 0xA0 SHL SUB DUP5 AND PUSH2 0x3122 JUMP JUMPDEST PUSH1 0x0 PUSH2 0x117B DUP4 PUSH1 0x1 PUSH1 0x1 PUSH1 0xA0 SHL SUB DUP5 AND PUSH2 0x321C JUMP JUMPDEST PUSH1 0x0 PUSH1 0x1 PUSH1 0x1 PUSH1 0xA0 SHL SUB DUP5 AND ISZERO DUP1 ISZERO PUSH2 0x26A1 JUMPI POP DUP3 ISZERO JUMPDEST DUP1 ISZERO PUSH2 0x26AB JUMPI POP DUP2 ISZERO JUMPDEST SWAP1 POP PUSH1 0x0 PUSH1 0x1 PUSH1 0x1 PUSH1 0xA0 SHL SUB DUP6 AND ISZERO DUP1 ISZERO SWAP1 PUSH2 0x26CF JUMPI POP DUP3 ISZERO DUP1 PUSH2 0x26CF JUMPI POP DUP4 DUP4 LT ISZERO JUMPDEST SWAP1 POP DUP2 ISZERO DUP1 ISZERO PUSH2 0x26DD JUMPI POP DUP1 ISZERO JUMPDEST ISZERO PUSH2 0x272D JUMPI PUSH1 0x40 MLOAD PUSH32 0xCA1F048300000000000000000000000000000000000000000000000000000000 DUP2 MSTORE PUSH1 0x1 PUSH1 0x1 PUSH1 0xA0 SHL SUB DUP7 AND PUSH1 0x4 DUP3 ADD MSTORE PUSH1 0x24 DUP2 ADD DUP6 SWAP1 MSTORE PUSH1 0x44 DUP2 ADD DUP5 SWAP1 MSTORE PUSH1 0x64 ADD PUSH2 0x85E JUMP JUMPDEST POP POP DUP4 SLOAD PUSH32 0xFFFFFFFFFFFFFFFFFFFFFFFF0000000000000000000000000000000000000000 AND PUSH1 0x1 PUSH1 0x1 PUSH1 0xA0 SHL SUB SWAP4 SWAP1 SWAP4 AND SWAP3 SWAP1 SWAP3 OR DUP4 SSTORE PUSH1 0x1 DUP4 ADD SSTORE PUSH1 0x2 SWAP1 SWAP2 ADD SSTORE JUMP JUMPDEST PUSH1 0x0 PUSH1 0x1 PUSH1 0x1 PUSH1 0xA0 SHL SUB DUP5 AND ISZERO DUP1 ISZERO PUSH2 0x2789 JUMPI POP DUP3 ISZERO JUMPDEST DUP1 ISZERO PUSH2 0x2793 JUMPI POP DUP2 ISZERO JUMPDEST SWAP1 POP PUSH1 0x0 PUSH1 0x1 PUSH1 0x1 PUSH1 0xA0 SHL SUB DUP6 AND ISZERO DUP1 ISZERO SWAP1 PUSH2 0x27AF JUMPI POP PUSH1 0x0 DUP5 GT JUMPDEST DUP1 ISZERO PUSH2 0x27BB JUMPI POP PUSH1 0x0 DUP4 GT JUMPDEST SWAP1 POP DUP2 ISZERO DUP1 ISZERO PUSH2 0x27C9 JUMPI POP DUP1 ISZERO JUMPDEST ISZERO PUSH2 0x2819 JUMPI PUSH1 0x40 MLOAD PUSH32 0xF5DEB5DC00000000000000000000000000000000000000000000000000000000 DUP2 MSTORE PUSH1 0x1 PUSH1 0x1 PUSH1 0xA0 SHL SUB DUP7 AND PUSH1 0x4 DUP3 ADD MSTORE PUSH1 0x24 DUP2 ADD DUP6 SWAP1 MSTORE PUSH1 0x44 DUP2 ADD DUP5 SWAP1 MSTORE PUSH1 0x64 ADD PUSH2 0x85E JUMP JUMPDEST PUSH1 0x3 DUP7 ADD DUP4 SWAP1 SSTORE PUSH1 0x1 DUP7 ADD DUP5 SWAP1 SSTORE DUP2 ISZERO PUSH2 0x2840 JUMPI PUSH1 0x0 PUSH1 0x2 DUP8 ADD DUP2 SWAP1 SSTORE PUSH1 0x4 DUP8 ADD SSTORE PUSH2 0x28AC JUMP JUMPDEST DUP6 PUSH1 0x4 ADD SLOAD PUSH1 0x0 SUB PUSH2 0x2867 JUMPI PUSH1 0x0 PUSH1 0x2 DUP8 ADD SSTORE PUSH2 0x285D DUP4 TIMESTAMP PUSH2 0x5615 JUMP JUMPDEST PUSH1 0x4 DUP8 ADD SSTORE PUSH2 0x28AC JUMP JUMPDEST DUP6 SLOAD PUSH1 0x1 PUSH1 0x1 PUSH1 0xA0 SHL SUB DUP7 DUP2 AND SWAP2 AND EQ PUSH2 0x28AC JUMPI DUP6 SLOAD PUSH1 0x0 SWAP1 PUSH2 0x2893 SWAP1 PUSH1 0x1 PUSH1 0x1 PUSH1 0xA0 SHL SUB AND DUP8 PUSH2 0x326B JUMP JUMPDEST PUSH1 0x2 DUP9 ADD SLOAD SWAP1 SWAP2 POP PUSH2 0x28A5 SWAP1 DUP3 PUSH2 0x3277 JUMP JUMPDEST PUSH1 0x2 DUP9 ADD SSTORE POP JUMPDEST POP POP DUP4 SLOAD PUSH32 0xFFFFFFFFFFFFFFFFFFFFFFFF0000000000000000000000000000000000000000 AND PUSH1 0x1 PUSH1 0x1 PUSH1 0xA0 SHL SUB SWAP4 SWAP1 SWAP4 AND SWAP3 SWAP1 SWAP3 OR SWAP1 SWAP3 SSTORE POP POP JUMP JUMPDEST DUP1 DUP3 EQ DUP1 ISZERO PUSH2 0x28F7 JUMPI POP DUP2 ISZERO ISZERO JUMPDEST ISZERO PUSH2 0x2931 JUMPI PUSH1 0x40 MLOAD PUSH32 0xFB49EDB00000000000000000000000000000000000000000000000000000000 DUP2 MSTORE PUSH1 0x4 DUP2 ADD DUP4 SWAP1 MSTORE PUSH1 0x24 ADD PUSH2 0x85E JUMP JUMPDEST PUSH1 0x2 DUP3 SWAP1 SSTORE PUSH1 0x3 DUP2 SWAP1 SSTORE PUSH1 0x40 MLOAD DUP2 SWAP1 DUP4 SWAP1 PUSH32 0xF950A929751D87DB181A0A517DF21BB3ECD433ABBA584594402DB4B58A554835 SWAP1 PUSH1 0x0 SWAP1 LOG3 POP POP JUMP JUMPDEST PUSH2 0x2976 DUP3 DUP3 PUSH2 0x32ED JUMP JUMPDEST PUSH2 0x2980 DUP3 DUP3 PUSH2 0x32F7 JUMP JUMPDEST PUSH2 0x298A DUP3 DUP3 PUSH2 0x3334 JUMP JUMPDEST PUSH2 0x2994 DUP3 DUP3 PUSH2 0x3430 JUMP JUMPDEST PUSH2 0x299E DUP3 DUP3 PUSH2 0x3683 JUMP JUMPDEST PUSH2 0x29A8 DUP3 DUP3 PUSH2 0x36CD JUMP JUMPDEST PUSH2 0x9CA DUP3 DUP3 PUSH2 0x37BA JUMP JUMPDEST DUP1 SELFBALANCE LT ISZERO PUSH2 0x2A02 JUMPI PUSH1 0x40 MLOAD PUSH3 0x461BCD PUSH1 0xE5 SHL DUP2 MSTORE PUSH1 0x20 PUSH1 0x4 DUP3 ADD MSTORE PUSH1 0x1D PUSH1 0x24 DUP3 ADD MSTORE PUSH32 0x416464726573733A20696E73756666696369656E742062616C616E6365000000 PUSH1 0x44 DUP3 ADD MSTORE PUSH1 0x64 ADD PUSH2 0x85E JUMP JUMPDEST PUSH1 0x0 DUP3 PUSH1 0x1 PUSH1 0x1 PUSH1 0xA0 SHL SUB AND DUP3 PUSH1 0x40 MLOAD PUSH1 0x0 PUSH1 0x40 MLOAD DUP1 DUP4 SUB DUP2 DUP6 DUP8 GAS CALL SWAP3 POP POP POP RETURNDATASIZE DUP1 PUSH1 0x0 DUP2 EQ PUSH2 0x2A4F JUMPI PUSH1 0x40 MLOAD SWAP2 POP PUSH1 0x1F NOT PUSH1 0x3F RETURNDATASIZE ADD AND DUP3 ADD PUSH1 0x40 MSTORE RETURNDATASIZE DUP3 MSTORE RETURNDATASIZE PUSH1 0x0 PUSH1 0x20 DUP5 ADD RETURNDATACOPY PUSH2 0x2A54 JUMP JUMPDEST PUSH1 0x60 SWAP2 POP JUMPDEST POP POP SWAP1 POP DUP1 PUSH2 0x933 JUMPI PUSH1 0x40 MLOAD PUSH3 0x461BCD PUSH1 0xE5 SHL DUP2 MSTORE PUSH1 0x20 PUSH1 0x4 DUP3 ADD MSTORE PUSH1 0x3A PUSH1 0x24 DUP3 ADD MSTORE PUSH32 0x416464726573733A20756E61626C6520746F2073656E642076616C75652C2072 PUSH1 0x44 DUP3 ADD MSTORE PUSH32 0x6563697069656E74206D61792068617665207265766572746564000000000000 PUSH1 0x64 DUP3 ADD MSTORE PUSH1 0x84 ADD PUSH2 0x85E JUMP JUMPDEST PUSH1 0x1 SLOAD PUSH1 0x40 DUP1 MLOAD PUSH32 0x17FCB39B00000000000000000000000000000000000000000000000000000000 DUP2 MSTORE SWAP1 MLOAD PUSH1 0x0 SWAP3 PUSH1 0x1 PUSH1 0x1 PUSH1 0xA0 SHL SUB AND SWAP2 PUSH4 0x17FCB39B SWAP2 PUSH1 0x4 DUP1 DUP4 ADD SWAP3 PUSH1 0x20 SWAP3 SWAP2 SWAP1 DUP3 SWAP1 SUB ADD DUP2 DUP7 GAS STATICCALL ISZERO DUP1 ISZERO PUSH2 0x2B2E JUMPI RETURNDATASIZE PUSH1 0x0 DUP1 RETURNDATACOPY RETURNDATASIZE PUSH1 0x0 REVERT JUMPDEST POP POP POP POP PUSH1 0x40 MLOAD RETURNDATASIZE PUSH1 0x1F NOT PUSH1 0x1F DUP3 ADD AND DUP3 ADD DUP1 PUSH1 0x40 MSTORE POP DUP2 ADD SWAP1 PUSH2 0x2B52 SWAP2 SWAP1 PUSH2 0x5628 JUMP JUMPDEST SWAP1 POP SWAP1 JUMP JUMPDEST PUSH1 0x0 PUSH2 0x2B64 DUP3 PUSH1 0x20 PUSH2 0x5615 JUMP JUMPDEST DUP4 MLOAD LT ISZERO PUSH2 0x2BAB JUMPI DUP3 MLOAD PUSH1 0x40 MLOAD PUSH32 0x9B722DA700000000000000000000000000000000000000000000000000000000 DUP2 MSTORE PUSH2 0x85E SWAP2 DUP5 SWAP2 PUSH1 0x4 ADD SWAP2 DUP3 MSTORE PUSH1 0x20 DUP3 ADD MSTORE PUSH1 0x40 ADD SWAP1 JUMP JUMPDEST POP ADD PUSH1 0x20 ADD MLOAD SWAP1 JUMP JUMPDEST PUSH2 0x2BBE DUP3 DUP3 PUSH2 0x38D0 JUMP JUMPDEST PUSH2 0x2BC8 DUP3 DUP3 PUSH2 0x3972 JUMP JUMPDEST PUSH2 0x2BD2 DUP3 DUP3 PUSH2 0x3994 JUMP JUMPDEST PUSH2 0x9CA DUP3 DUP3 PUSH2 0x3BD3 JUMP JUMPDEST PUSH1 0x0 SLOAD PUSH2 0x100 SWAP1 DIV PUSH1 0xFF AND PUSH2 0x2C47 JUMPI PUSH1 0x40 MLOAD PUSH3 0x461BCD PUSH1 0xE5 SHL DUP2 MSTORE PUSH1 0x20 PUSH1 0x4 DUP3 ADD MSTORE PUSH1 0x2B PUSH1 0x24 DUP3 ADD MSTORE PUSH32 0x496E697469616C697A61626C653A20636F6E7472616374206973206E6F742069 PUSH1 0x44 DUP3 ADD MSTORE PUSH11 0x6E697469616C697A696E67 PUSH1 0xA8 SHL PUSH1 0x64 DUP3 ADD MSTORE PUSH1 0x84 ADD PUSH2 0x85E JUMP JUMPDEST PUSH2 0x2CB5 DUP2 PUSH1 0x0 ADD MLOAD PUSH1 0x1 PUSH1 0x1 PUSH1 0xA0 SHL SUB AND PUSH4 0xD09EDF31 PUSH1 0x40 MLOAD DUP2 PUSH4 0xFFFFFFFF AND PUSH1 0xE0 SHL DUP2 MSTORE PUSH1 0x4 ADD PUSH1 0x20 PUSH1 0x40 MLOAD DUP1 DUP4 SUB DUP2 DUP7 GAS STATICCALL ISZERO DUP1 ISZERO PUSH2 0x2C8C JUMPI RETURNDATASIZE PUSH1 0x0 DUP1 RETURNDATACOPY RETURNDATASIZE PUSH1 0x0 REVERT JUMPDEST POP POP POP POP PUSH1 0x40 MLOAD RETURNDATASIZE PUSH1 0x1F NOT PUSH1 0x1F DUP3 ADD AND DUP3 ADD DUP1 PUSH1 0x40 MSTORE POP DUP2 ADD SWAP1 PUSH2 0x2CB0 SWAP2 SWAP1 PUSH2 0x5628 JUMP JUMPDEST PUSH2 0x3C00 JUMP JUMPDEST PUSH2 0x2511 DUP2 PUSH2 0x3C74 JUMP JUMPDEST PUSH1 0x0 SLOAD PUSH2 0x100 SWAP1 DIV PUSH1 0xFF AND PUSH2 0x2D29 JUMPI PUSH1 0x40 MLOAD PUSH3 0x461BCD PUSH1 0xE5 SHL DUP2 MSTORE PUSH1 0x20 PUSH1 0x4 DUP3 ADD MSTORE PUSH1 0x2B PUSH1 0x24 DUP3 ADD MSTORE PUSH32 0x496E697469616C697A61626C653A20636F6E7472616374206973206E6F742069 PUSH1 0x44 DUP3 ADD MSTORE PUSH11 0x6E697469616C697A696E67 PUSH1 0xA8 SHL PUSH1 0x64 DUP3 ADD MSTORE PUSH1 0x84 ADD PUSH2 0x85E JUMP JUMPDEST PUSH2 0x2D31 PUSH2 0x3D2C JUMP JUMPDEST JUMP JUMPDEST PUSH1 0x0 SLOAD PUSH2 0x100 SWAP1 DIV PUSH1 0xFF AND PUSH2 0x2D9E JUMPI PUSH1 0x40 MLOAD PUSH3 0x461BCD PUSH1 0xE5 SHL DUP2 MSTORE PUSH1 0x20 PUSH1 0x4 DUP3 ADD MSTORE PUSH1 0x2B PUSH1 0x24 DUP3 ADD MSTORE PUSH32 0x496E697469616C697A61626C653A20636F6E7472616374206973206E6F742069 PUSH1 0x44 DUP3 ADD MSTORE PUSH11 0x6E697469616C697A696E67 PUSH1 0xA8 SHL PUSH1 0x64 DUP3 ADD MSTORE PUSH1 0x84 ADD PUSH2 0x85E JUMP JUMPDEST PUSH2 0x2511 DUP2 PUSH2 0x3D97 JUMP JUMPDEST PUSH1 0x0 SLOAD PUSH2 0x100 SWAP1 DIV PUSH1 0xFF AND PUSH2 0x2E12 JUMPI PUSH1 0x40 MLOAD PUSH3 0x461BCD PUSH1 0xE5 SHL DUP2 MSTORE PUSH1 0x20 PUSH1 0x4 DUP3 ADD MSTORE PUSH1 0x2B PUSH1 0x24 DUP3 ADD MSTORE PUSH32 0x496E697469616C697A61626C653A20636F6E7472616374206973206E6F742069 PUSH1 0x44 DUP3 ADD MSTORE PUSH11 0x6E697469616C697A696E67 PUSH1 0xA8 SHL PUSH1 0x64 DUP3 ADD MSTORE PUSH1 0x84 ADD PUSH2 0x85E JUMP JUMPDEST PUSH2 0x2511 DUP2 PUSH2 0x3E1E JUMP JUMPDEST PUSH1 0x0 SLOAD PUSH2 0x100 SWAP1 DIV PUSH1 0xFF AND PUSH2 0x2E86 JUMPI PUSH1 0x40 MLOAD PUSH3 0x461BCD PUSH1 0xE5 SHL DUP2 MSTORE PUSH1 0x20 PUSH1 0x4 DUP3 ADD MSTORE PUSH1 0x2B PUSH1 0x24 DUP3 ADD MSTORE PUSH32 0x496E697469616C697A61626C653A20636F6E7472616374206973206E6F742069 PUSH1 0x44 DUP3 ADD MSTORE PUSH11 0x6E697469616C697A696E67 PUSH1 0xA8 SHL PUSH1 0x64 DUP3 ADD MSTORE PUSH1 0x84 ADD PUSH2 0x85E JUMP JUMPDEST PUSH2 0x2511 DUP2 PUSH2 0x3EA5 JUMP JUMPDEST PUSH1 0x0 SLOAD PUSH2 0x100 SWAP1 DIV PUSH1 0xFF AND PUSH2 0x2EFA JUMPI PUSH1 0x40 MLOAD PUSH3 0x461BCD PUSH1 0xE5 SHL DUP2 MSTORE PUSH1 0x20 PUSH1 0x4 DUP3 ADD MSTORE PUSH1 0x2B PUSH1 0x24 DUP3 ADD MSTORE PUSH32 0x496E697469616C697A61626C653A20636F6E7472616374206973206E6F742069 PUSH1 0x44 DUP3 ADD MSTORE PUSH11 0x6E697469616C697A696E67 PUSH1 0xA8 SHL PUSH1 0x64 DUP3 ADD MSTORE PUSH1 0x84 ADD PUSH2 0x85E JUMP JUMPDEST PUSH2 0x2511 DUP2 PUSH2 0x3F65 JUMP JUMPDEST PUSH1 0x0 SLOAD PUSH2 0x100 SWAP1 DIV PUSH1 0xFF AND PUSH2 0x2F6E JUMPI PUSH1 0x40 MLOAD PUSH3 0x461BCD PUSH1 0xE5 SHL DUP2 MSTORE PUSH1 0x20 PUSH1 0x4 DUP3 ADD MSTORE PUSH1 0x2B PUSH1 0x24 DUP3 ADD MSTORE PUSH32 0x496E697469616C697A61626C653A20636F6E7472616374206973206E6F742069 PUSH1 0x44 DUP3 ADD MSTORE PUSH11 0x6E697469616C697A696E67 PUSH1 0xA8 SHL PUSH1 0x64 DUP3 ADD MSTORE PUSH1 0x84 ADD PUSH2 0x85E JUMP JUMPDEST PUSH2 0x2511 DUP2 PUSH2 0x4055 JUMP JUMPDEST PUSH1 0x0 SLOAD PUSH2 0x100 SWAP1 DIV PUSH1 0xFF AND PUSH2 0x2511 JUMPI PUSH1 0x40 MLOAD PUSH3 0x461BCD PUSH1 0xE5 SHL DUP2 MSTORE PUSH1 0x20 PUSH1 0x4 DUP3 ADD MSTORE PUSH1 0x2B PUSH1 0x24 DUP3 ADD MSTORE PUSH32 0x496E697469616C697A61626C653A20636F6E7472616374206973206E6F742069 PUSH1 0x44 DUP3 ADD MSTORE PUSH11 0x6E697469616C697A696E67 PUSH1 0xA8 SHL PUSH1 0x64 DUP3 ADD MSTORE PUSH1 0x84 ADD PUSH2 0x85E JUMP JUMPDEST PUSH1 0x0 DUP1 DUP1 DUP4 PUSH3 0x264965 DUP2 ADD DUP3 PUSH3 0x23AB1 PUSH1 0x4 DUP4 MUL SDIV SWAP1 POP PUSH1 0x4 PUSH1 0x3 PUSH3 0x23AB1 DUP4 MUL ADD SDIV SWAP1 SWAP2 SUB SWAP1 PUSH1 0x0 PUSH3 0x164B09 PUSH2 0xFA0 PUSH1 0x1 DUP6 ADD MUL SDIV SWAP1 POP PUSH1 0x4 PUSH2 0x5B5 DUP3 MUL SDIV DUP4 SUB PUSH1 0x1F ADD SWAP3 POP PUSH1 0x0 PUSH2 0x98F DUP5 PUSH1 0x50 MUL DUP2 PUSH2 0x303F JUMPI PUSH2 0x303F PUSH2 0x55D2 JUMP JUMPDEST SDIV SWAP1 POP PUSH1 0x0 PUSH1 0x50 PUSH2 0x98F DUP4 MUL SDIV DUP6 SUB SWAP1 POP PUSH1 0xB DUP3 SDIV PUSH32 0xFFFFFFFFFFFFFFFFFFFFFFFFFFFFFFFFFFFFFFFFFFFFFFFFFFFFFFFFFFFFFFCF SWAP5 SWAP1 SWAP5 ADD PUSH1 0x64 MUL SWAP3 SWAP1 SWAP3 ADD DUP4 ADD SWAP10 PUSH1 0x2 PUSH1 0xC SWAP1 SWAP5 MUL SWAP1 SWAP2 SUB SWAP3 SWAP1 SWAP3 ADD SWAP8 POP SWAP6 POP SWAP4 POP POP POP POP JUMP JUMPDEST PUSH1 0x0 DUP2 PUSH1 0x1 EQ DUP1 PUSH2 0x30AD JUMPI POP DUP2 PUSH1 0x3 EQ JUMPDEST DUP1 PUSH2 0x30B8 JUMPI POP DUP2 PUSH1 0x5 EQ JUMPDEST DUP1 PUSH2 0x30C3 JUMPI POP DUP2 PUSH1 0x7 EQ JUMPDEST DUP1 PUSH2 0x30CE JUMPI POP DUP2 PUSH1 0x8 EQ JUMPDEST DUP1 PUSH2 0x30D9 JUMPI POP DUP2 PUSH1 0xA EQ JUMPDEST DUP1 PUSH2 0x30E4 JUMPI POP DUP2 PUSH1 0xC EQ JUMPDEST ISZERO PUSH2 0x30F1 JUMPI POP PUSH1 0x1F PUSH2 0xE71 JUMP JUMPDEST DUP2 PUSH1 0x2 EQ PUSH2 0x3101 JUMPI POP PUSH1 0x1E PUSH2 0xE71 JUMP JUMPDEST PUSH2 0x310A DUP4 PUSH2 0x4145 JUMP JUMPDEST PUSH2 0x3115 JUMPI PUSH1 0x1C PUSH2 0x3118 JUMP JUMPDEST PUSH1 0x1D JUMPDEST PUSH1 0xFF AND SWAP4 SWAP3 POP POP POP JUMP JUMPDEST PUSH1 0x0 DUP2 DUP2 MSTORE PUSH1 0x1 DUP4 ADD PUSH1 0x20 MSTORE PUSH1 0x40 DUP2 KECCAK256 SLOAD DUP1 ISZERO PUSH2 0x320B JUMPI PUSH1 0x0 PUSH2 0x3146 PUSH1 0x1 DUP4 PUSH2 0x5645 JUMP JUMPDEST DUP6 SLOAD SWAP1 SWAP2 POP PUSH1 0x0 SWAP1 PUSH2 0x315A SWAP1 PUSH1 0x1 SWAP1 PUSH2 0x5645 JUMP JUMPDEST SWAP1 POP DUP2 DUP2 EQ PUSH2 0x31BF JUMPI PUSH1 0x0 DUP7 PUSH1 0x0 ADD DUP3 DUP2 SLOAD DUP2 LT PUSH2 0x317A JUMPI PUSH2 0x317A PUSH2 0x52F4 JUMP JUMPDEST SWAP1 PUSH1 0x0 MSTORE PUSH1 0x20 PUSH1 0x0 KECCAK256 ADD SLOAD SWAP1 POP DUP1 DUP8 PUSH1 0x0 ADD DUP5 DUP2 SLOAD DUP2 LT PUSH2 0x319D JUMPI PUSH2 0x319D PUSH2 0x52F4 JUMP JUMPDEST PUSH1 0x0 SWAP2 DUP3 MSTORE PUSH1 0x20 DUP1 DUP4 KECCAK256 SWAP1 SWAP2 ADD SWAP3 SWAP1 SWAP3 SSTORE SWAP2 DUP3 MSTORE PUSH1 0x1 DUP9 ADD SWAP1 MSTORE PUSH1 0x40 SWAP1 KECCAK256 DUP4 SWAP1 SSTORE JUMPDEST DUP6 SLOAD DUP7 SWAP1 DUP1 PUSH2 0x31D0 JUMPI PUSH2 0x31D0 PUSH2 0x5658 JUMP JUMPDEST PUSH1 0x1 SWAP1 SUB DUP2 DUP2 SWAP1 PUSH1 0x0 MSTORE PUSH1 0x20 PUSH1 0x0 KECCAK256 ADD PUSH1 0x0 SWAP1 SSTORE SWAP1 SSTORE DUP6 PUSH1 0x1 ADD PUSH1 0x0 DUP7 DUP2 MSTORE PUSH1 0x20 ADD SWAP1 DUP2 MSTORE PUSH1 0x20 ADD PUSH1 0x0 KECCAK256 PUSH1 0x0 SWAP1 SSTORE PUSH1 0x1 SWAP4 POP POP POP POP PUSH2 0xE71 JUMP JUMPDEST PUSH1 0x0 SWAP2 POP POP PUSH2 0xE71 JUMP JUMPDEST POP SWAP3 SWAP2 POP POP JUMP JUMPDEST PUSH1 0x0 DUP2 DUP2 MSTORE PUSH1 0x1 DUP4 ADD PUSH1 0x20 MSTORE PUSH1 0x40 DUP2 KECCAK256 SLOAD PUSH2 0x3263 JUMPI POP DUP2 SLOAD PUSH1 0x1 DUP2 DUP2 ADD DUP5 SSTORE PUSH1 0x0 DUP5 DUP2 MSTORE PUSH1 0x20 DUP1 DUP3 KECCAK256 SWAP1 SWAP4 ADD DUP5 SWAP1 SSTORE DUP5 SLOAD DUP5 DUP3 MSTORE DUP3 DUP7 ADD SWAP1 SWAP4 MSTORE PUSH1 0x40 SWAP1 KECCAK256 SWAP2 SWAP1 SWAP2 SSTORE PUSH2 0xE71 JUMP JUMPDEST POP PUSH1 0x0 PUSH2 0xE71 JUMP JUMPDEST PUSH1 0x0 PUSH2 0x117B DUP4 DUP4 PUSH2 0x4181 JUMP JUMPDEST PUSH1 0x0 DUP3 DUP3 MUL DUP4 ISZERO DUP1 ISZERO SWAP1 PUSH2 0x329A JUMPI POP DUP3 DUP5 DUP3 DUP2 PUSH2 0x3296 JUMPI PUSH2 0x3296 PUSH2 0x55D2 JUMP JUMPDEST DIV EQ ISZERO JUMPDEST ISZERO PUSH2 0x32DB JUMPI PUSH1 0x40 MLOAD PUSH32 0xE8E4A4FA00000000000000000000000000000000000000000000000000000000 DUP2 MSTORE PUSH1 0x4 DUP2 ADD DUP6 SWAP1 MSTORE PUSH1 0x24 DUP2 ADD DUP5 SWAP1 MSTORE PUSH1 0x44 ADD PUSH2 0x85E JUMP JUMPDEST PUSH8 0xDE0B6B3A7640000 SWAP1 DIV SWAP4 SWAP3 POP POP POP JUMP JUMPDEST PUSH2 0x9CA DUP3 DUP3 PUSH2 0x4398 JUMP JUMPDEST PUSH1 0x4 SLOAD PUSH1 0xFF AND ISZERO PUSH2 0x9CA JUMPI PUSH1 0x40 MLOAD PUSH32 0xC0F2312800000000000000000000000000000000000000000000000000000000 DUP2 MSTORE PUSH1 0x4 ADD PUSH1 0x40 MLOAD DUP1 SWAP2 SUB SWAP1 REVERT JUMPDEST GAS PUSH1 0x5 SSTORE PUSH1 0x40 DUP1 MLOAD PUSH1 0x80 DUP2 ADD DUP3 MSTORE PUSH1 0x6 SLOAD DUP1 DUP3 MSTORE PUSH1 0x7 SLOAD PUSH1 0x20 DUP4 ADD MSTORE PUSH1 0x8 SLOAD SWAP3 DUP3 ADD SWAP3 SWAP1 SWAP3 MSTORE PUSH1 0x9 SLOAD PUSH1 0x60 DUP3 ADD MSTORE SWAP1 PUSH1 0x0 SWAP1 ISZERO DUP1 PUSH2 0x3373 JUMPI POP DUP2 MLOAD GASPRICE GT ISZERO JUMPDEST SWAP1 POP DUP1 PUSH2 0x33B8 JUMPI DUP2 MLOAD PUSH1 0x40 MLOAD PUSH32 0xCBB35EB700000000000000000000000000000000000000000000000000000000 DUP2 MSTORE GASPRICE PUSH1 0x4 DUP3 ADD MSTORE PUSH1 0x24 DUP2 ADD SWAP2 SWAP1 SWAP2 MSTORE PUSH1 0x44 ADD PUSH2 0x85E JUMP JUMPDEST PUSH1 0x0 PUSH2 0x33C4 BASEFEE GASPRICE PUSH2 0x5645 JUMP JUMPDEST SWAP1 POP PUSH1 0x0 DUP4 PUSH1 0x20 ADD MLOAD PUSH1 0x0 EQ DUP1 PUSH2 0x33DF JUMPI POP DUP4 PUSH1 0x20 ADD MLOAD DUP3 GT ISZERO JUMPDEST SWAP1 POP DUP1 PUSH2 0x3428 JUMPI PUSH1 0x20 DUP5 ADD MLOAD PUSH1 0x40 MLOAD PUSH32 0x56E5387F00000000000000000000000000000000000000000000000000000000 DUP2 MSTORE PUSH2 0x85E SWAP2 DUP5 SWAP2 PUSH1 0x4 ADD SWAP2 DUP3 MSTORE PUSH1 0x20 DUP3 ADD MSTORE PUSH1 0x40 ADD SWAP1 JUMP JUMPDEST POP POP POP POP POP POP JUMP JUMPDEST PUSH1 0xA SLOAD PUSH1 0xB SLOAD PUSH1 0xC SLOAD PUSH1 0xE SLOAD PUSH1 0xFF SWAP1 SWAP4 AND SWAP3 TIMESTAMP DUP3 GT ISZERO PUSH2 0x3485 JUMPI PUSH1 0x40 MLOAD PUSH32 0x13CE60B00000000000000000000000000000000000000000000000000000000 DUP2 MSTORE TIMESTAMP PUSH1 0x4 DUP3 ADD MSTORE PUSH1 0x24 DUP2 ADD DUP4 SWAP1 MSTORE PUSH1 0x44 ADD PUSH2 0x85E JUMP JUMPDEST PUSH1 0x0 DUP5 PUSH1 0x2 DUP2 GT ISZERO PUSH2 0x3499 JUMPI PUSH2 0x3499 PUSH2 0x511F JUMP JUMPDEST SUB PUSH2 0x356B JUMPI DUP3 PUSH1 0x0 SUB PUSH2 0x34AE JUMPI POP POP POP POP POP POP JUMP JUMPDEST DUP1 PUSH1 0x0 SUB PUSH2 0x34C8 JUMPI PUSH2 0x34C0 DUP4 TIMESTAMP PUSH2 0x5615 JUMP JUMPDEST PUSH1 0xD SSTORE PUSH2 0x3428 JUMP JUMPDEST PUSH1 0x0 PUSH2 0x34D4 DUP4 TIMESTAMP PUSH2 0x5645 JUMP JUMPDEST SWAP1 POP PUSH1 0x0 PUSH2 0x34E2 DUP6 DUP4 PUSH2 0x5601 JUMP JUMPDEST SWAP1 POP PUSH1 0x0 PUSH2 0x34F0 DUP7 DUP4 PUSH2 0x5540 JUMP JUMPDEST PUSH2 0x34FA SWAP1 DUP5 PUSH2 0x5645 JUMP JUMPDEST SWAP1 POP DUP4 DUP2 GT ISZERO PUSH2 0x353F JUMPI PUSH1 0x40 MLOAD PUSH32 0x13CE60B00000000000000000000000000000000000000000000000000000000 DUP2 MSTORE TIMESTAMP PUSH1 0x4 DUP3 ADD MSTORE PUSH1 0x24 DUP2 ADD DUP7 SWAP1 MSTORE PUSH1 0x44 ADD PUSH2 0x85E JUMP JUMPDEST DUP6 PUSH2 0x354B DUP4 PUSH1 0x1 PUSH2 0x5615 JUMP JUMPDEST PUSH2 0x3555 SWAP2 SWAP1 PUSH2 0x5540 JUMP JUMPDEST PUSH2 0x355F SWAP1 DUP7 PUSH2 0x5615 JUMP JUMPDEST PUSH1 0xD SSTORE POP PUSH2 0x3428 SWAP2 POP POP JUMP JUMPDEST DUP2 TIMESTAMP LT ISZERO DUP1 ISZERO PUSH2 0x3584 JUMPI POP PUSH2 0x3580 DUP2 DUP4 PUSH2 0x5615 JUMP JUMPDEST TIMESTAMP GT ISZERO JUMPDEST ISZERO PUSH2 0x3593 JUMPI PUSH2 0x34C0 DUP3 DUP5 PUSH2 0x442D JUMP JUMPDEST PUSH1 0x0 PUSH1 0x1 DUP6 PUSH1 0x2 DUP2 GT ISZERO PUSH2 0x35A9 JUMPI PUSH2 0x35A9 PUSH2 0x511F JUMP JUMPDEST EQ PUSH2 0x35BC JUMPI PUSH2 0x35B7 TIMESTAMP PUSH2 0x263D JUMP JUMPDEST PUSH2 0x35C5 JUMP JUMPDEST PUSH2 0x35C5 DUP4 PUSH2 0x2626 JUMP JUMPDEST SWAP1 POP PUSH1 0x0 PUSH2 0x35D3 DUP5 DUP4 PUSH2 0x44C5 JUMP JUMPDEST SWAP1 POP DUP1 TIMESTAMP LT ISZERO PUSH2 0x3618 JUMPI PUSH1 0x40 MLOAD PUSH32 0x13CE60B00000000000000000000000000000000000000000000000000000000 DUP2 MSTORE TIMESTAMP PUSH1 0x4 DUP3 ADD MSTORE PUSH1 0x24 DUP2 ADD DUP3 SWAP1 MSTORE PUSH1 0x44 ADD PUSH2 0x85E JUMP JUMPDEST PUSH1 0x0 PUSH2 0x3624 DUP5 DUP4 PUSH2 0x5615 JUMP JUMPDEST SWAP1 POP TIMESTAMP DUP2 LT DUP1 ISZERO PUSH2 0x366A JUMPI PUSH1 0x40 MLOAD PUSH32 0x13CE60B00000000000000000000000000000000000000000000000000000000 DUP2 MSTORE TIMESTAMP PUSH1 0x4 DUP3 ADD MSTORE PUSH1 0x24 DUP2 ADD DUP4 SWAP1 MSTORE PUSH1 0x44 ADD PUSH2 0x85E JUMP JUMPDEST PUSH2 0x3674 DUP4 DUP9 PUSH2 0x442D JUMP JUMPDEST PUSH1 0xD SSTORE POP POP POP POP POP POP POP POP POP POP JUMP JUMPDEST PUSH2 0x368C DUP3 PUSH2 0x1137 JUMP JUMPDEST PUSH2 0x9CA JUMPI PUSH1 0x40 MLOAD PUSH32 0x7A24104500000000000000000000000000000000000000000000000000000000 DUP2 MSTORE PUSH1 0x1 PUSH1 0x1 PUSH1 0xA0 SHL SUB DUP4 AND PUSH1 0x4 DUP3 ADD MSTORE PUSH1 0x24 ADD PUSH2 0x85E JUMP JUMPDEST PUSH1 0x0 PUSH2 0x36D8 DUP4 PUSH2 0x1AD9 JUMP JUMPDEST DUP1 MLOAD SWAP1 SWAP2 POP PUSH1 0x1 PUSH1 0x1 PUSH1 0xA0 SHL SUB AND PUSH2 0x36EF JUMPI POP POP POP JUMP JUMPDEST PUSH1 0x0 DUP4 PUSH1 0x1 PUSH1 0x1 PUSH1 0xA0 SHL SUB AND DUP3 PUSH1 0x0 ADD MLOAD PUSH1 0x1 PUSH1 0x1 PUSH1 0xA0 SHL SUB AND EQ PUSH2 0x372B JUMPI PUSH2 0x3726 PUSH2 0x371F DUP6 DUP5 PUSH1 0x0 ADD MLOAD PUSH2 0x326B JUMP JUMPDEST DUP5 SWAP1 PUSH2 0x3277 JUMP JUMPDEST PUSH2 0x372D JUMP JUMPDEST DUP3 JUMPDEST SWAP1 POP PUSH1 0x0 DUP3 PUSH1 0x20 ADD MLOAD DUP3 LT ISZERO DUP1 ISZERO PUSH2 0x3755 JUMPI POP PUSH1 0x40 DUP4 ADD MLOAD ISZERO DUP1 PUSH2 0x3755 JUMPI POP DUP3 PUSH1 0x40 ADD MLOAD DUP3 GT ISZERO JUMPDEST SWAP1 POP DUP1 PUSH2 0x982 JUMPI DUP3 MLOAD PUSH1 0x20 DUP5 ADD MLOAD PUSH1 0x40 DUP1 DUP7 ADD MLOAD SWAP1 MLOAD PUSH32 0x7C63A4B000000000000000000000000000000000000000000000000000000000 DUP2 MSTORE PUSH1 0x1 PUSH1 0x1 PUSH1 0xA0 SHL SUB SWAP1 SWAP4 AND PUSH1 0x4 DUP5 ADD MSTORE PUSH1 0x24 DUP4 ADD DUP6 SWAP1 MSTORE PUSH1 0x44 DUP4 ADD SWAP2 SWAP1 SWAP2 MSTORE PUSH1 0x64 DUP3 ADD MSTORE PUSH1 0x84 ADD PUSH2 0x85E JUMP JUMPDEST PUSH1 0x0 PUSH2 0x37C5 DUP4 PUSH2 0x1D8C JUMP JUMPDEST PUSH1 0x40 DUP1 MLOAD PUSH1 0xA0 DUP2 ADD DUP3 MSTORE DUP3 SLOAD PUSH1 0x1 PUSH1 0x1 PUSH1 0xA0 SHL SUB AND DUP1 DUP3 MSTORE PUSH1 0x1 DUP5 ADD SLOAD PUSH1 0x20 DUP4 ADD MSTORE PUSH1 0x2 DUP5 ADD SLOAD SWAP3 DUP3 ADD SWAP3 SWAP1 SWAP3 MSTORE PUSH1 0x3 DUP4 ADD SLOAD PUSH1 0x60 DUP3 ADD MSTORE PUSH1 0x4 SWAP1 SWAP3 ADD SLOAD PUSH1 0x80 DUP4 ADD MSTORE SWAP1 SWAP2 POP PUSH2 0x3814 JUMPI POP POP POP JUMP JUMPDEST PUSH1 0x0 DUP4 PUSH1 0x1 PUSH1 0x1 PUSH1 0xA0 SHL SUB AND DUP3 PUSH1 0x0 ADD MLOAD PUSH1 0x1 PUSH1 0x1 PUSH1 0xA0 SHL SUB AND EQ PUSH2 0x3849 JUMPI PUSH2 0x3844 PUSH2 0x371F DUP6 DUP5 PUSH1 0x0 ADD MLOAD PUSH2 0x326B JUMP JUMPDEST PUSH2 0x384B JUMP JUMPDEST DUP3 JUMPDEST SWAP1 POP PUSH1 0x0 DUP3 PUSH1 0x80 ADD MLOAD TIMESTAMP LT PUSH2 0x3861 JUMPI PUSH1 0x0 PUSH2 0x3867 JUMP JUMPDEST DUP3 PUSH1 0x40 ADD MLOAD JUMPDEST PUSH2 0x3871 SWAP1 DUP4 PUSH2 0x5615 JUMP JUMPDEST SWAP1 POP DUP3 PUSH1 0x20 ADD MLOAD DUP2 GT ISZERO PUSH2 0x982 JUMPI DUP3 MLOAD PUSH1 0x20 DUP5 ADD MLOAD PUSH1 0x40 MLOAD PUSH32 0xB8858D5D00000000000000000000000000000000000000000000000000000000 DUP2 MSTORE PUSH1 0x1 PUSH1 0x1 PUSH1 0xA0 SHL SUB SWAP1 SWAP3 AND PUSH1 0x4 DUP4 ADD MSTORE PUSH1 0x24 DUP3 ADD MSTORE PUSH1 0x44 DUP2 ADD DUP3 SWAP1 MSTORE PUSH1 0x64 ADD PUSH2 0x85E JUMP JUMPDEST PUSH1 0x0 PUSH2 0x38DB DUP4 PUSH2 0x1D8C JUMP JUMPDEST DUP1 SLOAD SWAP1 SWAP2 POP PUSH1 0x1 PUSH1 0x1 PUSH1 0xA0 SHL SUB AND PUSH2 0x38F2 JUMPI POP POP POP JUMP JUMPDEST DUP1 SLOAD PUSH1 0x0 SWAP1 PUSH1 0x1 PUSH1 0x1 PUSH1 0xA0 SHL SUB DUP6 DUP2 AND SWAP2 AND EQ PUSH2 0x3928 JUMPI DUP2 SLOAD PUSH2 0x3923 SWAP1 PUSH2 0x371F SWAP1 DUP7 SWAP1 PUSH1 0x1 PUSH1 0x1 PUSH1 0xA0 SHL SUB AND PUSH2 0x326B JUMP JUMPDEST PUSH2 0x392A JUMP JUMPDEST DUP3 JUMPDEST SWAP1 POP DUP2 PUSH1 0x4 ADD SLOAD TIMESTAMP LT PUSH2 0x3953 JUMPI PUSH1 0x0 PUSH1 0x2 DUP4 ADD SSTORE PUSH1 0x3 DUP3 ADD SLOAD PUSH2 0x394D SWAP1 TIMESTAMP PUSH2 0x5615 JUMP JUMPDEST PUSH1 0x4 DUP4 ADD SSTORE JUMPDEST DUP1 DUP3 PUSH1 0x2 ADD PUSH1 0x0 DUP3 DUP3 SLOAD PUSH2 0x3967 SWAP2 SWAP1 PUSH2 0x5615 JUMP JUMPDEST SWAP1 SWAP2 SSTORE POP POP POP POP POP POP JUMP JUMPDEST PUSH1 0xD SLOAD PUSH1 0x0 SUB PUSH2 0x3980 JUMPI POP POP JUMP JUMPDEST PUSH2 0x398B PUSH1 0xD SLOAD PUSH2 0x44E4 JUMP JUMPDEST POP POP PUSH1 0x0 PUSH1 0xD SSTORE JUMP JUMPDEST PUSH1 0x5 SLOAD PUSH1 0x0 SUB PUSH2 0x39D0 JUMPI PUSH1 0x40 MLOAD PUSH32 0x1F5B8FC600000000000000000000000000000000000000000000000000000000 DUP2 MSTORE PUSH1 0x4 ADD PUSH1 0x40 MLOAD DUP1 SWAP2 SUB SWAP1 REVERT JUMPDEST PUSH1 0x40 DUP1 MLOAD PUSH1 0x80 DUP2 ADD DUP3 MSTORE PUSH1 0x6 SLOAD DUP2 MSTORE PUSH1 0x7 SLOAD PUSH1 0x20 DUP3 ADD MSTORE PUSH1 0x8 SLOAD SWAP2 DUP2 ADD SWAP2 SWAP1 SWAP2 MSTORE PUSH1 0x9 SLOAD PUSH1 0x60 DUP3 ADD MSTORE PUSH1 0x0 GAS PUSH1 0x5 SLOAD PUSH2 0x3A09 SWAP2 SWAP1 PUSH2 0x5645 JUMP JUMPDEST SWAP1 POP PUSH1 0x0 PUSH2 0x3A17 GASPRICE DUP4 PUSH2 0x5540 JUMP JUMPDEST SWAP1 POP PUSH1 0x0 DUP4 PUSH1 0x40 ADD MLOAD PUSH1 0x0 EQ DUP1 PUSH2 0x3A32 JUMPI POP DUP4 PUSH1 0x40 ADD MLOAD DUP3 GT ISZERO JUMPDEST SWAP1 POP DUP1 PUSH2 0x3A7C JUMPI DUP2 DUP5 PUSH1 0x40 ADD MLOAD PUSH1 0x40 MLOAD PUSH32 0xAF258EF200000000000000000000000000000000000000000000000000000000 DUP2 MSTORE PUSH1 0x4 ADD PUSH2 0x85E SWAP3 SWAP2 SWAP1 SWAP2 DUP3 MSTORE PUSH1 0x20 DUP3 ADD MSTORE PUSH1 0x40 ADD SWAP1 JUMP JUMPDEST PUSH1 0x0 PUSH1 0x5 SSTORE PUSH1 0x60 DUP5 ADD MLOAD ISZERO DUP1 ISZERO SWAP1 PUSH2 0x3A94 JUMPI POP PUSH1 0x0 DUP6 GT JUMPDEST ISZERO PUSH2 0x3428 JUMPI PUSH1 0x0 PUSH2 0x3B67 ADDRESS PUSH1 0x1 PUSH1 0x1 PUSH1 0xA0 SHL SUB AND PUSH4 0x4FD49EFD PUSH1 0x40 MLOAD DUP2 PUSH4 0xFFFFFFFF AND PUSH1 0xE0 SHL DUP2 MSTORE PUSH1 0x4 ADD PUSH1 0x20 PUSH1 0x40 MLOAD DUP1 DUP4 SUB DUP2 DUP7 GAS STATICCALL ISZERO DUP1 ISZERO PUSH2 0x3ADC JUMPI RETURNDATASIZE PUSH1 0x0 DUP1 RETURNDATACOPY RETURNDATASIZE PUSH1 0x0 REVERT JUMPDEST POP POP POP POP PUSH1 0x40 MLOAD RETURNDATASIZE PUSH1 0x1F NOT PUSH1 0x1F DUP3 ADD AND DUP3 ADD DUP1 PUSH1 0x40 MSTORE POP DUP2 ADD SWAP1 PUSH2 0x3B00 SWAP2 SWAP1 PUSH2 0x5628 JUMP JUMPDEST PUSH1 0x1 PUSH1 0x1 PUSH1 0xA0 SHL SUB AND PUSH4 0x17FCB39B PUSH1 0x40 MLOAD DUP2 PUSH4 0xFFFFFFFF AND PUSH1 0xE0 SHL DUP2 MSTORE PUSH1 0x4 ADD PUSH1 0x20 PUSH1 0x40 MLOAD DUP1 DUP4 SUB DUP2 DUP7 GAS STATICCALL ISZERO DUP1 ISZERO PUSH2 0x3B3D JUMPI RETURNDATASIZE PUSH1 0x0 DUP1 RETURNDATACOPY RETURNDATASIZE PUSH1 0x0 REVERT JUMPDEST POP POP POP POP PUSH1 0x40 MLOAD RETURNDATASIZE PUSH1 0x1F NOT PUSH1 0x1F DUP3 ADD AND DUP3 ADD DUP1 PUSH1 0x40 MSTORE POP DUP2 ADD SWAP1 PUSH2 0x3B61 SWAP2 SWAP1 PUSH2 0x5628 JUMP JUMPDEST DUP9 PUSH2 0x326B JUMP JUMPDEST SWAP1 POP PUSH1 0x0 PUSH2 0x3B75 DUP5 DUP4 PUSH2 0x4519 JUMP JUMPDEST SWAP1 POP PUSH1 0x0 PUSH2 0x3B83 DUP3 DUP10 PUSH2 0x45C2 JUMP JUMPDEST SWAP1 POP DUP7 PUSH1 0x60 ADD MLOAD DUP2 GT ISZERO PUSH2 0x112C JUMPI PUSH1 0x60 DUP8 ADD MLOAD PUSH1 0x40 MLOAD PUSH32 0x297747F00000000000000000000000000000000000000000000000000000000 DUP2 MSTORE PUSH2 0x85E SWAP2 DUP4 SWAP2 PUSH1 0x4 ADD SWAP2 DUP3 MSTORE PUSH1 0x20 DUP3 ADD MSTORE PUSH1 0x40 ADD SWAP1 JUMP JUMPDEST PUSH1 0x40 MLOAD PUSH32 0x68F46C45A243A0E9065A97649FAF9A5AFE1692F2679E650C2F853B9CD734CC0E SWAP1 PUSH1 0x0 SWAP1 LOG1 POP POP JUMP JUMPDEST PUSH1 0x0 SLOAD PUSH2 0x100 SWAP1 DIV PUSH1 0xFF AND PUSH2 0x3C6B JUMPI PUSH1 0x40 MLOAD PUSH3 0x461BCD PUSH1 0xE5 SHL DUP2 MSTORE PUSH1 0x20 PUSH1 0x4 DUP3 ADD MSTORE PUSH1 0x2B PUSH1 0x24 DUP3 ADD MSTORE PUSH32 0x496E697469616C697A61626C653A20636F6E7472616374206973206E6F742069 PUSH1 0x44 DUP3 ADD MSTORE PUSH11 0x6E697469616C697A696E67 PUSH1 0xA8 SHL PUSH1 0x64 DUP3 ADD MSTORE PUSH1 0x84 ADD PUSH2 0x85E JUMP JUMPDEST PUSH2 0x2511 DUP2 PUSH2 0x468B JUMP JUMPDEST PUSH1 0x0 SLOAD PUSH2 0x100 SWAP1 DIV PUSH1 0xFF AND PUSH2 0x3CDF JUMPI PUSH1 0x40 MLOAD PUSH3 0x461BCD PUSH1 0xE5 SHL DUP2 MSTORE PUSH1 0x20 PUSH1 0x4 DUP3 ADD MSTORE PUSH1 0x2B PUSH1 0x24 DUP3 ADD MSTORE PUSH32 0x496E697469616C697A61626C653A20636F6E7472616374206973206E6F742069 PUSH1 0x44 DUP3 ADD MSTORE PUSH11 0x6E697469616C697A696E67 PUSH1 0xA8 SHL PUSH1 0x64 DUP3 ADD MSTORE PUSH1 0x84 ADD PUSH2 0x85E JUMP JUMPDEST DUP1 MLOAD PUSH1 0x1 DUP1 SLOAD PUSH32 0xFFFFFFFFFFFFFFFFFFFFFFFF0000000000000000000000000000000000000000 AND PUSH1 0x1 PUSH1 0x1 PUSH1 0xA0 SHL SUB SWAP1 SWAP3 AND SWAP2 SWAP1 SWAP2 OR SWAP1 SSTORE PUSH1 0x20 DUP2 ADD MLOAD PUSH1 0x40 DUP3 ADD MLOAD PUSH2 0x2511 SWAP2 SWAP1 PUSH2 0x1BD0 JUMP JUMPDEST PUSH1 0x0 SLOAD PUSH2 0x100 SWAP1 DIV PUSH1 0xFF AND PUSH2 0x2D31 JUMPI PUSH1 0x40 MLOAD PUSH3 0x461BCD PUSH1 0xE5 SHL DUP2 MSTORE PUSH1 0x20 PUSH1 0x4 DUP3 ADD MSTORE PUSH1 0x2B PUSH1 0x24 DUP3 ADD MSTORE PUSH32 0x496E697469616C697A61626C653A20636F6E7472616374206973206E6F742069 PUSH1 0x44 DUP3 ADD MSTORE PUSH11 0x6E697469616C697A696E67 PUSH1 0xA8 SHL PUSH1 0x64 DUP3 ADD MSTORE PUSH1 0x84 ADD PUSH2 0x85E JUMP JUMPDEST PUSH1 0x0 SLOAD PUSH2 0x100 SWAP1 DIV PUSH1 0xFF AND PUSH2 0x3E02 JUMPI PUSH1 0x40 MLOAD PUSH3 0x461BCD PUSH1 0xE5 SHL DUP2 MSTORE PUSH1 0x20 PUSH1 0x4 DUP3 ADD MSTORE PUSH1 0x2B PUSH1 0x24 DUP3 ADD MSTORE PUSH32 0x496E697469616C697A61626C653A20636F6E7472616374206973206E6F742069 PUSH1 0x44 DUP3 ADD MSTORE PUSH11 0x6E697469616C697A696E67 PUSH1 0xA8 SHL PUSH1 0x64 DUP3 ADD MSTORE PUSH1 0x84 ADD PUSH2 0x85E JUMP JUMPDEST PUSH2 0x2511 DUP2 PUSH1 0x0 ADD MLOAD DUP3 PUSH1 0x20 ADD MLOAD DUP4 PUSH1 0x40 ADD MLOAD DUP5 PUSH1 0x60 ADD MLOAD PUSH2 0x1DC0 JUMP JUMPDEST PUSH1 0x0 SLOAD PUSH2 0x100 SWAP1 DIV PUSH1 0xFF AND PUSH2 0x3E89 JUMPI PUSH1 0x40 MLOAD PUSH3 0x461BCD PUSH1 0xE5 SHL DUP2 MSTORE PUSH1 0x20 PUSH1 0x4 DUP3 ADD MSTORE PUSH1 0x2B PUSH1 0x24 DUP3 ADD MSTORE PUSH32 0x496E697469616C697A61626C653A20636F6E7472616374206973206E6F742069 PUSH1 0x44 DUP3 ADD MSTORE PUSH11 0x6E697469616C697A696E67 PUSH1 0xA8 SHL PUSH1 0x64 DUP3 ADD MSTORE PUSH1 0x84 ADD PUSH2 0x85E JUMP JUMPDEST PUSH2 0x2511 DUP2 PUSH1 0x0 ADD MLOAD DUP3 PUSH1 0x20 ADD MLOAD DUP4 PUSH1 0x40 ADD MLOAD DUP5 PUSH1 0x60 ADD MLOAD PUSH2 0x12F2 JUMP JUMPDEST PUSH1 0x0 SLOAD PUSH2 0x100 SWAP1 DIV PUSH1 0xFF AND PUSH2 0x3F10 JUMPI PUSH1 0x40 MLOAD PUSH3 0x461BCD PUSH1 0xE5 SHL DUP2 MSTORE PUSH1 0x20 PUSH1 0x4 DUP3 ADD MSTORE PUSH1 0x2B PUSH1 0x24 DUP3 ADD MSTORE PUSH32 0x496E697469616C697A61626C653A20636F6E7472616374206973206E6F742069 PUSH1 0x44 DUP3 ADD MSTORE PUSH11 0x6E697469616C697A696E67 PUSH1 0xA8 SHL PUSH1 0x64 DUP3 ADD MSTORE PUSH1 0x84 ADD PUSH2 0x85E JUMP JUMPDEST DUP1 MLOAD PUSH2 0x3F1B SWAP1 PUSH2 0x199E JUMP JUMPDEST PUSH1 0x0 JUMPDEST DUP2 PUSH1 0x20 ADD MLOAD MLOAD DUP2 LT ISZERO PUSH2 0x9CA JUMPI PUSH2 0x3F53 DUP3 PUSH1 0x20 ADD MLOAD DUP3 DUP2 MLOAD DUP2 LT PUSH2 0x3F44 JUMPI PUSH2 0x3F44 PUSH2 0x52F4 JUMP JUMPDEST PUSH1 0x20 MUL PUSH1 0x20 ADD ADD MLOAD PUSH1 0x1 PUSH2 0x178B JUMP JUMPDEST DUP1 PUSH2 0x3F5D DUP2 PUSH2 0x5352 JUMP JUMPDEST SWAP2 POP POP PUSH2 0x3F1E JUMP JUMPDEST PUSH1 0x0 SLOAD PUSH2 0x100 SWAP1 DIV PUSH1 0xFF AND PUSH2 0x3FD0 JUMPI PUSH1 0x40 MLOAD PUSH3 0x461BCD PUSH1 0xE5 SHL DUP2 MSTORE PUSH1 0x20 PUSH1 0x4 DUP3 ADD MSTORE PUSH1 0x2B PUSH1 0x24 DUP3 ADD MSTORE PUSH32 0x496E697469616C697A61626C653A20636F6E7472616374206973206E6F742069 PUSH1 0x44 DUP3 ADD MSTORE PUSH11 0x6E697469616C697A696E67 PUSH1 0xA8 SHL PUSH1 0x64 DUP3 ADD MSTORE PUSH1 0x84 ADD PUSH2 0x85E JUMP JUMPDEST DUP1 MLOAD DUP1 MLOAD PUSH1 0x20 DUP3 ADD MLOAD PUSH1 0x40 DUP4 ADD MLOAD PUSH2 0x3FE9 SWAP3 SWAP2 SWAP1 PUSH2 0x1D38 JUMP JUMPDEST PUSH1 0x0 JUMPDEST DUP3 PUSH1 0x20 ADD MLOAD MLOAD DUP2 LT ISZERO PUSH2 0x933 JUMPI PUSH1 0x0 DUP4 PUSH1 0x20 ADD MLOAD DUP3 DUP2 MLOAD DUP2 LT PUSH2 0x4011 JUMPI PUSH2 0x4011 PUSH2 0x52F4 JUMP JUMPDEST PUSH1 0x20 MUL PUSH1 0x20 ADD ADD MLOAD SWAP1 POP PUSH1 0x0 DUP2 PUSH1 0x20 ADD MLOAD SWAP1 POP PUSH2 0x4040 DUP3 PUSH1 0x0 ADD MLOAD DUP3 PUSH1 0x0 ADD MLOAD DUP4 PUSH1 0x20 ADD MLOAD DUP5 PUSH1 0x40 ADD MLOAD PUSH2 0x189E JUMP JUMPDEST POP POP DUP1 DUP1 PUSH2 0x404D SWAP1 PUSH2 0x5352 JUMP JUMPDEST SWAP2 POP POP PUSH2 0x3FEC JUMP JUMPDEST PUSH1 0x0 SLOAD PUSH2 0x100 SWAP1 DIV PUSH1 0xFF AND PUSH2 0x40C0 JUMPI PUSH1 0x40 MLOAD PUSH3 0x461BCD PUSH1 0xE5 SHL DUP2 MSTORE PUSH1 0x20 PUSH1 0x4 DUP3 ADD MSTORE PUSH1 0x2B PUSH1 0x24 DUP3 ADD MSTORE PUSH32 0x496E697469616C697A61626C653A20636F6E7472616374206973206E6F742069 PUSH1 0x44 DUP3 ADD MSTORE PUSH11 0x6E697469616C697A696E67 PUSH1 0xA8 SHL PUSH1 0x64 DUP3 ADD MSTORE PUSH1 0x84 ADD PUSH2 0x85E JUMP JUMPDEST DUP1 MLOAD DUP1 MLOAD PUSH1 0x20 DUP3 ADD MLOAD PUSH1 0x40 DUP4 ADD MLOAD PUSH2 0x40D9 SWAP3 SWAP2 SWAP1 PUSH2 0x1CE2 JUMP JUMPDEST PUSH1 0x0 JUMPDEST DUP3 PUSH1 0x20 ADD MLOAD MLOAD DUP2 LT ISZERO PUSH2 0x933 JUMPI PUSH1 0x0 DUP4 PUSH1 0x20 ADD MLOAD DUP3 DUP2 MLOAD DUP2 LT PUSH2 0x4101 JUMPI PUSH2 0x4101 PUSH2 0x52F4 JUMP JUMPDEST PUSH1 0x20 MUL PUSH1 0x20 ADD ADD MLOAD SWAP1 POP PUSH1 0x0 DUP2 PUSH1 0x20 ADD MLOAD SWAP1 POP PUSH2 0x4130 DUP3 PUSH1 0x0 ADD MLOAD DUP3 PUSH1 0x0 ADD MLOAD DUP4 PUSH1 0x20 ADD MLOAD DUP5 PUSH1 0x40 ADD MLOAD PUSH2 0x1A19 JUMP JUMPDEST POP POP DUP1 DUP1 PUSH2 0x413D SWAP1 PUSH2 0x5352 JUMP JUMPDEST SWAP2 POP POP PUSH2 0x40DC JUMP JUMPDEST PUSH1 0x0 PUSH2 0x4152 PUSH1 0x4 DUP4 PUSH2 0x5687 JUMP JUMPDEST ISZERO DUP1 ISZERO PUSH2 0x4168 JUMPI POP PUSH2 0x4165 PUSH1 0x64 DUP4 PUSH2 0x5687 JUMP JUMPDEST ISZERO ISZERO JUMPDEST DUP1 PUSH2 0xE71 JUMPI POP PUSH2 0x417A PUSH2 0x190 DUP4 PUSH2 0x5687 JUMP JUMPDEST ISZERO SWAP3 SWAP2 POP POP JUMP JUMPDEST PUSH1 0x0 DUP1 PUSH1 0x1 PUSH1 0x0 SWAP1 SLOAD SWAP1 PUSH2 0x100 EXP SWAP1 DIV PUSH1 0x1 PUSH1 0x1 PUSH1 0xA0 SHL SUB AND PUSH1 0x1 PUSH1 0x1 PUSH1 0xA0 SHL SUB AND PUSH4 0x2630C12F PUSH1 0x40 MLOAD DUP2 PUSH4 0xFFFFFFFF AND PUSH1 0xE0 SHL DUP2 MSTORE PUSH1 0x4 ADD PUSH1 0x20 PUSH1 0x40 MLOAD DUP1 DUP4 SUB DUP2 DUP7 GAS STATICCALL ISZERO DUP1 ISZERO PUSH2 0x41D7 JUMPI RETURNDATASIZE PUSH1 0x0 DUP1 RETURNDATACOPY RETURNDATASIZE PUSH1 0x0 REVERT JUMPDEST POP POP POP POP PUSH1 0x40 MLOAD RETURNDATASIZE PUSH1 0x1F NOT PUSH1 0x1F DUP3 ADD AND DUP3 ADD DUP1 PUSH1 0x40 MSTORE POP DUP2 ADD SWAP1 PUSH2 0x41FB SWAP2 SWAP1 PUSH2 0x5628 JUMP JUMPDEST SWAP1 POP PUSH1 0x1 PUSH1 0x1 PUSH1 0xA0 SHL SUB DUP2 AND PUSH2 0x424C JUMPI PUSH1 0x1 SLOAD PUSH1 0x40 MLOAD PUSH32 0x38D2BAAE00000000000000000000000000000000000000000000000000000000 DUP2 MSTORE PUSH1 0x1 PUSH1 0x1 PUSH1 0xA0 SHL SUB SWAP1 SWAP2 AND PUSH1 0x4 DUP3 ADD MSTORE PUSH1 0x24 ADD PUSH2 0x85E JUMP JUMPDEST PUSH1 0x0 PUSH2 0x4256 PUSH2 0x4736 JUMP JUMPDEST SWAP1 POP DUP1 MLOAD PUSH1 0x0 EQ PUSH2 0x42E7 JUMPI DUP2 PUSH1 0x1 PUSH1 0x1 PUSH1 0xA0 SHL SUB AND PUSH4 0x355EFDD9 PUSH2 0x4279 DUP8 PUSH2 0x2299 JUMP JUMPDEST PUSH2 0x4282 DUP8 PUSH2 0x2299 JUMP JUMPDEST DUP5 PUSH1 0x40 MLOAD DUP5 PUSH4 0xFFFFFFFF AND PUSH1 0xE0 SHL DUP2 MSTORE PUSH1 0x4 ADD PUSH2 0x42A1 SWAP4 SWAP3 SWAP2 SWAP1 PUSH2 0x569B JUMP JUMPDEST PUSH1 0x20 PUSH1 0x40 MLOAD DUP1 DUP4 SUB DUP2 DUP7 GAS STATICCALL ISZERO DUP1 ISZERO PUSH2 0x42BE JUMPI RETURNDATASIZE PUSH1 0x0 DUP1 RETURNDATACOPY RETURNDATASIZE PUSH1 0x0 REVERT JUMPDEST POP POP POP POP PUSH1 0x40 MLOAD RETURNDATASIZE PUSH1 0x1F NOT PUSH1 0x1F DUP3 ADD AND DUP3 ADD DUP1 PUSH1 0x40 MSTORE POP DUP2 ADD SWAP1 PUSH2 0x42E2 SWAP2 SWAP1 PUSH2 0x538A JUMP JUMPDEST PUSH2 0x438F JUMP JUMPDEST DUP2 PUSH1 0x1 PUSH1 0x1 PUSH1 0xA0 SHL SUB AND PUSH4 0xAC41865A PUSH2 0x42FF DUP8 PUSH2 0x2299 JUMP JUMPDEST PUSH2 0x4308 DUP8 PUSH2 0x2299 JUMP JUMPDEST PUSH1 0x40 MLOAD PUSH32 0xFFFFFFFF00000000000000000000000000000000000000000000000000000000 PUSH1 0xE0 DUP6 SWAP1 SHL AND DUP2 MSTORE PUSH1 0x1 PUSH1 0x1 PUSH1 0xA0 SHL SUB SWAP3 DUP4 AND PUSH1 0x4 DUP3 ADD MSTORE SWAP2 AND PUSH1 0x24 DUP3 ADD MSTORE PUSH1 0x44 ADD PUSH1 0x20 PUSH1 0x40 MLOAD DUP1 DUP4 SUB DUP2 DUP7 GAS STATICCALL ISZERO DUP1 ISZERO PUSH2 0x436B JUMPI RETURNDATASIZE PUSH1 0x0 DUP1 RETURNDATACOPY RETURNDATASIZE PUSH1 0x0 REVERT JUMPDEST POP POP POP POP PUSH1 0x40 MLOAD RETURNDATASIZE PUSH1 0x1F NOT PUSH1 0x1F DUP3 ADD AND DUP3 ADD DUP1 PUSH1 0x40 MSTORE POP DUP2 ADD SWAP1 PUSH2 0x438F SWAP2 SWAP1 PUSH2 0x538A JUMP JUMPDEST SWAP6 SWAP5 POP POP POP POP POP JUMP JUMPDEST PUSH1 0x2 SLOAD ISZERO PUSH2 0x9CA JUMPI PUSH1 0x1 SLOAD PUSH1 0x2 SLOAD PUSH1 0x40 MLOAD PUSH32 0xEB056BBB00000000000000000000000000000000000000000000000000000000 DUP2 MSTORE PUSH1 0x4 DUP2 ADD SWAP2 SWAP1 SWAP2 MSTORE PUSH1 0x1 PUSH1 0x1 PUSH1 0xA0 SHL SUB DUP5 DUP2 AND PUSH1 0x24 DUP4 ADD MSTORE PUSH1 0x44 DUP3 ADD DUP5 SWAP1 MSTORE PUSH1 0x0 PUSH1 0x64 DUP4 ADD MSTORE SWAP1 SWAP2 AND SWAP1 PUSH4 0xEB056BBB SWAP1 PUSH1 0x84 ADD PUSH1 0x0 PUSH1 0x40 MLOAD DUP1 DUP4 SUB DUP2 PUSH1 0x0 DUP8 DUP1 EXTCODESIZE ISZERO DUP1 ISZERO PUSH2 0x4419 JUMPI PUSH1 0x0 DUP1 REVERT JUMPDEST POP GAS CALL ISZERO DUP1 ISZERO PUSH2 0x3428 JUMPI RETURNDATASIZE PUSH1 0x0 DUP1 RETURNDATACOPY RETURNDATASIZE PUSH1 0x0 REVERT JUMPDEST PUSH1 0x0 DUP1 PUSH1 0x0 DUP1 PUSH2 0x443C DUP7 PUSH2 0x47B6 JUMP JUMPDEST SWAP2 SWAP5 POP SWAP3 POP SWAP1 POP PUSH1 0x0 PUSH2 0x444F DUP7 DUP5 PUSH2 0x5615 JUMP JUMPDEST SWAP1 POP PUSH1 0x0 PUSH2 0x445E PUSH1 0xC DUP4 PUSH2 0x5687 JUMP JUMPDEST SWAP1 POP PUSH1 0x0 PUSH2 0x446D PUSH1 0xC DUP5 PUSH2 0x5601 JUMP JUMPDEST PUSH2 0x4477 SWAP1 DUP8 PUSH2 0x5615 JUMP JUMPDEST SWAP1 POP PUSH1 0x0 PUSH1 0x2 PUSH1 0xA SLOAD PUSH1 0xFF AND PUSH1 0x2 DUP2 GT ISZERO PUSH2 0x4494 JUMPI PUSH2 0x4494 PUSH2 0x511F JUMP JUMPDEST EQ PUSH2 0x449F JUMPI DUP5 PUSH2 0x44A9 JUMP JUMPDEST PUSH2 0x44A9 DUP3 DUP5 PUSH2 0x309C JUMP JUMPDEST SWAP1 POP PUSH2 0x44B7 DUP11 DUP4 DUP6 DUP5 PUSH2 0x47D5 JUMP JUMPDEST SWAP11 SWAP10 POP POP POP POP POP POP POP POP POP POP JUMP JUMPDEST PUSH1 0x0 DUP1 PUSH1 0x0 PUSH2 0x44D3 TIMESTAMP PUSH2 0x47B6 JUMP JUMPDEST POP SWAP2 POP SWAP2 POP PUSH2 0x438F DUP6 DUP4 DUP4 DUP8 PUSH2 0x47D5 JUMP JUMPDEST PUSH1 0xC DUP2 SWAP1 SSTORE PUSH1 0x40 MLOAD DUP2 DUP2 MSTORE PUSH32 0xF90744BEE56935EC5ACC9DE37B89C0C545298C667EE417BD9469E9C6836AD064 SWAP1 PUSH1 0x20 ADD PUSH2 0x1A0E JUMP JUMPDEST PUSH1 0x0 DUP3 DUP3 MUL DUP4 ISZERO DUP1 ISZERO SWAP1 PUSH2 0x453C JUMPI POP DUP3 DUP5 DUP3 DUP2 PUSH2 0x4538 JUMPI PUSH2 0x4538 PUSH2 0x55D2 JUMP JUMPDEST DIV EQ ISZERO JUMPDEST ISZERO PUSH2 0x457D JUMPI PUSH1 0x40 MLOAD PUSH32 0xE8E4A4FA00000000000000000000000000000000000000000000000000000000 DUP2 MSTORE PUSH1 0x4 DUP2 ADD DUP6 SWAP1 MSTORE PUSH1 0x24 DUP2 ADD DUP5 SWAP1 MSTORE PUSH1 0x44 ADD PUSH2 0x85E JUMP JUMPDEST DUP1 ISZERO PUSH2 0x45B8 JUMPI PUSH8 0xDE0B6B3A7640000 PUSH32 0xFFFFFFFFFFFFFFFFFFFFFFFFFFFFFFFFFFFFFFFFFFFFFFFFFFFFFFFFFFFFFFFF DUP3 ADD DIV PUSH1 0x1 ADD PUSH2 0x261E JUMP JUMPDEST PUSH1 0x0 SWAP5 SWAP4 POP POP POP POP JUMP JUMPDEST PUSH1 0x0 DUP2 PUSH1 0x0 SUB PUSH2 0x45FE JUMPI PUSH1 0x40 MLOAD PUSH32 0xB8A2F92100000000000000000000000000000000000000000000000000000000 DUP2 MSTORE PUSH1 0x4 ADD PUSH1 0x40 MLOAD DUP1 SWAP2 SUB SWAP1 REVERT JUMPDEST DUP3 PUSH1 0x0 SUB PUSH2 0x460E JUMPI POP PUSH1 0x0 PUSH2 0xE71 JUMP JUMPDEST PUSH8 0xDE0B6B3A7640000 DUP4 DUP2 MUL SWAP1 DUP5 DUP3 DUP2 PUSH2 0x462A JUMPI PUSH2 0x462A PUSH2 0x55D2 JUMP JUMPDEST DIV EQ PUSH2 0x466C JUMPI PUSH1 0x40 MLOAD PUSH32 0xEA7B49E600000000000000000000000000000000000000000000000000000000 DUP2 MSTORE PUSH1 0x4 DUP2 ADD DUP6 SWAP1 MSTORE PUSH1 0x24 DUP2 ADD DUP3 SWAP1 MSTORE PUSH1 0x44 ADD PUSH2 0x85E JUMP JUMPDEST DUP3 PUSH1 0x1 DUP3 SUB DUP2 PUSH2 0x467E JUMPI PUSH2 0x467E PUSH2 0x55D2 JUMP JUMPDEST DIV PUSH1 0x1 ADD SWAP2 POP POP SWAP3 SWAP2 POP POP JUMP JUMPDEST PUSH1 0x0 SLOAD PUSH2 0x100 SWAP1 DIV PUSH1 0xFF AND PUSH2 0x46F6 JUMPI PUSH1 0x40 MLOAD PUSH3 0x461BCD PUSH1 0xE5 SHL DUP2 MSTORE PUSH1 0x20 PUSH1 0x4 DUP3 ADD MSTORE PUSH1 0x2B PUSH1 0x24 DUP3 ADD MSTORE PUSH32 0x496E697469616C697A61626C653A20636F6E7472616374206973206E6F742069 PUSH1 0x44 DUP3 ADD MSTORE PUSH11 0x6E697469616C697A696E67 PUSH1 0xA8 SHL PUSH1 0x64 DUP3 ADD MSTORE PUSH1 0x84 ADD PUSH2 0x85E JUMP JUMPDEST PUSH1 0x0 DUP1 SLOAD PUSH1 0x1 PUSH1 0x1 PUSH1 0xA0 SHL SUB SWAP1 SWAP3 AND PUSH3 0x10000 MUL PUSH32 0xFFFFFFFFFFFFFFFFFFFF0000000000000000000000000000000000000000FFFF SWAP1 SWAP3 AND SWAP2 SWAP1 SWAP2 OR SWAP1 SSTORE JUMP JUMPDEST PUSH1 0x60 PUSH1 0x0 PUSH2 0x4742 PUSH2 0x47FD JUMP JUMPDEST SWAP1 POP CALLDATASIZE DUP2 GT ISZERO PUSH2 0x4760 JUMPI POP POP PUSH1 0x40 DUP1 MLOAD PUSH1 0x0 DUP2 MSTORE PUSH1 0x20 DUP2 ADD SWAP1 SWAP2 MSTORE SWAP1 JUMP JUMPDEST DUP1 PUSH8 0xFFFFFFFFFFFFFFFF DUP2 GT ISZERO PUSH2 0x4779 JUMPI PUSH2 0x4779 PUSH2 0x49F8 JUMP JUMPDEST PUSH1 0x40 MLOAD SWAP1 DUP1 DUP3 MSTORE DUP1 PUSH1 0x1F ADD PUSH1 0x1F NOT AND PUSH1 0x20 ADD DUP3 ADD PUSH1 0x40 MSTORE DUP1 ISZERO PUSH2 0x47A3 JUMPI PUSH1 0x20 DUP3 ADD DUP2 DUP1 CALLDATASIZE DUP4 CALLDATACOPY ADD SWAP1 POP JUMPDEST POP SWAP2 POP DUP1 PUSH1 0x20 DUP3 CALLDATASIZE SUB SUB PUSH1 0x20 DUP5 ADD CALLDATACOPY POP SWAP1 JUMP JUMPDEST PUSH1 0x0 DUP1 DUP1 PUSH2 0x47C8 PUSH3 0x15180 DUP6 DIV PUSH2 0x2FE2 JUMP JUMPDEST SWAP2 SWAP7 SWAP1 SWAP6 POP SWAP1 SWAP4 POP SWAP2 POP POP JUMP JUMPDEST PUSH1 0x0 PUSH2 0x438F DUP5 DUP5 DUP5 PUSH2 0x47E6 DUP10 PUSH2 0x4818 JUMP JUMPDEST PUSH2 0x47EF DUP11 PUSH2 0x4836 JUMP JUMPDEST PUSH2 0x47F8 DUP12 PUSH2 0x4852 JUMP JUMPDEST PUSH2 0x485F JUMP JUMPDEST PUSH1 0x0 PUSH1 0x24 CALLDATASIZE LT ISZERO PUSH2 0x480E JUMPI POP PUSH1 0x0 SWAP1 JUMP JUMPDEST POP PUSH1 0x1F NOT CALLDATASIZE ADD CALLDATALOAD SWAP1 JUMP JUMPDEST PUSH1 0x0 DUP1 PUSH2 0x4828 PUSH3 0x15180 DUP5 PUSH2 0x5687 JUMP JUMPDEST SWAP1 POP PUSH2 0x117B PUSH2 0xE10 DUP3 PUSH2 0x5601 JUMP JUMPDEST PUSH1 0x0 DUP1 PUSH2 0x4845 PUSH2 0xE10 DUP5 PUSH2 0x5687 JUMP JUMPDEST SWAP1 POP PUSH2 0x117B PUSH1 0x3C DUP3 PUSH2 0x5601 JUMP JUMPDEST PUSH1 0x0 PUSH2 0xE71 PUSH1 0x3C DUP4 PUSH2 0x5687 JUMP JUMPDEST PUSH1 0x0 DUP2 PUSH2 0x486D PUSH1 0x3C DUP6 PUSH2 0x5540 JUMP JUMPDEST PUSH2 0x4879 PUSH2 0xE10 DUP8 PUSH2 0x5540 JUMP JUMPDEST PUSH3 0x15180 PUSH2 0x4888 DUP12 DUP12 DUP12 PUSH2 0x48BB JUMP JUMPDEST PUSH2 0x4892 SWAP2 SWAP1 PUSH2 0x5540 JUMP JUMPDEST PUSH2 0x489C SWAP2 SWAP1 PUSH2 0x5615 JUMP JUMPDEST PUSH2 0x48A6 SWAP2 SWAP1 PUSH2 0x5615 JUMP JUMPDEST PUSH2 0x48B0 SWAP2 SWAP1 PUSH2 0x5615 JUMP JUMPDEST SWAP8 SWAP7 POP POP POP POP POP POP POP JUMP JUMPDEST PUSH1 0x0 PUSH2 0x7B2 DUP5 LT ISZERO PUSH2 0x48CC JUMPI PUSH1 0x0 DUP1 REVERT JUMPDEST DUP4 DUP4 DUP4 PUSH1 0x0 PUSH3 0x253D8C PUSH1 0x4 PUSH1 0x64 PUSH1 0xC PUSH2 0x48E6 PUSH1 0xE DUP9 PUSH2 0x56C7 JUMP JUMPDEST PUSH2 0x48F0 SWAP2 SWAP1 PUSH2 0x56E7 JUMP JUMPDEST PUSH2 0x48FC DUP9 PUSH2 0x1324 PUSH2 0x574F JUMP JUMPDEST PUSH2 0x4906 SWAP2 SWAP1 PUSH2 0x574F JUMP JUMPDEST PUSH2 0x4910 SWAP2 SWAP1 PUSH2 0x56E7 JUMP JUMPDEST PUSH2 0x491B SWAP1 PUSH1 0x3 PUSH2 0x5777 JUMP JUMPDEST PUSH2 0x4925 SWAP2 SWAP1 PUSH2 0x56E7 JUMP JUMPDEST PUSH1 0xC DUP1 PUSH2 0x4933 PUSH1 0xE DUP9 PUSH2 0x56C7 JUMP JUMPDEST PUSH2 0x493D SWAP2 SWAP1 PUSH2 0x56E7 JUMP JUMPDEST PUSH2 0x4948 SWAP1 PUSH1 0xC PUSH2 0x5777 JUMP JUMPDEST PUSH2 0x4953 PUSH1 0x2 DUP9 PUSH2 0x56C7 JUMP JUMPDEST PUSH2 0x495D SWAP2 SWAP1 PUSH2 0x56C7 JUMP JUMPDEST PUSH2 0x4969 SWAP1 PUSH2 0x16F PUSH2 0x5777 JUMP JUMPDEST PUSH2 0x4973 SWAP2 SWAP1 PUSH2 0x56E7 JUMP JUMPDEST PUSH1 0x4 PUSH1 0xC PUSH2 0x4982 PUSH1 0xE DUP10 PUSH2 0x56C7 JUMP JUMPDEST PUSH2 0x498C SWAP2 SWAP1 PUSH2 0x56E7 JUMP JUMPDEST PUSH2 0x4998 DUP10 PUSH2 0x12C0 PUSH2 0x574F JUMP JUMPDEST PUSH2 0x49A2 SWAP2 SWAP1 PUSH2 0x574F JUMP JUMPDEST PUSH2 0x49AE SWAP1 PUSH2 0x5B5 PUSH2 0x5777 JUMP JUMPDEST PUSH2 0x49B8 SWAP2 SWAP1 PUSH2 0x56E7 JUMP JUMPDEST PUSH2 0x49C4 PUSH2 0x7D4B DUP8 PUSH2 0x56C7 JUMP JUMPDEST PUSH2 0x49CE SWAP2 SWAP1 PUSH2 0x574F JUMP JUMPDEST PUSH2 0x49D8 SWAP2 SWAP1 PUSH2 0x574F JUMP JUMPDEST PUSH2 0x49E2 SWAP2 SWAP1 PUSH2 0x56C7 JUMP JUMPDEST PUSH2 0x49EC SWAP2 SWAP1 PUSH2 0x56C7 JUMP JUMPDEST SWAP9 SWAP8 POP POP POP POP POP POP POP POP JUMP JUMPDEST PUSH32 0x4E487B7100000000000000000000000000000000000000000000000000000000 PUSH1 0x0 MSTORE PUSH1 0x41 PUSH1 0x4 MSTORE PUSH1 0x24 PUSH1 0x0 REVERT JUMPDEST PUSH1 0x40 MLOAD PUSH1 0x80 DUP2 ADD PUSH8 0xFFFFFFFFFFFFFFFF DUP2 GT DUP3 DUP3 LT OR ISZERO PUSH2 0x4A4A JUMPI PUSH2 0x4A4A PUSH2 0x49F8 JUMP JUMPDEST PUSH1 0x40 MSTORE SWAP1 JUMP JUMPDEST PUSH1 0x40 DUP1 MLOAD SWAP1 DUP2 ADD PUSH8 0xFFFFFFFFFFFFFFFF DUP2 GT DUP3 DUP3 LT OR ISZERO PUSH2 0x4A4A JUMPI PUSH2 0x4A4A PUSH2 0x49F8 JUMP JUMPDEST PUSH1 0x40 MLOAD PUSH1 0xC0 DUP2 ADD PUSH8 0xFFFFFFFFFFFFFFFF DUP2 GT DUP3 DUP3 LT OR ISZERO PUSH2 0x4A4A JUMPI PUSH2 0x4A4A PUSH2 0x49F8 JUMP JUMPDEST PUSH1 0x40 MLOAD PUSH1 0x1F DUP3 ADD PUSH1 0x1F NOT AND DUP2 ADD PUSH8 0xFFFFFFFFFFFFFFFF DUP2 GT DUP3 DUP3 LT OR ISZERO PUSH2 0x4ABF JUMPI PUSH2 0x4ABF PUSH2 0x49F8 JUMP JUMPDEST PUSH1 0x40 MSTORE SWAP2 SWAP1 POP JUMP JUMPDEST PUSH1 0x1 PUSH1 0x1 PUSH1 0xA0 SHL SUB DUP2 AND DUP2 EQ PUSH2 0x2511 JUMPI PUSH1 0x0 DUP1 REVERT JUMPDEST DUP1 CALLDATALOAD PUSH2 0x4AE7 DUP2 PUSH2 0x4AC7 JUMP JUMPDEST SWAP2 SWAP1 POP JUMP JUMPDEST PUSH1 0x0 PUSH1 0x60 DUP3 DUP5 SUB SLT ISZERO PUSH2 0x4AFE JUMPI PUSH1 0x0 DUP1 REVERT JUMPDEST PUSH1 0x40 MLOAD PUSH1 0x60 DUP2 ADD DUP2 DUP2 LT PUSH8 0xFFFFFFFFFFFFFFFF DUP3 GT OR ISZERO PUSH2 0x4B21 JUMPI PUSH2 0x4B21 PUSH2 0x49F8 JUMP JUMPDEST PUSH1 0x40 MSTORE SWAP1 POP DUP1 DUP3 CALLDATALOAD PUSH2 0x4B32 DUP2 PUSH2 0x4AC7 JUMP JUMPDEST DUP1 DUP3 MSTORE POP PUSH1 0x20 DUP4 ADD CALLDATALOAD PUSH1 0x20 DUP3 ADD MSTORE PUSH1 0x40 DUP4 ADD CALLDATALOAD PUSH1 0x40 DUP3 ADD MSTORE POP SWAP3 SWAP2 POP POP JUMP JUMPDEST PUSH1 0x0 PUSH1 0x80 DUP3 DUP5 SUB SLT ISZERO PUSH2 0x4B63 JUMPI PUSH1 0x0 DUP1 REVERT JUMPDEST PUSH2 0x4B6B PUSH2 0x4A27 JUMP JUMPDEST SWAP1 POP DUP2 CALLDATALOAD DUP2 MSTORE PUSH1 0x20 DUP3 ADD CALLDATALOAD PUSH1 0x20 DUP3 ADD MSTORE PUSH1 0x40 DUP3 ADD CALLDATALOAD PUSH1 0x40 DUP3 ADD MSTORE PUSH1 0x60 DUP3 ADD CALLDATALOAD PUSH1 0x60 DUP3 ADD MSTORE SWAP3 SWAP2 POP POP JUMP JUMPDEST DUP1 CALLDATALOAD PUSH1 0xFF DUP2 AND DUP2 EQ PUSH2 0x4AE7 JUMPI PUSH1 0x0 DUP1 REVERT JUMPDEST PUSH1 0x0 PUSH1 0x80 DUP3 DUP5 SUB SLT ISZERO PUSH2 0x4BB8 JUMPI PUSH1 0x0 DUP1 REVERT JUMPDEST PUSH2 0x4BC0 PUSH2 0x4A27 JUMP JUMPDEST SWAP1 POP PUSH2 0x4BCB DUP3 PUSH2 0x4B95 JUMP JUMPDEST DUP2 MSTORE PUSH1 0x20 DUP3 ADD CALLDATALOAD PUSH1 0x20 DUP3 ADD MSTORE PUSH1 0x40 DUP3 ADD CALLDATALOAD PUSH1 0x40 DUP3 ADD MSTORE PUSH1 0x60 DUP3 ADD CALLDATALOAD PUSH1 0x60 DUP3 ADD MSTORE SWAP3 SWAP2 POP POP JUMP JUMPDEST DUP1 CALLDATALOAD PUSH1 0x2 DUP2 LT PUSH2 0x4AE7 JUMPI PUSH1 0x0 DUP1 REVERT JUMPDEST PUSH1 0x0 PUSH8 0xFFFFFFFFFFFFFFFF DUP3 GT ISZERO PUSH2 0x4C1A JUMPI PUSH2 0x4C1A PUSH2 0x49F8 JUMP JUMPDEST POP PUSH1 0x5 SHL PUSH1 0x20 ADD SWAP1 JUMP JUMPDEST PUSH1 0x0 DUP3 PUSH1 0x1F DUP4 ADD SLT PUSH2 0x4C35 JUMPI PUSH1 0x0 DUP1 REVERT JUMPDEST DUP2 CALLDATALOAD PUSH1 0x20 PUSH2 0x4C4A PUSH2 0x4C45 DUP4 PUSH2 0x4C00 JUMP JUMPDEST PUSH2 0x4A96 JUMP JUMPDEST DUP3 DUP2 MSTORE PUSH1 0x5 SWAP3 SWAP1 SWAP3 SHL DUP5 ADD DUP2 ADD SWAP2 DUP2 DUP2 ADD SWAP1 DUP7 DUP5 GT ISZERO PUSH2 0x4C69 JUMPI PUSH1 0x0 DUP1 REVERT JUMPDEST DUP3 DUP7 ADD JUMPDEST DUP5 DUP2 LT ISZERO PUSH2 0x4C8D JUMPI DUP1 CALLDATALOAD PUSH2 0x4C80 DUP2 PUSH2 0x4AC7 JUMP JUMPDEST DUP4 MSTORE SWAP2 DUP4 ADD SWAP2 DUP4 ADD PUSH2 0x4C6D JUMP JUMPDEST POP SWAP7 SWAP6 POP POP POP POP POP POP JUMP JUMPDEST PUSH1 0x0 PUSH1 0x40 DUP3 DUP5 SUB SLT ISZERO PUSH2 0x4CAA JUMPI PUSH1 0x0 DUP1 REVERT JUMPDEST PUSH2 0x4CB2 PUSH2 0x4A50 JUMP JUMPDEST SWAP1 POP PUSH2 0x4CBD DUP3 PUSH2 0x4BF1 JUMP JUMPDEST DUP2 MSTORE PUSH1 0x20 DUP3 ADD CALLDATALOAD PUSH8 0xFFFFFFFFFFFFFFFF DUP2 GT ISZERO PUSH2 0x4CD9 JUMPI PUSH1 0x0 DUP1 REVERT JUMPDEST PUSH2 0x4CE5 DUP5 DUP3 DUP6 ADD PUSH2 0x4C24 JUMP JUMPDEST PUSH1 0x20 DUP4 ADD MSTORE POP SWAP3 SWAP2 POP POP JUMP JUMPDEST PUSH1 0x0 PUSH1 0x80 DUP3 DUP5 SUB SLT ISZERO PUSH2 0x4D03 JUMPI PUSH1 0x0 DUP1 REVERT JUMPDEST PUSH2 0x4D0B PUSH2 0x4A50 JUMP JUMPDEST SWAP1 POP DUP2 CALLDATALOAD PUSH2 0x4D18 DUP2 PUSH2 0x4AC7 JUMP JUMPDEST DUP2 MSTORE PUSH2 0x4D27 DUP4 PUSH1 0x20 DUP5 ADD PUSH2 0x4AEC JUMP JUMPDEST PUSH1 0x20 DUP3 ADD MSTORE SWAP3 SWAP2 POP POP JUMP JUMPDEST PUSH1 0x0 PUSH1 0x80 DUP1 DUP4 DUP6 SUB SLT ISZERO PUSH2 0x4D45 JUMPI PUSH1 0x0 DUP1 REVERT JUMPDEST PUSH2 0x4D4D PUSH2 0x4A50 JUMP JUMPDEST SWAP2 POP PUSH2 0x4D59 DUP5 DUP5 PUSH2 0x4AEC JUMP JUMPDEST DUP3 MSTORE PUSH1 0x60 DUP4 ADD CALLDATALOAD PUSH8 0xFFFFFFFFFFFFFFFF DUP2 GT ISZERO PUSH2 0x4D75 JUMPI PUSH1 0x0 DUP1 REVERT JUMPDEST DUP4 ADD PUSH1 0x1F DUP2 ADD DUP6 SGT PUSH2 0x4D86 JUMPI PUSH1 0x0 DUP1 REVERT JUMPDEST DUP1 CALLDATALOAD PUSH1 0x20 PUSH2 0x4D96 PUSH2 0x4C45 DUP4 PUSH2 0x4C00 JUMP JUMPDEST DUP3 DUP2 MSTORE PUSH1 0x7 SWAP3 SWAP1 SWAP3 SHL DUP4 ADD DUP2 ADD SWAP2 DUP2 DUP2 ADD SWAP1 DUP9 DUP5 GT ISZERO PUSH2 0x4DB5 JUMPI PUSH1 0x0 DUP1 REVERT JUMPDEST SWAP4 DUP3 ADD SWAP4 JUMPDEST DUP4 DUP6 LT ISZERO PUSH2 0x4DDB JUMPI PUSH2 0x4DCC DUP10 DUP7 PUSH2 0x4CF1 JUMP JUMPDEST DUP3 MSTORE SWAP4 DUP6 ADD SWAP4 SWAP1 DUP3 ADD SWAP1 PUSH2 0x4DBA JUMP JUMPDEST DUP1 DUP4 DUP9 ADD MSTORE POP POP POP POP POP POP SWAP3 SWAP2 POP POP JUMP JUMPDEST PUSH1 0x0 PUSH1 0x80 DUP1 DUP4 DUP6 SUB SLT ISZERO PUSH2 0x4DFF JUMPI PUSH1 0x0 DUP1 REVERT JUMPDEST PUSH2 0x4E07 PUSH2 0x4A50 JUMP JUMPDEST SWAP2 POP PUSH2 0x4E13 DUP5 DUP5 PUSH2 0x4AEC JUMP JUMPDEST DUP3 MSTORE PUSH1 0x60 DUP4 ADD CALLDATALOAD PUSH8 0xFFFFFFFFFFFFFFFF DUP2 GT ISZERO PUSH2 0x4E2F JUMPI PUSH1 0x0 DUP1 REVERT JUMPDEST DUP4 ADD PUSH1 0x1F DUP2 ADD DUP6 SGT PUSH2 0x4E40 JUMPI PUSH1 0x0 DUP1 REVERT JUMPDEST DUP1 CALLDATALOAD PUSH1 0x20 PUSH2 0x4E50 PUSH2 0x4C45 DUP4 PUSH2 0x4C00 JUMP JUMPDEST DUP3 DUP2 MSTORE PUSH1 0x7 SWAP3 SWAP1 SWAP3 SHL DUP4 ADD DUP2 ADD SWAP2 DUP2 DUP2 ADD SWAP1 DUP9 DUP5 GT ISZERO PUSH2 0x4E6F JUMPI PUSH1 0x0 DUP1 REVERT JUMPDEST SWAP4 DUP3 ADD SWAP4 JUMPDEST DUP4 DUP6 LT ISZERO PUSH2 0x4DDB JUMPI PUSH2 0x4E86 DUP10 DUP7 PUSH2 0x4CF1 JUMP JUMPDEST DUP3 MSTORE SWAP4 DUP6 ADD SWAP4 SWAP1 DUP3 ADD SWAP1 PUSH2 0x4E74 JUMP JUMPDEST PUSH1 0x0 DUP1 PUSH1 0x40 DUP4 DUP6 SUB SLT ISZERO PUSH2 0x4EA8 JUMPI PUSH1 0x0 DUP1 REVERT JUMPDEST DUP3 CALLDATALOAD PUSH8 0xFFFFFFFFFFFFFFFF DUP1 DUP3 GT ISZERO PUSH2 0x4EC0 JUMPI PUSH1 0x0 DUP1 REVERT JUMPDEST SWAP1 DUP5 ADD SWAP1 PUSH2 0x1C0 DUP3 DUP8 SUB SLT ISZERO PUSH2 0x4ED5 JUMPI PUSH1 0x0 DUP1 REVERT JUMPDEST PUSH2 0x4EDD PUSH2 0x4A73 JUMP JUMPDEST PUSH2 0x4EE7 DUP8 DUP5 PUSH2 0x4AEC JUMP JUMPDEST DUP2 MSTORE PUSH2 0x4EF6 DUP8 PUSH1 0x60 DUP6 ADD PUSH2 0x4B51 JUMP JUMPDEST PUSH1 0x20 DUP3 ADD MSTORE PUSH2 0x4F08 DUP8 PUSH1 0xE0 DUP6 ADD PUSH2 0x4BA6 JUMP JUMPDEST PUSH1 0x40 DUP3 ADD MSTORE PUSH2 0x160 DUP4 ADD CALLDATALOAD DUP3 DUP2 GT ISZERO PUSH2 0x4F20 JUMPI PUSH1 0x0 DUP1 REVERT JUMPDEST PUSH2 0x4F2C DUP9 DUP3 DUP7 ADD PUSH2 0x4C98 JUMP JUMPDEST PUSH1 0x60 DUP4 ADD MSTORE POP PUSH2 0x180 DUP4 ADD CALLDATALOAD DUP3 DUP2 GT ISZERO PUSH2 0x4F45 JUMPI PUSH1 0x0 DUP1 REVERT JUMPDEST PUSH2 0x4F51 DUP9 DUP3 DUP7 ADD PUSH2 0x4D32 JUMP JUMPDEST PUSH1 0x80 DUP4 ADD MSTORE POP PUSH2 0x1A0 DUP4 ADD CALLDATALOAD DUP3 DUP2 GT ISZERO PUSH2 0x4F6A JUMPI PUSH1 0x0 DUP1 REVERT JUMPDEST PUSH2 0x4F76 DUP9 DUP3 DUP7 ADD PUSH2 0x4DEC JUMP JUMPDEST PUSH1 0xA0 DUP4 ADD MSTORE POP SWAP4 POP PUSH2 0x4F8D SWAP2 POP POP PUSH1 0x20 DUP5 ADD PUSH2 0x4ADC JUMP JUMPDEST SWAP1 POP SWAP3 POP SWAP3 SWAP1 POP JUMP JUMPDEST PUSH1 0x0 DUP1 PUSH1 0x0 DUP1 PUSH1 0x80 DUP6 DUP8 SUB SLT ISZERO PUSH2 0x4FAC JUMPI PUSH1 0x0 DUP1 REVERT JUMPDEST PUSH2 0x4FB5 DUP6 PUSH2 0x4B95 JUMP JUMPDEST SWAP7 PUSH1 0x20 DUP7 ADD CALLDATALOAD SWAP7 POP PUSH1 0x40 DUP7 ADD CALLDATALOAD SWAP6 PUSH1 0x60 ADD CALLDATALOAD SWAP5 POP SWAP3 POP POP POP JUMP JUMPDEST PUSH1 0x0 PUSH1 0x20 DUP3 DUP5 SUB SLT ISZERO PUSH2 0x4FE1 JUMPI PUSH1 0x0 DUP1 REVERT JUMPDEST DUP2 CALLDATALOAD PUSH2 0x117B DUP2 PUSH2 0x4AC7 JUMP JUMPDEST DUP1 ISZERO ISZERO DUP2 EQ PUSH2 0x2511 JUMPI PUSH1 0x0 DUP1 REVERT JUMPDEST PUSH1 0x0 DUP1 PUSH1 0x40 DUP4 DUP6 SUB SLT ISZERO PUSH2 0x500D JUMPI PUSH1 0x0 DUP1 REVERT JUMPDEST DUP3 CALLDATALOAD PUSH8 0xFFFFFFFFFFFFFFFF DUP1 DUP3 GT ISZERO PUSH2 0x5025 JUMPI PUSH1 0x0 DUP1 REVERT JUMPDEST PUSH2 0x5031 DUP7 DUP4 DUP8 ADD PUSH2 0x4C24 JUMP JUMPDEST SWAP4 POP PUSH1 0x20 SWAP2 POP DUP2 DUP6 ADD CALLDATALOAD DUP2 DUP2 GT ISZERO PUSH2 0x5048 JUMPI PUSH1 0x0 DUP1 REVERT JUMPDEST DUP6 ADD SWAP1 POP PUSH1 0x1F DUP2 ADD DUP7 SGT PUSH2 0x505B JUMPI PUSH1 0x0 DUP1 REVERT JUMPDEST DUP1 CALLDATALOAD PUSH2 0x5069 PUSH2 0x4C45 DUP3 PUSH2 0x4C00 JUMP JUMPDEST DUP2 DUP2 MSTORE PUSH1 0x5 SWAP2 SWAP1 SWAP2 SHL DUP3 ADD DUP4 ADD SWAP1 DUP4 DUP2 ADD SWAP1 DUP9 DUP4 GT ISZERO PUSH2 0x5088 JUMPI PUSH1 0x0 DUP1 REVERT JUMPDEST SWAP3 DUP5 ADD SWAP3 JUMPDEST DUP3 DUP5 LT ISZERO PUSH2 0x50AF JUMPI DUP4 CALLDATALOAD PUSH2 0x50A0 DUP2 PUSH2 0x4FEC JUMP JUMPDEST DUP3 MSTORE SWAP3 DUP5 ADD SWAP3 SWAP1 DUP5 ADD SWAP1 PUSH2 0x508D JUMP JUMPDEST DUP1 SWAP6 POP POP POP POP POP POP SWAP3 POP SWAP3 SWAP1 POP JUMP JUMPDEST PUSH1 0x0 DUP1 PUSH1 0x0 DUP1 PUSH1 0x80 DUP6 DUP8 SUB SLT ISZERO PUSH2 0x50D4 JUMPI PUSH1 0x0 DUP1 REVERT JUMPDEST DUP5 CALLDATALOAD PUSH2 0x50DF DUP2 PUSH2 0x4AC7 JUMP JUMPDEST SWAP4 POP PUSH1 0x20 DUP6 ADD CALLDATALOAD PUSH2 0x50EF DUP2 PUSH2 0x4AC7 JUMP JUMPDEST SWAP4 SWAP7 SWAP4 SWAP6 POP POP POP POP PUSH1 0x40 DUP3 ADD CALLDATALOAD SWAP2 PUSH1 0x60 ADD CALLDATALOAD SWAP1 JUMP JUMPDEST PUSH1 0x0 PUSH1 0x20 DUP3 DUP5 SUB SLT ISZERO PUSH2 0x5116 JUMPI PUSH1 0x0 DUP1 REVERT JUMPDEST PUSH2 0x117B DUP3 PUSH2 0x4BF1 JUMP JUMPDEST PUSH32 0x4E487B7100000000000000000000000000000000000000000000000000000000 PUSH1 0x0 MSTORE PUSH1 0x21 PUSH1 0x4 MSTORE PUSH1 0x24 PUSH1 0x0 REVERT JUMPDEST PUSH1 0x20 DUP2 ADD PUSH1 0x2 DUP4 LT PUSH2 0x5189 JUMPI PUSH32 0x4E487B7100000000000000000000000000000000000000000000000000000000 PUSH1 0x0 MSTORE PUSH1 0x21 PUSH1 0x4 MSTORE PUSH1 0x24 PUSH1 0x0 REVERT JUMPDEST SWAP2 SWAP1 MSTORE SWAP1 JUMP JUMPDEST PUSH1 0x0 DUP1 PUSH1 0x40 DUP4 DUP6 SUB SLT ISZERO PUSH2 0x51A2 JUMPI PUSH1 0x0 DUP1 REVERT JUMPDEST POP POP DUP1 CALLDATALOAD SWAP3 PUSH1 0x20 SWAP1 SWAP2 ADD CALLDATALOAD SWAP2 POP JUMP JUMPDEST PUSH1 0x0 DUP1 PUSH1 0x0 PUSH1 0x60 DUP5 DUP7 SUB SLT ISZERO PUSH2 0x51C6 JUMPI PUSH1 0x0 DUP1 REVERT JUMPDEST DUP4 CALLDATALOAD PUSH2 0x51D1 DUP2 PUSH2 0x4AC7 JUMP JUMPDEST SWAP6 PUSH1 0x20 DUP6 ADD CALLDATALOAD SWAP6 POP PUSH1 0x40 SWAP1 SWAP5 ADD CALLDATALOAD SWAP4 SWAP3 POP POP POP JUMP JUMPDEST PUSH1 0x0 DUP1 PUSH1 0x0 DUP1 PUSH1 0x80 DUP6 DUP8 SUB SLT ISZERO PUSH2 0x51FC JUMPI PUSH1 0x0 DUP1 REVERT JUMPDEST POP POP DUP3 CALLDATALOAD SWAP5 PUSH1 0x20 DUP5 ADD CALLDATALOAD SWAP5 POP PUSH1 0x40 DUP5 ADD CALLDATALOAD SWAP4 PUSH1 0x60 ADD CALLDATALOAD SWAP3 POP SWAP1 POP JUMP JUMPDEST PUSH1 0x0 PUSH8 0xFFFFFFFFFFFFFFFF DUP3 GT ISZERO PUSH2 0x5232 JUMPI PUSH2 0x5232 PUSH2 0x49F8 JUMP JUMPDEST POP PUSH1 0x1F ADD PUSH1 0x1F NOT AND PUSH1 0x20 ADD SWAP1 JUMP JUMPDEST PUSH1 0x0 DUP1 PUSH1 0x0 DUP1 PUSH1 0x0 PUSH1 0xA0 DUP7 DUP9 SUB SLT ISZERO PUSH2 0x5258 JUMPI PUSH1 0x0 DUP1 REVERT JUMPDEST DUP6 CALLDATALOAD PUSH2 0x5263 DUP2 PUSH2 0x4AC7 JUMP JUMPDEST SWAP5 POP PUSH1 0x20 DUP7 ADD CALLDATALOAD SWAP4 POP PUSH1 0x40 DUP7 ADD CALLDATALOAD PUSH2 0x527A DUP2 PUSH2 0x4AC7 JUMP JUMPDEST SWAP3 POP PUSH1 0x60 DUP7 ADD CALLDATALOAD SWAP2 POP PUSH1 0x80 DUP7 ADD CALLDATALOAD PUSH8 0xFFFFFFFFFFFFFFFF DUP2 GT ISZERO PUSH2 0x529D JUMPI PUSH1 0x0 DUP1 REVERT JUMPDEST DUP7 ADD PUSH1 0x1F DUP2 ADD DUP9 SGT PUSH2 0x52AE JUMPI PUSH1 0x0 DUP1 REVERT JUMPDEST DUP1 CALLDATALOAD PUSH2 0x52BC PUSH2 0x4C45 DUP3 PUSH2 0x5218 JUMP JUMPDEST DUP2 DUP2 MSTORE DUP10 PUSH1 0x20 DUP4 DUP6 ADD ADD GT ISZERO PUSH2 0x52D1 JUMPI PUSH1 0x0 DUP1 REVERT JUMPDEST DUP2 PUSH1 0x20 DUP5 ADD PUSH1 0x20 DUP4 ADD CALLDATACOPY PUSH1 0x0 PUSH1 0x20 DUP4 DUP4 ADD ADD MSTORE DUP1 SWAP4 POP POP POP POP SWAP3 SWAP6 POP SWAP3 SWAP6 SWAP1 SWAP4 POP JUMP JUMPDEST PUSH32 0x4E487B7100000000000000000000000000000000000000000000000000000000 PUSH1 0x0 MSTORE PUSH1 0x32 PUSH1 0x4 MSTORE PUSH1 0x24 PUSH1 0x0 REVERT JUMPDEST PUSH32 0x4E487B7100000000000000000000000000000000000000000000000000000000 PUSH1 0x0 MSTORE PUSH1 0x11 PUSH1 0x4 MSTORE PUSH1 0x24 PUSH1 0x0 REVERT JUMPDEST PUSH1 0x0 PUSH32 0xFFFFFFFFFFFFFFFFFFFFFFFFFFFFFFFFFFFFFFFFFFFFFFFFFFFFFFFFFFFFFFFF DUP3 SUB PUSH2 0x5383 JUMPI PUSH2 0x5383 PUSH2 0x5323 JUMP JUMPDEST POP PUSH1 0x1 ADD SWAP1 JUMP JUMPDEST PUSH1 0x0 PUSH1 0x20 DUP3 DUP5 SUB SLT ISZERO PUSH2 0x539C JUMPI PUSH1 0x0 DUP1 REVERT JUMPDEST POP MLOAD SWAP2 SWAP1 POP JUMP JUMPDEST PUSH1 0x0 JUMPDEST DUP4 DUP2 LT ISZERO PUSH2 0x53BE JUMPI DUP2 DUP2 ADD MLOAD DUP4 DUP3 ADD MSTORE PUSH1 0x20 ADD PUSH2 0x53A6 JUMP JUMPDEST POP POP PUSH1 0x0 SWAP2 ADD MSTORE JUMP JUMPDEST PUSH1 0x0 DUP2 MLOAD DUP1 DUP5 MSTORE PUSH2 0x53DF DUP2 PUSH1 0x20 DUP7 ADD PUSH1 0x20 DUP7 ADD PUSH2 0x53A3 JUMP JUMPDEST PUSH1 0x1F ADD PUSH1 0x1F NOT AND SWAP3 SWAP1 SWAP3 ADD PUSH1 0x20 ADD SWAP3 SWAP2 POP POP JUMP JUMPDEST PUSH1 0x0 PUSH1 0x1 PUSH1 0x1 PUSH1 0xA0 SHL SUB DUP1 DUP9 AND DUP4 MSTORE DUP1 DUP8 AND PUSH1 0x20 DUP5 ADD MSTORE POP DUP5 PUSH1 0x40 DUP4 ADD MSTORE DUP4 PUSH1 0x60 DUP4 ADD MSTORE PUSH1 0xA0 PUSH1 0x80 DUP4 ADD MSTORE PUSH2 0x48B0 PUSH1 0xA0 DUP4 ADD DUP5 PUSH2 0x53C7 JUMP JUMPDEST PUSH1 0x1 PUSH1 0x1 PUSH1 0xA0 SHL SUB DUP4 AND DUP2 MSTORE PUSH1 0x40 PUSH1 0x20 DUP3 ADD MSTORE PUSH1 0x0 PUSH2 0x261E PUSH1 0x40 DUP4 ADD DUP5 PUSH2 0x53C7 JUMP JUMPDEST PUSH1 0x0 PUSH1 0x20 DUP3 DUP5 SUB SLT ISZERO PUSH2 0x545F JUMPI PUSH1 0x0 DUP1 REVERT JUMPDEST DUP2 MLOAD PUSH8 0xFFFFFFFFFFFFFFFF DUP2 GT ISZERO PUSH2 0x5476 JUMPI PUSH1 0x0 DUP1 REVERT JUMPDEST DUP3 ADD PUSH1 0x1F DUP2 ADD DUP5 SGT PUSH2 0x5487 JUMPI PUSH1 0x0 DUP1 REVERT JUMPDEST DUP1 MLOAD PUSH2 0x5495 PUSH2 0x4C45 DUP3 PUSH2 0x5218 JUMP JUMPDEST DUP2 DUP2 MSTORE DUP6 PUSH1 0x20 DUP4 DUP6 ADD ADD GT ISZERO PUSH2 0x54AA JUMPI PUSH1 0x0 DUP1 REVERT JUMPDEST PUSH2 0x438F DUP3 PUSH1 0x20 DUP4 ADD PUSH1 0x20 DUP7 ADD PUSH2 0x53A3 JUMP JUMPDEST PUSH1 0x0 DUP2 MLOAD DUP1 DUP5 MSTORE PUSH1 0x20 DUP1 DUP6 ADD SWAP5 POP DUP1 DUP5 ADD PUSH1 0x0 JUMPDEST DUP4 DUP2 LT ISZERO PUSH2 0x54EB JUMPI DUP2 MLOAD DUP8 MSTORE SWAP6 DUP3 ADD SWAP6 SWAP1 DUP3 ADD SWAP1 PUSH1 0x1 ADD PUSH2 0x54CF JUMP JUMPDEST POP SWAP5 SWAP6 SWAP5 POP POP POP POP POP JUMP JUMPDEST PUSH1 0x1 PUSH1 0x1 PUSH1 0xA0 SHL SUB DUP5 AND DUP2 MSTORE PUSH32 0xFFFFFFFF00000000000000000000000000000000000000000000000000000000 DUP4 AND PUSH1 0x20 DUP3 ADD MSTORE PUSH1 0x60 PUSH1 0x40 DUP3 ADD MSTORE PUSH1 0x0 PUSH2 0x438F PUSH1 0x60 DUP4 ADD DUP5 PUSH2 0x54BB JUMP JUMPDEST DUP1 DUP3 MUL DUP2 ISZERO DUP3 DUP3 DIV DUP5 EQ OR PUSH2 0xE71 JUMPI PUSH2 0xE71 PUSH2 0x5323 JUMP JUMPDEST PUSH1 0x0 PUSH1 0x1 PUSH1 0x1 PUSH1 0xA0 SHL SUB DUP1 DUP8 AND DUP4 MSTORE DUP1 DUP7 AND PUSH1 0x20 DUP5 ADD MSTORE POP PUSH32 0xFFFFFFFF00000000000000000000000000000000000000000000000000000000 DUP5 AND PUSH1 0x40 DUP4 ADD MSTORE PUSH1 0x80 PUSH1 0x60 DUP4 ADD MSTORE PUSH2 0x55AB PUSH1 0x80 DUP4 ADD DUP5 PUSH2 0x54BB JUMP JUMPDEST SWAP7 SWAP6 POP POP POP POP POP POP JUMP JUMPDEST PUSH1 0x0 PUSH1 0x20 DUP3 DUP5 SUB SLT ISZERO PUSH2 0x55C7 JUMPI PUSH1 0x0 DUP1 REVERT JUMPDEST DUP2 MLOAD PUSH2 0x117B DUP2 PUSH2 0x4FEC JUMP JUMPDEST PUSH32 0x4E487B7100000000000000000000000000000000000000000000000000000000 PUSH1 0x0 MSTORE PUSH1 0x12 PUSH1 0x4 MSTORE PUSH1 0x24 PUSH1 0x0 REVERT JUMPDEST PUSH1 0x0 DUP3 PUSH2 0x5610 JUMPI PUSH2 0x5610 PUSH2 0x55D2 JUMP JUMPDEST POP DIV SWAP1 JUMP JUMPDEST DUP1 DUP3 ADD DUP1 DUP3 GT ISZERO PUSH2 0xE71 JUMPI PUSH2 0xE71 PUSH2 0x5323 JUMP JUMPDEST PUSH1 0x0 PUSH1 0x20 DUP3 DUP5 SUB SLT ISZERO PUSH2 0x563A JUMPI PUSH1 0x0 DUP1 REVERT JUMPDEST DUP2 MLOAD PUSH2 0x117B DUP2 PUSH2 0x4AC7 JUMP JUMPDEST DUP2 DUP2 SUB DUP2 DUP2 GT ISZERO PUSH2 0xE71 JUMPI PUSH2 0xE71 PUSH2 0x5323 JUMP JUMPDEST PUSH32 0x4E487B7100000000000000000000000000000000000000000000000000000000 PUSH1 0x0 MSTORE PUSH1 0x31 PUSH1 0x4 MSTORE PUSH1 0x24 PUSH1 0x0 REVERT JUMPDEST PUSH1 0x0 DUP3 PUSH2 0x5696 JUMPI PUSH2 0x5696 PUSH2 0x55D2 JUMP JUMPDEST POP MOD SWAP1 JUMP JUMPDEST PUSH1 0x0 PUSH1 0x1 PUSH1 0x1 PUSH1 0xA0 SHL SUB DUP1 DUP7 AND DUP4 MSTORE DUP1 DUP6 AND PUSH1 0x20 DUP5 ADD MSTORE POP PUSH1 0x60 PUSH1 0x40 DUP4 ADD MSTORE PUSH2 0x438F PUSH1 0x60 DUP4 ADD DUP5 PUSH2 0x53C7 JUMP JUMPDEST DUP2 DUP2 SUB PUSH1 0x0 DUP4 SLT DUP1 ISZERO DUP4 DUP4 SGT AND DUP4 DUP4 SLT DUP3 AND OR ISZERO PUSH2 0x3215 JUMPI PUSH2 0x3215 PUSH2 0x5323 JUMP JUMPDEST PUSH1 0x0 DUP3 PUSH2 0x56F6 JUMPI PUSH2 0x56F6 PUSH2 0x55D2 JUMP JUMPDEST PUSH32 0xFFFFFFFFFFFFFFFFFFFFFFFFFFFFFFFFFFFFFFFFFFFFFFFFFFFFFFFFFFFFFFFF DUP4 EQ PUSH32 0x8000000000000000000000000000000000000000000000000000000000000000 DUP4 EQ AND ISZERO PUSH2 0x574A JUMPI PUSH2 0x574A PUSH2 0x5323 JUMP JUMPDEST POP SDIV SWAP1 JUMP JUMPDEST DUP1 DUP3 ADD DUP3 DUP2 SLT PUSH1 0x0 DUP4 SLT DUP1 ISZERO DUP3 AND DUP3 ISZERO DUP3 AND OR ISZERO PUSH2 0x576F JUMPI PUSH2 0x576F PUSH2 0x5323 JUMP JUMPDEST POP POP SWAP3 SWAP2 POP POP JUMP JUMPDEST DUP1 DUP3 MUL PUSH1 0x0 DUP3 SLT PUSH32 0x8000000000000000000000000000000000000000000000000000000000000000 DUP5 EQ AND ISZERO PUSH2 0x57AF JUMPI PUSH2 0x57AF PUSH2 0x5323 JUMP JUMPDEST DUP2 DUP2 SDIV DUP4 EQ DUP3 ISZERO OR PUSH2 0xE71 JUMPI PUSH2 0xE71 PUSH2 0x5323 JUMP INVALID LOG2 PUSH5 0x6970667358 0x22 SLT KECCAK256 SDIV LOG0 PUSH16 0xD44967C39B5E346875A7EB6111F3D8BE GAS 0xB5 0xD4 0x4B LOG2 DUP8 DUP15 0xFB 0x5F 0xFC 0xAC SWAP9 0xD2 PUSH5 0x736F6C6343 STOP ADDMOD GT STOP CALLER "},"methodIdentifiers":{"EXECUTION_TYPE()":"4a45a3a8","authorizer()":"d09edf31","call(address,uint256,address,uint256,bytes)":"e788279b","connector()":"83f3084f","customTokenThreshold(address)":"a5900c4d","customVolumeLimit(address)":"221a8c68","defaultTokenThreshold()":"a3374177","defaultVolumeLimit()":"6aacaad8","getBalanceConnectors()":"5670e2ce","getGasLimits()":"5ea54eee","getTaskAmount(address)":"a0c3774f","getTimeLock()":"119a5e96","getTokenThreshold(address)":"51a424b1","getTokensSource()":"c267621e","getVolumeLimit(address)":"d45a76cf","initializePublicSwapper(((address,bytes32,bytes32),(uint256,uint256,uint256,uint256),(uint8,uint256,uint256,uint256),(uint8,address[]),((address,uint256,uint256),(address,(address,uint256,uint256))[]),((address,uint256,uint256),(address,(address,uint256,uint256))[])),address)":"08ae15b9","isPaused()":"b187bd26","isTokenAllowed(address)":"f9eaee0d","pause()":"8456cb59","setBalanceConnectors(bytes32,bytes32)":"7125590a","setConnector(address)":"10188aef","setCustomTokenThreshold(address,address,uint256,uint256)":"2384c32d","setCustomVolumeLimit(address,address,uint256,uint256)":"423a4b40","setDefaultTokenThreshold(address,uint256,uint256)":"d3feb602","setDefaultVolumeLimit(address,uint256,uint256)":"90333ba8","setGasLimits(uint256,uint256,uint256,uint256)":"e6b5be98","setTimeLock(uint8,uint256,uint256,uint256)":"0fe105e8","setTokensAcceptanceList(address[],bool[])":"21972384","setTokensAcceptanceType(uint8)":"30eae572","smartVault()":"4fd49efd","tokensAcceptanceType()":"42d4693e","unpause()":"3f4ba83a"}}}}}