{"contracts/test/AuthorizedHelpersMock.sol":{"AuthorizedHelpersMock":{"abi":[{"inputs":[{"internalType":"address","name":"p1","type":"address"},{"internalType":"uint256","name":"p2","type":"uint256"},{"internalType":"uint256","name":"p3","type":"uint256"},{"internalType":"uint256","name":"p4","type":"uint256"},{"internalType":"uint256","name":"p5","type":"uint256"}],"name":"getAuthParams","outputs":[{"internalType":"uint256[]","name":"r","type":"uint256[]"}],"stateMutability":"pure","type":"function"},{"inputs":[{"internalType":"address","name":"p1","type":"address"},{"internalType":"address","name":"p2","type":"address"},{"internalType":"address","name":"p3","type":"address"}],"name":"getAuthParams","outputs":[{"internalType":"uint256[]","name":"r","type":"uint256[]"}],"stateMutability":"pure","type":"function"},{"inputs":[{"internalType":"address","name":"p1","type":"address"}],"name":"getAuthParams","outputs":[{"internalType":"uint256[]","name":"r","type":"uint256[]"}],"stateMutability":"pure","type":"function"},{"inputs":[{"internalType":"address","name":"p1","type":"address"},{"internalType":"address","name":"p2","type":"address"},{"internalType":"uint256","name":"p3","type":"uint256"}],"name":"getAuthParams","outputs":[{"internalType":"uint256[]","name":"r","type":"uint256[]"}],"stateMutability":"pure","type":"function"},{"inputs":[{"internalType":"bytes32","name":"p1","type":"bytes32"},{"internalType":"address","name":"p2","type":"address"},{"internalType":"uint256","name":"p3","type":"uint256"},{"internalType":"bool","name":"p4","type":"bool"}],"name":"getAuthParams","outputs":[{"internalType":"uint256[]","name":"r","type":"uint256[]"}],"stateMutability":"pure","type":"function"},{"inputs":[{"internalType":"bytes32","name":"p1","type":"bytes32"},{"internalType":"bytes32","name":"p2","type":"bytes32"}],"name":"getAuthParams","outputs":[{"internalType":"uint256[]","name":"r","type":"uint256[]"}],"stateMutability":"pure","type":"function"},{"inputs":[{"internalType":"address","name":"p1","type":"address"},{"internalType":"address","name":"p2","type":"address"},{"internalType":"bytes4","name":"p3","type":"bytes4"}],"name":"getAuthParams","outputs":[{"internalType":"uint256[]","name":"r","type":"uint256[]"}],"stateMutability":"pure","type":"function"},{"inputs":[{"internalType":"address","name":"p1","type":"address"},{"internalType":"address","name":"p2","type":"address"},{"internalType":"uint256","name":"p3","type":"uint256"},{"internalType":"uint256","name":"p4","type":"uint256"}],"name":"getAuthParams","outputs":[{"internalType":"uint256[]","name":"r","type":"uint256[]"}],"stateMutability":"pure","type":"function"},{"inputs":[{"internalType":"address","name":"p1","type":"address"},{"internalType":"uint256","name":"p2","type":"uint256"}],"name":"getAuthParams","outputs":[{"internalType":"uint256[]","name":"r","type":"uint256[]"}],"stateMutability":"pure","type":"function"},{"inputs":[{"internalType":"bytes32","name":"p1","type":"bytes32"}],"name":"getAuthParams","outputs":[{"internalType":"uint256[]","name":"r","type":"uint256[]"}],"stateMutability":"pure","type":"function"},{"inputs":[{"internalType":"address","name":"p1","type":"address"},{"internalType":"uint256","name":"p2","type":"uint256"},{"internalType":"uint256","name":"p3","type":"uint256"},{"internalType":"uint256","name":"p4","type":"uint256"}],"name":"getAuthParams","outputs":[{"internalType":"uint256[]","name":"r","type":"uint256[]"}],"stateMutability":"pure","type":"function"},{"inputs":[{"internalType":"address","name":"p1","type":"address"},{"internalType":"address","name":"p2","type":"address"}],"name":"getAuthParams","outputs":[{"internalType":"uint256[]","name":"r","type":"uint256[]"}],"stateMutability":"pure","type":"function"},{"inputs":[{"internalType":"uint256","name":"p1","type":"uint256"}],"name":"getAuthParams","outputs":[{"internalType":"uint256[]","name":"r","type":"uint256[]"}],"stateMutability":"pure","type":"function"},{"inputs":[{"internalType":"address","name":"p1","type":"address"},{"internalType":"uint256","name":"p2","type":"uint256"},{"internalType":"uint256","name":"p3","type":"uint256"}],"name":"getAuthParams","outputs":[{"internalType":"uint256[]","name":"r","type":"uint256[]"}],"stateMutability":"pure","type":"function"},{"inputs":[{"internalType":"address","name":"p1","type":"address"},{"internalType":"bool","name":"p2","type":"bool"}],"name":"getAuthParams","outputs":[{"internalType":"uint256[]","name":"r","type":"uint256[]"}],"stateMutability":"pure","type":"function"}],"evm":{"bytecode":{"linkReferences":{},"object":"608060405234801561001057600080fd5b50610e97806100206000396000f3fe608060405234801561001057600080fd5b50600436106100f55760003560e01c8063abecdd8111610097578063f2eab45011610066578063f2eab450146101e1578063fd54e7df146101f4578063fee603d414610207578063fefda5ab1461021a57600080fd5b8063abecdd8114610195578063b2ff2bc0146101a8578063c19f8103146101bb578063d2977caf146101ce57600080fd5b806378ff365e116100d357806378ff365e146101495780639cbdff4f1461015c578063a5869fa91461016f578063a7e6553f1461018257600080fd5b806320cbb287146100fa578063601789d81461012357806366f4ec4914610136575b600080fd5b61010d610108366004610ae0565b61022d565b60405161011a9190610b22565b60405180910390f35b61010d610131366004610b66565b610246565b61010d610144366004610ba9565b61025b565b61010d610157366004610bc4565b61026c565b61010d61016a366004610c10565b610279565b61010d61017d366004610c56565b610290565b61010d610190366004610c78565b6102a3565b61010d6101a3366004610ce4565b6102b0565b61010d6101b6366004610d26565b6102be565b61010d6101c9366004610d50565b6102ca565b61010d6101dc366004610d69565b6102d5565b61010d6101ef366004610da2565b6102e3565b61010d610202366004610d50565b6102ef565b61010d610215366004610dd5565b6102fa565b61010d610228366004610e08565b610307565b606061023c8686868686610313565b9695505050505050565b60606102538484846103f5565b949350505050565b6060610266826104c0565b92915050565b60606102538484846104e1565b606061028785858585610583565b95945050505050565b606061029c8383610658565b9392505050565b60606102538484846106c4565b60606102878585858561076f565b606061029c8383610832565b6060610266826102ef565b60606102878585858561089c565b606061029c8383610909565b606061026682610989565b60606102538484846109d0565b606061029c8383610a3c565b60408051600580825260c082019092526060916020820160a0803683370190505090508573ffffffffffffffffffffffffffffffffffffffff168160008151811061036057610360610e32565b602002602001018181525050848160018151811061038057610380610e32565b60200260200101818152505083816002815181106103a0576103a0610e32565b60200260200101818152505082816003815181106103c0576103c0610e32565b60200260200101818152505081816004815181106103e0576103e0610e32565b60200260200101818152505095945050505050565b604080516003808252608082019092526060916020820183803683370190505090508373ffffffffffffffffffffffffffffffffffffffff168160008151811061044157610441610e32565b6020026020010181815250508273ffffffffffffffffffffffffffffffffffffffff168160018151811061047757610477610e32565b6020026020010181815250508173ffffffffffffffffffffffffffffffffffffffff16816002815181106104ad576104ad610e32565b6020026020010181815250509392505050565b60606102668273ffffffffffffffffffffffffffffffffffffffff16610989565b604080516003808252608082019092526060916020820183803683370190505090508373ffffffffffffffffffffffffffffffffffffffff168160008151811061052d5761052d610e32565b6020026020010181815250508273ffffffffffffffffffffffffffffffffffffffff168160018151811061056357610563610e32565b60200260200101818152505081816002815181106104ad576104ad610e32565b60408051600480825260a08201909252606091602082016080803683370190505090508460001c816000815181106105bd576105bd610e32565b6020026020010181815250508373ffffffffffffffffffffffffffffffffffffffff16816001815181106105f3576105f3610e32565b602002602001018181525050828160028151811061061357610613610e32565b6020026020010181815250508161062b57600061062e565b60015b60ff168160038151811061064457610644610e32565b602002602001018181525050949350505050565b60408051600280825260608083018452926020830190803683370190505090508260001c8160008151811061068f5761068f610e32565b6020026020010181815250508160001c816001815181106106b2576106b2610e32565b60200260200101818152505092915050565b604080516003808252608082019092526060916020820183803683370190505090508373ffffffffffffffffffffffffffffffffffffffff168160008151811061071057610710610e32565b6020026020010181815250508273ffffffffffffffffffffffffffffffffffffffff168160018151811061074657610746610e32565b6020026020010181815250508160e01c63ffffffff16816002815181106104ad576104ad610e32565b60408051600480825260a08201909252606091602082016080803683370190505090508473ffffffffffffffffffffffffffffffffffffffff16816000815181106107bc576107bc610e32565b6020026020010181815250508373ffffffffffffffffffffffffffffffffffffffff16816001815181106107f2576107f2610e32565b602002602001018181525050828160028151811061081257610812610e32565b602002602001018181525050818160038151811061064457610644610e32565b60408051600280825260608083018452926020830190803683370190505090508273ffffffffffffffffffffffffffffffffffffffff168160008151811061087c5761087c610e32565b60200260200101818152505081816001815181106106b2576106b2610e32565b60408051600480825260a08201909252606091602082016080803683370190505090508473ffffffffffffffffffffffffffffffffffffffff16816000815181106108e9576108e9610e32565b60200260200101818152505083816001815181106107f2576107f2610e32565b60408051600280825260608083018452926020830190803683370190505090508273ffffffffffffffffffffffffffffffffffffffff168160008151811061095357610953610e32565b6020026020010181815250508173ffffffffffffffffffffffffffffffffffffffff16816001815181106106b2576106b2610e32565b6040805160018082528183019092526060916020808301908036833701905050905081816000815181106109bf576109bf610e32565b602002602001018181525050919050565b604080516003808252608082019092526060916020820183803683370190505090508373ffffffffffffffffffffffffffffffffffffffff1681600081518110610a1c57610a1c610e32565b602002602001018181525050828160018151811061056357610563610e32565b60408051600280825260608083018452926020830190803683370190505090508273ffffffffffffffffffffffffffffffffffffffff1681600081518110610a8657610a86610e32565b60200260200101818152505081610a9e576000610aa1565b60015b60ff16816001815181106106b2576106b2610e32565b803573ffffffffffffffffffffffffffffffffffffffff81168114610adb57600080fd5b919050565b600080600080600060a08688031215610af857600080fd5b610b0186610ab7565b97602087013597506040870135966060810135965060800135945092505050565b6020808252825182820181905260009190848201906040850190845b81811015610b5a57835183529284019291840191600101610b3e565b50909695505050505050565b600080600060608486031215610b7b57600080fd5b610b8484610ab7565b9250610b9260208501610ab7565b9150610ba060408501610ab7565b90509250925092565b600060208284031215610bbb57600080fd5b61029c82610ab7565b600080600060608486031215610bd957600080fd5b610be284610ab7565b9250610bf060208501610ab7565b9150604084013590509250925092565b80358015158114610adb57600080fd5b60008060008060808587031215610c2657600080fd5b84359350610c3660208601610ab7565b925060408501359150610c4b60608601610c00565b905092959194509250565b60008060408385031215610c6957600080fd5b50508035926020909101359150565b600080600060608486031215610c8d57600080fd5b610c9684610ab7565b9250610ca460208501610ab7565b915060408401357fffffffff0000000000000000000000000000000000000000000000000000000081168114610cd957600080fd5b809150509250925092565b60008060008060808587031215610cfa57600080fd5b610d0385610ab7565b9350610d1160208601610ab7565b93969395505050506040820135916060013590565b60008060408385031215610d3957600080fd5b610d4283610ab7565b946020939093013593505050565b600060208284031215610d6257600080fd5b5035919050565b60008060008060808587031215610d7f57600080fd5b610d8885610ab7565b966020860135965060408601359560600135945092505050565b60008060408385031215610db557600080fd5b610dbe83610ab7565b9150610dcc60208401610ab7565b90509250929050565b600080600060608486031215610dea57600080fd5b610df384610ab7565b95602085013595506040909401359392505050565b60008060408385031215610e1b57600080fd5b610e2483610ab7565b9150610dcc60208401610c00565b7f4e487b7100000000000000000000000000000000000000000000000000000000600052603260045260246000fdfea26469706673582212205dfdca907a9260d27eaf0f8c92e3903455d517df35b98cda5208f043a86d409e64736f6c63430008110033","opcodes":"PUSH1 0x80 PUSH1 0x40 MSTORE CALLVALUE DUP1 ISZERO PUSH2 0x10 JUMPI PUSH1 0x0 DUP1 REVERT JUMPDEST POP PUSH2 0xE97 DUP1 PUSH2 0x20 PUSH1 0x0 CODECOPY PUSH1 0x0 RETURN INVALID PUSH1 0x80 PUSH1 0x40 MSTORE CALLVALUE DUP1 ISZERO PUSH2 0x10 JUMPI PUSH1 0x0 DUP1 REVERT JUMPDEST POP PUSH1 0x4 CALLDATASIZE LT PUSH2 0xF5 JUMPI PUSH1 0x0 CALLDATALOAD PUSH1 0xE0 SHR DUP1 PUSH4 0xABECDD81 GT PUSH2 0x97 JUMPI DUP1 PUSH4 0xF2EAB450 GT PUSH2 0x66 JUMPI DUP1 PUSH4 0xF2EAB450 EQ PUSH2 0x1E1 JUMPI DUP1 PUSH4 0xFD54E7DF EQ PUSH2 0x1F4 JUMPI DUP1 PUSH4 0xFEE603D4 EQ PUSH2 0x207 JUMPI DUP1 PUSH4 0xFEFDA5AB EQ PUSH2 0x21A JUMPI PUSH1 0x0 DUP1 REVERT JUMPDEST DUP1 PUSH4 0xABECDD81 EQ PUSH2 0x195 JUMPI DUP1 PUSH4 0xB2FF2BC0 EQ PUSH2 0x1A8 JUMPI DUP1 PUSH4 0xC19F8103 EQ PUSH2 0x1BB JUMPI DUP1 PUSH4 0xD2977CAF EQ PUSH2 0x1CE JUMPI PUSH1 0x0 DUP1 REVERT JUMPDEST DUP1 PUSH4 0x78FF365E GT PUSH2 0xD3 JUMPI DUP1 PUSH4 0x78FF365E EQ PUSH2 0x149 JUMPI DUP1 PUSH4 0x9CBDFF4F EQ PUSH2 0x15C JUMPI DUP1 PUSH4 0xA5869FA9 EQ PUSH2 0x16F JUMPI DUP1 PUSH4 0xA7E6553F EQ PUSH2 0x182 JUMPI PUSH1 0x0 DUP1 REVERT JUMPDEST DUP1 PUSH4 0x20CBB287 EQ PUSH2 0xFA JUMPI DUP1 PUSH4 0x601789D8 EQ PUSH2 0x123 JUMPI DUP1 PUSH4 0x66F4EC49 EQ PUSH2 0x136 JUMPI JUMPDEST PUSH1 0x0 DUP1 REVERT JUMPDEST PUSH2 0x10D PUSH2 0x108 CALLDATASIZE PUSH1 0x4 PUSH2 0xAE0 JUMP JUMPDEST PUSH2 0x22D JUMP JUMPDEST PUSH1 0x40 MLOAD PUSH2 0x11A SWAP2 SWAP1 PUSH2 0xB22 JUMP JUMPDEST PUSH1 0x40 MLOAD DUP1 SWAP2 SUB SWAP1 RETURN JUMPDEST PUSH2 0x10D PUSH2 0x131 CALLDATASIZE PUSH1 0x4 PUSH2 0xB66 JUMP JUMPDEST PUSH2 0x246 JUMP JUMPDEST PUSH2 0x10D PUSH2 0x144 CALLDATASIZE PUSH1 0x4 PUSH2 0xBA9 JUMP JUMPDEST PUSH2 0x25B JUMP JUMPDEST PUSH2 0x10D PUSH2 0x157 CALLDATASIZE PUSH1 0x4 PUSH2 0xBC4 JUMP JUMPDEST PUSH2 0x26C JUMP JUMPDEST PUSH2 0x10D PUSH2 0x16A CALLDATASIZE PUSH1 0x4 PUSH2 0xC10 JUMP JUMPDEST PUSH2 0x279 JUMP JUMPDEST PUSH2 0x10D PUSH2 0x17D CALLDATASIZE PUSH1 0x4 PUSH2 0xC56 JUMP JUMPDEST PUSH2 0x290 JUMP JUMPDEST PUSH2 0x10D PUSH2 0x190 CALLDATASIZE PUSH1 0x4 PUSH2 0xC78 JUMP JUMPDEST PUSH2 0x2A3 JUMP JUMPDEST PUSH2 0x10D PUSH2 0x1A3 CALLDATASIZE PUSH1 0x4 PUSH2 0xCE4 JUMP JUMPDEST PUSH2 0x2B0 JUMP JUMPDEST PUSH2 0x10D PUSH2 0x1B6 CALLDATASIZE PUSH1 0x4 PUSH2 0xD26 JUMP JUMPDEST PUSH2 0x2BE JUMP JUMPDEST PUSH2 0x10D PUSH2 0x1C9 CALLDATASIZE PUSH1 0x4 PUSH2 0xD50 JUMP JUMPDEST PUSH2 0x2CA JUMP JUMPDEST PUSH2 0x10D PUSH2 0x1DC CALLDATASIZE PUSH1 0x4 PUSH2 0xD69 JUMP JUMPDEST PUSH2 0x2D5 JUMP JUMPDEST PUSH2 0x10D PUSH2 0x1EF CALLDATASIZE PUSH1 0x4 PUSH2 0xDA2 JUMP JUMPDEST PUSH2 0x2E3 JUMP JUMPDEST PUSH2 0x10D PUSH2 0x202 CALLDATASIZE PUSH1 0x4 PUSH2 0xD50 JUMP JUMPDEST PUSH2 0x2EF JUMP JUMPDEST PUSH2 0x10D PUSH2 0x215 CALLDATASIZE PUSH1 0x4 PUSH2 0xDD5 JUMP JUMPDEST PUSH2 0x2FA JUMP JUMPDEST PUSH2 0x10D PUSH2 0x228 CALLDATASIZE PUSH1 0x4 PUSH2 0xE08 JUMP JUMPDEST PUSH2 0x307 JUMP JUMPDEST PUSH1 0x60 PUSH2 0x23C DUP7 DUP7 DUP7 DUP7 DUP7 PUSH2 0x313 JUMP JUMPDEST SWAP7 SWAP6 POP POP POP POP POP POP JUMP JUMPDEST PUSH1 0x60 PUSH2 0x253 DUP5 DUP5 DUP5 PUSH2 0x3F5 JUMP JUMPDEST SWAP5 SWAP4 POP POP POP POP JUMP JUMPDEST PUSH1 0x60 PUSH2 0x266 DUP3 PUSH2 0x4C0 JUMP JUMPDEST SWAP3 SWAP2 POP POP JUMP JUMPDEST PUSH1 0x60 PUSH2 0x253 DUP5 DUP5 DUP5 PUSH2 0x4E1 JUMP JUMPDEST PUSH1 0x60 PUSH2 0x287 DUP6 DUP6 DUP6 DUP6 PUSH2 0x583 JUMP JUMPDEST SWAP6 SWAP5 POP POP POP POP POP JUMP JUMPDEST PUSH1 0x60 PUSH2 0x29C DUP4 DUP4 PUSH2 0x658 JUMP JUMPDEST SWAP4 SWAP3 POP POP POP JUMP JUMPDEST PUSH1 0x60 PUSH2 0x253 DUP5 DUP5 DUP5 PUSH2 0x6C4 JUMP JUMPDEST PUSH1 0x60 PUSH2 0x287 DUP6 DUP6 DUP6 DUP6 PUSH2 0x76F JUMP JUMPDEST PUSH1 0x60 PUSH2 0x29C DUP4 DUP4 PUSH2 0x832 JUMP JUMPDEST PUSH1 0x60 PUSH2 0x266 DUP3 PUSH2 0x2EF JUMP JUMPDEST PUSH1 0x60 PUSH2 0x287 DUP6 DUP6 DUP6 DUP6 PUSH2 0x89C JUMP JUMPDEST PUSH1 0x60 PUSH2 0x29C DUP4 DUP4 PUSH2 0x909 JUMP JUMPDEST PUSH1 0x60 PUSH2 0x266 DUP3 PUSH2 0x989 JUMP JUMPDEST PUSH1 0x60 PUSH2 0x253 DUP5 DUP5 DUP5 PUSH2 0x9D0 JUMP JUMPDEST PUSH1 0x60 PUSH2 0x29C DUP4 DUP4 PUSH2 0xA3C JUMP JUMPDEST PUSH1 0x40 DUP1 MLOAD PUSH1 0x5 DUP1 DUP3 MSTORE PUSH1 0xC0 DUP3 ADD SWAP1 SWAP3 MSTORE PUSH1 0x60 SWAP2 PUSH1 0x20 DUP3 ADD PUSH1 0xA0 DUP1 CALLDATASIZE DUP4 CALLDATACOPY ADD SWAP1 POP POP SWAP1 POP DUP6 PUSH20 0xFFFFFFFFFFFFFFFFFFFFFFFFFFFFFFFFFFFFFFFF AND DUP2 PUSH1 0x0 DUP2 MLOAD DUP2 LT PUSH2 0x360 JUMPI PUSH2 0x360 PUSH2 0xE32 JUMP JUMPDEST PUSH1 0x20 MUL PUSH1 0x20 ADD ADD DUP2 DUP2 MSTORE POP POP DUP5 DUP2 PUSH1 0x1 DUP2 MLOAD DUP2 LT PUSH2 0x380 JUMPI PUSH2 0x380 PUSH2 0xE32 JUMP JUMPDEST PUSH1 0x20 MUL PUSH1 0x20 ADD ADD DUP2 DUP2 MSTORE POP POP DUP4 DUP2 PUSH1 0x2 DUP2 MLOAD DUP2 LT PUSH2 0x3A0 JUMPI PUSH2 0x3A0 PUSH2 0xE32 JUMP JUMPDEST PUSH1 0x20 MUL PUSH1 0x20 ADD ADD DUP2 DUP2 MSTORE POP POP DUP3 DUP2 PUSH1 0x3 DUP2 MLOAD DUP2 LT PUSH2 0x3C0 JUMPI PUSH2 0x3C0 PUSH2 0xE32 JUMP JUMPDEST PUSH1 0x20 MUL PUSH1 0x20 ADD ADD DUP2 DUP2 MSTORE POP POP DUP2 DUP2 PUSH1 0x4 DUP2 MLOAD DUP2 LT PUSH2 0x3E0 JUMPI PUSH2 0x3E0 PUSH2 0xE32 JUMP JUMPDEST PUSH1 0x20 MUL PUSH1 0x20 ADD ADD DUP2 DUP2 MSTORE POP POP SWAP6 SWAP5 POP POP POP POP POP JUMP JUMPDEST PUSH1 0x40 DUP1 MLOAD PUSH1 0x3 DUP1 DUP3 MSTORE PUSH1 0x80 DUP3 ADD SWAP1 SWAP3 MSTORE PUSH1 0x60 SWAP2 PUSH1 0x20 DUP3 ADD DUP4 DUP1 CALLDATASIZE DUP4 CALLDATACOPY ADD SWAP1 POP POP SWAP1 POP DUP4 PUSH20 0xFFFFFFFFFFFFFFFFFFFFFFFFFFFFFFFFFFFFFFFF AND DUP2 PUSH1 0x0 DUP2 MLOAD DUP2 LT PUSH2 0x441 JUMPI PUSH2 0x441 PUSH2 0xE32 JUMP JUMPDEST PUSH1 0x20 MUL PUSH1 0x20 ADD ADD DUP2 DUP2 MSTORE POP POP DUP3 PUSH20 0xFFFFFFFFFFFFFFFFFFFFFFFFFFFFFFFFFFFFFFFF AND DUP2 PUSH1 0x1 DUP2 MLOAD DUP2 LT PUSH2 0x477 JUMPI PUSH2 0x477 PUSH2 0xE32 JUMP JUMPDEST PUSH1 0x20 MUL PUSH1 0x20 ADD ADD DUP2 DUP2 MSTORE POP POP DUP2 PUSH20 0xFFFFFFFFFFFFFFFFFFFFFFFFFFFFFFFFFFFFFFFF AND DUP2 PUSH1 0x2 DUP2 MLOAD DUP2 LT PUSH2 0x4AD JUMPI PUSH2 0x4AD PUSH2 0xE32 JUMP JUMPDEST PUSH1 0x20 MUL PUSH1 0x20 ADD ADD DUP2 DUP2 MSTORE POP POP SWAP4 SWAP3 POP POP POP JUMP JUMPDEST PUSH1 0x60 PUSH2 0x266 DUP3 PUSH20 0xFFFFFFFFFFFFFFFFFFFFFFFFFFFFFFFFFFFFFFFF AND PUSH2 0x989 JUMP JUMPDEST PUSH1 0x40 DUP1 MLOAD PUSH1 0x3 DUP1 DUP3 MSTORE PUSH1 0x80 DUP3 ADD SWAP1 SWAP3 MSTORE PUSH1 0x60 SWAP2 PUSH1 0x20 DUP3 ADD DUP4 DUP1 CALLDATASIZE DUP4 CALLDATACOPY ADD SWAP1 POP POP SWAP1 POP DUP4 PUSH20 0xFFFFFFFFFFFFFFFFFFFFFFFFFFFFFFFFFFFFFFFF AND DUP2 PUSH1 0x0 DUP2 MLOAD DUP2 LT PUSH2 0x52D JUMPI PUSH2 0x52D PUSH2 0xE32 JUMP JUMPDEST PUSH1 0x20 MUL PUSH1 0x20 ADD ADD DUP2 DUP2 MSTORE POP POP DUP3 PUSH20 0xFFFFFFFFFFFFFFFFFFFFFFFFFFFFFFFFFFFFFFFF AND DUP2 PUSH1 0x1 DUP2 MLOAD DUP2 LT PUSH2 0x563 JUMPI PUSH2 0x563 PUSH2 0xE32 JUMP JUMPDEST PUSH1 0x20 MUL PUSH1 0x20 ADD ADD DUP2 DUP2 MSTORE POP POP DUP2 DUP2 PUSH1 0x2 DUP2 MLOAD DUP2 LT PUSH2 0x4AD JUMPI PUSH2 0x4AD PUSH2 0xE32 JUMP JUMPDEST PUSH1 0x40 DUP1 MLOAD PUSH1 0x4 DUP1 DUP3 MSTORE PUSH1 0xA0 DUP3 ADD SWAP1 SWAP3 MSTORE PUSH1 0x60 SWAP2 PUSH1 0x20 DUP3 ADD PUSH1 0x80 DUP1 CALLDATASIZE DUP4 CALLDATACOPY ADD SWAP1 POP POP SWAP1 POP DUP5 PUSH1 0x0 SHR DUP2 PUSH1 0x0 DUP2 MLOAD DUP2 LT PUSH2 0x5BD JUMPI PUSH2 0x5BD PUSH2 0xE32 JUMP JUMPDEST PUSH1 0x20 MUL PUSH1 0x20 ADD ADD DUP2 DUP2 MSTORE POP POP DUP4 PUSH20 0xFFFFFFFFFFFFFFFFFFFFFFFFFFFFFFFFFFFFFFFF AND DUP2 PUSH1 0x1 DUP2 MLOAD DUP2 LT PUSH2 0x5F3 JUMPI PUSH2 0x5F3 PUSH2 0xE32 JUMP JUMPDEST PUSH1 0x20 MUL PUSH1 0x20 ADD ADD DUP2 DUP2 MSTORE POP POP DUP3 DUP2 PUSH1 0x2 DUP2 MLOAD DUP2 LT PUSH2 0x613 JUMPI PUSH2 0x613 PUSH2 0xE32 JUMP JUMPDEST PUSH1 0x20 MUL PUSH1 0x20 ADD ADD DUP2 DUP2 MSTORE POP POP DUP2 PUSH2 0x62B JUMPI PUSH1 0x0 PUSH2 0x62E JUMP JUMPDEST PUSH1 0x1 JUMPDEST PUSH1 0xFF AND DUP2 PUSH1 0x3 DUP2 MLOAD DUP2 LT PUSH2 0x644 JUMPI PUSH2 0x644 PUSH2 0xE32 JUMP JUMPDEST PUSH1 0x20 MUL PUSH1 0x20 ADD ADD DUP2 DUP2 MSTORE POP POP SWAP5 SWAP4 POP POP POP POP JUMP JUMPDEST PUSH1 0x40 DUP1 MLOAD PUSH1 0x2 DUP1 DUP3 MSTORE PUSH1 0x60 DUP1 DUP4 ADD DUP5 MSTORE SWAP3 PUSH1 0x20 DUP4 ADD SWAP1 DUP1 CALLDATASIZE DUP4 CALLDATACOPY ADD SWAP1 POP POP SWAP1 POP DUP3 PUSH1 0x0 SHR DUP2 PUSH1 0x0 DUP2 MLOAD DUP2 LT PUSH2 0x68F JUMPI PUSH2 0x68F PUSH2 0xE32 JUMP JUMPDEST PUSH1 0x20 MUL PUSH1 0x20 ADD ADD DUP2 DUP2 MSTORE POP POP DUP2 PUSH1 0x0 SHR DUP2 PUSH1 0x1 DUP2 MLOAD DUP2 LT PUSH2 0x6B2 JUMPI PUSH2 0x6B2 PUSH2 0xE32 JUMP JUMPDEST PUSH1 0x20 MUL PUSH1 0x20 ADD ADD DUP2 DUP2 MSTORE POP POP SWAP3 SWAP2 POP POP JUMP JUMPDEST PUSH1 0x40 DUP1 MLOAD PUSH1 0x3 DUP1 DUP3 MSTORE PUSH1 0x80 DUP3 ADD SWAP1 SWAP3 MSTORE PUSH1 0x60 SWAP2 PUSH1 0x20 DUP3 ADD DUP4 DUP1 CALLDATASIZE DUP4 CALLDATACOPY ADD SWAP1 POP POP SWAP1 POP DUP4 PUSH20 0xFFFFFFFFFFFFFFFFFFFFFFFFFFFFFFFFFFFFFFFF AND DUP2 PUSH1 0x0 DUP2 MLOAD DUP2 LT PUSH2 0x710 JUMPI PUSH2 0x710 PUSH2 0xE32 JUMP JUMPDEST PUSH1 0x20 MUL PUSH1 0x20 ADD ADD DUP2 DUP2 MSTORE POP POP DUP3 PUSH20 0xFFFFFFFFFFFFFFFFFFFFFFFFFFFFFFFFFFFFFFFF AND DUP2 PUSH1 0x1 DUP2 MLOAD DUP2 LT PUSH2 0x746 JUMPI PUSH2 0x746 PUSH2 0xE32 JUMP JUMPDEST PUSH1 0x20 MUL PUSH1 0x20 ADD ADD DUP2 DUP2 MSTORE POP POP DUP2 PUSH1 0xE0 SHR PUSH4 0xFFFFFFFF AND DUP2 PUSH1 0x2 DUP2 MLOAD DUP2 LT PUSH2 0x4AD JUMPI PUSH2 0x4AD PUSH2 0xE32 JUMP JUMPDEST PUSH1 0x40 DUP1 MLOAD PUSH1 0x4 DUP1 DUP3 MSTORE PUSH1 0xA0 DUP3 ADD SWAP1 SWAP3 MSTORE PUSH1 0x60 SWAP2 PUSH1 0x20 DUP3 ADD PUSH1 0x80 DUP1 CALLDATASIZE DUP4 CALLDATACOPY ADD SWAP1 POP POP SWAP1 POP DUP5 PUSH20 0xFFFFFFFFFFFFFFFFFFFFFFFFFFFFFFFFFFFFFFFF AND DUP2 PUSH1 0x0 DUP2 MLOAD DUP2 LT PUSH2 0x7BC JUMPI PUSH2 0x7BC PUSH2 0xE32 JUMP JUMPDEST PUSH1 0x20 MUL PUSH1 0x20 ADD ADD DUP2 DUP2 MSTORE POP POP DUP4 PUSH20 0xFFFFFFFFFFFFFFFFFFFFFFFFFFFFFFFFFFFFFFFF AND DUP2 PUSH1 0x1 DUP2 MLOAD DUP2 LT PUSH2 0x7F2 JUMPI PUSH2 0x7F2 PUSH2 0xE32 JUMP JUMPDEST PUSH1 0x20 MUL PUSH1 0x20 ADD ADD DUP2 DUP2 MSTORE POP POP DUP3 DUP2 PUSH1 0x2 DUP2 MLOAD DUP2 LT PUSH2 0x812 JUMPI PUSH2 0x812 PUSH2 0xE32 JUMP JUMPDEST PUSH1 0x20 MUL PUSH1 0x20 ADD ADD DUP2 DUP2 MSTORE POP POP DUP2 DUP2 PUSH1 0x3 DUP2 MLOAD DUP2 LT PUSH2 0x644 JUMPI PUSH2 0x644 PUSH2 0xE32 JUMP JUMPDEST PUSH1 0x40 DUP1 MLOAD PUSH1 0x2 DUP1 DUP3 MSTORE PUSH1 0x60 DUP1 DUP4 ADD DUP5 MSTORE SWAP3 PUSH1 0x20 DUP4 ADD SWAP1 DUP1 CALLDATASIZE DUP4 CALLDATACOPY ADD SWAP1 POP POP SWAP1 POP DUP3 PUSH20 0xFFFFFFFFFFFFFFFFFFFFFFFFFFFFFFFFFFFFFFFF AND DUP2 PUSH1 0x0 DUP2 MLOAD DUP2 LT PUSH2 0x87C JUMPI PUSH2 0x87C PUSH2 0xE32 JUMP JUMPDEST PUSH1 0x20 MUL PUSH1 0x20 ADD ADD DUP2 DUP2 MSTORE POP POP DUP2 DUP2 PUSH1 0x1 DUP2 MLOAD DUP2 LT PUSH2 0x6B2 JUMPI PUSH2 0x6B2 PUSH2 0xE32 JUMP JUMPDEST PUSH1 0x40 DUP1 MLOAD PUSH1 0x4 DUP1 DUP3 MSTORE PUSH1 0xA0 DUP3 ADD SWAP1 SWAP3 MSTORE PUSH1 0x60 SWAP2 PUSH1 0x20 DUP3 ADD PUSH1 0x80 DUP1 CALLDATASIZE DUP4 CALLDATACOPY ADD SWAP1 POP POP SWAP1 POP DUP5 PUSH20 0xFFFFFFFFFFFFFFFFFFFFFFFFFFFFFFFFFFFFFFFF AND DUP2 PUSH1 0x0 DUP2 MLOAD DUP2 LT PUSH2 0x8E9 JUMPI PUSH2 0x8E9 PUSH2 0xE32 JUMP JUMPDEST PUSH1 0x20 MUL PUSH1 0x20 ADD ADD DUP2 DUP2 MSTORE POP POP DUP4 DUP2 PUSH1 0x1 DUP2 MLOAD DUP2 LT PUSH2 0x7F2 JUMPI PUSH2 0x7F2 PUSH2 0xE32 JUMP JUMPDEST PUSH1 0x40 DUP1 MLOAD PUSH1 0x2 DUP1 DUP3 MSTORE PUSH1 0x60 DUP1 DUP4 ADD DUP5 MSTORE SWAP3 PUSH1 0x20 DUP4 ADD SWAP1 DUP1 CALLDATASIZE DUP4 CALLDATACOPY ADD SWAP1 POP POP SWAP1 POP DUP3 PUSH20 0xFFFFFFFFFFFFFFFFFFFFFFFFFFFFFFFFFFFFFFFF AND DUP2 PUSH1 0x0 DUP2 MLOAD DUP2 LT PUSH2 0x953 JUMPI PUSH2 0x953 PUSH2 0xE32 JUMP JUMPDEST PUSH1 0x20 MUL PUSH1 0x20 ADD ADD DUP2 DUP2 MSTORE POP POP DUP2 PUSH20 0xFFFFFFFFFFFFFFFFFFFFFFFFFFFFFFFFFFFFFFFF AND DUP2 PUSH1 0x1 DUP2 MLOAD DUP2 LT PUSH2 0x6B2 JUMPI PUSH2 0x6B2 PUSH2 0xE32 JUMP JUMPDEST PUSH1 0x40 DUP1 MLOAD PUSH1 0x1 DUP1 DUP3 MSTORE DUP2 DUP4 ADD SWAP1 SWAP3 MSTORE PUSH1 0x60 SWAP2 PUSH1 0x20 DUP1 DUP4 ADD SWAP1 DUP1 CALLDATASIZE DUP4 CALLDATACOPY ADD SWAP1 POP POP SWAP1 POP DUP2 DUP2 PUSH1 0x0 DUP2 MLOAD DUP2 LT PUSH2 0x9BF JUMPI PUSH2 0x9BF PUSH2 0xE32 JUMP JUMPDEST PUSH1 0x20 MUL PUSH1 0x20 ADD ADD DUP2 DUP2 MSTORE POP POP SWAP2 SWAP1 POP JUMP JUMPDEST PUSH1 0x40 DUP1 MLOAD PUSH1 0x3 DUP1 DUP3 MSTORE PUSH1 0x80 DUP3 ADD SWAP1 SWAP3 MSTORE PUSH1 0x60 SWAP2 PUSH1 0x20 DUP3 ADD DUP4 DUP1 CALLDATASIZE DUP4 CALLDATACOPY ADD SWAP1 POP POP SWAP1 POP DUP4 PUSH20 0xFFFFFFFFFFFFFFFFFFFFFFFFFFFFFFFFFFFFFFFF AND DUP2 PUSH1 0x0 DUP2 MLOAD DUP2 LT PUSH2 0xA1C JUMPI PUSH2 0xA1C PUSH2 0xE32 JUMP JUMPDEST PUSH1 0x20 MUL PUSH1 0x20 ADD ADD DUP2 DUP2 MSTORE POP POP DUP3 DUP2 PUSH1 0x1 DUP2 MLOAD DUP2 LT PUSH2 0x563 JUMPI PUSH2 0x563 PUSH2 0xE32 JUMP JUMPDEST PUSH1 0x40 DUP1 MLOAD PUSH1 0x2 DUP1 DUP3 MSTORE PUSH1 0x60 DUP1 DUP4 ADD DUP5 MSTORE SWAP3 PUSH1 0x20 DUP4 ADD SWAP1 DUP1 CALLDATASIZE DUP4 CALLDATACOPY ADD SWAP1 POP POP SWAP1 POP DUP3 PUSH20 0xFFFFFFFFFFFFFFFFFFFFFFFFFFFFFFFFFFFFFFFF AND DUP2 PUSH1 0x0 DUP2 MLOAD DUP2 LT PUSH2 0xA86 JUMPI PUSH2 0xA86 PUSH2 0xE32 JUMP JUMPDEST PUSH1 0x20 MUL PUSH1 0x20 ADD ADD DUP2 DUP2 MSTORE POP POP DUP2 PUSH2 0xA9E JUMPI PUSH1 0x0 PUSH2 0xAA1 JUMP JUMPDEST PUSH1 0x1 JUMPDEST PUSH1 0xFF AND DUP2 PUSH1 0x1 DUP2 MLOAD DUP2 LT PUSH2 0x6B2 JUMPI PUSH2 0x6B2 PUSH2 0xE32 JUMP JUMPDEST DUP1 CALLDATALOAD PUSH20 0xFFFFFFFFFFFFFFFFFFFFFFFFFFFFFFFFFFFFFFFF DUP2 AND DUP2 EQ PUSH2 0xADB JUMPI PUSH1 0x0 DUP1 REVERT JUMPDEST SWAP2 SWAP1 POP JUMP JUMPDEST PUSH1 0x0 DUP1 PUSH1 0x0 DUP1 PUSH1 0x0 PUSH1 0xA0 DUP7 DUP9 SUB SLT ISZERO PUSH2 0xAF8 JUMPI PUSH1 0x0 DUP1 REVERT JUMPDEST PUSH2 0xB01 DUP7 PUSH2 0xAB7 JUMP JUMPDEST SWAP8 PUSH1 0x20 DUP8 ADD CALLDATALOAD SWAP8 POP PUSH1 0x40 DUP8 ADD CALLDATALOAD SWAP7 PUSH1 0x60 DUP2 ADD CALLDATALOAD SWAP7 POP PUSH1 0x80 ADD CALLDATALOAD SWAP5 POP SWAP3 POP POP POP JUMP JUMPDEST PUSH1 0x20 DUP1 DUP3 MSTORE DUP3 MLOAD DUP3 DUP3 ADD DUP2 SWAP1 MSTORE PUSH1 0x0 SWAP2 SWAP1 DUP5 DUP3 ADD SWAP1 PUSH1 0x40 DUP6 ADD SWAP1 DUP5 JUMPDEST DUP2 DUP2 LT ISZERO PUSH2 0xB5A JUMPI DUP4 MLOAD DUP4 MSTORE SWAP3 DUP5 ADD SWAP3 SWAP2 DUP5 ADD SWAP2 PUSH1 0x1 ADD PUSH2 0xB3E JUMP JUMPDEST POP SWAP1 SWAP7 SWAP6 POP POP POP POP POP POP JUMP JUMPDEST PUSH1 0x0 DUP1 PUSH1 0x0 PUSH1 0x60 DUP5 DUP7 SUB SLT ISZERO PUSH2 0xB7B JUMPI PUSH1 0x0 DUP1 REVERT JUMPDEST PUSH2 0xB84 DUP5 PUSH2 0xAB7 JUMP JUMPDEST SWAP3 POP PUSH2 0xB92 PUSH1 0x20 DUP6 ADD PUSH2 0xAB7 JUMP JUMPDEST SWAP2 POP PUSH2 0xBA0 PUSH1 0x40 DUP6 ADD PUSH2 0xAB7 JUMP JUMPDEST SWAP1 POP SWAP3 POP SWAP3 POP SWAP3 JUMP JUMPDEST PUSH1 0x0 PUSH1 0x20 DUP3 DUP5 SUB SLT ISZERO PUSH2 0xBBB JUMPI PUSH1 0x0 DUP1 REVERT JUMPDEST PUSH2 0x29C DUP3 PUSH2 0xAB7 JUMP JUMPDEST PUSH1 0x0 DUP1 PUSH1 0x0 PUSH1 0x60 DUP5 DUP7 SUB SLT ISZERO PUSH2 0xBD9 JUMPI PUSH1 0x0 DUP1 REVERT JUMPDEST PUSH2 0xBE2 DUP5 PUSH2 0xAB7 JUMP JUMPDEST SWAP3 POP PUSH2 0xBF0 PUSH1 0x20 DUP6 ADD PUSH2 0xAB7 JUMP JUMPDEST SWAP2 POP PUSH1 0x40 DUP5 ADD CALLDATALOAD SWAP1 POP SWAP3 POP SWAP3 POP SWAP3 JUMP JUMPDEST DUP1 CALLDATALOAD DUP1 ISZERO ISZERO DUP2 EQ PUSH2 0xADB JUMPI PUSH1 0x0 DUP1 REVERT JUMPDEST PUSH1 0x0 DUP1 PUSH1 0x0 DUP1 PUSH1 0x80 DUP6 DUP8 SUB SLT ISZERO PUSH2 0xC26 JUMPI PUSH1 0x0 DUP1 REVERT JUMPDEST DUP5 CALLDATALOAD SWAP4 POP PUSH2 0xC36 PUSH1 0x20 DUP7 ADD PUSH2 0xAB7 JUMP JUMPDEST SWAP3 POP PUSH1 0x40 DUP6 ADD CALLDATALOAD SWAP2 POP PUSH2 0xC4B PUSH1 0x60 DUP7 ADD PUSH2 0xC00 JUMP JUMPDEST SWAP1 POP SWAP3 SWAP6 SWAP2 SWAP5 POP SWAP3 POP JUMP JUMPDEST PUSH1 0x0 DUP1 PUSH1 0x40 DUP4 DUP6 SUB SLT ISZERO PUSH2 0xC69 JUMPI PUSH1 0x0 DUP1 REVERT JUMPDEST POP POP DUP1 CALLDATALOAD SWAP3 PUSH1 0x20 SWAP1 SWAP2 ADD CALLDATALOAD SWAP2 POP JUMP JUMPDEST PUSH1 0x0 DUP1 PUSH1 0x0 PUSH1 0x60 DUP5 DUP7 SUB SLT ISZERO PUSH2 0xC8D JUMPI PUSH1 0x0 DUP1 REVERT JUMPDEST PUSH2 0xC96 DUP5 PUSH2 0xAB7 JUMP JUMPDEST SWAP3 POP PUSH2 0xCA4 PUSH1 0x20 DUP6 ADD PUSH2 0xAB7 JUMP JUMPDEST SWAP2 POP PUSH1 0x40 DUP5 ADD CALLDATALOAD PUSH32 0xFFFFFFFF00000000000000000000000000000000000000000000000000000000 DUP2 AND DUP2 EQ PUSH2 0xCD9 JUMPI PUSH1 0x0 DUP1 REVERT JUMPDEST DUP1 SWAP2 POP POP SWAP3 POP SWAP3 POP SWAP3 JUMP JUMPDEST PUSH1 0x0 DUP1 PUSH1 0x0 DUP1 PUSH1 0x80 DUP6 DUP8 SUB SLT ISZERO PUSH2 0xCFA JUMPI PUSH1 0x0 DUP1 REVERT JUMPDEST PUSH2 0xD03 DUP6 PUSH2 0xAB7 JUMP JUMPDEST SWAP4 POP PUSH2 0xD11 PUSH1 0x20 DUP7 ADD PUSH2 0xAB7 JUMP JUMPDEST SWAP4 SWAP7 SWAP4 SWAP6 POP POP POP POP PUSH1 0x40 DUP3 ADD CALLDATALOAD SWAP2 PUSH1 0x60 ADD CALLDATALOAD SWAP1 JUMP JUMPDEST PUSH1 0x0 DUP1 PUSH1 0x40 DUP4 DUP6 SUB SLT ISZERO PUSH2 0xD39 JUMPI PUSH1 0x0 DUP1 REVERT JUMPDEST PUSH2 0xD42 DUP4 PUSH2 0xAB7 JUMP JUMPDEST SWAP5 PUSH1 0x20 SWAP4 SWAP1 SWAP4 ADD CALLDATALOAD SWAP4 POP POP POP JUMP JUMPDEST PUSH1 0x0 PUSH1 0x20 DUP3 DUP5 SUB SLT ISZERO PUSH2 0xD62 JUMPI PUSH1 0x0 DUP1 REVERT JUMPDEST POP CALLDATALOAD SWAP2 SWAP1 POP JUMP JUMPDEST PUSH1 0x0 DUP1 PUSH1 0x0 DUP1 PUSH1 0x80 DUP6 DUP8 SUB SLT ISZERO PUSH2 0xD7F JUMPI PUSH1 0x0 DUP1 REVERT JUMPDEST PUSH2 0xD88 DUP6 PUSH2 0xAB7 JUMP JUMPDEST SWAP7 PUSH1 0x20 DUP7 ADD CALLDATALOAD SWAP7 POP PUSH1 0x40 DUP7 ADD CALLDATALOAD SWAP6 PUSH1 0x60 ADD CALLDATALOAD SWAP5 POP SWAP3 POP POP POP JUMP JUMPDEST PUSH1 0x0 DUP1 PUSH1 0x40 DUP4 DUP6 SUB SLT ISZERO PUSH2 0xDB5 JUMPI PUSH1 0x0 DUP1 REVERT JUMPDEST PUSH2 0xDBE DUP4 PUSH2 0xAB7 JUMP JUMPDEST SWAP2 POP PUSH2 0xDCC PUSH1 0x20 DUP5 ADD PUSH2 0xAB7 JUMP JUMPDEST SWAP1 POP SWAP3 POP SWAP3 SWAP1 POP JUMP JUMPDEST PUSH1 0x0 DUP1 PUSH1 0x0 PUSH1 0x60 DUP5 DUP7 SUB SLT ISZERO PUSH2 0xDEA JUMPI PUSH1 0x0 DUP1 REVERT JUMPDEST PUSH2 0xDF3 DUP5 PUSH2 0xAB7 JUMP JUMPDEST SWAP6 PUSH1 0x20 DUP6 ADD CALLDATALOAD SWAP6 POP PUSH1 0x40 SWAP1 SWAP5 ADD CALLDATALOAD SWAP4 SWAP3 POP POP POP JUMP JUMPDEST PUSH1 0x0 DUP1 PUSH1 0x40 DUP4 DUP6 SUB SLT ISZERO PUSH2 0xE1B JUMPI PUSH1 0x0 DUP1 REVERT JUMPDEST PUSH2 0xE24 DUP4 PUSH2 0xAB7 JUMP JUMPDEST SWAP2 POP PUSH2 0xDCC PUSH1 0x20 DUP5 ADD PUSH2 0xC00 JUMP JUMPDEST PUSH32 0x4E487B7100000000000000000000000000000000000000000000000000000000 PUSH1 0x0 MSTORE PUSH1 0x32 PUSH1 0x4 MSTORE PUSH1 0x24 PUSH1 0x0 REVERT INVALID LOG2 PUSH5 0x6970667358 0x22 SLT KECCAK256 0x5D REVERT 0xCA SWAP1 PUSH27 0x9260D27EAF0F8C92E3903455D517DF35B98CDA5208F043A86D409E PUSH5 0x736F6C6343 STOP ADDMOD GT STOP CALLER "},"methodIdentifiers":{"getAuthParams(address)":"66f4ec49","getAuthParams(address,address)":"f2eab450","getAuthParams(address,address,address)":"601789d8","getAuthParams(address,address,bytes4)":"a7e6553f","getAuthParams(address,address,uint256)":"78ff365e","getAuthParams(address,address,uint256,uint256)":"abecdd81","getAuthParams(address,bool)":"fefda5ab","getAuthParams(address,uint256)":"b2ff2bc0","getAuthParams(address,uint256,uint256)":"fee603d4","getAuthParams(address,uint256,uint256,uint256)":"d2977caf","getAuthParams(address,uint256,uint256,uint256,uint256)":"20cbb287","getAuthParams(bytes32)":"c19f8103","getAuthParams(bytes32,address,uint256,bool)":"9cbdff4f","getAuthParams(bytes32,bytes32)":"a5869fa9","getAuthParams(uint256)":"fd54e7df"}}}}}