{"contracts/Authorizer.sol":{"Authorizer":{"abi":[{"inputs":[],"stateMutability":"nonpayable","type":"constructor"},{"inputs":[{"internalType":"uint8","name":"op","type":"uint8"}],"name":"AuthorizerInvalidParamOp","type":"error"},{"inputs":[{"internalType":"address","name":"who","type":"address"},{"internalType":"address","name":"where","type":"address"},{"internalType":"bytes4","name":"what","type":"bytes4"},{"internalType":"uint256[]","name":"how","type":"uint256[]"}],"name":"AuthorizerSenderNotAllowed","type":"error"},{"anonymous":false,"inputs":[{"indexed":true,"internalType":"address","name":"who","type":"address"},{"indexed":true,"internalType":"address","name":"where","type":"address"},{"indexed":true,"internalType":"bytes4","name":"what","type":"bytes4"},{"components":[{"internalType":"uint8","name":"op","type":"uint8"},{"internalType":"uint248","name":"value","type":"uint248"}],"indexed":false,"internalType":"struct IAuthorizer.Param[]","name":"params","type":"tuple[]"}],"name":"Authorized","type":"event"},{"anonymous":false,"inputs":[{"indexed":false,"internalType":"uint8","name":"version","type":"uint8"}],"name":"Initialized","type":"event"},{"anonymous":false,"inputs":[{"indexed":true,"internalType":"address","name":"who","type":"address"},{"indexed":true,"internalType":"address","name":"where","type":"address"},{"indexed":true,"internalType":"bytes4","name":"what","type":"bytes4"}],"name":"Unauthorized","type":"event"},{"inputs":[],"name":"ANYONE","outputs":[{"internalType":"address","name":"","type":"address"}],"stateMutability":"view","type":"function"},{"inputs":[],"name":"ANYWHERE","outputs":[{"internalType":"address","name":"","type":"address"}],"stateMutability":"view","type":"function"},{"inputs":[{"internalType":"address","name":"who","type":"address"},{"internalType":"address","name":"where","type":"address"},{"internalType":"bytes4","name":"what","type":"bytes4"},{"components":[{"internalType":"uint8","name":"op","type":"uint8"},{"internalType":"uint248","name":"value","type":"uint248"}],"internalType":"struct IAuthorizer.Param[]","name":"params","type":"tuple[]"}],"name":"authorize","outputs":[],"stateMutability":"nonpayable","type":"function"},{"inputs":[{"components":[{"internalType":"address","name":"where","type":"address"},{"components":[{"internalType":"address","name":"who","type":"address"},{"internalType":"bytes4","name":"what","type":"bytes4"},{"components":[{"internalType":"uint8","name":"op","type":"uint8"},{"internalType":"uint248","name":"value","type":"uint248"}],"internalType":"struct IAuthorizer.Param[]","name":"params","type":"tuple[]"}],"internalType":"struct IAuthorizer.GrantPermission[]","name":"grants","type":"tuple[]"},{"components":[{"internalType":"address","name":"who","type":"address"},{"internalType":"bytes4","name":"what","type":"bytes4"}],"internalType":"struct IAuthorizer.RevokePermission[]","name":"revokes","type":"tuple[]"}],"internalType":"struct IAuthorizer.PermissionChange[]","name":"changes","type":"tuple[]"}],"name":"changePermissions","outputs":[],"stateMutability":"nonpayable","type":"function"},{"inputs":[{"internalType":"address","name":"who","type":"address"},{"internalType":"address","name":"where","type":"address"},{"internalType":"bytes4","name":"what","type":"bytes4"}],"name":"getPermissionParams","outputs":[{"components":[{"internalType":"uint8","name":"op","type":"uint8"},{"internalType":"uint248","name":"value","type":"uint248"}],"internalType":"struct IAuthorizer.Param[]","name":"","type":"tuple[]"}],"stateMutability":"view","type":"function"},{"inputs":[{"internalType":"address","name":"who","type":"address"},{"internalType":"address","name":"where","type":"address"}],"name":"getPermissionsLength","outputs":[{"internalType":"uint256","name":"","type":"uint256"}],"stateMutability":"view","type":"function"},{"inputs":[{"internalType":"address","name":"who","type":"address"},{"internalType":"address","name":"where","type":"address"},{"internalType":"bytes4","name":"what","type":"bytes4"}],"name":"hasPermission","outputs":[{"internalType":"bool","name":"","type":"bool"}],"stateMutability":"view","type":"function"},{"inputs":[{"internalType":"address","name":"who","type":"address"},{"internalType":"address","name":"where","type":"address"}],"name":"hasPermissions","outputs":[{"internalType":"bool","name":"","type":"bool"}],"stateMutability":"view","type":"function"},{"inputs":[{"internalType":"address[]","name":"owners","type":"address[]"}],"name":"initialize","outputs":[],"stateMutability":"nonpayable","type":"function"},{"inputs":[{"internalType":"address","name":"who","type":"address"},{"internalType":"address","name":"where","type":"address"},{"internalType":"bytes4","name":"what","type":"bytes4"},{"internalType":"uint256[]","name":"how","type":"uint256[]"}],"name":"isAuthorized","outputs":[{"internalType":"bool","name":"","type":"bool"}],"stateMutability":"view","type":"function"},{"inputs":[{"internalType":"address","name":"who","type":"address"},{"internalType":"address","name":"where","type":"address"},{"internalType":"bytes4","name":"what","type":"bytes4"}],"name":"unauthorize","outputs":[],"stateMutability":"nonpayable","type":"function"}],"evm":{"bytecode":{"linkReferences":{},"object":"608060405234801561001057600080fd5b5061001961001e565b6100dd565b600054610100900460ff161561008a5760405162461bcd60e51b815260206004820152602760248201527f496e697469616c697a61626c653a20636f6e747261637420697320696e697469604482015266616c697a696e6760c81b606482015260840160405180910390fd5b60005460ff908116146100db576000805460ff191660ff9081179091556040519081527f7f26b83ff96e1f2b6a682f133852f6798a09c465da95921460cefb38474024989060200160405180910390a15b565b611d01806100ec6000396000f3fe608060405234801561001057600080fd5b50600436106100c95760003560e01c8063840510cc11610081578063ca7c51d01161005b578063ca7c51d014610217578063e8a67dad1461022a578063fd1ccc9b1461027257600080fd5b8063840510cc146101a4578063a224cee7146101e4578063b091986d146101f757600080fd5b8063261a48af116100b2578063261a48af1461017c5780632852289514610191578063405d30af146101a457600080fd5b80630eb39344146100ce57806315771845146100f4575b600080fd5b6100e16100dc3660046113a6565b610285565b6040519081526020015b60405180910390f35b61016c610102366004611409565b73ffffffffffffffffffffffffffffffffffffffff808416600090815260336020908152604080832093861683529281528282207fffffffff00000000000000000000000000000000000000000000000000000000851683526001019052205460ff169392505050565b60405190151581526020016100eb565b61018f61018a366004611409565b6102bf565b005b61016c61019f36600461153a565b61031b565b6101bf73ffffffffffffffffffffffffffffffffffffffff81565b60405173ffffffffffffffffffffffffffffffffffffffff90911681526020016100eb565b61018f6101f2366004611602565b6103c9565b61020a610205366004611409565b61069c565b6040516100eb919061169a565b61018f610225366004611862565b610789565b61016c6102383660046113a6565b73ffffffffffffffffffffffffffffffffffffffff9182166000908152603360209081526040808320939094168252919091522054151590565b61018f610280366004611ac9565b610886565b73ffffffffffffffffffffffffffffffffffffffff8083166000908152603360209081526040808320938516835292905220545b92915050565b6102c76108e4565b60006102d4848484610957565b9050610301337f261a48af0000000000000000000000000000000000000000000000000000000083610a15565b61030c848484610a64565b5061031660018055565b505050565b600061032985858585610bd6565b15610336575060016103c1565b61035673ffffffffffffffffffffffffffffffffffffffff858585610bd6565b15610363575060016103c1565b6103838573ffffffffffffffffffffffffffffffffffffffff8585610bd6565b15610390575060016103c1565b6103b073ffffffffffffffffffffffffffffffffffffffff808585610bd6565b156103bd575060016103c1565b5060005b949350505050565b600054610100900460ff16158080156103e95750600054600160ff909116105b806104035750303b158015610403575060005460ff166001145b610494576040517f08c379a000000000000000000000000000000000000000000000000000000000815260206004820152602e60248201527f496e697469616c697a61626c653a20636f6e747261637420697320616c72656160448201527f647920696e697469616c697a656400000000000000000000000000000000000060648201526084015b60405180910390fd5b600080547fffffffffffffffffffffffffffffffffffffffffffffffffffffffffffffff0016600117905580156104f257600080547fffffffffffffffffffffffffffffffffffffffffffffffffffffffffffff00ff166101001790555b6104fa610cdd565b60005b82518110156106345761059583828151811061051b5761051b611b38565b6020908102919091010151307ffd1ccc9b00000000000000000000000000000000000000000000000000000000600060405190808252806020026020018201604052801561058f57816020015b60408051808201909152600080825260208201528152602001906001900390816105685790505b50610d7e565b6106228382815181106105aa576105aa611b38565b6020908102919091010151307f261a48af00000000000000000000000000000000000000000000000000000000600060405190808252806020026020018201604052801561058f5781602001604080518082019091526000808252602082015281526020019060019003908161056857905050610d7e565b8061062c81611b96565b9150506104fd565b50801561069857600080547fffffffffffffffffffffffffffffffffffffffffffffffffffffffffffff00ff169055604051600181527f7f26b83ff96e1f2b6a682f133852f6798a09c465da95921460cefb38474024989060200160405180910390a15b5050565b73ffffffffffffffffffffffffffffffffffffffff808416600090815260336020908152604080832093861683529281528282207fffffffff00000000000000000000000000000000000000000000000000000000851683526001908101825283832001805484518184028101840190955280855260609493919290919084015b8282101561077c576000848152602090819020604080518082019091529084015460ff8116825261010090047effffffffffffffffffffffffffffffffffffffffffffffffffffffffffffff168183015282526001909201910161071d565b5050505090509392505050565b60005b81518110156106985760008282815181106107a9576107a9611b38565b6020026020010151905060005b816020015151811015610814576000826020015182815181106107db576107db611b38565b602002602001015190506108018160000151846000015183602001518460400151610886565b508061080c81611b96565b9150506107b6565b5060005b8160400151518110156108715760008260400151828151811061083d5761083d611b38565b6020026020010151905061085e8160000151846000015183602001516102bf565b508061086981611b96565b915050610818565b5050808061087e90611b96565b91505061078c565b61088e6108e4565b600061089b858585610957565b90506108c8337ffd1ccc9b0000000000000000000000000000000000000000000000000000000083610a15565b6108d485858585610d7e565b506108de60018055565b50505050565b600260015403610950576040517f08c379a000000000000000000000000000000000000000000000000000000000815260206004820152601f60248201527f5265656e7472616e637947756172643a207265656e7472616e742063616c6c00604482015260640161048b565b6002600155565b604080516003808252608082019092526060916020820183803683370190505090508373ffffffffffffffffffffffffffffffffffffffff16816000815181106109a3576109a3611b38565b6020026020010181815250508273ffffffffffffffffffffffffffffffffffffffff16816001815181106109d9576109d9611b38565b6020026020010181815250508160e01c63ffffffff1681600281518110610a0257610a02611b38565b6020026020010181815250509392505050565b6000610a238430858561031b565b9050806108de57833084846040517f61174e8800000000000000000000000000000000000000000000000000000000815260040161048b9493929190611bce565b73ffffffffffffffffffffffffffffffffffffffff808416600090815260336020908152604080832093861683529281528282207fffffffff000000000000000000000000000000000000000000000000000000008516835260018101909152919020805460ff1615610ae5578154826000610adf83611c67565b91905055505b7fffffffff000000000000000000000000000000000000000000000000000000008316600090815260018084016020526040822080547fffffffffffffffffffffffffffffffffffffffffffffffffffffffffffffff001681559190610b4d90830182611343565b5050827bffffffffffffffffffffffffffffffffffffffffffffffffffffffff19168473ffffffffffffffffffffffffffffffffffffffff168673ffffffffffffffffffffffffffffffffffffffff167fa8095e01dcc1c206b8b64f0bcaf4fee219b0ee0bd623ea32f9876e19600cdb6360405160405180910390a45050505050565b60018055565b73ffffffffffffffffffffffffffffffffffffffff808516600090815260336020908152604080832093871683529281528282207fffffffff00000000000000000000000000000000000000000000000000000000861683526001019052908120805460ff168015610cd35750610cd381600101805480602002602001604051908101604052809291908181526020016000905b82821015610cc9576000848152602090819020604080518082019091529084015460ff8116825261010090047effffffffffffffffffffffffffffffffffffffffffffffffffffffffffffff1681830152825260019092019101610c6a565b5050505084610f4a565b9695505050505050565b600054610100900460ff16610d74576040517f08c379a000000000000000000000000000000000000000000000000000000000815260206004820152602b60248201527f496e697469616c697a61626c653a20636f6e7472616374206973206e6f74206960448201527f6e697469616c697a696e67000000000000000000000000000000000000000000606482015260840161048b565b610d7c611010565b565b73ffffffffffffffffffffffffffffffffffffffff808516600090815260336020908152604080832093871683529281528282207fffffffff000000000000000000000000000000000000000000000000000000008616835260018101909152919020805460ff16610dfe578154826000610df883611b96565b91905055505b80547fffffffffffffffffffffffffffffffffffffffffffffffffffffffffffffff001660019081178255610e369082016000611343565b60005b8351811015610ebc5781600101848281518110610e5857610e58611b38565b6020908102919091018101518254600181018455600093845292829020815191909201517effffffffffffffffffffffffffffffffffffffffffffffffffffffffffffff166101000260ff9091161791015580610eb481611b96565b915050610e39565b50837bffffffffffffffffffffffffffffffffffffffffffffffffffffffff19168573ffffffffffffffffffffffffffffffffffffffff168773ffffffffffffffffffffffffffffffffffffffff167fa4e3ad0d161589a3d7d368c479c5c4bd9d753ea8f4865b26801b7e9823235ff586604051610f3a919061169a565b60405180910390a4505050505050565b6000805b8351811015611006576000848281518110610f6b57610f6b611b38565b60200260200101519050835182108015610fa55750610fa381858481518110610f9657610f96611b38565b60200260200101516110a7565b155b80610fe3575083518210158015610fe357506000815160ff166006811115610fcf57610fcf611c9c565b6006811115610fe057610fe0611c9c565b14155b15610ff3576000925050506102b9565b5080610ffe81611b96565b915050610f4e565b5060019392505050565b600054610100900460ff16610bd0576040517f08c379a000000000000000000000000000000000000000000000000000000000815260206004820152602b60248201527f496e697469616c697a61626c653a20636f6e7472616374206973206e6f74206960448201527f6e697469616c697a696e67000000000000000000000000000000000000000000606482015260840161048b565b600080835160ff1660068111156110c0576110c0611c9c565b60068111156110d1576110d1611c9c565b036110de575060016102b9565b6001835160ff1660068111156110f6576110f6611c9c565b600681111561110757611107611c9c565b0361113a575060208201517effffffffffffffffffffffffffffffffffffffffffffffffffffffffffffff1681146102b9565b6002835160ff16600681111561115257611152611c9c565b600681111561116357611163611c9c565b03611197575060208201517effffffffffffffffffffffffffffffffffffffffffffffffffffffffffffff168114156102b9565b6003835160ff1660068111156111af576111af611c9c565b60068111156111c0576111c0611c9c565b036111f3575060208201517effffffffffffffffffffffffffffffffffffffffffffffffffffffffffffff1681116102b9565b6004835160ff16600681111561120b5761120b611c9c565b600681111561121c5761121c611c9c565b0361124f575060208201517effffffffffffffffffffffffffffffffffffffffffffffffffffffffffffff1681106102b9565b6005835160ff16600681111561126757611267611c9c565b600681111561127857611278611c9c565b036112ac575060208201517effffffffffffffffffffffffffffffffffffffffffffffffffffffffffffff168110156102b9565b6006835160ff1660068111156112c4576112c4611c9c565b60068111156112d5576112d5611c9c565b03611309575060208201517effffffffffffffffffffffffffffffffffffffffffffffffffffffffffffff168111156102b9565b82516040517f69f2cbf500000000000000000000000000000000000000000000000000000000815260ff909116600482015260240161048b565b50805460008255906000526020600020908101906113619190611364565b50565b5b808211156113795760008155600101611365565b5090565b803573ffffffffffffffffffffffffffffffffffffffff811681146113a157600080fd5b919050565b600080604083850312156113b957600080fd5b6113c28361137d565b91506113d06020840161137d565b90509250929050565b80357fffffffff00000000000000000000000000000000000000000000000000000000811681146113a157600080fd5b60008060006060848603121561141e57600080fd5b6114278461137d565b92506114356020850161137d565b9150611443604085016113d9565b90509250925092565b7f4e487b7100000000000000000000000000000000000000000000000000000000600052604160045260246000fd5b6040805190810167ffffffffffffffff8111828210171561149e5761149e61144c565b60405290565b6040516060810167ffffffffffffffff8111828210171561149e5761149e61144c565b604051601f82017fffffffffffffffffffffffffffffffffffffffffffffffffffffffffffffffe016810167ffffffffffffffff8111828210171561150e5761150e61144c565b604052919050565b600067ffffffffffffffff8211156115305761153061144c565b5060051b60200190565b6000806000806080858703121561155057600080fd5b6115598561137d565b9350602061156881870161137d565b9350611576604087016113d9565b9250606086013567ffffffffffffffff81111561159257600080fd5b8601601f810188136115a357600080fd5b80356115b66115b182611516565b6114c7565b81815260059190911b8201830190838101908a8311156115d557600080fd5b928401925b828410156115f3578335825292840192908401906115da565b979a9699509497505050505050565b6000602080838503121561161557600080fd5b823567ffffffffffffffff81111561162c57600080fd5b8301601f8101851361163d57600080fd5b803561164b6115b182611516565b81815260059190911b8201830190838101908783111561166a57600080fd5b928401925b8284101561168f576116808461137d565b8252928401929084019061166f565b979650505050505050565b602080825282518282018190526000919060409081850190868401855b82811015611700578151805160ff1685528601517effffffffffffffffffffffffffffffffffffffffffffffffffffffffffffff168685015292840192908501906001016116b7565b5091979650505050505050565b600082601f83011261171e57600080fd5b8135602061172e6115b183611516565b82815260069290921b8401810191818101908684111561174d57600080fd5b8286015b848110156117ca576040818903121561176a5760008081fd5b61177261147b565b813560ff811681146117845760008081fd5b8152818501357effffffffffffffffffffffffffffffffffffffffffffffffffffffffffffff811681146117b85760008081fd5b81860152835291830191604001611751565b509695505050505050565b600082601f8301126117e657600080fd5b813560206117f66115b183611516565b82815260069290921b8401810191818101908684111561181557600080fd5b8286015b848110156117ca57604081890312156118325760008081fd5b61183a61147b565b6118438261137d565b81526118508583016113d9565b81860152835291830191604001611819565b60006020828403121561187457600080fd5b67ffffffffffffffff8235111561188a57600080fd5b8135820183601f82011261189d57600080fd5b6118aa6115b18235611516565b81358082526020808301929160051b8401018610156118c857600080fd5b602083015b6020843560051b850101811015611abf5767ffffffffffffffff813511156118f457600080fd5b8035840160607fffffffffffffffffffffffffffffffffffffffffffffffffffffffffffffffe0828a0301121561192a57600080fd5b6119326114a4565b61193e6020830161137d565b815267ffffffffffffffff6040830135111561195957600080fd5b6040820135820189603f82011261196f57600080fd5b61197f6115b16020830135611516565b602082810135808352908201919060051b83016040018c10156119a157600080fd5b604083015b6040602085013560051b850101811015611a775767ffffffffffffffff813511156119d057600080fd5b60607fffffffffffffffffffffffffffffffffffffffffffffffffffffffffffffffc0823586018f03011215611a0557600080fd5b611a0d6114a4565b611a1c6040833587010161137d565b8152611a2d606083358701016113d9565b602082015267ffffffffffffffff60808335870101351115611a4e57600080fd5b611a648e8335870160808101350160400161170d565b60408201528352602092830192016119a6565b506020840152505067ffffffffffffffff60608301351115611a9857600080fd5b611aab89602060608501358501016117d5565b6040820152845250602092830192016118cd565b5095945050505050565b60008060008060808587031215611adf57600080fd5b611ae88561137d565b9350611af66020860161137d565b9250611b04604086016113d9565b9150606085013567ffffffffffffffff811115611b2057600080fd5b611b2c8782880161170d565b91505092959194509250565b7f4e487b7100000000000000000000000000000000000000000000000000000000600052603260045260246000fd5b7f4e487b7100000000000000000000000000000000000000000000000000000000600052601160045260246000fd5b60007fffffffffffffffffffffffffffffffffffffffffffffffffffffffffffffffff8203611bc757611bc7611b67565b5060010190565b60006080820173ffffffffffffffffffffffffffffffffffffffff80881684526020818816818601527fffffffff000000000000000000000000000000000000000000000000000000008716604086015260806060860152829150855180845260a086019250818701935060005b81811015611c5857845184529382019392820192600101611c3c565b50919998505050505050505050565b600081611c7657611c76611b67565b507fffffffffffffffffffffffffffffffffffffffffffffffffffffffffffffffff0190565b7f4e487b7100000000000000000000000000000000000000000000000000000000600052602160045260246000fdfea264697066735822122010f73222ea0d815cb6e46c1aaef2b993a8da022a3742cc1de1bffc7ef5b3390964736f6c63430008110033","opcodes":"PUSH1 0x80 PUSH1 0x40 MSTORE CALLVALUE DUP1 ISZERO PUSH2 0x10 JUMPI PUSH1 0x0 DUP1 REVERT JUMPDEST POP PUSH2 0x19 PUSH2 0x1E JUMP JUMPDEST PUSH2 0xDD JUMP JUMPDEST PUSH1 0x0 SLOAD PUSH2 0x100 SWAP1 DIV PUSH1 0xFF AND ISZERO PUSH2 0x8A JUMPI PUSH1 0x40 MLOAD PUSH3 0x461BCD PUSH1 0xE5 SHL DUP2 MSTORE PUSH1 0x20 PUSH1 0x4 DUP3 ADD MSTORE PUSH1 0x27 PUSH1 0x24 DUP3 ADD MSTORE PUSH32 0x496E697469616C697A61626C653A20636F6E747261637420697320696E697469 PUSH1 0x44 DUP3 ADD MSTORE PUSH7 0x616C697A696E67 PUSH1 0xC8 SHL PUSH1 0x64 DUP3 ADD MSTORE PUSH1 0x84 ADD PUSH1 0x40 MLOAD DUP1 SWAP2 SUB SWAP1 REVERT JUMPDEST PUSH1 0x0 SLOAD PUSH1 0xFF SWAP1 DUP2 AND EQ PUSH2 0xDB JUMPI PUSH1 0x0 DUP1 SLOAD PUSH1 0xFF NOT AND PUSH1 0xFF SWAP1 DUP2 OR SWAP1 SWAP2 SSTORE PUSH1 0x40 MLOAD SWAP1 DUP2 MSTORE PUSH32 0x7F26B83FF96E1F2B6A682F133852F6798A09C465DA95921460CEFB3847402498 SWAP1 PUSH1 0x20 ADD PUSH1 0x40 MLOAD DUP1 SWAP2 SUB SWAP1 LOG1 JUMPDEST JUMP JUMPDEST PUSH2 0x1D01 DUP1 PUSH2 0xEC PUSH1 0x0 CODECOPY PUSH1 0x0 RETURN INVALID PUSH1 0x80 PUSH1 0x40 MSTORE CALLVALUE DUP1 ISZERO PUSH2 0x10 JUMPI PUSH1 0x0 DUP1 REVERT JUMPDEST POP PUSH1 0x4 CALLDATASIZE LT PUSH2 0xC9 JUMPI PUSH1 0x0 CALLDATALOAD PUSH1 0xE0 SHR DUP1 PUSH4 0x840510CC GT PUSH2 0x81 JUMPI DUP1 PUSH4 0xCA7C51D0 GT PUSH2 0x5B JUMPI DUP1 PUSH4 0xCA7C51D0 EQ PUSH2 0x217 JUMPI DUP1 PUSH4 0xE8A67DAD EQ PUSH2 0x22A JUMPI DUP1 PUSH4 0xFD1CCC9B EQ PUSH2 0x272 JUMPI PUSH1 0x0 DUP1 REVERT JUMPDEST DUP1 PUSH4 0x840510CC EQ PUSH2 0x1A4 JUMPI DUP1 PUSH4 0xA224CEE7 EQ PUSH2 0x1E4 JUMPI DUP1 PUSH4 0xB091986D EQ PUSH2 0x1F7 JUMPI PUSH1 0x0 DUP1 REVERT JUMPDEST DUP1 PUSH4 0x261A48AF GT PUSH2 0xB2 JUMPI DUP1 PUSH4 0x261A48AF EQ PUSH2 0x17C JUMPI DUP1 PUSH4 0x28522895 EQ PUSH2 0x191 JUMPI DUP1 PUSH4 0x405D30AF EQ PUSH2 0x1A4 JUMPI PUSH1 0x0 DUP1 REVERT JUMPDEST DUP1 PUSH4 0xEB39344 EQ PUSH2 0xCE JUMPI DUP1 PUSH4 0x15771845 EQ PUSH2 0xF4 JUMPI JUMPDEST PUSH1 0x0 DUP1 REVERT JUMPDEST PUSH2 0xE1 PUSH2 0xDC CALLDATASIZE PUSH1 0x4 PUSH2 0x13A6 JUMP JUMPDEST PUSH2 0x285 JUMP JUMPDEST PUSH1 0x40 MLOAD SWAP1 DUP2 MSTORE PUSH1 0x20 ADD JUMPDEST PUSH1 0x40 MLOAD DUP1 SWAP2 SUB SWAP1 RETURN JUMPDEST PUSH2 0x16C PUSH2 0x102 CALLDATASIZE PUSH1 0x4 PUSH2 0x1409 JUMP JUMPDEST PUSH20 0xFFFFFFFFFFFFFFFFFFFFFFFFFFFFFFFFFFFFFFFF DUP1 DUP5 AND PUSH1 0x0 SWAP1 DUP2 MSTORE PUSH1 0x33 PUSH1 0x20 SWAP1 DUP2 MSTORE PUSH1 0x40 DUP1 DUP4 KECCAK256 SWAP4 DUP7 AND DUP4 MSTORE SWAP3 DUP2 MSTORE DUP3 DUP3 KECCAK256 PUSH32 0xFFFFFFFF00000000000000000000000000000000000000000000000000000000 DUP6 AND DUP4 MSTORE PUSH1 0x1 ADD SWAP1 MSTORE KECCAK256 SLOAD PUSH1 0xFF AND SWAP4 SWAP3 POP POP POP JUMP JUMPDEST PUSH1 0x40 MLOAD SWAP1 ISZERO ISZERO DUP2 MSTORE PUSH1 0x20 ADD PUSH2 0xEB JUMP JUMPDEST PUSH2 0x18F PUSH2 0x18A CALLDATASIZE PUSH1 0x4 PUSH2 0x1409 JUMP JUMPDEST PUSH2 0x2BF JUMP JUMPDEST STOP JUMPDEST PUSH2 0x16C PUSH2 0x19F CALLDATASIZE PUSH1 0x4 PUSH2 0x153A JUMP JUMPDEST PUSH2 0x31B JUMP JUMPDEST PUSH2 0x1BF PUSH20 0xFFFFFFFFFFFFFFFFFFFFFFFFFFFFFFFFFFFFFFFF DUP2 JUMP JUMPDEST PUSH1 0x40 MLOAD PUSH20 0xFFFFFFFFFFFFFFFFFFFFFFFFFFFFFFFFFFFFFFFF SWAP1 SWAP2 AND DUP2 MSTORE PUSH1 0x20 ADD PUSH2 0xEB JUMP JUMPDEST PUSH2 0x18F PUSH2 0x1F2 CALLDATASIZE PUSH1 0x4 PUSH2 0x1602 JUMP JUMPDEST PUSH2 0x3C9 JUMP JUMPDEST PUSH2 0x20A PUSH2 0x205 CALLDATASIZE PUSH1 0x4 PUSH2 0x1409 JUMP JUMPDEST PUSH2 0x69C JUMP JUMPDEST PUSH1 0x40 MLOAD PUSH2 0xEB SWAP2 SWAP1 PUSH2 0x169A JUMP JUMPDEST PUSH2 0x18F PUSH2 0x225 CALLDATASIZE PUSH1 0x4 PUSH2 0x1862 JUMP JUMPDEST PUSH2 0x789 JUMP JUMPDEST PUSH2 0x16C PUSH2 0x238 CALLDATASIZE PUSH1 0x4 PUSH2 0x13A6 JUMP JUMPDEST PUSH20 0xFFFFFFFFFFFFFFFFFFFFFFFFFFFFFFFFFFFFFFFF SWAP2 DUP3 AND PUSH1 0x0 SWAP1 DUP2 MSTORE PUSH1 0x33 PUSH1 0x20 SWAP1 DUP2 MSTORE PUSH1 0x40 DUP1 DUP4 KECCAK256 SWAP4 SWAP1 SWAP5 AND DUP3 MSTORE SWAP2 SWAP1 SWAP2 MSTORE KECCAK256 SLOAD ISZERO ISZERO SWAP1 JUMP JUMPDEST PUSH2 0x18F PUSH2 0x280 CALLDATASIZE PUSH1 0x4 PUSH2 0x1AC9 JUMP JUMPDEST PUSH2 0x886 JUMP JUMPDEST PUSH20 0xFFFFFFFFFFFFFFFFFFFFFFFFFFFFFFFFFFFFFFFF DUP1 DUP4 AND PUSH1 0x0 SWAP1 DUP2 MSTORE PUSH1 0x33 PUSH1 0x20 SWAP1 DUP2 MSTORE PUSH1 0x40 DUP1 DUP4 KECCAK256 SWAP4 DUP6 AND DUP4 MSTORE SWAP3 SWAP1 MSTORE KECCAK256 SLOAD JUMPDEST SWAP3 SWAP2 POP POP JUMP JUMPDEST PUSH2 0x2C7 PUSH2 0x8E4 JUMP JUMPDEST PUSH1 0x0 PUSH2 0x2D4 DUP5 DUP5 DUP5 PUSH2 0x957 JUMP JUMPDEST SWAP1 POP PUSH2 0x301 CALLER PUSH32 0x261A48AF00000000000000000000000000000000000000000000000000000000 DUP4 PUSH2 0xA15 JUMP JUMPDEST PUSH2 0x30C DUP5 DUP5 DUP5 PUSH2 0xA64 JUMP JUMPDEST POP PUSH2 0x316 PUSH1 0x1 DUP1 SSTORE JUMP JUMPDEST POP POP POP JUMP JUMPDEST PUSH1 0x0 PUSH2 0x329 DUP6 DUP6 DUP6 DUP6 PUSH2 0xBD6 JUMP JUMPDEST ISZERO PUSH2 0x336 JUMPI POP PUSH1 0x1 PUSH2 0x3C1 JUMP JUMPDEST PUSH2 0x356 PUSH20 0xFFFFFFFFFFFFFFFFFFFFFFFFFFFFFFFFFFFFFFFF DUP6 DUP6 DUP6 PUSH2 0xBD6 JUMP JUMPDEST ISZERO PUSH2 0x363 JUMPI POP PUSH1 0x1 PUSH2 0x3C1 JUMP JUMPDEST PUSH2 0x383 DUP6 PUSH20 0xFFFFFFFFFFFFFFFFFFFFFFFFFFFFFFFFFFFFFFFF DUP6 DUP6 PUSH2 0xBD6 JUMP JUMPDEST ISZERO PUSH2 0x390 JUMPI POP PUSH1 0x1 PUSH2 0x3C1 JUMP JUMPDEST PUSH2 0x3B0 PUSH20 0xFFFFFFFFFFFFFFFFFFFFFFFFFFFFFFFFFFFFFFFF DUP1 DUP6 DUP6 PUSH2 0xBD6 JUMP JUMPDEST ISZERO PUSH2 0x3BD JUMPI POP PUSH1 0x1 PUSH2 0x3C1 JUMP JUMPDEST POP PUSH1 0x0 JUMPDEST SWAP5 SWAP4 POP POP POP POP JUMP JUMPDEST PUSH1 0x0 SLOAD PUSH2 0x100 SWAP1 DIV PUSH1 0xFF AND ISZERO DUP1 DUP1 ISZERO PUSH2 0x3E9 JUMPI POP PUSH1 0x0 SLOAD PUSH1 0x1 PUSH1 0xFF SWAP1 SWAP2 AND LT JUMPDEST DUP1 PUSH2 0x403 JUMPI POP ADDRESS EXTCODESIZE ISZERO DUP1 ISZERO PUSH2 0x403 JUMPI POP PUSH1 0x0 SLOAD PUSH1 0xFF AND PUSH1 0x1 EQ JUMPDEST PUSH2 0x494 JUMPI PUSH1 0x40 MLOAD PUSH32 0x8C379A000000000000000000000000000000000000000000000000000000000 DUP2 MSTORE PUSH1 0x20 PUSH1 0x4 DUP3 ADD MSTORE PUSH1 0x2E PUSH1 0x24 DUP3 ADD MSTORE PUSH32 0x496E697469616C697A61626C653A20636F6E747261637420697320616C726561 PUSH1 0x44 DUP3 ADD MSTORE PUSH32 0x647920696E697469616C697A6564000000000000000000000000000000000000 PUSH1 0x64 DUP3 ADD MSTORE PUSH1 0x84 ADD JUMPDEST PUSH1 0x40 MLOAD DUP1 SWAP2 SUB SWAP1 REVERT JUMPDEST PUSH1 0x0 DUP1 SLOAD PUSH32 0xFFFFFFFFFFFFFFFFFFFFFFFFFFFFFFFFFFFFFFFFFFFFFFFFFFFFFFFFFFFFFF00 AND PUSH1 0x1 OR SWAP1 SSTORE DUP1 ISZERO PUSH2 0x4F2 JUMPI PUSH1 0x0 DUP1 SLOAD PUSH32 0xFFFFFFFFFFFFFFFFFFFFFFFFFFFFFFFFFFFFFFFFFFFFFFFFFFFFFFFFFFFF00FF AND PUSH2 0x100 OR SWAP1 SSTORE JUMPDEST PUSH2 0x4FA PUSH2 0xCDD JUMP JUMPDEST PUSH1 0x0 JUMPDEST DUP3 MLOAD DUP2 LT ISZERO PUSH2 0x634 JUMPI PUSH2 0x595 DUP4 DUP3 DUP2 MLOAD DUP2 LT PUSH2 0x51B JUMPI PUSH2 0x51B PUSH2 0x1B38 JUMP JUMPDEST PUSH1 0x20 SWAP1 DUP2 MUL SWAP2 SWAP1 SWAP2 ADD ADD MLOAD ADDRESS PUSH32 0xFD1CCC9B00000000000000000000000000000000000000000000000000000000 PUSH1 0x0 PUSH1 0x40 MLOAD SWAP1 DUP1 DUP3 MSTORE DUP1 PUSH1 0x20 MUL PUSH1 0x20 ADD DUP3 ADD PUSH1 0x40 MSTORE DUP1 ISZERO PUSH2 0x58F JUMPI DUP2 PUSH1 0x20 ADD JUMPDEST PUSH1 0x40 DUP1 MLOAD DUP1 DUP3 ADD SWAP1 SWAP2 MSTORE PUSH1 0x0 DUP1 DUP3 MSTORE PUSH1 0x20 DUP3 ADD MSTORE DUP2 MSTORE PUSH1 0x20 ADD SWAP1 PUSH1 0x1 SWAP1 SUB SWAP1 DUP2 PUSH2 0x568 JUMPI SWAP1 POP JUMPDEST POP PUSH2 0xD7E JUMP JUMPDEST PUSH2 0x622 DUP4 DUP3 DUP2 MLOAD DUP2 LT PUSH2 0x5AA JUMPI PUSH2 0x5AA PUSH2 0x1B38 JUMP JUMPDEST PUSH1 0x20 SWAP1 DUP2 MUL SWAP2 SWAP1 SWAP2 ADD ADD MLOAD ADDRESS PUSH32 0x261A48AF00000000000000000000000000000000000000000000000000000000 PUSH1 0x0 PUSH1 0x40 MLOAD SWAP1 DUP1 DUP3 MSTORE DUP1 PUSH1 0x20 MUL PUSH1 0x20 ADD DUP3 ADD PUSH1 0x40 MSTORE DUP1 ISZERO PUSH2 0x58F JUMPI DUP2 PUSH1 0x20 ADD PUSH1 0x40 DUP1 MLOAD DUP1 DUP3 ADD SWAP1 SWAP2 MSTORE PUSH1 0x0 DUP1 DUP3 MSTORE PUSH1 0x20 DUP3 ADD MSTORE DUP2 MSTORE PUSH1 0x20 ADD SWAP1 PUSH1 0x1 SWAP1 SUB SWAP1 DUP2 PUSH2 0x568 JUMPI SWAP1 POP POP PUSH2 0xD7E JUMP JUMPDEST DUP1 PUSH2 0x62C DUP2 PUSH2 0x1B96 JUMP JUMPDEST SWAP2 POP POP PUSH2 0x4FD JUMP JUMPDEST POP DUP1 ISZERO PUSH2 0x698 JUMPI PUSH1 0x0 DUP1 SLOAD PUSH32 0xFFFFFFFFFFFFFFFFFFFFFFFFFFFFFFFFFFFFFFFFFFFFFFFFFFFFFFFFFFFF00FF AND SWAP1 SSTORE PUSH1 0x40 MLOAD PUSH1 0x1 DUP2 MSTORE PUSH32 0x7F26B83FF96E1F2B6A682F133852F6798A09C465DA95921460CEFB3847402498 SWAP1 PUSH1 0x20 ADD PUSH1 0x40 MLOAD DUP1 SWAP2 SUB SWAP1 LOG1 JUMPDEST POP POP JUMP JUMPDEST PUSH20 0xFFFFFFFFFFFFFFFFFFFFFFFFFFFFFFFFFFFFFFFF DUP1 DUP5 AND PUSH1 0x0 SWAP1 DUP2 MSTORE PUSH1 0x33 PUSH1 0x20 SWAP1 DUP2 MSTORE PUSH1 0x40 DUP1 DUP4 KECCAK256 SWAP4 DUP7 AND DUP4 MSTORE SWAP3 DUP2 MSTORE DUP3 DUP3 KECCAK256 PUSH32 0xFFFFFFFF00000000000000000000000000000000000000000000000000000000 DUP6 AND DUP4 MSTORE PUSH1 0x1 SWAP1 DUP2 ADD DUP3 MSTORE DUP4 DUP4 KECCAK256 ADD DUP1 SLOAD DUP5 MLOAD DUP2 DUP5 MUL DUP2 ADD DUP5 ADD SWAP1 SWAP6 MSTORE DUP1 DUP6 MSTORE PUSH1 0x60 SWAP5 SWAP4 SWAP2 SWAP3 SWAP1 SWAP2 SWAP1 DUP5 ADD JUMPDEST DUP3 DUP3 LT ISZERO PUSH2 0x77C JUMPI PUSH1 0x0 DUP5 DUP2 MSTORE PUSH1 0x20 SWAP1 DUP2 SWAP1 KECCAK256 PUSH1 0x40 DUP1 MLOAD DUP1 DUP3 ADD SWAP1 SWAP2 MSTORE SWAP1 DUP5 ADD SLOAD PUSH1 0xFF DUP2 AND DUP3 MSTORE PUSH2 0x100 SWAP1 DIV PUSH31 0xFFFFFFFFFFFFFFFFFFFFFFFFFFFFFFFFFFFFFFFFFFFFFFFFFFFFFFFFFFFFFF AND DUP2 DUP4 ADD MSTORE DUP3 MSTORE PUSH1 0x1 SWAP1 SWAP3 ADD SWAP2 ADD PUSH2 0x71D JUMP JUMPDEST POP POP POP POP SWAP1 POP SWAP4 SWAP3 POP POP POP JUMP JUMPDEST PUSH1 0x0 JUMPDEST DUP2 MLOAD DUP2 LT ISZERO PUSH2 0x698 JUMPI PUSH1 0x0 DUP3 DUP3 DUP2 MLOAD DUP2 LT PUSH2 0x7A9 JUMPI PUSH2 0x7A9 PUSH2 0x1B38 JUMP JUMPDEST PUSH1 0x20 MUL PUSH1 0x20 ADD ADD MLOAD SWAP1 POP PUSH1 0x0 JUMPDEST DUP2 PUSH1 0x20 ADD MLOAD MLOAD DUP2 LT ISZERO PUSH2 0x814 JUMPI PUSH1 0x0 DUP3 PUSH1 0x20 ADD MLOAD DUP3 DUP2 MLOAD DUP2 LT PUSH2 0x7DB JUMPI PUSH2 0x7DB PUSH2 0x1B38 JUMP JUMPDEST PUSH1 0x20 MUL PUSH1 0x20 ADD ADD MLOAD SWAP1 POP PUSH2 0x801 DUP2 PUSH1 0x0 ADD MLOAD DUP5 PUSH1 0x0 ADD MLOAD DUP4 PUSH1 0x20 ADD MLOAD DUP5 PUSH1 0x40 ADD MLOAD PUSH2 0x886 JUMP JUMPDEST POP DUP1 PUSH2 0x80C DUP2 PUSH2 0x1B96 JUMP JUMPDEST SWAP2 POP POP PUSH2 0x7B6 JUMP JUMPDEST POP PUSH1 0x0 JUMPDEST DUP2 PUSH1 0x40 ADD MLOAD MLOAD DUP2 LT ISZERO PUSH2 0x871 JUMPI PUSH1 0x0 DUP3 PUSH1 0x40 ADD MLOAD DUP3 DUP2 MLOAD DUP2 LT PUSH2 0x83D JUMPI PUSH2 0x83D PUSH2 0x1B38 JUMP JUMPDEST PUSH1 0x20 MUL PUSH1 0x20 ADD ADD MLOAD SWAP1 POP PUSH2 0x85E DUP2 PUSH1 0x0 ADD MLOAD DUP5 PUSH1 0x0 ADD MLOAD DUP4 PUSH1 0x20 ADD MLOAD PUSH2 0x2BF JUMP JUMPDEST POP DUP1 PUSH2 0x869 DUP2 PUSH2 0x1B96 JUMP JUMPDEST SWAP2 POP POP PUSH2 0x818 JUMP JUMPDEST POP POP DUP1 DUP1 PUSH2 0x87E SWAP1 PUSH2 0x1B96 JUMP JUMPDEST SWAP2 POP POP PUSH2 0x78C JUMP JUMPDEST PUSH2 0x88E PUSH2 0x8E4 JUMP JUMPDEST PUSH1 0x0 PUSH2 0x89B DUP6 DUP6 DUP6 PUSH2 0x957 JUMP JUMPDEST SWAP1 POP PUSH2 0x8C8 CALLER PUSH32 0xFD1CCC9B00000000000000000000000000000000000000000000000000000000 DUP4 PUSH2 0xA15 JUMP JUMPDEST PUSH2 0x8D4 DUP6 DUP6 DUP6 DUP6 PUSH2 0xD7E JUMP JUMPDEST POP PUSH2 0x8DE PUSH1 0x1 DUP1 SSTORE JUMP JUMPDEST POP POP POP POP JUMP JUMPDEST PUSH1 0x2 PUSH1 0x1 SLOAD SUB PUSH2 0x950 JUMPI PUSH1 0x40 MLOAD PUSH32 0x8C379A000000000000000000000000000000000000000000000000000000000 DUP2 MSTORE PUSH1 0x20 PUSH1 0x4 DUP3 ADD MSTORE PUSH1 0x1F PUSH1 0x24 DUP3 ADD MSTORE PUSH32 0x5265656E7472616E637947756172643A207265656E7472616E742063616C6C00 PUSH1 0x44 DUP3 ADD MSTORE PUSH1 0x64 ADD PUSH2 0x48B JUMP JUMPDEST PUSH1 0x2 PUSH1 0x1 SSTORE JUMP JUMPDEST PUSH1 0x40 DUP1 MLOAD PUSH1 0x3 DUP1 DUP3 MSTORE PUSH1 0x80 DUP3 ADD SWAP1 SWAP3 MSTORE PUSH1 0x60 SWAP2 PUSH1 0x20 DUP3 ADD DUP4 DUP1 CALLDATASIZE DUP4 CALLDATACOPY ADD SWAP1 POP POP SWAP1 POP DUP4 PUSH20 0xFFFFFFFFFFFFFFFFFFFFFFFFFFFFFFFFFFFFFFFF AND DUP2 PUSH1 0x0 DUP2 MLOAD DUP2 LT PUSH2 0x9A3 JUMPI PUSH2 0x9A3 PUSH2 0x1B38 JUMP JUMPDEST PUSH1 0x20 MUL PUSH1 0x20 ADD ADD DUP2 DUP2 MSTORE POP POP DUP3 PUSH20 0xFFFFFFFFFFFFFFFFFFFFFFFFFFFFFFFFFFFFFFFF AND DUP2 PUSH1 0x1 DUP2 MLOAD DUP2 LT PUSH2 0x9D9 JUMPI PUSH2 0x9D9 PUSH2 0x1B38 JUMP JUMPDEST PUSH1 0x20 MUL PUSH1 0x20 ADD ADD DUP2 DUP2 MSTORE POP POP DUP2 PUSH1 0xE0 SHR PUSH4 0xFFFFFFFF AND DUP2 PUSH1 0x2 DUP2 MLOAD DUP2 LT PUSH2 0xA02 JUMPI PUSH2 0xA02 PUSH2 0x1B38 JUMP JUMPDEST PUSH1 0x20 MUL PUSH1 0x20 ADD ADD DUP2 DUP2 MSTORE POP POP SWAP4 SWAP3 POP POP POP JUMP JUMPDEST PUSH1 0x0 PUSH2 0xA23 DUP5 ADDRESS DUP6 DUP6 PUSH2 0x31B JUMP JUMPDEST SWAP1 POP DUP1 PUSH2 0x8DE JUMPI DUP4 ADDRESS DUP5 DUP5 PUSH1 0x40 MLOAD PUSH32 0x61174E8800000000000000000000000000000000000000000000000000000000 DUP2 MSTORE PUSH1 0x4 ADD PUSH2 0x48B SWAP5 SWAP4 SWAP3 SWAP2 SWAP1 PUSH2 0x1BCE JUMP JUMPDEST PUSH20 0xFFFFFFFFFFFFFFFFFFFFFFFFFFFFFFFFFFFFFFFF DUP1 DUP5 AND PUSH1 0x0 SWAP1 DUP2 MSTORE PUSH1 0x33 PUSH1 0x20 SWAP1 DUP2 MSTORE PUSH1 0x40 DUP1 DUP4 KECCAK256 SWAP4 DUP7 AND DUP4 MSTORE SWAP3 DUP2 MSTORE DUP3 DUP3 KECCAK256 PUSH32 0xFFFFFFFF00000000000000000000000000000000000000000000000000000000 DUP6 AND DUP4 MSTORE PUSH1 0x1 DUP2 ADD SWAP1 SWAP2 MSTORE SWAP2 SWAP1 KECCAK256 DUP1 SLOAD PUSH1 0xFF AND ISZERO PUSH2 0xAE5 JUMPI DUP2 SLOAD DUP3 PUSH1 0x0 PUSH2 0xADF DUP4 PUSH2 0x1C67 JUMP JUMPDEST SWAP2 SWAP1 POP SSTORE POP JUMPDEST PUSH32 0xFFFFFFFF00000000000000000000000000000000000000000000000000000000 DUP4 AND PUSH1 0x0 SWAP1 DUP2 MSTORE PUSH1 0x1 DUP1 DUP5 ADD PUSH1 0x20 MSTORE PUSH1 0x40 DUP3 KECCAK256 DUP1 SLOAD PUSH32 0xFFFFFFFFFFFFFFFFFFFFFFFFFFFFFFFFFFFFFFFFFFFFFFFFFFFFFFFFFFFFFF00 AND DUP2 SSTORE SWAP2 SWAP1 PUSH2 0xB4D SWAP1 DUP4 ADD DUP3 PUSH2 0x1343 JUMP JUMPDEST POP POP DUP3 PUSH28 0xFFFFFFFFFFFFFFFFFFFFFFFFFFFFFFFFFFFFFFFFFFFFFFFFFFFFFFFF NOT AND DUP5 PUSH20 0xFFFFFFFFFFFFFFFFFFFFFFFFFFFFFFFFFFFFFFFF AND DUP7 PUSH20 0xFFFFFFFFFFFFFFFFFFFFFFFFFFFFFFFFFFFFFFFF AND PUSH32 0xA8095E01DCC1C206B8B64F0BCAF4FEE219B0EE0BD623EA32F9876E19600CDB63 PUSH1 0x40 MLOAD PUSH1 0x40 MLOAD DUP1 SWAP2 SUB SWAP1 LOG4 POP POP POP POP POP JUMP JUMPDEST PUSH1 0x1 DUP1 SSTORE JUMP JUMPDEST PUSH20 0xFFFFFFFFFFFFFFFFFFFFFFFFFFFFFFFFFFFFFFFF DUP1 DUP6 AND PUSH1 0x0 SWAP1 DUP2 MSTORE PUSH1 0x33 PUSH1 0x20 SWAP1 DUP2 MSTORE PUSH1 0x40 DUP1 DUP4 KECCAK256 SWAP4 DUP8 AND DUP4 MSTORE SWAP3 DUP2 MSTORE DUP3 DUP3 KECCAK256 PUSH32 0xFFFFFFFF00000000000000000000000000000000000000000000000000000000 DUP7 AND DUP4 MSTORE PUSH1 0x1 ADD SWAP1 MSTORE SWAP1 DUP2 KECCAK256 DUP1 SLOAD PUSH1 0xFF AND DUP1 ISZERO PUSH2 0xCD3 JUMPI POP PUSH2 0xCD3 DUP2 PUSH1 0x1 ADD DUP1 SLOAD DUP1 PUSH1 0x20 MUL PUSH1 0x20 ADD PUSH1 0x40 MLOAD SWAP1 DUP2 ADD PUSH1 0x40 MSTORE DUP1 SWAP3 SWAP2 SWAP1 DUP2 DUP2 MSTORE PUSH1 0x20 ADD PUSH1 0x0 SWAP1 JUMPDEST DUP3 DUP3 LT ISZERO PUSH2 0xCC9 JUMPI PUSH1 0x0 DUP5 DUP2 MSTORE PUSH1 0x20 SWAP1 DUP2 SWAP1 KECCAK256 PUSH1 0x40 DUP1 MLOAD DUP1 DUP3 ADD SWAP1 SWAP2 MSTORE SWAP1 DUP5 ADD SLOAD PUSH1 0xFF DUP2 AND DUP3 MSTORE PUSH2 0x100 SWAP1 DIV PUSH31 0xFFFFFFFFFFFFFFFFFFFFFFFFFFFFFFFFFFFFFFFFFFFFFFFFFFFFFFFFFFFFFF AND DUP2 DUP4 ADD MSTORE DUP3 MSTORE PUSH1 0x1 SWAP1 SWAP3 ADD SWAP2 ADD PUSH2 0xC6A JUMP JUMPDEST POP POP POP POP DUP5 PUSH2 0xF4A JUMP JUMPDEST SWAP7 SWAP6 POP POP POP POP POP POP JUMP JUMPDEST PUSH1 0x0 SLOAD PUSH2 0x100 SWAP1 DIV PUSH1 0xFF AND PUSH2 0xD74 JUMPI PUSH1 0x40 MLOAD PUSH32 0x8C379A000000000000000000000000000000000000000000000000000000000 DUP2 MSTORE PUSH1 0x20 PUSH1 0x4 DUP3 ADD MSTORE PUSH1 0x2B PUSH1 0x24 DUP3 ADD MSTORE PUSH32 0x496E697469616C697A61626C653A20636F6E7472616374206973206E6F742069 PUSH1 0x44 DUP3 ADD MSTORE PUSH32 0x6E697469616C697A696E67000000000000000000000000000000000000000000 PUSH1 0x64 DUP3 ADD MSTORE PUSH1 0x84 ADD PUSH2 0x48B JUMP JUMPDEST PUSH2 0xD7C PUSH2 0x1010 JUMP JUMPDEST JUMP JUMPDEST PUSH20 0xFFFFFFFFFFFFFFFFFFFFFFFFFFFFFFFFFFFFFFFF DUP1 DUP6 AND PUSH1 0x0 SWAP1 DUP2 MSTORE PUSH1 0x33 PUSH1 0x20 SWAP1 DUP2 MSTORE PUSH1 0x40 DUP1 DUP4 KECCAK256 SWAP4 DUP8 AND DUP4 MSTORE SWAP3 DUP2 MSTORE DUP3 DUP3 KECCAK256 PUSH32 0xFFFFFFFF00000000000000000000000000000000000000000000000000000000 DUP7 AND DUP4 MSTORE PUSH1 0x1 DUP2 ADD SWAP1 SWAP2 MSTORE SWAP2 SWAP1 KECCAK256 DUP1 SLOAD PUSH1 0xFF AND PUSH2 0xDFE JUMPI DUP2 SLOAD DUP3 PUSH1 0x0 PUSH2 0xDF8 DUP4 PUSH2 0x1B96 JUMP JUMPDEST SWAP2 SWAP1 POP SSTORE POP JUMPDEST DUP1 SLOAD PUSH32 0xFFFFFFFFFFFFFFFFFFFFFFFFFFFFFFFFFFFFFFFFFFFFFFFFFFFFFFFFFFFFFF00 AND PUSH1 0x1 SWAP1 DUP2 OR DUP3 SSTORE PUSH2 0xE36 SWAP1 DUP3 ADD PUSH1 0x0 PUSH2 0x1343 JUMP JUMPDEST PUSH1 0x0 JUMPDEST DUP4 MLOAD DUP2 LT ISZERO PUSH2 0xEBC JUMPI DUP2 PUSH1 0x1 ADD DUP5 DUP3 DUP2 MLOAD DUP2 LT PUSH2 0xE58 JUMPI PUSH2 0xE58 PUSH2 0x1B38 JUMP JUMPDEST PUSH1 0x20 SWAP1 DUP2 MUL SWAP2 SWAP1 SWAP2 ADD DUP2 ADD MLOAD DUP3 SLOAD PUSH1 0x1 DUP2 ADD DUP5 SSTORE PUSH1 0x0 SWAP4 DUP5 MSTORE SWAP3 DUP3 SWAP1 KECCAK256 DUP2 MLOAD SWAP2 SWAP1 SWAP3 ADD MLOAD PUSH31 0xFFFFFFFFFFFFFFFFFFFFFFFFFFFFFFFFFFFFFFFFFFFFFFFFFFFFFFFFFFFFFF AND PUSH2 0x100 MUL PUSH1 0xFF SWAP1 SWAP2 AND OR SWAP2 ADD SSTORE DUP1 PUSH2 0xEB4 DUP2 PUSH2 0x1B96 JUMP JUMPDEST SWAP2 POP POP PUSH2 0xE39 JUMP JUMPDEST POP DUP4 PUSH28 0xFFFFFFFFFFFFFFFFFFFFFFFFFFFFFFFFFFFFFFFFFFFFFFFFFFFFFFFF NOT AND DUP6 PUSH20 0xFFFFFFFFFFFFFFFFFFFFFFFFFFFFFFFFFFFFFFFF AND DUP8 PUSH20 0xFFFFFFFFFFFFFFFFFFFFFFFFFFFFFFFFFFFFFFFF AND PUSH32 0xA4E3AD0D161589A3D7D368C479C5C4BD9D753EA8F4865B26801B7E9823235FF5 DUP7 PUSH1 0x40 MLOAD PUSH2 0xF3A SWAP2 SWAP1 PUSH2 0x169A JUMP JUMPDEST PUSH1 0x40 MLOAD DUP1 SWAP2 SUB SWAP1 LOG4 POP POP POP POP POP POP JUMP JUMPDEST PUSH1 0x0 DUP1 JUMPDEST DUP4 MLOAD DUP2 LT ISZERO PUSH2 0x1006 JUMPI PUSH1 0x0 DUP5 DUP3 DUP2 MLOAD DUP2 LT PUSH2 0xF6B JUMPI PUSH2 0xF6B PUSH2 0x1B38 JUMP JUMPDEST PUSH1 0x20 MUL PUSH1 0x20 ADD ADD MLOAD SWAP1 POP DUP4 MLOAD DUP3 LT DUP1 ISZERO PUSH2 0xFA5 JUMPI POP PUSH2 0xFA3 DUP2 DUP6 DUP5 DUP2 MLOAD DUP2 LT PUSH2 0xF96 JUMPI PUSH2 0xF96 PUSH2 0x1B38 JUMP JUMPDEST PUSH1 0x20 MUL PUSH1 0x20 ADD ADD MLOAD PUSH2 0x10A7 JUMP JUMPDEST ISZERO JUMPDEST DUP1 PUSH2 0xFE3 JUMPI POP DUP4 MLOAD DUP3 LT ISZERO DUP1 ISZERO PUSH2 0xFE3 JUMPI POP PUSH1 0x0 DUP2 MLOAD PUSH1 0xFF AND PUSH1 0x6 DUP2 GT ISZERO PUSH2 0xFCF JUMPI PUSH2 0xFCF PUSH2 0x1C9C JUMP JUMPDEST PUSH1 0x6 DUP2 GT ISZERO PUSH2 0xFE0 JUMPI PUSH2 0xFE0 PUSH2 0x1C9C JUMP JUMPDEST EQ ISZERO JUMPDEST ISZERO PUSH2 0xFF3 JUMPI PUSH1 0x0 SWAP3 POP POP POP PUSH2 0x2B9 JUMP JUMPDEST POP DUP1 PUSH2 0xFFE DUP2 PUSH2 0x1B96 JUMP JUMPDEST SWAP2 POP POP PUSH2 0xF4E JUMP JUMPDEST POP PUSH1 0x1 SWAP4 SWAP3 POP POP POP JUMP JUMPDEST PUSH1 0x0 SLOAD PUSH2 0x100 SWAP1 DIV PUSH1 0xFF AND PUSH2 0xBD0 JUMPI PUSH1 0x40 MLOAD PUSH32 0x8C379A000000000000000000000000000000000000000000000000000000000 DUP2 MSTORE PUSH1 0x20 PUSH1 0x4 DUP3 ADD MSTORE PUSH1 0x2B PUSH1 0x24 DUP3 ADD MSTORE PUSH32 0x496E697469616C697A61626C653A20636F6E7472616374206973206E6F742069 PUSH1 0x44 DUP3 ADD MSTORE PUSH32 0x6E697469616C697A696E67000000000000000000000000000000000000000000 PUSH1 0x64 DUP3 ADD MSTORE PUSH1 0x84 ADD PUSH2 0x48B JUMP JUMPDEST PUSH1 0x0 DUP1 DUP4 MLOAD PUSH1 0xFF AND PUSH1 0x6 DUP2 GT ISZERO PUSH2 0x10C0 JUMPI PUSH2 0x10C0 PUSH2 0x1C9C JUMP JUMPDEST PUSH1 0x6 DUP2 GT ISZERO PUSH2 0x10D1 JUMPI PUSH2 0x10D1 PUSH2 0x1C9C JUMP JUMPDEST SUB PUSH2 0x10DE JUMPI POP PUSH1 0x1 PUSH2 0x2B9 JUMP JUMPDEST PUSH1 0x1 DUP4 MLOAD PUSH1 0xFF AND PUSH1 0x6 DUP2 GT ISZERO PUSH2 0x10F6 JUMPI PUSH2 0x10F6 PUSH2 0x1C9C JUMP JUMPDEST PUSH1 0x6 DUP2 GT ISZERO PUSH2 0x1107 JUMPI PUSH2 0x1107 PUSH2 0x1C9C JUMP JUMPDEST SUB PUSH2 0x113A JUMPI POP PUSH1 0x20 DUP3 ADD MLOAD PUSH31 0xFFFFFFFFFFFFFFFFFFFFFFFFFFFFFFFFFFFFFFFFFFFFFFFFFFFFFFFFFFFFFF AND DUP2 EQ PUSH2 0x2B9 JUMP JUMPDEST PUSH1 0x2 DUP4 MLOAD PUSH1 0xFF AND PUSH1 0x6 DUP2 GT ISZERO PUSH2 0x1152 JUMPI PUSH2 0x1152 PUSH2 0x1C9C JUMP JUMPDEST PUSH1 0x6 DUP2 GT ISZERO PUSH2 0x1163 JUMPI PUSH2 0x1163 PUSH2 0x1C9C JUMP JUMPDEST SUB PUSH2 0x1197 JUMPI POP PUSH1 0x20 DUP3 ADD MLOAD PUSH31 0xFFFFFFFFFFFFFFFFFFFFFFFFFFFFFFFFFFFFFFFFFFFFFFFFFFFFFFFFFFFFFF AND DUP2 EQ ISZERO PUSH2 0x2B9 JUMP JUMPDEST PUSH1 0x3 DUP4 MLOAD PUSH1 0xFF AND PUSH1 0x6 DUP2 GT ISZERO PUSH2 0x11AF JUMPI PUSH2 0x11AF PUSH2 0x1C9C JUMP JUMPDEST PUSH1 0x6 DUP2 GT ISZERO PUSH2 0x11C0 JUMPI PUSH2 0x11C0 PUSH2 0x1C9C JUMP JUMPDEST SUB PUSH2 0x11F3 JUMPI POP PUSH1 0x20 DUP3 ADD MLOAD PUSH31 0xFFFFFFFFFFFFFFFFFFFFFFFFFFFFFFFFFFFFFFFFFFFFFFFFFFFFFFFFFFFFFF AND DUP2 GT PUSH2 0x2B9 JUMP JUMPDEST PUSH1 0x4 DUP4 MLOAD PUSH1 0xFF AND PUSH1 0x6 DUP2 GT ISZERO PUSH2 0x120B JUMPI PUSH2 0x120B PUSH2 0x1C9C JUMP JUMPDEST PUSH1 0x6 DUP2 GT ISZERO PUSH2 0x121C JUMPI PUSH2 0x121C PUSH2 0x1C9C JUMP JUMPDEST SUB PUSH2 0x124F JUMPI POP PUSH1 0x20 DUP3 ADD MLOAD PUSH31 0xFFFFFFFFFFFFFFFFFFFFFFFFFFFFFFFFFFFFFFFFFFFFFFFFFFFFFFFFFFFFFF AND DUP2 LT PUSH2 0x2B9 JUMP JUMPDEST PUSH1 0x5 DUP4 MLOAD PUSH1 0xFF AND PUSH1 0x6 DUP2 GT ISZERO PUSH2 0x1267 JUMPI PUSH2 0x1267 PUSH2 0x1C9C JUMP JUMPDEST PUSH1 0x6 DUP2 GT ISZERO PUSH2 0x1278 JUMPI PUSH2 0x1278 PUSH2 0x1C9C JUMP JUMPDEST SUB PUSH2 0x12AC JUMPI POP PUSH1 0x20 DUP3 ADD MLOAD PUSH31 0xFFFFFFFFFFFFFFFFFFFFFFFFFFFFFFFFFFFFFFFFFFFFFFFFFFFFFFFFFFFFFF AND DUP2 LT ISZERO PUSH2 0x2B9 JUMP JUMPDEST PUSH1 0x6 DUP4 MLOAD PUSH1 0xFF AND PUSH1 0x6 DUP2 GT ISZERO PUSH2 0x12C4 JUMPI PUSH2 0x12C4 PUSH2 0x1C9C JUMP JUMPDEST PUSH1 0x6 DUP2 GT ISZERO PUSH2 0x12D5 JUMPI PUSH2 0x12D5 PUSH2 0x1C9C JUMP JUMPDEST SUB PUSH2 0x1309 JUMPI POP PUSH1 0x20 DUP3 ADD MLOAD PUSH31 0xFFFFFFFFFFFFFFFFFFFFFFFFFFFFFFFFFFFFFFFFFFFFFFFFFFFFFFFFFFFFFF AND DUP2 GT ISZERO PUSH2 0x2B9 JUMP JUMPDEST DUP3 MLOAD PUSH1 0x40 MLOAD PUSH32 0x69F2CBF500000000000000000000000000000000000000000000000000000000 DUP2 MSTORE PUSH1 0xFF SWAP1 SWAP2 AND PUSH1 0x4 DUP3 ADD MSTORE PUSH1 0x24 ADD PUSH2 0x48B JUMP JUMPDEST POP DUP1 SLOAD PUSH1 0x0 DUP3 SSTORE SWAP1 PUSH1 0x0 MSTORE PUSH1 0x20 PUSH1 0x0 KECCAK256 SWAP1 DUP2 ADD SWAP1 PUSH2 0x1361 SWAP2 SWAP1 PUSH2 0x1364 JUMP JUMPDEST POP JUMP JUMPDEST JUMPDEST DUP1 DUP3 GT ISZERO PUSH2 0x1379 JUMPI PUSH1 0x0 DUP2 SSTORE PUSH1 0x1 ADD PUSH2 0x1365 JUMP JUMPDEST POP SWAP1 JUMP JUMPDEST DUP1 CALLDATALOAD PUSH20 0xFFFFFFFFFFFFFFFFFFFFFFFFFFFFFFFFFFFFFFFF DUP2 AND DUP2 EQ PUSH2 0x13A1 JUMPI PUSH1 0x0 DUP1 REVERT JUMPDEST SWAP2 SWAP1 POP JUMP JUMPDEST PUSH1 0x0 DUP1 PUSH1 0x40 DUP4 DUP6 SUB SLT ISZERO PUSH2 0x13B9 JUMPI PUSH1 0x0 DUP1 REVERT JUMPDEST PUSH2 0x13C2 DUP4 PUSH2 0x137D JUMP JUMPDEST SWAP2 POP PUSH2 0x13D0 PUSH1 0x20 DUP5 ADD PUSH2 0x137D JUMP JUMPDEST SWAP1 POP SWAP3 POP SWAP3 SWAP1 POP JUMP JUMPDEST DUP1 CALLDATALOAD PUSH32 0xFFFFFFFF00000000000000000000000000000000000000000000000000000000 DUP2 AND DUP2 EQ PUSH2 0x13A1 JUMPI PUSH1 0x0 DUP1 REVERT JUMPDEST PUSH1 0x0 DUP1 PUSH1 0x0 PUSH1 0x60 DUP5 DUP7 SUB SLT ISZERO PUSH2 0x141E JUMPI PUSH1 0x0 DUP1 REVERT JUMPDEST PUSH2 0x1427 DUP5 PUSH2 0x137D JUMP JUMPDEST SWAP3 POP PUSH2 0x1435 PUSH1 0x20 DUP6 ADD PUSH2 0x137D JUMP JUMPDEST SWAP2 POP PUSH2 0x1443 PUSH1 0x40 DUP6 ADD PUSH2 0x13D9 JUMP JUMPDEST SWAP1 POP SWAP3 POP SWAP3 POP SWAP3 JUMP JUMPDEST PUSH32 0x4E487B7100000000000000000000000000000000000000000000000000000000 PUSH1 0x0 MSTORE PUSH1 0x41 PUSH1 0x4 MSTORE PUSH1 0x24 PUSH1 0x0 REVERT JUMPDEST PUSH1 0x40 DUP1 MLOAD SWAP1 DUP2 ADD PUSH8 0xFFFFFFFFFFFFFFFF DUP2 GT DUP3 DUP3 LT OR ISZERO PUSH2 0x149E JUMPI PUSH2 0x149E PUSH2 0x144C JUMP JUMPDEST PUSH1 0x40 MSTORE SWAP1 JUMP JUMPDEST PUSH1 0x40 MLOAD PUSH1 0x60 DUP2 ADD PUSH8 0xFFFFFFFFFFFFFFFF DUP2 GT DUP3 DUP3 LT OR ISZERO PUSH2 0x149E JUMPI PUSH2 0x149E PUSH2 0x144C JUMP JUMPDEST PUSH1 0x40 MLOAD PUSH1 0x1F DUP3 ADD PUSH32 0xFFFFFFFFFFFFFFFFFFFFFFFFFFFFFFFFFFFFFFFFFFFFFFFFFFFFFFFFFFFFFFE0 AND DUP2 ADD PUSH8 0xFFFFFFFFFFFFFFFF DUP2 GT DUP3 DUP3 LT OR ISZERO PUSH2 0x150E JUMPI PUSH2 0x150E PUSH2 0x144C JUMP JUMPDEST PUSH1 0x40 MSTORE SWAP2 SWAP1 POP JUMP JUMPDEST PUSH1 0x0 PUSH8 0xFFFFFFFFFFFFFFFF DUP3 GT ISZERO PUSH2 0x1530 JUMPI PUSH2 0x1530 PUSH2 0x144C JUMP JUMPDEST POP PUSH1 0x5 SHL PUSH1 0x20 ADD SWAP1 JUMP JUMPDEST PUSH1 0x0 DUP1 PUSH1 0x0 DUP1 PUSH1 0x80 DUP6 DUP8 SUB SLT ISZERO PUSH2 0x1550 JUMPI PUSH1 0x0 DUP1 REVERT JUMPDEST PUSH2 0x1559 DUP6 PUSH2 0x137D JUMP JUMPDEST SWAP4 POP PUSH1 0x20 PUSH2 0x1568 DUP2 DUP8 ADD PUSH2 0x137D JUMP JUMPDEST SWAP4 POP PUSH2 0x1576 PUSH1 0x40 DUP8 ADD PUSH2 0x13D9 JUMP JUMPDEST SWAP3 POP PUSH1 0x60 DUP7 ADD CALLDATALOAD PUSH8 0xFFFFFFFFFFFFFFFF DUP2 GT ISZERO PUSH2 0x1592 JUMPI PUSH1 0x0 DUP1 REVERT JUMPDEST DUP7 ADD PUSH1 0x1F DUP2 ADD DUP9 SGT PUSH2 0x15A3 JUMPI PUSH1 0x0 DUP1 REVERT JUMPDEST DUP1 CALLDATALOAD PUSH2 0x15B6 PUSH2 0x15B1 DUP3 PUSH2 0x1516 JUMP JUMPDEST PUSH2 0x14C7 JUMP JUMPDEST DUP2 DUP2 MSTORE PUSH1 0x5 SWAP2 SWAP1 SWAP2 SHL DUP3 ADD DUP4 ADD SWAP1 DUP4 DUP2 ADD SWAP1 DUP11 DUP4 GT ISZERO PUSH2 0x15D5 JUMPI PUSH1 0x0 DUP1 REVERT JUMPDEST SWAP3 DUP5 ADD SWAP3 JUMPDEST DUP3 DUP5 LT ISZERO PUSH2 0x15F3 JUMPI DUP4 CALLDATALOAD DUP3 MSTORE SWAP3 DUP5 ADD SWAP3 SWAP1 DUP5 ADD SWAP1 PUSH2 0x15DA JUMP JUMPDEST SWAP8 SWAP11 SWAP7 SWAP10 POP SWAP5 SWAP8 POP POP POP POP POP POP JUMP JUMPDEST PUSH1 0x0 PUSH1 0x20 DUP1 DUP4 DUP6 SUB SLT ISZERO PUSH2 0x1615 JUMPI PUSH1 0x0 DUP1 REVERT JUMPDEST DUP3 CALLDATALOAD PUSH8 0xFFFFFFFFFFFFFFFF DUP2 GT ISZERO PUSH2 0x162C JUMPI PUSH1 0x0 DUP1 REVERT JUMPDEST DUP4 ADD PUSH1 0x1F DUP2 ADD DUP6 SGT PUSH2 0x163D JUMPI PUSH1 0x0 DUP1 REVERT JUMPDEST DUP1 CALLDATALOAD PUSH2 0x164B PUSH2 0x15B1 DUP3 PUSH2 0x1516 JUMP JUMPDEST DUP2 DUP2 MSTORE PUSH1 0x5 SWAP2 SWAP1 SWAP2 SHL DUP3 ADD DUP4 ADD SWAP1 DUP4 DUP2 ADD SWAP1 DUP8 DUP4 GT ISZERO PUSH2 0x166A JUMPI PUSH1 0x0 DUP1 REVERT JUMPDEST SWAP3 DUP5 ADD SWAP3 JUMPDEST DUP3 DUP5 LT ISZERO PUSH2 0x168F JUMPI PUSH2 0x1680 DUP5 PUSH2 0x137D JUMP JUMPDEST DUP3 MSTORE SWAP3 DUP5 ADD SWAP3 SWAP1 DUP5 ADD SWAP1 PUSH2 0x166F JUMP JUMPDEST SWAP8 SWAP7 POP POP POP POP POP POP POP JUMP JUMPDEST PUSH1 0x20 DUP1 DUP3 MSTORE DUP3 MLOAD DUP3 DUP3 ADD DUP2 SWAP1 MSTORE PUSH1 0x0 SWAP2 SWAP1 PUSH1 0x40 SWAP1 DUP2 DUP6 ADD SWAP1 DUP7 DUP5 ADD DUP6 JUMPDEST DUP3 DUP2 LT ISZERO PUSH2 0x1700 JUMPI DUP2 MLOAD DUP1 MLOAD PUSH1 0xFF AND DUP6 MSTORE DUP7 ADD MLOAD PUSH31 0xFFFFFFFFFFFFFFFFFFFFFFFFFFFFFFFFFFFFFFFFFFFFFFFFFFFFFFFFFFFFFF AND DUP7 DUP6 ADD MSTORE SWAP3 DUP5 ADD SWAP3 SWAP1 DUP6 ADD SWAP1 PUSH1 0x1 ADD PUSH2 0x16B7 JUMP JUMPDEST POP SWAP2 SWAP8 SWAP7 POP POP POP POP POP POP POP JUMP JUMPDEST PUSH1 0x0 DUP3 PUSH1 0x1F DUP4 ADD SLT PUSH2 0x171E JUMPI PUSH1 0x0 DUP1 REVERT JUMPDEST DUP2 CALLDATALOAD PUSH1 0x20 PUSH2 0x172E PUSH2 0x15B1 DUP4 PUSH2 0x1516 JUMP JUMPDEST DUP3 DUP2 MSTORE PUSH1 0x6 SWAP3 SWAP1 SWAP3 SHL DUP5 ADD DUP2 ADD SWAP2 DUP2 DUP2 ADD SWAP1 DUP7 DUP5 GT ISZERO PUSH2 0x174D JUMPI PUSH1 0x0 DUP1 REVERT JUMPDEST DUP3 DUP7 ADD JUMPDEST DUP5 DUP2 LT ISZERO PUSH2 0x17CA JUMPI PUSH1 0x40 DUP2 DUP10 SUB SLT ISZERO PUSH2 0x176A JUMPI PUSH1 0x0 DUP1 DUP2 REVERT JUMPDEST PUSH2 0x1772 PUSH2 0x147B JUMP JUMPDEST DUP2 CALLDATALOAD PUSH1 0xFF DUP2 AND DUP2 EQ PUSH2 0x1784 JUMPI PUSH1 0x0 DUP1 DUP2 REVERT JUMPDEST DUP2 MSTORE DUP2 DUP6 ADD CALLDATALOAD PUSH31 0xFFFFFFFFFFFFFFFFFFFFFFFFFFFFFFFFFFFFFFFFFFFFFFFFFFFFFFFFFFFFFF DUP2 AND DUP2 EQ PUSH2 0x17B8 JUMPI PUSH1 0x0 DUP1 DUP2 REVERT JUMPDEST DUP2 DUP7 ADD MSTORE DUP4 MSTORE SWAP2 DUP4 ADD SWAP2 PUSH1 0x40 ADD PUSH2 0x1751 JUMP JUMPDEST POP SWAP7 SWAP6 POP POP POP POP POP POP JUMP JUMPDEST PUSH1 0x0 DUP3 PUSH1 0x1F DUP4 ADD SLT PUSH2 0x17E6 JUMPI PUSH1 0x0 DUP1 REVERT JUMPDEST DUP2 CALLDATALOAD PUSH1 0x20 PUSH2 0x17F6 PUSH2 0x15B1 DUP4 PUSH2 0x1516 JUMP JUMPDEST DUP3 DUP2 MSTORE PUSH1 0x6 SWAP3 SWAP1 SWAP3 SHL DUP5 ADD DUP2 ADD SWAP2 DUP2 DUP2 ADD SWAP1 DUP7 DUP5 GT ISZERO PUSH2 0x1815 JUMPI PUSH1 0x0 DUP1 REVERT JUMPDEST DUP3 DUP7 ADD JUMPDEST DUP5 DUP2 LT ISZERO PUSH2 0x17CA JUMPI PUSH1 0x40 DUP2 DUP10 SUB SLT ISZERO PUSH2 0x1832 JUMPI PUSH1 0x0 DUP1 DUP2 REVERT JUMPDEST PUSH2 0x183A PUSH2 0x147B JUMP JUMPDEST PUSH2 0x1843 DUP3 PUSH2 0x137D JUMP JUMPDEST DUP2 MSTORE PUSH2 0x1850 DUP6 DUP4 ADD PUSH2 0x13D9 JUMP JUMPDEST DUP2 DUP7 ADD MSTORE DUP4 MSTORE SWAP2 DUP4 ADD SWAP2 PUSH1 0x40 ADD PUSH2 0x1819 JUMP JUMPDEST PUSH1 0x0 PUSH1 0x20 DUP3 DUP5 SUB SLT ISZERO PUSH2 0x1874 JUMPI PUSH1 0x0 DUP1 REVERT JUMPDEST PUSH8 0xFFFFFFFFFFFFFFFF DUP3 CALLDATALOAD GT ISZERO PUSH2 0x188A JUMPI PUSH1 0x0 DUP1 REVERT JUMPDEST DUP2 CALLDATALOAD DUP3 ADD DUP4 PUSH1 0x1F DUP3 ADD SLT PUSH2 0x189D JUMPI PUSH1 0x0 DUP1 REVERT JUMPDEST PUSH2 0x18AA PUSH2 0x15B1 DUP3 CALLDATALOAD PUSH2 0x1516 JUMP JUMPDEST DUP2 CALLDATALOAD DUP1 DUP3 MSTORE PUSH1 0x20 DUP1 DUP4 ADD SWAP3 SWAP2 PUSH1 0x5 SHL DUP5 ADD ADD DUP7 LT ISZERO PUSH2 0x18C8 JUMPI PUSH1 0x0 DUP1 REVERT JUMPDEST PUSH1 0x20 DUP4 ADD JUMPDEST PUSH1 0x20 DUP5 CALLDATALOAD PUSH1 0x5 SHL DUP6 ADD ADD DUP2 LT ISZERO PUSH2 0x1ABF JUMPI PUSH8 0xFFFFFFFFFFFFFFFF DUP2 CALLDATALOAD GT ISZERO PUSH2 0x18F4 JUMPI PUSH1 0x0 DUP1 REVERT JUMPDEST DUP1 CALLDATALOAD DUP5 ADD PUSH1 0x60 PUSH32 0xFFFFFFFFFFFFFFFFFFFFFFFFFFFFFFFFFFFFFFFFFFFFFFFFFFFFFFFFFFFFFFE0 DUP3 DUP11 SUB ADD SLT ISZERO PUSH2 0x192A JUMPI PUSH1 0x0 DUP1 REVERT JUMPDEST PUSH2 0x1932 PUSH2 0x14A4 JUMP JUMPDEST PUSH2 0x193E PUSH1 0x20 DUP4 ADD PUSH2 0x137D JUMP JUMPDEST DUP2 MSTORE PUSH8 0xFFFFFFFFFFFFFFFF PUSH1 0x40 DUP4 ADD CALLDATALOAD GT ISZERO PUSH2 0x1959 JUMPI PUSH1 0x0 DUP1 REVERT JUMPDEST PUSH1 0x40 DUP3 ADD CALLDATALOAD DUP3 ADD DUP10 PUSH1 0x3F DUP3 ADD SLT PUSH2 0x196F JUMPI PUSH1 0x0 DUP1 REVERT JUMPDEST PUSH2 0x197F PUSH2 0x15B1 PUSH1 0x20 DUP4 ADD CALLDATALOAD PUSH2 0x1516 JUMP JUMPDEST PUSH1 0x20 DUP3 DUP2 ADD CALLDATALOAD DUP1 DUP4 MSTORE SWAP1 DUP3 ADD SWAP2 SWAP1 PUSH1 0x5 SHL DUP4 ADD PUSH1 0x40 ADD DUP13 LT ISZERO PUSH2 0x19A1 JUMPI PUSH1 0x0 DUP1 REVERT JUMPDEST PUSH1 0x40 DUP4 ADD JUMPDEST PUSH1 0x40 PUSH1 0x20 DUP6 ADD CALLDATALOAD PUSH1 0x5 SHL DUP6 ADD ADD DUP2 LT ISZERO PUSH2 0x1A77 JUMPI PUSH8 0xFFFFFFFFFFFFFFFF DUP2 CALLDATALOAD GT ISZERO PUSH2 0x19D0 JUMPI PUSH1 0x0 DUP1 REVERT JUMPDEST PUSH1 0x60 PUSH32 0xFFFFFFFFFFFFFFFFFFFFFFFFFFFFFFFFFFFFFFFFFFFFFFFFFFFFFFFFFFFFFFC0 DUP3 CALLDATALOAD DUP7 ADD DUP16 SUB ADD SLT ISZERO PUSH2 0x1A05 JUMPI PUSH1 0x0 DUP1 REVERT JUMPDEST PUSH2 0x1A0D PUSH2 0x14A4 JUMP JUMPDEST PUSH2 0x1A1C PUSH1 0x40 DUP4 CALLDATALOAD DUP8 ADD ADD PUSH2 0x137D JUMP JUMPDEST DUP2 MSTORE PUSH2 0x1A2D PUSH1 0x60 DUP4 CALLDATALOAD DUP8 ADD ADD PUSH2 0x13D9 JUMP JUMPDEST PUSH1 0x20 DUP3 ADD MSTORE PUSH8 0xFFFFFFFFFFFFFFFF PUSH1 0x80 DUP4 CALLDATALOAD DUP8 ADD ADD CALLDATALOAD GT ISZERO PUSH2 0x1A4E JUMPI PUSH1 0x0 DUP1 REVERT JUMPDEST PUSH2 0x1A64 DUP15 DUP4 CALLDATALOAD DUP8 ADD PUSH1 0x80 DUP2 ADD CALLDATALOAD ADD PUSH1 0x40 ADD PUSH2 0x170D JUMP JUMPDEST PUSH1 0x40 DUP3 ADD MSTORE DUP4 MSTORE PUSH1 0x20 SWAP3 DUP4 ADD SWAP3 ADD PUSH2 0x19A6 JUMP JUMPDEST POP PUSH1 0x20 DUP5 ADD MSTORE POP POP PUSH8 0xFFFFFFFFFFFFFFFF PUSH1 0x60 DUP4 ADD CALLDATALOAD GT ISZERO PUSH2 0x1A98 JUMPI PUSH1 0x0 DUP1 REVERT JUMPDEST PUSH2 0x1AAB DUP10 PUSH1 0x20 PUSH1 0x60 DUP6 ADD CALLDATALOAD DUP6 ADD ADD PUSH2 0x17D5 JUMP JUMPDEST PUSH1 0x40 DUP3 ADD MSTORE DUP5 MSTORE POP PUSH1 0x20 SWAP3 DUP4 ADD SWAP3 ADD PUSH2 0x18CD JUMP JUMPDEST POP SWAP6 SWAP5 POP POP POP POP POP JUMP JUMPDEST PUSH1 0x0 DUP1 PUSH1 0x0 DUP1 PUSH1 0x80 DUP6 DUP8 SUB SLT ISZERO PUSH2 0x1ADF JUMPI PUSH1 0x0 DUP1 REVERT JUMPDEST PUSH2 0x1AE8 DUP6 PUSH2 0x137D JUMP JUMPDEST SWAP4 POP PUSH2 0x1AF6 PUSH1 0x20 DUP7 ADD PUSH2 0x137D JUMP JUMPDEST SWAP3 POP PUSH2 0x1B04 PUSH1 0x40 DUP7 ADD PUSH2 0x13D9 JUMP JUMPDEST SWAP2 POP PUSH1 0x60 DUP6 ADD CALLDATALOAD PUSH8 0xFFFFFFFFFFFFFFFF DUP2 GT ISZERO PUSH2 0x1B20 JUMPI PUSH1 0x0 DUP1 REVERT JUMPDEST PUSH2 0x1B2C DUP8 DUP3 DUP9 ADD PUSH2 0x170D JUMP JUMPDEST SWAP2 POP POP SWAP3 SWAP6 SWAP2 SWAP5 POP SWAP3 POP JUMP JUMPDEST PUSH32 0x4E487B7100000000000000000000000000000000000000000000000000000000 PUSH1 0x0 MSTORE PUSH1 0x32 PUSH1 0x4 MSTORE PUSH1 0x24 PUSH1 0x0 REVERT JUMPDEST PUSH32 0x4E487B7100000000000000000000000000000000000000000000000000000000 PUSH1 0x0 MSTORE PUSH1 0x11 PUSH1 0x4 MSTORE PUSH1 0x24 PUSH1 0x0 REVERT JUMPDEST PUSH1 0x0 PUSH32 0xFFFFFFFFFFFFFFFFFFFFFFFFFFFFFFFFFFFFFFFFFFFFFFFFFFFFFFFFFFFFFFFF DUP3 SUB PUSH2 0x1BC7 JUMPI PUSH2 0x1BC7 PUSH2 0x1B67 JUMP JUMPDEST POP PUSH1 0x1 ADD SWAP1 JUMP JUMPDEST PUSH1 0x0 PUSH1 0x80 DUP3 ADD PUSH20 0xFFFFFFFFFFFFFFFFFFFFFFFFFFFFFFFFFFFFFFFF DUP1 DUP9 AND DUP5 MSTORE PUSH1 0x20 DUP2 DUP9 AND DUP2 DUP7 ADD MSTORE PUSH32 0xFFFFFFFF00000000000000000000000000000000000000000000000000000000 DUP8 AND PUSH1 0x40 DUP7 ADD MSTORE PUSH1 0x80 PUSH1 0x60 DUP7 ADD MSTORE DUP3 SWAP2 POP DUP6 MLOAD DUP1 DUP5 MSTORE PUSH1 0xA0 DUP7 ADD SWAP3 POP DUP2 DUP8 ADD SWAP4 POP PUSH1 0x0 JUMPDEST DUP2 DUP2 LT ISZERO PUSH2 0x1C58 JUMPI DUP5 MLOAD DUP5 MSTORE SWAP4 DUP3 ADD SWAP4 SWAP3 DUP3 ADD SWAP3 PUSH1 0x1 ADD PUSH2 0x1C3C JUMP JUMPDEST POP SWAP2 SWAP10 SWAP9 POP POP POP POP POP POP POP POP POP JUMP JUMPDEST PUSH1 0x0 DUP2 PUSH2 0x1C76 JUMPI PUSH2 0x1C76 PUSH2 0x1B67 JUMP JUMPDEST POP PUSH32 0xFFFFFFFFFFFFFFFFFFFFFFFFFFFFFFFFFFFFFFFFFFFFFFFFFFFFFFFFFFFFFFFF ADD SWAP1 JUMP JUMPDEST PUSH32 0x4E487B7100000000000000000000000000000000000000000000000000000000 PUSH1 0x0 MSTORE PUSH1 0x21 PUSH1 0x4 MSTORE PUSH1 0x24 PUSH1 0x0 REVERT INVALID LOG2 PUSH5 0x6970667358 0x22 SLT KECCAK256 LT 0xF7 ORIGIN 0x22 0xEA 0xD DUP2 0x5C 0xB6 0xE4 PUSH13 0x1AAEF2B993A8DA022A3742CC1D 0xE1 0xBF 0xFC PUSH31 0xF5B3390964736F6C6343000811003300000000000000000000000000000000 "},"methodIdentifiers":{"ANYONE()":"405d30af","ANYWHERE()":"840510cc","authorize(address,address,bytes4,(uint8,uint248)[])":"fd1ccc9b","changePermissions((address,(address,bytes4,(uint8,uint248)[])[],(address,bytes4)[])[])":"ca7c51d0","getPermissionParams(address,address,bytes4)":"b091986d","getPermissionsLength(address,address)":"0eb39344","hasPermission(address,address,bytes4)":"15771845","hasPermissions(address,address)":"e8a67dad","initialize(address[])":"a224cee7","isAuthorized(address,address,bytes4,uint256[])":"28522895","unauthorize(address,address,bytes4)":"261a48af"}}}}}