{"contracts/test/TaskMock.sol":{"TaskMock":{"abi":[{"inputs":[{"internalType":"address","name":"_smartVault","type":"address"}],"stateMutability":"nonpayable","type":"constructor"},{"anonymous":false,"inputs":[],"name":"Succeeded","type":"event"},{"inputs":[],"name":"fail","outputs":[],"stateMutability":"pure","type":"function"},{"inputs":[],"name":"smartVault","outputs":[{"internalType":"address","name":"","type":"address"}],"stateMutability":"view","type":"function"},{"inputs":[],"name":"succeed","outputs":[{"internalType":"uint256","name":"","type":"uint256"}],"stateMutability":"nonpayable","type":"function"}],"evm":{"bytecode":{"linkReferences":{},"object":"608060405234801561001057600080fd5b5060405161021038038061021083398101604081905261002f91610054565b600080546001600160a01b0319166001600160a01b0392909216919091179055610084565b60006020828403121561006657600080fd5b81516001600160a01b038116811461007d57600080fd5b9392505050565b61017d806100936000396000f3fe608060405234801561001057600080fd5b50600436106100415760003560e01c80634fd49efd14610046578063a9cc471814610090578063acf495f31461009a575b600080fd5b6000546100669073ffffffffffffffffffffffffffffffffffffffff1681565b60405173ffffffffffffffffffffffffffffffffffffffff90911681526020015b60405180910390f35b6100986100b0565b005b6100a2610116565b604051908152602001610087565b6040517f08c379a000000000000000000000000000000000000000000000000000000000815260206004820152600b60248201527f5441534b5f4641494c4544000000000000000000000000000000000000000000604482015260640160405180910390fd5b6040516000907f318ba0c588a4bde325b55ebf926bfa606b77d9971ac5fc7250a615885daf9d5c908290a15060019056fea2646970667358221220805c440fbc8ac45842e4991e16277267a4e4d2182eb28caff433c9567bf26a1064736f6c63430008110033","opcodes":"PUSH1 0x80 PUSH1 0x40 MSTORE CALLVALUE DUP1 ISZERO PUSH2 0x10 JUMPI PUSH1 0x0 DUP1 REVERT JUMPDEST POP PUSH1 0x40 MLOAD PUSH2 0x210 CODESIZE SUB DUP1 PUSH2 0x210 DUP4 CODECOPY DUP2 ADD PUSH1 0x40 DUP2 SWAP1 MSTORE PUSH2 0x2F SWAP2 PUSH2 0x54 JUMP JUMPDEST PUSH1 0x0 DUP1 SLOAD PUSH1 0x1 PUSH1 0x1 PUSH1 0xA0 SHL SUB NOT AND PUSH1 0x1 PUSH1 0x1 PUSH1 0xA0 SHL SUB SWAP3 SWAP1 SWAP3 AND SWAP2 SWAP1 SWAP2 OR SWAP1 SSTORE PUSH2 0x84 JUMP JUMPDEST PUSH1 0x0 PUSH1 0x20 DUP3 DUP5 SUB SLT ISZERO PUSH2 0x66 JUMPI PUSH1 0x0 DUP1 REVERT JUMPDEST DUP2 MLOAD PUSH1 0x1 PUSH1 0x1 PUSH1 0xA0 SHL SUB DUP2 AND DUP2 EQ PUSH2 0x7D JUMPI PUSH1 0x0 DUP1 REVERT JUMPDEST SWAP4 SWAP3 POP POP POP JUMP JUMPDEST PUSH2 0x17D DUP1 PUSH2 0x93 PUSH1 0x0 CODECOPY PUSH1 0x0 RETURN INVALID PUSH1 0x80 PUSH1 0x40 MSTORE CALLVALUE DUP1 ISZERO PUSH2 0x10 JUMPI PUSH1 0x0 DUP1 REVERT JUMPDEST POP PUSH1 0x4 CALLDATASIZE LT PUSH2 0x41 JUMPI PUSH1 0x0 CALLDATALOAD PUSH1 0xE0 SHR DUP1 PUSH4 0x4FD49EFD EQ PUSH2 0x46 JUMPI DUP1 PUSH4 0xA9CC4718 EQ PUSH2 0x90 JUMPI DUP1 PUSH4 0xACF495F3 EQ PUSH2 0x9A JUMPI JUMPDEST PUSH1 0x0 DUP1 REVERT JUMPDEST PUSH1 0x0 SLOAD PUSH2 0x66 SWAP1 PUSH20 0xFFFFFFFFFFFFFFFFFFFFFFFFFFFFFFFFFFFFFFFF AND DUP2 JUMP JUMPDEST PUSH1 0x40 MLOAD PUSH20 0xFFFFFFFFFFFFFFFFFFFFFFFFFFFFFFFFFFFFFFFF SWAP1 SWAP2 AND DUP2 MSTORE PUSH1 0x20 ADD JUMPDEST PUSH1 0x40 MLOAD DUP1 SWAP2 SUB SWAP1 RETURN JUMPDEST PUSH2 0x98 PUSH2 0xB0 JUMP JUMPDEST STOP JUMPDEST PUSH2 0xA2 PUSH2 0x116 JUMP JUMPDEST PUSH1 0x40 MLOAD SWAP1 DUP2 MSTORE PUSH1 0x20 ADD PUSH2 0x87 JUMP JUMPDEST PUSH1 0x40 MLOAD PUSH32 0x8C379A000000000000000000000000000000000000000000000000000000000 DUP2 MSTORE PUSH1 0x20 PUSH1 0x4 DUP3 ADD MSTORE PUSH1 0xB PUSH1 0x24 DUP3 ADD MSTORE PUSH32 0x5441534B5F4641494C4544000000000000000000000000000000000000000000 PUSH1 0x44 DUP3 ADD MSTORE PUSH1 0x64 ADD PUSH1 0x40 MLOAD DUP1 SWAP2 SUB SWAP1 REVERT JUMPDEST PUSH1 0x40 MLOAD PUSH1 0x0 SWAP1 PUSH32 0x318BA0C588A4BDE325B55EBF926BFA606B77D9971AC5FC7250A615885DAF9D5C SWAP1 DUP3 SWAP1 LOG1 POP PUSH1 0x1 SWAP1 JUMP INVALID LOG2 PUSH5 0x6970667358 0x22 SLT KECCAK256 DUP1 0x5C DIFFICULTY 0xF 0xBC DUP11 0xC4 PC TIMESTAMP 0xE4 SWAP10 0x1E AND 0x27 PUSH19 0x67A4E4D2182EB28CAFF433C9567BF26A106473 PUSH16 0x6C634300081100330000000000000000 "},"methodIdentifiers":{"fail()":"a9cc4718","smartVault()":"4fd49efd","succeed()":"acf495f3"}}}}}