{"contracts/Relayer.sol":{"Relayer":{"abi":[{"inputs":[{"internalType":"address","name":"executor","type":"address"},{"internalType":"address","name":"collector","type":"address"},{"internalType":"address","name":"owner","type":"address"}],"stateMutability":"nonpayable","type":"constructor"},{"anonymous":false,"inputs":[{"indexed":true,"internalType":"address","name":"collector","type":"address"}],"name":"DefaultCollectorSet","type":"event"},{"anonymous":false,"inputs":[{"indexed":true,"internalType":"address","name":"smartVault","type":"address"},{"indexed":false,"internalType":"uint256","name":"amount","type":"uint256"}],"name":"Deposited","type":"event"},{"anonymous":false,"inputs":[{"indexed":true,"internalType":"address","name":"executor","type":"address"},{"indexed":false,"internalType":"bool","name":"allowed","type":"bool"}],"name":"ExecutorSet","type":"event"},{"anonymous":false,"inputs":[{"indexed":true,"internalType":"address","name":"token","type":"address"},{"indexed":true,"internalType":"address","name":"recipient","type":"address"},{"indexed":false,"internalType":"uint256","name":"amount","type":"uint256"}],"name":"FundsRescued","type":"event"},{"anonymous":false,"inputs":[{"indexed":true,"internalType":"address","name":"smartVault","type":"address"},{"indexed":false,"internalType":"uint256","name":"amount","type":"uint256"},{"indexed":false,"internalType":"uint256","name":"quota","type":"uint256"}],"name":"GasPaid","type":"event"},{"anonymous":false,"inputs":[{"indexed":true,"internalType":"address","name":"previousOwner","type":"address"},{"indexed":true,"internalType":"address","name":"newOwner","type":"address"}],"name":"OwnershipTransferred","type":"event"},{"anonymous":false,"inputs":[{"indexed":true,"internalType":"address","name":"smartVault","type":"address"},{"indexed":false,"internalType":"uint256","name":"amount","type":"uint256"}],"name":"QuotaPaid","type":"event"},{"anonymous":false,"inputs":[{"indexed":true,"internalType":"address","name":"smartVault","type":"address"},{"indexed":true,"internalType":"address","name":"collector","type":"address"}],"name":"SmartVaultCollectorSet","type":"event"},{"anonymous":false,"inputs":[{"indexed":true,"internalType":"address","name":"smartVault","type":"address"},{"indexed":false,"internalType":"uint256","name":"maxQuota","type":"uint256"}],"name":"SmartVaultMaxQuotaSet","type":"event"},{"anonymous":false,"inputs":[{"indexed":true,"internalType":"address","name":"smartVault","type":"address"},{"indexed":true,"internalType":"address","name":"task","type":"address"},{"indexed":false,"internalType":"bytes","name":"data","type":"bytes"},{"indexed":false,"internalType":"bool","name":"success","type":"bool"},{"indexed":false,"internalType":"bytes","name":"result","type":"bytes"},{"indexed":false,"internalType":"uint256","name":"gas","type":"uint256"}],"name":"TaskExecuted","type":"event"},{"anonymous":false,"inputs":[{"indexed":true,"internalType":"address","name":"smartVault","type":"address"},{"indexed":false,"internalType":"uint256","name":"amount","type":"uint256"}],"name":"Withdrawn","type":"event"},{"inputs":[],"name":"BASE_GAS","outputs":[{"internalType":"uint256","name":"","type":"uint256"}],"stateMutability":"view","type":"function"},{"inputs":[],"name":"defaultCollector","outputs":[{"internalType":"address","name":"","type":"address"}],"stateMutability":"view","type":"function"},{"inputs":[{"internalType":"address","name":"smartVault","type":"address"},{"internalType":"uint256","name":"amount","type":"uint256"}],"name":"deposit","outputs":[],"stateMutability":"payable","type":"function"},{"inputs":[{"internalType":"address[]","name":"tasks","type":"address[]"},{"internalType":"bytes[]","name":"datas","type":"bytes[]"},{"internalType":"bool","name":"continueIfFailed","type":"bool"}],"name":"execute","outputs":[],"stateMutability":"nonpayable","type":"function"},{"inputs":[{"internalType":"address","name":"smartVault","type":"address"}],"name":"getApplicableCollector","outputs":[{"internalType":"address","name":"","type":"address"}],"stateMutability":"view","type":"function"},{"inputs":[{"internalType":"address","name":"","type":"address"}],"name":"getSmartVaultBalance","outputs":[{"internalType":"uint256","name":"","type":"uint256"}],"stateMutability":"view","type":"function"},{"inputs":[{"internalType":"address","name":"","type":"address"}],"name":"getSmartVaultCollector","outputs":[{"internalType":"address","name":"","type":"address"}],"stateMutability":"view","type":"function"},{"inputs":[{"internalType":"address","name":"","type":"address"}],"name":"getSmartVaultMaxQuota","outputs":[{"internalType":"uint256","name":"","type":"uint256"}],"stateMutability":"view","type":"function"},{"inputs":[{"internalType":"address","name":"","type":"address"}],"name":"getSmartVaultUsedQuota","outputs":[{"internalType":"uint256","name":"","type":"uint256"}],"stateMutability":"view","type":"function"},{"inputs":[{"internalType":"address","name":"","type":"address"}],"name":"isExecutorAllowed","outputs":[{"internalType":"bool","name":"","type":"bool"}],"stateMutability":"view","type":"function"},{"inputs":[],"name":"owner","outputs":[{"internalType":"address","name":"","type":"address"}],"stateMutability":"view","type":"function"},{"inputs":[],"name":"renounceOwnership","outputs":[],"stateMutability":"nonpayable","type":"function"},{"inputs":[{"internalType":"address","name":"token","type":"address"},{"internalType":"address","name":"recipient","type":"address"},{"internalType":"uint256","name":"amount","type":"uint256"}],"name":"rescueFunds","outputs":[],"stateMutability":"nonpayable","type":"function"},{"inputs":[{"internalType":"address","name":"collector","type":"address"}],"name":"setDefaultCollector","outputs":[],"stateMutability":"nonpayable","type":"function"},{"inputs":[{"internalType":"address","name":"executor","type":"address"},{"internalType":"bool","name":"allowed","type":"bool"}],"name":"setExecutor","outputs":[],"stateMutability":"nonpayable","type":"function"},{"inputs":[{"internalType":"address","name":"smartVault","type":"address"},{"internalType":"address","name":"collector","type":"address"}],"name":"setSmartVaultCollector","outputs":[],"stateMutability":"nonpayable","type":"function"},{"inputs":[{"internalType":"address","name":"smartVault","type":"address"},{"internalType":"uint256","name":"maxQuota","type":"uint256"}],"name":"setSmartVaultMaxQuota","outputs":[],"stateMutability":"nonpayable","type":"function"},{"inputs":[{"internalType":"address","name":"newOwner","type":"address"}],"name":"transferOwnership","outputs":[],"stateMutability":"nonpayable","type":"function"},{"inputs":[{"internalType":"uint256","name":"amount","type":"uint256"}],"name":"withdraw","outputs":[],"stateMutability":"nonpayable","type":"function"}],"evm":{"bytecode":{"linkReferences":{},"object":"60806040523480156200001157600080fd5b506040516200215338038062002153833981016040819052620000349162000235565b6200003f336200006b565b6200004c836001620000bb565b620000578262000176565b62000062816200006b565b5050506200027f565b600080546001600160a01b038381166001600160a01b0319831681178455604051919092169283917f8be0079c531659141344cd1fd0a4f28419497f9722a3daafe3b4186f6b6457e09190a35050565b6001600160a01b038216620001175760405162461bcd60e51b815260206004820152601560248201527f52454c415945525f4558454355544f525f5a45524f000000000000000000000060448201526064015b60405180910390fd5b6001600160a01b038216600081815260026020908152604091829020805460ff191685151590811790915591519182527f278b09622564dd3991fe7744514513d64ea2c8ed2b2b9ec1150ad964fde80a99910160405180910390a25050565b6001600160a01b038116620001ce5760405162461bcd60e51b815260206004820152601660248201527f52454c415945525f434f4c4c4543544f525f5a45524f0000000000000000000060448201526064016200010e565b600180546001600160a01b0319166001600160a01b0383169081179091556040517fc0021c55037758881ecb38510bbc7a75898649236006215fa3ee18e3ac8c718e90600090a250565b80516001600160a01b03811681146200023057600080fd5b919050565b6000806000606084860312156200024b57600080fd5b620002568462000218565b9250620002666020850162000218565b9150620002766040850162000218565b90509250925092565b611ec4806200028f6000396000f3fe6080604052600436106101445760003560e01c8063715018a6116100c0578063d581ae9311610074578063dc9fc0d211610059578063dc9fc0d2146103d7578063f2fde38b146103f7578063f46ca4e41461041757600080fd5b8063d581ae931461037d578063d6291234146103aa57600080fd5b80638da5cb5b116100a55780638da5cb5b14610312578063b31208531461033d578063d05c2c941461035d57600080fd5b8063715018a6146102bd5780637d701102146102d257600080fd5b80633738ea521161011757806347e7ef24116100fc57806347e7ef241461026a578063586171a01461027d5780636ccae0541461029d57600080fd5b80633738ea5214610233578063389aa3421461025357600080fd5b8063151ac3a81461014957806316f91b8f146101895780631e1bff3f146101f15780632e1a7d4d14610213575b600080fd5b34801561015557600080fd5b50610176610164366004611902565b60056020526000908152604090205481565b6040519081526020015b60405180910390f35b34801561019557600080fd5b506101cc6101a4366004611902565b60046020526000908152604090205473ffffffffffffffffffffffffffffffffffffffff1681565b60405173ffffffffffffffffffffffffffffffffffffffff9091168152602001610180565b3480156101fd57600080fd5b5061021161020c36600461193d565b610444565b005b34801561021f57600080fd5b5061021161022e366004611976565b61045a565b34801561023f57600080fd5b5061021161024e36600461198f565b6105b4565b34801561025f57600080fd5b506101766201117081565b6102116102783660046119bd565b61069b565b34801561028957600080fd5b506101cc610298366004611902565b610794565b3480156102a957600080fd5b506102116102b83660046119e9565b6107ea565b3480156102c957600080fd5b50610211610995565b3480156102de57600080fd5b506103026102ed366004611902565b60026020526000908152604090205460ff1681565b6040519015158152602001610180565b34801561031e57600080fd5b5060005473ffffffffffffffffffffffffffffffffffffffff166101cc565b34801561034957600080fd5b50610211610358366004611902565b6109a9565b34801561036957600080fd5b50610211610378366004611bd3565b6109bd565b34801561038957600080fd5b50610176610398366004611902565b60036020526000908152604090205481565b3480156103b657600080fd5b506101766103c5366004611902565b60066020526000908152604090205481565b3480156103e357600080fd5b506102116103f23660046119bd565b610eb0565b34801561040357600080fd5b50610211610412366004611902565b610f1e565b34801561042357600080fd5b506001546101cc9073ffffffffffffffffffffffffffffffffffffffff1681565b61044c610fb8565b610456828261101f565b5050565b33600090815260036020526040902054808211156104bf5760405162461bcd60e51b815260206004820152601e60248201527f52454c415945525f534d4152545f5641554c545f4e4f5f42414c414e4345000060448201526064015b60405180910390fd5b6104c98282611cd4565b33600081815260036020526040908190209290925590517f7084f5476618d8e60b11ef0d7d3f06914655adb8793e28ff7f018d4c76d505d59061050f9085815260200190565b60405180910390a2604051600090339084908381818185875af1925050503d8060008114610559576040519150601f19603f3d011682016040523d82523d6000602084013e61055e565b606091505b50509050806105af5760405162461bcd60e51b815260206004820152601760248201527f52454c415945525f57495448445241575f4641494c454400000000000000000060448201526064016104b6565b505050565b6105bc610fb8565b73ffffffffffffffffffffffffffffffffffffffff811661061f5760405162461bcd60e51b815260206004820152601660248201527f52454c415945525f434f4c4c4543544f525f5a45524f0000000000000000000060448201526064016104b6565b73ffffffffffffffffffffffffffffffffffffffff82811660008181526004602052604080822080547fffffffffffffffffffffffff0000000000000000000000000000000000000000169486169485179055517f0d446d315256b8ce0010028b95bcdb8f8ff5534f0a7546c573296f8d8ccfeab79190a35050565b8034146106ea5760405162461bcd60e51b815260206004820152601e60248201527f52454c415945525f4445504f5349545f494e56414c49445f414d4f554e54000060448201526064016104b6565b60006106f68383611105565b905060006107048284611cd4565b73ffffffffffffffffffffffffffffffffffffffff851660009081526003602052604081208054929350839290919061073e908490611ce7565b909155505060405181815273ffffffffffffffffffffffffffffffffffffffff8516907f2da466a7b24304f47e87fa2e1e5a81b9831ce54fec19055ce277ca2f39ba42c49060200160405180910390a250505050565b73ffffffffffffffffffffffffffffffffffffffff808216600090815260046020526040812054909116806107e15760015473ffffffffffffffffffffffffffffffffffffffff166107e3565b805b9392505050565b6107f2610fb8565b73ffffffffffffffffffffffffffffffffffffffff83166108555760405162461bcd60e51b815260206004820152601f60248201527f52454c415945525f4558545f57495448445241575f544f4b454e5f5a45524f0060448201526064016104b6565b73ffffffffffffffffffffffffffffffffffffffff82166108b85760405162461bcd60e51b815260206004820152601e60248201527f52454c415945525f4558545f57495448445241575f444553545f5a45524f000060448201526064016104b6565b600081116109085760405162461bcd60e51b815260206004820181905260248201527f52454c415945525f4558545f57495448445241575f414d4f554e545f5a45524f60448201526064016104b6565b61092973ffffffffffffffffffffffffffffffffffffffff841683836111fe565b8173ffffffffffffffffffffffffffffffffffffffff168373ffffffffffffffffffffffffffffffffffffffff167fed2837b80b3489773c5f1ed30dd2884b4c90dbf7b87428ea03c49b24ef59a8058360405161098891815260200190565b60405180910390a3505050565b61099d610fb8565b6109a7600061128b565b565b6109b1610fb8565b6109ba81611300565b50565b3360009081526002602052604090205460ff16610a1c5760405162461bcd60e51b815260206004820152601c60248201527f52454c415945525f4558454355544f525f4e4f545f414c4c4f5745440000000060448201526064016104b6565b6000835111610a6d5760405162461bcd60e51b815260206004820152601860248201527f52454c415945525f455845435554455f4e4f5f494e505554000000000000000060448201526064016104b6565b8151835114610abe5760405162461bcd60e51b815260206004820181905260248201527f52454c415945525f455845435554455f494e5055545f4241445f4c454e47544860448201526064016104b6565b6000620111709050600084600081518110610adb57610adb611cfa565b602002602001015173ffffffffffffffffffffffffffffffffffffffff16634fd49efd6040518163ffffffff1660e01b8152600401602060405180830381865afa158015610b2d573d6000803e3d6000fd5b505050506040513d601f19601f82011682018060405250810190610b519190611d29565b905060005b8551811015610e8f5760005a90506000878381518110610b7857610b78611cfa565b602002602001015190508373ffffffffffffffffffffffffffffffffffffffff168173ffffffffffffffffffffffffffffffffffffffff16634fd49efd6040518163ffffffff1660e01b8152600401602060405180830381865afa158015610be4573d6000803e3d6000fd5b505050506040513d601f19601f82011682018060405250810190610c089190611d29565b73ffffffffffffffffffffffffffffffffffffffff1614610c6b5760405162461bcd60e51b815260206004820181905260248201527f52454c415945525f494e56414c49445f5441534b5f534d4152545f5641554c5460448201526064016104b6565b6040517f1ffa27f900000000000000000000000000000000000000000000000000000000815273ffffffffffffffffffffffffffffffffffffffff8281166004830152851690631ffa27f990602401602060405180830381865afa158015610cd7573d6000803e3d6000fd5b505050506040513d601f19601f82011682018060405250810190610cfb9190611d46565b610d475760405162461bcd60e51b815260206004820181905260248201527f52454c415945525f494e56414c49445f5441534b5f5045524d495353494f4e5360448201526064016104b6565b6000878481518110610d5b57610d5b611cfa565b602002602001015190506000808373ffffffffffffffffffffffffffffffffffffffff1683604051610d8d9190611d87565b6000604051808303816000865af19150503d8060008114610dca576040519150601f19603f3d011682016040523d82523d6000602084013e610dcf565b606091505b509150915060005a610de19087611cd4565b9050610ded818a611ce7565b98508473ffffffffffffffffffffffffffffffffffffffff168873ffffffffffffffffffffffffffffffffffffffff167f53d5ddd284d395653a89312398f6289f839b6a1614064eaed6fe0bc99b64e85a86868686604051610e529493929190611ded565b60405180910390a382158015610e66575089155b15610e7657505050505050610e8f565b5050505050508080610e8790611e2c565b915050610b56565b506000610e9c3a84611e64565b9050610ea882826113d2565b505050505050565b610eb8610fb8565b73ffffffffffffffffffffffffffffffffffffffff821660008181526005602052604090819020839055517fac2d1a21b245ceb74d21ba8d4bbe0ae6d14473563f17aae4958afe3253ed603f90610f129084815260200190565b60405180910390a25050565b610f26610fb8565b73ffffffffffffffffffffffffffffffffffffffff8116610faf5760405162461bcd60e51b815260206004820152602660248201527f4f776e61626c653a206e6577206f776e657220697320746865207a65726f206160448201527f646472657373000000000000000000000000000000000000000000000000000060648201526084016104b6565b6109ba8161128b565b60005473ffffffffffffffffffffffffffffffffffffffff1633146109a75760405162461bcd60e51b815260206004820181905260248201527f4f776e61626c653a2063616c6c6572206973206e6f7420746865206f776e657260448201526064016104b6565b73ffffffffffffffffffffffffffffffffffffffff82166110825760405162461bcd60e51b815260206004820152601560248201527f52454c415945525f4558454355544f525f5a45524f000000000000000000000060448201526064016104b6565b73ffffffffffffffffffffffffffffffffffffffff821660008181526002602090815260409182902080547fffffffffffffffffffffffffffffffffffffffffffffffffffffffffffffff001685151590811790915591519182527f278b09622564dd3991fe7744514513d64ea2c8ed2b2b9ec1150ad964fde80a999101610f12565b73ffffffffffffffffffffffffffffffffffffffff821660009081526006602052604081205480820361113c5760009150506111f8565b808311156111725773ffffffffffffffffffffffffffffffffffffffff84166000908152600660205260408120559050806111a6565b61117c8382611cd4565b73ffffffffffffffffffffffffffffffffffffffff85166000908152600660205260409020558291505b8373ffffffffffffffffffffffffffffffffffffffff167fadde402c2cbae39776ebbb17c3619b0df48792f0ae294012433667cc4f30aa90836040516111ee91815260200190565b60405180910390a2505b92915050565b6040805173ffffffffffffffffffffffffffffffffffffffff8416602482015260448082018490528251808303909101815260649091019091526020810180517bffffffffffffffffffffffffffffffffffffffffffffffffffffffff167fa9059cbb000000000000000000000000000000000000000000000000000000001790526105af90849061163c565b6000805473ffffffffffffffffffffffffffffffffffffffff8381167fffffffffffffffffffffffff0000000000000000000000000000000000000000831681178455604051919092169283917f8be0079c531659141344cd1fd0a4f28419497f9722a3daafe3b4186f6b6457e09190a35050565b73ffffffffffffffffffffffffffffffffffffffff81166113635760405162461bcd60e51b815260206004820152601660248201527f52454c415945525f434f4c4c4543544f525f5a45524f0000000000000000000060448201526064016104b6565b600180547fffffffffffffffffffffffff00000000000000000000000000000000000000001673ffffffffffffffffffffffffffffffffffffffff83169081179091556040517fc0021c55037758881ecb38510bbc7a75898649236006215fa3ee18e3ac8c718e90600090a250565b73ffffffffffffffffffffffffffffffffffffffff82166000908152600360209081526040808320546005835281842054600690935290832054909282821015611425576114208284611cd4565b611428565b60005b90506114348185611ce7565b8511156114835760405162461bcd60e51b815260206004820152601e60248201527f52454c415945525f534d4152545f5641554c545f4e4f5f42414c414e4345000060448201526064016104b6565b60008585106114c1576114968686611cd4565b73ffffffffffffffffffffffffffffffffffffffff8816600090815260036020526040902055611524565b6114cb8587611cd4565b73ffffffffffffffffffffffffffffffffffffffff881660009081526003602052604081205590506114fd8184611ce7565b73ffffffffffffffffffffffffffffffffffffffff88166000908152600660205260409020555b600061152f88610794565b73ffffffffffffffffffffffffffffffffffffffff1661154f8389611cd4565b604051600081818185875af1925050503d806000811461158b576040519150601f19603f3d011682016040523d82523d6000602084013e611590565b606091505b50509050806115e15760405162461bcd60e51b815260206004820152601d60248201527f52454c415945525f434f4c4c4543544f525f53454e445f4641494c454400000060448201526064016104b6565b604080518881526020810184905273ffffffffffffffffffffffffffffffffffffffff8a16917fc34a4660c18505a3cc0299553e73cd78f1de9b3ae9714a1dddd2fea59fa50f8f910160405180910390a25050505050505050565b600061169e826040518060400160405280602081526020017f5361666545524332303a206c6f772d6c6576656c2063616c6c206661696c65648152508573ffffffffffffffffffffffffffffffffffffffff1661172e9092919063ffffffff16565b8051909150156105af57808060200190518101906116bc9190611d46565b6105af5760405162461bcd60e51b815260206004820152602a60248201527f5361666545524332303a204552433230206f7065726174696f6e20646964206e60448201527f6f7420737563636565640000000000000000000000000000000000000000000060648201526084016104b6565b606061173d8484600085611745565b949350505050565b6060824710156117bd5760405162461bcd60e51b815260206004820152602660248201527f416464726573733a20696e73756666696369656e742062616c616e636520666f60448201527f722063616c6c000000000000000000000000000000000000000000000000000060648201526084016104b6565b73ffffffffffffffffffffffffffffffffffffffff85163b6118215760405162461bcd60e51b815260206004820152601d60248201527f416464726573733a2063616c6c20746f206e6f6e2d636f6e747261637400000060448201526064016104b6565b6000808673ffffffffffffffffffffffffffffffffffffffff16858760405161184a9190611d87565b60006040518083038185875af1925050503d8060008114611887576040519150601f19603f3d011682016040523d82523d6000602084013e61188c565b606091505b509150915061189c8282866118a7565b979650505050505050565b606083156118b65750816107e3565b8251156118c65782518084602001fd5b8160405162461bcd60e51b81526004016104b69190611e7b565b73ffffffffffffffffffffffffffffffffffffffff811681146109ba57600080fd5b60006020828403121561191457600080fd5b81356107e3816118e0565b80151581146109ba57600080fd5b80356119388161191f565b919050565b6000806040838503121561195057600080fd5b823561195b816118e0565b9150602083013561196b8161191f565b809150509250929050565b60006020828403121561198857600080fd5b5035919050565b600080604083850312156119a257600080fd5b82356119ad816118e0565b9150602083013561196b816118e0565b600080604083850312156119d057600080fd5b82356119db816118e0565b946020939093013593505050565b6000806000606084860312156119fe57600080fd5b8335611a09816118e0565b92506020840135611a19816118e0565b929592945050506040919091013590565b7f4e487b7100000000000000000000000000000000000000000000000000000000600052604160045260246000fd5b604051601f82017fffffffffffffffffffffffffffffffffffffffffffffffffffffffffffffffe016810167ffffffffffffffff81118282101715611aa057611aa0611a2a565b604052919050565b600067ffffffffffffffff821115611ac257611ac2611a2a565b5060051b60200190565b6000601f8381840112611ade57600080fd5b82356020611af3611aee83611aa8565b611a59565b82815260059290921b85018101918181019087841115611b1257600080fd5b8287015b84811015611bc757803567ffffffffffffffff80821115611b375760008081fd5b818a0191508a603f830112611b4c5760008081fd5b85820135604082821115611b6257611b62611a2a565b611b91887fffffffffffffffffffffffffffffffffffffffffffffffffffffffffffffffe08c85011601611a59565b92508183528c81838601011115611ba85760008081fd5b8181850189850137506000908201870152845250918301918301611b16565b50979650505050505050565b600080600060608486031215611be857600080fd5b833567ffffffffffffffff80821115611c0057600080fd5b818601915086601f830112611c1457600080fd5b81356020611c24611aee83611aa8565b82815260059290921b8401810191818101908a841115611c4357600080fd5b948201945b83861015611c6a578535611c5b816118e0565b82529482019490820190611c48565b97505087013592505080821115611c8057600080fd5b50611c8d86828701611acc565b925050611c9c6040850161192d565b90509250925092565b7f4e487b7100000000000000000000000000000000000000000000000000000000600052601160045260246000fd5b818103818111156111f8576111f8611ca5565b808201808211156111f8576111f8611ca5565b7f4e487b7100000000000000000000000000000000000000000000000000000000600052603260045260246000fd5b600060208284031215611d3b57600080fd5b81516107e3816118e0565b600060208284031215611d5857600080fd5b81516107e38161191f565b60005b83811015611d7e578181015183820152602001611d66565b50506000910152565b60008251611d99818460208701611d63565b9190910192915050565b60008151808452611dbb816020860160208601611d63565b601f017fffffffffffffffffffffffffffffffffffffffffffffffffffffffffffffffe0169290920160200192915050565b608081526000611e006080830187611da3565b85151560208401528281036040840152611e1a8186611da3565b91505082606083015295945050505050565b60007fffffffffffffffffffffffffffffffffffffffffffffffffffffffffffffffff8203611e5d57611e5d611ca5565b5060010190565b80820281158282048414176111f8576111f8611ca5565b6020815260006107e36020830184611da356fea2646970667358221220dd41a002dc1342570505d9d3d15a5bebb88b045a9896636bed0a3240d0d1d1da64736f6c63430008110033","opcodes":"PUSH1 0x80 PUSH1 0x40 MSTORE CALLVALUE DUP1 ISZERO PUSH3 0x11 JUMPI PUSH1 0x0 DUP1 REVERT JUMPDEST POP PUSH1 0x40 MLOAD PUSH3 0x2153 CODESIZE SUB DUP1 PUSH3 0x2153 DUP4 CODECOPY DUP2 ADD PUSH1 0x40 DUP2 SWAP1 MSTORE PUSH3 0x34 SWAP2 PUSH3 0x235 JUMP JUMPDEST PUSH3 0x3F CALLER PUSH3 0x6B JUMP JUMPDEST PUSH3 0x4C DUP4 PUSH1 0x1 PUSH3 0xBB JUMP JUMPDEST PUSH3 0x57 DUP3 PUSH3 0x176 JUMP JUMPDEST PUSH3 0x62 DUP2 PUSH3 0x6B JUMP JUMPDEST POP POP POP PUSH3 0x27F JUMP JUMPDEST PUSH1 0x0 DUP1 SLOAD PUSH1 0x1 PUSH1 0x1 PUSH1 0xA0 SHL SUB DUP4 DUP2 AND PUSH1 0x1 PUSH1 0x1 PUSH1 0xA0 SHL SUB NOT DUP4 AND DUP2 OR DUP5 SSTORE PUSH1 0x40 MLOAD SWAP2 SWAP1 SWAP3 AND SWAP3 DUP4 SWAP2 PUSH32 0x8BE0079C531659141344CD1FD0A4F28419497F9722A3DAAFE3B4186F6B6457E0 SWAP2 SWAP1 LOG3 POP POP JUMP JUMPDEST PUSH1 0x1 PUSH1 0x1 PUSH1 0xA0 SHL SUB DUP3 AND PUSH3 0x117 JUMPI PUSH1 0x40 MLOAD PUSH3 0x461BCD PUSH1 0xE5 SHL DUP2 MSTORE PUSH1 0x20 PUSH1 0x4 DUP3 ADD MSTORE PUSH1 0x15 PUSH1 0x24 DUP3 ADD MSTORE PUSH32 0x52454C415945525F4558454355544F525F5A45524F0000000000000000000000 PUSH1 0x44 DUP3 ADD MSTORE PUSH1 0x64 ADD JUMPDEST PUSH1 0x40 MLOAD DUP1 SWAP2 SUB SWAP1 REVERT JUMPDEST PUSH1 0x1 PUSH1 0x1 PUSH1 0xA0 SHL SUB DUP3 AND PUSH1 0x0 DUP2 DUP2 MSTORE PUSH1 0x2 PUSH1 0x20 SWAP1 DUP2 MSTORE PUSH1 0x40 SWAP2 DUP3 SWAP1 KECCAK256 DUP1 SLOAD PUSH1 0xFF NOT AND DUP6 ISZERO ISZERO SWAP1 DUP2 OR SWAP1 SWAP2 SSTORE SWAP2 MLOAD SWAP2 DUP3 MSTORE PUSH32 0x278B09622564DD3991FE7744514513D64EA2C8ED2B2B9EC1150AD964FDE80A99 SWAP2 ADD PUSH1 0x40 MLOAD DUP1 SWAP2 SUB SWAP1 LOG2 POP POP JUMP JUMPDEST PUSH1 0x1 PUSH1 0x1 PUSH1 0xA0 SHL SUB DUP2 AND PUSH3 0x1CE JUMPI PUSH1 0x40 MLOAD PUSH3 0x461BCD PUSH1 0xE5 SHL DUP2 MSTORE PUSH1 0x20 PUSH1 0x4 DUP3 ADD MSTORE PUSH1 0x16 PUSH1 0x24 DUP3 ADD MSTORE PUSH32 0x52454C415945525F434F4C4C4543544F525F5A45524F00000000000000000000 PUSH1 0x44 DUP3 ADD MSTORE PUSH1 0x64 ADD PUSH3 0x10E JUMP JUMPDEST PUSH1 0x1 DUP1 SLOAD PUSH1 0x1 PUSH1 0x1 PUSH1 0xA0 SHL SUB NOT AND PUSH1 0x1 PUSH1 0x1 PUSH1 0xA0 SHL SUB DUP4 AND SWAP1 DUP2 OR SWAP1 SWAP2 SSTORE PUSH1 0x40 MLOAD PUSH32 0xC0021C55037758881ECB38510BBC7A75898649236006215FA3EE18E3AC8C718E SWAP1 PUSH1 0x0 SWAP1 LOG2 POP JUMP JUMPDEST DUP1 MLOAD PUSH1 0x1 PUSH1 0x1 PUSH1 0xA0 SHL SUB DUP2 AND DUP2 EQ PUSH3 0x230 JUMPI PUSH1 0x0 DUP1 REVERT JUMPDEST SWAP2 SWAP1 POP JUMP JUMPDEST PUSH1 0x0 DUP1 PUSH1 0x0 PUSH1 0x60 DUP5 DUP7 SUB SLT ISZERO PUSH3 0x24B JUMPI PUSH1 0x0 DUP1 REVERT JUMPDEST PUSH3 0x256 DUP5 PUSH3 0x218 JUMP JUMPDEST SWAP3 POP PUSH3 0x266 PUSH1 0x20 DUP6 ADD PUSH3 0x218 JUMP JUMPDEST SWAP2 POP PUSH3 0x276 PUSH1 0x40 DUP6 ADD PUSH3 0x218 JUMP JUMPDEST SWAP1 POP SWAP3 POP SWAP3 POP SWAP3 JUMP JUMPDEST PUSH2 0x1EC4 DUP1 PUSH3 0x28F PUSH1 0x0 CODECOPY PUSH1 0x0 RETURN INVALID PUSH1 0x80 PUSH1 0x40 MSTORE PUSH1 0x4 CALLDATASIZE LT PUSH2 0x144 JUMPI PUSH1 0x0 CALLDATALOAD PUSH1 0xE0 SHR DUP1 PUSH4 0x715018A6 GT PUSH2 0xC0 JUMPI DUP1 PUSH4 0xD581AE93 GT PUSH2 0x74 JUMPI DUP1 PUSH4 0xDC9FC0D2 GT PUSH2 0x59 JUMPI DUP1 PUSH4 0xDC9FC0D2 EQ PUSH2 0x3D7 JUMPI DUP1 PUSH4 0xF2FDE38B EQ PUSH2 0x3F7 JUMPI DUP1 PUSH4 0xF46CA4E4 EQ PUSH2 0x417 JUMPI PUSH1 0x0 DUP1 REVERT JUMPDEST DUP1 PUSH4 0xD581AE93 EQ PUSH2 0x37D JUMPI DUP1 PUSH4 0xD6291234 EQ PUSH2 0x3AA JUMPI PUSH1 0x0 DUP1 REVERT JUMPDEST DUP1 PUSH4 0x8DA5CB5B GT PUSH2 0xA5 JUMPI DUP1 PUSH4 0x8DA5CB5B EQ PUSH2 0x312 JUMPI DUP1 PUSH4 0xB3120853 EQ PUSH2 0x33D JUMPI DUP1 PUSH4 0xD05C2C94 EQ PUSH2 0x35D JUMPI PUSH1 0x0 DUP1 REVERT JUMPDEST DUP1 PUSH4 0x715018A6 EQ PUSH2 0x2BD JUMPI DUP1 PUSH4 0x7D701102 EQ PUSH2 0x2D2 JUMPI PUSH1 0x0 DUP1 REVERT JUMPDEST DUP1 PUSH4 0x3738EA52 GT PUSH2 0x117 JUMPI DUP1 PUSH4 0x47E7EF24 GT PUSH2 0xFC JUMPI DUP1 PUSH4 0x47E7EF24 EQ PUSH2 0x26A JUMPI DUP1 PUSH4 0x586171A0 EQ PUSH2 0x27D JUMPI DUP1 PUSH4 0x6CCAE054 EQ PUSH2 0x29D JUMPI PUSH1 0x0 DUP1 REVERT JUMPDEST DUP1 PUSH4 0x3738EA52 EQ PUSH2 0x233 JUMPI DUP1 PUSH4 0x389AA342 EQ PUSH2 0x253 JUMPI PUSH1 0x0 DUP1 REVERT JUMPDEST DUP1 PUSH4 0x151AC3A8 EQ PUSH2 0x149 JUMPI DUP1 PUSH4 0x16F91B8F EQ PUSH2 0x189 JUMPI DUP1 PUSH4 0x1E1BFF3F EQ PUSH2 0x1F1 JUMPI DUP1 PUSH4 0x2E1A7D4D EQ PUSH2 0x213 JUMPI JUMPDEST PUSH1 0x0 DUP1 REVERT JUMPDEST CALLVALUE DUP1 ISZERO PUSH2 0x155 JUMPI PUSH1 0x0 DUP1 REVERT JUMPDEST POP PUSH2 0x176 PUSH2 0x164 CALLDATASIZE PUSH1 0x4 PUSH2 0x1902 JUMP JUMPDEST PUSH1 0x5 PUSH1 0x20 MSTORE PUSH1 0x0 SWAP1 DUP2 MSTORE PUSH1 0x40 SWAP1 KECCAK256 SLOAD DUP2 JUMP JUMPDEST PUSH1 0x40 MLOAD SWAP1 DUP2 MSTORE PUSH1 0x20 ADD JUMPDEST PUSH1 0x40 MLOAD DUP1 SWAP2 SUB SWAP1 RETURN JUMPDEST CALLVALUE DUP1 ISZERO PUSH2 0x195 JUMPI PUSH1 0x0 DUP1 REVERT JUMPDEST POP PUSH2 0x1CC PUSH2 0x1A4 CALLDATASIZE PUSH1 0x4 PUSH2 0x1902 JUMP JUMPDEST PUSH1 0x4 PUSH1 0x20 MSTORE PUSH1 0x0 SWAP1 DUP2 MSTORE PUSH1 0x40 SWAP1 KECCAK256 SLOAD PUSH20 0xFFFFFFFFFFFFFFFFFFFFFFFFFFFFFFFFFFFFFFFF AND DUP2 JUMP JUMPDEST PUSH1 0x40 MLOAD PUSH20 0xFFFFFFFFFFFFFFFFFFFFFFFFFFFFFFFFFFFFFFFF SWAP1 SWAP2 AND DUP2 MSTORE PUSH1 0x20 ADD PUSH2 0x180 JUMP JUMPDEST CALLVALUE DUP1 ISZERO PUSH2 0x1FD JUMPI PUSH1 0x0 DUP1 REVERT JUMPDEST POP PUSH2 0x211 PUSH2 0x20C CALLDATASIZE PUSH1 0x4 PUSH2 0x193D JUMP JUMPDEST PUSH2 0x444 JUMP JUMPDEST STOP JUMPDEST CALLVALUE DUP1 ISZERO PUSH2 0x21F JUMPI PUSH1 0x0 DUP1 REVERT JUMPDEST POP PUSH2 0x211 PUSH2 0x22E CALLDATASIZE PUSH1 0x4 PUSH2 0x1976 JUMP JUMPDEST PUSH2 0x45A JUMP JUMPDEST CALLVALUE DUP1 ISZERO PUSH2 0x23F JUMPI PUSH1 0x0 DUP1 REVERT JUMPDEST POP PUSH2 0x211 PUSH2 0x24E CALLDATASIZE PUSH1 0x4 PUSH2 0x198F JUMP JUMPDEST PUSH2 0x5B4 JUMP JUMPDEST CALLVALUE DUP1 ISZERO PUSH2 0x25F JUMPI PUSH1 0x0 DUP1 REVERT JUMPDEST POP PUSH2 0x176 PUSH3 0x11170 DUP2 JUMP JUMPDEST PUSH2 0x211 PUSH2 0x278 CALLDATASIZE PUSH1 0x4 PUSH2 0x19BD JUMP JUMPDEST PUSH2 0x69B JUMP JUMPDEST CALLVALUE DUP1 ISZERO PUSH2 0x289 JUMPI PUSH1 0x0 DUP1 REVERT JUMPDEST POP PUSH2 0x1CC PUSH2 0x298 CALLDATASIZE PUSH1 0x4 PUSH2 0x1902 JUMP JUMPDEST PUSH2 0x794 JUMP JUMPDEST CALLVALUE DUP1 ISZERO PUSH2 0x2A9 JUMPI PUSH1 0x0 DUP1 REVERT JUMPDEST POP PUSH2 0x211 PUSH2 0x2B8 CALLDATASIZE PUSH1 0x4 PUSH2 0x19E9 JUMP JUMPDEST PUSH2 0x7EA JUMP JUMPDEST CALLVALUE DUP1 ISZERO PUSH2 0x2C9 JUMPI PUSH1 0x0 DUP1 REVERT JUMPDEST POP PUSH2 0x211 PUSH2 0x995 JUMP JUMPDEST CALLVALUE DUP1 ISZERO PUSH2 0x2DE JUMPI PUSH1 0x0 DUP1 REVERT JUMPDEST POP PUSH2 0x302 PUSH2 0x2ED CALLDATASIZE PUSH1 0x4 PUSH2 0x1902 JUMP JUMPDEST PUSH1 0x2 PUSH1 0x20 MSTORE PUSH1 0x0 SWAP1 DUP2 MSTORE PUSH1 0x40 SWAP1 KECCAK256 SLOAD PUSH1 0xFF AND DUP2 JUMP JUMPDEST PUSH1 0x40 MLOAD SWAP1 ISZERO ISZERO DUP2 MSTORE PUSH1 0x20 ADD PUSH2 0x180 JUMP JUMPDEST CALLVALUE DUP1 ISZERO PUSH2 0x31E JUMPI PUSH1 0x0 DUP1 REVERT JUMPDEST POP PUSH1 0x0 SLOAD PUSH20 0xFFFFFFFFFFFFFFFFFFFFFFFFFFFFFFFFFFFFFFFF AND PUSH2 0x1CC JUMP JUMPDEST CALLVALUE DUP1 ISZERO PUSH2 0x349 JUMPI PUSH1 0x0 DUP1 REVERT JUMPDEST POP PUSH2 0x211 PUSH2 0x358 CALLDATASIZE PUSH1 0x4 PUSH2 0x1902 JUMP JUMPDEST PUSH2 0x9A9 JUMP JUMPDEST CALLVALUE DUP1 ISZERO PUSH2 0x369 JUMPI PUSH1 0x0 DUP1 REVERT JUMPDEST POP PUSH2 0x211 PUSH2 0x378 CALLDATASIZE PUSH1 0x4 PUSH2 0x1BD3 JUMP JUMPDEST PUSH2 0x9BD JUMP JUMPDEST CALLVALUE DUP1 ISZERO PUSH2 0x389 JUMPI PUSH1 0x0 DUP1 REVERT JUMPDEST POP PUSH2 0x176 PUSH2 0x398 CALLDATASIZE PUSH1 0x4 PUSH2 0x1902 JUMP JUMPDEST PUSH1 0x3 PUSH1 0x20 MSTORE PUSH1 0x0 SWAP1 DUP2 MSTORE PUSH1 0x40 SWAP1 KECCAK256 SLOAD DUP2 JUMP JUMPDEST CALLVALUE DUP1 ISZERO PUSH2 0x3B6 JUMPI PUSH1 0x0 DUP1 REVERT JUMPDEST POP PUSH2 0x176 PUSH2 0x3C5 CALLDATASIZE PUSH1 0x4 PUSH2 0x1902 JUMP JUMPDEST PUSH1 0x6 PUSH1 0x20 MSTORE PUSH1 0x0 SWAP1 DUP2 MSTORE PUSH1 0x40 SWAP1 KECCAK256 SLOAD DUP2 JUMP JUMPDEST CALLVALUE DUP1 ISZERO PUSH2 0x3E3 JUMPI PUSH1 0x0 DUP1 REVERT JUMPDEST POP PUSH2 0x211 PUSH2 0x3F2 CALLDATASIZE PUSH1 0x4 PUSH2 0x19BD JUMP JUMPDEST PUSH2 0xEB0 JUMP JUMPDEST CALLVALUE DUP1 ISZERO PUSH2 0x403 JUMPI PUSH1 0x0 DUP1 REVERT JUMPDEST POP PUSH2 0x211 PUSH2 0x412 CALLDATASIZE PUSH1 0x4 PUSH2 0x1902 JUMP JUMPDEST PUSH2 0xF1E JUMP JUMPDEST CALLVALUE DUP1 ISZERO PUSH2 0x423 JUMPI PUSH1 0x0 DUP1 REVERT JUMPDEST POP PUSH1 0x1 SLOAD PUSH2 0x1CC SWAP1 PUSH20 0xFFFFFFFFFFFFFFFFFFFFFFFFFFFFFFFFFFFFFFFF AND DUP2 JUMP JUMPDEST PUSH2 0x44C PUSH2 0xFB8 JUMP JUMPDEST PUSH2 0x456 DUP3 DUP3 PUSH2 0x101F JUMP JUMPDEST POP POP JUMP JUMPDEST CALLER PUSH1 0x0 SWAP1 DUP2 MSTORE PUSH1 0x3 PUSH1 0x20 MSTORE PUSH1 0x40 SWAP1 KECCAK256 SLOAD DUP1 DUP3 GT ISZERO PUSH2 0x4BF JUMPI PUSH1 0x40 MLOAD PUSH3 0x461BCD PUSH1 0xE5 SHL DUP2 MSTORE PUSH1 0x20 PUSH1 0x4 DUP3 ADD MSTORE PUSH1 0x1E PUSH1 0x24 DUP3 ADD MSTORE PUSH32 0x52454C415945525F534D4152545F5641554C545F4E4F5F42414C414E43450000 PUSH1 0x44 DUP3 ADD MSTORE PUSH1 0x64 ADD JUMPDEST PUSH1 0x40 MLOAD DUP1 SWAP2 SUB SWAP1 REVERT JUMPDEST PUSH2 0x4C9 DUP3 DUP3 PUSH2 0x1CD4 JUMP JUMPDEST CALLER PUSH1 0x0 DUP2 DUP2 MSTORE PUSH1 0x3 PUSH1 0x20 MSTORE PUSH1 0x40 SWAP1 DUP2 SWAP1 KECCAK256 SWAP3 SWAP1 SWAP3 SSTORE SWAP1 MLOAD PUSH32 0x7084F5476618D8E60B11EF0D7D3F06914655ADB8793E28FF7F018D4C76D505D5 SWAP1 PUSH2 0x50F SWAP1 DUP6 DUP2 MSTORE PUSH1 0x20 ADD SWAP1 JUMP JUMPDEST PUSH1 0x40 MLOAD DUP1 SWAP2 SUB SWAP1 LOG2 PUSH1 0x40 MLOAD PUSH1 0x0 SWAP1 CALLER SWAP1 DUP5 SWAP1 DUP4 DUP2 DUP2 DUP2 DUP6 DUP8 GAS CALL SWAP3 POP POP POP RETURNDATASIZE DUP1 PUSH1 0x0 DUP2 EQ PUSH2 0x559 JUMPI PUSH1 0x40 MLOAD SWAP2 POP PUSH1 0x1F NOT PUSH1 0x3F RETURNDATASIZE ADD AND DUP3 ADD PUSH1 0x40 MSTORE RETURNDATASIZE DUP3 MSTORE RETURNDATASIZE PUSH1 0x0 PUSH1 0x20 DUP5 ADD RETURNDATACOPY PUSH2 0x55E JUMP JUMPDEST PUSH1 0x60 SWAP2 POP JUMPDEST POP POP SWAP1 POP DUP1 PUSH2 0x5AF JUMPI PUSH1 0x40 MLOAD PUSH3 0x461BCD PUSH1 0xE5 SHL DUP2 MSTORE PUSH1 0x20 PUSH1 0x4 DUP3 ADD MSTORE PUSH1 0x17 PUSH1 0x24 DUP3 ADD MSTORE PUSH32 0x52454C415945525F57495448445241575F4641494C4544000000000000000000 PUSH1 0x44 DUP3 ADD MSTORE PUSH1 0x64 ADD PUSH2 0x4B6 JUMP JUMPDEST POP POP POP JUMP JUMPDEST PUSH2 0x5BC PUSH2 0xFB8 JUMP JUMPDEST PUSH20 0xFFFFFFFFFFFFFFFFFFFFFFFFFFFFFFFFFFFFFFFF DUP2 AND PUSH2 0x61F JUMPI PUSH1 0x40 MLOAD PUSH3 0x461BCD PUSH1 0xE5 SHL DUP2 MSTORE PUSH1 0x20 PUSH1 0x4 DUP3 ADD MSTORE PUSH1 0x16 PUSH1 0x24 DUP3 ADD MSTORE PUSH32 0x52454C415945525F434F4C4C4543544F525F5A45524F00000000000000000000 PUSH1 0x44 DUP3 ADD MSTORE PUSH1 0x64 ADD PUSH2 0x4B6 JUMP JUMPDEST PUSH20 0xFFFFFFFFFFFFFFFFFFFFFFFFFFFFFFFFFFFFFFFF DUP3 DUP2 AND PUSH1 0x0 DUP2 DUP2 MSTORE PUSH1 0x4 PUSH1 0x20 MSTORE PUSH1 0x40 DUP1 DUP3 KECCAK256 DUP1 SLOAD PUSH32 0xFFFFFFFFFFFFFFFFFFFFFFFF0000000000000000000000000000000000000000 AND SWAP5 DUP7 AND SWAP5 DUP6 OR SWAP1 SSTORE MLOAD PUSH32 0xD446D315256B8CE0010028B95BCDB8F8FF5534F0A7546C573296F8D8CCFEAB7 SWAP2 SWAP1 LOG3 POP POP JUMP JUMPDEST DUP1 CALLVALUE EQ PUSH2 0x6EA JUMPI PUSH1 0x40 MLOAD PUSH3 0x461BCD PUSH1 0xE5 SHL DUP2 MSTORE PUSH1 0x20 PUSH1 0x4 DUP3 ADD MSTORE PUSH1 0x1E PUSH1 0x24 DUP3 ADD MSTORE PUSH32 0x52454C415945525F4445504F5349545F494E56414C49445F414D4F554E540000 PUSH1 0x44 DUP3 ADD MSTORE PUSH1 0x64 ADD PUSH2 0x4B6 JUMP JUMPDEST PUSH1 0x0 PUSH2 0x6F6 DUP4 DUP4 PUSH2 0x1105 JUMP JUMPDEST SWAP1 POP PUSH1 0x0 PUSH2 0x704 DUP3 DUP5 PUSH2 0x1CD4 JUMP JUMPDEST PUSH20 0xFFFFFFFFFFFFFFFFFFFFFFFFFFFFFFFFFFFFFFFF DUP6 AND PUSH1 0x0 SWAP1 DUP2 MSTORE PUSH1 0x3 PUSH1 0x20 MSTORE PUSH1 0x40 DUP2 KECCAK256 DUP1 SLOAD SWAP3 SWAP4 POP DUP4 SWAP3 SWAP1 SWAP2 SWAP1 PUSH2 0x73E SWAP1 DUP5 SWAP1 PUSH2 0x1CE7 JUMP JUMPDEST SWAP1 SWAP2 SSTORE POP POP PUSH1 0x40 MLOAD DUP2 DUP2 MSTORE PUSH20 0xFFFFFFFFFFFFFFFFFFFFFFFFFFFFFFFFFFFFFFFF DUP6 AND SWAP1 PUSH32 0x2DA466A7B24304F47E87FA2E1E5A81B9831CE54FEC19055CE277CA2F39BA42C4 SWAP1 PUSH1 0x20 ADD PUSH1 0x40 MLOAD DUP1 SWAP2 SUB SWAP1 LOG2 POP POP POP POP JUMP JUMPDEST PUSH20 0xFFFFFFFFFFFFFFFFFFFFFFFFFFFFFFFFFFFFFFFF DUP1 DUP3 AND PUSH1 0x0 SWAP1 DUP2 MSTORE PUSH1 0x4 PUSH1 0x20 MSTORE PUSH1 0x40 DUP2 KECCAK256 SLOAD SWAP1 SWAP2 AND DUP1 PUSH2 0x7E1 JUMPI PUSH1 0x1 SLOAD PUSH20 0xFFFFFFFFFFFFFFFFFFFFFFFFFFFFFFFFFFFFFFFF AND PUSH2 0x7E3 JUMP JUMPDEST DUP1 JUMPDEST SWAP4 SWAP3 POP POP POP JUMP JUMPDEST PUSH2 0x7F2 PUSH2 0xFB8 JUMP JUMPDEST PUSH20 0xFFFFFFFFFFFFFFFFFFFFFFFFFFFFFFFFFFFFFFFF DUP4 AND PUSH2 0x855 JUMPI PUSH1 0x40 MLOAD PUSH3 0x461BCD PUSH1 0xE5 SHL DUP2 MSTORE PUSH1 0x20 PUSH1 0x4 DUP3 ADD MSTORE PUSH1 0x1F PUSH1 0x24 DUP3 ADD MSTORE PUSH32 0x52454C415945525F4558545F57495448445241575F544F4B454E5F5A45524F00 PUSH1 0x44 DUP3 ADD MSTORE PUSH1 0x64 ADD PUSH2 0x4B6 JUMP JUMPDEST PUSH20 0xFFFFFFFFFFFFFFFFFFFFFFFFFFFFFFFFFFFFFFFF DUP3 AND PUSH2 0x8B8 JUMPI PUSH1 0x40 MLOAD PUSH3 0x461BCD PUSH1 0xE5 SHL DUP2 MSTORE PUSH1 0x20 PUSH1 0x4 DUP3 ADD MSTORE PUSH1 0x1E PUSH1 0x24 DUP3 ADD MSTORE PUSH32 0x52454C415945525F4558545F57495448445241575F444553545F5A45524F0000 PUSH1 0x44 DUP3 ADD MSTORE PUSH1 0x64 ADD PUSH2 0x4B6 JUMP JUMPDEST PUSH1 0x0 DUP2 GT PUSH2 0x908 JUMPI PUSH1 0x40 MLOAD PUSH3 0x461BCD PUSH1 0xE5 SHL DUP2 MSTORE PUSH1 0x20 PUSH1 0x4 DUP3 ADD DUP2 SWAP1 MSTORE PUSH1 0x24 DUP3 ADD MSTORE PUSH32 0x52454C415945525F4558545F57495448445241575F414D4F554E545F5A45524F PUSH1 0x44 DUP3 ADD MSTORE PUSH1 0x64 ADD PUSH2 0x4B6 JUMP JUMPDEST PUSH2 0x929 PUSH20 0xFFFFFFFFFFFFFFFFFFFFFFFFFFFFFFFFFFFFFFFF DUP5 AND DUP4 DUP4 PUSH2 0x11FE JUMP JUMPDEST DUP2 PUSH20 0xFFFFFFFFFFFFFFFFFFFFFFFFFFFFFFFFFFFFFFFF AND DUP4 PUSH20 0xFFFFFFFFFFFFFFFFFFFFFFFFFFFFFFFFFFFFFFFF AND PUSH32 0xED2837B80B3489773C5F1ED30DD2884B4C90DBF7B87428EA03C49B24EF59A805 DUP4 PUSH1 0x40 MLOAD PUSH2 0x988 SWAP2 DUP2 MSTORE PUSH1 0x20 ADD SWAP1 JUMP JUMPDEST PUSH1 0x40 MLOAD DUP1 SWAP2 SUB SWAP1 LOG3 POP POP POP JUMP JUMPDEST PUSH2 0x99D PUSH2 0xFB8 JUMP JUMPDEST PUSH2 0x9A7 PUSH1 0x0 PUSH2 0x128B JUMP JUMPDEST JUMP JUMPDEST PUSH2 0x9B1 PUSH2 0xFB8 JUMP JUMPDEST PUSH2 0x9BA DUP2 PUSH2 0x1300 JUMP JUMPDEST POP JUMP JUMPDEST CALLER PUSH1 0x0 SWAP1 DUP2 MSTORE PUSH1 0x2 PUSH1 0x20 MSTORE PUSH1 0x40 SWAP1 KECCAK256 SLOAD PUSH1 0xFF AND PUSH2 0xA1C JUMPI PUSH1 0x40 MLOAD PUSH3 0x461BCD PUSH1 0xE5 SHL DUP2 MSTORE PUSH1 0x20 PUSH1 0x4 DUP3 ADD MSTORE PUSH1 0x1C PUSH1 0x24 DUP3 ADD MSTORE PUSH32 0x52454C415945525F4558454355544F525F4E4F545F414C4C4F57454400000000 PUSH1 0x44 DUP3 ADD MSTORE PUSH1 0x64 ADD PUSH2 0x4B6 JUMP JUMPDEST PUSH1 0x0 DUP4 MLOAD GT PUSH2 0xA6D JUMPI PUSH1 0x40 MLOAD PUSH3 0x461BCD PUSH1 0xE5 SHL DUP2 MSTORE PUSH1 0x20 PUSH1 0x4 DUP3 ADD MSTORE PUSH1 0x18 PUSH1 0x24 DUP3 ADD MSTORE PUSH32 0x52454C415945525F455845435554455F4E4F5F494E5055540000000000000000 PUSH1 0x44 DUP3 ADD MSTORE PUSH1 0x64 ADD PUSH2 0x4B6 JUMP JUMPDEST DUP2 MLOAD DUP4 MLOAD EQ PUSH2 0xABE JUMPI PUSH1 0x40 MLOAD PUSH3 0x461BCD PUSH1 0xE5 SHL DUP2 MSTORE PUSH1 0x20 PUSH1 0x4 DUP3 ADD DUP2 SWAP1 MSTORE PUSH1 0x24 DUP3 ADD MSTORE PUSH32 0x52454C415945525F455845435554455F494E5055545F4241445F4C454E475448 PUSH1 0x44 DUP3 ADD MSTORE PUSH1 0x64 ADD PUSH2 0x4B6 JUMP JUMPDEST PUSH1 0x0 PUSH3 0x11170 SWAP1 POP PUSH1 0x0 DUP5 PUSH1 0x0 DUP2 MLOAD DUP2 LT PUSH2 0xADB JUMPI PUSH2 0xADB PUSH2 0x1CFA JUMP JUMPDEST PUSH1 0x20 MUL PUSH1 0x20 ADD ADD MLOAD PUSH20 0xFFFFFFFFFFFFFFFFFFFFFFFFFFFFFFFFFFFFFFFF AND PUSH4 0x4FD49EFD PUSH1 0x40 MLOAD DUP2 PUSH4 0xFFFFFFFF AND PUSH1 0xE0 SHL DUP2 MSTORE PUSH1 0x4 ADD PUSH1 0x20 PUSH1 0x40 MLOAD DUP1 DUP4 SUB DUP2 DUP7 GAS STATICCALL ISZERO DUP1 ISZERO PUSH2 0xB2D JUMPI RETURNDATASIZE PUSH1 0x0 DUP1 RETURNDATACOPY RETURNDATASIZE PUSH1 0x0 REVERT JUMPDEST POP POP POP POP PUSH1 0x40 MLOAD RETURNDATASIZE PUSH1 0x1F NOT PUSH1 0x1F DUP3 ADD AND DUP3 ADD DUP1 PUSH1 0x40 MSTORE POP DUP2 ADD SWAP1 PUSH2 0xB51 SWAP2 SWAP1 PUSH2 0x1D29 JUMP JUMPDEST SWAP1 POP PUSH1 0x0 JUMPDEST DUP6 MLOAD DUP2 LT ISZERO PUSH2 0xE8F JUMPI PUSH1 0x0 GAS SWAP1 POP PUSH1 0x0 DUP8 DUP4 DUP2 MLOAD DUP2 LT PUSH2 0xB78 JUMPI PUSH2 0xB78 PUSH2 0x1CFA JUMP JUMPDEST PUSH1 0x20 MUL PUSH1 0x20 ADD ADD MLOAD SWAP1 POP DUP4 PUSH20 0xFFFFFFFFFFFFFFFFFFFFFFFFFFFFFFFFFFFFFFFF AND DUP2 PUSH20 0xFFFFFFFFFFFFFFFFFFFFFFFFFFFFFFFFFFFFFFFF AND PUSH4 0x4FD49EFD PUSH1 0x40 MLOAD DUP2 PUSH4 0xFFFFFFFF AND PUSH1 0xE0 SHL DUP2 MSTORE PUSH1 0x4 ADD PUSH1 0x20 PUSH1 0x40 MLOAD DUP1 DUP4 SUB DUP2 DUP7 GAS STATICCALL ISZERO DUP1 ISZERO PUSH2 0xBE4 JUMPI RETURNDATASIZE PUSH1 0x0 DUP1 RETURNDATACOPY RETURNDATASIZE PUSH1 0x0 REVERT JUMPDEST POP POP POP POP PUSH1 0x40 MLOAD RETURNDATASIZE PUSH1 0x1F NOT PUSH1 0x1F DUP3 ADD AND DUP3 ADD DUP1 PUSH1 0x40 MSTORE POP DUP2 ADD SWAP1 PUSH2 0xC08 SWAP2 SWAP1 PUSH2 0x1D29 JUMP JUMPDEST PUSH20 0xFFFFFFFFFFFFFFFFFFFFFFFFFFFFFFFFFFFFFFFF AND EQ PUSH2 0xC6B JUMPI PUSH1 0x40 MLOAD PUSH3 0x461BCD PUSH1 0xE5 SHL DUP2 MSTORE PUSH1 0x20 PUSH1 0x4 DUP3 ADD DUP2 SWAP1 MSTORE PUSH1 0x24 DUP3 ADD MSTORE PUSH32 0x52454C415945525F494E56414C49445F5441534B5F534D4152545F5641554C54 PUSH1 0x44 DUP3 ADD MSTORE PUSH1 0x64 ADD PUSH2 0x4B6 JUMP JUMPDEST PUSH1 0x40 MLOAD PUSH32 0x1FFA27F900000000000000000000000000000000000000000000000000000000 DUP2 MSTORE PUSH20 0xFFFFFFFFFFFFFFFFFFFFFFFFFFFFFFFFFFFFFFFF DUP3 DUP2 AND PUSH1 0x4 DUP4 ADD MSTORE DUP6 AND SWAP1 PUSH4 0x1FFA27F9 SWAP1 PUSH1 0x24 ADD PUSH1 0x20 PUSH1 0x40 MLOAD DUP1 DUP4 SUB DUP2 DUP7 GAS STATICCALL ISZERO DUP1 ISZERO PUSH2 0xCD7 JUMPI RETURNDATASIZE PUSH1 0x0 DUP1 RETURNDATACOPY RETURNDATASIZE PUSH1 0x0 REVERT JUMPDEST POP POP POP POP PUSH1 0x40 MLOAD RETURNDATASIZE PUSH1 0x1F NOT PUSH1 0x1F DUP3 ADD AND DUP3 ADD DUP1 PUSH1 0x40 MSTORE POP DUP2 ADD SWAP1 PUSH2 0xCFB SWAP2 SWAP1 PUSH2 0x1D46 JUMP JUMPDEST PUSH2 0xD47 JUMPI PUSH1 0x40 MLOAD PUSH3 0x461BCD PUSH1 0xE5 SHL DUP2 MSTORE PUSH1 0x20 PUSH1 0x4 DUP3 ADD DUP2 SWAP1 MSTORE PUSH1 0x24 DUP3 ADD MSTORE PUSH32 0x52454C415945525F494E56414C49445F5441534B5F5045524D495353494F4E53 PUSH1 0x44 DUP3 ADD MSTORE PUSH1 0x64 ADD PUSH2 0x4B6 JUMP JUMPDEST PUSH1 0x0 DUP8 DUP5 DUP2 MLOAD DUP2 LT PUSH2 0xD5B JUMPI PUSH2 0xD5B PUSH2 0x1CFA JUMP JUMPDEST PUSH1 0x20 MUL PUSH1 0x20 ADD ADD MLOAD SWAP1 POP PUSH1 0x0 DUP1 DUP4 PUSH20 0xFFFFFFFFFFFFFFFFFFFFFFFFFFFFFFFFFFFFFFFF AND DUP4 PUSH1 0x40 MLOAD PUSH2 0xD8D SWAP2 SWAP1 PUSH2 0x1D87 JUMP JUMPDEST PUSH1 0x0 PUSH1 0x40 MLOAD DUP1 DUP4 SUB DUP2 PUSH1 0x0 DUP7 GAS CALL SWAP2 POP POP RETURNDATASIZE DUP1 PUSH1 0x0 DUP2 EQ PUSH2 0xDCA JUMPI PUSH1 0x40 MLOAD SWAP2 POP PUSH1 0x1F NOT PUSH1 0x3F RETURNDATASIZE ADD AND DUP3 ADD PUSH1 0x40 MSTORE RETURNDATASIZE DUP3 MSTORE RETURNDATASIZE PUSH1 0x0 PUSH1 0x20 DUP5 ADD RETURNDATACOPY PUSH2 0xDCF JUMP JUMPDEST PUSH1 0x60 SWAP2 POP JUMPDEST POP SWAP2 POP SWAP2 POP PUSH1 0x0 GAS PUSH2 0xDE1 SWAP1 DUP8 PUSH2 0x1CD4 JUMP JUMPDEST SWAP1 POP PUSH2 0xDED DUP2 DUP11 PUSH2 0x1CE7 JUMP JUMPDEST SWAP9 POP DUP5 PUSH20 0xFFFFFFFFFFFFFFFFFFFFFFFFFFFFFFFFFFFFFFFF AND DUP9 PUSH20 0xFFFFFFFFFFFFFFFFFFFFFFFFFFFFFFFFFFFFFFFF AND PUSH32 0x53D5DDD284D395653A89312398F6289F839B6A1614064EAED6FE0BC99B64E85A DUP7 DUP7 DUP7 DUP7 PUSH1 0x40 MLOAD PUSH2 0xE52 SWAP5 SWAP4 SWAP3 SWAP2 SWAP1 PUSH2 0x1DED JUMP JUMPDEST PUSH1 0x40 MLOAD DUP1 SWAP2 SUB SWAP1 LOG3 DUP3 ISZERO DUP1 ISZERO PUSH2 0xE66 JUMPI POP DUP10 ISZERO JUMPDEST ISZERO PUSH2 0xE76 JUMPI POP POP POP POP POP POP PUSH2 0xE8F JUMP JUMPDEST POP POP POP POP POP POP DUP1 DUP1 PUSH2 0xE87 SWAP1 PUSH2 0x1E2C JUMP JUMPDEST SWAP2 POP POP PUSH2 0xB56 JUMP JUMPDEST POP PUSH1 0x0 PUSH2 0xE9C GASPRICE DUP5 PUSH2 0x1E64 JUMP JUMPDEST SWAP1 POP PUSH2 0xEA8 DUP3 DUP3 PUSH2 0x13D2 JUMP JUMPDEST POP POP POP POP POP POP JUMP JUMPDEST PUSH2 0xEB8 PUSH2 0xFB8 JUMP JUMPDEST PUSH20 0xFFFFFFFFFFFFFFFFFFFFFFFFFFFFFFFFFFFFFFFF DUP3 AND PUSH1 0x0 DUP2 DUP2 MSTORE PUSH1 0x5 PUSH1 0x20 MSTORE PUSH1 0x40 SWAP1 DUP2 SWAP1 KECCAK256 DUP4 SWAP1 SSTORE MLOAD PUSH32 0xAC2D1A21B245CEB74D21BA8D4BBE0AE6D14473563F17AAE4958AFE3253ED603F SWAP1 PUSH2 0xF12 SWAP1 DUP5 DUP2 MSTORE PUSH1 0x20 ADD SWAP1 JUMP JUMPDEST PUSH1 0x40 MLOAD DUP1 SWAP2 SUB SWAP1 LOG2 POP POP JUMP JUMPDEST PUSH2 0xF26 PUSH2 0xFB8 JUMP JUMPDEST PUSH20 0xFFFFFFFFFFFFFFFFFFFFFFFFFFFFFFFFFFFFFFFF DUP2 AND PUSH2 0xFAF JUMPI PUSH1 0x40 MLOAD PUSH3 0x461BCD PUSH1 0xE5 SHL DUP2 MSTORE PUSH1 0x20 PUSH1 0x4 DUP3 ADD MSTORE PUSH1 0x26 PUSH1 0x24 DUP3 ADD MSTORE PUSH32 0x4F776E61626C653A206E6577206F776E657220697320746865207A65726F2061 PUSH1 0x44 DUP3 ADD MSTORE PUSH32 0x6464726573730000000000000000000000000000000000000000000000000000 PUSH1 0x64 DUP3 ADD MSTORE PUSH1 0x84 ADD PUSH2 0x4B6 JUMP JUMPDEST PUSH2 0x9BA DUP2 PUSH2 0x128B JUMP JUMPDEST PUSH1 0x0 SLOAD PUSH20 0xFFFFFFFFFFFFFFFFFFFFFFFFFFFFFFFFFFFFFFFF AND CALLER EQ PUSH2 0x9A7 JUMPI PUSH1 0x40 MLOAD PUSH3 0x461BCD PUSH1 0xE5 SHL DUP2 MSTORE PUSH1 0x20 PUSH1 0x4 DUP3 ADD DUP2 SWAP1 MSTORE PUSH1 0x24 DUP3 ADD MSTORE PUSH32 0x4F776E61626C653A2063616C6C6572206973206E6F7420746865206F776E6572 PUSH1 0x44 DUP3 ADD MSTORE PUSH1 0x64 ADD PUSH2 0x4B6 JUMP JUMPDEST PUSH20 0xFFFFFFFFFFFFFFFFFFFFFFFFFFFFFFFFFFFFFFFF DUP3 AND PUSH2 0x1082 JUMPI PUSH1 0x40 MLOAD PUSH3 0x461BCD PUSH1 0xE5 SHL DUP2 MSTORE PUSH1 0x20 PUSH1 0x4 DUP3 ADD MSTORE PUSH1 0x15 PUSH1 0x24 DUP3 ADD MSTORE PUSH32 0x52454C415945525F4558454355544F525F5A45524F0000000000000000000000 PUSH1 0x44 DUP3 ADD MSTORE PUSH1 0x64 ADD PUSH2 0x4B6 JUMP JUMPDEST PUSH20 0xFFFFFFFFFFFFFFFFFFFFFFFFFFFFFFFFFFFFFFFF DUP3 AND PUSH1 0x0 DUP2 DUP2 MSTORE PUSH1 0x2 PUSH1 0x20 SWAP1 DUP2 MSTORE PUSH1 0x40 SWAP2 DUP3 SWAP1 KECCAK256 DUP1 SLOAD PUSH32 0xFFFFFFFFFFFFFFFFFFFFFFFFFFFFFFFFFFFFFFFFFFFFFFFFFFFFFFFFFFFFFF00 AND DUP6 ISZERO ISZERO SWAP1 DUP2 OR SWAP1 SWAP2 SSTORE SWAP2 MLOAD SWAP2 DUP3 MSTORE PUSH32 0x278B09622564DD3991FE7744514513D64EA2C8ED2B2B9EC1150AD964FDE80A99 SWAP2 ADD PUSH2 0xF12 JUMP JUMPDEST PUSH20 0xFFFFFFFFFFFFFFFFFFFFFFFFFFFFFFFFFFFFFFFF DUP3 AND PUSH1 0x0 SWAP1 DUP2 MSTORE PUSH1 0x6 PUSH1 0x20 MSTORE PUSH1 0x40 DUP2 KECCAK256 SLOAD DUP1 DUP3 SUB PUSH2 0x113C JUMPI PUSH1 0x0 SWAP2 POP POP PUSH2 0x11F8 JUMP JUMPDEST DUP1 DUP4 GT ISZERO PUSH2 0x1172 JUMPI PUSH20 0xFFFFFFFFFFFFFFFFFFFFFFFFFFFFFFFFFFFFFFFF DUP5 AND PUSH1 0x0 SWAP1 DUP2 MSTORE PUSH1 0x6 PUSH1 0x20 MSTORE PUSH1 0x40 DUP2 KECCAK256 SSTORE SWAP1 POP DUP1 PUSH2 0x11A6 JUMP JUMPDEST PUSH2 0x117C DUP4 DUP3 PUSH2 0x1CD4 JUMP JUMPDEST PUSH20 0xFFFFFFFFFFFFFFFFFFFFFFFFFFFFFFFFFFFFFFFF DUP6 AND PUSH1 0x0 SWAP1 DUP2 MSTORE PUSH1 0x6 PUSH1 0x20 MSTORE PUSH1 0x40 SWAP1 KECCAK256 SSTORE DUP3 SWAP2 POP JUMPDEST DUP4 PUSH20 0xFFFFFFFFFFFFFFFFFFFFFFFFFFFFFFFFFFFFFFFF AND PUSH32 0xADDE402C2CBAE39776EBBB17C3619B0DF48792F0AE294012433667CC4F30AA90 DUP4 PUSH1 0x40 MLOAD PUSH2 0x11EE SWAP2 DUP2 MSTORE PUSH1 0x20 ADD SWAP1 JUMP JUMPDEST PUSH1 0x40 MLOAD DUP1 SWAP2 SUB SWAP1 LOG2 POP JUMPDEST SWAP3 SWAP2 POP POP JUMP JUMPDEST PUSH1 0x40 DUP1 MLOAD PUSH20 0xFFFFFFFFFFFFFFFFFFFFFFFFFFFFFFFFFFFFFFFF DUP5 AND PUSH1 0x24 DUP3 ADD MSTORE PUSH1 0x44 DUP1 DUP3 ADD DUP5 SWAP1 MSTORE DUP3 MLOAD DUP1 DUP4 SUB SWAP1 SWAP2 ADD DUP2 MSTORE PUSH1 0x64 SWAP1 SWAP2 ADD SWAP1 SWAP2 MSTORE PUSH1 0x20 DUP2 ADD DUP1 MLOAD PUSH28 0xFFFFFFFFFFFFFFFFFFFFFFFFFFFFFFFFFFFFFFFFFFFFFFFFFFFFFFFF AND PUSH32 0xA9059CBB00000000000000000000000000000000000000000000000000000000 OR SWAP1 MSTORE PUSH2 0x5AF SWAP1 DUP5 SWAP1 PUSH2 0x163C JUMP JUMPDEST PUSH1 0x0 DUP1 SLOAD PUSH20 0xFFFFFFFFFFFFFFFFFFFFFFFFFFFFFFFFFFFFFFFF DUP4 DUP2 AND PUSH32 0xFFFFFFFFFFFFFFFFFFFFFFFF0000000000000000000000000000000000000000 DUP4 AND DUP2 OR DUP5 SSTORE PUSH1 0x40 MLOAD SWAP2 SWAP1 SWAP3 AND SWAP3 DUP4 SWAP2 PUSH32 0x8BE0079C531659141344CD1FD0A4F28419497F9722A3DAAFE3B4186F6B6457E0 SWAP2 SWAP1 LOG3 POP POP JUMP JUMPDEST PUSH20 0xFFFFFFFFFFFFFFFFFFFFFFFFFFFFFFFFFFFFFFFF DUP2 AND PUSH2 0x1363 JUMPI PUSH1 0x40 MLOAD PUSH3 0x461BCD PUSH1 0xE5 SHL DUP2 MSTORE PUSH1 0x20 PUSH1 0x4 DUP3 ADD MSTORE PUSH1 0x16 PUSH1 0x24 DUP3 ADD MSTORE PUSH32 0x52454C415945525F434F4C4C4543544F525F5A45524F00000000000000000000 PUSH1 0x44 DUP3 ADD MSTORE PUSH1 0x64 ADD PUSH2 0x4B6 JUMP JUMPDEST PUSH1 0x1 DUP1 SLOAD PUSH32 0xFFFFFFFFFFFFFFFFFFFFFFFF0000000000000000000000000000000000000000 AND PUSH20 0xFFFFFFFFFFFFFFFFFFFFFFFFFFFFFFFFFFFFFFFF DUP4 AND SWAP1 DUP2 OR SWAP1 SWAP2 SSTORE PUSH1 0x40 MLOAD PUSH32 0xC0021C55037758881ECB38510BBC7A75898649236006215FA3EE18E3AC8C718E SWAP1 PUSH1 0x0 SWAP1 LOG2 POP JUMP JUMPDEST PUSH20 0xFFFFFFFFFFFFFFFFFFFFFFFFFFFFFFFFFFFFFFFF DUP3 AND PUSH1 0x0 SWAP1 DUP2 MSTORE PUSH1 0x3 PUSH1 0x20 SWAP1 DUP2 MSTORE PUSH1 0x40 DUP1 DUP4 KECCAK256 SLOAD PUSH1 0x5 DUP4 MSTORE DUP2 DUP5 KECCAK256 SLOAD PUSH1 0x6 SWAP1 SWAP4 MSTORE SWAP1 DUP4 KECCAK256 SLOAD SWAP1 SWAP3 DUP3 DUP3 LT ISZERO PUSH2 0x1425 JUMPI PUSH2 0x1420 DUP3 DUP5 PUSH2 0x1CD4 JUMP JUMPDEST PUSH2 0x1428 JUMP JUMPDEST PUSH1 0x0 JUMPDEST SWAP1 POP PUSH2 0x1434 DUP2 DUP6 PUSH2 0x1CE7 JUMP JUMPDEST DUP6 GT ISZERO PUSH2 0x1483 JUMPI PUSH1 0x40 MLOAD PUSH3 0x461BCD PUSH1 0xE5 SHL DUP2 MSTORE PUSH1 0x20 PUSH1 0x4 DUP3 ADD MSTORE PUSH1 0x1E PUSH1 0x24 DUP3 ADD MSTORE PUSH32 0x52454C415945525F534D4152545F5641554C545F4E4F5F42414C414E43450000 PUSH1 0x44 DUP3 ADD MSTORE PUSH1 0x64 ADD PUSH2 0x4B6 JUMP JUMPDEST PUSH1 0x0 DUP6 DUP6 LT PUSH2 0x14C1 JUMPI PUSH2 0x1496 DUP7 DUP7 PUSH2 0x1CD4 JUMP JUMPDEST PUSH20 0xFFFFFFFFFFFFFFFFFFFFFFFFFFFFFFFFFFFFFFFF DUP9 AND PUSH1 0x0 SWAP1 DUP2 MSTORE PUSH1 0x3 PUSH1 0x20 MSTORE PUSH1 0x40 SWAP1 KECCAK256 SSTORE PUSH2 0x1524 JUMP JUMPDEST PUSH2 0x14CB DUP6 DUP8 PUSH2 0x1CD4 JUMP JUMPDEST PUSH20 0xFFFFFFFFFFFFFFFFFFFFFFFFFFFFFFFFFFFFFFFF DUP9 AND PUSH1 0x0 SWAP1 DUP2 MSTORE PUSH1 0x3 PUSH1 0x20 MSTORE PUSH1 0x40 DUP2 KECCAK256 SSTORE SWAP1 POP PUSH2 0x14FD DUP2 DUP5 PUSH2 0x1CE7 JUMP JUMPDEST PUSH20 0xFFFFFFFFFFFFFFFFFFFFFFFFFFFFFFFFFFFFFFFF DUP9 AND PUSH1 0x0 SWAP1 DUP2 MSTORE PUSH1 0x6 PUSH1 0x20 MSTORE PUSH1 0x40 SWAP1 KECCAK256 SSTORE JUMPDEST PUSH1 0x0 PUSH2 0x152F DUP9 PUSH2 0x794 JUMP JUMPDEST PUSH20 0xFFFFFFFFFFFFFFFFFFFFFFFFFFFFFFFFFFFFFFFF AND PUSH2 0x154F DUP4 DUP10 PUSH2 0x1CD4 JUMP JUMPDEST PUSH1 0x40 MLOAD PUSH1 0x0 DUP2 DUP2 DUP2 DUP6 DUP8 GAS CALL SWAP3 POP POP POP RETURNDATASIZE DUP1 PUSH1 0x0 DUP2 EQ PUSH2 0x158B JUMPI PUSH1 0x40 MLOAD SWAP2 POP PUSH1 0x1F NOT PUSH1 0x3F RETURNDATASIZE ADD AND DUP3 ADD PUSH1 0x40 MSTORE RETURNDATASIZE DUP3 MSTORE RETURNDATASIZE PUSH1 0x0 PUSH1 0x20 DUP5 ADD RETURNDATACOPY PUSH2 0x1590 JUMP JUMPDEST PUSH1 0x60 SWAP2 POP JUMPDEST POP POP SWAP1 POP DUP1 PUSH2 0x15E1 JUMPI PUSH1 0x40 MLOAD PUSH3 0x461BCD PUSH1 0xE5 SHL DUP2 MSTORE PUSH1 0x20 PUSH1 0x4 DUP3 ADD MSTORE PUSH1 0x1D PUSH1 0x24 DUP3 ADD MSTORE PUSH32 0x52454C415945525F434F4C4C4543544F525F53454E445F4641494C4544000000 PUSH1 0x44 DUP3 ADD MSTORE PUSH1 0x64 ADD PUSH2 0x4B6 JUMP JUMPDEST PUSH1 0x40 DUP1 MLOAD DUP9 DUP2 MSTORE PUSH1 0x20 DUP2 ADD DUP5 SWAP1 MSTORE PUSH20 0xFFFFFFFFFFFFFFFFFFFFFFFFFFFFFFFFFFFFFFFF DUP11 AND SWAP2 PUSH32 0xC34A4660C18505A3CC0299553E73CD78F1DE9B3AE9714A1DDDD2FEA59FA50F8F SWAP2 ADD PUSH1 0x40 MLOAD DUP1 SWAP2 SUB SWAP1 LOG2 POP POP POP POP POP POP POP POP JUMP JUMPDEST PUSH1 0x0 PUSH2 0x169E DUP3 PUSH1 0x40 MLOAD DUP1 PUSH1 0x40 ADD PUSH1 0x40 MSTORE DUP1 PUSH1 0x20 DUP2 MSTORE PUSH1 0x20 ADD PUSH32 0x5361666545524332303A206C6F772D6C6576656C2063616C6C206661696C6564 DUP2 MSTORE POP DUP6 PUSH20 0xFFFFFFFFFFFFFFFFFFFFFFFFFFFFFFFFFFFFFFFF AND PUSH2 0x172E SWAP1 SWAP3 SWAP2 SWAP1 PUSH4 0xFFFFFFFF AND JUMP JUMPDEST DUP1 MLOAD SWAP1 SWAP2 POP ISZERO PUSH2 0x5AF JUMPI DUP1 DUP1 PUSH1 0x20 ADD SWAP1 MLOAD DUP2 ADD SWAP1 PUSH2 0x16BC SWAP2 SWAP1 PUSH2 0x1D46 JUMP JUMPDEST PUSH2 0x5AF JUMPI PUSH1 0x40 MLOAD PUSH3 0x461BCD PUSH1 0xE5 SHL DUP2 MSTORE PUSH1 0x20 PUSH1 0x4 DUP3 ADD MSTORE PUSH1 0x2A PUSH1 0x24 DUP3 ADD MSTORE PUSH32 0x5361666545524332303A204552433230206F7065726174696F6E20646964206E PUSH1 0x44 DUP3 ADD MSTORE PUSH32 0x6F74207375636365656400000000000000000000000000000000000000000000 PUSH1 0x64 DUP3 ADD MSTORE PUSH1 0x84 ADD PUSH2 0x4B6 JUMP JUMPDEST PUSH1 0x60 PUSH2 0x173D DUP5 DUP5 PUSH1 0x0 DUP6 PUSH2 0x1745 JUMP JUMPDEST SWAP5 SWAP4 POP POP POP POP JUMP JUMPDEST PUSH1 0x60 DUP3 SELFBALANCE LT ISZERO PUSH2 0x17BD JUMPI PUSH1 0x40 MLOAD PUSH3 0x461BCD PUSH1 0xE5 SHL DUP2 MSTORE PUSH1 0x20 PUSH1 0x4 DUP3 ADD MSTORE PUSH1 0x26 PUSH1 0x24 DUP3 ADD MSTORE PUSH32 0x416464726573733A20696E73756666696369656E742062616C616E636520666F PUSH1 0x44 DUP3 ADD MSTORE PUSH32 0x722063616C6C0000000000000000000000000000000000000000000000000000 PUSH1 0x64 DUP3 ADD MSTORE PUSH1 0x84 ADD PUSH2 0x4B6 JUMP JUMPDEST PUSH20 0xFFFFFFFFFFFFFFFFFFFFFFFFFFFFFFFFFFFFFFFF DUP6 AND EXTCODESIZE PUSH2 0x1821 JUMPI PUSH1 0x40 MLOAD PUSH3 0x461BCD PUSH1 0xE5 SHL DUP2 MSTORE PUSH1 0x20 PUSH1 0x4 DUP3 ADD MSTORE PUSH1 0x1D PUSH1 0x24 DUP3 ADD MSTORE PUSH32 0x416464726573733A2063616C6C20746F206E6F6E2D636F6E7472616374000000 PUSH1 0x44 DUP3 ADD MSTORE PUSH1 0x64 ADD PUSH2 0x4B6 JUMP JUMPDEST PUSH1 0x0 DUP1 DUP7 PUSH20 0xFFFFFFFFFFFFFFFFFFFFFFFFFFFFFFFFFFFFFFFF AND DUP6 DUP8 PUSH1 0x40 MLOAD PUSH2 0x184A SWAP2 SWAP1 PUSH2 0x1D87 JUMP JUMPDEST PUSH1 0x0 PUSH1 0x40 MLOAD DUP1 DUP4 SUB DUP2 DUP6 DUP8 GAS CALL SWAP3 POP POP POP RETURNDATASIZE DUP1 PUSH1 0x0 DUP2 EQ PUSH2 0x1887 JUMPI PUSH1 0x40 MLOAD SWAP2 POP PUSH1 0x1F NOT PUSH1 0x3F RETURNDATASIZE ADD AND DUP3 ADD PUSH1 0x40 MSTORE RETURNDATASIZE DUP3 MSTORE RETURNDATASIZE PUSH1 0x0 PUSH1 0x20 DUP5 ADD RETURNDATACOPY PUSH2 0x188C JUMP JUMPDEST PUSH1 0x60 SWAP2 POP JUMPDEST POP SWAP2 POP SWAP2 POP PUSH2 0x189C DUP3 DUP3 DUP7 PUSH2 0x18A7 JUMP JUMPDEST SWAP8 SWAP7 POP POP POP POP POP POP POP JUMP JUMPDEST PUSH1 0x60 DUP4 ISZERO PUSH2 0x18B6 JUMPI POP DUP2 PUSH2 0x7E3 JUMP JUMPDEST DUP3 MLOAD ISZERO PUSH2 0x18C6 JUMPI DUP3 MLOAD DUP1 DUP5 PUSH1 0x20 ADD REVERT JUMPDEST DUP2 PUSH1 0x40 MLOAD PUSH3 0x461BCD PUSH1 0xE5 SHL DUP2 MSTORE PUSH1 0x4 ADD PUSH2 0x4B6 SWAP2 SWAP1 PUSH2 0x1E7B JUMP JUMPDEST PUSH20 0xFFFFFFFFFFFFFFFFFFFFFFFFFFFFFFFFFFFFFFFF DUP2 AND DUP2 EQ PUSH2 0x9BA JUMPI PUSH1 0x0 DUP1 REVERT JUMPDEST PUSH1 0x0 PUSH1 0x20 DUP3 DUP5 SUB SLT ISZERO PUSH2 0x1914 JUMPI PUSH1 0x0 DUP1 REVERT JUMPDEST DUP2 CALLDATALOAD PUSH2 0x7E3 DUP2 PUSH2 0x18E0 JUMP JUMPDEST DUP1 ISZERO ISZERO DUP2 EQ PUSH2 0x9BA JUMPI PUSH1 0x0 DUP1 REVERT JUMPDEST DUP1 CALLDATALOAD PUSH2 0x1938 DUP2 PUSH2 0x191F JUMP JUMPDEST SWAP2 SWAP1 POP JUMP JUMPDEST PUSH1 0x0 DUP1 PUSH1 0x40 DUP4 DUP6 SUB SLT ISZERO PUSH2 0x1950 JUMPI PUSH1 0x0 DUP1 REVERT JUMPDEST DUP3 CALLDATALOAD PUSH2 0x195B DUP2 PUSH2 0x18E0 JUMP JUMPDEST SWAP2 POP PUSH1 0x20 DUP4 ADD CALLDATALOAD PUSH2 0x196B DUP2 PUSH2 0x191F JUMP JUMPDEST DUP1 SWAP2 POP POP SWAP3 POP SWAP3 SWAP1 POP JUMP JUMPDEST PUSH1 0x0 PUSH1 0x20 DUP3 DUP5 SUB SLT ISZERO PUSH2 0x1988 JUMPI PUSH1 0x0 DUP1 REVERT JUMPDEST POP CALLDATALOAD SWAP2 SWAP1 POP JUMP JUMPDEST PUSH1 0x0 DUP1 PUSH1 0x40 DUP4 DUP6 SUB SLT ISZERO PUSH2 0x19A2 JUMPI PUSH1 0x0 DUP1 REVERT JUMPDEST DUP3 CALLDATALOAD PUSH2 0x19AD DUP2 PUSH2 0x18E0 JUMP JUMPDEST SWAP2 POP PUSH1 0x20 DUP4 ADD CALLDATALOAD PUSH2 0x196B DUP2 PUSH2 0x18E0 JUMP JUMPDEST PUSH1 0x0 DUP1 PUSH1 0x40 DUP4 DUP6 SUB SLT ISZERO PUSH2 0x19D0 JUMPI PUSH1 0x0 DUP1 REVERT JUMPDEST DUP3 CALLDATALOAD PUSH2 0x19DB DUP2 PUSH2 0x18E0 JUMP JUMPDEST SWAP5 PUSH1 0x20 SWAP4 SWAP1 SWAP4 ADD CALLDATALOAD SWAP4 POP POP POP JUMP JUMPDEST PUSH1 0x0 DUP1 PUSH1 0x0 PUSH1 0x60 DUP5 DUP7 SUB SLT ISZERO PUSH2 0x19FE JUMPI PUSH1 0x0 DUP1 REVERT JUMPDEST DUP4 CALLDATALOAD PUSH2 0x1A09 DUP2 PUSH2 0x18E0 JUMP JUMPDEST SWAP3 POP PUSH1 0x20 DUP5 ADD CALLDATALOAD PUSH2 0x1A19 DUP2 PUSH2 0x18E0 JUMP JUMPDEST SWAP3 SWAP6 SWAP3 SWAP5 POP POP POP PUSH1 0x40 SWAP2 SWAP1 SWAP2 ADD CALLDATALOAD SWAP1 JUMP JUMPDEST PUSH32 0x4E487B7100000000000000000000000000000000000000000000000000000000 PUSH1 0x0 MSTORE PUSH1 0x41 PUSH1 0x4 MSTORE PUSH1 0x24 PUSH1 0x0 REVERT JUMPDEST PUSH1 0x40 MLOAD PUSH1 0x1F DUP3 ADD PUSH32 0xFFFFFFFFFFFFFFFFFFFFFFFFFFFFFFFFFFFFFFFFFFFFFFFFFFFFFFFFFFFFFFE0 AND DUP2 ADD PUSH8 0xFFFFFFFFFFFFFFFF DUP2 GT DUP3 DUP3 LT OR ISZERO PUSH2 0x1AA0 JUMPI PUSH2 0x1AA0 PUSH2 0x1A2A JUMP JUMPDEST PUSH1 0x40 MSTORE SWAP2 SWAP1 POP JUMP JUMPDEST PUSH1 0x0 PUSH8 0xFFFFFFFFFFFFFFFF DUP3 GT ISZERO PUSH2 0x1AC2 JUMPI PUSH2 0x1AC2 PUSH2 0x1A2A JUMP JUMPDEST POP PUSH1 0x5 SHL PUSH1 0x20 ADD SWAP1 JUMP JUMPDEST PUSH1 0x0 PUSH1 0x1F DUP4 DUP2 DUP5 ADD SLT PUSH2 0x1ADE JUMPI PUSH1 0x0 DUP1 REVERT JUMPDEST DUP3 CALLDATALOAD PUSH1 0x20 PUSH2 0x1AF3 PUSH2 0x1AEE DUP4 PUSH2 0x1AA8 JUMP JUMPDEST PUSH2 0x1A59 JUMP JUMPDEST DUP3 DUP2 MSTORE PUSH1 0x5 SWAP3 SWAP1 SWAP3 SHL DUP6 ADD DUP2 ADD SWAP2 DUP2 DUP2 ADD SWAP1 DUP8 DUP5 GT ISZERO PUSH2 0x1B12 JUMPI PUSH1 0x0 DUP1 REVERT JUMPDEST DUP3 DUP8 ADD JUMPDEST DUP5 DUP2 LT ISZERO PUSH2 0x1BC7 JUMPI DUP1 CALLDATALOAD PUSH8 0xFFFFFFFFFFFFFFFF DUP1 DUP3 GT ISZERO PUSH2 0x1B37 JUMPI PUSH1 0x0 DUP1 DUP2 REVERT JUMPDEST DUP2 DUP11 ADD SWAP2 POP DUP11 PUSH1 0x3F DUP4 ADD SLT PUSH2 0x1B4C JUMPI PUSH1 0x0 DUP1 DUP2 REVERT JUMPDEST DUP6 DUP3 ADD CALLDATALOAD PUSH1 0x40 DUP3 DUP3 GT ISZERO PUSH2 0x1B62 JUMPI PUSH2 0x1B62 PUSH2 0x1A2A JUMP JUMPDEST PUSH2 0x1B91 DUP9 PUSH32 0xFFFFFFFFFFFFFFFFFFFFFFFFFFFFFFFFFFFFFFFFFFFFFFFFFFFFFFFFFFFFFFE0 DUP13 DUP6 ADD AND ADD PUSH2 0x1A59 JUMP JUMPDEST SWAP3 POP DUP2 DUP4 MSTORE DUP13 DUP2 DUP4 DUP7 ADD ADD GT ISZERO PUSH2 0x1BA8 JUMPI PUSH1 0x0 DUP1 DUP2 REVERT JUMPDEST DUP2 DUP2 DUP6 ADD DUP10 DUP6 ADD CALLDATACOPY POP PUSH1 0x0 SWAP1 DUP3 ADD DUP8 ADD MSTORE DUP5 MSTORE POP SWAP2 DUP4 ADD SWAP2 DUP4 ADD PUSH2 0x1B16 JUMP JUMPDEST POP SWAP8 SWAP7 POP POP POP POP POP POP POP JUMP JUMPDEST PUSH1 0x0 DUP1 PUSH1 0x0 PUSH1 0x60 DUP5 DUP7 SUB SLT ISZERO PUSH2 0x1BE8 JUMPI PUSH1 0x0 DUP1 REVERT JUMPDEST DUP4 CALLDATALOAD PUSH8 0xFFFFFFFFFFFFFFFF DUP1 DUP3 GT ISZERO PUSH2 0x1C00 JUMPI PUSH1 0x0 DUP1 REVERT JUMPDEST DUP2 DUP7 ADD SWAP2 POP DUP7 PUSH1 0x1F DUP4 ADD SLT PUSH2 0x1C14 JUMPI PUSH1 0x0 DUP1 REVERT JUMPDEST DUP2 CALLDATALOAD PUSH1 0x20 PUSH2 0x1C24 PUSH2 0x1AEE DUP4 PUSH2 0x1AA8 JUMP JUMPDEST DUP3 DUP2 MSTORE PUSH1 0x5 SWAP3 SWAP1 SWAP3 SHL DUP5 ADD DUP2 ADD SWAP2 DUP2 DUP2 ADD SWAP1 DUP11 DUP5 GT ISZERO PUSH2 0x1C43 JUMPI PUSH1 0x0 DUP1 REVERT JUMPDEST SWAP5 DUP3 ADD SWAP5 JUMPDEST DUP4 DUP7 LT ISZERO PUSH2 0x1C6A JUMPI DUP6 CALLDATALOAD PUSH2 0x1C5B DUP2 PUSH2 0x18E0 JUMP JUMPDEST DUP3 MSTORE SWAP5 DUP3 ADD SWAP5 SWAP1 DUP3 ADD SWAP1 PUSH2 0x1C48 JUMP JUMPDEST SWAP8 POP POP DUP8 ADD CALLDATALOAD SWAP3 POP POP DUP1 DUP3 GT ISZERO PUSH2 0x1C80 JUMPI PUSH1 0x0 DUP1 REVERT JUMPDEST POP PUSH2 0x1C8D DUP7 DUP3 DUP8 ADD PUSH2 0x1ACC JUMP JUMPDEST SWAP3 POP POP PUSH2 0x1C9C PUSH1 0x40 DUP6 ADD PUSH2 0x192D JUMP JUMPDEST SWAP1 POP SWAP3 POP SWAP3 POP SWAP3 JUMP JUMPDEST PUSH32 0x4E487B7100000000000000000000000000000000000000000000000000000000 PUSH1 0x0 MSTORE PUSH1 0x11 PUSH1 0x4 MSTORE PUSH1 0x24 PUSH1 0x0 REVERT JUMPDEST DUP2 DUP2 SUB DUP2 DUP2 GT ISZERO PUSH2 0x11F8 JUMPI PUSH2 0x11F8 PUSH2 0x1CA5 JUMP JUMPDEST DUP1 DUP3 ADD DUP1 DUP3 GT ISZERO PUSH2 0x11F8 JUMPI PUSH2 0x11F8 PUSH2 0x1CA5 JUMP JUMPDEST PUSH32 0x4E487B7100000000000000000000000000000000000000000000000000000000 PUSH1 0x0 MSTORE PUSH1 0x32 PUSH1 0x4 MSTORE PUSH1 0x24 PUSH1 0x0 REVERT JUMPDEST PUSH1 0x0 PUSH1 0x20 DUP3 DUP5 SUB SLT ISZERO PUSH2 0x1D3B JUMPI PUSH1 0x0 DUP1 REVERT JUMPDEST DUP2 MLOAD PUSH2 0x7E3 DUP2 PUSH2 0x18E0 JUMP JUMPDEST PUSH1 0x0 PUSH1 0x20 DUP3 DUP5 SUB SLT ISZERO PUSH2 0x1D58 JUMPI PUSH1 0x0 DUP1 REVERT JUMPDEST DUP2 MLOAD PUSH2 0x7E3 DUP2 PUSH2 0x191F JUMP JUMPDEST PUSH1 0x0 JUMPDEST DUP4 DUP2 LT ISZERO PUSH2 0x1D7E JUMPI DUP2 DUP2 ADD MLOAD DUP4 DUP3 ADD MSTORE PUSH1 0x20 ADD PUSH2 0x1D66 JUMP JUMPDEST POP POP PUSH1 0x0 SWAP2 ADD MSTORE JUMP JUMPDEST PUSH1 0x0 DUP3 MLOAD PUSH2 0x1D99 DUP2 DUP5 PUSH1 0x20 DUP8 ADD PUSH2 0x1D63 JUMP JUMPDEST SWAP2 SWAP1 SWAP2 ADD SWAP3 SWAP2 POP POP JUMP JUMPDEST PUSH1 0x0 DUP2 MLOAD DUP1 DUP5 MSTORE PUSH2 0x1DBB DUP2 PUSH1 0x20 DUP7 ADD PUSH1 0x20 DUP7 ADD PUSH2 0x1D63 JUMP JUMPDEST PUSH1 0x1F ADD PUSH32 0xFFFFFFFFFFFFFFFFFFFFFFFFFFFFFFFFFFFFFFFFFFFFFFFFFFFFFFFFFFFFFFE0 AND SWAP3 SWAP1 SWAP3 ADD PUSH1 0x20 ADD SWAP3 SWAP2 POP POP JUMP JUMPDEST PUSH1 0x80 DUP2 MSTORE PUSH1 0x0 PUSH2 0x1E00 PUSH1 0x80 DUP4 ADD DUP8 PUSH2 0x1DA3 JUMP JUMPDEST DUP6 ISZERO ISZERO PUSH1 0x20 DUP5 ADD MSTORE DUP3 DUP2 SUB PUSH1 0x40 DUP5 ADD MSTORE PUSH2 0x1E1A DUP2 DUP7 PUSH2 0x1DA3 JUMP JUMPDEST SWAP2 POP POP DUP3 PUSH1 0x60 DUP4 ADD MSTORE SWAP6 SWAP5 POP POP POP POP POP JUMP JUMPDEST PUSH1 0x0 PUSH32 0xFFFFFFFFFFFFFFFFFFFFFFFFFFFFFFFFFFFFFFFFFFFFFFFFFFFFFFFFFFFFFFFF DUP3 SUB PUSH2 0x1E5D JUMPI PUSH2 0x1E5D PUSH2 0x1CA5 JUMP JUMPDEST POP PUSH1 0x1 ADD SWAP1 JUMP JUMPDEST DUP1 DUP3 MUL DUP2 ISZERO DUP3 DUP3 DIV DUP5 EQ OR PUSH2 0x11F8 JUMPI PUSH2 0x11F8 PUSH2 0x1CA5 JUMP JUMPDEST PUSH1 0x20 DUP2 MSTORE PUSH1 0x0 PUSH2 0x7E3 PUSH1 0x20 DUP4 ADD DUP5 PUSH2 0x1DA3 JUMP INVALID LOG2 PUSH5 0x6970667358 0x22 SLT KECCAK256 0xDD COINBASE LOG0 MUL 0xDC SGT TIMESTAMP JUMPI SDIV SDIV 0xD9 0xD3 0xD1 GAS JUMPDEST 0xEB 0xB8 DUP12 DIV GAS SWAP9 SWAP7 PUSH4 0x6BED0A32 BLOCKHASH 0xD0 0xD1 0xD1 0xDA PUSH5 0x736F6C6343 STOP ADDMOD GT STOP CALLER "},"methodIdentifiers":{"BASE_GAS()":"389aa342","defaultCollector()":"f46ca4e4","deposit(address,uint256)":"47e7ef24","execute(address[],bytes[],bool)":"d05c2c94","getApplicableCollector(address)":"586171a0","getSmartVaultBalance(address)":"d581ae93","getSmartVaultCollector(address)":"16f91b8f","getSmartVaultMaxQuota(address)":"151ac3a8","getSmartVaultUsedQuota(address)":"d6291234","isExecutorAllowed(address)":"7d701102","owner()":"8da5cb5b","renounceOwnership()":"715018a6","rescueFunds(address,address,uint256)":"6ccae054","setDefaultCollector(address)":"b3120853","setExecutor(address,bool)":"1e1bff3f","setSmartVaultCollector(address,address)":"3738ea52","setSmartVaultMaxQuota(address,uint256)":"dc9fc0d2","transferOwnership(address)":"f2fde38b","withdraw(uint256)":"2e1a7d4d"}}}}}