{"contracts/ParaswapClaimer.sol":{"ParaswapClaimer":{"abi":[{"inputs":[{"internalType":"address","name":"who","type":"address"},{"internalType":"bytes4","name":"what","type":"bytes4"},{"internalType":"uint256[]","name":"how","type":"uint256[]"}],"name":"AuthSenderNotAllowed","type":"error"},{"inputs":[{"internalType":"uint256","name":"a","type":"uint256"},{"internalType":"uint256","name":"aInflated","type":"uint256"}],"name":"FixedPointDivInternal","type":"error"},{"inputs":[{"internalType":"uint256","name":"a","type":"uint256"},{"internalType":"uint256","name":"b","type":"uint256"}],"name":"FixedPointMulOverflow","type":"error"},{"inputs":[],"name":"FixedPointZeroDivision","type":"error"},{"inputs":[],"name":"TaskAcceptanceInputLengthMismatch","type":"error"},{"inputs":[],"name":"TaskAcceptanceTokenZero","type":"error"},{"inputs":[],"name":"TaskAmountZero","type":"error"},{"inputs":[],"name":"TaskClaimFailed","type":"error"},{"inputs":[],"name":"TaskFeeClaimerZero","type":"error"},{"inputs":[],"name":"TaskGasNotInitialized","type":"error"},{"inputs":[{"internalType":"uint256","name":"gasPrice","type":"uint256"},{"internalType":"uint256","name":"gasPriceLimit","type":"uint256"}],"name":"TaskGasPriceLimitExceeded","type":"error"},{"inputs":[{"internalType":"uint8","name":"mode","type":"uint8"},{"internalType":"uint256","name":"date","type":"uint256"}],"name":"TaskInvalidAllowedDate","type":"error"},{"inputs":[{"internalType":"uint8","name":"mode","type":"uint8"},{"internalType":"uint256","name":"window","type":"uint256"}],"name":"TaskInvalidAllowedWindow","type":"error"},{"inputs":[{"internalType":"uint8","name":"mode","type":"uint8"},{"internalType":"uint256","name":"frequency","type":"uint256"}],"name":"TaskInvalidFrequency","type":"error"},{"inputs":[{"internalType":"uint8","name":"mode","type":"uint8"}],"name":"TaskInvalidFrequencyMode","type":"error"},{"inputs":[{"internalType":"address","name":"token","type":"address"},{"internalType":"uint256","name":"min","type":"uint256"},{"internalType":"uint256","name":"max","type":"uint256"}],"name":"TaskInvalidThresholdInput","type":"error"},{"inputs":[{"internalType":"address","name":"token","type":"address"},{"internalType":"uint256","name":"amount","type":"uint256"},{"internalType":"uint256","name":"period","type":"uint256"}],"name":"TaskInvalidVolumeLimitInput","type":"error"},{"inputs":[],"name":"TaskPaused","type":"error"},{"inputs":[{"internalType":"bytes32","name":"id","type":"bytes32"}],"name":"TaskPreviousConnectorNotZero","type":"error"},{"inputs":[{"internalType":"uint256","name":"priorityFee","type":"uint256"},{"internalType":"uint256","name":"priorityFeeLimit","type":"uint256"}],"name":"TaskPriorityFeeLimitExceeded","type":"error"},{"inputs":[{"internalType":"bytes32","name":"connectorId","type":"bytes32"}],"name":"TaskSameBalanceConnectors","type":"error"},{"inputs":[{"internalType":"address","name":"smartVault","type":"address"}],"name":"TaskSmartVaultPriceOracleNotSet","type":"error"},{"inputs":[],"name":"TaskThresholdTokenZero","type":"error"},{"inputs":[{"internalType":"uint256","name":"currentTimestamp","type":"uint256"},{"internalType":"uint256","name":"expiration","type":"uint256"}],"name":"TaskTimeLockActive","type":"error"},{"inputs":[{"internalType":"address","name":"token","type":"address"}],"name":"TaskTokenNotAllowed","type":"error"},{"inputs":[{"internalType":"address","name":"token","type":"address"},{"internalType":"uint256","name":"amount","type":"uint256"},{"internalType":"uint256","name":"min","type":"uint256"},{"internalType":"uint256","name":"max","type":"uint256"}],"name":"TaskTokenThresholdNotMet","type":"error"},{"inputs":[],"name":"TaskTokenZero","type":"error"},{"inputs":[{"internalType":"uint256","name":"txCost","type":"uint256"},{"internalType":"uint256","name":"txCostLimit","type":"uint256"}],"name":"TaskTxCostLimitExceeded","type":"error"},{"inputs":[],"name":"TaskTxCostLimitPctAboveOne","type":"error"},{"inputs":[{"internalType":"uint256","name":"txCostPct","type":"uint256"},{"internalType":"uint256","name":"txCostLimitPct","type":"uint256"}],"name":"TaskTxCostLimitPctExceeded","type":"error"},{"inputs":[],"name":"TaskUnpaused","type":"error"},{"inputs":[{"internalType":"address","name":"token","type":"address"},{"internalType":"uint256","name":"limit","type":"uint256"},{"internalType":"uint256","name":"volume","type":"uint256"}],"name":"TaskVolumeLimitExceeded","type":"error"},{"inputs":[],"name":"TaskVolumeLimitTokenZero","type":"error"},{"anonymous":false,"inputs":[{"indexed":true,"internalType":"bytes32","name":"previous","type":"bytes32"},{"indexed":true,"internalType":"bytes32","name":"next","type":"bytes32"}],"name":"BalanceConnectorsSet","type":"event"},{"anonymous":false,"inputs":[{"indexed":true,"internalType":"address","name":"token","type":"address"},{"indexed":false,"internalType":"address","name":"thresholdToken","type":"address"},{"indexed":false,"internalType":"uint256","name":"min","type":"uint256"},{"indexed":false,"internalType":"uint256","name":"max","type":"uint256"}],"name":"CustomTokenThresholdSet","type":"event"},{"anonymous":false,"inputs":[{"indexed":true,"internalType":"address","name":"token","type":"address"},{"indexed":true,"internalType":"address","name":"limitToken","type":"address"},{"indexed":false,"internalType":"uint256","name":"amount","type":"uint256"},{"indexed":false,"internalType":"uint256","name":"period","type":"uint256"}],"name":"CustomVolumeLimitSet","type":"event"},{"anonymous":false,"inputs":[{"indexed":false,"internalType":"address","name":"token","type":"address"},{"indexed":false,"internalType":"uint256","name":"min","type":"uint256"},{"indexed":false,"internalType":"uint256","name":"max","type":"uint256"}],"name":"DefaultTokenThresholdSet","type":"event"},{"anonymous":false,"inputs":[{"indexed":true,"internalType":"address","name":"limitToken","type":"address"},{"indexed":false,"internalType":"uint256","name":"amount","type":"uint256"},{"indexed":false,"internalType":"uint256","name":"period","type":"uint256"}],"name":"DefaultVolumeLimitSet","type":"event"},{"anonymous":false,"inputs":[],"name":"Executed","type":"event"},{"anonymous":false,"inputs":[{"indexed":true,"internalType":"address","name":"feeClaimer","type":"address"}],"name":"FeeClaimerSet","type":"event"},{"anonymous":false,"inputs":[{"indexed":false,"internalType":"uint256","name":"gasPriceLimit","type":"uint256"},{"indexed":false,"internalType":"uint256","name":"priorityFeeLimit","type":"uint256"},{"indexed":false,"internalType":"uint256","name":"txCostLimit","type":"uint256"},{"indexed":false,"internalType":"uint256","name":"txCostLimitPct","type":"uint256"}],"name":"GasLimitsSet","type":"event"},{"anonymous":false,"inputs":[{"indexed":false,"internalType":"uint8","name":"version","type":"uint8"}],"name":"Initialized","type":"event"},{"anonymous":false,"inputs":[],"name":"Paused","type":"event"},{"anonymous":false,"inputs":[{"indexed":false,"internalType":"uint256","name":"allowedAt","type":"uint256"}],"name":"TimeLockAllowedAtSet","type":"event"},{"anonymous":false,"inputs":[{"indexed":false,"internalType":"uint8","name":"mode","type":"uint8"},{"indexed":false,"internalType":"uint256","name":"frequency","type":"uint256"},{"indexed":false,"internalType":"uint256","name":"allowedAt","type":"uint256"},{"indexed":false,"internalType":"uint256","name":"window","type":"uint256"}],"name":"TimeLockSet","type":"event"},{"anonymous":false,"inputs":[{"indexed":true,"internalType":"address","name":"token","type":"address"},{"indexed":false,"internalType":"bool","name":"added","type":"bool"}],"name":"TokensAcceptanceListSet","type":"event"},{"anonymous":false,"inputs":[{"indexed":false,"internalType":"enum ITokenIndexedTask.TokensAcceptanceType","name":"acceptanceType","type":"uint8"}],"name":"TokensAcceptanceTypeSet","type":"event"},{"anonymous":false,"inputs":[],"name":"Unpaused","type":"event"},{"inputs":[],"name":"EXECUTION_TYPE","outputs":[{"internalType":"bytes32","name":"","type":"bytes32"}],"stateMutability":"view","type":"function"},{"inputs":[],"name":"authorizer","outputs":[{"internalType":"address","name":"","type":"address"}],"stateMutability":"view","type":"function"},{"inputs":[{"internalType":"address","name":"token","type":"address"},{"internalType":"uint256","name":"amount","type":"uint256"}],"name":"call","outputs":[],"stateMutability":"nonpayable","type":"function"},{"inputs":[{"internalType":"address","name":"token","type":"address"}],"name":"customTokenThreshold","outputs":[{"internalType":"address","name":"thresholdToken","type":"address"},{"internalType":"uint256","name":"min","type":"uint256"},{"internalType":"uint256","name":"max","type":"uint256"}],"stateMutability":"view","type":"function"},{"inputs":[{"internalType":"address","name":"token","type":"address"}],"name":"customVolumeLimit","outputs":[{"internalType":"address","name":"limitToken","type":"address"},{"internalType":"uint256","name":"amount","type":"uint256"},{"internalType":"uint256","name":"accrued","type":"uint256"},{"internalType":"uint256","name":"period","type":"uint256"},{"internalType":"uint256","name":"nextResetTime","type":"uint256"}],"stateMutability":"view","type":"function"},{"inputs":[],"name":"defaultTokenThreshold","outputs":[{"internalType":"address","name":"thresholdToken","type":"address"},{"internalType":"uint256","name":"min","type":"uint256"},{"internalType":"uint256","name":"max","type":"uint256"}],"stateMutability":"view","type":"function"},{"inputs":[],"name":"defaultVolumeLimit","outputs":[{"internalType":"address","name":"limitToken","type":"address"},{"internalType":"uint256","name":"amount","type":"uint256"},{"internalType":"uint256","name":"accrued","type":"uint256"},{"internalType":"uint256","name":"period","type":"uint256"},{"internalType":"uint256","name":"nextResetTime","type":"uint256"}],"stateMutability":"view","type":"function"},{"inputs":[],"name":"feeClaimer","outputs":[{"internalType":"address","name":"","type":"address"}],"stateMutability":"view","type":"function"},{"inputs":[],"name":"getBalanceConnectors","outputs":[{"internalType":"bytes32","name":"previous","type":"bytes32"},{"internalType":"bytes32","name":"next","type":"bytes32"}],"stateMutability":"view","type":"function"},{"inputs":[],"name":"getGasLimits","outputs":[{"internalType":"uint256","name":"gasPriceLimit","type":"uint256"},{"internalType":"uint256","name":"priorityFeeLimit","type":"uint256"},{"internalType":"uint256","name":"txCostLimit","type":"uint256"},{"internalType":"uint256","name":"txCostLimitPct","type":"uint256"}],"stateMutability":"view","type":"function"},{"inputs":[{"internalType":"address","name":"token","type":"address"}],"name":"getTaskAmount","outputs":[{"internalType":"uint256","name":"","type":"uint256"}],"stateMutability":"view","type":"function"},{"inputs":[],"name":"getTimeLock","outputs":[{"internalType":"uint8","name":"mode","type":"uint8"},{"internalType":"uint256","name":"frequency","type":"uint256"},{"internalType":"uint256","name":"allowedAt","type":"uint256"},{"internalType":"uint256","name":"window","type":"uint256"}],"stateMutability":"view","type":"function"},{"inputs":[{"internalType":"address","name":"token","type":"address"}],"name":"getTokenThreshold","outputs":[{"internalType":"address","name":"thresholdToken","type":"address"},{"internalType":"uint256","name":"min","type":"uint256"},{"internalType":"uint256","name":"max","type":"uint256"}],"stateMutability":"view","type":"function"},{"inputs":[],"name":"getTokensSource","outputs":[{"internalType":"address","name":"","type":"address"}],"stateMutability":"view","type":"function"},{"inputs":[{"internalType":"address","name":"token","type":"address"}],"name":"getVolumeLimit","outputs":[{"internalType":"address","name":"limitToken","type":"address"},{"internalType":"uint256","name":"amount","type":"uint256"},{"internalType":"uint256","name":"accrued","type":"uint256"},{"internalType":"uint256","name":"period","type":"uint256"},{"internalType":"uint256","name":"nextResetTime","type":"uint256"}],"stateMutability":"view","type":"function"},{"inputs":[{"components":[{"components":[{"internalType":"address","name":"smartVault","type":"address"},{"internalType":"bytes32","name":"previousBalanceConnectorId","type":"bytes32"},{"internalType":"bytes32","name":"nextBalanceConnectorId","type":"bytes32"}],"internalType":"struct BaseTask.BaseConfig","name":"baseConfig","type":"tuple"},{"components":[{"internalType":"uint256","name":"gasPriceLimit","type":"uint256"},{"internalType":"uint256","name":"priorityFeeLimit","type":"uint256"},{"internalType":"uint256","name":"txCostLimit","type":"uint256"},{"internalType":"uint256","name":"txCostLimitPct","type":"uint256"}],"internalType":"struct GasLimitedTask.GasLimitConfig","name":"gasLimitConfig","type":"tuple"},{"components":[{"internalType":"uint8","name":"mode","type":"uint8"},{"internalType":"uint256","name":"frequency","type":"uint256"},{"internalType":"uint256","name":"allowedAt","type":"uint256"},{"internalType":"uint256","name":"window","type":"uint256"}],"internalType":"struct TimeLockedTask.TimeLockConfig","name":"timeLockConfig","type":"tuple"},{"components":[{"internalType":"enum ITokenIndexedTask.TokensAcceptanceType","name":"acceptanceType","type":"uint8"},{"internalType":"address[]","name":"tokens","type":"address[]"}],"internalType":"struct TokenIndexedTask.TokenIndexConfig","name":"tokenIndexConfig","type":"tuple"},{"components":[{"components":[{"internalType":"address","name":"token","type":"address"},{"internalType":"uint256","name":"min","type":"uint256"},{"internalType":"uint256","name":"max","type":"uint256"}],"internalType":"struct TokenThresholdTask.Threshold","name":"defaultThreshold","type":"tuple"},{"components":[{"internalType":"address","name":"token","type":"address"},{"components":[{"internalType":"address","name":"token","type":"address"},{"internalType":"uint256","name":"min","type":"uint256"},{"internalType":"uint256","name":"max","type":"uint256"}],"internalType":"struct TokenThresholdTask.Threshold","name":"threshold","type":"tuple"}],"internalType":"struct TokenThresholdTask.CustomThresholdConfig[]","name":"customThresholdConfigs","type":"tuple[]"}],"internalType":"struct TokenThresholdTask.TokenThresholdConfig","name":"tokenThresholdConfig","type":"tuple"},{"components":[{"components":[{"internalType":"address","name":"token","type":"address"},{"internalType":"uint256","name":"amount","type":"uint256"},{"internalType":"uint256","name":"period","type":"uint256"}],"internalType":"struct VolumeLimitedTask.VolumeLimitParams","name":"defaultVolumeLimit","type":"tuple"},{"components":[{"internalType":"address","name":"token","type":"address"},{"components":[{"internalType":"address","name":"token","type":"address"},{"internalType":"uint256","name":"amount","type":"uint256"},{"internalType":"uint256","name":"period","type":"uint256"}],"internalType":"struct VolumeLimitedTask.VolumeLimitParams","name":"volumeLimit","type":"tuple"}],"internalType":"struct VolumeLimitedTask.CustomVolumeLimitConfig[]","name":"customVolumeLimitConfigs","type":"tuple[]"}],"internalType":"struct VolumeLimitedTask.VolumeLimitConfig","name":"volumeLimitConfig","type":"tuple"}],"internalType":"struct Task.TaskConfig","name":"config","type":"tuple"},{"internalType":"address","name":"claimer","type":"address"}],"name":"initializeParaswapClaimer","outputs":[],"stateMutability":"nonpayable","type":"function"},{"inputs":[],"name":"isPaused","outputs":[{"internalType":"bool","name":"","type":"bool"}],"stateMutability":"view","type":"function"},{"inputs":[{"internalType":"address","name":"token","type":"address"}],"name":"isTokenAllowed","outputs":[{"internalType":"bool","name":"","type":"bool"}],"stateMutability":"view","type":"function"},{"inputs":[],"name":"pause","outputs":[],"stateMutability":"nonpayable","type":"function"},{"inputs":[{"internalType":"bytes32","name":"previous","type":"bytes32"},{"internalType":"bytes32","name":"next","type":"bytes32"}],"name":"setBalanceConnectors","outputs":[],"stateMutability":"nonpayable","type":"function"},{"inputs":[{"internalType":"address","name":"token","type":"address"},{"internalType":"address","name":"thresholdToken","type":"address"},{"internalType":"uint256","name":"min","type":"uint256"},{"internalType":"uint256","name":"max","type":"uint256"}],"name":"setCustomTokenThreshold","outputs":[],"stateMutability":"nonpayable","type":"function"},{"inputs":[{"internalType":"address","name":"token","type":"address"},{"internalType":"address","name":"limitToken","type":"address"},{"internalType":"uint256","name":"limitAmount","type":"uint256"},{"internalType":"uint256","name":"limitPeriod","type":"uint256"}],"name":"setCustomVolumeLimit","outputs":[],"stateMutability":"nonpayable","type":"function"},{"inputs":[{"internalType":"address","name":"thresholdToken","type":"address"},{"internalType":"uint256","name":"min","type":"uint256"},{"internalType":"uint256","name":"max","type":"uint256"}],"name":"setDefaultTokenThreshold","outputs":[],"stateMutability":"nonpayable","type":"function"},{"inputs":[{"internalType":"address","name":"limitToken","type":"address"},{"internalType":"uint256","name":"limitAmount","type":"uint256"},{"internalType":"uint256","name":"limitPeriod","type":"uint256"}],"name":"setDefaultVolumeLimit","outputs":[],"stateMutability":"nonpayable","type":"function"},{"inputs":[{"internalType":"address","name":"newFeeClaimer","type":"address"}],"name":"setFeeClaimer","outputs":[],"stateMutability":"nonpayable","type":"function"},{"inputs":[{"internalType":"uint256","name":"newGasPriceLimit","type":"uint256"},{"internalType":"uint256","name":"newPriorityFeeLimit","type":"uint256"},{"internalType":"uint256","name":"newTxCostLimit","type":"uint256"},{"internalType":"uint256","name":"newTxCostLimitPct","type":"uint256"}],"name":"setGasLimits","outputs":[],"stateMutability":"nonpayable","type":"function"},{"inputs":[{"internalType":"uint8","name":"mode","type":"uint8"},{"internalType":"uint256","name":"frequency","type":"uint256"},{"internalType":"uint256","name":"allowedAt","type":"uint256"},{"internalType":"uint256","name":"window","type":"uint256"}],"name":"setTimeLock","outputs":[],"stateMutability":"nonpayable","type":"function"},{"inputs":[{"internalType":"address[]","name":"tokens","type":"address[]"},{"internalType":"bool[]","name":"added","type":"bool[]"}],"name":"setTokensAcceptanceList","outputs":[],"stateMutability":"nonpayable","type":"function"},{"inputs":[{"internalType":"enum ITokenIndexedTask.TokensAcceptanceType","name":"newTokensAcceptanceType","type":"uint8"}],"name":"setTokensAcceptanceType","outputs":[],"stateMutability":"nonpayable","type":"function"},{"inputs":[],"name":"smartVault","outputs":[{"internalType":"address","name":"","type":"address"}],"stateMutability":"view","type":"function"},{"inputs":[],"name":"tokensAcceptanceType","outputs":[{"internalType":"enum ITokenIndexedTask.TokensAcceptanceType","name":"","type":"uint8"}],"stateMutability":"view","type":"function"},{"inputs":[],"name":"unpause","outputs":[],"stateMutability":"nonpayable","type":"function"}],"evm":{"bytecode":{"linkReferences":{},"object":"60806040523480156200001157600080fd5b506200001c62000022565b620000e4565b600054610100900460ff16156200008f5760405162461bcd60e51b815260206004820152602760248201527f496e697469616c697a61626c653a20636f6e747261637420697320696e697469604482015266616c697a696e6760c81b606482015260840160405180910390fd5b60005460ff9081161015620000e2576000805460ff191660ff9081179091556040519081527f7f26b83ff96e1f2b6a682f133852f6798a09c465da95921460cefb38474024989060200160405180910390a15b565b614fa780620000f46000396000f3fe608060405234801561001057600080fd5b50600436106101f05760003560e01c80637125590a1161010f578063b187bd26116100a2578063d3feb60211610071578063d3feb602146105d9578063d45a76cf146105ec578063e6b5be98146105ff578063f9eaee0d1461061257600080fd5b8063b187bd261461057f578063c267621e1461059c578063c3accd48146105ad578063d09edf31146105c057600080fd5b80639447cc1b116100de5780639447cc1b146104cc578063a0c3774f146104df578063a3374177146104f2578063a5900c4d1461052557600080fd5b80637125590a1461048b57806381cbd3ea1461049e5780638456cb59146104b157806390333ba8146104b957600080fd5b8063423a4b401161018757806351a424b11161015657806351a424b1146103c05780635670e2ce146103f85780635ea54eee146104135780636aacaad81461043f57600080fd5b8063423a4b401461033357806342d4693e146103465780634a45a3a8146103605780634fd49efd1461039557600080fd5b80632384c32d116101c35780632384c32d146102f257806330eae572146103055780633bd9ef28146103185780633f4ba83a1461032b57600080fd5b80630fe105e8146101f5578063119a5e961461020a578063219723841461023b578063221a8c681461024e575b600080fd5b6102086102033660046142bd565b610625565b005b610212610676565b6040805160ff909516855260208501939093529183015260608201526080015b60405180910390f35b6102086102493660046144a9565b6106ad565b6102c061025c36600461456d565b6001600160a01b039081166000908152601b6020908152604091829020825160a08101845281549094168085526001820154928501839052600282015493850184905260038201546060860181905260049092015460809095018590529491939091565b604080516001600160a01b0390961686526020860194909452928401919091526060830152608082015260a001610232565b61020861030036600461458a565b610775565b6102086103133660046145df565b6107bc565b6102086103263660046145fa565b610815565b6102086109f0565b61020861034136600461458a565b610aad565b600f546103539060ff1681565b6040516102329190614655565b6103877f454ba43316f2f036b2766780fd407c0017ce5cfc6ff0e621cb1091ced2240b5281565b604051908152602001610232565b6001546103a8906001600160a01b031681565b6040516001600160a01b039091168152602001610232565b6103d36103ce36600461456d565b610af4565b604080516001600160a01b039094168452602084019290925290820152606001610232565b60025460035460408051928352602083019190915201610232565b600654600754600854600954604080519485526020850193909352918301526060820152608001610232565b6102c06040805160a0810182526016546001600160a01b03168082526017546020830181905260185493830184905260195460608401819052601a546080909401849052919490939290565b610208610499366004614696565b610b1d565b601c546103a8906001600160a01b031681565b610208610b60565b6102086104c73660046146b8565b610c21565b6102086104da366004614935565b610c6c565b6103876104ed36600461456d565b610ded565b6103d3604080516060810182526012546001600160a01b0316808252601354602083018190526014549290930182905292565b6103d361053336600461456d565b6001600160a01b03808216600090815260156020908152604091829020825160608101845281549094168085526001820154928501839052600290910154939092018390529093909250565b60045461058c9060ff1681565b6040519015158152602001610232565b601c546001600160a01b03166103a8565b6102086105bb36600461456d565b610e89565b6000546103a8906201000090046001600160a01b031681565b6102086105e73660046146b8565b610eca565b6102c06105fa36600461456d565b610f0f565b61020861060d366004614a36565b610f7e565b61058c61062036600461456d565b610fc5565b6106348460ff16848484611010565b610663336000357fffffffff0000000000000000000000000000000000000000000000000000000016836110bb565b61066f85858585611102565b5050505050565b600a5460009081908190819060ff16600281111561069657610696614626565b600b54600c54600e54935093509350935090919293565b6106db336000357fffffffff00000000000000000000000000000000000000000000000000000000166114c9565b8051825114610716576040517f5d32021a00000000000000000000000000000000000000000000000000000000815260040160405180910390fd5b60005b82518110156107705761075e83828151811061073757610737614a68565b602002602001015183838151811061075157610751614a68565b60200260200101516114e5565b8061076881614ac6565b915050610719565b505050565b6107818484848461158f565b6107b0336000357fffffffff0000000000000000000000000000000000000000000000000000000016836110bb565b61066f858585856115f8565b6107d98160018111156107d1576107d1614626565b60ff166116b1565b610808336000357fffffffff0000000000000000000000000000000000000000000000000000000016836110bb565b610811826116f8565b5050565b61081f8282611773565b61084e336000357fffffffff0000000000000000000000000000000000000000000000000000000016836110bb565b816000036108625761085f83610ded565b91505b61086c83836117e2565b600154604080516001600160a01b03868116602483015260448201869052928316606480830182905283518084039091018152608490920183526020820180517bffffffffffffffffffffffffffffffffffffffffffffffffffffffff167f8f79528c00000000000000000000000000000000000000000000000000000000179052601c5492517f4ae0004100000000000000000000000000000000000000000000000000000000815291936000939192634ae000419261093592169086908690600401614b6c565b6000604051808303816000875af1158015610954573d6000803e3d6000fd5b505050506040513d6000823e601f3d9081017fffffffffffffffffffffffffffffffffffffffffffffffffffffffffffffffe016820160405261099a9190810190614b9e565b9050808060200190518101906109b09190614c50565b6109e6576040517fc3fa62b500000000000000000000000000000000000000000000000000000000815260040160405180910390fd5b61066f8585611866565b610a1e336000357fffffffff00000000000000000000000000000000000000000000000000000000166114c9565b60045460ff16610a5a576040517f9e6558bd00000000000000000000000000000000000000000000000000000000815260040160405180910390fd5b600480547fffffffffffffffffffffffffffffffffffffffffffffffffffffffffffffff001690556040517fa45f47fdea8a1efdd9029a5691c7f759c32b7c698632b563573e155625d1693390600090a1565b610ab98484848461158f565b610ae8336000357fffffffff0000000000000000000000000000000000000000000000000000000016836110bb565b61066f8585858561187a565b600080600080610b038561193a565b805160208201516040909201519097919650945092505050565b610b2782826119c5565b610b56336000357fffffffff0000000000000000000000000000000000000000000000000000000016836110bb565b6107708383611a1f565b610b8e336000357fffffffff00000000000000000000000000000000000000000000000000000000166114c9565b60045460ff1615610bcb576040517fc0f2312800000000000000000000000000000000000000000000000000000000815260040160405180910390fd5b600480547fffffffffffffffffffffffffffffffffffffffffffffffffffffffffffffff001660011790556040517f9e87fac88ff661f02d44f95383c817fece4bce600a3dab7a54406878b965e75290600090a1565b610c2c838383611a64565b610c5b336000357fffffffff0000000000000000000000000000000000000000000000000000000016836110bb565b610c66848484611af6565b50505050565b600054610100900460ff1615808015610c8c5750600054600160ff909116105b80610ca65750303b158015610ca6575060005460ff166001145b610d1d5760405162461bcd60e51b815260206004820152602e60248201527f496e697469616c697a61626c653a20636f6e747261637420697320616c72656160448201527f647920696e697469616c697a656400000000000000000000000000000000000060648201526084015b60405180910390fd5b600080547fffffffffffffffffffffffffffffffffffffffffffffffffffffffffffffff001660011790558015610d7b57600080547fffffffffffffffffffffffffffffffffffffffffffffffffffffffffffff00ff166101001790555b610d858383611b4c565b801561077057600080547fffffffffffffffffffffffffffffffffffffffffffffffffffffffffffff00ff169055604051600181527f7f26b83ff96e1f2b6a682f133852f6798a09c465da95921460cefb3847402498906020015b60405180910390a1505050565b601c546001546040517fd4fac45d0000000000000000000000000000000000000000000000000000000081526001600160a01b0384811660048301529182166024820152600092919091169063d4fac45d90604401602060405180830381865afa158015610e5f573d6000803e3d6000fd5b505050506040513d601f19601f82011682018060405250810190610e839190614c6d565b92915050565b610e9281611bca565b610ec1336000357fffffffff0000000000000000000000000000000000000000000000000000000016836110bb565b61081182611bde565b610ed5838383611a64565b610f04336000357fffffffff0000000000000000000000000000000000000000000000000000000016836110bb565b610c66848484611c80565b600080600080600080610f2187611cd4565b6040805160a08101825282546001600160a01b031680825260018401546020830181905260028501549383018490526003850154606084018190526004909501546080909301839052909b909a5091985091965090945092505050565b610f8a84848484611010565b610fb9336000357fffffffff0000000000000000000000000000000000000000000000000000000016836110bb565b61066f85858585611d08565b6001600160a01b038116600090815260116020526040812054600f549015159060019060ff1681811115610ffb57610ffb614626565b14611007578015611009565b805b9392505050565b60408051600480825260a0820190925260609160208201608080368337019050509050848160008151811061104757611047614a68565b602002602001018181525050838160018151811061106757611067614a68565b602002602001018181525050828160028151811061108757611087614a68565b60200260200101818152505081816003815181106110a7576110a7614a68565b602002602001018181525050949350505050565b6110c6838383611da3565b610770578282826040517f960c80da000000000000000000000000000000000000000000000000000000008152600401610d1493929190614cc1565b60ff84166111fe5760008111806111195750600082115b156111f95782600003611164576040517fbea499cb00000000000000000000000000000000000000000000000000000000815260ff8516600482015260248101849052604401610d14565b80158061117057508281115b156111b3576040517f9e12fccf00000000000000000000000000000000000000000000000000000000815260ff8516600482015260248101829052604401610d14565b816000036111f9576040517fad0d7eb200000000000000000000000000000000000000000000000000000000815260ff8516600482015260248101839052604401610d14565b611414565b82600003611244576040517fbea499cb00000000000000000000000000000000000000000000000000000000815260ff8516600482015260248101849052604401610d14565b80158061125c57506112596224ea0084614d0b565b81115b1561129f576040517f9e12fccf00000000000000000000000000000000000000000000000000000000815260ff8516600482015260248101829052604401610d14565b816000036112e5576040517fad0d7eb200000000000000000000000000000000000000000000000000000000815260ff8516600482015260248101839052604401610d14565b7fffffffffffffffffffffffffffffffffffffffffffffffffffffffffffffffff60ff85160161135e57601c61131a83611e41565b11156111f9576040517fad0d7eb200000000000000000000000000000000000000000000000000000000815260ff8516600482015260248101839052604401610d14565b7ffffffffffffffffffffffffffffffffffffffffffffffffffffffffffffffffe60ff8516016113dd5761139182611e58565b61139a83611e41565b146111f9576040517fad0d7eb200000000000000000000000000000000000000000000000000000000815260ff8516600482015260248101839052604401610d14565b6040517f33a738bc00000000000000000000000000000000000000000000000000000000815260ff85166004820152602401610d14565b8360ff16600281111561142957611429614626565b600a80547fffffffffffffffffffffffffffffffffffffffffffffffffffffffffffffff0016600183600281111561146357611463614626565b0217905550600b839055600c829055600e8190556040805160ff8616815260208101859052908101839052606081018290527f182fd6fa2a8560221614c1396dd4fcc78d26dfacf821a6afb61d25876057e412906080015b60405180910390a150505050565b60408051600081526020810190915261081190839083906110bb565b6001600160a01b038216611525576040517fc41a13ec00000000000000000000000000000000000000000000000000000000815260040160405180910390fd5b8061153a57611535601083611e7b565b611545565b611545601083611e90565b50816001600160a01b03167f6264362e9de26efefda321dfaeb4e4a9090deef40c5435fad8e9e2e306889a1c82604051611583911515815260200190565b60405180910390a25050565b60408051600480825260a0820190925260609160208201608080368337019050509050846001600160a01b0316816000815181106115cf576115cf614a68565b602002602001018181525050836001600160a01b03168160018151811061106757611067614a68565b6001600160a01b038416611638576040517fe7ba3e4a00000000000000000000000000000000000000000000000000000000815260040160405180910390fd5b6001600160a01b038416600090815260156020526040902061165c90848484611ea5565b604080516001600160a01b03858116825260208201859052918101839052908516907ff099617c054d3a65e02a9c3b786f23cc03d5982bc7cfae84dff0408049cf17079060600160405180910390a250505050565b6040805160018082528183019092526060916020808301908036833701905050905081816000815181106116e7576116e7614a68565b602002602001018181525050919050565b600f80548291907fffffffffffffffffffffffffffffffffffffffffffffffffffffffffffffff00166001838181111561173457611734614626565b02179055507f216b6a9618d607ba436d0f2e17e9a83e70929adff805ac2385d67401360e551a816040516117689190614655565b60405180910390a150565b6040805160028082526060808301845292602083019080368337019050509050826001600160a01b0316816000815181106117b0576117b0614a68565b60200260200101818152505081816001815181106117d0576117d0614a68565b60200260200101818152505092915050565b6117ec8282611f8d565b6001600160a01b03821661182c576040517fc0e0f12200000000000000000000000000000000000000000000000000000000815260040160405180910390fd5b80600003610811576040517f1463acbe00000000000000000000000000000000000000000000000000000000815260040160405180910390fd5b6118708282611fd3565b6108118282612072565b6001600160a01b0384166118ba576040517f1de0c9c700000000000000000000000000000000000000000000000000000000815260040160405180910390fd5b6001600160a01b0384166000908152601b602052604090206118de9084848461209a565b826001600160a01b0316846001600160a01b03167f1b5c5e27ed5443e409bae85849d41d7bf12d5352e8fddb3728b6408f836e1448848460405161192c929190918252602082015260400190565b60405180910390a350505050565b611967604051806060016040528060006001600160a01b0316815260200160008152602001600081525090565b6001600160a01b0380831660009081526015602052604090208054909116156119905780611993565b60125b6040805160608101825282546001600160a01b0316815260018301546020820152600290920154908201529392505050565b60408051600280825260608083018452926020830190803683370190505090508260001c816000815181106119fc576119fc614a68565b6020026020010181815250508160001c816001815181106117d0576117d0614a68565b8115611a5a576040517fade7e16800000000000000000000000000000000000000000000000000000000815260048101839052602401610d14565b6108118282612211565b60408051600380825260808201909252606091602082018380368337019050509050836001600160a01b031681600081518110611aa357611aa3614a68565b6020026020010181815250508281600181518110611ac357611ac3614a68565b6020026020010181815250508181600281518110611ae357611ae3614a68565b6020026020010181815250509392505050565b611b03601684848461209a565b60408051838152602081018390526001600160a01b038516917f6324b5f18e615697a2b44f16d7a649deb0bbbc7cb09dad4c610306105730e7d9910160405180910390a2505050565b600054610100900460ff16611bb75760405162461bcd60e51b815260206004820152602b60248201527f496e697469616c697a61626c653a20636f6e7472616374206973206e6f74206960448201526a6e697469616c697a696e6760a81b6064820152608401610d14565b611bc082612294565b610811828261235f565b6060610e83826001600160a01b03166116b1565b6001600160a01b038116611c1e576040517f6594bb4100000000000000000000000000000000000000000000000000000000815260040160405180910390fd5b601c80547fffffffffffffffffffffffff0000000000000000000000000000000000000000166001600160a01b0383169081179091556040517fb491d03b6c989ff3c8769d9d1c74494e7b665047912d10ef3af72a6ab04d4d5190600090a250565b611c8d6012848484611ea5565b604080516001600160a01b0385168152602081018490529081018290527fa80953bdc344b2ebd0bcdd001a3418a8fd1b858bdecf12a4ba5a9366ad65d34590606001610de0565b6001600160a01b038082166000908152601b602052604081208054919290911615611cff5780611009565b60169392505050565b670de0b6b3a7640000811115611d4a576040517fce57496100000000000000000000000000000000000000000000000000000000815260040160405180910390fd5b60068490556007839055600882905560098190556040805185815260208101859052908101839052606081018290527f746dc5eb53c5de07c40b06d428506d6982ea10c423ac2875abfc44038927d691906080016114bb565b600080546040517f28522895000000000000000000000000000000000000000000000000000000008152620100009091046001600160a01b031690632852289590611df8908790309088908890600401614d22565b602060405180830381865afa158015611e15573d6000803e3d6000fd5b505050506040513d601f19601f82011682018060405250810190611e399190614c50565b949350505050565b6000611e39611e536201518084614daf565b6123d3565b60008080611e6c611e536201518086614daf565b5091509150611e39828261248d565b6000611009836001600160a01b038416612513565b6000611009836001600160a01b03841661260d565b60006001600160a01b038416158015611ebc575082155b8015611ec6575081155b905060006001600160a01b03851615801590611eea5750821580611eea5750838310155b905081158015611ef8575080155b15611f48576040517fca1f04830000000000000000000000000000000000000000000000000000000081526001600160a01b03861660048201526024810185905260448101849052606401610d14565b505083547fffffffffffffffffffffffff0000000000000000000000000000000000000000166001600160a01b03939093169290921783556001830155600290910155565b611f97828261265c565b611fa18282612666565b611fab82826126a3565b611fb58282612797565b611fbf82826129ea565b611fc98282612a34565b6108118282612b21565b6003541561081157600180546003546040517feb056bbb00000000000000000000000000000000000000000000000000000000815260048101919091526001600160a01b03858116602483015260448201859052606482019390935291169063eb056bbb906084015b600060405180830381600087803b15801561205657600080fd5b505af115801561206a573d6000803e3d6000fd5b505050505050565b61207c8282612c37565b6120868282612cd9565b6120908282612cfb565b6108118282612f45565b60006001600160a01b0384161580156120b1575082155b80156120bb575081155b905060006001600160a01b038516158015906120d75750600084115b80156120e35750600083115b9050811580156120f1575080155b15612141576040517ff5deb5dc0000000000000000000000000000000000000000000000000000000081526001600160a01b03861660048201526024810185905260448101849052606401610d14565b600386018390556001860184905581156121685760006002870181905560048701556121d4565b856004015460000361218f57600060028701556121858342614dc3565b60048701556121d4565b85546001600160a01b038681169116146121d45785546000906121bb906001600160a01b031687612f72565b60028801549091506121cd9082612f7e565b6002880155505b505083547fffffffffffffffffffffffff0000000000000000000000000000000000000000166001600160a01b0393909316929092179092555050565b808214801561221f57508115155b15612259576040517f0fb49edb00000000000000000000000000000000000000000000000000000000815260048101839052602401610d14565b60028290556003819055604051819083907ff950a929751d87db181a0a517df21bb3ecd433abba584594402db4b58a55483590600090a35050565b600054610100900460ff166122ff5760405162461bcd60e51b815260206004820152602b60248201527f496e697469616c697a61626c653a20636f6e7472616374206973206e6f74206960448201526a6e697469616c697a696e6760a81b6064820152608401610d14565b805161230a90612ff4565b6123126130d6565b61231f816020015161314b565b61232c81604001516131bf565b6123398160600151613233565b61234681608001516132a7565b6123538160a0015161331b565b61235c8161338f565b50565b600054610100900460ff166123ca5760405162461bcd60e51b815260206004820152602b60248201527f496e697469616c697a61626c653a20636f6e7472616374206973206e6f74206960448201526a6e697469616c697a696e6760a81b6064820152608401610d14565b61081181611bde565b60008080836226496581018262023ab1600483020590506004600362023ab18302010590910390600062164b09610fa0600185010205905060046105b58202058303601f019250600061098f846050028161243057612430614d80565b0590506000605061098f83020585039050600b82057fffffffffffffffffffffffffffffffffffffffffffffffffffffffffffffffcf94909401606402929092018301996002600c90940290910392909201975095509350505050565b6000816001148061249e5750816003145b806124a95750816005145b806124b45750816007145b806124bf5750816008145b806124ca575081600a145b806124d5575081600c145b156124e25750601f610e83565b816002146124f25750601e610e83565b6124fb836133fa565b61250657601c612509565b601d5b60ff169392505050565b600081815260018301602052604081205480156125fc576000612537600183614dd6565b855490915060009061254b90600190614dd6565b90508181146125b057600086600001828154811061256b5761256b614a68565b906000526020600020015490508087600001848154811061258e5761258e614a68565b6000918252602080832090910192909255918252600188019052604090208390555b85548690806125c1576125c1614de9565b600190038181906000526020600020016000905590558560010160008681526020019081526020016000206000905560019350505050610e83565b6000915050610e83565b5092915050565b600081815260018301602052604081205461265457508154600181810184556000848152602080822090930184905584548482528286019093526040902091909155610e83565b506000610e83565b6108118282613436565b60045460ff1615610811576040517fc0f2312800000000000000000000000000000000000000000000000000000000815260040160405180910390fd5b5a6005556040805160808101825260065480825260075460208301526008549282019290925260095460608201529060009015806126e2575081513a11155b9050806127275781516040517fcbb35eb70000000000000000000000000000000000000000000000000000000081523a60048201526024810191909152604401610d14565b6000612733483a614dd6565b9050600083602001516000148061274e575083602001518211155b90508061206a5760208401516040517f56e5387f000000000000000000000000000000000000000000000000000000008152610d14918491600401918252602082015260400190565b600a54600b54600c54600e5460ff90931692428211156127ec576040517f013ce60b00000000000000000000000000000000000000000000000000000000815242600482015260248101839052604401610d14565b600084600281111561280057612800614626565b036128d2578260000361281557505050505050565b8060000361282f576128278342614dc3565b600d5561206a565b600061283b8342614dd6565b905060006128498583614daf565b905060006128578683614d0b565b6128619084614dd6565b9050838111156128a6576040517f013ce60b00000000000000000000000000000000000000000000000000000000815242600482015260248101869052604401610d14565b856128b2836001614dc3565b6128bc9190614d0b565b6128c69086614dc3565b600d555061206a915050565b8142101580156128eb57506128e78183614dc3565b4211155b156128fa5761282782846134a2565b6000600185600281111561291057612910614626565b146129235761291e42611e58565b61292c565b61292c83611e41565b9050600061293a848361353a565b90508042101561297f576040517f013ce60b00000000000000000000000000000000000000000000000000000000815242600482015260248101829052604401610d14565b600061298b8483614dc3565b905042811080156129d1576040517f013ce60b00000000000000000000000000000000000000000000000000000000815242600482015260248101839052604401610d14565b6129db83886134a2565b600d5550505050505050505050565b6129f382610fc5565b610811576040517f7a2410450000000000000000000000000000000000000000000000000000000081526001600160a01b0383166004820152602401610d14565b6000612a3f8361193a565b80519091506001600160a01b0316612a5657505050565b6000836001600160a01b031682600001516001600160a01b031614612a9257612a8d612a86858460000151612f72565b8490612f7e565b612a94565b825b9050600082602001518210158015612abc575060408301511580612abc575082604001518211155b90508061066f578251602084015160408086015190517f7c63a4b00000000000000000000000000000000000000000000000000000000081526001600160a01b0390931660048401526024830185905260448301919091526064820152608401610d14565b6000612b2c83611cd4565b6040805160a08101825282546001600160a01b031680825260018401546020830152600284015492820192909252600383015460608201526004909201546080830152909150612b7b57505050565b6000836001600160a01b031682600001516001600160a01b031614612bb057612bab612a86858460000151612f72565b612bb2565b825b9050600082608001514210612bc8576000612bce565b82604001515b612bd89083614dc3565b9050826020015181111561066f57825160208401516040517fb8858d5d0000000000000000000000000000000000000000000000000000000081526001600160a01b039092166004830152602482015260448101829052606401610d14565b6000612c4283611cd4565b80549091506001600160a01b0316612c5957505050565b80546000906001600160a01b03858116911614612c8f578154612c8a90612a869086906001600160a01b0316612f72565b612c91565b825b905081600401544210612cba57600060028301556003820154612cb49042614dc3565b60048301555b80826002016000828254612cce9190614dc3565b909155505050505050565b600d54600003612ce7575050565b612cf2600d54613562565b50506000600d55565b600554600003612d37576040517f1f5b8fc600000000000000000000000000000000000000000000000000000000815260040160405180910390fd5b604080516080810182526006548152600754602082015260085491810191909152600954606082015260005a600554612d709190614dd6565b90506000612d7e3a83614d0b565b90506000836040015160001480612d99575083604001518211155b905080612de3578184604001516040517faf258ef2000000000000000000000000000000000000000000000000000000008152600401610d14929190918252602082015260400190565b6000600555606084015115801590612dfb5750600085115b1561206a576000612ece306001600160a01b0316634fd49efd6040518163ffffffff1660e01b8152600401602060405180830381865afa158015612e43573d6000803e3d6000fd5b505050506040513d601f19601f82011682018060405250810190612e679190614e18565b6001600160a01b03166317fcb39b6040518163ffffffff1660e01b8152600401602060405180830381865afa158015612ea4573d6000803e3d6000fd5b505050506040513d601f19601f82011682018060405250810190612ec89190614e18565b88612f72565b90506000612edc8483613597565b90506000612eea8289613640565b90508660600151811115612f3a5760608701516040517f0297747f000000000000000000000000000000000000000000000000000000008152610d14918391600401918252602082015260400190565b505050505050505050565b6040517f68f46c45a243a0e9065a97649faf9a5afe1692f2679e650c2f853b9cd734cc0e90600090a15050565b60006110098383613709565b60008282028315801590612fa1575082848281612f9d57612f9d614d80565b0414155b15612fe2576040517fe8e4a4fa0000000000000000000000000000000000000000000000000000000081526004810185905260248101849052604401610d14565b670de0b6b3a764000090049392505050565b600054610100900460ff1661305f5760405162461bcd60e51b815260206004820152602b60248201527f496e697469616c697a61626c653a20636f6e7472616374206973206e6f74206960448201526a6e697469616c697a696e6760a81b6064820152608401610d14565b6130cd81600001516001600160a01b031663d09edf316040518163ffffffff1660e01b8152600401602060405180830381865afa1580156130a4573d6000803e3d6000fd5b505050506040513d601f19601f820116820180604052508101906130c89190614e18565b613917565b61235c8161398b565b600054610100900460ff166131415760405162461bcd60e51b815260206004820152602b60248201527f496e697469616c697a61626c653a20636f6e7472616374206973206e6f74206960448201526a6e697469616c697a696e6760a81b6064820152608401610d14565b613149613a43565b565b600054610100900460ff166131b65760405162461bcd60e51b815260206004820152602b60248201527f496e697469616c697a61626c653a20636f6e7472616374206973206e6f74206960448201526a6e697469616c697a696e6760a81b6064820152608401610d14565b61235c81613aae565b600054610100900460ff1661322a5760405162461bcd60e51b815260206004820152602b60248201527f496e697469616c697a61626c653a20636f6e7472616374206973206e6f74206960448201526a6e697469616c697a696e6760a81b6064820152608401610d14565b61235c81613b35565b600054610100900460ff1661329e5760405162461bcd60e51b815260206004820152602b60248201527f496e697469616c697a61626c653a20636f6e7472616374206973206e6f74206960448201526a6e697469616c697a696e6760a81b6064820152608401610d14565b61235c81613bbc565b600054610100900460ff166133125760405162461bcd60e51b815260206004820152602b60248201527f496e697469616c697a61626c653a20636f6e7472616374206973206e6f74206960448201526a6e697469616c697a696e6760a81b6064820152608401610d14565b61235c81613c7c565b600054610100900460ff166133865760405162461bcd60e51b815260206004820152602b60248201527f496e697469616c697a61626c653a20636f6e7472616374206973206e6f74206960448201526a6e697469616c697a696e6760a81b6064820152608401610d14565b61235c81613d6c565b600054610100900460ff1661235c5760405162461bcd60e51b815260206004820152602b60248201527f496e697469616c697a61626c653a20636f6e7472616374206973206e6f74206960448201526a6e697469616c697a696e6760a81b6064820152608401610d14565b6000613407600483614e35565b15801561341d575061341a606483614e35565b15155b80610e83575061342f61019083614e35565b1592915050565b60025415610811576001546002546040517feb056bbb00000000000000000000000000000000000000000000000000000000815260048101919091526001600160a01b03848116602483015260448201849052600060648301529091169063eb056bbb9060840161203c565b6000806000806134b186613e5c565b9194509250905060006134c48684614dc3565b905060006134d3600c83614e35565b905060006134e2600c84614daf565b6134ec9087614dc3565b905060006002600a5460ff16600281111561350957613509614626565b14613514578461351e565b61351e828461248d565b905061352c8a838584613e7b565b9a9950505050505050505050565b600080600061354842613e5c565b509150915061355985838387613e7b565b95945050505050565b600c8190556040518181527ff90744bee56935ec5acc9de37b89c0c545298c667ee417bd9469e9c6836ad06490602001611768565b600082820283158015906135ba5750828482816135b6576135b6614d80565b0414155b156135fb576040517fe8e4a4fa0000000000000000000000000000000000000000000000000000000081526004810185905260248101849052604401610d14565b801561363657670de0b6b3a76400007fffffffffffffffffffffffffffffffffffffffffffffffffffffffffffffffff820104600101611e39565b6000949350505050565b60008160000361367c576040517fb8a2f92100000000000000000000000000000000000000000000000000000000815260040160405180910390fd5b8260000361368c57506000610e83565b670de0b6b3a7640000838102908482816136a8576136a8614d80565b04146136ea576040517fea7b49e60000000000000000000000000000000000000000000000000000000081526004810185905260248101829052604401610d14565b8260018203816136fc576136fc614d80565b0460010191505092915050565b600080600160009054906101000a90046001600160a01b03166001600160a01b0316632630c12f6040518163ffffffff1660e01b8152600401602060405180830381865afa15801561375f573d6000803e3d6000fd5b505050506040513d601f19601f820116820180604052508101906137839190614e18565b90506001600160a01b0381166137d4576001546040517f38d2baae0000000000000000000000000000000000000000000000000000000081526001600160a01b039091166004820152602401610d14565b60006137de613ea3565b9050805160001461386f57816001600160a01b031663355efdd961380187613f23565b61380a87613f23565b846040518463ffffffff1660e01b815260040161382993929190614e49565b602060405180830381865afa158015613846573d6000803e3d6000fd5b505050506040513d601f19601f8201168201806040525081019061386a9190614c6d565b613559565b816001600160a01b031663ac41865a61388787613f23565b61389087613f23565b6040517fffffffff0000000000000000000000000000000000000000000000000000000060e085901b1681526001600160a01b03928316600482015291166024820152604401602060405180830381865afa1580156138f3573d6000803e3d6000fd5b505050506040513d601f19601f820116820180604052508101906135599190614c6d565b600054610100900460ff166139825760405162461bcd60e51b815260206004820152602b60248201527f496e697469616c697a61626c653a20636f6e7472616374206973206e6f74206960448201526a6e697469616c697a696e6760a81b6064820152608401610d14565b61235c81613f57565b600054610100900460ff166139f65760405162461bcd60e51b815260206004820152602b60248201527f496e697469616c697a61626c653a20636f6e7472616374206973206e6f74206960448201526a6e697469616c697a696e6760a81b6064820152608401610d14565b8051600180547fffffffffffffffffffffffff0000000000000000000000000000000000000000166001600160a01b039092169190911790556020810151604082015161235c9190611a1f565b600054610100900460ff166131495760405162461bcd60e51b815260206004820152602b60248201527f496e697469616c697a61626c653a20636f6e7472616374206973206e6f74206960448201526a6e697469616c697a696e6760a81b6064820152608401610d14565b600054610100900460ff16613b195760405162461bcd60e51b815260206004820152602b60248201527f496e697469616c697a61626c653a20636f6e7472616374206973206e6f74206960448201526a6e697469616c697a696e6760a81b6064820152608401610d14565b61235c8160000151826020015183604001518460600151611d08565b600054610100900460ff16613ba05760405162461bcd60e51b815260206004820152602b60248201527f496e697469616c697a61626c653a20636f6e7472616374206973206e6f74206960448201526a6e697469616c697a696e6760a81b6064820152608401610d14565b61235c8160000151826020015183604001518460600151611102565b600054610100900460ff16613c275760405162461bcd60e51b815260206004820152602b60248201527f496e697469616c697a61626c653a20636f6e7472616374206973206e6f74206960448201526a6e697469616c697a696e6760a81b6064820152608401610d14565b8051613c32906116f8565b60005b81602001515181101561081157613c6a82602001518281518110613c5b57613c5b614a68565b602002602001015160016114e5565b80613c7481614ac6565b915050613c35565b600054610100900460ff16613ce75760405162461bcd60e51b815260206004820152602b60248201527f496e697469616c697a61626c653a20636f6e7472616374206973206e6f74206960448201526a6e697469616c697a696e6760a81b6064820152608401610d14565b8051805160208201516040830151613d00929190611c80565b60005b82602001515181101561077057600083602001518281518110613d2857613d28614a68565b60200260200101519050600081602001519050613d5782600001518260000151836020015184604001516115f8565b50508080613d6490614ac6565b915050613d03565b600054610100900460ff16613dd75760405162461bcd60e51b815260206004820152602b60248201527f496e697469616c697a61626c653a20636f6e7472616374206973206e6f74206960448201526a6e697469616c697a696e6760a81b6064820152608401610d14565b8051805160208201516040830151613df0929190611af6565b60005b82602001515181101561077057600083602001518281518110613e1857613e18614a68565b60200260200101519050600081602001519050613e47826000015182600001518360200151846040015161187a565b50508080613e5490614ac6565b915050613df3565b60008080613e6e6201518085046123d3565b9196909550909350915050565b6000613559848484613e8c89614002565b613e958a614020565b613e9e8b61403c565b614049565b60606000613eaf6140a5565b905036811115613ecd57505060408051600081526020810190915290565b8067ffffffffffffffff811115613ee657613ee66142f6565b6040519080825280601f01601f191660200182016040528015613f10576020820181803683370190505b5091508060208236030360208401375090565b600073eeeeeeeeeeeeeeeeeeeeeeeeeeeeeeeeeeeeeeee6001600160a01b03831614613f4f5781610e83565b610e836140de565b600054610100900460ff16613fc25760405162461bcd60e51b815260206004820152602b60248201527f496e697469616c697a61626c653a20636f6e7472616374206973206e6f74206960448201526a6e697469616c697a696e6760a81b6064820152608401610d14565b600080546001600160a01b0390921662010000027fffffffffffffffffffff0000000000000000000000000000000000000000ffff909216919091179055565b6000806140126201518084614e35565b9050611009610e1082614daf565b60008061402f610e1084614e35565b9050611009603c82614daf565b6000610e83603c83614e35565b600081614057603c85614d0b565b614063610e1087614d0b565b620151806140728b8b8b61416a565b61407c9190614d0b565b6140869190614dc3565b6140909190614dc3565b61409a9190614dc3565b979650505050505050565b600060243610156140b65750600090565b507fffffffffffffffffffffffffffffffffffffffffffffffffffffffffffffffe036013590565b600154604080517f17fcb39b00000000000000000000000000000000000000000000000000000000815290516000926001600160a01b0316916317fcb39b9160048083019260209291908290030181865afa158015614141573d6000803e3d6000fd5b505050506040513d601f19601f820116820180604052508101906141659190614e18565b905090565b60006107b284101561417b57600080fd5b838383600062253d8c60046064600c614195600e88614e75565b61419f9190614e95565b6141ab88611324614efd565b6141b59190614efd565b6141bf9190614e95565b6141ca906003614f25565b6141d49190614e95565b600c806141e2600e88614e75565b6141ec9190614e95565b6141f790600c614f25565b614202600288614e75565b61420c9190614e75565b6142189061016f614f25565b6142229190614e95565b6004600c614231600e89614e75565b61423b9190614e95565b614247896112c0614efd565b6142519190614efd565b61425d906105b5614f25565b6142679190614e95565b614273617d4b87614e75565b61427d9190614efd565b6142879190614efd565b6142919190614e75565b61429b9190614e75565b98975050505050505050565b803560ff811681146142b857600080fd5b919050565b600080600080608085870312156142d357600080fd5b6142dc856142a7565b966020860135965060408601359560600135945092505050565b7f4e487b7100000000000000000000000000000000000000000000000000000000600052604160045260246000fd5b6040516080810167ffffffffffffffff81118282101715614348576143486142f6565b60405290565b6040805190810167ffffffffffffffff81118282101715614348576143486142f6565b60405160c0810167ffffffffffffffff81118282101715614348576143486142f6565b604051601f82017fffffffffffffffffffffffffffffffffffffffffffffffffffffffffffffffe016810167ffffffffffffffff811182821017156143db576143db6142f6565b604052919050565b600067ffffffffffffffff8211156143fd576143fd6142f6565b5060051b60200190565b6001600160a01b038116811461235c57600080fd5b80356142b881614407565b600082601f83011261443857600080fd5b8135602061444d614448836143e3565b614394565b82815260059290921b8401810191818101908684111561446c57600080fd5b8286015b8481101561449057803561448381614407565b8352918301918301614470565b509695505050505050565b801515811461235c57600080fd5b600080604083850312156144bc57600080fd5b823567ffffffffffffffff808211156144d457600080fd5b6144e086838701614427565b93506020915081850135818111156144f757600080fd5b85019050601f8101861361450a57600080fd5b8035614518614448826143e3565b81815260059190911b8201830190838101908883111561453757600080fd5b928401925b8284101561455e57833561454f8161449b565b8252928401929084019061453c565b80955050505050509250929050565b60006020828403121561457f57600080fd5b813561100981614407565b600080600080608085870312156145a057600080fd5b84356145ab81614407565b935060208501356145bb81614407565b93969395505050506040820135916060013590565b8035600281106142b857600080fd5b6000602082840312156145f157600080fd5b611009826145d0565b6000806040838503121561460d57600080fd5b823561461881614407565b946020939093013593505050565b7f4e487b7100000000000000000000000000000000000000000000000000000000600052602160045260246000fd5b6020810160028310614690577f4e487b7100000000000000000000000000000000000000000000000000000000600052602160045260246000fd5b91905290565b600080604083850312156146a957600080fd5b50508035926020909101359150565b6000806000606084860312156146cd57600080fd5b83356146d881614407565b95602085013595506040909401359392505050565b6000606082840312156146ff57600080fd5b6040516060810181811067ffffffffffffffff82111715614722576147226142f6565b604052905080823561473381614407565b8082525060208301356020820152604083013560408201525092915050565b60006080828403121561476457600080fd5b61476c614325565b90508135815260208201356020820152604082013560408201526060820135606082015292915050565b6000608082840312156147a857600080fd5b6147b0614325565b90506147bb826142a7565b815260208201356020820152604082013560408201526060820135606082015292915050565b6000604082840312156147f357600080fd5b6147fb61434e565b9050614806826145d0565b8152602082013567ffffffffffffffff81111561482257600080fd5b61482e84828501614427565b60208301525092915050565b60006080828403121561484c57600080fd5b61485461434e565b9050813561486181614407565b815261487083602084016146ed565b602082015292915050565b6000608080838503121561488e57600080fd5b61489661434e565b91506148a284846146ed565b8252606083013567ffffffffffffffff8111156148be57600080fd5b8301601f810185136148cf57600080fd5b803560206148df614448836143e3565b82815260079290921b830181019181810190888411156148fe57600080fd5b938201935b8385101561492457614915898661483a565b82529385019390820190614903565b808388015250505050505092915050565b6000806040838503121561494857600080fd5b823567ffffffffffffffff8082111561496057600080fd5b908401906101c0828703121561497557600080fd5b61497d614371565b61498787846146ed565b81526149968760608501614752565b60208201526149a88760e08501614796565b6040820152610160830135828111156149c057600080fd5b6149cc888286016147e1565b606083015250610180830135828111156149e557600080fd5b6149f18882860161487b565b6080830152506101a083013582811115614a0a57600080fd5b614a168882860161487b565b60a0830152509350614a2d9150506020840161441c565b90509250929050565b60008060008060808587031215614a4c57600080fd5b5050823594602084013594506040840135936060013592509050565b7f4e487b7100000000000000000000000000000000000000000000000000000000600052603260045260246000fd5b7f4e487b7100000000000000000000000000000000000000000000000000000000600052601160045260246000fd5b60007fffffffffffffffffffffffffffffffffffffffffffffffffffffffffffffffff8203614af757614af7614a97565b5060010190565b60005b83811015614b19578181015183820152602001614b01565b50506000910152565b60008151808452614b3a816020860160208601614afe565b601f017fffffffffffffffffffffffffffffffffffffffffffffffffffffffffffffffe0169290920160200192915050565b6001600160a01b0384168152606060208201526000614b8e6060830185614b22565b9050826040830152949350505050565b600060208284031215614bb057600080fd5b815167ffffffffffffffff80821115614bc857600080fd5b818401915084601f830112614bdc57600080fd5b815181811115614bee57614bee6142f6565b614c1f60207fffffffffffffffffffffffffffffffffffffffffffffffffffffffffffffffe0601f84011601614394565b9150808252856020828501011115614c3657600080fd5b614c47816020840160208601614afe565b50949350505050565b600060208284031215614c6257600080fd5b81516110098161449b565b600060208284031215614c7f57600080fd5b5051919050565b600081518084526020808501945080840160005b83811015614cb657815187529582019590820190600101614c9a565b509495945050505050565b6001600160a01b03841681527fffffffff00000000000000000000000000000000000000000000000000000000831660208201526060604082015260006135596060830184614c86565b8082028115828204841417610e8357610e83614a97565b60006001600160a01b0380871683528086166020840152507fffffffff000000000000000000000000000000000000000000000000000000008416604083015260806060830152614d766080830184614c86565b9695505050505050565b7f4e487b7100000000000000000000000000000000000000000000000000000000600052601260045260246000fd5b600082614dbe57614dbe614d80565b500490565b80820180821115610e8357610e83614a97565b81810381811115610e8357610e83614a97565b7f4e487b7100000000000000000000000000000000000000000000000000000000600052603160045260246000fd5b600060208284031215614e2a57600080fd5b815161100981614407565b600082614e4457614e44614d80565b500690565b60006001600160a01b038086168352808516602084015250606060408301526135596060830184614b22565b818103600083128015838313168383128216171561260657612606614a97565b600082614ea457614ea4614d80565b7fffffffffffffffffffffffffffffffffffffffffffffffffffffffffffffffff83147f800000000000000000000000000000000000000000000000000000000000000083141615614ef857614ef8614a97565b500590565b8082018281126000831280158216821582161715614f1d57614f1d614a97565b505092915050565b808202600082127f800000000000000000000000000000000000000000000000000000000000000084141615614f5d57614f5d614a97565b8181058314821517610e8357610e83614a9756fea26469706673582212209a7dc7d4149f9b6620de50eb26dd07d350a45faade78ebfedb30dafc0267a3a164736f6c63430008110033","opcodes":"PUSH1 0x80 PUSH1 0x40 MSTORE CALLVALUE DUP1 ISZERO PUSH3 0x11 JUMPI PUSH1 0x0 DUP1 REVERT JUMPDEST POP PUSH3 0x1C PUSH3 0x22 JUMP JUMPDEST PUSH3 0xE4 JUMP JUMPDEST PUSH1 0x0 SLOAD PUSH2 0x100 SWAP1 DIV PUSH1 0xFF AND ISZERO PUSH3 0x8F JUMPI PUSH1 0x40 MLOAD PUSH3 0x461BCD PUSH1 0xE5 SHL DUP2 MSTORE PUSH1 0x20 PUSH1 0x4 DUP3 ADD MSTORE PUSH1 0x27 PUSH1 0x24 DUP3 ADD MSTORE PUSH32 0x496E697469616C697A61626C653A20636F6E747261637420697320696E697469 PUSH1 0x44 DUP3 ADD MSTORE PUSH7 0x616C697A696E67 PUSH1 0xC8 SHL PUSH1 0x64 DUP3 ADD MSTORE PUSH1 0x84 ADD PUSH1 0x40 MLOAD DUP1 SWAP2 SUB SWAP1 REVERT JUMPDEST PUSH1 0x0 SLOAD PUSH1 0xFF SWAP1 DUP2 AND LT ISZERO PUSH3 0xE2 JUMPI PUSH1 0x0 DUP1 SLOAD PUSH1 0xFF NOT AND PUSH1 0xFF SWAP1 DUP2 OR SWAP1 SWAP2 SSTORE PUSH1 0x40 MLOAD SWAP1 DUP2 MSTORE PUSH32 0x7F26B83FF96E1F2B6A682F133852F6798A09C465DA95921460CEFB3847402498 SWAP1 PUSH1 0x20 ADD PUSH1 0x40 MLOAD DUP1 SWAP2 SUB SWAP1 LOG1 JUMPDEST JUMP JUMPDEST PUSH2 0x4FA7 DUP1 PUSH3 0xF4 PUSH1 0x0 CODECOPY PUSH1 0x0 RETURN INVALID PUSH1 0x80 PUSH1 0x40 MSTORE CALLVALUE DUP1 ISZERO PUSH2 0x10 JUMPI PUSH1 0x0 DUP1 REVERT JUMPDEST POP PUSH1 0x4 CALLDATASIZE LT PUSH2 0x1F0 JUMPI PUSH1 0x0 CALLDATALOAD PUSH1 0xE0 SHR DUP1 PUSH4 0x7125590A GT PUSH2 0x10F JUMPI DUP1 PUSH4 0xB187BD26 GT PUSH2 0xA2 JUMPI DUP1 PUSH4 0xD3FEB602 GT PUSH2 0x71 JUMPI DUP1 PUSH4 0xD3FEB602 EQ PUSH2 0x5D9 JUMPI DUP1 PUSH4 0xD45A76CF EQ PUSH2 0x5EC JUMPI DUP1 PUSH4 0xE6B5BE98 EQ PUSH2 0x5FF JUMPI DUP1 PUSH4 0xF9EAEE0D EQ PUSH2 0x612 JUMPI PUSH1 0x0 DUP1 REVERT JUMPDEST DUP1 PUSH4 0xB187BD26 EQ PUSH2 0x57F JUMPI DUP1 PUSH4 0xC267621E EQ PUSH2 0x59C JUMPI DUP1 PUSH4 0xC3ACCD48 EQ PUSH2 0x5AD JUMPI DUP1 PUSH4 0xD09EDF31 EQ PUSH2 0x5C0 JUMPI PUSH1 0x0 DUP1 REVERT JUMPDEST DUP1 PUSH4 0x9447CC1B GT PUSH2 0xDE JUMPI DUP1 PUSH4 0x9447CC1B EQ PUSH2 0x4CC JUMPI DUP1 PUSH4 0xA0C3774F EQ PUSH2 0x4DF JUMPI DUP1 PUSH4 0xA3374177 EQ PUSH2 0x4F2 JUMPI DUP1 PUSH4 0xA5900C4D EQ PUSH2 0x525 JUMPI PUSH1 0x0 DUP1 REVERT JUMPDEST DUP1 PUSH4 0x7125590A EQ PUSH2 0x48B JUMPI DUP1 PUSH4 0x81CBD3EA EQ PUSH2 0x49E JUMPI DUP1 PUSH4 0x8456CB59 EQ PUSH2 0x4B1 JUMPI DUP1 PUSH4 0x90333BA8 EQ PUSH2 0x4B9 JUMPI PUSH1 0x0 DUP1 REVERT JUMPDEST DUP1 PUSH4 0x423A4B40 GT PUSH2 0x187 JUMPI DUP1 PUSH4 0x51A424B1 GT PUSH2 0x156 JUMPI DUP1 PUSH4 0x51A424B1 EQ PUSH2 0x3C0 JUMPI DUP1 PUSH4 0x5670E2CE EQ PUSH2 0x3F8 JUMPI DUP1 PUSH4 0x5EA54EEE EQ PUSH2 0x413 JUMPI DUP1 PUSH4 0x6AACAAD8 EQ PUSH2 0x43F JUMPI PUSH1 0x0 DUP1 REVERT JUMPDEST DUP1 PUSH4 0x423A4B40 EQ PUSH2 0x333 JUMPI DUP1 PUSH4 0x42D4693E EQ PUSH2 0x346 JUMPI DUP1 PUSH4 0x4A45A3A8 EQ PUSH2 0x360 JUMPI DUP1 PUSH4 0x4FD49EFD EQ PUSH2 0x395 JUMPI PUSH1 0x0 DUP1 REVERT JUMPDEST DUP1 PUSH4 0x2384C32D GT PUSH2 0x1C3 JUMPI DUP1 PUSH4 0x2384C32D EQ PUSH2 0x2F2 JUMPI DUP1 PUSH4 0x30EAE572 EQ PUSH2 0x305 JUMPI DUP1 PUSH4 0x3BD9EF28 EQ PUSH2 0x318 JUMPI DUP1 PUSH4 0x3F4BA83A EQ PUSH2 0x32B JUMPI PUSH1 0x0 DUP1 REVERT JUMPDEST DUP1 PUSH4 0xFE105E8 EQ PUSH2 0x1F5 JUMPI DUP1 PUSH4 0x119A5E96 EQ PUSH2 0x20A JUMPI DUP1 PUSH4 0x21972384 EQ PUSH2 0x23B JUMPI DUP1 PUSH4 0x221A8C68 EQ PUSH2 0x24E JUMPI JUMPDEST PUSH1 0x0 DUP1 REVERT JUMPDEST PUSH2 0x208 PUSH2 0x203 CALLDATASIZE PUSH1 0x4 PUSH2 0x42BD JUMP JUMPDEST PUSH2 0x625 JUMP JUMPDEST STOP JUMPDEST PUSH2 0x212 PUSH2 0x676 JUMP JUMPDEST PUSH1 0x40 DUP1 MLOAD PUSH1 0xFF SWAP1 SWAP6 AND DUP6 MSTORE PUSH1 0x20 DUP6 ADD SWAP4 SWAP1 SWAP4 MSTORE SWAP2 DUP4 ADD MSTORE PUSH1 0x60 DUP3 ADD MSTORE PUSH1 0x80 ADD JUMPDEST PUSH1 0x40 MLOAD DUP1 SWAP2 SUB SWAP1 RETURN JUMPDEST PUSH2 0x208 PUSH2 0x249 CALLDATASIZE PUSH1 0x4 PUSH2 0x44A9 JUMP JUMPDEST PUSH2 0x6AD JUMP JUMPDEST PUSH2 0x2C0 PUSH2 0x25C CALLDATASIZE PUSH1 0x4 PUSH2 0x456D JUMP JUMPDEST PUSH1 0x1 PUSH1 0x1 PUSH1 0xA0 SHL SUB SWAP1 DUP2 AND PUSH1 0x0 SWAP1 DUP2 MSTORE PUSH1 0x1B PUSH1 0x20 SWAP1 DUP2 MSTORE PUSH1 0x40 SWAP2 DUP3 SWAP1 KECCAK256 DUP3 MLOAD PUSH1 0xA0 DUP2 ADD DUP5 MSTORE DUP2 SLOAD SWAP1 SWAP5 AND DUP1 DUP6 MSTORE PUSH1 0x1 DUP3 ADD SLOAD SWAP3 DUP6 ADD DUP4 SWAP1 MSTORE PUSH1 0x2 DUP3 ADD SLOAD SWAP4 DUP6 ADD DUP5 SWAP1 MSTORE PUSH1 0x3 DUP3 ADD SLOAD PUSH1 0x60 DUP7 ADD DUP2 SWAP1 MSTORE PUSH1 0x4 SWAP1 SWAP3 ADD SLOAD PUSH1 0x80 SWAP1 SWAP6 ADD DUP6 SWAP1 MSTORE SWAP5 SWAP2 SWAP4 SWAP1 SWAP2 JUMP JUMPDEST PUSH1 0x40 DUP1 MLOAD PUSH1 0x1 PUSH1 0x1 PUSH1 0xA0 SHL SUB SWAP1 SWAP7 AND DUP7 MSTORE PUSH1 0x20 DUP7 ADD SWAP5 SWAP1 SWAP5 MSTORE SWAP3 DUP5 ADD SWAP2 SWAP1 SWAP2 MSTORE PUSH1 0x60 DUP4 ADD MSTORE PUSH1 0x80 DUP3 ADD MSTORE PUSH1 0xA0 ADD PUSH2 0x232 JUMP JUMPDEST PUSH2 0x208 PUSH2 0x300 CALLDATASIZE PUSH1 0x4 PUSH2 0x458A JUMP JUMPDEST PUSH2 0x775 JUMP JUMPDEST PUSH2 0x208 PUSH2 0x313 CALLDATASIZE PUSH1 0x4 PUSH2 0x45DF JUMP JUMPDEST PUSH2 0x7BC JUMP JUMPDEST PUSH2 0x208 PUSH2 0x326 CALLDATASIZE PUSH1 0x4 PUSH2 0x45FA JUMP JUMPDEST PUSH2 0x815 JUMP JUMPDEST PUSH2 0x208 PUSH2 0x9F0 JUMP JUMPDEST PUSH2 0x208 PUSH2 0x341 CALLDATASIZE PUSH1 0x4 PUSH2 0x458A JUMP JUMPDEST PUSH2 0xAAD JUMP JUMPDEST PUSH1 0xF SLOAD PUSH2 0x353 SWAP1 PUSH1 0xFF AND DUP2 JUMP JUMPDEST PUSH1 0x40 MLOAD PUSH2 0x232 SWAP2 SWAP1 PUSH2 0x4655 JUMP JUMPDEST PUSH2 0x387 PUSH32 0x454BA43316F2F036B2766780FD407C0017CE5CFC6FF0E621CB1091CED2240B52 DUP2 JUMP JUMPDEST PUSH1 0x40 MLOAD SWAP1 DUP2 MSTORE PUSH1 0x20 ADD PUSH2 0x232 JUMP JUMPDEST PUSH1 0x1 SLOAD PUSH2 0x3A8 SWAP1 PUSH1 0x1 PUSH1 0x1 PUSH1 0xA0 SHL SUB AND DUP2 JUMP JUMPDEST PUSH1 0x40 MLOAD PUSH1 0x1 PUSH1 0x1 PUSH1 0xA0 SHL SUB SWAP1 SWAP2 AND DUP2 MSTORE PUSH1 0x20 ADD PUSH2 0x232 JUMP JUMPDEST PUSH2 0x3D3 PUSH2 0x3CE CALLDATASIZE PUSH1 0x4 PUSH2 0x456D JUMP JUMPDEST PUSH2 0xAF4 JUMP JUMPDEST PUSH1 0x40 DUP1 MLOAD PUSH1 0x1 PUSH1 0x1 PUSH1 0xA0 SHL SUB SWAP1 SWAP5 AND DUP5 MSTORE PUSH1 0x20 DUP5 ADD SWAP3 SWAP1 SWAP3 MSTORE SWAP1 DUP3 ADD MSTORE PUSH1 0x60 ADD PUSH2 0x232 JUMP JUMPDEST PUSH1 0x2 SLOAD PUSH1 0x3 SLOAD PUSH1 0x40 DUP1 MLOAD SWAP3 DUP4 MSTORE PUSH1 0x20 DUP4 ADD SWAP2 SWAP1 SWAP2 MSTORE ADD PUSH2 0x232 JUMP JUMPDEST PUSH1 0x6 SLOAD PUSH1 0x7 SLOAD PUSH1 0x8 SLOAD PUSH1 0x9 SLOAD PUSH1 0x40 DUP1 MLOAD SWAP5 DUP6 MSTORE PUSH1 0x20 DUP6 ADD SWAP4 SWAP1 SWAP4 MSTORE SWAP2 DUP4 ADD MSTORE PUSH1 0x60 DUP3 ADD MSTORE PUSH1 0x80 ADD PUSH2 0x232 JUMP JUMPDEST PUSH2 0x2C0 PUSH1 0x40 DUP1 MLOAD PUSH1 0xA0 DUP2 ADD DUP3 MSTORE PUSH1 0x16 SLOAD PUSH1 0x1 PUSH1 0x1 PUSH1 0xA0 SHL SUB AND DUP1 DUP3 MSTORE PUSH1 0x17 SLOAD PUSH1 0x20 DUP4 ADD DUP2 SWAP1 MSTORE PUSH1 0x18 SLOAD SWAP4 DUP4 ADD DUP5 SWAP1 MSTORE PUSH1 0x19 SLOAD PUSH1 0x60 DUP5 ADD DUP2 SWAP1 MSTORE PUSH1 0x1A SLOAD PUSH1 0x80 SWAP1 SWAP5 ADD DUP5 SWAP1 MSTORE SWAP2 SWAP5 SWAP1 SWAP4 SWAP3 SWAP1 JUMP JUMPDEST PUSH2 0x208 PUSH2 0x499 CALLDATASIZE PUSH1 0x4 PUSH2 0x4696 JUMP JUMPDEST PUSH2 0xB1D JUMP JUMPDEST PUSH1 0x1C SLOAD PUSH2 0x3A8 SWAP1 PUSH1 0x1 PUSH1 0x1 PUSH1 0xA0 SHL SUB AND DUP2 JUMP JUMPDEST PUSH2 0x208 PUSH2 0xB60 JUMP JUMPDEST PUSH2 0x208 PUSH2 0x4C7 CALLDATASIZE PUSH1 0x4 PUSH2 0x46B8 JUMP JUMPDEST PUSH2 0xC21 JUMP JUMPDEST PUSH2 0x208 PUSH2 0x4DA CALLDATASIZE PUSH1 0x4 PUSH2 0x4935 JUMP JUMPDEST PUSH2 0xC6C JUMP JUMPDEST PUSH2 0x387 PUSH2 0x4ED CALLDATASIZE PUSH1 0x4 PUSH2 0x456D JUMP JUMPDEST PUSH2 0xDED JUMP JUMPDEST PUSH2 0x3D3 PUSH1 0x40 DUP1 MLOAD PUSH1 0x60 DUP2 ADD DUP3 MSTORE PUSH1 0x12 SLOAD PUSH1 0x1 PUSH1 0x1 PUSH1 0xA0 SHL SUB AND DUP1 DUP3 MSTORE PUSH1 0x13 SLOAD PUSH1 0x20 DUP4 ADD DUP2 SWAP1 MSTORE PUSH1 0x14 SLOAD SWAP3 SWAP1 SWAP4 ADD DUP3 SWAP1 MSTORE SWAP3 JUMP JUMPDEST PUSH2 0x3D3 PUSH2 0x533 CALLDATASIZE PUSH1 0x4 PUSH2 0x456D JUMP JUMPDEST PUSH1 0x1 PUSH1 0x1 PUSH1 0xA0 SHL SUB DUP1 DUP3 AND PUSH1 0x0 SWAP1 DUP2 MSTORE PUSH1 0x15 PUSH1 0x20 SWAP1 DUP2 MSTORE PUSH1 0x40 SWAP2 DUP3 SWAP1 KECCAK256 DUP3 MLOAD PUSH1 0x60 DUP2 ADD DUP5 MSTORE DUP2 SLOAD SWAP1 SWAP5 AND DUP1 DUP6 MSTORE PUSH1 0x1 DUP3 ADD SLOAD SWAP3 DUP6 ADD DUP4 SWAP1 MSTORE PUSH1 0x2 SWAP1 SWAP2 ADD SLOAD SWAP4 SWAP1 SWAP3 ADD DUP4 SWAP1 MSTORE SWAP1 SWAP4 SWAP1 SWAP3 POP JUMP JUMPDEST PUSH1 0x4 SLOAD PUSH2 0x58C SWAP1 PUSH1 0xFF AND DUP2 JUMP JUMPDEST PUSH1 0x40 MLOAD SWAP1 ISZERO ISZERO DUP2 MSTORE PUSH1 0x20 ADD PUSH2 0x232 JUMP JUMPDEST PUSH1 0x1C SLOAD PUSH1 0x1 PUSH1 0x1 PUSH1 0xA0 SHL SUB AND PUSH2 0x3A8 JUMP JUMPDEST PUSH2 0x208 PUSH2 0x5BB CALLDATASIZE PUSH1 0x4 PUSH2 0x456D JUMP JUMPDEST PUSH2 0xE89 JUMP JUMPDEST PUSH1 0x0 SLOAD PUSH2 0x3A8 SWAP1 PUSH3 0x10000 SWAP1 DIV PUSH1 0x1 PUSH1 0x1 PUSH1 0xA0 SHL SUB AND DUP2 JUMP JUMPDEST PUSH2 0x208 PUSH2 0x5E7 CALLDATASIZE PUSH1 0x4 PUSH2 0x46B8 JUMP JUMPDEST PUSH2 0xECA JUMP JUMPDEST PUSH2 0x2C0 PUSH2 0x5FA CALLDATASIZE PUSH1 0x4 PUSH2 0x456D JUMP JUMPDEST PUSH2 0xF0F JUMP JUMPDEST PUSH2 0x208 PUSH2 0x60D CALLDATASIZE PUSH1 0x4 PUSH2 0x4A36 JUMP JUMPDEST PUSH2 0xF7E JUMP JUMPDEST PUSH2 0x58C PUSH2 0x620 CALLDATASIZE PUSH1 0x4 PUSH2 0x456D JUMP JUMPDEST PUSH2 0xFC5 JUMP JUMPDEST PUSH2 0x634 DUP5 PUSH1 0xFF AND DUP5 DUP5 DUP5 PUSH2 0x1010 JUMP JUMPDEST PUSH2 0x663 CALLER PUSH1 0x0 CALLDATALOAD PUSH32 0xFFFFFFFF00000000000000000000000000000000000000000000000000000000 AND DUP4 PUSH2 0x10BB JUMP JUMPDEST PUSH2 0x66F DUP6 DUP6 DUP6 DUP6 PUSH2 0x1102 JUMP JUMPDEST POP POP POP POP POP JUMP JUMPDEST PUSH1 0xA SLOAD PUSH1 0x0 SWAP1 DUP2 SWAP1 DUP2 SWAP1 DUP2 SWAP1 PUSH1 0xFF AND PUSH1 0x2 DUP2 GT ISZERO PUSH2 0x696 JUMPI PUSH2 0x696 PUSH2 0x4626 JUMP JUMPDEST PUSH1 0xB SLOAD PUSH1 0xC SLOAD PUSH1 0xE SLOAD SWAP4 POP SWAP4 POP SWAP4 POP SWAP4 POP SWAP1 SWAP2 SWAP3 SWAP4 JUMP JUMPDEST PUSH2 0x6DB CALLER PUSH1 0x0 CALLDATALOAD PUSH32 0xFFFFFFFF00000000000000000000000000000000000000000000000000000000 AND PUSH2 0x14C9 JUMP JUMPDEST DUP1 MLOAD DUP3 MLOAD EQ PUSH2 0x716 JUMPI PUSH1 0x40 MLOAD PUSH32 0x5D32021A00000000000000000000000000000000000000000000000000000000 DUP2 MSTORE PUSH1 0x4 ADD PUSH1 0x40 MLOAD DUP1 SWAP2 SUB SWAP1 REVERT JUMPDEST PUSH1 0x0 JUMPDEST DUP3 MLOAD DUP2 LT ISZERO PUSH2 0x770 JUMPI PUSH2 0x75E DUP4 DUP3 DUP2 MLOAD DUP2 LT PUSH2 0x737 JUMPI PUSH2 0x737 PUSH2 0x4A68 JUMP JUMPDEST PUSH1 0x20 MUL PUSH1 0x20 ADD ADD MLOAD DUP4 DUP4 DUP2 MLOAD DUP2 LT PUSH2 0x751 JUMPI PUSH2 0x751 PUSH2 0x4A68 JUMP JUMPDEST PUSH1 0x20 MUL PUSH1 0x20 ADD ADD MLOAD PUSH2 0x14E5 JUMP JUMPDEST DUP1 PUSH2 0x768 DUP2 PUSH2 0x4AC6 JUMP JUMPDEST SWAP2 POP POP PUSH2 0x719 JUMP JUMPDEST POP POP POP JUMP JUMPDEST PUSH2 0x781 DUP5 DUP5 DUP5 DUP5 PUSH2 0x158F JUMP JUMPDEST PUSH2 0x7B0 CALLER PUSH1 0x0 CALLDATALOAD PUSH32 0xFFFFFFFF00000000000000000000000000000000000000000000000000000000 AND DUP4 PUSH2 0x10BB JUMP JUMPDEST PUSH2 0x66F DUP6 DUP6 DUP6 DUP6 PUSH2 0x15F8 JUMP JUMPDEST PUSH2 0x7D9 DUP2 PUSH1 0x1 DUP2 GT ISZERO PUSH2 0x7D1 JUMPI PUSH2 0x7D1 PUSH2 0x4626 JUMP JUMPDEST PUSH1 0xFF AND PUSH2 0x16B1 JUMP JUMPDEST PUSH2 0x808 CALLER PUSH1 0x0 CALLDATALOAD PUSH32 0xFFFFFFFF00000000000000000000000000000000000000000000000000000000 AND DUP4 PUSH2 0x10BB JUMP JUMPDEST PUSH2 0x811 DUP3 PUSH2 0x16F8 JUMP JUMPDEST POP POP JUMP JUMPDEST PUSH2 0x81F DUP3 DUP3 PUSH2 0x1773 JUMP JUMPDEST PUSH2 0x84E CALLER PUSH1 0x0 CALLDATALOAD PUSH32 0xFFFFFFFF00000000000000000000000000000000000000000000000000000000 AND DUP4 PUSH2 0x10BB JUMP JUMPDEST DUP2 PUSH1 0x0 SUB PUSH2 0x862 JUMPI PUSH2 0x85F DUP4 PUSH2 0xDED JUMP JUMPDEST SWAP2 POP JUMPDEST PUSH2 0x86C DUP4 DUP4 PUSH2 0x17E2 JUMP JUMPDEST PUSH1 0x1 SLOAD PUSH1 0x40 DUP1 MLOAD PUSH1 0x1 PUSH1 0x1 PUSH1 0xA0 SHL SUB DUP7 DUP2 AND PUSH1 0x24 DUP4 ADD MSTORE PUSH1 0x44 DUP3 ADD DUP7 SWAP1 MSTORE SWAP3 DUP4 AND PUSH1 0x64 DUP1 DUP4 ADD DUP3 SWAP1 MSTORE DUP4 MLOAD DUP1 DUP5 SUB SWAP1 SWAP2 ADD DUP2 MSTORE PUSH1 0x84 SWAP1 SWAP3 ADD DUP4 MSTORE PUSH1 0x20 DUP3 ADD DUP1 MLOAD PUSH28 0xFFFFFFFFFFFFFFFFFFFFFFFFFFFFFFFFFFFFFFFFFFFFFFFFFFFFFFFF AND PUSH32 0x8F79528C00000000000000000000000000000000000000000000000000000000 OR SWAP1 MSTORE PUSH1 0x1C SLOAD SWAP3 MLOAD PUSH32 0x4AE0004100000000000000000000000000000000000000000000000000000000 DUP2 MSTORE SWAP2 SWAP4 PUSH1 0x0 SWAP4 SWAP2 SWAP3 PUSH4 0x4AE00041 SWAP3 PUSH2 0x935 SWAP3 AND SWAP1 DUP7 SWAP1 DUP7 SWAP1 PUSH1 0x4 ADD PUSH2 0x4B6C JUMP JUMPDEST PUSH1 0x0 PUSH1 0x40 MLOAD DUP1 DUP4 SUB DUP2 PUSH1 0x0 DUP8 GAS CALL ISZERO DUP1 ISZERO PUSH2 0x954 JUMPI RETURNDATASIZE PUSH1 0x0 DUP1 RETURNDATACOPY RETURNDATASIZE PUSH1 0x0 REVERT JUMPDEST POP POP POP POP PUSH1 0x40 MLOAD RETURNDATASIZE PUSH1 0x0 DUP3 RETURNDATACOPY PUSH1 0x1F RETURNDATASIZE SWAP1 DUP2 ADD PUSH32 0xFFFFFFFFFFFFFFFFFFFFFFFFFFFFFFFFFFFFFFFFFFFFFFFFFFFFFFFFFFFFFFE0 AND DUP3 ADD PUSH1 0x40 MSTORE PUSH2 0x99A SWAP2 SWAP1 DUP2 ADD SWAP1 PUSH2 0x4B9E JUMP JUMPDEST SWAP1 POP DUP1 DUP1 PUSH1 0x20 ADD SWAP1 MLOAD DUP2 ADD SWAP1 PUSH2 0x9B0 SWAP2 SWAP1 PUSH2 0x4C50 JUMP JUMPDEST PUSH2 0x9E6 JUMPI PUSH1 0x40 MLOAD PUSH32 0xC3FA62B500000000000000000000000000000000000000000000000000000000 DUP2 MSTORE PUSH1 0x4 ADD PUSH1 0x40 MLOAD DUP1 SWAP2 SUB SWAP1 REVERT JUMPDEST PUSH2 0x66F DUP6 DUP6 PUSH2 0x1866 JUMP JUMPDEST PUSH2 0xA1E CALLER PUSH1 0x0 CALLDATALOAD PUSH32 0xFFFFFFFF00000000000000000000000000000000000000000000000000000000 AND PUSH2 0x14C9 JUMP JUMPDEST PUSH1 0x4 SLOAD PUSH1 0xFF AND PUSH2 0xA5A JUMPI PUSH1 0x40 MLOAD PUSH32 0x9E6558BD00000000000000000000000000000000000000000000000000000000 DUP2 MSTORE PUSH1 0x4 ADD PUSH1 0x40 MLOAD DUP1 SWAP2 SUB SWAP1 REVERT JUMPDEST PUSH1 0x4 DUP1 SLOAD PUSH32 0xFFFFFFFFFFFFFFFFFFFFFFFFFFFFFFFFFFFFFFFFFFFFFFFFFFFFFFFFFFFFFF00 AND SWAP1 SSTORE PUSH1 0x40 MLOAD PUSH32 0xA45F47FDEA8A1EFDD9029A5691C7F759C32B7C698632B563573E155625D16933 SWAP1 PUSH1 0x0 SWAP1 LOG1 JUMP JUMPDEST PUSH2 0xAB9 DUP5 DUP5 DUP5 DUP5 PUSH2 0x158F JUMP JUMPDEST PUSH2 0xAE8 CALLER PUSH1 0x0 CALLDATALOAD PUSH32 0xFFFFFFFF00000000000000000000000000000000000000000000000000000000 AND DUP4 PUSH2 0x10BB JUMP JUMPDEST PUSH2 0x66F DUP6 DUP6 DUP6 DUP6 PUSH2 0x187A JUMP JUMPDEST PUSH1 0x0 DUP1 PUSH1 0x0 DUP1 PUSH2 0xB03 DUP6 PUSH2 0x193A JUMP JUMPDEST DUP1 MLOAD PUSH1 0x20 DUP3 ADD MLOAD PUSH1 0x40 SWAP1 SWAP3 ADD MLOAD SWAP1 SWAP8 SWAP2 SWAP7 POP SWAP5 POP SWAP3 POP POP POP JUMP JUMPDEST PUSH2 0xB27 DUP3 DUP3 PUSH2 0x19C5 JUMP JUMPDEST PUSH2 0xB56 CALLER PUSH1 0x0 CALLDATALOAD PUSH32 0xFFFFFFFF00000000000000000000000000000000000000000000000000000000 AND DUP4 PUSH2 0x10BB JUMP JUMPDEST PUSH2 0x770 DUP4 DUP4 PUSH2 0x1A1F JUMP JUMPDEST PUSH2 0xB8E CALLER PUSH1 0x0 CALLDATALOAD PUSH32 0xFFFFFFFF00000000000000000000000000000000000000000000000000000000 AND PUSH2 0x14C9 JUMP JUMPDEST PUSH1 0x4 SLOAD PUSH1 0xFF AND ISZERO PUSH2 0xBCB JUMPI PUSH1 0x40 MLOAD PUSH32 0xC0F2312800000000000000000000000000000000000000000000000000000000 DUP2 MSTORE PUSH1 0x4 ADD PUSH1 0x40 MLOAD DUP1 SWAP2 SUB SWAP1 REVERT JUMPDEST PUSH1 0x4 DUP1 SLOAD PUSH32 0xFFFFFFFFFFFFFFFFFFFFFFFFFFFFFFFFFFFFFFFFFFFFFFFFFFFFFFFFFFFFFF00 AND PUSH1 0x1 OR SWAP1 SSTORE PUSH1 0x40 MLOAD PUSH32 0x9E87FAC88FF661F02D44F95383C817FECE4BCE600A3DAB7A54406878B965E752 SWAP1 PUSH1 0x0 SWAP1 LOG1 JUMP JUMPDEST PUSH2 0xC2C DUP4 DUP4 DUP4 PUSH2 0x1A64 JUMP JUMPDEST PUSH2 0xC5B CALLER PUSH1 0x0 CALLDATALOAD PUSH32 0xFFFFFFFF00000000000000000000000000000000000000000000000000000000 AND DUP4 PUSH2 0x10BB JUMP JUMPDEST PUSH2 0xC66 DUP5 DUP5 DUP5 PUSH2 0x1AF6 JUMP JUMPDEST POP POP POP POP JUMP JUMPDEST PUSH1 0x0 SLOAD PUSH2 0x100 SWAP1 DIV PUSH1 0xFF AND ISZERO DUP1 DUP1 ISZERO PUSH2 0xC8C JUMPI POP PUSH1 0x0 SLOAD PUSH1 0x1 PUSH1 0xFF SWAP1 SWAP2 AND LT JUMPDEST DUP1 PUSH2 0xCA6 JUMPI POP ADDRESS EXTCODESIZE ISZERO DUP1 ISZERO PUSH2 0xCA6 JUMPI POP PUSH1 0x0 SLOAD PUSH1 0xFF AND PUSH1 0x1 EQ JUMPDEST PUSH2 0xD1D JUMPI PUSH1 0x40 MLOAD PUSH3 0x461BCD PUSH1 0xE5 SHL DUP2 MSTORE PUSH1 0x20 PUSH1 0x4 DUP3 ADD MSTORE PUSH1 0x2E PUSH1 0x24 DUP3 ADD MSTORE PUSH32 0x496E697469616C697A61626C653A20636F6E747261637420697320616C726561 PUSH1 0x44 DUP3 ADD MSTORE PUSH32 0x647920696E697469616C697A6564000000000000000000000000000000000000 PUSH1 0x64 DUP3 ADD MSTORE PUSH1 0x84 ADD JUMPDEST PUSH1 0x40 MLOAD DUP1 SWAP2 SUB SWAP1 REVERT JUMPDEST PUSH1 0x0 DUP1 SLOAD PUSH32 0xFFFFFFFFFFFFFFFFFFFFFFFFFFFFFFFFFFFFFFFFFFFFFFFFFFFFFFFFFFFFFF00 AND PUSH1 0x1 OR SWAP1 SSTORE DUP1 ISZERO PUSH2 0xD7B JUMPI PUSH1 0x0 DUP1 SLOAD PUSH32 0xFFFFFFFFFFFFFFFFFFFFFFFFFFFFFFFFFFFFFFFFFFFFFFFFFFFFFFFFFFFF00FF AND PUSH2 0x100 OR SWAP1 SSTORE JUMPDEST PUSH2 0xD85 DUP4 DUP4 PUSH2 0x1B4C JUMP JUMPDEST DUP1 ISZERO PUSH2 0x770 JUMPI PUSH1 0x0 DUP1 SLOAD PUSH32 0xFFFFFFFFFFFFFFFFFFFFFFFFFFFFFFFFFFFFFFFFFFFFFFFFFFFFFFFFFFFF00FF AND SWAP1 SSTORE PUSH1 0x40 MLOAD PUSH1 0x1 DUP2 MSTORE PUSH32 0x7F26B83FF96E1F2B6A682F133852F6798A09C465DA95921460CEFB3847402498 SWAP1 PUSH1 0x20 ADD JUMPDEST PUSH1 0x40 MLOAD DUP1 SWAP2 SUB SWAP1 LOG1 POP POP POP JUMP JUMPDEST PUSH1 0x1C SLOAD PUSH1 0x1 SLOAD PUSH1 0x40 MLOAD PUSH32 0xD4FAC45D00000000000000000000000000000000000000000000000000000000 DUP2 MSTORE PUSH1 0x1 PUSH1 0x1 PUSH1 0xA0 SHL SUB DUP5 DUP2 AND PUSH1 0x4 DUP4 ADD MSTORE SWAP2 DUP3 AND PUSH1 0x24 DUP3 ADD MSTORE PUSH1 0x0 SWAP3 SWAP2 SWAP1 SWAP2 AND SWAP1 PUSH4 0xD4FAC45D SWAP1 PUSH1 0x44 ADD PUSH1 0x20 PUSH1 0x40 MLOAD DUP1 DUP4 SUB DUP2 DUP7 GAS STATICCALL ISZERO DUP1 ISZERO PUSH2 0xE5F JUMPI RETURNDATASIZE PUSH1 0x0 DUP1 RETURNDATACOPY RETURNDATASIZE PUSH1 0x0 REVERT JUMPDEST POP POP POP POP PUSH1 0x40 MLOAD RETURNDATASIZE PUSH1 0x1F NOT PUSH1 0x1F DUP3 ADD AND DUP3 ADD DUP1 PUSH1 0x40 MSTORE POP DUP2 ADD SWAP1 PUSH2 0xE83 SWAP2 SWAP1 PUSH2 0x4C6D JUMP JUMPDEST SWAP3 SWAP2 POP POP JUMP JUMPDEST PUSH2 0xE92 DUP2 PUSH2 0x1BCA JUMP JUMPDEST PUSH2 0xEC1 CALLER PUSH1 0x0 CALLDATALOAD PUSH32 0xFFFFFFFF00000000000000000000000000000000000000000000000000000000 AND DUP4 PUSH2 0x10BB JUMP JUMPDEST PUSH2 0x811 DUP3 PUSH2 0x1BDE JUMP JUMPDEST PUSH2 0xED5 DUP4 DUP4 DUP4 PUSH2 0x1A64 JUMP JUMPDEST PUSH2 0xF04 CALLER PUSH1 0x0 CALLDATALOAD PUSH32 0xFFFFFFFF00000000000000000000000000000000000000000000000000000000 AND DUP4 PUSH2 0x10BB JUMP JUMPDEST PUSH2 0xC66 DUP5 DUP5 DUP5 PUSH2 0x1C80 JUMP JUMPDEST PUSH1 0x0 DUP1 PUSH1 0x0 DUP1 PUSH1 0x0 DUP1 PUSH2 0xF21 DUP8 PUSH2 0x1CD4 JUMP JUMPDEST PUSH1 0x40 DUP1 MLOAD PUSH1 0xA0 DUP2 ADD DUP3 MSTORE DUP3 SLOAD PUSH1 0x1 PUSH1 0x1 PUSH1 0xA0 SHL SUB AND DUP1 DUP3 MSTORE PUSH1 0x1 DUP5 ADD SLOAD PUSH1 0x20 DUP4 ADD DUP2 SWAP1 MSTORE PUSH1 0x2 DUP6 ADD SLOAD SWAP4 DUP4 ADD DUP5 SWAP1 MSTORE PUSH1 0x3 DUP6 ADD SLOAD PUSH1 0x60 DUP5 ADD DUP2 SWAP1 MSTORE PUSH1 0x4 SWAP1 SWAP6 ADD SLOAD PUSH1 0x80 SWAP1 SWAP4 ADD DUP4 SWAP1 MSTORE SWAP1 SWAP12 SWAP1 SWAP11 POP SWAP2 SWAP9 POP SWAP2 SWAP7 POP SWAP1 SWAP5 POP SWAP3 POP POP POP JUMP JUMPDEST PUSH2 0xF8A DUP5 DUP5 DUP5 DUP5 PUSH2 0x1010 JUMP JUMPDEST PUSH2 0xFB9 CALLER PUSH1 0x0 CALLDATALOAD PUSH32 0xFFFFFFFF00000000000000000000000000000000000000000000000000000000 AND DUP4 PUSH2 0x10BB JUMP JUMPDEST PUSH2 0x66F DUP6 DUP6 DUP6 DUP6 PUSH2 0x1D08 JUMP JUMPDEST PUSH1 0x1 PUSH1 0x1 PUSH1 0xA0 SHL SUB DUP2 AND PUSH1 0x0 SWAP1 DUP2 MSTORE PUSH1 0x11 PUSH1 0x20 MSTORE PUSH1 0x40 DUP2 KECCAK256 SLOAD PUSH1 0xF SLOAD SWAP1 ISZERO ISZERO SWAP1 PUSH1 0x1 SWAP1 PUSH1 0xFF AND DUP2 DUP2 GT ISZERO PUSH2 0xFFB JUMPI PUSH2 0xFFB PUSH2 0x4626 JUMP JUMPDEST EQ PUSH2 0x1007 JUMPI DUP1 ISZERO PUSH2 0x1009 JUMP JUMPDEST DUP1 JUMPDEST SWAP4 SWAP3 POP POP POP JUMP JUMPDEST PUSH1 0x40 DUP1 MLOAD PUSH1 0x4 DUP1 DUP3 MSTORE PUSH1 0xA0 DUP3 ADD SWAP1 SWAP3 MSTORE PUSH1 0x60 SWAP2 PUSH1 0x20 DUP3 ADD PUSH1 0x80 DUP1 CALLDATASIZE DUP4 CALLDATACOPY ADD SWAP1 POP POP SWAP1 POP DUP5 DUP2 PUSH1 0x0 DUP2 MLOAD DUP2 LT PUSH2 0x1047 JUMPI PUSH2 0x1047 PUSH2 0x4A68 JUMP JUMPDEST PUSH1 0x20 MUL PUSH1 0x20 ADD ADD DUP2 DUP2 MSTORE POP POP DUP4 DUP2 PUSH1 0x1 DUP2 MLOAD DUP2 LT PUSH2 0x1067 JUMPI PUSH2 0x1067 PUSH2 0x4A68 JUMP JUMPDEST PUSH1 0x20 MUL PUSH1 0x20 ADD ADD DUP2 DUP2 MSTORE POP POP DUP3 DUP2 PUSH1 0x2 DUP2 MLOAD DUP2 LT PUSH2 0x1087 JUMPI PUSH2 0x1087 PUSH2 0x4A68 JUMP JUMPDEST PUSH1 0x20 MUL PUSH1 0x20 ADD ADD DUP2 DUP2 MSTORE POP POP DUP2 DUP2 PUSH1 0x3 DUP2 MLOAD DUP2 LT PUSH2 0x10A7 JUMPI PUSH2 0x10A7 PUSH2 0x4A68 JUMP JUMPDEST PUSH1 0x20 MUL PUSH1 0x20 ADD ADD DUP2 DUP2 MSTORE POP POP SWAP5 SWAP4 POP POP POP POP JUMP JUMPDEST PUSH2 0x10C6 DUP4 DUP4 DUP4 PUSH2 0x1DA3 JUMP JUMPDEST PUSH2 0x770 JUMPI DUP3 DUP3 DUP3 PUSH1 0x40 MLOAD PUSH32 0x960C80DA00000000000000000000000000000000000000000000000000000000 DUP2 MSTORE PUSH1 0x4 ADD PUSH2 0xD14 SWAP4 SWAP3 SWAP2 SWAP1 PUSH2 0x4CC1 JUMP JUMPDEST PUSH1 0xFF DUP5 AND PUSH2 0x11FE JUMPI PUSH1 0x0 DUP2 GT DUP1 PUSH2 0x1119 JUMPI POP PUSH1 0x0 DUP3 GT JUMPDEST ISZERO PUSH2 0x11F9 JUMPI DUP3 PUSH1 0x0 SUB PUSH2 0x1164 JUMPI PUSH1 0x40 MLOAD PUSH32 0xBEA499CB00000000000000000000000000000000000000000000000000000000 DUP2 MSTORE PUSH1 0xFF DUP6 AND PUSH1 0x4 DUP3 ADD MSTORE PUSH1 0x24 DUP2 ADD DUP5 SWAP1 MSTORE PUSH1 0x44 ADD PUSH2 0xD14 JUMP JUMPDEST DUP1 ISZERO DUP1 PUSH2 0x1170 JUMPI POP DUP3 DUP2 GT JUMPDEST ISZERO PUSH2 0x11B3 JUMPI PUSH1 0x40 MLOAD PUSH32 0x9E12FCCF00000000000000000000000000000000000000000000000000000000 DUP2 MSTORE PUSH1 0xFF DUP6 AND PUSH1 0x4 DUP3 ADD MSTORE PUSH1 0x24 DUP2 ADD DUP3 SWAP1 MSTORE PUSH1 0x44 ADD PUSH2 0xD14 JUMP JUMPDEST DUP2 PUSH1 0x0 SUB PUSH2 0x11F9 JUMPI PUSH1 0x40 MLOAD PUSH32 0xAD0D7EB200000000000000000000000000000000000000000000000000000000 DUP2 MSTORE PUSH1 0xFF DUP6 AND PUSH1 0x4 DUP3 ADD MSTORE PUSH1 0x24 DUP2 ADD DUP4 SWAP1 MSTORE PUSH1 0x44 ADD PUSH2 0xD14 JUMP JUMPDEST PUSH2 0x1414 JUMP JUMPDEST DUP3 PUSH1 0x0 SUB PUSH2 0x1244 JUMPI PUSH1 0x40 MLOAD PUSH32 0xBEA499CB00000000000000000000000000000000000000000000000000000000 DUP2 MSTORE PUSH1 0xFF DUP6 AND PUSH1 0x4 DUP3 ADD MSTORE PUSH1 0x24 DUP2 ADD DUP5 SWAP1 MSTORE PUSH1 0x44 ADD PUSH2 0xD14 JUMP JUMPDEST DUP1 ISZERO DUP1 PUSH2 0x125C JUMPI POP PUSH2 0x1259 PUSH3 0x24EA00 DUP5 PUSH2 0x4D0B JUMP JUMPDEST DUP2 GT JUMPDEST ISZERO PUSH2 0x129F JUMPI PUSH1 0x40 MLOAD PUSH32 0x9E12FCCF00000000000000000000000000000000000000000000000000000000 DUP2 MSTORE PUSH1 0xFF DUP6 AND PUSH1 0x4 DUP3 ADD MSTORE PUSH1 0x24 DUP2 ADD DUP3 SWAP1 MSTORE PUSH1 0x44 ADD PUSH2 0xD14 JUMP JUMPDEST DUP2 PUSH1 0x0 SUB PUSH2 0x12E5 JUMPI PUSH1 0x40 MLOAD PUSH32 0xAD0D7EB200000000000000000000000000000000000000000000000000000000 DUP2 MSTORE PUSH1 0xFF DUP6 AND PUSH1 0x4 DUP3 ADD MSTORE PUSH1 0x24 DUP2 ADD DUP4 SWAP1 MSTORE PUSH1 0x44 ADD PUSH2 0xD14 JUMP JUMPDEST PUSH32 0xFFFFFFFFFFFFFFFFFFFFFFFFFFFFFFFFFFFFFFFFFFFFFFFFFFFFFFFFFFFFFFFF PUSH1 0xFF DUP6 AND ADD PUSH2 0x135E JUMPI PUSH1 0x1C PUSH2 0x131A DUP4 PUSH2 0x1E41 JUMP JUMPDEST GT ISZERO PUSH2 0x11F9 JUMPI PUSH1 0x40 MLOAD PUSH32 0xAD0D7EB200000000000000000000000000000000000000000000000000000000 DUP2 MSTORE PUSH1 0xFF DUP6 AND PUSH1 0x4 DUP3 ADD MSTORE PUSH1 0x24 DUP2 ADD DUP4 SWAP1 MSTORE PUSH1 0x44 ADD PUSH2 0xD14 JUMP JUMPDEST PUSH32 0xFFFFFFFFFFFFFFFFFFFFFFFFFFFFFFFFFFFFFFFFFFFFFFFFFFFFFFFFFFFFFFFE PUSH1 0xFF DUP6 AND ADD PUSH2 0x13DD JUMPI PUSH2 0x1391 DUP3 PUSH2 0x1E58 JUMP JUMPDEST PUSH2 0x139A DUP4 PUSH2 0x1E41 JUMP JUMPDEST EQ PUSH2 0x11F9 JUMPI PUSH1 0x40 MLOAD PUSH32 0xAD0D7EB200000000000000000000000000000000000000000000000000000000 DUP2 MSTORE PUSH1 0xFF DUP6 AND PUSH1 0x4 DUP3 ADD MSTORE PUSH1 0x24 DUP2 ADD DUP4 SWAP1 MSTORE PUSH1 0x44 ADD PUSH2 0xD14 JUMP JUMPDEST PUSH1 0x40 MLOAD PUSH32 0x33A738BC00000000000000000000000000000000000000000000000000000000 DUP2 MSTORE PUSH1 0xFF DUP6 AND PUSH1 0x4 DUP3 ADD MSTORE PUSH1 0x24 ADD PUSH2 0xD14 JUMP JUMPDEST DUP4 PUSH1 0xFF AND PUSH1 0x2 DUP2 GT ISZERO PUSH2 0x1429 JUMPI PUSH2 0x1429 PUSH2 0x4626 JUMP JUMPDEST PUSH1 0xA DUP1 SLOAD PUSH32 0xFFFFFFFFFFFFFFFFFFFFFFFFFFFFFFFFFFFFFFFFFFFFFFFFFFFFFFFFFFFFFF00 AND PUSH1 0x1 DUP4 PUSH1 0x2 DUP2 GT ISZERO PUSH2 0x1463 JUMPI PUSH2 0x1463 PUSH2 0x4626 JUMP JUMPDEST MUL OR SWAP1 SSTORE POP PUSH1 0xB DUP4 SWAP1 SSTORE PUSH1 0xC DUP3 SWAP1 SSTORE PUSH1 0xE DUP2 SWAP1 SSTORE PUSH1 0x40 DUP1 MLOAD PUSH1 0xFF DUP7 AND DUP2 MSTORE PUSH1 0x20 DUP2 ADD DUP6 SWAP1 MSTORE SWAP1 DUP2 ADD DUP4 SWAP1 MSTORE PUSH1 0x60 DUP2 ADD DUP3 SWAP1 MSTORE PUSH32 0x182FD6FA2A8560221614C1396DD4FCC78D26DFACF821A6AFB61D25876057E412 SWAP1 PUSH1 0x80 ADD JUMPDEST PUSH1 0x40 MLOAD DUP1 SWAP2 SUB SWAP1 LOG1 POP POP POP POP JUMP JUMPDEST PUSH1 0x40 DUP1 MLOAD PUSH1 0x0 DUP2 MSTORE PUSH1 0x20 DUP2 ADD SWAP1 SWAP2 MSTORE PUSH2 0x811 SWAP1 DUP4 SWAP1 DUP4 SWAP1 PUSH2 0x10BB JUMP JUMPDEST PUSH1 0x1 PUSH1 0x1 PUSH1 0xA0 SHL SUB DUP3 AND PUSH2 0x1525 JUMPI PUSH1 0x40 MLOAD PUSH32 0xC41A13EC00000000000000000000000000000000000000000000000000000000 DUP2 MSTORE PUSH1 0x4 ADD PUSH1 0x40 MLOAD DUP1 SWAP2 SUB SWAP1 REVERT JUMPDEST DUP1 PUSH2 0x153A JUMPI PUSH2 0x1535 PUSH1 0x10 DUP4 PUSH2 0x1E7B JUMP JUMPDEST PUSH2 0x1545 JUMP JUMPDEST PUSH2 0x1545 PUSH1 0x10 DUP4 PUSH2 0x1E90 JUMP JUMPDEST POP DUP2 PUSH1 0x1 PUSH1 0x1 PUSH1 0xA0 SHL SUB AND PUSH32 0x6264362E9DE26EFEFDA321DFAEB4E4A9090DEEF40C5435FAD8E9E2E306889A1C DUP3 PUSH1 0x40 MLOAD PUSH2 0x1583 SWAP2 ISZERO ISZERO DUP2 MSTORE PUSH1 0x20 ADD SWAP1 JUMP JUMPDEST PUSH1 0x40 MLOAD DUP1 SWAP2 SUB SWAP1 LOG2 POP POP JUMP JUMPDEST PUSH1 0x40 DUP1 MLOAD PUSH1 0x4 DUP1 DUP3 MSTORE PUSH1 0xA0 DUP3 ADD SWAP1 SWAP3 MSTORE PUSH1 0x60 SWAP2 PUSH1 0x20 DUP3 ADD PUSH1 0x80 DUP1 CALLDATASIZE DUP4 CALLDATACOPY ADD SWAP1 POP POP SWAP1 POP DUP5 PUSH1 0x1 PUSH1 0x1 PUSH1 0xA0 SHL SUB AND DUP2 PUSH1 0x0 DUP2 MLOAD DUP2 LT PUSH2 0x15CF JUMPI PUSH2 0x15CF PUSH2 0x4A68 JUMP JUMPDEST PUSH1 0x20 MUL PUSH1 0x20 ADD ADD DUP2 DUP2 MSTORE POP POP DUP4 PUSH1 0x1 PUSH1 0x1 PUSH1 0xA0 SHL SUB AND DUP2 PUSH1 0x1 DUP2 MLOAD DUP2 LT PUSH2 0x1067 JUMPI PUSH2 0x1067 PUSH2 0x4A68 JUMP JUMPDEST PUSH1 0x1 PUSH1 0x1 PUSH1 0xA0 SHL SUB DUP5 AND PUSH2 0x1638 JUMPI PUSH1 0x40 MLOAD PUSH32 0xE7BA3E4A00000000000000000000000000000000000000000000000000000000 DUP2 MSTORE PUSH1 0x4 ADD PUSH1 0x40 MLOAD DUP1 SWAP2 SUB SWAP1 REVERT JUMPDEST PUSH1 0x1 PUSH1 0x1 PUSH1 0xA0 SHL SUB DUP5 AND PUSH1 0x0 SWAP1 DUP2 MSTORE PUSH1 0x15 PUSH1 0x20 MSTORE PUSH1 0x40 SWAP1 KECCAK256 PUSH2 0x165C SWAP1 DUP5 DUP5 DUP5 PUSH2 0x1EA5 JUMP JUMPDEST PUSH1 0x40 DUP1 MLOAD PUSH1 0x1 PUSH1 0x1 PUSH1 0xA0 SHL SUB DUP6 DUP2 AND DUP3 MSTORE PUSH1 0x20 DUP3 ADD DUP6 SWAP1 MSTORE SWAP2 DUP2 ADD DUP4 SWAP1 MSTORE SWAP1 DUP6 AND SWAP1 PUSH32 0xF099617C054D3A65E02A9C3B786F23CC03D5982BC7CFAE84DFF0408049CF1707 SWAP1 PUSH1 0x60 ADD PUSH1 0x40 MLOAD DUP1 SWAP2 SUB SWAP1 LOG2 POP POP POP POP JUMP JUMPDEST PUSH1 0x40 DUP1 MLOAD PUSH1 0x1 DUP1 DUP3 MSTORE DUP2 DUP4 ADD SWAP1 SWAP3 MSTORE PUSH1 0x60 SWAP2 PUSH1 0x20 DUP1 DUP4 ADD SWAP1 DUP1 CALLDATASIZE DUP4 CALLDATACOPY ADD SWAP1 POP POP SWAP1 POP DUP2 DUP2 PUSH1 0x0 DUP2 MLOAD DUP2 LT PUSH2 0x16E7 JUMPI PUSH2 0x16E7 PUSH2 0x4A68 JUMP JUMPDEST PUSH1 0x20 MUL PUSH1 0x20 ADD ADD DUP2 DUP2 MSTORE POP POP SWAP2 SWAP1 POP JUMP JUMPDEST PUSH1 0xF DUP1 SLOAD DUP3 SWAP2 SWAP1 PUSH32 0xFFFFFFFFFFFFFFFFFFFFFFFFFFFFFFFFFFFFFFFFFFFFFFFFFFFFFFFFFFFFFF00 AND PUSH1 0x1 DUP4 DUP2 DUP2 GT ISZERO PUSH2 0x1734 JUMPI PUSH2 0x1734 PUSH2 0x4626 JUMP JUMPDEST MUL OR SWAP1 SSTORE POP PUSH32 0x216B6A9618D607BA436D0F2E17E9A83E70929ADFF805AC2385D67401360E551A DUP2 PUSH1 0x40 MLOAD PUSH2 0x1768 SWAP2 SWAP1 PUSH2 0x4655 JUMP JUMPDEST PUSH1 0x40 MLOAD DUP1 SWAP2 SUB SWAP1 LOG1 POP JUMP JUMPDEST PUSH1 0x40 DUP1 MLOAD PUSH1 0x2 DUP1 DUP3 MSTORE PUSH1 0x60 DUP1 DUP4 ADD DUP5 MSTORE SWAP3 PUSH1 0x20 DUP4 ADD SWAP1 DUP1 CALLDATASIZE DUP4 CALLDATACOPY ADD SWAP1 POP POP SWAP1 POP DUP3 PUSH1 0x1 PUSH1 0x1 PUSH1 0xA0 SHL SUB AND DUP2 PUSH1 0x0 DUP2 MLOAD DUP2 LT PUSH2 0x17B0 JUMPI PUSH2 0x17B0 PUSH2 0x4A68 JUMP JUMPDEST PUSH1 0x20 MUL PUSH1 0x20 ADD ADD DUP2 DUP2 MSTORE POP POP DUP2 DUP2 PUSH1 0x1 DUP2 MLOAD DUP2 LT PUSH2 0x17D0 JUMPI PUSH2 0x17D0 PUSH2 0x4A68 JUMP JUMPDEST PUSH1 0x20 MUL PUSH1 0x20 ADD ADD DUP2 DUP2 MSTORE POP POP SWAP3 SWAP2 POP POP JUMP JUMPDEST PUSH2 0x17EC DUP3 DUP3 PUSH2 0x1F8D JUMP JUMPDEST PUSH1 0x1 PUSH1 0x1 PUSH1 0xA0 SHL SUB DUP3 AND PUSH2 0x182C JUMPI PUSH1 0x40 MLOAD PUSH32 0xC0E0F12200000000000000000000000000000000000000000000000000000000 DUP2 MSTORE PUSH1 0x4 ADD PUSH1 0x40 MLOAD DUP1 SWAP2 SUB SWAP1 REVERT JUMPDEST DUP1 PUSH1 0x0 SUB PUSH2 0x811 JUMPI PUSH1 0x40 MLOAD PUSH32 0x1463ACBE00000000000000000000000000000000000000000000000000000000 DUP2 MSTORE PUSH1 0x4 ADD PUSH1 0x40 MLOAD DUP1 SWAP2 SUB SWAP1 REVERT JUMPDEST PUSH2 0x1870 DUP3 DUP3 PUSH2 0x1FD3 JUMP JUMPDEST PUSH2 0x811 DUP3 DUP3 PUSH2 0x2072 JUMP JUMPDEST PUSH1 0x1 PUSH1 0x1 PUSH1 0xA0 SHL SUB DUP5 AND PUSH2 0x18BA JUMPI PUSH1 0x40 MLOAD PUSH32 0x1DE0C9C700000000000000000000000000000000000000000000000000000000 DUP2 MSTORE PUSH1 0x4 ADD PUSH1 0x40 MLOAD DUP1 SWAP2 SUB SWAP1 REVERT JUMPDEST PUSH1 0x1 PUSH1 0x1 PUSH1 0xA0 SHL SUB DUP5 AND PUSH1 0x0 SWAP1 DUP2 MSTORE PUSH1 0x1B PUSH1 0x20 MSTORE PUSH1 0x40 SWAP1 KECCAK256 PUSH2 0x18DE SWAP1 DUP5 DUP5 DUP5 PUSH2 0x209A JUMP JUMPDEST DUP3 PUSH1 0x1 PUSH1 0x1 PUSH1 0xA0 SHL SUB AND DUP5 PUSH1 0x1 PUSH1 0x1 PUSH1 0xA0 SHL SUB AND PUSH32 0x1B5C5E27ED5443E409BAE85849D41D7BF12D5352E8FDDB3728B6408F836E1448 DUP5 DUP5 PUSH1 0x40 MLOAD PUSH2 0x192C SWAP3 SWAP2 SWAP1 SWAP2 DUP3 MSTORE PUSH1 0x20 DUP3 ADD MSTORE PUSH1 0x40 ADD SWAP1 JUMP JUMPDEST PUSH1 0x40 MLOAD DUP1 SWAP2 SUB SWAP1 LOG3 POP POP POP POP JUMP JUMPDEST PUSH2 0x1967 PUSH1 0x40 MLOAD DUP1 PUSH1 0x60 ADD PUSH1 0x40 MSTORE DUP1 PUSH1 0x0 PUSH1 0x1 PUSH1 0x1 PUSH1 0xA0 SHL SUB AND DUP2 MSTORE PUSH1 0x20 ADD PUSH1 0x0 DUP2 MSTORE PUSH1 0x20 ADD PUSH1 0x0 DUP2 MSTORE POP SWAP1 JUMP JUMPDEST PUSH1 0x1 PUSH1 0x1 PUSH1 0xA0 SHL SUB DUP1 DUP4 AND PUSH1 0x0 SWAP1 DUP2 MSTORE PUSH1 0x15 PUSH1 0x20 MSTORE PUSH1 0x40 SWAP1 KECCAK256 DUP1 SLOAD SWAP1 SWAP2 AND ISZERO PUSH2 0x1990 JUMPI DUP1 PUSH2 0x1993 JUMP JUMPDEST PUSH1 0x12 JUMPDEST PUSH1 0x40 DUP1 MLOAD PUSH1 0x60 DUP2 ADD DUP3 MSTORE DUP3 SLOAD PUSH1 0x1 PUSH1 0x1 PUSH1 0xA0 SHL SUB AND DUP2 MSTORE PUSH1 0x1 DUP4 ADD SLOAD PUSH1 0x20 DUP3 ADD MSTORE PUSH1 0x2 SWAP1 SWAP3 ADD SLOAD SWAP1 DUP3 ADD MSTORE SWAP4 SWAP3 POP POP POP JUMP JUMPDEST PUSH1 0x40 DUP1 MLOAD PUSH1 0x2 DUP1 DUP3 MSTORE PUSH1 0x60 DUP1 DUP4 ADD DUP5 MSTORE SWAP3 PUSH1 0x20 DUP4 ADD SWAP1 DUP1 CALLDATASIZE DUP4 CALLDATACOPY ADD SWAP1 POP POP SWAP1 POP DUP3 PUSH1 0x0 SHR DUP2 PUSH1 0x0 DUP2 MLOAD DUP2 LT PUSH2 0x19FC JUMPI PUSH2 0x19FC PUSH2 0x4A68 JUMP JUMPDEST PUSH1 0x20 MUL PUSH1 0x20 ADD ADD DUP2 DUP2 MSTORE POP POP DUP2 PUSH1 0x0 SHR DUP2 PUSH1 0x1 DUP2 MLOAD DUP2 LT PUSH2 0x17D0 JUMPI PUSH2 0x17D0 PUSH2 0x4A68 JUMP JUMPDEST DUP2 ISZERO PUSH2 0x1A5A JUMPI PUSH1 0x40 MLOAD PUSH32 0xADE7E16800000000000000000000000000000000000000000000000000000000 DUP2 MSTORE PUSH1 0x4 DUP2 ADD DUP4 SWAP1 MSTORE PUSH1 0x24 ADD PUSH2 0xD14 JUMP JUMPDEST PUSH2 0x811 DUP3 DUP3 PUSH2 0x2211 JUMP JUMPDEST PUSH1 0x40 DUP1 MLOAD PUSH1 0x3 DUP1 DUP3 MSTORE PUSH1 0x80 DUP3 ADD SWAP1 SWAP3 MSTORE PUSH1 0x60 SWAP2 PUSH1 0x20 DUP3 ADD DUP4 DUP1 CALLDATASIZE DUP4 CALLDATACOPY ADD SWAP1 POP POP SWAP1 POP DUP4 PUSH1 0x1 PUSH1 0x1 PUSH1 0xA0 SHL SUB AND DUP2 PUSH1 0x0 DUP2 MLOAD DUP2 LT PUSH2 0x1AA3 JUMPI PUSH2 0x1AA3 PUSH2 0x4A68 JUMP JUMPDEST PUSH1 0x20 MUL PUSH1 0x20 ADD ADD DUP2 DUP2 MSTORE POP POP DUP3 DUP2 PUSH1 0x1 DUP2 MLOAD DUP2 LT PUSH2 0x1AC3 JUMPI PUSH2 0x1AC3 PUSH2 0x4A68 JUMP JUMPDEST PUSH1 0x20 MUL PUSH1 0x20 ADD ADD DUP2 DUP2 MSTORE POP POP DUP2 DUP2 PUSH1 0x2 DUP2 MLOAD DUP2 LT PUSH2 0x1AE3 JUMPI PUSH2 0x1AE3 PUSH2 0x4A68 JUMP JUMPDEST PUSH1 0x20 MUL PUSH1 0x20 ADD ADD DUP2 DUP2 MSTORE POP POP SWAP4 SWAP3 POP POP POP JUMP JUMPDEST PUSH2 0x1B03 PUSH1 0x16 DUP5 DUP5 DUP5 PUSH2 0x209A JUMP JUMPDEST PUSH1 0x40 DUP1 MLOAD DUP4 DUP2 MSTORE PUSH1 0x20 DUP2 ADD DUP4 SWAP1 MSTORE PUSH1 0x1 PUSH1 0x1 PUSH1 0xA0 SHL SUB DUP6 AND SWAP2 PUSH32 0x6324B5F18E615697A2B44F16D7A649DEB0BBBC7CB09DAD4C610306105730E7D9 SWAP2 ADD PUSH1 0x40 MLOAD DUP1 SWAP2 SUB SWAP1 LOG2 POP POP POP JUMP JUMPDEST PUSH1 0x0 SLOAD PUSH2 0x100 SWAP1 DIV PUSH1 0xFF AND PUSH2 0x1BB7 JUMPI PUSH1 0x40 MLOAD PUSH3 0x461BCD PUSH1 0xE5 SHL DUP2 MSTORE PUSH1 0x20 PUSH1 0x4 DUP3 ADD MSTORE PUSH1 0x2B PUSH1 0x24 DUP3 ADD MSTORE PUSH32 0x496E697469616C697A61626C653A20636F6E7472616374206973206E6F742069 PUSH1 0x44 DUP3 ADD MSTORE PUSH11 0x6E697469616C697A696E67 PUSH1 0xA8 SHL PUSH1 0x64 DUP3 ADD MSTORE PUSH1 0x84 ADD PUSH2 0xD14 JUMP JUMPDEST PUSH2 0x1BC0 DUP3 PUSH2 0x2294 JUMP JUMPDEST PUSH2 0x811 DUP3 DUP3 PUSH2 0x235F JUMP JUMPDEST PUSH1 0x60 PUSH2 0xE83 DUP3 PUSH1 0x1 PUSH1 0x1 PUSH1 0xA0 SHL SUB AND PUSH2 0x16B1 JUMP JUMPDEST PUSH1 0x1 PUSH1 0x1 PUSH1 0xA0 SHL SUB DUP2 AND PUSH2 0x1C1E JUMPI PUSH1 0x40 MLOAD PUSH32 0x6594BB4100000000000000000000000000000000000000000000000000000000 DUP2 MSTORE PUSH1 0x4 ADD PUSH1 0x40 MLOAD DUP1 SWAP2 SUB SWAP1 REVERT JUMPDEST PUSH1 0x1C DUP1 SLOAD PUSH32 0xFFFFFFFFFFFFFFFFFFFFFFFF0000000000000000000000000000000000000000 AND PUSH1 0x1 PUSH1 0x1 PUSH1 0xA0 SHL SUB DUP4 AND SWAP1 DUP2 OR SWAP1 SWAP2 SSTORE PUSH1 0x40 MLOAD PUSH32 0xB491D03B6C989FF3C8769D9D1C74494E7B665047912D10EF3AF72A6AB04D4D51 SWAP1 PUSH1 0x0 SWAP1 LOG2 POP JUMP JUMPDEST PUSH2 0x1C8D PUSH1 0x12 DUP5 DUP5 DUP5 PUSH2 0x1EA5 JUMP JUMPDEST PUSH1 0x40 DUP1 MLOAD PUSH1 0x1 PUSH1 0x1 PUSH1 0xA0 SHL SUB DUP6 AND DUP2 MSTORE PUSH1 0x20 DUP2 ADD DUP5 SWAP1 MSTORE SWAP1 DUP2 ADD DUP3 SWAP1 MSTORE PUSH32 0xA80953BDC344B2EBD0BCDD001A3418A8FD1B858BDECF12A4BA5A9366AD65D345 SWAP1 PUSH1 0x60 ADD PUSH2 0xDE0 JUMP JUMPDEST PUSH1 0x1 PUSH1 0x1 PUSH1 0xA0 SHL SUB DUP1 DUP3 AND PUSH1 0x0 SWAP1 DUP2 MSTORE PUSH1 0x1B PUSH1 0x20 MSTORE PUSH1 0x40 DUP2 KECCAK256 DUP1 SLOAD SWAP2 SWAP3 SWAP1 SWAP2 AND ISZERO PUSH2 0x1CFF JUMPI DUP1 PUSH2 0x1009 JUMP JUMPDEST PUSH1 0x16 SWAP4 SWAP3 POP POP POP JUMP JUMPDEST PUSH8 0xDE0B6B3A7640000 DUP2 GT ISZERO PUSH2 0x1D4A JUMPI PUSH1 0x40 MLOAD PUSH32 0xCE57496100000000000000000000000000000000000000000000000000000000 DUP2 MSTORE PUSH1 0x4 ADD PUSH1 0x40 MLOAD DUP1 SWAP2 SUB SWAP1 REVERT JUMPDEST PUSH1 0x6 DUP5 SWAP1 SSTORE PUSH1 0x7 DUP4 SWAP1 SSTORE PUSH1 0x8 DUP3 SWAP1 SSTORE PUSH1 0x9 DUP2 SWAP1 SSTORE PUSH1 0x40 DUP1 MLOAD DUP6 DUP2 MSTORE PUSH1 0x20 DUP2 ADD DUP6 SWAP1 MSTORE SWAP1 DUP2 ADD DUP4 SWAP1 MSTORE PUSH1 0x60 DUP2 ADD DUP3 SWAP1 MSTORE PUSH32 0x746DC5EB53C5DE07C40B06D428506D6982EA10C423AC2875ABFC44038927D691 SWAP1 PUSH1 0x80 ADD PUSH2 0x14BB JUMP JUMPDEST PUSH1 0x0 DUP1 SLOAD PUSH1 0x40 MLOAD PUSH32 0x2852289500000000000000000000000000000000000000000000000000000000 DUP2 MSTORE PUSH3 0x10000 SWAP1 SWAP2 DIV PUSH1 0x1 PUSH1 0x1 PUSH1 0xA0 SHL SUB AND SWAP1 PUSH4 0x28522895 SWAP1 PUSH2 0x1DF8 SWAP1 DUP8 SWAP1 ADDRESS SWAP1 DUP9 SWAP1 DUP9 SWAP1 PUSH1 0x4 ADD PUSH2 0x4D22 JUMP JUMPDEST PUSH1 0x20 PUSH1 0x40 MLOAD DUP1 DUP4 SUB DUP2 DUP7 GAS STATICCALL ISZERO DUP1 ISZERO PUSH2 0x1E15 JUMPI RETURNDATASIZE PUSH1 0x0 DUP1 RETURNDATACOPY RETURNDATASIZE PUSH1 0x0 REVERT JUMPDEST POP POP POP POP PUSH1 0x40 MLOAD RETURNDATASIZE PUSH1 0x1F NOT PUSH1 0x1F DUP3 ADD AND DUP3 ADD DUP1 PUSH1 0x40 MSTORE POP DUP2 ADD SWAP1 PUSH2 0x1E39 SWAP2 SWAP1 PUSH2 0x4C50 JUMP JUMPDEST SWAP5 SWAP4 POP POP POP POP JUMP JUMPDEST PUSH1 0x0 PUSH2 0x1E39 PUSH2 0x1E53 PUSH3 0x15180 DUP5 PUSH2 0x4DAF JUMP JUMPDEST PUSH2 0x23D3 JUMP JUMPDEST PUSH1 0x0 DUP1 DUP1 PUSH2 0x1E6C PUSH2 0x1E53 PUSH3 0x15180 DUP7 PUSH2 0x4DAF JUMP JUMPDEST POP SWAP2 POP SWAP2 POP PUSH2 0x1E39 DUP3 DUP3 PUSH2 0x248D JUMP JUMPDEST PUSH1 0x0 PUSH2 0x1009 DUP4 PUSH1 0x1 PUSH1 0x1 PUSH1 0xA0 SHL SUB DUP5 AND PUSH2 0x2513 JUMP JUMPDEST PUSH1 0x0 PUSH2 0x1009 DUP4 PUSH1 0x1 PUSH1 0x1 PUSH1 0xA0 SHL SUB DUP5 AND PUSH2 0x260D JUMP JUMPDEST PUSH1 0x0 PUSH1 0x1 PUSH1 0x1 PUSH1 0xA0 SHL SUB DUP5 AND ISZERO DUP1 ISZERO PUSH2 0x1EBC JUMPI POP DUP3 ISZERO JUMPDEST DUP1 ISZERO PUSH2 0x1EC6 JUMPI POP DUP2 ISZERO JUMPDEST SWAP1 POP PUSH1 0x0 PUSH1 0x1 PUSH1 0x1 PUSH1 0xA0 SHL SUB DUP6 AND ISZERO DUP1 ISZERO SWAP1 PUSH2 0x1EEA JUMPI POP DUP3 ISZERO DUP1 PUSH2 0x1EEA JUMPI POP DUP4 DUP4 LT ISZERO JUMPDEST SWAP1 POP DUP2 ISZERO DUP1 ISZERO PUSH2 0x1EF8 JUMPI POP DUP1 ISZERO JUMPDEST ISZERO PUSH2 0x1F48 JUMPI PUSH1 0x40 MLOAD PUSH32 0xCA1F048300000000000000000000000000000000000000000000000000000000 DUP2 MSTORE PUSH1 0x1 PUSH1 0x1 PUSH1 0xA0 SHL SUB DUP7 AND PUSH1 0x4 DUP3 ADD MSTORE PUSH1 0x24 DUP2 ADD DUP6 SWAP1 MSTORE PUSH1 0x44 DUP2 ADD DUP5 SWAP1 MSTORE PUSH1 0x64 ADD PUSH2 0xD14 JUMP JUMPDEST POP POP DUP4 SLOAD PUSH32 0xFFFFFFFFFFFFFFFFFFFFFFFF0000000000000000000000000000000000000000 AND PUSH1 0x1 PUSH1 0x1 PUSH1 0xA0 SHL SUB SWAP4 SWAP1 SWAP4 AND SWAP3 SWAP1 SWAP3 OR DUP4 SSTORE PUSH1 0x1 DUP4 ADD SSTORE PUSH1 0x2 SWAP1 SWAP2 ADD SSTORE JUMP JUMPDEST PUSH2 0x1F97 DUP3 DUP3 PUSH2 0x265C JUMP JUMPDEST PUSH2 0x1FA1 DUP3 DUP3 PUSH2 0x2666 JUMP JUMPDEST PUSH2 0x1FAB DUP3 DUP3 PUSH2 0x26A3 JUMP JUMPDEST PUSH2 0x1FB5 DUP3 DUP3 PUSH2 0x2797 JUMP JUMPDEST PUSH2 0x1FBF DUP3 DUP3 PUSH2 0x29EA JUMP JUMPDEST PUSH2 0x1FC9 DUP3 DUP3 PUSH2 0x2A34 JUMP JUMPDEST PUSH2 0x811 DUP3 DUP3 PUSH2 0x2B21 JUMP JUMPDEST PUSH1 0x3 SLOAD ISZERO PUSH2 0x811 JUMPI PUSH1 0x1 DUP1 SLOAD PUSH1 0x3 SLOAD PUSH1 0x40 MLOAD PUSH32 0xEB056BBB00000000000000000000000000000000000000000000000000000000 DUP2 MSTORE PUSH1 0x4 DUP2 ADD SWAP2 SWAP1 SWAP2 MSTORE PUSH1 0x1 PUSH1 0x1 PUSH1 0xA0 SHL SUB DUP6 DUP2 AND PUSH1 0x24 DUP4 ADD MSTORE PUSH1 0x44 DUP3 ADD DUP6 SWAP1 MSTORE PUSH1 0x64 DUP3 ADD SWAP4 SWAP1 SWAP4 MSTORE SWAP2 AND SWAP1 PUSH4 0xEB056BBB SWAP1 PUSH1 0x84 ADD JUMPDEST PUSH1 0x0 PUSH1 0x40 MLOAD DUP1 DUP4 SUB DUP2 PUSH1 0x0 DUP8 DUP1 EXTCODESIZE ISZERO DUP1 ISZERO PUSH2 0x2056 JUMPI PUSH1 0x0 DUP1 REVERT JUMPDEST POP GAS CALL ISZERO DUP1 ISZERO PUSH2 0x206A JUMPI RETURNDATASIZE PUSH1 0x0 DUP1 RETURNDATACOPY RETURNDATASIZE PUSH1 0x0 REVERT JUMPDEST POP POP POP POP POP POP JUMP JUMPDEST PUSH2 0x207C DUP3 DUP3 PUSH2 0x2C37 JUMP JUMPDEST PUSH2 0x2086 DUP3 DUP3 PUSH2 0x2CD9 JUMP JUMPDEST PUSH2 0x2090 DUP3 DUP3 PUSH2 0x2CFB JUMP JUMPDEST PUSH2 0x811 DUP3 DUP3 PUSH2 0x2F45 JUMP JUMPDEST PUSH1 0x0 PUSH1 0x1 PUSH1 0x1 PUSH1 0xA0 SHL SUB DUP5 AND ISZERO DUP1 ISZERO PUSH2 0x20B1 JUMPI POP DUP3 ISZERO JUMPDEST DUP1 ISZERO PUSH2 0x20BB JUMPI POP DUP2 ISZERO JUMPDEST SWAP1 POP PUSH1 0x0 PUSH1 0x1 PUSH1 0x1 PUSH1 0xA0 SHL SUB DUP6 AND ISZERO DUP1 ISZERO SWAP1 PUSH2 0x20D7 JUMPI POP PUSH1 0x0 DUP5 GT JUMPDEST DUP1 ISZERO PUSH2 0x20E3 JUMPI POP PUSH1 0x0 DUP4 GT JUMPDEST SWAP1 POP DUP2 ISZERO DUP1 ISZERO PUSH2 0x20F1 JUMPI POP DUP1 ISZERO JUMPDEST ISZERO PUSH2 0x2141 JUMPI PUSH1 0x40 MLOAD PUSH32 0xF5DEB5DC00000000000000000000000000000000000000000000000000000000 DUP2 MSTORE PUSH1 0x1 PUSH1 0x1 PUSH1 0xA0 SHL SUB DUP7 AND PUSH1 0x4 DUP3 ADD MSTORE PUSH1 0x24 DUP2 ADD DUP6 SWAP1 MSTORE PUSH1 0x44 DUP2 ADD DUP5 SWAP1 MSTORE PUSH1 0x64 ADD PUSH2 0xD14 JUMP JUMPDEST PUSH1 0x3 DUP7 ADD DUP4 SWAP1 SSTORE PUSH1 0x1 DUP7 ADD DUP5 SWAP1 SSTORE DUP2 ISZERO PUSH2 0x2168 JUMPI PUSH1 0x0 PUSH1 0x2 DUP8 ADD DUP2 SWAP1 SSTORE PUSH1 0x4 DUP8 ADD SSTORE PUSH2 0x21D4 JUMP JUMPDEST DUP6 PUSH1 0x4 ADD SLOAD PUSH1 0x0 SUB PUSH2 0x218F JUMPI PUSH1 0x0 PUSH1 0x2 DUP8 ADD SSTORE PUSH2 0x2185 DUP4 TIMESTAMP PUSH2 0x4DC3 JUMP JUMPDEST PUSH1 0x4 DUP8 ADD SSTORE PUSH2 0x21D4 JUMP JUMPDEST DUP6 SLOAD PUSH1 0x1 PUSH1 0x1 PUSH1 0xA0 SHL SUB DUP7 DUP2 AND SWAP2 AND EQ PUSH2 0x21D4 JUMPI DUP6 SLOAD PUSH1 0x0 SWAP1 PUSH2 0x21BB SWAP1 PUSH1 0x1 PUSH1 0x1 PUSH1 0xA0 SHL SUB AND DUP8 PUSH2 0x2F72 JUMP JUMPDEST PUSH1 0x2 DUP9 ADD SLOAD SWAP1 SWAP2 POP PUSH2 0x21CD SWAP1 DUP3 PUSH2 0x2F7E JUMP JUMPDEST PUSH1 0x2 DUP9 ADD SSTORE POP JUMPDEST POP POP DUP4 SLOAD PUSH32 0xFFFFFFFFFFFFFFFFFFFFFFFF0000000000000000000000000000000000000000 AND PUSH1 0x1 PUSH1 0x1 PUSH1 0xA0 SHL SUB SWAP4 SWAP1 SWAP4 AND SWAP3 SWAP1 SWAP3 OR SWAP1 SWAP3 SSTORE POP POP JUMP JUMPDEST DUP1 DUP3 EQ DUP1 ISZERO PUSH2 0x221F JUMPI POP DUP2 ISZERO ISZERO JUMPDEST ISZERO PUSH2 0x2259 JUMPI PUSH1 0x40 MLOAD PUSH32 0xFB49EDB00000000000000000000000000000000000000000000000000000000 DUP2 MSTORE PUSH1 0x4 DUP2 ADD DUP4 SWAP1 MSTORE PUSH1 0x24 ADD PUSH2 0xD14 JUMP JUMPDEST PUSH1 0x2 DUP3 SWAP1 SSTORE PUSH1 0x3 DUP2 SWAP1 SSTORE PUSH1 0x40 MLOAD DUP2 SWAP1 DUP4 SWAP1 PUSH32 0xF950A929751D87DB181A0A517DF21BB3ECD433ABBA584594402DB4B58A554835 SWAP1 PUSH1 0x0 SWAP1 LOG3 POP POP JUMP JUMPDEST PUSH1 0x0 SLOAD PUSH2 0x100 SWAP1 DIV PUSH1 0xFF AND PUSH2 0x22FF JUMPI PUSH1 0x40 MLOAD PUSH3 0x461BCD PUSH1 0xE5 SHL DUP2 MSTORE PUSH1 0x20 PUSH1 0x4 DUP3 ADD MSTORE PUSH1 0x2B PUSH1 0x24 DUP3 ADD MSTORE PUSH32 0x496E697469616C697A61626C653A20636F6E7472616374206973206E6F742069 PUSH1 0x44 DUP3 ADD MSTORE PUSH11 0x6E697469616C697A696E67 PUSH1 0xA8 SHL PUSH1 0x64 DUP3 ADD MSTORE PUSH1 0x84 ADD PUSH2 0xD14 JUMP JUMPDEST DUP1 MLOAD PUSH2 0x230A SWAP1 PUSH2 0x2FF4 JUMP JUMPDEST PUSH2 0x2312 PUSH2 0x30D6 JUMP JUMPDEST PUSH2 0x231F DUP2 PUSH1 0x20 ADD MLOAD PUSH2 0x314B JUMP JUMPDEST PUSH2 0x232C DUP2 PUSH1 0x40 ADD MLOAD PUSH2 0x31BF JUMP JUMPDEST PUSH2 0x2339 DUP2 PUSH1 0x60 ADD MLOAD PUSH2 0x3233 JUMP JUMPDEST PUSH2 0x2346 DUP2 PUSH1 0x80 ADD MLOAD PUSH2 0x32A7 JUMP JUMPDEST PUSH2 0x2353 DUP2 PUSH1 0xA0 ADD MLOAD PUSH2 0x331B JUMP JUMPDEST PUSH2 0x235C DUP2 PUSH2 0x338F JUMP JUMPDEST POP JUMP JUMPDEST PUSH1 0x0 SLOAD PUSH2 0x100 SWAP1 DIV PUSH1 0xFF AND PUSH2 0x23CA JUMPI PUSH1 0x40 MLOAD PUSH3 0x461BCD PUSH1 0xE5 SHL DUP2 MSTORE PUSH1 0x20 PUSH1 0x4 DUP3 ADD MSTORE PUSH1 0x2B PUSH1 0x24 DUP3 ADD MSTORE PUSH32 0x496E697469616C697A61626C653A20636F6E7472616374206973206E6F742069 PUSH1 0x44 DUP3 ADD MSTORE PUSH11 0x6E697469616C697A696E67 PUSH1 0xA8 SHL PUSH1 0x64 DUP3 ADD MSTORE PUSH1 0x84 ADD PUSH2 0xD14 JUMP JUMPDEST PUSH2 0x811 DUP2 PUSH2 0x1BDE JUMP JUMPDEST PUSH1 0x0 DUP1 DUP1 DUP4 PUSH3 0x264965 DUP2 ADD DUP3 PUSH3 0x23AB1 PUSH1 0x4 DUP4 MUL SDIV SWAP1 POP PUSH1 0x4 PUSH1 0x3 PUSH3 0x23AB1 DUP4 MUL ADD SDIV SWAP1 SWAP2 SUB SWAP1 PUSH1 0x0 PUSH3 0x164B09 PUSH2 0xFA0 PUSH1 0x1 DUP6 ADD MUL SDIV SWAP1 POP PUSH1 0x4 PUSH2 0x5B5 DUP3 MUL SDIV DUP4 SUB PUSH1 0x1F ADD SWAP3 POP PUSH1 0x0 PUSH2 0x98F DUP5 PUSH1 0x50 MUL DUP2 PUSH2 0x2430 JUMPI PUSH2 0x2430 PUSH2 0x4D80 JUMP JUMPDEST SDIV SWAP1 POP PUSH1 0x0 PUSH1 0x50 PUSH2 0x98F DUP4 MUL SDIV DUP6 SUB SWAP1 POP PUSH1 0xB DUP3 SDIV PUSH32 0xFFFFFFFFFFFFFFFFFFFFFFFFFFFFFFFFFFFFFFFFFFFFFFFFFFFFFFFFFFFFFFCF SWAP5 SWAP1 SWAP5 ADD PUSH1 0x64 MUL SWAP3 SWAP1 SWAP3 ADD DUP4 ADD SWAP10 PUSH1 0x2 PUSH1 0xC SWAP1 SWAP5 MUL SWAP1 SWAP2 SUB SWAP3 SWAP1 SWAP3 ADD SWAP8 POP SWAP6 POP SWAP4 POP POP POP POP JUMP JUMPDEST PUSH1 0x0 DUP2 PUSH1 0x1 EQ DUP1 PUSH2 0x249E JUMPI POP DUP2 PUSH1 0x3 EQ JUMPDEST DUP1 PUSH2 0x24A9 JUMPI POP DUP2 PUSH1 0x5 EQ JUMPDEST DUP1 PUSH2 0x24B4 JUMPI POP DUP2 PUSH1 0x7 EQ JUMPDEST DUP1 PUSH2 0x24BF JUMPI POP DUP2 PUSH1 0x8 EQ JUMPDEST DUP1 PUSH2 0x24CA JUMPI POP DUP2 PUSH1 0xA EQ JUMPDEST DUP1 PUSH2 0x24D5 JUMPI POP DUP2 PUSH1 0xC EQ JUMPDEST ISZERO PUSH2 0x24E2 JUMPI POP PUSH1 0x1F PUSH2 0xE83 JUMP JUMPDEST DUP2 PUSH1 0x2 EQ PUSH2 0x24F2 JUMPI POP PUSH1 0x1E PUSH2 0xE83 JUMP JUMPDEST PUSH2 0x24FB DUP4 PUSH2 0x33FA JUMP JUMPDEST PUSH2 0x2506 JUMPI PUSH1 0x1C PUSH2 0x2509 JUMP JUMPDEST PUSH1 0x1D JUMPDEST PUSH1 0xFF AND SWAP4 SWAP3 POP POP POP JUMP JUMPDEST PUSH1 0x0 DUP2 DUP2 MSTORE PUSH1 0x1 DUP4 ADD PUSH1 0x20 MSTORE PUSH1 0x40 DUP2 KECCAK256 SLOAD DUP1 ISZERO PUSH2 0x25FC JUMPI PUSH1 0x0 PUSH2 0x2537 PUSH1 0x1 DUP4 PUSH2 0x4DD6 JUMP JUMPDEST DUP6 SLOAD SWAP1 SWAP2 POP PUSH1 0x0 SWAP1 PUSH2 0x254B SWAP1 PUSH1 0x1 SWAP1 PUSH2 0x4DD6 JUMP JUMPDEST SWAP1 POP DUP2 DUP2 EQ PUSH2 0x25B0 JUMPI PUSH1 0x0 DUP7 PUSH1 0x0 ADD DUP3 DUP2 SLOAD DUP2 LT PUSH2 0x256B JUMPI PUSH2 0x256B PUSH2 0x4A68 JUMP JUMPDEST SWAP1 PUSH1 0x0 MSTORE PUSH1 0x20 PUSH1 0x0 KECCAK256 ADD SLOAD SWAP1 POP DUP1 DUP8 PUSH1 0x0 ADD DUP5 DUP2 SLOAD DUP2 LT PUSH2 0x258E JUMPI PUSH2 0x258E PUSH2 0x4A68 JUMP JUMPDEST PUSH1 0x0 SWAP2 DUP3 MSTORE PUSH1 0x20 DUP1 DUP4 KECCAK256 SWAP1 SWAP2 ADD SWAP3 SWAP1 SWAP3 SSTORE SWAP2 DUP3 MSTORE PUSH1 0x1 DUP9 ADD SWAP1 MSTORE PUSH1 0x40 SWAP1 KECCAK256 DUP4 SWAP1 SSTORE JUMPDEST DUP6 SLOAD DUP7 SWAP1 DUP1 PUSH2 0x25C1 JUMPI PUSH2 0x25C1 PUSH2 0x4DE9 JUMP JUMPDEST PUSH1 0x1 SWAP1 SUB DUP2 DUP2 SWAP1 PUSH1 0x0 MSTORE PUSH1 0x20 PUSH1 0x0 KECCAK256 ADD PUSH1 0x0 SWAP1 SSTORE SWAP1 SSTORE DUP6 PUSH1 0x1 ADD PUSH1 0x0 DUP7 DUP2 MSTORE PUSH1 0x20 ADD SWAP1 DUP2 MSTORE PUSH1 0x20 ADD PUSH1 0x0 KECCAK256 PUSH1 0x0 SWAP1 SSTORE PUSH1 0x1 SWAP4 POP POP POP POP PUSH2 0xE83 JUMP JUMPDEST PUSH1 0x0 SWAP2 POP POP PUSH2 0xE83 JUMP JUMPDEST POP SWAP3 SWAP2 POP POP JUMP JUMPDEST PUSH1 0x0 DUP2 DUP2 MSTORE PUSH1 0x1 DUP4 ADD PUSH1 0x20 MSTORE PUSH1 0x40 DUP2 KECCAK256 SLOAD PUSH2 0x2654 JUMPI POP DUP2 SLOAD PUSH1 0x1 DUP2 DUP2 ADD DUP5 SSTORE PUSH1 0x0 DUP5 DUP2 MSTORE PUSH1 0x20 DUP1 DUP3 KECCAK256 SWAP1 SWAP4 ADD DUP5 SWAP1 SSTORE DUP5 SLOAD DUP5 DUP3 MSTORE DUP3 DUP7 ADD SWAP1 SWAP4 MSTORE PUSH1 0x40 SWAP1 KECCAK256 SWAP2 SWAP1 SWAP2 SSTORE PUSH2 0xE83 JUMP JUMPDEST POP PUSH1 0x0 PUSH2 0xE83 JUMP JUMPDEST PUSH2 0x811 DUP3 DUP3 PUSH2 0x3436 JUMP JUMPDEST PUSH1 0x4 SLOAD PUSH1 0xFF AND ISZERO PUSH2 0x811 JUMPI PUSH1 0x40 MLOAD PUSH32 0xC0F2312800000000000000000000000000000000000000000000000000000000 DUP2 MSTORE PUSH1 0x4 ADD PUSH1 0x40 MLOAD DUP1 SWAP2 SUB SWAP1 REVERT JUMPDEST GAS PUSH1 0x5 SSTORE PUSH1 0x40 DUP1 MLOAD PUSH1 0x80 DUP2 ADD DUP3 MSTORE PUSH1 0x6 SLOAD DUP1 DUP3 MSTORE PUSH1 0x7 SLOAD PUSH1 0x20 DUP4 ADD MSTORE PUSH1 0x8 SLOAD SWAP3 DUP3 ADD SWAP3 SWAP1 SWAP3 MSTORE PUSH1 0x9 SLOAD PUSH1 0x60 DUP3 ADD MSTORE SWAP1 PUSH1 0x0 SWAP1 ISZERO DUP1 PUSH2 0x26E2 JUMPI POP DUP2 MLOAD GASPRICE GT ISZERO JUMPDEST SWAP1 POP DUP1 PUSH2 0x2727 JUMPI DUP2 MLOAD PUSH1 0x40 MLOAD PUSH32 0xCBB35EB700000000000000000000000000000000000000000000000000000000 DUP2 MSTORE GASPRICE PUSH1 0x4 DUP3 ADD MSTORE PUSH1 0x24 DUP2 ADD SWAP2 SWAP1 SWAP2 MSTORE PUSH1 0x44 ADD PUSH2 0xD14 JUMP JUMPDEST PUSH1 0x0 PUSH2 0x2733 BASEFEE GASPRICE PUSH2 0x4DD6 JUMP JUMPDEST SWAP1 POP PUSH1 0x0 DUP4 PUSH1 0x20 ADD MLOAD PUSH1 0x0 EQ DUP1 PUSH2 0x274E JUMPI POP DUP4 PUSH1 0x20 ADD MLOAD DUP3 GT ISZERO JUMPDEST SWAP1 POP DUP1 PUSH2 0x206A JUMPI PUSH1 0x20 DUP5 ADD MLOAD PUSH1 0x40 MLOAD PUSH32 0x56E5387F00000000000000000000000000000000000000000000000000000000 DUP2 MSTORE PUSH2 0xD14 SWAP2 DUP5 SWAP2 PUSH1 0x4 ADD SWAP2 DUP3 MSTORE PUSH1 0x20 DUP3 ADD MSTORE PUSH1 0x40 ADD SWAP1 JUMP JUMPDEST PUSH1 0xA SLOAD PUSH1 0xB SLOAD PUSH1 0xC SLOAD PUSH1 0xE SLOAD PUSH1 0xFF SWAP1 SWAP4 AND SWAP3 TIMESTAMP DUP3 GT ISZERO PUSH2 0x27EC JUMPI PUSH1 0x40 MLOAD PUSH32 0x13CE60B00000000000000000000000000000000000000000000000000000000 DUP2 MSTORE TIMESTAMP PUSH1 0x4 DUP3 ADD MSTORE PUSH1 0x24 DUP2 ADD DUP4 SWAP1 MSTORE PUSH1 0x44 ADD PUSH2 0xD14 JUMP JUMPDEST PUSH1 0x0 DUP5 PUSH1 0x2 DUP2 GT ISZERO PUSH2 0x2800 JUMPI PUSH2 0x2800 PUSH2 0x4626 JUMP JUMPDEST SUB PUSH2 0x28D2 JUMPI DUP3 PUSH1 0x0 SUB PUSH2 0x2815 JUMPI POP POP POP POP POP POP JUMP JUMPDEST DUP1 PUSH1 0x0 SUB PUSH2 0x282F JUMPI PUSH2 0x2827 DUP4 TIMESTAMP PUSH2 0x4DC3 JUMP JUMPDEST PUSH1 0xD SSTORE PUSH2 0x206A JUMP JUMPDEST PUSH1 0x0 PUSH2 0x283B DUP4 TIMESTAMP PUSH2 0x4DD6 JUMP JUMPDEST SWAP1 POP PUSH1 0x0 PUSH2 0x2849 DUP6 DUP4 PUSH2 0x4DAF JUMP JUMPDEST SWAP1 POP PUSH1 0x0 PUSH2 0x2857 DUP7 DUP4 PUSH2 0x4D0B JUMP JUMPDEST PUSH2 0x2861 SWAP1 DUP5 PUSH2 0x4DD6 JUMP JUMPDEST SWAP1 POP DUP4 DUP2 GT ISZERO PUSH2 0x28A6 JUMPI PUSH1 0x40 MLOAD PUSH32 0x13CE60B00000000000000000000000000000000000000000000000000000000 DUP2 MSTORE TIMESTAMP PUSH1 0x4 DUP3 ADD MSTORE PUSH1 0x24 DUP2 ADD DUP7 SWAP1 MSTORE PUSH1 0x44 ADD PUSH2 0xD14 JUMP JUMPDEST DUP6 PUSH2 0x28B2 DUP4 PUSH1 0x1 PUSH2 0x4DC3 JUMP JUMPDEST PUSH2 0x28BC SWAP2 SWAP1 PUSH2 0x4D0B JUMP JUMPDEST PUSH2 0x28C6 SWAP1 DUP7 PUSH2 0x4DC3 JUMP JUMPDEST PUSH1 0xD SSTORE POP PUSH2 0x206A SWAP2 POP POP JUMP JUMPDEST DUP2 TIMESTAMP LT ISZERO DUP1 ISZERO PUSH2 0x28EB JUMPI POP PUSH2 0x28E7 DUP2 DUP4 PUSH2 0x4DC3 JUMP JUMPDEST TIMESTAMP GT ISZERO JUMPDEST ISZERO PUSH2 0x28FA JUMPI PUSH2 0x2827 DUP3 DUP5 PUSH2 0x34A2 JUMP JUMPDEST PUSH1 0x0 PUSH1 0x1 DUP6 PUSH1 0x2 DUP2 GT ISZERO PUSH2 0x2910 JUMPI PUSH2 0x2910 PUSH2 0x4626 JUMP JUMPDEST EQ PUSH2 0x2923 JUMPI PUSH2 0x291E TIMESTAMP PUSH2 0x1E58 JUMP JUMPDEST PUSH2 0x292C JUMP JUMPDEST PUSH2 0x292C DUP4 PUSH2 0x1E41 JUMP JUMPDEST SWAP1 POP PUSH1 0x0 PUSH2 0x293A DUP5 DUP4 PUSH2 0x353A JUMP JUMPDEST SWAP1 POP DUP1 TIMESTAMP LT ISZERO PUSH2 0x297F JUMPI PUSH1 0x40 MLOAD PUSH32 0x13CE60B00000000000000000000000000000000000000000000000000000000 DUP2 MSTORE TIMESTAMP PUSH1 0x4 DUP3 ADD MSTORE PUSH1 0x24 DUP2 ADD DUP3 SWAP1 MSTORE PUSH1 0x44 ADD PUSH2 0xD14 JUMP JUMPDEST PUSH1 0x0 PUSH2 0x298B DUP5 DUP4 PUSH2 0x4DC3 JUMP JUMPDEST SWAP1 POP TIMESTAMP DUP2 LT DUP1 ISZERO PUSH2 0x29D1 JUMPI PUSH1 0x40 MLOAD PUSH32 0x13CE60B00000000000000000000000000000000000000000000000000000000 DUP2 MSTORE TIMESTAMP PUSH1 0x4 DUP3 ADD MSTORE PUSH1 0x24 DUP2 ADD DUP4 SWAP1 MSTORE PUSH1 0x44 ADD PUSH2 0xD14 JUMP JUMPDEST PUSH2 0x29DB DUP4 DUP9 PUSH2 0x34A2 JUMP JUMPDEST PUSH1 0xD SSTORE POP POP POP POP POP POP POP POP POP POP JUMP JUMPDEST PUSH2 0x29F3 DUP3 PUSH2 0xFC5 JUMP JUMPDEST PUSH2 0x811 JUMPI PUSH1 0x40 MLOAD PUSH32 0x7A24104500000000000000000000000000000000000000000000000000000000 DUP2 MSTORE PUSH1 0x1 PUSH1 0x1 PUSH1 0xA0 SHL SUB DUP4 AND PUSH1 0x4 DUP3 ADD MSTORE PUSH1 0x24 ADD PUSH2 0xD14 JUMP JUMPDEST PUSH1 0x0 PUSH2 0x2A3F DUP4 PUSH2 0x193A JUMP JUMPDEST DUP1 MLOAD SWAP1 SWAP2 POP PUSH1 0x1 PUSH1 0x1 PUSH1 0xA0 SHL SUB AND PUSH2 0x2A56 JUMPI POP POP POP JUMP JUMPDEST PUSH1 0x0 DUP4 PUSH1 0x1 PUSH1 0x1 PUSH1 0xA0 SHL SUB AND DUP3 PUSH1 0x0 ADD MLOAD PUSH1 0x1 PUSH1 0x1 PUSH1 0xA0 SHL SUB AND EQ PUSH2 0x2A92 JUMPI PUSH2 0x2A8D PUSH2 0x2A86 DUP6 DUP5 PUSH1 0x0 ADD MLOAD PUSH2 0x2F72 JUMP JUMPDEST DUP5 SWAP1 PUSH2 0x2F7E JUMP JUMPDEST PUSH2 0x2A94 JUMP JUMPDEST DUP3 JUMPDEST SWAP1 POP PUSH1 0x0 DUP3 PUSH1 0x20 ADD MLOAD DUP3 LT ISZERO DUP1 ISZERO PUSH2 0x2ABC JUMPI POP PUSH1 0x40 DUP4 ADD MLOAD ISZERO DUP1 PUSH2 0x2ABC JUMPI POP DUP3 PUSH1 0x40 ADD MLOAD DUP3 GT ISZERO JUMPDEST SWAP1 POP DUP1 PUSH2 0x66F JUMPI DUP3 MLOAD PUSH1 0x20 DUP5 ADD MLOAD PUSH1 0x40 DUP1 DUP7 ADD MLOAD SWAP1 MLOAD PUSH32 0x7C63A4B000000000000000000000000000000000000000000000000000000000 DUP2 MSTORE PUSH1 0x1 PUSH1 0x1 PUSH1 0xA0 SHL SUB SWAP1 SWAP4 AND PUSH1 0x4 DUP5 ADD MSTORE PUSH1 0x24 DUP4 ADD DUP6 SWAP1 MSTORE PUSH1 0x44 DUP4 ADD SWAP2 SWAP1 SWAP2 MSTORE PUSH1 0x64 DUP3 ADD MSTORE PUSH1 0x84 ADD PUSH2 0xD14 JUMP JUMPDEST PUSH1 0x0 PUSH2 0x2B2C DUP4 PUSH2 0x1CD4 JUMP JUMPDEST PUSH1 0x40 DUP1 MLOAD PUSH1 0xA0 DUP2 ADD DUP3 MSTORE DUP3 SLOAD PUSH1 0x1 PUSH1 0x1 PUSH1 0xA0 SHL SUB AND DUP1 DUP3 MSTORE PUSH1 0x1 DUP5 ADD SLOAD PUSH1 0x20 DUP4 ADD MSTORE PUSH1 0x2 DUP5 ADD SLOAD SWAP3 DUP3 ADD SWAP3 SWAP1 SWAP3 MSTORE PUSH1 0x3 DUP4 ADD SLOAD PUSH1 0x60 DUP3 ADD MSTORE PUSH1 0x4 SWAP1 SWAP3 ADD SLOAD PUSH1 0x80 DUP4 ADD MSTORE SWAP1 SWAP2 POP PUSH2 0x2B7B JUMPI POP POP POP JUMP JUMPDEST PUSH1 0x0 DUP4 PUSH1 0x1 PUSH1 0x1 PUSH1 0xA0 SHL SUB AND DUP3 PUSH1 0x0 ADD MLOAD PUSH1 0x1 PUSH1 0x1 PUSH1 0xA0 SHL SUB AND EQ PUSH2 0x2BB0 JUMPI PUSH2 0x2BAB PUSH2 0x2A86 DUP6 DUP5 PUSH1 0x0 ADD MLOAD PUSH2 0x2F72 JUMP JUMPDEST PUSH2 0x2BB2 JUMP JUMPDEST DUP3 JUMPDEST SWAP1 POP PUSH1 0x0 DUP3 PUSH1 0x80 ADD MLOAD TIMESTAMP LT PUSH2 0x2BC8 JUMPI PUSH1 0x0 PUSH2 0x2BCE JUMP JUMPDEST DUP3 PUSH1 0x40 ADD MLOAD JUMPDEST PUSH2 0x2BD8 SWAP1 DUP4 PUSH2 0x4DC3 JUMP JUMPDEST SWAP1 POP DUP3 PUSH1 0x20 ADD MLOAD DUP2 GT ISZERO PUSH2 0x66F JUMPI DUP3 MLOAD PUSH1 0x20 DUP5 ADD MLOAD PUSH1 0x40 MLOAD PUSH32 0xB8858D5D00000000000000000000000000000000000000000000000000000000 DUP2 MSTORE PUSH1 0x1 PUSH1 0x1 PUSH1 0xA0 SHL SUB SWAP1 SWAP3 AND PUSH1 0x4 DUP4 ADD MSTORE PUSH1 0x24 DUP3 ADD MSTORE PUSH1 0x44 DUP2 ADD DUP3 SWAP1 MSTORE PUSH1 0x64 ADD PUSH2 0xD14 JUMP JUMPDEST PUSH1 0x0 PUSH2 0x2C42 DUP4 PUSH2 0x1CD4 JUMP JUMPDEST DUP1 SLOAD SWAP1 SWAP2 POP PUSH1 0x1 PUSH1 0x1 PUSH1 0xA0 SHL SUB AND PUSH2 0x2C59 JUMPI POP POP POP JUMP JUMPDEST DUP1 SLOAD PUSH1 0x0 SWAP1 PUSH1 0x1 PUSH1 0x1 PUSH1 0xA0 SHL SUB DUP6 DUP2 AND SWAP2 AND EQ PUSH2 0x2C8F JUMPI DUP2 SLOAD PUSH2 0x2C8A SWAP1 PUSH2 0x2A86 SWAP1 DUP7 SWAP1 PUSH1 0x1 PUSH1 0x1 PUSH1 0xA0 SHL SUB AND PUSH2 0x2F72 JUMP JUMPDEST PUSH2 0x2C91 JUMP JUMPDEST DUP3 JUMPDEST SWAP1 POP DUP2 PUSH1 0x4 ADD SLOAD TIMESTAMP LT PUSH2 0x2CBA JUMPI PUSH1 0x0 PUSH1 0x2 DUP4 ADD SSTORE PUSH1 0x3 DUP3 ADD SLOAD PUSH2 0x2CB4 SWAP1 TIMESTAMP PUSH2 0x4DC3 JUMP JUMPDEST PUSH1 0x4 DUP4 ADD SSTORE JUMPDEST DUP1 DUP3 PUSH1 0x2 ADD PUSH1 0x0 DUP3 DUP3 SLOAD PUSH2 0x2CCE SWAP2 SWAP1 PUSH2 0x4DC3 JUMP JUMPDEST SWAP1 SWAP2 SSTORE POP POP POP POP POP POP JUMP JUMPDEST PUSH1 0xD SLOAD PUSH1 0x0 SUB PUSH2 0x2CE7 JUMPI POP POP JUMP JUMPDEST PUSH2 0x2CF2 PUSH1 0xD SLOAD PUSH2 0x3562 JUMP JUMPDEST POP POP PUSH1 0x0 PUSH1 0xD SSTORE JUMP JUMPDEST PUSH1 0x5 SLOAD PUSH1 0x0 SUB PUSH2 0x2D37 JUMPI PUSH1 0x40 MLOAD PUSH32 0x1F5B8FC600000000000000000000000000000000000000000000000000000000 DUP2 MSTORE PUSH1 0x4 ADD PUSH1 0x40 MLOAD DUP1 SWAP2 SUB SWAP1 REVERT JUMPDEST PUSH1 0x40 DUP1 MLOAD PUSH1 0x80 DUP2 ADD DUP3 MSTORE PUSH1 0x6 SLOAD DUP2 MSTORE PUSH1 0x7 SLOAD PUSH1 0x20 DUP3 ADD MSTORE PUSH1 0x8 SLOAD SWAP2 DUP2 ADD SWAP2 SWAP1 SWAP2 MSTORE PUSH1 0x9 SLOAD PUSH1 0x60 DUP3 ADD MSTORE PUSH1 0x0 GAS PUSH1 0x5 SLOAD PUSH2 0x2D70 SWAP2 SWAP1 PUSH2 0x4DD6 JUMP JUMPDEST SWAP1 POP PUSH1 0x0 PUSH2 0x2D7E GASPRICE DUP4 PUSH2 0x4D0B JUMP JUMPDEST SWAP1 POP PUSH1 0x0 DUP4 PUSH1 0x40 ADD MLOAD PUSH1 0x0 EQ DUP1 PUSH2 0x2D99 JUMPI POP DUP4 PUSH1 0x40 ADD MLOAD DUP3 GT ISZERO JUMPDEST SWAP1 POP DUP1 PUSH2 0x2DE3 JUMPI DUP2 DUP5 PUSH1 0x40 ADD MLOAD PUSH1 0x40 MLOAD PUSH32 0xAF258EF200000000000000000000000000000000000000000000000000000000 DUP2 MSTORE PUSH1 0x4 ADD PUSH2 0xD14 SWAP3 SWAP2 SWAP1 SWAP2 DUP3 MSTORE PUSH1 0x20 DUP3 ADD MSTORE PUSH1 0x40 ADD SWAP1 JUMP JUMPDEST PUSH1 0x0 PUSH1 0x5 SSTORE PUSH1 0x60 DUP5 ADD MLOAD ISZERO DUP1 ISZERO SWAP1 PUSH2 0x2DFB JUMPI POP PUSH1 0x0 DUP6 GT JUMPDEST ISZERO PUSH2 0x206A JUMPI PUSH1 0x0 PUSH2 0x2ECE ADDRESS PUSH1 0x1 PUSH1 0x1 PUSH1 0xA0 SHL SUB AND PUSH4 0x4FD49EFD PUSH1 0x40 MLOAD DUP2 PUSH4 0xFFFFFFFF AND PUSH1 0xE0 SHL DUP2 MSTORE PUSH1 0x4 ADD PUSH1 0x20 PUSH1 0x40 MLOAD DUP1 DUP4 SUB DUP2 DUP7 GAS STATICCALL ISZERO DUP1 ISZERO PUSH2 0x2E43 JUMPI RETURNDATASIZE PUSH1 0x0 DUP1 RETURNDATACOPY RETURNDATASIZE PUSH1 0x0 REVERT JUMPDEST POP POP POP POP PUSH1 0x40 MLOAD RETURNDATASIZE PUSH1 0x1F NOT PUSH1 0x1F DUP3 ADD AND DUP3 ADD DUP1 PUSH1 0x40 MSTORE POP DUP2 ADD SWAP1 PUSH2 0x2E67 SWAP2 SWAP1 PUSH2 0x4E18 JUMP JUMPDEST PUSH1 0x1 PUSH1 0x1 PUSH1 0xA0 SHL SUB AND PUSH4 0x17FCB39B PUSH1 0x40 MLOAD DUP2 PUSH4 0xFFFFFFFF AND PUSH1 0xE0 SHL DUP2 MSTORE PUSH1 0x4 ADD PUSH1 0x20 PUSH1 0x40 MLOAD DUP1 DUP4 SUB DUP2 DUP7 GAS STATICCALL ISZERO DUP1 ISZERO PUSH2 0x2EA4 JUMPI RETURNDATASIZE PUSH1 0x0 DUP1 RETURNDATACOPY RETURNDATASIZE PUSH1 0x0 REVERT JUMPDEST POP POP POP POP PUSH1 0x40 MLOAD RETURNDATASIZE PUSH1 0x1F NOT PUSH1 0x1F DUP3 ADD AND DUP3 ADD DUP1 PUSH1 0x40 MSTORE POP DUP2 ADD SWAP1 PUSH2 0x2EC8 SWAP2 SWAP1 PUSH2 0x4E18 JUMP JUMPDEST DUP9 PUSH2 0x2F72 JUMP JUMPDEST SWAP1 POP PUSH1 0x0 PUSH2 0x2EDC DUP5 DUP4 PUSH2 0x3597 JUMP JUMPDEST SWAP1 POP PUSH1 0x0 PUSH2 0x2EEA DUP3 DUP10 PUSH2 0x3640 JUMP JUMPDEST SWAP1 POP DUP7 PUSH1 0x60 ADD MLOAD DUP2 GT ISZERO PUSH2 0x2F3A JUMPI PUSH1 0x60 DUP8 ADD MLOAD PUSH1 0x40 MLOAD PUSH32 0x297747F00000000000000000000000000000000000000000000000000000000 DUP2 MSTORE PUSH2 0xD14 SWAP2 DUP4 SWAP2 PUSH1 0x4 ADD SWAP2 DUP3 MSTORE PUSH1 0x20 DUP3 ADD MSTORE PUSH1 0x40 ADD SWAP1 JUMP JUMPDEST POP POP POP POP POP POP POP POP POP JUMP JUMPDEST PUSH1 0x40 MLOAD PUSH32 0x68F46C45A243A0E9065A97649FAF9A5AFE1692F2679E650C2F853B9CD734CC0E SWAP1 PUSH1 0x0 SWAP1 LOG1 POP POP JUMP JUMPDEST PUSH1 0x0 PUSH2 0x1009 DUP4 DUP4 PUSH2 0x3709 JUMP JUMPDEST PUSH1 0x0 DUP3 DUP3 MUL DUP4 ISZERO DUP1 ISZERO SWAP1 PUSH2 0x2FA1 JUMPI POP DUP3 DUP5 DUP3 DUP2 PUSH2 0x2F9D JUMPI PUSH2 0x2F9D PUSH2 0x4D80 JUMP JUMPDEST DIV EQ ISZERO JUMPDEST ISZERO PUSH2 0x2FE2 JUMPI PUSH1 0x40 MLOAD PUSH32 0xE8E4A4FA00000000000000000000000000000000000000000000000000000000 DUP2 MSTORE PUSH1 0x4 DUP2 ADD DUP6 SWAP1 MSTORE PUSH1 0x24 DUP2 ADD DUP5 SWAP1 MSTORE PUSH1 0x44 ADD PUSH2 0xD14 JUMP JUMPDEST PUSH8 0xDE0B6B3A7640000 SWAP1 DIV SWAP4 SWAP3 POP POP POP JUMP JUMPDEST PUSH1 0x0 SLOAD PUSH2 0x100 SWAP1 DIV PUSH1 0xFF AND PUSH2 0x305F JUMPI PUSH1 0x40 MLOAD PUSH3 0x461BCD PUSH1 0xE5 SHL DUP2 MSTORE PUSH1 0x20 PUSH1 0x4 DUP3 ADD MSTORE PUSH1 0x2B PUSH1 0x24 DUP3 ADD MSTORE PUSH32 0x496E697469616C697A61626C653A20636F6E7472616374206973206E6F742069 PUSH1 0x44 DUP3 ADD MSTORE PUSH11 0x6E697469616C697A696E67 PUSH1 0xA8 SHL PUSH1 0x64 DUP3 ADD MSTORE PUSH1 0x84 ADD PUSH2 0xD14 JUMP JUMPDEST PUSH2 0x30CD DUP2 PUSH1 0x0 ADD MLOAD PUSH1 0x1 PUSH1 0x1 PUSH1 0xA0 SHL SUB AND PUSH4 0xD09EDF31 PUSH1 0x40 MLOAD DUP2 PUSH4 0xFFFFFFFF AND PUSH1 0xE0 SHL DUP2 MSTORE PUSH1 0x4 ADD PUSH1 0x20 PUSH1 0x40 MLOAD DUP1 DUP4 SUB DUP2 DUP7 GAS STATICCALL ISZERO DUP1 ISZERO PUSH2 0x30A4 JUMPI RETURNDATASIZE PUSH1 0x0 DUP1 RETURNDATACOPY RETURNDATASIZE PUSH1 0x0 REVERT JUMPDEST POP POP POP POP PUSH1 0x40 MLOAD RETURNDATASIZE PUSH1 0x1F NOT PUSH1 0x1F DUP3 ADD AND DUP3 ADD DUP1 PUSH1 0x40 MSTORE POP DUP2 ADD SWAP1 PUSH2 0x30C8 SWAP2 SWAP1 PUSH2 0x4E18 JUMP JUMPDEST PUSH2 0x3917 JUMP JUMPDEST PUSH2 0x235C DUP2 PUSH2 0x398B JUMP JUMPDEST PUSH1 0x0 SLOAD PUSH2 0x100 SWAP1 DIV PUSH1 0xFF AND PUSH2 0x3141 JUMPI PUSH1 0x40 MLOAD PUSH3 0x461BCD PUSH1 0xE5 SHL DUP2 MSTORE PUSH1 0x20 PUSH1 0x4 DUP3 ADD MSTORE PUSH1 0x2B PUSH1 0x24 DUP3 ADD MSTORE PUSH32 0x496E697469616C697A61626C653A20636F6E7472616374206973206E6F742069 PUSH1 0x44 DUP3 ADD MSTORE PUSH11 0x6E697469616C697A696E67 PUSH1 0xA8 SHL PUSH1 0x64 DUP3 ADD MSTORE PUSH1 0x84 ADD PUSH2 0xD14 JUMP JUMPDEST PUSH2 0x3149 PUSH2 0x3A43 JUMP JUMPDEST JUMP JUMPDEST PUSH1 0x0 SLOAD PUSH2 0x100 SWAP1 DIV PUSH1 0xFF AND PUSH2 0x31B6 JUMPI PUSH1 0x40 MLOAD PUSH3 0x461BCD PUSH1 0xE5 SHL DUP2 MSTORE PUSH1 0x20 PUSH1 0x4 DUP3 ADD MSTORE PUSH1 0x2B PUSH1 0x24 DUP3 ADD MSTORE PUSH32 0x496E697469616C697A61626C653A20636F6E7472616374206973206E6F742069 PUSH1 0x44 DUP3 ADD MSTORE PUSH11 0x6E697469616C697A696E67 PUSH1 0xA8 SHL PUSH1 0x64 DUP3 ADD MSTORE PUSH1 0x84 ADD PUSH2 0xD14 JUMP JUMPDEST PUSH2 0x235C DUP2 PUSH2 0x3AAE JUMP JUMPDEST PUSH1 0x0 SLOAD PUSH2 0x100 SWAP1 DIV PUSH1 0xFF AND PUSH2 0x322A JUMPI PUSH1 0x40 MLOAD PUSH3 0x461BCD PUSH1 0xE5 SHL DUP2 MSTORE PUSH1 0x20 PUSH1 0x4 DUP3 ADD MSTORE PUSH1 0x2B PUSH1 0x24 DUP3 ADD MSTORE PUSH32 0x496E697469616C697A61626C653A20636F6E7472616374206973206E6F742069 PUSH1 0x44 DUP3 ADD MSTORE PUSH11 0x6E697469616C697A696E67 PUSH1 0xA8 SHL PUSH1 0x64 DUP3 ADD MSTORE PUSH1 0x84 ADD PUSH2 0xD14 JUMP JUMPDEST PUSH2 0x235C DUP2 PUSH2 0x3B35 JUMP JUMPDEST PUSH1 0x0 SLOAD PUSH2 0x100 SWAP1 DIV PUSH1 0xFF AND PUSH2 0x329E JUMPI PUSH1 0x40 MLOAD PUSH3 0x461BCD PUSH1 0xE5 SHL DUP2 MSTORE PUSH1 0x20 PUSH1 0x4 DUP3 ADD MSTORE PUSH1 0x2B PUSH1 0x24 DUP3 ADD MSTORE PUSH32 0x496E697469616C697A61626C653A20636F6E7472616374206973206E6F742069 PUSH1 0x44 DUP3 ADD MSTORE PUSH11 0x6E697469616C697A696E67 PUSH1 0xA8 SHL PUSH1 0x64 DUP3 ADD MSTORE PUSH1 0x84 ADD PUSH2 0xD14 JUMP JUMPDEST PUSH2 0x235C DUP2 PUSH2 0x3BBC JUMP JUMPDEST PUSH1 0x0 SLOAD PUSH2 0x100 SWAP1 DIV PUSH1 0xFF AND PUSH2 0x3312 JUMPI PUSH1 0x40 MLOAD PUSH3 0x461BCD PUSH1 0xE5 SHL DUP2 MSTORE PUSH1 0x20 PUSH1 0x4 DUP3 ADD MSTORE PUSH1 0x2B PUSH1 0x24 DUP3 ADD MSTORE PUSH32 0x496E697469616C697A61626C653A20636F6E7472616374206973206E6F742069 PUSH1 0x44 DUP3 ADD MSTORE PUSH11 0x6E697469616C697A696E67 PUSH1 0xA8 SHL PUSH1 0x64 DUP3 ADD MSTORE PUSH1 0x84 ADD PUSH2 0xD14 JUMP JUMPDEST PUSH2 0x235C DUP2 PUSH2 0x3C7C JUMP JUMPDEST PUSH1 0x0 SLOAD PUSH2 0x100 SWAP1 DIV PUSH1 0xFF AND PUSH2 0x3386 JUMPI PUSH1 0x40 MLOAD PUSH3 0x461BCD PUSH1 0xE5 SHL DUP2 MSTORE PUSH1 0x20 PUSH1 0x4 DUP3 ADD MSTORE PUSH1 0x2B PUSH1 0x24 DUP3 ADD MSTORE PUSH32 0x496E697469616C697A61626C653A20636F6E7472616374206973206E6F742069 PUSH1 0x44 DUP3 ADD MSTORE PUSH11 0x6E697469616C697A696E67 PUSH1 0xA8 SHL PUSH1 0x64 DUP3 ADD MSTORE PUSH1 0x84 ADD PUSH2 0xD14 JUMP JUMPDEST PUSH2 0x235C DUP2 PUSH2 0x3D6C JUMP JUMPDEST PUSH1 0x0 SLOAD PUSH2 0x100 SWAP1 DIV PUSH1 0xFF AND PUSH2 0x235C JUMPI PUSH1 0x40 MLOAD PUSH3 0x461BCD PUSH1 0xE5 SHL DUP2 MSTORE PUSH1 0x20 PUSH1 0x4 DUP3 ADD MSTORE PUSH1 0x2B PUSH1 0x24 DUP3 ADD MSTORE PUSH32 0x496E697469616C697A61626C653A20636F6E7472616374206973206E6F742069 PUSH1 0x44 DUP3 ADD MSTORE PUSH11 0x6E697469616C697A696E67 PUSH1 0xA8 SHL PUSH1 0x64 DUP3 ADD MSTORE PUSH1 0x84 ADD PUSH2 0xD14 JUMP JUMPDEST PUSH1 0x0 PUSH2 0x3407 PUSH1 0x4 DUP4 PUSH2 0x4E35 JUMP JUMPDEST ISZERO DUP1 ISZERO PUSH2 0x341D JUMPI POP PUSH2 0x341A PUSH1 0x64 DUP4 PUSH2 0x4E35 JUMP JUMPDEST ISZERO ISZERO JUMPDEST DUP1 PUSH2 0xE83 JUMPI POP PUSH2 0x342F PUSH2 0x190 DUP4 PUSH2 0x4E35 JUMP JUMPDEST ISZERO SWAP3 SWAP2 POP POP JUMP JUMPDEST PUSH1 0x2 SLOAD ISZERO PUSH2 0x811 JUMPI PUSH1 0x1 SLOAD PUSH1 0x2 SLOAD PUSH1 0x40 MLOAD PUSH32 0xEB056BBB00000000000000000000000000000000000000000000000000000000 DUP2 MSTORE PUSH1 0x4 DUP2 ADD SWAP2 SWAP1 SWAP2 MSTORE PUSH1 0x1 PUSH1 0x1 PUSH1 0xA0 SHL SUB DUP5 DUP2 AND PUSH1 0x24 DUP4 ADD MSTORE PUSH1 0x44 DUP3 ADD DUP5 SWAP1 MSTORE PUSH1 0x0 PUSH1 0x64 DUP4 ADD MSTORE SWAP1 SWAP2 AND SWAP1 PUSH4 0xEB056BBB SWAP1 PUSH1 0x84 ADD PUSH2 0x203C JUMP JUMPDEST PUSH1 0x0 DUP1 PUSH1 0x0 DUP1 PUSH2 0x34B1 DUP7 PUSH2 0x3E5C JUMP JUMPDEST SWAP2 SWAP5 POP SWAP3 POP SWAP1 POP PUSH1 0x0 PUSH2 0x34C4 DUP7 DUP5 PUSH2 0x4DC3 JUMP JUMPDEST SWAP1 POP PUSH1 0x0 PUSH2 0x34D3 PUSH1 0xC DUP4 PUSH2 0x4E35 JUMP JUMPDEST SWAP1 POP PUSH1 0x0 PUSH2 0x34E2 PUSH1 0xC DUP5 PUSH2 0x4DAF JUMP JUMPDEST PUSH2 0x34EC SWAP1 DUP8 PUSH2 0x4DC3 JUMP JUMPDEST SWAP1 POP PUSH1 0x0 PUSH1 0x2 PUSH1 0xA SLOAD PUSH1 0xFF AND PUSH1 0x2 DUP2 GT ISZERO PUSH2 0x3509 JUMPI PUSH2 0x3509 PUSH2 0x4626 JUMP JUMPDEST EQ PUSH2 0x3514 JUMPI DUP5 PUSH2 0x351E JUMP JUMPDEST PUSH2 0x351E DUP3 DUP5 PUSH2 0x248D JUMP JUMPDEST SWAP1 POP PUSH2 0x352C DUP11 DUP4 DUP6 DUP5 PUSH2 0x3E7B JUMP JUMPDEST SWAP11 SWAP10 POP POP POP POP POP POP POP POP POP POP JUMP JUMPDEST PUSH1 0x0 DUP1 PUSH1 0x0 PUSH2 0x3548 TIMESTAMP PUSH2 0x3E5C JUMP JUMPDEST POP SWAP2 POP SWAP2 POP PUSH2 0x3559 DUP6 DUP4 DUP4 DUP8 PUSH2 0x3E7B JUMP JUMPDEST SWAP6 SWAP5 POP POP POP POP POP JUMP JUMPDEST PUSH1 0xC DUP2 SWAP1 SSTORE PUSH1 0x40 MLOAD DUP2 DUP2 MSTORE PUSH32 0xF90744BEE56935EC5ACC9DE37B89C0C545298C667EE417BD9469E9C6836AD064 SWAP1 PUSH1 0x20 ADD PUSH2 0x1768 JUMP JUMPDEST PUSH1 0x0 DUP3 DUP3 MUL DUP4 ISZERO DUP1 ISZERO SWAP1 PUSH2 0x35BA JUMPI POP DUP3 DUP5 DUP3 DUP2 PUSH2 0x35B6 JUMPI PUSH2 0x35B6 PUSH2 0x4D80 JUMP JUMPDEST DIV EQ ISZERO JUMPDEST ISZERO PUSH2 0x35FB JUMPI PUSH1 0x40 MLOAD PUSH32 0xE8E4A4FA00000000000000000000000000000000000000000000000000000000 DUP2 MSTORE PUSH1 0x4 DUP2 ADD DUP6 SWAP1 MSTORE PUSH1 0x24 DUP2 ADD DUP5 SWAP1 MSTORE PUSH1 0x44 ADD PUSH2 0xD14 JUMP JUMPDEST DUP1 ISZERO PUSH2 0x3636 JUMPI PUSH8 0xDE0B6B3A7640000 PUSH32 0xFFFFFFFFFFFFFFFFFFFFFFFFFFFFFFFFFFFFFFFFFFFFFFFFFFFFFFFFFFFFFFFF DUP3 ADD DIV PUSH1 0x1 ADD PUSH2 0x1E39 JUMP JUMPDEST PUSH1 0x0 SWAP5 SWAP4 POP POP POP POP JUMP JUMPDEST PUSH1 0x0 DUP2 PUSH1 0x0 SUB PUSH2 0x367C JUMPI PUSH1 0x40 MLOAD PUSH32 0xB8A2F92100000000000000000000000000000000000000000000000000000000 DUP2 MSTORE PUSH1 0x4 ADD PUSH1 0x40 MLOAD DUP1 SWAP2 SUB SWAP1 REVERT JUMPDEST DUP3 PUSH1 0x0 SUB PUSH2 0x368C JUMPI POP PUSH1 0x0 PUSH2 0xE83 JUMP JUMPDEST PUSH8 0xDE0B6B3A7640000 DUP4 DUP2 MUL SWAP1 DUP5 DUP3 DUP2 PUSH2 0x36A8 JUMPI PUSH2 0x36A8 PUSH2 0x4D80 JUMP JUMPDEST DIV EQ PUSH2 0x36EA JUMPI PUSH1 0x40 MLOAD PUSH32 0xEA7B49E600000000000000000000000000000000000000000000000000000000 DUP2 MSTORE PUSH1 0x4 DUP2 ADD DUP6 SWAP1 MSTORE PUSH1 0x24 DUP2 ADD DUP3 SWAP1 MSTORE PUSH1 0x44 ADD PUSH2 0xD14 JUMP JUMPDEST DUP3 PUSH1 0x1 DUP3 SUB DUP2 PUSH2 0x36FC JUMPI PUSH2 0x36FC PUSH2 0x4D80 JUMP JUMPDEST DIV PUSH1 0x1 ADD SWAP2 POP POP SWAP3 SWAP2 POP POP JUMP JUMPDEST PUSH1 0x0 DUP1 PUSH1 0x1 PUSH1 0x0 SWAP1 SLOAD SWAP1 PUSH2 0x100 EXP SWAP1 DIV PUSH1 0x1 PUSH1 0x1 PUSH1 0xA0 SHL SUB AND PUSH1 0x1 PUSH1 0x1 PUSH1 0xA0 SHL SUB AND PUSH4 0x2630C12F PUSH1 0x40 MLOAD DUP2 PUSH4 0xFFFFFFFF AND PUSH1 0xE0 SHL DUP2 MSTORE PUSH1 0x4 ADD PUSH1 0x20 PUSH1 0x40 MLOAD DUP1 DUP4 SUB DUP2 DUP7 GAS STATICCALL ISZERO DUP1 ISZERO PUSH2 0x375F JUMPI RETURNDATASIZE PUSH1 0x0 DUP1 RETURNDATACOPY RETURNDATASIZE PUSH1 0x0 REVERT JUMPDEST POP POP POP POP PUSH1 0x40 MLOAD RETURNDATASIZE PUSH1 0x1F NOT PUSH1 0x1F DUP3 ADD AND DUP3 ADD DUP1 PUSH1 0x40 MSTORE POP DUP2 ADD SWAP1 PUSH2 0x3783 SWAP2 SWAP1 PUSH2 0x4E18 JUMP JUMPDEST SWAP1 POP PUSH1 0x1 PUSH1 0x1 PUSH1 0xA0 SHL SUB DUP2 AND PUSH2 0x37D4 JUMPI PUSH1 0x1 SLOAD PUSH1 0x40 MLOAD PUSH32 0x38D2BAAE00000000000000000000000000000000000000000000000000000000 DUP2 MSTORE PUSH1 0x1 PUSH1 0x1 PUSH1 0xA0 SHL SUB SWAP1 SWAP2 AND PUSH1 0x4 DUP3 ADD MSTORE PUSH1 0x24 ADD PUSH2 0xD14 JUMP JUMPDEST PUSH1 0x0 PUSH2 0x37DE PUSH2 0x3EA3 JUMP JUMPDEST SWAP1 POP DUP1 MLOAD PUSH1 0x0 EQ PUSH2 0x386F JUMPI DUP2 PUSH1 0x1 PUSH1 0x1 PUSH1 0xA0 SHL SUB AND PUSH4 0x355EFDD9 PUSH2 0x3801 DUP8 PUSH2 0x3F23 JUMP JUMPDEST PUSH2 0x380A DUP8 PUSH2 0x3F23 JUMP JUMPDEST DUP5 PUSH1 0x40 MLOAD DUP5 PUSH4 0xFFFFFFFF AND PUSH1 0xE0 SHL DUP2 MSTORE PUSH1 0x4 ADD PUSH2 0x3829 SWAP4 SWAP3 SWAP2 SWAP1 PUSH2 0x4E49 JUMP JUMPDEST PUSH1 0x20 PUSH1 0x40 MLOAD DUP1 DUP4 SUB DUP2 DUP7 GAS STATICCALL ISZERO DUP1 ISZERO PUSH2 0x3846 JUMPI RETURNDATASIZE PUSH1 0x0 DUP1 RETURNDATACOPY RETURNDATASIZE PUSH1 0x0 REVERT JUMPDEST POP POP POP POP PUSH1 0x40 MLOAD RETURNDATASIZE PUSH1 0x1F NOT PUSH1 0x1F DUP3 ADD AND DUP3 ADD DUP1 PUSH1 0x40 MSTORE POP DUP2 ADD SWAP1 PUSH2 0x386A SWAP2 SWAP1 PUSH2 0x4C6D JUMP JUMPDEST PUSH2 0x3559 JUMP JUMPDEST DUP2 PUSH1 0x1 PUSH1 0x1 PUSH1 0xA0 SHL SUB AND PUSH4 0xAC41865A PUSH2 0x3887 DUP8 PUSH2 0x3F23 JUMP JUMPDEST PUSH2 0x3890 DUP8 PUSH2 0x3F23 JUMP JUMPDEST PUSH1 0x40 MLOAD PUSH32 0xFFFFFFFF00000000000000000000000000000000000000000000000000000000 PUSH1 0xE0 DUP6 SWAP1 SHL AND DUP2 MSTORE PUSH1 0x1 PUSH1 0x1 PUSH1 0xA0 SHL SUB SWAP3 DUP4 AND PUSH1 0x4 DUP3 ADD MSTORE SWAP2 AND PUSH1 0x24 DUP3 ADD MSTORE PUSH1 0x44 ADD PUSH1 0x20 PUSH1 0x40 MLOAD DUP1 DUP4 SUB DUP2 DUP7 GAS STATICCALL ISZERO DUP1 ISZERO PUSH2 0x38F3 JUMPI RETURNDATASIZE PUSH1 0x0 DUP1 RETURNDATACOPY RETURNDATASIZE PUSH1 0x0 REVERT JUMPDEST POP POP POP POP PUSH1 0x40 MLOAD RETURNDATASIZE PUSH1 0x1F NOT PUSH1 0x1F DUP3 ADD AND DUP3 ADD DUP1 PUSH1 0x40 MSTORE POP DUP2 ADD SWAP1 PUSH2 0x3559 SWAP2 SWAP1 PUSH2 0x4C6D JUMP JUMPDEST PUSH1 0x0 SLOAD PUSH2 0x100 SWAP1 DIV PUSH1 0xFF AND PUSH2 0x3982 JUMPI PUSH1 0x40 MLOAD PUSH3 0x461BCD PUSH1 0xE5 SHL DUP2 MSTORE PUSH1 0x20 PUSH1 0x4 DUP3 ADD MSTORE PUSH1 0x2B PUSH1 0x24 DUP3 ADD MSTORE PUSH32 0x496E697469616C697A61626C653A20636F6E7472616374206973206E6F742069 PUSH1 0x44 DUP3 ADD MSTORE PUSH11 0x6E697469616C697A696E67 PUSH1 0xA8 SHL PUSH1 0x64 DUP3 ADD MSTORE PUSH1 0x84 ADD PUSH2 0xD14 JUMP JUMPDEST PUSH2 0x235C DUP2 PUSH2 0x3F57 JUMP JUMPDEST PUSH1 0x0 SLOAD PUSH2 0x100 SWAP1 DIV PUSH1 0xFF AND PUSH2 0x39F6 JUMPI PUSH1 0x40 MLOAD PUSH3 0x461BCD PUSH1 0xE5 SHL DUP2 MSTORE PUSH1 0x20 PUSH1 0x4 DUP3 ADD MSTORE PUSH1 0x2B PUSH1 0x24 DUP3 ADD MSTORE PUSH32 0x496E697469616C697A61626C653A20636F6E7472616374206973206E6F742069 PUSH1 0x44 DUP3 ADD MSTORE PUSH11 0x6E697469616C697A696E67 PUSH1 0xA8 SHL PUSH1 0x64 DUP3 ADD MSTORE PUSH1 0x84 ADD PUSH2 0xD14 JUMP JUMPDEST DUP1 MLOAD PUSH1 0x1 DUP1 SLOAD PUSH32 0xFFFFFFFFFFFFFFFFFFFFFFFF0000000000000000000000000000000000000000 AND PUSH1 0x1 PUSH1 0x1 PUSH1 0xA0 SHL SUB SWAP1 SWAP3 AND SWAP2 SWAP1 SWAP2 OR SWAP1 SSTORE PUSH1 0x20 DUP2 ADD MLOAD PUSH1 0x40 DUP3 ADD MLOAD PUSH2 0x235C SWAP2 SWAP1 PUSH2 0x1A1F JUMP JUMPDEST PUSH1 0x0 SLOAD PUSH2 0x100 SWAP1 DIV PUSH1 0xFF AND PUSH2 0x3149 JUMPI PUSH1 0x40 MLOAD PUSH3 0x461BCD PUSH1 0xE5 SHL DUP2 MSTORE PUSH1 0x20 PUSH1 0x4 DUP3 ADD MSTORE PUSH1 0x2B PUSH1 0x24 DUP3 ADD MSTORE PUSH32 0x496E697469616C697A61626C653A20636F6E7472616374206973206E6F742069 PUSH1 0x44 DUP3 ADD MSTORE PUSH11 0x6E697469616C697A696E67 PUSH1 0xA8 SHL PUSH1 0x64 DUP3 ADD MSTORE PUSH1 0x84 ADD PUSH2 0xD14 JUMP JUMPDEST PUSH1 0x0 SLOAD PUSH2 0x100 SWAP1 DIV PUSH1 0xFF AND PUSH2 0x3B19 JUMPI PUSH1 0x40 MLOAD PUSH3 0x461BCD PUSH1 0xE5 SHL DUP2 MSTORE PUSH1 0x20 PUSH1 0x4 DUP3 ADD MSTORE PUSH1 0x2B PUSH1 0x24 DUP3 ADD MSTORE PUSH32 0x496E697469616C697A61626C653A20636F6E7472616374206973206E6F742069 PUSH1 0x44 DUP3 ADD MSTORE PUSH11 0x6E697469616C697A696E67 PUSH1 0xA8 SHL PUSH1 0x64 DUP3 ADD MSTORE PUSH1 0x84 ADD PUSH2 0xD14 JUMP JUMPDEST PUSH2 0x235C DUP2 PUSH1 0x0 ADD MLOAD DUP3 PUSH1 0x20 ADD MLOAD DUP4 PUSH1 0x40 ADD MLOAD DUP5 PUSH1 0x60 ADD MLOAD PUSH2 0x1D08 JUMP JUMPDEST PUSH1 0x0 SLOAD PUSH2 0x100 SWAP1 DIV PUSH1 0xFF AND PUSH2 0x3BA0 JUMPI PUSH1 0x40 MLOAD PUSH3 0x461BCD PUSH1 0xE5 SHL DUP2 MSTORE PUSH1 0x20 PUSH1 0x4 DUP3 ADD MSTORE PUSH1 0x2B PUSH1 0x24 DUP3 ADD MSTORE PUSH32 0x496E697469616C697A61626C653A20636F6E7472616374206973206E6F742069 PUSH1 0x44 DUP3 ADD MSTORE PUSH11 0x6E697469616C697A696E67 PUSH1 0xA8 SHL PUSH1 0x64 DUP3 ADD MSTORE PUSH1 0x84 ADD PUSH2 0xD14 JUMP JUMPDEST PUSH2 0x235C DUP2 PUSH1 0x0 ADD MLOAD DUP3 PUSH1 0x20 ADD MLOAD DUP4 PUSH1 0x40 ADD MLOAD DUP5 PUSH1 0x60 ADD MLOAD PUSH2 0x1102 JUMP JUMPDEST PUSH1 0x0 SLOAD PUSH2 0x100 SWAP1 DIV PUSH1 0xFF AND PUSH2 0x3C27 JUMPI PUSH1 0x40 MLOAD PUSH3 0x461BCD PUSH1 0xE5 SHL DUP2 MSTORE PUSH1 0x20 PUSH1 0x4 DUP3 ADD MSTORE PUSH1 0x2B PUSH1 0x24 DUP3 ADD MSTORE PUSH32 0x496E697469616C697A61626C653A20636F6E7472616374206973206E6F742069 PUSH1 0x44 DUP3 ADD MSTORE PUSH11 0x6E697469616C697A696E67 PUSH1 0xA8 SHL PUSH1 0x64 DUP3 ADD MSTORE PUSH1 0x84 ADD PUSH2 0xD14 JUMP JUMPDEST DUP1 MLOAD PUSH2 0x3C32 SWAP1 PUSH2 0x16F8 JUMP JUMPDEST PUSH1 0x0 JUMPDEST DUP2 PUSH1 0x20 ADD MLOAD MLOAD DUP2 LT ISZERO PUSH2 0x811 JUMPI PUSH2 0x3C6A DUP3 PUSH1 0x20 ADD MLOAD DUP3 DUP2 MLOAD DUP2 LT PUSH2 0x3C5B JUMPI PUSH2 0x3C5B PUSH2 0x4A68 JUMP JUMPDEST PUSH1 0x20 MUL PUSH1 0x20 ADD ADD MLOAD PUSH1 0x1 PUSH2 0x14E5 JUMP JUMPDEST DUP1 PUSH2 0x3C74 DUP2 PUSH2 0x4AC6 JUMP JUMPDEST SWAP2 POP POP PUSH2 0x3C35 JUMP JUMPDEST PUSH1 0x0 SLOAD PUSH2 0x100 SWAP1 DIV PUSH1 0xFF AND PUSH2 0x3CE7 JUMPI PUSH1 0x40 MLOAD PUSH3 0x461BCD PUSH1 0xE5 SHL DUP2 MSTORE PUSH1 0x20 PUSH1 0x4 DUP3 ADD MSTORE PUSH1 0x2B PUSH1 0x24 DUP3 ADD MSTORE PUSH32 0x496E697469616C697A61626C653A20636F6E7472616374206973206E6F742069 PUSH1 0x44 DUP3 ADD MSTORE PUSH11 0x6E697469616C697A696E67 PUSH1 0xA8 SHL PUSH1 0x64 DUP3 ADD MSTORE PUSH1 0x84 ADD PUSH2 0xD14 JUMP JUMPDEST DUP1 MLOAD DUP1 MLOAD PUSH1 0x20 DUP3 ADD MLOAD PUSH1 0x40 DUP4 ADD MLOAD PUSH2 0x3D00 SWAP3 SWAP2 SWAP1 PUSH2 0x1C80 JUMP JUMPDEST PUSH1 0x0 JUMPDEST DUP3 PUSH1 0x20 ADD MLOAD MLOAD DUP2 LT ISZERO PUSH2 0x770 JUMPI PUSH1 0x0 DUP4 PUSH1 0x20 ADD MLOAD DUP3 DUP2 MLOAD DUP2 LT PUSH2 0x3D28 JUMPI PUSH2 0x3D28 PUSH2 0x4A68 JUMP JUMPDEST PUSH1 0x20 MUL PUSH1 0x20 ADD ADD MLOAD SWAP1 POP PUSH1 0x0 DUP2 PUSH1 0x20 ADD MLOAD SWAP1 POP PUSH2 0x3D57 DUP3 PUSH1 0x0 ADD MLOAD DUP3 PUSH1 0x0 ADD MLOAD DUP4 PUSH1 0x20 ADD MLOAD DUP5 PUSH1 0x40 ADD MLOAD PUSH2 0x15F8 JUMP JUMPDEST POP POP DUP1 DUP1 PUSH2 0x3D64 SWAP1 PUSH2 0x4AC6 JUMP JUMPDEST SWAP2 POP POP PUSH2 0x3D03 JUMP JUMPDEST PUSH1 0x0 SLOAD PUSH2 0x100 SWAP1 DIV PUSH1 0xFF AND PUSH2 0x3DD7 JUMPI PUSH1 0x40 MLOAD PUSH3 0x461BCD PUSH1 0xE5 SHL DUP2 MSTORE PUSH1 0x20 PUSH1 0x4 DUP3 ADD MSTORE PUSH1 0x2B PUSH1 0x24 DUP3 ADD MSTORE PUSH32 0x496E697469616C697A61626C653A20636F6E7472616374206973206E6F742069 PUSH1 0x44 DUP3 ADD MSTORE PUSH11 0x6E697469616C697A696E67 PUSH1 0xA8 SHL PUSH1 0x64 DUP3 ADD MSTORE PUSH1 0x84 ADD PUSH2 0xD14 JUMP JUMPDEST DUP1 MLOAD DUP1 MLOAD PUSH1 0x20 DUP3 ADD MLOAD PUSH1 0x40 DUP4 ADD MLOAD PUSH2 0x3DF0 SWAP3 SWAP2 SWAP1 PUSH2 0x1AF6 JUMP JUMPDEST PUSH1 0x0 JUMPDEST DUP3 PUSH1 0x20 ADD MLOAD MLOAD DUP2 LT ISZERO PUSH2 0x770 JUMPI PUSH1 0x0 DUP4 PUSH1 0x20 ADD MLOAD DUP3 DUP2 MLOAD DUP2 LT PUSH2 0x3E18 JUMPI PUSH2 0x3E18 PUSH2 0x4A68 JUMP JUMPDEST PUSH1 0x20 MUL PUSH1 0x20 ADD ADD MLOAD SWAP1 POP PUSH1 0x0 DUP2 PUSH1 0x20 ADD MLOAD SWAP1 POP PUSH2 0x3E47 DUP3 PUSH1 0x0 ADD MLOAD DUP3 PUSH1 0x0 ADD MLOAD DUP4 PUSH1 0x20 ADD MLOAD DUP5 PUSH1 0x40 ADD MLOAD PUSH2 0x187A JUMP JUMPDEST POP POP DUP1 DUP1 PUSH2 0x3E54 SWAP1 PUSH2 0x4AC6 JUMP JUMPDEST SWAP2 POP POP PUSH2 0x3DF3 JUMP JUMPDEST PUSH1 0x0 DUP1 DUP1 PUSH2 0x3E6E PUSH3 0x15180 DUP6 DIV PUSH2 0x23D3 JUMP JUMPDEST SWAP2 SWAP7 SWAP1 SWAP6 POP SWAP1 SWAP4 POP SWAP2 POP POP JUMP JUMPDEST PUSH1 0x0 PUSH2 0x3559 DUP5 DUP5 DUP5 PUSH2 0x3E8C DUP10 PUSH2 0x4002 JUMP JUMPDEST PUSH2 0x3E95 DUP11 PUSH2 0x4020 JUMP JUMPDEST PUSH2 0x3E9E DUP12 PUSH2 0x403C JUMP JUMPDEST PUSH2 0x4049 JUMP JUMPDEST PUSH1 0x60 PUSH1 0x0 PUSH2 0x3EAF PUSH2 0x40A5 JUMP JUMPDEST SWAP1 POP CALLDATASIZE DUP2 GT ISZERO PUSH2 0x3ECD JUMPI POP POP PUSH1 0x40 DUP1 MLOAD PUSH1 0x0 DUP2 MSTORE PUSH1 0x20 DUP2 ADD SWAP1 SWAP2 MSTORE SWAP1 JUMP JUMPDEST DUP1 PUSH8 0xFFFFFFFFFFFFFFFF DUP2 GT ISZERO PUSH2 0x3EE6 JUMPI PUSH2 0x3EE6 PUSH2 0x42F6 JUMP JUMPDEST PUSH1 0x40 MLOAD SWAP1 DUP1 DUP3 MSTORE DUP1 PUSH1 0x1F ADD PUSH1 0x1F NOT AND PUSH1 0x20 ADD DUP3 ADD PUSH1 0x40 MSTORE DUP1 ISZERO PUSH2 0x3F10 JUMPI PUSH1 0x20 DUP3 ADD DUP2 DUP1 CALLDATASIZE DUP4 CALLDATACOPY ADD SWAP1 POP JUMPDEST POP SWAP2 POP DUP1 PUSH1 0x20 DUP3 CALLDATASIZE SUB SUB PUSH1 0x20 DUP5 ADD CALLDATACOPY POP SWAP1 JUMP JUMPDEST PUSH1 0x0 PUSH20 0xEEEEEEEEEEEEEEEEEEEEEEEEEEEEEEEEEEEEEEEE PUSH1 0x1 PUSH1 0x1 PUSH1 0xA0 SHL SUB DUP4 AND EQ PUSH2 0x3F4F JUMPI DUP2 PUSH2 0xE83 JUMP JUMPDEST PUSH2 0xE83 PUSH2 0x40DE JUMP JUMPDEST PUSH1 0x0 SLOAD PUSH2 0x100 SWAP1 DIV PUSH1 0xFF AND PUSH2 0x3FC2 JUMPI PUSH1 0x40 MLOAD PUSH3 0x461BCD PUSH1 0xE5 SHL DUP2 MSTORE PUSH1 0x20 PUSH1 0x4 DUP3 ADD MSTORE PUSH1 0x2B PUSH1 0x24 DUP3 ADD MSTORE PUSH32 0x496E697469616C697A61626C653A20636F6E7472616374206973206E6F742069 PUSH1 0x44 DUP3 ADD MSTORE PUSH11 0x6E697469616C697A696E67 PUSH1 0xA8 SHL PUSH1 0x64 DUP3 ADD MSTORE PUSH1 0x84 ADD PUSH2 0xD14 JUMP JUMPDEST PUSH1 0x0 DUP1 SLOAD PUSH1 0x1 PUSH1 0x1 PUSH1 0xA0 SHL SUB SWAP1 SWAP3 AND PUSH3 0x10000 MUL PUSH32 0xFFFFFFFFFFFFFFFFFFFF0000000000000000000000000000000000000000FFFF SWAP1 SWAP3 AND SWAP2 SWAP1 SWAP2 OR SWAP1 SSTORE JUMP JUMPDEST PUSH1 0x0 DUP1 PUSH2 0x4012 PUSH3 0x15180 DUP5 PUSH2 0x4E35 JUMP JUMPDEST SWAP1 POP PUSH2 0x1009 PUSH2 0xE10 DUP3 PUSH2 0x4DAF JUMP JUMPDEST PUSH1 0x0 DUP1 PUSH2 0x402F PUSH2 0xE10 DUP5 PUSH2 0x4E35 JUMP JUMPDEST SWAP1 POP PUSH2 0x1009 PUSH1 0x3C DUP3 PUSH2 0x4DAF JUMP JUMPDEST PUSH1 0x0 PUSH2 0xE83 PUSH1 0x3C DUP4 PUSH2 0x4E35 JUMP JUMPDEST PUSH1 0x0 DUP2 PUSH2 0x4057 PUSH1 0x3C DUP6 PUSH2 0x4D0B JUMP JUMPDEST PUSH2 0x4063 PUSH2 0xE10 DUP8 PUSH2 0x4D0B JUMP JUMPDEST PUSH3 0x15180 PUSH2 0x4072 DUP12 DUP12 DUP12 PUSH2 0x416A JUMP JUMPDEST PUSH2 0x407C SWAP2 SWAP1 PUSH2 0x4D0B JUMP JUMPDEST PUSH2 0x4086 SWAP2 SWAP1 PUSH2 0x4DC3 JUMP JUMPDEST PUSH2 0x4090 SWAP2 SWAP1 PUSH2 0x4DC3 JUMP JUMPDEST PUSH2 0x409A SWAP2 SWAP1 PUSH2 0x4DC3 JUMP JUMPDEST SWAP8 SWAP7 POP POP POP POP POP POP POP JUMP JUMPDEST PUSH1 0x0 PUSH1 0x24 CALLDATASIZE LT ISZERO PUSH2 0x40B6 JUMPI POP PUSH1 0x0 SWAP1 JUMP JUMPDEST POP PUSH32 0xFFFFFFFFFFFFFFFFFFFFFFFFFFFFFFFFFFFFFFFFFFFFFFFFFFFFFFFFFFFFFFE0 CALLDATASIZE ADD CALLDATALOAD SWAP1 JUMP JUMPDEST PUSH1 0x1 SLOAD PUSH1 0x40 DUP1 MLOAD PUSH32 0x17FCB39B00000000000000000000000000000000000000000000000000000000 DUP2 MSTORE SWAP1 MLOAD PUSH1 0x0 SWAP3 PUSH1 0x1 PUSH1 0x1 PUSH1 0xA0 SHL SUB AND SWAP2 PUSH4 0x17FCB39B SWAP2 PUSH1 0x4 DUP1 DUP4 ADD SWAP3 PUSH1 0x20 SWAP3 SWAP2 SWAP1 DUP3 SWAP1 SUB ADD DUP2 DUP7 GAS STATICCALL ISZERO DUP1 ISZERO PUSH2 0x4141 JUMPI RETURNDATASIZE PUSH1 0x0 DUP1 RETURNDATACOPY RETURNDATASIZE PUSH1 0x0 REVERT JUMPDEST POP POP POP POP PUSH1 0x40 MLOAD RETURNDATASIZE PUSH1 0x1F NOT PUSH1 0x1F DUP3 ADD AND DUP3 ADD DUP1 PUSH1 0x40 MSTORE POP DUP2 ADD SWAP1 PUSH2 0x4165 SWAP2 SWAP1 PUSH2 0x4E18 JUMP JUMPDEST SWAP1 POP SWAP1 JUMP JUMPDEST PUSH1 0x0 PUSH2 0x7B2 DUP5 LT ISZERO PUSH2 0x417B JUMPI PUSH1 0x0 DUP1 REVERT JUMPDEST DUP4 DUP4 DUP4 PUSH1 0x0 PUSH3 0x253D8C PUSH1 0x4 PUSH1 0x64 PUSH1 0xC PUSH2 0x4195 PUSH1 0xE DUP9 PUSH2 0x4E75 JUMP JUMPDEST PUSH2 0x419F SWAP2 SWAP1 PUSH2 0x4E95 JUMP JUMPDEST PUSH2 0x41AB DUP9 PUSH2 0x1324 PUSH2 0x4EFD JUMP JUMPDEST PUSH2 0x41B5 SWAP2 SWAP1 PUSH2 0x4EFD JUMP JUMPDEST PUSH2 0x41BF SWAP2 SWAP1 PUSH2 0x4E95 JUMP JUMPDEST PUSH2 0x41CA SWAP1 PUSH1 0x3 PUSH2 0x4F25 JUMP JUMPDEST PUSH2 0x41D4 SWAP2 SWAP1 PUSH2 0x4E95 JUMP JUMPDEST PUSH1 0xC DUP1 PUSH2 0x41E2 PUSH1 0xE DUP9 PUSH2 0x4E75 JUMP JUMPDEST PUSH2 0x41EC SWAP2 SWAP1 PUSH2 0x4E95 JUMP JUMPDEST PUSH2 0x41F7 SWAP1 PUSH1 0xC PUSH2 0x4F25 JUMP JUMPDEST PUSH2 0x4202 PUSH1 0x2 DUP9 PUSH2 0x4E75 JUMP JUMPDEST PUSH2 0x420C SWAP2 SWAP1 PUSH2 0x4E75 JUMP JUMPDEST PUSH2 0x4218 SWAP1 PUSH2 0x16F PUSH2 0x4F25 JUMP JUMPDEST PUSH2 0x4222 SWAP2 SWAP1 PUSH2 0x4E95 JUMP JUMPDEST PUSH1 0x4 PUSH1 0xC PUSH2 0x4231 PUSH1 0xE DUP10 PUSH2 0x4E75 JUMP JUMPDEST PUSH2 0x423B SWAP2 SWAP1 PUSH2 0x4E95 JUMP JUMPDEST PUSH2 0x4247 DUP10 PUSH2 0x12C0 PUSH2 0x4EFD JUMP JUMPDEST PUSH2 0x4251 SWAP2 SWAP1 PUSH2 0x4EFD JUMP JUMPDEST PUSH2 0x425D SWAP1 PUSH2 0x5B5 PUSH2 0x4F25 JUMP JUMPDEST PUSH2 0x4267 SWAP2 SWAP1 PUSH2 0x4E95 JUMP JUMPDEST PUSH2 0x4273 PUSH2 0x7D4B DUP8 PUSH2 0x4E75 JUMP JUMPDEST PUSH2 0x427D SWAP2 SWAP1 PUSH2 0x4EFD JUMP JUMPDEST PUSH2 0x4287 SWAP2 SWAP1 PUSH2 0x4EFD JUMP JUMPDEST PUSH2 0x4291 SWAP2 SWAP1 PUSH2 0x4E75 JUMP JUMPDEST PUSH2 0x429B SWAP2 SWAP1 PUSH2 0x4E75 JUMP JUMPDEST SWAP9 SWAP8 POP POP POP POP POP POP POP POP JUMP JUMPDEST DUP1 CALLDATALOAD PUSH1 0xFF DUP2 AND DUP2 EQ PUSH2 0x42B8 JUMPI PUSH1 0x0 DUP1 REVERT JUMPDEST SWAP2 SWAP1 POP JUMP JUMPDEST PUSH1 0x0 DUP1 PUSH1 0x0 DUP1 PUSH1 0x80 DUP6 DUP8 SUB SLT ISZERO PUSH2 0x42D3 JUMPI PUSH1 0x0 DUP1 REVERT JUMPDEST PUSH2 0x42DC DUP6 PUSH2 0x42A7 JUMP JUMPDEST SWAP7 PUSH1 0x20 DUP7 ADD CALLDATALOAD SWAP7 POP PUSH1 0x40 DUP7 ADD CALLDATALOAD SWAP6 PUSH1 0x60 ADD CALLDATALOAD SWAP5 POP SWAP3 POP POP POP JUMP JUMPDEST PUSH32 0x4E487B7100000000000000000000000000000000000000000000000000000000 PUSH1 0x0 MSTORE PUSH1 0x41 PUSH1 0x4 MSTORE PUSH1 0x24 PUSH1 0x0 REVERT JUMPDEST PUSH1 0x40 MLOAD PUSH1 0x80 DUP2 ADD PUSH8 0xFFFFFFFFFFFFFFFF DUP2 GT DUP3 DUP3 LT OR ISZERO PUSH2 0x4348 JUMPI PUSH2 0x4348 PUSH2 0x42F6 JUMP JUMPDEST PUSH1 0x40 MSTORE SWAP1 JUMP JUMPDEST PUSH1 0x40 DUP1 MLOAD SWAP1 DUP2 ADD PUSH8 0xFFFFFFFFFFFFFFFF DUP2 GT DUP3 DUP3 LT OR ISZERO PUSH2 0x4348 JUMPI PUSH2 0x4348 PUSH2 0x42F6 JUMP JUMPDEST PUSH1 0x40 MLOAD PUSH1 0xC0 DUP2 ADD PUSH8 0xFFFFFFFFFFFFFFFF DUP2 GT DUP3 DUP3 LT OR ISZERO PUSH2 0x4348 JUMPI PUSH2 0x4348 PUSH2 0x42F6 JUMP JUMPDEST PUSH1 0x40 MLOAD PUSH1 0x1F DUP3 ADD PUSH32 0xFFFFFFFFFFFFFFFFFFFFFFFFFFFFFFFFFFFFFFFFFFFFFFFFFFFFFFFFFFFFFFE0 AND DUP2 ADD PUSH8 0xFFFFFFFFFFFFFFFF DUP2 GT DUP3 DUP3 LT OR ISZERO PUSH2 0x43DB JUMPI PUSH2 0x43DB PUSH2 0x42F6 JUMP JUMPDEST PUSH1 0x40 MSTORE SWAP2 SWAP1 POP JUMP JUMPDEST PUSH1 0x0 PUSH8 0xFFFFFFFFFFFFFFFF DUP3 GT ISZERO PUSH2 0x43FD JUMPI PUSH2 0x43FD PUSH2 0x42F6 JUMP JUMPDEST POP PUSH1 0x5 SHL PUSH1 0x20 ADD SWAP1 JUMP JUMPDEST PUSH1 0x1 PUSH1 0x1 PUSH1 0xA0 SHL SUB DUP2 AND DUP2 EQ PUSH2 0x235C JUMPI PUSH1 0x0 DUP1 REVERT JUMPDEST DUP1 CALLDATALOAD PUSH2 0x42B8 DUP2 PUSH2 0x4407 JUMP JUMPDEST PUSH1 0x0 DUP3 PUSH1 0x1F DUP4 ADD SLT PUSH2 0x4438 JUMPI PUSH1 0x0 DUP1 REVERT JUMPDEST DUP2 CALLDATALOAD PUSH1 0x20 PUSH2 0x444D PUSH2 0x4448 DUP4 PUSH2 0x43E3 JUMP JUMPDEST PUSH2 0x4394 JUMP JUMPDEST DUP3 DUP2 MSTORE PUSH1 0x5 SWAP3 SWAP1 SWAP3 SHL DUP5 ADD DUP2 ADD SWAP2 DUP2 DUP2 ADD SWAP1 DUP7 DUP5 GT ISZERO PUSH2 0x446C JUMPI PUSH1 0x0 DUP1 REVERT JUMPDEST DUP3 DUP7 ADD JUMPDEST DUP5 DUP2 LT ISZERO PUSH2 0x4490 JUMPI DUP1 CALLDATALOAD PUSH2 0x4483 DUP2 PUSH2 0x4407 JUMP JUMPDEST DUP4 MSTORE SWAP2 DUP4 ADD SWAP2 DUP4 ADD PUSH2 0x4470 JUMP JUMPDEST POP SWAP7 SWAP6 POP POP POP POP POP POP JUMP JUMPDEST DUP1 ISZERO ISZERO DUP2 EQ PUSH2 0x235C JUMPI PUSH1 0x0 DUP1 REVERT JUMPDEST PUSH1 0x0 DUP1 PUSH1 0x40 DUP4 DUP6 SUB SLT ISZERO PUSH2 0x44BC JUMPI PUSH1 0x0 DUP1 REVERT JUMPDEST DUP3 CALLDATALOAD PUSH8 0xFFFFFFFFFFFFFFFF DUP1 DUP3 GT ISZERO PUSH2 0x44D4 JUMPI PUSH1 0x0 DUP1 REVERT JUMPDEST PUSH2 0x44E0 DUP7 DUP4 DUP8 ADD PUSH2 0x4427 JUMP JUMPDEST SWAP4 POP PUSH1 0x20 SWAP2 POP DUP2 DUP6 ADD CALLDATALOAD DUP2 DUP2 GT ISZERO PUSH2 0x44F7 JUMPI PUSH1 0x0 DUP1 REVERT JUMPDEST DUP6 ADD SWAP1 POP PUSH1 0x1F DUP2 ADD DUP7 SGT PUSH2 0x450A JUMPI PUSH1 0x0 DUP1 REVERT JUMPDEST DUP1 CALLDATALOAD PUSH2 0x4518 PUSH2 0x4448 DUP3 PUSH2 0x43E3 JUMP JUMPDEST DUP2 DUP2 MSTORE PUSH1 0x5 SWAP2 SWAP1 SWAP2 SHL DUP3 ADD DUP4 ADD SWAP1 DUP4 DUP2 ADD SWAP1 DUP9 DUP4 GT ISZERO PUSH2 0x4537 JUMPI PUSH1 0x0 DUP1 REVERT JUMPDEST SWAP3 DUP5 ADD SWAP3 JUMPDEST DUP3 DUP5 LT ISZERO PUSH2 0x455E JUMPI DUP4 CALLDATALOAD PUSH2 0x454F DUP2 PUSH2 0x449B JUMP JUMPDEST DUP3 MSTORE SWAP3 DUP5 ADD SWAP3 SWAP1 DUP5 ADD SWAP1 PUSH2 0x453C JUMP JUMPDEST DUP1 SWAP6 POP POP POP POP POP POP SWAP3 POP SWAP3 SWAP1 POP JUMP JUMPDEST PUSH1 0x0 PUSH1 0x20 DUP3 DUP5 SUB SLT ISZERO PUSH2 0x457F JUMPI PUSH1 0x0 DUP1 REVERT JUMPDEST DUP2 CALLDATALOAD PUSH2 0x1009 DUP2 PUSH2 0x4407 JUMP JUMPDEST PUSH1 0x0 DUP1 PUSH1 0x0 DUP1 PUSH1 0x80 DUP6 DUP8 SUB SLT ISZERO PUSH2 0x45A0 JUMPI PUSH1 0x0 DUP1 REVERT JUMPDEST DUP5 CALLDATALOAD PUSH2 0x45AB DUP2 PUSH2 0x4407 JUMP JUMPDEST SWAP4 POP PUSH1 0x20 DUP6 ADD CALLDATALOAD PUSH2 0x45BB DUP2 PUSH2 0x4407 JUMP JUMPDEST SWAP4 SWAP7 SWAP4 SWAP6 POP POP POP POP PUSH1 0x40 DUP3 ADD CALLDATALOAD SWAP2 PUSH1 0x60 ADD CALLDATALOAD SWAP1 JUMP JUMPDEST DUP1 CALLDATALOAD PUSH1 0x2 DUP2 LT PUSH2 0x42B8 JUMPI PUSH1 0x0 DUP1 REVERT JUMPDEST PUSH1 0x0 PUSH1 0x20 DUP3 DUP5 SUB SLT ISZERO PUSH2 0x45F1 JUMPI PUSH1 0x0 DUP1 REVERT JUMPDEST PUSH2 0x1009 DUP3 PUSH2 0x45D0 JUMP JUMPDEST PUSH1 0x0 DUP1 PUSH1 0x40 DUP4 DUP6 SUB SLT ISZERO PUSH2 0x460D JUMPI PUSH1 0x0 DUP1 REVERT JUMPDEST DUP3 CALLDATALOAD PUSH2 0x4618 DUP2 PUSH2 0x4407 JUMP JUMPDEST SWAP5 PUSH1 0x20 SWAP4 SWAP1 SWAP4 ADD CALLDATALOAD SWAP4 POP POP POP JUMP JUMPDEST PUSH32 0x4E487B7100000000000000000000000000000000000000000000000000000000 PUSH1 0x0 MSTORE PUSH1 0x21 PUSH1 0x4 MSTORE PUSH1 0x24 PUSH1 0x0 REVERT JUMPDEST PUSH1 0x20 DUP2 ADD PUSH1 0x2 DUP4 LT PUSH2 0x4690 JUMPI PUSH32 0x4E487B7100000000000000000000000000000000000000000000000000000000 PUSH1 0x0 MSTORE PUSH1 0x21 PUSH1 0x4 MSTORE PUSH1 0x24 PUSH1 0x0 REVERT JUMPDEST SWAP2 SWAP1 MSTORE SWAP1 JUMP JUMPDEST PUSH1 0x0 DUP1 PUSH1 0x40 DUP4 DUP6 SUB SLT ISZERO PUSH2 0x46A9 JUMPI PUSH1 0x0 DUP1 REVERT JUMPDEST POP POP DUP1 CALLDATALOAD SWAP3 PUSH1 0x20 SWAP1 SWAP2 ADD CALLDATALOAD SWAP2 POP JUMP JUMPDEST PUSH1 0x0 DUP1 PUSH1 0x0 PUSH1 0x60 DUP5 DUP7 SUB SLT ISZERO PUSH2 0x46CD JUMPI PUSH1 0x0 DUP1 REVERT JUMPDEST DUP4 CALLDATALOAD PUSH2 0x46D8 DUP2 PUSH2 0x4407 JUMP JUMPDEST SWAP6 PUSH1 0x20 DUP6 ADD CALLDATALOAD SWAP6 POP PUSH1 0x40 SWAP1 SWAP5 ADD CALLDATALOAD SWAP4 SWAP3 POP POP POP JUMP JUMPDEST PUSH1 0x0 PUSH1 0x60 DUP3 DUP5 SUB SLT ISZERO PUSH2 0x46FF JUMPI PUSH1 0x0 DUP1 REVERT JUMPDEST PUSH1 0x40 MLOAD PUSH1 0x60 DUP2 ADD DUP2 DUP2 LT PUSH8 0xFFFFFFFFFFFFFFFF DUP3 GT OR ISZERO PUSH2 0x4722 JUMPI PUSH2 0x4722 PUSH2 0x42F6 JUMP JUMPDEST PUSH1 0x40 MSTORE SWAP1 POP DUP1 DUP3 CALLDATALOAD PUSH2 0x4733 DUP2 PUSH2 0x4407 JUMP JUMPDEST DUP1 DUP3 MSTORE POP PUSH1 0x20 DUP4 ADD CALLDATALOAD PUSH1 0x20 DUP3 ADD MSTORE PUSH1 0x40 DUP4 ADD CALLDATALOAD PUSH1 0x40 DUP3 ADD MSTORE POP SWAP3 SWAP2 POP POP JUMP JUMPDEST PUSH1 0x0 PUSH1 0x80 DUP3 DUP5 SUB SLT ISZERO PUSH2 0x4764 JUMPI PUSH1 0x0 DUP1 REVERT JUMPDEST PUSH2 0x476C PUSH2 0x4325 JUMP JUMPDEST SWAP1 POP DUP2 CALLDATALOAD DUP2 MSTORE PUSH1 0x20 DUP3 ADD CALLDATALOAD PUSH1 0x20 DUP3 ADD MSTORE PUSH1 0x40 DUP3 ADD CALLDATALOAD PUSH1 0x40 DUP3 ADD MSTORE PUSH1 0x60 DUP3 ADD CALLDATALOAD PUSH1 0x60 DUP3 ADD MSTORE SWAP3 SWAP2 POP POP JUMP JUMPDEST PUSH1 0x0 PUSH1 0x80 DUP3 DUP5 SUB SLT ISZERO PUSH2 0x47A8 JUMPI PUSH1 0x0 DUP1 REVERT JUMPDEST PUSH2 0x47B0 PUSH2 0x4325 JUMP JUMPDEST SWAP1 POP PUSH2 0x47BB DUP3 PUSH2 0x42A7 JUMP JUMPDEST DUP2 MSTORE PUSH1 0x20 DUP3 ADD CALLDATALOAD PUSH1 0x20 DUP3 ADD MSTORE PUSH1 0x40 DUP3 ADD CALLDATALOAD PUSH1 0x40 DUP3 ADD MSTORE PUSH1 0x60 DUP3 ADD CALLDATALOAD PUSH1 0x60 DUP3 ADD MSTORE SWAP3 SWAP2 POP POP JUMP JUMPDEST PUSH1 0x0 PUSH1 0x40 DUP3 DUP5 SUB SLT ISZERO PUSH2 0x47F3 JUMPI PUSH1 0x0 DUP1 REVERT JUMPDEST PUSH2 0x47FB PUSH2 0x434E JUMP JUMPDEST SWAP1 POP PUSH2 0x4806 DUP3 PUSH2 0x45D0 JUMP JUMPDEST DUP2 MSTORE PUSH1 0x20 DUP3 ADD CALLDATALOAD PUSH8 0xFFFFFFFFFFFFFFFF DUP2 GT ISZERO PUSH2 0x4822 JUMPI PUSH1 0x0 DUP1 REVERT JUMPDEST PUSH2 0x482E DUP5 DUP3 DUP6 ADD PUSH2 0x4427 JUMP JUMPDEST PUSH1 0x20 DUP4 ADD MSTORE POP SWAP3 SWAP2 POP POP JUMP JUMPDEST PUSH1 0x0 PUSH1 0x80 DUP3 DUP5 SUB SLT ISZERO PUSH2 0x484C JUMPI PUSH1 0x0 DUP1 REVERT JUMPDEST PUSH2 0x4854 PUSH2 0x434E JUMP JUMPDEST SWAP1 POP DUP2 CALLDATALOAD PUSH2 0x4861 DUP2 PUSH2 0x4407 JUMP JUMPDEST DUP2 MSTORE PUSH2 0x4870 DUP4 PUSH1 0x20 DUP5 ADD PUSH2 0x46ED JUMP JUMPDEST PUSH1 0x20 DUP3 ADD MSTORE SWAP3 SWAP2 POP POP JUMP JUMPDEST PUSH1 0x0 PUSH1 0x80 DUP1 DUP4 DUP6 SUB SLT ISZERO PUSH2 0x488E JUMPI PUSH1 0x0 DUP1 REVERT JUMPDEST PUSH2 0x4896 PUSH2 0x434E JUMP JUMPDEST SWAP2 POP PUSH2 0x48A2 DUP5 DUP5 PUSH2 0x46ED JUMP JUMPDEST DUP3 MSTORE PUSH1 0x60 DUP4 ADD CALLDATALOAD PUSH8 0xFFFFFFFFFFFFFFFF DUP2 GT ISZERO PUSH2 0x48BE JUMPI PUSH1 0x0 DUP1 REVERT JUMPDEST DUP4 ADD PUSH1 0x1F DUP2 ADD DUP6 SGT PUSH2 0x48CF JUMPI PUSH1 0x0 DUP1 REVERT JUMPDEST DUP1 CALLDATALOAD PUSH1 0x20 PUSH2 0x48DF PUSH2 0x4448 DUP4 PUSH2 0x43E3 JUMP JUMPDEST DUP3 DUP2 MSTORE PUSH1 0x7 SWAP3 SWAP1 SWAP3 SHL DUP4 ADD DUP2 ADD SWAP2 DUP2 DUP2 ADD SWAP1 DUP9 DUP5 GT ISZERO PUSH2 0x48FE JUMPI PUSH1 0x0 DUP1 REVERT JUMPDEST SWAP4 DUP3 ADD SWAP4 JUMPDEST DUP4 DUP6 LT ISZERO PUSH2 0x4924 JUMPI PUSH2 0x4915 DUP10 DUP7 PUSH2 0x483A JUMP JUMPDEST DUP3 MSTORE SWAP4 DUP6 ADD SWAP4 SWAP1 DUP3 ADD SWAP1 PUSH2 0x4903 JUMP JUMPDEST DUP1 DUP4 DUP9 ADD MSTORE POP POP POP POP POP POP SWAP3 SWAP2 POP POP JUMP JUMPDEST PUSH1 0x0 DUP1 PUSH1 0x40 DUP4 DUP6 SUB SLT ISZERO PUSH2 0x4948 JUMPI PUSH1 0x0 DUP1 REVERT JUMPDEST DUP3 CALLDATALOAD PUSH8 0xFFFFFFFFFFFFFFFF DUP1 DUP3 GT ISZERO PUSH2 0x4960 JUMPI PUSH1 0x0 DUP1 REVERT JUMPDEST SWAP1 DUP5 ADD SWAP1 PUSH2 0x1C0 DUP3 DUP8 SUB SLT ISZERO PUSH2 0x4975 JUMPI PUSH1 0x0 DUP1 REVERT JUMPDEST PUSH2 0x497D PUSH2 0x4371 JUMP JUMPDEST PUSH2 0x4987 DUP8 DUP5 PUSH2 0x46ED JUMP JUMPDEST DUP2 MSTORE PUSH2 0x4996 DUP8 PUSH1 0x60 DUP6 ADD PUSH2 0x4752 JUMP JUMPDEST PUSH1 0x20 DUP3 ADD MSTORE PUSH2 0x49A8 DUP8 PUSH1 0xE0 DUP6 ADD PUSH2 0x4796 JUMP JUMPDEST PUSH1 0x40 DUP3 ADD MSTORE PUSH2 0x160 DUP4 ADD CALLDATALOAD DUP3 DUP2 GT ISZERO PUSH2 0x49C0 JUMPI PUSH1 0x0 DUP1 REVERT JUMPDEST PUSH2 0x49CC DUP9 DUP3 DUP7 ADD PUSH2 0x47E1 JUMP JUMPDEST PUSH1 0x60 DUP4 ADD MSTORE POP PUSH2 0x180 DUP4 ADD CALLDATALOAD DUP3 DUP2 GT ISZERO PUSH2 0x49E5 JUMPI PUSH1 0x0 DUP1 REVERT JUMPDEST PUSH2 0x49F1 DUP9 DUP3 DUP7 ADD PUSH2 0x487B JUMP JUMPDEST PUSH1 0x80 DUP4 ADD MSTORE POP PUSH2 0x1A0 DUP4 ADD CALLDATALOAD DUP3 DUP2 GT ISZERO PUSH2 0x4A0A JUMPI PUSH1 0x0 DUP1 REVERT JUMPDEST PUSH2 0x4A16 DUP9 DUP3 DUP7 ADD PUSH2 0x487B JUMP JUMPDEST PUSH1 0xA0 DUP4 ADD MSTORE POP SWAP4 POP PUSH2 0x4A2D SWAP2 POP POP PUSH1 0x20 DUP5 ADD PUSH2 0x441C JUMP JUMPDEST SWAP1 POP SWAP3 POP SWAP3 SWAP1 POP JUMP JUMPDEST PUSH1 0x0 DUP1 PUSH1 0x0 DUP1 PUSH1 0x80 DUP6 DUP8 SUB SLT ISZERO PUSH2 0x4A4C JUMPI PUSH1 0x0 DUP1 REVERT JUMPDEST POP POP DUP3 CALLDATALOAD SWAP5 PUSH1 0x20 DUP5 ADD CALLDATALOAD SWAP5 POP PUSH1 0x40 DUP5 ADD CALLDATALOAD SWAP4 PUSH1 0x60 ADD CALLDATALOAD SWAP3 POP SWAP1 POP JUMP JUMPDEST PUSH32 0x4E487B7100000000000000000000000000000000000000000000000000000000 PUSH1 0x0 MSTORE PUSH1 0x32 PUSH1 0x4 MSTORE PUSH1 0x24 PUSH1 0x0 REVERT JUMPDEST PUSH32 0x4E487B7100000000000000000000000000000000000000000000000000000000 PUSH1 0x0 MSTORE PUSH1 0x11 PUSH1 0x4 MSTORE PUSH1 0x24 PUSH1 0x0 REVERT JUMPDEST PUSH1 0x0 PUSH32 0xFFFFFFFFFFFFFFFFFFFFFFFFFFFFFFFFFFFFFFFFFFFFFFFFFFFFFFFFFFFFFFFF DUP3 SUB PUSH2 0x4AF7 JUMPI PUSH2 0x4AF7 PUSH2 0x4A97 JUMP JUMPDEST POP PUSH1 0x1 ADD SWAP1 JUMP JUMPDEST PUSH1 0x0 JUMPDEST DUP4 DUP2 LT ISZERO PUSH2 0x4B19 JUMPI DUP2 DUP2 ADD MLOAD DUP4 DUP3 ADD MSTORE PUSH1 0x20 ADD PUSH2 0x4B01 JUMP JUMPDEST POP POP PUSH1 0x0 SWAP2 ADD MSTORE JUMP JUMPDEST PUSH1 0x0 DUP2 MLOAD DUP1 DUP5 MSTORE PUSH2 0x4B3A DUP2 PUSH1 0x20 DUP7 ADD PUSH1 0x20 DUP7 ADD PUSH2 0x4AFE JUMP JUMPDEST PUSH1 0x1F ADD PUSH32 0xFFFFFFFFFFFFFFFFFFFFFFFFFFFFFFFFFFFFFFFFFFFFFFFFFFFFFFFFFFFFFFE0 AND SWAP3 SWAP1 SWAP3 ADD PUSH1 0x20 ADD SWAP3 SWAP2 POP POP JUMP JUMPDEST PUSH1 0x1 PUSH1 0x1 PUSH1 0xA0 SHL SUB DUP5 AND DUP2 MSTORE PUSH1 0x60 PUSH1 0x20 DUP3 ADD MSTORE PUSH1 0x0 PUSH2 0x4B8E PUSH1 0x60 DUP4 ADD DUP6 PUSH2 0x4B22 JUMP JUMPDEST SWAP1 POP DUP3 PUSH1 0x40 DUP4 ADD MSTORE SWAP5 SWAP4 POP POP POP POP JUMP JUMPDEST PUSH1 0x0 PUSH1 0x20 DUP3 DUP5 SUB SLT ISZERO PUSH2 0x4BB0 JUMPI PUSH1 0x0 DUP1 REVERT JUMPDEST DUP2 MLOAD PUSH8 0xFFFFFFFFFFFFFFFF DUP1 DUP3 GT ISZERO PUSH2 0x4BC8 JUMPI PUSH1 0x0 DUP1 REVERT JUMPDEST DUP2 DUP5 ADD SWAP2 POP DUP5 PUSH1 0x1F DUP4 ADD SLT PUSH2 0x4BDC JUMPI PUSH1 0x0 DUP1 REVERT JUMPDEST DUP2 MLOAD DUP2 DUP2 GT ISZERO PUSH2 0x4BEE JUMPI PUSH2 0x4BEE PUSH2 0x42F6 JUMP JUMPDEST PUSH2 0x4C1F PUSH1 0x20 PUSH32 0xFFFFFFFFFFFFFFFFFFFFFFFFFFFFFFFFFFFFFFFFFFFFFFFFFFFFFFFFFFFFFFE0 PUSH1 0x1F DUP5 ADD AND ADD PUSH2 0x4394 JUMP JUMPDEST SWAP2 POP DUP1 DUP3 MSTORE DUP6 PUSH1 0x20 DUP3 DUP6 ADD ADD GT ISZERO PUSH2 0x4C36 JUMPI PUSH1 0x0 DUP1 REVERT JUMPDEST PUSH2 0x4C47 DUP2 PUSH1 0x20 DUP5 ADD PUSH1 0x20 DUP7 ADD PUSH2 0x4AFE JUMP JUMPDEST POP SWAP5 SWAP4 POP POP POP POP JUMP JUMPDEST PUSH1 0x0 PUSH1 0x20 DUP3 DUP5 SUB SLT ISZERO PUSH2 0x4C62 JUMPI PUSH1 0x0 DUP1 REVERT JUMPDEST DUP2 MLOAD PUSH2 0x1009 DUP2 PUSH2 0x449B JUMP JUMPDEST PUSH1 0x0 PUSH1 0x20 DUP3 DUP5 SUB SLT ISZERO PUSH2 0x4C7F JUMPI PUSH1 0x0 DUP1 REVERT JUMPDEST POP MLOAD SWAP2 SWAP1 POP JUMP JUMPDEST PUSH1 0x0 DUP2 MLOAD DUP1 DUP5 MSTORE PUSH1 0x20 DUP1 DUP6 ADD SWAP5 POP DUP1 DUP5 ADD PUSH1 0x0 JUMPDEST DUP4 DUP2 LT ISZERO PUSH2 0x4CB6 JUMPI DUP2 MLOAD DUP8 MSTORE SWAP6 DUP3 ADD SWAP6 SWAP1 DUP3 ADD SWAP1 PUSH1 0x1 ADD PUSH2 0x4C9A JUMP JUMPDEST POP SWAP5 SWAP6 SWAP5 POP POP POP POP POP JUMP JUMPDEST PUSH1 0x1 PUSH1 0x1 PUSH1 0xA0 SHL SUB DUP5 AND DUP2 MSTORE PUSH32 0xFFFFFFFF00000000000000000000000000000000000000000000000000000000 DUP4 AND PUSH1 0x20 DUP3 ADD MSTORE PUSH1 0x60 PUSH1 0x40 DUP3 ADD MSTORE PUSH1 0x0 PUSH2 0x3559 PUSH1 0x60 DUP4 ADD DUP5 PUSH2 0x4C86 JUMP JUMPDEST DUP1 DUP3 MUL DUP2 ISZERO DUP3 DUP3 DIV DUP5 EQ OR PUSH2 0xE83 JUMPI PUSH2 0xE83 PUSH2 0x4A97 JUMP JUMPDEST PUSH1 0x0 PUSH1 0x1 PUSH1 0x1 PUSH1 0xA0 SHL SUB DUP1 DUP8 AND DUP4 MSTORE DUP1 DUP7 AND PUSH1 0x20 DUP5 ADD MSTORE POP PUSH32 0xFFFFFFFF00000000000000000000000000000000000000000000000000000000 DUP5 AND PUSH1 0x40 DUP4 ADD MSTORE PUSH1 0x80 PUSH1 0x60 DUP4 ADD MSTORE PUSH2 0x4D76 PUSH1 0x80 DUP4 ADD DUP5 PUSH2 0x4C86 JUMP JUMPDEST SWAP7 SWAP6 POP POP POP POP POP POP JUMP JUMPDEST PUSH32 0x4E487B7100000000000000000000000000000000000000000000000000000000 PUSH1 0x0 MSTORE PUSH1 0x12 PUSH1 0x4 MSTORE PUSH1 0x24 PUSH1 0x0 REVERT JUMPDEST PUSH1 0x0 DUP3 PUSH2 0x4DBE JUMPI PUSH2 0x4DBE PUSH2 0x4D80 JUMP JUMPDEST POP DIV SWAP1 JUMP JUMPDEST DUP1 DUP3 ADD DUP1 DUP3 GT ISZERO PUSH2 0xE83 JUMPI PUSH2 0xE83 PUSH2 0x4A97 JUMP JUMPDEST DUP2 DUP2 SUB DUP2 DUP2 GT ISZERO PUSH2 0xE83 JUMPI PUSH2 0xE83 PUSH2 0x4A97 JUMP JUMPDEST PUSH32 0x4E487B7100000000000000000000000000000000000000000000000000000000 PUSH1 0x0 MSTORE PUSH1 0x31 PUSH1 0x4 MSTORE PUSH1 0x24 PUSH1 0x0 REVERT JUMPDEST PUSH1 0x0 PUSH1 0x20 DUP3 DUP5 SUB SLT ISZERO PUSH2 0x4E2A JUMPI PUSH1 0x0 DUP1 REVERT JUMPDEST DUP2 MLOAD PUSH2 0x1009 DUP2 PUSH2 0x4407 JUMP JUMPDEST PUSH1 0x0 DUP3 PUSH2 0x4E44 JUMPI PUSH2 0x4E44 PUSH2 0x4D80 JUMP JUMPDEST POP MOD SWAP1 JUMP JUMPDEST PUSH1 0x0 PUSH1 0x1 PUSH1 0x1 PUSH1 0xA0 SHL SUB DUP1 DUP7 AND DUP4 MSTORE DUP1 DUP6 AND PUSH1 0x20 DUP5 ADD MSTORE POP PUSH1 0x60 PUSH1 0x40 DUP4 ADD MSTORE PUSH2 0x3559 PUSH1 0x60 DUP4 ADD DUP5 PUSH2 0x4B22 JUMP JUMPDEST DUP2 DUP2 SUB PUSH1 0x0 DUP4 SLT DUP1 ISZERO DUP4 DUP4 SGT AND DUP4 DUP4 SLT DUP3 AND OR ISZERO PUSH2 0x2606 JUMPI PUSH2 0x2606 PUSH2 0x4A97 JUMP JUMPDEST PUSH1 0x0 DUP3 PUSH2 0x4EA4 JUMPI PUSH2 0x4EA4 PUSH2 0x4D80 JUMP JUMPDEST PUSH32 0xFFFFFFFFFFFFFFFFFFFFFFFFFFFFFFFFFFFFFFFFFFFFFFFFFFFFFFFFFFFFFFFF DUP4 EQ PUSH32 0x8000000000000000000000000000000000000000000000000000000000000000 DUP4 EQ AND ISZERO PUSH2 0x4EF8 JUMPI PUSH2 0x4EF8 PUSH2 0x4A97 JUMP JUMPDEST POP SDIV SWAP1 JUMP JUMPDEST DUP1 DUP3 ADD DUP3 DUP2 SLT PUSH1 0x0 DUP4 SLT DUP1 ISZERO DUP3 AND DUP3 ISZERO DUP3 AND OR ISZERO PUSH2 0x4F1D JUMPI PUSH2 0x4F1D PUSH2 0x4A97 JUMP JUMPDEST POP POP SWAP3 SWAP2 POP POP JUMP JUMPDEST DUP1 DUP3 MUL PUSH1 0x0 DUP3 SLT PUSH32 0x8000000000000000000000000000000000000000000000000000000000000000 DUP5 EQ AND ISZERO PUSH2 0x4F5D JUMPI PUSH2 0x4F5D PUSH2 0x4A97 JUMP JUMPDEST DUP2 DUP2 SDIV DUP4 EQ DUP3 ISZERO OR PUSH2 0xE83 JUMPI PUSH2 0xE83 PUSH2 0x4A97 JUMP INVALID LOG2 PUSH5 0x6970667358 0x22 SLT KECCAK256 SWAP11 PUSH30 0xC7D4149F9B6620DE50EB26DD07D350A45FAADE78EBFEDB30DAFC0267A3A1 PUSH5 0x736F6C6343 STOP ADDMOD GT STOP CALLER "},"methodIdentifiers":{"EXECUTION_TYPE()":"4a45a3a8","authorizer()":"d09edf31","call(address,uint256)":"3bd9ef28","customTokenThreshold(address)":"a5900c4d","customVolumeLimit(address)":"221a8c68","defaultTokenThreshold()":"a3374177","defaultVolumeLimit()":"6aacaad8","feeClaimer()":"81cbd3ea","getBalanceConnectors()":"5670e2ce","getGasLimits()":"5ea54eee","getTaskAmount(address)":"a0c3774f","getTimeLock()":"119a5e96","getTokenThreshold(address)":"51a424b1","getTokensSource()":"c267621e","getVolumeLimit(address)":"d45a76cf","initializeParaswapClaimer(((address,bytes32,bytes32),(uint256,uint256,uint256,uint256),(uint8,uint256,uint256,uint256),(uint8,address[]),((address,uint256,uint256),(address,(address,uint256,uint256))[]),((address,uint256,uint256),(address,(address,uint256,uint256))[])),address)":"9447cc1b","isPaused()":"b187bd26","isTokenAllowed(address)":"f9eaee0d","pause()":"8456cb59","setBalanceConnectors(bytes32,bytes32)":"7125590a","setCustomTokenThreshold(address,address,uint256,uint256)":"2384c32d","setCustomVolumeLimit(address,address,uint256,uint256)":"423a4b40","setDefaultTokenThreshold(address,uint256,uint256)":"d3feb602","setDefaultVolumeLimit(address,uint256,uint256)":"90333ba8","setFeeClaimer(address)":"c3accd48","setGasLimits(uint256,uint256,uint256,uint256)":"e6b5be98","setTimeLock(uint8,uint256,uint256,uint256)":"0fe105e8","setTokensAcceptanceList(address[],bool[])":"21972384","setTokensAcceptanceType(uint8)":"30eae572","smartVault()":"4fd49efd","tokensAcceptanceType()":"42d4693e","unpause()":"3f4ba83a"}}}}}