{"contracts/RainbowClaimer.sol":{"RainbowClaimer":{"abi":[{"inputs":[{"internalType":"address","name":"who","type":"address"},{"internalType":"bytes4","name":"what","type":"bytes4"},{"internalType":"uint256[]","name":"how","type":"uint256[]"}],"name":"AuthSenderNotAllowed","type":"error"},{"inputs":[{"internalType":"uint256","name":"a","type":"uint256"},{"internalType":"uint256","name":"aInflated","type":"uint256"}],"name":"FixedPointDivInternal","type":"error"},{"inputs":[{"internalType":"uint256","name":"a","type":"uint256"},{"internalType":"uint256","name":"b","type":"uint256"}],"name":"FixedPointMulOverflow","type":"error"},{"inputs":[],"name":"FixedPointZeroDivision","type":"error"},{"inputs":[],"name":"TaskAcceptanceInputLengthMismatch","type":"error"},{"inputs":[],"name":"TaskAcceptanceTokenZero","type":"error"},{"inputs":[],"name":"TaskAmountZero","type":"error"},{"inputs":[],"name":"TaskFeeCollectorZero","type":"error"},{"inputs":[],"name":"TaskGasNotInitialized","type":"error"},{"inputs":[{"internalType":"uint256","name":"gasPrice","type":"uint256"},{"internalType":"uint256","name":"gasPriceLimit","type":"uint256"}],"name":"TaskGasPriceLimitExceeded","type":"error"},{"inputs":[{"internalType":"uint8","name":"mode","type":"uint8"},{"internalType":"uint256","name":"date","type":"uint256"}],"name":"TaskInvalidAllowedDate","type":"error"},{"inputs":[{"internalType":"uint8","name":"mode","type":"uint8"},{"internalType":"uint256","name":"window","type":"uint256"}],"name":"TaskInvalidAllowedWindow","type":"error"},{"inputs":[{"internalType":"uint8","name":"mode","type":"uint8"},{"internalType":"uint256","name":"frequency","type":"uint256"}],"name":"TaskInvalidFrequency","type":"error"},{"inputs":[{"internalType":"uint8","name":"mode","type":"uint8"}],"name":"TaskInvalidFrequencyMode","type":"error"},{"inputs":[{"internalType":"address","name":"token","type":"address"},{"internalType":"uint256","name":"min","type":"uint256"},{"internalType":"uint256","name":"max","type":"uint256"}],"name":"TaskInvalidThresholdInput","type":"error"},{"inputs":[{"internalType":"address","name":"token","type":"address"},{"internalType":"uint256","name":"amount","type":"uint256"},{"internalType":"uint256","name":"period","type":"uint256"}],"name":"TaskInvalidVolumeLimitInput","type":"error"},{"inputs":[],"name":"TaskPaused","type":"error"},{"inputs":[{"internalType":"bytes32","name":"id","type":"bytes32"}],"name":"TaskPreviousConnectorNotZero","type":"error"},{"inputs":[{"internalType":"uint256","name":"priorityFee","type":"uint256"},{"internalType":"uint256","name":"priorityFeeLimit","type":"uint256"}],"name":"TaskPriorityFeeLimitExceeded","type":"error"},{"inputs":[],"name":"TaskRainbowRouterZero","type":"error"},{"inputs":[{"internalType":"bytes32","name":"connectorId","type":"bytes32"}],"name":"TaskSameBalanceConnectors","type":"error"},{"inputs":[{"internalType":"address","name":"smartVault","type":"address"}],"name":"TaskSmartVaultPriceOracleNotSet","type":"error"},{"inputs":[],"name":"TaskThresholdTokenZero","type":"error"},{"inputs":[{"internalType":"uint256","name":"currentTimestamp","type":"uint256"},{"internalType":"uint256","name":"expiration","type":"uint256"}],"name":"TaskTimeLockActive","type":"error"},{"inputs":[{"internalType":"address","name":"token","type":"address"}],"name":"TaskTokenNotAllowed","type":"error"},{"inputs":[{"internalType":"address","name":"token","type":"address"},{"internalType":"uint256","name":"amount","type":"uint256"},{"internalType":"uint256","name":"min","type":"uint256"},{"internalType":"uint256","name":"max","type":"uint256"}],"name":"TaskTokenThresholdNotMet","type":"error"},{"inputs":[],"name":"TaskTokenZero","type":"error"},{"inputs":[{"internalType":"uint256","name":"txCost","type":"uint256"},{"internalType":"uint256","name":"txCostLimit","type":"uint256"}],"name":"TaskTxCostLimitExceeded","type":"error"},{"inputs":[],"name":"TaskTxCostLimitPctAboveOne","type":"error"},{"inputs":[{"internalType":"uint256","name":"txCostPct","type":"uint256"},{"internalType":"uint256","name":"txCostLimitPct","type":"uint256"}],"name":"TaskTxCostLimitPctExceeded","type":"error"},{"inputs":[],"name":"TaskUnpaused","type":"error"},{"inputs":[{"internalType":"address","name":"token","type":"address"},{"internalType":"uint256","name":"limit","type":"uint256"},{"internalType":"uint256","name":"volume","type":"uint256"}],"name":"TaskVolumeLimitExceeded","type":"error"},{"inputs":[],"name":"TaskVolumeLimitTokenZero","type":"error"},{"anonymous":false,"inputs":[{"indexed":true,"internalType":"bytes32","name":"previous","type":"bytes32"},{"indexed":true,"internalType":"bytes32","name":"next","type":"bytes32"}],"name":"BalanceConnectorsSet","type":"event"},{"anonymous":false,"inputs":[{"indexed":true,"internalType":"address","name":"token","type":"address"},{"indexed":false,"internalType":"address","name":"thresholdToken","type":"address"},{"indexed":false,"internalType":"uint256","name":"min","type":"uint256"},{"indexed":false,"internalType":"uint256","name":"max","type":"uint256"}],"name":"CustomTokenThresholdSet","type":"event"},{"anonymous":false,"inputs":[{"indexed":true,"internalType":"address","name":"token","type":"address"},{"indexed":true,"internalType":"address","name":"limitToken","type":"address"},{"indexed":false,"internalType":"uint256","name":"amount","type":"uint256"},{"indexed":false,"internalType":"uint256","name":"period","type":"uint256"}],"name":"CustomVolumeLimitSet","type":"event"},{"anonymous":false,"inputs":[{"indexed":false,"internalType":"address","name":"token","type":"address"},{"indexed":false,"internalType":"uint256","name":"min","type":"uint256"},{"indexed":false,"internalType":"uint256","name":"max","type":"uint256"}],"name":"DefaultTokenThresholdSet","type":"event"},{"anonymous":false,"inputs":[{"indexed":true,"internalType":"address","name":"limitToken","type":"address"},{"indexed":false,"internalType":"uint256","name":"amount","type":"uint256"},{"indexed":false,"internalType":"uint256","name":"period","type":"uint256"}],"name":"DefaultVolumeLimitSet","type":"event"},{"anonymous":false,"inputs":[],"name":"Executed","type":"event"},{"anonymous":false,"inputs":[{"indexed":true,"internalType":"address","name":"feeCollector","type":"address"}],"name":"FeeCollectorSet","type":"event"},{"anonymous":false,"inputs":[{"indexed":false,"internalType":"uint256","name":"gasPriceLimit","type":"uint256"},{"indexed":false,"internalType":"uint256","name":"priorityFeeLimit","type":"uint256"},{"indexed":false,"internalType":"uint256","name":"txCostLimit","type":"uint256"},{"indexed":false,"internalType":"uint256","name":"txCostLimitPct","type":"uint256"}],"name":"GasLimitsSet","type":"event"},{"anonymous":false,"inputs":[{"indexed":false,"internalType":"uint8","name":"version","type":"uint8"}],"name":"Initialized","type":"event"},{"anonymous":false,"inputs":[],"name":"Paused","type":"event"},{"anonymous":false,"inputs":[{"indexed":true,"internalType":"address","name":"rainbowRouter","type":"address"}],"name":"RainbowRouterSet","type":"event"},{"anonymous":false,"inputs":[{"indexed":false,"internalType":"uint256","name":"allowedAt","type":"uint256"}],"name":"TimeLockAllowedAtSet","type":"event"},{"anonymous":false,"inputs":[{"indexed":false,"internalType":"uint8","name":"mode","type":"uint8"},{"indexed":false,"internalType":"uint256","name":"frequency","type":"uint256"},{"indexed":false,"internalType":"uint256","name":"allowedAt","type":"uint256"},{"indexed":false,"internalType":"uint256","name":"window","type":"uint256"}],"name":"TimeLockSet","type":"event"},{"anonymous":false,"inputs":[{"indexed":true,"internalType":"address","name":"token","type":"address"},{"indexed":false,"internalType":"bool","name":"added","type":"bool"}],"name":"TokensAcceptanceListSet","type":"event"},{"anonymous":false,"inputs":[{"indexed":false,"internalType":"enum ITokenIndexedTask.TokensAcceptanceType","name":"acceptanceType","type":"uint8"}],"name":"TokensAcceptanceTypeSet","type":"event"},{"anonymous":false,"inputs":[],"name":"Unpaused","type":"event"},{"inputs":[],"name":"EXECUTION_TYPE","outputs":[{"internalType":"bytes32","name":"","type":"bytes32"}],"stateMutability":"view","type":"function"},{"inputs":[],"name":"authorizer","outputs":[{"internalType":"address","name":"","type":"address"}],"stateMutability":"view","type":"function"},{"inputs":[{"internalType":"address","name":"token","type":"address"},{"internalType":"uint256","name":"amount","type":"uint256"}],"name":"call","outputs":[],"stateMutability":"nonpayable","type":"function"},{"inputs":[{"internalType":"address","name":"token","type":"address"}],"name":"customTokenThreshold","outputs":[{"internalType":"address","name":"thresholdToken","type":"address"},{"internalType":"uint256","name":"min","type":"uint256"},{"internalType":"uint256","name":"max","type":"uint256"}],"stateMutability":"view","type":"function"},{"inputs":[{"internalType":"address","name":"token","type":"address"}],"name":"customVolumeLimit","outputs":[{"internalType":"address","name":"limitToken","type":"address"},{"internalType":"uint256","name":"amount","type":"uint256"},{"internalType":"uint256","name":"accrued","type":"uint256"},{"internalType":"uint256","name":"period","type":"uint256"},{"internalType":"uint256","name":"nextResetTime","type":"uint256"}],"stateMutability":"view","type":"function"},{"inputs":[],"name":"defaultTokenThreshold","outputs":[{"internalType":"address","name":"thresholdToken","type":"address"},{"internalType":"uint256","name":"min","type":"uint256"},{"internalType":"uint256","name":"max","type":"uint256"}],"stateMutability":"view","type":"function"},{"inputs":[],"name":"defaultVolumeLimit","outputs":[{"internalType":"address","name":"limitToken","type":"address"},{"internalType":"uint256","name":"amount","type":"uint256"},{"internalType":"uint256","name":"accrued","type":"uint256"},{"internalType":"uint256","name":"period","type":"uint256"},{"internalType":"uint256","name":"nextResetTime","type":"uint256"}],"stateMutability":"view","type":"function"},{"inputs":[],"name":"feeCollector","outputs":[{"internalType":"address","name":"","type":"address"}],"stateMutability":"view","type":"function"},{"inputs":[],"name":"getBalanceConnectors","outputs":[{"internalType":"bytes32","name":"previous","type":"bytes32"},{"internalType":"bytes32","name":"next","type":"bytes32"}],"stateMutability":"view","type":"function"},{"inputs":[],"name":"getGasLimits","outputs":[{"internalType":"uint256","name":"gasPriceLimit","type":"uint256"},{"internalType":"uint256","name":"priorityFeeLimit","type":"uint256"},{"internalType":"uint256","name":"txCostLimit","type":"uint256"},{"internalType":"uint256","name":"txCostLimitPct","type":"uint256"}],"stateMutability":"view","type":"function"},{"inputs":[{"internalType":"address","name":"token","type":"address"}],"name":"getTaskAmount","outputs":[{"internalType":"uint256","name":"","type":"uint256"}],"stateMutability":"view","type":"function"},{"inputs":[],"name":"getTimeLock","outputs":[{"internalType":"uint8","name":"mode","type":"uint8"},{"internalType":"uint256","name":"frequency","type":"uint256"},{"internalType":"uint256","name":"allowedAt","type":"uint256"},{"internalType":"uint256","name":"window","type":"uint256"}],"stateMutability":"view","type":"function"},{"inputs":[{"internalType":"address","name":"token","type":"address"}],"name":"getTokenThreshold","outputs":[{"internalType":"address","name":"thresholdToken","type":"address"},{"internalType":"uint256","name":"min","type":"uint256"},{"internalType":"uint256","name":"max","type":"uint256"}],"stateMutability":"view","type":"function"},{"inputs":[],"name":"getTokensSource","outputs":[{"internalType":"address","name":"","type":"address"}],"stateMutability":"view","type":"function"},{"inputs":[{"internalType":"address","name":"token","type":"address"}],"name":"getVolumeLimit","outputs":[{"internalType":"address","name":"limitToken","type":"address"},{"internalType":"uint256","name":"amount","type":"uint256"},{"internalType":"uint256","name":"accrued","type":"uint256"},{"internalType":"uint256","name":"period","type":"uint256"},{"internalType":"uint256","name":"nextResetTime","type":"uint256"}],"stateMutability":"view","type":"function"},{"inputs":[{"components":[{"components":[{"internalType":"address","name":"smartVault","type":"address"},{"internalType":"bytes32","name":"previousBalanceConnectorId","type":"bytes32"},{"internalType":"bytes32","name":"nextBalanceConnectorId","type":"bytes32"}],"internalType":"struct BaseTask.BaseConfig","name":"baseConfig","type":"tuple"},{"components":[{"internalType":"uint256","name":"gasPriceLimit","type":"uint256"},{"internalType":"uint256","name":"priorityFeeLimit","type":"uint256"},{"internalType":"uint256","name":"txCostLimit","type":"uint256"},{"internalType":"uint256","name":"txCostLimitPct","type":"uint256"}],"internalType":"struct GasLimitedTask.GasLimitConfig","name":"gasLimitConfig","type":"tuple"},{"components":[{"internalType":"uint8","name":"mode","type":"uint8"},{"internalType":"uint256","name":"frequency","type":"uint256"},{"internalType":"uint256","name":"allowedAt","type":"uint256"},{"internalType":"uint256","name":"window","type":"uint256"}],"internalType":"struct TimeLockedTask.TimeLockConfig","name":"timeLockConfig","type":"tuple"},{"components":[{"internalType":"enum ITokenIndexedTask.TokensAcceptanceType","name":"acceptanceType","type":"uint8"},{"internalType":"address[]","name":"tokens","type":"address[]"}],"internalType":"struct TokenIndexedTask.TokenIndexConfig","name":"tokenIndexConfig","type":"tuple"},{"components":[{"components":[{"internalType":"address","name":"token","type":"address"},{"internalType":"uint256","name":"min","type":"uint256"},{"internalType":"uint256","name":"max","type":"uint256"}],"internalType":"struct TokenThresholdTask.Threshold","name":"defaultThreshold","type":"tuple"},{"components":[{"internalType":"address","name":"token","type":"address"},{"components":[{"internalType":"address","name":"token","type":"address"},{"internalType":"uint256","name":"min","type":"uint256"},{"internalType":"uint256","name":"max","type":"uint256"}],"internalType":"struct TokenThresholdTask.Threshold","name":"threshold","type":"tuple"}],"internalType":"struct TokenThresholdTask.CustomThresholdConfig[]","name":"customThresholdConfigs","type":"tuple[]"}],"internalType":"struct TokenThresholdTask.TokenThresholdConfig","name":"tokenThresholdConfig","type":"tuple"},{"components":[{"components":[{"internalType":"address","name":"token","type":"address"},{"internalType":"uint256","name":"amount","type":"uint256"},{"internalType":"uint256","name":"period","type":"uint256"}],"internalType":"struct VolumeLimitedTask.VolumeLimitParams","name":"defaultVolumeLimit","type":"tuple"},{"components":[{"internalType":"address","name":"token","type":"address"},{"components":[{"internalType":"address","name":"token","type":"address"},{"internalType":"uint256","name":"amount","type":"uint256"},{"internalType":"uint256","name":"period","type":"uint256"}],"internalType":"struct VolumeLimitedTask.VolumeLimitParams","name":"volumeLimit","type":"tuple"}],"internalType":"struct VolumeLimitedTask.CustomVolumeLimitConfig[]","name":"customVolumeLimitConfigs","type":"tuple[]"}],"internalType":"struct VolumeLimitedTask.VolumeLimitConfig","name":"volumeLimitConfig","type":"tuple"}],"internalType":"struct Task.TaskConfig","name":"config","type":"tuple"},{"internalType":"address","name":"collector","type":"address"},{"internalType":"address","name":"_rainbowRouter","type":"address"}],"name":"initializeRainbowClaimer","outputs":[],"stateMutability":"nonpayable","type":"function"},{"inputs":[],"name":"isPaused","outputs":[{"internalType":"bool","name":"","type":"bool"}],"stateMutability":"view","type":"function"},{"inputs":[{"internalType":"address","name":"token","type":"address"}],"name":"isTokenAllowed","outputs":[{"internalType":"bool","name":"","type":"bool"}],"stateMutability":"view","type":"function"},{"inputs":[],"name":"pause","outputs":[],"stateMutability":"nonpayable","type":"function"},{"inputs":[],"name":"rainbowRouter","outputs":[{"internalType":"address","name":"","type":"address"}],"stateMutability":"view","type":"function"},{"inputs":[{"internalType":"bytes32","name":"previous","type":"bytes32"},{"internalType":"bytes32","name":"next","type":"bytes32"}],"name":"setBalanceConnectors","outputs":[],"stateMutability":"nonpayable","type":"function"},{"inputs":[{"internalType":"address","name":"token","type":"address"},{"internalType":"address","name":"thresholdToken","type":"address"},{"internalType":"uint256","name":"min","type":"uint256"},{"internalType":"uint256","name":"max","type":"uint256"}],"name":"setCustomTokenThreshold","outputs":[],"stateMutability":"nonpayable","type":"function"},{"inputs":[{"internalType":"address","name":"token","type":"address"},{"internalType":"address","name":"limitToken","type":"address"},{"internalType":"uint256","name":"limitAmount","type":"uint256"},{"internalType":"uint256","name":"limitPeriod","type":"uint256"}],"name":"setCustomVolumeLimit","outputs":[],"stateMutability":"nonpayable","type":"function"},{"inputs":[{"internalType":"address","name":"thresholdToken","type":"address"},{"internalType":"uint256","name":"min","type":"uint256"},{"internalType":"uint256","name":"max","type":"uint256"}],"name":"setDefaultTokenThreshold","outputs":[],"stateMutability":"nonpayable","type":"function"},{"inputs":[{"internalType":"address","name":"limitToken","type":"address"},{"internalType":"uint256","name":"limitAmount","type":"uint256"},{"internalType":"uint256","name":"limitPeriod","type":"uint256"}],"name":"setDefaultVolumeLimit","outputs":[],"stateMutability":"nonpayable","type":"function"},{"inputs":[{"internalType":"address","name":"newFeeCollector","type":"address"}],"name":"setFeeCollector","outputs":[],"stateMutability":"nonpayable","type":"function"},{"inputs":[{"internalType":"uint256","name":"newGasPriceLimit","type":"uint256"},{"internalType":"uint256","name":"newPriorityFeeLimit","type":"uint256"},{"internalType":"uint256","name":"newTxCostLimit","type":"uint256"},{"internalType":"uint256","name":"newTxCostLimitPct","type":"uint256"}],"name":"setGasLimits","outputs":[],"stateMutability":"nonpayable","type":"function"},{"inputs":[{"internalType":"address","name":"newRainbowRouter","type":"address"}],"name":"setRainbowRouter","outputs":[],"stateMutability":"nonpayable","type":"function"},{"inputs":[{"internalType":"uint8","name":"mode","type":"uint8"},{"internalType":"uint256","name":"frequency","type":"uint256"},{"internalType":"uint256","name":"allowedAt","type":"uint256"},{"internalType":"uint256","name":"window","type":"uint256"}],"name":"setTimeLock","outputs":[],"stateMutability":"nonpayable","type":"function"},{"inputs":[{"internalType":"address[]","name":"tokens","type":"address[]"},{"internalType":"bool[]","name":"added","type":"bool[]"}],"name":"setTokensAcceptanceList","outputs":[],"stateMutability":"nonpayable","type":"function"},{"inputs":[{"internalType":"enum ITokenIndexedTask.TokensAcceptanceType","name":"newTokensAcceptanceType","type":"uint8"}],"name":"setTokensAcceptanceType","outputs":[],"stateMutability":"nonpayable","type":"function"},{"inputs":[],"name":"smartVault","outputs":[{"internalType":"address","name":"","type":"address"}],"stateMutability":"view","type":"function"},{"inputs":[],"name":"tokensAcceptanceType","outputs":[{"internalType":"enum ITokenIndexedTask.TokensAcceptanceType","name":"","type":"uint8"}],"stateMutability":"view","type":"function"},{"inputs":[],"name":"unpause","outputs":[],"stateMutability":"nonpayable","type":"function"}],"evm":{"bytecode":{"linkReferences":{},"object":"60806040523480156200001157600080fd5b506200001c62000022565b620000e4565b600054610100900460ff16156200008f5760405162461bcd60e51b815260206004820152602760248201527f496e697469616c697a61626c653a20636f6e747261637420697320696e697469604482015266616c697a696e6760c81b606482015260840160405180910390fd5b60005460ff9081161015620000e2576000805460ff191660ff9081179091556040519081527f7f26b83ff96e1f2b6a682f133852f6798a09c465da95921460cefb38474024989060200160405180910390a15b565b6151bf80620000f46000396000f3fe608060405234801561001057600080fd5b50600436106102265760003560e01c80637125590a1161012a578063c0ba40ae116100bd578063d09edf311161008c578063d45a76cf11610071578063d45a76cf14610648578063e6b5be981461065b578063f9eaee0d1461066e57600080fd5b8063d09edf311461061c578063d3feb6021461063557600080fd5b8063c0ba40ae146105d2578063c267621e146105e5578063c415b95c146105f6578063ca4fbbcb1461060957600080fd5b8063a3374177116100f9578063a337417714610515578063a42dce8014610548578063a5900c4d1461055b578063b187bd26146105b557600080fd5b80637125590a146104d45780638456cb59146104e757806390333ba8146104ef578063a0c3774f1461050257600080fd5b8063423a4b40116101bd57806351a424b11161018c5780635ea54eee116101715780635ea54eee1461044957806360174e3f146104755780636aacaad81461048857600080fd5b806351a424b1146103f65780635670e2ce1461042e57600080fd5b8063423a4b401461036957806342d4693e1461037c5780634a45a3a8146103965780634fd49efd146103cb57600080fd5b80632384c32d116101f95780632384c32d1461032857806330eae5721461033b5780633bd9ef281461034e5780633f4ba83a1461036157600080fd5b80630fe105e81461022b578063119a5e96146102405780632197238414610271578063221a8c6814610284575b600080fd5b61023e61023936600461441c565b610681565b005b6102486106d2565b6040805160ff909516855260208501939093529183015260608201526080015b60405180910390f35b61023e61027f366004614608565b610709565b6102f66102923660046146cc565b6001600160a01b039081166000908152601b6020908152604091829020825160a08101845281549094168085526001820154928501839052600282015493850184905260038201546060860181905260049092015460809095018590529491939091565b604080516001600160a01b0390961686526020860194909452928401919091526060830152608082015260a001610268565b61023e6103363660046146e9565b6107d1565b61023e61034936600461473e565b610818565b61023e61035c366004614759565b610871565b61023e61097b565b61023e6103773660046146e9565b610a38565b600f546103899060ff1681565b60405161026891906147b4565b6103bd7fe3a66ba87fa0586ec03dd8dbfaf7586981229809ca0f0959e82c4c9531f6e5b181565b604051908152602001610268565b6001546103de906001600160a01b031681565b6040516001600160a01b039091168152602001610268565b6104096104043660046146cc565b610a7f565b604080516001600160a01b039094168452602084019290925290820152606001610268565b60025460035460408051928352602083019190915201610268565b600654600754600854600954604080519485526020850193909352918301526060820152608001610268565b61023e610483366004614ae6565b610aa8565b6102f66040805160a0810182526016546001600160a01b03168082526017546020830181905260185493830184905260195460608401819052601a546080909401849052919490939290565b61023e6104e2366004614bf7565b610c2c565b61023e610c6f565b61023e6104fd366004614c19565b610d30565b6103bd6105103660046146cc565b610d75565b610409604080516060810182526012546001600160a01b0316808252601354602083018190526014549290930182905292565b61023e6105563660046146cc565b610d95565b6104096105693660046146cc565b6001600160a01b03808216600090815260156020908152604091829020825160608101845281549094168085526001820154928501839052600290910154939092018390529093909250565b6004546105c29060ff1681565b6040519015158152602001610268565b61023e6105e03660046146cc565b610dd6565b601d546001600160a01b03166103de565b601c546103de906001600160a01b031681565b601d546103de906001600160a01b031681565b6000546103de906201000090046001600160a01b031681565b61023e610643366004614c19565b610e17565b6102f66106563660046146cc565b610e5c565b61023e610669366004614c4e565b610ecb565b6105c261067c3660046146cc565b610f12565b6106908460ff16848484610f50565b6106bf336000357fffffffff000000000000000000000000000000000000000000000000000000001683610ffb565b6106cb85858585611042565b5050505050565b600a5460009081908190819060ff1660028111156106f2576106f2614785565b600b54600c54600e54935093509350935090919293565b610737336000357fffffffff00000000000000000000000000000000000000000000000000000000166113ff565b8051825114610772576040517f5d32021a00000000000000000000000000000000000000000000000000000000815260040160405180910390fd5b60005b82518110156107cc576107ba83828151811061079357610793614c80565b60200260200101518383815181106107ad576107ad614c80565b602002602001015161141b565b806107c481614cde565b915050610775565b505050565b6107dd848484846114c5565b61080c336000357fffffffff000000000000000000000000000000000000000000000000000000001683610ffb565b6106cb8585858561152e565b61083581600181111561082d5761082d614785565b60ff166115e7565b610864336000357fffffffff000000000000000000000000000000000000000000000000000000001683610ffb565b61086d8261162e565b5050565b61087b82826116a9565b6108aa336000357fffffffff000000000000000000000000000000000000000000000000000000001683610ffb565b816000036108be576108bb83610d75565b91505b6108c88383611718565b600154601c546001600160a01b0391821691634ae0004191166108eb868661179c565b60006040518463ffffffff1660e01b815260040161090b93929190614d84565b6000604051808303816000875af115801561092a573d6000803e3d6000fd5b505050506040513d6000823e601f3d9081017fffffffffffffffffffffffffffffffffffffffffffffffffffffffffffffffe01682016040526109709190810190614db6565b506107cc83836118a6565b6109a9336000357fffffffff00000000000000000000000000000000000000000000000000000000166113ff565b60045460ff166109e5576040517f9e6558bd00000000000000000000000000000000000000000000000000000000815260040160405180910390fd5b600480547fffffffffffffffffffffffffffffffffffffffffffffffffffffffffffffff001690556040517fa45f47fdea8a1efdd9029a5691c7f759c32b7c698632b563573e155625d1693390600090a1565b610a44848484846114c5565b610a73336000357fffffffff000000000000000000000000000000000000000000000000000000001683610ffb565b6106cb858585856118b0565b600080600080610a8e85611970565b805160208201516040909201519097919650945092505050565b600054610100900460ff1615808015610ac85750600054600160ff909116105b80610ae25750303b158015610ae2575060005460ff166001145b610b595760405162461bcd60e51b815260206004820152602e60248201527f496e697469616c697a61626c653a20636f6e747261637420697320616c72656160448201527f647920696e697469616c697a656400000000000000000000000000000000000060648201526084015b60405180910390fd5b600080547fffffffffffffffffffffffffffffffffffffffffffffffffffffffffffffff001660011790558015610bb757600080547fffffffffffffffffffffffffffffffffffffffffffffffffffffffffffff00ff166101001790555b610bc28484846119fb565b8015610c2657600080547fffffffffffffffffffffffffffffffffffffffffffffffffffffffffffff00ff169055604051600181527f7f26b83ff96e1f2b6a682f133852f6798a09c465da95921460cefb3847402498906020015b60405180910390a15b50505050565b610c368282611a7a565b610c65336000357fffffffff000000000000000000000000000000000000000000000000000000001683610ffb565b6107cc8383611ad4565b610c9d336000357fffffffff00000000000000000000000000000000000000000000000000000000166113ff565b60045460ff1615610cda576040517fc0f2312800000000000000000000000000000000000000000000000000000000815260040160405180910390fd5b600480547fffffffffffffffffffffffffffffffffffffffffffffffffffffffffffffff001660011790556040517f9e87fac88ff661f02d44f95383c817fece4bce600a3dab7a54406878b965e75290600090a1565b610d3b838383611b19565b610d6a336000357fffffffff000000000000000000000000000000000000000000000000000000001683610ffb565b610c26848484611bab565b601d54600090610d8f9083906001600160a01b0316611c01565b92915050565b610d9e81611cc2565b610dcd336000357fffffffff000000000000000000000000000000000000000000000000000000001683610ffb565b61086d82611cd6565b610ddf81611cc2565b610e0e336000357fffffffff000000000000000000000000000000000000000000000000000000001683610ffb565b61086d82611d78565b610e22838383611b19565b610e51336000357fffffffff000000000000000000000000000000000000000000000000000000001683610ffb565b610c26848484611e1a565b600080600080600080610e6e87611e76565b6040805160a08101825282546001600160a01b031680825260018401546020830181905260028501549383018490526003850154606084018190526004909501546080909301839052909b909a5091985091965090945092505050565b610ed784848484610f50565b610f06336000357fffffffff000000000000000000000000000000000000000000000000000000001683610ffb565b6106cb85858585611eaa565b600080610f20601084611f45565b90506001600f5460ff166001811115610f3b57610f3b614785565b14610f47578015610f49565b805b9392505050565b60408051600480825260a08201909252606091602082016080803683370190505090508481600081518110610f8757610f87614c80565b6020026020010181815250508381600181518110610fa757610fa7614c80565b6020026020010181815250508281600281518110610fc757610fc7614c80565b6020026020010181815250508181600381518110610fe757610fe7614c80565b602002602001018181525050949350505050565b611006838383611f67565b6107cc578282826040517f960c80da000000000000000000000000000000000000000000000000000000008152600401610b5093929190614ea3565b60ff841661113e5760008111806110595750600082115b1561113957826000036110a4576040517fbea499cb00000000000000000000000000000000000000000000000000000000815260ff8516600482015260248101849052604401610b50565b8015806110b057508281115b156110f3576040517f9e12fccf00000000000000000000000000000000000000000000000000000000815260ff8516600482015260248101829052604401610b50565b81600003611139576040517fad0d7eb200000000000000000000000000000000000000000000000000000000815260ff8516600482015260248101839052604401610b50565b611354565b82600003611184576040517fbea499cb00000000000000000000000000000000000000000000000000000000815260ff8516600482015260248101849052604401610b50565b80158061119c57506111996224ea0084614eed565b81115b156111df576040517f9e12fccf00000000000000000000000000000000000000000000000000000000815260ff8516600482015260248101829052604401610b50565b81600003611225576040517fad0d7eb200000000000000000000000000000000000000000000000000000000815260ff8516600482015260248101839052604401610b50565b7fffffffffffffffffffffffffffffffffffffffffffffffffffffffffffffffff60ff85160161129e57601c61125a83612005565b1115611139576040517fad0d7eb200000000000000000000000000000000000000000000000000000000815260ff8516600482015260248101839052604401610b50565b7ffffffffffffffffffffffffffffffffffffffffffffffffffffffffffffffffe60ff85160161131d576112d18261201c565b6112da83612005565b14611139576040517fad0d7eb200000000000000000000000000000000000000000000000000000000815260ff8516600482015260248101839052604401610b50565b6040517f33a738bc00000000000000000000000000000000000000000000000000000000815260ff85166004820152602401610b50565b8360ff16600281111561136957611369614785565b600a80547fffffffffffffffffffffffffffffffffffffffffffffffffffffffffffffff001660018360028111156113a3576113a3614785565b0217905550600b839055600c829055600e8190556040805160ff8616815260208101859052908101839052606081018290527f182fd6fa2a8560221614c1396dd4fcc78d26dfacf821a6afb61d25876057e41290608001610c1d565b60408051600081526020810190915261086d9083908390610ffb565b6001600160a01b03821661145b576040517fc41a13ec00000000000000000000000000000000000000000000000000000000815260040160405180910390fd5b806114705761146b60108361203f565b61147b565b61147b601083612054565b50816001600160a01b03167f6264362e9de26efefda321dfaeb4e4a9090deef40c5435fad8e9e2e306889a1c826040516114b9911515815260200190565b60405180910390a25050565b60408051600480825260a0820190925260609160208201608080368337019050509050846001600160a01b03168160008151811061150557611505614c80565b602002602001018181525050836001600160a01b031681600181518110610fa757610fa7614c80565b6001600160a01b03841661156e576040517fe7ba3e4a00000000000000000000000000000000000000000000000000000000815260040160405180910390fd5b6001600160a01b038416600090815260156020526040902061159290848484612069565b604080516001600160a01b03858116825260208201859052918101839052908516907ff099617c054d3a65e02a9c3b786f23cc03d5982bc7cfae84dff0408049cf17079060600160405180910390a250505050565b60408051600180825281830190925260609160208083019080368337019050509050818160008151811061161d5761161d614c80565b602002602001018181525050919050565b600f80548291907fffffffffffffffffffffffffffffffffffffffffffffffffffffffffffffff00166001838181111561166a5761166a614785565b02179055507f216b6a9618d607ba436d0f2e17e9a83e70929adff805ac2385d67401360e551a8160405161169e91906147b4565b60405180910390a150565b6040805160028082526060808301845292602083019080368337019050509050826001600160a01b0316816000815181106116e6576116e6614c80565b602002602001018181525050818160018151811061170657611706614c80565b60200260200101818152505092915050565b6117228282612151565b6001600160a01b038216611762576040517fc0e0f12200000000000000000000000000000000000000000000000000000000815260040160405180910390fd5b8060000361086d576040517f1463acbe00000000000000000000000000000000000000000000000000000000815260040160405180910390fd5b606073eeeeeeeeeeeeeeeeeeeeeeeeeeeeeeeeeeeeeeee6001600160a01b0384161461183c57604080516001600160a01b038516602482015260448082018590528251808303909101815260649091019091526020810180517bffffffffffffffffffffffffffffffffffffffffffffffffffffffff167faf995f4d00000000000000000000000000000000000000000000000000000000179052610f49565b50604080516024808201939093528151808203909301835260440190526020810180517bffffffffffffffffffffffffffffffffffffffffffffffffffffffff167f21c6787100000000000000000000000000000000000000000000000000000000179052919050565b61086d8282612197565b6001600160a01b0384166118f0576040517f1de0c9c700000000000000000000000000000000000000000000000000000000815260040160405180910390fd5b6001600160a01b0384166000908152601b60205260409020611914908484846121bf565b826001600160a01b0316846001600160a01b03167f1b5c5e27ed5443e409bae85849d41d7bf12d5352e8fddb3728b6408f836e14488484604051611962929190918252602082015260400190565b60405180910390a350505050565b61199d604051806060016040528060006001600160a01b0316815260200160008152602001600081525090565b6001600160a01b0380831660009081526015602052604090208054909116156119c657806119c9565b60125b6040805160608101825282546001600160a01b0316815260018301546020820152600290920154908201529392505050565b600054610100900460ff16611a665760405162461bcd60e51b815260206004820152602b60248201527f496e697469616c697a61626c653a20636f6e7472616374206973206e6f74206960448201526a6e697469616c697a696e6760a81b6064820152608401610b50565b611a6f83612336565b6107cc838383612401565b60408051600280825260608083018452926020830190803683370190505090508260001c81600081518110611ab157611ab1614c80565b6020026020010181815250508160001c8160018151811061170657611706614c80565b8115611b0f576040517fade7e16800000000000000000000000000000000000000000000000000000000815260048101839052602401610b50565b61086d828261247e565b60408051600380825260808201909252606091602082018380368337019050509050836001600160a01b031681600081518110611b5857611b58614c80565b6020026020010181815250508281600181518110611b7857611b78614c80565b6020026020010181815250508181600281518110611b9857611b98614c80565b6020026020010181815250509392505050565b611bb860168484846121bf565b60408051838152602081018390526001600160a01b038516917f6324b5f18e615697a2b44f16d7a649deb0bbbc7cb09dad4c610306105730e7d9910160405180910390a2505050565b600073eeeeeeeeeeeeeeeeeeeeeeeeeeeeeeeeeeeeeeee6001600160a01b03841603611c3857506001600160a01b03811631610d8f565b6040517f70a082310000000000000000000000000000000000000000000000000000000081526001600160a01b0383811660048301528416906370a0823190602401602060405180830381865afa158015611c97573d6000803e3d6000fd5b505050506040513d601f19601f82011682018060405250810190611cbb9190614f04565b9050610d8f565b6060610d8f826001600160a01b03166115e7565b6001600160a01b038116611d16576040517fefa47c0f00000000000000000000000000000000000000000000000000000000815260040160405180910390fd5b601c80547fffffffffffffffffffffffff0000000000000000000000000000000000000000166001600160a01b0383169081179091556040517f12e1d17016b94668449f97876f4a8d5cc2c19f314db337418894734037cc19d490600090a250565b6001600160a01b038116611db8576040517f38c5771c00000000000000000000000000000000000000000000000000000000815260040160405180910390fd5b601d80547fffffffffffffffffffffffff0000000000000000000000000000000000000000166001600160a01b0383169081179091556040517f9b9737de8795e555b8c8d96115b055f2e1cccac325469978300fac235f3e71cb90600090a250565b611e276012848484612069565b604080516001600160a01b0385168152602081018490529081018290527fa80953bdc344b2ebd0bcdd001a3418a8fd1b858bdecf12a4ba5a9366ad65d3459060600160405180910390a1505050565b6001600160a01b038082166000908152601b602052604081208054919290911615611ea15780610f49565b60169392505050565b670de0b6b3a7640000811115611eec576040517fce57496100000000000000000000000000000000000000000000000000000000815260040160405180910390fd5b60068490556007839055600882905560098190556040805185815260208101859052908101839052606081018290527f746dc5eb53c5de07c40b06d428506d6982ea10c423ac2875abfc44038927d69190608001610c1d565b6001600160a01b03811660009081526001830160205260408120541515610f49565b600080546040517f28522895000000000000000000000000000000000000000000000000000000008152620100009091046001600160a01b031690632852289590611fbc908790309088908890600401614f1d565b602060405180830381865afa158015611fd9573d6000803e3d6000fd5b505050506040513d601f19601f82011682018060405250810190611ffd9190614f7b565b949350505050565b6000611ffd6120176201518084614fc7565b612501565b600080806120306120176201518086614fc7565b5091509150611ffd82826125bb565b6000610f49836001600160a01b038416612641565b6000610f49836001600160a01b03841661273b565b60006001600160a01b038416158015612080575082155b801561208a575081155b905060006001600160a01b038516158015906120ae57508215806120ae5750838310155b9050811580156120bc575080155b1561210c576040517fca1f04830000000000000000000000000000000000000000000000000000000081526001600160a01b03861660048201526024810185905260448101849052606401610b50565b505083547fffffffffffffffffffffffff0000000000000000000000000000000000000000166001600160a01b03939093169290921783556001830155600290910155565b61215b828261278a565b6121658282612794565b61216f82826127d1565b61217982826128cd565b6121838282612b20565b61218d8282612b6a565b61086d8282612c57565b6121a18282612d6d565b6121ab8282612e0f565b6121b58282612e31565b61086d828261307b565b60006001600160a01b0384161580156121d6575082155b80156121e0575081155b905060006001600160a01b038516158015906121fc5750600084115b80156122085750600083115b905081158015612216575080155b15612266576040517ff5deb5dc0000000000000000000000000000000000000000000000000000000081526001600160a01b03861660048201526024810185905260448101849052606401610b50565b6003860183905560018601849055811561228d5760006002870181905560048701556122f9565b85600401546000036122b457600060028701556122aa8342614fdb565b60048701556122f9565b85546001600160a01b038681169116146122f95785546000906122e0906001600160a01b0316876130a8565b60028801549091506122f290826130b4565b6002880155505b505083547fffffffffffffffffffffffff0000000000000000000000000000000000000000166001600160a01b0393909316929092179092555050565b600054610100900460ff166123a15760405162461bcd60e51b815260206004820152602b60248201527f496e697469616c697a61626c653a20636f6e7472616374206973206e6f74206960448201526a6e697469616c697a696e6760a81b6064820152608401610b50565b80516123ac9061312a565b6123b461320c565b6123c18160200151613281565b6123ce81604001516132f5565b6123db8160600151613369565b6123e881608001516133dd565b6123f58160a00151613451565b6123fe816134c5565b50565b600054610100900460ff1661246c5760405162461bcd60e51b815260206004820152602b60248201527f496e697469616c697a61626c653a20636f6e7472616374206973206e6f74206960448201526a6e697469616c697a696e6760a81b6064820152608401610b50565b61247582611cd6565b6107cc81611d78565b808214801561248c57508115155b156124c6576040517f0fb49edb00000000000000000000000000000000000000000000000000000000815260048101839052602401610b50565b60028290556003819055604051819083907ff950a929751d87db181a0a517df21bb3ecd433abba584594402db4b58a55483590600090a35050565b60008080836226496581018262023ab1600483020590506004600362023ab18302010590910390600062164b09610fa0600185010205905060046105b58202058303601f019250600061098f846050028161255e5761255e614f98565b0590506000605061098f83020585039050600b82057fffffffffffffffffffffffffffffffffffffffffffffffffffffffffffffffcf94909401606402929092018301996002600c90940290910392909201975095509350505050565b600081600114806125cc5750816003145b806125d75750816005145b806125e25750816007145b806125ed5750816008145b806125f8575081600a145b80612603575081600c145b156126105750601f610d8f565b816002146126205750601e610d8f565b61262983613530565b61263457601c612637565b601d5b60ff169392505050565b6000818152600183016020526040812054801561272a576000612665600183614fee565b855490915060009061267990600190614fee565b90508181146126de57600086600001828154811061269957612699614c80565b90600052602060002001549050808760000184815481106126bc576126bc614c80565b6000918252602080832090910192909255918252600188019052604090208390555b85548690806126ef576126ef615001565b600190038181906000526020600020016000905590558560010160008681526020019081526020016000206000905560019350505050610d8f565b6000915050610d8f565b5092915050565b600081815260018301602052604081205461278257508154600181810184556000848152602080822090930184905584548482528286019093526040902091909155610d8f565b506000610d8f565b61086d828261356c565b60045460ff161561086d576040517fc0f2312800000000000000000000000000000000000000000000000000000000815260040160405180910390fd5b5a600555604080516080810182526006548082526007546020830152600854928201929092526009546060820152906000901580612810575081513a11155b9050806128555781516040517fcbb35eb70000000000000000000000000000000000000000000000000000000081523a60048201526024810191909152604401610b50565b6000612861483a614fee565b9050600083602001516000148061287c575083602001518211155b9050806128c55760208401516040517f56e5387f000000000000000000000000000000000000000000000000000000008152610b50918491600401918252602082015260400190565b505050505050565b600a54600b54600c54600e5460ff9093169242821115612922576040517f013ce60b00000000000000000000000000000000000000000000000000000000815242600482015260248101839052604401610b50565b600084600281111561293657612936614785565b03612a08578260000361294b57505050505050565b806000036129655761295d8342614fdb565b600d556128c5565b60006129718342614fee565b9050600061297f8583614fc7565b9050600061298d8683614eed565b6129979084614fee565b9050838111156129dc576040517f013ce60b00000000000000000000000000000000000000000000000000000000815242600482015260248101869052604401610b50565b856129e8836001614fdb565b6129f29190614eed565b6129fc9086614fdb565b600d55506128c5915050565b814210158015612a215750612a1d8183614fdb565b4211155b15612a305761295d8284613601565b60006001856002811115612a4657612a46614785565b14612a5957612a544261201c565b612a62565b612a6283612005565b90506000612a708483613699565b905080421015612ab5576040517f013ce60b00000000000000000000000000000000000000000000000000000000815242600482015260248101829052604401610b50565b6000612ac18483614fdb565b90504281108015612b07576040517f013ce60b00000000000000000000000000000000000000000000000000000000815242600482015260248101839052604401610b50565b612b118388613601565b600d5550505050505050505050565b612b2982610f12565b61086d576040517f7a2410450000000000000000000000000000000000000000000000000000000081526001600160a01b0383166004820152602401610b50565b6000612b7583611970565b80519091506001600160a01b0316612b8c57505050565b6000836001600160a01b031682600001516001600160a01b031614612bc857612bc3612bbc8584600001516130a8565b84906130b4565b612bca565b825b9050600082602001518210158015612bf2575060408301511580612bf2575082604001518211155b9050806106cb578251602084015160408086015190517f7c63a4b00000000000000000000000000000000000000000000000000000000081526001600160a01b0390931660048401526024830185905260448301919091526064820152608401610b50565b6000612c6283611e76565b6040805160a08101825282546001600160a01b031680825260018401546020830152600284015492820192909252600383015460608201526004909201546080830152909150612cb157505050565b6000836001600160a01b031682600001516001600160a01b031614612ce657612ce1612bbc8584600001516130a8565b612ce8565b825b9050600082608001514210612cfe576000612d04565b82604001515b612d0e9083614fdb565b905082602001518111156106cb57825160208401516040517fb8858d5d0000000000000000000000000000000000000000000000000000000081526001600160a01b039092166004830152602482015260448101829052606401610b50565b6000612d7883611e76565b80549091506001600160a01b0316612d8f57505050565b80546000906001600160a01b03858116911614612dc5578154612dc090612bbc9086906001600160a01b03166130a8565b612dc7565b825b905081600401544210612df057600060028301556003820154612dea9042614fdb565b60048301555b80826002016000828254612e049190614fdb565b909155505050505050565b600d54600003612e1d575050565b612e28600d546136c1565b50506000600d55565b600554600003612e6d576040517f1f5b8fc600000000000000000000000000000000000000000000000000000000815260040160405180910390fd5b604080516080810182526006548152600754602082015260085491810191909152600954606082015260005a600554612ea69190614fee565b90506000612eb43a83614eed565b90506000836040015160001480612ecf575083604001518211155b905080612f19578184604001516040517faf258ef2000000000000000000000000000000000000000000000000000000008152600401610b50929190918252602082015260400190565b6000600555606084015115801590612f315750600085115b156128c5576000613004306001600160a01b0316634fd49efd6040518163ffffffff1660e01b8152600401602060405180830381865afa158015612f79573d6000803e3d6000fd5b505050506040513d601f19601f82011682018060405250810190612f9d9190615030565b6001600160a01b03166317fcb39b6040518163ffffffff1660e01b8152600401602060405180830381865afa158015612fda573d6000803e3d6000fd5b505050506040513d601f19601f82011682018060405250810190612ffe9190615030565b886130a8565b9050600061301284836136f6565b90506000613020828961379f565b905086606001518111156130705760608701516040517f0297747f000000000000000000000000000000000000000000000000000000008152610b50918391600401918252602082015260400190565b505050505050505050565b6040517f68f46c45a243a0e9065a97649faf9a5afe1692f2679e650c2f853b9cd734cc0e90600090a15050565b6000610f498383613868565b600082820283158015906130d75750828482816130d3576130d3614f98565b0414155b15613118576040517fe8e4a4fa0000000000000000000000000000000000000000000000000000000081526004810185905260248101849052604401610b50565b670de0b6b3a764000090049392505050565b600054610100900460ff166131955760405162461bcd60e51b815260206004820152602b60248201527f496e697469616c697a61626c653a20636f6e7472616374206973206e6f74206960448201526a6e697469616c697a696e6760a81b6064820152608401610b50565b61320381600001516001600160a01b031663d09edf316040518163ffffffff1660e01b8152600401602060405180830381865afa1580156131da573d6000803e3d6000fd5b505050506040513d601f19601f820116820180604052508101906131fe9190615030565b613a76565b6123fe81613aea565b600054610100900460ff166132775760405162461bcd60e51b815260206004820152602b60248201527f496e697469616c697a61626c653a20636f6e7472616374206973206e6f74206960448201526a6e697469616c697a696e6760a81b6064820152608401610b50565b61327f613ba2565b565b600054610100900460ff166132ec5760405162461bcd60e51b815260206004820152602b60248201527f496e697469616c697a61626c653a20636f6e7472616374206973206e6f74206960448201526a6e697469616c697a696e6760a81b6064820152608401610b50565b6123fe81613c0d565b600054610100900460ff166133605760405162461bcd60e51b815260206004820152602b60248201527f496e697469616c697a61626c653a20636f6e7472616374206973206e6f74206960448201526a6e697469616c697a696e6760a81b6064820152608401610b50565b6123fe81613c94565b600054610100900460ff166133d45760405162461bcd60e51b815260206004820152602b60248201527f496e697469616c697a61626c653a20636f6e7472616374206973206e6f74206960448201526a6e697469616c697a696e6760a81b6064820152608401610b50565b6123fe81613d1b565b600054610100900460ff166134485760405162461bcd60e51b815260206004820152602b60248201527f496e697469616c697a61626c653a20636f6e7472616374206973206e6f74206960448201526a6e697469616c697a696e6760a81b6064820152608401610b50565b6123fe81613ddb565b600054610100900460ff166134bc5760405162461bcd60e51b815260206004820152602b60248201527f496e697469616c697a61626c653a20636f6e7472616374206973206e6f74206960448201526a6e697469616c697a696e6760a81b6064820152608401610b50565b6123fe81613ecb565b600054610100900460ff166123fe5760405162461bcd60e51b815260206004820152602b60248201527f496e697469616c697a61626c653a20636f6e7472616374206973206e6f74206960448201526a6e697469616c697a696e6760a81b6064820152608401610b50565b600061353d60048361504d565b158015613553575061355060648361504d565b15155b80610d8f57506135656101908361504d565b1592915050565b6002541561086d576001546002546040517feb056bbb00000000000000000000000000000000000000000000000000000000815260048101919091526001600160a01b03848116602483015260448201849052600060648301529091169063eb056bbb90608401600060405180830381600087803b1580156135ed57600080fd5b505af11580156128c5573d6000803e3d6000fd5b60008060008061361086613fbb565b9194509250905060006136238684614fdb565b90506000613632600c8361504d565b90506000613641600c84614fc7565b61364b9087614fdb565b905060006002600a5460ff16600281111561366857613668614785565b14613673578461367d565b61367d82846125bb565b905061368b8a838584613fda565b9a9950505050505050505050565b60008060006136a742613fbb565b50915091506136b885838387613fda565b95945050505050565b600c8190556040518181527ff90744bee56935ec5acc9de37b89c0c545298c667ee417bd9469e9c6836ad0649060200161169e565b6000828202831580159061371957508284828161371557613715614f98565b0414155b1561375a576040517fe8e4a4fa0000000000000000000000000000000000000000000000000000000081526004810185905260248101849052604401610b50565b801561379557670de0b6b3a76400007fffffffffffffffffffffffffffffffffffffffffffffffffffffffffffffffff820104600101611ffd565b6000949350505050565b6000816000036137db576040517fb8a2f92100000000000000000000000000000000000000000000000000000000815260040160405180910390fd5b826000036137eb57506000610d8f565b670de0b6b3a76400008381029084828161380757613807614f98565b0414613849576040517fea7b49e60000000000000000000000000000000000000000000000000000000081526004810185905260248101829052604401610b50565b82600182038161385b5761385b614f98565b0460010191505092915050565b600080600160009054906101000a90046001600160a01b03166001600160a01b0316632630c12f6040518163ffffffff1660e01b8152600401602060405180830381865afa1580156138be573d6000803e3d6000fd5b505050506040513d601f19601f820116820180604052508101906138e29190615030565b90506001600160a01b038116613933576001546040517f38d2baae0000000000000000000000000000000000000000000000000000000081526001600160a01b039091166004820152602401610b50565b600061393d614002565b905080516000146139ce57816001600160a01b031663355efdd961396087614082565b61396987614082565b846040518463ffffffff1660e01b815260040161398893929190615061565b602060405180830381865afa1580156139a5573d6000803e3d6000fd5b505050506040513d601f19601f820116820180604052508101906139c99190614f04565b6136b8565b816001600160a01b031663ac41865a6139e687614082565b6139ef87614082565b6040517fffffffff0000000000000000000000000000000000000000000000000000000060e085901b1681526001600160a01b03928316600482015291166024820152604401602060405180830381865afa158015613a52573d6000803e3d6000fd5b505050506040513d601f19601f820116820180604052508101906136b89190614f04565b600054610100900460ff16613ae15760405162461bcd60e51b815260206004820152602b60248201527f496e697469616c697a61626c653a20636f6e7472616374206973206e6f74206960448201526a6e697469616c697a696e6760a81b6064820152608401610b50565b6123fe816140b6565b600054610100900460ff16613b555760405162461bcd60e51b815260206004820152602b60248201527f496e697469616c697a61626c653a20636f6e7472616374206973206e6f74206960448201526a6e697469616c697a696e6760a81b6064820152608401610b50565b8051600180547fffffffffffffffffffffffff0000000000000000000000000000000000000000166001600160a01b03909216919091179055602081015160408201516123fe9190611ad4565b600054610100900460ff1661327f5760405162461bcd60e51b815260206004820152602b60248201527f496e697469616c697a61626c653a20636f6e7472616374206973206e6f74206960448201526a6e697469616c697a696e6760a81b6064820152608401610b50565b600054610100900460ff16613c785760405162461bcd60e51b815260206004820152602b60248201527f496e697469616c697a61626c653a20636f6e7472616374206973206e6f74206960448201526a6e697469616c697a696e6760a81b6064820152608401610b50565b6123fe8160000151826020015183604001518460600151611eaa565b600054610100900460ff16613cff5760405162461bcd60e51b815260206004820152602b60248201527f496e697469616c697a61626c653a20636f6e7472616374206973206e6f74206960448201526a6e697469616c697a696e6760a81b6064820152608401610b50565b6123fe8160000151826020015183604001518460600151611042565b600054610100900460ff16613d865760405162461bcd60e51b815260206004820152602b60248201527f496e697469616c697a61626c653a20636f6e7472616374206973206e6f74206960448201526a6e697469616c697a696e6760a81b6064820152608401610b50565b8051613d919061162e565b60005b81602001515181101561086d57613dc982602001518281518110613dba57613dba614c80565b6020026020010151600161141b565b80613dd381614cde565b915050613d94565b600054610100900460ff16613e465760405162461bcd60e51b815260206004820152602b60248201527f496e697469616c697a61626c653a20636f6e7472616374206973206e6f74206960448201526a6e697469616c697a696e6760a81b6064820152608401610b50565b8051805160208201516040830151613e5f929190611e1a565b60005b8260200151518110156107cc57600083602001518281518110613e8757613e87614c80565b60200260200101519050600081602001519050613eb6826000015182600001518360200151846040015161152e565b50508080613ec390614cde565b915050613e62565b600054610100900460ff16613f365760405162461bcd60e51b815260206004820152602b60248201527f496e697469616c697a61626c653a20636f6e7472616374206973206e6f74206960448201526a6e697469616c697a696e6760a81b6064820152608401610b50565b8051805160208201516040830151613f4f929190611bab565b60005b8260200151518110156107cc57600083602001518281518110613f7757613f77614c80565b60200260200101519050600081602001519050613fa682600001518260000151836020015184604001516118b0565b50508080613fb390614cde565b915050613f52565b60008080613fcd620151808504612501565b9196909550909350915050565b60006136b8848484613feb89614161565b613ff48a61417f565b613ffd8b61419b565b6141a8565b6060600061400e614204565b90503681111561402c57505060408051600081526020810190915290565b8067ffffffffffffffff81111561404557614045614455565b6040519080825280601f01601f19166020018201604052801561406f576020820181803683370190505b5091508060208236030360208401375090565b600073eeeeeeeeeeeeeeeeeeeeeeeeeeeeeeeeeeeeeeee6001600160a01b038316146140ae5781610d8f565b610d8f61423d565b600054610100900460ff166141215760405162461bcd60e51b815260206004820152602b60248201527f496e697469616c697a61626c653a20636f6e7472616374206973206e6f74206960448201526a6e697469616c697a696e6760a81b6064820152608401610b50565b600080546001600160a01b0390921662010000027fffffffffffffffffffff0000000000000000000000000000000000000000ffff909216919091179055565b600080614171620151808461504d565b9050610f49610e1082614fc7565b60008061418e610e108461504d565b9050610f49603c82614fc7565b6000610d8f603c8361504d565b6000816141b6603c85614eed565b6141c2610e1087614eed565b620151806141d18b8b8b6142c9565b6141db9190614eed565b6141e59190614fdb565b6141ef9190614fdb565b6141f99190614fdb565b979650505050505050565b600060243610156142155750600090565b507fffffffffffffffffffffffffffffffffffffffffffffffffffffffffffffffe036013590565b600154604080517f17fcb39b00000000000000000000000000000000000000000000000000000000815290516000926001600160a01b0316916317fcb39b9160048083019260209291908290030181865afa1580156142a0573d6000803e3d6000fd5b505050506040513d601f19601f820116820180604052508101906142c49190615030565b905090565b60006107b28410156142da57600080fd5b838383600062253d8c60046064600c6142f4600e8861508d565b6142fe91906150ad565b61430a88611324615115565b6143149190615115565b61431e91906150ad565b61432990600361513d565b61433391906150ad565b600c80614341600e8861508d565b61434b91906150ad565b61435690600c61513d565b61436160028861508d565b61436b919061508d565b6143779061016f61513d565b61438191906150ad565b6004600c614390600e8961508d565b61439a91906150ad565b6143a6896112c0615115565b6143b09190615115565b6143bc906105b561513d565b6143c691906150ad565b6143d2617d4b8761508d565b6143dc9190615115565b6143e69190615115565b6143f0919061508d565b6143fa919061508d565b98975050505050505050565b803560ff8116811461441757600080fd5b919050565b6000806000806080858703121561443257600080fd5b61443b85614406565b966020860135965060408601359560600135945092505050565b7f4e487b7100000000000000000000000000000000000000000000000000000000600052604160045260246000fd5b6040516080810167ffffffffffffffff811182821017156144a7576144a7614455565b60405290565b6040805190810167ffffffffffffffff811182821017156144a7576144a7614455565b60405160c0810167ffffffffffffffff811182821017156144a7576144a7614455565b604051601f82017fffffffffffffffffffffffffffffffffffffffffffffffffffffffffffffffe016810167ffffffffffffffff8111828210171561453a5761453a614455565b604052919050565b600067ffffffffffffffff82111561455c5761455c614455565b5060051b60200190565b6001600160a01b03811681146123fe57600080fd5b803561441781614566565b600082601f83011261459757600080fd5b813560206145ac6145a783614542565b6144f3565b82815260059290921b840181019181810190868411156145cb57600080fd5b8286015b848110156145ef5780356145e281614566565b83529183019183016145cf565b509695505050505050565b80151581146123fe57600080fd5b6000806040838503121561461b57600080fd5b823567ffffffffffffffff8082111561463357600080fd5b61463f86838701614586565b935060209150818501358181111561465657600080fd5b85019050601f8101861361466957600080fd5b80356146776145a782614542565b81815260059190911b8201830190838101908883111561469657600080fd5b928401925b828410156146bd5783356146ae816145fa565b8252928401929084019061469b565b80955050505050509250929050565b6000602082840312156146de57600080fd5b8135610f4981614566565b600080600080608085870312156146ff57600080fd5b843561470a81614566565b9350602085013561471a81614566565b93969395505050506040820135916060013590565b80356002811061441757600080fd5b60006020828403121561475057600080fd5b610f498261472f565b6000806040838503121561476c57600080fd5b823561477781614566565b946020939093013593505050565b7f4e487b7100000000000000000000000000000000000000000000000000000000600052602160045260246000fd5b60208101600283106147ef577f4e487b7100000000000000000000000000000000000000000000000000000000600052602160045260246000fd5b91905290565b60006060828403121561480757600080fd5b6040516060810181811067ffffffffffffffff8211171561482a5761482a614455565b604052905080823561483b81614566565b8082525060208301356020820152604083013560408201525092915050565b60006080828403121561486c57600080fd5b614874614484565b90508135815260208201356020820152604082013560408201526060820135606082015292915050565b6000608082840312156148b057600080fd5b6148b8614484565b90506148c382614406565b815260208201356020820152604082013560408201526060820135606082015292915050565b6000604082840312156148fb57600080fd5b6149036144ad565b905061490e8261472f565b8152602082013567ffffffffffffffff81111561492a57600080fd5b61493684828501614586565b60208301525092915050565b60006080828403121561495457600080fd5b61495c6144ad565b9050813561496981614566565b815261497883602084016147f5565b602082015292915050565b6000608080838503121561499657600080fd5b61499e6144ad565b91506149aa84846147f5565b8252606083013567ffffffffffffffff8111156149c657600080fd5b8301601f810185136149d757600080fd5b803560206149e76145a783614542565b82815260079290921b83018101918181019088841115614a0657600080fd5b938201935b83851015614a2c57614a1d8986614942565b82529385019390820190614a0b565b808388015250505050505092915050565b60006080808385031215614a5057600080fd5b614a586144ad565b9150614a6484846147f5565b8252606083013567ffffffffffffffff811115614a8057600080fd5b8301601f81018513614a9157600080fd5b80356020614aa16145a783614542565b82815260079290921b83018101918181019088841115614ac057600080fd5b938201935b83851015614a2c57614ad78986614942565b82529385019390820190614ac5565b600080600060608486031215614afb57600080fd5b833567ffffffffffffffff80821115614b1357600080fd5b908501906101c08288031215614b2857600080fd5b614b306144d0565b614b3a88846147f5565b8152614b49886060850161485a565b6020820152614b5b8860e0850161489e565b604082015261016083013582811115614b7357600080fd5b614b7f898286016148e9565b60608301525061018083013582811115614b9857600080fd5b614ba489828601614983565b6080830152506101a083013582811115614bbd57600080fd5b614bc989828601614a3d565b60a0830152509450614be09150506020850161457b565b9150614bee6040850161457b565b90509250925092565b60008060408385031215614c0a57600080fd5b50508035926020909101359150565b600080600060608486031215614c2e57600080fd5b8335614c3981614566565b95602085013595506040909401359392505050565b60008060008060808587031215614c6457600080fd5b5050823594602084013594506040840135936060013592509050565b7f4e487b7100000000000000000000000000000000000000000000000000000000600052603260045260246000fd5b7f4e487b7100000000000000000000000000000000000000000000000000000000600052601160045260246000fd5b60007fffffffffffffffffffffffffffffffffffffffffffffffffffffffffffffffff8203614d0f57614d0f614caf565b5060010190565b60005b83811015614d31578181015183820152602001614d19565b50506000910152565b60008151808452614d52816020860160208601614d16565b601f017fffffffffffffffffffffffffffffffffffffffffffffffffffffffffffffffe0169290920160200192915050565b6001600160a01b0384168152606060208201526000614da66060830185614d3a565b9050826040830152949350505050565b600060208284031215614dc857600080fd5b815167ffffffffffffffff80821115614de057600080fd5b818401915084601f830112614df457600080fd5b815181811115614e0657614e06614455565b614e3760207fffffffffffffffffffffffffffffffffffffffffffffffffffffffffffffffe0601f840116016144f3565b9150808252856020828501011115614e4e57600080fd5b614e5f816020840160208601614d16565b50949350505050565b600081518084526020808501945080840160005b83811015614e9857815187529582019590820190600101614e7c565b509495945050505050565b6001600160a01b03841681527fffffffff00000000000000000000000000000000000000000000000000000000831660208201526060604082015260006136b86060830184614e68565b8082028115828204841417610d8f57610d8f614caf565b600060208284031215614f1657600080fd5b5051919050565b60006001600160a01b0380871683528086166020840152507fffffffff000000000000000000000000000000000000000000000000000000008416604083015260806060830152614f716080830184614e68565b9695505050505050565b600060208284031215614f8d57600080fd5b8151610f49816145fa565b7f4e487b7100000000000000000000000000000000000000000000000000000000600052601260045260246000fd5b600082614fd657614fd6614f98565b500490565b80820180821115610d8f57610d8f614caf565b81810381811115610d8f57610d8f614caf565b7f4e487b7100000000000000000000000000000000000000000000000000000000600052603160045260246000fd5b60006020828403121561504257600080fd5b8151610f4981614566565b60008261505c5761505c614f98565b500690565b60006001600160a01b038086168352808516602084015250606060408301526136b86060830184614d3a565b818103600083128015838313168383128216171561273457612734614caf565b6000826150bc576150bc614f98565b7fffffffffffffffffffffffffffffffffffffffffffffffffffffffffffffffff83147f80000000000000000000000000000000000000000000000000000000000000008314161561511057615110614caf565b500590565b808201828112600083128015821682158216171561513557615135614caf565b505092915050565b808202600082127f80000000000000000000000000000000000000000000000000000000000000008414161561517557615175614caf565b8181058314821517610d8f57610d8f614caf56fea26469706673582212204e6a4c0eb157d2fd2cd631d8989c9d249a0dfb0130c925ec8c0b749c8f3d7e7964736f6c63430008110033","opcodes":"PUSH1 0x80 PUSH1 0x40 MSTORE CALLVALUE DUP1 ISZERO PUSH3 0x11 JUMPI PUSH1 0x0 DUP1 REVERT JUMPDEST POP PUSH3 0x1C PUSH3 0x22 JUMP JUMPDEST PUSH3 0xE4 JUMP JUMPDEST PUSH1 0x0 SLOAD PUSH2 0x100 SWAP1 DIV PUSH1 0xFF AND ISZERO PUSH3 0x8F JUMPI PUSH1 0x40 MLOAD PUSH3 0x461BCD PUSH1 0xE5 SHL DUP2 MSTORE PUSH1 0x20 PUSH1 0x4 DUP3 ADD MSTORE PUSH1 0x27 PUSH1 0x24 DUP3 ADD MSTORE PUSH32 0x496E697469616C697A61626C653A20636F6E747261637420697320696E697469 PUSH1 0x44 DUP3 ADD MSTORE PUSH7 0x616C697A696E67 PUSH1 0xC8 SHL PUSH1 0x64 DUP3 ADD MSTORE PUSH1 0x84 ADD PUSH1 0x40 MLOAD DUP1 SWAP2 SUB SWAP1 REVERT JUMPDEST PUSH1 0x0 SLOAD PUSH1 0xFF SWAP1 DUP2 AND LT ISZERO PUSH3 0xE2 JUMPI PUSH1 0x0 DUP1 SLOAD PUSH1 0xFF NOT AND PUSH1 0xFF SWAP1 DUP2 OR SWAP1 SWAP2 SSTORE PUSH1 0x40 MLOAD SWAP1 DUP2 MSTORE PUSH32 0x7F26B83FF96E1F2B6A682F133852F6798A09C465DA95921460CEFB3847402498 SWAP1 PUSH1 0x20 ADD PUSH1 0x40 MLOAD DUP1 SWAP2 SUB SWAP1 LOG1 JUMPDEST JUMP JUMPDEST PUSH2 0x51BF DUP1 PUSH3 0xF4 PUSH1 0x0 CODECOPY PUSH1 0x0 RETURN INVALID PUSH1 0x80 PUSH1 0x40 MSTORE CALLVALUE DUP1 ISZERO PUSH2 0x10 JUMPI PUSH1 0x0 DUP1 REVERT JUMPDEST POP PUSH1 0x4 CALLDATASIZE LT PUSH2 0x226 JUMPI PUSH1 0x0 CALLDATALOAD PUSH1 0xE0 SHR DUP1 PUSH4 0x7125590A GT PUSH2 0x12A JUMPI DUP1 PUSH4 0xC0BA40AE GT PUSH2 0xBD JUMPI DUP1 PUSH4 0xD09EDF31 GT PUSH2 0x8C JUMPI DUP1 PUSH4 0xD45A76CF GT PUSH2 0x71 JUMPI DUP1 PUSH4 0xD45A76CF EQ PUSH2 0x648 JUMPI DUP1 PUSH4 0xE6B5BE98 EQ PUSH2 0x65B JUMPI DUP1 PUSH4 0xF9EAEE0D EQ PUSH2 0x66E JUMPI PUSH1 0x0 DUP1 REVERT JUMPDEST DUP1 PUSH4 0xD09EDF31 EQ PUSH2 0x61C JUMPI DUP1 PUSH4 0xD3FEB602 EQ PUSH2 0x635 JUMPI PUSH1 0x0 DUP1 REVERT JUMPDEST DUP1 PUSH4 0xC0BA40AE EQ PUSH2 0x5D2 JUMPI DUP1 PUSH4 0xC267621E EQ PUSH2 0x5E5 JUMPI DUP1 PUSH4 0xC415B95C EQ PUSH2 0x5F6 JUMPI DUP1 PUSH4 0xCA4FBBCB EQ PUSH2 0x609 JUMPI PUSH1 0x0 DUP1 REVERT JUMPDEST DUP1 PUSH4 0xA3374177 GT PUSH2 0xF9 JUMPI DUP1 PUSH4 0xA3374177 EQ PUSH2 0x515 JUMPI DUP1 PUSH4 0xA42DCE80 EQ PUSH2 0x548 JUMPI DUP1 PUSH4 0xA5900C4D EQ PUSH2 0x55B JUMPI DUP1 PUSH4 0xB187BD26 EQ PUSH2 0x5B5 JUMPI PUSH1 0x0 DUP1 REVERT JUMPDEST DUP1 PUSH4 0x7125590A EQ PUSH2 0x4D4 JUMPI DUP1 PUSH4 0x8456CB59 EQ PUSH2 0x4E7 JUMPI DUP1 PUSH4 0x90333BA8 EQ PUSH2 0x4EF JUMPI DUP1 PUSH4 0xA0C3774F EQ PUSH2 0x502 JUMPI PUSH1 0x0 DUP1 REVERT JUMPDEST DUP1 PUSH4 0x423A4B40 GT PUSH2 0x1BD JUMPI DUP1 PUSH4 0x51A424B1 GT PUSH2 0x18C JUMPI DUP1 PUSH4 0x5EA54EEE GT PUSH2 0x171 JUMPI DUP1 PUSH4 0x5EA54EEE EQ PUSH2 0x449 JUMPI DUP1 PUSH4 0x60174E3F EQ PUSH2 0x475 JUMPI DUP1 PUSH4 0x6AACAAD8 EQ PUSH2 0x488 JUMPI PUSH1 0x0 DUP1 REVERT JUMPDEST DUP1 PUSH4 0x51A424B1 EQ PUSH2 0x3F6 JUMPI DUP1 PUSH4 0x5670E2CE EQ PUSH2 0x42E JUMPI PUSH1 0x0 DUP1 REVERT JUMPDEST DUP1 PUSH4 0x423A4B40 EQ PUSH2 0x369 JUMPI DUP1 PUSH4 0x42D4693E EQ PUSH2 0x37C JUMPI DUP1 PUSH4 0x4A45A3A8 EQ PUSH2 0x396 JUMPI DUP1 PUSH4 0x4FD49EFD EQ PUSH2 0x3CB JUMPI PUSH1 0x0 DUP1 REVERT JUMPDEST DUP1 PUSH4 0x2384C32D GT PUSH2 0x1F9 JUMPI DUP1 PUSH4 0x2384C32D EQ PUSH2 0x328 JUMPI DUP1 PUSH4 0x30EAE572 EQ PUSH2 0x33B JUMPI DUP1 PUSH4 0x3BD9EF28 EQ PUSH2 0x34E JUMPI DUP1 PUSH4 0x3F4BA83A EQ PUSH2 0x361 JUMPI PUSH1 0x0 DUP1 REVERT JUMPDEST DUP1 PUSH4 0xFE105E8 EQ PUSH2 0x22B JUMPI DUP1 PUSH4 0x119A5E96 EQ PUSH2 0x240 JUMPI DUP1 PUSH4 0x21972384 EQ PUSH2 0x271 JUMPI DUP1 PUSH4 0x221A8C68 EQ PUSH2 0x284 JUMPI JUMPDEST PUSH1 0x0 DUP1 REVERT JUMPDEST PUSH2 0x23E PUSH2 0x239 CALLDATASIZE PUSH1 0x4 PUSH2 0x441C JUMP JUMPDEST PUSH2 0x681 JUMP JUMPDEST STOP JUMPDEST PUSH2 0x248 PUSH2 0x6D2 JUMP JUMPDEST PUSH1 0x40 DUP1 MLOAD PUSH1 0xFF SWAP1 SWAP6 AND DUP6 MSTORE PUSH1 0x20 DUP6 ADD SWAP4 SWAP1 SWAP4 MSTORE SWAP2 DUP4 ADD MSTORE PUSH1 0x60 DUP3 ADD MSTORE PUSH1 0x80 ADD JUMPDEST PUSH1 0x40 MLOAD DUP1 SWAP2 SUB SWAP1 RETURN JUMPDEST PUSH2 0x23E PUSH2 0x27F CALLDATASIZE PUSH1 0x4 PUSH2 0x4608 JUMP JUMPDEST PUSH2 0x709 JUMP JUMPDEST PUSH2 0x2F6 PUSH2 0x292 CALLDATASIZE PUSH1 0x4 PUSH2 0x46CC JUMP JUMPDEST PUSH1 0x1 PUSH1 0x1 PUSH1 0xA0 SHL SUB SWAP1 DUP2 AND PUSH1 0x0 SWAP1 DUP2 MSTORE PUSH1 0x1B PUSH1 0x20 SWAP1 DUP2 MSTORE PUSH1 0x40 SWAP2 DUP3 SWAP1 KECCAK256 DUP3 MLOAD PUSH1 0xA0 DUP2 ADD DUP5 MSTORE DUP2 SLOAD SWAP1 SWAP5 AND DUP1 DUP6 MSTORE PUSH1 0x1 DUP3 ADD SLOAD SWAP3 DUP6 ADD DUP4 SWAP1 MSTORE PUSH1 0x2 DUP3 ADD SLOAD SWAP4 DUP6 ADD DUP5 SWAP1 MSTORE PUSH1 0x3 DUP3 ADD SLOAD PUSH1 0x60 DUP7 ADD DUP2 SWAP1 MSTORE PUSH1 0x4 SWAP1 SWAP3 ADD SLOAD PUSH1 0x80 SWAP1 SWAP6 ADD DUP6 SWAP1 MSTORE SWAP5 SWAP2 SWAP4 SWAP1 SWAP2 JUMP JUMPDEST PUSH1 0x40 DUP1 MLOAD PUSH1 0x1 PUSH1 0x1 PUSH1 0xA0 SHL SUB SWAP1 SWAP7 AND DUP7 MSTORE PUSH1 0x20 DUP7 ADD SWAP5 SWAP1 SWAP5 MSTORE SWAP3 DUP5 ADD SWAP2 SWAP1 SWAP2 MSTORE PUSH1 0x60 DUP4 ADD MSTORE PUSH1 0x80 DUP3 ADD MSTORE PUSH1 0xA0 ADD PUSH2 0x268 JUMP JUMPDEST PUSH2 0x23E PUSH2 0x336 CALLDATASIZE PUSH1 0x4 PUSH2 0x46E9 JUMP JUMPDEST PUSH2 0x7D1 JUMP JUMPDEST PUSH2 0x23E PUSH2 0x349 CALLDATASIZE PUSH1 0x4 PUSH2 0x473E JUMP JUMPDEST PUSH2 0x818 JUMP JUMPDEST PUSH2 0x23E PUSH2 0x35C CALLDATASIZE PUSH1 0x4 PUSH2 0x4759 JUMP JUMPDEST PUSH2 0x871 JUMP JUMPDEST PUSH2 0x23E PUSH2 0x97B JUMP JUMPDEST PUSH2 0x23E PUSH2 0x377 CALLDATASIZE PUSH1 0x4 PUSH2 0x46E9 JUMP JUMPDEST PUSH2 0xA38 JUMP JUMPDEST PUSH1 0xF SLOAD PUSH2 0x389 SWAP1 PUSH1 0xFF AND DUP2 JUMP JUMPDEST PUSH1 0x40 MLOAD PUSH2 0x268 SWAP2 SWAP1 PUSH2 0x47B4 JUMP JUMPDEST PUSH2 0x3BD PUSH32 0xE3A66BA87FA0586EC03DD8DBFAF7586981229809CA0F0959E82C4C9531F6E5B1 DUP2 JUMP JUMPDEST PUSH1 0x40 MLOAD SWAP1 DUP2 MSTORE PUSH1 0x20 ADD PUSH2 0x268 JUMP JUMPDEST PUSH1 0x1 SLOAD PUSH2 0x3DE SWAP1 PUSH1 0x1 PUSH1 0x1 PUSH1 0xA0 SHL SUB AND DUP2 JUMP JUMPDEST PUSH1 0x40 MLOAD PUSH1 0x1 PUSH1 0x1 PUSH1 0xA0 SHL SUB SWAP1 SWAP2 AND DUP2 MSTORE PUSH1 0x20 ADD PUSH2 0x268 JUMP JUMPDEST PUSH2 0x409 PUSH2 0x404 CALLDATASIZE PUSH1 0x4 PUSH2 0x46CC JUMP JUMPDEST PUSH2 0xA7F JUMP JUMPDEST PUSH1 0x40 DUP1 MLOAD PUSH1 0x1 PUSH1 0x1 PUSH1 0xA0 SHL SUB SWAP1 SWAP5 AND DUP5 MSTORE PUSH1 0x20 DUP5 ADD SWAP3 SWAP1 SWAP3 MSTORE SWAP1 DUP3 ADD MSTORE PUSH1 0x60 ADD PUSH2 0x268 JUMP JUMPDEST PUSH1 0x2 SLOAD PUSH1 0x3 SLOAD PUSH1 0x40 DUP1 MLOAD SWAP3 DUP4 MSTORE PUSH1 0x20 DUP4 ADD SWAP2 SWAP1 SWAP2 MSTORE ADD PUSH2 0x268 JUMP JUMPDEST PUSH1 0x6 SLOAD PUSH1 0x7 SLOAD PUSH1 0x8 SLOAD PUSH1 0x9 SLOAD PUSH1 0x40 DUP1 MLOAD SWAP5 DUP6 MSTORE PUSH1 0x20 DUP6 ADD SWAP4 SWAP1 SWAP4 MSTORE SWAP2 DUP4 ADD MSTORE PUSH1 0x60 DUP3 ADD MSTORE PUSH1 0x80 ADD PUSH2 0x268 JUMP JUMPDEST PUSH2 0x23E PUSH2 0x483 CALLDATASIZE PUSH1 0x4 PUSH2 0x4AE6 JUMP JUMPDEST PUSH2 0xAA8 JUMP JUMPDEST PUSH2 0x2F6 PUSH1 0x40 DUP1 MLOAD PUSH1 0xA0 DUP2 ADD DUP3 MSTORE PUSH1 0x16 SLOAD PUSH1 0x1 PUSH1 0x1 PUSH1 0xA0 SHL SUB AND DUP1 DUP3 MSTORE PUSH1 0x17 SLOAD PUSH1 0x20 DUP4 ADD DUP2 SWAP1 MSTORE PUSH1 0x18 SLOAD SWAP4 DUP4 ADD DUP5 SWAP1 MSTORE PUSH1 0x19 SLOAD PUSH1 0x60 DUP5 ADD DUP2 SWAP1 MSTORE PUSH1 0x1A SLOAD PUSH1 0x80 SWAP1 SWAP5 ADD DUP5 SWAP1 MSTORE SWAP2 SWAP5 SWAP1 SWAP4 SWAP3 SWAP1 JUMP JUMPDEST PUSH2 0x23E PUSH2 0x4E2 CALLDATASIZE PUSH1 0x4 PUSH2 0x4BF7 JUMP JUMPDEST PUSH2 0xC2C JUMP JUMPDEST PUSH2 0x23E PUSH2 0xC6F JUMP JUMPDEST PUSH2 0x23E PUSH2 0x4FD CALLDATASIZE PUSH1 0x4 PUSH2 0x4C19 JUMP JUMPDEST PUSH2 0xD30 JUMP JUMPDEST PUSH2 0x3BD PUSH2 0x510 CALLDATASIZE PUSH1 0x4 PUSH2 0x46CC JUMP JUMPDEST PUSH2 0xD75 JUMP JUMPDEST PUSH2 0x409 PUSH1 0x40 DUP1 MLOAD PUSH1 0x60 DUP2 ADD DUP3 MSTORE PUSH1 0x12 SLOAD PUSH1 0x1 PUSH1 0x1 PUSH1 0xA0 SHL SUB AND DUP1 DUP3 MSTORE PUSH1 0x13 SLOAD PUSH1 0x20 DUP4 ADD DUP2 SWAP1 MSTORE PUSH1 0x14 SLOAD SWAP3 SWAP1 SWAP4 ADD DUP3 SWAP1 MSTORE SWAP3 JUMP JUMPDEST PUSH2 0x23E PUSH2 0x556 CALLDATASIZE PUSH1 0x4 PUSH2 0x46CC JUMP JUMPDEST PUSH2 0xD95 JUMP JUMPDEST PUSH2 0x409 PUSH2 0x569 CALLDATASIZE PUSH1 0x4 PUSH2 0x46CC JUMP JUMPDEST PUSH1 0x1 PUSH1 0x1 PUSH1 0xA0 SHL SUB DUP1 DUP3 AND PUSH1 0x0 SWAP1 DUP2 MSTORE PUSH1 0x15 PUSH1 0x20 SWAP1 DUP2 MSTORE PUSH1 0x40 SWAP2 DUP3 SWAP1 KECCAK256 DUP3 MLOAD PUSH1 0x60 DUP2 ADD DUP5 MSTORE DUP2 SLOAD SWAP1 SWAP5 AND DUP1 DUP6 MSTORE PUSH1 0x1 DUP3 ADD SLOAD SWAP3 DUP6 ADD DUP4 SWAP1 MSTORE PUSH1 0x2 SWAP1 SWAP2 ADD SLOAD SWAP4 SWAP1 SWAP3 ADD DUP4 SWAP1 MSTORE SWAP1 SWAP4 SWAP1 SWAP3 POP JUMP JUMPDEST PUSH1 0x4 SLOAD PUSH2 0x5C2 SWAP1 PUSH1 0xFF AND DUP2 JUMP JUMPDEST PUSH1 0x40 MLOAD SWAP1 ISZERO ISZERO DUP2 MSTORE PUSH1 0x20 ADD PUSH2 0x268 JUMP JUMPDEST PUSH2 0x23E PUSH2 0x5E0 CALLDATASIZE PUSH1 0x4 PUSH2 0x46CC JUMP JUMPDEST PUSH2 0xDD6 JUMP JUMPDEST PUSH1 0x1D SLOAD PUSH1 0x1 PUSH1 0x1 PUSH1 0xA0 SHL SUB AND PUSH2 0x3DE JUMP JUMPDEST PUSH1 0x1C SLOAD PUSH2 0x3DE SWAP1 PUSH1 0x1 PUSH1 0x1 PUSH1 0xA0 SHL SUB AND DUP2 JUMP JUMPDEST PUSH1 0x1D SLOAD PUSH2 0x3DE SWAP1 PUSH1 0x1 PUSH1 0x1 PUSH1 0xA0 SHL SUB AND DUP2 JUMP JUMPDEST PUSH1 0x0 SLOAD PUSH2 0x3DE SWAP1 PUSH3 0x10000 SWAP1 DIV PUSH1 0x1 PUSH1 0x1 PUSH1 0xA0 SHL SUB AND DUP2 JUMP JUMPDEST PUSH2 0x23E PUSH2 0x643 CALLDATASIZE PUSH1 0x4 PUSH2 0x4C19 JUMP JUMPDEST PUSH2 0xE17 JUMP JUMPDEST PUSH2 0x2F6 PUSH2 0x656 CALLDATASIZE PUSH1 0x4 PUSH2 0x46CC JUMP JUMPDEST PUSH2 0xE5C JUMP JUMPDEST PUSH2 0x23E PUSH2 0x669 CALLDATASIZE PUSH1 0x4 PUSH2 0x4C4E JUMP JUMPDEST PUSH2 0xECB JUMP JUMPDEST PUSH2 0x5C2 PUSH2 0x67C CALLDATASIZE PUSH1 0x4 PUSH2 0x46CC JUMP JUMPDEST PUSH2 0xF12 JUMP JUMPDEST PUSH2 0x690 DUP5 PUSH1 0xFF AND DUP5 DUP5 DUP5 PUSH2 0xF50 JUMP JUMPDEST PUSH2 0x6BF CALLER PUSH1 0x0 CALLDATALOAD PUSH32 0xFFFFFFFF00000000000000000000000000000000000000000000000000000000 AND DUP4 PUSH2 0xFFB JUMP JUMPDEST PUSH2 0x6CB DUP6 DUP6 DUP6 DUP6 PUSH2 0x1042 JUMP JUMPDEST POP POP POP POP POP JUMP JUMPDEST PUSH1 0xA SLOAD PUSH1 0x0 SWAP1 DUP2 SWAP1 DUP2 SWAP1 DUP2 SWAP1 PUSH1 0xFF AND PUSH1 0x2 DUP2 GT ISZERO PUSH2 0x6F2 JUMPI PUSH2 0x6F2 PUSH2 0x4785 JUMP JUMPDEST PUSH1 0xB SLOAD PUSH1 0xC SLOAD PUSH1 0xE SLOAD SWAP4 POP SWAP4 POP SWAP4 POP SWAP4 POP SWAP1 SWAP2 SWAP3 SWAP4 JUMP JUMPDEST PUSH2 0x737 CALLER PUSH1 0x0 CALLDATALOAD PUSH32 0xFFFFFFFF00000000000000000000000000000000000000000000000000000000 AND PUSH2 0x13FF JUMP JUMPDEST DUP1 MLOAD DUP3 MLOAD EQ PUSH2 0x772 JUMPI PUSH1 0x40 MLOAD PUSH32 0x5D32021A00000000000000000000000000000000000000000000000000000000 DUP2 MSTORE PUSH1 0x4 ADD PUSH1 0x40 MLOAD DUP1 SWAP2 SUB SWAP1 REVERT JUMPDEST PUSH1 0x0 JUMPDEST DUP3 MLOAD DUP2 LT ISZERO PUSH2 0x7CC JUMPI PUSH2 0x7BA DUP4 DUP3 DUP2 MLOAD DUP2 LT PUSH2 0x793 JUMPI PUSH2 0x793 PUSH2 0x4C80 JUMP JUMPDEST PUSH1 0x20 MUL PUSH1 0x20 ADD ADD MLOAD DUP4 DUP4 DUP2 MLOAD DUP2 LT PUSH2 0x7AD JUMPI PUSH2 0x7AD PUSH2 0x4C80 JUMP JUMPDEST PUSH1 0x20 MUL PUSH1 0x20 ADD ADD MLOAD PUSH2 0x141B JUMP JUMPDEST DUP1 PUSH2 0x7C4 DUP2 PUSH2 0x4CDE JUMP JUMPDEST SWAP2 POP POP PUSH2 0x775 JUMP JUMPDEST POP POP POP JUMP JUMPDEST PUSH2 0x7DD DUP5 DUP5 DUP5 DUP5 PUSH2 0x14C5 JUMP JUMPDEST PUSH2 0x80C CALLER PUSH1 0x0 CALLDATALOAD PUSH32 0xFFFFFFFF00000000000000000000000000000000000000000000000000000000 AND DUP4 PUSH2 0xFFB JUMP JUMPDEST PUSH2 0x6CB DUP6 DUP6 DUP6 DUP6 PUSH2 0x152E JUMP JUMPDEST PUSH2 0x835 DUP2 PUSH1 0x1 DUP2 GT ISZERO PUSH2 0x82D JUMPI PUSH2 0x82D PUSH2 0x4785 JUMP JUMPDEST PUSH1 0xFF AND PUSH2 0x15E7 JUMP JUMPDEST PUSH2 0x864 CALLER PUSH1 0x0 CALLDATALOAD PUSH32 0xFFFFFFFF00000000000000000000000000000000000000000000000000000000 AND DUP4 PUSH2 0xFFB JUMP JUMPDEST PUSH2 0x86D DUP3 PUSH2 0x162E JUMP JUMPDEST POP POP JUMP JUMPDEST PUSH2 0x87B DUP3 DUP3 PUSH2 0x16A9 JUMP JUMPDEST PUSH2 0x8AA CALLER PUSH1 0x0 CALLDATALOAD PUSH32 0xFFFFFFFF00000000000000000000000000000000000000000000000000000000 AND DUP4 PUSH2 0xFFB JUMP JUMPDEST DUP2 PUSH1 0x0 SUB PUSH2 0x8BE JUMPI PUSH2 0x8BB DUP4 PUSH2 0xD75 JUMP JUMPDEST SWAP2 POP JUMPDEST PUSH2 0x8C8 DUP4 DUP4 PUSH2 0x1718 JUMP JUMPDEST PUSH1 0x1 SLOAD PUSH1 0x1C SLOAD PUSH1 0x1 PUSH1 0x1 PUSH1 0xA0 SHL SUB SWAP2 DUP3 AND SWAP2 PUSH4 0x4AE00041 SWAP2 AND PUSH2 0x8EB DUP7 DUP7 PUSH2 0x179C JUMP JUMPDEST PUSH1 0x0 PUSH1 0x40 MLOAD DUP5 PUSH4 0xFFFFFFFF AND PUSH1 0xE0 SHL DUP2 MSTORE PUSH1 0x4 ADD PUSH2 0x90B SWAP4 SWAP3 SWAP2 SWAP1 PUSH2 0x4D84 JUMP JUMPDEST PUSH1 0x0 PUSH1 0x40 MLOAD DUP1 DUP4 SUB DUP2 PUSH1 0x0 DUP8 GAS CALL ISZERO DUP1 ISZERO PUSH2 0x92A JUMPI RETURNDATASIZE PUSH1 0x0 DUP1 RETURNDATACOPY RETURNDATASIZE PUSH1 0x0 REVERT JUMPDEST POP POP POP POP PUSH1 0x40 MLOAD RETURNDATASIZE PUSH1 0x0 DUP3 RETURNDATACOPY PUSH1 0x1F RETURNDATASIZE SWAP1 DUP2 ADD PUSH32 0xFFFFFFFFFFFFFFFFFFFFFFFFFFFFFFFFFFFFFFFFFFFFFFFFFFFFFFFFFFFFFFE0 AND DUP3 ADD PUSH1 0x40 MSTORE PUSH2 0x970 SWAP2 SWAP1 DUP2 ADD SWAP1 PUSH2 0x4DB6 JUMP JUMPDEST POP PUSH2 0x7CC DUP4 DUP4 PUSH2 0x18A6 JUMP JUMPDEST PUSH2 0x9A9 CALLER PUSH1 0x0 CALLDATALOAD PUSH32 0xFFFFFFFF00000000000000000000000000000000000000000000000000000000 AND PUSH2 0x13FF JUMP JUMPDEST PUSH1 0x4 SLOAD PUSH1 0xFF AND PUSH2 0x9E5 JUMPI PUSH1 0x40 MLOAD PUSH32 0x9E6558BD00000000000000000000000000000000000000000000000000000000 DUP2 MSTORE PUSH1 0x4 ADD PUSH1 0x40 MLOAD DUP1 SWAP2 SUB SWAP1 REVERT JUMPDEST PUSH1 0x4 DUP1 SLOAD PUSH32 0xFFFFFFFFFFFFFFFFFFFFFFFFFFFFFFFFFFFFFFFFFFFFFFFFFFFFFFFFFFFFFF00 AND SWAP1 SSTORE PUSH1 0x40 MLOAD PUSH32 0xA45F47FDEA8A1EFDD9029A5691C7F759C32B7C698632B563573E155625D16933 SWAP1 PUSH1 0x0 SWAP1 LOG1 JUMP JUMPDEST PUSH2 0xA44 DUP5 DUP5 DUP5 DUP5 PUSH2 0x14C5 JUMP JUMPDEST PUSH2 0xA73 CALLER PUSH1 0x0 CALLDATALOAD PUSH32 0xFFFFFFFF00000000000000000000000000000000000000000000000000000000 AND DUP4 PUSH2 0xFFB JUMP JUMPDEST PUSH2 0x6CB DUP6 DUP6 DUP6 DUP6 PUSH2 0x18B0 JUMP JUMPDEST PUSH1 0x0 DUP1 PUSH1 0x0 DUP1 PUSH2 0xA8E DUP6 PUSH2 0x1970 JUMP JUMPDEST DUP1 MLOAD PUSH1 0x20 DUP3 ADD MLOAD PUSH1 0x40 SWAP1 SWAP3 ADD MLOAD SWAP1 SWAP8 SWAP2 SWAP7 POP SWAP5 POP SWAP3 POP POP POP JUMP JUMPDEST PUSH1 0x0 SLOAD PUSH2 0x100 SWAP1 DIV PUSH1 0xFF AND ISZERO DUP1 DUP1 ISZERO PUSH2 0xAC8 JUMPI POP PUSH1 0x0 SLOAD PUSH1 0x1 PUSH1 0xFF SWAP1 SWAP2 AND LT JUMPDEST DUP1 PUSH2 0xAE2 JUMPI POP ADDRESS EXTCODESIZE ISZERO DUP1 ISZERO PUSH2 0xAE2 JUMPI POP PUSH1 0x0 SLOAD PUSH1 0xFF AND PUSH1 0x1 EQ JUMPDEST PUSH2 0xB59 JUMPI PUSH1 0x40 MLOAD PUSH3 0x461BCD PUSH1 0xE5 SHL DUP2 MSTORE PUSH1 0x20 PUSH1 0x4 DUP3 ADD MSTORE PUSH1 0x2E PUSH1 0x24 DUP3 ADD MSTORE PUSH32 0x496E697469616C697A61626C653A20636F6E747261637420697320616C726561 PUSH1 0x44 DUP3 ADD MSTORE PUSH32 0x647920696E697469616C697A6564000000000000000000000000000000000000 PUSH1 0x64 DUP3 ADD MSTORE PUSH1 0x84 ADD JUMPDEST PUSH1 0x40 MLOAD DUP1 SWAP2 SUB SWAP1 REVERT JUMPDEST PUSH1 0x0 DUP1 SLOAD PUSH32 0xFFFFFFFFFFFFFFFFFFFFFFFFFFFFFFFFFFFFFFFFFFFFFFFFFFFFFFFFFFFFFF00 AND PUSH1 0x1 OR SWAP1 SSTORE DUP1 ISZERO PUSH2 0xBB7 JUMPI PUSH1 0x0 DUP1 SLOAD PUSH32 0xFFFFFFFFFFFFFFFFFFFFFFFFFFFFFFFFFFFFFFFFFFFFFFFFFFFFFFFFFFFF00FF AND PUSH2 0x100 OR SWAP1 SSTORE JUMPDEST PUSH2 0xBC2 DUP5 DUP5 DUP5 PUSH2 0x19FB JUMP JUMPDEST DUP1 ISZERO PUSH2 0xC26 JUMPI PUSH1 0x0 DUP1 SLOAD PUSH32 0xFFFFFFFFFFFFFFFFFFFFFFFFFFFFFFFFFFFFFFFFFFFFFFFFFFFFFFFFFFFF00FF AND SWAP1 SSTORE PUSH1 0x40 MLOAD PUSH1 0x1 DUP2 MSTORE PUSH32 0x7F26B83FF96E1F2B6A682F133852F6798A09C465DA95921460CEFB3847402498 SWAP1 PUSH1 0x20 ADD JUMPDEST PUSH1 0x40 MLOAD DUP1 SWAP2 SUB SWAP1 LOG1 JUMPDEST POP POP POP POP JUMP JUMPDEST PUSH2 0xC36 DUP3 DUP3 PUSH2 0x1A7A JUMP JUMPDEST PUSH2 0xC65 CALLER PUSH1 0x0 CALLDATALOAD PUSH32 0xFFFFFFFF00000000000000000000000000000000000000000000000000000000 AND DUP4 PUSH2 0xFFB JUMP JUMPDEST PUSH2 0x7CC DUP4 DUP4 PUSH2 0x1AD4 JUMP JUMPDEST PUSH2 0xC9D CALLER PUSH1 0x0 CALLDATALOAD PUSH32 0xFFFFFFFF00000000000000000000000000000000000000000000000000000000 AND PUSH2 0x13FF JUMP JUMPDEST PUSH1 0x4 SLOAD PUSH1 0xFF AND ISZERO PUSH2 0xCDA JUMPI PUSH1 0x40 MLOAD PUSH32 0xC0F2312800000000000000000000000000000000000000000000000000000000 DUP2 MSTORE PUSH1 0x4 ADD PUSH1 0x40 MLOAD DUP1 SWAP2 SUB SWAP1 REVERT JUMPDEST PUSH1 0x4 DUP1 SLOAD PUSH32 0xFFFFFFFFFFFFFFFFFFFFFFFFFFFFFFFFFFFFFFFFFFFFFFFFFFFFFFFFFFFFFF00 AND PUSH1 0x1 OR SWAP1 SSTORE PUSH1 0x40 MLOAD PUSH32 0x9E87FAC88FF661F02D44F95383C817FECE4BCE600A3DAB7A54406878B965E752 SWAP1 PUSH1 0x0 SWAP1 LOG1 JUMP JUMPDEST PUSH2 0xD3B DUP4 DUP4 DUP4 PUSH2 0x1B19 JUMP JUMPDEST PUSH2 0xD6A CALLER PUSH1 0x0 CALLDATALOAD PUSH32 0xFFFFFFFF00000000000000000000000000000000000000000000000000000000 AND DUP4 PUSH2 0xFFB JUMP JUMPDEST PUSH2 0xC26 DUP5 DUP5 DUP5 PUSH2 0x1BAB JUMP JUMPDEST PUSH1 0x1D SLOAD PUSH1 0x0 SWAP1 PUSH2 0xD8F SWAP1 DUP4 SWAP1 PUSH1 0x1 PUSH1 0x1 PUSH1 0xA0 SHL SUB AND PUSH2 0x1C01 JUMP JUMPDEST SWAP3 SWAP2 POP POP JUMP JUMPDEST PUSH2 0xD9E DUP2 PUSH2 0x1CC2 JUMP JUMPDEST PUSH2 0xDCD CALLER PUSH1 0x0 CALLDATALOAD PUSH32 0xFFFFFFFF00000000000000000000000000000000000000000000000000000000 AND DUP4 PUSH2 0xFFB JUMP JUMPDEST PUSH2 0x86D DUP3 PUSH2 0x1CD6 JUMP JUMPDEST PUSH2 0xDDF DUP2 PUSH2 0x1CC2 JUMP JUMPDEST PUSH2 0xE0E CALLER PUSH1 0x0 CALLDATALOAD PUSH32 0xFFFFFFFF00000000000000000000000000000000000000000000000000000000 AND DUP4 PUSH2 0xFFB JUMP JUMPDEST PUSH2 0x86D DUP3 PUSH2 0x1D78 JUMP JUMPDEST PUSH2 0xE22 DUP4 DUP4 DUP4 PUSH2 0x1B19 JUMP JUMPDEST PUSH2 0xE51 CALLER PUSH1 0x0 CALLDATALOAD PUSH32 0xFFFFFFFF00000000000000000000000000000000000000000000000000000000 AND DUP4 PUSH2 0xFFB JUMP JUMPDEST PUSH2 0xC26 DUP5 DUP5 DUP5 PUSH2 0x1E1A JUMP JUMPDEST PUSH1 0x0 DUP1 PUSH1 0x0 DUP1 PUSH1 0x0 DUP1 PUSH2 0xE6E DUP8 PUSH2 0x1E76 JUMP JUMPDEST PUSH1 0x40 DUP1 MLOAD PUSH1 0xA0 DUP2 ADD DUP3 MSTORE DUP3 SLOAD PUSH1 0x1 PUSH1 0x1 PUSH1 0xA0 SHL SUB AND DUP1 DUP3 MSTORE PUSH1 0x1 DUP5 ADD SLOAD PUSH1 0x20 DUP4 ADD DUP2 SWAP1 MSTORE PUSH1 0x2 DUP6 ADD SLOAD SWAP4 DUP4 ADD DUP5 SWAP1 MSTORE PUSH1 0x3 DUP6 ADD SLOAD PUSH1 0x60 DUP5 ADD DUP2 SWAP1 MSTORE PUSH1 0x4 SWAP1 SWAP6 ADD SLOAD PUSH1 0x80 SWAP1 SWAP4 ADD DUP4 SWAP1 MSTORE SWAP1 SWAP12 SWAP1 SWAP11 POP SWAP2 SWAP9 POP SWAP2 SWAP7 POP SWAP1 SWAP5 POP SWAP3 POP POP POP JUMP JUMPDEST PUSH2 0xED7 DUP5 DUP5 DUP5 DUP5 PUSH2 0xF50 JUMP JUMPDEST PUSH2 0xF06 CALLER PUSH1 0x0 CALLDATALOAD PUSH32 0xFFFFFFFF00000000000000000000000000000000000000000000000000000000 AND DUP4 PUSH2 0xFFB JUMP JUMPDEST PUSH2 0x6CB DUP6 DUP6 DUP6 DUP6 PUSH2 0x1EAA JUMP JUMPDEST PUSH1 0x0 DUP1 PUSH2 0xF20 PUSH1 0x10 DUP5 PUSH2 0x1F45 JUMP JUMPDEST SWAP1 POP PUSH1 0x1 PUSH1 0xF SLOAD PUSH1 0xFF AND PUSH1 0x1 DUP2 GT ISZERO PUSH2 0xF3B JUMPI PUSH2 0xF3B PUSH2 0x4785 JUMP JUMPDEST EQ PUSH2 0xF47 JUMPI DUP1 ISZERO PUSH2 0xF49 JUMP JUMPDEST DUP1 JUMPDEST SWAP4 SWAP3 POP POP POP JUMP JUMPDEST PUSH1 0x40 DUP1 MLOAD PUSH1 0x4 DUP1 DUP3 MSTORE PUSH1 0xA0 DUP3 ADD SWAP1 SWAP3 MSTORE PUSH1 0x60 SWAP2 PUSH1 0x20 DUP3 ADD PUSH1 0x80 DUP1 CALLDATASIZE DUP4 CALLDATACOPY ADD SWAP1 POP POP SWAP1 POP DUP5 DUP2 PUSH1 0x0 DUP2 MLOAD DUP2 LT PUSH2 0xF87 JUMPI PUSH2 0xF87 PUSH2 0x4C80 JUMP JUMPDEST PUSH1 0x20 MUL PUSH1 0x20 ADD ADD DUP2 DUP2 MSTORE POP POP DUP4 DUP2 PUSH1 0x1 DUP2 MLOAD DUP2 LT PUSH2 0xFA7 JUMPI PUSH2 0xFA7 PUSH2 0x4C80 JUMP JUMPDEST PUSH1 0x20 MUL PUSH1 0x20 ADD ADD DUP2 DUP2 MSTORE POP POP DUP3 DUP2 PUSH1 0x2 DUP2 MLOAD DUP2 LT PUSH2 0xFC7 JUMPI PUSH2 0xFC7 PUSH2 0x4C80 JUMP JUMPDEST PUSH1 0x20 MUL PUSH1 0x20 ADD ADD DUP2 DUP2 MSTORE POP POP DUP2 DUP2 PUSH1 0x3 DUP2 MLOAD DUP2 LT PUSH2 0xFE7 JUMPI PUSH2 0xFE7 PUSH2 0x4C80 JUMP JUMPDEST PUSH1 0x20 MUL PUSH1 0x20 ADD ADD DUP2 DUP2 MSTORE POP POP SWAP5 SWAP4 POP POP POP POP JUMP JUMPDEST PUSH2 0x1006 DUP4 DUP4 DUP4 PUSH2 0x1F67 JUMP JUMPDEST PUSH2 0x7CC JUMPI DUP3 DUP3 DUP3 PUSH1 0x40 MLOAD PUSH32 0x960C80DA00000000000000000000000000000000000000000000000000000000 DUP2 MSTORE PUSH1 0x4 ADD PUSH2 0xB50 SWAP4 SWAP3 SWAP2 SWAP1 PUSH2 0x4EA3 JUMP JUMPDEST PUSH1 0xFF DUP5 AND PUSH2 0x113E JUMPI PUSH1 0x0 DUP2 GT DUP1 PUSH2 0x1059 JUMPI POP PUSH1 0x0 DUP3 GT JUMPDEST ISZERO PUSH2 0x1139 JUMPI DUP3 PUSH1 0x0 SUB PUSH2 0x10A4 JUMPI PUSH1 0x40 MLOAD PUSH32 0xBEA499CB00000000000000000000000000000000000000000000000000000000 DUP2 MSTORE PUSH1 0xFF DUP6 AND PUSH1 0x4 DUP3 ADD MSTORE PUSH1 0x24 DUP2 ADD DUP5 SWAP1 MSTORE PUSH1 0x44 ADD PUSH2 0xB50 JUMP JUMPDEST DUP1 ISZERO DUP1 PUSH2 0x10B0 JUMPI POP DUP3 DUP2 GT JUMPDEST ISZERO PUSH2 0x10F3 JUMPI PUSH1 0x40 MLOAD PUSH32 0x9E12FCCF00000000000000000000000000000000000000000000000000000000 DUP2 MSTORE PUSH1 0xFF DUP6 AND PUSH1 0x4 DUP3 ADD MSTORE PUSH1 0x24 DUP2 ADD DUP3 SWAP1 MSTORE PUSH1 0x44 ADD PUSH2 0xB50 JUMP JUMPDEST DUP2 PUSH1 0x0 SUB PUSH2 0x1139 JUMPI PUSH1 0x40 MLOAD PUSH32 0xAD0D7EB200000000000000000000000000000000000000000000000000000000 DUP2 MSTORE PUSH1 0xFF DUP6 AND PUSH1 0x4 DUP3 ADD MSTORE PUSH1 0x24 DUP2 ADD DUP4 SWAP1 MSTORE PUSH1 0x44 ADD PUSH2 0xB50 JUMP JUMPDEST PUSH2 0x1354 JUMP JUMPDEST DUP3 PUSH1 0x0 SUB PUSH2 0x1184 JUMPI PUSH1 0x40 MLOAD PUSH32 0xBEA499CB00000000000000000000000000000000000000000000000000000000 DUP2 MSTORE PUSH1 0xFF DUP6 AND PUSH1 0x4 DUP3 ADD MSTORE PUSH1 0x24 DUP2 ADD DUP5 SWAP1 MSTORE PUSH1 0x44 ADD PUSH2 0xB50 JUMP JUMPDEST DUP1 ISZERO DUP1 PUSH2 0x119C JUMPI POP PUSH2 0x1199 PUSH3 0x24EA00 DUP5 PUSH2 0x4EED JUMP JUMPDEST DUP2 GT JUMPDEST ISZERO PUSH2 0x11DF JUMPI PUSH1 0x40 MLOAD PUSH32 0x9E12FCCF00000000000000000000000000000000000000000000000000000000 DUP2 MSTORE PUSH1 0xFF DUP6 AND PUSH1 0x4 DUP3 ADD MSTORE PUSH1 0x24 DUP2 ADD DUP3 SWAP1 MSTORE PUSH1 0x44 ADD PUSH2 0xB50 JUMP JUMPDEST DUP2 PUSH1 0x0 SUB PUSH2 0x1225 JUMPI PUSH1 0x40 MLOAD PUSH32 0xAD0D7EB200000000000000000000000000000000000000000000000000000000 DUP2 MSTORE PUSH1 0xFF DUP6 AND PUSH1 0x4 DUP3 ADD MSTORE PUSH1 0x24 DUP2 ADD DUP4 SWAP1 MSTORE PUSH1 0x44 ADD PUSH2 0xB50 JUMP JUMPDEST PUSH32 0xFFFFFFFFFFFFFFFFFFFFFFFFFFFFFFFFFFFFFFFFFFFFFFFFFFFFFFFFFFFFFFFF PUSH1 0xFF DUP6 AND ADD PUSH2 0x129E JUMPI PUSH1 0x1C PUSH2 0x125A DUP4 PUSH2 0x2005 JUMP JUMPDEST GT ISZERO PUSH2 0x1139 JUMPI PUSH1 0x40 MLOAD PUSH32 0xAD0D7EB200000000000000000000000000000000000000000000000000000000 DUP2 MSTORE PUSH1 0xFF DUP6 AND PUSH1 0x4 DUP3 ADD MSTORE PUSH1 0x24 DUP2 ADD DUP4 SWAP1 MSTORE PUSH1 0x44 ADD PUSH2 0xB50 JUMP JUMPDEST PUSH32 0xFFFFFFFFFFFFFFFFFFFFFFFFFFFFFFFFFFFFFFFFFFFFFFFFFFFFFFFFFFFFFFFE PUSH1 0xFF DUP6 AND ADD PUSH2 0x131D JUMPI PUSH2 0x12D1 DUP3 PUSH2 0x201C JUMP JUMPDEST PUSH2 0x12DA DUP4 PUSH2 0x2005 JUMP JUMPDEST EQ PUSH2 0x1139 JUMPI PUSH1 0x40 MLOAD PUSH32 0xAD0D7EB200000000000000000000000000000000000000000000000000000000 DUP2 MSTORE PUSH1 0xFF DUP6 AND PUSH1 0x4 DUP3 ADD MSTORE PUSH1 0x24 DUP2 ADD DUP4 SWAP1 MSTORE PUSH1 0x44 ADD PUSH2 0xB50 JUMP JUMPDEST PUSH1 0x40 MLOAD PUSH32 0x33A738BC00000000000000000000000000000000000000000000000000000000 DUP2 MSTORE PUSH1 0xFF DUP6 AND PUSH1 0x4 DUP3 ADD MSTORE PUSH1 0x24 ADD PUSH2 0xB50 JUMP JUMPDEST DUP4 PUSH1 0xFF AND PUSH1 0x2 DUP2 GT ISZERO PUSH2 0x1369 JUMPI PUSH2 0x1369 PUSH2 0x4785 JUMP JUMPDEST PUSH1 0xA DUP1 SLOAD PUSH32 0xFFFFFFFFFFFFFFFFFFFFFFFFFFFFFFFFFFFFFFFFFFFFFFFFFFFFFFFFFFFFFF00 AND PUSH1 0x1 DUP4 PUSH1 0x2 DUP2 GT ISZERO PUSH2 0x13A3 JUMPI PUSH2 0x13A3 PUSH2 0x4785 JUMP JUMPDEST MUL OR SWAP1 SSTORE POP PUSH1 0xB DUP4 SWAP1 SSTORE PUSH1 0xC DUP3 SWAP1 SSTORE PUSH1 0xE DUP2 SWAP1 SSTORE PUSH1 0x40 DUP1 MLOAD PUSH1 0xFF DUP7 AND DUP2 MSTORE PUSH1 0x20 DUP2 ADD DUP6 SWAP1 MSTORE SWAP1 DUP2 ADD DUP4 SWAP1 MSTORE PUSH1 0x60 DUP2 ADD DUP3 SWAP1 MSTORE PUSH32 0x182FD6FA2A8560221614C1396DD4FCC78D26DFACF821A6AFB61D25876057E412 SWAP1 PUSH1 0x80 ADD PUSH2 0xC1D JUMP JUMPDEST PUSH1 0x40 DUP1 MLOAD PUSH1 0x0 DUP2 MSTORE PUSH1 0x20 DUP2 ADD SWAP1 SWAP2 MSTORE PUSH2 0x86D SWAP1 DUP4 SWAP1 DUP4 SWAP1 PUSH2 0xFFB JUMP JUMPDEST PUSH1 0x1 PUSH1 0x1 PUSH1 0xA0 SHL SUB DUP3 AND PUSH2 0x145B JUMPI PUSH1 0x40 MLOAD PUSH32 0xC41A13EC00000000000000000000000000000000000000000000000000000000 DUP2 MSTORE PUSH1 0x4 ADD PUSH1 0x40 MLOAD DUP1 SWAP2 SUB SWAP1 REVERT JUMPDEST DUP1 PUSH2 0x1470 JUMPI PUSH2 0x146B PUSH1 0x10 DUP4 PUSH2 0x203F JUMP JUMPDEST PUSH2 0x147B JUMP JUMPDEST PUSH2 0x147B PUSH1 0x10 DUP4 PUSH2 0x2054 JUMP JUMPDEST POP DUP2 PUSH1 0x1 PUSH1 0x1 PUSH1 0xA0 SHL SUB AND PUSH32 0x6264362E9DE26EFEFDA321DFAEB4E4A9090DEEF40C5435FAD8E9E2E306889A1C DUP3 PUSH1 0x40 MLOAD PUSH2 0x14B9 SWAP2 ISZERO ISZERO DUP2 MSTORE PUSH1 0x20 ADD SWAP1 JUMP JUMPDEST PUSH1 0x40 MLOAD DUP1 SWAP2 SUB SWAP1 LOG2 POP POP JUMP JUMPDEST PUSH1 0x40 DUP1 MLOAD PUSH1 0x4 DUP1 DUP3 MSTORE PUSH1 0xA0 DUP3 ADD SWAP1 SWAP3 MSTORE PUSH1 0x60 SWAP2 PUSH1 0x20 DUP3 ADD PUSH1 0x80 DUP1 CALLDATASIZE DUP4 CALLDATACOPY ADD SWAP1 POP POP SWAP1 POP DUP5 PUSH1 0x1 PUSH1 0x1 PUSH1 0xA0 SHL SUB AND DUP2 PUSH1 0x0 DUP2 MLOAD DUP2 LT PUSH2 0x1505 JUMPI PUSH2 0x1505 PUSH2 0x4C80 JUMP JUMPDEST PUSH1 0x20 MUL PUSH1 0x20 ADD ADD DUP2 DUP2 MSTORE POP POP DUP4 PUSH1 0x1 PUSH1 0x1 PUSH1 0xA0 SHL SUB AND DUP2 PUSH1 0x1 DUP2 MLOAD DUP2 LT PUSH2 0xFA7 JUMPI PUSH2 0xFA7 PUSH2 0x4C80 JUMP JUMPDEST PUSH1 0x1 PUSH1 0x1 PUSH1 0xA0 SHL SUB DUP5 AND PUSH2 0x156E JUMPI PUSH1 0x40 MLOAD PUSH32 0xE7BA3E4A00000000000000000000000000000000000000000000000000000000 DUP2 MSTORE PUSH1 0x4 ADD PUSH1 0x40 MLOAD DUP1 SWAP2 SUB SWAP1 REVERT JUMPDEST PUSH1 0x1 PUSH1 0x1 PUSH1 0xA0 SHL SUB DUP5 AND PUSH1 0x0 SWAP1 DUP2 MSTORE PUSH1 0x15 PUSH1 0x20 MSTORE PUSH1 0x40 SWAP1 KECCAK256 PUSH2 0x1592 SWAP1 DUP5 DUP5 DUP5 PUSH2 0x2069 JUMP JUMPDEST PUSH1 0x40 DUP1 MLOAD PUSH1 0x1 PUSH1 0x1 PUSH1 0xA0 SHL SUB DUP6 DUP2 AND DUP3 MSTORE PUSH1 0x20 DUP3 ADD DUP6 SWAP1 MSTORE SWAP2 DUP2 ADD DUP4 SWAP1 MSTORE SWAP1 DUP6 AND SWAP1 PUSH32 0xF099617C054D3A65E02A9C3B786F23CC03D5982BC7CFAE84DFF0408049CF1707 SWAP1 PUSH1 0x60 ADD PUSH1 0x40 MLOAD DUP1 SWAP2 SUB SWAP1 LOG2 POP POP POP POP JUMP JUMPDEST PUSH1 0x40 DUP1 MLOAD PUSH1 0x1 DUP1 DUP3 MSTORE DUP2 DUP4 ADD SWAP1 SWAP3 MSTORE PUSH1 0x60 SWAP2 PUSH1 0x20 DUP1 DUP4 ADD SWAP1 DUP1 CALLDATASIZE DUP4 CALLDATACOPY ADD SWAP1 POP POP SWAP1 POP DUP2 DUP2 PUSH1 0x0 DUP2 MLOAD DUP2 LT PUSH2 0x161D JUMPI PUSH2 0x161D PUSH2 0x4C80 JUMP JUMPDEST PUSH1 0x20 MUL PUSH1 0x20 ADD ADD DUP2 DUP2 MSTORE POP POP SWAP2 SWAP1 POP JUMP JUMPDEST PUSH1 0xF DUP1 SLOAD DUP3 SWAP2 SWAP1 PUSH32 0xFFFFFFFFFFFFFFFFFFFFFFFFFFFFFFFFFFFFFFFFFFFFFFFFFFFFFFFFFFFFFF00 AND PUSH1 0x1 DUP4 DUP2 DUP2 GT ISZERO PUSH2 0x166A JUMPI PUSH2 0x166A PUSH2 0x4785 JUMP JUMPDEST MUL OR SWAP1 SSTORE POP PUSH32 0x216B6A9618D607BA436D0F2E17E9A83E70929ADFF805AC2385D67401360E551A DUP2 PUSH1 0x40 MLOAD PUSH2 0x169E SWAP2 SWAP1 PUSH2 0x47B4 JUMP JUMPDEST PUSH1 0x40 MLOAD DUP1 SWAP2 SUB SWAP1 LOG1 POP JUMP JUMPDEST PUSH1 0x40 DUP1 MLOAD PUSH1 0x2 DUP1 DUP3 MSTORE PUSH1 0x60 DUP1 DUP4 ADD DUP5 MSTORE SWAP3 PUSH1 0x20 DUP4 ADD SWAP1 DUP1 CALLDATASIZE DUP4 CALLDATACOPY ADD SWAP1 POP POP SWAP1 POP DUP3 PUSH1 0x1 PUSH1 0x1 PUSH1 0xA0 SHL SUB AND DUP2 PUSH1 0x0 DUP2 MLOAD DUP2 LT PUSH2 0x16E6 JUMPI PUSH2 0x16E6 PUSH2 0x4C80 JUMP JUMPDEST PUSH1 0x20 MUL PUSH1 0x20 ADD ADD DUP2 DUP2 MSTORE POP POP DUP2 DUP2 PUSH1 0x1 DUP2 MLOAD DUP2 LT PUSH2 0x1706 JUMPI PUSH2 0x1706 PUSH2 0x4C80 JUMP JUMPDEST PUSH1 0x20 MUL PUSH1 0x20 ADD ADD DUP2 DUP2 MSTORE POP POP SWAP3 SWAP2 POP POP JUMP JUMPDEST PUSH2 0x1722 DUP3 DUP3 PUSH2 0x2151 JUMP JUMPDEST PUSH1 0x1 PUSH1 0x1 PUSH1 0xA0 SHL SUB DUP3 AND PUSH2 0x1762 JUMPI PUSH1 0x40 MLOAD PUSH32 0xC0E0F12200000000000000000000000000000000000000000000000000000000 DUP2 MSTORE PUSH1 0x4 ADD PUSH1 0x40 MLOAD DUP1 SWAP2 SUB SWAP1 REVERT JUMPDEST DUP1 PUSH1 0x0 SUB PUSH2 0x86D JUMPI PUSH1 0x40 MLOAD PUSH32 0x1463ACBE00000000000000000000000000000000000000000000000000000000 DUP2 MSTORE PUSH1 0x4 ADD PUSH1 0x40 MLOAD DUP1 SWAP2 SUB SWAP1 REVERT JUMPDEST PUSH1 0x60 PUSH20 0xEEEEEEEEEEEEEEEEEEEEEEEEEEEEEEEEEEEEEEEE PUSH1 0x1 PUSH1 0x1 PUSH1 0xA0 SHL SUB DUP5 AND EQ PUSH2 0x183C JUMPI PUSH1 0x40 DUP1 MLOAD PUSH1 0x1 PUSH1 0x1 PUSH1 0xA0 SHL SUB DUP6 AND PUSH1 0x24 DUP3 ADD MSTORE PUSH1 0x44 DUP1 DUP3 ADD DUP6 SWAP1 MSTORE DUP3 MLOAD DUP1 DUP4 SUB SWAP1 SWAP2 ADD DUP2 MSTORE PUSH1 0x64 SWAP1 SWAP2 ADD SWAP1 SWAP2 MSTORE PUSH1 0x20 DUP2 ADD DUP1 MLOAD PUSH28 0xFFFFFFFFFFFFFFFFFFFFFFFFFFFFFFFFFFFFFFFFFFFFFFFFFFFFFFFF AND PUSH32 0xAF995F4D00000000000000000000000000000000000000000000000000000000 OR SWAP1 MSTORE PUSH2 0xF49 JUMP JUMPDEST POP PUSH1 0x40 DUP1 MLOAD PUSH1 0x24 DUP1 DUP3 ADD SWAP4 SWAP1 SWAP4 MSTORE DUP2 MLOAD DUP1 DUP3 SUB SWAP1 SWAP4 ADD DUP4 MSTORE PUSH1 0x44 ADD SWAP1 MSTORE PUSH1 0x20 DUP2 ADD DUP1 MLOAD PUSH28 0xFFFFFFFFFFFFFFFFFFFFFFFFFFFFFFFFFFFFFFFFFFFFFFFFFFFFFFFF AND PUSH32 0x21C6787100000000000000000000000000000000000000000000000000000000 OR SWAP1 MSTORE SWAP2 SWAP1 POP JUMP JUMPDEST PUSH2 0x86D DUP3 DUP3 PUSH2 0x2197 JUMP JUMPDEST PUSH1 0x1 PUSH1 0x1 PUSH1 0xA0 SHL SUB DUP5 AND PUSH2 0x18F0 JUMPI PUSH1 0x40 MLOAD PUSH32 0x1DE0C9C700000000000000000000000000000000000000000000000000000000 DUP2 MSTORE PUSH1 0x4 ADD PUSH1 0x40 MLOAD DUP1 SWAP2 SUB SWAP1 REVERT JUMPDEST PUSH1 0x1 PUSH1 0x1 PUSH1 0xA0 SHL SUB DUP5 AND PUSH1 0x0 SWAP1 DUP2 MSTORE PUSH1 0x1B PUSH1 0x20 MSTORE PUSH1 0x40 SWAP1 KECCAK256 PUSH2 0x1914 SWAP1 DUP5 DUP5 DUP5 PUSH2 0x21BF JUMP JUMPDEST DUP3 PUSH1 0x1 PUSH1 0x1 PUSH1 0xA0 SHL SUB AND DUP5 PUSH1 0x1 PUSH1 0x1 PUSH1 0xA0 SHL SUB AND PUSH32 0x1B5C5E27ED5443E409BAE85849D41D7BF12D5352E8FDDB3728B6408F836E1448 DUP5 DUP5 PUSH1 0x40 MLOAD PUSH2 0x1962 SWAP3 SWAP2 SWAP1 SWAP2 DUP3 MSTORE PUSH1 0x20 DUP3 ADD MSTORE PUSH1 0x40 ADD SWAP1 JUMP JUMPDEST PUSH1 0x40 MLOAD DUP1 SWAP2 SUB SWAP1 LOG3 POP POP POP POP JUMP JUMPDEST PUSH2 0x199D PUSH1 0x40 MLOAD DUP1 PUSH1 0x60 ADD PUSH1 0x40 MSTORE DUP1 PUSH1 0x0 PUSH1 0x1 PUSH1 0x1 PUSH1 0xA0 SHL SUB AND DUP2 MSTORE PUSH1 0x20 ADD PUSH1 0x0 DUP2 MSTORE PUSH1 0x20 ADD PUSH1 0x0 DUP2 MSTORE POP SWAP1 JUMP JUMPDEST PUSH1 0x1 PUSH1 0x1 PUSH1 0xA0 SHL SUB DUP1 DUP4 AND PUSH1 0x0 SWAP1 DUP2 MSTORE PUSH1 0x15 PUSH1 0x20 MSTORE PUSH1 0x40 SWAP1 KECCAK256 DUP1 SLOAD SWAP1 SWAP2 AND ISZERO PUSH2 0x19C6 JUMPI DUP1 PUSH2 0x19C9 JUMP JUMPDEST PUSH1 0x12 JUMPDEST PUSH1 0x40 DUP1 MLOAD PUSH1 0x60 DUP2 ADD DUP3 MSTORE DUP3 SLOAD PUSH1 0x1 PUSH1 0x1 PUSH1 0xA0 SHL SUB AND DUP2 MSTORE PUSH1 0x1 DUP4 ADD SLOAD PUSH1 0x20 DUP3 ADD MSTORE PUSH1 0x2 SWAP1 SWAP3 ADD SLOAD SWAP1 DUP3 ADD MSTORE SWAP4 SWAP3 POP POP POP JUMP JUMPDEST PUSH1 0x0 SLOAD PUSH2 0x100 SWAP1 DIV PUSH1 0xFF AND PUSH2 0x1A66 JUMPI PUSH1 0x40 MLOAD PUSH3 0x461BCD PUSH1 0xE5 SHL DUP2 MSTORE PUSH1 0x20 PUSH1 0x4 DUP3 ADD MSTORE PUSH1 0x2B PUSH1 0x24 DUP3 ADD MSTORE PUSH32 0x496E697469616C697A61626C653A20636F6E7472616374206973206E6F742069 PUSH1 0x44 DUP3 ADD MSTORE PUSH11 0x6E697469616C697A696E67 PUSH1 0xA8 SHL PUSH1 0x64 DUP3 ADD MSTORE PUSH1 0x84 ADD PUSH2 0xB50 JUMP JUMPDEST PUSH2 0x1A6F DUP4 PUSH2 0x2336 JUMP JUMPDEST PUSH2 0x7CC DUP4 DUP4 DUP4 PUSH2 0x2401 JUMP JUMPDEST PUSH1 0x40 DUP1 MLOAD PUSH1 0x2 DUP1 DUP3 MSTORE PUSH1 0x60 DUP1 DUP4 ADD DUP5 MSTORE SWAP3 PUSH1 0x20 DUP4 ADD SWAP1 DUP1 CALLDATASIZE DUP4 CALLDATACOPY ADD SWAP1 POP POP SWAP1 POP DUP3 PUSH1 0x0 SHR DUP2 PUSH1 0x0 DUP2 MLOAD DUP2 LT PUSH2 0x1AB1 JUMPI PUSH2 0x1AB1 PUSH2 0x4C80 JUMP JUMPDEST PUSH1 0x20 MUL PUSH1 0x20 ADD ADD DUP2 DUP2 MSTORE POP POP DUP2 PUSH1 0x0 SHR DUP2 PUSH1 0x1 DUP2 MLOAD DUP2 LT PUSH2 0x1706 JUMPI PUSH2 0x1706 PUSH2 0x4C80 JUMP JUMPDEST DUP2 ISZERO PUSH2 0x1B0F JUMPI PUSH1 0x40 MLOAD PUSH32 0xADE7E16800000000000000000000000000000000000000000000000000000000 DUP2 MSTORE PUSH1 0x4 DUP2 ADD DUP4 SWAP1 MSTORE PUSH1 0x24 ADD PUSH2 0xB50 JUMP JUMPDEST PUSH2 0x86D DUP3 DUP3 PUSH2 0x247E JUMP JUMPDEST PUSH1 0x40 DUP1 MLOAD PUSH1 0x3 DUP1 DUP3 MSTORE PUSH1 0x80 DUP3 ADD SWAP1 SWAP3 MSTORE PUSH1 0x60 SWAP2 PUSH1 0x20 DUP3 ADD DUP4 DUP1 CALLDATASIZE DUP4 CALLDATACOPY ADD SWAP1 POP POP SWAP1 POP DUP4 PUSH1 0x1 PUSH1 0x1 PUSH1 0xA0 SHL SUB AND DUP2 PUSH1 0x0 DUP2 MLOAD DUP2 LT PUSH2 0x1B58 JUMPI PUSH2 0x1B58 PUSH2 0x4C80 JUMP JUMPDEST PUSH1 0x20 MUL PUSH1 0x20 ADD ADD DUP2 DUP2 MSTORE POP POP DUP3 DUP2 PUSH1 0x1 DUP2 MLOAD DUP2 LT PUSH2 0x1B78 JUMPI PUSH2 0x1B78 PUSH2 0x4C80 JUMP JUMPDEST PUSH1 0x20 MUL PUSH1 0x20 ADD ADD DUP2 DUP2 MSTORE POP POP DUP2 DUP2 PUSH1 0x2 DUP2 MLOAD DUP2 LT PUSH2 0x1B98 JUMPI PUSH2 0x1B98 PUSH2 0x4C80 JUMP JUMPDEST PUSH1 0x20 MUL PUSH1 0x20 ADD ADD DUP2 DUP2 MSTORE POP POP SWAP4 SWAP3 POP POP POP JUMP JUMPDEST PUSH2 0x1BB8 PUSH1 0x16 DUP5 DUP5 DUP5 PUSH2 0x21BF JUMP JUMPDEST PUSH1 0x40 DUP1 MLOAD DUP4 DUP2 MSTORE PUSH1 0x20 DUP2 ADD DUP4 SWAP1 MSTORE PUSH1 0x1 PUSH1 0x1 PUSH1 0xA0 SHL SUB DUP6 AND SWAP2 PUSH32 0x6324B5F18E615697A2B44F16D7A649DEB0BBBC7CB09DAD4C610306105730E7D9 SWAP2 ADD PUSH1 0x40 MLOAD DUP1 SWAP2 SUB SWAP1 LOG2 POP POP POP JUMP JUMPDEST PUSH1 0x0 PUSH20 0xEEEEEEEEEEEEEEEEEEEEEEEEEEEEEEEEEEEEEEEE PUSH1 0x1 PUSH1 0x1 PUSH1 0xA0 SHL SUB DUP5 AND SUB PUSH2 0x1C38 JUMPI POP PUSH1 0x1 PUSH1 0x1 PUSH1 0xA0 SHL SUB DUP2 AND BALANCE PUSH2 0xD8F JUMP JUMPDEST PUSH1 0x40 MLOAD PUSH32 0x70A0823100000000000000000000000000000000000000000000000000000000 DUP2 MSTORE PUSH1 0x1 PUSH1 0x1 PUSH1 0xA0 SHL SUB DUP4 DUP2 AND PUSH1 0x4 DUP4 ADD MSTORE DUP5 AND SWAP1 PUSH4 0x70A08231 SWAP1 PUSH1 0x24 ADD PUSH1 0x20 PUSH1 0x40 MLOAD DUP1 DUP4 SUB DUP2 DUP7 GAS STATICCALL ISZERO DUP1 ISZERO PUSH2 0x1C97 JUMPI RETURNDATASIZE PUSH1 0x0 DUP1 RETURNDATACOPY RETURNDATASIZE PUSH1 0x0 REVERT JUMPDEST POP POP POP POP PUSH1 0x40 MLOAD RETURNDATASIZE PUSH1 0x1F NOT PUSH1 0x1F DUP3 ADD AND DUP3 ADD DUP1 PUSH1 0x40 MSTORE POP DUP2 ADD SWAP1 PUSH2 0x1CBB SWAP2 SWAP1 PUSH2 0x4F04 JUMP JUMPDEST SWAP1 POP PUSH2 0xD8F JUMP JUMPDEST PUSH1 0x60 PUSH2 0xD8F DUP3 PUSH1 0x1 PUSH1 0x1 PUSH1 0xA0 SHL SUB AND PUSH2 0x15E7 JUMP JUMPDEST PUSH1 0x1 PUSH1 0x1 PUSH1 0xA0 SHL SUB DUP2 AND PUSH2 0x1D16 JUMPI PUSH1 0x40 MLOAD PUSH32 0xEFA47C0F00000000000000000000000000000000000000000000000000000000 DUP2 MSTORE PUSH1 0x4 ADD PUSH1 0x40 MLOAD DUP1 SWAP2 SUB SWAP1 REVERT JUMPDEST PUSH1 0x1C DUP1 SLOAD PUSH32 0xFFFFFFFFFFFFFFFFFFFFFFFF0000000000000000000000000000000000000000 AND PUSH1 0x1 PUSH1 0x1 PUSH1 0xA0 SHL SUB DUP4 AND SWAP1 DUP2 OR SWAP1 SWAP2 SSTORE PUSH1 0x40 MLOAD PUSH32 0x12E1D17016B94668449F97876F4A8D5CC2C19F314DB337418894734037CC19D4 SWAP1 PUSH1 0x0 SWAP1 LOG2 POP JUMP JUMPDEST PUSH1 0x1 PUSH1 0x1 PUSH1 0xA0 SHL SUB DUP2 AND PUSH2 0x1DB8 JUMPI PUSH1 0x40 MLOAD PUSH32 0x38C5771C00000000000000000000000000000000000000000000000000000000 DUP2 MSTORE PUSH1 0x4 ADD PUSH1 0x40 MLOAD DUP1 SWAP2 SUB SWAP1 REVERT JUMPDEST PUSH1 0x1D DUP1 SLOAD PUSH32 0xFFFFFFFFFFFFFFFFFFFFFFFF0000000000000000000000000000000000000000 AND PUSH1 0x1 PUSH1 0x1 PUSH1 0xA0 SHL SUB DUP4 AND SWAP1 DUP2 OR SWAP1 SWAP2 SSTORE PUSH1 0x40 MLOAD PUSH32 0x9B9737DE8795E555B8C8D96115B055F2E1CCCAC325469978300FAC235F3E71CB SWAP1 PUSH1 0x0 SWAP1 LOG2 POP JUMP JUMPDEST PUSH2 0x1E27 PUSH1 0x12 DUP5 DUP5 DUP5 PUSH2 0x2069 JUMP JUMPDEST PUSH1 0x40 DUP1 MLOAD PUSH1 0x1 PUSH1 0x1 PUSH1 0xA0 SHL SUB DUP6 AND DUP2 MSTORE PUSH1 0x20 DUP2 ADD DUP5 SWAP1 MSTORE SWAP1 DUP2 ADD DUP3 SWAP1 MSTORE PUSH32 0xA80953BDC344B2EBD0BCDD001A3418A8FD1B858BDECF12A4BA5A9366AD65D345 SWAP1 PUSH1 0x60 ADD PUSH1 0x40 MLOAD DUP1 SWAP2 SUB SWAP1 LOG1 POP POP POP JUMP JUMPDEST PUSH1 0x1 PUSH1 0x1 PUSH1 0xA0 SHL SUB DUP1 DUP3 AND PUSH1 0x0 SWAP1 DUP2 MSTORE PUSH1 0x1B PUSH1 0x20 MSTORE PUSH1 0x40 DUP2 KECCAK256 DUP1 SLOAD SWAP2 SWAP3 SWAP1 SWAP2 AND ISZERO PUSH2 0x1EA1 JUMPI DUP1 PUSH2 0xF49 JUMP JUMPDEST PUSH1 0x16 SWAP4 SWAP3 POP POP POP JUMP JUMPDEST PUSH8 0xDE0B6B3A7640000 DUP2 GT ISZERO PUSH2 0x1EEC JUMPI PUSH1 0x40 MLOAD PUSH32 0xCE57496100000000000000000000000000000000000000000000000000000000 DUP2 MSTORE PUSH1 0x4 ADD PUSH1 0x40 MLOAD DUP1 SWAP2 SUB SWAP1 REVERT JUMPDEST PUSH1 0x6 DUP5 SWAP1 SSTORE PUSH1 0x7 DUP4 SWAP1 SSTORE PUSH1 0x8 DUP3 SWAP1 SSTORE PUSH1 0x9 DUP2 SWAP1 SSTORE PUSH1 0x40 DUP1 MLOAD DUP6 DUP2 MSTORE PUSH1 0x20 DUP2 ADD DUP6 SWAP1 MSTORE SWAP1 DUP2 ADD DUP4 SWAP1 MSTORE PUSH1 0x60 DUP2 ADD DUP3 SWAP1 MSTORE PUSH32 0x746DC5EB53C5DE07C40B06D428506D6982EA10C423AC2875ABFC44038927D691 SWAP1 PUSH1 0x80 ADD PUSH2 0xC1D JUMP JUMPDEST PUSH1 0x1 PUSH1 0x1 PUSH1 0xA0 SHL SUB DUP2 AND PUSH1 0x0 SWAP1 DUP2 MSTORE PUSH1 0x1 DUP4 ADD PUSH1 0x20 MSTORE PUSH1 0x40 DUP2 KECCAK256 SLOAD ISZERO ISZERO PUSH2 0xF49 JUMP JUMPDEST PUSH1 0x0 DUP1 SLOAD PUSH1 0x40 MLOAD PUSH32 0x2852289500000000000000000000000000000000000000000000000000000000 DUP2 MSTORE PUSH3 0x10000 SWAP1 SWAP2 DIV PUSH1 0x1 PUSH1 0x1 PUSH1 0xA0 SHL SUB AND SWAP1 PUSH4 0x28522895 SWAP1 PUSH2 0x1FBC SWAP1 DUP8 SWAP1 ADDRESS SWAP1 DUP9 SWAP1 DUP9 SWAP1 PUSH1 0x4 ADD PUSH2 0x4F1D JUMP JUMPDEST PUSH1 0x20 PUSH1 0x40 MLOAD DUP1 DUP4 SUB DUP2 DUP7 GAS STATICCALL ISZERO DUP1 ISZERO PUSH2 0x1FD9 JUMPI RETURNDATASIZE PUSH1 0x0 DUP1 RETURNDATACOPY RETURNDATASIZE PUSH1 0x0 REVERT JUMPDEST POP POP POP POP PUSH1 0x40 MLOAD RETURNDATASIZE PUSH1 0x1F NOT PUSH1 0x1F DUP3 ADD AND DUP3 ADD DUP1 PUSH1 0x40 MSTORE POP DUP2 ADD SWAP1 PUSH2 0x1FFD SWAP2 SWAP1 PUSH2 0x4F7B JUMP JUMPDEST SWAP5 SWAP4 POP POP POP POP JUMP JUMPDEST PUSH1 0x0 PUSH2 0x1FFD PUSH2 0x2017 PUSH3 0x15180 DUP5 PUSH2 0x4FC7 JUMP JUMPDEST PUSH2 0x2501 JUMP JUMPDEST PUSH1 0x0 DUP1 DUP1 PUSH2 0x2030 PUSH2 0x2017 PUSH3 0x15180 DUP7 PUSH2 0x4FC7 JUMP JUMPDEST POP SWAP2 POP SWAP2 POP PUSH2 0x1FFD DUP3 DUP3 PUSH2 0x25BB JUMP JUMPDEST PUSH1 0x0 PUSH2 0xF49 DUP4 PUSH1 0x1 PUSH1 0x1 PUSH1 0xA0 SHL SUB DUP5 AND PUSH2 0x2641 JUMP JUMPDEST PUSH1 0x0 PUSH2 0xF49 DUP4 PUSH1 0x1 PUSH1 0x1 PUSH1 0xA0 SHL SUB DUP5 AND PUSH2 0x273B JUMP JUMPDEST PUSH1 0x0 PUSH1 0x1 PUSH1 0x1 PUSH1 0xA0 SHL SUB DUP5 AND ISZERO DUP1 ISZERO PUSH2 0x2080 JUMPI POP DUP3 ISZERO JUMPDEST DUP1 ISZERO PUSH2 0x208A JUMPI POP DUP2 ISZERO JUMPDEST SWAP1 POP PUSH1 0x0 PUSH1 0x1 PUSH1 0x1 PUSH1 0xA0 SHL SUB DUP6 AND ISZERO DUP1 ISZERO SWAP1 PUSH2 0x20AE JUMPI POP DUP3 ISZERO DUP1 PUSH2 0x20AE JUMPI POP DUP4 DUP4 LT ISZERO JUMPDEST SWAP1 POP DUP2 ISZERO DUP1 ISZERO PUSH2 0x20BC JUMPI POP DUP1 ISZERO JUMPDEST ISZERO PUSH2 0x210C JUMPI PUSH1 0x40 MLOAD PUSH32 0xCA1F048300000000000000000000000000000000000000000000000000000000 DUP2 MSTORE PUSH1 0x1 PUSH1 0x1 PUSH1 0xA0 SHL SUB DUP7 AND PUSH1 0x4 DUP3 ADD MSTORE PUSH1 0x24 DUP2 ADD DUP6 SWAP1 MSTORE PUSH1 0x44 DUP2 ADD DUP5 SWAP1 MSTORE PUSH1 0x64 ADD PUSH2 0xB50 JUMP JUMPDEST POP POP DUP4 SLOAD PUSH32 0xFFFFFFFFFFFFFFFFFFFFFFFF0000000000000000000000000000000000000000 AND PUSH1 0x1 PUSH1 0x1 PUSH1 0xA0 SHL SUB SWAP4 SWAP1 SWAP4 AND SWAP3 SWAP1 SWAP3 OR DUP4 SSTORE PUSH1 0x1 DUP4 ADD SSTORE PUSH1 0x2 SWAP1 SWAP2 ADD SSTORE JUMP JUMPDEST PUSH2 0x215B DUP3 DUP3 PUSH2 0x278A JUMP JUMPDEST PUSH2 0x2165 DUP3 DUP3 PUSH2 0x2794 JUMP JUMPDEST PUSH2 0x216F DUP3 DUP3 PUSH2 0x27D1 JUMP JUMPDEST PUSH2 0x2179 DUP3 DUP3 PUSH2 0x28CD JUMP JUMPDEST PUSH2 0x2183 DUP3 DUP3 PUSH2 0x2B20 JUMP JUMPDEST PUSH2 0x218D DUP3 DUP3 PUSH2 0x2B6A JUMP JUMPDEST PUSH2 0x86D DUP3 DUP3 PUSH2 0x2C57 JUMP JUMPDEST PUSH2 0x21A1 DUP3 DUP3 PUSH2 0x2D6D JUMP JUMPDEST PUSH2 0x21AB DUP3 DUP3 PUSH2 0x2E0F JUMP JUMPDEST PUSH2 0x21B5 DUP3 DUP3 PUSH2 0x2E31 JUMP JUMPDEST PUSH2 0x86D DUP3 DUP3 PUSH2 0x307B JUMP JUMPDEST PUSH1 0x0 PUSH1 0x1 PUSH1 0x1 PUSH1 0xA0 SHL SUB DUP5 AND ISZERO DUP1 ISZERO PUSH2 0x21D6 JUMPI POP DUP3 ISZERO JUMPDEST DUP1 ISZERO PUSH2 0x21E0 JUMPI POP DUP2 ISZERO JUMPDEST SWAP1 POP PUSH1 0x0 PUSH1 0x1 PUSH1 0x1 PUSH1 0xA0 SHL SUB DUP6 AND ISZERO DUP1 ISZERO SWAP1 PUSH2 0x21FC JUMPI POP PUSH1 0x0 DUP5 GT JUMPDEST DUP1 ISZERO PUSH2 0x2208 JUMPI POP PUSH1 0x0 DUP4 GT JUMPDEST SWAP1 POP DUP2 ISZERO DUP1 ISZERO PUSH2 0x2216 JUMPI POP DUP1 ISZERO JUMPDEST ISZERO PUSH2 0x2266 JUMPI PUSH1 0x40 MLOAD PUSH32 0xF5DEB5DC00000000000000000000000000000000000000000000000000000000 DUP2 MSTORE PUSH1 0x1 PUSH1 0x1 PUSH1 0xA0 SHL SUB DUP7 AND PUSH1 0x4 DUP3 ADD MSTORE PUSH1 0x24 DUP2 ADD DUP6 SWAP1 MSTORE PUSH1 0x44 DUP2 ADD DUP5 SWAP1 MSTORE PUSH1 0x64 ADD PUSH2 0xB50 JUMP JUMPDEST PUSH1 0x3 DUP7 ADD DUP4 SWAP1 SSTORE PUSH1 0x1 DUP7 ADD DUP5 SWAP1 SSTORE DUP2 ISZERO PUSH2 0x228D JUMPI PUSH1 0x0 PUSH1 0x2 DUP8 ADD DUP2 SWAP1 SSTORE PUSH1 0x4 DUP8 ADD SSTORE PUSH2 0x22F9 JUMP JUMPDEST DUP6 PUSH1 0x4 ADD SLOAD PUSH1 0x0 SUB PUSH2 0x22B4 JUMPI PUSH1 0x0 PUSH1 0x2 DUP8 ADD SSTORE PUSH2 0x22AA DUP4 TIMESTAMP PUSH2 0x4FDB JUMP JUMPDEST PUSH1 0x4 DUP8 ADD SSTORE PUSH2 0x22F9 JUMP JUMPDEST DUP6 SLOAD PUSH1 0x1 PUSH1 0x1 PUSH1 0xA0 SHL SUB DUP7 DUP2 AND SWAP2 AND EQ PUSH2 0x22F9 JUMPI DUP6 SLOAD PUSH1 0x0 SWAP1 PUSH2 0x22E0 SWAP1 PUSH1 0x1 PUSH1 0x1 PUSH1 0xA0 SHL SUB AND DUP8 PUSH2 0x30A8 JUMP JUMPDEST PUSH1 0x2 DUP9 ADD SLOAD SWAP1 SWAP2 POP PUSH2 0x22F2 SWAP1 DUP3 PUSH2 0x30B4 JUMP JUMPDEST PUSH1 0x2 DUP9 ADD SSTORE POP JUMPDEST POP POP DUP4 SLOAD PUSH32 0xFFFFFFFFFFFFFFFFFFFFFFFF0000000000000000000000000000000000000000 AND PUSH1 0x1 PUSH1 0x1 PUSH1 0xA0 SHL SUB SWAP4 SWAP1 SWAP4 AND SWAP3 SWAP1 SWAP3 OR SWAP1 SWAP3 SSTORE POP POP JUMP JUMPDEST PUSH1 0x0 SLOAD PUSH2 0x100 SWAP1 DIV PUSH1 0xFF AND PUSH2 0x23A1 JUMPI PUSH1 0x40 MLOAD PUSH3 0x461BCD PUSH1 0xE5 SHL DUP2 MSTORE PUSH1 0x20 PUSH1 0x4 DUP3 ADD MSTORE PUSH1 0x2B PUSH1 0x24 DUP3 ADD MSTORE PUSH32 0x496E697469616C697A61626C653A20636F6E7472616374206973206E6F742069 PUSH1 0x44 DUP3 ADD MSTORE PUSH11 0x6E697469616C697A696E67 PUSH1 0xA8 SHL PUSH1 0x64 DUP3 ADD MSTORE PUSH1 0x84 ADD PUSH2 0xB50 JUMP JUMPDEST DUP1 MLOAD PUSH2 0x23AC SWAP1 PUSH2 0x312A JUMP JUMPDEST PUSH2 0x23B4 PUSH2 0x320C JUMP JUMPDEST PUSH2 0x23C1 DUP2 PUSH1 0x20 ADD MLOAD PUSH2 0x3281 JUMP JUMPDEST PUSH2 0x23CE DUP2 PUSH1 0x40 ADD MLOAD PUSH2 0x32F5 JUMP JUMPDEST PUSH2 0x23DB DUP2 PUSH1 0x60 ADD MLOAD PUSH2 0x3369 JUMP JUMPDEST PUSH2 0x23E8 DUP2 PUSH1 0x80 ADD MLOAD PUSH2 0x33DD JUMP JUMPDEST PUSH2 0x23F5 DUP2 PUSH1 0xA0 ADD MLOAD PUSH2 0x3451 JUMP JUMPDEST PUSH2 0x23FE DUP2 PUSH2 0x34C5 JUMP JUMPDEST POP JUMP JUMPDEST PUSH1 0x0 SLOAD PUSH2 0x100 SWAP1 DIV PUSH1 0xFF AND PUSH2 0x246C JUMPI PUSH1 0x40 MLOAD PUSH3 0x461BCD PUSH1 0xE5 SHL DUP2 MSTORE PUSH1 0x20 PUSH1 0x4 DUP3 ADD MSTORE PUSH1 0x2B PUSH1 0x24 DUP3 ADD MSTORE PUSH32 0x496E697469616C697A61626C653A20636F6E7472616374206973206E6F742069 PUSH1 0x44 DUP3 ADD MSTORE PUSH11 0x6E697469616C697A696E67 PUSH1 0xA8 SHL PUSH1 0x64 DUP3 ADD MSTORE PUSH1 0x84 ADD PUSH2 0xB50 JUMP JUMPDEST PUSH2 0x2475 DUP3 PUSH2 0x1CD6 JUMP JUMPDEST PUSH2 0x7CC DUP2 PUSH2 0x1D78 JUMP JUMPDEST DUP1 DUP3 EQ DUP1 ISZERO PUSH2 0x248C JUMPI POP DUP2 ISZERO ISZERO JUMPDEST ISZERO PUSH2 0x24C6 JUMPI PUSH1 0x40 MLOAD PUSH32 0xFB49EDB00000000000000000000000000000000000000000000000000000000 DUP2 MSTORE PUSH1 0x4 DUP2 ADD DUP4 SWAP1 MSTORE PUSH1 0x24 ADD PUSH2 0xB50 JUMP JUMPDEST PUSH1 0x2 DUP3 SWAP1 SSTORE PUSH1 0x3 DUP2 SWAP1 SSTORE PUSH1 0x40 MLOAD DUP2 SWAP1 DUP4 SWAP1 PUSH32 0xF950A929751D87DB181A0A517DF21BB3ECD433ABBA584594402DB4B58A554835 SWAP1 PUSH1 0x0 SWAP1 LOG3 POP POP JUMP JUMPDEST PUSH1 0x0 DUP1 DUP1 DUP4 PUSH3 0x264965 DUP2 ADD DUP3 PUSH3 0x23AB1 PUSH1 0x4 DUP4 MUL SDIV SWAP1 POP PUSH1 0x4 PUSH1 0x3 PUSH3 0x23AB1 DUP4 MUL ADD SDIV SWAP1 SWAP2 SUB SWAP1 PUSH1 0x0 PUSH3 0x164B09 PUSH2 0xFA0 PUSH1 0x1 DUP6 ADD MUL SDIV SWAP1 POP PUSH1 0x4 PUSH2 0x5B5 DUP3 MUL SDIV DUP4 SUB PUSH1 0x1F ADD SWAP3 POP PUSH1 0x0 PUSH2 0x98F DUP5 PUSH1 0x50 MUL DUP2 PUSH2 0x255E JUMPI PUSH2 0x255E PUSH2 0x4F98 JUMP JUMPDEST SDIV SWAP1 POP PUSH1 0x0 PUSH1 0x50 PUSH2 0x98F DUP4 MUL SDIV DUP6 SUB SWAP1 POP PUSH1 0xB DUP3 SDIV PUSH32 0xFFFFFFFFFFFFFFFFFFFFFFFFFFFFFFFFFFFFFFFFFFFFFFFFFFFFFFFFFFFFFFCF SWAP5 SWAP1 SWAP5 ADD PUSH1 0x64 MUL SWAP3 SWAP1 SWAP3 ADD DUP4 ADD SWAP10 PUSH1 0x2 PUSH1 0xC SWAP1 SWAP5 MUL SWAP1 SWAP2 SUB SWAP3 SWAP1 SWAP3 ADD SWAP8 POP SWAP6 POP SWAP4 POP POP POP POP JUMP JUMPDEST PUSH1 0x0 DUP2 PUSH1 0x1 EQ DUP1 PUSH2 0x25CC JUMPI POP DUP2 PUSH1 0x3 EQ JUMPDEST DUP1 PUSH2 0x25D7 JUMPI POP DUP2 PUSH1 0x5 EQ JUMPDEST DUP1 PUSH2 0x25E2 JUMPI POP DUP2 PUSH1 0x7 EQ JUMPDEST DUP1 PUSH2 0x25ED JUMPI POP DUP2 PUSH1 0x8 EQ JUMPDEST DUP1 PUSH2 0x25F8 JUMPI POP DUP2 PUSH1 0xA EQ JUMPDEST DUP1 PUSH2 0x2603 JUMPI POP DUP2 PUSH1 0xC EQ JUMPDEST ISZERO PUSH2 0x2610 JUMPI POP PUSH1 0x1F PUSH2 0xD8F JUMP JUMPDEST DUP2 PUSH1 0x2 EQ PUSH2 0x2620 JUMPI POP PUSH1 0x1E PUSH2 0xD8F JUMP JUMPDEST PUSH2 0x2629 DUP4 PUSH2 0x3530 JUMP JUMPDEST PUSH2 0x2634 JUMPI PUSH1 0x1C PUSH2 0x2637 JUMP JUMPDEST PUSH1 0x1D JUMPDEST PUSH1 0xFF AND SWAP4 SWAP3 POP POP POP JUMP JUMPDEST PUSH1 0x0 DUP2 DUP2 MSTORE PUSH1 0x1 DUP4 ADD PUSH1 0x20 MSTORE PUSH1 0x40 DUP2 KECCAK256 SLOAD DUP1 ISZERO PUSH2 0x272A JUMPI PUSH1 0x0 PUSH2 0x2665 PUSH1 0x1 DUP4 PUSH2 0x4FEE JUMP JUMPDEST DUP6 SLOAD SWAP1 SWAP2 POP PUSH1 0x0 SWAP1 PUSH2 0x2679 SWAP1 PUSH1 0x1 SWAP1 PUSH2 0x4FEE JUMP JUMPDEST SWAP1 POP DUP2 DUP2 EQ PUSH2 0x26DE JUMPI PUSH1 0x0 DUP7 PUSH1 0x0 ADD DUP3 DUP2 SLOAD DUP2 LT PUSH2 0x2699 JUMPI PUSH2 0x2699 PUSH2 0x4C80 JUMP JUMPDEST SWAP1 PUSH1 0x0 MSTORE PUSH1 0x20 PUSH1 0x0 KECCAK256 ADD SLOAD SWAP1 POP DUP1 DUP8 PUSH1 0x0 ADD DUP5 DUP2 SLOAD DUP2 LT PUSH2 0x26BC JUMPI PUSH2 0x26BC PUSH2 0x4C80 JUMP JUMPDEST PUSH1 0x0 SWAP2 DUP3 MSTORE PUSH1 0x20 DUP1 DUP4 KECCAK256 SWAP1 SWAP2 ADD SWAP3 SWAP1 SWAP3 SSTORE SWAP2 DUP3 MSTORE PUSH1 0x1 DUP9 ADD SWAP1 MSTORE PUSH1 0x40 SWAP1 KECCAK256 DUP4 SWAP1 SSTORE JUMPDEST DUP6 SLOAD DUP7 SWAP1 DUP1 PUSH2 0x26EF JUMPI PUSH2 0x26EF PUSH2 0x5001 JUMP JUMPDEST PUSH1 0x1 SWAP1 SUB DUP2 DUP2 SWAP1 PUSH1 0x0 MSTORE PUSH1 0x20 PUSH1 0x0 KECCAK256 ADD PUSH1 0x0 SWAP1 SSTORE SWAP1 SSTORE DUP6 PUSH1 0x1 ADD PUSH1 0x0 DUP7 DUP2 MSTORE PUSH1 0x20 ADD SWAP1 DUP2 MSTORE PUSH1 0x20 ADD PUSH1 0x0 KECCAK256 PUSH1 0x0 SWAP1 SSTORE PUSH1 0x1 SWAP4 POP POP POP POP PUSH2 0xD8F JUMP JUMPDEST PUSH1 0x0 SWAP2 POP POP PUSH2 0xD8F JUMP JUMPDEST POP SWAP3 SWAP2 POP POP JUMP JUMPDEST PUSH1 0x0 DUP2 DUP2 MSTORE PUSH1 0x1 DUP4 ADD PUSH1 0x20 MSTORE PUSH1 0x40 DUP2 KECCAK256 SLOAD PUSH2 0x2782 JUMPI POP DUP2 SLOAD PUSH1 0x1 DUP2 DUP2 ADD DUP5 SSTORE PUSH1 0x0 DUP5 DUP2 MSTORE PUSH1 0x20 DUP1 DUP3 KECCAK256 SWAP1 SWAP4 ADD DUP5 SWAP1 SSTORE DUP5 SLOAD DUP5 DUP3 MSTORE DUP3 DUP7 ADD SWAP1 SWAP4 MSTORE PUSH1 0x40 SWAP1 KECCAK256 SWAP2 SWAP1 SWAP2 SSTORE PUSH2 0xD8F JUMP JUMPDEST POP PUSH1 0x0 PUSH2 0xD8F JUMP JUMPDEST PUSH2 0x86D DUP3 DUP3 PUSH2 0x356C JUMP JUMPDEST PUSH1 0x4 SLOAD PUSH1 0xFF AND ISZERO PUSH2 0x86D JUMPI PUSH1 0x40 MLOAD PUSH32 0xC0F2312800000000000000000000000000000000000000000000000000000000 DUP2 MSTORE PUSH1 0x4 ADD PUSH1 0x40 MLOAD DUP1 SWAP2 SUB SWAP1 REVERT JUMPDEST GAS PUSH1 0x5 SSTORE PUSH1 0x40 DUP1 MLOAD PUSH1 0x80 DUP2 ADD DUP3 MSTORE PUSH1 0x6 SLOAD DUP1 DUP3 MSTORE PUSH1 0x7 SLOAD PUSH1 0x20 DUP4 ADD MSTORE PUSH1 0x8 SLOAD SWAP3 DUP3 ADD SWAP3 SWAP1 SWAP3 MSTORE PUSH1 0x9 SLOAD PUSH1 0x60 DUP3 ADD MSTORE SWAP1 PUSH1 0x0 SWAP1 ISZERO DUP1 PUSH2 0x2810 JUMPI POP DUP2 MLOAD GASPRICE GT ISZERO JUMPDEST SWAP1 POP DUP1 PUSH2 0x2855 JUMPI DUP2 MLOAD PUSH1 0x40 MLOAD PUSH32 0xCBB35EB700000000000000000000000000000000000000000000000000000000 DUP2 MSTORE GASPRICE PUSH1 0x4 DUP3 ADD MSTORE PUSH1 0x24 DUP2 ADD SWAP2 SWAP1 SWAP2 MSTORE PUSH1 0x44 ADD PUSH2 0xB50 JUMP JUMPDEST PUSH1 0x0 PUSH2 0x2861 BASEFEE GASPRICE PUSH2 0x4FEE JUMP JUMPDEST SWAP1 POP PUSH1 0x0 DUP4 PUSH1 0x20 ADD MLOAD PUSH1 0x0 EQ DUP1 PUSH2 0x287C JUMPI POP DUP4 PUSH1 0x20 ADD MLOAD DUP3 GT ISZERO JUMPDEST SWAP1 POP DUP1 PUSH2 0x28C5 JUMPI PUSH1 0x20 DUP5 ADD MLOAD PUSH1 0x40 MLOAD PUSH32 0x56E5387F00000000000000000000000000000000000000000000000000000000 DUP2 MSTORE PUSH2 0xB50 SWAP2 DUP5 SWAP2 PUSH1 0x4 ADD SWAP2 DUP3 MSTORE PUSH1 0x20 DUP3 ADD MSTORE PUSH1 0x40 ADD SWAP1 JUMP JUMPDEST POP POP POP POP POP POP JUMP JUMPDEST PUSH1 0xA SLOAD PUSH1 0xB SLOAD PUSH1 0xC SLOAD PUSH1 0xE SLOAD PUSH1 0xFF SWAP1 SWAP4 AND SWAP3 TIMESTAMP DUP3 GT ISZERO PUSH2 0x2922 JUMPI PUSH1 0x40 MLOAD PUSH32 0x13CE60B00000000000000000000000000000000000000000000000000000000 DUP2 MSTORE TIMESTAMP PUSH1 0x4 DUP3 ADD MSTORE PUSH1 0x24 DUP2 ADD DUP4 SWAP1 MSTORE PUSH1 0x44 ADD PUSH2 0xB50 JUMP JUMPDEST PUSH1 0x0 DUP5 PUSH1 0x2 DUP2 GT ISZERO PUSH2 0x2936 JUMPI PUSH2 0x2936 PUSH2 0x4785 JUMP JUMPDEST SUB PUSH2 0x2A08 JUMPI DUP3 PUSH1 0x0 SUB PUSH2 0x294B JUMPI POP POP POP POP POP POP JUMP JUMPDEST DUP1 PUSH1 0x0 SUB PUSH2 0x2965 JUMPI PUSH2 0x295D DUP4 TIMESTAMP PUSH2 0x4FDB JUMP JUMPDEST PUSH1 0xD SSTORE PUSH2 0x28C5 JUMP JUMPDEST PUSH1 0x0 PUSH2 0x2971 DUP4 TIMESTAMP PUSH2 0x4FEE JUMP JUMPDEST SWAP1 POP PUSH1 0x0 PUSH2 0x297F DUP6 DUP4 PUSH2 0x4FC7 JUMP JUMPDEST SWAP1 POP PUSH1 0x0 PUSH2 0x298D DUP7 DUP4 PUSH2 0x4EED JUMP JUMPDEST PUSH2 0x2997 SWAP1 DUP5 PUSH2 0x4FEE JUMP JUMPDEST SWAP1 POP DUP4 DUP2 GT ISZERO PUSH2 0x29DC JUMPI PUSH1 0x40 MLOAD PUSH32 0x13CE60B00000000000000000000000000000000000000000000000000000000 DUP2 MSTORE TIMESTAMP PUSH1 0x4 DUP3 ADD MSTORE PUSH1 0x24 DUP2 ADD DUP7 SWAP1 MSTORE PUSH1 0x44 ADD PUSH2 0xB50 JUMP JUMPDEST DUP6 PUSH2 0x29E8 DUP4 PUSH1 0x1 PUSH2 0x4FDB JUMP JUMPDEST PUSH2 0x29F2 SWAP2 SWAP1 PUSH2 0x4EED JUMP JUMPDEST PUSH2 0x29FC SWAP1 DUP7 PUSH2 0x4FDB JUMP JUMPDEST PUSH1 0xD SSTORE POP PUSH2 0x28C5 SWAP2 POP POP JUMP JUMPDEST DUP2 TIMESTAMP LT ISZERO DUP1 ISZERO PUSH2 0x2A21 JUMPI POP PUSH2 0x2A1D DUP2 DUP4 PUSH2 0x4FDB JUMP JUMPDEST TIMESTAMP GT ISZERO JUMPDEST ISZERO PUSH2 0x2A30 JUMPI PUSH2 0x295D DUP3 DUP5 PUSH2 0x3601 JUMP JUMPDEST PUSH1 0x0 PUSH1 0x1 DUP6 PUSH1 0x2 DUP2 GT ISZERO PUSH2 0x2A46 JUMPI PUSH2 0x2A46 PUSH2 0x4785 JUMP JUMPDEST EQ PUSH2 0x2A59 JUMPI PUSH2 0x2A54 TIMESTAMP PUSH2 0x201C JUMP JUMPDEST PUSH2 0x2A62 JUMP JUMPDEST PUSH2 0x2A62 DUP4 PUSH2 0x2005 JUMP JUMPDEST SWAP1 POP PUSH1 0x0 PUSH2 0x2A70 DUP5 DUP4 PUSH2 0x3699 JUMP JUMPDEST SWAP1 POP DUP1 TIMESTAMP LT ISZERO PUSH2 0x2AB5 JUMPI PUSH1 0x40 MLOAD PUSH32 0x13CE60B00000000000000000000000000000000000000000000000000000000 DUP2 MSTORE TIMESTAMP PUSH1 0x4 DUP3 ADD MSTORE PUSH1 0x24 DUP2 ADD DUP3 SWAP1 MSTORE PUSH1 0x44 ADD PUSH2 0xB50 JUMP JUMPDEST PUSH1 0x0 PUSH2 0x2AC1 DUP5 DUP4 PUSH2 0x4FDB JUMP JUMPDEST SWAP1 POP TIMESTAMP DUP2 LT DUP1 ISZERO PUSH2 0x2B07 JUMPI PUSH1 0x40 MLOAD PUSH32 0x13CE60B00000000000000000000000000000000000000000000000000000000 DUP2 MSTORE TIMESTAMP PUSH1 0x4 DUP3 ADD MSTORE PUSH1 0x24 DUP2 ADD DUP4 SWAP1 MSTORE PUSH1 0x44 ADD PUSH2 0xB50 JUMP JUMPDEST PUSH2 0x2B11 DUP4 DUP9 PUSH2 0x3601 JUMP JUMPDEST PUSH1 0xD SSTORE POP POP POP POP POP POP POP POP POP POP JUMP JUMPDEST PUSH2 0x2B29 DUP3 PUSH2 0xF12 JUMP JUMPDEST PUSH2 0x86D JUMPI PUSH1 0x40 MLOAD PUSH32 0x7A24104500000000000000000000000000000000000000000000000000000000 DUP2 MSTORE PUSH1 0x1 PUSH1 0x1 PUSH1 0xA0 SHL SUB DUP4 AND PUSH1 0x4 DUP3 ADD MSTORE PUSH1 0x24 ADD PUSH2 0xB50 JUMP JUMPDEST PUSH1 0x0 PUSH2 0x2B75 DUP4 PUSH2 0x1970 JUMP JUMPDEST DUP1 MLOAD SWAP1 SWAP2 POP PUSH1 0x1 PUSH1 0x1 PUSH1 0xA0 SHL SUB AND PUSH2 0x2B8C JUMPI POP POP POP JUMP JUMPDEST PUSH1 0x0 DUP4 PUSH1 0x1 PUSH1 0x1 PUSH1 0xA0 SHL SUB AND DUP3 PUSH1 0x0 ADD MLOAD PUSH1 0x1 PUSH1 0x1 PUSH1 0xA0 SHL SUB AND EQ PUSH2 0x2BC8 JUMPI PUSH2 0x2BC3 PUSH2 0x2BBC DUP6 DUP5 PUSH1 0x0 ADD MLOAD PUSH2 0x30A8 JUMP JUMPDEST DUP5 SWAP1 PUSH2 0x30B4 JUMP JUMPDEST PUSH2 0x2BCA JUMP JUMPDEST DUP3 JUMPDEST SWAP1 POP PUSH1 0x0 DUP3 PUSH1 0x20 ADD MLOAD DUP3 LT ISZERO DUP1 ISZERO PUSH2 0x2BF2 JUMPI POP PUSH1 0x40 DUP4 ADD MLOAD ISZERO DUP1 PUSH2 0x2BF2 JUMPI POP DUP3 PUSH1 0x40 ADD MLOAD DUP3 GT ISZERO JUMPDEST SWAP1 POP DUP1 PUSH2 0x6CB JUMPI DUP3 MLOAD PUSH1 0x20 DUP5 ADD MLOAD PUSH1 0x40 DUP1 DUP7 ADD MLOAD SWAP1 MLOAD PUSH32 0x7C63A4B000000000000000000000000000000000000000000000000000000000 DUP2 MSTORE PUSH1 0x1 PUSH1 0x1 PUSH1 0xA0 SHL SUB SWAP1 SWAP4 AND PUSH1 0x4 DUP5 ADD MSTORE PUSH1 0x24 DUP4 ADD DUP6 SWAP1 MSTORE PUSH1 0x44 DUP4 ADD SWAP2 SWAP1 SWAP2 MSTORE PUSH1 0x64 DUP3 ADD MSTORE PUSH1 0x84 ADD PUSH2 0xB50 JUMP JUMPDEST PUSH1 0x0 PUSH2 0x2C62 DUP4 PUSH2 0x1E76 JUMP JUMPDEST PUSH1 0x40 DUP1 MLOAD PUSH1 0xA0 DUP2 ADD DUP3 MSTORE DUP3 SLOAD PUSH1 0x1 PUSH1 0x1 PUSH1 0xA0 SHL SUB AND DUP1 DUP3 MSTORE PUSH1 0x1 DUP5 ADD SLOAD PUSH1 0x20 DUP4 ADD MSTORE PUSH1 0x2 DUP5 ADD SLOAD SWAP3 DUP3 ADD SWAP3 SWAP1 SWAP3 MSTORE PUSH1 0x3 DUP4 ADD SLOAD PUSH1 0x60 DUP3 ADD MSTORE PUSH1 0x4 SWAP1 SWAP3 ADD SLOAD PUSH1 0x80 DUP4 ADD MSTORE SWAP1 SWAP2 POP PUSH2 0x2CB1 JUMPI POP POP POP JUMP JUMPDEST PUSH1 0x0 DUP4 PUSH1 0x1 PUSH1 0x1 PUSH1 0xA0 SHL SUB AND DUP3 PUSH1 0x0 ADD MLOAD PUSH1 0x1 PUSH1 0x1 PUSH1 0xA0 SHL SUB AND EQ PUSH2 0x2CE6 JUMPI PUSH2 0x2CE1 PUSH2 0x2BBC DUP6 DUP5 PUSH1 0x0 ADD MLOAD PUSH2 0x30A8 JUMP JUMPDEST PUSH2 0x2CE8 JUMP JUMPDEST DUP3 JUMPDEST SWAP1 POP PUSH1 0x0 DUP3 PUSH1 0x80 ADD MLOAD TIMESTAMP LT PUSH2 0x2CFE JUMPI PUSH1 0x0 PUSH2 0x2D04 JUMP JUMPDEST DUP3 PUSH1 0x40 ADD MLOAD JUMPDEST PUSH2 0x2D0E SWAP1 DUP4 PUSH2 0x4FDB JUMP JUMPDEST SWAP1 POP DUP3 PUSH1 0x20 ADD MLOAD DUP2 GT ISZERO PUSH2 0x6CB JUMPI DUP3 MLOAD PUSH1 0x20 DUP5 ADD MLOAD PUSH1 0x40 MLOAD PUSH32 0xB8858D5D00000000000000000000000000000000000000000000000000000000 DUP2 MSTORE PUSH1 0x1 PUSH1 0x1 PUSH1 0xA0 SHL SUB SWAP1 SWAP3 AND PUSH1 0x4 DUP4 ADD MSTORE PUSH1 0x24 DUP3 ADD MSTORE PUSH1 0x44 DUP2 ADD DUP3 SWAP1 MSTORE PUSH1 0x64 ADD PUSH2 0xB50 JUMP JUMPDEST PUSH1 0x0 PUSH2 0x2D78 DUP4 PUSH2 0x1E76 JUMP JUMPDEST DUP1 SLOAD SWAP1 SWAP2 POP PUSH1 0x1 PUSH1 0x1 PUSH1 0xA0 SHL SUB AND PUSH2 0x2D8F JUMPI POP POP POP JUMP JUMPDEST DUP1 SLOAD PUSH1 0x0 SWAP1 PUSH1 0x1 PUSH1 0x1 PUSH1 0xA0 SHL SUB DUP6 DUP2 AND SWAP2 AND EQ PUSH2 0x2DC5 JUMPI DUP2 SLOAD PUSH2 0x2DC0 SWAP1 PUSH2 0x2BBC SWAP1 DUP7 SWAP1 PUSH1 0x1 PUSH1 0x1 PUSH1 0xA0 SHL SUB AND PUSH2 0x30A8 JUMP JUMPDEST PUSH2 0x2DC7 JUMP JUMPDEST DUP3 JUMPDEST SWAP1 POP DUP2 PUSH1 0x4 ADD SLOAD TIMESTAMP LT PUSH2 0x2DF0 JUMPI PUSH1 0x0 PUSH1 0x2 DUP4 ADD SSTORE PUSH1 0x3 DUP3 ADD SLOAD PUSH2 0x2DEA SWAP1 TIMESTAMP PUSH2 0x4FDB JUMP JUMPDEST PUSH1 0x4 DUP4 ADD SSTORE JUMPDEST DUP1 DUP3 PUSH1 0x2 ADD PUSH1 0x0 DUP3 DUP3 SLOAD PUSH2 0x2E04 SWAP2 SWAP1 PUSH2 0x4FDB JUMP JUMPDEST SWAP1 SWAP2 SSTORE POP POP POP POP POP POP JUMP JUMPDEST PUSH1 0xD SLOAD PUSH1 0x0 SUB PUSH2 0x2E1D JUMPI POP POP JUMP JUMPDEST PUSH2 0x2E28 PUSH1 0xD SLOAD PUSH2 0x36C1 JUMP JUMPDEST POP POP PUSH1 0x0 PUSH1 0xD SSTORE JUMP JUMPDEST PUSH1 0x5 SLOAD PUSH1 0x0 SUB PUSH2 0x2E6D JUMPI PUSH1 0x40 MLOAD PUSH32 0x1F5B8FC600000000000000000000000000000000000000000000000000000000 DUP2 MSTORE PUSH1 0x4 ADD PUSH1 0x40 MLOAD DUP1 SWAP2 SUB SWAP1 REVERT JUMPDEST PUSH1 0x40 DUP1 MLOAD PUSH1 0x80 DUP2 ADD DUP3 MSTORE PUSH1 0x6 SLOAD DUP2 MSTORE PUSH1 0x7 SLOAD PUSH1 0x20 DUP3 ADD MSTORE PUSH1 0x8 SLOAD SWAP2 DUP2 ADD SWAP2 SWAP1 SWAP2 MSTORE PUSH1 0x9 SLOAD PUSH1 0x60 DUP3 ADD MSTORE PUSH1 0x0 GAS PUSH1 0x5 SLOAD PUSH2 0x2EA6 SWAP2 SWAP1 PUSH2 0x4FEE JUMP JUMPDEST SWAP1 POP PUSH1 0x0 PUSH2 0x2EB4 GASPRICE DUP4 PUSH2 0x4EED JUMP JUMPDEST SWAP1 POP PUSH1 0x0 DUP4 PUSH1 0x40 ADD MLOAD PUSH1 0x0 EQ DUP1 PUSH2 0x2ECF JUMPI POP DUP4 PUSH1 0x40 ADD MLOAD DUP3 GT ISZERO JUMPDEST SWAP1 POP DUP1 PUSH2 0x2F19 JUMPI DUP2 DUP5 PUSH1 0x40 ADD MLOAD PUSH1 0x40 MLOAD PUSH32 0xAF258EF200000000000000000000000000000000000000000000000000000000 DUP2 MSTORE PUSH1 0x4 ADD PUSH2 0xB50 SWAP3 SWAP2 SWAP1 SWAP2 DUP3 MSTORE PUSH1 0x20 DUP3 ADD MSTORE PUSH1 0x40 ADD SWAP1 JUMP JUMPDEST PUSH1 0x0 PUSH1 0x5 SSTORE PUSH1 0x60 DUP5 ADD MLOAD ISZERO DUP1 ISZERO SWAP1 PUSH2 0x2F31 JUMPI POP PUSH1 0x0 DUP6 GT JUMPDEST ISZERO PUSH2 0x28C5 JUMPI PUSH1 0x0 PUSH2 0x3004 ADDRESS PUSH1 0x1 PUSH1 0x1 PUSH1 0xA0 SHL SUB AND PUSH4 0x4FD49EFD PUSH1 0x40 MLOAD DUP2 PUSH4 0xFFFFFFFF AND PUSH1 0xE0 SHL DUP2 MSTORE PUSH1 0x4 ADD PUSH1 0x20 PUSH1 0x40 MLOAD DUP1 DUP4 SUB DUP2 DUP7 GAS STATICCALL ISZERO DUP1 ISZERO PUSH2 0x2F79 JUMPI RETURNDATASIZE PUSH1 0x0 DUP1 RETURNDATACOPY RETURNDATASIZE PUSH1 0x0 REVERT JUMPDEST POP POP POP POP PUSH1 0x40 MLOAD RETURNDATASIZE PUSH1 0x1F NOT PUSH1 0x1F DUP3 ADD AND DUP3 ADD DUP1 PUSH1 0x40 MSTORE POP DUP2 ADD SWAP1 PUSH2 0x2F9D SWAP2 SWAP1 PUSH2 0x5030 JUMP JUMPDEST PUSH1 0x1 PUSH1 0x1 PUSH1 0xA0 SHL SUB AND PUSH4 0x17FCB39B PUSH1 0x40 MLOAD DUP2 PUSH4 0xFFFFFFFF AND PUSH1 0xE0 SHL DUP2 MSTORE PUSH1 0x4 ADD PUSH1 0x20 PUSH1 0x40 MLOAD DUP1 DUP4 SUB DUP2 DUP7 GAS STATICCALL ISZERO DUP1 ISZERO PUSH2 0x2FDA JUMPI RETURNDATASIZE PUSH1 0x0 DUP1 RETURNDATACOPY RETURNDATASIZE PUSH1 0x0 REVERT JUMPDEST POP POP POP POP PUSH1 0x40 MLOAD RETURNDATASIZE PUSH1 0x1F NOT PUSH1 0x1F DUP3 ADD AND DUP3 ADD DUP1 PUSH1 0x40 MSTORE POP DUP2 ADD SWAP1 PUSH2 0x2FFE SWAP2 SWAP1 PUSH2 0x5030 JUMP JUMPDEST DUP9 PUSH2 0x30A8 JUMP JUMPDEST SWAP1 POP PUSH1 0x0 PUSH2 0x3012 DUP5 DUP4 PUSH2 0x36F6 JUMP JUMPDEST SWAP1 POP PUSH1 0x0 PUSH2 0x3020 DUP3 DUP10 PUSH2 0x379F JUMP JUMPDEST SWAP1 POP DUP7 PUSH1 0x60 ADD MLOAD DUP2 GT ISZERO PUSH2 0x3070 JUMPI PUSH1 0x60 DUP8 ADD MLOAD PUSH1 0x40 MLOAD PUSH32 0x297747F00000000000000000000000000000000000000000000000000000000 DUP2 MSTORE PUSH2 0xB50 SWAP2 DUP4 SWAP2 PUSH1 0x4 ADD SWAP2 DUP3 MSTORE PUSH1 0x20 DUP3 ADD MSTORE PUSH1 0x40 ADD SWAP1 JUMP JUMPDEST POP POP POP POP POP POP POP POP POP JUMP JUMPDEST PUSH1 0x40 MLOAD PUSH32 0x68F46C45A243A0E9065A97649FAF9A5AFE1692F2679E650C2F853B9CD734CC0E SWAP1 PUSH1 0x0 SWAP1 LOG1 POP POP JUMP JUMPDEST PUSH1 0x0 PUSH2 0xF49 DUP4 DUP4 PUSH2 0x3868 JUMP JUMPDEST PUSH1 0x0 DUP3 DUP3 MUL DUP4 ISZERO DUP1 ISZERO SWAP1 PUSH2 0x30D7 JUMPI POP DUP3 DUP5 DUP3 DUP2 PUSH2 0x30D3 JUMPI PUSH2 0x30D3 PUSH2 0x4F98 JUMP JUMPDEST DIV EQ ISZERO JUMPDEST ISZERO PUSH2 0x3118 JUMPI PUSH1 0x40 MLOAD PUSH32 0xE8E4A4FA00000000000000000000000000000000000000000000000000000000 DUP2 MSTORE PUSH1 0x4 DUP2 ADD DUP6 SWAP1 MSTORE PUSH1 0x24 DUP2 ADD DUP5 SWAP1 MSTORE PUSH1 0x44 ADD PUSH2 0xB50 JUMP JUMPDEST PUSH8 0xDE0B6B3A7640000 SWAP1 DIV SWAP4 SWAP3 POP POP POP JUMP JUMPDEST PUSH1 0x0 SLOAD PUSH2 0x100 SWAP1 DIV PUSH1 0xFF AND PUSH2 0x3195 JUMPI PUSH1 0x40 MLOAD PUSH3 0x461BCD PUSH1 0xE5 SHL DUP2 MSTORE PUSH1 0x20 PUSH1 0x4 DUP3 ADD MSTORE PUSH1 0x2B PUSH1 0x24 DUP3 ADD MSTORE PUSH32 0x496E697469616C697A61626C653A20636F6E7472616374206973206E6F742069 PUSH1 0x44 DUP3 ADD MSTORE PUSH11 0x6E697469616C697A696E67 PUSH1 0xA8 SHL PUSH1 0x64 DUP3 ADD MSTORE PUSH1 0x84 ADD PUSH2 0xB50 JUMP JUMPDEST PUSH2 0x3203 DUP2 PUSH1 0x0 ADD MLOAD PUSH1 0x1 PUSH1 0x1 PUSH1 0xA0 SHL SUB AND PUSH4 0xD09EDF31 PUSH1 0x40 MLOAD DUP2 PUSH4 0xFFFFFFFF AND PUSH1 0xE0 SHL DUP2 MSTORE PUSH1 0x4 ADD PUSH1 0x20 PUSH1 0x40 MLOAD DUP1 DUP4 SUB DUP2 DUP7 GAS STATICCALL ISZERO DUP1 ISZERO PUSH2 0x31DA JUMPI RETURNDATASIZE PUSH1 0x0 DUP1 RETURNDATACOPY RETURNDATASIZE PUSH1 0x0 REVERT JUMPDEST POP POP POP POP PUSH1 0x40 MLOAD RETURNDATASIZE PUSH1 0x1F NOT PUSH1 0x1F DUP3 ADD AND DUP3 ADD DUP1 PUSH1 0x40 MSTORE POP DUP2 ADD SWAP1 PUSH2 0x31FE SWAP2 SWAP1 PUSH2 0x5030 JUMP JUMPDEST PUSH2 0x3A76 JUMP JUMPDEST PUSH2 0x23FE DUP2 PUSH2 0x3AEA JUMP JUMPDEST PUSH1 0x0 SLOAD PUSH2 0x100 SWAP1 DIV PUSH1 0xFF AND PUSH2 0x3277 JUMPI PUSH1 0x40 MLOAD PUSH3 0x461BCD PUSH1 0xE5 SHL DUP2 MSTORE PUSH1 0x20 PUSH1 0x4 DUP3 ADD MSTORE PUSH1 0x2B PUSH1 0x24 DUP3 ADD MSTORE PUSH32 0x496E697469616C697A61626C653A20636F6E7472616374206973206E6F742069 PUSH1 0x44 DUP3 ADD MSTORE PUSH11 0x6E697469616C697A696E67 PUSH1 0xA8 SHL PUSH1 0x64 DUP3 ADD MSTORE PUSH1 0x84 ADD PUSH2 0xB50 JUMP JUMPDEST PUSH2 0x327F PUSH2 0x3BA2 JUMP JUMPDEST JUMP JUMPDEST PUSH1 0x0 SLOAD PUSH2 0x100 SWAP1 DIV PUSH1 0xFF AND PUSH2 0x32EC JUMPI PUSH1 0x40 MLOAD PUSH3 0x461BCD PUSH1 0xE5 SHL DUP2 MSTORE PUSH1 0x20 PUSH1 0x4 DUP3 ADD MSTORE PUSH1 0x2B PUSH1 0x24 DUP3 ADD MSTORE PUSH32 0x496E697469616C697A61626C653A20636F6E7472616374206973206E6F742069 PUSH1 0x44 DUP3 ADD MSTORE PUSH11 0x6E697469616C697A696E67 PUSH1 0xA8 SHL PUSH1 0x64 DUP3 ADD MSTORE PUSH1 0x84 ADD PUSH2 0xB50 JUMP JUMPDEST PUSH2 0x23FE DUP2 PUSH2 0x3C0D JUMP JUMPDEST PUSH1 0x0 SLOAD PUSH2 0x100 SWAP1 DIV PUSH1 0xFF AND PUSH2 0x3360 JUMPI PUSH1 0x40 MLOAD PUSH3 0x461BCD PUSH1 0xE5 SHL DUP2 MSTORE PUSH1 0x20 PUSH1 0x4 DUP3 ADD MSTORE PUSH1 0x2B PUSH1 0x24 DUP3 ADD MSTORE PUSH32 0x496E697469616C697A61626C653A20636F6E7472616374206973206E6F742069 PUSH1 0x44 DUP3 ADD MSTORE PUSH11 0x6E697469616C697A696E67 PUSH1 0xA8 SHL PUSH1 0x64 DUP3 ADD MSTORE PUSH1 0x84 ADD PUSH2 0xB50 JUMP JUMPDEST PUSH2 0x23FE DUP2 PUSH2 0x3C94 JUMP JUMPDEST PUSH1 0x0 SLOAD PUSH2 0x100 SWAP1 DIV PUSH1 0xFF AND PUSH2 0x33D4 JUMPI PUSH1 0x40 MLOAD PUSH3 0x461BCD PUSH1 0xE5 SHL DUP2 MSTORE PUSH1 0x20 PUSH1 0x4 DUP3 ADD MSTORE PUSH1 0x2B PUSH1 0x24 DUP3 ADD MSTORE PUSH32 0x496E697469616C697A61626C653A20636F6E7472616374206973206E6F742069 PUSH1 0x44 DUP3 ADD MSTORE PUSH11 0x6E697469616C697A696E67 PUSH1 0xA8 SHL PUSH1 0x64 DUP3 ADD MSTORE PUSH1 0x84 ADD PUSH2 0xB50 JUMP JUMPDEST PUSH2 0x23FE DUP2 PUSH2 0x3D1B JUMP JUMPDEST PUSH1 0x0 SLOAD PUSH2 0x100 SWAP1 DIV PUSH1 0xFF AND PUSH2 0x3448 JUMPI PUSH1 0x40 MLOAD PUSH3 0x461BCD PUSH1 0xE5 SHL DUP2 MSTORE PUSH1 0x20 PUSH1 0x4 DUP3 ADD MSTORE PUSH1 0x2B PUSH1 0x24 DUP3 ADD MSTORE PUSH32 0x496E697469616C697A61626C653A20636F6E7472616374206973206E6F742069 PUSH1 0x44 DUP3 ADD MSTORE PUSH11 0x6E697469616C697A696E67 PUSH1 0xA8 SHL PUSH1 0x64 DUP3 ADD MSTORE PUSH1 0x84 ADD PUSH2 0xB50 JUMP JUMPDEST PUSH2 0x23FE DUP2 PUSH2 0x3DDB JUMP JUMPDEST PUSH1 0x0 SLOAD PUSH2 0x100 SWAP1 DIV PUSH1 0xFF AND PUSH2 0x34BC JUMPI PUSH1 0x40 MLOAD PUSH3 0x461BCD PUSH1 0xE5 SHL DUP2 MSTORE PUSH1 0x20 PUSH1 0x4 DUP3 ADD MSTORE PUSH1 0x2B PUSH1 0x24 DUP3 ADD MSTORE PUSH32 0x496E697469616C697A61626C653A20636F6E7472616374206973206E6F742069 PUSH1 0x44 DUP3 ADD MSTORE PUSH11 0x6E697469616C697A696E67 PUSH1 0xA8 SHL PUSH1 0x64 DUP3 ADD MSTORE PUSH1 0x84 ADD PUSH2 0xB50 JUMP JUMPDEST PUSH2 0x23FE DUP2 PUSH2 0x3ECB JUMP JUMPDEST PUSH1 0x0 SLOAD PUSH2 0x100 SWAP1 DIV PUSH1 0xFF AND PUSH2 0x23FE JUMPI PUSH1 0x40 MLOAD PUSH3 0x461BCD PUSH1 0xE5 SHL DUP2 MSTORE PUSH1 0x20 PUSH1 0x4 DUP3 ADD MSTORE PUSH1 0x2B PUSH1 0x24 DUP3 ADD MSTORE PUSH32 0x496E697469616C697A61626C653A20636F6E7472616374206973206E6F742069 PUSH1 0x44 DUP3 ADD MSTORE PUSH11 0x6E697469616C697A696E67 PUSH1 0xA8 SHL PUSH1 0x64 DUP3 ADD MSTORE PUSH1 0x84 ADD PUSH2 0xB50 JUMP JUMPDEST PUSH1 0x0 PUSH2 0x353D PUSH1 0x4 DUP4 PUSH2 0x504D JUMP JUMPDEST ISZERO DUP1 ISZERO PUSH2 0x3553 JUMPI POP PUSH2 0x3550 PUSH1 0x64 DUP4 PUSH2 0x504D JUMP JUMPDEST ISZERO ISZERO JUMPDEST DUP1 PUSH2 0xD8F JUMPI POP PUSH2 0x3565 PUSH2 0x190 DUP4 PUSH2 0x504D JUMP JUMPDEST ISZERO SWAP3 SWAP2 POP POP JUMP JUMPDEST PUSH1 0x2 SLOAD ISZERO PUSH2 0x86D JUMPI PUSH1 0x1 SLOAD PUSH1 0x2 SLOAD PUSH1 0x40 MLOAD PUSH32 0xEB056BBB00000000000000000000000000000000000000000000000000000000 DUP2 MSTORE PUSH1 0x4 DUP2 ADD SWAP2 SWAP1 SWAP2 MSTORE PUSH1 0x1 PUSH1 0x1 PUSH1 0xA0 SHL SUB DUP5 DUP2 AND PUSH1 0x24 DUP4 ADD MSTORE PUSH1 0x44 DUP3 ADD DUP5 SWAP1 MSTORE PUSH1 0x0 PUSH1 0x64 DUP4 ADD MSTORE SWAP1 SWAP2 AND SWAP1 PUSH4 0xEB056BBB SWAP1 PUSH1 0x84 ADD PUSH1 0x0 PUSH1 0x40 MLOAD DUP1 DUP4 SUB DUP2 PUSH1 0x0 DUP8 DUP1 EXTCODESIZE ISZERO DUP1 ISZERO PUSH2 0x35ED JUMPI PUSH1 0x0 DUP1 REVERT JUMPDEST POP GAS CALL ISZERO DUP1 ISZERO PUSH2 0x28C5 JUMPI RETURNDATASIZE PUSH1 0x0 DUP1 RETURNDATACOPY RETURNDATASIZE PUSH1 0x0 REVERT JUMPDEST PUSH1 0x0 DUP1 PUSH1 0x0 DUP1 PUSH2 0x3610 DUP7 PUSH2 0x3FBB JUMP JUMPDEST SWAP2 SWAP5 POP SWAP3 POP SWAP1 POP PUSH1 0x0 PUSH2 0x3623 DUP7 DUP5 PUSH2 0x4FDB JUMP JUMPDEST SWAP1 POP PUSH1 0x0 PUSH2 0x3632 PUSH1 0xC DUP4 PUSH2 0x504D JUMP JUMPDEST SWAP1 POP PUSH1 0x0 PUSH2 0x3641 PUSH1 0xC DUP5 PUSH2 0x4FC7 JUMP JUMPDEST PUSH2 0x364B SWAP1 DUP8 PUSH2 0x4FDB JUMP JUMPDEST SWAP1 POP PUSH1 0x0 PUSH1 0x2 PUSH1 0xA SLOAD PUSH1 0xFF AND PUSH1 0x2 DUP2 GT ISZERO PUSH2 0x3668 JUMPI PUSH2 0x3668 PUSH2 0x4785 JUMP JUMPDEST EQ PUSH2 0x3673 JUMPI DUP5 PUSH2 0x367D JUMP JUMPDEST PUSH2 0x367D DUP3 DUP5 PUSH2 0x25BB JUMP JUMPDEST SWAP1 POP PUSH2 0x368B DUP11 DUP4 DUP6 DUP5 PUSH2 0x3FDA JUMP JUMPDEST SWAP11 SWAP10 POP POP POP POP POP POP POP POP POP POP JUMP JUMPDEST PUSH1 0x0 DUP1 PUSH1 0x0 PUSH2 0x36A7 TIMESTAMP PUSH2 0x3FBB JUMP JUMPDEST POP SWAP2 POP SWAP2 POP PUSH2 0x36B8 DUP6 DUP4 DUP4 DUP8 PUSH2 0x3FDA JUMP JUMPDEST SWAP6 SWAP5 POP POP POP POP POP JUMP JUMPDEST PUSH1 0xC DUP2 SWAP1 SSTORE PUSH1 0x40 MLOAD DUP2 DUP2 MSTORE PUSH32 0xF90744BEE56935EC5ACC9DE37B89C0C545298C667EE417BD9469E9C6836AD064 SWAP1 PUSH1 0x20 ADD PUSH2 0x169E JUMP JUMPDEST PUSH1 0x0 DUP3 DUP3 MUL DUP4 ISZERO DUP1 ISZERO SWAP1 PUSH2 0x3719 JUMPI POP DUP3 DUP5 DUP3 DUP2 PUSH2 0x3715 JUMPI PUSH2 0x3715 PUSH2 0x4F98 JUMP JUMPDEST DIV EQ ISZERO JUMPDEST ISZERO PUSH2 0x375A JUMPI PUSH1 0x40 MLOAD PUSH32 0xE8E4A4FA00000000000000000000000000000000000000000000000000000000 DUP2 MSTORE PUSH1 0x4 DUP2 ADD DUP6 SWAP1 MSTORE PUSH1 0x24 DUP2 ADD DUP5 SWAP1 MSTORE PUSH1 0x44 ADD PUSH2 0xB50 JUMP JUMPDEST DUP1 ISZERO PUSH2 0x3795 JUMPI PUSH8 0xDE0B6B3A7640000 PUSH32 0xFFFFFFFFFFFFFFFFFFFFFFFFFFFFFFFFFFFFFFFFFFFFFFFFFFFFFFFFFFFFFFFF DUP3 ADD DIV PUSH1 0x1 ADD PUSH2 0x1FFD JUMP JUMPDEST PUSH1 0x0 SWAP5 SWAP4 POP POP POP POP JUMP JUMPDEST PUSH1 0x0 DUP2 PUSH1 0x0 SUB PUSH2 0x37DB JUMPI PUSH1 0x40 MLOAD PUSH32 0xB8A2F92100000000000000000000000000000000000000000000000000000000 DUP2 MSTORE PUSH1 0x4 ADD PUSH1 0x40 MLOAD DUP1 SWAP2 SUB SWAP1 REVERT JUMPDEST DUP3 PUSH1 0x0 SUB PUSH2 0x37EB JUMPI POP PUSH1 0x0 PUSH2 0xD8F JUMP JUMPDEST PUSH8 0xDE0B6B3A7640000 DUP4 DUP2 MUL SWAP1 DUP5 DUP3 DUP2 PUSH2 0x3807 JUMPI PUSH2 0x3807 PUSH2 0x4F98 JUMP JUMPDEST DIV EQ PUSH2 0x3849 JUMPI PUSH1 0x40 MLOAD PUSH32 0xEA7B49E600000000000000000000000000000000000000000000000000000000 DUP2 MSTORE PUSH1 0x4 DUP2 ADD DUP6 SWAP1 MSTORE PUSH1 0x24 DUP2 ADD DUP3 SWAP1 MSTORE PUSH1 0x44 ADD PUSH2 0xB50 JUMP JUMPDEST DUP3 PUSH1 0x1 DUP3 SUB DUP2 PUSH2 0x385B JUMPI PUSH2 0x385B PUSH2 0x4F98 JUMP JUMPDEST DIV PUSH1 0x1 ADD SWAP2 POP POP SWAP3 SWAP2 POP POP JUMP JUMPDEST PUSH1 0x0 DUP1 PUSH1 0x1 PUSH1 0x0 SWAP1 SLOAD SWAP1 PUSH2 0x100 EXP SWAP1 DIV PUSH1 0x1 PUSH1 0x1 PUSH1 0xA0 SHL SUB AND PUSH1 0x1 PUSH1 0x1 PUSH1 0xA0 SHL SUB AND PUSH4 0x2630C12F PUSH1 0x40 MLOAD DUP2 PUSH4 0xFFFFFFFF AND PUSH1 0xE0 SHL DUP2 MSTORE PUSH1 0x4 ADD PUSH1 0x20 PUSH1 0x40 MLOAD DUP1 DUP4 SUB DUP2 DUP7 GAS STATICCALL ISZERO DUP1 ISZERO PUSH2 0x38BE JUMPI RETURNDATASIZE PUSH1 0x0 DUP1 RETURNDATACOPY RETURNDATASIZE PUSH1 0x0 REVERT JUMPDEST POP POP POP POP PUSH1 0x40 MLOAD RETURNDATASIZE PUSH1 0x1F NOT PUSH1 0x1F DUP3 ADD AND DUP3 ADD DUP1 PUSH1 0x40 MSTORE POP DUP2 ADD SWAP1 PUSH2 0x38E2 SWAP2 SWAP1 PUSH2 0x5030 JUMP JUMPDEST SWAP1 POP PUSH1 0x1 PUSH1 0x1 PUSH1 0xA0 SHL SUB DUP2 AND PUSH2 0x3933 JUMPI PUSH1 0x1 SLOAD PUSH1 0x40 MLOAD PUSH32 0x38D2BAAE00000000000000000000000000000000000000000000000000000000 DUP2 MSTORE PUSH1 0x1 PUSH1 0x1 PUSH1 0xA0 SHL SUB SWAP1 SWAP2 AND PUSH1 0x4 DUP3 ADD MSTORE PUSH1 0x24 ADD PUSH2 0xB50 JUMP JUMPDEST PUSH1 0x0 PUSH2 0x393D PUSH2 0x4002 JUMP JUMPDEST SWAP1 POP DUP1 MLOAD PUSH1 0x0 EQ PUSH2 0x39CE JUMPI DUP2 PUSH1 0x1 PUSH1 0x1 PUSH1 0xA0 SHL SUB AND PUSH4 0x355EFDD9 PUSH2 0x3960 DUP8 PUSH2 0x4082 JUMP JUMPDEST PUSH2 0x3969 DUP8 PUSH2 0x4082 JUMP JUMPDEST DUP5 PUSH1 0x40 MLOAD DUP5 PUSH4 0xFFFFFFFF AND PUSH1 0xE0 SHL DUP2 MSTORE PUSH1 0x4 ADD PUSH2 0x3988 SWAP4 SWAP3 SWAP2 SWAP1 PUSH2 0x5061 JUMP JUMPDEST PUSH1 0x20 PUSH1 0x40 MLOAD DUP1 DUP4 SUB DUP2 DUP7 GAS STATICCALL ISZERO DUP1 ISZERO PUSH2 0x39A5 JUMPI RETURNDATASIZE PUSH1 0x0 DUP1 RETURNDATACOPY RETURNDATASIZE PUSH1 0x0 REVERT JUMPDEST POP POP POP POP PUSH1 0x40 MLOAD RETURNDATASIZE PUSH1 0x1F NOT PUSH1 0x1F DUP3 ADD AND DUP3 ADD DUP1 PUSH1 0x40 MSTORE POP DUP2 ADD SWAP1 PUSH2 0x39C9 SWAP2 SWAP1 PUSH2 0x4F04 JUMP JUMPDEST PUSH2 0x36B8 JUMP JUMPDEST DUP2 PUSH1 0x1 PUSH1 0x1 PUSH1 0xA0 SHL SUB AND PUSH4 0xAC41865A PUSH2 0x39E6 DUP8 PUSH2 0x4082 JUMP JUMPDEST PUSH2 0x39EF DUP8 PUSH2 0x4082 JUMP JUMPDEST PUSH1 0x40 MLOAD PUSH32 0xFFFFFFFF00000000000000000000000000000000000000000000000000000000 PUSH1 0xE0 DUP6 SWAP1 SHL AND DUP2 MSTORE PUSH1 0x1 PUSH1 0x1 PUSH1 0xA0 SHL SUB SWAP3 DUP4 AND PUSH1 0x4 DUP3 ADD MSTORE SWAP2 AND PUSH1 0x24 DUP3 ADD MSTORE PUSH1 0x44 ADD PUSH1 0x20 PUSH1 0x40 MLOAD DUP1 DUP4 SUB DUP2 DUP7 GAS STATICCALL ISZERO DUP1 ISZERO PUSH2 0x3A52 JUMPI RETURNDATASIZE PUSH1 0x0 DUP1 RETURNDATACOPY RETURNDATASIZE PUSH1 0x0 REVERT JUMPDEST POP POP POP POP PUSH1 0x40 MLOAD RETURNDATASIZE PUSH1 0x1F NOT PUSH1 0x1F DUP3 ADD AND DUP3 ADD DUP1 PUSH1 0x40 MSTORE POP DUP2 ADD SWAP1 PUSH2 0x36B8 SWAP2 SWAP1 PUSH2 0x4F04 JUMP JUMPDEST PUSH1 0x0 SLOAD PUSH2 0x100 SWAP1 DIV PUSH1 0xFF AND PUSH2 0x3AE1 JUMPI PUSH1 0x40 MLOAD PUSH3 0x461BCD PUSH1 0xE5 SHL DUP2 MSTORE PUSH1 0x20 PUSH1 0x4 DUP3 ADD MSTORE PUSH1 0x2B PUSH1 0x24 DUP3 ADD MSTORE PUSH32 0x496E697469616C697A61626C653A20636F6E7472616374206973206E6F742069 PUSH1 0x44 DUP3 ADD MSTORE PUSH11 0x6E697469616C697A696E67 PUSH1 0xA8 SHL PUSH1 0x64 DUP3 ADD MSTORE PUSH1 0x84 ADD PUSH2 0xB50 JUMP JUMPDEST PUSH2 0x23FE DUP2 PUSH2 0x40B6 JUMP JUMPDEST PUSH1 0x0 SLOAD PUSH2 0x100 SWAP1 DIV PUSH1 0xFF AND PUSH2 0x3B55 JUMPI PUSH1 0x40 MLOAD PUSH3 0x461BCD PUSH1 0xE5 SHL DUP2 MSTORE PUSH1 0x20 PUSH1 0x4 DUP3 ADD MSTORE PUSH1 0x2B PUSH1 0x24 DUP3 ADD MSTORE PUSH32 0x496E697469616C697A61626C653A20636F6E7472616374206973206E6F742069 PUSH1 0x44 DUP3 ADD MSTORE PUSH11 0x6E697469616C697A696E67 PUSH1 0xA8 SHL PUSH1 0x64 DUP3 ADD MSTORE PUSH1 0x84 ADD PUSH2 0xB50 JUMP JUMPDEST DUP1 MLOAD PUSH1 0x1 DUP1 SLOAD PUSH32 0xFFFFFFFFFFFFFFFFFFFFFFFF0000000000000000000000000000000000000000 AND PUSH1 0x1 PUSH1 0x1 PUSH1 0xA0 SHL SUB SWAP1 SWAP3 AND SWAP2 SWAP1 SWAP2 OR SWAP1 SSTORE PUSH1 0x20 DUP2 ADD MLOAD PUSH1 0x40 DUP3 ADD MLOAD PUSH2 0x23FE SWAP2 SWAP1 PUSH2 0x1AD4 JUMP JUMPDEST PUSH1 0x0 SLOAD PUSH2 0x100 SWAP1 DIV PUSH1 0xFF AND PUSH2 0x327F JUMPI PUSH1 0x40 MLOAD PUSH3 0x461BCD PUSH1 0xE5 SHL DUP2 MSTORE PUSH1 0x20 PUSH1 0x4 DUP3 ADD MSTORE PUSH1 0x2B PUSH1 0x24 DUP3 ADD MSTORE PUSH32 0x496E697469616C697A61626C653A20636F6E7472616374206973206E6F742069 PUSH1 0x44 DUP3 ADD MSTORE PUSH11 0x6E697469616C697A696E67 PUSH1 0xA8 SHL PUSH1 0x64 DUP3 ADD MSTORE PUSH1 0x84 ADD PUSH2 0xB50 JUMP JUMPDEST PUSH1 0x0 SLOAD PUSH2 0x100 SWAP1 DIV PUSH1 0xFF AND PUSH2 0x3C78 JUMPI PUSH1 0x40 MLOAD PUSH3 0x461BCD PUSH1 0xE5 SHL DUP2 MSTORE PUSH1 0x20 PUSH1 0x4 DUP3 ADD MSTORE PUSH1 0x2B PUSH1 0x24 DUP3 ADD MSTORE PUSH32 0x496E697469616C697A61626C653A20636F6E7472616374206973206E6F742069 PUSH1 0x44 DUP3 ADD MSTORE PUSH11 0x6E697469616C697A696E67 PUSH1 0xA8 SHL PUSH1 0x64 DUP3 ADD MSTORE PUSH1 0x84 ADD PUSH2 0xB50 JUMP JUMPDEST PUSH2 0x23FE DUP2 PUSH1 0x0 ADD MLOAD DUP3 PUSH1 0x20 ADD MLOAD DUP4 PUSH1 0x40 ADD MLOAD DUP5 PUSH1 0x60 ADD MLOAD PUSH2 0x1EAA JUMP JUMPDEST PUSH1 0x0 SLOAD PUSH2 0x100 SWAP1 DIV PUSH1 0xFF AND PUSH2 0x3CFF JUMPI PUSH1 0x40 MLOAD PUSH3 0x461BCD PUSH1 0xE5 SHL DUP2 MSTORE PUSH1 0x20 PUSH1 0x4 DUP3 ADD MSTORE PUSH1 0x2B PUSH1 0x24 DUP3 ADD MSTORE PUSH32 0x496E697469616C697A61626C653A20636F6E7472616374206973206E6F742069 PUSH1 0x44 DUP3 ADD MSTORE PUSH11 0x6E697469616C697A696E67 PUSH1 0xA8 SHL PUSH1 0x64 DUP3 ADD MSTORE PUSH1 0x84 ADD PUSH2 0xB50 JUMP JUMPDEST PUSH2 0x23FE DUP2 PUSH1 0x0 ADD MLOAD DUP3 PUSH1 0x20 ADD MLOAD DUP4 PUSH1 0x40 ADD MLOAD DUP5 PUSH1 0x60 ADD MLOAD PUSH2 0x1042 JUMP JUMPDEST PUSH1 0x0 SLOAD PUSH2 0x100 SWAP1 DIV PUSH1 0xFF AND PUSH2 0x3D86 JUMPI PUSH1 0x40 MLOAD PUSH3 0x461BCD PUSH1 0xE5 SHL DUP2 MSTORE PUSH1 0x20 PUSH1 0x4 DUP3 ADD MSTORE PUSH1 0x2B PUSH1 0x24 DUP3 ADD MSTORE PUSH32 0x496E697469616C697A61626C653A20636F6E7472616374206973206E6F742069 PUSH1 0x44 DUP3 ADD MSTORE PUSH11 0x6E697469616C697A696E67 PUSH1 0xA8 SHL PUSH1 0x64 DUP3 ADD MSTORE PUSH1 0x84 ADD PUSH2 0xB50 JUMP JUMPDEST DUP1 MLOAD PUSH2 0x3D91 SWAP1 PUSH2 0x162E JUMP JUMPDEST PUSH1 0x0 JUMPDEST DUP2 PUSH1 0x20 ADD MLOAD MLOAD DUP2 LT ISZERO PUSH2 0x86D JUMPI PUSH2 0x3DC9 DUP3 PUSH1 0x20 ADD MLOAD DUP3 DUP2 MLOAD DUP2 LT PUSH2 0x3DBA JUMPI PUSH2 0x3DBA PUSH2 0x4C80 JUMP JUMPDEST PUSH1 0x20 MUL PUSH1 0x20 ADD ADD MLOAD PUSH1 0x1 PUSH2 0x141B JUMP JUMPDEST DUP1 PUSH2 0x3DD3 DUP2 PUSH2 0x4CDE JUMP JUMPDEST SWAP2 POP POP PUSH2 0x3D94 JUMP JUMPDEST PUSH1 0x0 SLOAD PUSH2 0x100 SWAP1 DIV PUSH1 0xFF AND PUSH2 0x3E46 JUMPI PUSH1 0x40 MLOAD PUSH3 0x461BCD PUSH1 0xE5 SHL DUP2 MSTORE PUSH1 0x20 PUSH1 0x4 DUP3 ADD MSTORE PUSH1 0x2B PUSH1 0x24 DUP3 ADD MSTORE PUSH32 0x496E697469616C697A61626C653A20636F6E7472616374206973206E6F742069 PUSH1 0x44 DUP3 ADD MSTORE PUSH11 0x6E697469616C697A696E67 PUSH1 0xA8 SHL PUSH1 0x64 DUP3 ADD MSTORE PUSH1 0x84 ADD PUSH2 0xB50 JUMP JUMPDEST DUP1 MLOAD DUP1 MLOAD PUSH1 0x20 DUP3 ADD MLOAD PUSH1 0x40 DUP4 ADD MLOAD PUSH2 0x3E5F SWAP3 SWAP2 SWAP1 PUSH2 0x1E1A JUMP JUMPDEST PUSH1 0x0 JUMPDEST DUP3 PUSH1 0x20 ADD MLOAD MLOAD DUP2 LT ISZERO PUSH2 0x7CC JUMPI PUSH1 0x0 DUP4 PUSH1 0x20 ADD MLOAD DUP3 DUP2 MLOAD DUP2 LT PUSH2 0x3E87 JUMPI PUSH2 0x3E87 PUSH2 0x4C80 JUMP JUMPDEST PUSH1 0x20 MUL PUSH1 0x20 ADD ADD MLOAD SWAP1 POP PUSH1 0x0 DUP2 PUSH1 0x20 ADD MLOAD SWAP1 POP PUSH2 0x3EB6 DUP3 PUSH1 0x0 ADD MLOAD DUP3 PUSH1 0x0 ADD MLOAD DUP4 PUSH1 0x20 ADD MLOAD DUP5 PUSH1 0x40 ADD MLOAD PUSH2 0x152E JUMP JUMPDEST POP POP DUP1 DUP1 PUSH2 0x3EC3 SWAP1 PUSH2 0x4CDE JUMP JUMPDEST SWAP2 POP POP PUSH2 0x3E62 JUMP JUMPDEST PUSH1 0x0 SLOAD PUSH2 0x100 SWAP1 DIV PUSH1 0xFF AND PUSH2 0x3F36 JUMPI PUSH1 0x40 MLOAD PUSH3 0x461BCD PUSH1 0xE5 SHL DUP2 MSTORE PUSH1 0x20 PUSH1 0x4 DUP3 ADD MSTORE PUSH1 0x2B PUSH1 0x24 DUP3 ADD MSTORE PUSH32 0x496E697469616C697A61626C653A20636F6E7472616374206973206E6F742069 PUSH1 0x44 DUP3 ADD MSTORE PUSH11 0x6E697469616C697A696E67 PUSH1 0xA8 SHL PUSH1 0x64 DUP3 ADD MSTORE PUSH1 0x84 ADD PUSH2 0xB50 JUMP JUMPDEST DUP1 MLOAD DUP1 MLOAD PUSH1 0x20 DUP3 ADD MLOAD PUSH1 0x40 DUP4 ADD MLOAD PUSH2 0x3F4F SWAP3 SWAP2 SWAP1 PUSH2 0x1BAB JUMP JUMPDEST PUSH1 0x0 JUMPDEST DUP3 PUSH1 0x20 ADD MLOAD MLOAD DUP2 LT ISZERO PUSH2 0x7CC JUMPI PUSH1 0x0 DUP4 PUSH1 0x20 ADD MLOAD DUP3 DUP2 MLOAD DUP2 LT PUSH2 0x3F77 JUMPI PUSH2 0x3F77 PUSH2 0x4C80 JUMP JUMPDEST PUSH1 0x20 MUL PUSH1 0x20 ADD ADD MLOAD SWAP1 POP PUSH1 0x0 DUP2 PUSH1 0x20 ADD MLOAD SWAP1 POP PUSH2 0x3FA6 DUP3 PUSH1 0x0 ADD MLOAD DUP3 PUSH1 0x0 ADD MLOAD DUP4 PUSH1 0x20 ADD MLOAD DUP5 PUSH1 0x40 ADD MLOAD PUSH2 0x18B0 JUMP JUMPDEST POP POP DUP1 DUP1 PUSH2 0x3FB3 SWAP1 PUSH2 0x4CDE JUMP JUMPDEST SWAP2 POP POP PUSH2 0x3F52 JUMP JUMPDEST PUSH1 0x0 DUP1 DUP1 PUSH2 0x3FCD PUSH3 0x15180 DUP6 DIV PUSH2 0x2501 JUMP JUMPDEST SWAP2 SWAP7 SWAP1 SWAP6 POP SWAP1 SWAP4 POP SWAP2 POP POP JUMP JUMPDEST PUSH1 0x0 PUSH2 0x36B8 DUP5 DUP5 DUP5 PUSH2 0x3FEB DUP10 PUSH2 0x4161 JUMP JUMPDEST PUSH2 0x3FF4 DUP11 PUSH2 0x417F JUMP JUMPDEST PUSH2 0x3FFD DUP12 PUSH2 0x419B JUMP JUMPDEST PUSH2 0x41A8 JUMP JUMPDEST PUSH1 0x60 PUSH1 0x0 PUSH2 0x400E PUSH2 0x4204 JUMP JUMPDEST SWAP1 POP CALLDATASIZE DUP2 GT ISZERO PUSH2 0x402C JUMPI POP POP PUSH1 0x40 DUP1 MLOAD PUSH1 0x0 DUP2 MSTORE PUSH1 0x20 DUP2 ADD SWAP1 SWAP2 MSTORE SWAP1 JUMP JUMPDEST DUP1 PUSH8 0xFFFFFFFFFFFFFFFF DUP2 GT ISZERO PUSH2 0x4045 JUMPI PUSH2 0x4045 PUSH2 0x4455 JUMP JUMPDEST PUSH1 0x40 MLOAD SWAP1 DUP1 DUP3 MSTORE DUP1 PUSH1 0x1F ADD PUSH1 0x1F NOT AND PUSH1 0x20 ADD DUP3 ADD PUSH1 0x40 MSTORE DUP1 ISZERO PUSH2 0x406F JUMPI PUSH1 0x20 DUP3 ADD DUP2 DUP1 CALLDATASIZE DUP4 CALLDATACOPY ADD SWAP1 POP JUMPDEST POP SWAP2 POP DUP1 PUSH1 0x20 DUP3 CALLDATASIZE SUB SUB PUSH1 0x20 DUP5 ADD CALLDATACOPY POP SWAP1 JUMP JUMPDEST PUSH1 0x0 PUSH20 0xEEEEEEEEEEEEEEEEEEEEEEEEEEEEEEEEEEEEEEEE PUSH1 0x1 PUSH1 0x1 PUSH1 0xA0 SHL SUB DUP4 AND EQ PUSH2 0x40AE JUMPI DUP2 PUSH2 0xD8F JUMP JUMPDEST PUSH2 0xD8F PUSH2 0x423D JUMP JUMPDEST PUSH1 0x0 SLOAD PUSH2 0x100 SWAP1 DIV PUSH1 0xFF AND PUSH2 0x4121 JUMPI PUSH1 0x40 MLOAD PUSH3 0x461BCD PUSH1 0xE5 SHL DUP2 MSTORE PUSH1 0x20 PUSH1 0x4 DUP3 ADD MSTORE PUSH1 0x2B PUSH1 0x24 DUP3 ADD MSTORE PUSH32 0x496E697469616C697A61626C653A20636F6E7472616374206973206E6F742069 PUSH1 0x44 DUP3 ADD MSTORE PUSH11 0x6E697469616C697A696E67 PUSH1 0xA8 SHL PUSH1 0x64 DUP3 ADD MSTORE PUSH1 0x84 ADD PUSH2 0xB50 JUMP JUMPDEST PUSH1 0x0 DUP1 SLOAD PUSH1 0x1 PUSH1 0x1 PUSH1 0xA0 SHL SUB SWAP1 SWAP3 AND PUSH3 0x10000 MUL PUSH32 0xFFFFFFFFFFFFFFFFFFFF0000000000000000000000000000000000000000FFFF SWAP1 SWAP3 AND SWAP2 SWAP1 SWAP2 OR SWAP1 SSTORE JUMP JUMPDEST PUSH1 0x0 DUP1 PUSH2 0x4171 PUSH3 0x15180 DUP5 PUSH2 0x504D JUMP JUMPDEST SWAP1 POP PUSH2 0xF49 PUSH2 0xE10 DUP3 PUSH2 0x4FC7 JUMP JUMPDEST PUSH1 0x0 DUP1 PUSH2 0x418E PUSH2 0xE10 DUP5 PUSH2 0x504D JUMP JUMPDEST SWAP1 POP PUSH2 0xF49 PUSH1 0x3C DUP3 PUSH2 0x4FC7 JUMP JUMPDEST PUSH1 0x0 PUSH2 0xD8F PUSH1 0x3C DUP4 PUSH2 0x504D JUMP JUMPDEST PUSH1 0x0 DUP2 PUSH2 0x41B6 PUSH1 0x3C DUP6 PUSH2 0x4EED JUMP JUMPDEST PUSH2 0x41C2 PUSH2 0xE10 DUP8 PUSH2 0x4EED JUMP JUMPDEST PUSH3 0x15180 PUSH2 0x41D1 DUP12 DUP12 DUP12 PUSH2 0x42C9 JUMP JUMPDEST PUSH2 0x41DB SWAP2 SWAP1 PUSH2 0x4EED JUMP JUMPDEST PUSH2 0x41E5 SWAP2 SWAP1 PUSH2 0x4FDB JUMP JUMPDEST PUSH2 0x41EF SWAP2 SWAP1 PUSH2 0x4FDB JUMP JUMPDEST PUSH2 0x41F9 SWAP2 SWAP1 PUSH2 0x4FDB JUMP JUMPDEST SWAP8 SWAP7 POP POP POP POP POP POP POP JUMP JUMPDEST PUSH1 0x0 PUSH1 0x24 CALLDATASIZE LT ISZERO PUSH2 0x4215 JUMPI POP PUSH1 0x0 SWAP1 JUMP JUMPDEST POP PUSH32 0xFFFFFFFFFFFFFFFFFFFFFFFFFFFFFFFFFFFFFFFFFFFFFFFFFFFFFFFFFFFFFFE0 CALLDATASIZE ADD CALLDATALOAD SWAP1 JUMP JUMPDEST PUSH1 0x1 SLOAD PUSH1 0x40 DUP1 MLOAD PUSH32 0x17FCB39B00000000000000000000000000000000000000000000000000000000 DUP2 MSTORE SWAP1 MLOAD PUSH1 0x0 SWAP3 PUSH1 0x1 PUSH1 0x1 PUSH1 0xA0 SHL SUB AND SWAP2 PUSH4 0x17FCB39B SWAP2 PUSH1 0x4 DUP1 DUP4 ADD SWAP3 PUSH1 0x20 SWAP3 SWAP2 SWAP1 DUP3 SWAP1 SUB ADD DUP2 DUP7 GAS STATICCALL ISZERO DUP1 ISZERO PUSH2 0x42A0 JUMPI RETURNDATASIZE PUSH1 0x0 DUP1 RETURNDATACOPY RETURNDATASIZE PUSH1 0x0 REVERT JUMPDEST POP POP POP POP PUSH1 0x40 MLOAD RETURNDATASIZE PUSH1 0x1F NOT PUSH1 0x1F DUP3 ADD AND DUP3 ADD DUP1 PUSH1 0x40 MSTORE POP DUP2 ADD SWAP1 PUSH2 0x42C4 SWAP2 SWAP1 PUSH2 0x5030 JUMP JUMPDEST SWAP1 POP SWAP1 JUMP JUMPDEST PUSH1 0x0 PUSH2 0x7B2 DUP5 LT ISZERO PUSH2 0x42DA JUMPI PUSH1 0x0 DUP1 REVERT JUMPDEST DUP4 DUP4 DUP4 PUSH1 0x0 PUSH3 0x253D8C PUSH1 0x4 PUSH1 0x64 PUSH1 0xC PUSH2 0x42F4 PUSH1 0xE DUP9 PUSH2 0x508D JUMP JUMPDEST PUSH2 0x42FE SWAP2 SWAP1 PUSH2 0x50AD JUMP JUMPDEST PUSH2 0x430A DUP9 PUSH2 0x1324 PUSH2 0x5115 JUMP JUMPDEST PUSH2 0x4314 SWAP2 SWAP1 PUSH2 0x5115 JUMP JUMPDEST PUSH2 0x431E SWAP2 SWAP1 PUSH2 0x50AD JUMP JUMPDEST PUSH2 0x4329 SWAP1 PUSH1 0x3 PUSH2 0x513D JUMP JUMPDEST PUSH2 0x4333 SWAP2 SWAP1 PUSH2 0x50AD JUMP JUMPDEST PUSH1 0xC DUP1 PUSH2 0x4341 PUSH1 0xE DUP9 PUSH2 0x508D JUMP JUMPDEST PUSH2 0x434B SWAP2 SWAP1 PUSH2 0x50AD JUMP JUMPDEST PUSH2 0x4356 SWAP1 PUSH1 0xC PUSH2 0x513D JUMP JUMPDEST PUSH2 0x4361 PUSH1 0x2 DUP9 PUSH2 0x508D JUMP JUMPDEST PUSH2 0x436B SWAP2 SWAP1 PUSH2 0x508D JUMP JUMPDEST PUSH2 0x4377 SWAP1 PUSH2 0x16F PUSH2 0x513D JUMP JUMPDEST PUSH2 0x4381 SWAP2 SWAP1 PUSH2 0x50AD JUMP JUMPDEST PUSH1 0x4 PUSH1 0xC PUSH2 0x4390 PUSH1 0xE DUP10 PUSH2 0x508D JUMP JUMPDEST PUSH2 0x439A SWAP2 SWAP1 PUSH2 0x50AD JUMP JUMPDEST PUSH2 0x43A6 DUP10 PUSH2 0x12C0 PUSH2 0x5115 JUMP JUMPDEST PUSH2 0x43B0 SWAP2 SWAP1 PUSH2 0x5115 JUMP JUMPDEST PUSH2 0x43BC SWAP1 PUSH2 0x5B5 PUSH2 0x513D JUMP JUMPDEST PUSH2 0x43C6 SWAP2 SWAP1 PUSH2 0x50AD JUMP JUMPDEST PUSH2 0x43D2 PUSH2 0x7D4B DUP8 PUSH2 0x508D JUMP JUMPDEST PUSH2 0x43DC SWAP2 SWAP1 PUSH2 0x5115 JUMP JUMPDEST PUSH2 0x43E6 SWAP2 SWAP1 PUSH2 0x5115 JUMP JUMPDEST PUSH2 0x43F0 SWAP2 SWAP1 PUSH2 0x508D JUMP JUMPDEST PUSH2 0x43FA SWAP2 SWAP1 PUSH2 0x508D JUMP JUMPDEST SWAP9 SWAP8 POP POP POP POP POP POP POP POP JUMP JUMPDEST DUP1 CALLDATALOAD PUSH1 0xFF DUP2 AND DUP2 EQ PUSH2 0x4417 JUMPI PUSH1 0x0 DUP1 REVERT JUMPDEST SWAP2 SWAP1 POP JUMP JUMPDEST PUSH1 0x0 DUP1 PUSH1 0x0 DUP1 PUSH1 0x80 DUP6 DUP8 SUB SLT ISZERO PUSH2 0x4432 JUMPI PUSH1 0x0 DUP1 REVERT JUMPDEST PUSH2 0x443B DUP6 PUSH2 0x4406 JUMP JUMPDEST SWAP7 PUSH1 0x20 DUP7 ADD CALLDATALOAD SWAP7 POP PUSH1 0x40 DUP7 ADD CALLDATALOAD SWAP6 PUSH1 0x60 ADD CALLDATALOAD SWAP5 POP SWAP3 POP POP POP JUMP JUMPDEST PUSH32 0x4E487B7100000000000000000000000000000000000000000000000000000000 PUSH1 0x0 MSTORE PUSH1 0x41 PUSH1 0x4 MSTORE PUSH1 0x24 PUSH1 0x0 REVERT JUMPDEST PUSH1 0x40 MLOAD PUSH1 0x80 DUP2 ADD PUSH8 0xFFFFFFFFFFFFFFFF DUP2 GT DUP3 DUP3 LT OR ISZERO PUSH2 0x44A7 JUMPI PUSH2 0x44A7 PUSH2 0x4455 JUMP JUMPDEST PUSH1 0x40 MSTORE SWAP1 JUMP JUMPDEST PUSH1 0x40 DUP1 MLOAD SWAP1 DUP2 ADD PUSH8 0xFFFFFFFFFFFFFFFF DUP2 GT DUP3 DUP3 LT OR ISZERO PUSH2 0x44A7 JUMPI PUSH2 0x44A7 PUSH2 0x4455 JUMP JUMPDEST PUSH1 0x40 MLOAD PUSH1 0xC0 DUP2 ADD PUSH8 0xFFFFFFFFFFFFFFFF DUP2 GT DUP3 DUP3 LT OR ISZERO PUSH2 0x44A7 JUMPI PUSH2 0x44A7 PUSH2 0x4455 JUMP JUMPDEST PUSH1 0x40 MLOAD PUSH1 0x1F DUP3 ADD PUSH32 0xFFFFFFFFFFFFFFFFFFFFFFFFFFFFFFFFFFFFFFFFFFFFFFFFFFFFFFFFFFFFFFE0 AND DUP2 ADD PUSH8 0xFFFFFFFFFFFFFFFF DUP2 GT DUP3 DUP3 LT OR ISZERO PUSH2 0x453A JUMPI PUSH2 0x453A PUSH2 0x4455 JUMP JUMPDEST PUSH1 0x40 MSTORE SWAP2 SWAP1 POP JUMP JUMPDEST PUSH1 0x0 PUSH8 0xFFFFFFFFFFFFFFFF DUP3 GT ISZERO PUSH2 0x455C JUMPI PUSH2 0x455C PUSH2 0x4455 JUMP JUMPDEST POP PUSH1 0x5 SHL PUSH1 0x20 ADD SWAP1 JUMP JUMPDEST PUSH1 0x1 PUSH1 0x1 PUSH1 0xA0 SHL SUB DUP2 AND DUP2 EQ PUSH2 0x23FE JUMPI PUSH1 0x0 DUP1 REVERT JUMPDEST DUP1 CALLDATALOAD PUSH2 0x4417 DUP2 PUSH2 0x4566 JUMP JUMPDEST PUSH1 0x0 DUP3 PUSH1 0x1F DUP4 ADD SLT PUSH2 0x4597 JUMPI PUSH1 0x0 DUP1 REVERT JUMPDEST DUP2 CALLDATALOAD PUSH1 0x20 PUSH2 0x45AC PUSH2 0x45A7 DUP4 PUSH2 0x4542 JUMP JUMPDEST PUSH2 0x44F3 JUMP JUMPDEST DUP3 DUP2 MSTORE PUSH1 0x5 SWAP3 SWAP1 SWAP3 SHL DUP5 ADD DUP2 ADD SWAP2 DUP2 DUP2 ADD SWAP1 DUP7 DUP5 GT ISZERO PUSH2 0x45CB JUMPI PUSH1 0x0 DUP1 REVERT JUMPDEST DUP3 DUP7 ADD JUMPDEST DUP5 DUP2 LT ISZERO PUSH2 0x45EF JUMPI DUP1 CALLDATALOAD PUSH2 0x45E2 DUP2 PUSH2 0x4566 JUMP JUMPDEST DUP4 MSTORE SWAP2 DUP4 ADD SWAP2 DUP4 ADD PUSH2 0x45CF JUMP JUMPDEST POP SWAP7 SWAP6 POP POP POP POP POP POP JUMP JUMPDEST DUP1 ISZERO ISZERO DUP2 EQ PUSH2 0x23FE JUMPI PUSH1 0x0 DUP1 REVERT JUMPDEST PUSH1 0x0 DUP1 PUSH1 0x40 DUP4 DUP6 SUB SLT ISZERO PUSH2 0x461B JUMPI PUSH1 0x0 DUP1 REVERT JUMPDEST DUP3 CALLDATALOAD PUSH8 0xFFFFFFFFFFFFFFFF DUP1 DUP3 GT ISZERO PUSH2 0x4633 JUMPI PUSH1 0x0 DUP1 REVERT JUMPDEST PUSH2 0x463F DUP7 DUP4 DUP8 ADD PUSH2 0x4586 JUMP JUMPDEST SWAP4 POP PUSH1 0x20 SWAP2 POP DUP2 DUP6 ADD CALLDATALOAD DUP2 DUP2 GT ISZERO PUSH2 0x4656 JUMPI PUSH1 0x0 DUP1 REVERT JUMPDEST DUP6 ADD SWAP1 POP PUSH1 0x1F DUP2 ADD DUP7 SGT PUSH2 0x4669 JUMPI PUSH1 0x0 DUP1 REVERT JUMPDEST DUP1 CALLDATALOAD PUSH2 0x4677 PUSH2 0x45A7 DUP3 PUSH2 0x4542 JUMP JUMPDEST DUP2 DUP2 MSTORE PUSH1 0x5 SWAP2 SWAP1 SWAP2 SHL DUP3 ADD DUP4 ADD SWAP1 DUP4 DUP2 ADD SWAP1 DUP9 DUP4 GT ISZERO PUSH2 0x4696 JUMPI PUSH1 0x0 DUP1 REVERT JUMPDEST SWAP3 DUP5 ADD SWAP3 JUMPDEST DUP3 DUP5 LT ISZERO PUSH2 0x46BD JUMPI DUP4 CALLDATALOAD PUSH2 0x46AE DUP2 PUSH2 0x45FA JUMP JUMPDEST DUP3 MSTORE SWAP3 DUP5 ADD SWAP3 SWAP1 DUP5 ADD SWAP1 PUSH2 0x469B JUMP JUMPDEST DUP1 SWAP6 POP POP POP POP POP POP SWAP3 POP SWAP3 SWAP1 POP JUMP JUMPDEST PUSH1 0x0 PUSH1 0x20 DUP3 DUP5 SUB SLT ISZERO PUSH2 0x46DE JUMPI PUSH1 0x0 DUP1 REVERT JUMPDEST DUP2 CALLDATALOAD PUSH2 0xF49 DUP2 PUSH2 0x4566 JUMP JUMPDEST PUSH1 0x0 DUP1 PUSH1 0x0 DUP1 PUSH1 0x80 DUP6 DUP8 SUB SLT ISZERO PUSH2 0x46FF JUMPI PUSH1 0x0 DUP1 REVERT JUMPDEST DUP5 CALLDATALOAD PUSH2 0x470A DUP2 PUSH2 0x4566 JUMP JUMPDEST SWAP4 POP PUSH1 0x20 DUP6 ADD CALLDATALOAD PUSH2 0x471A DUP2 PUSH2 0x4566 JUMP JUMPDEST SWAP4 SWAP7 SWAP4 SWAP6 POP POP POP POP PUSH1 0x40 DUP3 ADD CALLDATALOAD SWAP2 PUSH1 0x60 ADD CALLDATALOAD SWAP1 JUMP JUMPDEST DUP1 CALLDATALOAD PUSH1 0x2 DUP2 LT PUSH2 0x4417 JUMPI PUSH1 0x0 DUP1 REVERT JUMPDEST PUSH1 0x0 PUSH1 0x20 DUP3 DUP5 SUB SLT ISZERO PUSH2 0x4750 JUMPI PUSH1 0x0 DUP1 REVERT JUMPDEST PUSH2 0xF49 DUP3 PUSH2 0x472F JUMP JUMPDEST PUSH1 0x0 DUP1 PUSH1 0x40 DUP4 DUP6 SUB SLT ISZERO PUSH2 0x476C JUMPI PUSH1 0x0 DUP1 REVERT JUMPDEST DUP3 CALLDATALOAD PUSH2 0x4777 DUP2 PUSH2 0x4566 JUMP JUMPDEST SWAP5 PUSH1 0x20 SWAP4 SWAP1 SWAP4 ADD CALLDATALOAD SWAP4 POP POP POP JUMP JUMPDEST PUSH32 0x4E487B7100000000000000000000000000000000000000000000000000000000 PUSH1 0x0 MSTORE PUSH1 0x21 PUSH1 0x4 MSTORE PUSH1 0x24 PUSH1 0x0 REVERT JUMPDEST PUSH1 0x20 DUP2 ADD PUSH1 0x2 DUP4 LT PUSH2 0x47EF JUMPI PUSH32 0x4E487B7100000000000000000000000000000000000000000000000000000000 PUSH1 0x0 MSTORE PUSH1 0x21 PUSH1 0x4 MSTORE PUSH1 0x24 PUSH1 0x0 REVERT JUMPDEST SWAP2 SWAP1 MSTORE SWAP1 JUMP JUMPDEST PUSH1 0x0 PUSH1 0x60 DUP3 DUP5 SUB SLT ISZERO PUSH2 0x4807 JUMPI PUSH1 0x0 DUP1 REVERT JUMPDEST PUSH1 0x40 MLOAD PUSH1 0x60 DUP2 ADD DUP2 DUP2 LT PUSH8 0xFFFFFFFFFFFFFFFF DUP3 GT OR ISZERO PUSH2 0x482A JUMPI PUSH2 0x482A PUSH2 0x4455 JUMP JUMPDEST PUSH1 0x40 MSTORE SWAP1 POP DUP1 DUP3 CALLDATALOAD PUSH2 0x483B DUP2 PUSH2 0x4566 JUMP JUMPDEST DUP1 DUP3 MSTORE POP PUSH1 0x20 DUP4 ADD CALLDATALOAD PUSH1 0x20 DUP3 ADD MSTORE PUSH1 0x40 DUP4 ADD CALLDATALOAD PUSH1 0x40 DUP3 ADD MSTORE POP SWAP3 SWAP2 POP POP JUMP JUMPDEST PUSH1 0x0 PUSH1 0x80 DUP3 DUP5 SUB SLT ISZERO PUSH2 0x486C JUMPI PUSH1 0x0 DUP1 REVERT JUMPDEST PUSH2 0x4874 PUSH2 0x4484 JUMP JUMPDEST SWAP1 POP DUP2 CALLDATALOAD DUP2 MSTORE PUSH1 0x20 DUP3 ADD CALLDATALOAD PUSH1 0x20 DUP3 ADD MSTORE PUSH1 0x40 DUP3 ADD CALLDATALOAD PUSH1 0x40 DUP3 ADD MSTORE PUSH1 0x60 DUP3 ADD CALLDATALOAD PUSH1 0x60 DUP3 ADD MSTORE SWAP3 SWAP2 POP POP JUMP JUMPDEST PUSH1 0x0 PUSH1 0x80 DUP3 DUP5 SUB SLT ISZERO PUSH2 0x48B0 JUMPI PUSH1 0x0 DUP1 REVERT JUMPDEST PUSH2 0x48B8 PUSH2 0x4484 JUMP JUMPDEST SWAP1 POP PUSH2 0x48C3 DUP3 PUSH2 0x4406 JUMP JUMPDEST DUP2 MSTORE PUSH1 0x20 DUP3 ADD CALLDATALOAD PUSH1 0x20 DUP3 ADD MSTORE PUSH1 0x40 DUP3 ADD CALLDATALOAD PUSH1 0x40 DUP3 ADD MSTORE PUSH1 0x60 DUP3 ADD CALLDATALOAD PUSH1 0x60 DUP3 ADD MSTORE SWAP3 SWAP2 POP POP JUMP JUMPDEST PUSH1 0x0 PUSH1 0x40 DUP3 DUP5 SUB SLT ISZERO PUSH2 0x48FB JUMPI PUSH1 0x0 DUP1 REVERT JUMPDEST PUSH2 0x4903 PUSH2 0x44AD JUMP JUMPDEST SWAP1 POP PUSH2 0x490E DUP3 PUSH2 0x472F JUMP JUMPDEST DUP2 MSTORE PUSH1 0x20 DUP3 ADD CALLDATALOAD PUSH8 0xFFFFFFFFFFFFFFFF DUP2 GT ISZERO PUSH2 0x492A JUMPI PUSH1 0x0 DUP1 REVERT JUMPDEST PUSH2 0x4936 DUP5 DUP3 DUP6 ADD PUSH2 0x4586 JUMP JUMPDEST PUSH1 0x20 DUP4 ADD MSTORE POP SWAP3 SWAP2 POP POP JUMP JUMPDEST PUSH1 0x0 PUSH1 0x80 DUP3 DUP5 SUB SLT ISZERO PUSH2 0x4954 JUMPI PUSH1 0x0 DUP1 REVERT JUMPDEST PUSH2 0x495C PUSH2 0x44AD JUMP JUMPDEST SWAP1 POP DUP2 CALLDATALOAD PUSH2 0x4969 DUP2 PUSH2 0x4566 JUMP JUMPDEST DUP2 MSTORE PUSH2 0x4978 DUP4 PUSH1 0x20 DUP5 ADD PUSH2 0x47F5 JUMP JUMPDEST PUSH1 0x20 DUP3 ADD MSTORE SWAP3 SWAP2 POP POP JUMP JUMPDEST PUSH1 0x0 PUSH1 0x80 DUP1 DUP4 DUP6 SUB SLT ISZERO PUSH2 0x4996 JUMPI PUSH1 0x0 DUP1 REVERT JUMPDEST PUSH2 0x499E PUSH2 0x44AD JUMP JUMPDEST SWAP2 POP PUSH2 0x49AA DUP5 DUP5 PUSH2 0x47F5 JUMP JUMPDEST DUP3 MSTORE PUSH1 0x60 DUP4 ADD CALLDATALOAD PUSH8 0xFFFFFFFFFFFFFFFF DUP2 GT ISZERO PUSH2 0x49C6 JUMPI PUSH1 0x0 DUP1 REVERT JUMPDEST DUP4 ADD PUSH1 0x1F DUP2 ADD DUP6 SGT PUSH2 0x49D7 JUMPI PUSH1 0x0 DUP1 REVERT JUMPDEST DUP1 CALLDATALOAD PUSH1 0x20 PUSH2 0x49E7 PUSH2 0x45A7 DUP4 PUSH2 0x4542 JUMP JUMPDEST DUP3 DUP2 MSTORE PUSH1 0x7 SWAP3 SWAP1 SWAP3 SHL DUP4 ADD DUP2 ADD SWAP2 DUP2 DUP2 ADD SWAP1 DUP9 DUP5 GT ISZERO PUSH2 0x4A06 JUMPI PUSH1 0x0 DUP1 REVERT JUMPDEST SWAP4 DUP3 ADD SWAP4 JUMPDEST DUP4 DUP6 LT ISZERO PUSH2 0x4A2C JUMPI PUSH2 0x4A1D DUP10 DUP7 PUSH2 0x4942 JUMP JUMPDEST DUP3 MSTORE SWAP4 DUP6 ADD SWAP4 SWAP1 DUP3 ADD SWAP1 PUSH2 0x4A0B JUMP JUMPDEST DUP1 DUP4 DUP9 ADD MSTORE POP POP POP POP POP POP SWAP3 SWAP2 POP POP JUMP JUMPDEST PUSH1 0x0 PUSH1 0x80 DUP1 DUP4 DUP6 SUB SLT ISZERO PUSH2 0x4A50 JUMPI PUSH1 0x0 DUP1 REVERT JUMPDEST PUSH2 0x4A58 PUSH2 0x44AD JUMP JUMPDEST SWAP2 POP PUSH2 0x4A64 DUP5 DUP5 PUSH2 0x47F5 JUMP JUMPDEST DUP3 MSTORE PUSH1 0x60 DUP4 ADD CALLDATALOAD PUSH8 0xFFFFFFFFFFFFFFFF DUP2 GT ISZERO PUSH2 0x4A80 JUMPI PUSH1 0x0 DUP1 REVERT JUMPDEST DUP4 ADD PUSH1 0x1F DUP2 ADD DUP6 SGT PUSH2 0x4A91 JUMPI PUSH1 0x0 DUP1 REVERT JUMPDEST DUP1 CALLDATALOAD PUSH1 0x20 PUSH2 0x4AA1 PUSH2 0x45A7 DUP4 PUSH2 0x4542 JUMP JUMPDEST DUP3 DUP2 MSTORE PUSH1 0x7 SWAP3 SWAP1 SWAP3 SHL DUP4 ADD DUP2 ADD SWAP2 DUP2 DUP2 ADD SWAP1 DUP9 DUP5 GT ISZERO PUSH2 0x4AC0 JUMPI PUSH1 0x0 DUP1 REVERT JUMPDEST SWAP4 DUP3 ADD SWAP4 JUMPDEST DUP4 DUP6 LT ISZERO PUSH2 0x4A2C JUMPI PUSH2 0x4AD7 DUP10 DUP7 PUSH2 0x4942 JUMP JUMPDEST DUP3 MSTORE SWAP4 DUP6 ADD SWAP4 SWAP1 DUP3 ADD SWAP1 PUSH2 0x4AC5 JUMP JUMPDEST PUSH1 0x0 DUP1 PUSH1 0x0 PUSH1 0x60 DUP5 DUP7 SUB SLT ISZERO PUSH2 0x4AFB JUMPI PUSH1 0x0 DUP1 REVERT JUMPDEST DUP4 CALLDATALOAD PUSH8 0xFFFFFFFFFFFFFFFF DUP1 DUP3 GT ISZERO PUSH2 0x4B13 JUMPI PUSH1 0x0 DUP1 REVERT JUMPDEST SWAP1 DUP6 ADD SWAP1 PUSH2 0x1C0 DUP3 DUP9 SUB SLT ISZERO PUSH2 0x4B28 JUMPI PUSH1 0x0 DUP1 REVERT JUMPDEST PUSH2 0x4B30 PUSH2 0x44D0 JUMP JUMPDEST PUSH2 0x4B3A DUP9 DUP5 PUSH2 0x47F5 JUMP JUMPDEST DUP2 MSTORE PUSH2 0x4B49 DUP9 PUSH1 0x60 DUP6 ADD PUSH2 0x485A JUMP JUMPDEST PUSH1 0x20 DUP3 ADD MSTORE PUSH2 0x4B5B DUP9 PUSH1 0xE0 DUP6 ADD PUSH2 0x489E JUMP JUMPDEST PUSH1 0x40 DUP3 ADD MSTORE PUSH2 0x160 DUP4 ADD CALLDATALOAD DUP3 DUP2 GT ISZERO PUSH2 0x4B73 JUMPI PUSH1 0x0 DUP1 REVERT JUMPDEST PUSH2 0x4B7F DUP10 DUP3 DUP7 ADD PUSH2 0x48E9 JUMP JUMPDEST PUSH1 0x60 DUP4 ADD MSTORE POP PUSH2 0x180 DUP4 ADD CALLDATALOAD DUP3 DUP2 GT ISZERO PUSH2 0x4B98 JUMPI PUSH1 0x0 DUP1 REVERT JUMPDEST PUSH2 0x4BA4 DUP10 DUP3 DUP7 ADD PUSH2 0x4983 JUMP JUMPDEST PUSH1 0x80 DUP4 ADD MSTORE POP PUSH2 0x1A0 DUP4 ADD CALLDATALOAD DUP3 DUP2 GT ISZERO PUSH2 0x4BBD JUMPI PUSH1 0x0 DUP1 REVERT JUMPDEST PUSH2 0x4BC9 DUP10 DUP3 DUP7 ADD PUSH2 0x4A3D JUMP JUMPDEST PUSH1 0xA0 DUP4 ADD MSTORE POP SWAP5 POP PUSH2 0x4BE0 SWAP2 POP POP PUSH1 0x20 DUP6 ADD PUSH2 0x457B JUMP JUMPDEST SWAP2 POP PUSH2 0x4BEE PUSH1 0x40 DUP6 ADD PUSH2 0x457B JUMP JUMPDEST SWAP1 POP SWAP3 POP SWAP3 POP SWAP3 JUMP JUMPDEST PUSH1 0x0 DUP1 PUSH1 0x40 DUP4 DUP6 SUB SLT ISZERO PUSH2 0x4C0A JUMPI PUSH1 0x0 DUP1 REVERT JUMPDEST POP POP DUP1 CALLDATALOAD SWAP3 PUSH1 0x20 SWAP1 SWAP2 ADD CALLDATALOAD SWAP2 POP JUMP JUMPDEST PUSH1 0x0 DUP1 PUSH1 0x0 PUSH1 0x60 DUP5 DUP7 SUB SLT ISZERO PUSH2 0x4C2E JUMPI PUSH1 0x0 DUP1 REVERT JUMPDEST DUP4 CALLDATALOAD PUSH2 0x4C39 DUP2 PUSH2 0x4566 JUMP JUMPDEST SWAP6 PUSH1 0x20 DUP6 ADD CALLDATALOAD SWAP6 POP PUSH1 0x40 SWAP1 SWAP5 ADD CALLDATALOAD SWAP4 SWAP3 POP POP POP JUMP JUMPDEST PUSH1 0x0 DUP1 PUSH1 0x0 DUP1 PUSH1 0x80 DUP6 DUP8 SUB SLT ISZERO PUSH2 0x4C64 JUMPI PUSH1 0x0 DUP1 REVERT JUMPDEST POP POP DUP3 CALLDATALOAD SWAP5 PUSH1 0x20 DUP5 ADD CALLDATALOAD SWAP5 POP PUSH1 0x40 DUP5 ADD CALLDATALOAD SWAP4 PUSH1 0x60 ADD CALLDATALOAD SWAP3 POP SWAP1 POP JUMP JUMPDEST PUSH32 0x4E487B7100000000000000000000000000000000000000000000000000000000 PUSH1 0x0 MSTORE PUSH1 0x32 PUSH1 0x4 MSTORE PUSH1 0x24 PUSH1 0x0 REVERT JUMPDEST PUSH32 0x4E487B7100000000000000000000000000000000000000000000000000000000 PUSH1 0x0 MSTORE PUSH1 0x11 PUSH1 0x4 MSTORE PUSH1 0x24 PUSH1 0x0 REVERT JUMPDEST PUSH1 0x0 PUSH32 0xFFFFFFFFFFFFFFFFFFFFFFFFFFFFFFFFFFFFFFFFFFFFFFFFFFFFFFFFFFFFFFFF DUP3 SUB PUSH2 0x4D0F JUMPI PUSH2 0x4D0F PUSH2 0x4CAF JUMP JUMPDEST POP PUSH1 0x1 ADD SWAP1 JUMP JUMPDEST PUSH1 0x0 JUMPDEST DUP4 DUP2 LT ISZERO PUSH2 0x4D31 JUMPI DUP2 DUP2 ADD MLOAD DUP4 DUP3 ADD MSTORE PUSH1 0x20 ADD PUSH2 0x4D19 JUMP JUMPDEST POP POP PUSH1 0x0 SWAP2 ADD MSTORE JUMP JUMPDEST PUSH1 0x0 DUP2 MLOAD DUP1 DUP5 MSTORE PUSH2 0x4D52 DUP2 PUSH1 0x20 DUP7 ADD PUSH1 0x20 DUP7 ADD PUSH2 0x4D16 JUMP JUMPDEST PUSH1 0x1F ADD PUSH32 0xFFFFFFFFFFFFFFFFFFFFFFFFFFFFFFFFFFFFFFFFFFFFFFFFFFFFFFFFFFFFFFE0 AND SWAP3 SWAP1 SWAP3 ADD PUSH1 0x20 ADD SWAP3 SWAP2 POP POP JUMP JUMPDEST PUSH1 0x1 PUSH1 0x1 PUSH1 0xA0 SHL SUB DUP5 AND DUP2 MSTORE PUSH1 0x60 PUSH1 0x20 DUP3 ADD MSTORE PUSH1 0x0 PUSH2 0x4DA6 PUSH1 0x60 DUP4 ADD DUP6 PUSH2 0x4D3A JUMP JUMPDEST SWAP1 POP DUP3 PUSH1 0x40 DUP4 ADD MSTORE SWAP5 SWAP4 POP POP POP POP JUMP JUMPDEST PUSH1 0x0 PUSH1 0x20 DUP3 DUP5 SUB SLT ISZERO PUSH2 0x4DC8 JUMPI PUSH1 0x0 DUP1 REVERT JUMPDEST DUP2 MLOAD PUSH8 0xFFFFFFFFFFFFFFFF DUP1 DUP3 GT ISZERO PUSH2 0x4DE0 JUMPI PUSH1 0x0 DUP1 REVERT JUMPDEST DUP2 DUP5 ADD SWAP2 POP DUP5 PUSH1 0x1F DUP4 ADD SLT PUSH2 0x4DF4 JUMPI PUSH1 0x0 DUP1 REVERT JUMPDEST DUP2 MLOAD DUP2 DUP2 GT ISZERO PUSH2 0x4E06 JUMPI PUSH2 0x4E06 PUSH2 0x4455 JUMP JUMPDEST PUSH2 0x4E37 PUSH1 0x20 PUSH32 0xFFFFFFFFFFFFFFFFFFFFFFFFFFFFFFFFFFFFFFFFFFFFFFFFFFFFFFFFFFFFFFE0 PUSH1 0x1F DUP5 ADD AND ADD PUSH2 0x44F3 JUMP JUMPDEST SWAP2 POP DUP1 DUP3 MSTORE DUP6 PUSH1 0x20 DUP3 DUP6 ADD ADD GT ISZERO PUSH2 0x4E4E JUMPI PUSH1 0x0 DUP1 REVERT JUMPDEST PUSH2 0x4E5F DUP2 PUSH1 0x20 DUP5 ADD PUSH1 0x20 DUP7 ADD PUSH2 0x4D16 JUMP JUMPDEST POP SWAP5 SWAP4 POP POP POP POP JUMP JUMPDEST PUSH1 0x0 DUP2 MLOAD DUP1 DUP5 MSTORE PUSH1 0x20 DUP1 DUP6 ADD SWAP5 POP DUP1 DUP5 ADD PUSH1 0x0 JUMPDEST DUP4 DUP2 LT ISZERO PUSH2 0x4E98 JUMPI DUP2 MLOAD DUP8 MSTORE SWAP6 DUP3 ADD SWAP6 SWAP1 DUP3 ADD SWAP1 PUSH1 0x1 ADD PUSH2 0x4E7C JUMP JUMPDEST POP SWAP5 SWAP6 SWAP5 POP POP POP POP POP JUMP JUMPDEST PUSH1 0x1 PUSH1 0x1 PUSH1 0xA0 SHL SUB DUP5 AND DUP2 MSTORE PUSH32 0xFFFFFFFF00000000000000000000000000000000000000000000000000000000 DUP4 AND PUSH1 0x20 DUP3 ADD MSTORE PUSH1 0x60 PUSH1 0x40 DUP3 ADD MSTORE PUSH1 0x0 PUSH2 0x36B8 PUSH1 0x60 DUP4 ADD DUP5 PUSH2 0x4E68 JUMP JUMPDEST DUP1 DUP3 MUL DUP2 ISZERO DUP3 DUP3 DIV DUP5 EQ OR PUSH2 0xD8F JUMPI PUSH2 0xD8F PUSH2 0x4CAF JUMP JUMPDEST PUSH1 0x0 PUSH1 0x20 DUP3 DUP5 SUB SLT ISZERO PUSH2 0x4F16 JUMPI PUSH1 0x0 DUP1 REVERT JUMPDEST POP MLOAD SWAP2 SWAP1 POP JUMP JUMPDEST PUSH1 0x0 PUSH1 0x1 PUSH1 0x1 PUSH1 0xA0 SHL SUB DUP1 DUP8 AND DUP4 MSTORE DUP1 DUP7 AND PUSH1 0x20 DUP5 ADD MSTORE POP PUSH32 0xFFFFFFFF00000000000000000000000000000000000000000000000000000000 DUP5 AND PUSH1 0x40 DUP4 ADD MSTORE PUSH1 0x80 PUSH1 0x60 DUP4 ADD MSTORE PUSH2 0x4F71 PUSH1 0x80 DUP4 ADD DUP5 PUSH2 0x4E68 JUMP JUMPDEST SWAP7 SWAP6 POP POP POP POP POP POP JUMP JUMPDEST PUSH1 0x0 PUSH1 0x20 DUP3 DUP5 SUB SLT ISZERO PUSH2 0x4F8D JUMPI PUSH1 0x0 DUP1 REVERT JUMPDEST DUP2 MLOAD PUSH2 0xF49 DUP2 PUSH2 0x45FA JUMP JUMPDEST PUSH32 0x4E487B7100000000000000000000000000000000000000000000000000000000 PUSH1 0x0 MSTORE PUSH1 0x12 PUSH1 0x4 MSTORE PUSH1 0x24 PUSH1 0x0 REVERT JUMPDEST PUSH1 0x0 DUP3 PUSH2 0x4FD6 JUMPI PUSH2 0x4FD6 PUSH2 0x4F98 JUMP JUMPDEST POP DIV SWAP1 JUMP JUMPDEST DUP1 DUP3 ADD DUP1 DUP3 GT ISZERO PUSH2 0xD8F JUMPI PUSH2 0xD8F PUSH2 0x4CAF JUMP JUMPDEST DUP2 DUP2 SUB DUP2 DUP2 GT ISZERO PUSH2 0xD8F JUMPI PUSH2 0xD8F PUSH2 0x4CAF JUMP JUMPDEST PUSH32 0x4E487B7100000000000000000000000000000000000000000000000000000000 PUSH1 0x0 MSTORE PUSH1 0x31 PUSH1 0x4 MSTORE PUSH1 0x24 PUSH1 0x0 REVERT JUMPDEST PUSH1 0x0 PUSH1 0x20 DUP3 DUP5 SUB SLT ISZERO PUSH2 0x5042 JUMPI PUSH1 0x0 DUP1 REVERT JUMPDEST DUP2 MLOAD PUSH2 0xF49 DUP2 PUSH2 0x4566 JUMP JUMPDEST PUSH1 0x0 DUP3 PUSH2 0x505C JUMPI PUSH2 0x505C PUSH2 0x4F98 JUMP JUMPDEST POP MOD SWAP1 JUMP JUMPDEST PUSH1 0x0 PUSH1 0x1 PUSH1 0x1 PUSH1 0xA0 SHL SUB DUP1 DUP7 AND DUP4 MSTORE DUP1 DUP6 AND PUSH1 0x20 DUP5 ADD MSTORE POP PUSH1 0x60 PUSH1 0x40 DUP4 ADD MSTORE PUSH2 0x36B8 PUSH1 0x60 DUP4 ADD DUP5 PUSH2 0x4D3A JUMP JUMPDEST DUP2 DUP2 SUB PUSH1 0x0 DUP4 SLT DUP1 ISZERO DUP4 DUP4 SGT AND DUP4 DUP4 SLT DUP3 AND OR ISZERO PUSH2 0x2734 JUMPI PUSH2 0x2734 PUSH2 0x4CAF JUMP JUMPDEST PUSH1 0x0 DUP3 PUSH2 0x50BC JUMPI PUSH2 0x50BC PUSH2 0x4F98 JUMP JUMPDEST PUSH32 0xFFFFFFFFFFFFFFFFFFFFFFFFFFFFFFFFFFFFFFFFFFFFFFFFFFFFFFFFFFFFFFFF DUP4 EQ PUSH32 0x8000000000000000000000000000000000000000000000000000000000000000 DUP4 EQ AND ISZERO PUSH2 0x5110 JUMPI PUSH2 0x5110 PUSH2 0x4CAF JUMP JUMPDEST POP SDIV SWAP1 JUMP JUMPDEST DUP1 DUP3 ADD DUP3 DUP2 SLT PUSH1 0x0 DUP4 SLT DUP1 ISZERO DUP3 AND DUP3 ISZERO DUP3 AND OR ISZERO PUSH2 0x5135 JUMPI PUSH2 0x5135 PUSH2 0x4CAF JUMP JUMPDEST POP POP SWAP3 SWAP2 POP POP JUMP JUMPDEST DUP1 DUP3 MUL PUSH1 0x0 DUP3 SLT PUSH32 0x8000000000000000000000000000000000000000000000000000000000000000 DUP5 EQ AND ISZERO PUSH2 0x5175 JUMPI PUSH2 0x5175 PUSH2 0x4CAF JUMP JUMPDEST DUP2 DUP2 SDIV DUP4 EQ DUP3 ISZERO OR PUSH2 0xD8F JUMPI PUSH2 0xD8F PUSH2 0x4CAF JUMP INVALID LOG2 PUSH5 0x6970667358 0x22 SLT KECCAK256 0x4E PUSH11 0x4C0EB157D2FD2CD631D898 SWAP13 SWAP14 0x24 SWAP11 0xD 0xFB ADD ADDRESS 0xC9 0x25 0xEC DUP13 SIGNEXTEND PUSH21 0x9C8F3D7E7964736F6C634300081100330000000000 "},"methodIdentifiers":{"EXECUTION_TYPE()":"4a45a3a8","authorizer()":"d09edf31","call(address,uint256)":"3bd9ef28","customTokenThreshold(address)":"a5900c4d","customVolumeLimit(address)":"221a8c68","defaultTokenThreshold()":"a3374177","defaultVolumeLimit()":"6aacaad8","feeCollector()":"c415b95c","getBalanceConnectors()":"5670e2ce","getGasLimits()":"5ea54eee","getTaskAmount(address)":"a0c3774f","getTimeLock()":"119a5e96","getTokenThreshold(address)":"51a424b1","getTokensSource()":"c267621e","getVolumeLimit(address)":"d45a76cf","initializeRainbowClaimer(((address,bytes32,bytes32),(uint256,uint256,uint256,uint256),(uint8,uint256,uint256,uint256),(uint8,address[]),((address,uint256,uint256),(address,(address,uint256,uint256))[]),((address,uint256,uint256),(address,(address,uint256,uint256))[])),address,address)":"60174e3f","isPaused()":"b187bd26","isTokenAllowed(address)":"f9eaee0d","pause()":"8456cb59","rainbowRouter()":"ca4fbbcb","setBalanceConnectors(bytes32,bytes32)":"7125590a","setCustomTokenThreshold(address,address,uint256,uint256)":"2384c32d","setCustomVolumeLimit(address,address,uint256,uint256)":"423a4b40","setDefaultTokenThreshold(address,uint256,uint256)":"d3feb602","setDefaultVolumeLimit(address,uint256,uint256)":"90333ba8","setFeeCollector(address)":"a42dce80","setGasLimits(uint256,uint256,uint256,uint256)":"e6b5be98","setRainbowRouter(address)":"c0ba40ae","setTimeLock(uint8,uint256,uint256,uint256)":"0fe105e8","setTokensAcceptanceList(address[],bool[])":"21972384","setTokensAcceptanceType(uint8)":"30eae572","smartVault()":"4fd49efd","tokensAcceptanceType()":"42d4693e","unpause()":"3f4ba83a"}}}}}