{"contracts/ExchangeAllocator.sol":{"ExchangeAllocator":{"abi":[{"anonymous":false,"inputs":[{"indexed":true,"internalType":"address","name":"allocationExchange","type":"address"}],"name":"AllocationExchangeSet","type":"event"},{"anonymous":false,"inputs":[{"indexed":true,"internalType":"bytes32","name":"previous","type":"bytes32"},{"indexed":true,"internalType":"bytes32","name":"next","type":"bytes32"}],"name":"BalanceConnectorsSet","type":"event"},{"anonymous":false,"inputs":[{"indexed":true,"internalType":"address","name":"token","type":"address"},{"indexed":false,"internalType":"address","name":"thresholdToken","type":"address"},{"indexed":false,"internalType":"uint256","name":"min","type":"uint256"},{"indexed":false,"internalType":"uint256","name":"max","type":"uint256"}],"name":"CustomTokenThresholdSet","type":"event"},{"anonymous":false,"inputs":[{"indexed":true,"internalType":"address","name":"token","type":"address"},{"indexed":true,"internalType":"address","name":"limitToken","type":"address"},{"indexed":false,"internalType":"uint256","name":"amount","type":"uint256"},{"indexed":false,"internalType":"uint256","name":"period","type":"uint256"}],"name":"CustomVolumeLimitSet","type":"event"},{"anonymous":false,"inputs":[{"indexed":false,"internalType":"address","name":"token","type":"address"},{"indexed":false,"internalType":"uint256","name":"min","type":"uint256"},{"indexed":false,"internalType":"uint256","name":"max","type":"uint256"}],"name":"DefaultTokenThresholdSet","type":"event"},{"anonymous":false,"inputs":[{"indexed":true,"internalType":"address","name":"token","type":"address"},{"indexed":false,"internalType":"uint256","name":"amount","type":"uint256"},{"indexed":false,"internalType":"uint256","name":"period","type":"uint256"}],"name":"DefaultVolumeLimitSet","type":"event"},{"anonymous":false,"inputs":[],"name":"Executed","type":"event"},{"anonymous":false,"inputs":[{"indexed":false,"internalType":"uint256","name":"gasPriceLimit","type":"uint256"}],"name":"GasPriceLimitSet","type":"event"},{"anonymous":false,"inputs":[{"indexed":false,"internalType":"uint8","name":"version","type":"uint8"}],"name":"Initialized","type":"event"},{"anonymous":false,"inputs":[],"name":"Paused","type":"event"},{"anonymous":false,"inputs":[{"indexed":false,"internalType":"uint256","name":"priorityFeeLimit","type":"uint256"}],"name":"PriorityFeeLimitSet","type":"event"},{"anonymous":false,"inputs":[{"indexed":false,"internalType":"uint256","name":"delay","type":"uint256"}],"name":"TimeLockDelaySet","type":"event"},{"anonymous":false,"inputs":[{"indexed":false,"internalType":"uint256","name":"period","type":"uint256"}],"name":"TimeLockExecutionPeriodSet","type":"event"},{"anonymous":false,"inputs":[{"indexed":false,"internalType":"uint256","name":"expiration","type":"uint256"}],"name":"TimeLockExpirationSet","type":"event"},{"anonymous":false,"inputs":[{"indexed":true,"internalType":"address","name":"token","type":"address"},{"indexed":false,"internalType":"bool","name":"added","type":"bool"}],"name":"TokensAcceptanceListSet","type":"event"},{"anonymous":false,"inputs":[{"indexed":false,"internalType":"enum ITokenIndexedTask.TokensAcceptanceType","name":"acceptanceType","type":"uint8"}],"name":"TokensAcceptanceTypeSet","type":"event"},{"anonymous":false,"inputs":[{"indexed":true,"internalType":"address","name":"tokensSource","type":"address"}],"name":"TokensSourceSet","type":"event"},{"anonymous":false,"inputs":[{"indexed":false,"internalType":"uint256","name":"txCostLimitPct","type":"uint256"}],"name":"TxCostLimitPctSet","type":"event"},{"anonymous":false,"inputs":[{"indexed":false,"internalType":"uint256","name":"txCostLimit","type":"uint256"}],"name":"TxCostLimitSet","type":"event"},{"anonymous":false,"inputs":[],"name":"Unpaused","type":"event"},{"inputs":[],"name":"EXECUTION_TYPE","outputs":[{"internalType":"bytes32","name":"","type":"bytes32"}],"stateMutability":"view","type":"function"},{"inputs":[],"name":"allocationExchange","outputs":[{"internalType":"address","name":"","type":"address"}],"stateMutability":"view","type":"function"},{"inputs":[],"name":"authorizer","outputs":[{"internalType":"address","name":"","type":"address"}],"stateMutability":"view","type":"function"},{"inputs":[{"internalType":"address","name":"token","type":"address"},{"internalType":"uint256","name":"amount","type":"uint256"}],"name":"call","outputs":[],"stateMutability":"nonpayable","type":"function"},{"inputs":[{"internalType":"address","name":"token","type":"address"}],"name":"customTokenThreshold","outputs":[{"components":[{"internalType":"address","name":"token","type":"address"},{"internalType":"uint256","name":"min","type":"uint256"},{"internalType":"uint256","name":"max","type":"uint256"}],"internalType":"struct ITokenThresholdTask.Threshold","name":"","type":"tuple"}],"stateMutability":"view","type":"function"},{"inputs":[{"internalType":"address","name":"token","type":"address"}],"name":"customVolumeLimit","outputs":[{"components":[{"internalType":"address","name":"token","type":"address"},{"internalType":"uint256","name":"amount","type":"uint256"},{"internalType":"uint256","name":"accrued","type":"uint256"},{"internalType":"uint256","name":"period","type":"uint256"},{"internalType":"uint256","name":"nextResetTime","type":"uint256"}],"internalType":"struct IVolumeLimitedTask.VolumeLimit","name":"","type":"tuple"}],"stateMutability":"view","type":"function"},{"inputs":[],"name":"defaultTokenThreshold","outputs":[{"components":[{"internalType":"address","name":"token","type":"address"},{"internalType":"uint256","name":"min","type":"uint256"},{"internalType":"uint256","name":"max","type":"uint256"}],"internalType":"struct ITokenThresholdTask.Threshold","name":"","type":"tuple"}],"stateMutability":"view","type":"function"},{"inputs":[],"name":"defaultVolumeLimit","outputs":[{"components":[{"internalType":"address","name":"token","type":"address"},{"internalType":"uint256","name":"amount","type":"uint256"},{"internalType":"uint256","name":"accrued","type":"uint256"},{"internalType":"uint256","name":"period","type":"uint256"},{"internalType":"uint256","name":"nextResetTime","type":"uint256"}],"internalType":"struct IVolumeLimitedTask.VolumeLimit","name":"","type":"tuple"}],"stateMutability":"view","type":"function"},{"inputs":[],"name":"gasPriceLimit","outputs":[{"internalType":"uint256","name":"","type":"uint256"}],"stateMutability":"view","type":"function"},{"inputs":[{"internalType":"address","name":"token","type":"address"}],"name":"getTaskAmount","outputs":[{"internalType":"uint256","name":"","type":"uint256"}],"stateMutability":"view","type":"function"},{"inputs":[{"internalType":"address","name":"token","type":"address"}],"name":"getTokenThreshold","outputs":[{"components":[{"internalType":"address","name":"token","type":"address"},{"internalType":"uint256","name":"min","type":"uint256"},{"internalType":"uint256","name":"max","type":"uint256"}],"internalType":"struct ITokenThresholdTask.Threshold","name":"","type":"tuple"}],"stateMutability":"view","type":"function"},{"inputs":[],"name":"getTokensSource","outputs":[{"internalType":"address","name":"","type":"address"}],"stateMutability":"view","type":"function"},{"inputs":[{"internalType":"address","name":"token","type":"address"}],"name":"getVolumeLimit","outputs":[{"components":[{"internalType":"address","name":"token","type":"address"},{"internalType":"uint256","name":"amount","type":"uint256"},{"internalType":"uint256","name":"accrued","type":"uint256"},{"internalType":"uint256","name":"period","type":"uint256"},{"internalType":"uint256","name":"nextResetTime","type":"uint256"}],"internalType":"struct IVolumeLimitedTask.VolumeLimit","name":"","type":"tuple"}],"stateMutability":"view","type":"function"},{"inputs":[{"components":[{"internalType":"address","name":"tokensSource","type":"address"},{"components":[{"components":[{"internalType":"address","name":"smartVault","type":"address"},{"internalType":"bytes32","name":"previousBalanceConnectorId","type":"bytes32"},{"internalType":"bytes32","name":"nextBalanceConnectorId","type":"bytes32"}],"internalType":"struct BaseTask.BaseConfig","name":"baseConfig","type":"tuple"},{"components":[{"internalType":"uint256","name":"gasPriceLimit","type":"uint256"},{"internalType":"uint256","name":"priorityFeeLimit","type":"uint256"},{"internalType":"uint256","name":"txCostLimit","type":"uint256"},{"internalType":"uint256","name":"txCostLimitPct","type":"uint256"}],"internalType":"struct GasLimitedTask.GasLimitConfig","name":"gasLimitConfig","type":"tuple"},{"components":[{"internalType":"uint256","name":"delay","type":"uint256"},{"internalType":"uint256","name":"nextExecutionTimestamp","type":"uint256"},{"internalType":"uint256","name":"executionPeriod","type":"uint256"}],"internalType":"struct TimeLockedTask.TimeLockConfig","name":"timeLockConfig","type":"tuple"},{"components":[{"internalType":"enum ITokenIndexedTask.TokensAcceptanceType","name":"acceptanceType","type":"uint8"},{"internalType":"address[]","name":"tokens","type":"address[]"}],"internalType":"struct TokenIndexedTask.TokenIndexConfig","name":"tokenIndexConfig","type":"tuple"},{"components":[{"components":[{"internalType":"address","name":"token","type":"address"},{"internalType":"uint256","name":"min","type":"uint256"},{"internalType":"uint256","name":"max","type":"uint256"}],"internalType":"struct ITokenThresholdTask.Threshold","name":"defaultThreshold","type":"tuple"},{"components":[{"internalType":"address","name":"token","type":"address"},{"components":[{"internalType":"address","name":"token","type":"address"},{"internalType":"uint256","name":"min","type":"uint256"},{"internalType":"uint256","name":"max","type":"uint256"}],"internalType":"struct ITokenThresholdTask.Threshold","name":"threshold","type":"tuple"}],"internalType":"struct TokenThresholdTask.CustomThresholdConfig[]","name":"customThresholdConfigs","type":"tuple[]"}],"internalType":"struct TokenThresholdTask.TokenThresholdConfig","name":"tokenThresholdConfig","type":"tuple"},{"components":[{"components":[{"internalType":"address","name":"token","type":"address"},{"internalType":"uint256","name":"amount","type":"uint256"},{"internalType":"uint256","name":"period","type":"uint256"}],"internalType":"struct VolumeLimitedTask.VolumeLimitParams","name":"defaultVolumeLimit","type":"tuple"},{"components":[{"internalType":"address","name":"token","type":"address"},{"components":[{"internalType":"address","name":"token","type":"address"},{"internalType":"uint256","name":"amount","type":"uint256"},{"internalType":"uint256","name":"period","type":"uint256"}],"internalType":"struct VolumeLimitedTask.VolumeLimitParams","name":"volumeLimit","type":"tuple"}],"internalType":"struct VolumeLimitedTask.CustomVolumeLimitConfig[]","name":"customVolumeLimitConfigs","type":"tuple[]"}],"internalType":"struct VolumeLimitedTask.VolumeLimitConfig","name":"volumeLimitConfig","type":"tuple"}],"internalType":"struct Task.TaskConfig","name":"taskConfig","type":"tuple"}],"internalType":"struct Collector.CollectConfig","name":"","type":"tuple"}],"name":"initialize","outputs":[],"stateMutability":"pure","type":"function"},{"inputs":[{"components":[{"internalType":"address","name":"tokensSource","type":"address"},{"components":[{"components":[{"internalType":"address","name":"smartVault","type":"address"},{"internalType":"bytes32","name":"previousBalanceConnectorId","type":"bytes32"},{"internalType":"bytes32","name":"nextBalanceConnectorId","type":"bytes32"}],"internalType":"struct BaseTask.BaseConfig","name":"baseConfig","type":"tuple"},{"components":[{"internalType":"uint256","name":"gasPriceLimit","type":"uint256"},{"internalType":"uint256","name":"priorityFeeLimit","type":"uint256"},{"internalType":"uint256","name":"txCostLimit","type":"uint256"},{"internalType":"uint256","name":"txCostLimitPct","type":"uint256"}],"internalType":"struct GasLimitedTask.GasLimitConfig","name":"gasLimitConfig","type":"tuple"},{"components":[{"internalType":"uint256","name":"delay","type":"uint256"},{"internalType":"uint256","name":"nextExecutionTimestamp","type":"uint256"},{"internalType":"uint256","name":"executionPeriod","type":"uint256"}],"internalType":"struct TimeLockedTask.TimeLockConfig","name":"timeLockConfig","type":"tuple"},{"components":[{"internalType":"enum ITokenIndexedTask.TokensAcceptanceType","name":"acceptanceType","type":"uint8"},{"internalType":"address[]","name":"tokens","type":"address[]"}],"internalType":"struct TokenIndexedTask.TokenIndexConfig","name":"tokenIndexConfig","type":"tuple"},{"components":[{"components":[{"internalType":"address","name":"token","type":"address"},{"internalType":"uint256","name":"min","type":"uint256"},{"internalType":"uint256","name":"max","type":"uint256"}],"internalType":"struct ITokenThresholdTask.Threshold","name":"defaultThreshold","type":"tuple"},{"components":[{"internalType":"address","name":"token","type":"address"},{"components":[{"internalType":"address","name":"token","type":"address"},{"internalType":"uint256","name":"min","type":"uint256"},{"internalType":"uint256","name":"max","type":"uint256"}],"internalType":"struct ITokenThresholdTask.Threshold","name":"threshold","type":"tuple"}],"internalType":"struct TokenThresholdTask.CustomThresholdConfig[]","name":"customThresholdConfigs","type":"tuple[]"}],"internalType":"struct TokenThresholdTask.TokenThresholdConfig","name":"tokenThresholdConfig","type":"tuple"},{"components":[{"components":[{"internalType":"address","name":"token","type":"address"},{"internalType":"uint256","name":"amount","type":"uint256"},{"internalType":"uint256","name":"period","type":"uint256"}],"internalType":"struct VolumeLimitedTask.VolumeLimitParams","name":"defaultVolumeLimit","type":"tuple"},{"components":[{"internalType":"address","name":"token","type":"address"},{"components":[{"internalType":"address","name":"token","type":"address"},{"internalType":"uint256","name":"amount","type":"uint256"},{"internalType":"uint256","name":"period","type":"uint256"}],"internalType":"struct VolumeLimitedTask.VolumeLimitParams","name":"volumeLimit","type":"tuple"}],"internalType":"struct VolumeLimitedTask.CustomVolumeLimitConfig[]","name":"customVolumeLimitConfigs","type":"tuple[]"}],"internalType":"struct VolumeLimitedTask.VolumeLimitConfig","name":"volumeLimitConfig","type":"tuple"}],"internalType":"struct Task.TaskConfig","name":"taskConfig","type":"tuple"}],"internalType":"struct Collector.CollectConfig","name":"config","type":"tuple"},{"internalType":"address","name":"exchange","type":"address"}],"name":"initializeExchangeAllocator","outputs":[],"stateMutability":"nonpayable","type":"function"},{"inputs":[],"name":"isPaused","outputs":[{"internalType":"bool","name":"","type":"bool"}],"stateMutability":"view","type":"function"},{"inputs":[],"name":"nextBalanceConnectorId","outputs":[{"internalType":"bytes32","name":"","type":"bytes32"}],"stateMutability":"view","type":"function"},{"inputs":[],"name":"pause","outputs":[],"stateMutability":"nonpayable","type":"function"},{"inputs":[],"name":"previousBalanceConnectorId","outputs":[{"internalType":"bytes32","name":"","type":"bytes32"}],"stateMutability":"view","type":"function"},{"inputs":[],"name":"priorityFeeLimit","outputs":[{"internalType":"uint256","name":"","type":"uint256"}],"stateMutability":"view","type":"function"},{"inputs":[{"internalType":"address","name":"newAllocationExchange","type":"address"}],"name":"setAllocationExchange","outputs":[],"stateMutability":"nonpayable","type":"function"},{"inputs":[{"internalType":"bytes32","name":"previous","type":"bytes32"},{"internalType":"bytes32","name":"next","type":"bytes32"}],"name":"setBalanceConnectors","outputs":[],"stateMutability":"nonpayable","type":"function"},{"inputs":[{"internalType":"address","name":"token","type":"address"},{"internalType":"address","name":"thresholdToken","type":"address"},{"internalType":"uint256","name":"thresholdMin","type":"uint256"},{"internalType":"uint256","name":"thresholdMax","type":"uint256"}],"name":"setCustomTokenThreshold","outputs":[],"stateMutability":"nonpayable","type":"function"},{"inputs":[{"internalType":"address","name":"token","type":"address"},{"internalType":"address","name":"limitToken","type":"address"},{"internalType":"uint256","name":"limitAmount","type":"uint256"},{"internalType":"uint256","name":"limitPeriod","type":"uint256"}],"name":"setCustomVolumeLimit","outputs":[],"stateMutability":"nonpayable","type":"function"},{"inputs":[{"internalType":"address","name":"thresholdToken","type":"address"},{"internalType":"uint256","name":"thresholdMin","type":"uint256"},{"internalType":"uint256","name":"thresholdMax","type":"uint256"}],"name":"setDefaultTokenThreshold","outputs":[],"stateMutability":"nonpayable","type":"function"},{"inputs":[{"internalType":"address","name":"limitToken","type":"address"},{"internalType":"uint256","name":"limitAmount","type":"uint256"},{"internalType":"uint256","name":"limitPeriod","type":"uint256"}],"name":"setDefaultVolumeLimit","outputs":[],"stateMutability":"nonpayable","type":"function"},{"inputs":[{"internalType":"uint256","name":"newGasPriceLimit","type":"uint256"}],"name":"setGasPriceLimit","outputs":[],"stateMutability":"nonpayable","type":"function"},{"inputs":[{"internalType":"uint256","name":"newPriorityFeeLimit","type":"uint256"}],"name":"setPriorityFeeLimit","outputs":[],"stateMutability":"nonpayable","type":"function"},{"inputs":[{"internalType":"uint256","name":"delay","type":"uint256"}],"name":"setTimeLockDelay","outputs":[],"stateMutability":"nonpayable","type":"function"},{"inputs":[{"internalType":"uint256","name":"period","type":"uint256"}],"name":"setTimeLockExecutionPeriod","outputs":[],"stateMutability":"nonpayable","type":"function"},{"inputs":[{"internalType":"uint256","name":"expiration","type":"uint256"}],"name":"setTimeLockExpiration","outputs":[],"stateMutability":"nonpayable","type":"function"},{"inputs":[{"internalType":"address[]","name":"tokens","type":"address[]"},{"internalType":"bool[]","name":"added","type":"bool[]"}],"name":"setTokensAcceptanceList","outputs":[],"stateMutability":"nonpayable","type":"function"},{"inputs":[{"internalType":"enum ITokenIndexedTask.TokensAcceptanceType","name":"newTokensAcceptanceType","type":"uint8"}],"name":"setTokensAcceptanceType","outputs":[],"stateMutability":"nonpayable","type":"function"},{"inputs":[{"internalType":"address","name":"tokensSource","type":"address"}],"name":"setTokensSource","outputs":[],"stateMutability":"nonpayable","type":"function"},{"inputs":[{"internalType":"uint256","name":"newTxCostLimit","type":"uint256"}],"name":"setTxCostLimit","outputs":[],"stateMutability":"nonpayable","type":"function"},{"inputs":[{"internalType":"uint256","name":"newTxCostLimitPct","type":"uint256"}],"name":"setTxCostLimitPct","outputs":[],"stateMutability":"nonpayable","type":"function"},{"inputs":[],"name":"smartVault","outputs":[{"internalType":"address","name":"","type":"address"}],"stateMutability":"view","type":"function"},{"inputs":[],"name":"timeLockDelay","outputs":[{"internalType":"uint256","name":"","type":"uint256"}],"stateMutability":"view","type":"function"},{"inputs":[],"name":"timeLockExecutionPeriod","outputs":[{"internalType":"uint256","name":"","type":"uint256"}],"stateMutability":"view","type":"function"},{"inputs":[],"name":"timeLockExpiration","outputs":[{"internalType":"uint256","name":"","type":"uint256"}],"stateMutability":"view","type":"function"},{"inputs":[],"name":"tokensAcceptanceType","outputs":[{"internalType":"enum ITokenIndexedTask.TokensAcceptanceType","name":"","type":"uint8"}],"stateMutability":"view","type":"function"},{"inputs":[],"name":"txCostLimit","outputs":[{"internalType":"uint256","name":"","type":"uint256"}],"stateMutability":"view","type":"function"},{"inputs":[],"name":"txCostLimitPct","outputs":[{"internalType":"uint256","name":"","type":"uint256"}],"stateMutability":"view","type":"function"},{"inputs":[],"name":"unpause","outputs":[],"stateMutability":"nonpayable","type":"function"}],"evm":{"bytecode":{"linkReferences":{},"object":"60806040523480156200001157600080fd5b506200001c62000022565b620000e4565b600054610100900460ff16156200008f5760405162461bcd60e51b815260206004820152602760248201527f496e697469616c697a61626c653a20636f6e747261637420697320696e697469604482015266616c697a696e6760c81b606482015260840160405180910390fd5b60005460ff9081161015620000e2576000805460ff191660ff9081179091556040519081527f7f26b83ff96e1f2b6a682f133852f6798a09c465da95921460cefb38474024989060200160405180910390a15b565b614a0480620000f46000396000f3fe608060405234801561001057600080fd5b50600436106102f45760003560e01c80638553853311610191578063b187bd26116100e3578063d45a76cf11610097578063ee98cf6d11610071578063ee98cf6d14610658578063f440284b1461066b578063f605145b1461067e57600080fd5b8063d45a76cf14610629578063d4dfd5881461063c578063dccf56ce1461064557600080fd5b8063c49a91fe116100c8578063c49a91fe146105ea578063d09edf31146105fd578063d3feb6021461061657600080fd5b8063b187bd26146105bc578063c267621e146105d957600080fd5b8063a0c3774f11610145578063ab76d4081161011f578063ab76d4081461058d578063ad8d76b314610596578063af51b26d146105a957600080fd5b8063a0c3774f1461055f578063a337417714610572578063a5900c4d1461057a57600080fd5b806390333ba81161017657806390333ba814610530578063961a929c14610543578063993fd4de1461054c57600080fd5b8063855385331461051e5780638bbc64461461052757600080fd5b80634a45a3a81161024a5780636aacaad8116101fe5780637d43d4ed116101d85780637d43d4ed146104fa57806382f01a0b146105035780638456cb591461051657600080fd5b80636aacaad8146104d65780636cd8fca7146104de5780637125590a146104e757600080fd5b806351a424b11161022f57806351a424b11461047c5780635d28414c146104ba57806360343c2f146104c357600080fd5b80634a45a3a81461041c5780634fd49efd1461045157600080fd5b806330eae572116102ac5780633f4ba83a116102865780633f4ba83a146103e7578063423a4b40146103ef57806342d4693e1461040257600080fd5b806330eae572146103ae57806334077acc146103c15780633bd9ef28146103d457600080fd5b806321972384116102dd5780632197238414610321578063221a8c68146103345780632384c32d1461039b57600080fd5b80630652095d146102f9578063092316021461030e575b600080fd5b61030c610307366004613f02565b610687565b005b61030c61031c366004613f02565b6106cc565b61030c61032f3660046140c3565b61070d565b610347610342366004614187565b6107f0565b6040516103929190600060a0820190506001600160a01b0383511682526020830151602083015260408301516040830152606083015160608301526080830151608083015292915050565b60405180910390f35b61030c6103a93660046141a4565b610886565b61030c6103bc3660046141fe565b6108d4565b61030c6103cf366004613f02565b610929565b61030c6103e2366004614219565b61096a565b61030c610a40565b61030c6103fd3660046141a4565b610b13565b600d5461040f9060ff1681565b6040516103929190614274565b6104437fcbce9983fcd5fc099294db3138f1660107f2bd5b23b9fa0002d7df1db9d854cb81565b604051908152602001610392565b600154610464906001600160a01b031681565b6040516001600160a01b039091168152602001610392565b61048f61048a366004614187565b610b5a565b6040805182516001600160a01b03168152602080840151908201529181015190820152606001610392565b610443600b5481565b61030c6104d13660046146a5565b610be5565b610347610c2d565b61044360075481565b61030c6104f53660046146da565b610ca6565b61044360085481565b61030c610511366004614187565b610ce9565b61030c610d2a565b610443600c5481565b610443600a5481565b61030c61053e3660046146fc565b610e01565b61044360065481565b61030c61055a366004614187565b610e4c565b61044361056d366004614187565b610e8d565b61048f610f97565b61048f610588366004614187565b610ff2565b61044360025481565b61030c6105a4366004614731565b611063565b601b54610464906001600160a01b031681565b6004546105c99060ff1681565b6040519015158152602001610392565b601a546001600160a01b0316610464565b61030c6105f8366004613f02565b6111df565b600054610464906201000090046001600160a01b031681565b61030c6106243660046146fc565b611220565b610347610637366004614187565b611265565b61044360095481565b61030c610653366004613f02565b6112f1565b61030c610666366004613f02565b611332565b61030c610679366004613f02565b611373565b61044360035481565b610690816113b4565b6106bf336000357fffffffff0000000000000000000000000000000000000000000000000000000016836113fb565b6106c882611452565b5050565b6106d5816113b4565b610704336000357fffffffff0000000000000000000000000000000000000000000000000000000016836113fb565b6106c88261148e565b61073b336000357fffffffff00000000000000000000000000000000000000000000000000000000166114c3565b80518251146107915760405162461bcd60e51b815260206004820152601a60248201527f5441534b5f414343455054414e43455f4241445f4c454e47544800000000000060448201526064015b60405180910390fd5b60005b82518110156107eb576107d98382815181106107b2576107b2614783565b60200260200101518383815181106107cc576107cc614783565b60200260200101516114df565b806107e3816147e1565b915050610794565b505050565b61082b6040518060a0016040528060006001600160a01b03168152602001600081526020016000815260200160008152602001600081525090565b506001600160a01b03908116600090815260196020908152604091829020825160a081018452815490941684526001810154918401919091526002810154918301919091526003810154606083015260040154608082015290565b6108928484848461159f565b6108c1336000357fffffffff0000000000000000000000000000000000000000000000000000000016836113fb565b6108cd8585858561165c565b5050505050565b6108f18160018111156108e9576108e9614245565b60ff166113b4565b610920336000357fffffffff0000000000000000000000000000000000000000000000000000000016836113fb565b6106c88261172b565b610932816113b4565b610961336000357fffffffff0000000000000000000000000000000000000000000000000000000016836113fb565b6106c88261179b565b61097482826117d0565b6109a3336000357fffffffff0000000000000000000000000000000000000000000000000000000016836113fb565b6109ad838361183f565b600154601a546040517fc8fea2fb0000000000000000000000000000000000000000000000000000000081526001600160a01b03868116600483015291821660248201526044810185905291169063c8fea2fb90606401600060405180830381600087803b158015610a1e57600080fd5b505af1158015610a32573d6000803e3d6000fd5b505050506107eb83836118ef565b610a6e336000357fffffffff00000000000000000000000000000000000000000000000000000000166114c3565b60045460ff16610ac05760405162461bcd60e51b815260206004820152601560248201527f5441534b5f414c52454144595f554e50415553454400000000000000000000006044820152606401610788565b600480547fffffffffffffffffffffffffffffffffffffffffffffffffffffffffffffff001690556040517fa45f47fdea8a1efdd9029a5691c7f759c32b7c698632b563573e155625d1693390600090a1565b610b1f8484848461159f565b610b4e336000357fffffffff0000000000000000000000000000000000000000000000000000000016836113fb565b6108cd85858585611903565b610b87604051806060016040528060006001600160a01b0316815260200160008152602001600081525090565b6001600160a01b038083166000908152601360205260409020805490911615610bb05780610bb3565b60105b6040805160608101825282546001600160a01b0316815260018301546020820152600290920154908201529392505050565b60405162461bcd60e51b815260206004820152601e60248201527f434f4c4c4543544f525f494e495449414c495a45525f44495341424c454400006044820152606401610788565b610c686040518060a0016040528060006001600160a01b03168152602001600081526020016000815260200160008152602001600081525090565b506040805160a0810182526014546001600160a01b031681526015546020820152601654918101919091526017546060820152601854608082015290565b610cb082826119d9565b610cdf336000357fffffffff0000000000000000000000000000000000000000000000000000000016836113fb565b6107eb8383611a33565b610cf281611a8b565b610d21336000357fffffffff0000000000000000000000000000000000000000000000000000000016836113fb565b6106c882611aa5565b610d58336000357fffffffff00000000000000000000000000000000000000000000000000000000166114c3565b60045460ff1615610dab5760405162461bcd60e51b815260206004820152601360248201527f5441534b5f414c52454144595f504155534544000000000000000000000000006044820152606401610788565b600480547fffffffffffffffffffffffffffffffffffffffffffffffffffffffffffffff001660011790556040517f9e87fac88ff661f02d44f95383c817fece4bce600a3dab7a54406878b965e75290600090a1565b610e0c838383611b07565b610e3b336000357fffffffff0000000000000000000000000000000000000000000000000000000016836113fb565b610e46848484611b99565b50505050565b610e5581611a8b565b610e84336000357fffffffff0000000000000000000000000000000000000000000000000000000016836113fb565b6106c882611bef565b600080610e9983610b5a565b8051601b546040517f70a082310000000000000000000000000000000000000000000000000000000081526001600160a01b0391821660048201529293506000929116906370a0823190602401602060405180830381865afa158015610f03573d6000803e3d6000fd5b505050506040513d601f19601f82011682018060405250810190610f279190614819565b905081602001518110610f3e575060009392505050565b6000818360400151610f509190614832565b905082600001516001600160a01b0316856001600160a01b031614610f8c57610f87610f80846000015187611ca7565b8290611cba565b610f8e565b805b95945050505050565b610fc4604051806060016040528060006001600160a01b0316815260200160008152602001600081525090565b50604080516060810182526010546001600160a01b0316815260115460208201526012549181019190915290565b61101f604051806060016040528060006001600160a01b0316815260200160008152602001600081525090565b506001600160a01b03908116600090815260136020908152604091829020825160608101845281549094168452600181015491840191909152600201549082015290565b600054610100900460ff16158080156110835750600054600160ff909116105b8061109d5750303b15801561109d575060005460ff166001145b61110f5760405162461bcd60e51b815260206004820152602e60248201527f496e697469616c697a61626c653a20636f6e747261637420697320616c72656160448201527f647920696e697469616c697a65640000000000000000000000000000000000006064820152608401610788565b600080547fffffffffffffffffffffffffffffffffffffffffffffffffffffffffffffff00166001179055801561116d57600080547fffffffffffffffffffffffffffffffffffffffffffffffffffffffffffff00ff166101001790555b6111778383611d6c565b80156107eb57600080547fffffffffffffffffffffffffffffffffffffffffffffffffffffffffffff00ff169055604051600181527f7f26b83ff96e1f2b6a682f133852f6798a09c465da95921460cefb3847402498906020015b60405180910390a1505050565b6111e8816113b4565b611217336000357fffffffff0000000000000000000000000000000000000000000000000000000016836113fb565b6106c882611dea565b61122b838383611b07565b61125a336000357fffffffff0000000000000000000000000000000000000000000000000000000016836113fb565b610e46848484611e71565b6112a06040518060a0016040528060006001600160a01b03168152602001600081526020016000815260200160008152602001600081525090565b6112a982611ec5565b6040805160a08101825282546001600160a01b031681526001830154602082015260028301549181019190915260038201546060820152600490910154608082015292915050565b6112fa816113b4565b611329336000357fffffffff0000000000000000000000000000000000000000000000000000000016836113fb565b6106c882611ef9565b61133b816113b4565b61136a336000357fffffffff0000000000000000000000000000000000000000000000000000000016836113fb565b6106c882611f86565b61137c816113b4565b6113ab336000357fffffffff0000000000000000000000000000000000000000000000000000000016836113fb565b6106c88261200d565b6040805160018082528183019092526060916020808301908036833701905050905081816000815181106113ea576113ea614783565b602002602001018181525050919050565b611406838383612042565b6107eb5760405162461bcd60e51b815260206004820152601760248201527f415554485f53454e4445525f4e4f545f414c4c4f5745440000000000000000006044820152606401610788565b60088190556040518181527f3f6c9c24d9513c13d3b3cde07a6d023891e0a453697b804236062ff89f8911bf906020015b60405180910390a150565b60068190556040518181527f82a6981d2edcffa06330f002d2155243475d202ce6cc11693da2ca897fb8e37290602001611483565b6040805160008152602081019091526106c890839083906113fb565b6001600160a01b0382166115355760405162461bcd60e51b815260206004820152601a60248201527f5441534b5f414343455054414e43455f544f4b454e5f5a45524f0000000000006044820152606401610788565b8061154a57611545600e836120d8565b611555565b611555600e836120ed565b50816001600160a01b03167f6264362e9de26efefda321dfaeb4e4a9090deef40c5435fad8e9e2e306889a1c82604051611593911515815260200190565b60405180910390a25050565b60408051600480825260a0820190925260609160208201608080368337019050509050846001600160a01b0316816000815181106115df576115df614783565b602002602001018181525050836001600160a01b03168160018151811061160857611608614783565b602002602001018181525050828160028151811061162857611628614783565b602002602001018181525050818160038151811061164857611648614783565b602002602001018181525050949350505050565b6001600160a01b0384166116b25760405162461bcd60e51b815260206004820152601960248201527f5441534b5f5448524553484f4c445f544f4b454e5f5a45524f000000000000006044820152606401610788565b6001600160a01b03841660009081526013602052604090206116d690848484612102565b604080516001600160a01b03858116825260208201859052918101839052908516907ff099617c054d3a65e02a9c3b786f23cc03d5982bc7cfae84dff0408049cf17079060600160405180910390a250505050565b600d80548291907fffffffffffffffffffffffffffffffffffffffffffffffffffffffffffffff00166001838181111561176757611767614245565b02179055507f216b6a9618d607ba436d0f2e17e9a83e70929adff805ac2385d67401360e551a816040516114839190614274565b60078190556040518181527fea12b72eef155a5c546ace7f0bb7e8dc49ef4e666c276cdc6d5687b83525fada90602001611483565b6040805160028082526060808301845292602083019080368337019050509050826001600160a01b03168160008151811061180d5761180d614783565b602002602001018181525050818160018151811061182d5761182d614783565b60200260200101818152505092915050565b61184982826121e3565b6001600160a01b03821661189f5760405162461bcd60e51b815260206004820152600f60248201527f5441534b5f544f4b454e5f5a45524f00000000000000000000000000000000006044820152606401610788565b600081116106c85760405162461bcd60e51b815260206004820152601060248201527f5441534b5f414d4f554e545f5a45524f000000000000000000000000000000006044820152606401610788565b6118f98282612229565b6106c882826122c8565b6001600160a01b0384166119595760405162461bcd60e51b815260206004820152601c60248201527f5441534b5f564f4c554d455f4c494d49545f544f4b454e5f5a45524f000000006044820152606401610788565b6001600160a01b038416600090815260196020526040902061197d908484846122f0565b826001600160a01b0316846001600160a01b03167f1b5c5e27ed5443e409bae85849d41d7bf12d5352e8fddb3728b6408f836e144884846040516119cb929190918252602082015260400190565b60405180910390a350505050565b60408051600280825260608083018452926020830190803683370190505090508260001c81600081518110611a1057611a10614783565b6020026020010181815250508160001c8160018151811061182d5761182d614783565b8115611a815760405162461bcd60e51b815260206004820181905260248201527f5441534b5f50524556494f55535f434f4e4e4543544f525f4e4f545f5a45524f6044820152606401610788565b6106c88282612460565b6060611a9f826001600160a01b03166113b4565b92915050565b601b80547fffffffffffffffffffffffff0000000000000000000000000000000000000000166001600160a01b0383169081179091556040517f1a27d153d5379ae01da179a2ceda4281879ee8c7d57c728eabc52c89c64aca1790600090a250565b60408051600380825260808201909252606091602082018380368337019050509050836001600160a01b031681600081518110611b4657611b46614783565b6020026020010181815250508281600181518110611b6657611b66614783565b6020026020010181815250508181600281518110611b8657611b86614783565b6020026020010181815250509392505050565b611ba660148484846122f0565b60408051838152602081018390526001600160a01b038516917f6324b5f18e615697a2b44f16d7a649deb0bbbc7cb09dad4c610306105730e7d9910160405180910390a2505050565b6001600160a01b038116611c455760405162461bcd60e51b815260206004820152601760248201527f5441534b5f544f4b454e535f534f555243455f5a45524f0000000000000000006044820152606401610788565b601a80547fffffffffffffffffffffffff0000000000000000000000000000000000000000166001600160a01b0383169081179091556040517f1614e726b084b514c185bf6bca77bc3eb2242e5b905c019703431dd46a9bd03490600090a250565b6000611cb383836124f4565b9392505050565b6000828202831580611cda575082848281611cd757611cd7614845565b04145b611d265760405162461bcd60e51b815260206004820152600c60248201527f4d554c5f4f564552464c4f5700000000000000000000000000000000000000006044820152606401610788565b8015611d6157670de0b6b3a76400007fffffffffffffffffffffffffffffffffffffffffffffffffffffffffffffffff820104600101611d64565b60005b949350505050565b600054610100900460ff16611dd75760405162461bcd60e51b815260206004820152602b60248201527f496e697469616c697a61626c653a20636f6e7472616374206973206e6f74206960448201526a6e697469616c697a696e6760a81b6064820152608401610788565b611de08261266e565b6106c882826126f2565b600c54811015611e3c5760405162461bcd60e51b815260206004820152601e60248201527f5441534b5f44454c41595f47545f455845435554494f4e5f504552494f4400006044820152606401610788565b600a8190556040518181527f19977a2303ceb34bef2e4dd4565faac5f9b6ebc0c20a5ee6ec7aca38d5b1593890602001611483565b611e7e6010848484612102565b604080516001600160a01b0385168152602081018490529081018290527fa80953bdc344b2ebd0bcdd001a3418a8fd1b858bdecf12a4ba5a9366ad65d345906060016111d2565b6001600160a01b0380821660009081526019602052604081208054919290911615611ef05780611cb3565b60149392505050565b670de0b6b3a7640000811115611f515760405162461bcd60e51b815260206004820181905260248201527f5441534b5f54585f434f53545f4c494d49545f5043545f41424f56455f4f4e456044820152606401610788565b60098190556040518181527f6f595fa7bd8d8d8862d5832788f1ce1fe642af019a167c3bb93c793246185a9690602001611483565b600a54811115611fd85760405162461bcd60e51b815260206004820152601e60248201527f5441534b5f455845435554494f4e5f504552494f445f47545f44454c415900006044820152606401610788565b600c8190556040518181527f6243d0b89023d75f69a263222092c4479e48ec8866bee94a0c6d38288425ca7690602001611483565b600b8190556040518181527f591533b8b1db3df52ac5cbf75069102b6618d2a941cb88c223fd353ff4e65d4d90602001611483565b600080546040517f28522895000000000000000000000000000000000000000000000000000000008152620100009091046001600160a01b031690632852289590612097908790309088908890600401614874565b602060405180830381865afa1580156120b4573d6000803e3d6000fd5b505050506040513d601f19601f82011682018060405250810190611d649190614900565b6000611cb3836001600160a01b038416612766565b6000611cb3836001600160a01b038416612859565b60006001600160a01b038416158015612119575082155b8015612123575081155b905060006001600160a01b0385161580159061214757508215806121475750838310155b905081806121525750805b61219e5760405162461bcd60e51b815260206004820152601c60248201527f5441534b5f494e56414c49445f5448524553484f4c445f494e505554000000006044820152606401610788565b505083547fffffffffffffffffffffffff0000000000000000000000000000000000000000166001600160a01b03939093169290921783556001830155600290910155565b6121ed82826128a8565b6121f782826128b2565b6122018282612905565b61220b82826129cc565b6122158282612ab8565b61221f8282612b3f565b6106c88282612c2d565b600354156106c857600180546003546040517feb056bbb00000000000000000000000000000000000000000000000000000000815260048101919091526001600160a01b03858116602483015260448201859052606482019390935291169063eb056bbb906084015b600060405180830381600087803b1580156122ac57600080fd5b505af11580156122c0573d6000803e3d6000fd5b505050505050565b6122d28282612d41565b6122dc8282612de3565b6122e68282612e63565b6106c882826130cb565b60006001600160a01b038416158015612307575082155b8015612311575081155b905060006001600160a01b0385161580159061232d5750600084115b80156123395750600083115b905081806123445750805b6123905760405162461bcd60e51b815260206004820152601f60248201527f5441534b5f494e56414c49445f564f4c554d455f4c494d49545f494e505554006044820152606401610788565b600386018390556001860184905581156123b7576000600287018190556004870155612423565b85600401546000036123de57600060028701556123d4834261491d565b6004870155612423565b85546001600160a01b0386811691161461242357855460009061240a906001600160a01b031687611ca7565b600288015490915061241c90826130f8565b6002880155505b505083547fffffffffffffffffffffffff0000000000000000000000000000000000000000166001600160a01b0393909316929092179092555050565b808214158061246d575081155b6124b95760405162461bcd60e51b815260206004820152601c60248201527f5441534b5f53414d455f42414c414e43455f434f4e4e4543544f5253000000006044820152606401610788565b60028290556003819055604051819083907ff950a929751d87db181a0a517df21bb3ecd433abba584594402db4b58a55483590600090a35050565b600080600160009054906101000a90046001600160a01b03166001600160a01b0316632630c12f6040518163ffffffff1660e01b8152600401602060405180830381865afa15801561254a573d6000803e3d6000fd5b505050506040513d601f19601f8201168201806040525081019061256e9190614930565b90506001600160a01b0381166125c65760405162461bcd60e51b815260206004820152601960248201527f5441534b5f50524943455f4f5241434c455f4e4f545f534554000000000000006044820152606401610788565b806001600160a01b031663ac41865a6125de86613176565b6125e786613176565b6040517fffffffff0000000000000000000000000000000000000000000000000000000060e085901b1681526001600160a01b03928316600482015291166024820152604401602060405180830381865afa15801561264a573d6000803e3d6000fd5b505050506040513d601f19601f82011682018060405250810190611d649190614819565b600054610100900460ff166126d95760405162461bcd60e51b815260206004820152602b60248201527f496e697469616c697a61626c653a20636f6e7472616374206973206e6f74206960448201526a6e697469616c697a696e6760a81b6064820152608401610788565b6126e681602001516131aa565b6126ef81613272565b50565b600054610100900460ff1661275d5760405162461bcd60e51b815260206004820152602b60248201527f496e697469616c697a61626c653a20636f6e7472616374206973206e6f74206960448201526a6e697469616c697a696e6760a81b6064820152608401610788565b6106c881611aa5565b6000818152600183016020526040812054801561284f57600061278a600183614832565b855490915060009061279e90600190614832565b90508181146128035760008660000182815481106127be576127be614783565b90600052602060002001549050808760000184815481106127e1576127e1614783565b6000918252602080832090910192909255918252600188019052604090208390555b85548690806128145761281461494d565b600190038181906000526020600020016000905590558560010160008681526020019081526020016000206000905560019350505050611a9f565b6000915050611a9f565b60008181526001830160205260408120546128a057508154600181810184556000848152602080822090930184905584548482528286019093526040902091909155611a9f565b506000611a9f565b6106c882826132e8565b60045460ff16156106c85760405162461bcd60e51b815260206004820152600b60248201527f5441534b5f5041555345440000000000000000000000000000000000000000006044820152606401610788565b5a600555600654158061291a57506006543a11155b6129665760405162461bcd60e51b815260206004820152601460248201527f5441534b5f4741535f50524943455f4c494d49540000000000000000000000006044820152606401610788565b6007541580612980575060075461297d483a614832565b11155b6106c85760405162461bcd60e51b815260206004820152601760248201527f5441534b5f5052494f524954595f4645455f4c494d49540000000000000000006044820152606401610788565b600b54421015612a1e5760405162461bcd60e51b815260206004820152601a60248201527f5441534b5f54494d455f4c4f434b5f4e4f545f455850495245440000000000006044820152606401610788565b600c54156106c8576000600b5442612a369190614832565b90506000600a5482612a48919061497c565b90506000600a5482612a5a91906149b7565b612a649084614832565b9050600c548111156108cd5760405162461bcd60e51b815260206004820152601f60248201527f5441534b5f54494d455f4c4f434b5f574149545f4e4558545f504552494f44006044820152606401610788565b6000612ac5600e84613354565b905060006001600d5460ff166001811115612ae257612ae2614245565b14612aee578115612af0565b815b905080610e465760405162461bcd60e51b815260206004820152601660248201527f5441534b5f544f4b454e5f4e4f545f414c4c4f574544000000000000000000006044820152606401610788565b6000612b4a83610b5a565b8051601b546040517f70a082310000000000000000000000000000000000000000000000000000000081526001600160a01b0391821660048201529293506000929116906370a0823190602401602060405180830381865afa158015612bb4573d6000803e3d6000fd5b505050506040513d601f19601f82011682018060405250810190612bd89190614819565b905081602001518110610e465760405162461bcd60e51b815260206004820152601c60248201527f5441534b5f544f4b454e5f5448524553484f4c445f4e4f545f4d4554000000006044820152606401610788565b6000612c3883611ec5565b6040805160a08101825282546001600160a01b031680825260018401546020830152600284015492820192909252600383015460608201526004909201546080830152909150612c8757505050565b6000836001600160a01b031682600001516001600160a01b031614612cc357612cbe612cb7858460000151611ca7565b84906130f8565b612cc5565b825b9050600082608001514210612cdb576000612ce1565b82604001515b612ceb908361491d565b905082602001518111156108cd5760405162461bcd60e51b815260206004820152601a60248201527f5441534b5f564f4c554d455f4c494d49545f45584345454445440000000000006044820152606401610788565b6000612d4c83611ec5565b80549091506001600160a01b0316612d6357505050565b80546000906001600160a01b03858116911614612d99578154612d9490612cb79086906001600160a01b0316611ca7565b612d9b565b825b905081600401544210612dc457600060028301556003820154612dbe904261491d565b60048301555b80826002016000828254612dd8919061491d565b909155505050505050565b600a54156106c8576000600b54600003612e0b57600a54612e04904261491d565b9050612e5a565b6000600b5442612e1b9190614832565b90506000600a5482612e2d919061497c565b612e3890600161491d565b9050600a5481612e4891906149b7565b600b54612e55919061491d565b925050505b6107eb8161200d565b600060055411612eb55760405162461bcd60e51b815260206004820152601860248201527f5441534b5f4741535f4e4f545f494e495449414c495a454400000000000000006044820152606401610788565b60005a600554612ec59190614832565b90506000612ed33a836149b7565b905060085460001480612ee857506008548111155b612f345760405162461bcd60e51b815260206004820152601260248201527f5441534b5f54585f434f53545f4c494d495400000000000000000000000000006044820152606401610788565b600060055560095415610e465760008311612f915760405162461bcd60e51b815260206004820152601660248201527f5441534b5f54585f434f53545f4c494d49545f504354000000000000000000006044820152606401610788565b600061305f306001600160a01b0316634fd49efd6040518163ffffffff1660e01b8152600401602060405180830381865afa158015612fd4573d6000803e3d6000fd5b505050506040513d601f19601f82011682018060405250810190612ff89190614930565b6001600160a01b03166317fcb39b6040518163ffffffff1660e01b8152600401602060405180830381865afa158015613035573d6000803e3d6000fd5b505050506040513d601f19601f820116820180604052508101906130599190614930565b86611ca7565b9050600061306d8383611cba565b60095490915061307d8287613376565b11156122c05760405162461bcd60e51b815260206004820152601660248201527f5441534b5f54585f434f53545f4c494d49545f504354000000000000000000006044820152606401610788565b6040517f68f46c45a243a0e9065a97649faf9a5afe1692f2679e650c2f853b9cd734cc0e90600090a15050565b600082820283158061311857508284828161311557613115614845565b04145b6131645760405162461bcd60e51b815260206004820152600c60248201527f4d554c5f4f564552464c4f5700000000000000000000000000000000000000006044820152606401610788565b670de0b6b3a764000090049392505050565b600073eeeeeeeeeeeeeeeeeeeeeeeeeeeeeeeeeeeeeeee6001600160a01b038316146131a25781611a9f565b611a9f613461565b600054610100900460ff166132155760405162461bcd60e51b815260206004820152602b60248201527f496e697469616c697a61626c653a20636f6e7472616374206973206e6f74206960448201526a6e697469616c697a696e6760a81b6064820152608401610788565b8051613220906134ed565b6132286135cf565b6132358160200151613644565b61324281604001516136b8565b61324f816060015161372c565b61325c81608001516137a0565b6132698160a00151613814565b6126ef81613888565b600054610100900460ff166132dd5760405162461bcd60e51b815260206004820152602b60248201527f496e697469616c697a61626c653a20636f6e7472616374206973206e6f74206960448201526a6e697469616c697a696e6760a81b6064820152608401610788565b80516126ef90611bef565b600254156106c8576001546002546040517feb056bbb00000000000000000000000000000000000000000000000000000000815260048101919091526001600160a01b03848116602483015260448201849052600060648301529091169063eb056bbb90608401612292565b6001600160a01b03811660009081526001830160205260408120541515611cb3565b6000816000036133c85760405162461bcd60e51b815260206004820152600d60248201527f5a45524f5f4449564953494f4e000000000000000000000000000000000000006044820152606401610788565b826000036133d857506000611a9f565b670de0b6b3a7640000838102908482816133f4576133f4614845565b04146134425760405162461bcd60e51b815260206004820152600c60248201527f4449565f494e5445524e414c00000000000000000000000000000000000000006044820152606401610788565b82600182038161345457613454614845565b0460010191505092915050565b600154604080517f17fcb39b00000000000000000000000000000000000000000000000000000000815290516000926001600160a01b0316916317fcb39b9160048083019260209291908290030181865afa1580156134c4573d6000803e3d6000fd5b505050506040513d601f19601f820116820180604052508101906134e89190614930565b905090565b600054610100900460ff166135585760405162461bcd60e51b815260206004820152602b60248201527f496e697469616c697a61626c653a20636f6e7472616374206973206e6f74206960448201526a6e697469616c697a696e6760a81b6064820152608401610788565b6135c681600001516001600160a01b031663d09edf316040518163ffffffff1660e01b8152600401602060405180830381865afa15801561359d573d6000803e3d6000fd5b505050506040513d601f19601f820116820180604052508101906135c19190614930565b6138f3565b6126ef81613967565b600054610100900460ff1661363a5760405162461bcd60e51b815260206004820152602b60248201527f496e697469616c697a61626c653a20636f6e7472616374206973206e6f74206960448201526a6e697469616c697a696e6760a81b6064820152608401610788565b613642613a1f565b565b600054610100900460ff166136af5760405162461bcd60e51b815260206004820152602b60248201527f496e697469616c697a61626c653a20636f6e7472616374206973206e6f74206960448201526a6e697469616c697a696e6760a81b6064820152608401610788565b6126ef81613a8a565b600054610100900460ff166137235760405162461bcd60e51b815260206004820152602b60248201527f496e697469616c697a61626c653a20636f6e7472616374206973206e6f74206960448201526a6e697469616c697a696e6760a81b6064820152608401610788565b6126ef81613b27565b600054610100900460ff166137975760405162461bcd60e51b815260206004820152602b60248201527f496e697469616c697a61626c653a20636f6e7472616374206973206e6f74206960448201526a6e697469616c697a696e6760a81b6064820152608401610788565b6126ef81613bb7565b600054610100900460ff1661380b5760405162461bcd60e51b815260206004820152602b60248201527f496e697469616c697a61626c653a20636f6e7472616374206973206e6f74206960448201526a6e697469616c697a696e6760a81b6064820152608401610788565b6126ef81613c77565b600054610100900460ff1661387f5760405162461bcd60e51b815260206004820152602b60248201527f496e697469616c697a61626c653a20636f6e7472616374206973206e6f74206960448201526a6e697469616c697a696e6760a81b6064820152608401610788565b6126ef81613d67565b600054610100900460ff166126ef5760405162461bcd60e51b815260206004820152602b60248201527f496e697469616c697a61626c653a20636f6e7472616374206973206e6f74206960448201526a6e697469616c697a696e6760a81b6064820152608401610788565b600054610100900460ff1661395e5760405162461bcd60e51b815260206004820152602b60248201527f496e697469616c697a61626c653a20636f6e7472616374206973206e6f74206960448201526a6e697469616c697a696e6760a81b6064820152608401610788565b6126ef81613e57565b600054610100900460ff166139d25760405162461bcd60e51b815260206004820152602b60248201527f496e697469616c697a61626c653a20636f6e7472616374206973206e6f74206960448201526a6e697469616c697a696e6760a81b6064820152608401610788565b8051600180547fffffffffffffffffffffffff0000000000000000000000000000000000000000166001600160a01b03909216919091179055602081015160408201516126ef9190611a33565b600054610100900460ff166136425760405162461bcd60e51b815260206004820152602b60248201527f496e697469616c697a61626c653a20636f6e7472616374206973206e6f74206960448201526a6e697469616c697a696e6760a81b6064820152608401610788565b600054610100900460ff16613af55760405162461bcd60e51b815260206004820152602b60248201527f496e697469616c697a61626c653a20636f6e7472616374206973206e6f74206960448201526a6e697469616c697a696e6760a81b6064820152608401610788565b8051613b009061148e565b613b0d816020015161179b565b613b1a8160400151611452565b6126ef8160600151611ef9565b600054610100900460ff16613b925760405162461bcd60e51b815260206004820152602b60248201527f496e697469616c697a61626c653a20636f6e7472616374206973206e6f74206960448201526a6e697469616c697a696e6760a81b6064820152608401610788565b8051613b9d90611dea565b613baa816020015161200d565b6126ef8160400151611f86565b600054610100900460ff16613c225760405162461bcd60e51b815260206004820152602b60248201527f496e697469616c697a61626c653a20636f6e7472616374206973206e6f74206960448201526a6e697469616c697a696e6760a81b6064820152608401610788565b8051613c2d9061172b565b60005b8160200151518110156106c857613c6582602001518281518110613c5657613c56614783565b602002602001015160016114df565b80613c6f816147e1565b915050613c30565b600054610100900460ff16613ce25760405162461bcd60e51b815260206004820152602b60248201527f496e697469616c697a61626c653a20636f6e7472616374206973206e6f74206960448201526a6e697469616c697a696e6760a81b6064820152608401610788565b8051805160208201516040830151613cfb929190611e71565b60005b8260200151518110156107eb57600083602001518281518110613d2357613d23614783565b60200260200101519050600081602001519050613d52826000015182600001518360200151846040015161165c565b50508080613d5f906147e1565b915050613cfe565b600054610100900460ff16613dd25760405162461bcd60e51b815260206004820152602b60248201527f496e697469616c697a61626c653a20636f6e7472616374206973206e6f74206960448201526a6e697469616c697a696e6760a81b6064820152608401610788565b8051805160208201516040830151613deb929190611b99565b60005b8260200151518110156107eb57600083602001518281518110613e1357613e13614783565b60200260200101519050600081602001519050613e428260000151826000015183602001518460400151611903565b50508080613e4f906147e1565b915050613dee565b600054610100900460ff16613ec25760405162461bcd60e51b815260206004820152602b60248201527f496e697469616c697a61626c653a20636f6e7472616374206973206e6f74206960448201526a6e697469616c697a696e6760a81b6064820152608401610788565b600080546001600160a01b0390921662010000027fffffffffffffffffffff0000000000000000000000000000000000000000ffff909216919091179055565b600060208284031215613f1457600080fd5b5035919050565b7f4e487b7100000000000000000000000000000000000000000000000000000000600052604160045260246000fd5b6040516060810167ffffffffffffffff81118282101715613f6d57613f6d613f1b565b60405290565b6040805190810167ffffffffffffffff81118282101715613f6d57613f6d613f1b565b60405160c0810167ffffffffffffffff81118282101715613f6d57613f6d613f1b565b604051601f82017fffffffffffffffffffffffffffffffffffffffffffffffffffffffffffffffe016810167ffffffffffffffff8111828210171561400057614000613f1b565b604052919050565b600067ffffffffffffffff82111561402257614022613f1b565b5060051b60200190565b6001600160a01b03811681146126ef57600080fd5b600082601f83011261405257600080fd5b8135602061406761406283614008565b613fb9565b82815260059290921b8401810191818101908684111561408657600080fd5b8286015b848110156140aa57803561409d8161402c565b835291830191830161408a565b509695505050505050565b80151581146126ef57600080fd5b600080604083850312156140d657600080fd5b823567ffffffffffffffff808211156140ee57600080fd5b6140fa86838701614041565b935060209150818501358181111561411157600080fd5b85019050601f8101861361412457600080fd5b803561413261406282614008565b81815260059190911b8201830190838101908883111561415157600080fd5b928401925b82841015614178578335614169816140b5565b82529284019290840190614156565b80955050505050509250929050565b60006020828403121561419957600080fd5b8135611cb38161402c565b600080600080608085870312156141ba57600080fd5b84356141c58161402c565b935060208501356141d58161402c565b93969395505050506040820135916060013590565b8035600281106141f957600080fd5b919050565b60006020828403121561421057600080fd5b611cb3826141ea565b6000806040838503121561422c57600080fd5b82356142378161402c565b946020939093013593505050565b7f4e487b7100000000000000000000000000000000000000000000000000000000600052602160045260246000fd5b60208101600283106142af577f4e487b7100000000000000000000000000000000000000000000000000000000600052602160045260246000fd5b91905290565b6000606082840312156142c757600080fd5b6142cf613f4a565b905081356142dc8161402c565b80825250602082013560208201526040820135604082015292915050565b60006080828403121561430c57600080fd5b6040516080810181811067ffffffffffffffff8211171561432f5761432f613f1b565b8060405250809150823581526020830135602082015260408301356040820152606083013560608201525092915050565b60006060828403121561437257600080fd5b61437a613f4a565b905081358152602082013560208201526040820135604082015292915050565b6000604082840312156143ac57600080fd5b6143b4613f73565b90506143bf826141ea565b8152602082013567ffffffffffffffff8111156143db57600080fd5b6143e784828501614041565b60208301525092915050565b60006080828403121561440557600080fd5b61440d613f73565b9050813561441a8161402c565b815261442983602084016142b5565b602082015292915050565b6000608080838503121561444757600080fd5b61444f613f73565b915061445b84846142b5565b8252606083013567ffffffffffffffff81111561447757600080fd5b8301601f8101851361448857600080fd5b8035602061449861406283614008565b82815260079290921b830181019181810190888411156144b757600080fd5b938201935b838510156144dd576144ce89866143f3565b825293850193908201906144bc565b808388015250505050505092915050565b6000608080838503121561450157600080fd5b614509613f73565b915061451584846142b5565b8252606083013567ffffffffffffffff81111561453157600080fd5b8301601f8101851361454257600080fd5b8035602061455261406283614008565b82815260079290921b8301810191818101908884111561457157600080fd5b938201935b838510156144dd5761458889866143f3565b82529385019390820190614576565b6000604082840312156145a957600080fd5b6145b1613f73565b905081356145be8161402c565b8152602082013567ffffffffffffffff808211156145db57600080fd5b908301906101a082860312156145f057600080fd5b6145f8613f96565b61460286846142b5565b815261461186606085016142fa565b60208201526146238660e08501614360565b60408201526101408301358281111561463b57600080fd5b6146478782860161439a565b6060830152506101608301358281111561466057600080fd5b61466c87828601614434565b6080830152506101808301358281111561468557600080fd5b614691878286016144ee565b60a083015250602084015250909392505050565b6000602082840312156146b757600080fd5b813567ffffffffffffffff8111156146ce57600080fd5b611d6484828501614597565b600080604083850312156146ed57600080fd5b50508035926020909101359150565b60008060006060848603121561471157600080fd5b833561471c8161402c565b95602085013595506040909401359392505050565b6000806040838503121561474457600080fd5b823567ffffffffffffffff81111561475b57600080fd5b61476785828601614597565b92505060208301356147788161402c565b809150509250929050565b7f4e487b7100000000000000000000000000000000000000000000000000000000600052603260045260246000fd5b7f4e487b7100000000000000000000000000000000000000000000000000000000600052601160045260246000fd5b60007fffffffffffffffffffffffffffffffffffffffffffffffffffffffffffffffff8203614812576148126147b2565b5060010190565b60006020828403121561482b57600080fd5b5051919050565b81810381811115611a9f57611a9f6147b2565b7f4e487b7100000000000000000000000000000000000000000000000000000000600052601260045260246000fd5b6000608082016001600160a01b0380881684526020818816818601527fffffffff000000000000000000000000000000000000000000000000000000008716604086015260806060860152829150855180845260a086019250818701935060005b818110156148f1578451845293820193928201926001016148d5565b50919998505050505050505050565b60006020828403121561491257600080fd5b8151611cb3816140b5565b80820180821115611a9f57611a9f6147b2565b60006020828403121561494257600080fd5b8151611cb38161402c565b7f4e487b7100000000000000000000000000000000000000000000000000000000600052603160045260246000fd5b6000826149b2577f4e487b7100000000000000000000000000000000000000000000000000000000600052601260045260246000fd5b500490565b8082028115828204841417611a9f57611a9f6147b256fea26469706673582212209fcd14e0da46d44e601d1f7e0febc473a1c1fc10efe497ab8958128c63c41cfe64736f6c63430008110033","opcodes":"PUSH1 0x80 PUSH1 0x40 MSTORE CALLVALUE DUP1 ISZERO PUSH3 0x11 JUMPI PUSH1 0x0 DUP1 REVERT JUMPDEST POP PUSH3 0x1C PUSH3 0x22 JUMP JUMPDEST PUSH3 0xE4 JUMP JUMPDEST PUSH1 0x0 SLOAD PUSH2 0x100 SWAP1 DIV PUSH1 0xFF AND ISZERO PUSH3 0x8F JUMPI PUSH1 0x40 MLOAD PUSH3 0x461BCD PUSH1 0xE5 SHL DUP2 MSTORE PUSH1 0x20 PUSH1 0x4 DUP3 ADD MSTORE PUSH1 0x27 PUSH1 0x24 DUP3 ADD MSTORE PUSH32 0x496E697469616C697A61626C653A20636F6E747261637420697320696E697469 PUSH1 0x44 DUP3 ADD MSTORE PUSH7 0x616C697A696E67 PUSH1 0xC8 SHL PUSH1 0x64 DUP3 ADD MSTORE PUSH1 0x84 ADD PUSH1 0x40 MLOAD DUP1 SWAP2 SUB SWAP1 REVERT JUMPDEST PUSH1 0x0 SLOAD PUSH1 0xFF SWAP1 DUP2 AND LT ISZERO PUSH3 0xE2 JUMPI PUSH1 0x0 DUP1 SLOAD PUSH1 0xFF NOT AND PUSH1 0xFF SWAP1 DUP2 OR SWAP1 SWAP2 SSTORE PUSH1 0x40 MLOAD SWAP1 DUP2 MSTORE PUSH32 0x7F26B83FF96E1F2B6A682F133852F6798A09C465DA95921460CEFB3847402498 SWAP1 PUSH1 0x20 ADD PUSH1 0x40 MLOAD DUP1 SWAP2 SUB SWAP1 LOG1 JUMPDEST JUMP JUMPDEST PUSH2 0x4A04 DUP1 PUSH3 0xF4 PUSH1 0x0 CODECOPY PUSH1 0x0 RETURN INVALID PUSH1 0x80 PUSH1 0x40 MSTORE CALLVALUE DUP1 ISZERO PUSH2 0x10 JUMPI PUSH1 0x0 DUP1 REVERT JUMPDEST POP PUSH1 0x4 CALLDATASIZE LT PUSH2 0x2F4 JUMPI PUSH1 0x0 CALLDATALOAD PUSH1 0xE0 SHR DUP1 PUSH4 0x85538533 GT PUSH2 0x191 JUMPI DUP1 PUSH4 0xB187BD26 GT PUSH2 0xE3 JUMPI DUP1 PUSH4 0xD45A76CF GT PUSH2 0x97 JUMPI DUP1 PUSH4 0xEE98CF6D GT PUSH2 0x71 JUMPI DUP1 PUSH4 0xEE98CF6D EQ PUSH2 0x658 JUMPI DUP1 PUSH4 0xF440284B EQ PUSH2 0x66B JUMPI DUP1 PUSH4 0xF605145B EQ PUSH2 0x67E JUMPI PUSH1 0x0 DUP1 REVERT JUMPDEST DUP1 PUSH4 0xD45A76CF EQ PUSH2 0x629 JUMPI DUP1 PUSH4 0xD4DFD588 EQ PUSH2 0x63C JUMPI DUP1 PUSH4 0xDCCF56CE EQ PUSH2 0x645 JUMPI PUSH1 0x0 DUP1 REVERT JUMPDEST DUP1 PUSH4 0xC49A91FE GT PUSH2 0xC8 JUMPI DUP1 PUSH4 0xC49A91FE EQ PUSH2 0x5EA JUMPI DUP1 PUSH4 0xD09EDF31 EQ PUSH2 0x5FD JUMPI DUP1 PUSH4 0xD3FEB602 EQ PUSH2 0x616 JUMPI PUSH1 0x0 DUP1 REVERT JUMPDEST DUP1 PUSH4 0xB187BD26 EQ PUSH2 0x5BC JUMPI DUP1 PUSH4 0xC267621E EQ PUSH2 0x5D9 JUMPI PUSH1 0x0 DUP1 REVERT JUMPDEST DUP1 PUSH4 0xA0C3774F GT PUSH2 0x145 JUMPI DUP1 PUSH4 0xAB76D408 GT PUSH2 0x11F JUMPI DUP1 PUSH4 0xAB76D408 EQ PUSH2 0x58D JUMPI DUP1 PUSH4 0xAD8D76B3 EQ PUSH2 0x596 JUMPI DUP1 PUSH4 0xAF51B26D EQ PUSH2 0x5A9 JUMPI PUSH1 0x0 DUP1 REVERT JUMPDEST DUP1 PUSH4 0xA0C3774F EQ PUSH2 0x55F JUMPI DUP1 PUSH4 0xA3374177 EQ PUSH2 0x572 JUMPI DUP1 PUSH4 0xA5900C4D EQ PUSH2 0x57A JUMPI PUSH1 0x0 DUP1 REVERT JUMPDEST DUP1 PUSH4 0x90333BA8 GT PUSH2 0x176 JUMPI DUP1 PUSH4 0x90333BA8 EQ PUSH2 0x530 JUMPI DUP1 PUSH4 0x961A929C EQ PUSH2 0x543 JUMPI DUP1 PUSH4 0x993FD4DE EQ PUSH2 0x54C JUMPI PUSH1 0x0 DUP1 REVERT JUMPDEST DUP1 PUSH4 0x85538533 EQ PUSH2 0x51E JUMPI DUP1 PUSH4 0x8BBC6446 EQ PUSH2 0x527 JUMPI PUSH1 0x0 DUP1 REVERT JUMPDEST DUP1 PUSH4 0x4A45A3A8 GT PUSH2 0x24A JUMPI DUP1 PUSH4 0x6AACAAD8 GT PUSH2 0x1FE JUMPI DUP1 PUSH4 0x7D43D4ED GT PUSH2 0x1D8 JUMPI DUP1 PUSH4 0x7D43D4ED EQ PUSH2 0x4FA JUMPI DUP1 PUSH4 0x82F01A0B EQ PUSH2 0x503 JUMPI DUP1 PUSH4 0x8456CB59 EQ PUSH2 0x516 JUMPI PUSH1 0x0 DUP1 REVERT JUMPDEST DUP1 PUSH4 0x6AACAAD8 EQ PUSH2 0x4D6 JUMPI DUP1 PUSH4 0x6CD8FCA7 EQ PUSH2 0x4DE JUMPI DUP1 PUSH4 0x7125590A EQ PUSH2 0x4E7 JUMPI PUSH1 0x0 DUP1 REVERT JUMPDEST DUP1 PUSH4 0x51A424B1 GT PUSH2 0x22F JUMPI DUP1 PUSH4 0x51A424B1 EQ PUSH2 0x47C JUMPI DUP1 PUSH4 0x5D28414C EQ PUSH2 0x4BA JUMPI DUP1 PUSH4 0x60343C2F EQ PUSH2 0x4C3 JUMPI PUSH1 0x0 DUP1 REVERT JUMPDEST DUP1 PUSH4 0x4A45A3A8 EQ PUSH2 0x41C JUMPI DUP1 PUSH4 0x4FD49EFD EQ PUSH2 0x451 JUMPI PUSH1 0x0 DUP1 REVERT JUMPDEST DUP1 PUSH4 0x30EAE572 GT PUSH2 0x2AC JUMPI DUP1 PUSH4 0x3F4BA83A GT PUSH2 0x286 JUMPI DUP1 PUSH4 0x3F4BA83A EQ PUSH2 0x3E7 JUMPI DUP1 PUSH4 0x423A4B40 EQ PUSH2 0x3EF JUMPI DUP1 PUSH4 0x42D4693E EQ PUSH2 0x402 JUMPI PUSH1 0x0 DUP1 REVERT JUMPDEST DUP1 PUSH4 0x30EAE572 EQ PUSH2 0x3AE JUMPI DUP1 PUSH4 0x34077ACC EQ PUSH2 0x3C1 JUMPI DUP1 PUSH4 0x3BD9EF28 EQ PUSH2 0x3D4 JUMPI PUSH1 0x0 DUP1 REVERT JUMPDEST DUP1 PUSH4 0x21972384 GT PUSH2 0x2DD JUMPI DUP1 PUSH4 0x21972384 EQ PUSH2 0x321 JUMPI DUP1 PUSH4 0x221A8C68 EQ PUSH2 0x334 JUMPI DUP1 PUSH4 0x2384C32D EQ PUSH2 0x39B JUMPI PUSH1 0x0 DUP1 REVERT JUMPDEST DUP1 PUSH4 0x652095D EQ PUSH2 0x2F9 JUMPI DUP1 PUSH4 0x9231602 EQ PUSH2 0x30E JUMPI JUMPDEST PUSH1 0x0 DUP1 REVERT JUMPDEST PUSH2 0x30C PUSH2 0x307 CALLDATASIZE PUSH1 0x4 PUSH2 0x3F02 JUMP JUMPDEST PUSH2 0x687 JUMP JUMPDEST STOP JUMPDEST PUSH2 0x30C PUSH2 0x31C CALLDATASIZE PUSH1 0x4 PUSH2 0x3F02 JUMP JUMPDEST PUSH2 0x6CC JUMP JUMPDEST PUSH2 0x30C PUSH2 0x32F CALLDATASIZE PUSH1 0x4 PUSH2 0x40C3 JUMP JUMPDEST PUSH2 0x70D JUMP JUMPDEST PUSH2 0x347 PUSH2 0x342 CALLDATASIZE PUSH1 0x4 PUSH2 0x4187 JUMP JUMPDEST PUSH2 0x7F0 JUMP JUMPDEST PUSH1 0x40 MLOAD PUSH2 0x392 SWAP2 SWAP1 PUSH1 0x0 PUSH1 0xA0 DUP3 ADD SWAP1 POP PUSH1 0x1 PUSH1 0x1 PUSH1 0xA0 SHL SUB DUP4 MLOAD AND DUP3 MSTORE PUSH1 0x20 DUP4 ADD MLOAD PUSH1 0x20 DUP4 ADD MSTORE PUSH1 0x40 DUP4 ADD MLOAD PUSH1 0x40 DUP4 ADD MSTORE PUSH1 0x60 DUP4 ADD MLOAD PUSH1 0x60 DUP4 ADD MSTORE PUSH1 0x80 DUP4 ADD MLOAD PUSH1 0x80 DUP4 ADD MSTORE SWAP3 SWAP2 POP POP JUMP JUMPDEST PUSH1 0x40 MLOAD DUP1 SWAP2 SUB SWAP1 RETURN JUMPDEST PUSH2 0x30C PUSH2 0x3A9 CALLDATASIZE PUSH1 0x4 PUSH2 0x41A4 JUMP JUMPDEST PUSH2 0x886 JUMP JUMPDEST PUSH2 0x30C PUSH2 0x3BC CALLDATASIZE PUSH1 0x4 PUSH2 0x41FE JUMP JUMPDEST PUSH2 0x8D4 JUMP JUMPDEST PUSH2 0x30C PUSH2 0x3CF CALLDATASIZE PUSH1 0x4 PUSH2 0x3F02 JUMP JUMPDEST PUSH2 0x929 JUMP JUMPDEST PUSH2 0x30C PUSH2 0x3E2 CALLDATASIZE PUSH1 0x4 PUSH2 0x4219 JUMP JUMPDEST PUSH2 0x96A JUMP JUMPDEST PUSH2 0x30C PUSH2 0xA40 JUMP JUMPDEST PUSH2 0x30C PUSH2 0x3FD CALLDATASIZE PUSH1 0x4 PUSH2 0x41A4 JUMP JUMPDEST PUSH2 0xB13 JUMP JUMPDEST PUSH1 0xD SLOAD PUSH2 0x40F SWAP1 PUSH1 0xFF AND DUP2 JUMP JUMPDEST PUSH1 0x40 MLOAD PUSH2 0x392 SWAP2 SWAP1 PUSH2 0x4274 JUMP JUMPDEST PUSH2 0x443 PUSH32 0xCBCE9983FCD5FC099294DB3138F1660107F2BD5B23B9FA0002D7DF1DB9D854CB DUP2 JUMP JUMPDEST PUSH1 0x40 MLOAD SWAP1 DUP2 MSTORE PUSH1 0x20 ADD PUSH2 0x392 JUMP JUMPDEST PUSH1 0x1 SLOAD PUSH2 0x464 SWAP1 PUSH1 0x1 PUSH1 0x1 PUSH1 0xA0 SHL SUB AND DUP2 JUMP JUMPDEST PUSH1 0x40 MLOAD PUSH1 0x1 PUSH1 0x1 PUSH1 0xA0 SHL SUB SWAP1 SWAP2 AND DUP2 MSTORE PUSH1 0x20 ADD PUSH2 0x392 JUMP JUMPDEST PUSH2 0x48F PUSH2 0x48A CALLDATASIZE PUSH1 0x4 PUSH2 0x4187 JUMP JUMPDEST PUSH2 0xB5A JUMP JUMPDEST PUSH1 0x40 DUP1 MLOAD DUP3 MLOAD PUSH1 0x1 PUSH1 0x1 PUSH1 0xA0 SHL SUB AND DUP2 MSTORE PUSH1 0x20 DUP1 DUP5 ADD MLOAD SWAP1 DUP3 ADD MSTORE SWAP2 DUP2 ADD MLOAD SWAP1 DUP3 ADD MSTORE PUSH1 0x60 ADD PUSH2 0x392 JUMP JUMPDEST PUSH2 0x443 PUSH1 0xB SLOAD DUP2 JUMP JUMPDEST PUSH2 0x30C PUSH2 0x4D1 CALLDATASIZE PUSH1 0x4 PUSH2 0x46A5 JUMP JUMPDEST PUSH2 0xBE5 JUMP JUMPDEST PUSH2 0x347 PUSH2 0xC2D JUMP JUMPDEST PUSH2 0x443 PUSH1 0x7 SLOAD DUP2 JUMP JUMPDEST PUSH2 0x30C PUSH2 0x4F5 CALLDATASIZE PUSH1 0x4 PUSH2 0x46DA JUMP JUMPDEST PUSH2 0xCA6 JUMP JUMPDEST PUSH2 0x443 PUSH1 0x8 SLOAD DUP2 JUMP JUMPDEST PUSH2 0x30C PUSH2 0x511 CALLDATASIZE PUSH1 0x4 PUSH2 0x4187 JUMP JUMPDEST PUSH2 0xCE9 JUMP JUMPDEST PUSH2 0x30C PUSH2 0xD2A JUMP JUMPDEST PUSH2 0x443 PUSH1 0xC SLOAD DUP2 JUMP JUMPDEST PUSH2 0x443 PUSH1 0xA SLOAD DUP2 JUMP JUMPDEST PUSH2 0x30C PUSH2 0x53E CALLDATASIZE PUSH1 0x4 PUSH2 0x46FC JUMP JUMPDEST PUSH2 0xE01 JUMP JUMPDEST PUSH2 0x443 PUSH1 0x6 SLOAD DUP2 JUMP JUMPDEST PUSH2 0x30C PUSH2 0x55A CALLDATASIZE PUSH1 0x4 PUSH2 0x4187 JUMP JUMPDEST PUSH2 0xE4C JUMP JUMPDEST PUSH2 0x443 PUSH2 0x56D CALLDATASIZE PUSH1 0x4 PUSH2 0x4187 JUMP JUMPDEST PUSH2 0xE8D JUMP JUMPDEST PUSH2 0x48F PUSH2 0xF97 JUMP JUMPDEST PUSH2 0x48F PUSH2 0x588 CALLDATASIZE PUSH1 0x4 PUSH2 0x4187 JUMP JUMPDEST PUSH2 0xFF2 JUMP JUMPDEST PUSH2 0x443 PUSH1 0x2 SLOAD DUP2 JUMP JUMPDEST PUSH2 0x30C PUSH2 0x5A4 CALLDATASIZE PUSH1 0x4 PUSH2 0x4731 JUMP JUMPDEST PUSH2 0x1063 JUMP JUMPDEST PUSH1 0x1B SLOAD PUSH2 0x464 SWAP1 PUSH1 0x1 PUSH1 0x1 PUSH1 0xA0 SHL SUB AND DUP2 JUMP JUMPDEST PUSH1 0x4 SLOAD PUSH2 0x5C9 SWAP1 PUSH1 0xFF AND DUP2 JUMP JUMPDEST PUSH1 0x40 MLOAD SWAP1 ISZERO ISZERO DUP2 MSTORE PUSH1 0x20 ADD PUSH2 0x392 JUMP JUMPDEST PUSH1 0x1A SLOAD PUSH1 0x1 PUSH1 0x1 PUSH1 0xA0 SHL SUB AND PUSH2 0x464 JUMP JUMPDEST PUSH2 0x30C PUSH2 0x5F8 CALLDATASIZE PUSH1 0x4 PUSH2 0x3F02 JUMP JUMPDEST PUSH2 0x11DF JUMP JUMPDEST PUSH1 0x0 SLOAD PUSH2 0x464 SWAP1 PUSH3 0x10000 SWAP1 DIV PUSH1 0x1 PUSH1 0x1 PUSH1 0xA0 SHL SUB AND DUP2 JUMP JUMPDEST PUSH2 0x30C PUSH2 0x624 CALLDATASIZE PUSH1 0x4 PUSH2 0x46FC JUMP JUMPDEST PUSH2 0x1220 JUMP JUMPDEST PUSH2 0x347 PUSH2 0x637 CALLDATASIZE PUSH1 0x4 PUSH2 0x4187 JUMP JUMPDEST PUSH2 0x1265 JUMP JUMPDEST PUSH2 0x443 PUSH1 0x9 SLOAD DUP2 JUMP JUMPDEST PUSH2 0x30C PUSH2 0x653 CALLDATASIZE PUSH1 0x4 PUSH2 0x3F02 JUMP JUMPDEST PUSH2 0x12F1 JUMP JUMPDEST PUSH2 0x30C PUSH2 0x666 CALLDATASIZE PUSH1 0x4 PUSH2 0x3F02 JUMP JUMPDEST PUSH2 0x1332 JUMP JUMPDEST PUSH2 0x30C PUSH2 0x679 CALLDATASIZE PUSH1 0x4 PUSH2 0x3F02 JUMP JUMPDEST PUSH2 0x1373 JUMP JUMPDEST PUSH2 0x443 PUSH1 0x3 SLOAD DUP2 JUMP JUMPDEST PUSH2 0x690 DUP2 PUSH2 0x13B4 JUMP JUMPDEST PUSH2 0x6BF CALLER PUSH1 0x0 CALLDATALOAD PUSH32 0xFFFFFFFF00000000000000000000000000000000000000000000000000000000 AND DUP4 PUSH2 0x13FB JUMP JUMPDEST PUSH2 0x6C8 DUP3 PUSH2 0x1452 JUMP JUMPDEST POP POP JUMP JUMPDEST PUSH2 0x6D5 DUP2 PUSH2 0x13B4 JUMP JUMPDEST PUSH2 0x704 CALLER PUSH1 0x0 CALLDATALOAD PUSH32 0xFFFFFFFF00000000000000000000000000000000000000000000000000000000 AND DUP4 PUSH2 0x13FB JUMP JUMPDEST PUSH2 0x6C8 DUP3 PUSH2 0x148E JUMP JUMPDEST PUSH2 0x73B CALLER PUSH1 0x0 CALLDATALOAD PUSH32 0xFFFFFFFF00000000000000000000000000000000000000000000000000000000 AND PUSH2 0x14C3 JUMP JUMPDEST DUP1 MLOAD DUP3 MLOAD EQ PUSH2 0x791 JUMPI PUSH1 0x40 MLOAD PUSH3 0x461BCD PUSH1 0xE5 SHL DUP2 MSTORE PUSH1 0x20 PUSH1 0x4 DUP3 ADD MSTORE PUSH1 0x1A PUSH1 0x24 DUP3 ADD MSTORE PUSH32 0x5441534B5F414343455054414E43455F4241445F4C454E475448000000000000 PUSH1 0x44 DUP3 ADD MSTORE PUSH1 0x64 ADD JUMPDEST PUSH1 0x40 MLOAD DUP1 SWAP2 SUB SWAP1 REVERT JUMPDEST PUSH1 0x0 JUMPDEST DUP3 MLOAD DUP2 LT ISZERO PUSH2 0x7EB JUMPI PUSH2 0x7D9 DUP4 DUP3 DUP2 MLOAD DUP2 LT PUSH2 0x7B2 JUMPI PUSH2 0x7B2 PUSH2 0x4783 JUMP JUMPDEST PUSH1 0x20 MUL PUSH1 0x20 ADD ADD MLOAD DUP4 DUP4 DUP2 MLOAD DUP2 LT PUSH2 0x7CC JUMPI PUSH2 0x7CC PUSH2 0x4783 JUMP JUMPDEST PUSH1 0x20 MUL PUSH1 0x20 ADD ADD MLOAD PUSH2 0x14DF JUMP JUMPDEST DUP1 PUSH2 0x7E3 DUP2 PUSH2 0x47E1 JUMP JUMPDEST SWAP2 POP POP PUSH2 0x794 JUMP JUMPDEST POP POP POP JUMP JUMPDEST PUSH2 0x82B PUSH1 0x40 MLOAD DUP1 PUSH1 0xA0 ADD PUSH1 0x40 MSTORE DUP1 PUSH1 0x0 PUSH1 0x1 PUSH1 0x1 PUSH1 0xA0 SHL SUB AND DUP2 MSTORE PUSH1 0x20 ADD PUSH1 0x0 DUP2 MSTORE PUSH1 0x20 ADD PUSH1 0x0 DUP2 MSTORE PUSH1 0x20 ADD PUSH1 0x0 DUP2 MSTORE PUSH1 0x20 ADD PUSH1 0x0 DUP2 MSTORE POP SWAP1 JUMP JUMPDEST POP PUSH1 0x1 PUSH1 0x1 PUSH1 0xA0 SHL SUB SWAP1 DUP2 AND PUSH1 0x0 SWAP1 DUP2 MSTORE PUSH1 0x19 PUSH1 0x20 SWAP1 DUP2 MSTORE PUSH1 0x40 SWAP2 DUP3 SWAP1 KECCAK256 DUP3 MLOAD PUSH1 0xA0 DUP2 ADD DUP5 MSTORE DUP2 SLOAD SWAP1 SWAP5 AND DUP5 MSTORE PUSH1 0x1 DUP2 ADD SLOAD SWAP2 DUP5 ADD SWAP2 SWAP1 SWAP2 MSTORE PUSH1 0x2 DUP2 ADD SLOAD SWAP2 DUP4 ADD SWAP2 SWAP1 SWAP2 MSTORE PUSH1 0x3 DUP2 ADD SLOAD PUSH1 0x60 DUP4 ADD MSTORE PUSH1 0x4 ADD SLOAD PUSH1 0x80 DUP3 ADD MSTORE SWAP1 JUMP JUMPDEST PUSH2 0x892 DUP5 DUP5 DUP5 DUP5 PUSH2 0x159F JUMP JUMPDEST PUSH2 0x8C1 CALLER PUSH1 0x0 CALLDATALOAD PUSH32 0xFFFFFFFF00000000000000000000000000000000000000000000000000000000 AND DUP4 PUSH2 0x13FB JUMP JUMPDEST PUSH2 0x8CD DUP6 DUP6 DUP6 DUP6 PUSH2 0x165C JUMP JUMPDEST POP POP POP POP POP JUMP JUMPDEST PUSH2 0x8F1 DUP2 PUSH1 0x1 DUP2 GT ISZERO PUSH2 0x8E9 JUMPI PUSH2 0x8E9 PUSH2 0x4245 JUMP JUMPDEST PUSH1 0xFF AND PUSH2 0x13B4 JUMP JUMPDEST PUSH2 0x920 CALLER PUSH1 0x0 CALLDATALOAD PUSH32 0xFFFFFFFF00000000000000000000000000000000000000000000000000000000 AND DUP4 PUSH2 0x13FB JUMP JUMPDEST PUSH2 0x6C8 DUP3 PUSH2 0x172B JUMP JUMPDEST PUSH2 0x932 DUP2 PUSH2 0x13B4 JUMP JUMPDEST PUSH2 0x961 CALLER PUSH1 0x0 CALLDATALOAD PUSH32 0xFFFFFFFF00000000000000000000000000000000000000000000000000000000 AND DUP4 PUSH2 0x13FB JUMP JUMPDEST PUSH2 0x6C8 DUP3 PUSH2 0x179B JUMP JUMPDEST PUSH2 0x974 DUP3 DUP3 PUSH2 0x17D0 JUMP JUMPDEST PUSH2 0x9A3 CALLER PUSH1 0x0 CALLDATALOAD PUSH32 0xFFFFFFFF00000000000000000000000000000000000000000000000000000000 AND DUP4 PUSH2 0x13FB JUMP JUMPDEST PUSH2 0x9AD DUP4 DUP4 PUSH2 0x183F JUMP JUMPDEST PUSH1 0x1 SLOAD PUSH1 0x1A SLOAD PUSH1 0x40 MLOAD PUSH32 0xC8FEA2FB00000000000000000000000000000000000000000000000000000000 DUP2 MSTORE PUSH1 0x1 PUSH1 0x1 PUSH1 0xA0 SHL SUB DUP7 DUP2 AND PUSH1 0x4 DUP4 ADD MSTORE SWAP2 DUP3 AND PUSH1 0x24 DUP3 ADD MSTORE PUSH1 0x44 DUP2 ADD DUP6 SWAP1 MSTORE SWAP2 AND SWAP1 PUSH4 0xC8FEA2FB SWAP1 PUSH1 0x64 ADD PUSH1 0x0 PUSH1 0x40 MLOAD DUP1 DUP4 SUB DUP2 PUSH1 0x0 DUP8 DUP1 EXTCODESIZE ISZERO DUP1 ISZERO PUSH2 0xA1E JUMPI PUSH1 0x0 DUP1 REVERT JUMPDEST POP GAS CALL ISZERO DUP1 ISZERO PUSH2 0xA32 JUMPI RETURNDATASIZE PUSH1 0x0 DUP1 RETURNDATACOPY RETURNDATASIZE PUSH1 0x0 REVERT JUMPDEST POP POP POP POP PUSH2 0x7EB DUP4 DUP4 PUSH2 0x18EF JUMP JUMPDEST PUSH2 0xA6E CALLER PUSH1 0x0 CALLDATALOAD PUSH32 0xFFFFFFFF00000000000000000000000000000000000000000000000000000000 AND PUSH2 0x14C3 JUMP JUMPDEST PUSH1 0x4 SLOAD PUSH1 0xFF AND PUSH2 0xAC0 JUMPI PUSH1 0x40 MLOAD PUSH3 0x461BCD PUSH1 0xE5 SHL DUP2 MSTORE PUSH1 0x20 PUSH1 0x4 DUP3 ADD MSTORE PUSH1 0x15 PUSH1 0x24 DUP3 ADD MSTORE PUSH32 0x5441534B5F414C52454144595F554E5041555345440000000000000000000000 PUSH1 0x44 DUP3 ADD MSTORE PUSH1 0x64 ADD PUSH2 0x788 JUMP JUMPDEST PUSH1 0x4 DUP1 SLOAD PUSH32 0xFFFFFFFFFFFFFFFFFFFFFFFFFFFFFFFFFFFFFFFFFFFFFFFFFFFFFFFFFFFFFF00 AND SWAP1 SSTORE PUSH1 0x40 MLOAD PUSH32 0xA45F47FDEA8A1EFDD9029A5691C7F759C32B7C698632B563573E155625D16933 SWAP1 PUSH1 0x0 SWAP1 LOG1 JUMP JUMPDEST PUSH2 0xB1F DUP5 DUP5 DUP5 DUP5 PUSH2 0x159F JUMP JUMPDEST PUSH2 0xB4E CALLER PUSH1 0x0 CALLDATALOAD PUSH32 0xFFFFFFFF00000000000000000000000000000000000000000000000000000000 AND DUP4 PUSH2 0x13FB JUMP JUMPDEST PUSH2 0x8CD DUP6 DUP6 DUP6 DUP6 PUSH2 0x1903 JUMP JUMPDEST PUSH2 0xB87 PUSH1 0x40 MLOAD DUP1 PUSH1 0x60 ADD PUSH1 0x40 MSTORE DUP1 PUSH1 0x0 PUSH1 0x1 PUSH1 0x1 PUSH1 0xA0 SHL SUB AND DUP2 MSTORE PUSH1 0x20 ADD PUSH1 0x0 DUP2 MSTORE PUSH1 0x20 ADD PUSH1 0x0 DUP2 MSTORE POP SWAP1 JUMP JUMPDEST PUSH1 0x1 PUSH1 0x1 PUSH1 0xA0 SHL SUB DUP1 DUP4 AND PUSH1 0x0 SWAP1 DUP2 MSTORE PUSH1 0x13 PUSH1 0x20 MSTORE PUSH1 0x40 SWAP1 KECCAK256 DUP1 SLOAD SWAP1 SWAP2 AND ISZERO PUSH2 0xBB0 JUMPI DUP1 PUSH2 0xBB3 JUMP JUMPDEST PUSH1 0x10 JUMPDEST PUSH1 0x40 DUP1 MLOAD PUSH1 0x60 DUP2 ADD DUP3 MSTORE DUP3 SLOAD PUSH1 0x1 PUSH1 0x1 PUSH1 0xA0 SHL SUB AND DUP2 MSTORE PUSH1 0x1 DUP4 ADD SLOAD PUSH1 0x20 DUP3 ADD MSTORE PUSH1 0x2 SWAP1 SWAP3 ADD SLOAD SWAP1 DUP3 ADD MSTORE SWAP4 SWAP3 POP POP POP JUMP JUMPDEST PUSH1 0x40 MLOAD PUSH3 0x461BCD PUSH1 0xE5 SHL DUP2 MSTORE PUSH1 0x20 PUSH1 0x4 DUP3 ADD MSTORE PUSH1 0x1E PUSH1 0x24 DUP3 ADD MSTORE PUSH32 0x434F4C4C4543544F525F494E495449414C495A45525F44495341424C45440000 PUSH1 0x44 DUP3 ADD MSTORE PUSH1 0x64 ADD PUSH2 0x788 JUMP JUMPDEST PUSH2 0xC68 PUSH1 0x40 MLOAD DUP1 PUSH1 0xA0 ADD PUSH1 0x40 MSTORE DUP1 PUSH1 0x0 PUSH1 0x1 PUSH1 0x1 PUSH1 0xA0 SHL SUB AND DUP2 MSTORE PUSH1 0x20 ADD PUSH1 0x0 DUP2 MSTORE PUSH1 0x20 ADD PUSH1 0x0 DUP2 MSTORE PUSH1 0x20 ADD PUSH1 0x0 DUP2 MSTORE PUSH1 0x20 ADD PUSH1 0x0 DUP2 MSTORE POP SWAP1 JUMP JUMPDEST POP PUSH1 0x40 DUP1 MLOAD PUSH1 0xA0 DUP2 ADD DUP3 MSTORE PUSH1 0x14 SLOAD PUSH1 0x1 PUSH1 0x1 PUSH1 0xA0 SHL SUB AND DUP2 MSTORE PUSH1 0x15 SLOAD PUSH1 0x20 DUP3 ADD MSTORE PUSH1 0x16 SLOAD SWAP2 DUP2 ADD SWAP2 SWAP1 SWAP2 MSTORE PUSH1 0x17 SLOAD PUSH1 0x60 DUP3 ADD MSTORE PUSH1 0x18 SLOAD PUSH1 0x80 DUP3 ADD MSTORE SWAP1 JUMP JUMPDEST PUSH2 0xCB0 DUP3 DUP3 PUSH2 0x19D9 JUMP JUMPDEST PUSH2 0xCDF CALLER PUSH1 0x0 CALLDATALOAD PUSH32 0xFFFFFFFF00000000000000000000000000000000000000000000000000000000 AND DUP4 PUSH2 0x13FB JUMP JUMPDEST PUSH2 0x7EB DUP4 DUP4 PUSH2 0x1A33 JUMP JUMPDEST PUSH2 0xCF2 DUP2 PUSH2 0x1A8B JUMP JUMPDEST PUSH2 0xD21 CALLER PUSH1 0x0 CALLDATALOAD PUSH32 0xFFFFFFFF00000000000000000000000000000000000000000000000000000000 AND DUP4 PUSH2 0x13FB JUMP JUMPDEST PUSH2 0x6C8 DUP3 PUSH2 0x1AA5 JUMP JUMPDEST PUSH2 0xD58 CALLER PUSH1 0x0 CALLDATALOAD PUSH32 0xFFFFFFFF00000000000000000000000000000000000000000000000000000000 AND PUSH2 0x14C3 JUMP JUMPDEST PUSH1 0x4 SLOAD PUSH1 0xFF AND ISZERO PUSH2 0xDAB JUMPI PUSH1 0x40 MLOAD PUSH3 0x461BCD PUSH1 0xE5 SHL DUP2 MSTORE PUSH1 0x20 PUSH1 0x4 DUP3 ADD MSTORE PUSH1 0x13 PUSH1 0x24 DUP3 ADD MSTORE PUSH32 0x5441534B5F414C52454144595F50415553454400000000000000000000000000 PUSH1 0x44 DUP3 ADD MSTORE PUSH1 0x64 ADD PUSH2 0x788 JUMP JUMPDEST PUSH1 0x4 DUP1 SLOAD PUSH32 0xFFFFFFFFFFFFFFFFFFFFFFFFFFFFFFFFFFFFFFFFFFFFFFFFFFFFFFFFFFFFFF00 AND PUSH1 0x1 OR SWAP1 SSTORE PUSH1 0x40 MLOAD PUSH32 0x9E87FAC88FF661F02D44F95383C817FECE4BCE600A3DAB7A54406878B965E752 SWAP1 PUSH1 0x0 SWAP1 LOG1 JUMP JUMPDEST PUSH2 0xE0C DUP4 DUP4 DUP4 PUSH2 0x1B07 JUMP JUMPDEST PUSH2 0xE3B CALLER PUSH1 0x0 CALLDATALOAD PUSH32 0xFFFFFFFF00000000000000000000000000000000000000000000000000000000 AND DUP4 PUSH2 0x13FB JUMP JUMPDEST PUSH2 0xE46 DUP5 DUP5 DUP5 PUSH2 0x1B99 JUMP JUMPDEST POP POP POP POP JUMP JUMPDEST PUSH2 0xE55 DUP2 PUSH2 0x1A8B JUMP JUMPDEST PUSH2 0xE84 CALLER PUSH1 0x0 CALLDATALOAD PUSH32 0xFFFFFFFF00000000000000000000000000000000000000000000000000000000 AND DUP4 PUSH2 0x13FB JUMP JUMPDEST PUSH2 0x6C8 DUP3 PUSH2 0x1BEF JUMP JUMPDEST PUSH1 0x0 DUP1 PUSH2 0xE99 DUP4 PUSH2 0xB5A JUMP JUMPDEST DUP1 MLOAD PUSH1 0x1B SLOAD PUSH1 0x40 MLOAD PUSH32 0x70A0823100000000000000000000000000000000000000000000000000000000 DUP2 MSTORE PUSH1 0x1 PUSH1 0x1 PUSH1 0xA0 SHL SUB SWAP2 DUP3 AND PUSH1 0x4 DUP3 ADD MSTORE SWAP3 SWAP4 POP PUSH1 0x0 SWAP3 SWAP2 AND SWAP1 PUSH4 0x70A08231 SWAP1 PUSH1 0x24 ADD PUSH1 0x20 PUSH1 0x40 MLOAD DUP1 DUP4 SUB DUP2 DUP7 GAS STATICCALL ISZERO DUP1 ISZERO PUSH2 0xF03 JUMPI RETURNDATASIZE PUSH1 0x0 DUP1 RETURNDATACOPY RETURNDATASIZE PUSH1 0x0 REVERT JUMPDEST POP POP POP POP PUSH1 0x40 MLOAD RETURNDATASIZE PUSH1 0x1F NOT PUSH1 0x1F DUP3 ADD AND DUP3 ADD DUP1 PUSH1 0x40 MSTORE POP DUP2 ADD SWAP1 PUSH2 0xF27 SWAP2 SWAP1 PUSH2 0x4819 JUMP JUMPDEST SWAP1 POP DUP2 PUSH1 0x20 ADD MLOAD DUP2 LT PUSH2 0xF3E JUMPI POP PUSH1 0x0 SWAP4 SWAP3 POP POP POP JUMP JUMPDEST PUSH1 0x0 DUP2 DUP4 PUSH1 0x40 ADD MLOAD PUSH2 0xF50 SWAP2 SWAP1 PUSH2 0x4832 JUMP JUMPDEST SWAP1 POP DUP3 PUSH1 0x0 ADD MLOAD PUSH1 0x1 PUSH1 0x1 PUSH1 0xA0 SHL SUB AND DUP6 PUSH1 0x1 PUSH1 0x1 PUSH1 0xA0 SHL SUB AND EQ PUSH2 0xF8C JUMPI PUSH2 0xF87 PUSH2 0xF80 DUP5 PUSH1 0x0 ADD MLOAD DUP8 PUSH2 0x1CA7 JUMP JUMPDEST DUP3 SWAP1 PUSH2 0x1CBA JUMP JUMPDEST PUSH2 0xF8E JUMP JUMPDEST DUP1 JUMPDEST SWAP6 SWAP5 POP POP POP POP POP JUMP JUMPDEST PUSH2 0xFC4 PUSH1 0x40 MLOAD DUP1 PUSH1 0x60 ADD PUSH1 0x40 MSTORE DUP1 PUSH1 0x0 PUSH1 0x1 PUSH1 0x1 PUSH1 0xA0 SHL SUB AND DUP2 MSTORE PUSH1 0x20 ADD PUSH1 0x0 DUP2 MSTORE PUSH1 0x20 ADD PUSH1 0x0 DUP2 MSTORE POP SWAP1 JUMP JUMPDEST POP PUSH1 0x40 DUP1 MLOAD PUSH1 0x60 DUP2 ADD DUP3 MSTORE PUSH1 0x10 SLOAD PUSH1 0x1 PUSH1 0x1 PUSH1 0xA0 SHL SUB AND DUP2 MSTORE PUSH1 0x11 SLOAD PUSH1 0x20 DUP3 ADD MSTORE PUSH1 0x12 SLOAD SWAP2 DUP2 ADD SWAP2 SWAP1 SWAP2 MSTORE SWAP1 JUMP JUMPDEST PUSH2 0x101F PUSH1 0x40 MLOAD DUP1 PUSH1 0x60 ADD PUSH1 0x40 MSTORE DUP1 PUSH1 0x0 PUSH1 0x1 PUSH1 0x1 PUSH1 0xA0 SHL SUB AND DUP2 MSTORE PUSH1 0x20 ADD PUSH1 0x0 DUP2 MSTORE PUSH1 0x20 ADD PUSH1 0x0 DUP2 MSTORE POP SWAP1 JUMP JUMPDEST POP PUSH1 0x1 PUSH1 0x1 PUSH1 0xA0 SHL SUB SWAP1 DUP2 AND PUSH1 0x0 SWAP1 DUP2 MSTORE PUSH1 0x13 PUSH1 0x20 SWAP1 DUP2 MSTORE PUSH1 0x40 SWAP2 DUP3 SWAP1 KECCAK256 DUP3 MLOAD PUSH1 0x60 DUP2 ADD DUP5 MSTORE DUP2 SLOAD SWAP1 SWAP5 AND DUP5 MSTORE PUSH1 0x1 DUP2 ADD SLOAD SWAP2 DUP5 ADD SWAP2 SWAP1 SWAP2 MSTORE PUSH1 0x2 ADD SLOAD SWAP1 DUP3 ADD MSTORE SWAP1 JUMP JUMPDEST PUSH1 0x0 SLOAD PUSH2 0x100 SWAP1 DIV PUSH1 0xFF AND ISZERO DUP1 DUP1 ISZERO PUSH2 0x1083 JUMPI POP PUSH1 0x0 SLOAD PUSH1 0x1 PUSH1 0xFF SWAP1 SWAP2 AND LT JUMPDEST DUP1 PUSH2 0x109D JUMPI POP ADDRESS EXTCODESIZE ISZERO DUP1 ISZERO PUSH2 0x109D JUMPI POP PUSH1 0x0 SLOAD PUSH1 0xFF AND PUSH1 0x1 EQ JUMPDEST PUSH2 0x110F JUMPI PUSH1 0x40 MLOAD PUSH3 0x461BCD PUSH1 0xE5 SHL DUP2 MSTORE PUSH1 0x20 PUSH1 0x4 DUP3 ADD MSTORE PUSH1 0x2E PUSH1 0x24 DUP3 ADD MSTORE PUSH32 0x496E697469616C697A61626C653A20636F6E747261637420697320616C726561 PUSH1 0x44 DUP3 ADD MSTORE PUSH32 0x647920696E697469616C697A6564000000000000000000000000000000000000 PUSH1 0x64 DUP3 ADD MSTORE PUSH1 0x84 ADD PUSH2 0x788 JUMP JUMPDEST PUSH1 0x0 DUP1 SLOAD PUSH32 0xFFFFFFFFFFFFFFFFFFFFFFFFFFFFFFFFFFFFFFFFFFFFFFFFFFFFFFFFFFFFFF00 AND PUSH1 0x1 OR SWAP1 SSTORE DUP1 ISZERO PUSH2 0x116D JUMPI PUSH1 0x0 DUP1 SLOAD PUSH32 0xFFFFFFFFFFFFFFFFFFFFFFFFFFFFFFFFFFFFFFFFFFFFFFFFFFFFFFFFFFFF00FF AND PUSH2 0x100 OR SWAP1 SSTORE JUMPDEST PUSH2 0x1177 DUP4 DUP4 PUSH2 0x1D6C JUMP JUMPDEST DUP1 ISZERO PUSH2 0x7EB JUMPI PUSH1 0x0 DUP1 SLOAD PUSH32 0xFFFFFFFFFFFFFFFFFFFFFFFFFFFFFFFFFFFFFFFFFFFFFFFFFFFFFFFFFFFF00FF AND SWAP1 SSTORE PUSH1 0x40 MLOAD PUSH1 0x1 DUP2 MSTORE PUSH32 0x7F26B83FF96E1F2B6A682F133852F6798A09C465DA95921460CEFB3847402498 SWAP1 PUSH1 0x20 ADD JUMPDEST PUSH1 0x40 MLOAD DUP1 SWAP2 SUB SWAP1 LOG1 POP POP POP JUMP JUMPDEST PUSH2 0x11E8 DUP2 PUSH2 0x13B4 JUMP JUMPDEST PUSH2 0x1217 CALLER PUSH1 0x0 CALLDATALOAD PUSH32 0xFFFFFFFF00000000000000000000000000000000000000000000000000000000 AND DUP4 PUSH2 0x13FB JUMP JUMPDEST PUSH2 0x6C8 DUP3 PUSH2 0x1DEA JUMP JUMPDEST PUSH2 0x122B DUP4 DUP4 DUP4 PUSH2 0x1B07 JUMP JUMPDEST PUSH2 0x125A CALLER PUSH1 0x0 CALLDATALOAD PUSH32 0xFFFFFFFF00000000000000000000000000000000000000000000000000000000 AND DUP4 PUSH2 0x13FB JUMP JUMPDEST PUSH2 0xE46 DUP5 DUP5 DUP5 PUSH2 0x1E71 JUMP JUMPDEST PUSH2 0x12A0 PUSH1 0x40 MLOAD DUP1 PUSH1 0xA0 ADD PUSH1 0x40 MSTORE DUP1 PUSH1 0x0 PUSH1 0x1 PUSH1 0x1 PUSH1 0xA0 SHL SUB AND DUP2 MSTORE PUSH1 0x20 ADD PUSH1 0x0 DUP2 MSTORE PUSH1 0x20 ADD PUSH1 0x0 DUP2 MSTORE PUSH1 0x20 ADD PUSH1 0x0 DUP2 MSTORE PUSH1 0x20 ADD PUSH1 0x0 DUP2 MSTORE POP SWAP1 JUMP JUMPDEST PUSH2 0x12A9 DUP3 PUSH2 0x1EC5 JUMP JUMPDEST PUSH1 0x40 DUP1 MLOAD PUSH1 0xA0 DUP2 ADD DUP3 MSTORE DUP3 SLOAD PUSH1 0x1 PUSH1 0x1 PUSH1 0xA0 SHL SUB AND DUP2 MSTORE PUSH1 0x1 DUP4 ADD SLOAD PUSH1 0x20 DUP3 ADD MSTORE PUSH1 0x2 DUP4 ADD SLOAD SWAP2 DUP2 ADD SWAP2 SWAP1 SWAP2 MSTORE PUSH1 0x3 DUP3 ADD SLOAD PUSH1 0x60 DUP3 ADD MSTORE PUSH1 0x4 SWAP1 SWAP2 ADD SLOAD PUSH1 0x80 DUP3 ADD MSTORE SWAP3 SWAP2 POP POP JUMP JUMPDEST PUSH2 0x12FA DUP2 PUSH2 0x13B4 JUMP JUMPDEST PUSH2 0x1329 CALLER PUSH1 0x0 CALLDATALOAD PUSH32 0xFFFFFFFF00000000000000000000000000000000000000000000000000000000 AND DUP4 PUSH2 0x13FB JUMP JUMPDEST PUSH2 0x6C8 DUP3 PUSH2 0x1EF9 JUMP JUMPDEST PUSH2 0x133B DUP2 PUSH2 0x13B4 JUMP JUMPDEST PUSH2 0x136A CALLER PUSH1 0x0 CALLDATALOAD PUSH32 0xFFFFFFFF00000000000000000000000000000000000000000000000000000000 AND DUP4 PUSH2 0x13FB JUMP JUMPDEST PUSH2 0x6C8 DUP3 PUSH2 0x1F86 JUMP JUMPDEST PUSH2 0x137C DUP2 PUSH2 0x13B4 JUMP JUMPDEST PUSH2 0x13AB CALLER PUSH1 0x0 CALLDATALOAD PUSH32 0xFFFFFFFF00000000000000000000000000000000000000000000000000000000 AND DUP4 PUSH2 0x13FB JUMP JUMPDEST PUSH2 0x6C8 DUP3 PUSH2 0x200D JUMP JUMPDEST PUSH1 0x40 DUP1 MLOAD PUSH1 0x1 DUP1 DUP3 MSTORE DUP2 DUP4 ADD SWAP1 SWAP3 MSTORE PUSH1 0x60 SWAP2 PUSH1 0x20 DUP1 DUP4 ADD SWAP1 DUP1 CALLDATASIZE DUP4 CALLDATACOPY ADD SWAP1 POP POP SWAP1 POP DUP2 DUP2 PUSH1 0x0 DUP2 MLOAD DUP2 LT PUSH2 0x13EA JUMPI PUSH2 0x13EA PUSH2 0x4783 JUMP JUMPDEST PUSH1 0x20 MUL PUSH1 0x20 ADD ADD DUP2 DUP2 MSTORE POP POP SWAP2 SWAP1 POP JUMP JUMPDEST PUSH2 0x1406 DUP4 DUP4 DUP4 PUSH2 0x2042 JUMP JUMPDEST PUSH2 0x7EB JUMPI PUSH1 0x40 MLOAD PUSH3 0x461BCD PUSH1 0xE5 SHL DUP2 MSTORE PUSH1 0x20 PUSH1 0x4 DUP3 ADD MSTORE PUSH1 0x17 PUSH1 0x24 DUP3 ADD MSTORE PUSH32 0x415554485F53454E4445525F4E4F545F414C4C4F574544000000000000000000 PUSH1 0x44 DUP3 ADD MSTORE PUSH1 0x64 ADD PUSH2 0x788 JUMP JUMPDEST PUSH1 0x8 DUP2 SWAP1 SSTORE PUSH1 0x40 MLOAD DUP2 DUP2 MSTORE PUSH32 0x3F6C9C24D9513C13D3B3CDE07A6D023891E0A453697B804236062FF89F8911BF SWAP1 PUSH1 0x20 ADD JUMPDEST PUSH1 0x40 MLOAD DUP1 SWAP2 SUB SWAP1 LOG1 POP JUMP JUMPDEST PUSH1 0x6 DUP2 SWAP1 SSTORE PUSH1 0x40 MLOAD DUP2 DUP2 MSTORE PUSH32 0x82A6981D2EDCFFA06330F002D2155243475D202CE6CC11693DA2CA897FB8E372 SWAP1 PUSH1 0x20 ADD PUSH2 0x1483 JUMP JUMPDEST PUSH1 0x40 DUP1 MLOAD PUSH1 0x0 DUP2 MSTORE PUSH1 0x20 DUP2 ADD SWAP1 SWAP2 MSTORE PUSH2 0x6C8 SWAP1 DUP4 SWAP1 DUP4 SWAP1 PUSH2 0x13FB JUMP JUMPDEST PUSH1 0x1 PUSH1 0x1 PUSH1 0xA0 SHL SUB DUP3 AND PUSH2 0x1535 JUMPI PUSH1 0x40 MLOAD PUSH3 0x461BCD PUSH1 0xE5 SHL DUP2 MSTORE PUSH1 0x20 PUSH1 0x4 DUP3 ADD MSTORE PUSH1 0x1A PUSH1 0x24 DUP3 ADD MSTORE PUSH32 0x5441534B5F414343455054414E43455F544F4B454E5F5A45524F000000000000 PUSH1 0x44 DUP3 ADD MSTORE PUSH1 0x64 ADD PUSH2 0x788 JUMP JUMPDEST DUP1 PUSH2 0x154A JUMPI PUSH2 0x1545 PUSH1 0xE DUP4 PUSH2 0x20D8 JUMP JUMPDEST PUSH2 0x1555 JUMP JUMPDEST PUSH2 0x1555 PUSH1 0xE DUP4 PUSH2 0x20ED JUMP JUMPDEST POP DUP2 PUSH1 0x1 PUSH1 0x1 PUSH1 0xA0 SHL SUB AND PUSH32 0x6264362E9DE26EFEFDA321DFAEB4E4A9090DEEF40C5435FAD8E9E2E306889A1C DUP3 PUSH1 0x40 MLOAD PUSH2 0x1593 SWAP2 ISZERO ISZERO DUP2 MSTORE PUSH1 0x20 ADD SWAP1 JUMP JUMPDEST PUSH1 0x40 MLOAD DUP1 SWAP2 SUB SWAP1 LOG2 POP POP JUMP JUMPDEST PUSH1 0x40 DUP1 MLOAD PUSH1 0x4 DUP1 DUP3 MSTORE PUSH1 0xA0 DUP3 ADD SWAP1 SWAP3 MSTORE PUSH1 0x60 SWAP2 PUSH1 0x20 DUP3 ADD PUSH1 0x80 DUP1 CALLDATASIZE DUP4 CALLDATACOPY ADD SWAP1 POP POP SWAP1 POP DUP5 PUSH1 0x1 PUSH1 0x1 PUSH1 0xA0 SHL SUB AND DUP2 PUSH1 0x0 DUP2 MLOAD DUP2 LT PUSH2 0x15DF JUMPI PUSH2 0x15DF PUSH2 0x4783 JUMP JUMPDEST PUSH1 0x20 MUL PUSH1 0x20 ADD ADD DUP2 DUP2 MSTORE POP POP DUP4 PUSH1 0x1 PUSH1 0x1 PUSH1 0xA0 SHL SUB AND DUP2 PUSH1 0x1 DUP2 MLOAD DUP2 LT PUSH2 0x1608 JUMPI PUSH2 0x1608 PUSH2 0x4783 JUMP JUMPDEST PUSH1 0x20 MUL PUSH1 0x20 ADD ADD DUP2 DUP2 MSTORE POP POP DUP3 DUP2 PUSH1 0x2 DUP2 MLOAD DUP2 LT PUSH2 0x1628 JUMPI PUSH2 0x1628 PUSH2 0x4783 JUMP JUMPDEST PUSH1 0x20 MUL PUSH1 0x20 ADD ADD DUP2 DUP2 MSTORE POP POP DUP2 DUP2 PUSH1 0x3 DUP2 MLOAD DUP2 LT PUSH2 0x1648 JUMPI PUSH2 0x1648 PUSH2 0x4783 JUMP JUMPDEST PUSH1 0x20 MUL PUSH1 0x20 ADD ADD DUP2 DUP2 MSTORE POP POP SWAP5 SWAP4 POP POP POP POP JUMP JUMPDEST PUSH1 0x1 PUSH1 0x1 PUSH1 0xA0 SHL SUB DUP5 AND PUSH2 0x16B2 JUMPI PUSH1 0x40 MLOAD PUSH3 0x461BCD PUSH1 0xE5 SHL DUP2 MSTORE PUSH1 0x20 PUSH1 0x4 DUP3 ADD MSTORE PUSH1 0x19 PUSH1 0x24 DUP3 ADD MSTORE PUSH32 0x5441534B5F5448524553484F4C445F544F4B454E5F5A45524F00000000000000 PUSH1 0x44 DUP3 ADD MSTORE PUSH1 0x64 ADD PUSH2 0x788 JUMP JUMPDEST PUSH1 0x1 PUSH1 0x1 PUSH1 0xA0 SHL SUB DUP5 AND PUSH1 0x0 SWAP1 DUP2 MSTORE PUSH1 0x13 PUSH1 0x20 MSTORE PUSH1 0x40 SWAP1 KECCAK256 PUSH2 0x16D6 SWAP1 DUP5 DUP5 DUP5 PUSH2 0x2102 JUMP JUMPDEST PUSH1 0x40 DUP1 MLOAD PUSH1 0x1 PUSH1 0x1 PUSH1 0xA0 SHL SUB DUP6 DUP2 AND DUP3 MSTORE PUSH1 0x20 DUP3 ADD DUP6 SWAP1 MSTORE SWAP2 DUP2 ADD DUP4 SWAP1 MSTORE SWAP1 DUP6 AND SWAP1 PUSH32 0xF099617C054D3A65E02A9C3B786F23CC03D5982BC7CFAE84DFF0408049CF1707 SWAP1 PUSH1 0x60 ADD PUSH1 0x40 MLOAD DUP1 SWAP2 SUB SWAP1 LOG2 POP POP POP POP JUMP JUMPDEST PUSH1 0xD DUP1 SLOAD DUP3 SWAP2 SWAP1 PUSH32 0xFFFFFFFFFFFFFFFFFFFFFFFFFFFFFFFFFFFFFFFFFFFFFFFFFFFFFFFFFFFFFF00 AND PUSH1 0x1 DUP4 DUP2 DUP2 GT ISZERO PUSH2 0x1767 JUMPI PUSH2 0x1767 PUSH2 0x4245 JUMP JUMPDEST MUL OR SWAP1 SSTORE POP PUSH32 0x216B6A9618D607BA436D0F2E17E9A83E70929ADFF805AC2385D67401360E551A DUP2 PUSH1 0x40 MLOAD PUSH2 0x1483 SWAP2 SWAP1 PUSH2 0x4274 JUMP JUMPDEST PUSH1 0x7 DUP2 SWAP1 SSTORE PUSH1 0x40 MLOAD DUP2 DUP2 MSTORE PUSH32 0xEA12B72EEF155A5C546ACE7F0BB7E8DC49EF4E666C276CDC6D5687B83525FADA SWAP1 PUSH1 0x20 ADD PUSH2 0x1483 JUMP JUMPDEST PUSH1 0x40 DUP1 MLOAD PUSH1 0x2 DUP1 DUP3 MSTORE PUSH1 0x60 DUP1 DUP4 ADD DUP5 MSTORE SWAP3 PUSH1 0x20 DUP4 ADD SWAP1 DUP1 CALLDATASIZE DUP4 CALLDATACOPY ADD SWAP1 POP POP SWAP1 POP DUP3 PUSH1 0x1 PUSH1 0x1 PUSH1 0xA0 SHL SUB AND DUP2 PUSH1 0x0 DUP2 MLOAD DUP2 LT PUSH2 0x180D JUMPI PUSH2 0x180D PUSH2 0x4783 JUMP JUMPDEST PUSH1 0x20 MUL PUSH1 0x20 ADD ADD DUP2 DUP2 MSTORE POP POP DUP2 DUP2 PUSH1 0x1 DUP2 MLOAD DUP2 LT PUSH2 0x182D JUMPI PUSH2 0x182D PUSH2 0x4783 JUMP JUMPDEST PUSH1 0x20 MUL PUSH1 0x20 ADD ADD DUP2 DUP2 MSTORE POP POP SWAP3 SWAP2 POP POP JUMP JUMPDEST PUSH2 0x1849 DUP3 DUP3 PUSH2 0x21E3 JUMP JUMPDEST PUSH1 0x1 PUSH1 0x1 PUSH1 0xA0 SHL SUB DUP3 AND PUSH2 0x189F JUMPI PUSH1 0x40 MLOAD PUSH3 0x461BCD PUSH1 0xE5 SHL DUP2 MSTORE PUSH1 0x20 PUSH1 0x4 DUP3 ADD MSTORE PUSH1 0xF PUSH1 0x24 DUP3 ADD MSTORE PUSH32 0x5441534B5F544F4B454E5F5A45524F0000000000000000000000000000000000 PUSH1 0x44 DUP3 ADD MSTORE PUSH1 0x64 ADD PUSH2 0x788 JUMP JUMPDEST PUSH1 0x0 DUP2 GT PUSH2 0x6C8 JUMPI PUSH1 0x40 MLOAD PUSH3 0x461BCD PUSH1 0xE5 SHL DUP2 MSTORE PUSH1 0x20 PUSH1 0x4 DUP3 ADD MSTORE PUSH1 0x10 PUSH1 0x24 DUP3 ADD MSTORE PUSH32 0x5441534B5F414D4F554E545F5A45524F00000000000000000000000000000000 PUSH1 0x44 DUP3 ADD MSTORE PUSH1 0x64 ADD PUSH2 0x788 JUMP JUMPDEST PUSH2 0x18F9 DUP3 DUP3 PUSH2 0x2229 JUMP JUMPDEST PUSH2 0x6C8 DUP3 DUP3 PUSH2 0x22C8 JUMP JUMPDEST PUSH1 0x1 PUSH1 0x1 PUSH1 0xA0 SHL SUB DUP5 AND PUSH2 0x1959 JUMPI PUSH1 0x40 MLOAD PUSH3 0x461BCD PUSH1 0xE5 SHL DUP2 MSTORE PUSH1 0x20 PUSH1 0x4 DUP3 ADD MSTORE PUSH1 0x1C PUSH1 0x24 DUP3 ADD MSTORE PUSH32 0x5441534B5F564F4C554D455F4C494D49545F544F4B454E5F5A45524F00000000 PUSH1 0x44 DUP3 ADD MSTORE PUSH1 0x64 ADD PUSH2 0x788 JUMP JUMPDEST PUSH1 0x1 PUSH1 0x1 PUSH1 0xA0 SHL SUB DUP5 AND PUSH1 0x0 SWAP1 DUP2 MSTORE PUSH1 0x19 PUSH1 0x20 MSTORE PUSH1 0x40 SWAP1 KECCAK256 PUSH2 0x197D SWAP1 DUP5 DUP5 DUP5 PUSH2 0x22F0 JUMP JUMPDEST DUP3 PUSH1 0x1 PUSH1 0x1 PUSH1 0xA0 SHL SUB AND DUP5 PUSH1 0x1 PUSH1 0x1 PUSH1 0xA0 SHL SUB AND PUSH32 0x1B5C5E27ED5443E409BAE85849D41D7BF12D5352E8FDDB3728B6408F836E1448 DUP5 DUP5 PUSH1 0x40 MLOAD PUSH2 0x19CB SWAP3 SWAP2 SWAP1 SWAP2 DUP3 MSTORE PUSH1 0x20 DUP3 ADD MSTORE PUSH1 0x40 ADD SWAP1 JUMP JUMPDEST PUSH1 0x40 MLOAD DUP1 SWAP2 SUB SWAP1 LOG3 POP POP POP POP JUMP JUMPDEST PUSH1 0x40 DUP1 MLOAD PUSH1 0x2 DUP1 DUP3 MSTORE PUSH1 0x60 DUP1 DUP4 ADD DUP5 MSTORE SWAP3 PUSH1 0x20 DUP4 ADD SWAP1 DUP1 CALLDATASIZE DUP4 CALLDATACOPY ADD SWAP1 POP POP SWAP1 POP DUP3 PUSH1 0x0 SHR DUP2 PUSH1 0x0 DUP2 MLOAD DUP2 LT PUSH2 0x1A10 JUMPI PUSH2 0x1A10 PUSH2 0x4783 JUMP JUMPDEST PUSH1 0x20 MUL PUSH1 0x20 ADD ADD DUP2 DUP2 MSTORE POP POP DUP2 PUSH1 0x0 SHR DUP2 PUSH1 0x1 DUP2 MLOAD DUP2 LT PUSH2 0x182D JUMPI PUSH2 0x182D PUSH2 0x4783 JUMP JUMPDEST DUP2 ISZERO PUSH2 0x1A81 JUMPI PUSH1 0x40 MLOAD PUSH3 0x461BCD PUSH1 0xE5 SHL DUP2 MSTORE PUSH1 0x20 PUSH1 0x4 DUP3 ADD DUP2 SWAP1 MSTORE PUSH1 0x24 DUP3 ADD MSTORE PUSH32 0x5441534B5F50524556494F55535F434F4E4E4543544F525F4E4F545F5A45524F PUSH1 0x44 DUP3 ADD MSTORE PUSH1 0x64 ADD PUSH2 0x788 JUMP JUMPDEST PUSH2 0x6C8 DUP3 DUP3 PUSH2 0x2460 JUMP JUMPDEST PUSH1 0x60 PUSH2 0x1A9F DUP3 PUSH1 0x1 PUSH1 0x1 PUSH1 0xA0 SHL SUB AND PUSH2 0x13B4 JUMP JUMPDEST SWAP3 SWAP2 POP POP JUMP JUMPDEST PUSH1 0x1B DUP1 SLOAD PUSH32 0xFFFFFFFFFFFFFFFFFFFFFFFF0000000000000000000000000000000000000000 AND PUSH1 0x1 PUSH1 0x1 PUSH1 0xA0 SHL SUB DUP4 AND SWAP1 DUP2 OR SWAP1 SWAP2 SSTORE PUSH1 0x40 MLOAD PUSH32 0x1A27D153D5379AE01DA179A2CEDA4281879EE8C7D57C728EABC52C89C64ACA17 SWAP1 PUSH1 0x0 SWAP1 LOG2 POP JUMP JUMPDEST PUSH1 0x40 DUP1 MLOAD PUSH1 0x3 DUP1 DUP3 MSTORE PUSH1 0x80 DUP3 ADD SWAP1 SWAP3 MSTORE PUSH1 0x60 SWAP2 PUSH1 0x20 DUP3 ADD DUP4 DUP1 CALLDATASIZE DUP4 CALLDATACOPY ADD SWAP1 POP POP SWAP1 POP DUP4 PUSH1 0x1 PUSH1 0x1 PUSH1 0xA0 SHL SUB AND DUP2 PUSH1 0x0 DUP2 MLOAD DUP2 LT PUSH2 0x1B46 JUMPI PUSH2 0x1B46 PUSH2 0x4783 JUMP JUMPDEST PUSH1 0x20 MUL PUSH1 0x20 ADD ADD DUP2 DUP2 MSTORE POP POP DUP3 DUP2 PUSH1 0x1 DUP2 MLOAD DUP2 LT PUSH2 0x1B66 JUMPI PUSH2 0x1B66 PUSH2 0x4783 JUMP JUMPDEST PUSH1 0x20 MUL PUSH1 0x20 ADD ADD DUP2 DUP2 MSTORE POP POP DUP2 DUP2 PUSH1 0x2 DUP2 MLOAD DUP2 LT PUSH2 0x1B86 JUMPI PUSH2 0x1B86 PUSH2 0x4783 JUMP JUMPDEST PUSH1 0x20 MUL PUSH1 0x20 ADD ADD DUP2 DUP2 MSTORE POP POP SWAP4 SWAP3 POP POP POP JUMP JUMPDEST PUSH2 0x1BA6 PUSH1 0x14 DUP5 DUP5 DUP5 PUSH2 0x22F0 JUMP JUMPDEST PUSH1 0x40 DUP1 MLOAD DUP4 DUP2 MSTORE PUSH1 0x20 DUP2 ADD DUP4 SWAP1 MSTORE PUSH1 0x1 PUSH1 0x1 PUSH1 0xA0 SHL SUB DUP6 AND SWAP2 PUSH32 0x6324B5F18E615697A2B44F16D7A649DEB0BBBC7CB09DAD4C610306105730E7D9 SWAP2 ADD PUSH1 0x40 MLOAD DUP1 SWAP2 SUB SWAP1 LOG2 POP POP POP JUMP JUMPDEST PUSH1 0x1 PUSH1 0x1 PUSH1 0xA0 SHL SUB DUP2 AND PUSH2 0x1C45 JUMPI PUSH1 0x40 MLOAD PUSH3 0x461BCD PUSH1 0xE5 SHL DUP2 MSTORE PUSH1 0x20 PUSH1 0x4 DUP3 ADD MSTORE PUSH1 0x17 PUSH1 0x24 DUP3 ADD MSTORE PUSH32 0x5441534B5F544F4B454E535F534F555243455F5A45524F000000000000000000 PUSH1 0x44 DUP3 ADD MSTORE PUSH1 0x64 ADD PUSH2 0x788 JUMP JUMPDEST PUSH1 0x1A DUP1 SLOAD PUSH32 0xFFFFFFFFFFFFFFFFFFFFFFFF0000000000000000000000000000000000000000 AND PUSH1 0x1 PUSH1 0x1 PUSH1 0xA0 SHL SUB DUP4 AND SWAP1 DUP2 OR SWAP1 SWAP2 SSTORE PUSH1 0x40 MLOAD PUSH32 0x1614E726B084B514C185BF6BCA77BC3EB2242E5B905C019703431DD46A9BD034 SWAP1 PUSH1 0x0 SWAP1 LOG2 POP JUMP JUMPDEST PUSH1 0x0 PUSH2 0x1CB3 DUP4 DUP4 PUSH2 0x24F4 JUMP JUMPDEST SWAP4 SWAP3 POP POP POP JUMP JUMPDEST PUSH1 0x0 DUP3 DUP3 MUL DUP4 ISZERO DUP1 PUSH2 0x1CDA JUMPI POP DUP3 DUP5 DUP3 DUP2 PUSH2 0x1CD7 JUMPI PUSH2 0x1CD7 PUSH2 0x4845 JUMP JUMPDEST DIV EQ JUMPDEST PUSH2 0x1D26 JUMPI PUSH1 0x40 MLOAD PUSH3 0x461BCD PUSH1 0xE5 SHL DUP2 MSTORE PUSH1 0x20 PUSH1 0x4 DUP3 ADD MSTORE PUSH1 0xC PUSH1 0x24 DUP3 ADD MSTORE PUSH32 0x4D554C5F4F564552464C4F570000000000000000000000000000000000000000 PUSH1 0x44 DUP3 ADD MSTORE PUSH1 0x64 ADD PUSH2 0x788 JUMP JUMPDEST DUP1 ISZERO PUSH2 0x1D61 JUMPI PUSH8 0xDE0B6B3A7640000 PUSH32 0xFFFFFFFFFFFFFFFFFFFFFFFFFFFFFFFFFFFFFFFFFFFFFFFFFFFFFFFFFFFFFFFF DUP3 ADD DIV PUSH1 0x1 ADD PUSH2 0x1D64 JUMP JUMPDEST PUSH1 0x0 JUMPDEST SWAP5 SWAP4 POP POP POP POP JUMP JUMPDEST PUSH1 0x0 SLOAD PUSH2 0x100 SWAP1 DIV PUSH1 0xFF AND PUSH2 0x1DD7 JUMPI PUSH1 0x40 MLOAD PUSH3 0x461BCD PUSH1 0xE5 SHL DUP2 MSTORE PUSH1 0x20 PUSH1 0x4 DUP3 ADD MSTORE PUSH1 0x2B PUSH1 0x24 DUP3 ADD MSTORE PUSH32 0x496E697469616C697A61626C653A20636F6E7472616374206973206E6F742069 PUSH1 0x44 DUP3 ADD MSTORE PUSH11 0x6E697469616C697A696E67 PUSH1 0xA8 SHL PUSH1 0x64 DUP3 ADD MSTORE PUSH1 0x84 ADD PUSH2 0x788 JUMP JUMPDEST PUSH2 0x1DE0 DUP3 PUSH2 0x266E JUMP JUMPDEST PUSH2 0x6C8 DUP3 DUP3 PUSH2 0x26F2 JUMP JUMPDEST PUSH1 0xC SLOAD DUP2 LT ISZERO PUSH2 0x1E3C JUMPI PUSH1 0x40 MLOAD PUSH3 0x461BCD PUSH1 0xE5 SHL DUP2 MSTORE PUSH1 0x20 PUSH1 0x4 DUP3 ADD MSTORE PUSH1 0x1E PUSH1 0x24 DUP3 ADD MSTORE PUSH32 0x5441534B5F44454C41595F47545F455845435554494F4E5F504552494F440000 PUSH1 0x44 DUP3 ADD MSTORE PUSH1 0x64 ADD PUSH2 0x788 JUMP JUMPDEST PUSH1 0xA DUP2 SWAP1 SSTORE PUSH1 0x40 MLOAD DUP2 DUP2 MSTORE PUSH32 0x19977A2303CEB34BEF2E4DD4565FAAC5F9B6EBC0C20A5EE6EC7ACA38D5B15938 SWAP1 PUSH1 0x20 ADD PUSH2 0x1483 JUMP JUMPDEST PUSH2 0x1E7E PUSH1 0x10 DUP5 DUP5 DUP5 PUSH2 0x2102 JUMP JUMPDEST PUSH1 0x40 DUP1 MLOAD PUSH1 0x1 PUSH1 0x1 PUSH1 0xA0 SHL SUB DUP6 AND DUP2 MSTORE PUSH1 0x20 DUP2 ADD DUP5 SWAP1 MSTORE SWAP1 DUP2 ADD DUP3 SWAP1 MSTORE PUSH32 0xA80953BDC344B2EBD0BCDD001A3418A8FD1B858BDECF12A4BA5A9366AD65D345 SWAP1 PUSH1 0x60 ADD PUSH2 0x11D2 JUMP JUMPDEST PUSH1 0x1 PUSH1 0x1 PUSH1 0xA0 SHL SUB DUP1 DUP3 AND PUSH1 0x0 SWAP1 DUP2 MSTORE PUSH1 0x19 PUSH1 0x20 MSTORE PUSH1 0x40 DUP2 KECCAK256 DUP1 SLOAD SWAP2 SWAP3 SWAP1 SWAP2 AND ISZERO PUSH2 0x1EF0 JUMPI DUP1 PUSH2 0x1CB3 JUMP JUMPDEST PUSH1 0x14 SWAP4 SWAP3 POP POP POP JUMP JUMPDEST PUSH8 0xDE0B6B3A7640000 DUP2 GT ISZERO PUSH2 0x1F51 JUMPI PUSH1 0x40 MLOAD PUSH3 0x461BCD PUSH1 0xE5 SHL DUP2 MSTORE PUSH1 0x20 PUSH1 0x4 DUP3 ADD DUP2 SWAP1 MSTORE PUSH1 0x24 DUP3 ADD MSTORE PUSH32 0x5441534B5F54585F434F53545F4C494D49545F5043545F41424F56455F4F4E45 PUSH1 0x44 DUP3 ADD MSTORE PUSH1 0x64 ADD PUSH2 0x788 JUMP JUMPDEST PUSH1 0x9 DUP2 SWAP1 SSTORE PUSH1 0x40 MLOAD DUP2 DUP2 MSTORE PUSH32 0x6F595FA7BD8D8D8862D5832788F1CE1FE642AF019A167C3BB93C793246185A96 SWAP1 PUSH1 0x20 ADD PUSH2 0x1483 JUMP JUMPDEST PUSH1 0xA SLOAD DUP2 GT ISZERO PUSH2 0x1FD8 JUMPI PUSH1 0x40 MLOAD PUSH3 0x461BCD PUSH1 0xE5 SHL DUP2 MSTORE PUSH1 0x20 PUSH1 0x4 DUP3 ADD MSTORE PUSH1 0x1E PUSH1 0x24 DUP3 ADD MSTORE PUSH32 0x5441534B5F455845435554494F4E5F504552494F445F47545F44454C41590000 PUSH1 0x44 DUP3 ADD MSTORE PUSH1 0x64 ADD PUSH2 0x788 JUMP JUMPDEST PUSH1 0xC DUP2 SWAP1 SSTORE PUSH1 0x40 MLOAD DUP2 DUP2 MSTORE PUSH32 0x6243D0B89023D75F69A263222092C4479E48EC8866BEE94A0C6D38288425CA76 SWAP1 PUSH1 0x20 ADD PUSH2 0x1483 JUMP JUMPDEST PUSH1 0xB DUP2 SWAP1 SSTORE PUSH1 0x40 MLOAD DUP2 DUP2 MSTORE PUSH32 0x591533B8B1DB3DF52AC5CBF75069102B6618D2A941CB88C223FD353FF4E65D4D SWAP1 PUSH1 0x20 ADD PUSH2 0x1483 JUMP JUMPDEST PUSH1 0x0 DUP1 SLOAD PUSH1 0x40 MLOAD PUSH32 0x2852289500000000000000000000000000000000000000000000000000000000 DUP2 MSTORE PUSH3 0x10000 SWAP1 SWAP2 DIV PUSH1 0x1 PUSH1 0x1 PUSH1 0xA0 SHL SUB AND SWAP1 PUSH4 0x28522895 SWAP1 PUSH2 0x2097 SWAP1 DUP8 SWAP1 ADDRESS SWAP1 DUP9 SWAP1 DUP9 SWAP1 PUSH1 0x4 ADD PUSH2 0x4874 JUMP JUMPDEST PUSH1 0x20 PUSH1 0x40 MLOAD DUP1 DUP4 SUB DUP2 DUP7 GAS STATICCALL ISZERO DUP1 ISZERO PUSH2 0x20B4 JUMPI RETURNDATASIZE PUSH1 0x0 DUP1 RETURNDATACOPY RETURNDATASIZE PUSH1 0x0 REVERT JUMPDEST POP POP POP POP PUSH1 0x40 MLOAD RETURNDATASIZE PUSH1 0x1F NOT PUSH1 0x1F DUP3 ADD AND DUP3 ADD DUP1 PUSH1 0x40 MSTORE POP DUP2 ADD SWAP1 PUSH2 0x1D64 SWAP2 SWAP1 PUSH2 0x4900 JUMP JUMPDEST PUSH1 0x0 PUSH2 0x1CB3 DUP4 PUSH1 0x1 PUSH1 0x1 PUSH1 0xA0 SHL SUB DUP5 AND PUSH2 0x2766 JUMP JUMPDEST PUSH1 0x0 PUSH2 0x1CB3 DUP4 PUSH1 0x1 PUSH1 0x1 PUSH1 0xA0 SHL SUB DUP5 AND PUSH2 0x2859 JUMP JUMPDEST PUSH1 0x0 PUSH1 0x1 PUSH1 0x1 PUSH1 0xA0 SHL SUB DUP5 AND ISZERO DUP1 ISZERO PUSH2 0x2119 JUMPI POP DUP3 ISZERO JUMPDEST DUP1 ISZERO PUSH2 0x2123 JUMPI POP DUP2 ISZERO JUMPDEST SWAP1 POP PUSH1 0x0 PUSH1 0x1 PUSH1 0x1 PUSH1 0xA0 SHL SUB DUP6 AND ISZERO DUP1 ISZERO SWAP1 PUSH2 0x2147 JUMPI POP DUP3 ISZERO DUP1 PUSH2 0x2147 JUMPI POP DUP4 DUP4 LT ISZERO JUMPDEST SWAP1 POP DUP2 DUP1 PUSH2 0x2152 JUMPI POP DUP1 JUMPDEST PUSH2 0x219E JUMPI PUSH1 0x40 MLOAD PUSH3 0x461BCD PUSH1 0xE5 SHL DUP2 MSTORE PUSH1 0x20 PUSH1 0x4 DUP3 ADD MSTORE PUSH1 0x1C PUSH1 0x24 DUP3 ADD MSTORE PUSH32 0x5441534B5F494E56414C49445F5448524553484F4C445F494E50555400000000 PUSH1 0x44 DUP3 ADD MSTORE PUSH1 0x64 ADD PUSH2 0x788 JUMP JUMPDEST POP POP DUP4 SLOAD PUSH32 0xFFFFFFFFFFFFFFFFFFFFFFFF0000000000000000000000000000000000000000 AND PUSH1 0x1 PUSH1 0x1 PUSH1 0xA0 SHL SUB SWAP4 SWAP1 SWAP4 AND SWAP3 SWAP1 SWAP3 OR DUP4 SSTORE PUSH1 0x1 DUP4 ADD SSTORE PUSH1 0x2 SWAP1 SWAP2 ADD SSTORE JUMP JUMPDEST PUSH2 0x21ED DUP3 DUP3 PUSH2 0x28A8 JUMP JUMPDEST PUSH2 0x21F7 DUP3 DUP3 PUSH2 0x28B2 JUMP JUMPDEST PUSH2 0x2201 DUP3 DUP3 PUSH2 0x2905 JUMP JUMPDEST PUSH2 0x220B DUP3 DUP3 PUSH2 0x29CC JUMP JUMPDEST PUSH2 0x2215 DUP3 DUP3 PUSH2 0x2AB8 JUMP JUMPDEST PUSH2 0x221F DUP3 DUP3 PUSH2 0x2B3F JUMP JUMPDEST PUSH2 0x6C8 DUP3 DUP3 PUSH2 0x2C2D JUMP JUMPDEST PUSH1 0x3 SLOAD ISZERO PUSH2 0x6C8 JUMPI PUSH1 0x1 DUP1 SLOAD PUSH1 0x3 SLOAD PUSH1 0x40 MLOAD PUSH32 0xEB056BBB00000000000000000000000000000000000000000000000000000000 DUP2 MSTORE PUSH1 0x4 DUP2 ADD SWAP2 SWAP1 SWAP2 MSTORE PUSH1 0x1 PUSH1 0x1 PUSH1 0xA0 SHL SUB DUP6 DUP2 AND PUSH1 0x24 DUP4 ADD MSTORE PUSH1 0x44 DUP3 ADD DUP6 SWAP1 MSTORE PUSH1 0x64 DUP3 ADD SWAP4 SWAP1 SWAP4 MSTORE SWAP2 AND SWAP1 PUSH4 0xEB056BBB SWAP1 PUSH1 0x84 ADD JUMPDEST PUSH1 0x0 PUSH1 0x40 MLOAD DUP1 DUP4 SUB DUP2 PUSH1 0x0 DUP8 DUP1 EXTCODESIZE ISZERO DUP1 ISZERO PUSH2 0x22AC JUMPI PUSH1 0x0 DUP1 REVERT JUMPDEST POP GAS CALL ISZERO DUP1 ISZERO PUSH2 0x22C0 JUMPI RETURNDATASIZE PUSH1 0x0 DUP1 RETURNDATACOPY RETURNDATASIZE PUSH1 0x0 REVERT JUMPDEST POP POP POP POP POP POP JUMP JUMPDEST PUSH2 0x22D2 DUP3 DUP3 PUSH2 0x2D41 JUMP JUMPDEST PUSH2 0x22DC DUP3 DUP3 PUSH2 0x2DE3 JUMP JUMPDEST PUSH2 0x22E6 DUP3 DUP3 PUSH2 0x2E63 JUMP JUMPDEST PUSH2 0x6C8 DUP3 DUP3 PUSH2 0x30CB JUMP JUMPDEST PUSH1 0x0 PUSH1 0x1 PUSH1 0x1 PUSH1 0xA0 SHL SUB DUP5 AND ISZERO DUP1 ISZERO PUSH2 0x2307 JUMPI POP DUP3 ISZERO JUMPDEST DUP1 ISZERO PUSH2 0x2311 JUMPI POP DUP2 ISZERO JUMPDEST SWAP1 POP PUSH1 0x0 PUSH1 0x1 PUSH1 0x1 PUSH1 0xA0 SHL SUB DUP6 AND ISZERO DUP1 ISZERO SWAP1 PUSH2 0x232D JUMPI POP PUSH1 0x0 DUP5 GT JUMPDEST DUP1 ISZERO PUSH2 0x2339 JUMPI POP PUSH1 0x0 DUP4 GT JUMPDEST SWAP1 POP DUP2 DUP1 PUSH2 0x2344 JUMPI POP DUP1 JUMPDEST PUSH2 0x2390 JUMPI PUSH1 0x40 MLOAD PUSH3 0x461BCD PUSH1 0xE5 SHL DUP2 MSTORE PUSH1 0x20 PUSH1 0x4 DUP3 ADD MSTORE PUSH1 0x1F PUSH1 0x24 DUP3 ADD MSTORE PUSH32 0x5441534B5F494E56414C49445F564F4C554D455F4C494D49545F494E50555400 PUSH1 0x44 DUP3 ADD MSTORE PUSH1 0x64 ADD PUSH2 0x788 JUMP JUMPDEST PUSH1 0x3 DUP7 ADD DUP4 SWAP1 SSTORE PUSH1 0x1 DUP7 ADD DUP5 SWAP1 SSTORE DUP2 ISZERO PUSH2 0x23B7 JUMPI PUSH1 0x0 PUSH1 0x2 DUP8 ADD DUP2 SWAP1 SSTORE PUSH1 0x4 DUP8 ADD SSTORE PUSH2 0x2423 JUMP JUMPDEST DUP6 PUSH1 0x4 ADD SLOAD PUSH1 0x0 SUB PUSH2 0x23DE JUMPI PUSH1 0x0 PUSH1 0x2 DUP8 ADD SSTORE PUSH2 0x23D4 DUP4 TIMESTAMP PUSH2 0x491D JUMP JUMPDEST PUSH1 0x4 DUP8 ADD SSTORE PUSH2 0x2423 JUMP JUMPDEST DUP6 SLOAD PUSH1 0x1 PUSH1 0x1 PUSH1 0xA0 SHL SUB DUP7 DUP2 AND SWAP2 AND EQ PUSH2 0x2423 JUMPI DUP6 SLOAD PUSH1 0x0 SWAP1 PUSH2 0x240A SWAP1 PUSH1 0x1 PUSH1 0x1 PUSH1 0xA0 SHL SUB AND DUP8 PUSH2 0x1CA7 JUMP JUMPDEST PUSH1 0x2 DUP9 ADD SLOAD SWAP1 SWAP2 POP PUSH2 0x241C SWAP1 DUP3 PUSH2 0x30F8 JUMP JUMPDEST PUSH1 0x2 DUP9 ADD SSTORE POP JUMPDEST POP POP DUP4 SLOAD PUSH32 0xFFFFFFFFFFFFFFFFFFFFFFFF0000000000000000000000000000000000000000 AND PUSH1 0x1 PUSH1 0x1 PUSH1 0xA0 SHL SUB SWAP4 SWAP1 SWAP4 AND SWAP3 SWAP1 SWAP3 OR SWAP1 SWAP3 SSTORE POP POP JUMP JUMPDEST DUP1 DUP3 EQ ISZERO DUP1 PUSH2 0x246D JUMPI POP DUP2 ISZERO JUMPDEST PUSH2 0x24B9 JUMPI PUSH1 0x40 MLOAD PUSH3 0x461BCD PUSH1 0xE5 SHL DUP2 MSTORE PUSH1 0x20 PUSH1 0x4 DUP3 ADD MSTORE PUSH1 0x1C PUSH1 0x24 DUP3 ADD MSTORE PUSH32 0x5441534B5F53414D455F42414C414E43455F434F4E4E4543544F525300000000 PUSH1 0x44 DUP3 ADD MSTORE PUSH1 0x64 ADD PUSH2 0x788 JUMP JUMPDEST PUSH1 0x2 DUP3 SWAP1 SSTORE PUSH1 0x3 DUP2 SWAP1 SSTORE PUSH1 0x40 MLOAD DUP2 SWAP1 DUP4 SWAP1 PUSH32 0xF950A929751D87DB181A0A517DF21BB3ECD433ABBA584594402DB4B58A554835 SWAP1 PUSH1 0x0 SWAP1 LOG3 POP POP JUMP JUMPDEST PUSH1 0x0 DUP1 PUSH1 0x1 PUSH1 0x0 SWAP1 SLOAD SWAP1 PUSH2 0x100 EXP SWAP1 DIV PUSH1 0x1 PUSH1 0x1 PUSH1 0xA0 SHL SUB AND PUSH1 0x1 PUSH1 0x1 PUSH1 0xA0 SHL SUB AND PUSH4 0x2630C12F PUSH1 0x40 MLOAD DUP2 PUSH4 0xFFFFFFFF AND PUSH1 0xE0 SHL DUP2 MSTORE PUSH1 0x4 ADD PUSH1 0x20 PUSH1 0x40 MLOAD DUP1 DUP4 SUB DUP2 DUP7 GAS STATICCALL ISZERO DUP1 ISZERO PUSH2 0x254A JUMPI RETURNDATASIZE PUSH1 0x0 DUP1 RETURNDATACOPY RETURNDATASIZE PUSH1 0x0 REVERT JUMPDEST POP POP POP POP PUSH1 0x40 MLOAD RETURNDATASIZE PUSH1 0x1F NOT PUSH1 0x1F DUP3 ADD AND DUP3 ADD DUP1 PUSH1 0x40 MSTORE POP DUP2 ADD SWAP1 PUSH2 0x256E SWAP2 SWAP1 PUSH2 0x4930 JUMP JUMPDEST SWAP1 POP PUSH1 0x1 PUSH1 0x1 PUSH1 0xA0 SHL SUB DUP2 AND PUSH2 0x25C6 JUMPI PUSH1 0x40 MLOAD PUSH3 0x461BCD PUSH1 0xE5 SHL DUP2 MSTORE PUSH1 0x20 PUSH1 0x4 DUP3 ADD MSTORE PUSH1 0x19 PUSH1 0x24 DUP3 ADD MSTORE PUSH32 0x5441534B5F50524943455F4F5241434C455F4E4F545F53455400000000000000 PUSH1 0x44 DUP3 ADD MSTORE PUSH1 0x64 ADD PUSH2 0x788 JUMP JUMPDEST DUP1 PUSH1 0x1 PUSH1 0x1 PUSH1 0xA0 SHL SUB AND PUSH4 0xAC41865A PUSH2 0x25DE DUP7 PUSH2 0x3176 JUMP JUMPDEST PUSH2 0x25E7 DUP7 PUSH2 0x3176 JUMP JUMPDEST PUSH1 0x40 MLOAD PUSH32 0xFFFFFFFF00000000000000000000000000000000000000000000000000000000 PUSH1 0xE0 DUP6 SWAP1 SHL AND DUP2 MSTORE PUSH1 0x1 PUSH1 0x1 PUSH1 0xA0 SHL SUB SWAP3 DUP4 AND PUSH1 0x4 DUP3 ADD MSTORE SWAP2 AND PUSH1 0x24 DUP3 ADD MSTORE PUSH1 0x44 ADD PUSH1 0x20 PUSH1 0x40 MLOAD DUP1 DUP4 SUB DUP2 DUP7 GAS STATICCALL ISZERO DUP1 ISZERO PUSH2 0x264A JUMPI RETURNDATASIZE PUSH1 0x0 DUP1 RETURNDATACOPY RETURNDATASIZE PUSH1 0x0 REVERT JUMPDEST POP POP POP POP PUSH1 0x40 MLOAD RETURNDATASIZE PUSH1 0x1F NOT PUSH1 0x1F DUP3 ADD AND DUP3 ADD DUP1 PUSH1 0x40 MSTORE POP DUP2 ADD SWAP1 PUSH2 0x1D64 SWAP2 SWAP1 PUSH2 0x4819 JUMP JUMPDEST PUSH1 0x0 SLOAD PUSH2 0x100 SWAP1 DIV PUSH1 0xFF AND PUSH2 0x26D9 JUMPI PUSH1 0x40 MLOAD PUSH3 0x461BCD PUSH1 0xE5 SHL DUP2 MSTORE PUSH1 0x20 PUSH1 0x4 DUP3 ADD MSTORE PUSH1 0x2B PUSH1 0x24 DUP3 ADD MSTORE PUSH32 0x496E697469616C697A61626C653A20636F6E7472616374206973206E6F742069 PUSH1 0x44 DUP3 ADD MSTORE PUSH11 0x6E697469616C697A696E67 PUSH1 0xA8 SHL PUSH1 0x64 DUP3 ADD MSTORE PUSH1 0x84 ADD PUSH2 0x788 JUMP JUMPDEST PUSH2 0x26E6 DUP2 PUSH1 0x20 ADD MLOAD PUSH2 0x31AA JUMP JUMPDEST PUSH2 0x26EF DUP2 PUSH2 0x3272 JUMP JUMPDEST POP JUMP JUMPDEST PUSH1 0x0 SLOAD PUSH2 0x100 SWAP1 DIV PUSH1 0xFF AND PUSH2 0x275D JUMPI PUSH1 0x40 MLOAD PUSH3 0x461BCD PUSH1 0xE5 SHL DUP2 MSTORE PUSH1 0x20 PUSH1 0x4 DUP3 ADD MSTORE PUSH1 0x2B PUSH1 0x24 DUP3 ADD MSTORE PUSH32 0x496E697469616C697A61626C653A20636F6E7472616374206973206E6F742069 PUSH1 0x44 DUP3 ADD MSTORE PUSH11 0x6E697469616C697A696E67 PUSH1 0xA8 SHL PUSH1 0x64 DUP3 ADD MSTORE PUSH1 0x84 ADD PUSH2 0x788 JUMP JUMPDEST PUSH2 0x6C8 DUP2 PUSH2 0x1AA5 JUMP JUMPDEST PUSH1 0x0 DUP2 DUP2 MSTORE PUSH1 0x1 DUP4 ADD PUSH1 0x20 MSTORE PUSH1 0x40 DUP2 KECCAK256 SLOAD DUP1 ISZERO PUSH2 0x284F JUMPI PUSH1 0x0 PUSH2 0x278A PUSH1 0x1 DUP4 PUSH2 0x4832 JUMP JUMPDEST DUP6 SLOAD SWAP1 SWAP2 POP PUSH1 0x0 SWAP1 PUSH2 0x279E SWAP1 PUSH1 0x1 SWAP1 PUSH2 0x4832 JUMP JUMPDEST SWAP1 POP DUP2 DUP2 EQ PUSH2 0x2803 JUMPI PUSH1 0x0 DUP7 PUSH1 0x0 ADD DUP3 DUP2 SLOAD DUP2 LT PUSH2 0x27BE JUMPI PUSH2 0x27BE PUSH2 0x4783 JUMP JUMPDEST SWAP1 PUSH1 0x0 MSTORE PUSH1 0x20 PUSH1 0x0 KECCAK256 ADD SLOAD SWAP1 POP DUP1 DUP8 PUSH1 0x0 ADD DUP5 DUP2 SLOAD DUP2 LT PUSH2 0x27E1 JUMPI PUSH2 0x27E1 PUSH2 0x4783 JUMP JUMPDEST PUSH1 0x0 SWAP2 DUP3 MSTORE PUSH1 0x20 DUP1 DUP4 KECCAK256 SWAP1 SWAP2 ADD SWAP3 SWAP1 SWAP3 SSTORE SWAP2 DUP3 MSTORE PUSH1 0x1 DUP9 ADD SWAP1 MSTORE PUSH1 0x40 SWAP1 KECCAK256 DUP4 SWAP1 SSTORE JUMPDEST DUP6 SLOAD DUP7 SWAP1 DUP1 PUSH2 0x2814 JUMPI PUSH2 0x2814 PUSH2 0x494D JUMP JUMPDEST PUSH1 0x1 SWAP1 SUB DUP2 DUP2 SWAP1 PUSH1 0x0 MSTORE PUSH1 0x20 PUSH1 0x0 KECCAK256 ADD PUSH1 0x0 SWAP1 SSTORE SWAP1 SSTORE DUP6 PUSH1 0x1 ADD PUSH1 0x0 DUP7 DUP2 MSTORE PUSH1 0x20 ADD SWAP1 DUP2 MSTORE PUSH1 0x20 ADD PUSH1 0x0 KECCAK256 PUSH1 0x0 SWAP1 SSTORE PUSH1 0x1 SWAP4 POP POP POP POP PUSH2 0x1A9F JUMP JUMPDEST PUSH1 0x0 SWAP2 POP POP PUSH2 0x1A9F JUMP JUMPDEST PUSH1 0x0 DUP2 DUP2 MSTORE PUSH1 0x1 DUP4 ADD PUSH1 0x20 MSTORE PUSH1 0x40 DUP2 KECCAK256 SLOAD PUSH2 0x28A0 JUMPI POP DUP2 SLOAD PUSH1 0x1 DUP2 DUP2 ADD DUP5 SSTORE PUSH1 0x0 DUP5 DUP2 MSTORE PUSH1 0x20 DUP1 DUP3 KECCAK256 SWAP1 SWAP4 ADD DUP5 SWAP1 SSTORE DUP5 SLOAD DUP5 DUP3 MSTORE DUP3 DUP7 ADD SWAP1 SWAP4 MSTORE PUSH1 0x40 SWAP1 KECCAK256 SWAP2 SWAP1 SWAP2 SSTORE PUSH2 0x1A9F JUMP JUMPDEST POP PUSH1 0x0 PUSH2 0x1A9F JUMP JUMPDEST PUSH2 0x6C8 DUP3 DUP3 PUSH2 0x32E8 JUMP JUMPDEST PUSH1 0x4 SLOAD PUSH1 0xFF AND ISZERO PUSH2 0x6C8 JUMPI PUSH1 0x40 MLOAD PUSH3 0x461BCD PUSH1 0xE5 SHL DUP2 MSTORE PUSH1 0x20 PUSH1 0x4 DUP3 ADD MSTORE PUSH1 0xB PUSH1 0x24 DUP3 ADD MSTORE PUSH32 0x5441534B5F504155534544000000000000000000000000000000000000000000 PUSH1 0x44 DUP3 ADD MSTORE PUSH1 0x64 ADD PUSH2 0x788 JUMP JUMPDEST GAS PUSH1 0x5 SSTORE PUSH1 0x6 SLOAD ISZERO DUP1 PUSH2 0x291A JUMPI POP PUSH1 0x6 SLOAD GASPRICE GT ISZERO JUMPDEST PUSH2 0x2966 JUMPI PUSH1 0x40 MLOAD PUSH3 0x461BCD PUSH1 0xE5 SHL DUP2 MSTORE PUSH1 0x20 PUSH1 0x4 DUP3 ADD MSTORE PUSH1 0x14 PUSH1 0x24 DUP3 ADD MSTORE PUSH32 0x5441534B5F4741535F50524943455F4C494D4954000000000000000000000000 PUSH1 0x44 DUP3 ADD MSTORE PUSH1 0x64 ADD PUSH2 0x788 JUMP JUMPDEST PUSH1 0x7 SLOAD ISZERO DUP1 PUSH2 0x2980 JUMPI POP PUSH1 0x7 SLOAD PUSH2 0x297D BASEFEE GASPRICE PUSH2 0x4832 JUMP JUMPDEST GT ISZERO JUMPDEST PUSH2 0x6C8 JUMPI PUSH1 0x40 MLOAD PUSH3 0x461BCD PUSH1 0xE5 SHL DUP2 MSTORE PUSH1 0x20 PUSH1 0x4 DUP3 ADD MSTORE PUSH1 0x17 PUSH1 0x24 DUP3 ADD MSTORE PUSH32 0x5441534B5F5052494F524954595F4645455F4C494D4954000000000000000000 PUSH1 0x44 DUP3 ADD MSTORE PUSH1 0x64 ADD PUSH2 0x788 JUMP JUMPDEST PUSH1 0xB SLOAD TIMESTAMP LT ISZERO PUSH2 0x2A1E JUMPI PUSH1 0x40 MLOAD PUSH3 0x461BCD PUSH1 0xE5 SHL DUP2 MSTORE PUSH1 0x20 PUSH1 0x4 DUP3 ADD MSTORE PUSH1 0x1A PUSH1 0x24 DUP3 ADD MSTORE PUSH32 0x5441534B5F54494D455F4C4F434B5F4E4F545F45585049524544000000000000 PUSH1 0x44 DUP3 ADD MSTORE PUSH1 0x64 ADD PUSH2 0x788 JUMP JUMPDEST PUSH1 0xC SLOAD ISZERO PUSH2 0x6C8 JUMPI PUSH1 0x0 PUSH1 0xB SLOAD TIMESTAMP PUSH2 0x2A36 SWAP2 SWAP1 PUSH2 0x4832 JUMP JUMPDEST SWAP1 POP PUSH1 0x0 PUSH1 0xA SLOAD DUP3 PUSH2 0x2A48 SWAP2 SWAP1 PUSH2 0x497C JUMP JUMPDEST SWAP1 POP PUSH1 0x0 PUSH1 0xA SLOAD DUP3 PUSH2 0x2A5A SWAP2 SWAP1 PUSH2 0x49B7 JUMP JUMPDEST PUSH2 0x2A64 SWAP1 DUP5 PUSH2 0x4832 JUMP JUMPDEST SWAP1 POP PUSH1 0xC SLOAD DUP2 GT ISZERO PUSH2 0x8CD JUMPI PUSH1 0x40 MLOAD PUSH3 0x461BCD PUSH1 0xE5 SHL DUP2 MSTORE PUSH1 0x20 PUSH1 0x4 DUP3 ADD MSTORE PUSH1 0x1F PUSH1 0x24 DUP3 ADD MSTORE PUSH32 0x5441534B5F54494D455F4C4F434B5F574149545F4E4558545F504552494F4400 PUSH1 0x44 DUP3 ADD MSTORE PUSH1 0x64 ADD PUSH2 0x788 JUMP JUMPDEST PUSH1 0x0 PUSH2 0x2AC5 PUSH1 0xE DUP5 PUSH2 0x3354 JUMP JUMPDEST SWAP1 POP PUSH1 0x0 PUSH1 0x1 PUSH1 0xD SLOAD PUSH1 0xFF AND PUSH1 0x1 DUP2 GT ISZERO PUSH2 0x2AE2 JUMPI PUSH2 0x2AE2 PUSH2 0x4245 JUMP JUMPDEST EQ PUSH2 0x2AEE JUMPI DUP2 ISZERO PUSH2 0x2AF0 JUMP JUMPDEST DUP2 JUMPDEST SWAP1 POP DUP1 PUSH2 0xE46 JUMPI PUSH1 0x40 MLOAD PUSH3 0x461BCD PUSH1 0xE5 SHL DUP2 MSTORE PUSH1 0x20 PUSH1 0x4 DUP3 ADD MSTORE PUSH1 0x16 PUSH1 0x24 DUP3 ADD MSTORE PUSH32 0x5441534B5F544F4B454E5F4E4F545F414C4C4F57454400000000000000000000 PUSH1 0x44 DUP3 ADD MSTORE PUSH1 0x64 ADD PUSH2 0x788 JUMP JUMPDEST PUSH1 0x0 PUSH2 0x2B4A DUP4 PUSH2 0xB5A JUMP JUMPDEST DUP1 MLOAD PUSH1 0x1B SLOAD PUSH1 0x40 MLOAD PUSH32 0x70A0823100000000000000000000000000000000000000000000000000000000 DUP2 MSTORE PUSH1 0x1 PUSH1 0x1 PUSH1 0xA0 SHL SUB SWAP2 DUP3 AND PUSH1 0x4 DUP3 ADD MSTORE SWAP3 SWAP4 POP PUSH1 0x0 SWAP3 SWAP2 AND SWAP1 PUSH4 0x70A08231 SWAP1 PUSH1 0x24 ADD PUSH1 0x20 PUSH1 0x40 MLOAD DUP1 DUP4 SUB DUP2 DUP7 GAS STATICCALL ISZERO DUP1 ISZERO PUSH2 0x2BB4 JUMPI RETURNDATASIZE PUSH1 0x0 DUP1 RETURNDATACOPY RETURNDATASIZE PUSH1 0x0 REVERT JUMPDEST POP POP POP POP PUSH1 0x40 MLOAD RETURNDATASIZE PUSH1 0x1F NOT PUSH1 0x1F DUP3 ADD AND DUP3 ADD DUP1 PUSH1 0x40 MSTORE POP DUP2 ADD SWAP1 PUSH2 0x2BD8 SWAP2 SWAP1 PUSH2 0x4819 JUMP JUMPDEST SWAP1 POP DUP2 PUSH1 0x20 ADD MLOAD DUP2 LT PUSH2 0xE46 JUMPI PUSH1 0x40 MLOAD PUSH3 0x461BCD PUSH1 0xE5 SHL DUP2 MSTORE PUSH1 0x20 PUSH1 0x4 DUP3 ADD MSTORE PUSH1 0x1C PUSH1 0x24 DUP3 ADD MSTORE PUSH32 0x5441534B5F544F4B454E5F5448524553484F4C445F4E4F545F4D455400000000 PUSH1 0x44 DUP3 ADD MSTORE PUSH1 0x64 ADD PUSH2 0x788 JUMP JUMPDEST PUSH1 0x0 PUSH2 0x2C38 DUP4 PUSH2 0x1EC5 JUMP JUMPDEST PUSH1 0x40 DUP1 MLOAD PUSH1 0xA0 DUP2 ADD DUP3 MSTORE DUP3 SLOAD PUSH1 0x1 PUSH1 0x1 PUSH1 0xA0 SHL SUB AND DUP1 DUP3 MSTORE PUSH1 0x1 DUP5 ADD SLOAD PUSH1 0x20 DUP4 ADD MSTORE PUSH1 0x2 DUP5 ADD SLOAD SWAP3 DUP3 ADD SWAP3 SWAP1 SWAP3 MSTORE PUSH1 0x3 DUP4 ADD SLOAD PUSH1 0x60 DUP3 ADD MSTORE PUSH1 0x4 SWAP1 SWAP3 ADD SLOAD PUSH1 0x80 DUP4 ADD MSTORE SWAP1 SWAP2 POP PUSH2 0x2C87 JUMPI POP POP POP JUMP JUMPDEST PUSH1 0x0 DUP4 PUSH1 0x1 PUSH1 0x1 PUSH1 0xA0 SHL SUB AND DUP3 PUSH1 0x0 ADD MLOAD PUSH1 0x1 PUSH1 0x1 PUSH1 0xA0 SHL SUB AND EQ PUSH2 0x2CC3 JUMPI PUSH2 0x2CBE PUSH2 0x2CB7 DUP6 DUP5 PUSH1 0x0 ADD MLOAD PUSH2 0x1CA7 JUMP JUMPDEST DUP5 SWAP1 PUSH2 0x30F8 JUMP JUMPDEST PUSH2 0x2CC5 JUMP JUMPDEST DUP3 JUMPDEST SWAP1 POP PUSH1 0x0 DUP3 PUSH1 0x80 ADD MLOAD TIMESTAMP LT PUSH2 0x2CDB JUMPI PUSH1 0x0 PUSH2 0x2CE1 JUMP JUMPDEST DUP3 PUSH1 0x40 ADD MLOAD JUMPDEST PUSH2 0x2CEB SWAP1 DUP4 PUSH2 0x491D JUMP JUMPDEST SWAP1 POP DUP3 PUSH1 0x20 ADD MLOAD DUP2 GT ISZERO PUSH2 0x8CD JUMPI PUSH1 0x40 MLOAD PUSH3 0x461BCD PUSH1 0xE5 SHL DUP2 MSTORE PUSH1 0x20 PUSH1 0x4 DUP3 ADD MSTORE PUSH1 0x1A PUSH1 0x24 DUP3 ADD MSTORE PUSH32 0x5441534B5F564F4C554D455F4C494D49545F4558434545444544000000000000 PUSH1 0x44 DUP3 ADD MSTORE PUSH1 0x64 ADD PUSH2 0x788 JUMP JUMPDEST PUSH1 0x0 PUSH2 0x2D4C DUP4 PUSH2 0x1EC5 JUMP JUMPDEST DUP1 SLOAD SWAP1 SWAP2 POP PUSH1 0x1 PUSH1 0x1 PUSH1 0xA0 SHL SUB AND PUSH2 0x2D63 JUMPI POP POP POP JUMP JUMPDEST DUP1 SLOAD PUSH1 0x0 SWAP1 PUSH1 0x1 PUSH1 0x1 PUSH1 0xA0 SHL SUB DUP6 DUP2 AND SWAP2 AND EQ PUSH2 0x2D99 JUMPI DUP2 SLOAD PUSH2 0x2D94 SWAP1 PUSH2 0x2CB7 SWAP1 DUP7 SWAP1 PUSH1 0x1 PUSH1 0x1 PUSH1 0xA0 SHL SUB AND PUSH2 0x1CA7 JUMP JUMPDEST PUSH2 0x2D9B JUMP JUMPDEST DUP3 JUMPDEST SWAP1 POP DUP2 PUSH1 0x4 ADD SLOAD TIMESTAMP LT PUSH2 0x2DC4 JUMPI PUSH1 0x0 PUSH1 0x2 DUP4 ADD SSTORE PUSH1 0x3 DUP3 ADD SLOAD PUSH2 0x2DBE SWAP1 TIMESTAMP PUSH2 0x491D JUMP JUMPDEST PUSH1 0x4 DUP4 ADD SSTORE JUMPDEST DUP1 DUP3 PUSH1 0x2 ADD PUSH1 0x0 DUP3 DUP3 SLOAD PUSH2 0x2DD8 SWAP2 SWAP1 PUSH2 0x491D JUMP JUMPDEST SWAP1 SWAP2 SSTORE POP POP POP POP POP POP JUMP JUMPDEST PUSH1 0xA SLOAD ISZERO PUSH2 0x6C8 JUMPI PUSH1 0x0 PUSH1 0xB SLOAD PUSH1 0x0 SUB PUSH2 0x2E0B JUMPI PUSH1 0xA SLOAD PUSH2 0x2E04 SWAP1 TIMESTAMP PUSH2 0x491D JUMP JUMPDEST SWAP1 POP PUSH2 0x2E5A JUMP JUMPDEST PUSH1 0x0 PUSH1 0xB SLOAD TIMESTAMP PUSH2 0x2E1B SWAP2 SWAP1 PUSH2 0x4832 JUMP JUMPDEST SWAP1 POP PUSH1 0x0 PUSH1 0xA SLOAD DUP3 PUSH2 0x2E2D SWAP2 SWAP1 PUSH2 0x497C JUMP JUMPDEST PUSH2 0x2E38 SWAP1 PUSH1 0x1 PUSH2 0x491D JUMP JUMPDEST SWAP1 POP PUSH1 0xA SLOAD DUP2 PUSH2 0x2E48 SWAP2 SWAP1 PUSH2 0x49B7 JUMP JUMPDEST PUSH1 0xB SLOAD PUSH2 0x2E55 SWAP2 SWAP1 PUSH2 0x491D JUMP JUMPDEST SWAP3 POP POP POP JUMPDEST PUSH2 0x7EB DUP2 PUSH2 0x200D JUMP JUMPDEST PUSH1 0x0 PUSH1 0x5 SLOAD GT PUSH2 0x2EB5 JUMPI PUSH1 0x40 MLOAD PUSH3 0x461BCD PUSH1 0xE5 SHL DUP2 MSTORE PUSH1 0x20 PUSH1 0x4 DUP3 ADD MSTORE PUSH1 0x18 PUSH1 0x24 DUP3 ADD MSTORE PUSH32 0x5441534B5F4741535F4E4F545F494E495449414C495A45440000000000000000 PUSH1 0x44 DUP3 ADD MSTORE PUSH1 0x64 ADD PUSH2 0x788 JUMP JUMPDEST PUSH1 0x0 GAS PUSH1 0x5 SLOAD PUSH2 0x2EC5 SWAP2 SWAP1 PUSH2 0x4832 JUMP JUMPDEST SWAP1 POP PUSH1 0x0 PUSH2 0x2ED3 GASPRICE DUP4 PUSH2 0x49B7 JUMP JUMPDEST SWAP1 POP PUSH1 0x8 SLOAD PUSH1 0x0 EQ DUP1 PUSH2 0x2EE8 JUMPI POP PUSH1 0x8 SLOAD DUP2 GT ISZERO JUMPDEST PUSH2 0x2F34 JUMPI PUSH1 0x40 MLOAD PUSH3 0x461BCD PUSH1 0xE5 SHL DUP2 MSTORE PUSH1 0x20 PUSH1 0x4 DUP3 ADD MSTORE PUSH1 0x12 PUSH1 0x24 DUP3 ADD MSTORE PUSH32 0x5441534B5F54585F434F53545F4C494D49540000000000000000000000000000 PUSH1 0x44 DUP3 ADD MSTORE PUSH1 0x64 ADD PUSH2 0x788 JUMP JUMPDEST PUSH1 0x0 PUSH1 0x5 SSTORE PUSH1 0x9 SLOAD ISZERO PUSH2 0xE46 JUMPI PUSH1 0x0 DUP4 GT PUSH2 0x2F91 JUMPI PUSH1 0x40 MLOAD PUSH3 0x461BCD PUSH1 0xE5 SHL DUP2 MSTORE PUSH1 0x20 PUSH1 0x4 DUP3 ADD MSTORE PUSH1 0x16 PUSH1 0x24 DUP3 ADD MSTORE PUSH32 0x5441534B5F54585F434F53545F4C494D49545F50435400000000000000000000 PUSH1 0x44 DUP3 ADD MSTORE PUSH1 0x64 ADD PUSH2 0x788 JUMP JUMPDEST PUSH1 0x0 PUSH2 0x305F ADDRESS PUSH1 0x1 PUSH1 0x1 PUSH1 0xA0 SHL SUB AND PUSH4 0x4FD49EFD PUSH1 0x40 MLOAD DUP2 PUSH4 0xFFFFFFFF AND PUSH1 0xE0 SHL DUP2 MSTORE PUSH1 0x4 ADD PUSH1 0x20 PUSH1 0x40 MLOAD DUP1 DUP4 SUB DUP2 DUP7 GAS STATICCALL ISZERO DUP1 ISZERO PUSH2 0x2FD4 JUMPI RETURNDATASIZE PUSH1 0x0 DUP1 RETURNDATACOPY RETURNDATASIZE PUSH1 0x0 REVERT JUMPDEST POP POP POP POP PUSH1 0x40 MLOAD RETURNDATASIZE PUSH1 0x1F NOT PUSH1 0x1F DUP3 ADD AND DUP3 ADD DUP1 PUSH1 0x40 MSTORE POP DUP2 ADD SWAP1 PUSH2 0x2FF8 SWAP2 SWAP1 PUSH2 0x4930 JUMP JUMPDEST PUSH1 0x1 PUSH1 0x1 PUSH1 0xA0 SHL SUB AND PUSH4 0x17FCB39B PUSH1 0x40 MLOAD DUP2 PUSH4 0xFFFFFFFF AND PUSH1 0xE0 SHL DUP2 MSTORE PUSH1 0x4 ADD PUSH1 0x20 PUSH1 0x40 MLOAD DUP1 DUP4 SUB DUP2 DUP7 GAS STATICCALL ISZERO DUP1 ISZERO PUSH2 0x3035 JUMPI RETURNDATASIZE PUSH1 0x0 DUP1 RETURNDATACOPY RETURNDATASIZE PUSH1 0x0 REVERT JUMPDEST POP POP POP POP PUSH1 0x40 MLOAD RETURNDATASIZE PUSH1 0x1F NOT PUSH1 0x1F DUP3 ADD AND DUP3 ADD DUP1 PUSH1 0x40 MSTORE POP DUP2 ADD SWAP1 PUSH2 0x3059 SWAP2 SWAP1 PUSH2 0x4930 JUMP JUMPDEST DUP7 PUSH2 0x1CA7 JUMP JUMPDEST SWAP1 POP PUSH1 0x0 PUSH2 0x306D DUP4 DUP4 PUSH2 0x1CBA JUMP JUMPDEST PUSH1 0x9 SLOAD SWAP1 SWAP2 POP PUSH2 0x307D DUP3 DUP8 PUSH2 0x3376 JUMP JUMPDEST GT ISZERO PUSH2 0x22C0 JUMPI PUSH1 0x40 MLOAD PUSH3 0x461BCD PUSH1 0xE5 SHL DUP2 MSTORE PUSH1 0x20 PUSH1 0x4 DUP3 ADD MSTORE PUSH1 0x16 PUSH1 0x24 DUP3 ADD MSTORE PUSH32 0x5441534B5F54585F434F53545F4C494D49545F50435400000000000000000000 PUSH1 0x44 DUP3 ADD MSTORE PUSH1 0x64 ADD PUSH2 0x788 JUMP JUMPDEST PUSH1 0x40 MLOAD PUSH32 0x68F46C45A243A0E9065A97649FAF9A5AFE1692F2679E650C2F853B9CD734CC0E SWAP1 PUSH1 0x0 SWAP1 LOG1 POP POP JUMP JUMPDEST PUSH1 0x0 DUP3 DUP3 MUL DUP4 ISZERO DUP1 PUSH2 0x3118 JUMPI POP DUP3 DUP5 DUP3 DUP2 PUSH2 0x3115 JUMPI PUSH2 0x3115 PUSH2 0x4845 JUMP JUMPDEST DIV EQ JUMPDEST PUSH2 0x3164 JUMPI PUSH1 0x40 MLOAD PUSH3 0x461BCD PUSH1 0xE5 SHL DUP2 MSTORE PUSH1 0x20 PUSH1 0x4 DUP3 ADD MSTORE PUSH1 0xC PUSH1 0x24 DUP3 ADD MSTORE PUSH32 0x4D554C5F4F564552464C4F570000000000000000000000000000000000000000 PUSH1 0x44 DUP3 ADD MSTORE PUSH1 0x64 ADD PUSH2 0x788 JUMP JUMPDEST PUSH8 0xDE0B6B3A7640000 SWAP1 DIV SWAP4 SWAP3 POP POP POP JUMP JUMPDEST PUSH1 0x0 PUSH20 0xEEEEEEEEEEEEEEEEEEEEEEEEEEEEEEEEEEEEEEEE PUSH1 0x1 PUSH1 0x1 PUSH1 0xA0 SHL SUB DUP4 AND EQ PUSH2 0x31A2 JUMPI DUP2 PUSH2 0x1A9F JUMP JUMPDEST PUSH2 0x1A9F PUSH2 0x3461 JUMP JUMPDEST PUSH1 0x0 SLOAD PUSH2 0x100 SWAP1 DIV PUSH1 0xFF AND PUSH2 0x3215 JUMPI PUSH1 0x40 MLOAD PUSH3 0x461BCD PUSH1 0xE5 SHL DUP2 MSTORE PUSH1 0x20 PUSH1 0x4 DUP3 ADD MSTORE PUSH1 0x2B PUSH1 0x24 DUP3 ADD MSTORE PUSH32 0x496E697469616C697A61626C653A20636F6E7472616374206973206E6F742069 PUSH1 0x44 DUP3 ADD MSTORE PUSH11 0x6E697469616C697A696E67 PUSH1 0xA8 SHL PUSH1 0x64 DUP3 ADD MSTORE PUSH1 0x84 ADD PUSH2 0x788 JUMP JUMPDEST DUP1 MLOAD PUSH2 0x3220 SWAP1 PUSH2 0x34ED JUMP JUMPDEST PUSH2 0x3228 PUSH2 0x35CF JUMP JUMPDEST PUSH2 0x3235 DUP2 PUSH1 0x20 ADD MLOAD PUSH2 0x3644 JUMP JUMPDEST PUSH2 0x3242 DUP2 PUSH1 0x40 ADD MLOAD PUSH2 0x36B8 JUMP JUMPDEST PUSH2 0x324F DUP2 PUSH1 0x60 ADD MLOAD PUSH2 0x372C JUMP JUMPDEST PUSH2 0x325C DUP2 PUSH1 0x80 ADD MLOAD PUSH2 0x37A0 JUMP JUMPDEST PUSH2 0x3269 DUP2 PUSH1 0xA0 ADD MLOAD PUSH2 0x3814 JUMP JUMPDEST PUSH2 0x26EF DUP2 PUSH2 0x3888 JUMP JUMPDEST PUSH1 0x0 SLOAD PUSH2 0x100 SWAP1 DIV PUSH1 0xFF AND PUSH2 0x32DD JUMPI PUSH1 0x40 MLOAD PUSH3 0x461BCD PUSH1 0xE5 SHL DUP2 MSTORE PUSH1 0x20 PUSH1 0x4 DUP3 ADD MSTORE PUSH1 0x2B PUSH1 0x24 DUP3 ADD MSTORE PUSH32 0x496E697469616C697A61626C653A20636F6E7472616374206973206E6F742069 PUSH1 0x44 DUP3 ADD MSTORE PUSH11 0x6E697469616C697A696E67 PUSH1 0xA8 SHL PUSH1 0x64 DUP3 ADD MSTORE PUSH1 0x84 ADD PUSH2 0x788 JUMP JUMPDEST DUP1 MLOAD PUSH2 0x26EF SWAP1 PUSH2 0x1BEF JUMP JUMPDEST PUSH1 0x2 SLOAD ISZERO PUSH2 0x6C8 JUMPI PUSH1 0x1 SLOAD PUSH1 0x2 SLOAD PUSH1 0x40 MLOAD PUSH32 0xEB056BBB00000000000000000000000000000000000000000000000000000000 DUP2 MSTORE PUSH1 0x4 DUP2 ADD SWAP2 SWAP1 SWAP2 MSTORE PUSH1 0x1 PUSH1 0x1 PUSH1 0xA0 SHL SUB DUP5 DUP2 AND PUSH1 0x24 DUP4 ADD MSTORE PUSH1 0x44 DUP3 ADD DUP5 SWAP1 MSTORE PUSH1 0x0 PUSH1 0x64 DUP4 ADD MSTORE SWAP1 SWAP2 AND SWAP1 PUSH4 0xEB056BBB SWAP1 PUSH1 0x84 ADD PUSH2 0x2292 JUMP JUMPDEST PUSH1 0x1 PUSH1 0x1 PUSH1 0xA0 SHL SUB DUP2 AND PUSH1 0x0 SWAP1 DUP2 MSTORE PUSH1 0x1 DUP4 ADD PUSH1 0x20 MSTORE PUSH1 0x40 DUP2 KECCAK256 SLOAD ISZERO ISZERO PUSH2 0x1CB3 JUMP JUMPDEST PUSH1 0x0 DUP2 PUSH1 0x0 SUB PUSH2 0x33C8 JUMPI PUSH1 0x40 MLOAD PUSH3 0x461BCD PUSH1 0xE5 SHL DUP2 MSTORE PUSH1 0x20 PUSH1 0x4 DUP3 ADD MSTORE PUSH1 0xD PUSH1 0x24 DUP3 ADD MSTORE PUSH32 0x5A45524F5F4449564953494F4E00000000000000000000000000000000000000 PUSH1 0x44 DUP3 ADD MSTORE PUSH1 0x64 ADD PUSH2 0x788 JUMP JUMPDEST DUP3 PUSH1 0x0 SUB PUSH2 0x33D8 JUMPI POP PUSH1 0x0 PUSH2 0x1A9F JUMP JUMPDEST PUSH8 0xDE0B6B3A7640000 DUP4 DUP2 MUL SWAP1 DUP5 DUP3 DUP2 PUSH2 0x33F4 JUMPI PUSH2 0x33F4 PUSH2 0x4845 JUMP JUMPDEST DIV EQ PUSH2 0x3442 JUMPI PUSH1 0x40 MLOAD PUSH3 0x461BCD PUSH1 0xE5 SHL DUP2 MSTORE PUSH1 0x20 PUSH1 0x4 DUP3 ADD MSTORE PUSH1 0xC PUSH1 0x24 DUP3 ADD MSTORE PUSH32 0x4449565F494E5445524E414C0000000000000000000000000000000000000000 PUSH1 0x44 DUP3 ADD MSTORE PUSH1 0x64 ADD PUSH2 0x788 JUMP JUMPDEST DUP3 PUSH1 0x1 DUP3 SUB DUP2 PUSH2 0x3454 JUMPI PUSH2 0x3454 PUSH2 0x4845 JUMP JUMPDEST DIV PUSH1 0x1 ADD SWAP2 POP POP SWAP3 SWAP2 POP POP JUMP JUMPDEST PUSH1 0x1 SLOAD PUSH1 0x40 DUP1 MLOAD PUSH32 0x17FCB39B00000000000000000000000000000000000000000000000000000000 DUP2 MSTORE SWAP1 MLOAD PUSH1 0x0 SWAP3 PUSH1 0x1 PUSH1 0x1 PUSH1 0xA0 SHL SUB AND SWAP2 PUSH4 0x17FCB39B SWAP2 PUSH1 0x4 DUP1 DUP4 ADD SWAP3 PUSH1 0x20 SWAP3 SWAP2 SWAP1 DUP3 SWAP1 SUB ADD DUP2 DUP7 GAS STATICCALL ISZERO DUP1 ISZERO PUSH2 0x34C4 JUMPI RETURNDATASIZE PUSH1 0x0 DUP1 RETURNDATACOPY RETURNDATASIZE PUSH1 0x0 REVERT JUMPDEST POP POP POP POP PUSH1 0x40 MLOAD RETURNDATASIZE PUSH1 0x1F NOT PUSH1 0x1F DUP3 ADD AND DUP3 ADD DUP1 PUSH1 0x40 MSTORE POP DUP2 ADD SWAP1 PUSH2 0x34E8 SWAP2 SWAP1 PUSH2 0x4930 JUMP JUMPDEST SWAP1 POP SWAP1 JUMP JUMPDEST PUSH1 0x0 SLOAD PUSH2 0x100 SWAP1 DIV PUSH1 0xFF AND PUSH2 0x3558 JUMPI PUSH1 0x40 MLOAD PUSH3 0x461BCD PUSH1 0xE5 SHL DUP2 MSTORE PUSH1 0x20 PUSH1 0x4 DUP3 ADD MSTORE PUSH1 0x2B PUSH1 0x24 DUP3 ADD MSTORE PUSH32 0x496E697469616C697A61626C653A20636F6E7472616374206973206E6F742069 PUSH1 0x44 DUP3 ADD MSTORE PUSH11 0x6E697469616C697A696E67 PUSH1 0xA8 SHL PUSH1 0x64 DUP3 ADD MSTORE PUSH1 0x84 ADD PUSH2 0x788 JUMP JUMPDEST PUSH2 0x35C6 DUP2 PUSH1 0x0 ADD MLOAD PUSH1 0x1 PUSH1 0x1 PUSH1 0xA0 SHL SUB AND PUSH4 0xD09EDF31 PUSH1 0x40 MLOAD DUP2 PUSH4 0xFFFFFFFF AND PUSH1 0xE0 SHL DUP2 MSTORE PUSH1 0x4 ADD PUSH1 0x20 PUSH1 0x40 MLOAD DUP1 DUP4 SUB DUP2 DUP7 GAS STATICCALL ISZERO DUP1 ISZERO PUSH2 0x359D JUMPI RETURNDATASIZE PUSH1 0x0 DUP1 RETURNDATACOPY RETURNDATASIZE PUSH1 0x0 REVERT JUMPDEST POP POP POP POP PUSH1 0x40 MLOAD RETURNDATASIZE PUSH1 0x1F NOT PUSH1 0x1F DUP3 ADD AND DUP3 ADD DUP1 PUSH1 0x40 MSTORE POP DUP2 ADD SWAP1 PUSH2 0x35C1 SWAP2 SWAP1 PUSH2 0x4930 JUMP JUMPDEST PUSH2 0x38F3 JUMP JUMPDEST PUSH2 0x26EF DUP2 PUSH2 0x3967 JUMP JUMPDEST PUSH1 0x0 SLOAD PUSH2 0x100 SWAP1 DIV PUSH1 0xFF AND PUSH2 0x363A JUMPI PUSH1 0x40 MLOAD PUSH3 0x461BCD PUSH1 0xE5 SHL DUP2 MSTORE PUSH1 0x20 PUSH1 0x4 DUP3 ADD MSTORE PUSH1 0x2B PUSH1 0x24 DUP3 ADD MSTORE PUSH32 0x496E697469616C697A61626C653A20636F6E7472616374206973206E6F742069 PUSH1 0x44 DUP3 ADD MSTORE PUSH11 0x6E697469616C697A696E67 PUSH1 0xA8 SHL PUSH1 0x64 DUP3 ADD MSTORE PUSH1 0x84 ADD PUSH2 0x788 JUMP JUMPDEST PUSH2 0x3642 PUSH2 0x3A1F JUMP JUMPDEST JUMP JUMPDEST PUSH1 0x0 SLOAD PUSH2 0x100 SWAP1 DIV PUSH1 0xFF AND PUSH2 0x36AF JUMPI PUSH1 0x40 MLOAD PUSH3 0x461BCD PUSH1 0xE5 SHL DUP2 MSTORE PUSH1 0x20 PUSH1 0x4 DUP3 ADD MSTORE PUSH1 0x2B PUSH1 0x24 DUP3 ADD MSTORE PUSH32 0x496E697469616C697A61626C653A20636F6E7472616374206973206E6F742069 PUSH1 0x44 DUP3 ADD MSTORE PUSH11 0x6E697469616C697A696E67 PUSH1 0xA8 SHL PUSH1 0x64 DUP3 ADD MSTORE PUSH1 0x84 ADD PUSH2 0x788 JUMP JUMPDEST PUSH2 0x26EF DUP2 PUSH2 0x3A8A JUMP JUMPDEST PUSH1 0x0 SLOAD PUSH2 0x100 SWAP1 DIV PUSH1 0xFF AND PUSH2 0x3723 JUMPI PUSH1 0x40 MLOAD PUSH3 0x461BCD PUSH1 0xE5 SHL DUP2 MSTORE PUSH1 0x20 PUSH1 0x4 DUP3 ADD MSTORE PUSH1 0x2B PUSH1 0x24 DUP3 ADD MSTORE PUSH32 0x496E697469616C697A61626C653A20636F6E7472616374206973206E6F742069 PUSH1 0x44 DUP3 ADD MSTORE PUSH11 0x6E697469616C697A696E67 PUSH1 0xA8 SHL PUSH1 0x64 DUP3 ADD MSTORE PUSH1 0x84 ADD PUSH2 0x788 JUMP JUMPDEST PUSH2 0x26EF DUP2 PUSH2 0x3B27 JUMP JUMPDEST PUSH1 0x0 SLOAD PUSH2 0x100 SWAP1 DIV PUSH1 0xFF AND PUSH2 0x3797 JUMPI PUSH1 0x40 MLOAD PUSH3 0x461BCD PUSH1 0xE5 SHL DUP2 MSTORE PUSH1 0x20 PUSH1 0x4 DUP3 ADD MSTORE PUSH1 0x2B PUSH1 0x24 DUP3 ADD MSTORE PUSH32 0x496E697469616C697A61626C653A20636F6E7472616374206973206E6F742069 PUSH1 0x44 DUP3 ADD MSTORE PUSH11 0x6E697469616C697A696E67 PUSH1 0xA8 SHL PUSH1 0x64 DUP3 ADD MSTORE PUSH1 0x84 ADD PUSH2 0x788 JUMP JUMPDEST PUSH2 0x26EF DUP2 PUSH2 0x3BB7 JUMP JUMPDEST PUSH1 0x0 SLOAD PUSH2 0x100 SWAP1 DIV PUSH1 0xFF AND PUSH2 0x380B JUMPI PUSH1 0x40 MLOAD PUSH3 0x461BCD PUSH1 0xE5 SHL DUP2 MSTORE PUSH1 0x20 PUSH1 0x4 DUP3 ADD MSTORE PUSH1 0x2B PUSH1 0x24 DUP3 ADD MSTORE PUSH32 0x496E697469616C697A61626C653A20636F6E7472616374206973206E6F742069 PUSH1 0x44 DUP3 ADD MSTORE PUSH11 0x6E697469616C697A696E67 PUSH1 0xA8 SHL PUSH1 0x64 DUP3 ADD MSTORE PUSH1 0x84 ADD PUSH2 0x788 JUMP JUMPDEST PUSH2 0x26EF DUP2 PUSH2 0x3C77 JUMP JUMPDEST PUSH1 0x0 SLOAD PUSH2 0x100 SWAP1 DIV PUSH1 0xFF AND PUSH2 0x387F JUMPI PUSH1 0x40 MLOAD PUSH3 0x461BCD PUSH1 0xE5 SHL DUP2 MSTORE PUSH1 0x20 PUSH1 0x4 DUP3 ADD MSTORE PUSH1 0x2B PUSH1 0x24 DUP3 ADD MSTORE PUSH32 0x496E697469616C697A61626C653A20636F6E7472616374206973206E6F742069 PUSH1 0x44 DUP3 ADD MSTORE PUSH11 0x6E697469616C697A696E67 PUSH1 0xA8 SHL PUSH1 0x64 DUP3 ADD MSTORE PUSH1 0x84 ADD PUSH2 0x788 JUMP JUMPDEST PUSH2 0x26EF DUP2 PUSH2 0x3D67 JUMP JUMPDEST PUSH1 0x0 SLOAD PUSH2 0x100 SWAP1 DIV PUSH1 0xFF AND PUSH2 0x26EF JUMPI PUSH1 0x40 MLOAD PUSH3 0x461BCD PUSH1 0xE5 SHL DUP2 MSTORE PUSH1 0x20 PUSH1 0x4 DUP3 ADD MSTORE PUSH1 0x2B PUSH1 0x24 DUP3 ADD MSTORE PUSH32 0x496E697469616C697A61626C653A20636F6E7472616374206973206E6F742069 PUSH1 0x44 DUP3 ADD MSTORE PUSH11 0x6E697469616C697A696E67 PUSH1 0xA8 SHL PUSH1 0x64 DUP3 ADD MSTORE PUSH1 0x84 ADD PUSH2 0x788 JUMP JUMPDEST PUSH1 0x0 SLOAD PUSH2 0x100 SWAP1 DIV PUSH1 0xFF AND PUSH2 0x395E JUMPI PUSH1 0x40 MLOAD PUSH3 0x461BCD PUSH1 0xE5 SHL DUP2 MSTORE PUSH1 0x20 PUSH1 0x4 DUP3 ADD MSTORE PUSH1 0x2B PUSH1 0x24 DUP3 ADD MSTORE PUSH32 0x496E697469616C697A61626C653A20636F6E7472616374206973206E6F742069 PUSH1 0x44 DUP3 ADD MSTORE PUSH11 0x6E697469616C697A696E67 PUSH1 0xA8 SHL PUSH1 0x64 DUP3 ADD MSTORE PUSH1 0x84 ADD PUSH2 0x788 JUMP JUMPDEST PUSH2 0x26EF DUP2 PUSH2 0x3E57 JUMP JUMPDEST PUSH1 0x0 SLOAD PUSH2 0x100 SWAP1 DIV PUSH1 0xFF AND PUSH2 0x39D2 JUMPI PUSH1 0x40 MLOAD PUSH3 0x461BCD PUSH1 0xE5 SHL DUP2 MSTORE PUSH1 0x20 PUSH1 0x4 DUP3 ADD MSTORE PUSH1 0x2B PUSH1 0x24 DUP3 ADD MSTORE PUSH32 0x496E697469616C697A61626C653A20636F6E7472616374206973206E6F742069 PUSH1 0x44 DUP3 ADD MSTORE PUSH11 0x6E697469616C697A696E67 PUSH1 0xA8 SHL PUSH1 0x64 DUP3 ADD MSTORE PUSH1 0x84 ADD PUSH2 0x788 JUMP JUMPDEST DUP1 MLOAD PUSH1 0x1 DUP1 SLOAD PUSH32 0xFFFFFFFFFFFFFFFFFFFFFFFF0000000000000000000000000000000000000000 AND PUSH1 0x1 PUSH1 0x1 PUSH1 0xA0 SHL SUB SWAP1 SWAP3 AND SWAP2 SWAP1 SWAP2 OR SWAP1 SSTORE PUSH1 0x20 DUP2 ADD MLOAD PUSH1 0x40 DUP3 ADD MLOAD PUSH2 0x26EF SWAP2 SWAP1 PUSH2 0x1A33 JUMP JUMPDEST PUSH1 0x0 SLOAD PUSH2 0x100 SWAP1 DIV PUSH1 0xFF AND PUSH2 0x3642 JUMPI PUSH1 0x40 MLOAD PUSH3 0x461BCD PUSH1 0xE5 SHL DUP2 MSTORE PUSH1 0x20 PUSH1 0x4 DUP3 ADD MSTORE PUSH1 0x2B PUSH1 0x24 DUP3 ADD MSTORE PUSH32 0x496E697469616C697A61626C653A20636F6E7472616374206973206E6F742069 PUSH1 0x44 DUP3 ADD MSTORE PUSH11 0x6E697469616C697A696E67 PUSH1 0xA8 SHL PUSH1 0x64 DUP3 ADD MSTORE PUSH1 0x84 ADD PUSH2 0x788 JUMP JUMPDEST PUSH1 0x0 SLOAD PUSH2 0x100 SWAP1 DIV PUSH1 0xFF AND PUSH2 0x3AF5 JUMPI PUSH1 0x40 MLOAD PUSH3 0x461BCD PUSH1 0xE5 SHL DUP2 MSTORE PUSH1 0x20 PUSH1 0x4 DUP3 ADD MSTORE PUSH1 0x2B PUSH1 0x24 DUP3 ADD MSTORE PUSH32 0x496E697469616C697A61626C653A20636F6E7472616374206973206E6F742069 PUSH1 0x44 DUP3 ADD MSTORE PUSH11 0x6E697469616C697A696E67 PUSH1 0xA8 SHL PUSH1 0x64 DUP3 ADD MSTORE PUSH1 0x84 ADD PUSH2 0x788 JUMP JUMPDEST DUP1 MLOAD PUSH2 0x3B00 SWAP1 PUSH2 0x148E JUMP JUMPDEST PUSH2 0x3B0D DUP2 PUSH1 0x20 ADD MLOAD PUSH2 0x179B JUMP JUMPDEST PUSH2 0x3B1A DUP2 PUSH1 0x40 ADD MLOAD PUSH2 0x1452 JUMP JUMPDEST PUSH2 0x26EF DUP2 PUSH1 0x60 ADD MLOAD PUSH2 0x1EF9 JUMP JUMPDEST PUSH1 0x0 SLOAD PUSH2 0x100 SWAP1 DIV PUSH1 0xFF AND PUSH2 0x3B92 JUMPI PUSH1 0x40 MLOAD PUSH3 0x461BCD PUSH1 0xE5 SHL DUP2 MSTORE PUSH1 0x20 PUSH1 0x4 DUP3 ADD MSTORE PUSH1 0x2B PUSH1 0x24 DUP3 ADD MSTORE PUSH32 0x496E697469616C697A61626C653A20636F6E7472616374206973206E6F742069 PUSH1 0x44 DUP3 ADD MSTORE PUSH11 0x6E697469616C697A696E67 PUSH1 0xA8 SHL PUSH1 0x64 DUP3 ADD MSTORE PUSH1 0x84 ADD PUSH2 0x788 JUMP JUMPDEST DUP1 MLOAD PUSH2 0x3B9D SWAP1 PUSH2 0x1DEA JUMP JUMPDEST PUSH2 0x3BAA DUP2 PUSH1 0x20 ADD MLOAD PUSH2 0x200D JUMP JUMPDEST PUSH2 0x26EF DUP2 PUSH1 0x40 ADD MLOAD PUSH2 0x1F86 JUMP JUMPDEST PUSH1 0x0 SLOAD PUSH2 0x100 SWAP1 DIV PUSH1 0xFF AND PUSH2 0x3C22 JUMPI PUSH1 0x40 MLOAD PUSH3 0x461BCD PUSH1 0xE5 SHL DUP2 MSTORE PUSH1 0x20 PUSH1 0x4 DUP3 ADD MSTORE PUSH1 0x2B PUSH1 0x24 DUP3 ADD MSTORE PUSH32 0x496E697469616C697A61626C653A20636F6E7472616374206973206E6F742069 PUSH1 0x44 DUP3 ADD MSTORE PUSH11 0x6E697469616C697A696E67 PUSH1 0xA8 SHL PUSH1 0x64 DUP3 ADD MSTORE PUSH1 0x84 ADD PUSH2 0x788 JUMP JUMPDEST DUP1 MLOAD PUSH2 0x3C2D SWAP1 PUSH2 0x172B JUMP JUMPDEST PUSH1 0x0 JUMPDEST DUP2 PUSH1 0x20 ADD MLOAD MLOAD DUP2 LT ISZERO PUSH2 0x6C8 JUMPI PUSH2 0x3C65 DUP3 PUSH1 0x20 ADD MLOAD DUP3 DUP2 MLOAD DUP2 LT PUSH2 0x3C56 JUMPI PUSH2 0x3C56 PUSH2 0x4783 JUMP JUMPDEST PUSH1 0x20 MUL PUSH1 0x20 ADD ADD MLOAD PUSH1 0x1 PUSH2 0x14DF JUMP JUMPDEST DUP1 PUSH2 0x3C6F DUP2 PUSH2 0x47E1 JUMP JUMPDEST SWAP2 POP POP PUSH2 0x3C30 JUMP JUMPDEST PUSH1 0x0 SLOAD PUSH2 0x100 SWAP1 DIV PUSH1 0xFF AND PUSH2 0x3CE2 JUMPI PUSH1 0x40 MLOAD PUSH3 0x461BCD PUSH1 0xE5 SHL DUP2 MSTORE PUSH1 0x20 PUSH1 0x4 DUP3 ADD MSTORE PUSH1 0x2B PUSH1 0x24 DUP3 ADD MSTORE PUSH32 0x496E697469616C697A61626C653A20636F6E7472616374206973206E6F742069 PUSH1 0x44 DUP3 ADD MSTORE PUSH11 0x6E697469616C697A696E67 PUSH1 0xA8 SHL PUSH1 0x64 DUP3 ADD MSTORE PUSH1 0x84 ADD PUSH2 0x788 JUMP JUMPDEST DUP1 MLOAD DUP1 MLOAD PUSH1 0x20 DUP3 ADD MLOAD PUSH1 0x40 DUP4 ADD MLOAD PUSH2 0x3CFB SWAP3 SWAP2 SWAP1 PUSH2 0x1E71 JUMP JUMPDEST PUSH1 0x0 JUMPDEST DUP3 PUSH1 0x20 ADD MLOAD MLOAD DUP2 LT ISZERO PUSH2 0x7EB JUMPI PUSH1 0x0 DUP4 PUSH1 0x20 ADD MLOAD DUP3 DUP2 MLOAD DUP2 LT PUSH2 0x3D23 JUMPI PUSH2 0x3D23 PUSH2 0x4783 JUMP JUMPDEST PUSH1 0x20 MUL PUSH1 0x20 ADD ADD MLOAD SWAP1 POP PUSH1 0x0 DUP2 PUSH1 0x20 ADD MLOAD SWAP1 POP PUSH2 0x3D52 DUP3 PUSH1 0x0 ADD MLOAD DUP3 PUSH1 0x0 ADD MLOAD DUP4 PUSH1 0x20 ADD MLOAD DUP5 PUSH1 0x40 ADD MLOAD PUSH2 0x165C JUMP JUMPDEST POP POP DUP1 DUP1 PUSH2 0x3D5F SWAP1 PUSH2 0x47E1 JUMP JUMPDEST SWAP2 POP POP PUSH2 0x3CFE JUMP JUMPDEST PUSH1 0x0 SLOAD PUSH2 0x100 SWAP1 DIV PUSH1 0xFF AND PUSH2 0x3DD2 JUMPI PUSH1 0x40 MLOAD PUSH3 0x461BCD PUSH1 0xE5 SHL DUP2 MSTORE PUSH1 0x20 PUSH1 0x4 DUP3 ADD MSTORE PUSH1 0x2B PUSH1 0x24 DUP3 ADD MSTORE PUSH32 0x496E697469616C697A61626C653A20636F6E7472616374206973206E6F742069 PUSH1 0x44 DUP3 ADD MSTORE PUSH11 0x6E697469616C697A696E67 PUSH1 0xA8 SHL PUSH1 0x64 DUP3 ADD MSTORE PUSH1 0x84 ADD PUSH2 0x788 JUMP JUMPDEST DUP1 MLOAD DUP1 MLOAD PUSH1 0x20 DUP3 ADD MLOAD PUSH1 0x40 DUP4 ADD MLOAD PUSH2 0x3DEB SWAP3 SWAP2 SWAP1 PUSH2 0x1B99 JUMP JUMPDEST PUSH1 0x0 JUMPDEST DUP3 PUSH1 0x20 ADD MLOAD MLOAD DUP2 LT ISZERO PUSH2 0x7EB JUMPI PUSH1 0x0 DUP4 PUSH1 0x20 ADD MLOAD DUP3 DUP2 MLOAD DUP2 LT PUSH2 0x3E13 JUMPI PUSH2 0x3E13 PUSH2 0x4783 JUMP JUMPDEST PUSH1 0x20 MUL PUSH1 0x20 ADD ADD MLOAD SWAP1 POP PUSH1 0x0 DUP2 PUSH1 0x20 ADD MLOAD SWAP1 POP PUSH2 0x3E42 DUP3 PUSH1 0x0 ADD MLOAD DUP3 PUSH1 0x0 ADD MLOAD DUP4 PUSH1 0x20 ADD MLOAD DUP5 PUSH1 0x40 ADD MLOAD PUSH2 0x1903 JUMP JUMPDEST POP POP DUP1 DUP1 PUSH2 0x3E4F SWAP1 PUSH2 0x47E1 JUMP JUMPDEST SWAP2 POP POP PUSH2 0x3DEE JUMP JUMPDEST PUSH1 0x0 SLOAD PUSH2 0x100 SWAP1 DIV PUSH1 0xFF AND PUSH2 0x3EC2 JUMPI PUSH1 0x40 MLOAD PUSH3 0x461BCD PUSH1 0xE5 SHL DUP2 MSTORE PUSH1 0x20 PUSH1 0x4 DUP3 ADD MSTORE PUSH1 0x2B PUSH1 0x24 DUP3 ADD MSTORE PUSH32 0x496E697469616C697A61626C653A20636F6E7472616374206973206E6F742069 PUSH1 0x44 DUP3 ADD MSTORE PUSH11 0x6E697469616C697A696E67 PUSH1 0xA8 SHL PUSH1 0x64 DUP3 ADD MSTORE PUSH1 0x84 ADD PUSH2 0x788 JUMP JUMPDEST PUSH1 0x0 DUP1 SLOAD PUSH1 0x1 PUSH1 0x1 PUSH1 0xA0 SHL SUB SWAP1 SWAP3 AND PUSH3 0x10000 MUL PUSH32 0xFFFFFFFFFFFFFFFFFFFF0000000000000000000000000000000000000000FFFF SWAP1 SWAP3 AND SWAP2 SWAP1 SWAP2 OR SWAP1 SSTORE JUMP JUMPDEST PUSH1 0x0 PUSH1 0x20 DUP3 DUP5 SUB SLT ISZERO PUSH2 0x3F14 JUMPI PUSH1 0x0 DUP1 REVERT JUMPDEST POP CALLDATALOAD SWAP2 SWAP1 POP JUMP JUMPDEST PUSH32 0x4E487B7100000000000000000000000000000000000000000000000000000000 PUSH1 0x0 MSTORE PUSH1 0x41 PUSH1 0x4 MSTORE PUSH1 0x24 PUSH1 0x0 REVERT JUMPDEST PUSH1 0x40 MLOAD PUSH1 0x60 DUP2 ADD PUSH8 0xFFFFFFFFFFFFFFFF DUP2 GT DUP3 DUP3 LT OR ISZERO PUSH2 0x3F6D JUMPI PUSH2 0x3F6D PUSH2 0x3F1B JUMP JUMPDEST PUSH1 0x40 MSTORE SWAP1 JUMP JUMPDEST PUSH1 0x40 DUP1 MLOAD SWAP1 DUP2 ADD PUSH8 0xFFFFFFFFFFFFFFFF DUP2 GT DUP3 DUP3 LT OR ISZERO PUSH2 0x3F6D JUMPI PUSH2 0x3F6D PUSH2 0x3F1B JUMP JUMPDEST PUSH1 0x40 MLOAD PUSH1 0xC0 DUP2 ADD PUSH8 0xFFFFFFFFFFFFFFFF DUP2 GT DUP3 DUP3 LT OR ISZERO PUSH2 0x3F6D JUMPI PUSH2 0x3F6D PUSH2 0x3F1B JUMP JUMPDEST PUSH1 0x40 MLOAD PUSH1 0x1F DUP3 ADD PUSH32 0xFFFFFFFFFFFFFFFFFFFFFFFFFFFFFFFFFFFFFFFFFFFFFFFFFFFFFFFFFFFFFFE0 AND DUP2 ADD PUSH8 0xFFFFFFFFFFFFFFFF DUP2 GT DUP3 DUP3 LT OR ISZERO PUSH2 0x4000 JUMPI PUSH2 0x4000 PUSH2 0x3F1B JUMP JUMPDEST PUSH1 0x40 MSTORE SWAP2 SWAP1 POP JUMP JUMPDEST PUSH1 0x0 PUSH8 0xFFFFFFFFFFFFFFFF DUP3 GT ISZERO PUSH2 0x4022 JUMPI PUSH2 0x4022 PUSH2 0x3F1B JUMP JUMPDEST POP PUSH1 0x5 SHL PUSH1 0x20 ADD SWAP1 JUMP JUMPDEST PUSH1 0x1 PUSH1 0x1 PUSH1 0xA0 SHL SUB DUP2 AND DUP2 EQ PUSH2 0x26EF JUMPI PUSH1 0x0 DUP1 REVERT JUMPDEST PUSH1 0x0 DUP3 PUSH1 0x1F DUP4 ADD SLT PUSH2 0x4052 JUMPI PUSH1 0x0 DUP1 REVERT JUMPDEST DUP2 CALLDATALOAD PUSH1 0x20 PUSH2 0x4067 PUSH2 0x4062 DUP4 PUSH2 0x4008 JUMP JUMPDEST PUSH2 0x3FB9 JUMP JUMPDEST DUP3 DUP2 MSTORE PUSH1 0x5 SWAP3 SWAP1 SWAP3 SHL DUP5 ADD DUP2 ADD SWAP2 DUP2 DUP2 ADD SWAP1 DUP7 DUP5 GT ISZERO PUSH2 0x4086 JUMPI PUSH1 0x0 DUP1 REVERT JUMPDEST DUP3 DUP7 ADD JUMPDEST DUP5 DUP2 LT ISZERO PUSH2 0x40AA JUMPI DUP1 CALLDATALOAD PUSH2 0x409D DUP2 PUSH2 0x402C JUMP JUMPDEST DUP4 MSTORE SWAP2 DUP4 ADD SWAP2 DUP4 ADD PUSH2 0x408A JUMP JUMPDEST POP SWAP7 SWAP6 POP POP POP POP POP POP JUMP JUMPDEST DUP1 ISZERO ISZERO DUP2 EQ PUSH2 0x26EF JUMPI PUSH1 0x0 DUP1 REVERT JUMPDEST PUSH1 0x0 DUP1 PUSH1 0x40 DUP4 DUP6 SUB SLT ISZERO PUSH2 0x40D6 JUMPI PUSH1 0x0 DUP1 REVERT JUMPDEST DUP3 CALLDATALOAD PUSH8 0xFFFFFFFFFFFFFFFF DUP1 DUP3 GT ISZERO PUSH2 0x40EE JUMPI PUSH1 0x0 DUP1 REVERT JUMPDEST PUSH2 0x40FA DUP7 DUP4 DUP8 ADD PUSH2 0x4041 JUMP JUMPDEST SWAP4 POP PUSH1 0x20 SWAP2 POP DUP2 DUP6 ADD CALLDATALOAD DUP2 DUP2 GT ISZERO PUSH2 0x4111 JUMPI PUSH1 0x0 DUP1 REVERT JUMPDEST DUP6 ADD SWAP1 POP PUSH1 0x1F DUP2 ADD DUP7 SGT PUSH2 0x4124 JUMPI PUSH1 0x0 DUP1 REVERT JUMPDEST DUP1 CALLDATALOAD PUSH2 0x4132 PUSH2 0x4062 DUP3 PUSH2 0x4008 JUMP JUMPDEST DUP2 DUP2 MSTORE PUSH1 0x5 SWAP2 SWAP1 SWAP2 SHL DUP3 ADD DUP4 ADD SWAP1 DUP4 DUP2 ADD SWAP1 DUP9 DUP4 GT ISZERO PUSH2 0x4151 JUMPI PUSH1 0x0 DUP1 REVERT JUMPDEST SWAP3 DUP5 ADD SWAP3 JUMPDEST DUP3 DUP5 LT ISZERO PUSH2 0x4178 JUMPI DUP4 CALLDATALOAD PUSH2 0x4169 DUP2 PUSH2 0x40B5 JUMP JUMPDEST DUP3 MSTORE SWAP3 DUP5 ADD SWAP3 SWAP1 DUP5 ADD SWAP1 PUSH2 0x4156 JUMP JUMPDEST DUP1 SWAP6 POP POP POP POP POP POP SWAP3 POP SWAP3 SWAP1 POP JUMP JUMPDEST PUSH1 0x0 PUSH1 0x20 DUP3 DUP5 SUB SLT ISZERO PUSH2 0x4199 JUMPI PUSH1 0x0 DUP1 REVERT JUMPDEST DUP2 CALLDATALOAD PUSH2 0x1CB3 DUP2 PUSH2 0x402C JUMP JUMPDEST PUSH1 0x0 DUP1 PUSH1 0x0 DUP1 PUSH1 0x80 DUP6 DUP8 SUB SLT ISZERO PUSH2 0x41BA JUMPI PUSH1 0x0 DUP1 REVERT JUMPDEST DUP5 CALLDATALOAD PUSH2 0x41C5 DUP2 PUSH2 0x402C JUMP JUMPDEST SWAP4 POP PUSH1 0x20 DUP6 ADD CALLDATALOAD PUSH2 0x41D5 DUP2 PUSH2 0x402C JUMP JUMPDEST SWAP4 SWAP7 SWAP4 SWAP6 POP POP POP POP PUSH1 0x40 DUP3 ADD CALLDATALOAD SWAP2 PUSH1 0x60 ADD CALLDATALOAD SWAP1 JUMP JUMPDEST DUP1 CALLDATALOAD PUSH1 0x2 DUP2 LT PUSH2 0x41F9 JUMPI PUSH1 0x0 DUP1 REVERT JUMPDEST SWAP2 SWAP1 POP JUMP JUMPDEST PUSH1 0x0 PUSH1 0x20 DUP3 DUP5 SUB SLT ISZERO PUSH2 0x4210 JUMPI PUSH1 0x0 DUP1 REVERT JUMPDEST PUSH2 0x1CB3 DUP3 PUSH2 0x41EA JUMP JUMPDEST PUSH1 0x0 DUP1 PUSH1 0x40 DUP4 DUP6 SUB SLT ISZERO PUSH2 0x422C JUMPI PUSH1 0x0 DUP1 REVERT JUMPDEST DUP3 CALLDATALOAD PUSH2 0x4237 DUP2 PUSH2 0x402C JUMP JUMPDEST SWAP5 PUSH1 0x20 SWAP4 SWAP1 SWAP4 ADD CALLDATALOAD SWAP4 POP POP POP JUMP JUMPDEST PUSH32 0x4E487B7100000000000000000000000000000000000000000000000000000000 PUSH1 0x0 MSTORE PUSH1 0x21 PUSH1 0x4 MSTORE PUSH1 0x24 PUSH1 0x0 REVERT JUMPDEST PUSH1 0x20 DUP2 ADD PUSH1 0x2 DUP4 LT PUSH2 0x42AF JUMPI PUSH32 0x4E487B7100000000000000000000000000000000000000000000000000000000 PUSH1 0x0 MSTORE PUSH1 0x21 PUSH1 0x4 MSTORE PUSH1 0x24 PUSH1 0x0 REVERT JUMPDEST SWAP2 SWAP1 MSTORE SWAP1 JUMP JUMPDEST PUSH1 0x0 PUSH1 0x60 DUP3 DUP5 SUB SLT ISZERO PUSH2 0x42C7 JUMPI PUSH1 0x0 DUP1 REVERT JUMPDEST PUSH2 0x42CF PUSH2 0x3F4A JUMP JUMPDEST SWAP1 POP DUP2 CALLDATALOAD PUSH2 0x42DC DUP2 PUSH2 0x402C JUMP JUMPDEST DUP1 DUP3 MSTORE POP PUSH1 0x20 DUP3 ADD CALLDATALOAD PUSH1 0x20 DUP3 ADD MSTORE PUSH1 0x40 DUP3 ADD CALLDATALOAD PUSH1 0x40 DUP3 ADD MSTORE SWAP3 SWAP2 POP POP JUMP JUMPDEST PUSH1 0x0 PUSH1 0x80 DUP3 DUP5 SUB SLT ISZERO PUSH2 0x430C JUMPI PUSH1 0x0 DUP1 REVERT JUMPDEST PUSH1 0x40 MLOAD PUSH1 0x80 DUP2 ADD DUP2 DUP2 LT PUSH8 0xFFFFFFFFFFFFFFFF DUP3 GT OR ISZERO PUSH2 0x432F JUMPI PUSH2 0x432F PUSH2 0x3F1B JUMP JUMPDEST DUP1 PUSH1 0x40 MSTORE POP DUP1 SWAP2 POP DUP3 CALLDATALOAD DUP2 MSTORE PUSH1 0x20 DUP4 ADD CALLDATALOAD PUSH1 0x20 DUP3 ADD MSTORE PUSH1 0x40 DUP4 ADD CALLDATALOAD PUSH1 0x40 DUP3 ADD MSTORE PUSH1 0x60 DUP4 ADD CALLDATALOAD PUSH1 0x60 DUP3 ADD MSTORE POP SWAP3 SWAP2 POP POP JUMP JUMPDEST PUSH1 0x0 PUSH1 0x60 DUP3 DUP5 SUB SLT ISZERO PUSH2 0x4372 JUMPI PUSH1 0x0 DUP1 REVERT JUMPDEST PUSH2 0x437A PUSH2 0x3F4A JUMP JUMPDEST SWAP1 POP DUP2 CALLDATALOAD DUP2 MSTORE PUSH1 0x20 DUP3 ADD CALLDATALOAD PUSH1 0x20 DUP3 ADD MSTORE PUSH1 0x40 DUP3 ADD CALLDATALOAD PUSH1 0x40 DUP3 ADD MSTORE SWAP3 SWAP2 POP POP JUMP JUMPDEST PUSH1 0x0 PUSH1 0x40 DUP3 DUP5 SUB SLT ISZERO PUSH2 0x43AC JUMPI PUSH1 0x0 DUP1 REVERT JUMPDEST PUSH2 0x43B4 PUSH2 0x3F73 JUMP JUMPDEST SWAP1 POP PUSH2 0x43BF DUP3 PUSH2 0x41EA JUMP JUMPDEST DUP2 MSTORE PUSH1 0x20 DUP3 ADD CALLDATALOAD PUSH8 0xFFFFFFFFFFFFFFFF DUP2 GT ISZERO PUSH2 0x43DB JUMPI PUSH1 0x0 DUP1 REVERT JUMPDEST PUSH2 0x43E7 DUP5 DUP3 DUP6 ADD PUSH2 0x4041 JUMP JUMPDEST PUSH1 0x20 DUP4 ADD MSTORE POP SWAP3 SWAP2 POP POP JUMP JUMPDEST PUSH1 0x0 PUSH1 0x80 DUP3 DUP5 SUB SLT ISZERO PUSH2 0x4405 JUMPI PUSH1 0x0 DUP1 REVERT JUMPDEST PUSH2 0x440D PUSH2 0x3F73 JUMP JUMPDEST SWAP1 POP DUP2 CALLDATALOAD PUSH2 0x441A DUP2 PUSH2 0x402C JUMP JUMPDEST DUP2 MSTORE PUSH2 0x4429 DUP4 PUSH1 0x20 DUP5 ADD PUSH2 0x42B5 JUMP JUMPDEST PUSH1 0x20 DUP3 ADD MSTORE SWAP3 SWAP2 POP POP JUMP JUMPDEST PUSH1 0x0 PUSH1 0x80 DUP1 DUP4 DUP6 SUB SLT ISZERO PUSH2 0x4447 JUMPI PUSH1 0x0 DUP1 REVERT JUMPDEST PUSH2 0x444F PUSH2 0x3F73 JUMP JUMPDEST SWAP2 POP PUSH2 0x445B DUP5 DUP5 PUSH2 0x42B5 JUMP JUMPDEST DUP3 MSTORE PUSH1 0x60 DUP4 ADD CALLDATALOAD PUSH8 0xFFFFFFFFFFFFFFFF DUP2 GT ISZERO PUSH2 0x4477 JUMPI PUSH1 0x0 DUP1 REVERT JUMPDEST DUP4 ADD PUSH1 0x1F DUP2 ADD DUP6 SGT PUSH2 0x4488 JUMPI PUSH1 0x0 DUP1 REVERT JUMPDEST DUP1 CALLDATALOAD PUSH1 0x20 PUSH2 0x4498 PUSH2 0x4062 DUP4 PUSH2 0x4008 JUMP JUMPDEST DUP3 DUP2 MSTORE PUSH1 0x7 SWAP3 SWAP1 SWAP3 SHL DUP4 ADD DUP2 ADD SWAP2 DUP2 DUP2 ADD SWAP1 DUP9 DUP5 GT ISZERO PUSH2 0x44B7 JUMPI PUSH1 0x0 DUP1 REVERT JUMPDEST SWAP4 DUP3 ADD SWAP4 JUMPDEST DUP4 DUP6 LT ISZERO PUSH2 0x44DD JUMPI PUSH2 0x44CE DUP10 DUP7 PUSH2 0x43F3 JUMP JUMPDEST DUP3 MSTORE SWAP4 DUP6 ADD SWAP4 SWAP1 DUP3 ADD SWAP1 PUSH2 0x44BC JUMP JUMPDEST DUP1 DUP4 DUP9 ADD MSTORE POP POP POP POP POP POP SWAP3 SWAP2 POP POP JUMP JUMPDEST PUSH1 0x0 PUSH1 0x80 DUP1 DUP4 DUP6 SUB SLT ISZERO PUSH2 0x4501 JUMPI PUSH1 0x0 DUP1 REVERT JUMPDEST PUSH2 0x4509 PUSH2 0x3F73 JUMP JUMPDEST SWAP2 POP PUSH2 0x4515 DUP5 DUP5 PUSH2 0x42B5 JUMP JUMPDEST DUP3 MSTORE PUSH1 0x60 DUP4 ADD CALLDATALOAD PUSH8 0xFFFFFFFFFFFFFFFF DUP2 GT ISZERO PUSH2 0x4531 JUMPI PUSH1 0x0 DUP1 REVERT JUMPDEST DUP4 ADD PUSH1 0x1F DUP2 ADD DUP6 SGT PUSH2 0x4542 JUMPI PUSH1 0x0 DUP1 REVERT JUMPDEST DUP1 CALLDATALOAD PUSH1 0x20 PUSH2 0x4552 PUSH2 0x4062 DUP4 PUSH2 0x4008 JUMP JUMPDEST DUP3 DUP2 MSTORE PUSH1 0x7 SWAP3 SWAP1 SWAP3 SHL DUP4 ADD DUP2 ADD SWAP2 DUP2 DUP2 ADD SWAP1 DUP9 DUP5 GT ISZERO PUSH2 0x4571 JUMPI PUSH1 0x0 DUP1 REVERT JUMPDEST SWAP4 DUP3 ADD SWAP4 JUMPDEST DUP4 DUP6 LT ISZERO PUSH2 0x44DD JUMPI PUSH2 0x4588 DUP10 DUP7 PUSH2 0x43F3 JUMP JUMPDEST DUP3 MSTORE SWAP4 DUP6 ADD SWAP4 SWAP1 DUP3 ADD SWAP1 PUSH2 0x4576 JUMP JUMPDEST PUSH1 0x0 PUSH1 0x40 DUP3 DUP5 SUB SLT ISZERO PUSH2 0x45A9 JUMPI PUSH1 0x0 DUP1 REVERT JUMPDEST PUSH2 0x45B1 PUSH2 0x3F73 JUMP JUMPDEST SWAP1 POP DUP2 CALLDATALOAD PUSH2 0x45BE DUP2 PUSH2 0x402C JUMP JUMPDEST DUP2 MSTORE PUSH1 0x20 DUP3 ADD CALLDATALOAD PUSH8 0xFFFFFFFFFFFFFFFF DUP1 DUP3 GT ISZERO PUSH2 0x45DB JUMPI PUSH1 0x0 DUP1 REVERT JUMPDEST SWAP1 DUP4 ADD SWAP1 PUSH2 0x1A0 DUP3 DUP7 SUB SLT ISZERO PUSH2 0x45F0 JUMPI PUSH1 0x0 DUP1 REVERT JUMPDEST PUSH2 0x45F8 PUSH2 0x3F96 JUMP JUMPDEST PUSH2 0x4602 DUP7 DUP5 PUSH2 0x42B5 JUMP JUMPDEST DUP2 MSTORE PUSH2 0x4611 DUP7 PUSH1 0x60 DUP6 ADD PUSH2 0x42FA JUMP JUMPDEST PUSH1 0x20 DUP3 ADD MSTORE PUSH2 0x4623 DUP7 PUSH1 0xE0 DUP6 ADD PUSH2 0x4360 JUMP JUMPDEST PUSH1 0x40 DUP3 ADD MSTORE PUSH2 0x140 DUP4 ADD CALLDATALOAD DUP3 DUP2 GT ISZERO PUSH2 0x463B JUMPI PUSH1 0x0 DUP1 REVERT JUMPDEST PUSH2 0x4647 DUP8 DUP3 DUP7 ADD PUSH2 0x439A JUMP JUMPDEST PUSH1 0x60 DUP4 ADD MSTORE POP PUSH2 0x160 DUP4 ADD CALLDATALOAD DUP3 DUP2 GT ISZERO PUSH2 0x4660 JUMPI PUSH1 0x0 DUP1 REVERT JUMPDEST PUSH2 0x466C DUP8 DUP3 DUP7 ADD PUSH2 0x4434 JUMP JUMPDEST PUSH1 0x80 DUP4 ADD MSTORE POP PUSH2 0x180 DUP4 ADD CALLDATALOAD DUP3 DUP2 GT ISZERO PUSH2 0x4685 JUMPI PUSH1 0x0 DUP1 REVERT JUMPDEST PUSH2 0x4691 DUP8 DUP3 DUP7 ADD PUSH2 0x44EE JUMP JUMPDEST PUSH1 0xA0 DUP4 ADD MSTORE POP PUSH1 0x20 DUP5 ADD MSTORE POP SWAP1 SWAP4 SWAP3 POP POP POP JUMP JUMPDEST PUSH1 0x0 PUSH1 0x20 DUP3 DUP5 SUB SLT ISZERO PUSH2 0x46B7 JUMPI PUSH1 0x0 DUP1 REVERT JUMPDEST DUP2 CALLDATALOAD PUSH8 0xFFFFFFFFFFFFFFFF DUP2 GT ISZERO PUSH2 0x46CE JUMPI PUSH1 0x0 DUP1 REVERT JUMPDEST PUSH2 0x1D64 DUP5 DUP3 DUP6 ADD PUSH2 0x4597 JUMP JUMPDEST PUSH1 0x0 DUP1 PUSH1 0x40 DUP4 DUP6 SUB SLT ISZERO PUSH2 0x46ED JUMPI PUSH1 0x0 DUP1 REVERT JUMPDEST POP POP DUP1 CALLDATALOAD SWAP3 PUSH1 0x20 SWAP1 SWAP2 ADD CALLDATALOAD SWAP2 POP JUMP JUMPDEST PUSH1 0x0 DUP1 PUSH1 0x0 PUSH1 0x60 DUP5 DUP7 SUB SLT ISZERO PUSH2 0x4711 JUMPI PUSH1 0x0 DUP1 REVERT JUMPDEST DUP4 CALLDATALOAD PUSH2 0x471C DUP2 PUSH2 0x402C JUMP JUMPDEST SWAP6 PUSH1 0x20 DUP6 ADD CALLDATALOAD SWAP6 POP PUSH1 0x40 SWAP1 SWAP5 ADD CALLDATALOAD SWAP4 SWAP3 POP POP POP JUMP JUMPDEST PUSH1 0x0 DUP1 PUSH1 0x40 DUP4 DUP6 SUB SLT ISZERO PUSH2 0x4744 JUMPI PUSH1 0x0 DUP1 REVERT JUMPDEST DUP3 CALLDATALOAD PUSH8 0xFFFFFFFFFFFFFFFF DUP2 GT ISZERO PUSH2 0x475B JUMPI PUSH1 0x0 DUP1 REVERT JUMPDEST PUSH2 0x4767 DUP6 DUP3 DUP7 ADD PUSH2 0x4597 JUMP JUMPDEST SWAP3 POP POP PUSH1 0x20 DUP4 ADD CALLDATALOAD PUSH2 0x4778 DUP2 PUSH2 0x402C JUMP JUMPDEST DUP1 SWAP2 POP POP SWAP3 POP SWAP3 SWAP1 POP JUMP JUMPDEST PUSH32 0x4E487B7100000000000000000000000000000000000000000000000000000000 PUSH1 0x0 MSTORE PUSH1 0x32 PUSH1 0x4 MSTORE PUSH1 0x24 PUSH1 0x0 REVERT JUMPDEST PUSH32 0x4E487B7100000000000000000000000000000000000000000000000000000000 PUSH1 0x0 MSTORE PUSH1 0x11 PUSH1 0x4 MSTORE PUSH1 0x24 PUSH1 0x0 REVERT JUMPDEST PUSH1 0x0 PUSH32 0xFFFFFFFFFFFFFFFFFFFFFFFFFFFFFFFFFFFFFFFFFFFFFFFFFFFFFFFFFFFFFFFF DUP3 SUB PUSH2 0x4812 JUMPI PUSH2 0x4812 PUSH2 0x47B2 JUMP JUMPDEST POP PUSH1 0x1 ADD SWAP1 JUMP JUMPDEST PUSH1 0x0 PUSH1 0x20 DUP3 DUP5 SUB SLT ISZERO PUSH2 0x482B JUMPI PUSH1 0x0 DUP1 REVERT JUMPDEST POP MLOAD SWAP2 SWAP1 POP JUMP JUMPDEST DUP2 DUP2 SUB DUP2 DUP2 GT ISZERO PUSH2 0x1A9F JUMPI PUSH2 0x1A9F PUSH2 0x47B2 JUMP JUMPDEST PUSH32 0x4E487B7100000000000000000000000000000000000000000000000000000000 PUSH1 0x0 MSTORE PUSH1 0x12 PUSH1 0x4 MSTORE PUSH1 0x24 PUSH1 0x0 REVERT JUMPDEST PUSH1 0x0 PUSH1 0x80 DUP3 ADD PUSH1 0x1 PUSH1 0x1 PUSH1 0xA0 SHL SUB DUP1 DUP9 AND DUP5 MSTORE PUSH1 0x20 DUP2 DUP9 AND DUP2 DUP7 ADD MSTORE PUSH32 0xFFFFFFFF00000000000000000000000000000000000000000000000000000000 DUP8 AND PUSH1 0x40 DUP7 ADD MSTORE PUSH1 0x80 PUSH1 0x60 DUP7 ADD MSTORE DUP3 SWAP2 POP DUP6 MLOAD DUP1 DUP5 MSTORE PUSH1 0xA0 DUP7 ADD SWAP3 POP DUP2 DUP8 ADD SWAP4 POP PUSH1 0x0 JUMPDEST DUP2 DUP2 LT ISZERO PUSH2 0x48F1 JUMPI DUP5 MLOAD DUP5 MSTORE SWAP4 DUP3 ADD SWAP4 SWAP3 DUP3 ADD SWAP3 PUSH1 0x1 ADD PUSH2 0x48D5 JUMP JUMPDEST POP SWAP2 SWAP10 SWAP9 POP POP POP POP POP POP POP POP POP JUMP JUMPDEST PUSH1 0x0 PUSH1 0x20 DUP3 DUP5 SUB SLT ISZERO PUSH2 0x4912 JUMPI PUSH1 0x0 DUP1 REVERT JUMPDEST DUP2 MLOAD PUSH2 0x1CB3 DUP2 PUSH2 0x40B5 JUMP JUMPDEST DUP1 DUP3 ADD DUP1 DUP3 GT ISZERO PUSH2 0x1A9F JUMPI PUSH2 0x1A9F PUSH2 0x47B2 JUMP JUMPDEST PUSH1 0x0 PUSH1 0x20 DUP3 DUP5 SUB SLT ISZERO PUSH2 0x4942 JUMPI PUSH1 0x0 DUP1 REVERT JUMPDEST DUP2 MLOAD PUSH2 0x1CB3 DUP2 PUSH2 0x402C JUMP JUMPDEST PUSH32 0x4E487B7100000000000000000000000000000000000000000000000000000000 PUSH1 0x0 MSTORE PUSH1 0x31 PUSH1 0x4 MSTORE PUSH1 0x24 PUSH1 0x0 REVERT JUMPDEST PUSH1 0x0 DUP3 PUSH2 0x49B2 JUMPI PUSH32 0x4E487B7100000000000000000000000000000000000000000000000000000000 PUSH1 0x0 MSTORE PUSH1 0x12 PUSH1 0x4 MSTORE PUSH1 0x24 PUSH1 0x0 REVERT JUMPDEST POP DIV SWAP1 JUMP JUMPDEST DUP1 DUP3 MUL DUP2 ISZERO DUP3 DUP3 DIV DUP5 EQ OR PUSH2 0x1A9F JUMPI PUSH2 0x1A9F PUSH2 0x47B2 JUMP INVALID LOG2 PUSH5 0x6970667358 0x22 SLT KECCAK256 SWAP16 0xCD EQ 0xE0 0xDA CHAINID 0xD4 0x4E PUSH1 0x1D 0x1F PUSH31 0xFEBC473A1C1FC10EFE497AB8958128C63C41CFE64736F6C63430008110033 "},"methodIdentifiers":{"EXECUTION_TYPE()":"4a45a3a8","allocationExchange()":"af51b26d","authorizer()":"d09edf31","call(address,uint256)":"3bd9ef28","customTokenThreshold(address)":"a5900c4d","customVolumeLimit(address)":"221a8c68","defaultTokenThreshold()":"a3374177","defaultVolumeLimit()":"6aacaad8","gasPriceLimit()":"961a929c","getTaskAmount(address)":"a0c3774f","getTokenThreshold(address)":"51a424b1","getTokensSource()":"c267621e","getVolumeLimit(address)":"d45a76cf","initialize((address,((address,bytes32,bytes32),(uint256,uint256,uint256,uint256),(uint256,uint256,uint256),(uint8,address[]),((address,uint256,uint256),(address,(address,uint256,uint256))[]),((address,uint256,uint256),(address,(address,uint256,uint256))[]))))":"60343c2f","initializeExchangeAllocator((address,((address,bytes32,bytes32),(uint256,uint256,uint256,uint256),(uint256,uint256,uint256),(uint8,address[]),((address,uint256,uint256),(address,(address,uint256,uint256))[]),((address,uint256,uint256),(address,(address,uint256,uint256))[]))),address)":"ad8d76b3","isPaused()":"b187bd26","nextBalanceConnectorId()":"f605145b","pause()":"8456cb59","previousBalanceConnectorId()":"ab76d408","priorityFeeLimit()":"6cd8fca7","setAllocationExchange(address)":"82f01a0b","setBalanceConnectors(bytes32,bytes32)":"7125590a","setCustomTokenThreshold(address,address,uint256,uint256)":"2384c32d","setCustomVolumeLimit(address,address,uint256,uint256)":"423a4b40","setDefaultTokenThreshold(address,uint256,uint256)":"d3feb602","setDefaultVolumeLimit(address,uint256,uint256)":"90333ba8","setGasPriceLimit(uint256)":"09231602","setPriorityFeeLimit(uint256)":"34077acc","setTimeLockDelay(uint256)":"c49a91fe","setTimeLockExecutionPeriod(uint256)":"ee98cf6d","setTimeLockExpiration(uint256)":"f440284b","setTokensAcceptanceList(address[],bool[])":"21972384","setTokensAcceptanceType(uint8)":"30eae572","setTokensSource(address)":"993fd4de","setTxCostLimit(uint256)":"0652095d","setTxCostLimitPct(uint256)":"dccf56ce","smartVault()":"4fd49efd","timeLockDelay()":"8bbc6446","timeLockExecutionPeriod()":"85538533","timeLockExpiration()":"5d28414c","tokensAcceptanceType()":"42d4693e","txCostLimit()":"7d43d4ed","txCostLimitPct()":"d4dfd588","unpause()":"3f4ba83a"}}}}}