{"@mimic-fi/v3-tasks/contracts/primitives/Collector.sol":{"Collector":{"abi":[{"anonymous":false,"inputs":[{"indexed":true,"internalType":"bytes32","name":"previous","type":"bytes32"},{"indexed":true,"internalType":"bytes32","name":"next","type":"bytes32"}],"name":"BalanceConnectorsSet","type":"event"},{"anonymous":false,"inputs":[{"indexed":true,"internalType":"address","name":"token","type":"address"},{"indexed":false,"internalType":"address","name":"thresholdToken","type":"address"},{"indexed":false,"internalType":"uint256","name":"min","type":"uint256"},{"indexed":false,"internalType":"uint256","name":"max","type":"uint256"}],"name":"CustomTokenThresholdSet","type":"event"},{"anonymous":false,"inputs":[{"indexed":true,"internalType":"address","name":"token","type":"address"},{"indexed":true,"internalType":"address","name":"limitToken","type":"address"},{"indexed":false,"internalType":"uint256","name":"amount","type":"uint256"},{"indexed":false,"internalType":"uint256","name":"period","type":"uint256"}],"name":"CustomVolumeLimitSet","type":"event"},{"anonymous":false,"inputs":[{"indexed":false,"internalType":"address","name":"token","type":"address"},{"indexed":false,"internalType":"uint256","name":"min","type":"uint256"},{"indexed":false,"internalType":"uint256","name":"max","type":"uint256"}],"name":"DefaultTokenThresholdSet","type":"event"},{"anonymous":false,"inputs":[{"indexed":true,"internalType":"address","name":"token","type":"address"},{"indexed":false,"internalType":"uint256","name":"amount","type":"uint256"},{"indexed":false,"internalType":"uint256","name":"period","type":"uint256"}],"name":"DefaultVolumeLimitSet","type":"event"},{"anonymous":false,"inputs":[],"name":"Executed","type":"event"},{"anonymous":false,"inputs":[{"indexed":false,"internalType":"uint256","name":"gasPriceLimit","type":"uint256"}],"name":"GasPriceLimitSet","type":"event"},{"anonymous":false,"inputs":[{"indexed":false,"internalType":"uint8","name":"version","type":"uint8"}],"name":"Initialized","type":"event"},{"anonymous":false,"inputs":[],"name":"Paused","type":"event"},{"anonymous":false,"inputs":[{"indexed":false,"internalType":"uint256","name":"priorityFeeLimit","type":"uint256"}],"name":"PriorityFeeLimitSet","type":"event"},{"anonymous":false,"inputs":[{"indexed":false,"internalType":"uint256","name":"delay","type":"uint256"}],"name":"TimeLockDelaySet","type":"event"},{"anonymous":false,"inputs":[{"indexed":false,"internalType":"uint256","name":"period","type":"uint256"}],"name":"TimeLockExecutionPeriodSet","type":"event"},{"anonymous":false,"inputs":[{"indexed":false,"internalType":"uint256","name":"expiration","type":"uint256"}],"name":"TimeLockExpirationSet","type":"event"},{"anonymous":false,"inputs":[{"indexed":true,"internalType":"address","name":"token","type":"address"},{"indexed":false,"internalType":"bool","name":"added","type":"bool"}],"name":"TokensAcceptanceListSet","type":"event"},{"anonymous":false,"inputs":[{"indexed":false,"internalType":"enum ITokenIndexedTask.TokensAcceptanceType","name":"acceptanceType","type":"uint8"}],"name":"TokensAcceptanceTypeSet","type":"event"},{"anonymous":false,"inputs":[{"indexed":true,"internalType":"address","name":"tokensSource","type":"address"}],"name":"TokensSourceSet","type":"event"},{"anonymous":false,"inputs":[{"indexed":false,"internalType":"uint256","name":"txCostLimitPct","type":"uint256"}],"name":"TxCostLimitPctSet","type":"event"},{"anonymous":false,"inputs":[{"indexed":false,"internalType":"uint256","name":"txCostLimit","type":"uint256"}],"name":"TxCostLimitSet","type":"event"},{"anonymous":false,"inputs":[],"name":"Unpaused","type":"event"},{"inputs":[],"name":"EXECUTION_TYPE","outputs":[{"internalType":"bytes32","name":"","type":"bytes32"}],"stateMutability":"view","type":"function"},{"inputs":[],"name":"authorizer","outputs":[{"internalType":"address","name":"","type":"address"}],"stateMutability":"view","type":"function"},{"inputs":[{"internalType":"address","name":"token","type":"address"},{"internalType":"uint256","name":"amount","type":"uint256"}],"name":"call","outputs":[],"stateMutability":"nonpayable","type":"function"},{"inputs":[{"internalType":"address","name":"token","type":"address"}],"name":"customTokenThreshold","outputs":[{"components":[{"internalType":"address","name":"token","type":"address"},{"internalType":"uint256","name":"min","type":"uint256"},{"internalType":"uint256","name":"max","type":"uint256"}],"internalType":"struct ITokenThresholdTask.Threshold","name":"","type":"tuple"}],"stateMutability":"view","type":"function"},{"inputs":[{"internalType":"address","name":"token","type":"address"}],"name":"customVolumeLimit","outputs":[{"components":[{"internalType":"address","name":"token","type":"address"},{"internalType":"uint256","name":"amount","type":"uint256"},{"internalType":"uint256","name":"accrued","type":"uint256"},{"internalType":"uint256","name":"period","type":"uint256"},{"internalType":"uint256","name":"nextResetTime","type":"uint256"}],"internalType":"struct IVolumeLimitedTask.VolumeLimit","name":"","type":"tuple"}],"stateMutability":"view","type":"function"},{"inputs":[],"name":"defaultTokenThreshold","outputs":[{"components":[{"internalType":"address","name":"token","type":"address"},{"internalType":"uint256","name":"min","type":"uint256"},{"internalType":"uint256","name":"max","type":"uint256"}],"internalType":"struct ITokenThresholdTask.Threshold","name":"","type":"tuple"}],"stateMutability":"view","type":"function"},{"inputs":[],"name":"defaultVolumeLimit","outputs":[{"components":[{"internalType":"address","name":"token","type":"address"},{"internalType":"uint256","name":"amount","type":"uint256"},{"internalType":"uint256","name":"accrued","type":"uint256"},{"internalType":"uint256","name":"period","type":"uint256"},{"internalType":"uint256","name":"nextResetTime","type":"uint256"}],"internalType":"struct IVolumeLimitedTask.VolumeLimit","name":"","type":"tuple"}],"stateMutability":"view","type":"function"},{"inputs":[],"name":"gasPriceLimit","outputs":[{"internalType":"uint256","name":"","type":"uint256"}],"stateMutability":"view","type":"function"},{"inputs":[{"internalType":"address","name":"token","type":"address"}],"name":"getTaskAmount","outputs":[{"internalType":"uint256","name":"","type":"uint256"}],"stateMutability":"view","type":"function"},{"inputs":[{"internalType":"address","name":"token","type":"address"}],"name":"getTokenThreshold","outputs":[{"components":[{"internalType":"address","name":"token","type":"address"},{"internalType":"uint256","name":"min","type":"uint256"},{"internalType":"uint256","name":"max","type":"uint256"}],"internalType":"struct ITokenThresholdTask.Threshold","name":"","type":"tuple"}],"stateMutability":"view","type":"function"},{"inputs":[],"name":"getTokensSource","outputs":[{"internalType":"address","name":"","type":"address"}],"stateMutability":"view","type":"function"},{"inputs":[{"internalType":"address","name":"token","type":"address"}],"name":"getVolumeLimit","outputs":[{"components":[{"internalType":"address","name":"token","type":"address"},{"internalType":"uint256","name":"amount","type":"uint256"},{"internalType":"uint256","name":"accrued","type":"uint256"},{"internalType":"uint256","name":"period","type":"uint256"},{"internalType":"uint256","name":"nextResetTime","type":"uint256"}],"internalType":"struct IVolumeLimitedTask.VolumeLimit","name":"","type":"tuple"}],"stateMutability":"view","type":"function"},{"inputs":[{"components":[{"internalType":"address","name":"tokensSource","type":"address"},{"components":[{"components":[{"internalType":"address","name":"smartVault","type":"address"},{"internalType":"bytes32","name":"previousBalanceConnectorId","type":"bytes32"},{"internalType":"bytes32","name":"nextBalanceConnectorId","type":"bytes32"}],"internalType":"struct BaseTask.BaseConfig","name":"baseConfig","type":"tuple"},{"components":[{"internalType":"uint256","name":"gasPriceLimit","type":"uint256"},{"internalType":"uint256","name":"priorityFeeLimit","type":"uint256"},{"internalType":"uint256","name":"txCostLimit","type":"uint256"},{"internalType":"uint256","name":"txCostLimitPct","type":"uint256"}],"internalType":"struct GasLimitedTask.GasLimitConfig","name":"gasLimitConfig","type":"tuple"},{"components":[{"internalType":"uint256","name":"delay","type":"uint256"},{"internalType":"uint256","name":"nextExecutionTimestamp","type":"uint256"},{"internalType":"uint256","name":"executionPeriod","type":"uint256"}],"internalType":"struct TimeLockedTask.TimeLockConfig","name":"timeLockConfig","type":"tuple"},{"components":[{"internalType":"enum ITokenIndexedTask.TokensAcceptanceType","name":"acceptanceType","type":"uint8"},{"internalType":"address[]","name":"tokens","type":"address[]"}],"internalType":"struct TokenIndexedTask.TokenIndexConfig","name":"tokenIndexConfig","type":"tuple"},{"components":[{"components":[{"internalType":"address","name":"token","type":"address"},{"internalType":"uint256","name":"min","type":"uint256"},{"internalType":"uint256","name":"max","type":"uint256"}],"internalType":"struct ITokenThresholdTask.Threshold","name":"defaultThreshold","type":"tuple"},{"components":[{"internalType":"address","name":"token","type":"address"},{"components":[{"internalType":"address","name":"token","type":"address"},{"internalType":"uint256","name":"min","type":"uint256"},{"internalType":"uint256","name":"max","type":"uint256"}],"internalType":"struct ITokenThresholdTask.Threshold","name":"threshold","type":"tuple"}],"internalType":"struct TokenThresholdTask.CustomThresholdConfig[]","name":"customThresholdConfigs","type":"tuple[]"}],"internalType":"struct TokenThresholdTask.TokenThresholdConfig","name":"tokenThresholdConfig","type":"tuple"},{"components":[{"components":[{"internalType":"address","name":"token","type":"address"},{"internalType":"uint256","name":"amount","type":"uint256"},{"internalType":"uint256","name":"period","type":"uint256"}],"internalType":"struct VolumeLimitedTask.VolumeLimitParams","name":"defaultVolumeLimit","type":"tuple"},{"components":[{"internalType":"address","name":"token","type":"address"},{"components":[{"internalType":"address","name":"token","type":"address"},{"internalType":"uint256","name":"amount","type":"uint256"},{"internalType":"uint256","name":"period","type":"uint256"}],"internalType":"struct VolumeLimitedTask.VolumeLimitParams","name":"volumeLimit","type":"tuple"}],"internalType":"struct VolumeLimitedTask.CustomVolumeLimitConfig[]","name":"customVolumeLimitConfigs","type":"tuple[]"}],"internalType":"struct VolumeLimitedTask.VolumeLimitConfig","name":"volumeLimitConfig","type":"tuple"}],"internalType":"struct Task.TaskConfig","name":"taskConfig","type":"tuple"}],"internalType":"struct Collector.CollectConfig","name":"config","type":"tuple"}],"name":"initialize","outputs":[],"stateMutability":"nonpayable","type":"function"},{"inputs":[],"name":"isPaused","outputs":[{"internalType":"bool","name":"","type":"bool"}],"stateMutability":"view","type":"function"},{"inputs":[],"name":"nextBalanceConnectorId","outputs":[{"internalType":"bytes32","name":"","type":"bytes32"}],"stateMutability":"view","type":"function"},{"inputs":[],"name":"pause","outputs":[],"stateMutability":"nonpayable","type":"function"},{"inputs":[],"name":"previousBalanceConnectorId","outputs":[{"internalType":"bytes32","name":"","type":"bytes32"}],"stateMutability":"view","type":"function"},{"inputs":[],"name":"priorityFeeLimit","outputs":[{"internalType":"uint256","name":"","type":"uint256"}],"stateMutability":"view","type":"function"},{"inputs":[{"internalType":"bytes32","name":"previous","type":"bytes32"},{"internalType":"bytes32","name":"next","type":"bytes32"}],"name":"setBalanceConnectors","outputs":[],"stateMutability":"nonpayable","type":"function"},{"inputs":[{"internalType":"address","name":"token","type":"address"},{"internalType":"address","name":"thresholdToken","type":"address"},{"internalType":"uint256","name":"thresholdMin","type":"uint256"},{"internalType":"uint256","name":"thresholdMax","type":"uint256"}],"name":"setCustomTokenThreshold","outputs":[],"stateMutability":"nonpayable","type":"function"},{"inputs":[{"internalType":"address","name":"token","type":"address"},{"internalType":"address","name":"limitToken","type":"address"},{"internalType":"uint256","name":"limitAmount","type":"uint256"},{"internalType":"uint256","name":"limitPeriod","type":"uint256"}],"name":"setCustomVolumeLimit","outputs":[],"stateMutability":"nonpayable","type":"function"},{"inputs":[{"internalType":"address","name":"thresholdToken","type":"address"},{"internalType":"uint256","name":"thresholdMin","type":"uint256"},{"internalType":"uint256","name":"thresholdMax","type":"uint256"}],"name":"setDefaultTokenThreshold","outputs":[],"stateMutability":"nonpayable","type":"function"},{"inputs":[{"internalType":"address","name":"limitToken","type":"address"},{"internalType":"uint256","name":"limitAmount","type":"uint256"},{"internalType":"uint256","name":"limitPeriod","type":"uint256"}],"name":"setDefaultVolumeLimit","outputs":[],"stateMutability":"nonpayable","type":"function"},{"inputs":[{"internalType":"uint256","name":"newGasPriceLimit","type":"uint256"}],"name":"setGasPriceLimit","outputs":[],"stateMutability":"nonpayable","type":"function"},{"inputs":[{"internalType":"uint256","name":"newPriorityFeeLimit","type":"uint256"}],"name":"setPriorityFeeLimit","outputs":[],"stateMutability":"nonpayable","type":"function"},{"inputs":[{"internalType":"uint256","name":"delay","type":"uint256"}],"name":"setTimeLockDelay","outputs":[],"stateMutability":"nonpayable","type":"function"},{"inputs":[{"internalType":"uint256","name":"period","type":"uint256"}],"name":"setTimeLockExecutionPeriod","outputs":[],"stateMutability":"nonpayable","type":"function"},{"inputs":[{"internalType":"uint256","name":"expiration","type":"uint256"}],"name":"setTimeLockExpiration","outputs":[],"stateMutability":"nonpayable","type":"function"},{"inputs":[{"internalType":"address[]","name":"tokens","type":"address[]"},{"internalType":"bool[]","name":"added","type":"bool[]"}],"name":"setTokensAcceptanceList","outputs":[],"stateMutability":"nonpayable","type":"function"},{"inputs":[{"internalType":"enum ITokenIndexedTask.TokensAcceptanceType","name":"newTokensAcceptanceType","type":"uint8"}],"name":"setTokensAcceptanceType","outputs":[],"stateMutability":"nonpayable","type":"function"},{"inputs":[{"internalType":"address","name":"tokensSource","type":"address"}],"name":"setTokensSource","outputs":[],"stateMutability":"nonpayable","type":"function"},{"inputs":[{"internalType":"uint256","name":"newTxCostLimit","type":"uint256"}],"name":"setTxCostLimit","outputs":[],"stateMutability":"nonpayable","type":"function"},{"inputs":[{"internalType":"uint256","name":"newTxCostLimitPct","type":"uint256"}],"name":"setTxCostLimitPct","outputs":[],"stateMutability":"nonpayable","type":"function"},{"inputs":[],"name":"smartVault","outputs":[{"internalType":"address","name":"","type":"address"}],"stateMutability":"view","type":"function"},{"inputs":[],"name":"timeLockDelay","outputs":[{"internalType":"uint256","name":"","type":"uint256"}],"stateMutability":"view","type":"function"},{"inputs":[],"name":"timeLockExecutionPeriod","outputs":[{"internalType":"uint256","name":"","type":"uint256"}],"stateMutability":"view","type":"function"},{"inputs":[],"name":"timeLockExpiration","outputs":[{"internalType":"uint256","name":"","type":"uint256"}],"stateMutability":"view","type":"function"},{"inputs":[],"name":"tokensAcceptanceType","outputs":[{"internalType":"enum ITokenIndexedTask.TokensAcceptanceType","name":"","type":"uint8"}],"stateMutability":"view","type":"function"},{"inputs":[],"name":"txCostLimit","outputs":[{"internalType":"uint256","name":"","type":"uint256"}],"stateMutability":"view","type":"function"},{"inputs":[],"name":"txCostLimitPct","outputs":[{"internalType":"uint256","name":"","type":"uint256"}],"stateMutability":"view","type":"function"},{"inputs":[],"name":"unpause","outputs":[],"stateMutability":"nonpayable","type":"function"}],"evm":{"bytecode":{"linkReferences":{},"object":"60806040523480156200001157600080fd5b506200001c62000022565b620000e4565b600054610100900460ff16156200008f5760405162461bcd60e51b815260206004820152602760248201527f496e697469616c697a61626c653a20636f6e747261637420697320696e697469604482015266616c697a696e6760c81b606482015260840160405180910390fd5b60005460ff9081161015620000e2576000805460ff191660ff9081179091556040519081527f7f26b83ff96e1f2b6a682f133852f6798a09c465da95921460cefb38474024989060200160405180910390a15b565b6146d780620000f46000396000f3fe608060405234801561001057600080fd5b50600436106102d35760003560e01c80638456cb5911610186578063b187bd26116100e3578063d45a76cf11610097578063ee98cf6d11610071578063ee98cf6d146105fe578063f440284b14610611578063f605145b1461062457600080fd5b8063d45a76cf146105cf578063d4dfd588146105e2578063dccf56ce146105eb57600080fd5b8063c49a91fe116100c8578063c49a91fe14610590578063d09edf31146105a3578063d3feb602146105bc57600080fd5b8063b187bd2614610562578063c267621e1461057f57600080fd5b8063993fd4de1161013a578063a33741771161011f578063a33741771461053e578063a5900c4d14610546578063ab76d4081461055957600080fd5b8063993fd4de14610518578063a0c3774f1461052b57600080fd5b80638bbc64461161016b5780638bbc6446146104f357806390333ba8146104fc578063961a929c1461050f57600080fd5b80638456cb59146104e257806385538533146104ea57600080fd5b806342d4693e1161023457806360343c2f116101e85780636cd8fca7116101cd5780636cd8fca7146104bd5780637125590a146104c65780637d43d4ed146104d957600080fd5b806360343c2f146104a25780636aacaad8146104b557600080fd5b80634fd49efd116102195780634fd49efd1461043057806351a424b11461045b5780635d28414c1461049957600080fd5b806342d4693e146103e15780634a45a3a8146103fb57600080fd5b806330eae5721161028b5780633bd9ef28116102705780633bd9ef28146103b35780633f4ba83a146103c6578063423a4b40146103ce57600080fd5b806330eae5721461038d57806334077acc146103a057600080fd5b806321972384116102bc5780632197238414610300578063221a8c68146103135780632384c32d1461037a57600080fd5b80630652095d146102d857806309231602146102ed575b600080fd5b6102eb6102e6366004613c3a565b61062d565b005b6102eb6102fb366004613c3a565b610672565b6102eb61030e366004613dfb565b6106b3565b610326610321366004613ebf565b610796565b6040516103719190600060a0820190506001600160a01b0383511682526020830151602083015260408301516040830152606083015160608301526080830151608083015292915050565b60405180910390f35b6102eb610388366004613edc565b61082c565b6102eb61039b366004613f36565b61087a565b6102eb6103ae366004613c3a565b6108cf565b6102eb6103c1366004613f51565b610910565b6102eb6109e6565b6102eb6103dc366004613edc565b610ab9565b600d546103ee9060ff1681565b6040516103719190613fac565b6104227fcbce9983fcd5fc099294db3138f1660107f2bd5b23b9fa0002d7df1db9d854cb81565b604051908152602001610371565b600154610443906001600160a01b031681565b6040516001600160a01b039091168152602001610371565b61046e610469366004613ebf565b610b00565b6040805182516001600160a01b03168152602080840151908201529181015190820152606001610371565b610422600b5481565b6102eb6104b03660046142cf565b610b8b565b610326610d04565b61042260075481565b6102eb6104d43660046143ff565b610d7d565b61042260085481565b6102eb610dc0565b610422600c5481565b610422600a5481565b6102eb61050a366004614421565b610e97565b61042260065481565b6102eb610526366004613ebf565b610ee2565b610422610539366004613ebf565b610f23565b61046e610fba565b61046e610554366004613ebf565b611015565b61042260025481565b60045461056f9060ff1681565b6040519015158152602001610371565b601a546001600160a01b0316610443565b6102eb61059e366004613c3a565b611086565b600054610443906201000090046001600160a01b031681565b6102eb6105ca366004614421565b6110c7565b6103266105dd366004613ebf565b61110c565b61042260095481565b6102eb6105f9366004613c3a565b611198565b6102eb61060c366004613c3a565b6111d9565b6102eb61061f366004613c3a565b61121a565b61042260035481565b6106368161125b565b610665336000357fffffffff0000000000000000000000000000000000000000000000000000000016836112a2565b61066e826112f9565b5050565b61067b8161125b565b6106aa336000357fffffffff0000000000000000000000000000000000000000000000000000000016836112a2565b61066e82611335565b6106e1336000357fffffffff000000000000000000000000000000000000000000000000000000001661136a565b80518251146107375760405162461bcd60e51b815260206004820152601a60248201527f5441534b5f414343455054414e43455f4241445f4c454e47544800000000000060448201526064015b60405180910390fd5b60005b82518110156107915761077f83828151811061075857610758614456565b602002602001015183838151811061077257610772614456565b6020026020010151611386565b80610789816144b4565b91505061073a565b505050565b6107d16040518060a0016040528060006001600160a01b03168152602001600081526020016000815260200160008152602001600081525090565b506001600160a01b03908116600090815260196020908152604091829020825160a081018452815490941684526001810154918401919091526002810154918301919091526003810154606083015260040154608082015290565b61083884848484611446565b610867336000357fffffffff0000000000000000000000000000000000000000000000000000000016836112a2565b61087385858585611503565b5050505050565b61089781600181111561088f5761088f613f7d565b60ff1661125b565b6108c6336000357fffffffff0000000000000000000000000000000000000000000000000000000016836112a2565b61066e826115d2565b6108d88161125b565b610907336000357fffffffff0000000000000000000000000000000000000000000000000000000016836112a2565b61066e82611642565b61091a8282611677565b610949336000357fffffffff0000000000000000000000000000000000000000000000000000000016836112a2565b61095383836116e6565b600154601a546040517fc8fea2fb0000000000000000000000000000000000000000000000000000000081526001600160a01b03868116600483015291821660248201526044810185905291169063c8fea2fb90606401600060405180830381600087803b1580156109c457600080fd5b505af11580156109d8573d6000803e3d6000fd5b505050506107918383611796565b610a14336000357fffffffff000000000000000000000000000000000000000000000000000000001661136a565b60045460ff16610a665760405162461bcd60e51b815260206004820152601560248201527f5441534b5f414c52454144595f554e5041555345440000000000000000000000604482015260640161072e565b600480547fffffffffffffffffffffffffffffffffffffffffffffffffffffffffffffff001690556040517fa45f47fdea8a1efdd9029a5691c7f759c32b7c698632b563573e155625d1693390600090a1565b610ac584848484611446565b610af4336000357fffffffff0000000000000000000000000000000000000000000000000000000016836112a2565b610873858585856117aa565b610b2d604051806060016040528060006001600160a01b0316815260200160008152602001600081525090565b6001600160a01b038083166000908152601360205260409020805490911615610b565780610b59565b60105b6040805160608101825282546001600160a01b0316815260018301546020820152600290920154908201529392505050565b600054610100900460ff1615808015610bab5750600054600160ff909116105b80610bc55750303b158015610bc5575060005460ff166001145b610c375760405162461bcd60e51b815260206004820152602e60248201527f496e697469616c697a61626c653a20636f6e747261637420697320616c72656160448201527f647920696e697469616c697a6564000000000000000000000000000000000000606482015260840161072e565b600080547fffffffffffffffffffffffffffffffffffffffffffffffffffffffffffffff001660011790558015610c9557600080547fffffffffffffffffffffffffffffffffffffffffffffffffffffffffffff00ff166101001790555b610c9e82611880565b801561066e57600080547fffffffffffffffffffffffffffffffffffffffffffffffffffffffffffff00ff169055604051600181527f7f26b83ff96e1f2b6a682f133852f6798a09c465da95921460cefb38474024989060200160405180910390a15050565b610d3f6040518060a0016040528060006001600160a01b03168152602001600081526020016000815260200160008152602001600081525090565b506040805160a0810182526014546001600160a01b031681526015546020820152601654918101919091526017546060820152601854608082015290565b610d878282611904565b610db6336000357fffffffff0000000000000000000000000000000000000000000000000000000016836112a2565b610791838361195e565b610dee336000357fffffffff000000000000000000000000000000000000000000000000000000001661136a565b60045460ff1615610e415760405162461bcd60e51b815260206004820152601360248201527f5441534b5f414c52454144595f50415553454400000000000000000000000000604482015260640161072e565b600480547fffffffffffffffffffffffffffffffffffffffffffffffffffffffffffffff001660011790556040517f9e87fac88ff661f02d44f95383c817fece4bce600a3dab7a54406878b965e75290600090a1565b610ea28383836119b6565b610ed1336000357fffffffff0000000000000000000000000000000000000000000000000000000016836112a2565b610edc848484611a48565b50505050565b610eeb81611a9e565b610f1a336000357fffffffff0000000000000000000000000000000000000000000000000000000016836112a2565b61066e82611ab2565b6001546002546040517ebc489400000000000000000000000000000000000000000000000000000000815260048101919091526001600160a01b038381166024830152600092169062bc489490604401602060405180830381865afa158015610f90573d6000803e3d6000fd5b505050506040513d601f19601f82011682018060405250810190610fb491906144ec565b92915050565b610fe7604051806060016040528060006001600160a01b0316815260200160008152602001600081525090565b50604080516060810182526010546001600160a01b0316815260115460208201526012549181019190915290565b611042604051806060016040528060006001600160a01b0316815260200160008152602001600081525090565b506001600160a01b03908116600090815260136020908152604091829020825160608101845281549094168452600181015491840191909152600201549082015290565b61108f8161125b565b6110be336000357fffffffff0000000000000000000000000000000000000000000000000000000016836112a2565b61066e82611b6a565b6110d28383836119b6565b611101336000357fffffffff0000000000000000000000000000000000000000000000000000000016836112a2565b610edc848484611bf1565b6111476040518060a0016040528060006001600160a01b03168152602001600081526020016000815260200160008152602001600081525090565b61115082611c4d565b6040805160a08101825282546001600160a01b031681526001830154602082015260028301549181019190915260038201546060820152600490910154608082015292915050565b6111a18161125b565b6111d0336000357fffffffff0000000000000000000000000000000000000000000000000000000016836112a2565b61066e82611c82565b6111e28161125b565b611211336000357fffffffff0000000000000000000000000000000000000000000000000000000016836112a2565b61066e82611d0f565b6112238161125b565b611252336000357fffffffff0000000000000000000000000000000000000000000000000000000016836112a2565b61066e82611d96565b60408051600180825281830190925260609160208083019080368337019050509050818160008151811061129157611291614456565b602002602001018181525050919050565b6112ad838383611dcb565b6107915760405162461bcd60e51b815260206004820152601760248201527f415554485f53454e4445525f4e4f545f414c4c4f574544000000000000000000604482015260640161072e565b60088190556040518181527f3f6c9c24d9513c13d3b3cde07a6d023891e0a453697b804236062ff89f8911bf906020015b60405180910390a150565b60068190556040518181527f82a6981d2edcffa06330f002d2155243475d202ce6cc11693da2ca897fb8e3729060200161132a565b60408051600081526020810190915261066e90839083906112a2565b6001600160a01b0382166113dc5760405162461bcd60e51b815260206004820152601a60248201527f5441534b5f414343455054414e43455f544f4b454e5f5a45524f000000000000604482015260640161072e565b806113f1576113ec600e83611e69565b6113fc565b6113fc600e83611e7e565b50816001600160a01b03167f6264362e9de26efefda321dfaeb4e4a9090deef40c5435fad8e9e2e306889a1c8260405161143a911515815260200190565b60405180910390a25050565b60408051600480825260a0820190925260609160208201608080368337019050509050846001600160a01b03168160008151811061148657611486614456565b602002602001018181525050836001600160a01b0316816001815181106114af576114af614456565b60200260200101818152505082816002815181106114cf576114cf614456565b60200260200101818152505081816003815181106114ef576114ef614456565b602002602001018181525050949350505050565b6001600160a01b0384166115595760405162461bcd60e51b815260206004820152601960248201527f5441534b5f5448524553484f4c445f544f4b454e5f5a45524f00000000000000604482015260640161072e565b6001600160a01b038416600090815260136020526040902061157d90848484611e93565b604080516001600160a01b03858116825260208201859052918101839052908516907ff099617c054d3a65e02a9c3b786f23cc03d5982bc7cfae84dff0408049cf17079060600160405180910390a250505050565b600d80548291907fffffffffffffffffffffffffffffffffffffffffffffffffffffffffffffff00166001838181111561160e5761160e613f7d565b02179055507f216b6a9618d607ba436d0f2e17e9a83e70929adff805ac2385d67401360e551a8160405161132a9190613fac565b60078190556040518181527fea12b72eef155a5c546ace7f0bb7e8dc49ef4e666c276cdc6d5687b83525fada9060200161132a565b6040805160028082526060808301845292602083019080368337019050509050826001600160a01b0316816000815181106116b4576116b4614456565b60200260200101818152505081816001815181106116d4576116d4614456565b60200260200101818152505092915050565b6116f08282611f74565b6001600160a01b0382166117465760405162461bcd60e51b815260206004820152600f60248201527f5441534b5f544f4b454e5f5a45524f0000000000000000000000000000000000604482015260640161072e565b6000811161066e5760405162461bcd60e51b815260206004820152601060248201527f5441534b5f414d4f554e545f5a45524f00000000000000000000000000000000604482015260640161072e565b6117a08282611fba565b61066e8282612059565b6001600160a01b0384166118005760405162461bcd60e51b815260206004820152601c60248201527f5441534b5f564f4c554d455f4c494d49545f544f4b454e5f5a45524f00000000604482015260640161072e565b6001600160a01b038416600090815260196020526040902061182490848484612081565b826001600160a01b0316846001600160a01b03167f1b5c5e27ed5443e409bae85849d41d7bf12d5352e8fddb3728b6408f836e14488484604051611872929190918252602082015260400190565b60405180910390a350505050565b600054610100900460ff166118eb5760405162461bcd60e51b815260206004820152602b60248201527f496e697469616c697a61626c653a20636f6e7472616374206973206e6f74206960448201526a6e697469616c697a696e6760a81b606482015260840161072e565b6118f881602001516121f1565b611901816122b9565b50565b60408051600280825260608083018452926020830190803683370190505090508260001c8160008151811061193b5761193b614456565b6020026020010181815250508160001c816001815181106116d4576116d4614456565b81156119ac5760405162461bcd60e51b815260206004820181905260248201527f5441534b5f50524556494f55535f434f4e4e4543544f525f4e4f545f5a45524f604482015260640161072e565b61066e828261232f565b60408051600380825260808201909252606091602082018380368337019050509050836001600160a01b0316816000815181106119f5576119f5614456565b6020026020010181815250508281600181518110611a1557611a15614456565b6020026020010181815250508181600281518110611a3557611a35614456565b6020026020010181815250509392505050565b611a556014848484612081565b60408051838152602081018390526001600160a01b038516917f6324b5f18e615697a2b44f16d7a649deb0bbbc7cb09dad4c610306105730e7d9910160405180910390a2505050565b6060610fb4826001600160a01b031661125b565b6001600160a01b038116611b085760405162461bcd60e51b815260206004820152601760248201527f5441534b5f544f4b454e535f534f555243455f5a45524f000000000000000000604482015260640161072e565b601a80547fffffffffffffffffffffffff0000000000000000000000000000000000000000166001600160a01b0383169081179091556040517f1614e726b084b514c185bf6bca77bc3eb2242e5b905c019703431dd46a9bd03490600090a250565b600c54811015611bbc5760405162461bcd60e51b815260206004820152601e60248201527f5441534b5f44454c41595f47545f455845435554494f4e5f504552494f440000604482015260640161072e565b600a8190556040518181527f19977a2303ceb34bef2e4dd4565faac5f9b6ebc0c20a5ee6ec7aca38d5b159389060200161132a565b611bfe6010848484611e93565b604080516001600160a01b0385168152602081018490529081018290527fa80953bdc344b2ebd0bcdd001a3418a8fd1b858bdecf12a4ba5a9366ad65d3459060600160405180910390a1505050565b6001600160a01b0380821660009081526019602052604081208054919290911615611c785780611c7b565b60145b9392505050565b670de0b6b3a7640000811115611cda5760405162461bcd60e51b815260206004820181905260248201527f5441534b5f54585f434f53545f4c494d49545f5043545f41424f56455f4f4e45604482015260640161072e565b60098190556040518181527f6f595fa7bd8d8d8862d5832788f1ce1fe642af019a167c3bb93c793246185a969060200161132a565b600a54811115611d615760405162461bcd60e51b815260206004820152601e60248201527f5441534b5f455845435554494f4e5f504552494f445f47545f44454c41590000604482015260640161072e565b600c8190556040518181527f6243d0b89023d75f69a263222092c4479e48ec8866bee94a0c6d38288425ca769060200161132a565b600b8190556040518181527f591533b8b1db3df52ac5cbf75069102b6618d2a941cb88c223fd353ff4e65d4d9060200161132a565b600080546040517f28522895000000000000000000000000000000000000000000000000000000008152620100009091046001600160a01b031690632852289590611e20908790309088908890600401614505565b602060405180830381865afa158015611e3d573d6000803e3d6000fd5b505050506040513d601f19601f82011682018060405250810190611e619190614591565b949350505050565b6000611c7b836001600160a01b0384166123c3565b6000611c7b836001600160a01b0384166124b6565b60006001600160a01b038416158015611eaa575082155b8015611eb4575081155b905060006001600160a01b03851615801590611ed85750821580611ed85750838310155b90508180611ee35750805b611f2f5760405162461bcd60e51b815260206004820152601c60248201527f5441534b5f494e56414c49445f5448524553484f4c445f494e50555400000000604482015260640161072e565b505083547fffffffffffffffffffffffff0000000000000000000000000000000000000000166001600160a01b03939093169290921783556001830155600290910155565b611f7e8282612505565b611f88828261250f565b611f928282612562565b611f9c8282612629565b611fa68282612715565b611fb0828261279c565b61066e8282612873565b6003541561066e57600180546003546040517feb056bbb00000000000000000000000000000000000000000000000000000000815260048101919091526001600160a01b03858116602483015260448201859052606482019390935291169063eb056bbb906084015b600060405180830381600087803b15801561203d57600080fd5b505af1158015612051573d6000803e3d6000fd5b505050505050565b6120638282612980565b61206d8282612a22565b6120778282612aa2565b61066e8282612d0a565b60006001600160a01b038416158015612098575082155b80156120a2575081155b905060006001600160a01b038516158015906120be5750600084115b80156120ca5750600083115b905081806120d55750805b6121215760405162461bcd60e51b815260206004820152601f60248201527f5441534b5f494e56414c49445f564f4c554d455f4c494d49545f494e50555400604482015260640161072e565b600386018390556001860184905581156121485760006002870181905560048701556121b4565b856004015460000361216f576000600287015561216583426145ae565b60048701556121b4565b85546001600160a01b038681169116146121b457855460009061219b906001600160a01b031687612d37565b60028801549091506121ad9082612d43565b6002880155505b505083547fffffffffffffffffffffffff0000000000000000000000000000000000000000166001600160a01b0393909316929092179092555050565b600054610100900460ff1661225c5760405162461bcd60e51b815260206004820152602b60248201527f496e697469616c697a61626c653a20636f6e7472616374206973206e6f74206960448201526a6e697469616c697a696e6760a81b606482015260840161072e565b805161226790612dc1565b61226f612ea3565b61227c8160200151612f18565b6122898160400151612f8c565b6122968160600151613000565b6122a38160800151613074565b6122b08160a001516130e8565b6119018161315c565b600054610100900460ff166123245760405162461bcd60e51b815260206004820152602b60248201527f496e697469616c697a61626c653a20636f6e7472616374206973206e6f74206960448201526a6e697469616c697a696e6760a81b606482015260840161072e565b805161190190611ab2565b808214158061233c575081155b6123885760405162461bcd60e51b815260206004820152601c60248201527f5441534b5f53414d455f42414c414e43455f434f4e4e4543544f525300000000604482015260640161072e565b60028290556003819055604051819083907ff950a929751d87db181a0a517df21bb3ecd433abba584594402db4b58a55483590600090a35050565b600081815260018301602052604081205480156124ac5760006123e76001836145c1565b85549091506000906123fb906001906145c1565b905081811461246057600086600001828154811061241b5761241b614456565b906000526020600020015490508087600001848154811061243e5761243e614456565b6000918252602080832090910192909255918252600188019052604090208390555b8554869080612471576124716145d4565b600190038181906000526020600020016000905590558560010160008681526020019081526020016000206000905560019350505050610fb4565b6000915050610fb4565b60008181526001830160205260408120546124fd57508154600181810184556000848152602080822090930184905584548482528286019093526040902091909155610fb4565b506000610fb4565b61066e82826131c7565b60045460ff161561066e5760405162461bcd60e51b815260206004820152600b60248201527f5441534b5f504155534544000000000000000000000000000000000000000000604482015260640161072e565b5a600555600654158061257757506006543a11155b6125c35760405162461bcd60e51b815260206004820152601460248201527f5441534b5f4741535f50524943455f4c494d4954000000000000000000000000604482015260640161072e565b60075415806125dd57506007546125da483a6145c1565b11155b61066e5760405162461bcd60e51b815260206004820152601760248201527f5441534b5f5052494f524954595f4645455f4c494d4954000000000000000000604482015260640161072e565b600b5442101561267b5760405162461bcd60e51b815260206004820152601a60248201527f5441534b5f54494d455f4c4f434b5f4e4f545f45585049524544000000000000604482015260640161072e565b600c541561066e576000600b544261269391906145c1565b90506000600a54826126a59190614632565b90506000600a54826126b7919061466d565b6126c190846145c1565b9050600c548111156108735760405162461bcd60e51b815260206004820152601f60248201527f5441534b5f54494d455f4c4f434b5f574149545f4e4558545f504552494f4400604482015260640161072e565b6000612722600e84613233565b905060006001600d5460ff16600181111561273f5761273f613f7d565b1461274b57811561274d565b815b905080610edc5760405162461bcd60e51b815260206004820152601660248201527f5441534b5f544f4b454e5f4e4f545f414c4c4f57454400000000000000000000604482015260640161072e565b60006127a783610b00565b80519091506001600160a01b03166127be57505050565b6000836001600160a01b031682600001516001600160a01b0316146127fa576127f56127ee858460000151612d37565b8490612d43565b6127fc565b825b9050600082602001518210158015612824575060408301511580612824575082604001518211155b9050806108735760405162461bcd60e51b815260206004820152601c60248201527f5441534b5f544f4b454e5f5448524553484f4c445f4e4f545f4d455400000000604482015260640161072e565b600061287e83611c4d565b6040805160a08101825282546001600160a01b0316808252600184015460208301526002840154928201929092526003830154606082015260049092015460808301529091506128cd57505050565b6000836001600160a01b031682600001516001600160a01b031614612902576128fd6127ee858460000151612d37565b612904565b825b905060008260800151421061291a576000612920565b82604001515b61292a90836145ae565b905082602001518111156108735760405162461bcd60e51b815260206004820152601a60248201527f5441534b5f564f4c554d455f4c494d49545f4558434545444544000000000000604482015260640161072e565b600061298b83611c4d565b80549091506001600160a01b03166129a257505050565b80546000906001600160a01b038581169116146129d85781546129d3906127ee9086906001600160a01b0316612d37565b6129da565b825b905081600401544210612a03576000600283015560038201546129fd90426145ae565b60048301555b80826002016000828254612a1791906145ae565b909155505050505050565b600a541561066e576000600b54600003612a4a57600a54612a4390426145ae565b9050612a99565b6000600b5442612a5a91906145c1565b90506000600a5482612a6c9190614632565b612a779060016145ae565b9050600a5481612a87919061466d565b600b54612a9491906145ae565b925050505b61079181611d96565b600060055411612af45760405162461bcd60e51b815260206004820152601860248201527f5441534b5f4741535f4e4f545f494e495449414c495a45440000000000000000604482015260640161072e565b60005a600554612b0491906145c1565b90506000612b123a8361466d565b905060085460001480612b2757506008548111155b612b735760405162461bcd60e51b815260206004820152601260248201527f5441534b5f54585f434f53545f4c494d49540000000000000000000000000000604482015260640161072e565b600060055560095415610edc5760008311612bd05760405162461bcd60e51b815260206004820152601660248201527f5441534b5f54585f434f53545f4c494d49545f50435400000000000000000000604482015260640161072e565b6000612c9e306001600160a01b0316634fd49efd6040518163ffffffff1660e01b8152600401602060405180830381865afa158015612c13573d6000803e3d6000fd5b505050506040513d601f19601f82011682018060405250810190612c379190614684565b6001600160a01b03166317fcb39b6040518163ffffffff1660e01b8152600401602060405180830381865afa158015612c74573d6000803e3d6000fd5b505050506040513d601f19601f82011682018060405250810190612c989190614684565b86612d37565b90506000612cac8383613255565b600954909150612cbc8287613306565b11156120515760405162461bcd60e51b815260206004820152601660248201527f5441534b5f54585f434f53545f4c494d49545f50435400000000000000000000604482015260640161072e565b6040517f68f46c45a243a0e9065a97649faf9a5afe1692f2679e650c2f853b9cd734cc0e90600090a15050565b6000611c7b83836133f1565b6000828202831580612d63575082848281612d6057612d60614603565b04145b612daf5760405162461bcd60e51b815260206004820152600c60248201527f4d554c5f4f564552464c4f570000000000000000000000000000000000000000604482015260640161072e565b670de0b6b3a764000090049392505050565b600054610100900460ff16612e2c5760405162461bcd60e51b815260206004820152602b60248201527f496e697469616c697a61626c653a20636f6e7472616374206973206e6f74206960448201526a6e697469616c697a696e6760a81b606482015260840161072e565b612e9a81600001516001600160a01b031663d09edf316040518163ffffffff1660e01b8152600401602060405180830381865afa158015612e71573d6000803e3d6000fd5b505050506040513d601f19601f82011682018060405250810190612e959190614684565b61356b565b611901816135df565b600054610100900460ff16612f0e5760405162461bcd60e51b815260206004820152602b60248201527f496e697469616c697a61626c653a20636f6e7472616374206973206e6f74206960448201526a6e697469616c697a696e6760a81b606482015260840161072e565b612f16613697565b565b600054610100900460ff16612f835760405162461bcd60e51b815260206004820152602b60248201527f496e697469616c697a61626c653a20636f6e7472616374206973206e6f74206960448201526a6e697469616c697a696e6760a81b606482015260840161072e565b61190181613702565b600054610100900460ff16612ff75760405162461bcd60e51b815260206004820152602b60248201527f496e697469616c697a61626c653a20636f6e7472616374206973206e6f74206960448201526a6e697469616c697a696e6760a81b606482015260840161072e565b6119018161379f565b600054610100900460ff1661306b5760405162461bcd60e51b815260206004820152602b60248201527f496e697469616c697a61626c653a20636f6e7472616374206973206e6f74206960448201526a6e697469616c697a696e6760a81b606482015260840161072e565b6119018161382f565b600054610100900460ff166130df5760405162461bcd60e51b815260206004820152602b60248201527f496e697469616c697a61626c653a20636f6e7472616374206973206e6f74206960448201526a6e697469616c697a696e6760a81b606482015260840161072e565b611901816138ef565b600054610100900460ff166131535760405162461bcd60e51b815260206004820152602b60248201527f496e697469616c697a61626c653a20636f6e7472616374206973206e6f74206960448201526a6e697469616c697a696e6760a81b606482015260840161072e565b611901816139df565b600054610100900460ff166119015760405162461bcd60e51b815260206004820152602b60248201527f496e697469616c697a61626c653a20636f6e7472616374206973206e6f74206960448201526a6e697469616c697a696e6760a81b606482015260840161072e565b6002541561066e576001546002546040517feb056bbb00000000000000000000000000000000000000000000000000000000815260048101919091526001600160a01b03848116602483015260448201849052600060648301529091169063eb056bbb90608401612023565b6001600160a01b03811660009081526001830160205260408120541515611c7b565b600082820283158061327557508284828161327257613272614603565b04145b6132c15760405162461bcd60e51b815260206004820152600c60248201527f4d554c5f4f564552464c4f570000000000000000000000000000000000000000604482015260640161072e565b80156132fc57670de0b6b3a76400007fffffffffffffffffffffffffffffffffffffffffffffffffffffffffffffffff820104600101611e61565b6000949350505050565b6000816000036133585760405162461bcd60e51b815260206004820152600d60248201527f5a45524f5f4449564953494f4e00000000000000000000000000000000000000604482015260640161072e565b8260000361336857506000610fb4565b670de0b6b3a76400008381029084828161338457613384614603565b04146133d25760405162461bcd60e51b815260206004820152600c60248201527f4449565f494e5445524e414c0000000000000000000000000000000000000000604482015260640161072e565b8260018203816133e4576133e4614603565b0460010191505092915050565b600080600160009054906101000a90046001600160a01b03166001600160a01b0316632630c12f6040518163ffffffff1660e01b8152600401602060405180830381865afa158015613447573d6000803e3d6000fd5b505050506040513d601f19601f8201168201806040525081019061346b9190614684565b90506001600160a01b0381166134c35760405162461bcd60e51b815260206004820152601960248201527f5441534b5f50524943455f4f5241434c455f4e4f545f53455400000000000000604482015260640161072e565b806001600160a01b031663ac41865a6134db86613acf565b6134e486613acf565b6040517fffffffff0000000000000000000000000000000000000000000000000000000060e085901b1681526001600160a01b03928316600482015291166024820152604401602060405180830381865afa158015613547573d6000803e3d6000fd5b505050506040513d601f19601f82011682018060405250810190611e6191906144ec565b600054610100900460ff166135d65760405162461bcd60e51b815260206004820152602b60248201527f496e697469616c697a61626c653a20636f6e7472616374206973206e6f74206960448201526a6e697469616c697a696e6760a81b606482015260840161072e565b61190181613b03565b600054610100900460ff1661364a5760405162461bcd60e51b815260206004820152602b60248201527f496e697469616c697a61626c653a20636f6e7472616374206973206e6f74206960448201526a6e697469616c697a696e6760a81b606482015260840161072e565b8051600180547fffffffffffffffffffffffff0000000000000000000000000000000000000000166001600160a01b0390921691909117905560208101516040820151611901919061195e565b600054610100900460ff16612f165760405162461bcd60e51b815260206004820152602b60248201527f496e697469616c697a61626c653a20636f6e7472616374206973206e6f74206960448201526a6e697469616c697a696e6760a81b606482015260840161072e565b600054610100900460ff1661376d5760405162461bcd60e51b815260206004820152602b60248201527f496e697469616c697a61626c653a20636f6e7472616374206973206e6f74206960448201526a6e697469616c697a696e6760a81b606482015260840161072e565b805161377890611335565b6137858160200151611642565b61379281604001516112f9565b6119018160600151611c82565b600054610100900460ff1661380a5760405162461bcd60e51b815260206004820152602b60248201527f496e697469616c697a61626c653a20636f6e7472616374206973206e6f74206960448201526a6e697469616c697a696e6760a81b606482015260840161072e565b805161381590611b6a565b6138228160200151611d96565b6119018160400151611d0f565b600054610100900460ff1661389a5760405162461bcd60e51b815260206004820152602b60248201527f496e697469616c697a61626c653a20636f6e7472616374206973206e6f74206960448201526a6e697469616c697a696e6760a81b606482015260840161072e565b80516138a5906115d2565b60005b81602001515181101561066e576138dd826020015182815181106138ce576138ce614456565b60200260200101516001611386565b806138e7816144b4565b9150506138a8565b600054610100900460ff1661395a5760405162461bcd60e51b815260206004820152602b60248201527f496e697469616c697a61626c653a20636f6e7472616374206973206e6f74206960448201526a6e697469616c697a696e6760a81b606482015260840161072e565b8051805160208201516040830151613973929190611bf1565b60005b8260200151518110156107915760008360200151828151811061399b5761399b614456565b602002602001015190506000816020015190506139ca8260000151826000015183602001518460400151611503565b505080806139d7906144b4565b915050613976565b600054610100900460ff16613a4a5760405162461bcd60e51b815260206004820152602b60248201527f496e697469616c697a61626c653a20636f6e7472616374206973206e6f74206960448201526a6e697469616c697a696e6760a81b606482015260840161072e565b8051805160208201516040830151613a63929190611a48565b60005b82602001515181101561079157600083602001518281518110613a8b57613a8b614456565b60200260200101519050600081602001519050613aba82600001518260000151836020015184604001516117aa565b50508080613ac7906144b4565b915050613a66565b600073eeeeeeeeeeeeeeeeeeeeeeeeeeeeeeeeeeeeeeee6001600160a01b03831614613afb5781610fb4565b610fb4613bae565b600054610100900460ff16613b6e5760405162461bcd60e51b815260206004820152602b60248201527f496e697469616c697a61626c653a20636f6e7472616374206973206e6f74206960448201526a6e697469616c697a696e6760a81b606482015260840161072e565b600080546001600160a01b0390921662010000027fffffffffffffffffffff0000000000000000000000000000000000000000ffff909216919091179055565b600154604080517f17fcb39b00000000000000000000000000000000000000000000000000000000815290516000926001600160a01b0316916317fcb39b9160048083019260209291908290030181865afa158015613c11573d6000803e3d6000fd5b505050506040513d601f19601f82011682018060405250810190613c359190614684565b905090565b600060208284031215613c4c57600080fd5b5035919050565b7f4e487b7100000000000000000000000000000000000000000000000000000000600052604160045260246000fd5b6040516060810167ffffffffffffffff81118282101715613ca557613ca5613c53565b60405290565b6040805190810167ffffffffffffffff81118282101715613ca557613ca5613c53565b60405160c0810167ffffffffffffffff81118282101715613ca557613ca5613c53565b604051601f82017fffffffffffffffffffffffffffffffffffffffffffffffffffffffffffffffe016810167ffffffffffffffff81118282101715613d3857613d38613c53565b604052919050565b600067ffffffffffffffff821115613d5a57613d5a613c53565b5060051b60200190565b6001600160a01b038116811461190157600080fd5b600082601f830112613d8a57600080fd5b81356020613d9f613d9a83613d40565b613cf1565b82815260059290921b84018101918181019086841115613dbe57600080fd5b8286015b84811015613de2578035613dd581613d64565b8352918301918301613dc2565b509695505050505050565b801515811461190157600080fd5b60008060408385031215613e0e57600080fd5b823567ffffffffffffffff80821115613e2657600080fd5b613e3286838701613d79565b9350602091508185013581811115613e4957600080fd5b85019050601f81018613613e5c57600080fd5b8035613e6a613d9a82613d40565b81815260059190911b82018301908381019088831115613e8957600080fd5b928401925b82841015613eb0578335613ea181613ded565b82529284019290840190613e8e565b80955050505050509250929050565b600060208284031215613ed157600080fd5b8135611c7b81613d64565b60008060008060808587031215613ef257600080fd5b8435613efd81613d64565b93506020850135613f0d81613d64565b93969395505050506040820135916060013590565b803560028110613f3157600080fd5b919050565b600060208284031215613f4857600080fd5b611c7b82613f22565b60008060408385031215613f6457600080fd5b8235613f6f81613d64565b946020939093013593505050565b7f4e487b7100000000000000000000000000000000000000000000000000000000600052602160045260246000fd5b6020810160028310613fe7577f4e487b7100000000000000000000000000000000000000000000000000000000600052602160045260246000fd5b91905290565b600060608284031215613fff57600080fd5b614007613c82565b9050813561401481613d64565b80825250602082013560208201526040820135604082015292915050565b60006080828403121561404457600080fd5b6040516080810181811067ffffffffffffffff8211171561406757614067613c53565b8060405250809150823581526020830135602082015260408301356040820152606083013560608201525092915050565b6000606082840312156140aa57600080fd5b6140b2613c82565b905081358152602082013560208201526040820135604082015292915050565b6000604082840312156140e457600080fd5b6140ec613cab565b90506140f782613f22565b8152602082013567ffffffffffffffff81111561411357600080fd5b61411f84828501613d79565b60208301525092915050565b60006080828403121561413d57600080fd5b614145613cab565b9050813561415281613d64565b81526141618360208401613fed565b602082015292915050565b6000608080838503121561417f57600080fd5b614187613cab565b91506141938484613fed565b8252606083013567ffffffffffffffff8111156141af57600080fd5b8301601f810185136141c057600080fd5b803560206141d0613d9a83613d40565b82815260079290921b830181019181810190888411156141ef57600080fd5b938201935b8385101561421557614206898661412b565b825293850193908201906141f4565b808388015250505050505092915050565b6000608080838503121561423957600080fd5b614241613cab565b915061424d8484613fed565b8252606083013567ffffffffffffffff81111561426957600080fd5b8301601f8101851361427a57600080fd5b8035602061428a613d9a83613d40565b82815260079290921b830181019181810190888411156142a957600080fd5b938201935b83851015614215576142c0898661412b565b825293850193908201906142ae565b6000602082840312156142e157600080fd5b813567ffffffffffffffff808211156142f957600080fd5b908301906040828603121561430d57600080fd5b614315613cab565b823561432081613d64565b815260208301358281111561433457600080fd5b92909201916101a0838703121561434a57600080fd5b614352613cce565b61435c8785613fed565b815261436b8760608601614032565b602082015261437d8760e08601614098565b60408201526101408401358381111561439557600080fd5b6143a1888287016140d2565b606083015250610160840135838111156143ba57600080fd5b6143c68882870161416c565b608083015250610180840135838111156143df57600080fd5b6143eb88828701614226565b60a083015250602082015295945050505050565b6000806040838503121561441257600080fd5b50508035926020909101359150565b60008060006060848603121561443657600080fd5b833561444181613d64565b95602085013595506040909401359392505050565b7f4e487b7100000000000000000000000000000000000000000000000000000000600052603260045260246000fd5b7f4e487b7100000000000000000000000000000000000000000000000000000000600052601160045260246000fd5b60007fffffffffffffffffffffffffffffffffffffffffffffffffffffffffffffffff82036144e5576144e5614485565b5060010190565b6000602082840312156144fe57600080fd5b5051919050565b6000608082016001600160a01b0380881684526020818816818601527fffffffff000000000000000000000000000000000000000000000000000000008716604086015260806060860152829150855180845260a086019250818701935060005b8181101561458257845184529382019392820192600101614566565b50919998505050505050505050565b6000602082840312156145a357600080fd5b8151611c7b81613ded565b80820180821115610fb457610fb4614485565b81810381811115610fb457610fb4614485565b7f4e487b7100000000000000000000000000000000000000000000000000000000600052603160045260246000fd5b7f4e487b7100000000000000000000000000000000000000000000000000000000600052601260045260246000fd5b600082614668577f4e487b7100000000000000000000000000000000000000000000000000000000600052601260045260246000fd5b500490565b8082028115828204841417610fb457610fb4614485565b60006020828403121561469657600080fd5b8151611c7b81613d6456fea2646970667358221220f217b3004dad511a62e0f539a5a7c90cb3b1fedcb3c3c6e65af46f30c0d3b9c064736f6c63430008110033","opcodes":"PUSH1 0x80 PUSH1 0x40 MSTORE CALLVALUE DUP1 ISZERO PUSH3 0x11 JUMPI PUSH1 0x0 DUP1 REVERT JUMPDEST POP PUSH3 0x1C PUSH3 0x22 JUMP JUMPDEST PUSH3 0xE4 JUMP JUMPDEST PUSH1 0x0 SLOAD PUSH2 0x100 SWAP1 DIV PUSH1 0xFF AND ISZERO PUSH3 0x8F JUMPI PUSH1 0x40 MLOAD PUSH3 0x461BCD PUSH1 0xE5 SHL DUP2 MSTORE PUSH1 0x20 PUSH1 0x4 DUP3 ADD MSTORE PUSH1 0x27 PUSH1 0x24 DUP3 ADD MSTORE PUSH32 0x496E697469616C697A61626C653A20636F6E747261637420697320696E697469 PUSH1 0x44 DUP3 ADD MSTORE PUSH7 0x616C697A696E67 PUSH1 0xC8 SHL PUSH1 0x64 DUP3 ADD MSTORE PUSH1 0x84 ADD PUSH1 0x40 MLOAD DUP1 SWAP2 SUB SWAP1 REVERT JUMPDEST PUSH1 0x0 SLOAD PUSH1 0xFF SWAP1 DUP2 AND LT ISZERO PUSH3 0xE2 JUMPI PUSH1 0x0 DUP1 SLOAD PUSH1 0xFF NOT AND PUSH1 0xFF SWAP1 DUP2 OR SWAP1 SWAP2 SSTORE PUSH1 0x40 MLOAD SWAP1 DUP2 MSTORE PUSH32 0x7F26B83FF96E1F2B6A682F133852F6798A09C465DA95921460CEFB3847402498 SWAP1 PUSH1 0x20 ADD PUSH1 0x40 MLOAD DUP1 SWAP2 SUB SWAP1 LOG1 JUMPDEST JUMP JUMPDEST PUSH2 0x46D7 DUP1 PUSH3 0xF4 PUSH1 0x0 CODECOPY PUSH1 0x0 RETURN INVALID PUSH1 0x80 PUSH1 0x40 MSTORE CALLVALUE DUP1 ISZERO PUSH2 0x10 JUMPI PUSH1 0x0 DUP1 REVERT JUMPDEST POP PUSH1 0x4 CALLDATASIZE LT PUSH2 0x2D3 JUMPI PUSH1 0x0 CALLDATALOAD PUSH1 0xE0 SHR DUP1 PUSH4 0x8456CB59 GT PUSH2 0x186 JUMPI DUP1 PUSH4 0xB187BD26 GT PUSH2 0xE3 JUMPI DUP1 PUSH4 0xD45A76CF GT PUSH2 0x97 JUMPI DUP1 PUSH4 0xEE98CF6D GT PUSH2 0x71 JUMPI DUP1 PUSH4 0xEE98CF6D EQ PUSH2 0x5FE JUMPI DUP1 PUSH4 0xF440284B EQ PUSH2 0x611 JUMPI DUP1 PUSH4 0xF605145B EQ PUSH2 0x624 JUMPI PUSH1 0x0 DUP1 REVERT JUMPDEST DUP1 PUSH4 0xD45A76CF EQ PUSH2 0x5CF JUMPI DUP1 PUSH4 0xD4DFD588 EQ PUSH2 0x5E2 JUMPI DUP1 PUSH4 0xDCCF56CE EQ PUSH2 0x5EB JUMPI PUSH1 0x0 DUP1 REVERT JUMPDEST DUP1 PUSH4 0xC49A91FE GT PUSH2 0xC8 JUMPI DUP1 PUSH4 0xC49A91FE EQ PUSH2 0x590 JUMPI DUP1 PUSH4 0xD09EDF31 EQ PUSH2 0x5A3 JUMPI DUP1 PUSH4 0xD3FEB602 EQ PUSH2 0x5BC JUMPI PUSH1 0x0 DUP1 REVERT JUMPDEST DUP1 PUSH4 0xB187BD26 EQ PUSH2 0x562 JUMPI DUP1 PUSH4 0xC267621E EQ PUSH2 0x57F JUMPI PUSH1 0x0 DUP1 REVERT JUMPDEST DUP1 PUSH4 0x993FD4DE GT PUSH2 0x13A JUMPI DUP1 PUSH4 0xA3374177 GT PUSH2 0x11F JUMPI DUP1 PUSH4 0xA3374177 EQ PUSH2 0x53E JUMPI DUP1 PUSH4 0xA5900C4D EQ PUSH2 0x546 JUMPI DUP1 PUSH4 0xAB76D408 EQ PUSH2 0x559 JUMPI PUSH1 0x0 DUP1 REVERT JUMPDEST DUP1 PUSH4 0x993FD4DE EQ PUSH2 0x518 JUMPI DUP1 PUSH4 0xA0C3774F EQ PUSH2 0x52B JUMPI PUSH1 0x0 DUP1 REVERT JUMPDEST DUP1 PUSH4 0x8BBC6446 GT PUSH2 0x16B JUMPI DUP1 PUSH4 0x8BBC6446 EQ PUSH2 0x4F3 JUMPI DUP1 PUSH4 0x90333BA8 EQ PUSH2 0x4FC JUMPI DUP1 PUSH4 0x961A929C EQ PUSH2 0x50F JUMPI PUSH1 0x0 DUP1 REVERT JUMPDEST DUP1 PUSH4 0x8456CB59 EQ PUSH2 0x4E2 JUMPI DUP1 PUSH4 0x85538533 EQ PUSH2 0x4EA JUMPI PUSH1 0x0 DUP1 REVERT JUMPDEST DUP1 PUSH4 0x42D4693E GT PUSH2 0x234 JUMPI DUP1 PUSH4 0x60343C2F GT PUSH2 0x1E8 JUMPI DUP1 PUSH4 0x6CD8FCA7 GT PUSH2 0x1CD JUMPI DUP1 PUSH4 0x6CD8FCA7 EQ PUSH2 0x4BD JUMPI DUP1 PUSH4 0x7125590A EQ PUSH2 0x4C6 JUMPI DUP1 PUSH4 0x7D43D4ED EQ PUSH2 0x4D9 JUMPI PUSH1 0x0 DUP1 REVERT JUMPDEST DUP1 PUSH4 0x60343C2F EQ PUSH2 0x4A2 JUMPI DUP1 PUSH4 0x6AACAAD8 EQ PUSH2 0x4B5 JUMPI PUSH1 0x0 DUP1 REVERT JUMPDEST DUP1 PUSH4 0x4FD49EFD GT PUSH2 0x219 JUMPI DUP1 PUSH4 0x4FD49EFD EQ PUSH2 0x430 JUMPI DUP1 PUSH4 0x51A424B1 EQ PUSH2 0x45B JUMPI DUP1 PUSH4 0x5D28414C EQ PUSH2 0x499 JUMPI PUSH1 0x0 DUP1 REVERT JUMPDEST DUP1 PUSH4 0x42D4693E EQ PUSH2 0x3E1 JUMPI DUP1 PUSH4 0x4A45A3A8 EQ PUSH2 0x3FB JUMPI PUSH1 0x0 DUP1 REVERT JUMPDEST DUP1 PUSH4 0x30EAE572 GT PUSH2 0x28B JUMPI DUP1 PUSH4 0x3BD9EF28 GT PUSH2 0x270 JUMPI DUP1 PUSH4 0x3BD9EF28 EQ PUSH2 0x3B3 JUMPI DUP1 PUSH4 0x3F4BA83A EQ PUSH2 0x3C6 JUMPI DUP1 PUSH4 0x423A4B40 EQ PUSH2 0x3CE JUMPI PUSH1 0x0 DUP1 REVERT JUMPDEST DUP1 PUSH4 0x30EAE572 EQ PUSH2 0x38D JUMPI DUP1 PUSH4 0x34077ACC EQ PUSH2 0x3A0 JUMPI PUSH1 0x0 DUP1 REVERT JUMPDEST DUP1 PUSH4 0x21972384 GT PUSH2 0x2BC JUMPI DUP1 PUSH4 0x21972384 EQ PUSH2 0x300 JUMPI DUP1 PUSH4 0x221A8C68 EQ PUSH2 0x313 JUMPI DUP1 PUSH4 0x2384C32D EQ PUSH2 0x37A JUMPI PUSH1 0x0 DUP1 REVERT JUMPDEST DUP1 PUSH4 0x652095D EQ PUSH2 0x2D8 JUMPI DUP1 PUSH4 0x9231602 EQ PUSH2 0x2ED JUMPI JUMPDEST PUSH1 0x0 DUP1 REVERT JUMPDEST PUSH2 0x2EB PUSH2 0x2E6 CALLDATASIZE PUSH1 0x4 PUSH2 0x3C3A JUMP JUMPDEST PUSH2 0x62D JUMP JUMPDEST STOP JUMPDEST PUSH2 0x2EB PUSH2 0x2FB CALLDATASIZE PUSH1 0x4 PUSH2 0x3C3A JUMP JUMPDEST PUSH2 0x672 JUMP JUMPDEST PUSH2 0x2EB PUSH2 0x30E CALLDATASIZE PUSH1 0x4 PUSH2 0x3DFB JUMP JUMPDEST PUSH2 0x6B3 JUMP JUMPDEST PUSH2 0x326 PUSH2 0x321 CALLDATASIZE PUSH1 0x4 PUSH2 0x3EBF JUMP JUMPDEST PUSH2 0x796 JUMP JUMPDEST PUSH1 0x40 MLOAD PUSH2 0x371 SWAP2 SWAP1 PUSH1 0x0 PUSH1 0xA0 DUP3 ADD SWAP1 POP PUSH1 0x1 PUSH1 0x1 PUSH1 0xA0 SHL SUB DUP4 MLOAD AND DUP3 MSTORE PUSH1 0x20 DUP4 ADD MLOAD PUSH1 0x20 DUP4 ADD MSTORE PUSH1 0x40 DUP4 ADD MLOAD PUSH1 0x40 DUP4 ADD MSTORE PUSH1 0x60 DUP4 ADD MLOAD PUSH1 0x60 DUP4 ADD MSTORE PUSH1 0x80 DUP4 ADD MLOAD PUSH1 0x80 DUP4 ADD MSTORE SWAP3 SWAP2 POP POP JUMP JUMPDEST PUSH1 0x40 MLOAD DUP1 SWAP2 SUB SWAP1 RETURN JUMPDEST PUSH2 0x2EB PUSH2 0x388 CALLDATASIZE PUSH1 0x4 PUSH2 0x3EDC JUMP JUMPDEST PUSH2 0x82C JUMP JUMPDEST PUSH2 0x2EB PUSH2 0x39B CALLDATASIZE PUSH1 0x4 PUSH2 0x3F36 JUMP JUMPDEST PUSH2 0x87A JUMP JUMPDEST PUSH2 0x2EB PUSH2 0x3AE CALLDATASIZE PUSH1 0x4 PUSH2 0x3C3A JUMP JUMPDEST PUSH2 0x8CF JUMP JUMPDEST PUSH2 0x2EB PUSH2 0x3C1 CALLDATASIZE PUSH1 0x4 PUSH2 0x3F51 JUMP JUMPDEST PUSH2 0x910 JUMP JUMPDEST PUSH2 0x2EB PUSH2 0x9E6 JUMP JUMPDEST PUSH2 0x2EB PUSH2 0x3DC CALLDATASIZE PUSH1 0x4 PUSH2 0x3EDC JUMP JUMPDEST PUSH2 0xAB9 JUMP JUMPDEST PUSH1 0xD SLOAD PUSH2 0x3EE SWAP1 PUSH1 0xFF AND DUP2 JUMP JUMPDEST PUSH1 0x40 MLOAD PUSH2 0x371 SWAP2 SWAP1 PUSH2 0x3FAC JUMP JUMPDEST PUSH2 0x422 PUSH32 0xCBCE9983FCD5FC099294DB3138F1660107F2BD5B23B9FA0002D7DF1DB9D854CB DUP2 JUMP JUMPDEST PUSH1 0x40 MLOAD SWAP1 DUP2 MSTORE PUSH1 0x20 ADD PUSH2 0x371 JUMP JUMPDEST PUSH1 0x1 SLOAD PUSH2 0x443 SWAP1 PUSH1 0x1 PUSH1 0x1 PUSH1 0xA0 SHL SUB AND DUP2 JUMP JUMPDEST PUSH1 0x40 MLOAD PUSH1 0x1 PUSH1 0x1 PUSH1 0xA0 SHL SUB SWAP1 SWAP2 AND DUP2 MSTORE PUSH1 0x20 ADD PUSH2 0x371 JUMP JUMPDEST PUSH2 0x46E PUSH2 0x469 CALLDATASIZE PUSH1 0x4 PUSH2 0x3EBF JUMP JUMPDEST PUSH2 0xB00 JUMP JUMPDEST PUSH1 0x40 DUP1 MLOAD DUP3 MLOAD PUSH1 0x1 PUSH1 0x1 PUSH1 0xA0 SHL SUB AND DUP2 MSTORE PUSH1 0x20 DUP1 DUP5 ADD MLOAD SWAP1 DUP3 ADD MSTORE SWAP2 DUP2 ADD MLOAD SWAP1 DUP3 ADD MSTORE PUSH1 0x60 ADD PUSH2 0x371 JUMP JUMPDEST PUSH2 0x422 PUSH1 0xB SLOAD DUP2 JUMP JUMPDEST PUSH2 0x2EB PUSH2 0x4B0 CALLDATASIZE PUSH1 0x4 PUSH2 0x42CF JUMP JUMPDEST PUSH2 0xB8B JUMP JUMPDEST PUSH2 0x326 PUSH2 0xD04 JUMP JUMPDEST PUSH2 0x422 PUSH1 0x7 SLOAD DUP2 JUMP JUMPDEST PUSH2 0x2EB PUSH2 0x4D4 CALLDATASIZE PUSH1 0x4 PUSH2 0x43FF JUMP JUMPDEST PUSH2 0xD7D JUMP JUMPDEST PUSH2 0x422 PUSH1 0x8 SLOAD DUP2 JUMP JUMPDEST PUSH2 0x2EB PUSH2 0xDC0 JUMP JUMPDEST PUSH2 0x422 PUSH1 0xC SLOAD DUP2 JUMP JUMPDEST PUSH2 0x422 PUSH1 0xA SLOAD DUP2 JUMP JUMPDEST PUSH2 0x2EB PUSH2 0x50A CALLDATASIZE PUSH1 0x4 PUSH2 0x4421 JUMP JUMPDEST PUSH2 0xE97 JUMP JUMPDEST PUSH2 0x422 PUSH1 0x6 SLOAD DUP2 JUMP JUMPDEST PUSH2 0x2EB PUSH2 0x526 CALLDATASIZE PUSH1 0x4 PUSH2 0x3EBF JUMP JUMPDEST PUSH2 0xEE2 JUMP JUMPDEST PUSH2 0x422 PUSH2 0x539 CALLDATASIZE PUSH1 0x4 PUSH2 0x3EBF JUMP JUMPDEST PUSH2 0xF23 JUMP JUMPDEST PUSH2 0x46E PUSH2 0xFBA JUMP JUMPDEST PUSH2 0x46E PUSH2 0x554 CALLDATASIZE PUSH1 0x4 PUSH2 0x3EBF JUMP JUMPDEST PUSH2 0x1015 JUMP JUMPDEST PUSH2 0x422 PUSH1 0x2 SLOAD DUP2 JUMP JUMPDEST PUSH1 0x4 SLOAD PUSH2 0x56F SWAP1 PUSH1 0xFF AND DUP2 JUMP JUMPDEST PUSH1 0x40 MLOAD SWAP1 ISZERO ISZERO DUP2 MSTORE PUSH1 0x20 ADD PUSH2 0x371 JUMP JUMPDEST PUSH1 0x1A SLOAD PUSH1 0x1 PUSH1 0x1 PUSH1 0xA0 SHL SUB AND PUSH2 0x443 JUMP JUMPDEST PUSH2 0x2EB PUSH2 0x59E CALLDATASIZE PUSH1 0x4 PUSH2 0x3C3A JUMP JUMPDEST PUSH2 0x1086 JUMP JUMPDEST PUSH1 0x0 SLOAD PUSH2 0x443 SWAP1 PUSH3 0x10000 SWAP1 DIV PUSH1 0x1 PUSH1 0x1 PUSH1 0xA0 SHL SUB AND DUP2 JUMP JUMPDEST PUSH2 0x2EB PUSH2 0x5CA CALLDATASIZE PUSH1 0x4 PUSH2 0x4421 JUMP JUMPDEST PUSH2 0x10C7 JUMP JUMPDEST PUSH2 0x326 PUSH2 0x5DD CALLDATASIZE PUSH1 0x4 PUSH2 0x3EBF JUMP JUMPDEST PUSH2 0x110C JUMP JUMPDEST PUSH2 0x422 PUSH1 0x9 SLOAD DUP2 JUMP JUMPDEST PUSH2 0x2EB PUSH2 0x5F9 CALLDATASIZE PUSH1 0x4 PUSH2 0x3C3A JUMP JUMPDEST PUSH2 0x1198 JUMP JUMPDEST PUSH2 0x2EB PUSH2 0x60C CALLDATASIZE PUSH1 0x4 PUSH2 0x3C3A JUMP JUMPDEST PUSH2 0x11D9 JUMP JUMPDEST PUSH2 0x2EB PUSH2 0x61F CALLDATASIZE PUSH1 0x4 PUSH2 0x3C3A JUMP JUMPDEST PUSH2 0x121A JUMP JUMPDEST PUSH2 0x422 PUSH1 0x3 SLOAD DUP2 JUMP JUMPDEST PUSH2 0x636 DUP2 PUSH2 0x125B JUMP JUMPDEST PUSH2 0x665 CALLER PUSH1 0x0 CALLDATALOAD PUSH32 0xFFFFFFFF00000000000000000000000000000000000000000000000000000000 AND DUP4 PUSH2 0x12A2 JUMP JUMPDEST PUSH2 0x66E DUP3 PUSH2 0x12F9 JUMP JUMPDEST POP POP JUMP JUMPDEST PUSH2 0x67B DUP2 PUSH2 0x125B JUMP JUMPDEST PUSH2 0x6AA CALLER PUSH1 0x0 CALLDATALOAD PUSH32 0xFFFFFFFF00000000000000000000000000000000000000000000000000000000 AND DUP4 PUSH2 0x12A2 JUMP JUMPDEST PUSH2 0x66E DUP3 PUSH2 0x1335 JUMP JUMPDEST PUSH2 0x6E1 CALLER PUSH1 0x0 CALLDATALOAD PUSH32 0xFFFFFFFF00000000000000000000000000000000000000000000000000000000 AND PUSH2 0x136A JUMP JUMPDEST DUP1 MLOAD DUP3 MLOAD EQ PUSH2 0x737 JUMPI PUSH1 0x40 MLOAD PUSH3 0x461BCD PUSH1 0xE5 SHL DUP2 MSTORE PUSH1 0x20 PUSH1 0x4 DUP3 ADD MSTORE PUSH1 0x1A PUSH1 0x24 DUP3 ADD MSTORE PUSH32 0x5441534B5F414343455054414E43455F4241445F4C454E475448000000000000 PUSH1 0x44 DUP3 ADD MSTORE PUSH1 0x64 ADD JUMPDEST PUSH1 0x40 MLOAD DUP1 SWAP2 SUB SWAP1 REVERT JUMPDEST PUSH1 0x0 JUMPDEST DUP3 MLOAD DUP2 LT ISZERO PUSH2 0x791 JUMPI PUSH2 0x77F DUP4 DUP3 DUP2 MLOAD DUP2 LT PUSH2 0x758 JUMPI PUSH2 0x758 PUSH2 0x4456 JUMP JUMPDEST PUSH1 0x20 MUL PUSH1 0x20 ADD ADD MLOAD DUP4 DUP4 DUP2 MLOAD DUP2 LT PUSH2 0x772 JUMPI PUSH2 0x772 PUSH2 0x4456 JUMP JUMPDEST PUSH1 0x20 MUL PUSH1 0x20 ADD ADD MLOAD PUSH2 0x1386 JUMP JUMPDEST DUP1 PUSH2 0x789 DUP2 PUSH2 0x44B4 JUMP JUMPDEST SWAP2 POP POP PUSH2 0x73A JUMP JUMPDEST POP POP POP JUMP JUMPDEST PUSH2 0x7D1 PUSH1 0x40 MLOAD DUP1 PUSH1 0xA0 ADD PUSH1 0x40 MSTORE DUP1 PUSH1 0x0 PUSH1 0x1 PUSH1 0x1 PUSH1 0xA0 SHL SUB AND DUP2 MSTORE PUSH1 0x20 ADD PUSH1 0x0 DUP2 MSTORE PUSH1 0x20 ADD PUSH1 0x0 DUP2 MSTORE PUSH1 0x20 ADD PUSH1 0x0 DUP2 MSTORE PUSH1 0x20 ADD PUSH1 0x0 DUP2 MSTORE POP SWAP1 JUMP JUMPDEST POP PUSH1 0x1 PUSH1 0x1 PUSH1 0xA0 SHL SUB SWAP1 DUP2 AND PUSH1 0x0 SWAP1 DUP2 MSTORE PUSH1 0x19 PUSH1 0x20 SWAP1 DUP2 MSTORE PUSH1 0x40 SWAP2 DUP3 SWAP1 KECCAK256 DUP3 MLOAD PUSH1 0xA0 DUP2 ADD DUP5 MSTORE DUP2 SLOAD SWAP1 SWAP5 AND DUP5 MSTORE PUSH1 0x1 DUP2 ADD SLOAD SWAP2 DUP5 ADD SWAP2 SWAP1 SWAP2 MSTORE PUSH1 0x2 DUP2 ADD SLOAD SWAP2 DUP4 ADD SWAP2 SWAP1 SWAP2 MSTORE PUSH1 0x3 DUP2 ADD SLOAD PUSH1 0x60 DUP4 ADD MSTORE PUSH1 0x4 ADD SLOAD PUSH1 0x80 DUP3 ADD MSTORE SWAP1 JUMP JUMPDEST PUSH2 0x838 DUP5 DUP5 DUP5 DUP5 PUSH2 0x1446 JUMP JUMPDEST PUSH2 0x867 CALLER PUSH1 0x0 CALLDATALOAD PUSH32 0xFFFFFFFF00000000000000000000000000000000000000000000000000000000 AND DUP4 PUSH2 0x12A2 JUMP JUMPDEST PUSH2 0x873 DUP6 DUP6 DUP6 DUP6 PUSH2 0x1503 JUMP JUMPDEST POP POP POP POP POP JUMP JUMPDEST PUSH2 0x897 DUP2 PUSH1 0x1 DUP2 GT ISZERO PUSH2 0x88F JUMPI PUSH2 0x88F PUSH2 0x3F7D JUMP JUMPDEST PUSH1 0xFF AND PUSH2 0x125B JUMP JUMPDEST PUSH2 0x8C6 CALLER PUSH1 0x0 CALLDATALOAD PUSH32 0xFFFFFFFF00000000000000000000000000000000000000000000000000000000 AND DUP4 PUSH2 0x12A2 JUMP JUMPDEST PUSH2 0x66E DUP3 PUSH2 0x15D2 JUMP JUMPDEST PUSH2 0x8D8 DUP2 PUSH2 0x125B JUMP JUMPDEST PUSH2 0x907 CALLER PUSH1 0x0 CALLDATALOAD PUSH32 0xFFFFFFFF00000000000000000000000000000000000000000000000000000000 AND DUP4 PUSH2 0x12A2 JUMP JUMPDEST PUSH2 0x66E DUP3 PUSH2 0x1642 JUMP JUMPDEST PUSH2 0x91A DUP3 DUP3 PUSH2 0x1677 JUMP JUMPDEST PUSH2 0x949 CALLER PUSH1 0x0 CALLDATALOAD PUSH32 0xFFFFFFFF00000000000000000000000000000000000000000000000000000000 AND DUP4 PUSH2 0x12A2 JUMP JUMPDEST PUSH2 0x953 DUP4 DUP4 PUSH2 0x16E6 JUMP JUMPDEST PUSH1 0x1 SLOAD PUSH1 0x1A SLOAD PUSH1 0x40 MLOAD PUSH32 0xC8FEA2FB00000000000000000000000000000000000000000000000000000000 DUP2 MSTORE PUSH1 0x1 PUSH1 0x1 PUSH1 0xA0 SHL SUB DUP7 DUP2 AND PUSH1 0x4 DUP4 ADD MSTORE SWAP2 DUP3 AND PUSH1 0x24 DUP3 ADD MSTORE PUSH1 0x44 DUP2 ADD DUP6 SWAP1 MSTORE SWAP2 AND SWAP1 PUSH4 0xC8FEA2FB SWAP1 PUSH1 0x64 ADD PUSH1 0x0 PUSH1 0x40 MLOAD DUP1 DUP4 SUB DUP2 PUSH1 0x0 DUP8 DUP1 EXTCODESIZE ISZERO DUP1 ISZERO PUSH2 0x9C4 JUMPI PUSH1 0x0 DUP1 REVERT JUMPDEST POP GAS CALL ISZERO DUP1 ISZERO PUSH2 0x9D8 JUMPI RETURNDATASIZE PUSH1 0x0 DUP1 RETURNDATACOPY RETURNDATASIZE PUSH1 0x0 REVERT JUMPDEST POP POP POP POP PUSH2 0x791 DUP4 DUP4 PUSH2 0x1796 JUMP JUMPDEST PUSH2 0xA14 CALLER PUSH1 0x0 CALLDATALOAD PUSH32 0xFFFFFFFF00000000000000000000000000000000000000000000000000000000 AND PUSH2 0x136A JUMP JUMPDEST PUSH1 0x4 SLOAD PUSH1 0xFF AND PUSH2 0xA66 JUMPI PUSH1 0x40 MLOAD PUSH3 0x461BCD PUSH1 0xE5 SHL DUP2 MSTORE PUSH1 0x20 PUSH1 0x4 DUP3 ADD MSTORE PUSH1 0x15 PUSH1 0x24 DUP3 ADD MSTORE PUSH32 0x5441534B5F414C52454144595F554E5041555345440000000000000000000000 PUSH1 0x44 DUP3 ADD MSTORE PUSH1 0x64 ADD PUSH2 0x72E JUMP JUMPDEST PUSH1 0x4 DUP1 SLOAD PUSH32 0xFFFFFFFFFFFFFFFFFFFFFFFFFFFFFFFFFFFFFFFFFFFFFFFFFFFFFFFFFFFFFF00 AND SWAP1 SSTORE PUSH1 0x40 MLOAD PUSH32 0xA45F47FDEA8A1EFDD9029A5691C7F759C32B7C698632B563573E155625D16933 SWAP1 PUSH1 0x0 SWAP1 LOG1 JUMP JUMPDEST PUSH2 0xAC5 DUP5 DUP5 DUP5 DUP5 PUSH2 0x1446 JUMP JUMPDEST PUSH2 0xAF4 CALLER PUSH1 0x0 CALLDATALOAD PUSH32 0xFFFFFFFF00000000000000000000000000000000000000000000000000000000 AND DUP4 PUSH2 0x12A2 JUMP JUMPDEST PUSH2 0x873 DUP6 DUP6 DUP6 DUP6 PUSH2 0x17AA JUMP JUMPDEST PUSH2 0xB2D PUSH1 0x40 MLOAD DUP1 PUSH1 0x60 ADD PUSH1 0x40 MSTORE DUP1 PUSH1 0x0 PUSH1 0x1 PUSH1 0x1 PUSH1 0xA0 SHL SUB AND DUP2 MSTORE PUSH1 0x20 ADD PUSH1 0x0 DUP2 MSTORE PUSH1 0x20 ADD PUSH1 0x0 DUP2 MSTORE POP SWAP1 JUMP JUMPDEST PUSH1 0x1 PUSH1 0x1 PUSH1 0xA0 SHL SUB DUP1 DUP4 AND PUSH1 0x0 SWAP1 DUP2 MSTORE PUSH1 0x13 PUSH1 0x20 MSTORE PUSH1 0x40 SWAP1 KECCAK256 DUP1 SLOAD SWAP1 SWAP2 AND ISZERO PUSH2 0xB56 JUMPI DUP1 PUSH2 0xB59 JUMP JUMPDEST PUSH1 0x10 JUMPDEST PUSH1 0x40 DUP1 MLOAD PUSH1 0x60 DUP2 ADD DUP3 MSTORE DUP3 SLOAD PUSH1 0x1 PUSH1 0x1 PUSH1 0xA0 SHL SUB AND DUP2 MSTORE PUSH1 0x1 DUP4 ADD SLOAD PUSH1 0x20 DUP3 ADD MSTORE PUSH1 0x2 SWAP1 SWAP3 ADD SLOAD SWAP1 DUP3 ADD MSTORE SWAP4 SWAP3 POP POP POP JUMP JUMPDEST PUSH1 0x0 SLOAD PUSH2 0x100 SWAP1 DIV PUSH1 0xFF AND ISZERO DUP1 DUP1 ISZERO PUSH2 0xBAB JUMPI POP PUSH1 0x0 SLOAD PUSH1 0x1 PUSH1 0xFF SWAP1 SWAP2 AND LT JUMPDEST DUP1 PUSH2 0xBC5 JUMPI POP ADDRESS EXTCODESIZE ISZERO DUP1 ISZERO PUSH2 0xBC5 JUMPI POP PUSH1 0x0 SLOAD PUSH1 0xFF AND PUSH1 0x1 EQ JUMPDEST PUSH2 0xC37 JUMPI PUSH1 0x40 MLOAD PUSH3 0x461BCD PUSH1 0xE5 SHL DUP2 MSTORE PUSH1 0x20 PUSH1 0x4 DUP3 ADD MSTORE PUSH1 0x2E PUSH1 0x24 DUP3 ADD MSTORE PUSH32 0x496E697469616C697A61626C653A20636F6E747261637420697320616C726561 PUSH1 0x44 DUP3 ADD MSTORE PUSH32 0x647920696E697469616C697A6564000000000000000000000000000000000000 PUSH1 0x64 DUP3 ADD MSTORE PUSH1 0x84 ADD PUSH2 0x72E JUMP JUMPDEST PUSH1 0x0 DUP1 SLOAD PUSH32 0xFFFFFFFFFFFFFFFFFFFFFFFFFFFFFFFFFFFFFFFFFFFFFFFFFFFFFFFFFFFFFF00 AND PUSH1 0x1 OR SWAP1 SSTORE DUP1 ISZERO PUSH2 0xC95 JUMPI PUSH1 0x0 DUP1 SLOAD PUSH32 0xFFFFFFFFFFFFFFFFFFFFFFFFFFFFFFFFFFFFFFFFFFFFFFFFFFFFFFFFFFFF00FF AND PUSH2 0x100 OR SWAP1 SSTORE JUMPDEST PUSH2 0xC9E DUP3 PUSH2 0x1880 JUMP JUMPDEST DUP1 ISZERO PUSH2 0x66E JUMPI PUSH1 0x0 DUP1 SLOAD PUSH32 0xFFFFFFFFFFFFFFFFFFFFFFFFFFFFFFFFFFFFFFFFFFFFFFFFFFFFFFFFFFFF00FF AND SWAP1 SSTORE PUSH1 0x40 MLOAD PUSH1 0x1 DUP2 MSTORE PUSH32 0x7F26B83FF96E1F2B6A682F133852F6798A09C465DA95921460CEFB3847402498 SWAP1 PUSH1 0x20 ADD PUSH1 0x40 MLOAD DUP1 SWAP2 SUB SWAP1 LOG1 POP POP JUMP JUMPDEST PUSH2 0xD3F PUSH1 0x40 MLOAD DUP1 PUSH1 0xA0 ADD PUSH1 0x40 MSTORE DUP1 PUSH1 0x0 PUSH1 0x1 PUSH1 0x1 PUSH1 0xA0 SHL SUB AND DUP2 MSTORE PUSH1 0x20 ADD PUSH1 0x0 DUP2 MSTORE PUSH1 0x20 ADD PUSH1 0x0 DUP2 MSTORE PUSH1 0x20 ADD PUSH1 0x0 DUP2 MSTORE PUSH1 0x20 ADD PUSH1 0x0 DUP2 MSTORE POP SWAP1 JUMP JUMPDEST POP PUSH1 0x40 DUP1 MLOAD PUSH1 0xA0 DUP2 ADD DUP3 MSTORE PUSH1 0x14 SLOAD PUSH1 0x1 PUSH1 0x1 PUSH1 0xA0 SHL SUB AND DUP2 MSTORE PUSH1 0x15 SLOAD PUSH1 0x20 DUP3 ADD MSTORE PUSH1 0x16 SLOAD SWAP2 DUP2 ADD SWAP2 SWAP1 SWAP2 MSTORE PUSH1 0x17 SLOAD PUSH1 0x60 DUP3 ADD MSTORE PUSH1 0x18 SLOAD PUSH1 0x80 DUP3 ADD MSTORE SWAP1 JUMP JUMPDEST PUSH2 0xD87 DUP3 DUP3 PUSH2 0x1904 JUMP JUMPDEST PUSH2 0xDB6 CALLER PUSH1 0x0 CALLDATALOAD PUSH32 0xFFFFFFFF00000000000000000000000000000000000000000000000000000000 AND DUP4 PUSH2 0x12A2 JUMP JUMPDEST PUSH2 0x791 DUP4 DUP4 PUSH2 0x195E JUMP JUMPDEST PUSH2 0xDEE CALLER PUSH1 0x0 CALLDATALOAD PUSH32 0xFFFFFFFF00000000000000000000000000000000000000000000000000000000 AND PUSH2 0x136A JUMP JUMPDEST PUSH1 0x4 SLOAD PUSH1 0xFF AND ISZERO PUSH2 0xE41 JUMPI PUSH1 0x40 MLOAD PUSH3 0x461BCD PUSH1 0xE5 SHL DUP2 MSTORE PUSH1 0x20 PUSH1 0x4 DUP3 ADD MSTORE PUSH1 0x13 PUSH1 0x24 DUP3 ADD MSTORE PUSH32 0x5441534B5F414C52454144595F50415553454400000000000000000000000000 PUSH1 0x44 DUP3 ADD MSTORE PUSH1 0x64 ADD PUSH2 0x72E JUMP JUMPDEST PUSH1 0x4 DUP1 SLOAD PUSH32 0xFFFFFFFFFFFFFFFFFFFFFFFFFFFFFFFFFFFFFFFFFFFFFFFFFFFFFFFFFFFFFF00 AND PUSH1 0x1 OR SWAP1 SSTORE PUSH1 0x40 MLOAD PUSH32 0x9E87FAC88FF661F02D44F95383C817FECE4BCE600A3DAB7A54406878B965E752 SWAP1 PUSH1 0x0 SWAP1 LOG1 JUMP JUMPDEST PUSH2 0xEA2 DUP4 DUP4 DUP4 PUSH2 0x19B6 JUMP JUMPDEST PUSH2 0xED1 CALLER PUSH1 0x0 CALLDATALOAD PUSH32 0xFFFFFFFF00000000000000000000000000000000000000000000000000000000 AND DUP4 PUSH2 0x12A2 JUMP JUMPDEST PUSH2 0xEDC DUP5 DUP5 DUP5 PUSH2 0x1A48 JUMP JUMPDEST POP POP POP POP JUMP JUMPDEST PUSH2 0xEEB DUP2 PUSH2 0x1A9E JUMP JUMPDEST PUSH2 0xF1A CALLER PUSH1 0x0 CALLDATALOAD PUSH32 0xFFFFFFFF00000000000000000000000000000000000000000000000000000000 AND DUP4 PUSH2 0x12A2 JUMP JUMPDEST PUSH2 0x66E DUP3 PUSH2 0x1AB2 JUMP JUMPDEST PUSH1 0x1 SLOAD PUSH1 0x2 SLOAD PUSH1 0x40 MLOAD PUSH31 0xBC489400000000000000000000000000000000000000000000000000000000 DUP2 MSTORE PUSH1 0x4 DUP2 ADD SWAP2 SWAP1 SWAP2 MSTORE PUSH1 0x1 PUSH1 0x1 PUSH1 0xA0 SHL SUB DUP4 DUP2 AND PUSH1 0x24 DUP4 ADD MSTORE PUSH1 0x0 SWAP3 AND SWAP1 PUSH3 0xBC4894 SWAP1 PUSH1 0x44 ADD PUSH1 0x20 PUSH1 0x40 MLOAD DUP1 DUP4 SUB DUP2 DUP7 GAS STATICCALL ISZERO DUP1 ISZERO PUSH2 0xF90 JUMPI RETURNDATASIZE PUSH1 0x0 DUP1 RETURNDATACOPY RETURNDATASIZE PUSH1 0x0 REVERT JUMPDEST POP POP POP POP PUSH1 0x40 MLOAD RETURNDATASIZE PUSH1 0x1F NOT PUSH1 0x1F DUP3 ADD AND DUP3 ADD DUP1 PUSH1 0x40 MSTORE POP DUP2 ADD SWAP1 PUSH2 0xFB4 SWAP2 SWAP1 PUSH2 0x44EC JUMP JUMPDEST SWAP3 SWAP2 POP POP JUMP JUMPDEST PUSH2 0xFE7 PUSH1 0x40 MLOAD DUP1 PUSH1 0x60 ADD PUSH1 0x40 MSTORE DUP1 PUSH1 0x0 PUSH1 0x1 PUSH1 0x1 PUSH1 0xA0 SHL SUB AND DUP2 MSTORE PUSH1 0x20 ADD PUSH1 0x0 DUP2 MSTORE PUSH1 0x20 ADD PUSH1 0x0 DUP2 MSTORE POP SWAP1 JUMP JUMPDEST POP PUSH1 0x40 DUP1 MLOAD PUSH1 0x60 DUP2 ADD DUP3 MSTORE PUSH1 0x10 SLOAD PUSH1 0x1 PUSH1 0x1 PUSH1 0xA0 SHL SUB AND DUP2 MSTORE PUSH1 0x11 SLOAD PUSH1 0x20 DUP3 ADD MSTORE PUSH1 0x12 SLOAD SWAP2 DUP2 ADD SWAP2 SWAP1 SWAP2 MSTORE SWAP1 JUMP JUMPDEST PUSH2 0x1042 PUSH1 0x40 MLOAD DUP1 PUSH1 0x60 ADD PUSH1 0x40 MSTORE DUP1 PUSH1 0x0 PUSH1 0x1 PUSH1 0x1 PUSH1 0xA0 SHL SUB AND DUP2 MSTORE PUSH1 0x20 ADD PUSH1 0x0 DUP2 MSTORE PUSH1 0x20 ADD PUSH1 0x0 DUP2 MSTORE POP SWAP1 JUMP JUMPDEST POP PUSH1 0x1 PUSH1 0x1 PUSH1 0xA0 SHL SUB SWAP1 DUP2 AND PUSH1 0x0 SWAP1 DUP2 MSTORE PUSH1 0x13 PUSH1 0x20 SWAP1 DUP2 MSTORE PUSH1 0x40 SWAP2 DUP3 SWAP1 KECCAK256 DUP3 MLOAD PUSH1 0x60 DUP2 ADD DUP5 MSTORE DUP2 SLOAD SWAP1 SWAP5 AND DUP5 MSTORE PUSH1 0x1 DUP2 ADD SLOAD SWAP2 DUP5 ADD SWAP2 SWAP1 SWAP2 MSTORE PUSH1 0x2 ADD SLOAD SWAP1 DUP3 ADD MSTORE SWAP1 JUMP JUMPDEST PUSH2 0x108F DUP2 PUSH2 0x125B JUMP JUMPDEST PUSH2 0x10BE CALLER PUSH1 0x0 CALLDATALOAD PUSH32 0xFFFFFFFF00000000000000000000000000000000000000000000000000000000 AND DUP4 PUSH2 0x12A2 JUMP JUMPDEST PUSH2 0x66E DUP3 PUSH2 0x1B6A JUMP JUMPDEST PUSH2 0x10D2 DUP4 DUP4 DUP4 PUSH2 0x19B6 JUMP JUMPDEST PUSH2 0x1101 CALLER PUSH1 0x0 CALLDATALOAD PUSH32 0xFFFFFFFF00000000000000000000000000000000000000000000000000000000 AND DUP4 PUSH2 0x12A2 JUMP JUMPDEST PUSH2 0xEDC DUP5 DUP5 DUP5 PUSH2 0x1BF1 JUMP JUMPDEST PUSH2 0x1147 PUSH1 0x40 MLOAD DUP1 PUSH1 0xA0 ADD PUSH1 0x40 MSTORE DUP1 PUSH1 0x0 PUSH1 0x1 PUSH1 0x1 PUSH1 0xA0 SHL SUB AND DUP2 MSTORE PUSH1 0x20 ADD PUSH1 0x0 DUP2 MSTORE PUSH1 0x20 ADD PUSH1 0x0 DUP2 MSTORE PUSH1 0x20 ADD PUSH1 0x0 DUP2 MSTORE PUSH1 0x20 ADD PUSH1 0x0 DUP2 MSTORE POP SWAP1 JUMP JUMPDEST PUSH2 0x1150 DUP3 PUSH2 0x1C4D JUMP JUMPDEST PUSH1 0x40 DUP1 MLOAD PUSH1 0xA0 DUP2 ADD DUP3 MSTORE DUP3 SLOAD PUSH1 0x1 PUSH1 0x1 PUSH1 0xA0 SHL SUB AND DUP2 MSTORE PUSH1 0x1 DUP4 ADD SLOAD PUSH1 0x20 DUP3 ADD MSTORE PUSH1 0x2 DUP4 ADD SLOAD SWAP2 DUP2 ADD SWAP2 SWAP1 SWAP2 MSTORE PUSH1 0x3 DUP3 ADD SLOAD PUSH1 0x60 DUP3 ADD MSTORE PUSH1 0x4 SWAP1 SWAP2 ADD SLOAD PUSH1 0x80 DUP3 ADD MSTORE SWAP3 SWAP2 POP POP JUMP JUMPDEST PUSH2 0x11A1 DUP2 PUSH2 0x125B JUMP JUMPDEST PUSH2 0x11D0 CALLER PUSH1 0x0 CALLDATALOAD PUSH32 0xFFFFFFFF00000000000000000000000000000000000000000000000000000000 AND DUP4 PUSH2 0x12A2 JUMP JUMPDEST PUSH2 0x66E DUP3 PUSH2 0x1C82 JUMP JUMPDEST PUSH2 0x11E2 DUP2 PUSH2 0x125B JUMP JUMPDEST PUSH2 0x1211 CALLER PUSH1 0x0 CALLDATALOAD PUSH32 0xFFFFFFFF00000000000000000000000000000000000000000000000000000000 AND DUP4 PUSH2 0x12A2 JUMP JUMPDEST PUSH2 0x66E DUP3 PUSH2 0x1D0F JUMP JUMPDEST PUSH2 0x1223 DUP2 PUSH2 0x125B JUMP JUMPDEST PUSH2 0x1252 CALLER PUSH1 0x0 CALLDATALOAD PUSH32 0xFFFFFFFF00000000000000000000000000000000000000000000000000000000 AND DUP4 PUSH2 0x12A2 JUMP JUMPDEST PUSH2 0x66E DUP3 PUSH2 0x1D96 JUMP JUMPDEST PUSH1 0x40 DUP1 MLOAD PUSH1 0x1 DUP1 DUP3 MSTORE DUP2 DUP4 ADD SWAP1 SWAP3 MSTORE PUSH1 0x60 SWAP2 PUSH1 0x20 DUP1 DUP4 ADD SWAP1 DUP1 CALLDATASIZE DUP4 CALLDATACOPY ADD SWAP1 POP POP SWAP1 POP DUP2 DUP2 PUSH1 0x0 DUP2 MLOAD DUP2 LT PUSH2 0x1291 JUMPI PUSH2 0x1291 PUSH2 0x4456 JUMP JUMPDEST PUSH1 0x20 MUL PUSH1 0x20 ADD ADD DUP2 DUP2 MSTORE POP POP SWAP2 SWAP1 POP JUMP JUMPDEST PUSH2 0x12AD DUP4 DUP4 DUP4 PUSH2 0x1DCB JUMP JUMPDEST PUSH2 0x791 JUMPI PUSH1 0x40 MLOAD PUSH3 0x461BCD PUSH1 0xE5 SHL DUP2 MSTORE PUSH1 0x20 PUSH1 0x4 DUP3 ADD MSTORE PUSH1 0x17 PUSH1 0x24 DUP3 ADD MSTORE PUSH32 0x415554485F53454E4445525F4E4F545F414C4C4F574544000000000000000000 PUSH1 0x44 DUP3 ADD MSTORE PUSH1 0x64 ADD PUSH2 0x72E JUMP JUMPDEST PUSH1 0x8 DUP2 SWAP1 SSTORE PUSH1 0x40 MLOAD DUP2 DUP2 MSTORE PUSH32 0x3F6C9C24D9513C13D3B3CDE07A6D023891E0A453697B804236062FF89F8911BF SWAP1 PUSH1 0x20 ADD JUMPDEST PUSH1 0x40 MLOAD DUP1 SWAP2 SUB SWAP1 LOG1 POP JUMP JUMPDEST PUSH1 0x6 DUP2 SWAP1 SSTORE PUSH1 0x40 MLOAD DUP2 DUP2 MSTORE PUSH32 0x82A6981D2EDCFFA06330F002D2155243475D202CE6CC11693DA2CA897FB8E372 SWAP1 PUSH1 0x20 ADD PUSH2 0x132A JUMP JUMPDEST PUSH1 0x40 DUP1 MLOAD PUSH1 0x0 DUP2 MSTORE PUSH1 0x20 DUP2 ADD SWAP1 SWAP2 MSTORE PUSH2 0x66E SWAP1 DUP4 SWAP1 DUP4 SWAP1 PUSH2 0x12A2 JUMP JUMPDEST PUSH1 0x1 PUSH1 0x1 PUSH1 0xA0 SHL SUB DUP3 AND PUSH2 0x13DC JUMPI PUSH1 0x40 MLOAD PUSH3 0x461BCD PUSH1 0xE5 SHL DUP2 MSTORE PUSH1 0x20 PUSH1 0x4 DUP3 ADD MSTORE PUSH1 0x1A PUSH1 0x24 DUP3 ADD MSTORE PUSH32 0x5441534B5F414343455054414E43455F544F4B454E5F5A45524F000000000000 PUSH1 0x44 DUP3 ADD MSTORE PUSH1 0x64 ADD PUSH2 0x72E JUMP JUMPDEST DUP1 PUSH2 0x13F1 JUMPI PUSH2 0x13EC PUSH1 0xE DUP4 PUSH2 0x1E69 JUMP JUMPDEST PUSH2 0x13FC JUMP JUMPDEST PUSH2 0x13FC PUSH1 0xE DUP4 PUSH2 0x1E7E JUMP JUMPDEST POP DUP2 PUSH1 0x1 PUSH1 0x1 PUSH1 0xA0 SHL SUB AND PUSH32 0x6264362E9DE26EFEFDA321DFAEB4E4A9090DEEF40C5435FAD8E9E2E306889A1C DUP3 PUSH1 0x40 MLOAD PUSH2 0x143A SWAP2 ISZERO ISZERO DUP2 MSTORE PUSH1 0x20 ADD SWAP1 JUMP JUMPDEST PUSH1 0x40 MLOAD DUP1 SWAP2 SUB SWAP1 LOG2 POP POP JUMP JUMPDEST PUSH1 0x40 DUP1 MLOAD PUSH1 0x4 DUP1 DUP3 MSTORE PUSH1 0xA0 DUP3 ADD SWAP1 SWAP3 MSTORE PUSH1 0x60 SWAP2 PUSH1 0x20 DUP3 ADD PUSH1 0x80 DUP1 CALLDATASIZE DUP4 CALLDATACOPY ADD SWAP1 POP POP SWAP1 POP DUP5 PUSH1 0x1 PUSH1 0x1 PUSH1 0xA0 SHL SUB AND DUP2 PUSH1 0x0 DUP2 MLOAD DUP2 LT PUSH2 0x1486 JUMPI PUSH2 0x1486 PUSH2 0x4456 JUMP JUMPDEST PUSH1 0x20 MUL PUSH1 0x20 ADD ADD DUP2 DUP2 MSTORE POP POP DUP4 PUSH1 0x1 PUSH1 0x1 PUSH1 0xA0 SHL SUB AND DUP2 PUSH1 0x1 DUP2 MLOAD DUP2 LT PUSH2 0x14AF JUMPI PUSH2 0x14AF PUSH2 0x4456 JUMP JUMPDEST PUSH1 0x20 MUL PUSH1 0x20 ADD ADD DUP2 DUP2 MSTORE POP POP DUP3 DUP2 PUSH1 0x2 DUP2 MLOAD DUP2 LT PUSH2 0x14CF JUMPI PUSH2 0x14CF PUSH2 0x4456 JUMP JUMPDEST PUSH1 0x20 MUL PUSH1 0x20 ADD ADD DUP2 DUP2 MSTORE POP POP DUP2 DUP2 PUSH1 0x3 DUP2 MLOAD DUP2 LT PUSH2 0x14EF JUMPI PUSH2 0x14EF PUSH2 0x4456 JUMP JUMPDEST PUSH1 0x20 MUL PUSH1 0x20 ADD ADD DUP2 DUP2 MSTORE POP POP SWAP5 SWAP4 POP POP POP POP JUMP JUMPDEST PUSH1 0x1 PUSH1 0x1 PUSH1 0xA0 SHL SUB DUP5 AND PUSH2 0x1559 JUMPI PUSH1 0x40 MLOAD PUSH3 0x461BCD PUSH1 0xE5 SHL DUP2 MSTORE PUSH1 0x20 PUSH1 0x4 DUP3 ADD MSTORE PUSH1 0x19 PUSH1 0x24 DUP3 ADD MSTORE PUSH32 0x5441534B5F5448524553484F4C445F544F4B454E5F5A45524F00000000000000 PUSH1 0x44 DUP3 ADD MSTORE PUSH1 0x64 ADD PUSH2 0x72E JUMP JUMPDEST PUSH1 0x1 PUSH1 0x1 PUSH1 0xA0 SHL SUB DUP5 AND PUSH1 0x0 SWAP1 DUP2 MSTORE PUSH1 0x13 PUSH1 0x20 MSTORE PUSH1 0x40 SWAP1 KECCAK256 PUSH2 0x157D SWAP1 DUP5 DUP5 DUP5 PUSH2 0x1E93 JUMP JUMPDEST PUSH1 0x40 DUP1 MLOAD PUSH1 0x1 PUSH1 0x1 PUSH1 0xA0 SHL SUB DUP6 DUP2 AND DUP3 MSTORE PUSH1 0x20 DUP3 ADD DUP6 SWAP1 MSTORE SWAP2 DUP2 ADD DUP4 SWAP1 MSTORE SWAP1 DUP6 AND SWAP1 PUSH32 0xF099617C054D3A65E02A9C3B786F23CC03D5982BC7CFAE84DFF0408049CF1707 SWAP1 PUSH1 0x60 ADD PUSH1 0x40 MLOAD DUP1 SWAP2 SUB SWAP1 LOG2 POP POP POP POP JUMP JUMPDEST PUSH1 0xD DUP1 SLOAD DUP3 SWAP2 SWAP1 PUSH32 0xFFFFFFFFFFFFFFFFFFFFFFFFFFFFFFFFFFFFFFFFFFFFFFFFFFFFFFFFFFFFFF00 AND PUSH1 0x1 DUP4 DUP2 DUP2 GT ISZERO PUSH2 0x160E JUMPI PUSH2 0x160E PUSH2 0x3F7D JUMP JUMPDEST MUL OR SWAP1 SSTORE POP PUSH32 0x216B6A9618D607BA436D0F2E17E9A83E70929ADFF805AC2385D67401360E551A DUP2 PUSH1 0x40 MLOAD PUSH2 0x132A SWAP2 SWAP1 PUSH2 0x3FAC JUMP JUMPDEST PUSH1 0x7 DUP2 SWAP1 SSTORE PUSH1 0x40 MLOAD DUP2 DUP2 MSTORE PUSH32 0xEA12B72EEF155A5C546ACE7F0BB7E8DC49EF4E666C276CDC6D5687B83525FADA SWAP1 PUSH1 0x20 ADD PUSH2 0x132A JUMP JUMPDEST PUSH1 0x40 DUP1 MLOAD PUSH1 0x2 DUP1 DUP3 MSTORE PUSH1 0x60 DUP1 DUP4 ADD DUP5 MSTORE SWAP3 PUSH1 0x20 DUP4 ADD SWAP1 DUP1 CALLDATASIZE DUP4 CALLDATACOPY ADD SWAP1 POP POP SWAP1 POP DUP3 PUSH1 0x1 PUSH1 0x1 PUSH1 0xA0 SHL SUB AND DUP2 PUSH1 0x0 DUP2 MLOAD DUP2 LT PUSH2 0x16B4 JUMPI PUSH2 0x16B4 PUSH2 0x4456 JUMP JUMPDEST PUSH1 0x20 MUL PUSH1 0x20 ADD ADD DUP2 DUP2 MSTORE POP POP DUP2 DUP2 PUSH1 0x1 DUP2 MLOAD DUP2 LT PUSH2 0x16D4 JUMPI PUSH2 0x16D4 PUSH2 0x4456 JUMP JUMPDEST PUSH1 0x20 MUL PUSH1 0x20 ADD ADD DUP2 DUP2 MSTORE POP POP SWAP3 SWAP2 POP POP JUMP JUMPDEST PUSH2 0x16F0 DUP3 DUP3 PUSH2 0x1F74 JUMP JUMPDEST PUSH1 0x1 PUSH1 0x1 PUSH1 0xA0 SHL SUB DUP3 AND PUSH2 0x1746 JUMPI PUSH1 0x40 MLOAD PUSH3 0x461BCD PUSH1 0xE5 SHL DUP2 MSTORE PUSH1 0x20 PUSH1 0x4 DUP3 ADD MSTORE PUSH1 0xF PUSH1 0x24 DUP3 ADD MSTORE PUSH32 0x5441534B5F544F4B454E5F5A45524F0000000000000000000000000000000000 PUSH1 0x44 DUP3 ADD MSTORE PUSH1 0x64 ADD PUSH2 0x72E JUMP JUMPDEST PUSH1 0x0 DUP2 GT PUSH2 0x66E JUMPI PUSH1 0x40 MLOAD PUSH3 0x461BCD PUSH1 0xE5 SHL DUP2 MSTORE PUSH1 0x20 PUSH1 0x4 DUP3 ADD MSTORE PUSH1 0x10 PUSH1 0x24 DUP3 ADD MSTORE PUSH32 0x5441534B5F414D4F554E545F5A45524F00000000000000000000000000000000 PUSH1 0x44 DUP3 ADD MSTORE PUSH1 0x64 ADD PUSH2 0x72E JUMP JUMPDEST PUSH2 0x17A0 DUP3 DUP3 PUSH2 0x1FBA JUMP JUMPDEST PUSH2 0x66E DUP3 DUP3 PUSH2 0x2059 JUMP JUMPDEST PUSH1 0x1 PUSH1 0x1 PUSH1 0xA0 SHL SUB DUP5 AND PUSH2 0x1800 JUMPI PUSH1 0x40 MLOAD PUSH3 0x461BCD PUSH1 0xE5 SHL DUP2 MSTORE PUSH1 0x20 PUSH1 0x4 DUP3 ADD MSTORE PUSH1 0x1C PUSH1 0x24 DUP3 ADD MSTORE PUSH32 0x5441534B5F564F4C554D455F4C494D49545F544F4B454E5F5A45524F00000000 PUSH1 0x44 DUP3 ADD MSTORE PUSH1 0x64 ADD PUSH2 0x72E JUMP JUMPDEST PUSH1 0x1 PUSH1 0x1 PUSH1 0xA0 SHL SUB DUP5 AND PUSH1 0x0 SWAP1 DUP2 MSTORE PUSH1 0x19 PUSH1 0x20 MSTORE PUSH1 0x40 SWAP1 KECCAK256 PUSH2 0x1824 SWAP1 DUP5 DUP5 DUP5 PUSH2 0x2081 JUMP JUMPDEST DUP3 PUSH1 0x1 PUSH1 0x1 PUSH1 0xA0 SHL SUB AND DUP5 PUSH1 0x1 PUSH1 0x1 PUSH1 0xA0 SHL SUB AND PUSH32 0x1B5C5E27ED5443E409BAE85849D41D7BF12D5352E8FDDB3728B6408F836E1448 DUP5 DUP5 PUSH1 0x40 MLOAD PUSH2 0x1872 SWAP3 SWAP2 SWAP1 SWAP2 DUP3 MSTORE PUSH1 0x20 DUP3 ADD MSTORE PUSH1 0x40 ADD SWAP1 JUMP JUMPDEST PUSH1 0x40 MLOAD DUP1 SWAP2 SUB SWAP1 LOG3 POP POP POP POP JUMP JUMPDEST PUSH1 0x0 SLOAD PUSH2 0x100 SWAP1 DIV PUSH1 0xFF AND PUSH2 0x18EB JUMPI PUSH1 0x40 MLOAD PUSH3 0x461BCD PUSH1 0xE5 SHL DUP2 MSTORE PUSH1 0x20 PUSH1 0x4 DUP3 ADD MSTORE PUSH1 0x2B PUSH1 0x24 DUP3 ADD MSTORE PUSH32 0x496E697469616C697A61626C653A20636F6E7472616374206973206E6F742069 PUSH1 0x44 DUP3 ADD MSTORE PUSH11 0x6E697469616C697A696E67 PUSH1 0xA8 SHL PUSH1 0x64 DUP3 ADD MSTORE PUSH1 0x84 ADD PUSH2 0x72E JUMP JUMPDEST PUSH2 0x18F8 DUP2 PUSH1 0x20 ADD MLOAD PUSH2 0x21F1 JUMP JUMPDEST PUSH2 0x1901 DUP2 PUSH2 0x22B9 JUMP JUMPDEST POP JUMP JUMPDEST PUSH1 0x40 DUP1 MLOAD PUSH1 0x2 DUP1 DUP3 MSTORE PUSH1 0x60 DUP1 DUP4 ADD DUP5 MSTORE SWAP3 PUSH1 0x20 DUP4 ADD SWAP1 DUP1 CALLDATASIZE DUP4 CALLDATACOPY ADD SWAP1 POP POP SWAP1 POP DUP3 PUSH1 0x0 SHR DUP2 PUSH1 0x0 DUP2 MLOAD DUP2 LT PUSH2 0x193B JUMPI PUSH2 0x193B PUSH2 0x4456 JUMP JUMPDEST PUSH1 0x20 MUL PUSH1 0x20 ADD ADD DUP2 DUP2 MSTORE POP POP DUP2 PUSH1 0x0 SHR DUP2 PUSH1 0x1 DUP2 MLOAD DUP2 LT PUSH2 0x16D4 JUMPI PUSH2 0x16D4 PUSH2 0x4456 JUMP JUMPDEST DUP2 ISZERO PUSH2 0x19AC JUMPI PUSH1 0x40 MLOAD PUSH3 0x461BCD PUSH1 0xE5 SHL DUP2 MSTORE PUSH1 0x20 PUSH1 0x4 DUP3 ADD DUP2 SWAP1 MSTORE PUSH1 0x24 DUP3 ADD MSTORE PUSH32 0x5441534B5F50524556494F55535F434F4E4E4543544F525F4E4F545F5A45524F PUSH1 0x44 DUP3 ADD MSTORE PUSH1 0x64 ADD PUSH2 0x72E JUMP JUMPDEST PUSH2 0x66E DUP3 DUP3 PUSH2 0x232F JUMP JUMPDEST PUSH1 0x40 DUP1 MLOAD PUSH1 0x3 DUP1 DUP3 MSTORE PUSH1 0x80 DUP3 ADD SWAP1 SWAP3 MSTORE PUSH1 0x60 SWAP2 PUSH1 0x20 DUP3 ADD DUP4 DUP1 CALLDATASIZE DUP4 CALLDATACOPY ADD SWAP1 POP POP SWAP1 POP DUP4 PUSH1 0x1 PUSH1 0x1 PUSH1 0xA0 SHL SUB AND DUP2 PUSH1 0x0 DUP2 MLOAD DUP2 LT PUSH2 0x19F5 JUMPI PUSH2 0x19F5 PUSH2 0x4456 JUMP JUMPDEST PUSH1 0x20 MUL PUSH1 0x20 ADD ADD DUP2 DUP2 MSTORE POP POP DUP3 DUP2 PUSH1 0x1 DUP2 MLOAD DUP2 LT PUSH2 0x1A15 JUMPI PUSH2 0x1A15 PUSH2 0x4456 JUMP JUMPDEST PUSH1 0x20 MUL PUSH1 0x20 ADD ADD DUP2 DUP2 MSTORE POP POP DUP2 DUP2 PUSH1 0x2 DUP2 MLOAD DUP2 LT PUSH2 0x1A35 JUMPI PUSH2 0x1A35 PUSH2 0x4456 JUMP JUMPDEST PUSH1 0x20 MUL PUSH1 0x20 ADD ADD DUP2 DUP2 MSTORE POP POP SWAP4 SWAP3 POP POP POP JUMP JUMPDEST PUSH2 0x1A55 PUSH1 0x14 DUP5 DUP5 DUP5 PUSH2 0x2081 JUMP JUMPDEST PUSH1 0x40 DUP1 MLOAD DUP4 DUP2 MSTORE PUSH1 0x20 DUP2 ADD DUP4 SWAP1 MSTORE PUSH1 0x1 PUSH1 0x1 PUSH1 0xA0 SHL SUB DUP6 AND SWAP2 PUSH32 0x6324B5F18E615697A2B44F16D7A649DEB0BBBC7CB09DAD4C610306105730E7D9 SWAP2 ADD PUSH1 0x40 MLOAD DUP1 SWAP2 SUB SWAP1 LOG2 POP POP POP JUMP JUMPDEST PUSH1 0x60 PUSH2 0xFB4 DUP3 PUSH1 0x1 PUSH1 0x1 PUSH1 0xA0 SHL SUB AND PUSH2 0x125B JUMP JUMPDEST PUSH1 0x1 PUSH1 0x1 PUSH1 0xA0 SHL SUB DUP2 AND PUSH2 0x1B08 JUMPI PUSH1 0x40 MLOAD PUSH3 0x461BCD PUSH1 0xE5 SHL DUP2 MSTORE PUSH1 0x20 PUSH1 0x4 DUP3 ADD MSTORE PUSH1 0x17 PUSH1 0x24 DUP3 ADD MSTORE PUSH32 0x5441534B5F544F4B454E535F534F555243455F5A45524F000000000000000000 PUSH1 0x44 DUP3 ADD MSTORE PUSH1 0x64 ADD PUSH2 0x72E JUMP JUMPDEST PUSH1 0x1A DUP1 SLOAD PUSH32 0xFFFFFFFFFFFFFFFFFFFFFFFF0000000000000000000000000000000000000000 AND PUSH1 0x1 PUSH1 0x1 PUSH1 0xA0 SHL SUB DUP4 AND SWAP1 DUP2 OR SWAP1 SWAP2 SSTORE PUSH1 0x40 MLOAD PUSH32 0x1614E726B084B514C185BF6BCA77BC3EB2242E5B905C019703431DD46A9BD034 SWAP1 PUSH1 0x0 SWAP1 LOG2 POP JUMP JUMPDEST PUSH1 0xC SLOAD DUP2 LT ISZERO PUSH2 0x1BBC JUMPI PUSH1 0x40 MLOAD PUSH3 0x461BCD PUSH1 0xE5 SHL DUP2 MSTORE PUSH1 0x20 PUSH1 0x4 DUP3 ADD MSTORE PUSH1 0x1E PUSH1 0x24 DUP3 ADD MSTORE PUSH32 0x5441534B5F44454C41595F47545F455845435554494F4E5F504552494F440000 PUSH1 0x44 DUP3 ADD MSTORE PUSH1 0x64 ADD PUSH2 0x72E JUMP JUMPDEST PUSH1 0xA DUP2 SWAP1 SSTORE PUSH1 0x40 MLOAD DUP2 DUP2 MSTORE PUSH32 0x19977A2303CEB34BEF2E4DD4565FAAC5F9B6EBC0C20A5EE6EC7ACA38D5B15938 SWAP1 PUSH1 0x20 ADD PUSH2 0x132A JUMP JUMPDEST PUSH2 0x1BFE PUSH1 0x10 DUP5 DUP5 DUP5 PUSH2 0x1E93 JUMP JUMPDEST PUSH1 0x40 DUP1 MLOAD PUSH1 0x1 PUSH1 0x1 PUSH1 0xA0 SHL SUB DUP6 AND DUP2 MSTORE PUSH1 0x20 DUP2 ADD DUP5 SWAP1 MSTORE SWAP1 DUP2 ADD DUP3 SWAP1 MSTORE PUSH32 0xA80953BDC344B2EBD0BCDD001A3418A8FD1B858BDECF12A4BA5A9366AD65D345 SWAP1 PUSH1 0x60 ADD PUSH1 0x40 MLOAD DUP1 SWAP2 SUB SWAP1 LOG1 POP POP POP JUMP JUMPDEST PUSH1 0x1 PUSH1 0x1 PUSH1 0xA0 SHL SUB DUP1 DUP3 AND PUSH1 0x0 SWAP1 DUP2 MSTORE PUSH1 0x19 PUSH1 0x20 MSTORE PUSH1 0x40 DUP2 KECCAK256 DUP1 SLOAD SWAP2 SWAP3 SWAP1 SWAP2 AND ISZERO PUSH2 0x1C78 JUMPI DUP1 PUSH2 0x1C7B JUMP JUMPDEST PUSH1 0x14 JUMPDEST SWAP4 SWAP3 POP POP POP JUMP JUMPDEST PUSH8 0xDE0B6B3A7640000 DUP2 GT ISZERO PUSH2 0x1CDA JUMPI PUSH1 0x40 MLOAD PUSH3 0x461BCD PUSH1 0xE5 SHL DUP2 MSTORE PUSH1 0x20 PUSH1 0x4 DUP3 ADD DUP2 SWAP1 MSTORE PUSH1 0x24 DUP3 ADD MSTORE PUSH32 0x5441534B5F54585F434F53545F4C494D49545F5043545F41424F56455F4F4E45 PUSH1 0x44 DUP3 ADD MSTORE PUSH1 0x64 ADD PUSH2 0x72E JUMP JUMPDEST PUSH1 0x9 DUP2 SWAP1 SSTORE PUSH1 0x40 MLOAD DUP2 DUP2 MSTORE PUSH32 0x6F595FA7BD8D8D8862D5832788F1CE1FE642AF019A167C3BB93C793246185A96 SWAP1 PUSH1 0x20 ADD PUSH2 0x132A JUMP JUMPDEST PUSH1 0xA SLOAD DUP2 GT ISZERO PUSH2 0x1D61 JUMPI PUSH1 0x40 MLOAD PUSH3 0x461BCD PUSH1 0xE5 SHL DUP2 MSTORE PUSH1 0x20 PUSH1 0x4 DUP3 ADD MSTORE PUSH1 0x1E PUSH1 0x24 DUP3 ADD MSTORE PUSH32 0x5441534B5F455845435554494F4E5F504552494F445F47545F44454C41590000 PUSH1 0x44 DUP3 ADD MSTORE PUSH1 0x64 ADD PUSH2 0x72E JUMP JUMPDEST PUSH1 0xC DUP2 SWAP1 SSTORE PUSH1 0x40 MLOAD DUP2 DUP2 MSTORE PUSH32 0x6243D0B89023D75F69A263222092C4479E48EC8866BEE94A0C6D38288425CA76 SWAP1 PUSH1 0x20 ADD PUSH2 0x132A JUMP JUMPDEST PUSH1 0xB DUP2 SWAP1 SSTORE PUSH1 0x40 MLOAD DUP2 DUP2 MSTORE PUSH32 0x591533B8B1DB3DF52AC5CBF75069102B6618D2A941CB88C223FD353FF4E65D4D SWAP1 PUSH1 0x20 ADD PUSH2 0x132A JUMP JUMPDEST PUSH1 0x0 DUP1 SLOAD PUSH1 0x40 MLOAD PUSH32 0x2852289500000000000000000000000000000000000000000000000000000000 DUP2 MSTORE PUSH3 0x10000 SWAP1 SWAP2 DIV PUSH1 0x1 PUSH1 0x1 PUSH1 0xA0 SHL SUB AND SWAP1 PUSH4 0x28522895 SWAP1 PUSH2 0x1E20 SWAP1 DUP8 SWAP1 ADDRESS SWAP1 DUP9 SWAP1 DUP9 SWAP1 PUSH1 0x4 ADD PUSH2 0x4505 JUMP JUMPDEST PUSH1 0x20 PUSH1 0x40 MLOAD DUP1 DUP4 SUB DUP2 DUP7 GAS STATICCALL ISZERO DUP1 ISZERO PUSH2 0x1E3D JUMPI RETURNDATASIZE PUSH1 0x0 DUP1 RETURNDATACOPY RETURNDATASIZE PUSH1 0x0 REVERT JUMPDEST POP POP POP POP PUSH1 0x40 MLOAD RETURNDATASIZE PUSH1 0x1F NOT PUSH1 0x1F DUP3 ADD AND DUP3 ADD DUP1 PUSH1 0x40 MSTORE POP DUP2 ADD SWAP1 PUSH2 0x1E61 SWAP2 SWAP1 PUSH2 0x4591 JUMP JUMPDEST SWAP5 SWAP4 POP POP POP POP JUMP JUMPDEST PUSH1 0x0 PUSH2 0x1C7B DUP4 PUSH1 0x1 PUSH1 0x1 PUSH1 0xA0 SHL SUB DUP5 AND PUSH2 0x23C3 JUMP JUMPDEST PUSH1 0x0 PUSH2 0x1C7B DUP4 PUSH1 0x1 PUSH1 0x1 PUSH1 0xA0 SHL SUB DUP5 AND PUSH2 0x24B6 JUMP JUMPDEST PUSH1 0x0 PUSH1 0x1 PUSH1 0x1 PUSH1 0xA0 SHL SUB DUP5 AND ISZERO DUP1 ISZERO PUSH2 0x1EAA JUMPI POP DUP3 ISZERO JUMPDEST DUP1 ISZERO PUSH2 0x1EB4 JUMPI POP DUP2 ISZERO JUMPDEST SWAP1 POP PUSH1 0x0 PUSH1 0x1 PUSH1 0x1 PUSH1 0xA0 SHL SUB DUP6 AND ISZERO DUP1 ISZERO SWAP1 PUSH2 0x1ED8 JUMPI POP DUP3 ISZERO DUP1 PUSH2 0x1ED8 JUMPI POP DUP4 DUP4 LT ISZERO JUMPDEST SWAP1 POP DUP2 DUP1 PUSH2 0x1EE3 JUMPI POP DUP1 JUMPDEST PUSH2 0x1F2F JUMPI PUSH1 0x40 MLOAD PUSH3 0x461BCD PUSH1 0xE5 SHL DUP2 MSTORE PUSH1 0x20 PUSH1 0x4 DUP3 ADD MSTORE PUSH1 0x1C PUSH1 0x24 DUP3 ADD MSTORE PUSH32 0x5441534B5F494E56414C49445F5448524553484F4C445F494E50555400000000 PUSH1 0x44 DUP3 ADD MSTORE PUSH1 0x64 ADD PUSH2 0x72E JUMP JUMPDEST POP POP DUP4 SLOAD PUSH32 0xFFFFFFFFFFFFFFFFFFFFFFFF0000000000000000000000000000000000000000 AND PUSH1 0x1 PUSH1 0x1 PUSH1 0xA0 SHL SUB SWAP4 SWAP1 SWAP4 AND SWAP3 SWAP1 SWAP3 OR DUP4 SSTORE PUSH1 0x1 DUP4 ADD SSTORE PUSH1 0x2 SWAP1 SWAP2 ADD SSTORE JUMP JUMPDEST PUSH2 0x1F7E DUP3 DUP3 PUSH2 0x2505 JUMP JUMPDEST PUSH2 0x1F88 DUP3 DUP3 PUSH2 0x250F JUMP JUMPDEST PUSH2 0x1F92 DUP3 DUP3 PUSH2 0x2562 JUMP JUMPDEST PUSH2 0x1F9C DUP3 DUP3 PUSH2 0x2629 JUMP JUMPDEST PUSH2 0x1FA6 DUP3 DUP3 PUSH2 0x2715 JUMP JUMPDEST PUSH2 0x1FB0 DUP3 DUP3 PUSH2 0x279C JUMP JUMPDEST PUSH2 0x66E DUP3 DUP3 PUSH2 0x2873 JUMP JUMPDEST PUSH1 0x3 SLOAD ISZERO PUSH2 0x66E JUMPI PUSH1 0x1 DUP1 SLOAD PUSH1 0x3 SLOAD PUSH1 0x40 MLOAD PUSH32 0xEB056BBB00000000000000000000000000000000000000000000000000000000 DUP2 MSTORE PUSH1 0x4 DUP2 ADD SWAP2 SWAP1 SWAP2 MSTORE PUSH1 0x1 PUSH1 0x1 PUSH1 0xA0 SHL SUB DUP6 DUP2 AND PUSH1 0x24 DUP4 ADD MSTORE PUSH1 0x44 DUP3 ADD DUP6 SWAP1 MSTORE PUSH1 0x64 DUP3 ADD SWAP4 SWAP1 SWAP4 MSTORE SWAP2 AND SWAP1 PUSH4 0xEB056BBB SWAP1 PUSH1 0x84 ADD JUMPDEST PUSH1 0x0 PUSH1 0x40 MLOAD DUP1 DUP4 SUB DUP2 PUSH1 0x0 DUP8 DUP1 EXTCODESIZE ISZERO DUP1 ISZERO PUSH2 0x203D JUMPI PUSH1 0x0 DUP1 REVERT JUMPDEST POP GAS CALL ISZERO DUP1 ISZERO PUSH2 0x2051 JUMPI RETURNDATASIZE PUSH1 0x0 DUP1 RETURNDATACOPY RETURNDATASIZE PUSH1 0x0 REVERT JUMPDEST POP POP POP POP POP POP JUMP JUMPDEST PUSH2 0x2063 DUP3 DUP3 PUSH2 0x2980 JUMP JUMPDEST PUSH2 0x206D DUP3 DUP3 PUSH2 0x2A22 JUMP JUMPDEST PUSH2 0x2077 DUP3 DUP3 PUSH2 0x2AA2 JUMP JUMPDEST PUSH2 0x66E DUP3 DUP3 PUSH2 0x2D0A JUMP JUMPDEST PUSH1 0x0 PUSH1 0x1 PUSH1 0x1 PUSH1 0xA0 SHL SUB DUP5 AND ISZERO DUP1 ISZERO PUSH2 0x2098 JUMPI POP DUP3 ISZERO JUMPDEST DUP1 ISZERO PUSH2 0x20A2 JUMPI POP DUP2 ISZERO JUMPDEST SWAP1 POP PUSH1 0x0 PUSH1 0x1 PUSH1 0x1 PUSH1 0xA0 SHL SUB DUP6 AND ISZERO DUP1 ISZERO SWAP1 PUSH2 0x20BE JUMPI POP PUSH1 0x0 DUP5 GT JUMPDEST DUP1 ISZERO PUSH2 0x20CA JUMPI POP PUSH1 0x0 DUP4 GT JUMPDEST SWAP1 POP DUP2 DUP1 PUSH2 0x20D5 JUMPI POP DUP1 JUMPDEST PUSH2 0x2121 JUMPI PUSH1 0x40 MLOAD PUSH3 0x461BCD PUSH1 0xE5 SHL DUP2 MSTORE PUSH1 0x20 PUSH1 0x4 DUP3 ADD MSTORE PUSH1 0x1F PUSH1 0x24 DUP3 ADD MSTORE PUSH32 0x5441534B5F494E56414C49445F564F4C554D455F4C494D49545F494E50555400 PUSH1 0x44 DUP3 ADD MSTORE PUSH1 0x64 ADD PUSH2 0x72E JUMP JUMPDEST PUSH1 0x3 DUP7 ADD DUP4 SWAP1 SSTORE PUSH1 0x1 DUP7 ADD DUP5 SWAP1 SSTORE DUP2 ISZERO PUSH2 0x2148 JUMPI PUSH1 0x0 PUSH1 0x2 DUP8 ADD DUP2 SWAP1 SSTORE PUSH1 0x4 DUP8 ADD SSTORE PUSH2 0x21B4 JUMP JUMPDEST DUP6 PUSH1 0x4 ADD SLOAD PUSH1 0x0 SUB PUSH2 0x216F JUMPI PUSH1 0x0 PUSH1 0x2 DUP8 ADD SSTORE PUSH2 0x2165 DUP4 TIMESTAMP PUSH2 0x45AE JUMP JUMPDEST PUSH1 0x4 DUP8 ADD SSTORE PUSH2 0x21B4 JUMP JUMPDEST DUP6 SLOAD PUSH1 0x1 PUSH1 0x1 PUSH1 0xA0 SHL SUB DUP7 DUP2 AND SWAP2 AND EQ PUSH2 0x21B4 JUMPI DUP6 SLOAD PUSH1 0x0 SWAP1 PUSH2 0x219B SWAP1 PUSH1 0x1 PUSH1 0x1 PUSH1 0xA0 SHL SUB AND DUP8 PUSH2 0x2D37 JUMP JUMPDEST PUSH1 0x2 DUP9 ADD SLOAD SWAP1 SWAP2 POP PUSH2 0x21AD SWAP1 DUP3 PUSH2 0x2D43 JUMP JUMPDEST PUSH1 0x2 DUP9 ADD SSTORE POP JUMPDEST POP POP DUP4 SLOAD PUSH32 0xFFFFFFFFFFFFFFFFFFFFFFFF0000000000000000000000000000000000000000 AND PUSH1 0x1 PUSH1 0x1 PUSH1 0xA0 SHL SUB SWAP4 SWAP1 SWAP4 AND SWAP3 SWAP1 SWAP3 OR SWAP1 SWAP3 SSTORE POP POP JUMP JUMPDEST PUSH1 0x0 SLOAD PUSH2 0x100 SWAP1 DIV PUSH1 0xFF AND PUSH2 0x225C JUMPI PUSH1 0x40 MLOAD PUSH3 0x461BCD PUSH1 0xE5 SHL DUP2 MSTORE PUSH1 0x20 PUSH1 0x4 DUP3 ADD MSTORE PUSH1 0x2B PUSH1 0x24 DUP3 ADD MSTORE PUSH32 0x496E697469616C697A61626C653A20636F6E7472616374206973206E6F742069 PUSH1 0x44 DUP3 ADD MSTORE PUSH11 0x6E697469616C697A696E67 PUSH1 0xA8 SHL PUSH1 0x64 DUP3 ADD MSTORE PUSH1 0x84 ADD PUSH2 0x72E JUMP JUMPDEST DUP1 MLOAD PUSH2 0x2267 SWAP1 PUSH2 0x2DC1 JUMP JUMPDEST PUSH2 0x226F PUSH2 0x2EA3 JUMP JUMPDEST PUSH2 0x227C DUP2 PUSH1 0x20 ADD MLOAD PUSH2 0x2F18 JUMP JUMPDEST PUSH2 0x2289 DUP2 PUSH1 0x40 ADD MLOAD PUSH2 0x2F8C JUMP JUMPDEST PUSH2 0x2296 DUP2 PUSH1 0x60 ADD MLOAD PUSH2 0x3000 JUMP JUMPDEST PUSH2 0x22A3 DUP2 PUSH1 0x80 ADD MLOAD PUSH2 0x3074 JUMP JUMPDEST PUSH2 0x22B0 DUP2 PUSH1 0xA0 ADD MLOAD PUSH2 0x30E8 JUMP JUMPDEST PUSH2 0x1901 DUP2 PUSH2 0x315C JUMP JUMPDEST PUSH1 0x0 SLOAD PUSH2 0x100 SWAP1 DIV PUSH1 0xFF AND PUSH2 0x2324 JUMPI PUSH1 0x40 MLOAD PUSH3 0x461BCD PUSH1 0xE5 SHL DUP2 MSTORE PUSH1 0x20 PUSH1 0x4 DUP3 ADD MSTORE PUSH1 0x2B PUSH1 0x24 DUP3 ADD MSTORE PUSH32 0x496E697469616C697A61626C653A20636F6E7472616374206973206E6F742069 PUSH1 0x44 DUP3 ADD MSTORE PUSH11 0x6E697469616C697A696E67 PUSH1 0xA8 SHL PUSH1 0x64 DUP3 ADD MSTORE PUSH1 0x84 ADD PUSH2 0x72E JUMP JUMPDEST DUP1 MLOAD PUSH2 0x1901 SWAP1 PUSH2 0x1AB2 JUMP JUMPDEST DUP1 DUP3 EQ ISZERO DUP1 PUSH2 0x233C JUMPI POP DUP2 ISZERO JUMPDEST PUSH2 0x2388 JUMPI PUSH1 0x40 MLOAD PUSH3 0x461BCD PUSH1 0xE5 SHL DUP2 MSTORE PUSH1 0x20 PUSH1 0x4 DUP3 ADD MSTORE PUSH1 0x1C PUSH1 0x24 DUP3 ADD MSTORE PUSH32 0x5441534B5F53414D455F42414C414E43455F434F4E4E4543544F525300000000 PUSH1 0x44 DUP3 ADD MSTORE PUSH1 0x64 ADD PUSH2 0x72E JUMP JUMPDEST PUSH1 0x2 DUP3 SWAP1 SSTORE PUSH1 0x3 DUP2 SWAP1 SSTORE PUSH1 0x40 MLOAD DUP2 SWAP1 DUP4 SWAP1 PUSH32 0xF950A929751D87DB181A0A517DF21BB3ECD433ABBA584594402DB4B58A554835 SWAP1 PUSH1 0x0 SWAP1 LOG3 POP POP JUMP JUMPDEST PUSH1 0x0 DUP2 DUP2 MSTORE PUSH1 0x1 DUP4 ADD PUSH1 0x20 MSTORE PUSH1 0x40 DUP2 KECCAK256 SLOAD DUP1 ISZERO PUSH2 0x24AC JUMPI PUSH1 0x0 PUSH2 0x23E7 PUSH1 0x1 DUP4 PUSH2 0x45C1 JUMP JUMPDEST DUP6 SLOAD SWAP1 SWAP2 POP PUSH1 0x0 SWAP1 PUSH2 0x23FB SWAP1 PUSH1 0x1 SWAP1 PUSH2 0x45C1 JUMP JUMPDEST SWAP1 POP DUP2 DUP2 EQ PUSH2 0x2460 JUMPI PUSH1 0x0 DUP7 PUSH1 0x0 ADD DUP3 DUP2 SLOAD DUP2 LT PUSH2 0x241B JUMPI PUSH2 0x241B PUSH2 0x4456 JUMP JUMPDEST SWAP1 PUSH1 0x0 MSTORE PUSH1 0x20 PUSH1 0x0 KECCAK256 ADD SLOAD SWAP1 POP DUP1 DUP8 PUSH1 0x0 ADD DUP5 DUP2 SLOAD DUP2 LT PUSH2 0x243E JUMPI PUSH2 0x243E PUSH2 0x4456 JUMP JUMPDEST PUSH1 0x0 SWAP2 DUP3 MSTORE PUSH1 0x20 DUP1 DUP4 KECCAK256 SWAP1 SWAP2 ADD SWAP3 SWAP1 SWAP3 SSTORE SWAP2 DUP3 MSTORE PUSH1 0x1 DUP9 ADD SWAP1 MSTORE PUSH1 0x40 SWAP1 KECCAK256 DUP4 SWAP1 SSTORE JUMPDEST DUP6 SLOAD DUP7 SWAP1 DUP1 PUSH2 0x2471 JUMPI PUSH2 0x2471 PUSH2 0x45D4 JUMP JUMPDEST PUSH1 0x1 SWAP1 SUB DUP2 DUP2 SWAP1 PUSH1 0x0 MSTORE PUSH1 0x20 PUSH1 0x0 KECCAK256 ADD PUSH1 0x0 SWAP1 SSTORE SWAP1 SSTORE DUP6 PUSH1 0x1 ADD PUSH1 0x0 DUP7 DUP2 MSTORE PUSH1 0x20 ADD SWAP1 DUP2 MSTORE PUSH1 0x20 ADD PUSH1 0x0 KECCAK256 PUSH1 0x0 SWAP1 SSTORE PUSH1 0x1 SWAP4 POP POP POP POP PUSH2 0xFB4 JUMP JUMPDEST PUSH1 0x0 SWAP2 POP POP PUSH2 0xFB4 JUMP JUMPDEST PUSH1 0x0 DUP2 DUP2 MSTORE PUSH1 0x1 DUP4 ADD PUSH1 0x20 MSTORE PUSH1 0x40 DUP2 KECCAK256 SLOAD PUSH2 0x24FD JUMPI POP DUP2 SLOAD PUSH1 0x1 DUP2 DUP2 ADD DUP5 SSTORE PUSH1 0x0 DUP5 DUP2 MSTORE PUSH1 0x20 DUP1 DUP3 KECCAK256 SWAP1 SWAP4 ADD DUP5 SWAP1 SSTORE DUP5 SLOAD DUP5 DUP3 MSTORE DUP3 DUP7 ADD SWAP1 SWAP4 MSTORE PUSH1 0x40 SWAP1 KECCAK256 SWAP2 SWAP1 SWAP2 SSTORE PUSH2 0xFB4 JUMP JUMPDEST POP PUSH1 0x0 PUSH2 0xFB4 JUMP JUMPDEST PUSH2 0x66E DUP3 DUP3 PUSH2 0x31C7 JUMP JUMPDEST PUSH1 0x4 SLOAD PUSH1 0xFF AND ISZERO PUSH2 0x66E JUMPI PUSH1 0x40 MLOAD PUSH3 0x461BCD PUSH1 0xE5 SHL DUP2 MSTORE PUSH1 0x20 PUSH1 0x4 DUP3 ADD MSTORE PUSH1 0xB PUSH1 0x24 DUP3 ADD MSTORE PUSH32 0x5441534B5F504155534544000000000000000000000000000000000000000000 PUSH1 0x44 DUP3 ADD MSTORE PUSH1 0x64 ADD PUSH2 0x72E JUMP JUMPDEST GAS PUSH1 0x5 SSTORE PUSH1 0x6 SLOAD ISZERO DUP1 PUSH2 0x2577 JUMPI POP PUSH1 0x6 SLOAD GASPRICE GT ISZERO JUMPDEST PUSH2 0x25C3 JUMPI PUSH1 0x40 MLOAD PUSH3 0x461BCD PUSH1 0xE5 SHL DUP2 MSTORE PUSH1 0x20 PUSH1 0x4 DUP3 ADD MSTORE PUSH1 0x14 PUSH1 0x24 DUP3 ADD MSTORE PUSH32 0x5441534B5F4741535F50524943455F4C494D4954000000000000000000000000 PUSH1 0x44 DUP3 ADD MSTORE PUSH1 0x64 ADD PUSH2 0x72E JUMP JUMPDEST PUSH1 0x7 SLOAD ISZERO DUP1 PUSH2 0x25DD JUMPI POP PUSH1 0x7 SLOAD PUSH2 0x25DA BASEFEE GASPRICE PUSH2 0x45C1 JUMP JUMPDEST GT ISZERO JUMPDEST PUSH2 0x66E JUMPI PUSH1 0x40 MLOAD PUSH3 0x461BCD PUSH1 0xE5 SHL DUP2 MSTORE PUSH1 0x20 PUSH1 0x4 DUP3 ADD MSTORE PUSH1 0x17 PUSH1 0x24 DUP3 ADD MSTORE PUSH32 0x5441534B5F5052494F524954595F4645455F4C494D4954000000000000000000 PUSH1 0x44 DUP3 ADD MSTORE PUSH1 0x64 ADD PUSH2 0x72E JUMP JUMPDEST PUSH1 0xB SLOAD TIMESTAMP LT ISZERO PUSH2 0x267B JUMPI PUSH1 0x40 MLOAD PUSH3 0x461BCD PUSH1 0xE5 SHL DUP2 MSTORE PUSH1 0x20 PUSH1 0x4 DUP3 ADD MSTORE PUSH1 0x1A PUSH1 0x24 DUP3 ADD MSTORE PUSH32 0x5441534B5F54494D455F4C4F434B5F4E4F545F45585049524544000000000000 PUSH1 0x44 DUP3 ADD MSTORE PUSH1 0x64 ADD PUSH2 0x72E JUMP JUMPDEST PUSH1 0xC SLOAD ISZERO PUSH2 0x66E JUMPI PUSH1 0x0 PUSH1 0xB SLOAD TIMESTAMP PUSH2 0x2693 SWAP2 SWAP1 PUSH2 0x45C1 JUMP JUMPDEST SWAP1 POP PUSH1 0x0 PUSH1 0xA SLOAD DUP3 PUSH2 0x26A5 SWAP2 SWAP1 PUSH2 0x4632 JUMP JUMPDEST SWAP1 POP PUSH1 0x0 PUSH1 0xA SLOAD DUP3 PUSH2 0x26B7 SWAP2 SWAP1 PUSH2 0x466D JUMP JUMPDEST PUSH2 0x26C1 SWAP1 DUP5 PUSH2 0x45C1 JUMP JUMPDEST SWAP1 POP PUSH1 0xC SLOAD DUP2 GT ISZERO PUSH2 0x873 JUMPI PUSH1 0x40 MLOAD PUSH3 0x461BCD PUSH1 0xE5 SHL DUP2 MSTORE PUSH1 0x20 PUSH1 0x4 DUP3 ADD MSTORE PUSH1 0x1F PUSH1 0x24 DUP3 ADD MSTORE PUSH32 0x5441534B5F54494D455F4C4F434B5F574149545F4E4558545F504552494F4400 PUSH1 0x44 DUP3 ADD MSTORE PUSH1 0x64 ADD PUSH2 0x72E JUMP JUMPDEST PUSH1 0x0 PUSH2 0x2722 PUSH1 0xE DUP5 PUSH2 0x3233 JUMP JUMPDEST SWAP1 POP PUSH1 0x0 PUSH1 0x1 PUSH1 0xD SLOAD PUSH1 0xFF AND PUSH1 0x1 DUP2 GT ISZERO PUSH2 0x273F JUMPI PUSH2 0x273F PUSH2 0x3F7D JUMP JUMPDEST EQ PUSH2 0x274B JUMPI DUP2 ISZERO PUSH2 0x274D JUMP JUMPDEST DUP2 JUMPDEST SWAP1 POP DUP1 PUSH2 0xEDC JUMPI PUSH1 0x40 MLOAD PUSH3 0x461BCD PUSH1 0xE5 SHL DUP2 MSTORE PUSH1 0x20 PUSH1 0x4 DUP3 ADD MSTORE PUSH1 0x16 PUSH1 0x24 DUP3 ADD MSTORE PUSH32 0x5441534B5F544F4B454E5F4E4F545F414C4C4F57454400000000000000000000 PUSH1 0x44 DUP3 ADD MSTORE PUSH1 0x64 ADD PUSH2 0x72E JUMP JUMPDEST PUSH1 0x0 PUSH2 0x27A7 DUP4 PUSH2 0xB00 JUMP JUMPDEST DUP1 MLOAD SWAP1 SWAP2 POP PUSH1 0x1 PUSH1 0x1 PUSH1 0xA0 SHL SUB AND PUSH2 0x27BE JUMPI POP POP POP JUMP JUMPDEST PUSH1 0x0 DUP4 PUSH1 0x1 PUSH1 0x1 PUSH1 0xA0 SHL SUB AND DUP3 PUSH1 0x0 ADD MLOAD PUSH1 0x1 PUSH1 0x1 PUSH1 0xA0 SHL SUB AND EQ PUSH2 0x27FA JUMPI PUSH2 0x27F5 PUSH2 0x27EE DUP6 DUP5 PUSH1 0x0 ADD MLOAD PUSH2 0x2D37 JUMP JUMPDEST DUP5 SWAP1 PUSH2 0x2D43 JUMP JUMPDEST PUSH2 0x27FC JUMP JUMPDEST DUP3 JUMPDEST SWAP1 POP PUSH1 0x0 DUP3 PUSH1 0x20 ADD MLOAD DUP3 LT ISZERO DUP1 ISZERO PUSH2 0x2824 JUMPI POP PUSH1 0x40 DUP4 ADD MLOAD ISZERO DUP1 PUSH2 0x2824 JUMPI POP DUP3 PUSH1 0x40 ADD MLOAD DUP3 GT ISZERO JUMPDEST SWAP1 POP DUP1 PUSH2 0x873 JUMPI PUSH1 0x40 MLOAD PUSH3 0x461BCD PUSH1 0xE5 SHL DUP2 MSTORE PUSH1 0x20 PUSH1 0x4 DUP3 ADD MSTORE PUSH1 0x1C PUSH1 0x24 DUP3 ADD MSTORE PUSH32 0x5441534B5F544F4B454E5F5448524553484F4C445F4E4F545F4D455400000000 PUSH1 0x44 DUP3 ADD MSTORE PUSH1 0x64 ADD PUSH2 0x72E JUMP JUMPDEST PUSH1 0x0 PUSH2 0x287E DUP4 PUSH2 0x1C4D JUMP JUMPDEST PUSH1 0x40 DUP1 MLOAD PUSH1 0xA0 DUP2 ADD DUP3 MSTORE DUP3 SLOAD PUSH1 0x1 PUSH1 0x1 PUSH1 0xA0 SHL SUB AND DUP1 DUP3 MSTORE PUSH1 0x1 DUP5 ADD SLOAD PUSH1 0x20 DUP4 ADD MSTORE PUSH1 0x2 DUP5 ADD SLOAD SWAP3 DUP3 ADD SWAP3 SWAP1 SWAP3 MSTORE PUSH1 0x3 DUP4 ADD SLOAD PUSH1 0x60 DUP3 ADD MSTORE PUSH1 0x4 SWAP1 SWAP3 ADD SLOAD PUSH1 0x80 DUP4 ADD MSTORE SWAP1 SWAP2 POP PUSH2 0x28CD JUMPI POP POP POP JUMP JUMPDEST PUSH1 0x0 DUP4 PUSH1 0x1 PUSH1 0x1 PUSH1 0xA0 SHL SUB AND DUP3 PUSH1 0x0 ADD MLOAD PUSH1 0x1 PUSH1 0x1 PUSH1 0xA0 SHL SUB AND EQ PUSH2 0x2902 JUMPI PUSH2 0x28FD PUSH2 0x27EE DUP6 DUP5 PUSH1 0x0 ADD MLOAD PUSH2 0x2D37 JUMP JUMPDEST PUSH2 0x2904 JUMP JUMPDEST DUP3 JUMPDEST SWAP1 POP PUSH1 0x0 DUP3 PUSH1 0x80 ADD MLOAD TIMESTAMP LT PUSH2 0x291A JUMPI PUSH1 0x0 PUSH2 0x2920 JUMP JUMPDEST DUP3 PUSH1 0x40 ADD MLOAD JUMPDEST PUSH2 0x292A SWAP1 DUP4 PUSH2 0x45AE JUMP JUMPDEST SWAP1 POP DUP3 PUSH1 0x20 ADD MLOAD DUP2 GT ISZERO PUSH2 0x873 JUMPI PUSH1 0x40 MLOAD PUSH3 0x461BCD PUSH1 0xE5 SHL DUP2 MSTORE PUSH1 0x20 PUSH1 0x4 DUP3 ADD MSTORE PUSH1 0x1A PUSH1 0x24 DUP3 ADD MSTORE PUSH32 0x5441534B5F564F4C554D455F4C494D49545F4558434545444544000000000000 PUSH1 0x44 DUP3 ADD MSTORE PUSH1 0x64 ADD PUSH2 0x72E JUMP JUMPDEST PUSH1 0x0 PUSH2 0x298B DUP4 PUSH2 0x1C4D JUMP JUMPDEST DUP1 SLOAD SWAP1 SWAP2 POP PUSH1 0x1 PUSH1 0x1 PUSH1 0xA0 SHL SUB AND PUSH2 0x29A2 JUMPI POP POP POP JUMP JUMPDEST DUP1 SLOAD PUSH1 0x0 SWAP1 PUSH1 0x1 PUSH1 0x1 PUSH1 0xA0 SHL SUB DUP6 DUP2 AND SWAP2 AND EQ PUSH2 0x29D8 JUMPI DUP2 SLOAD PUSH2 0x29D3 SWAP1 PUSH2 0x27EE SWAP1 DUP7 SWAP1 PUSH1 0x1 PUSH1 0x1 PUSH1 0xA0 SHL SUB AND PUSH2 0x2D37 JUMP JUMPDEST PUSH2 0x29DA JUMP JUMPDEST DUP3 JUMPDEST SWAP1 POP DUP2 PUSH1 0x4 ADD SLOAD TIMESTAMP LT PUSH2 0x2A03 JUMPI PUSH1 0x0 PUSH1 0x2 DUP4 ADD SSTORE PUSH1 0x3 DUP3 ADD SLOAD PUSH2 0x29FD SWAP1 TIMESTAMP PUSH2 0x45AE JUMP JUMPDEST PUSH1 0x4 DUP4 ADD SSTORE JUMPDEST DUP1 DUP3 PUSH1 0x2 ADD PUSH1 0x0 DUP3 DUP3 SLOAD PUSH2 0x2A17 SWAP2 SWAP1 PUSH2 0x45AE JUMP JUMPDEST SWAP1 SWAP2 SSTORE POP POP POP POP POP POP JUMP JUMPDEST PUSH1 0xA SLOAD ISZERO PUSH2 0x66E JUMPI PUSH1 0x0 PUSH1 0xB SLOAD PUSH1 0x0 SUB PUSH2 0x2A4A JUMPI PUSH1 0xA SLOAD PUSH2 0x2A43 SWAP1 TIMESTAMP PUSH2 0x45AE JUMP JUMPDEST SWAP1 POP PUSH2 0x2A99 JUMP JUMPDEST PUSH1 0x0 PUSH1 0xB SLOAD TIMESTAMP PUSH2 0x2A5A SWAP2 SWAP1 PUSH2 0x45C1 JUMP JUMPDEST SWAP1 POP PUSH1 0x0 PUSH1 0xA SLOAD DUP3 PUSH2 0x2A6C SWAP2 SWAP1 PUSH2 0x4632 JUMP JUMPDEST PUSH2 0x2A77 SWAP1 PUSH1 0x1 PUSH2 0x45AE JUMP JUMPDEST SWAP1 POP PUSH1 0xA SLOAD DUP2 PUSH2 0x2A87 SWAP2 SWAP1 PUSH2 0x466D JUMP JUMPDEST PUSH1 0xB SLOAD PUSH2 0x2A94 SWAP2 SWAP1 PUSH2 0x45AE JUMP JUMPDEST SWAP3 POP POP POP JUMPDEST PUSH2 0x791 DUP2 PUSH2 0x1D96 JUMP JUMPDEST PUSH1 0x0 PUSH1 0x5 SLOAD GT PUSH2 0x2AF4 JUMPI PUSH1 0x40 MLOAD PUSH3 0x461BCD PUSH1 0xE5 SHL DUP2 MSTORE PUSH1 0x20 PUSH1 0x4 DUP3 ADD MSTORE PUSH1 0x18 PUSH1 0x24 DUP3 ADD MSTORE PUSH32 0x5441534B5F4741535F4E4F545F494E495449414C495A45440000000000000000 PUSH1 0x44 DUP3 ADD MSTORE PUSH1 0x64 ADD PUSH2 0x72E JUMP JUMPDEST PUSH1 0x0 GAS PUSH1 0x5 SLOAD PUSH2 0x2B04 SWAP2 SWAP1 PUSH2 0x45C1 JUMP JUMPDEST SWAP1 POP PUSH1 0x0 PUSH2 0x2B12 GASPRICE DUP4 PUSH2 0x466D JUMP JUMPDEST SWAP1 POP PUSH1 0x8 SLOAD PUSH1 0x0 EQ DUP1 PUSH2 0x2B27 JUMPI POP PUSH1 0x8 SLOAD DUP2 GT ISZERO JUMPDEST PUSH2 0x2B73 JUMPI PUSH1 0x40 MLOAD PUSH3 0x461BCD PUSH1 0xE5 SHL DUP2 MSTORE PUSH1 0x20 PUSH1 0x4 DUP3 ADD MSTORE PUSH1 0x12 PUSH1 0x24 DUP3 ADD MSTORE PUSH32 0x5441534B5F54585F434F53545F4C494D49540000000000000000000000000000 PUSH1 0x44 DUP3 ADD MSTORE PUSH1 0x64 ADD PUSH2 0x72E JUMP JUMPDEST PUSH1 0x0 PUSH1 0x5 SSTORE PUSH1 0x9 SLOAD ISZERO PUSH2 0xEDC JUMPI PUSH1 0x0 DUP4 GT PUSH2 0x2BD0 JUMPI PUSH1 0x40 MLOAD PUSH3 0x461BCD PUSH1 0xE5 SHL DUP2 MSTORE PUSH1 0x20 PUSH1 0x4 DUP3 ADD MSTORE PUSH1 0x16 PUSH1 0x24 DUP3 ADD MSTORE PUSH32 0x5441534B5F54585F434F53545F4C494D49545F50435400000000000000000000 PUSH1 0x44 DUP3 ADD MSTORE PUSH1 0x64 ADD PUSH2 0x72E JUMP JUMPDEST PUSH1 0x0 PUSH2 0x2C9E ADDRESS PUSH1 0x1 PUSH1 0x1 PUSH1 0xA0 SHL SUB AND PUSH4 0x4FD49EFD PUSH1 0x40 MLOAD DUP2 PUSH4 0xFFFFFFFF AND PUSH1 0xE0 SHL DUP2 MSTORE PUSH1 0x4 ADD PUSH1 0x20 PUSH1 0x40 MLOAD DUP1 DUP4 SUB DUP2 DUP7 GAS STATICCALL ISZERO DUP1 ISZERO PUSH2 0x2C13 JUMPI RETURNDATASIZE PUSH1 0x0 DUP1 RETURNDATACOPY RETURNDATASIZE PUSH1 0x0 REVERT JUMPDEST POP POP POP POP PUSH1 0x40 MLOAD RETURNDATASIZE PUSH1 0x1F NOT PUSH1 0x1F DUP3 ADD AND DUP3 ADD DUP1 PUSH1 0x40 MSTORE POP DUP2 ADD SWAP1 PUSH2 0x2C37 SWAP2 SWAP1 PUSH2 0x4684 JUMP JUMPDEST PUSH1 0x1 PUSH1 0x1 PUSH1 0xA0 SHL SUB AND PUSH4 0x17FCB39B PUSH1 0x40 MLOAD DUP2 PUSH4 0xFFFFFFFF AND PUSH1 0xE0 SHL DUP2 MSTORE PUSH1 0x4 ADD PUSH1 0x20 PUSH1 0x40 MLOAD DUP1 DUP4 SUB DUP2 DUP7 GAS STATICCALL ISZERO DUP1 ISZERO PUSH2 0x2C74 JUMPI RETURNDATASIZE PUSH1 0x0 DUP1 RETURNDATACOPY RETURNDATASIZE PUSH1 0x0 REVERT JUMPDEST POP POP POP POP PUSH1 0x40 MLOAD RETURNDATASIZE PUSH1 0x1F NOT PUSH1 0x1F DUP3 ADD AND DUP3 ADD DUP1 PUSH1 0x40 MSTORE POP DUP2 ADD SWAP1 PUSH2 0x2C98 SWAP2 SWAP1 PUSH2 0x4684 JUMP JUMPDEST DUP7 PUSH2 0x2D37 JUMP JUMPDEST SWAP1 POP PUSH1 0x0 PUSH2 0x2CAC DUP4 DUP4 PUSH2 0x3255 JUMP JUMPDEST PUSH1 0x9 SLOAD SWAP1 SWAP2 POP PUSH2 0x2CBC DUP3 DUP8 PUSH2 0x3306 JUMP JUMPDEST GT ISZERO PUSH2 0x2051 JUMPI PUSH1 0x40 MLOAD PUSH3 0x461BCD PUSH1 0xE5 SHL DUP2 MSTORE PUSH1 0x20 PUSH1 0x4 DUP3 ADD MSTORE PUSH1 0x16 PUSH1 0x24 DUP3 ADD MSTORE PUSH32 0x5441534B5F54585F434F53545F4C494D49545F50435400000000000000000000 PUSH1 0x44 DUP3 ADD MSTORE PUSH1 0x64 ADD PUSH2 0x72E JUMP JUMPDEST PUSH1 0x40 MLOAD PUSH32 0x68F46C45A243A0E9065A97649FAF9A5AFE1692F2679E650C2F853B9CD734CC0E SWAP1 PUSH1 0x0 SWAP1 LOG1 POP POP JUMP JUMPDEST PUSH1 0x0 PUSH2 0x1C7B DUP4 DUP4 PUSH2 0x33F1 JUMP JUMPDEST PUSH1 0x0 DUP3 DUP3 MUL DUP4 ISZERO DUP1 PUSH2 0x2D63 JUMPI POP DUP3 DUP5 DUP3 DUP2 PUSH2 0x2D60 JUMPI PUSH2 0x2D60 PUSH2 0x4603 JUMP JUMPDEST DIV EQ JUMPDEST PUSH2 0x2DAF JUMPI PUSH1 0x40 MLOAD PUSH3 0x461BCD PUSH1 0xE5 SHL DUP2 MSTORE PUSH1 0x20 PUSH1 0x4 DUP3 ADD MSTORE PUSH1 0xC PUSH1 0x24 DUP3 ADD MSTORE PUSH32 0x4D554C5F4F564552464C4F570000000000000000000000000000000000000000 PUSH1 0x44 DUP3 ADD MSTORE PUSH1 0x64 ADD PUSH2 0x72E JUMP JUMPDEST PUSH8 0xDE0B6B3A7640000 SWAP1 DIV SWAP4 SWAP3 POP POP POP JUMP JUMPDEST PUSH1 0x0 SLOAD PUSH2 0x100 SWAP1 DIV PUSH1 0xFF AND PUSH2 0x2E2C JUMPI PUSH1 0x40 MLOAD PUSH3 0x461BCD PUSH1 0xE5 SHL DUP2 MSTORE PUSH1 0x20 PUSH1 0x4 DUP3 ADD MSTORE PUSH1 0x2B PUSH1 0x24 DUP3 ADD MSTORE PUSH32 0x496E697469616C697A61626C653A20636F6E7472616374206973206E6F742069 PUSH1 0x44 DUP3 ADD MSTORE PUSH11 0x6E697469616C697A696E67 PUSH1 0xA8 SHL PUSH1 0x64 DUP3 ADD MSTORE PUSH1 0x84 ADD PUSH2 0x72E JUMP JUMPDEST PUSH2 0x2E9A DUP2 PUSH1 0x0 ADD MLOAD PUSH1 0x1 PUSH1 0x1 PUSH1 0xA0 SHL SUB AND PUSH4 0xD09EDF31 PUSH1 0x40 MLOAD DUP2 PUSH4 0xFFFFFFFF AND PUSH1 0xE0 SHL DUP2 MSTORE PUSH1 0x4 ADD PUSH1 0x20 PUSH1 0x40 MLOAD DUP1 DUP4 SUB DUP2 DUP7 GAS STATICCALL ISZERO DUP1 ISZERO PUSH2 0x2E71 JUMPI RETURNDATASIZE PUSH1 0x0 DUP1 RETURNDATACOPY RETURNDATASIZE PUSH1 0x0 REVERT JUMPDEST POP POP POP POP PUSH1 0x40 MLOAD RETURNDATASIZE PUSH1 0x1F NOT PUSH1 0x1F DUP3 ADD AND DUP3 ADD DUP1 PUSH1 0x40 MSTORE POP DUP2 ADD SWAP1 PUSH2 0x2E95 SWAP2 SWAP1 PUSH2 0x4684 JUMP JUMPDEST PUSH2 0x356B JUMP JUMPDEST PUSH2 0x1901 DUP2 PUSH2 0x35DF JUMP JUMPDEST PUSH1 0x0 SLOAD PUSH2 0x100 SWAP1 DIV PUSH1 0xFF AND PUSH2 0x2F0E JUMPI PUSH1 0x40 MLOAD PUSH3 0x461BCD PUSH1 0xE5 SHL DUP2 MSTORE PUSH1 0x20 PUSH1 0x4 DUP3 ADD MSTORE PUSH1 0x2B PUSH1 0x24 DUP3 ADD MSTORE PUSH32 0x496E697469616C697A61626C653A20636F6E7472616374206973206E6F742069 PUSH1 0x44 DUP3 ADD MSTORE PUSH11 0x6E697469616C697A696E67 PUSH1 0xA8 SHL PUSH1 0x64 DUP3 ADD MSTORE PUSH1 0x84 ADD PUSH2 0x72E JUMP JUMPDEST PUSH2 0x2F16 PUSH2 0x3697 JUMP JUMPDEST JUMP JUMPDEST PUSH1 0x0 SLOAD PUSH2 0x100 SWAP1 DIV PUSH1 0xFF AND PUSH2 0x2F83 JUMPI PUSH1 0x40 MLOAD PUSH3 0x461BCD PUSH1 0xE5 SHL DUP2 MSTORE PUSH1 0x20 PUSH1 0x4 DUP3 ADD MSTORE PUSH1 0x2B PUSH1 0x24 DUP3 ADD MSTORE PUSH32 0x496E697469616C697A61626C653A20636F6E7472616374206973206E6F742069 PUSH1 0x44 DUP3 ADD MSTORE PUSH11 0x6E697469616C697A696E67 PUSH1 0xA8 SHL PUSH1 0x64 DUP3 ADD MSTORE PUSH1 0x84 ADD PUSH2 0x72E JUMP JUMPDEST PUSH2 0x1901 DUP2 PUSH2 0x3702 JUMP JUMPDEST PUSH1 0x0 SLOAD PUSH2 0x100 SWAP1 DIV PUSH1 0xFF AND PUSH2 0x2FF7 JUMPI PUSH1 0x40 MLOAD PUSH3 0x461BCD PUSH1 0xE5 SHL DUP2 MSTORE PUSH1 0x20 PUSH1 0x4 DUP3 ADD MSTORE PUSH1 0x2B PUSH1 0x24 DUP3 ADD MSTORE PUSH32 0x496E697469616C697A61626C653A20636F6E7472616374206973206E6F742069 PUSH1 0x44 DUP3 ADD MSTORE PUSH11 0x6E697469616C697A696E67 PUSH1 0xA8 SHL PUSH1 0x64 DUP3 ADD MSTORE PUSH1 0x84 ADD PUSH2 0x72E JUMP JUMPDEST PUSH2 0x1901 DUP2 PUSH2 0x379F JUMP JUMPDEST PUSH1 0x0 SLOAD PUSH2 0x100 SWAP1 DIV PUSH1 0xFF AND PUSH2 0x306B JUMPI PUSH1 0x40 MLOAD PUSH3 0x461BCD PUSH1 0xE5 SHL DUP2 MSTORE PUSH1 0x20 PUSH1 0x4 DUP3 ADD MSTORE PUSH1 0x2B PUSH1 0x24 DUP3 ADD MSTORE PUSH32 0x496E697469616C697A61626C653A20636F6E7472616374206973206E6F742069 PUSH1 0x44 DUP3 ADD MSTORE PUSH11 0x6E697469616C697A696E67 PUSH1 0xA8 SHL PUSH1 0x64 DUP3 ADD MSTORE PUSH1 0x84 ADD PUSH2 0x72E JUMP JUMPDEST PUSH2 0x1901 DUP2 PUSH2 0x382F JUMP JUMPDEST PUSH1 0x0 SLOAD PUSH2 0x100 SWAP1 DIV PUSH1 0xFF AND PUSH2 0x30DF JUMPI PUSH1 0x40 MLOAD PUSH3 0x461BCD PUSH1 0xE5 SHL DUP2 MSTORE PUSH1 0x20 PUSH1 0x4 DUP3 ADD MSTORE PUSH1 0x2B PUSH1 0x24 DUP3 ADD MSTORE PUSH32 0x496E697469616C697A61626C653A20636F6E7472616374206973206E6F742069 PUSH1 0x44 DUP3 ADD MSTORE PUSH11 0x6E697469616C697A696E67 PUSH1 0xA8 SHL PUSH1 0x64 DUP3 ADD MSTORE PUSH1 0x84 ADD PUSH2 0x72E JUMP JUMPDEST PUSH2 0x1901 DUP2 PUSH2 0x38EF JUMP JUMPDEST PUSH1 0x0 SLOAD PUSH2 0x100 SWAP1 DIV PUSH1 0xFF AND PUSH2 0x3153 JUMPI PUSH1 0x40 MLOAD PUSH3 0x461BCD PUSH1 0xE5 SHL DUP2 MSTORE PUSH1 0x20 PUSH1 0x4 DUP3 ADD MSTORE PUSH1 0x2B PUSH1 0x24 DUP3 ADD MSTORE PUSH32 0x496E697469616C697A61626C653A20636F6E7472616374206973206E6F742069 PUSH1 0x44 DUP3 ADD MSTORE PUSH11 0x6E697469616C697A696E67 PUSH1 0xA8 SHL PUSH1 0x64 DUP3 ADD MSTORE PUSH1 0x84 ADD PUSH2 0x72E JUMP JUMPDEST PUSH2 0x1901 DUP2 PUSH2 0x39DF JUMP JUMPDEST PUSH1 0x0 SLOAD PUSH2 0x100 SWAP1 DIV PUSH1 0xFF AND PUSH2 0x1901 JUMPI PUSH1 0x40 MLOAD PUSH3 0x461BCD PUSH1 0xE5 SHL DUP2 MSTORE PUSH1 0x20 PUSH1 0x4 DUP3 ADD MSTORE PUSH1 0x2B PUSH1 0x24 DUP3 ADD MSTORE PUSH32 0x496E697469616C697A61626C653A20636F6E7472616374206973206E6F742069 PUSH1 0x44 DUP3 ADD MSTORE PUSH11 0x6E697469616C697A696E67 PUSH1 0xA8 SHL PUSH1 0x64 DUP3 ADD MSTORE PUSH1 0x84 ADD PUSH2 0x72E JUMP JUMPDEST PUSH1 0x2 SLOAD ISZERO PUSH2 0x66E JUMPI PUSH1 0x1 SLOAD PUSH1 0x2 SLOAD PUSH1 0x40 MLOAD PUSH32 0xEB056BBB00000000000000000000000000000000000000000000000000000000 DUP2 MSTORE PUSH1 0x4 DUP2 ADD SWAP2 SWAP1 SWAP2 MSTORE PUSH1 0x1 PUSH1 0x1 PUSH1 0xA0 SHL SUB DUP5 DUP2 AND PUSH1 0x24 DUP4 ADD MSTORE PUSH1 0x44 DUP3 ADD DUP5 SWAP1 MSTORE PUSH1 0x0 PUSH1 0x64 DUP4 ADD MSTORE SWAP1 SWAP2 AND SWAP1 PUSH4 0xEB056BBB SWAP1 PUSH1 0x84 ADD PUSH2 0x2023 JUMP JUMPDEST PUSH1 0x1 PUSH1 0x1 PUSH1 0xA0 SHL SUB DUP2 AND PUSH1 0x0 SWAP1 DUP2 MSTORE PUSH1 0x1 DUP4 ADD PUSH1 0x20 MSTORE PUSH1 0x40 DUP2 KECCAK256 SLOAD ISZERO ISZERO PUSH2 0x1C7B JUMP JUMPDEST PUSH1 0x0 DUP3 DUP3 MUL DUP4 ISZERO DUP1 PUSH2 0x3275 JUMPI POP DUP3 DUP5 DUP3 DUP2 PUSH2 0x3272 JUMPI PUSH2 0x3272 PUSH2 0x4603 JUMP JUMPDEST DIV EQ JUMPDEST PUSH2 0x32C1 JUMPI PUSH1 0x40 MLOAD PUSH3 0x461BCD PUSH1 0xE5 SHL DUP2 MSTORE PUSH1 0x20 PUSH1 0x4 DUP3 ADD MSTORE PUSH1 0xC PUSH1 0x24 DUP3 ADD MSTORE PUSH32 0x4D554C5F4F564552464C4F570000000000000000000000000000000000000000 PUSH1 0x44 DUP3 ADD MSTORE PUSH1 0x64 ADD PUSH2 0x72E JUMP JUMPDEST DUP1 ISZERO PUSH2 0x32FC JUMPI PUSH8 0xDE0B6B3A7640000 PUSH32 0xFFFFFFFFFFFFFFFFFFFFFFFFFFFFFFFFFFFFFFFFFFFFFFFFFFFFFFFFFFFFFFFF DUP3 ADD DIV PUSH1 0x1 ADD PUSH2 0x1E61 JUMP JUMPDEST PUSH1 0x0 SWAP5 SWAP4 POP POP POP POP JUMP JUMPDEST PUSH1 0x0 DUP2 PUSH1 0x0 SUB PUSH2 0x3358 JUMPI PUSH1 0x40 MLOAD PUSH3 0x461BCD PUSH1 0xE5 SHL DUP2 MSTORE PUSH1 0x20 PUSH1 0x4 DUP3 ADD MSTORE PUSH1 0xD PUSH1 0x24 DUP3 ADD MSTORE PUSH32 0x5A45524F5F4449564953494F4E00000000000000000000000000000000000000 PUSH1 0x44 DUP3 ADD MSTORE PUSH1 0x64 ADD PUSH2 0x72E JUMP JUMPDEST DUP3 PUSH1 0x0 SUB PUSH2 0x3368 JUMPI POP PUSH1 0x0 PUSH2 0xFB4 JUMP JUMPDEST PUSH8 0xDE0B6B3A7640000 DUP4 DUP2 MUL SWAP1 DUP5 DUP3 DUP2 PUSH2 0x3384 JUMPI PUSH2 0x3384 PUSH2 0x4603 JUMP JUMPDEST DIV EQ PUSH2 0x33D2 JUMPI PUSH1 0x40 MLOAD PUSH3 0x461BCD PUSH1 0xE5 SHL DUP2 MSTORE PUSH1 0x20 PUSH1 0x4 DUP3 ADD MSTORE PUSH1 0xC PUSH1 0x24 DUP3 ADD MSTORE PUSH32 0x4449565F494E5445524E414C0000000000000000000000000000000000000000 PUSH1 0x44 DUP3 ADD MSTORE PUSH1 0x64 ADD PUSH2 0x72E JUMP JUMPDEST DUP3 PUSH1 0x1 DUP3 SUB DUP2 PUSH2 0x33E4 JUMPI PUSH2 0x33E4 PUSH2 0x4603 JUMP JUMPDEST DIV PUSH1 0x1 ADD SWAP2 POP POP SWAP3 SWAP2 POP POP JUMP JUMPDEST PUSH1 0x0 DUP1 PUSH1 0x1 PUSH1 0x0 SWAP1 SLOAD SWAP1 PUSH2 0x100 EXP SWAP1 DIV PUSH1 0x1 PUSH1 0x1 PUSH1 0xA0 SHL SUB AND PUSH1 0x1 PUSH1 0x1 PUSH1 0xA0 SHL SUB AND PUSH4 0x2630C12F PUSH1 0x40 MLOAD DUP2 PUSH4 0xFFFFFFFF AND PUSH1 0xE0 SHL DUP2 MSTORE PUSH1 0x4 ADD PUSH1 0x20 PUSH1 0x40 MLOAD DUP1 DUP4 SUB DUP2 DUP7 GAS STATICCALL ISZERO DUP1 ISZERO PUSH2 0x3447 JUMPI RETURNDATASIZE PUSH1 0x0 DUP1 RETURNDATACOPY RETURNDATASIZE PUSH1 0x0 REVERT JUMPDEST POP POP POP POP PUSH1 0x40 MLOAD RETURNDATASIZE PUSH1 0x1F NOT PUSH1 0x1F DUP3 ADD AND DUP3 ADD DUP1 PUSH1 0x40 MSTORE POP DUP2 ADD SWAP1 PUSH2 0x346B SWAP2 SWAP1 PUSH2 0x4684 JUMP JUMPDEST SWAP1 POP PUSH1 0x1 PUSH1 0x1 PUSH1 0xA0 SHL SUB DUP2 AND PUSH2 0x34C3 JUMPI PUSH1 0x40 MLOAD PUSH3 0x461BCD PUSH1 0xE5 SHL DUP2 MSTORE PUSH1 0x20 PUSH1 0x4 DUP3 ADD MSTORE PUSH1 0x19 PUSH1 0x24 DUP3 ADD MSTORE PUSH32 0x5441534B5F50524943455F4F5241434C455F4E4F545F53455400000000000000 PUSH1 0x44 DUP3 ADD MSTORE PUSH1 0x64 ADD PUSH2 0x72E JUMP JUMPDEST DUP1 PUSH1 0x1 PUSH1 0x1 PUSH1 0xA0 SHL SUB AND PUSH4 0xAC41865A PUSH2 0x34DB DUP7 PUSH2 0x3ACF JUMP JUMPDEST PUSH2 0x34E4 DUP7 PUSH2 0x3ACF JUMP JUMPDEST PUSH1 0x40 MLOAD PUSH32 0xFFFFFFFF00000000000000000000000000000000000000000000000000000000 PUSH1 0xE0 DUP6 SWAP1 SHL AND DUP2 MSTORE PUSH1 0x1 PUSH1 0x1 PUSH1 0xA0 SHL SUB SWAP3 DUP4 AND PUSH1 0x4 DUP3 ADD MSTORE SWAP2 AND PUSH1 0x24 DUP3 ADD MSTORE PUSH1 0x44 ADD PUSH1 0x20 PUSH1 0x40 MLOAD DUP1 DUP4 SUB DUP2 DUP7 GAS STATICCALL ISZERO DUP1 ISZERO PUSH2 0x3547 JUMPI RETURNDATASIZE PUSH1 0x0 DUP1 RETURNDATACOPY RETURNDATASIZE PUSH1 0x0 REVERT JUMPDEST POP POP POP POP PUSH1 0x40 MLOAD RETURNDATASIZE PUSH1 0x1F NOT PUSH1 0x1F DUP3 ADD AND DUP3 ADD DUP1 PUSH1 0x40 MSTORE POP DUP2 ADD SWAP1 PUSH2 0x1E61 SWAP2 SWAP1 PUSH2 0x44EC JUMP JUMPDEST PUSH1 0x0 SLOAD PUSH2 0x100 SWAP1 DIV PUSH1 0xFF AND PUSH2 0x35D6 JUMPI PUSH1 0x40 MLOAD PUSH3 0x461BCD PUSH1 0xE5 SHL DUP2 MSTORE PUSH1 0x20 PUSH1 0x4 DUP3 ADD MSTORE PUSH1 0x2B PUSH1 0x24 DUP3 ADD MSTORE PUSH32 0x496E697469616C697A61626C653A20636F6E7472616374206973206E6F742069 PUSH1 0x44 DUP3 ADD MSTORE PUSH11 0x6E697469616C697A696E67 PUSH1 0xA8 SHL PUSH1 0x64 DUP3 ADD MSTORE PUSH1 0x84 ADD PUSH2 0x72E JUMP JUMPDEST PUSH2 0x1901 DUP2 PUSH2 0x3B03 JUMP JUMPDEST PUSH1 0x0 SLOAD PUSH2 0x100 SWAP1 DIV PUSH1 0xFF AND PUSH2 0x364A JUMPI PUSH1 0x40 MLOAD PUSH3 0x461BCD PUSH1 0xE5 SHL DUP2 MSTORE PUSH1 0x20 PUSH1 0x4 DUP3 ADD MSTORE PUSH1 0x2B PUSH1 0x24 DUP3 ADD MSTORE PUSH32 0x496E697469616C697A61626C653A20636F6E7472616374206973206E6F742069 PUSH1 0x44 DUP3 ADD MSTORE PUSH11 0x6E697469616C697A696E67 PUSH1 0xA8 SHL PUSH1 0x64 DUP3 ADD MSTORE PUSH1 0x84 ADD PUSH2 0x72E JUMP JUMPDEST DUP1 MLOAD PUSH1 0x1 DUP1 SLOAD PUSH32 0xFFFFFFFFFFFFFFFFFFFFFFFF0000000000000000000000000000000000000000 AND PUSH1 0x1 PUSH1 0x1 PUSH1 0xA0 SHL SUB SWAP1 SWAP3 AND SWAP2 SWAP1 SWAP2 OR SWAP1 SSTORE PUSH1 0x20 DUP2 ADD MLOAD PUSH1 0x40 DUP3 ADD MLOAD PUSH2 0x1901 SWAP2 SWAP1 PUSH2 0x195E JUMP JUMPDEST PUSH1 0x0 SLOAD PUSH2 0x100 SWAP1 DIV PUSH1 0xFF AND PUSH2 0x2F16 JUMPI PUSH1 0x40 MLOAD PUSH3 0x461BCD PUSH1 0xE5 SHL DUP2 MSTORE PUSH1 0x20 PUSH1 0x4 DUP3 ADD MSTORE PUSH1 0x2B PUSH1 0x24 DUP3 ADD MSTORE PUSH32 0x496E697469616C697A61626C653A20636F6E7472616374206973206E6F742069 PUSH1 0x44 DUP3 ADD MSTORE PUSH11 0x6E697469616C697A696E67 PUSH1 0xA8 SHL PUSH1 0x64 DUP3 ADD MSTORE PUSH1 0x84 ADD PUSH2 0x72E JUMP JUMPDEST PUSH1 0x0 SLOAD PUSH2 0x100 SWAP1 DIV PUSH1 0xFF AND PUSH2 0x376D JUMPI PUSH1 0x40 MLOAD PUSH3 0x461BCD PUSH1 0xE5 SHL DUP2 MSTORE PUSH1 0x20 PUSH1 0x4 DUP3 ADD MSTORE PUSH1 0x2B PUSH1 0x24 DUP3 ADD MSTORE PUSH32 0x496E697469616C697A61626C653A20636F6E7472616374206973206E6F742069 PUSH1 0x44 DUP3 ADD MSTORE PUSH11 0x6E697469616C697A696E67 PUSH1 0xA8 SHL PUSH1 0x64 DUP3 ADD MSTORE PUSH1 0x84 ADD PUSH2 0x72E JUMP JUMPDEST DUP1 MLOAD PUSH2 0x3778 SWAP1 PUSH2 0x1335 JUMP JUMPDEST PUSH2 0x3785 DUP2 PUSH1 0x20 ADD MLOAD PUSH2 0x1642 JUMP JUMPDEST PUSH2 0x3792 DUP2 PUSH1 0x40 ADD MLOAD PUSH2 0x12F9 JUMP JUMPDEST PUSH2 0x1901 DUP2 PUSH1 0x60 ADD MLOAD PUSH2 0x1C82 JUMP JUMPDEST PUSH1 0x0 SLOAD PUSH2 0x100 SWAP1 DIV PUSH1 0xFF AND PUSH2 0x380A JUMPI PUSH1 0x40 MLOAD PUSH3 0x461BCD PUSH1 0xE5 SHL DUP2 MSTORE PUSH1 0x20 PUSH1 0x4 DUP3 ADD MSTORE PUSH1 0x2B PUSH1 0x24 DUP3 ADD MSTORE PUSH32 0x496E697469616C697A61626C653A20636F6E7472616374206973206E6F742069 PUSH1 0x44 DUP3 ADD MSTORE PUSH11 0x6E697469616C697A696E67 PUSH1 0xA8 SHL PUSH1 0x64 DUP3 ADD MSTORE PUSH1 0x84 ADD PUSH2 0x72E JUMP JUMPDEST DUP1 MLOAD PUSH2 0x3815 SWAP1 PUSH2 0x1B6A JUMP JUMPDEST PUSH2 0x3822 DUP2 PUSH1 0x20 ADD MLOAD PUSH2 0x1D96 JUMP JUMPDEST PUSH2 0x1901 DUP2 PUSH1 0x40 ADD MLOAD PUSH2 0x1D0F JUMP JUMPDEST PUSH1 0x0 SLOAD PUSH2 0x100 SWAP1 DIV PUSH1 0xFF AND PUSH2 0x389A JUMPI PUSH1 0x40 MLOAD PUSH3 0x461BCD PUSH1 0xE5 SHL DUP2 MSTORE PUSH1 0x20 PUSH1 0x4 DUP3 ADD MSTORE PUSH1 0x2B PUSH1 0x24 DUP3 ADD MSTORE PUSH32 0x496E697469616C697A61626C653A20636F6E7472616374206973206E6F742069 PUSH1 0x44 DUP3 ADD MSTORE PUSH11 0x6E697469616C697A696E67 PUSH1 0xA8 SHL PUSH1 0x64 DUP3 ADD MSTORE PUSH1 0x84 ADD PUSH2 0x72E JUMP JUMPDEST DUP1 MLOAD PUSH2 0x38A5 SWAP1 PUSH2 0x15D2 JUMP JUMPDEST PUSH1 0x0 JUMPDEST DUP2 PUSH1 0x20 ADD MLOAD MLOAD DUP2 LT ISZERO PUSH2 0x66E JUMPI PUSH2 0x38DD DUP3 PUSH1 0x20 ADD MLOAD DUP3 DUP2 MLOAD DUP2 LT PUSH2 0x38CE JUMPI PUSH2 0x38CE PUSH2 0x4456 JUMP JUMPDEST PUSH1 0x20 MUL PUSH1 0x20 ADD ADD MLOAD PUSH1 0x1 PUSH2 0x1386 JUMP JUMPDEST DUP1 PUSH2 0x38E7 DUP2 PUSH2 0x44B4 JUMP JUMPDEST SWAP2 POP POP PUSH2 0x38A8 JUMP JUMPDEST PUSH1 0x0 SLOAD PUSH2 0x100 SWAP1 DIV PUSH1 0xFF AND PUSH2 0x395A JUMPI PUSH1 0x40 MLOAD PUSH3 0x461BCD PUSH1 0xE5 SHL DUP2 MSTORE PUSH1 0x20 PUSH1 0x4 DUP3 ADD MSTORE PUSH1 0x2B PUSH1 0x24 DUP3 ADD MSTORE PUSH32 0x496E697469616C697A61626C653A20636F6E7472616374206973206E6F742069 PUSH1 0x44 DUP3 ADD MSTORE PUSH11 0x6E697469616C697A696E67 PUSH1 0xA8 SHL PUSH1 0x64 DUP3 ADD MSTORE PUSH1 0x84 ADD PUSH2 0x72E JUMP JUMPDEST DUP1 MLOAD DUP1 MLOAD PUSH1 0x20 DUP3 ADD MLOAD PUSH1 0x40 DUP4 ADD MLOAD PUSH2 0x3973 SWAP3 SWAP2 SWAP1 PUSH2 0x1BF1 JUMP JUMPDEST PUSH1 0x0 JUMPDEST DUP3 PUSH1 0x20 ADD MLOAD MLOAD DUP2 LT ISZERO PUSH2 0x791 JUMPI PUSH1 0x0 DUP4 PUSH1 0x20 ADD MLOAD DUP3 DUP2 MLOAD DUP2 LT PUSH2 0x399B JUMPI PUSH2 0x399B PUSH2 0x4456 JUMP JUMPDEST PUSH1 0x20 MUL PUSH1 0x20 ADD ADD MLOAD SWAP1 POP PUSH1 0x0 DUP2 PUSH1 0x20 ADD MLOAD SWAP1 POP PUSH2 0x39CA DUP3 PUSH1 0x0 ADD MLOAD DUP3 PUSH1 0x0 ADD MLOAD DUP4 PUSH1 0x20 ADD MLOAD DUP5 PUSH1 0x40 ADD MLOAD PUSH2 0x1503 JUMP JUMPDEST POP POP DUP1 DUP1 PUSH2 0x39D7 SWAP1 PUSH2 0x44B4 JUMP JUMPDEST SWAP2 POP POP PUSH2 0x3976 JUMP JUMPDEST PUSH1 0x0 SLOAD PUSH2 0x100 SWAP1 DIV PUSH1 0xFF AND PUSH2 0x3A4A JUMPI PUSH1 0x40 MLOAD PUSH3 0x461BCD PUSH1 0xE5 SHL DUP2 MSTORE PUSH1 0x20 PUSH1 0x4 DUP3 ADD MSTORE PUSH1 0x2B PUSH1 0x24 DUP3 ADD MSTORE PUSH32 0x496E697469616C697A61626C653A20636F6E7472616374206973206E6F742069 PUSH1 0x44 DUP3 ADD MSTORE PUSH11 0x6E697469616C697A696E67 PUSH1 0xA8 SHL PUSH1 0x64 DUP3 ADD MSTORE PUSH1 0x84 ADD PUSH2 0x72E JUMP JUMPDEST DUP1 MLOAD DUP1 MLOAD PUSH1 0x20 DUP3 ADD MLOAD PUSH1 0x40 DUP4 ADD MLOAD PUSH2 0x3A63 SWAP3 SWAP2 SWAP1 PUSH2 0x1A48 JUMP JUMPDEST PUSH1 0x0 JUMPDEST DUP3 PUSH1 0x20 ADD MLOAD MLOAD DUP2 LT ISZERO PUSH2 0x791 JUMPI PUSH1 0x0 DUP4 PUSH1 0x20 ADD MLOAD DUP3 DUP2 MLOAD DUP2 LT PUSH2 0x3A8B JUMPI PUSH2 0x3A8B PUSH2 0x4456 JUMP JUMPDEST PUSH1 0x20 MUL PUSH1 0x20 ADD ADD MLOAD SWAP1 POP PUSH1 0x0 DUP2 PUSH1 0x20 ADD MLOAD SWAP1 POP PUSH2 0x3ABA DUP3 PUSH1 0x0 ADD MLOAD DUP3 PUSH1 0x0 ADD MLOAD DUP4 PUSH1 0x20 ADD MLOAD DUP5 PUSH1 0x40 ADD MLOAD PUSH2 0x17AA JUMP JUMPDEST POP POP DUP1 DUP1 PUSH2 0x3AC7 SWAP1 PUSH2 0x44B4 JUMP JUMPDEST SWAP2 POP POP PUSH2 0x3A66 JUMP JUMPDEST PUSH1 0x0 PUSH20 0xEEEEEEEEEEEEEEEEEEEEEEEEEEEEEEEEEEEEEEEE PUSH1 0x1 PUSH1 0x1 PUSH1 0xA0 SHL SUB DUP4 AND EQ PUSH2 0x3AFB JUMPI DUP2 PUSH2 0xFB4 JUMP JUMPDEST PUSH2 0xFB4 PUSH2 0x3BAE JUMP JUMPDEST PUSH1 0x0 SLOAD PUSH2 0x100 SWAP1 DIV PUSH1 0xFF AND PUSH2 0x3B6E JUMPI PUSH1 0x40 MLOAD PUSH3 0x461BCD PUSH1 0xE5 SHL DUP2 MSTORE PUSH1 0x20 PUSH1 0x4 DUP3 ADD MSTORE PUSH1 0x2B PUSH1 0x24 DUP3 ADD MSTORE PUSH32 0x496E697469616C697A61626C653A20636F6E7472616374206973206E6F742069 PUSH1 0x44 DUP3 ADD MSTORE PUSH11 0x6E697469616C697A696E67 PUSH1 0xA8 SHL PUSH1 0x64 DUP3 ADD MSTORE PUSH1 0x84 ADD PUSH2 0x72E JUMP JUMPDEST PUSH1 0x0 DUP1 SLOAD PUSH1 0x1 PUSH1 0x1 PUSH1 0xA0 SHL SUB SWAP1 SWAP3 AND PUSH3 0x10000 MUL PUSH32 0xFFFFFFFFFFFFFFFFFFFF0000000000000000000000000000000000000000FFFF SWAP1 SWAP3 AND SWAP2 SWAP1 SWAP2 OR SWAP1 SSTORE JUMP JUMPDEST PUSH1 0x1 SLOAD PUSH1 0x40 DUP1 MLOAD PUSH32 0x17FCB39B00000000000000000000000000000000000000000000000000000000 DUP2 MSTORE SWAP1 MLOAD PUSH1 0x0 SWAP3 PUSH1 0x1 PUSH1 0x1 PUSH1 0xA0 SHL SUB AND SWAP2 PUSH4 0x17FCB39B SWAP2 PUSH1 0x4 DUP1 DUP4 ADD SWAP3 PUSH1 0x20 SWAP3 SWAP2 SWAP1 DUP3 SWAP1 SUB ADD DUP2 DUP7 GAS STATICCALL ISZERO DUP1 ISZERO PUSH2 0x3C11 JUMPI RETURNDATASIZE PUSH1 0x0 DUP1 RETURNDATACOPY RETURNDATASIZE PUSH1 0x0 REVERT JUMPDEST POP POP POP POP PUSH1 0x40 MLOAD RETURNDATASIZE PUSH1 0x1F NOT PUSH1 0x1F DUP3 ADD AND DUP3 ADD DUP1 PUSH1 0x40 MSTORE POP DUP2 ADD SWAP1 PUSH2 0x3C35 SWAP2 SWAP1 PUSH2 0x4684 JUMP JUMPDEST SWAP1 POP SWAP1 JUMP JUMPDEST PUSH1 0x0 PUSH1 0x20 DUP3 DUP5 SUB SLT ISZERO PUSH2 0x3C4C JUMPI PUSH1 0x0 DUP1 REVERT JUMPDEST POP CALLDATALOAD SWAP2 SWAP1 POP JUMP JUMPDEST PUSH32 0x4E487B7100000000000000000000000000000000000000000000000000000000 PUSH1 0x0 MSTORE PUSH1 0x41 PUSH1 0x4 MSTORE PUSH1 0x24 PUSH1 0x0 REVERT JUMPDEST PUSH1 0x40 MLOAD PUSH1 0x60 DUP2 ADD PUSH8 0xFFFFFFFFFFFFFFFF DUP2 GT DUP3 DUP3 LT OR ISZERO PUSH2 0x3CA5 JUMPI PUSH2 0x3CA5 PUSH2 0x3C53 JUMP JUMPDEST PUSH1 0x40 MSTORE SWAP1 JUMP JUMPDEST PUSH1 0x40 DUP1 MLOAD SWAP1 DUP2 ADD PUSH8 0xFFFFFFFFFFFFFFFF DUP2 GT DUP3 DUP3 LT OR ISZERO PUSH2 0x3CA5 JUMPI PUSH2 0x3CA5 PUSH2 0x3C53 JUMP JUMPDEST PUSH1 0x40 MLOAD PUSH1 0xC0 DUP2 ADD PUSH8 0xFFFFFFFFFFFFFFFF DUP2 GT DUP3 DUP3 LT OR ISZERO PUSH2 0x3CA5 JUMPI PUSH2 0x3CA5 PUSH2 0x3C53 JUMP JUMPDEST PUSH1 0x40 MLOAD PUSH1 0x1F DUP3 ADD PUSH32 0xFFFFFFFFFFFFFFFFFFFFFFFFFFFFFFFFFFFFFFFFFFFFFFFFFFFFFFFFFFFFFFE0 AND DUP2 ADD PUSH8 0xFFFFFFFFFFFFFFFF DUP2 GT DUP3 DUP3 LT OR ISZERO PUSH2 0x3D38 JUMPI PUSH2 0x3D38 PUSH2 0x3C53 JUMP JUMPDEST PUSH1 0x40 MSTORE SWAP2 SWAP1 POP JUMP JUMPDEST PUSH1 0x0 PUSH8 0xFFFFFFFFFFFFFFFF DUP3 GT ISZERO PUSH2 0x3D5A JUMPI PUSH2 0x3D5A PUSH2 0x3C53 JUMP JUMPDEST POP PUSH1 0x5 SHL PUSH1 0x20 ADD SWAP1 JUMP JUMPDEST PUSH1 0x1 PUSH1 0x1 PUSH1 0xA0 SHL SUB DUP2 AND DUP2 EQ PUSH2 0x1901 JUMPI PUSH1 0x0 DUP1 REVERT JUMPDEST PUSH1 0x0 DUP3 PUSH1 0x1F DUP4 ADD SLT PUSH2 0x3D8A JUMPI PUSH1 0x0 DUP1 REVERT JUMPDEST DUP2 CALLDATALOAD PUSH1 0x20 PUSH2 0x3D9F PUSH2 0x3D9A DUP4 PUSH2 0x3D40 JUMP JUMPDEST PUSH2 0x3CF1 JUMP JUMPDEST DUP3 DUP2 MSTORE PUSH1 0x5 SWAP3 SWAP1 SWAP3 SHL DUP5 ADD DUP2 ADD SWAP2 DUP2 DUP2 ADD SWAP1 DUP7 DUP5 GT ISZERO PUSH2 0x3DBE JUMPI PUSH1 0x0 DUP1 REVERT JUMPDEST DUP3 DUP7 ADD JUMPDEST DUP5 DUP2 LT ISZERO PUSH2 0x3DE2 JUMPI DUP1 CALLDATALOAD PUSH2 0x3DD5 DUP2 PUSH2 0x3D64 JUMP JUMPDEST DUP4 MSTORE SWAP2 DUP4 ADD SWAP2 DUP4 ADD PUSH2 0x3DC2 JUMP JUMPDEST POP SWAP7 SWAP6 POP POP POP POP POP POP JUMP JUMPDEST DUP1 ISZERO ISZERO DUP2 EQ PUSH2 0x1901 JUMPI PUSH1 0x0 DUP1 REVERT JUMPDEST PUSH1 0x0 DUP1 PUSH1 0x40 DUP4 DUP6 SUB SLT ISZERO PUSH2 0x3E0E JUMPI PUSH1 0x0 DUP1 REVERT JUMPDEST DUP3 CALLDATALOAD PUSH8 0xFFFFFFFFFFFFFFFF DUP1 DUP3 GT ISZERO PUSH2 0x3E26 JUMPI PUSH1 0x0 DUP1 REVERT JUMPDEST PUSH2 0x3E32 DUP7 DUP4 DUP8 ADD PUSH2 0x3D79 JUMP JUMPDEST SWAP4 POP PUSH1 0x20 SWAP2 POP DUP2 DUP6 ADD CALLDATALOAD DUP2 DUP2 GT ISZERO PUSH2 0x3E49 JUMPI PUSH1 0x0 DUP1 REVERT JUMPDEST DUP6 ADD SWAP1 POP PUSH1 0x1F DUP2 ADD DUP7 SGT PUSH2 0x3E5C JUMPI PUSH1 0x0 DUP1 REVERT JUMPDEST DUP1 CALLDATALOAD PUSH2 0x3E6A PUSH2 0x3D9A DUP3 PUSH2 0x3D40 JUMP JUMPDEST DUP2 DUP2 MSTORE PUSH1 0x5 SWAP2 SWAP1 SWAP2 SHL DUP3 ADD DUP4 ADD SWAP1 DUP4 DUP2 ADD SWAP1 DUP9 DUP4 GT ISZERO PUSH2 0x3E89 JUMPI PUSH1 0x0 DUP1 REVERT JUMPDEST SWAP3 DUP5 ADD SWAP3 JUMPDEST DUP3 DUP5 LT ISZERO PUSH2 0x3EB0 JUMPI DUP4 CALLDATALOAD PUSH2 0x3EA1 DUP2 PUSH2 0x3DED JUMP JUMPDEST DUP3 MSTORE SWAP3 DUP5 ADD SWAP3 SWAP1 DUP5 ADD SWAP1 PUSH2 0x3E8E JUMP JUMPDEST DUP1 SWAP6 POP POP POP POP POP POP SWAP3 POP SWAP3 SWAP1 POP JUMP JUMPDEST PUSH1 0x0 PUSH1 0x20 DUP3 DUP5 SUB SLT ISZERO PUSH2 0x3ED1 JUMPI PUSH1 0x0 DUP1 REVERT JUMPDEST DUP2 CALLDATALOAD PUSH2 0x1C7B DUP2 PUSH2 0x3D64 JUMP JUMPDEST PUSH1 0x0 DUP1 PUSH1 0x0 DUP1 PUSH1 0x80 DUP6 DUP8 SUB SLT ISZERO PUSH2 0x3EF2 JUMPI PUSH1 0x0 DUP1 REVERT JUMPDEST DUP5 CALLDATALOAD PUSH2 0x3EFD DUP2 PUSH2 0x3D64 JUMP JUMPDEST SWAP4 POP PUSH1 0x20 DUP6 ADD CALLDATALOAD PUSH2 0x3F0D DUP2 PUSH2 0x3D64 JUMP JUMPDEST SWAP4 SWAP7 SWAP4 SWAP6 POP POP POP POP PUSH1 0x40 DUP3 ADD CALLDATALOAD SWAP2 PUSH1 0x60 ADD CALLDATALOAD SWAP1 JUMP JUMPDEST DUP1 CALLDATALOAD PUSH1 0x2 DUP2 LT PUSH2 0x3F31 JUMPI PUSH1 0x0 DUP1 REVERT JUMPDEST SWAP2 SWAP1 POP JUMP JUMPDEST PUSH1 0x0 PUSH1 0x20 DUP3 DUP5 SUB SLT ISZERO PUSH2 0x3F48 JUMPI PUSH1 0x0 DUP1 REVERT JUMPDEST PUSH2 0x1C7B DUP3 PUSH2 0x3F22 JUMP JUMPDEST PUSH1 0x0 DUP1 PUSH1 0x40 DUP4 DUP6 SUB SLT ISZERO PUSH2 0x3F64 JUMPI PUSH1 0x0 DUP1 REVERT JUMPDEST DUP3 CALLDATALOAD PUSH2 0x3F6F DUP2 PUSH2 0x3D64 JUMP JUMPDEST SWAP5 PUSH1 0x20 SWAP4 SWAP1 SWAP4 ADD CALLDATALOAD SWAP4 POP POP POP JUMP JUMPDEST PUSH32 0x4E487B7100000000000000000000000000000000000000000000000000000000 PUSH1 0x0 MSTORE PUSH1 0x21 PUSH1 0x4 MSTORE PUSH1 0x24 PUSH1 0x0 REVERT JUMPDEST PUSH1 0x20 DUP2 ADD PUSH1 0x2 DUP4 LT PUSH2 0x3FE7 JUMPI PUSH32 0x4E487B7100000000000000000000000000000000000000000000000000000000 PUSH1 0x0 MSTORE PUSH1 0x21 PUSH1 0x4 MSTORE PUSH1 0x24 PUSH1 0x0 REVERT JUMPDEST SWAP2 SWAP1 MSTORE SWAP1 JUMP JUMPDEST PUSH1 0x0 PUSH1 0x60 DUP3 DUP5 SUB SLT ISZERO PUSH2 0x3FFF JUMPI PUSH1 0x0 DUP1 REVERT JUMPDEST PUSH2 0x4007 PUSH2 0x3C82 JUMP JUMPDEST SWAP1 POP DUP2 CALLDATALOAD PUSH2 0x4014 DUP2 PUSH2 0x3D64 JUMP JUMPDEST DUP1 DUP3 MSTORE POP PUSH1 0x20 DUP3 ADD CALLDATALOAD PUSH1 0x20 DUP3 ADD MSTORE PUSH1 0x40 DUP3 ADD CALLDATALOAD PUSH1 0x40 DUP3 ADD MSTORE SWAP3 SWAP2 POP POP JUMP JUMPDEST PUSH1 0x0 PUSH1 0x80 DUP3 DUP5 SUB SLT ISZERO PUSH2 0x4044 JUMPI PUSH1 0x0 DUP1 REVERT JUMPDEST PUSH1 0x40 MLOAD PUSH1 0x80 DUP2 ADD DUP2 DUP2 LT PUSH8 0xFFFFFFFFFFFFFFFF DUP3 GT OR ISZERO PUSH2 0x4067 JUMPI PUSH2 0x4067 PUSH2 0x3C53 JUMP JUMPDEST DUP1 PUSH1 0x40 MSTORE POP DUP1 SWAP2 POP DUP3 CALLDATALOAD DUP2 MSTORE PUSH1 0x20 DUP4 ADD CALLDATALOAD PUSH1 0x20 DUP3 ADD MSTORE PUSH1 0x40 DUP4 ADD CALLDATALOAD PUSH1 0x40 DUP3 ADD MSTORE PUSH1 0x60 DUP4 ADD CALLDATALOAD PUSH1 0x60 DUP3 ADD MSTORE POP SWAP3 SWAP2 POP POP JUMP JUMPDEST PUSH1 0x0 PUSH1 0x60 DUP3 DUP5 SUB SLT ISZERO PUSH2 0x40AA JUMPI PUSH1 0x0 DUP1 REVERT JUMPDEST PUSH2 0x40B2 PUSH2 0x3C82 JUMP JUMPDEST SWAP1 POP DUP2 CALLDATALOAD DUP2 MSTORE PUSH1 0x20 DUP3 ADD CALLDATALOAD PUSH1 0x20 DUP3 ADD MSTORE PUSH1 0x40 DUP3 ADD CALLDATALOAD PUSH1 0x40 DUP3 ADD MSTORE SWAP3 SWAP2 POP POP JUMP JUMPDEST PUSH1 0x0 PUSH1 0x40 DUP3 DUP5 SUB SLT ISZERO PUSH2 0x40E4 JUMPI PUSH1 0x0 DUP1 REVERT JUMPDEST PUSH2 0x40EC PUSH2 0x3CAB JUMP JUMPDEST SWAP1 POP PUSH2 0x40F7 DUP3 PUSH2 0x3F22 JUMP JUMPDEST DUP2 MSTORE PUSH1 0x20 DUP3 ADD CALLDATALOAD PUSH8 0xFFFFFFFFFFFFFFFF DUP2 GT ISZERO PUSH2 0x4113 JUMPI PUSH1 0x0 DUP1 REVERT JUMPDEST PUSH2 0x411F DUP5 DUP3 DUP6 ADD PUSH2 0x3D79 JUMP JUMPDEST PUSH1 0x20 DUP4 ADD MSTORE POP SWAP3 SWAP2 POP POP JUMP JUMPDEST PUSH1 0x0 PUSH1 0x80 DUP3 DUP5 SUB SLT ISZERO PUSH2 0x413D JUMPI PUSH1 0x0 DUP1 REVERT JUMPDEST PUSH2 0x4145 PUSH2 0x3CAB JUMP JUMPDEST SWAP1 POP DUP2 CALLDATALOAD PUSH2 0x4152 DUP2 PUSH2 0x3D64 JUMP JUMPDEST DUP2 MSTORE PUSH2 0x4161 DUP4 PUSH1 0x20 DUP5 ADD PUSH2 0x3FED JUMP JUMPDEST PUSH1 0x20 DUP3 ADD MSTORE SWAP3 SWAP2 POP POP JUMP JUMPDEST PUSH1 0x0 PUSH1 0x80 DUP1 DUP4 DUP6 SUB SLT ISZERO PUSH2 0x417F JUMPI PUSH1 0x0 DUP1 REVERT JUMPDEST PUSH2 0x4187 PUSH2 0x3CAB JUMP JUMPDEST SWAP2 POP PUSH2 0x4193 DUP5 DUP5 PUSH2 0x3FED JUMP JUMPDEST DUP3 MSTORE PUSH1 0x60 DUP4 ADD CALLDATALOAD PUSH8 0xFFFFFFFFFFFFFFFF DUP2 GT ISZERO PUSH2 0x41AF JUMPI PUSH1 0x0 DUP1 REVERT JUMPDEST DUP4 ADD PUSH1 0x1F DUP2 ADD DUP6 SGT PUSH2 0x41C0 JUMPI PUSH1 0x0 DUP1 REVERT JUMPDEST DUP1 CALLDATALOAD PUSH1 0x20 PUSH2 0x41D0 PUSH2 0x3D9A DUP4 PUSH2 0x3D40 JUMP JUMPDEST DUP3 DUP2 MSTORE PUSH1 0x7 SWAP3 SWAP1 SWAP3 SHL DUP4 ADD DUP2 ADD SWAP2 DUP2 DUP2 ADD SWAP1 DUP9 DUP5 GT ISZERO PUSH2 0x41EF JUMPI PUSH1 0x0 DUP1 REVERT JUMPDEST SWAP4 DUP3 ADD SWAP4 JUMPDEST DUP4 DUP6 LT ISZERO PUSH2 0x4215 JUMPI PUSH2 0x4206 DUP10 DUP7 PUSH2 0x412B JUMP JUMPDEST DUP3 MSTORE SWAP4 DUP6 ADD SWAP4 SWAP1 DUP3 ADD SWAP1 PUSH2 0x41F4 JUMP JUMPDEST DUP1 DUP4 DUP9 ADD MSTORE POP POP POP POP POP POP SWAP3 SWAP2 POP POP JUMP JUMPDEST PUSH1 0x0 PUSH1 0x80 DUP1 DUP4 DUP6 SUB SLT ISZERO PUSH2 0x4239 JUMPI PUSH1 0x0 DUP1 REVERT JUMPDEST PUSH2 0x4241 PUSH2 0x3CAB JUMP JUMPDEST SWAP2 POP PUSH2 0x424D DUP5 DUP5 PUSH2 0x3FED JUMP JUMPDEST DUP3 MSTORE PUSH1 0x60 DUP4 ADD CALLDATALOAD PUSH8 0xFFFFFFFFFFFFFFFF DUP2 GT ISZERO PUSH2 0x4269 JUMPI PUSH1 0x0 DUP1 REVERT JUMPDEST DUP4 ADD PUSH1 0x1F DUP2 ADD DUP6 SGT PUSH2 0x427A JUMPI PUSH1 0x0 DUP1 REVERT JUMPDEST DUP1 CALLDATALOAD PUSH1 0x20 PUSH2 0x428A PUSH2 0x3D9A DUP4 PUSH2 0x3D40 JUMP JUMPDEST DUP3 DUP2 MSTORE PUSH1 0x7 SWAP3 SWAP1 SWAP3 SHL DUP4 ADD DUP2 ADD SWAP2 DUP2 DUP2 ADD SWAP1 DUP9 DUP5 GT ISZERO PUSH2 0x42A9 JUMPI PUSH1 0x0 DUP1 REVERT JUMPDEST SWAP4 DUP3 ADD SWAP4 JUMPDEST DUP4 DUP6 LT ISZERO PUSH2 0x4215 JUMPI PUSH2 0x42C0 DUP10 DUP7 PUSH2 0x412B JUMP JUMPDEST DUP3 MSTORE SWAP4 DUP6 ADD SWAP4 SWAP1 DUP3 ADD SWAP1 PUSH2 0x42AE JUMP JUMPDEST PUSH1 0x0 PUSH1 0x20 DUP3 DUP5 SUB SLT ISZERO PUSH2 0x42E1 JUMPI PUSH1 0x0 DUP1 REVERT JUMPDEST DUP2 CALLDATALOAD PUSH8 0xFFFFFFFFFFFFFFFF DUP1 DUP3 GT ISZERO PUSH2 0x42F9 JUMPI PUSH1 0x0 DUP1 REVERT JUMPDEST SWAP1 DUP4 ADD SWAP1 PUSH1 0x40 DUP3 DUP7 SUB SLT ISZERO PUSH2 0x430D JUMPI PUSH1 0x0 DUP1 REVERT JUMPDEST PUSH2 0x4315 PUSH2 0x3CAB JUMP JUMPDEST DUP3 CALLDATALOAD PUSH2 0x4320 DUP2 PUSH2 0x3D64 JUMP JUMPDEST DUP2 MSTORE PUSH1 0x20 DUP4 ADD CALLDATALOAD DUP3 DUP2 GT ISZERO PUSH2 0x4334 JUMPI PUSH1 0x0 DUP1 REVERT JUMPDEST SWAP3 SWAP1 SWAP3 ADD SWAP2 PUSH2 0x1A0 DUP4 DUP8 SUB SLT ISZERO PUSH2 0x434A JUMPI PUSH1 0x0 DUP1 REVERT JUMPDEST PUSH2 0x4352 PUSH2 0x3CCE JUMP JUMPDEST PUSH2 0x435C DUP8 DUP6 PUSH2 0x3FED JUMP JUMPDEST DUP2 MSTORE PUSH2 0x436B DUP8 PUSH1 0x60 DUP7 ADD PUSH2 0x4032 JUMP JUMPDEST PUSH1 0x20 DUP3 ADD MSTORE PUSH2 0x437D DUP8 PUSH1 0xE0 DUP7 ADD PUSH2 0x4098 JUMP JUMPDEST PUSH1 0x40 DUP3 ADD MSTORE PUSH2 0x140 DUP5 ADD CALLDATALOAD DUP4 DUP2 GT ISZERO PUSH2 0x4395 JUMPI PUSH1 0x0 DUP1 REVERT JUMPDEST PUSH2 0x43A1 DUP9 DUP3 DUP8 ADD PUSH2 0x40D2 JUMP JUMPDEST PUSH1 0x60 DUP4 ADD MSTORE POP PUSH2 0x160 DUP5 ADD CALLDATALOAD DUP4 DUP2 GT ISZERO PUSH2 0x43BA JUMPI PUSH1 0x0 DUP1 REVERT JUMPDEST PUSH2 0x43C6 DUP9 DUP3 DUP8 ADD PUSH2 0x416C JUMP JUMPDEST PUSH1 0x80 DUP4 ADD MSTORE POP PUSH2 0x180 DUP5 ADD CALLDATALOAD DUP4 DUP2 GT ISZERO PUSH2 0x43DF JUMPI PUSH1 0x0 DUP1 REVERT JUMPDEST PUSH2 0x43EB DUP9 DUP3 DUP8 ADD PUSH2 0x4226 JUMP JUMPDEST PUSH1 0xA0 DUP4 ADD MSTORE POP PUSH1 0x20 DUP3 ADD MSTORE SWAP6 SWAP5 POP POP POP POP POP JUMP JUMPDEST PUSH1 0x0 DUP1 PUSH1 0x40 DUP4 DUP6 SUB SLT ISZERO PUSH2 0x4412 JUMPI PUSH1 0x0 DUP1 REVERT JUMPDEST POP POP DUP1 CALLDATALOAD SWAP3 PUSH1 0x20 SWAP1 SWAP2 ADD CALLDATALOAD SWAP2 POP JUMP JUMPDEST PUSH1 0x0 DUP1 PUSH1 0x0 PUSH1 0x60 DUP5 DUP7 SUB SLT ISZERO PUSH2 0x4436 JUMPI PUSH1 0x0 DUP1 REVERT JUMPDEST DUP4 CALLDATALOAD PUSH2 0x4441 DUP2 PUSH2 0x3D64 JUMP JUMPDEST SWAP6 PUSH1 0x20 DUP6 ADD CALLDATALOAD SWAP6 POP PUSH1 0x40 SWAP1 SWAP5 ADD CALLDATALOAD SWAP4 SWAP3 POP POP POP JUMP JUMPDEST PUSH32 0x4E487B7100000000000000000000000000000000000000000000000000000000 PUSH1 0x0 MSTORE PUSH1 0x32 PUSH1 0x4 MSTORE PUSH1 0x24 PUSH1 0x0 REVERT JUMPDEST PUSH32 0x4E487B7100000000000000000000000000000000000000000000000000000000 PUSH1 0x0 MSTORE PUSH1 0x11 PUSH1 0x4 MSTORE PUSH1 0x24 PUSH1 0x0 REVERT JUMPDEST PUSH1 0x0 PUSH32 0xFFFFFFFFFFFFFFFFFFFFFFFFFFFFFFFFFFFFFFFFFFFFFFFFFFFFFFFFFFFFFFFF DUP3 SUB PUSH2 0x44E5 JUMPI PUSH2 0x44E5 PUSH2 0x4485 JUMP JUMPDEST POP PUSH1 0x1 ADD SWAP1 JUMP JUMPDEST PUSH1 0x0 PUSH1 0x20 DUP3 DUP5 SUB SLT ISZERO PUSH2 0x44FE JUMPI PUSH1 0x0 DUP1 REVERT JUMPDEST POP MLOAD SWAP2 SWAP1 POP JUMP JUMPDEST PUSH1 0x0 PUSH1 0x80 DUP3 ADD PUSH1 0x1 PUSH1 0x1 PUSH1 0xA0 SHL SUB DUP1 DUP9 AND DUP5 MSTORE PUSH1 0x20 DUP2 DUP9 AND DUP2 DUP7 ADD MSTORE PUSH32 0xFFFFFFFF00000000000000000000000000000000000000000000000000000000 DUP8 AND PUSH1 0x40 DUP7 ADD MSTORE PUSH1 0x80 PUSH1 0x60 DUP7 ADD MSTORE DUP3 SWAP2 POP DUP6 MLOAD DUP1 DUP5 MSTORE PUSH1 0xA0 DUP7 ADD SWAP3 POP DUP2 DUP8 ADD SWAP4 POP PUSH1 0x0 JUMPDEST DUP2 DUP2 LT ISZERO PUSH2 0x4582 JUMPI DUP5 MLOAD DUP5 MSTORE SWAP4 DUP3 ADD SWAP4 SWAP3 DUP3 ADD SWAP3 PUSH1 0x1 ADD PUSH2 0x4566 JUMP JUMPDEST POP SWAP2 SWAP10 SWAP9 POP POP POP POP POP POP POP POP POP JUMP JUMPDEST PUSH1 0x0 PUSH1 0x20 DUP3 DUP5 SUB SLT ISZERO PUSH2 0x45A3 JUMPI PUSH1 0x0 DUP1 REVERT JUMPDEST DUP2 MLOAD PUSH2 0x1C7B DUP2 PUSH2 0x3DED JUMP JUMPDEST DUP1 DUP3 ADD DUP1 DUP3 GT ISZERO PUSH2 0xFB4 JUMPI PUSH2 0xFB4 PUSH2 0x4485 JUMP JUMPDEST DUP2 DUP2 SUB DUP2 DUP2 GT ISZERO PUSH2 0xFB4 JUMPI PUSH2 0xFB4 PUSH2 0x4485 JUMP JUMPDEST PUSH32 0x4E487B7100000000000000000000000000000000000000000000000000000000 PUSH1 0x0 MSTORE PUSH1 0x31 PUSH1 0x4 MSTORE PUSH1 0x24 PUSH1 0x0 REVERT JUMPDEST PUSH32 0x4E487B7100000000000000000000000000000000000000000000000000000000 PUSH1 0x0 MSTORE PUSH1 0x12 PUSH1 0x4 MSTORE PUSH1 0x24 PUSH1 0x0 REVERT JUMPDEST PUSH1 0x0 DUP3 PUSH2 0x4668 JUMPI PUSH32 0x4E487B7100000000000000000000000000000000000000000000000000000000 PUSH1 0x0 MSTORE PUSH1 0x12 PUSH1 0x4 MSTORE PUSH1 0x24 PUSH1 0x0 REVERT JUMPDEST POP DIV SWAP1 JUMP JUMPDEST DUP1 DUP3 MUL DUP2 ISZERO DUP3 DUP3 DIV DUP5 EQ OR PUSH2 0xFB4 JUMPI PUSH2 0xFB4 PUSH2 0x4485 JUMP JUMPDEST PUSH1 0x0 PUSH1 0x20 DUP3 DUP5 SUB SLT ISZERO PUSH2 0x4696 JUMPI PUSH1 0x0 DUP1 REVERT JUMPDEST DUP2 MLOAD PUSH2 0x1C7B DUP2 PUSH2 0x3D64 JUMP INVALID LOG2 PUSH5 0x6970667358 0x22 SLT KECCAK256 CALLCODE OR 0xB3 STOP 0x4D 0xAD MLOAD BYTE PUSH3 0xE0F539 0xA5 0xA7 0xC9 0xC 0xB3 0xB1 INVALID 0xDC 0xB3 0xC3 0xC6 0xE6 GAS DELEGATECALL PUSH16 0x30C0D3B9C064736F6C63430008110033 "},"methodIdentifiers":{"EXECUTION_TYPE()":"4a45a3a8","authorizer()":"d09edf31","call(address,uint256)":"3bd9ef28","customTokenThreshold(address)":"a5900c4d","customVolumeLimit(address)":"221a8c68","defaultTokenThreshold()":"a3374177","defaultVolumeLimit()":"6aacaad8","gasPriceLimit()":"961a929c","getTaskAmount(address)":"a0c3774f","getTokenThreshold(address)":"51a424b1","getTokensSource()":"c267621e","getVolumeLimit(address)":"d45a76cf","initialize((address,((address,bytes32,bytes32),(uint256,uint256,uint256,uint256),(uint256,uint256,uint256),(uint8,address[]),((address,uint256,uint256),(address,(address,uint256,uint256))[]),((address,uint256,uint256),(address,(address,uint256,uint256))[]))))":"60343c2f","isPaused()":"b187bd26","nextBalanceConnectorId()":"f605145b","pause()":"8456cb59","previousBalanceConnectorId()":"ab76d408","priorityFeeLimit()":"6cd8fca7","setBalanceConnectors(bytes32,bytes32)":"7125590a","setCustomTokenThreshold(address,address,uint256,uint256)":"2384c32d","setCustomVolumeLimit(address,address,uint256,uint256)":"423a4b40","setDefaultTokenThreshold(address,uint256,uint256)":"d3feb602","setDefaultVolumeLimit(address,uint256,uint256)":"90333ba8","setGasPriceLimit(uint256)":"09231602","setPriorityFeeLimit(uint256)":"34077acc","setTimeLockDelay(uint256)":"c49a91fe","setTimeLockExecutionPeriod(uint256)":"ee98cf6d","setTimeLockExpiration(uint256)":"f440284b","setTokensAcceptanceList(address[],bool[])":"21972384","setTokensAcceptanceType(uint8)":"30eae572","setTokensSource(address)":"993fd4de","setTxCostLimit(uint256)":"0652095d","setTxCostLimitPct(uint256)":"dccf56ce","smartVault()":"4fd49efd","timeLockDelay()":"8bbc6446","timeLockExecutionPeriod()":"85538533","timeLockExpiration()":"5d28414c","tokensAcceptanceType()":"42d4693e","txCostLimit()":"7d43d4ed","txCostLimitPct()":"d4dfd588","unpause()":"3f4ba83a"}}}}}