{"contracts/FeeController.sol":{"FeeController":{"abi":[{"inputs":[{"internalType":"address","name":"collector","type":"address"},{"internalType":"address","name":"owner","type":"address"}],"stateMutability":"nonpayable","type":"constructor"},{"anonymous":false,"inputs":[{"indexed":true,"internalType":"address","name":"collector","type":"address"}],"name":"DefaultFeeCollectorSet","type":"event"},{"anonymous":false,"inputs":[{"indexed":true,"internalType":"address","name":"smartVault","type":"address"},{"indexed":true,"internalType":"address","name":"collector","type":"address"}],"name":"FeeCollectorSet","type":"event"},{"anonymous":false,"inputs":[{"indexed":true,"internalType":"address","name":"smartVault","type":"address"},{"indexed":false,"internalType":"uint256","name":"pct","type":"uint256"}],"name":"FeePercentageSet","type":"event"},{"anonymous":false,"inputs":[{"indexed":true,"internalType":"address","name":"smartVault","type":"address"},{"indexed":false,"internalType":"uint256","name":"maxPct","type":"uint256"}],"name":"MaxFeePercentageSet","type":"event"},{"anonymous":false,"inputs":[{"indexed":true,"internalType":"address","name":"previousOwner","type":"address"},{"indexed":true,"internalType":"address","name":"newOwner","type":"address"}],"name":"OwnershipTransferred","type":"event"},{"inputs":[],"name":"defaultFeeCollector","outputs":[{"internalType":"address","name":"","type":"address"}],"stateMutability":"view","type":"function"},{"inputs":[{"internalType":"address","name":"smartVault","type":"address"}],"name":"getFee","outputs":[{"internalType":"uint256","name":"max","type":"uint256"},{"internalType":"uint256","name":"pct","type":"uint256"},{"internalType":"address","name":"collector","type":"address"}],"stateMutability":"view","type":"function"},{"inputs":[{"internalType":"address","name":"smartVault","type":"address"}],"name":"hasFee","outputs":[{"internalType":"bool","name":"","type":"bool"}],"stateMutability":"view","type":"function"},{"inputs":[],"name":"owner","outputs":[{"internalType":"address","name":"","type":"address"}],"stateMutability":"view","type":"function"},{"inputs":[],"name":"renounceOwnership","outputs":[],"stateMutability":"nonpayable","type":"function"},{"inputs":[{"internalType":"address","name":"collector","type":"address"}],"name":"setDefaultFeeCollector","outputs":[],"stateMutability":"nonpayable","type":"function"},{"inputs":[{"internalType":"address","name":"smartVault","type":"address"},{"internalType":"address","name":"collector","type":"address"}],"name":"setFeeCollector","outputs":[],"stateMutability":"nonpayable","type":"function"},{"inputs":[{"internalType":"address","name":"smartVault","type":"address"},{"internalType":"uint256","name":"pct","type":"uint256"}],"name":"setFeePercentage","outputs":[],"stateMutability":"nonpayable","type":"function"},{"inputs":[{"internalType":"address","name":"smartVault","type":"address"},{"internalType":"uint256","name":"maxPct","type":"uint256"}],"name":"setMaxFeePercentage","outputs":[],"stateMutability":"nonpayable","type":"function"},{"inputs":[{"internalType":"address","name":"newOwner","type":"address"}],"name":"transferOwnership","outputs":[],"stateMutability":"nonpayable","type":"function"}],"evm":{"bytecode":{"linkReferences":{},"object":"608060405234801561001057600080fd5b50604051610d59380380610d5983398101604081905261002f91610161565b61003833610051565b61004181610051565b61004a826100a1565b5050610194565b600080546001600160a01b038381166001600160a01b0319831681178455604051919092169283917f8be0079c531659141344cd1fd0a4f28419497f9722a3daafe3b4186f6b6457e09190a35050565b6001600160a01b0381166100fb5760405162461bcd60e51b815260206004820152601d60248201527f4645455f434f4e54524f4c4c45525f434f4c4c4543544f525f5a45524f000000604482015260640160405180910390fd5b600180546001600160a01b0319166001600160a01b0383169081179091556040517ff50168d604b49c86e8d064593a3e10cc6144163ca0b009a56510cd4654be2a8290600090a250565b80516001600160a01b038116811461015c57600080fd5b919050565b6000806040838503121561017457600080fd5b61017d83610145565b915061018b60208401610145565b90509250929050565b610bb6806101a36000396000f3fe608060405234801561001057600080fd5b50600436106100be5760003560e01c8063b88c914811610076578063ccceb7cd1161005b578063ccceb7cd146101ea578063f2fde38b146101fd578063f5e3ff2e1461021057600080fd5b8063b88c914814610193578063cbe0130e146101d757600080fd5b80637497e296116100a75780637497e296146100e057806375926137146101305780638da5cb5b1461017557600080fd5b806329149799146100c3578063715018a6146100d8575b600080fd5b6100d66100d1366004610b01565b610223565b005b6100d66103b6565b61011b6100ee366004610b34565b73ffffffffffffffffffffffffffffffffffffffff16600090815260026020526040902060010154151590565b60405190151581526020015b60405180910390f35b6001546101509073ffffffffffffffffffffffffffffffffffffffff1681565b60405173ffffffffffffffffffffffffffffffffffffffff9091168152602001610127565b60005473ffffffffffffffffffffffffffffffffffffffff16610150565b6101a66101a1366004610b34565b6103ca565b60408051938452602084019290925273ffffffffffffffffffffffffffffffffffffffff1690820152606001610127565b6100d66101e5366004610b56565b6104cd565b6100d66101f8366004610b34565b6104e3565b6100d661020b366004610b34565b6104f7565b6100d661021e366004610b56565b6105ab565b61022b6107a5565b73ffffffffffffffffffffffffffffffffffffffff81166102ad576040517f08c379a000000000000000000000000000000000000000000000000000000000815260206004820152601d60248201527f4645455f434f4e54524f4c4c45525f434f4c4c4543544f525f5a45524f00000060448201526064015b60405180910390fd5b73ffffffffffffffffffffffffffffffffffffffff82166000908152600260205260409020600181015461033d576040517f08c379a000000000000000000000000000000000000000000000000000000000815260206004820152601960248201527f4645455f434f4e54524f4c4c45525f53565f4e4f545f5345540000000000000060448201526064016102a4565b6002810180547fffffffffffffffffffffffff00000000000000000000000000000000000000001673ffffffffffffffffffffffffffffffffffffffff84811691821790925560405190918516907f089588e3f10370c99a6f74177eacb5361ba90e1b70a123bfeccb6619c21cd72190600090a3505050565b6103be6107a5565b6103c86000610826565b565b73ffffffffffffffffffffffffffffffffffffffff8116600090815260026020526040812060018101548291829161045e576040517f08c379a000000000000000000000000000000000000000000000000000000000815260206004820152601960248201527f4645455f434f4e54524f4c4c45525f53565f4e4f545f5345540000000000000060448201526064016102a4565b80546001820154600283015490955090935073ffffffffffffffffffffffffffffffffffffffff166104a85760015473ffffffffffffffffffffffffffffffffffffffff166104c4565b600281015473ffffffffffffffffffffffffffffffffffffffff165b93959294505050565b6104d56107a5565b6104df828261089b565b5050565b6104eb6107a5565b6104f4816109ec565b50565b6104ff6107a5565b73ffffffffffffffffffffffffffffffffffffffff81166105a2576040517f08c379a000000000000000000000000000000000000000000000000000000000815260206004820152602660248201527f4f776e61626c653a206e6577206f776e657220697320746865207a65726f206160448201527f646472657373000000000000000000000000000000000000000000000000000060648201526084016102a4565b6104f481610826565b6105b36107a5565b6000811161061d576040517f08c379a000000000000000000000000000000000000000000000000000000000815260206004820152601b60248201527f4645455f434f4e54524f4c4c45525f4d41585f5043545f5a45524f000000000060448201526064016102a4565b73ffffffffffffffffffffffffffffffffffffffff8216600090815260026020526040812060018101549091036106c457670de0b6b3a764000082106106bf576040517f08c379a000000000000000000000000000000000000000000000000000000000815260206004820181905260248201527f4645455f434f4e54524f4c4c45525f4d41585f5043545f41424f56455f4f4e4560448201526064016102a4565b610731565b80600101548210610731576040517f08c379a000000000000000000000000000000000000000000000000000000000815260206004820181905260248201527f4645455f434f4e54524f4c4c45525f4d41585f5043545f41424f56455f50524560448201526064016102a4565b6001810182905560405182815273ffffffffffffffffffffffffffffffffffffffff8416907f481d14805617b376d10b914540d5a35df311950d549f9bfd4381a643cca52eb99060200160405180910390a2805415806107915750805482105b156107a0576107a0838361089b565b505050565b60005473ffffffffffffffffffffffffffffffffffffffff1633146103c8576040517f08c379a000000000000000000000000000000000000000000000000000000000815260206004820181905260248201527f4f776e61626c653a2063616c6c6572206973206e6f7420746865206f776e657260448201526064016102a4565b6000805473ffffffffffffffffffffffffffffffffffffffff8381167fffffffffffffffffffffffff0000000000000000000000000000000000000000831681178455604051919092169283917f8be0079c531659141344cd1fd0a4f28419497f9722a3daafe3b4186f6b6457e09190a35050565b73ffffffffffffffffffffffffffffffffffffffff82166000908152600260205260409020600181015461092b576040517f08c379a000000000000000000000000000000000000000000000000000000000815260206004820152601960248201527f4645455f434f4e54524f4c4c45525f53565f4e4f545f5345540000000000000060448201526064016102a4565b8060010154821115610999576040517f08c379a000000000000000000000000000000000000000000000000000000000815260206004820152601c60248201527f4645455f434f4e54524f4c4c45525f5043545f41424f56455f4d41580000000060448201526064016102a4565b81815560405182815273ffffffffffffffffffffffffffffffffffffffff8416907f59ac1250f26f38c2e2e4fee3c4131335122f06eda9f550b7fcf3f04171a69fec9060200160405180910390a2505050565b73ffffffffffffffffffffffffffffffffffffffff8116610a69576040517f08c379a000000000000000000000000000000000000000000000000000000000815260206004820152601d60248201527f4645455f434f4e54524f4c4c45525f434f4c4c4543544f525f5a45524f00000060448201526064016102a4565b600180547fffffffffffffffffffffffff00000000000000000000000000000000000000001673ffffffffffffffffffffffffffffffffffffffff83169081179091556040517ff50168d604b49c86e8d064593a3e10cc6144163ca0b009a56510cd4654be2a8290600090a250565b803573ffffffffffffffffffffffffffffffffffffffff81168114610afc57600080fd5b919050565b60008060408385031215610b1457600080fd5b610b1d83610ad8565b9150610b2b60208401610ad8565b90509250929050565b600060208284031215610b4657600080fd5b610b4f82610ad8565b9392505050565b60008060408385031215610b6957600080fd5b610b7283610ad8565b94602093909301359350505056fea264697066735822122042c245f8636cef72a89d69c481a39adde1de108e21ca39f071cd0bbdc7d7880664736f6c63430008110033","opcodes":"PUSH1 0x80 PUSH1 0x40 MSTORE CALLVALUE DUP1 ISZERO PUSH2 0x10 JUMPI PUSH1 0x0 DUP1 REVERT JUMPDEST POP PUSH1 0x40 MLOAD PUSH2 0xD59 CODESIZE SUB DUP1 PUSH2 0xD59 DUP4 CODECOPY DUP2 ADD PUSH1 0x40 DUP2 SWAP1 MSTORE PUSH2 0x2F SWAP2 PUSH2 0x161 JUMP JUMPDEST PUSH2 0x38 CALLER PUSH2 0x51 JUMP JUMPDEST PUSH2 0x41 DUP2 PUSH2 0x51 JUMP JUMPDEST PUSH2 0x4A DUP3 PUSH2 0xA1 JUMP JUMPDEST POP POP PUSH2 0x194 JUMP JUMPDEST PUSH1 0x0 DUP1 SLOAD PUSH1 0x1 PUSH1 0x1 PUSH1 0xA0 SHL SUB DUP4 DUP2 AND PUSH1 0x1 PUSH1 0x1 PUSH1 0xA0 SHL SUB NOT DUP4 AND DUP2 OR DUP5 SSTORE PUSH1 0x40 MLOAD SWAP2 SWAP1 SWAP3 AND SWAP3 DUP4 SWAP2 PUSH32 0x8BE0079C531659141344CD1FD0A4F28419497F9722A3DAAFE3B4186F6B6457E0 SWAP2 SWAP1 LOG3 POP POP JUMP JUMPDEST PUSH1 0x1 PUSH1 0x1 PUSH1 0xA0 SHL SUB DUP2 AND PUSH2 0xFB JUMPI PUSH1 0x40 MLOAD PUSH3 0x461BCD PUSH1 0xE5 SHL DUP2 MSTORE PUSH1 0x20 PUSH1 0x4 DUP3 ADD MSTORE PUSH1 0x1D PUSH1 0x24 DUP3 ADD MSTORE PUSH32 0x4645455F434F4E54524F4C4C45525F434F4C4C4543544F525F5A45524F000000 PUSH1 0x44 DUP3 ADD MSTORE PUSH1 0x64 ADD PUSH1 0x40 MLOAD DUP1 SWAP2 SUB SWAP1 REVERT JUMPDEST PUSH1 0x1 DUP1 SLOAD PUSH1 0x1 PUSH1 0x1 PUSH1 0xA0 SHL SUB NOT AND PUSH1 0x1 PUSH1 0x1 PUSH1 0xA0 SHL SUB DUP4 AND SWAP1 DUP2 OR SWAP1 SWAP2 SSTORE PUSH1 0x40 MLOAD PUSH32 0xF50168D604B49C86E8D064593A3E10CC6144163CA0B009A56510CD4654BE2A82 SWAP1 PUSH1 0x0 SWAP1 LOG2 POP JUMP JUMPDEST DUP1 MLOAD PUSH1 0x1 PUSH1 0x1 PUSH1 0xA0 SHL SUB DUP2 AND DUP2 EQ PUSH2 0x15C JUMPI PUSH1 0x0 DUP1 REVERT JUMPDEST SWAP2 SWAP1 POP JUMP JUMPDEST PUSH1 0x0 DUP1 PUSH1 0x40 DUP4 DUP6 SUB SLT ISZERO PUSH2 0x174 JUMPI PUSH1 0x0 DUP1 REVERT JUMPDEST PUSH2 0x17D DUP4 PUSH2 0x145 JUMP JUMPDEST SWAP2 POP PUSH2 0x18B PUSH1 0x20 DUP5 ADD PUSH2 0x145 JUMP JUMPDEST SWAP1 POP SWAP3 POP SWAP3 SWAP1 POP JUMP JUMPDEST PUSH2 0xBB6 DUP1 PUSH2 0x1A3 PUSH1 0x0 CODECOPY PUSH1 0x0 RETURN INVALID PUSH1 0x80 PUSH1 0x40 MSTORE CALLVALUE DUP1 ISZERO PUSH2 0x10 JUMPI PUSH1 0x0 DUP1 REVERT JUMPDEST POP PUSH1 0x4 CALLDATASIZE LT PUSH2 0xBE JUMPI PUSH1 0x0 CALLDATALOAD PUSH1 0xE0 SHR DUP1 PUSH4 0xB88C9148 GT PUSH2 0x76 JUMPI DUP1 PUSH4 0xCCCEB7CD GT PUSH2 0x5B JUMPI DUP1 PUSH4 0xCCCEB7CD EQ PUSH2 0x1EA JUMPI DUP1 PUSH4 0xF2FDE38B EQ PUSH2 0x1FD JUMPI DUP1 PUSH4 0xF5E3FF2E EQ PUSH2 0x210 JUMPI PUSH1 0x0 DUP1 REVERT JUMPDEST DUP1 PUSH4 0xB88C9148 EQ PUSH2 0x193 JUMPI DUP1 PUSH4 0xCBE0130E EQ PUSH2 0x1D7 JUMPI PUSH1 0x0 DUP1 REVERT JUMPDEST DUP1 PUSH4 0x7497E296 GT PUSH2 0xA7 JUMPI DUP1 PUSH4 0x7497E296 EQ PUSH2 0xE0 JUMPI DUP1 PUSH4 0x75926137 EQ PUSH2 0x130 JUMPI DUP1 PUSH4 0x8DA5CB5B EQ PUSH2 0x175 JUMPI PUSH1 0x0 DUP1 REVERT JUMPDEST DUP1 PUSH4 0x29149799 EQ PUSH2 0xC3 JUMPI DUP1 PUSH4 0x715018A6 EQ PUSH2 0xD8 JUMPI JUMPDEST PUSH1 0x0 DUP1 REVERT JUMPDEST PUSH2 0xD6 PUSH2 0xD1 CALLDATASIZE PUSH1 0x4 PUSH2 0xB01 JUMP JUMPDEST PUSH2 0x223 JUMP JUMPDEST STOP JUMPDEST PUSH2 0xD6 PUSH2 0x3B6 JUMP JUMPDEST PUSH2 0x11B PUSH2 0xEE CALLDATASIZE PUSH1 0x4 PUSH2 0xB34 JUMP JUMPDEST PUSH20 0xFFFFFFFFFFFFFFFFFFFFFFFFFFFFFFFFFFFFFFFF AND PUSH1 0x0 SWAP1 DUP2 MSTORE PUSH1 0x2 PUSH1 0x20 MSTORE PUSH1 0x40 SWAP1 KECCAK256 PUSH1 0x1 ADD SLOAD ISZERO ISZERO SWAP1 JUMP JUMPDEST PUSH1 0x40 MLOAD SWAP1 ISZERO ISZERO DUP2 MSTORE PUSH1 0x20 ADD JUMPDEST PUSH1 0x40 MLOAD DUP1 SWAP2 SUB SWAP1 RETURN JUMPDEST PUSH1 0x1 SLOAD PUSH2 0x150 SWAP1 PUSH20 0xFFFFFFFFFFFFFFFFFFFFFFFFFFFFFFFFFFFFFFFF AND DUP2 JUMP JUMPDEST PUSH1 0x40 MLOAD PUSH20 0xFFFFFFFFFFFFFFFFFFFFFFFFFFFFFFFFFFFFFFFF SWAP1 SWAP2 AND DUP2 MSTORE PUSH1 0x20 ADD PUSH2 0x127 JUMP JUMPDEST PUSH1 0x0 SLOAD PUSH20 0xFFFFFFFFFFFFFFFFFFFFFFFFFFFFFFFFFFFFFFFF AND PUSH2 0x150 JUMP JUMPDEST PUSH2 0x1A6 PUSH2 0x1A1 CALLDATASIZE PUSH1 0x4 PUSH2 0xB34 JUMP JUMPDEST PUSH2 0x3CA JUMP JUMPDEST PUSH1 0x40 DUP1 MLOAD SWAP4 DUP5 MSTORE PUSH1 0x20 DUP5 ADD SWAP3 SWAP1 SWAP3 MSTORE PUSH20 0xFFFFFFFFFFFFFFFFFFFFFFFFFFFFFFFFFFFFFFFF AND SWAP1 DUP3 ADD MSTORE PUSH1 0x60 ADD PUSH2 0x127 JUMP JUMPDEST PUSH2 0xD6 PUSH2 0x1E5 CALLDATASIZE PUSH1 0x4 PUSH2 0xB56 JUMP JUMPDEST PUSH2 0x4CD JUMP JUMPDEST PUSH2 0xD6 PUSH2 0x1F8 CALLDATASIZE PUSH1 0x4 PUSH2 0xB34 JUMP JUMPDEST PUSH2 0x4E3 JUMP JUMPDEST PUSH2 0xD6 PUSH2 0x20B CALLDATASIZE PUSH1 0x4 PUSH2 0xB34 JUMP JUMPDEST PUSH2 0x4F7 JUMP JUMPDEST PUSH2 0xD6 PUSH2 0x21E CALLDATASIZE PUSH1 0x4 PUSH2 0xB56 JUMP JUMPDEST PUSH2 0x5AB JUMP JUMPDEST PUSH2 0x22B PUSH2 0x7A5 JUMP JUMPDEST PUSH20 0xFFFFFFFFFFFFFFFFFFFFFFFFFFFFFFFFFFFFFFFF DUP2 AND PUSH2 0x2AD JUMPI PUSH1 0x40 MLOAD PUSH32 0x8C379A000000000000000000000000000000000000000000000000000000000 DUP2 MSTORE PUSH1 0x20 PUSH1 0x4 DUP3 ADD MSTORE PUSH1 0x1D PUSH1 0x24 DUP3 ADD MSTORE PUSH32 0x4645455F434F4E54524F4C4C45525F434F4C4C4543544F525F5A45524F000000 PUSH1 0x44 DUP3 ADD MSTORE PUSH1 0x64 ADD JUMPDEST PUSH1 0x40 MLOAD DUP1 SWAP2 SUB SWAP1 REVERT JUMPDEST PUSH20 0xFFFFFFFFFFFFFFFFFFFFFFFFFFFFFFFFFFFFFFFF DUP3 AND PUSH1 0x0 SWAP1 DUP2 MSTORE PUSH1 0x2 PUSH1 0x20 MSTORE PUSH1 0x40 SWAP1 KECCAK256 PUSH1 0x1 DUP2 ADD SLOAD PUSH2 0x33D JUMPI PUSH1 0x40 MLOAD PUSH32 0x8C379A000000000000000000000000000000000000000000000000000000000 DUP2 MSTORE PUSH1 0x20 PUSH1 0x4 DUP3 ADD MSTORE PUSH1 0x19 PUSH1 0x24 DUP3 ADD MSTORE PUSH32 0x4645455F434F4E54524F4C4C45525F53565F4E4F545F53455400000000000000 PUSH1 0x44 DUP3 ADD MSTORE PUSH1 0x64 ADD PUSH2 0x2A4 JUMP JUMPDEST PUSH1 0x2 DUP2 ADD DUP1 SLOAD PUSH32 0xFFFFFFFFFFFFFFFFFFFFFFFF0000000000000000000000000000000000000000 AND PUSH20 0xFFFFFFFFFFFFFFFFFFFFFFFFFFFFFFFFFFFFFFFF DUP5 DUP2 AND SWAP2 DUP3 OR SWAP1 SWAP3 SSTORE PUSH1 0x40 MLOAD SWAP1 SWAP2 DUP6 AND SWAP1 PUSH32 0x89588E3F10370C99A6F74177EACB5361BA90E1B70A123BFECCB6619C21CD721 SWAP1 PUSH1 0x0 SWAP1 LOG3 POP POP POP JUMP JUMPDEST PUSH2 0x3BE PUSH2 0x7A5 JUMP JUMPDEST PUSH2 0x3C8 PUSH1 0x0 PUSH2 0x826 JUMP JUMPDEST JUMP JUMPDEST PUSH20 0xFFFFFFFFFFFFFFFFFFFFFFFFFFFFFFFFFFFFFFFF DUP2 AND PUSH1 0x0 SWAP1 DUP2 MSTORE PUSH1 0x2 PUSH1 0x20 MSTORE PUSH1 0x40 DUP2 KECCAK256 PUSH1 0x1 DUP2 ADD SLOAD DUP3 SWAP2 DUP3 SWAP2 PUSH2 0x45E JUMPI PUSH1 0x40 MLOAD PUSH32 0x8C379A000000000000000000000000000000000000000000000000000000000 DUP2 MSTORE PUSH1 0x20 PUSH1 0x4 DUP3 ADD MSTORE PUSH1 0x19 PUSH1 0x24 DUP3 ADD MSTORE PUSH32 0x4645455F434F4E54524F4C4C45525F53565F4E4F545F53455400000000000000 PUSH1 0x44 DUP3 ADD MSTORE PUSH1 0x64 ADD PUSH2 0x2A4 JUMP JUMPDEST DUP1 SLOAD PUSH1 0x1 DUP3 ADD SLOAD PUSH1 0x2 DUP4 ADD SLOAD SWAP1 SWAP6 POP SWAP1 SWAP4 POP PUSH20 0xFFFFFFFFFFFFFFFFFFFFFFFFFFFFFFFFFFFFFFFF AND PUSH2 0x4A8 JUMPI PUSH1 0x1 SLOAD PUSH20 0xFFFFFFFFFFFFFFFFFFFFFFFFFFFFFFFFFFFFFFFF AND PUSH2 0x4C4 JUMP JUMPDEST PUSH1 0x2 DUP2 ADD SLOAD PUSH20 0xFFFFFFFFFFFFFFFFFFFFFFFFFFFFFFFFFFFFFFFF AND JUMPDEST SWAP4 SWAP6 SWAP3 SWAP5 POP POP POP JUMP JUMPDEST PUSH2 0x4D5 PUSH2 0x7A5 JUMP JUMPDEST PUSH2 0x4DF DUP3 DUP3 PUSH2 0x89B JUMP JUMPDEST POP POP JUMP JUMPDEST PUSH2 0x4EB PUSH2 0x7A5 JUMP JUMPDEST PUSH2 0x4F4 DUP2 PUSH2 0x9EC JUMP JUMPDEST POP JUMP JUMPDEST PUSH2 0x4FF PUSH2 0x7A5 JUMP JUMPDEST PUSH20 0xFFFFFFFFFFFFFFFFFFFFFFFFFFFFFFFFFFFFFFFF DUP2 AND PUSH2 0x5A2 JUMPI PUSH1 0x40 MLOAD PUSH32 0x8C379A000000000000000000000000000000000000000000000000000000000 DUP2 MSTORE PUSH1 0x20 PUSH1 0x4 DUP3 ADD MSTORE PUSH1 0x26 PUSH1 0x24 DUP3 ADD MSTORE PUSH32 0x4F776E61626C653A206E6577206F776E657220697320746865207A65726F2061 PUSH1 0x44 DUP3 ADD MSTORE PUSH32 0x6464726573730000000000000000000000000000000000000000000000000000 PUSH1 0x64 DUP3 ADD MSTORE PUSH1 0x84 ADD PUSH2 0x2A4 JUMP JUMPDEST PUSH2 0x4F4 DUP2 PUSH2 0x826 JUMP JUMPDEST PUSH2 0x5B3 PUSH2 0x7A5 JUMP JUMPDEST PUSH1 0x0 DUP2 GT PUSH2 0x61D JUMPI PUSH1 0x40 MLOAD PUSH32 0x8C379A000000000000000000000000000000000000000000000000000000000 DUP2 MSTORE PUSH1 0x20 PUSH1 0x4 DUP3 ADD MSTORE PUSH1 0x1B PUSH1 0x24 DUP3 ADD MSTORE PUSH32 0x4645455F434F4E54524F4C4C45525F4D41585F5043545F5A45524F0000000000 PUSH1 0x44 DUP3 ADD MSTORE PUSH1 0x64 ADD PUSH2 0x2A4 JUMP JUMPDEST PUSH20 0xFFFFFFFFFFFFFFFFFFFFFFFFFFFFFFFFFFFFFFFF DUP3 AND PUSH1 0x0 SWAP1 DUP2 MSTORE PUSH1 0x2 PUSH1 0x20 MSTORE PUSH1 0x40 DUP2 KECCAK256 PUSH1 0x1 DUP2 ADD SLOAD SWAP1 SWAP2 SUB PUSH2 0x6C4 JUMPI PUSH8 0xDE0B6B3A7640000 DUP3 LT PUSH2 0x6BF JUMPI PUSH1 0x40 MLOAD PUSH32 0x8C379A000000000000000000000000000000000000000000000000000000000 DUP2 MSTORE PUSH1 0x20 PUSH1 0x4 DUP3 ADD DUP2 SWAP1 MSTORE PUSH1 0x24 DUP3 ADD MSTORE PUSH32 0x4645455F434F4E54524F4C4C45525F4D41585F5043545F41424F56455F4F4E45 PUSH1 0x44 DUP3 ADD MSTORE PUSH1 0x64 ADD PUSH2 0x2A4 JUMP JUMPDEST PUSH2 0x731 JUMP JUMPDEST DUP1 PUSH1 0x1 ADD SLOAD DUP3 LT PUSH2 0x731 JUMPI PUSH1 0x40 MLOAD PUSH32 0x8C379A000000000000000000000000000000000000000000000000000000000 DUP2 MSTORE PUSH1 0x20 PUSH1 0x4 DUP3 ADD DUP2 SWAP1 MSTORE PUSH1 0x24 DUP3 ADD MSTORE PUSH32 0x4645455F434F4E54524F4C4C45525F4D41585F5043545F41424F56455F505245 PUSH1 0x44 DUP3 ADD MSTORE PUSH1 0x64 ADD PUSH2 0x2A4 JUMP JUMPDEST PUSH1 0x1 DUP2 ADD DUP3 SWAP1 SSTORE PUSH1 0x40 MLOAD DUP3 DUP2 MSTORE PUSH20 0xFFFFFFFFFFFFFFFFFFFFFFFFFFFFFFFFFFFFFFFF DUP5 AND SWAP1 PUSH32 0x481D14805617B376D10B914540D5A35DF311950D549F9BFD4381A643CCA52EB9 SWAP1 PUSH1 0x20 ADD PUSH1 0x40 MLOAD DUP1 SWAP2 SUB SWAP1 LOG2 DUP1 SLOAD ISZERO DUP1 PUSH2 0x791 JUMPI POP DUP1 SLOAD DUP3 LT JUMPDEST ISZERO PUSH2 0x7A0 JUMPI PUSH2 0x7A0 DUP4 DUP4 PUSH2 0x89B JUMP JUMPDEST POP POP POP JUMP JUMPDEST PUSH1 0x0 SLOAD PUSH20 0xFFFFFFFFFFFFFFFFFFFFFFFFFFFFFFFFFFFFFFFF AND CALLER EQ PUSH2 0x3C8 JUMPI PUSH1 0x40 MLOAD PUSH32 0x8C379A000000000000000000000000000000000000000000000000000000000 DUP2 MSTORE PUSH1 0x20 PUSH1 0x4 DUP3 ADD DUP2 SWAP1 MSTORE PUSH1 0x24 DUP3 ADD MSTORE PUSH32 0x4F776E61626C653A2063616C6C6572206973206E6F7420746865206F776E6572 PUSH1 0x44 DUP3 ADD MSTORE PUSH1 0x64 ADD PUSH2 0x2A4 JUMP JUMPDEST PUSH1 0x0 DUP1 SLOAD PUSH20 0xFFFFFFFFFFFFFFFFFFFFFFFFFFFFFFFFFFFFFFFF DUP4 DUP2 AND PUSH32 0xFFFFFFFFFFFFFFFFFFFFFFFF0000000000000000000000000000000000000000 DUP4 AND DUP2 OR DUP5 SSTORE PUSH1 0x40 MLOAD SWAP2 SWAP1 SWAP3 AND SWAP3 DUP4 SWAP2 PUSH32 0x8BE0079C531659141344CD1FD0A4F28419497F9722A3DAAFE3B4186F6B6457E0 SWAP2 SWAP1 LOG3 POP POP JUMP JUMPDEST PUSH20 0xFFFFFFFFFFFFFFFFFFFFFFFFFFFFFFFFFFFFFFFF DUP3 AND PUSH1 0x0 SWAP1 DUP2 MSTORE PUSH1 0x2 PUSH1 0x20 MSTORE PUSH1 0x40 SWAP1 KECCAK256 PUSH1 0x1 DUP2 ADD SLOAD PUSH2 0x92B JUMPI PUSH1 0x40 MLOAD PUSH32 0x8C379A000000000000000000000000000000000000000000000000000000000 DUP2 MSTORE PUSH1 0x20 PUSH1 0x4 DUP3 ADD MSTORE PUSH1 0x19 PUSH1 0x24 DUP3 ADD MSTORE PUSH32 0x4645455F434F4E54524F4C4C45525F53565F4E4F545F53455400000000000000 PUSH1 0x44 DUP3 ADD MSTORE PUSH1 0x64 ADD PUSH2 0x2A4 JUMP JUMPDEST DUP1 PUSH1 0x1 ADD SLOAD DUP3 GT ISZERO PUSH2 0x999 JUMPI PUSH1 0x40 MLOAD PUSH32 0x8C379A000000000000000000000000000000000000000000000000000000000 DUP2 MSTORE PUSH1 0x20 PUSH1 0x4 DUP3 ADD MSTORE PUSH1 0x1C PUSH1 0x24 DUP3 ADD MSTORE PUSH32 0x4645455F434F4E54524F4C4C45525F5043545F41424F56455F4D415800000000 PUSH1 0x44 DUP3 ADD MSTORE PUSH1 0x64 ADD PUSH2 0x2A4 JUMP JUMPDEST DUP2 DUP2 SSTORE PUSH1 0x40 MLOAD DUP3 DUP2 MSTORE PUSH20 0xFFFFFFFFFFFFFFFFFFFFFFFFFFFFFFFFFFFFFFFF DUP5 AND SWAP1 PUSH32 0x59AC1250F26F38C2E2E4FEE3C4131335122F06EDA9F550B7FCF3F04171A69FEC SWAP1 PUSH1 0x20 ADD PUSH1 0x40 MLOAD DUP1 SWAP2 SUB SWAP1 LOG2 POP POP POP JUMP JUMPDEST PUSH20 0xFFFFFFFFFFFFFFFFFFFFFFFFFFFFFFFFFFFFFFFF DUP2 AND PUSH2 0xA69 JUMPI PUSH1 0x40 MLOAD PUSH32 0x8C379A000000000000000000000000000000000000000000000000000000000 DUP2 MSTORE PUSH1 0x20 PUSH1 0x4 DUP3 ADD MSTORE PUSH1 0x1D PUSH1 0x24 DUP3 ADD MSTORE PUSH32 0x4645455F434F4E54524F4C4C45525F434F4C4C4543544F525F5A45524F000000 PUSH1 0x44 DUP3 ADD MSTORE PUSH1 0x64 ADD PUSH2 0x2A4 JUMP JUMPDEST PUSH1 0x1 DUP1 SLOAD PUSH32 0xFFFFFFFFFFFFFFFFFFFFFFFF0000000000000000000000000000000000000000 AND PUSH20 0xFFFFFFFFFFFFFFFFFFFFFFFFFFFFFFFFFFFFFFFF DUP4 AND SWAP1 DUP2 OR SWAP1 SWAP2 SSTORE PUSH1 0x40 MLOAD PUSH32 0xF50168D604B49C86E8D064593A3E10CC6144163CA0B009A56510CD4654BE2A82 SWAP1 PUSH1 0x0 SWAP1 LOG2 POP JUMP JUMPDEST DUP1 CALLDATALOAD PUSH20 0xFFFFFFFFFFFFFFFFFFFFFFFFFFFFFFFFFFFFFFFF DUP2 AND DUP2 EQ PUSH2 0xAFC JUMPI PUSH1 0x0 DUP1 REVERT JUMPDEST SWAP2 SWAP1 POP JUMP JUMPDEST PUSH1 0x0 DUP1 PUSH1 0x40 DUP4 DUP6 SUB SLT ISZERO PUSH2 0xB14 JUMPI PUSH1 0x0 DUP1 REVERT JUMPDEST PUSH2 0xB1D DUP4 PUSH2 0xAD8 JUMP JUMPDEST SWAP2 POP PUSH2 0xB2B PUSH1 0x20 DUP5 ADD PUSH2 0xAD8 JUMP JUMPDEST SWAP1 POP SWAP3 POP SWAP3 SWAP1 POP JUMP JUMPDEST PUSH1 0x0 PUSH1 0x20 DUP3 DUP5 SUB SLT ISZERO PUSH2 0xB46 JUMPI PUSH1 0x0 DUP1 REVERT JUMPDEST PUSH2 0xB4F DUP3 PUSH2 0xAD8 JUMP JUMPDEST SWAP4 SWAP3 POP POP POP JUMP JUMPDEST PUSH1 0x0 DUP1 PUSH1 0x40 DUP4 DUP6 SUB SLT ISZERO PUSH2 0xB69 JUMPI PUSH1 0x0 DUP1 REVERT JUMPDEST PUSH2 0xB72 DUP4 PUSH2 0xAD8 JUMP JUMPDEST SWAP5 PUSH1 0x20 SWAP4 SWAP1 SWAP4 ADD CALLDATALOAD SWAP4 POP POP POP JUMP INVALID LOG2 PUSH5 0x6970667358 0x22 SLT KECCAK256 TIMESTAMP 0xC2 GASLIMIT 0xF8 PUSH4 0x6CEF72A8 SWAP14 PUSH10 0xC481A39ADDE1DE108E21 0xCA CODECOPY CREATE PUSH18 0xCD0BBDC7D7880664736F6C63430008110033 "},"methodIdentifiers":{"defaultFeeCollector()":"75926137","getFee(address)":"b88c9148","hasFee(address)":"7497e296","owner()":"8da5cb5b","renounceOwnership()":"715018a6","setDefaultFeeCollector(address)":"ccceb7cd","setFeeCollector(address,address)":"29149799","setFeePercentage(address,uint256)":"cbe0130e","setMaxFeePercentage(address,uint256)":"f5e3ff2e","transferOwnership(address)":"f2fde38b"}}}}}