{"contracts/test/ConnectorMock.sol":{"ConnectorMock":{"abi":[{"inputs":[],"stateMutability":"nonpayable","type":"constructor"},{"inputs":[],"name":"call","outputs":[],"stateMutability":"payable","type":"function"},{"inputs":[],"name":"mock","outputs":[{"internalType":"contract ContractMock","name":"","type":"address"}],"stateMutability":"view","type":"function"}],"evm":{"bytecode":{"linkReferences":{},"object":"60a060405234801561001057600080fd5b5060405161001d9061004b565b604051809103906000f080158015610039573d6000803e3d6000fd5b506001600160a01b0316608052610057565b60b4806101c483390190565b60805161014d61007760003960008181604a01526097015261014d6000f3fe6080604052600436106100295760003560e01c806328b5e32b1461002e578063e543804a14610038575b600080fd5b610036610095565b005b34801561004457600080fd5b5061006c7f000000000000000000000000000000000000000000000000000000000000000081565b60405173ffffffffffffffffffffffffffffffffffffffff909116815260200160405180910390f35b7f000000000000000000000000000000000000000000000000000000000000000073ffffffffffffffffffffffffffffffffffffffff166328b5e32b6040518163ffffffff1660e01b8152600401600060405180830381600087803b1580156100fd57600080fd5b505af1158015610111573d6000803e3d6000fd5b5050505056fea2646970667358221220580f4e81c4470b0662d21b1ba561620928a2bff878cd5e816c69cdc1bf530e3764736f6c634300081100336080604052348015600f57600080fd5b5060968061001e6000396000f3fe608060405260043610601c5760003560e01c806328b5e32b146021575b600080fd5b60276029565b005b60405134815233907f88a5966d370b9919b20f3e2c13ff65706f196a4e32cc2c12bf57088f885258749060200160405180910390a256fea26469706673582212202f5e2f996bfc994fc054aaa19f389e6e0e237c3551017f87cc64f94e38a7a75764736f6c63430008110033","opcodes":"PUSH1 0xA0 PUSH1 0x40 MSTORE CALLVALUE DUP1 ISZERO PUSH2 0x10 JUMPI PUSH1 0x0 DUP1 REVERT JUMPDEST POP PUSH1 0x40 MLOAD PUSH2 0x1D SWAP1 PUSH2 0x4B JUMP JUMPDEST PUSH1 0x40 MLOAD DUP1 SWAP2 SUB SWAP1 PUSH1 0x0 CREATE DUP1 ISZERO DUP1 ISZERO PUSH2 0x39 JUMPI RETURNDATASIZE PUSH1 0x0 DUP1 RETURNDATACOPY RETURNDATASIZE PUSH1 0x0 REVERT JUMPDEST POP PUSH1 0x1 PUSH1 0x1 PUSH1 0xA0 SHL SUB AND PUSH1 0x80 MSTORE PUSH2 0x57 JUMP JUMPDEST PUSH1 0xB4 DUP1 PUSH2 0x1C4 DUP4 CODECOPY ADD SWAP1 JUMP JUMPDEST PUSH1 0x80 MLOAD PUSH2 0x14D PUSH2 0x77 PUSH1 0x0 CODECOPY PUSH1 0x0 DUP2 DUP2 PUSH1 0x4A ADD MSTORE PUSH1 0x97 ADD MSTORE PUSH2 0x14D PUSH1 0x0 RETURN INVALID PUSH1 0x80 PUSH1 0x40 MSTORE PUSH1 0x4 CALLDATASIZE LT PUSH2 0x29 JUMPI PUSH1 0x0 CALLDATALOAD PUSH1 0xE0 SHR DUP1 PUSH4 0x28B5E32B EQ PUSH2 0x2E JUMPI DUP1 PUSH4 0xE543804A EQ PUSH2 0x38 JUMPI JUMPDEST PUSH1 0x0 DUP1 REVERT JUMPDEST PUSH2 0x36 PUSH2 0x95 JUMP JUMPDEST STOP JUMPDEST CALLVALUE DUP1 ISZERO PUSH2 0x44 JUMPI PUSH1 0x0 DUP1 REVERT JUMPDEST POP PUSH2 0x6C PUSH32 0x0 DUP2 JUMP JUMPDEST PUSH1 0x40 MLOAD PUSH20 0xFFFFFFFFFFFFFFFFFFFFFFFFFFFFFFFFFFFFFFFF SWAP1 SWAP2 AND DUP2 MSTORE PUSH1 0x20 ADD PUSH1 0x40 MLOAD DUP1 SWAP2 SUB SWAP1 RETURN JUMPDEST PUSH32 0x0 PUSH20 0xFFFFFFFFFFFFFFFFFFFFFFFFFFFFFFFFFFFFFFFF AND PUSH4 0x28B5E32B PUSH1 0x40 MLOAD DUP2 PUSH4 0xFFFFFFFF AND PUSH1 0xE0 SHL DUP2 MSTORE PUSH1 0x4 ADD PUSH1 0x0 PUSH1 0x40 MLOAD DUP1 DUP4 SUB DUP2 PUSH1 0x0 DUP8 DUP1 EXTCODESIZE ISZERO DUP1 ISZERO PUSH2 0xFD JUMPI PUSH1 0x0 DUP1 REVERT JUMPDEST POP GAS CALL ISZERO DUP1 ISZERO PUSH2 0x111 JUMPI RETURNDATASIZE PUSH1 0x0 DUP1 RETURNDATACOPY RETURNDATASIZE PUSH1 0x0 REVERT JUMPDEST POP POP POP POP JUMP INVALID LOG2 PUSH5 0x6970667358 0x22 SLT KECCAK256 PC 0xF 0x4E DUP2 0xC4 SELFBALANCE SIGNEXTEND MOD PUSH3 0xD21B1B 0xA5 PUSH2 0x6209 0x28 LOG2 0xBF 0xF8 PUSH25 0xCD5E816C69CDC1BF530E3764736F6C63430008110033608060 BLOCKHASH MSTORE CALLVALUE DUP1 ISZERO PUSH1 0xF JUMPI PUSH1 0x0 DUP1 REVERT JUMPDEST POP PUSH1 0x96 DUP1 PUSH2 0x1E PUSH1 0x0 CODECOPY PUSH1 0x0 RETURN INVALID PUSH1 0x80 PUSH1 0x40 MSTORE PUSH1 0x4 CALLDATASIZE LT PUSH1 0x1C JUMPI PUSH1 0x0 CALLDATALOAD PUSH1 0xE0 SHR DUP1 PUSH4 0x28B5E32B EQ PUSH1 0x21 JUMPI JUMPDEST PUSH1 0x0 DUP1 REVERT JUMPDEST PUSH1 0x27 PUSH1 0x29 JUMP JUMPDEST STOP JUMPDEST PUSH1 0x40 MLOAD CALLVALUE DUP2 MSTORE CALLER SWAP1 PUSH32 0x88A5966D370B9919B20F3E2C13FF65706F196A4E32CC2C12BF57088F88525874 SWAP1 PUSH1 0x20 ADD PUSH1 0x40 MLOAD DUP1 SWAP2 SUB SWAP1 LOG2 JUMP INVALID LOG2 PUSH5 0x6970667358 0x22 SLT KECCAK256 0x2F 0x5E 0x2F SWAP10 PUSH12 0xFC994FC054AAA19F389E6E0E 0x23 PUSH29 0x3551017F87CC64F94E38A7A75764736F6C634300081100330000000000 "},"methodIdentifiers":{"call()":"28b5e32b","mock()":"e543804a"}}}}}