{"contracts/swap/uniswap-v3/UniswapV3Connector.sol":{"UniswapV3Connector":{"abi":[{"inputs":[{"internalType":"address","name":"_uniswapV3Router","type":"address"}],"stateMutability":"nonpayable","type":"constructor"},{"inputs":[{"internalType":"uint256","name":"amountOut","type":"uint256"},{"internalType":"uint256","name":"minAmountOut","type":"uint256"}],"name":"UniswapV3BadAmountOut","type":"error"},{"inputs":[{"internalType":"uint256","name":"postBalanceIn","type":"uint256"},{"internalType":"uint256","name":"preBalanceIn","type":"uint256"},{"internalType":"uint256","name":"amountIn","type":"uint256"}],"name":"UniswapV3BadPostTokenInBalance","type":"error"},{"inputs":[],"name":"UniswapV3InputLengthMismatch","type":"error"},{"inputs":[{"internalType":"address","name":"token0","type":"address"},{"internalType":"address","name":"token1","type":"address"},{"internalType":"uint24","name":"fee","type":"uint24"}],"name":"UniswapV3InvalidPoolFee","type":"error"},{"inputs":[{"internalType":"address","name":"token","type":"address"}],"name":"UniswapV3SwapSameToken","type":"error"},{"inputs":[{"internalType":"address","name":"tokenIn","type":"address"},{"internalType":"address","name":"tokenOut","type":"address"},{"internalType":"uint256","name":"amountIn","type":"uint256"},{"internalType":"uint256","name":"minAmountOut","type":"uint256"},{"internalType":"uint24","name":"fee","type":"uint24"},{"internalType":"address[]","name":"hopTokens","type":"address[]"},{"internalType":"uint24[]","name":"hopFees","type":"uint24[]"}],"name":"execute","outputs":[{"internalType":"uint256","name":"amountOut","type":"uint256"}],"stateMutability":"nonpayable","type":"function"},{"inputs":[],"name":"uniswapV3Router","outputs":[{"internalType":"address","name":"","type":"address"}],"stateMutability":"view","type":"function"}],"evm":{"bytecode":{"linkReferences":{},"object":"60a060405234801561001057600080fd5b5060405161182438038061182483398101604081905261002f91610040565b6001600160a01b0316608052610070565b60006020828403121561005257600080fd5b81516001600160a01b038116811461006957600080fd5b9392505050565b60805161177e6100a66000396000818160400152818161029901528181610626015281816107a501526109dd015261177e6000f3fe608060405234801561001057600080fd5b50600436106100365760003560e01c80632c76d7a61461003b5780635964ca961461008c575b600080fd5b6100627f000000000000000000000000000000000000000000000000000000000000000081565b60405173ffffffffffffffffffffffffffffffffffffffff90911681526020015b60405180910390f35b61009f61009a366004611390565b6100ad565b604051908152602001610083565b60008673ffffffffffffffffffffffffffffffffffffffff168873ffffffffffffffffffffffffffffffffffffffff1603610131576040517fa3b572b800000000000000000000000000000000000000000000000000000000815273ffffffffffffffffffffffffffffffffffffffff891660048201526024015b60405180910390fd5b815183511461016c576040517f82ca693900000000000000000000000000000000000000000000000000000000815260040160405180910390fd5b6040517f70a0823100000000000000000000000000000000000000000000000000000000815230600482015260009073ffffffffffffffffffffffffffffffffffffffff8a16906370a0823190602401602060405180830381865afa1580156101d9573d6000803e3d6000fd5b505050506040513d601f19601f820116820180604052508101906101fd919061149d565b6040517f70a0823100000000000000000000000000000000000000000000000000000000815230600482015290915060009073ffffffffffffffffffffffffffffffffffffffff8a16906370a0823190602401602060405180830381865afa15801561026d573d6000803e3d6000fd5b505050506040513d601f19601f82011682018060405250810190610291919061149d565b90506102be8a7f00000000000000000000000000000000000000000000000000000000000000008a6104c6565b8451156102d9576102d48a8a8a8a8a8a8a6104e2565b6102e6565b6102e68a8a8a8a8a6106c3565b506040517f70a0823100000000000000000000000000000000000000000000000000000000815230600482015260009073ffffffffffffffffffffffffffffffffffffffff8c16906370a0823190602401602060405180830381865afa158015610354573d6000803e3d6000fd5b505050506040513d601f19601f82011682018060405250810190610378919061149d565b905060006103868a856114e5565b8210905080156103d3576040517fa27820af0000000000000000000000000000000000000000000000000000000081526004810183905260248101859052604481018b9052606401610128565b6040517f70a0823100000000000000000000000000000000000000000000000000000000815230600482015260009073ffffffffffffffffffffffffffffffffffffffff8d16906370a0823190602401602060405180830381865afa158015610440573d6000803e3d6000fd5b505050506040513d601f19601f82011682018060405250810190610464919061149d565b905061047084826114e5565b9550898610156104b6576040517f9c9ceb1200000000000000000000000000000000000000000000000000000000815260048101879052602481018b9052604401610128565b5050505050979650505050505050565b6104d283836000610820565b6104dd838383610820565b505050565b6000806104ed6109d9565b905060006104fc8a868b610a6f565b9050600061050a8786610bee565b905060005b815181101561058d5761057b8484838151811061052e5761052e6114f8565b6020026020010151858460016105449190611527565b81518110610554576105546114f8565b602002602001015185858151811061056e5761056e6114f8565b6020026020010151610cdf565b806105858161153a565b91505061050f565b506105d66040518060a0016040528060608152602001600073ffffffffffffffffffffffffffffffffffffffff1681526020016000815260200160008152602001600081525090565b6105e08383610e4e565b8152606081018a90526080810189905230602082015242604080830191909152517fc04b8d590000000000000000000000000000000000000000000000000000000081527f000000000000000000000000000000000000000000000000000000000000000073ffffffffffffffffffffffffffffffffffffffff169063c04b8d59906106709084906004016115e0565b6020604051808303816000875af115801561068f573d6000803e3d6000fd5b505050506040513d601f19601f820116820180604052508101906106b3919061149d565b9c9b505050505050505050505050565b60006106d86106d06109d9565b878785610cdf565b6040805161010081018252600060e0820190815273ffffffffffffffffffffffffffffffffffffffff89811683528881166020840190815262ffffff8781168587019081523060608701908152426080880190815260a088018d815260c089018d815299517f414bf389000000000000000000000000000000000000000000000000000000008152895188166004820152955187166024870152925190931660448501525184166064840152905160848301525160a4820152935160c48501529051811660e484015290917f00000000000000000000000000000000000000000000000000000000000000009091169063414bf38990610104016020604051808303816000875af11580156107f1573d6000803e3d6000fd5b505050506040513d601f19601f82011682018060405250810190610815919061149d565b979650505050505050565b8015806108c057506040517fdd62ed3e00000000000000000000000000000000000000000000000000000000815230600482015273ffffffffffffffffffffffffffffffffffffffff838116602483015284169063dd62ed3e90604401602060405180830381865afa15801561089a573d6000803e3d6000fd5b505050506040513d601f19601f820116820180604052508101906108be919061149d565b155b61094c576040517f08c379a000000000000000000000000000000000000000000000000000000000815260206004820152603660248201527f5361666545524332303a20617070726f76652066726f6d206e6f6e2d7a65726f60448201527f20746f206e6f6e2d7a65726f20616c6c6f77616e6365000000000000000000006064820152608401610128565b6040805173ffffffffffffffffffffffffffffffffffffffff8416602482015260448082018490528251808303909101815260649091019091526020810180517bffffffffffffffffffffffffffffffffffffffffffffffffffffffff167f095ea7b3000000000000000000000000000000000000000000000000000000001790526104dd908490610f01565b60007f000000000000000000000000000000000000000000000000000000000000000073ffffffffffffffffffffffffffffffffffffffff1663c45a01556040518163ffffffff1660e01b8152600401602060405180830381865afa158015610a46573d6000803e3d6000fd5b505050506040513d601f19601f82011682018060405250810190610a6a9190611646565b905090565b606082516002610a7f9190611527565b67ffffffffffffffff811115610a9757610a9761127c565b604051908082528060200260200182016040528015610ac0578160200160208202803683370190505b5090508381600081518110610ad757610ad76114f8565b602002602001019073ffffffffffffffffffffffffffffffffffffffff16908173ffffffffffffffffffffffffffffffffffffffff168152505060005b8351811015610b8c57838181518110610b2f57610b2f6114f8565b602002602001015182826001610b459190611527565b81518110610b5557610b556114f8565b73ffffffffffffffffffffffffffffffffffffffff9092166020928302919091019091015280610b848161153a565b915050610b14565b50818184516001610b9d9190611527565b81518110610bad57610bad6114f8565b602002602001019073ffffffffffffffffffffffffffffffffffffffff16908173ffffffffffffffffffffffffffffffffffffffff16815250509392505050565b606081516001610bfe9190611527565b67ffffffffffffffff811115610c1657610c1661127c565b604051908082528060200260200182016040528015610c3f578160200160208202803683370190505b5090508281600081518110610c5657610c566114f8565b602002602001019062ffffff16908162ffffff168152505060005b8251811015610cd857828181518110610c8c57610c8c6114f8565b602002602001015182826001610ca29190611527565b81518110610cb257610cb26114f8565b62ffffff9092166020928302919091019091015280610cd08161153a565b915050610c71565b5092915050565b6000808373ffffffffffffffffffffffffffffffffffffffff168573ffffffffffffffffffffffffffffffffffffffff1610610d1c578385610d1f565b84845b6040517f1698ee8200000000000000000000000000000000000000000000000000000000815273ffffffffffffffffffffffffffffffffffffffff8084166004830152808316602483015262ffffff87166044830152929450909250600091881690631698ee8290606401602060405180830381865afa158015610da7573d6000803e3d6000fd5b505050506040513d601f19601f82011682018060405250810190610dcb9190611646565b905073ffffffffffffffffffffffffffffffffffffffff8116610e45576040517ff8ece25100000000000000000000000000000000000000000000000000000000815273ffffffffffffffffffffffffffffffffffffffff80851660048301528316602482015262ffffff85166044820152606401610128565b50505050505050565b60408051600080825260208201909252905b8251811015610ecc57610eb8838281518110610e7e57610e7e6114f8565b6020026020010151610eb2868481518110610e9b57610e9b6114f8565b60200260200101518561100d90919063ffffffff16565b9061103a565b915080610ec48161153a565b915050610e60565b50610efa83835181518110610ee357610ee36114f8565b60200260200101518261100d90919063ffffffff16565b9392505050565b6000610f63826040518060400160405280602081526020017f5361666545524332303a206c6f772d6c6576656c2063616c6c206661696c65648152508573ffffffffffffffffffffffffffffffffffffffff1661104f9092919063ffffffff16565b8051909150156104dd5780806020019051810190610f819190611663565b6104dd576040517f08c379a000000000000000000000000000000000000000000000000000000000815260206004820152602a60248201527f5361666545524332303a204552433230206f7065726174696f6e20646964206e60448201527f6f742073756363656564000000000000000000000000000000000000000000006064820152608401610128565b60608282604051602001611022929190611685565b60405160208183030381529060405290505b92915050565b606082826040516020016110229291906116cf565b606061105e8484600085611066565b949350505050565b6060824710156110f8576040517f08c379a000000000000000000000000000000000000000000000000000000000815260206004820152602660248201527f416464726573733a20696e73756666696369656e742062616c616e636520666f60448201527f722063616c6c00000000000000000000000000000000000000000000000000006064820152608401610128565b73ffffffffffffffffffffffffffffffffffffffff85163b611176576040517f08c379a000000000000000000000000000000000000000000000000000000000815260206004820152601d60248201527f416464726573733a2063616c6c20746f206e6f6e2d636f6e74726163740000006044820152606401610128565b6000808673ffffffffffffffffffffffffffffffffffffffff16858760405161119f9190611719565b60006040518083038185875af1925050503d80600081146111dc576040519150601f19603f3d011682016040523d82523d6000602084013e6111e1565b606091505b5091509150610815828286606083156111fb575081610efa565b82511561120b5782518084602001fd5b816040517f08c379a00000000000000000000000000000000000000000000000000000000081526004016101289190611735565b73ffffffffffffffffffffffffffffffffffffffff8116811461126157600080fd5b50565b803562ffffff8116811461127757600080fd5b919050565b7f4e487b7100000000000000000000000000000000000000000000000000000000600052604160045260246000fd5b604051601f82017fffffffffffffffffffffffffffffffffffffffffffffffffffffffffffffffe016810167ffffffffffffffff811182821017156112f2576112f261127c565b604052919050565b600067ffffffffffffffff8211156113145761131461127c565b5060051b60200190565b600082601f83011261132f57600080fd5b8135602061134461133f836112fa565b6112ab565b82815260059290921b8401810191818101908684111561136357600080fd5b8286015b848110156113855761137881611264565b8352918301918301611367565b509695505050505050565b600080600080600080600060e0888a0312156113ab57600080fd5b87356113b68161123f565b96506020888101356113c78161123f565b965060408901359550606089013594506113e360808a01611264565b935060a089013567ffffffffffffffff8082111561140057600080fd5b818b0191508b601f83011261141457600080fd5b813561142261133f826112fa565b81815260059190911b8301840190848101908e83111561144157600080fd5b938501935b828510156114685784356114598161123f565b82529385019390850190611446565b9650505060c08b013592508083111561148057600080fd5b505061148e8a828b0161131e565b91505092959891949750929550565b6000602082840312156114af57600080fd5b5051919050565b7f4e487b7100000000000000000000000000000000000000000000000000000000600052601160045260246000fd5b81810381811115611034576110346114b6565b7f4e487b7100000000000000000000000000000000000000000000000000000000600052603260045260246000fd5b80820180821115611034576110346114b6565b60007fffffffffffffffffffffffffffffffffffffffffffffffffffffffffffffffff820361156b5761156b6114b6565b5060010190565b60005b8381101561158d578181015183820152602001611575565b50506000910152565b600081518084526115ae816020860160208601611572565b601f017fffffffffffffffffffffffffffffffffffffffffffffffffffffffffffffffe0169290920160200192915050565b602081526000825160a060208401526115fc60c0840182611596565b905073ffffffffffffffffffffffffffffffffffffffff60208501511660408401526040840151606084015260608401516080840152608084015160a08401528091505092915050565b60006020828403121561165857600080fd5b8151610efa8161123f565b60006020828403121561167557600080fd5b81518015158114610efa57600080fd5b60008351611697818460208801611572565b60609390931b7fffffffffffffffffffffffffffffffffffffffff000000000000000000000000169190920190815260140192915050565b600083516116e1818460208801611572565b60e89390931b7fffffff0000000000000000000000000000000000000000000000000000000000169190920190815260030192915050565b6000825161172b818460208701611572565b9190910192915050565b602081526000610efa602083018461159656fea2646970667358221220d228ddc89a0a6e7a304f9b2332dde8b62a0336ca2d73f79d206452600babbddc64736f6c63430008110033","opcodes":"PUSH1 0xA0 PUSH1 0x40 MSTORE CALLVALUE DUP1 ISZERO PUSH2 0x10 JUMPI PUSH1 0x0 DUP1 REVERT JUMPDEST POP PUSH1 0x40 MLOAD PUSH2 0x1824 CODESIZE SUB DUP1 PUSH2 0x1824 DUP4 CODECOPY DUP2 ADD PUSH1 0x40 DUP2 SWAP1 MSTORE PUSH2 0x2F SWAP2 PUSH2 0x40 JUMP JUMPDEST PUSH1 0x1 PUSH1 0x1 PUSH1 0xA0 SHL SUB AND PUSH1 0x80 MSTORE PUSH2 0x70 JUMP JUMPDEST PUSH1 0x0 PUSH1 0x20 DUP3 DUP5 SUB SLT ISZERO PUSH2 0x52 JUMPI PUSH1 0x0 DUP1 REVERT JUMPDEST DUP2 MLOAD PUSH1 0x1 PUSH1 0x1 PUSH1 0xA0 SHL SUB DUP2 AND DUP2 EQ PUSH2 0x69 JUMPI PUSH1 0x0 DUP1 REVERT JUMPDEST SWAP4 SWAP3 POP POP POP JUMP JUMPDEST PUSH1 0x80 MLOAD PUSH2 0x177E PUSH2 0xA6 PUSH1 0x0 CODECOPY PUSH1 0x0 DUP2 DUP2 PUSH1 0x40 ADD MSTORE DUP2 DUP2 PUSH2 0x299 ADD MSTORE DUP2 DUP2 PUSH2 0x626 ADD MSTORE DUP2 DUP2 PUSH2 0x7A5 ADD MSTORE PUSH2 0x9DD ADD MSTORE PUSH2 0x177E PUSH1 0x0 RETURN INVALID PUSH1 0x80 PUSH1 0x40 MSTORE CALLVALUE DUP1 ISZERO PUSH2 0x10 JUMPI PUSH1 0x0 DUP1 REVERT JUMPDEST POP PUSH1 0x4 CALLDATASIZE LT PUSH2 0x36 JUMPI PUSH1 0x0 CALLDATALOAD PUSH1 0xE0 SHR DUP1 PUSH4 0x2C76D7A6 EQ PUSH2 0x3B JUMPI DUP1 PUSH4 0x5964CA96 EQ PUSH2 0x8C JUMPI JUMPDEST PUSH1 0x0 DUP1 REVERT JUMPDEST PUSH2 0x62 PUSH32 0x0 DUP2 JUMP JUMPDEST PUSH1 0x40 MLOAD PUSH20 0xFFFFFFFFFFFFFFFFFFFFFFFFFFFFFFFFFFFFFFFF SWAP1 SWAP2 AND DUP2 MSTORE PUSH1 0x20 ADD JUMPDEST PUSH1 0x40 MLOAD DUP1 SWAP2 SUB SWAP1 RETURN JUMPDEST PUSH2 0x9F PUSH2 0x9A CALLDATASIZE PUSH1 0x4 PUSH2 0x1390 JUMP JUMPDEST PUSH2 0xAD JUMP JUMPDEST PUSH1 0x40 MLOAD SWAP1 DUP2 MSTORE PUSH1 0x20 ADD PUSH2 0x83 JUMP JUMPDEST PUSH1 0x0 DUP7 PUSH20 0xFFFFFFFFFFFFFFFFFFFFFFFFFFFFFFFFFFFFFFFF AND DUP9 PUSH20 0xFFFFFFFFFFFFFFFFFFFFFFFFFFFFFFFFFFFFFFFF AND SUB PUSH2 0x131 JUMPI PUSH1 0x40 MLOAD PUSH32 0xA3B572B800000000000000000000000000000000000000000000000000000000 DUP2 MSTORE PUSH20 0xFFFFFFFFFFFFFFFFFFFFFFFFFFFFFFFFFFFFFFFF DUP10 AND PUSH1 0x4 DUP3 ADD MSTORE PUSH1 0x24 ADD JUMPDEST PUSH1 0x40 MLOAD DUP1 SWAP2 SUB SWAP1 REVERT JUMPDEST DUP2 MLOAD DUP4 MLOAD EQ PUSH2 0x16C JUMPI PUSH1 0x40 MLOAD PUSH32 0x82CA693900000000000000000000000000000000000000000000000000000000 DUP2 MSTORE PUSH1 0x4 ADD PUSH1 0x40 MLOAD DUP1 SWAP2 SUB SWAP1 REVERT JUMPDEST PUSH1 0x40 MLOAD PUSH32 0x70A0823100000000000000000000000000000000000000000000000000000000 DUP2 MSTORE ADDRESS PUSH1 0x4 DUP3 ADD MSTORE PUSH1 0x0 SWAP1 PUSH20 0xFFFFFFFFFFFFFFFFFFFFFFFFFFFFFFFFFFFFFFFF DUP11 AND SWAP1 PUSH4 0x70A08231 SWAP1 PUSH1 0x24 ADD PUSH1 0x20 PUSH1 0x40 MLOAD DUP1 DUP4 SUB DUP2 DUP7 GAS STATICCALL ISZERO DUP1 ISZERO PUSH2 0x1D9 JUMPI RETURNDATASIZE PUSH1 0x0 DUP1 RETURNDATACOPY RETURNDATASIZE PUSH1 0x0 REVERT JUMPDEST POP POP POP POP PUSH1 0x40 MLOAD RETURNDATASIZE PUSH1 0x1F NOT PUSH1 0x1F DUP3 ADD AND DUP3 ADD DUP1 PUSH1 0x40 MSTORE POP DUP2 ADD SWAP1 PUSH2 0x1FD SWAP2 SWAP1 PUSH2 0x149D JUMP JUMPDEST PUSH1 0x40 MLOAD PUSH32 0x70A0823100000000000000000000000000000000000000000000000000000000 DUP2 MSTORE ADDRESS PUSH1 0x4 DUP3 ADD MSTORE SWAP1 SWAP2 POP PUSH1 0x0 SWAP1 PUSH20 0xFFFFFFFFFFFFFFFFFFFFFFFFFFFFFFFFFFFFFFFF DUP11 AND SWAP1 PUSH4 0x70A08231 SWAP1 PUSH1 0x24 ADD PUSH1 0x20 PUSH1 0x40 MLOAD DUP1 DUP4 SUB DUP2 DUP7 GAS STATICCALL ISZERO DUP1 ISZERO PUSH2 0x26D JUMPI RETURNDATASIZE PUSH1 0x0 DUP1 RETURNDATACOPY RETURNDATASIZE PUSH1 0x0 REVERT JUMPDEST POP POP POP POP PUSH1 0x40 MLOAD RETURNDATASIZE PUSH1 0x1F NOT PUSH1 0x1F DUP3 ADD AND DUP3 ADD DUP1 PUSH1 0x40 MSTORE POP DUP2 ADD SWAP1 PUSH2 0x291 SWAP2 SWAP1 PUSH2 0x149D JUMP JUMPDEST SWAP1 POP PUSH2 0x2BE DUP11 PUSH32 0x0 DUP11 PUSH2 0x4C6 JUMP JUMPDEST DUP5 MLOAD ISZERO PUSH2 0x2D9 JUMPI PUSH2 0x2D4 DUP11 DUP11 DUP11 DUP11 DUP11 DUP11 DUP11 PUSH2 0x4E2 JUMP JUMPDEST PUSH2 0x2E6 JUMP JUMPDEST PUSH2 0x2E6 DUP11 DUP11 DUP11 DUP11 DUP11 PUSH2 0x6C3 JUMP JUMPDEST POP PUSH1 0x40 MLOAD PUSH32 0x70A0823100000000000000000000000000000000000000000000000000000000 DUP2 MSTORE ADDRESS PUSH1 0x4 DUP3 ADD MSTORE PUSH1 0x0 SWAP1 PUSH20 0xFFFFFFFFFFFFFFFFFFFFFFFFFFFFFFFFFFFFFFFF DUP13 AND SWAP1 PUSH4 0x70A08231 SWAP1 PUSH1 0x24 ADD PUSH1 0x20 PUSH1 0x40 MLOAD DUP1 DUP4 SUB DUP2 DUP7 GAS STATICCALL ISZERO DUP1 ISZERO PUSH2 0x354 JUMPI RETURNDATASIZE PUSH1 0x0 DUP1 RETURNDATACOPY RETURNDATASIZE PUSH1 0x0 REVERT JUMPDEST POP POP POP POP PUSH1 0x40 MLOAD RETURNDATASIZE PUSH1 0x1F NOT PUSH1 0x1F DUP3 ADD AND DUP3 ADD DUP1 PUSH1 0x40 MSTORE POP DUP2 ADD SWAP1 PUSH2 0x378 SWAP2 SWAP1 PUSH2 0x149D JUMP JUMPDEST SWAP1 POP PUSH1 0x0 PUSH2 0x386 DUP11 DUP6 PUSH2 0x14E5 JUMP JUMPDEST DUP3 LT SWAP1 POP DUP1 ISZERO PUSH2 0x3D3 JUMPI PUSH1 0x40 MLOAD PUSH32 0xA27820AF00000000000000000000000000000000000000000000000000000000 DUP2 MSTORE PUSH1 0x4 DUP2 ADD DUP4 SWAP1 MSTORE PUSH1 0x24 DUP2 ADD DUP6 SWAP1 MSTORE PUSH1 0x44 DUP2 ADD DUP12 SWAP1 MSTORE PUSH1 0x64 ADD PUSH2 0x128 JUMP JUMPDEST PUSH1 0x40 MLOAD PUSH32 0x70A0823100000000000000000000000000000000000000000000000000000000 DUP2 MSTORE ADDRESS PUSH1 0x4 DUP3 ADD MSTORE PUSH1 0x0 SWAP1 PUSH20 0xFFFFFFFFFFFFFFFFFFFFFFFFFFFFFFFFFFFFFFFF DUP14 AND SWAP1 PUSH4 0x70A08231 SWAP1 PUSH1 0x24 ADD PUSH1 0x20 PUSH1 0x40 MLOAD DUP1 DUP4 SUB DUP2 DUP7 GAS STATICCALL ISZERO DUP1 ISZERO PUSH2 0x440 JUMPI RETURNDATASIZE PUSH1 0x0 DUP1 RETURNDATACOPY RETURNDATASIZE PUSH1 0x0 REVERT JUMPDEST POP POP POP POP PUSH1 0x40 MLOAD RETURNDATASIZE PUSH1 0x1F NOT PUSH1 0x1F DUP3 ADD AND DUP3 ADD DUP1 PUSH1 0x40 MSTORE POP DUP2 ADD SWAP1 PUSH2 0x464 SWAP2 SWAP1 PUSH2 0x149D JUMP JUMPDEST SWAP1 POP PUSH2 0x470 DUP5 DUP3 PUSH2 0x14E5 JUMP JUMPDEST SWAP6 POP DUP10 DUP7 LT ISZERO PUSH2 0x4B6 JUMPI PUSH1 0x40 MLOAD PUSH32 0x9C9CEB1200000000000000000000000000000000000000000000000000000000 DUP2 MSTORE PUSH1 0x4 DUP2 ADD DUP8 SWAP1 MSTORE PUSH1 0x24 DUP2 ADD DUP12 SWAP1 MSTORE PUSH1 0x44 ADD PUSH2 0x128 JUMP JUMPDEST POP POP POP POP POP SWAP8 SWAP7 POP POP POP POP POP POP POP JUMP JUMPDEST PUSH2 0x4D2 DUP4 DUP4 PUSH1 0x0 PUSH2 0x820 JUMP JUMPDEST PUSH2 0x4DD DUP4 DUP4 DUP4 PUSH2 0x820 JUMP JUMPDEST POP POP POP JUMP JUMPDEST PUSH1 0x0 DUP1 PUSH2 0x4ED PUSH2 0x9D9 JUMP JUMPDEST SWAP1 POP PUSH1 0x0 PUSH2 0x4FC DUP11 DUP7 DUP12 PUSH2 0xA6F JUMP JUMPDEST SWAP1 POP PUSH1 0x0 PUSH2 0x50A DUP8 DUP7 PUSH2 0xBEE JUMP JUMPDEST SWAP1 POP PUSH1 0x0 JUMPDEST DUP2 MLOAD DUP2 LT ISZERO PUSH2 0x58D JUMPI PUSH2 0x57B DUP5 DUP5 DUP4 DUP2 MLOAD DUP2 LT PUSH2 0x52E JUMPI PUSH2 0x52E PUSH2 0x14F8 JUMP JUMPDEST PUSH1 0x20 MUL PUSH1 0x20 ADD ADD MLOAD DUP6 DUP5 PUSH1 0x1 PUSH2 0x544 SWAP2 SWAP1 PUSH2 0x1527 JUMP JUMPDEST DUP2 MLOAD DUP2 LT PUSH2 0x554 JUMPI PUSH2 0x554 PUSH2 0x14F8 JUMP JUMPDEST PUSH1 0x20 MUL PUSH1 0x20 ADD ADD MLOAD DUP6 DUP6 DUP2 MLOAD DUP2 LT PUSH2 0x56E JUMPI PUSH2 0x56E PUSH2 0x14F8 JUMP JUMPDEST PUSH1 0x20 MUL PUSH1 0x20 ADD ADD MLOAD PUSH2 0xCDF JUMP JUMPDEST DUP1 PUSH2 0x585 DUP2 PUSH2 0x153A JUMP JUMPDEST SWAP2 POP POP PUSH2 0x50F JUMP JUMPDEST POP PUSH2 0x5D6 PUSH1 0x40 MLOAD DUP1 PUSH1 0xA0 ADD PUSH1 0x40 MSTORE DUP1 PUSH1 0x60 DUP2 MSTORE PUSH1 0x20 ADD PUSH1 0x0 PUSH20 0xFFFFFFFFFFFFFFFFFFFFFFFFFFFFFFFFFFFFFFFF AND DUP2 MSTORE PUSH1 0x20 ADD PUSH1 0x0 DUP2 MSTORE PUSH1 0x20 ADD PUSH1 0x0 DUP2 MSTORE PUSH1 0x20 ADD PUSH1 0x0 DUP2 MSTORE POP SWAP1 JUMP JUMPDEST PUSH2 0x5E0 DUP4 DUP4 PUSH2 0xE4E JUMP JUMPDEST DUP2 MSTORE PUSH1 0x60 DUP2 ADD DUP11 SWAP1 MSTORE PUSH1 0x80 DUP2 ADD DUP10 SWAP1 MSTORE ADDRESS PUSH1 0x20 DUP3 ADD MSTORE TIMESTAMP PUSH1 0x40 DUP1 DUP4 ADD SWAP2 SWAP1 SWAP2 MSTORE MLOAD PUSH32 0xC04B8D5900000000000000000000000000000000000000000000000000000000 DUP2 MSTORE PUSH32 0x0 PUSH20 0xFFFFFFFFFFFFFFFFFFFFFFFFFFFFFFFFFFFFFFFF AND SWAP1 PUSH4 0xC04B8D59 SWAP1 PUSH2 0x670 SWAP1 DUP5 SWAP1 PUSH1 0x4 ADD PUSH2 0x15E0 JUMP JUMPDEST PUSH1 0x20 PUSH1 0x40 MLOAD DUP1 DUP4 SUB DUP2 PUSH1 0x0 DUP8 GAS CALL ISZERO DUP1 ISZERO PUSH2 0x68F JUMPI RETURNDATASIZE PUSH1 0x0 DUP1 RETURNDATACOPY RETURNDATASIZE PUSH1 0x0 REVERT JUMPDEST POP POP POP POP PUSH1 0x40 MLOAD RETURNDATASIZE PUSH1 0x1F NOT PUSH1 0x1F DUP3 ADD AND DUP3 ADD DUP1 PUSH1 0x40 MSTORE POP DUP2 ADD SWAP1 PUSH2 0x6B3 SWAP2 SWAP1 PUSH2 0x149D JUMP JUMPDEST SWAP13 SWAP12 POP POP POP POP POP POP POP POP POP POP POP POP JUMP JUMPDEST PUSH1 0x0 PUSH2 0x6D8 PUSH2 0x6D0 PUSH2 0x9D9 JUMP JUMPDEST DUP8 DUP8 DUP6 PUSH2 0xCDF JUMP JUMPDEST PUSH1 0x40 DUP1 MLOAD PUSH2 0x100 DUP2 ADD DUP3 MSTORE PUSH1 0x0 PUSH1 0xE0 DUP3 ADD SWAP1 DUP2 MSTORE PUSH20 0xFFFFFFFFFFFFFFFFFFFFFFFFFFFFFFFFFFFFFFFF DUP10 DUP2 AND DUP4 MSTORE DUP9 DUP2 AND PUSH1 0x20 DUP5 ADD SWAP1 DUP2 MSTORE PUSH3 0xFFFFFF DUP8 DUP2 AND DUP6 DUP8 ADD SWAP1 DUP2 MSTORE ADDRESS PUSH1 0x60 DUP8 ADD SWAP1 DUP2 MSTORE TIMESTAMP PUSH1 0x80 DUP9 ADD SWAP1 DUP2 MSTORE PUSH1 0xA0 DUP9 ADD DUP14 DUP2 MSTORE PUSH1 0xC0 DUP10 ADD DUP14 DUP2 MSTORE SWAP10 MLOAD PUSH32 0x414BF38900000000000000000000000000000000000000000000000000000000 DUP2 MSTORE DUP10 MLOAD DUP9 AND PUSH1 0x4 DUP3 ADD MSTORE SWAP6 MLOAD DUP8 AND PUSH1 0x24 DUP8 ADD MSTORE SWAP3 MLOAD SWAP1 SWAP4 AND PUSH1 0x44 DUP6 ADD MSTORE MLOAD DUP5 AND PUSH1 0x64 DUP5 ADD MSTORE SWAP1 MLOAD PUSH1 0x84 DUP4 ADD MSTORE MLOAD PUSH1 0xA4 DUP3 ADD MSTORE SWAP4 MLOAD PUSH1 0xC4 DUP6 ADD MSTORE SWAP1 MLOAD DUP2 AND PUSH1 0xE4 DUP5 ADD MSTORE SWAP1 SWAP2 PUSH32 0x0 SWAP1 SWAP2 AND SWAP1 PUSH4 0x414BF389 SWAP1 PUSH2 0x104 ADD PUSH1 0x20 PUSH1 0x40 MLOAD DUP1 DUP4 SUB DUP2 PUSH1 0x0 DUP8 GAS CALL ISZERO DUP1 ISZERO PUSH2 0x7F1 JUMPI RETURNDATASIZE PUSH1 0x0 DUP1 RETURNDATACOPY RETURNDATASIZE PUSH1 0x0 REVERT JUMPDEST POP POP POP POP PUSH1 0x40 MLOAD RETURNDATASIZE PUSH1 0x1F NOT PUSH1 0x1F DUP3 ADD AND DUP3 ADD DUP1 PUSH1 0x40 MSTORE POP DUP2 ADD SWAP1 PUSH2 0x815 SWAP2 SWAP1 PUSH2 0x149D JUMP JUMPDEST SWAP8 SWAP7 POP POP POP POP POP POP POP JUMP JUMPDEST DUP1 ISZERO DUP1 PUSH2 0x8C0 JUMPI POP PUSH1 0x40 MLOAD PUSH32 0xDD62ED3E00000000000000000000000000000000000000000000000000000000 DUP2 MSTORE ADDRESS PUSH1 0x4 DUP3 ADD MSTORE PUSH20 0xFFFFFFFFFFFFFFFFFFFFFFFFFFFFFFFFFFFFFFFF DUP4 DUP2 AND PUSH1 0x24 DUP4 ADD MSTORE DUP5 AND SWAP1 PUSH4 0xDD62ED3E SWAP1 PUSH1 0x44 ADD PUSH1 0x20 PUSH1 0x40 MLOAD DUP1 DUP4 SUB DUP2 DUP7 GAS STATICCALL ISZERO DUP1 ISZERO PUSH2 0x89A JUMPI RETURNDATASIZE PUSH1 0x0 DUP1 RETURNDATACOPY RETURNDATASIZE PUSH1 0x0 REVERT JUMPDEST POP POP POP POP PUSH1 0x40 MLOAD RETURNDATASIZE PUSH1 0x1F NOT PUSH1 0x1F DUP3 ADD AND DUP3 ADD DUP1 PUSH1 0x40 MSTORE POP DUP2 ADD SWAP1 PUSH2 0x8BE SWAP2 SWAP1 PUSH2 0x149D JUMP JUMPDEST ISZERO JUMPDEST PUSH2 0x94C JUMPI PUSH1 0x40 MLOAD PUSH32 0x8C379A000000000000000000000000000000000000000000000000000000000 DUP2 MSTORE PUSH1 0x20 PUSH1 0x4 DUP3 ADD MSTORE PUSH1 0x36 PUSH1 0x24 DUP3 ADD MSTORE PUSH32 0x5361666545524332303A20617070726F76652066726F6D206E6F6E2D7A65726F PUSH1 0x44 DUP3 ADD MSTORE PUSH32 0x20746F206E6F6E2D7A65726F20616C6C6F77616E636500000000000000000000 PUSH1 0x64 DUP3 ADD MSTORE PUSH1 0x84 ADD PUSH2 0x128 JUMP JUMPDEST PUSH1 0x40 DUP1 MLOAD PUSH20 0xFFFFFFFFFFFFFFFFFFFFFFFFFFFFFFFFFFFFFFFF DUP5 AND PUSH1 0x24 DUP3 ADD MSTORE PUSH1 0x44 DUP1 DUP3 ADD DUP5 SWAP1 MSTORE DUP3 MLOAD DUP1 DUP4 SUB SWAP1 SWAP2 ADD DUP2 MSTORE PUSH1 0x64 SWAP1 SWAP2 ADD SWAP1 SWAP2 MSTORE PUSH1 0x20 DUP2 ADD DUP1 MLOAD PUSH28 0xFFFFFFFFFFFFFFFFFFFFFFFFFFFFFFFFFFFFFFFFFFFFFFFFFFFFFFFF AND PUSH32 0x95EA7B300000000000000000000000000000000000000000000000000000000 OR SWAP1 MSTORE PUSH2 0x4DD SWAP1 DUP5 SWAP1 PUSH2 0xF01 JUMP JUMPDEST PUSH1 0x0 PUSH32 0x0 PUSH20 0xFFFFFFFFFFFFFFFFFFFFFFFFFFFFFFFFFFFFFFFF AND PUSH4 0xC45A0155 PUSH1 0x40 MLOAD DUP2 PUSH4 0xFFFFFFFF AND PUSH1 0xE0 SHL DUP2 MSTORE PUSH1 0x4 ADD PUSH1 0x20 PUSH1 0x40 MLOAD DUP1 DUP4 SUB DUP2 DUP7 GAS STATICCALL ISZERO DUP1 ISZERO PUSH2 0xA46 JUMPI RETURNDATASIZE PUSH1 0x0 DUP1 RETURNDATACOPY RETURNDATASIZE PUSH1 0x0 REVERT JUMPDEST POP POP POP POP PUSH1 0x40 MLOAD RETURNDATASIZE PUSH1 0x1F NOT PUSH1 0x1F DUP3 ADD AND DUP3 ADD DUP1 PUSH1 0x40 MSTORE POP DUP2 ADD SWAP1 PUSH2 0xA6A SWAP2 SWAP1 PUSH2 0x1646 JUMP JUMPDEST SWAP1 POP SWAP1 JUMP JUMPDEST PUSH1 0x60 DUP3 MLOAD PUSH1 0x2 PUSH2 0xA7F SWAP2 SWAP1 PUSH2 0x1527 JUMP JUMPDEST PUSH8 0xFFFFFFFFFFFFFFFF DUP2 GT ISZERO PUSH2 0xA97 JUMPI PUSH2 0xA97 PUSH2 0x127C JUMP JUMPDEST PUSH1 0x40 MLOAD SWAP1 DUP1 DUP3 MSTORE DUP1 PUSH1 0x20 MUL PUSH1 0x20 ADD DUP3 ADD PUSH1 0x40 MSTORE DUP1 ISZERO PUSH2 0xAC0 JUMPI DUP2 PUSH1 0x20 ADD PUSH1 0x20 DUP3 MUL DUP1 CALLDATASIZE DUP4 CALLDATACOPY ADD SWAP1 POP JUMPDEST POP SWAP1 POP DUP4 DUP2 PUSH1 0x0 DUP2 MLOAD DUP2 LT PUSH2 0xAD7 JUMPI PUSH2 0xAD7 PUSH2 0x14F8 JUMP JUMPDEST PUSH1 0x20 MUL PUSH1 0x20 ADD ADD SWAP1 PUSH20 0xFFFFFFFFFFFFFFFFFFFFFFFFFFFFFFFFFFFFFFFF AND SWAP1 DUP2 PUSH20 0xFFFFFFFFFFFFFFFFFFFFFFFFFFFFFFFFFFFFFFFF AND DUP2 MSTORE POP POP PUSH1 0x0 JUMPDEST DUP4 MLOAD DUP2 LT ISZERO PUSH2 0xB8C JUMPI DUP4 DUP2 DUP2 MLOAD DUP2 LT PUSH2 0xB2F JUMPI PUSH2 0xB2F PUSH2 0x14F8 JUMP JUMPDEST PUSH1 0x20 MUL PUSH1 0x20 ADD ADD MLOAD DUP3 DUP3 PUSH1 0x1 PUSH2 0xB45 SWAP2 SWAP1 PUSH2 0x1527 JUMP JUMPDEST DUP2 MLOAD DUP2 LT PUSH2 0xB55 JUMPI PUSH2 0xB55 PUSH2 0x14F8 JUMP JUMPDEST PUSH20 0xFFFFFFFFFFFFFFFFFFFFFFFFFFFFFFFFFFFFFFFF SWAP1 SWAP3 AND PUSH1 0x20 SWAP3 DUP4 MUL SWAP2 SWAP1 SWAP2 ADD SWAP1 SWAP2 ADD MSTORE DUP1 PUSH2 0xB84 DUP2 PUSH2 0x153A JUMP JUMPDEST SWAP2 POP POP PUSH2 0xB14 JUMP JUMPDEST POP DUP2 DUP2 DUP5 MLOAD PUSH1 0x1 PUSH2 0xB9D SWAP2 SWAP1 PUSH2 0x1527 JUMP JUMPDEST DUP2 MLOAD DUP2 LT PUSH2 0xBAD JUMPI PUSH2 0xBAD PUSH2 0x14F8 JUMP JUMPDEST PUSH1 0x20 MUL PUSH1 0x20 ADD ADD SWAP1 PUSH20 0xFFFFFFFFFFFFFFFFFFFFFFFFFFFFFFFFFFFFFFFF AND SWAP1 DUP2 PUSH20 0xFFFFFFFFFFFFFFFFFFFFFFFFFFFFFFFFFFFFFFFF AND DUP2 MSTORE POP POP SWAP4 SWAP3 POP POP POP JUMP JUMPDEST PUSH1 0x60 DUP2 MLOAD PUSH1 0x1 PUSH2 0xBFE SWAP2 SWAP1 PUSH2 0x1527 JUMP JUMPDEST PUSH8 0xFFFFFFFFFFFFFFFF DUP2 GT ISZERO PUSH2 0xC16 JUMPI PUSH2 0xC16 PUSH2 0x127C JUMP JUMPDEST PUSH1 0x40 MLOAD SWAP1 DUP1 DUP3 MSTORE DUP1 PUSH1 0x20 MUL PUSH1 0x20 ADD DUP3 ADD PUSH1 0x40 MSTORE DUP1 ISZERO PUSH2 0xC3F JUMPI DUP2 PUSH1 0x20 ADD PUSH1 0x20 DUP3 MUL DUP1 CALLDATASIZE DUP4 CALLDATACOPY ADD SWAP1 POP JUMPDEST POP SWAP1 POP DUP3 DUP2 PUSH1 0x0 DUP2 MLOAD DUP2 LT PUSH2 0xC56 JUMPI PUSH2 0xC56 PUSH2 0x14F8 JUMP JUMPDEST PUSH1 0x20 MUL PUSH1 0x20 ADD ADD SWAP1 PUSH3 0xFFFFFF AND SWAP1 DUP2 PUSH3 0xFFFFFF AND DUP2 MSTORE POP POP PUSH1 0x0 JUMPDEST DUP3 MLOAD DUP2 LT ISZERO PUSH2 0xCD8 JUMPI DUP3 DUP2 DUP2 MLOAD DUP2 LT PUSH2 0xC8C JUMPI PUSH2 0xC8C PUSH2 0x14F8 JUMP JUMPDEST PUSH1 0x20 MUL PUSH1 0x20 ADD ADD MLOAD DUP3 DUP3 PUSH1 0x1 PUSH2 0xCA2 SWAP2 SWAP1 PUSH2 0x1527 JUMP JUMPDEST DUP2 MLOAD DUP2 LT PUSH2 0xCB2 JUMPI PUSH2 0xCB2 PUSH2 0x14F8 JUMP JUMPDEST PUSH3 0xFFFFFF SWAP1 SWAP3 AND PUSH1 0x20 SWAP3 DUP4 MUL SWAP2 SWAP1 SWAP2 ADD SWAP1 SWAP2 ADD MSTORE DUP1 PUSH2 0xCD0 DUP2 PUSH2 0x153A JUMP JUMPDEST SWAP2 POP POP PUSH2 0xC71 JUMP JUMPDEST POP SWAP3 SWAP2 POP POP JUMP JUMPDEST PUSH1 0x0 DUP1 DUP4 PUSH20 0xFFFFFFFFFFFFFFFFFFFFFFFFFFFFFFFFFFFFFFFF AND DUP6 PUSH20 0xFFFFFFFFFFFFFFFFFFFFFFFFFFFFFFFFFFFFFFFF AND LT PUSH2 0xD1C JUMPI DUP4 DUP6 PUSH2 0xD1F JUMP JUMPDEST DUP5 DUP5 JUMPDEST PUSH1 0x40 MLOAD PUSH32 0x1698EE8200000000000000000000000000000000000000000000000000000000 DUP2 MSTORE PUSH20 0xFFFFFFFFFFFFFFFFFFFFFFFFFFFFFFFFFFFFFFFF DUP1 DUP5 AND PUSH1 0x4 DUP4 ADD MSTORE DUP1 DUP4 AND PUSH1 0x24 DUP4 ADD MSTORE PUSH3 0xFFFFFF DUP8 AND PUSH1 0x44 DUP4 ADD MSTORE SWAP3 SWAP5 POP SWAP1 SWAP3 POP PUSH1 0x0 SWAP2 DUP9 AND SWAP1 PUSH4 0x1698EE82 SWAP1 PUSH1 0x64 ADD PUSH1 0x20 PUSH1 0x40 MLOAD DUP1 DUP4 SUB DUP2 DUP7 GAS STATICCALL ISZERO DUP1 ISZERO PUSH2 0xDA7 JUMPI RETURNDATASIZE PUSH1 0x0 DUP1 RETURNDATACOPY RETURNDATASIZE PUSH1 0x0 REVERT JUMPDEST POP POP POP POP PUSH1 0x40 MLOAD RETURNDATASIZE PUSH1 0x1F NOT PUSH1 0x1F DUP3 ADD AND DUP3 ADD DUP1 PUSH1 0x40 MSTORE POP DUP2 ADD SWAP1 PUSH2 0xDCB SWAP2 SWAP1 PUSH2 0x1646 JUMP JUMPDEST SWAP1 POP PUSH20 0xFFFFFFFFFFFFFFFFFFFFFFFFFFFFFFFFFFFFFFFF DUP2 AND PUSH2 0xE45 JUMPI PUSH1 0x40 MLOAD PUSH32 0xF8ECE25100000000000000000000000000000000000000000000000000000000 DUP2 MSTORE PUSH20 0xFFFFFFFFFFFFFFFFFFFFFFFFFFFFFFFFFFFFFFFF DUP1 DUP6 AND PUSH1 0x4 DUP4 ADD MSTORE DUP4 AND PUSH1 0x24 DUP3 ADD MSTORE PUSH3 0xFFFFFF DUP6 AND PUSH1 0x44 DUP3 ADD MSTORE PUSH1 0x64 ADD PUSH2 0x128 JUMP JUMPDEST POP POP POP POP POP POP POP JUMP JUMPDEST PUSH1 0x40 DUP1 MLOAD PUSH1 0x0 DUP1 DUP3 MSTORE PUSH1 0x20 DUP3 ADD SWAP1 SWAP3 MSTORE SWAP1 JUMPDEST DUP3 MLOAD DUP2 LT ISZERO PUSH2 0xECC JUMPI PUSH2 0xEB8 DUP4 DUP3 DUP2 MLOAD DUP2 LT PUSH2 0xE7E JUMPI PUSH2 0xE7E PUSH2 0x14F8 JUMP JUMPDEST PUSH1 0x20 MUL PUSH1 0x20 ADD ADD MLOAD PUSH2 0xEB2 DUP7 DUP5 DUP2 MLOAD DUP2 LT PUSH2 0xE9B JUMPI PUSH2 0xE9B PUSH2 0x14F8 JUMP JUMPDEST PUSH1 0x20 MUL PUSH1 0x20 ADD ADD MLOAD DUP6 PUSH2 0x100D SWAP1 SWAP2 SWAP1 PUSH4 0xFFFFFFFF AND JUMP JUMPDEST SWAP1 PUSH2 0x103A JUMP JUMPDEST SWAP2 POP DUP1 PUSH2 0xEC4 DUP2 PUSH2 0x153A JUMP JUMPDEST SWAP2 POP POP PUSH2 0xE60 JUMP JUMPDEST POP PUSH2 0xEFA DUP4 DUP4 MLOAD DUP2 MLOAD DUP2 LT PUSH2 0xEE3 JUMPI PUSH2 0xEE3 PUSH2 0x14F8 JUMP JUMPDEST PUSH1 0x20 MUL PUSH1 0x20 ADD ADD MLOAD DUP3 PUSH2 0x100D SWAP1 SWAP2 SWAP1 PUSH4 0xFFFFFFFF AND JUMP JUMPDEST SWAP4 SWAP3 POP POP POP JUMP JUMPDEST PUSH1 0x0 PUSH2 0xF63 DUP3 PUSH1 0x40 MLOAD DUP1 PUSH1 0x40 ADD PUSH1 0x40 MSTORE DUP1 PUSH1 0x20 DUP2 MSTORE PUSH1 0x20 ADD PUSH32 0x5361666545524332303A206C6F772D6C6576656C2063616C6C206661696C6564 DUP2 MSTORE POP DUP6 PUSH20 0xFFFFFFFFFFFFFFFFFFFFFFFFFFFFFFFFFFFFFFFF AND PUSH2 0x104F SWAP1 SWAP3 SWAP2 SWAP1 PUSH4 0xFFFFFFFF AND JUMP JUMPDEST DUP1 MLOAD SWAP1 SWAP2 POP ISZERO PUSH2 0x4DD JUMPI DUP1 DUP1 PUSH1 0x20 ADD SWAP1 MLOAD DUP2 ADD SWAP1 PUSH2 0xF81 SWAP2 SWAP1 PUSH2 0x1663 JUMP JUMPDEST PUSH2 0x4DD JUMPI PUSH1 0x40 MLOAD PUSH32 0x8C379A000000000000000000000000000000000000000000000000000000000 DUP2 MSTORE PUSH1 0x20 PUSH1 0x4 DUP3 ADD MSTORE PUSH1 0x2A PUSH1 0x24 DUP3 ADD MSTORE PUSH32 0x5361666545524332303A204552433230206F7065726174696F6E20646964206E PUSH1 0x44 DUP3 ADD MSTORE PUSH32 0x6F74207375636365656400000000000000000000000000000000000000000000 PUSH1 0x64 DUP3 ADD MSTORE PUSH1 0x84 ADD PUSH2 0x128 JUMP JUMPDEST PUSH1 0x60 DUP3 DUP3 PUSH1 0x40 MLOAD PUSH1 0x20 ADD PUSH2 0x1022 SWAP3 SWAP2 SWAP1 PUSH2 0x1685 JUMP JUMPDEST PUSH1 0x40 MLOAD PUSH1 0x20 DUP2 DUP4 SUB SUB DUP2 MSTORE SWAP1 PUSH1 0x40 MSTORE SWAP1 POP JUMPDEST SWAP3 SWAP2 POP POP JUMP JUMPDEST PUSH1 0x60 DUP3 DUP3 PUSH1 0x40 MLOAD PUSH1 0x20 ADD PUSH2 0x1022 SWAP3 SWAP2 SWAP1 PUSH2 0x16CF JUMP JUMPDEST PUSH1 0x60 PUSH2 0x105E DUP5 DUP5 PUSH1 0x0 DUP6 PUSH2 0x1066 JUMP JUMPDEST SWAP5 SWAP4 POP POP POP POP JUMP JUMPDEST PUSH1 0x60 DUP3 SELFBALANCE LT ISZERO PUSH2 0x10F8 JUMPI PUSH1 0x40 MLOAD PUSH32 0x8C379A000000000000000000000000000000000000000000000000000000000 DUP2 MSTORE PUSH1 0x20 PUSH1 0x4 DUP3 ADD MSTORE PUSH1 0x26 PUSH1 0x24 DUP3 ADD MSTORE PUSH32 0x416464726573733A20696E73756666696369656E742062616C616E636520666F PUSH1 0x44 DUP3 ADD MSTORE PUSH32 0x722063616C6C0000000000000000000000000000000000000000000000000000 PUSH1 0x64 DUP3 ADD MSTORE PUSH1 0x84 ADD PUSH2 0x128 JUMP JUMPDEST PUSH20 0xFFFFFFFFFFFFFFFFFFFFFFFFFFFFFFFFFFFFFFFF DUP6 AND EXTCODESIZE PUSH2 0x1176 JUMPI PUSH1 0x40 MLOAD PUSH32 0x8C379A000000000000000000000000000000000000000000000000000000000 DUP2 MSTORE PUSH1 0x20 PUSH1 0x4 DUP3 ADD MSTORE PUSH1 0x1D PUSH1 0x24 DUP3 ADD MSTORE PUSH32 0x416464726573733A2063616C6C20746F206E6F6E2D636F6E7472616374000000 PUSH1 0x44 DUP3 ADD MSTORE PUSH1 0x64 ADD PUSH2 0x128 JUMP JUMPDEST PUSH1 0x0 DUP1 DUP7 PUSH20 0xFFFFFFFFFFFFFFFFFFFFFFFFFFFFFFFFFFFFFFFF AND DUP6 DUP8 PUSH1 0x40 MLOAD PUSH2 0x119F SWAP2 SWAP1 PUSH2 0x1719 JUMP JUMPDEST PUSH1 0x0 PUSH1 0x40 MLOAD DUP1 DUP4 SUB DUP2 DUP6 DUP8 GAS CALL SWAP3 POP POP POP RETURNDATASIZE DUP1 PUSH1 0x0 DUP2 EQ PUSH2 0x11DC JUMPI PUSH1 0x40 MLOAD SWAP2 POP PUSH1 0x1F NOT PUSH1 0x3F RETURNDATASIZE ADD AND DUP3 ADD PUSH1 0x40 MSTORE RETURNDATASIZE DUP3 MSTORE RETURNDATASIZE PUSH1 0x0 PUSH1 0x20 DUP5 ADD RETURNDATACOPY PUSH2 0x11E1 JUMP JUMPDEST PUSH1 0x60 SWAP2 POP JUMPDEST POP SWAP2 POP SWAP2 POP PUSH2 0x815 DUP3 DUP3 DUP7 PUSH1 0x60 DUP4 ISZERO PUSH2 0x11FB JUMPI POP DUP2 PUSH2 0xEFA JUMP JUMPDEST DUP3 MLOAD ISZERO PUSH2 0x120B JUMPI DUP3 MLOAD DUP1 DUP5 PUSH1 0x20 ADD REVERT JUMPDEST DUP2 PUSH1 0x40 MLOAD PUSH32 0x8C379A000000000000000000000000000000000000000000000000000000000 DUP2 MSTORE PUSH1 0x4 ADD PUSH2 0x128 SWAP2 SWAP1 PUSH2 0x1735 JUMP JUMPDEST PUSH20 0xFFFFFFFFFFFFFFFFFFFFFFFFFFFFFFFFFFFFFFFF DUP2 AND DUP2 EQ PUSH2 0x1261 JUMPI PUSH1 0x0 DUP1 REVERT JUMPDEST POP JUMP JUMPDEST DUP1 CALLDATALOAD PUSH3 0xFFFFFF DUP2 AND DUP2 EQ PUSH2 0x1277 JUMPI PUSH1 0x0 DUP1 REVERT JUMPDEST SWAP2 SWAP1 POP JUMP JUMPDEST PUSH32 0x4E487B7100000000000000000000000000000000000000000000000000000000 PUSH1 0x0 MSTORE PUSH1 0x41 PUSH1 0x4 MSTORE PUSH1 0x24 PUSH1 0x0 REVERT JUMPDEST PUSH1 0x40 MLOAD PUSH1 0x1F DUP3 ADD PUSH32 0xFFFFFFFFFFFFFFFFFFFFFFFFFFFFFFFFFFFFFFFFFFFFFFFFFFFFFFFFFFFFFFE0 AND DUP2 ADD PUSH8 0xFFFFFFFFFFFFFFFF DUP2 GT DUP3 DUP3 LT OR ISZERO PUSH2 0x12F2 JUMPI PUSH2 0x12F2 PUSH2 0x127C JUMP JUMPDEST PUSH1 0x40 MSTORE SWAP2 SWAP1 POP JUMP JUMPDEST PUSH1 0x0 PUSH8 0xFFFFFFFFFFFFFFFF DUP3 GT ISZERO PUSH2 0x1314 JUMPI PUSH2 0x1314 PUSH2 0x127C JUMP JUMPDEST POP PUSH1 0x5 SHL PUSH1 0x20 ADD SWAP1 JUMP JUMPDEST PUSH1 0x0 DUP3 PUSH1 0x1F DUP4 ADD SLT PUSH2 0x132F JUMPI PUSH1 0x0 DUP1 REVERT JUMPDEST DUP2 CALLDATALOAD PUSH1 0x20 PUSH2 0x1344 PUSH2 0x133F DUP4 PUSH2 0x12FA JUMP JUMPDEST PUSH2 0x12AB JUMP JUMPDEST DUP3 DUP2 MSTORE PUSH1 0x5 SWAP3 SWAP1 SWAP3 SHL DUP5 ADD DUP2 ADD SWAP2 DUP2 DUP2 ADD SWAP1 DUP7 DUP5 GT ISZERO PUSH2 0x1363 JUMPI PUSH1 0x0 DUP1 REVERT JUMPDEST DUP3 DUP7 ADD JUMPDEST DUP5 DUP2 LT ISZERO PUSH2 0x1385 JUMPI PUSH2 0x1378 DUP2 PUSH2 0x1264 JUMP JUMPDEST DUP4 MSTORE SWAP2 DUP4 ADD SWAP2 DUP4 ADD PUSH2 0x1367 JUMP JUMPDEST POP SWAP7 SWAP6 POP POP POP POP POP POP JUMP JUMPDEST PUSH1 0x0 DUP1 PUSH1 0x0 DUP1 PUSH1 0x0 DUP1 PUSH1 0x0 PUSH1 0xE0 DUP9 DUP11 SUB SLT ISZERO PUSH2 0x13AB JUMPI PUSH1 0x0 DUP1 REVERT JUMPDEST DUP8 CALLDATALOAD PUSH2 0x13B6 DUP2 PUSH2 0x123F JUMP JUMPDEST SWAP7 POP PUSH1 0x20 DUP9 DUP2 ADD CALLDATALOAD PUSH2 0x13C7 DUP2 PUSH2 0x123F JUMP JUMPDEST SWAP7 POP PUSH1 0x40 DUP10 ADD CALLDATALOAD SWAP6 POP PUSH1 0x60 DUP10 ADD CALLDATALOAD SWAP5 POP PUSH2 0x13E3 PUSH1 0x80 DUP11 ADD PUSH2 0x1264 JUMP JUMPDEST SWAP4 POP PUSH1 0xA0 DUP10 ADD CALLDATALOAD PUSH8 0xFFFFFFFFFFFFFFFF DUP1 DUP3 GT ISZERO PUSH2 0x1400 JUMPI PUSH1 0x0 DUP1 REVERT JUMPDEST DUP2 DUP12 ADD SWAP2 POP DUP12 PUSH1 0x1F DUP4 ADD SLT PUSH2 0x1414 JUMPI PUSH1 0x0 DUP1 REVERT JUMPDEST DUP2 CALLDATALOAD PUSH2 0x1422 PUSH2 0x133F DUP3 PUSH2 0x12FA JUMP JUMPDEST DUP2 DUP2 MSTORE PUSH1 0x5 SWAP2 SWAP1 SWAP2 SHL DUP4 ADD DUP5 ADD SWAP1 DUP5 DUP2 ADD SWAP1 DUP15 DUP4 GT ISZERO PUSH2 0x1441 JUMPI PUSH1 0x0 DUP1 REVERT JUMPDEST SWAP4 DUP6 ADD SWAP4 JUMPDEST DUP3 DUP6 LT ISZERO PUSH2 0x1468 JUMPI DUP5 CALLDATALOAD PUSH2 0x1459 DUP2 PUSH2 0x123F JUMP JUMPDEST DUP3 MSTORE SWAP4 DUP6 ADD SWAP4 SWAP1 DUP6 ADD SWAP1 PUSH2 0x1446 JUMP JUMPDEST SWAP7 POP POP POP PUSH1 0xC0 DUP12 ADD CALLDATALOAD SWAP3 POP DUP1 DUP4 GT ISZERO PUSH2 0x1480 JUMPI PUSH1 0x0 DUP1 REVERT JUMPDEST POP POP PUSH2 0x148E DUP11 DUP3 DUP12 ADD PUSH2 0x131E JUMP JUMPDEST SWAP2 POP POP SWAP3 SWAP6 SWAP9 SWAP2 SWAP5 SWAP8 POP SWAP3 SWAP6 POP JUMP JUMPDEST PUSH1 0x0 PUSH1 0x20 DUP3 DUP5 SUB SLT ISZERO PUSH2 0x14AF JUMPI PUSH1 0x0 DUP1 REVERT JUMPDEST POP MLOAD SWAP2 SWAP1 POP JUMP JUMPDEST PUSH32 0x4E487B7100000000000000000000000000000000000000000000000000000000 PUSH1 0x0 MSTORE PUSH1 0x11 PUSH1 0x4 MSTORE PUSH1 0x24 PUSH1 0x0 REVERT JUMPDEST DUP2 DUP2 SUB DUP2 DUP2 GT ISZERO PUSH2 0x1034 JUMPI PUSH2 0x1034 PUSH2 0x14B6 JUMP JUMPDEST PUSH32 0x4E487B7100000000000000000000000000000000000000000000000000000000 PUSH1 0x0 MSTORE PUSH1 0x32 PUSH1 0x4 MSTORE PUSH1 0x24 PUSH1 0x0 REVERT JUMPDEST DUP1 DUP3 ADD DUP1 DUP3 GT ISZERO PUSH2 0x1034 JUMPI PUSH2 0x1034 PUSH2 0x14B6 JUMP JUMPDEST PUSH1 0x0 PUSH32 0xFFFFFFFFFFFFFFFFFFFFFFFFFFFFFFFFFFFFFFFFFFFFFFFFFFFFFFFFFFFFFFFF DUP3 SUB PUSH2 0x156B JUMPI PUSH2 0x156B PUSH2 0x14B6 JUMP JUMPDEST POP PUSH1 0x1 ADD SWAP1 JUMP JUMPDEST PUSH1 0x0 JUMPDEST DUP4 DUP2 LT ISZERO PUSH2 0x158D JUMPI DUP2 DUP2 ADD MLOAD DUP4 DUP3 ADD MSTORE PUSH1 0x20 ADD PUSH2 0x1575 JUMP JUMPDEST POP POP PUSH1 0x0 SWAP2 ADD MSTORE JUMP JUMPDEST PUSH1 0x0 DUP2 MLOAD DUP1 DUP5 MSTORE PUSH2 0x15AE DUP2 PUSH1 0x20 DUP7 ADD PUSH1 0x20 DUP7 ADD PUSH2 0x1572 JUMP JUMPDEST PUSH1 0x1F ADD PUSH32 0xFFFFFFFFFFFFFFFFFFFFFFFFFFFFFFFFFFFFFFFFFFFFFFFFFFFFFFFFFFFFFFE0 AND SWAP3 SWAP1 SWAP3 ADD PUSH1 0x20 ADD SWAP3 SWAP2 POP POP JUMP JUMPDEST PUSH1 0x20 DUP2 MSTORE PUSH1 0x0 DUP3 MLOAD PUSH1 0xA0 PUSH1 0x20 DUP5 ADD MSTORE PUSH2 0x15FC PUSH1 0xC0 DUP5 ADD DUP3 PUSH2 0x1596 JUMP JUMPDEST SWAP1 POP PUSH20 0xFFFFFFFFFFFFFFFFFFFFFFFFFFFFFFFFFFFFFFFF PUSH1 0x20 DUP6 ADD MLOAD AND PUSH1 0x40 DUP5 ADD MSTORE PUSH1 0x40 DUP5 ADD MLOAD PUSH1 0x60 DUP5 ADD MSTORE PUSH1 0x60 DUP5 ADD MLOAD PUSH1 0x80 DUP5 ADD MSTORE PUSH1 0x80 DUP5 ADD MLOAD PUSH1 0xA0 DUP5 ADD MSTORE DUP1 SWAP2 POP POP SWAP3 SWAP2 POP POP JUMP JUMPDEST PUSH1 0x0 PUSH1 0x20 DUP3 DUP5 SUB SLT ISZERO PUSH2 0x1658 JUMPI PUSH1 0x0 DUP1 REVERT JUMPDEST DUP2 MLOAD PUSH2 0xEFA DUP2 PUSH2 0x123F JUMP JUMPDEST PUSH1 0x0 PUSH1 0x20 DUP3 DUP5 SUB SLT ISZERO PUSH2 0x1675 JUMPI PUSH1 0x0 DUP1 REVERT JUMPDEST DUP2 MLOAD DUP1 ISZERO ISZERO DUP2 EQ PUSH2 0xEFA JUMPI PUSH1 0x0 DUP1 REVERT JUMPDEST PUSH1 0x0 DUP4 MLOAD PUSH2 0x1697 DUP2 DUP5 PUSH1 0x20 DUP9 ADD PUSH2 0x1572 JUMP JUMPDEST PUSH1 0x60 SWAP4 SWAP1 SWAP4 SHL PUSH32 0xFFFFFFFFFFFFFFFFFFFFFFFFFFFFFFFFFFFFFFFF000000000000000000000000 AND SWAP2 SWAP1 SWAP3 ADD SWAP1 DUP2 MSTORE PUSH1 0x14 ADD SWAP3 SWAP2 POP POP JUMP JUMPDEST PUSH1 0x0 DUP4 MLOAD PUSH2 0x16E1 DUP2 DUP5 PUSH1 0x20 DUP9 ADD PUSH2 0x1572 JUMP JUMPDEST PUSH1 0xE8 SWAP4 SWAP1 SWAP4 SHL PUSH32 0xFFFFFF0000000000000000000000000000000000000000000000000000000000 AND SWAP2 SWAP1 SWAP3 ADD SWAP1 DUP2 MSTORE PUSH1 0x3 ADD SWAP3 SWAP2 POP POP JUMP JUMPDEST PUSH1 0x0 DUP3 MLOAD PUSH2 0x172B DUP2 DUP5 PUSH1 0x20 DUP8 ADD PUSH2 0x1572 JUMP JUMPDEST SWAP2 SWAP1 SWAP2 ADD SWAP3 SWAP2 POP POP JUMP JUMPDEST PUSH1 0x20 DUP2 MSTORE PUSH1 0x0 PUSH2 0xEFA PUSH1 0x20 DUP4 ADD DUP5 PUSH2 0x1596 JUMP INVALID LOG2 PUSH5 0x6970667358 0x22 SLT KECCAK256 0xD2 0x28 0xDD 0xC8 SWAP11 EXP PUSH15 0x7A304F9B2332DDE8B62A0336CA2D73 0xF7 SWAP14 KECCAK256 PUSH5 0x52600BABBD 0xDC PUSH5 0x736F6C6343 STOP ADDMOD GT STOP CALLER "},"methodIdentifiers":{"execute(address,address,uint256,uint256,uint24,address[],uint24[])":"5964ca96","uniswapV3Router()":"2c76d7a6"}}}}}