{"contracts/OffChainSignedWithdrawer.sol":{"OffChainSignedWithdrawer":{"abi":[{"inputs":[{"internalType":"address","name":"who","type":"address"},{"internalType":"bytes4","name":"what","type":"bytes4"},{"internalType":"uint256[]","name":"how","type":"uint256[]"}],"name":"AuthSenderNotAllowed","type":"error"},{"inputs":[{"internalType":"uint256","name":"a","type":"uint256"},{"internalType":"uint256","name":"aInflated","type":"uint256"}],"name":"FixedPointDivInternal","type":"error"},{"inputs":[{"internalType":"uint256","name":"a","type":"uint256"},{"internalType":"uint256","name":"b","type":"uint256"}],"name":"FixedPointMulOverflow","type":"error"},{"inputs":[],"name":"FixedPointZeroDivision","type":"error"},{"inputs":[],"name":"TaskAcceptanceInputLengthMismatch","type":"error"},{"inputs":[],"name":"TaskAcceptanceTokenZero","type":"error"},{"inputs":[],"name":"TaskAmountZero","type":"error"},{"inputs":[],"name":"TaskGasNotInitialized","type":"error"},{"inputs":[{"internalType":"uint256","name":"gasPrice","type":"uint256"},{"internalType":"uint256","name":"gasPriceLimit","type":"uint256"}],"name":"TaskGasPriceLimitExceeded","type":"error"},{"inputs":[{"internalType":"uint8","name":"mode","type":"uint8"},{"internalType":"uint256","name":"date","type":"uint256"}],"name":"TaskInvalidAllowedDate","type":"error"},{"inputs":[{"internalType":"uint8","name":"mode","type":"uint8"},{"internalType":"uint256","name":"window","type":"uint256"}],"name":"TaskInvalidAllowedWindow","type":"error"},{"inputs":[{"internalType":"uint8","name":"mode","type":"uint8"},{"internalType":"uint256","name":"frequency","type":"uint256"}],"name":"TaskInvalidFrequency","type":"error"},{"inputs":[{"internalType":"uint8","name":"mode","type":"uint8"}],"name":"TaskInvalidFrequencyMode","type":"error"},{"inputs":[{"internalType":"address","name":"actual","type":"address"},{"internalType":"address","name":"expected","type":"address"}],"name":"TaskInvalidOffChainSignedWithdrawer","type":"error"},{"inputs":[{"internalType":"address","name":"token","type":"address"},{"internalType":"uint256","name":"min","type":"uint256"},{"internalType":"uint256","name":"max","type":"uint256"}],"name":"TaskInvalidThresholdInput","type":"error"},{"inputs":[{"internalType":"address","name":"token","type":"address"},{"internalType":"uint256","name":"amount","type":"uint256"},{"internalType":"uint256","name":"period","type":"uint256"}],"name":"TaskInvalidVolumeLimitInput","type":"error"},{"inputs":[{"internalType":"bytes32","name":"id","type":"bytes32"}],"name":"TaskNextConnectorNotZero","type":"error"},{"inputs":[],"name":"TaskPaused","type":"error"},{"inputs":[{"internalType":"uint256","name":"priorityFee","type":"uint256"},{"internalType":"uint256","name":"priorityFeeLimit","type":"uint256"}],"name":"TaskPriorityFeeLimitExceeded","type":"error"},{"inputs":[],"name":"TaskRecipientZero","type":"error"},{"inputs":[{"internalType":"bytes32","name":"connectorId","type":"bytes32"}],"name":"TaskSameBalanceConnectors","type":"error"},{"inputs":[],"name":"TaskSignedWithdrawalsUrlEmpty","type":"error"},{"inputs":[],"name":"TaskSignerZero","type":"error"},{"inputs":[{"internalType":"address","name":"smartVault","type":"address"}],"name":"TaskSmartVaultPriceOracleNotSet","type":"error"},{"inputs":[],"name":"TaskThresholdTokenZero","type":"error"},{"inputs":[{"internalType":"uint256","name":"currentTimestamp","type":"uint256"},{"internalType":"uint256","name":"expiration","type":"uint256"}],"name":"TaskTimeLockActive","type":"error"},{"inputs":[{"internalType":"address","name":"token","type":"address"}],"name":"TaskTokenNotAllowed","type":"error"},{"inputs":[{"internalType":"address","name":"token","type":"address"},{"internalType":"uint256","name":"amount","type":"uint256"},{"internalType":"uint256","name":"min","type":"uint256"},{"internalType":"uint256","name":"max","type":"uint256"}],"name":"TaskTokenThresholdNotMet","type":"error"},{"inputs":[],"name":"TaskTokenZero","type":"error"},{"inputs":[{"internalType":"uint256","name":"txCost","type":"uint256"},{"internalType":"uint256","name":"txCostLimit","type":"uint256"}],"name":"TaskTxCostLimitExceeded","type":"error"},{"inputs":[],"name":"TaskTxCostLimitPctAboveOne","type":"error"},{"inputs":[{"internalType":"uint256","name":"txCostPct","type":"uint256"},{"internalType":"uint256","name":"txCostLimitPct","type":"uint256"}],"name":"TaskTxCostLimitPctExceeded","type":"error"},{"inputs":[],"name":"TaskUnpaused","type":"error"},{"inputs":[{"internalType":"address","name":"token","type":"address"},{"internalType":"uint256","name":"limit","type":"uint256"},{"internalType":"uint256","name":"volume","type":"uint256"}],"name":"TaskVolumeLimitExceeded","type":"error"},{"inputs":[],"name":"TaskVolumeLimitTokenZero","type":"error"},{"inputs":[{"internalType":"address","name":"token","type":"address"},{"internalType":"uint256","name":"amount","type":"uint256"},{"internalType":"address","name":"recipient","type":"address"}],"name":"TaskWithdrawalAlreadyExecuted","type":"error"},{"anonymous":false,"inputs":[{"indexed":true,"internalType":"bytes32","name":"previous","type":"bytes32"},{"indexed":true,"internalType":"bytes32","name":"next","type":"bytes32"}],"name":"BalanceConnectorsSet","type":"event"},{"anonymous":false,"inputs":[{"indexed":true,"internalType":"address","name":"token","type":"address"},{"indexed":false,"internalType":"address","name":"thresholdToken","type":"address"},{"indexed":false,"internalType":"uint256","name":"min","type":"uint256"},{"indexed":false,"internalType":"uint256","name":"max","type":"uint256"}],"name":"CustomTokenThresholdSet","type":"event"},{"anonymous":false,"inputs":[{"indexed":true,"internalType":"address","name":"token","type":"address"},{"indexed":true,"internalType":"address","name":"limitToken","type":"address"},{"indexed":false,"internalType":"uint256","name":"amount","type":"uint256"},{"indexed":false,"internalType":"uint256","name":"period","type":"uint256"}],"name":"CustomVolumeLimitSet","type":"event"},{"anonymous":false,"inputs":[{"indexed":false,"internalType":"address","name":"token","type":"address"},{"indexed":false,"internalType":"uint256","name":"min","type":"uint256"},{"indexed":false,"internalType":"uint256","name":"max","type":"uint256"}],"name":"DefaultTokenThresholdSet","type":"event"},{"anonymous":false,"inputs":[{"indexed":true,"internalType":"address","name":"limitToken","type":"address"},{"indexed":false,"internalType":"uint256","name":"amount","type":"uint256"},{"indexed":false,"internalType":"uint256","name":"period","type":"uint256"}],"name":"DefaultVolumeLimitSet","type":"event"},{"anonymous":false,"inputs":[],"name":"Executed","type":"event"},{"anonymous":false,"inputs":[{"indexed":false,"internalType":"uint256","name":"gasPriceLimit","type":"uint256"},{"indexed":false,"internalType":"uint256","name":"priorityFeeLimit","type":"uint256"},{"indexed":false,"internalType":"uint256","name":"txCostLimit","type":"uint256"},{"indexed":false,"internalType":"uint256","name":"txCostLimitPct","type":"uint256"}],"name":"GasLimitsSet","type":"event"},{"anonymous":false,"inputs":[{"indexed":false,"internalType":"uint8","name":"version","type":"uint8"}],"name":"Initialized","type":"event"},{"anonymous":false,"inputs":[],"name":"Paused","type":"event"},{"anonymous":false,"inputs":[{"indexed":false,"internalType":"string","name":"signedWithdrawalsUrl","type":"string"}],"name":"SignedWithdrawalsUrlSet","type":"event"},{"anonymous":false,"inputs":[{"indexed":true,"internalType":"address","name":"signer","type":"address"}],"name":"SignerSet","type":"event"},{"anonymous":false,"inputs":[{"indexed":false,"internalType":"uint256","name":"allowedAt","type":"uint256"}],"name":"TimeLockAllowedAtSet","type":"event"},{"anonymous":false,"inputs":[{"indexed":false,"internalType":"uint8","name":"mode","type":"uint8"},{"indexed":false,"internalType":"uint256","name":"frequency","type":"uint256"},{"indexed":false,"internalType":"uint256","name":"allowedAt","type":"uint256"},{"indexed":false,"internalType":"uint256","name":"window","type":"uint256"}],"name":"TimeLockSet","type":"event"},{"anonymous":false,"inputs":[{"indexed":true,"internalType":"address","name":"token","type":"address"},{"indexed":false,"internalType":"bool","name":"added","type":"bool"}],"name":"TokensAcceptanceListSet","type":"event"},{"anonymous":false,"inputs":[{"indexed":false,"internalType":"enum ITokenIndexedTask.TokensAcceptanceType","name":"acceptanceType","type":"uint8"}],"name":"TokensAcceptanceTypeSet","type":"event"},{"anonymous":false,"inputs":[],"name":"Unpaused","type":"event"},{"inputs":[],"name":"EXECUTION_TYPE","outputs":[{"internalType":"bytes32","name":"","type":"bytes32"}],"stateMutability":"view","type":"function"},{"inputs":[],"name":"authorizer","outputs":[{"internalType":"address","name":"","type":"address"}],"stateMutability":"view","type":"function"},{"inputs":[{"internalType":"address","name":"token","type":"address"},{"internalType":"uint256","name":"amount","type":"uint256"},{"internalType":"address","name":"recipient","type":"address"},{"internalType":"bytes","name":"signature","type":"bytes"}],"name":"call","outputs":[],"stateMutability":"nonpayable","type":"function"},{"inputs":[{"internalType":"address","name":"token","type":"address"}],"name":"customTokenThreshold","outputs":[{"internalType":"address","name":"thresholdToken","type":"address"},{"internalType":"uint256","name":"min","type":"uint256"},{"internalType":"uint256","name":"max","type":"uint256"}],"stateMutability":"view","type":"function"},{"inputs":[{"internalType":"address","name":"token","type":"address"}],"name":"customVolumeLimit","outputs":[{"internalType":"address","name":"limitToken","type":"address"},{"internalType":"uint256","name":"amount","type":"uint256"},{"internalType":"uint256","name":"accrued","type":"uint256"},{"internalType":"uint256","name":"period","type":"uint256"},{"internalType":"uint256","name":"nextResetTime","type":"uint256"}],"stateMutability":"view","type":"function"},{"inputs":[],"name":"defaultTokenThreshold","outputs":[{"internalType":"address","name":"thresholdToken","type":"address"},{"internalType":"uint256","name":"min","type":"uint256"},{"internalType":"uint256","name":"max","type":"uint256"}],"stateMutability":"view","type":"function"},{"inputs":[],"name":"defaultVolumeLimit","outputs":[{"internalType":"address","name":"limitToken","type":"address"},{"internalType":"uint256","name":"amount","type":"uint256"},{"internalType":"uint256","name":"accrued","type":"uint256"},{"internalType":"uint256","name":"period","type":"uint256"},{"internalType":"uint256","name":"nextResetTime","type":"uint256"}],"stateMutability":"view","type":"function"},{"inputs":[],"name":"getBalanceConnectors","outputs":[{"internalType":"bytes32","name":"previous","type":"bytes32"},{"internalType":"bytes32","name":"next","type":"bytes32"}],"stateMutability":"view","type":"function"},{"inputs":[],"name":"getGasLimits","outputs":[{"internalType":"uint256","name":"gasPriceLimit","type":"uint256"},{"internalType":"uint256","name":"priorityFeeLimit","type":"uint256"},{"internalType":"uint256","name":"txCostLimit","type":"uint256"},{"internalType":"uint256","name":"txCostLimitPct","type":"uint256"}],"stateMutability":"view","type":"function"},{"inputs":[{"internalType":"address","name":"token","type":"address"}],"name":"getTaskAmount","outputs":[{"internalType":"uint256","name":"","type":"uint256"}],"stateMutability":"view","type":"function"},{"inputs":[],"name":"getTimeLock","outputs":[{"internalType":"uint8","name":"mode","type":"uint8"},{"internalType":"uint256","name":"frequency","type":"uint256"},{"internalType":"uint256","name":"allowedAt","type":"uint256"},{"internalType":"uint256","name":"window","type":"uint256"}],"stateMutability":"view","type":"function"},{"inputs":[{"internalType":"address","name":"token","type":"address"}],"name":"getTokenThreshold","outputs":[{"internalType":"address","name":"thresholdToken","type":"address"},{"internalType":"uint256","name":"min","type":"uint256"},{"internalType":"uint256","name":"max","type":"uint256"}],"stateMutability":"view","type":"function"},{"inputs":[],"name":"getTokensSource","outputs":[{"internalType":"address","name":"","type":"address"}],"stateMutability":"view","type":"function"},{"inputs":[{"internalType":"address","name":"token","type":"address"}],"name":"getVolumeLimit","outputs":[{"internalType":"address","name":"limitToken","type":"address"},{"internalType":"uint256","name":"amount","type":"uint256"},{"internalType":"uint256","name":"accrued","type":"uint256"},{"internalType":"uint256","name":"period","type":"uint256"},{"internalType":"uint256","name":"nextResetTime","type":"uint256"}],"stateMutability":"view","type":"function"},{"inputs":[{"internalType":"address","name":"token","type":"address"},{"internalType":"uint256","name":"amount","type":"uint256"},{"internalType":"address","name":"recipient","type":"address"}],"name":"getWithdrawalId","outputs":[{"internalType":"bytes32","name":"","type":"bytes32"}],"stateMutability":"view","type":"function"},{"inputs":[{"components":[{"components":[{"internalType":"address","name":"smartVault","type":"address"},{"internalType":"bytes32","name":"previousBalanceConnectorId","type":"bytes32"},{"internalType":"bytes32","name":"nextBalanceConnectorId","type":"bytes32"}],"internalType":"struct BaseTask.BaseConfig","name":"baseConfig","type":"tuple"},{"components":[{"internalType":"uint256","name":"gasPriceLimit","type":"uint256"},{"internalType":"uint256","name":"priorityFeeLimit","type":"uint256"},{"internalType":"uint256","name":"txCostLimit","type":"uint256"},{"internalType":"uint256","name":"txCostLimitPct","type":"uint256"}],"internalType":"struct GasLimitedTask.GasLimitConfig","name":"gasLimitConfig","type":"tuple"},{"components":[{"internalType":"uint8","name":"mode","type":"uint8"},{"internalType":"uint256","name":"frequency","type":"uint256"},{"internalType":"uint256","name":"allowedAt","type":"uint256"},{"internalType":"uint256","name":"window","type":"uint256"}],"internalType":"struct TimeLockedTask.TimeLockConfig","name":"timeLockConfig","type":"tuple"},{"components":[{"internalType":"enum ITokenIndexedTask.TokensAcceptanceType","name":"acceptanceType","type":"uint8"},{"internalType":"address[]","name":"tokens","type":"address[]"}],"internalType":"struct TokenIndexedTask.TokenIndexConfig","name":"tokenIndexConfig","type":"tuple"},{"components":[{"components":[{"internalType":"address","name":"token","type":"address"},{"internalType":"uint256","name":"min","type":"uint256"},{"internalType":"uint256","name":"max","type":"uint256"}],"internalType":"struct TokenThresholdTask.Threshold","name":"defaultThreshold","type":"tuple"},{"components":[{"internalType":"address","name":"token","type":"address"},{"components":[{"internalType":"address","name":"token","type":"address"},{"internalType":"uint256","name":"min","type":"uint256"},{"internalType":"uint256","name":"max","type":"uint256"}],"internalType":"struct TokenThresholdTask.Threshold","name":"threshold","type":"tuple"}],"internalType":"struct TokenThresholdTask.CustomThresholdConfig[]","name":"customThresholdConfigs","type":"tuple[]"}],"internalType":"struct TokenThresholdTask.TokenThresholdConfig","name":"tokenThresholdConfig","type":"tuple"},{"components":[{"components":[{"internalType":"address","name":"token","type":"address"},{"internalType":"uint256","name":"amount","type":"uint256"},{"internalType":"uint256","name":"period","type":"uint256"}],"internalType":"struct VolumeLimitedTask.VolumeLimitParams","name":"defaultVolumeLimit","type":"tuple"},{"components":[{"internalType":"address","name":"token","type":"address"},{"components":[{"internalType":"address","name":"token","type":"address"},{"internalType":"uint256","name":"amount","type":"uint256"},{"internalType":"uint256","name":"period","type":"uint256"}],"internalType":"struct VolumeLimitedTask.VolumeLimitParams","name":"volumeLimit","type":"tuple"}],"internalType":"struct VolumeLimitedTask.CustomVolumeLimitConfig[]","name":"customVolumeLimitConfigs","type":"tuple[]"}],"internalType":"struct VolumeLimitedTask.VolumeLimitConfig","name":"volumeLimitConfig","type":"tuple"}],"internalType":"struct Task.TaskConfig","name":"taskConfig","type":"tuple"},{"internalType":"address","name":"initialSigner","type":"address"},{"internalType":"string","name":"initialSignedWithdrawalsUrl","type":"string"}],"name":"initialize","outputs":[],"stateMutability":"nonpayable","type":"function"},{"inputs":[],"name":"isPaused","outputs":[{"internalType":"bool","name":"","type":"bool"}],"stateMutability":"view","type":"function"},{"inputs":[{"internalType":"address","name":"token","type":"address"}],"name":"isTokenAllowed","outputs":[{"internalType":"bool","name":"","type":"bool"}],"stateMutability":"view","type":"function"},{"inputs":[],"name":"pause","outputs":[],"stateMutability":"nonpayable","type":"function"},{"inputs":[{"internalType":"bytes32","name":"previous","type":"bytes32"},{"internalType":"bytes32","name":"next","type":"bytes32"}],"name":"setBalanceConnectors","outputs":[],"stateMutability":"nonpayable","type":"function"},{"inputs":[{"internalType":"address","name":"token","type":"address"},{"internalType":"address","name":"thresholdToken","type":"address"},{"internalType":"uint256","name":"min","type":"uint256"},{"internalType":"uint256","name":"max","type":"uint256"}],"name":"setCustomTokenThreshold","outputs":[],"stateMutability":"nonpayable","type":"function"},{"inputs":[{"internalType":"address","name":"token","type":"address"},{"internalType":"address","name":"limitToken","type":"address"},{"internalType":"uint256","name":"limitAmount","type":"uint256"},{"internalType":"uint256","name":"limitPeriod","type":"uint256"}],"name":"setCustomVolumeLimit","outputs":[],"stateMutability":"nonpayable","type":"function"},{"inputs":[{"internalType":"address","name":"thresholdToken","type":"address"},{"internalType":"uint256","name":"min","type":"uint256"},{"internalType":"uint256","name":"max","type":"uint256"}],"name":"setDefaultTokenThreshold","outputs":[],"stateMutability":"nonpayable","type":"function"},{"inputs":[{"internalType":"address","name":"limitToken","type":"address"},{"internalType":"uint256","name":"limitAmount","type":"uint256"},{"internalType":"uint256","name":"limitPeriod","type":"uint256"}],"name":"setDefaultVolumeLimit","outputs":[],"stateMutability":"nonpayable","type":"function"},{"inputs":[{"internalType":"uint256","name":"newGasPriceLimit","type":"uint256"},{"internalType":"uint256","name":"newPriorityFeeLimit","type":"uint256"},{"internalType":"uint256","name":"newTxCostLimit","type":"uint256"},{"internalType":"uint256","name":"newTxCostLimitPct","type":"uint256"}],"name":"setGasLimits","outputs":[],"stateMutability":"nonpayable","type":"function"},{"inputs":[{"internalType":"string","name":"newSignedWithdrawalsUrl","type":"string"}],"name":"setSignedWithdrawalsUrl","outputs":[],"stateMutability":"nonpayable","type":"function"},{"inputs":[{"internalType":"address","name":"newSigner","type":"address"}],"name":"setSigner","outputs":[],"stateMutability":"nonpayable","type":"function"},{"inputs":[{"internalType":"uint8","name":"mode","type":"uint8"},{"internalType":"uint256","name":"frequency","type":"uint256"},{"internalType":"uint256","name":"allowedAt","type":"uint256"},{"internalType":"uint256","name":"window","type":"uint256"}],"name":"setTimeLock","outputs":[],"stateMutability":"nonpayable","type":"function"},{"inputs":[{"internalType":"address[]","name":"tokens","type":"address[]"},{"internalType":"bool[]","name":"added","type":"bool[]"}],"name":"setTokensAcceptanceList","outputs":[],"stateMutability":"nonpayable","type":"function"},{"inputs":[{"internalType":"enum ITokenIndexedTask.TokensAcceptanceType","name":"newTokensAcceptanceType","type":"uint8"}],"name":"setTokensAcceptanceType","outputs":[],"stateMutability":"nonpayable","type":"function"},{"inputs":[],"name":"signedWithdrawalsUrl","outputs":[{"internalType":"string","name":"","type":"string"}],"stateMutability":"view","type":"function"},{"inputs":[],"name":"signer","outputs":[{"internalType":"address","name":"","type":"address"}],"stateMutability":"view","type":"function"},{"inputs":[],"name":"smartVault","outputs":[{"internalType":"address","name":"","type":"address"}],"stateMutability":"view","type":"function"},{"inputs":[],"name":"tokensAcceptanceType","outputs":[{"internalType":"enum ITokenIndexedTask.TokensAcceptanceType","name":"","type":"uint8"}],"stateMutability":"view","type":"function"},{"inputs":[],"name":"unpause","outputs":[],"stateMutability":"nonpayable","type":"function"},{"inputs":[{"internalType":"bytes32","name":"","type":"bytes32"}],"name":"wasExecuted","outputs":[{"internalType":"bool","name":"","type":"bool"}],"stateMutability":"view","type":"function"}],"evm":{"bytecode":{"linkReferences":{},"object":"60806040523480156200001157600080fd5b506200001c62000022565b620000e4565b600054610100900460ff16156200008f5760405162461bcd60e51b815260206004820152602760248201527f496e697469616c697a61626c653a20636f6e747261637420697320696e697469604482015266616c697a696e6760c81b606482015260840160405180910390fd5b60005460ff9081161015620000e2576000805460ff191660ff9081179091556040519081527f7f26b83ff96e1f2b6a682f133852f6798a09c465da95921460cefb38474024989060200160405180910390a15b565b61576a80620000f46000396000f3fe608060405234801561001057600080fd5b506004361061025c5760003560e01c806362f57b6011610145578063a7daad60116100bd578063d09edf311161008c578063d45a76cf11610071578063d45a76cf14610724578063e6b5be9814610737578063f9eaee0d1461074a57600080fd5b8063d09edf31146106f8578063d3feb6021461071157600080fd5b8063a7daad6014610646578063a808644e146106c7578063b187bd26146106da578063c267621e146106e757600080fd5b80638456cb5911610114578063a0c3774f116100f9578063a0c3774f146105a6578063a3374177146105b9578063a5900c4d146105ec57600080fd5b80638456cb591461058b57806390333ba81461059357600080fd5b806362f57b60146105065780636aacaad8146105195780636c19e783146105655780637125590a1461057857600080fd5b8063423a4b40116101d85780634fd49efd116101a757806353f983761161018c57806353f98376146104ac5780635670e2ce146104bf5780635ea54eee146104da57600080fd5b80634fd49efd1461046157806351a424b11461047457600080fd5b8063423a4b40146103ea57806342d4693e146103fd5780634a3e903e146104175780634a45a3a81461042c57600080fd5b80632384c32d1161022f5780632a682d3b116102145780632a682d3b1461039c57806330eae572146103cf5780633f4ba83a146103e257600080fd5b80632384c32d1461035e578063238ac9331461037157600080fd5b80630fe105e814610261578063119a5e961461027657806321972384146102a7578063221a8c68146102ba575b600080fd5b61027461026f3660046148fb565b61075d565b005b61027e6107ae565b6040805160ff909516855260208501939093529183015260608201526080015b60405180910390f35b6102746102b5366004614ac9565b6107e5565b61032c6102c8366004614b8d565b6001600160a01b039081166000908152601b6020908152604091829020825160a08101845281549094168085526001820154928501839052600282015493850184905260038201546060860181905260049092015460809095018590529491939091565b604080516001600160a01b0390961686526020860194909452928401919091526060830152608082015260a00161029e565b61027461036c366004614baa565b6108ad565b601c54610384906001600160a01b031681565b6040516001600160a01b03909116815260200161029e565b6103bf6103aa366004614bf0565b601e6020526000908152604090205460ff1681565b604051901515815260200161029e565b6102746103dd366004614c18565b6108f4565b61027461094d565b6102746103f8366004614baa565b6109ec565b600f5461040a9060ff1681565b60405161029e9190614c62565b61041f610a33565b60405161029e9190614ce9565b6104537f6f48fea04fa9f5a5ef2c321133cf2a12d8fc3ad8dfef312fe81f896355af4d9481565b60405190815260200161029e565b600154610384906001600160a01b031681565b610487610482366004614b8d565b610ac1565b604080516001600160a01b03909416845260208401929092529082015260600161029e565b6102746104ba366004614d74565b610aea565b6002546003546040805192835260208301919091520161029e565b60065460075460085460095460408051948552602085019390935291830152606082015260800161029e565b610274610514366004614da9565b610b24565b61032c6040805160a0810182526016546001600160a01b03168082526017546020830181905260185493830184905260195460608401819052601a546080909401849052919490939290565b610274610573366004614b8d565b610c10565b610274610586366004614e29565b610c51565b610274610c94565b6102746105a1366004614e4b565b610d37565b6104536105b4366004614b8d565b610d82565b610487604080516060810182526012546001600160a01b0316808252601354602083018190526014549290930182905292565b6104876105fa366004614b8d565b6001600160a01b03808216600090815260156020908152604091829020825160608101845281549094168085526001820154928501839052600290910154939092018390529093909250565b610453610654366004614e80565b60408051466020808301919091527fffffffffffffffffffffffffffffffffffffffff00000000000000000000000030606090811b82168486015296871b8116605484015260688301959095529290941b90921660888401528151808403607c018152609c909301909152815191012090565b6102746106d536600461510a565b610e19565b6004546103bf9060ff1681565b6001546001600160a01b0316610384565b600054610384906201000090046001600160a01b031681565b61027461071f366004614e4b565b610f7e565b61032c610732366004614b8d565b610fc3565b61027461074536600461522e565b611032565b6103bf610758366004614b8d565b611079565b61076c8460ff168484846110c4565b61079b336000357fffffffff00000000000000000000000000000000000000000000000000000000168361116f565b6107a7858585856111b6565b5050505050565b600a5460009081908190819060ff1660028111156107ce576107ce614c33565b600b54600c54600e54935093509350935090919293565b610813336000357fffffffff0000000000000000000000000000000000000000000000000000000016611537565b805182511461084e576040517f5d32021a00000000000000000000000000000000000000000000000000000000815260040160405180910390fd5b60005b82518110156108a85761089683828151811061086f5761086f615260565b602002602001015183838151811061088957610889615260565b6020026020010151611553565b806108a0816152be565b915050610851565b505050565b6108b9848484846115fd565b6108e8336000357fffffffff00000000000000000000000000000000000000000000000000000000168361116f565b6107a785858585611666565b61091181600181111561090957610909614c33565b60ff1661171f565b610940336000357fffffffff00000000000000000000000000000000000000000000000000000000168361116f565b61094982611766565b5050565b61097b336000357fffffffff0000000000000000000000000000000000000000000000000000000016611537565b60045460ff166109b7576040517f9e6558bd00000000000000000000000000000000000000000000000000000000815260040160405180910390fd5b6004805460ff191690556040517fa45f47fdea8a1efdd9029a5691c7f759c32b7c698632b563573e155625d1693390600090a1565b6109f8848484846115fd565b610a27336000357fffffffff00000000000000000000000000000000000000000000000000000000168361116f565b6107a7858585856117c3565b601d8054610a40906152d8565b80601f0160208091040260200160405190810160405280929190818152602001828054610a6c906152d8565b8015610ab95780601f10610a8e57610100808354040283529160200191610ab9565b820191906000526020600020905b815481529060010190602001808311610a9c57829003601f168201915b505050505081565b600080600080610ad085611883565b805160208201516040909201519097919650945092505050565b610b18336000357fffffffff0000000000000000000000000000000000000000000000000000000016611537565b610b218161190e565b50565b610b2e8484611985565b610b5d336000357fffffffff00000000000000000000000000000000000000000000000000000000168361116f565b83600003610b7157610b6e85610d82565b93505b610b7d858585856119f4565b6001546040517fd9caed120000000000000000000000000000000000000000000000000000000081526001600160a01b0387811660048301528581166024830152604482018790529091169063d9caed1290606401600060405180830381600087803b158015610bec57600080fd5b505af1158015610c00573d6000803e3d6000fd5b505050506107a785858585611c58565b610c1981611ce9565b610c48336000357fffffffff00000000000000000000000000000000000000000000000000000000168361116f565b61094982611cfd565b610c5b8282611d9f565b610c8a336000357fffffffff00000000000000000000000000000000000000000000000000000000168361116f565b6108a88383611df9565b610cc2336000357fffffffff0000000000000000000000000000000000000000000000000000000016611537565b60045460ff1615610cff576040517fc0f2312800000000000000000000000000000000000000000000000000000000815260040160405180910390fd5b6004805460ff191660011790556040517f9e87fac88ff661f02d44f95383c817fece4bce600a3dab7a54406878b965e75290600090a1565b610d42838383611e3e565b610d71336000357fffffffff00000000000000000000000000000000000000000000000000000000168361116f565b610d7c848484611ed0565b50505050565b6001546002546040517ebc489400000000000000000000000000000000000000000000000000000000815260048101919091526001600160a01b038381166024830152600092169062bc489490604401602060405180830381865afa158015610def573d6000803e3d6000fd5b505050506040513d601f19601f82011682018060405250810190610e13919061532b565b92915050565b600054610100900460ff1615808015610e395750600054600160ff909116105b80610e535750303b158015610e53575060005460ff166001145b610eca5760405162461bcd60e51b815260206004820152602e60248201527f496e697469616c697a61626c653a20636f6e747261637420697320616c72656160448201527f647920696e697469616c697a656400000000000000000000000000000000000060648201526084015b60405180910390fd5b6000805460ff191660011790558015610f0a57600080547fffffffffffffffffffffffffffffffffffffffffffffffffffffffffffff00ff166101001790555b610f15848484611f26565b8015610d7c57600080547fffffffffffffffffffffffffffffffffffffffffffffffffffffffffffff00ff169055604051600181527f7f26b83ff96e1f2b6a682f133852f6798a09c465da95921460cefb3847402498906020015b60405180910390a150505050565b610f89838383611e3e565b610fb8336000357fffffffff00000000000000000000000000000000000000000000000000000000168361116f565b610d7c848484611fa5565b600080600080600080610fd587612001565b6040805160a08101825282546001600160a01b031680825260018401546020830181905260028501549383018490526003850154606084018190526004909501546080909301839052909b909a5091985091965090945092505050565b61103e848484846110c4565b61106d336000357fffffffff00000000000000000000000000000000000000000000000000000000168361116f565b6107a785858585612035565b6001600160a01b038116600090815260116020526040812054600f549015159060019060ff16818111156110af576110af614c33565b146110bb5780156110bd565b805b9392505050565b60408051600480825260a082019092526060916020820160808036833701905050905084816000815181106110fb576110fb615260565b602002602001018181525050838160018151811061111b5761111b615260565b602002602001018181525050828160028151811061113b5761113b615260565b602002602001018181525050818160038151811061115b5761115b615260565b602002602001018181525050949350505050565b61117a8383836120d0565b6108a8578282826040517f960c80da000000000000000000000000000000000000000000000000000000008152600401610ec19392919061537f565b60ff84166112b25760008111806111cd5750600082115b156112ad5782600003611218576040517fbea499cb00000000000000000000000000000000000000000000000000000000815260ff8516600482015260248101849052604401610ec1565b80158061122457508281115b15611267576040517f9e12fccf00000000000000000000000000000000000000000000000000000000815260ff8516600482015260248101829052604401610ec1565b816000036112ad576040517fad0d7eb200000000000000000000000000000000000000000000000000000000815260ff8516600482015260248101839052604401610ec1565b6114aa565b826000036112f8576040517fbea499cb00000000000000000000000000000000000000000000000000000000815260ff8516600482015260248101849052604401610ec1565b801580611310575061130d6224ea00846153c9565b81115b15611353576040517f9e12fccf00000000000000000000000000000000000000000000000000000000815260ff8516600482015260248101829052604401610ec1565b81600003611399576040517fad0d7eb200000000000000000000000000000000000000000000000000000000815260ff8516600482015260248101839052604401610ec1565b60001960ff8516016113f457601c6113b08361216e565b11156112ad576040517fad0d7eb200000000000000000000000000000000000000000000000000000000815260ff8516600482015260248101839052604401610ec1565b7ffffffffffffffffffffffffffffffffffffffffffffffffffffffffffffffffe60ff8516016114735761142782612185565b6114308361216e565b146112ad576040517fad0d7eb200000000000000000000000000000000000000000000000000000000815260ff8516600482015260248101839052604401610ec1565b6040517f33a738bc00000000000000000000000000000000000000000000000000000000815260ff85166004820152602401610ec1565b8360ff1660028111156114bf576114bf614c33565b600a805460ff191660018360028111156114db576114db614c33565b0217905550600b839055600c829055600e8190556040805160ff8616815260208101859052908101839052606081018290527f182fd6fa2a8560221614c1396dd4fcc78d26dfacf821a6afb61d25876057e41290608001610f70565b604080516000815260208101909152610949908390839061116f565b6001600160a01b038216611593576040517fc41a13ec00000000000000000000000000000000000000000000000000000000815260040160405180910390fd5b806115a8576115a36010836121a8565b6115b3565b6115b36010836121bd565b50816001600160a01b03167f6264362e9de26efefda321dfaeb4e4a9090deef40c5435fad8e9e2e306889a1c826040516115f1911515815260200190565b60405180910390a25050565b60408051600480825260a0820190925260609160208201608080368337019050509050846001600160a01b03168160008151811061163d5761163d615260565b602002602001018181525050836001600160a01b03168160018151811061111b5761111b615260565b6001600160a01b0384166116a6576040517fe7ba3e4a00000000000000000000000000000000000000000000000000000000815260040160405180910390fd5b6001600160a01b03841660009081526015602052604090206116ca908484846121d2565b604080516001600160a01b03858116825260208201859052918101839052908516907ff099617c054d3a65e02a9c3b786f23cc03d5982bc7cfae84dff0408049cf17079060600160405180910390a250505050565b60408051600180825281830190925260609160208083019080368337019050509050818160008151811061175557611755615260565b602002602001018181525050919050565b600f805482919060ff19166001838181111561178457611784614c33565b02179055507f216b6a9618d607ba436d0f2e17e9a83e70929adff805ac2385d67401360e551a816040516117b89190614c62565b60405180910390a150565b6001600160a01b038416611803576040517f1de0c9c700000000000000000000000000000000000000000000000000000000815260040160405180910390fd5b6001600160a01b0384166000908152601b60205260409020611827908484846122ba565b826001600160a01b0316846001600160a01b03167f1b5c5e27ed5443e409bae85849d41d7bf12d5352e8fddb3728b6408f836e14488484604051611875929190918252602082015260400190565b60405180910390a350505050565b6118b0604051806060016040528060006001600160a01b0316815260200160008152602001600081525090565b6001600160a01b0380831660009081526015602052604090208054909116156118d957806118dc565b60125b6040805160608101825282546001600160a01b0316815260018301546020820152600290920154908201529392505050565b8051600003611949576040517fedaf4df500000000000000000000000000000000000000000000000000000000815260040160405180910390fd5b601d6119558282615426565b507fb536117039b9f092020f65947be2f7ed81b167be574c4cf8f4291825d545b072816040516117b89190614ce9565b6040805160028082526060808301845292602083019080368337019050509050826001600160a01b0316816000815181106119c2576119c2615260565b60200260200101818152505081816001815181106119e2576119e2615260565b60200260200101818152505092915050565b6119fe8484612431565b6001600160a01b038416611a3e576040517fc0e0f12200000000000000000000000000000000000000000000000000000000815260040160405180910390fd5b82600003611a78576040517f1463acbe00000000000000000000000000000000000000000000000000000000815260040160405180910390fd5b6001600160a01b038216611ab8576040517f2586ae9100000000000000000000000000000000000000000000000000000000815260040160405180910390fd5b60408051466020808301919091527fffffffffffffffffffffffffffffffffffffffff00000000000000000000000030606090811b82168486015288811b821660548501526068840188905286901b1660888301528251808303607c018152609c90920190925280519101206000906000818152601e602052604090205490915060ff1615611b8d576040517ff78a35180000000000000000000000000000000000000000000000000000000081526001600160a01b0380871660048301526024820186905284166044820152606401610ec1565b6000611bef611be9836040517f19457468657265756d205369676e6564204d6573736167653a0a3332000000006020820152603c8101829052600090605c01604051602081830303815290604052805190602001209050919050565b84612477565b601c549091506001600160a01b03808316911614611c5057601c546040517f8311c6310000000000000000000000000000000000000000000000000000000081526001600160a01b0380841660048301529091166024820152604401610ec1565b505050505050565b604080514660208083019190915230606090811b7fffffffffffffffffffffffffffffffffffffffff0000000000000000000000009081168486015288821b81166054850152606884018890529086901b1660888301528251607c818403018152609c90920183528151918101919091206000908152601e90915220805460ff19166001179055610d7c848461249b565b6060610e13826001600160a01b031661171f565b6001600160a01b038116611d3d576040517f98e743d200000000000000000000000000000000000000000000000000000000815260040160405180910390fd5b601c80547fffffffffffffffffffffffff0000000000000000000000000000000000000000166001600160a01b0383169081179091556040517f9eaa897564d022fb8c5efaf0acdb5d9d27b440b2aad44400b6e1c702e65b9ed390600090a250565b60408051600280825260608083018452926020830190803683370190505090508260001c81600081518110611dd657611dd6615260565b6020026020010181815250508160001c816001815181106119e2576119e2615260565b8015611e34576040517f9842f26f00000000000000000000000000000000000000000000000000000000815260048101829052602401610ec1565b61094982826124c3565b60408051600380825260808201909252606091602082018380368337019050509050836001600160a01b031681600081518110611e7d57611e7d615260565b6020026020010181815250508281600181518110611e9d57611e9d615260565b6020026020010181815250508181600281518110611ebd57611ebd615260565b6020026020010181815250509392505050565b611edd60168484846122ba565b60408051838152602081018390526001600160a01b038516917f6324b5f18e615697a2b44f16d7a649deb0bbbc7cb09dad4c610306105730e7d9910160405180910390a2505050565b600054610100900460ff16611f915760405162461bcd60e51b815260206004820152602b60248201527f496e697469616c697a61626c653a20636f6e7472616374206973206e6f74206960448201526a6e697469616c697a696e6760a81b6064820152608401610ec1565b611f9a83612546565b6108a883838361260e565b611fb260128484846121d2565b604080516001600160a01b0385168152602081018490529081018290527fa80953bdc344b2ebd0bcdd001a3418a8fd1b858bdecf12a4ba5a9366ad65d3459060600160405180910390a1505050565b6001600160a01b038082166000908152601b60205260408120805491929091161561202c57806110bd565b60169392505050565b670de0b6b3a7640000811115612077576040517fce57496100000000000000000000000000000000000000000000000000000000815260040160405180910390fd5b60068490556007839055600882905560098190556040805185815260208101859052908101839052606081018290527f746dc5eb53c5de07c40b06d428506d6982ea10c423ac2875abfc44038927d69190608001610f70565b600080546040517f28522895000000000000000000000000000000000000000000000000000000008152620100009091046001600160a01b0316906328522895906121259087903090889088906004016154e6565b602060405180830381865afa158015612142573d6000803e3d6000fd5b505050506040513d601f19601f820116820180604052508101906121669190615544565b949350505050565b60006121666121806201518084615590565b61268b565b600080806121996121806201518086615590565b50915091506121668282612745565b60006110bd836001600160a01b0384166127cb565b60006110bd836001600160a01b0384166128c5565b60006001600160a01b0384161580156121e9575082155b80156121f3575081155b905060006001600160a01b0385161580159061221757508215806122175750838310155b905081158015612225575080155b15612275576040517fca1f04830000000000000000000000000000000000000000000000000000000081526001600160a01b03861660048201526024810185905260448101849052606401610ec1565b505083547fffffffffffffffffffffffff0000000000000000000000000000000000000000166001600160a01b03939093169290921783556001830155600290910155565b60006001600160a01b0384161580156122d1575082155b80156122db575081155b905060006001600160a01b038516158015906122f75750600084115b80156123035750600083115b905081158015612311575080155b15612361576040517ff5deb5dc0000000000000000000000000000000000000000000000000000000081526001600160a01b03861660048201526024810185905260448101849052606401610ec1565b600386018390556001860184905581156123885760006002870181905560048701556123f4565b85600401546000036123af57600060028701556123a583426155a4565b60048701556123f4565b85546001600160a01b038681169116146123f45785546000906123db906001600160a01b031687612914565b60028801549091506123ed9082612920565b6002880155505b505083547fffffffffffffffffffffffff0000000000000000000000000000000000000000166001600160a01b0393909316929092179092555050565b61243b8282612996565b61244582826129a0565b61244f82826129dd565b6124598282612ad1565b6124638282612d24565b61246d8282612d6e565b6109498282612e5b565b60008060006124868585612f71565b9150915061249381612fdf565b509392505050565b6124a582826131cb565b6124af828261326d565b6124b9828261328f565b61094982826134d9565b80821480156124d157508115155b1561250b576040517f0fb49edb00000000000000000000000000000000000000000000000000000000815260048101839052602401610ec1565b60028290556003819055604051819083907ff950a929751d87db181a0a517df21bb3ecd433abba584594402db4b58a55483590600090a35050565b600054610100900460ff166125b15760405162461bcd60e51b815260206004820152602b60248201527f496e697469616c697a61626c653a20636f6e7472616374206973206e6f74206960448201526a6e697469616c697a696e6760a81b6064820152608401610ec1565b80516125bc90613506565b6125c46135e8565b6125d1816020015161365d565b6125de81604001516136d1565b6125eb8160600151613745565b6125f881608001516137b9565b6126058160a0015161382d565b610b21816138a1565b600054610100900460ff166126795760405162461bcd60e51b815260206004820152602b60248201527f496e697469616c697a61626c653a20636f6e7472616374206973206e6f74206960448201526a6e697469616c697a696e6760a81b6064820152608401610ec1565b61268282611cfd565b6108a88161190e565b60008080836226496581018262023ab1600483020590506004600362023ab18302010590910390600062164b09610fa0600185010205905060046105b58202058303601f019250600061098f84605002816126e8576126e8615561565b0590506000605061098f83020585039050600b82057fffffffffffffffffffffffffffffffffffffffffffffffffffffffffffffffcf94909401606402929092018301996002600c90940290910392909201975095509350505050565b600081600114806127565750816003145b806127615750816005145b8061276c5750816007145b806127775750816008145b80612782575081600a145b8061278d575081600c145b1561279a5750601f610e13565b816002146127aa5750601e610e13565b6127b38361390c565b6127be57601c6127c1565b601d5b60ff169392505050565b600081815260018301602052604081205480156128b45760006127ef6001836155b7565b8554909150600090612803906001906155b7565b905081811461286857600086600001828154811061282357612823615260565b906000526020600020015490508087600001848154811061284657612846615260565b6000918252602080832090910192909255918252600188019052604090208390555b8554869080612879576128796155ca565b600190038181906000526020600020016000905590558560010160008681526020019081526020016000206000905560019350505050610e13565b6000915050610e13565b5092915050565b600081815260018301602052604081205461290c57508154600181810184556000848152602080822090930184905584548482528286019093526040902091909155610e13565b506000610e13565b60006110bd8383613948565b6000828202831580159061294357508284828161293f5761293f615561565b0414155b15612984576040517fe8e4a4fa0000000000000000000000000000000000000000000000000000000081526004810185905260248101849052604401610ec1565b670de0b6b3a764000090049392505050565b6109498282613b5f565b60045460ff1615610949576040517fc0f2312800000000000000000000000000000000000000000000000000000000815260040160405180910390fd5b5a600555604080516080810182526006548082526007546020830152600854928201929092526009546060820152906000901580612a1c575081513a11155b905080612a615781516040517fcbb35eb70000000000000000000000000000000000000000000000000000000081523a60048201526024810191909152604401610ec1565b6000612a6d483a6155b7565b90506000836020015160001480612a88575083602001518211155b905080611c505760208401516040517f56e5387f000000000000000000000000000000000000000000000000000000008152610ec1918491600401918252602082015260400190565b600a54600b54600c54600e5460ff9093169242821115612b26576040517f013ce60b00000000000000000000000000000000000000000000000000000000815242600482015260248101839052604401610ec1565b6000846002811115612b3a57612b3a614c33565b03612c0c5782600003612b4f57505050505050565b80600003612b6957612b6183426155a4565b600d55611c50565b6000612b7583426155b7565b90506000612b838583615590565b90506000612b9186836153c9565b612b9b90846155b7565b905083811115612be0576040517f013ce60b00000000000000000000000000000000000000000000000000000000815242600482015260248101869052604401610ec1565b85612bec8360016155a4565b612bf691906153c9565b612c0090866155a4565b600d5550611c50915050565b814210158015612c255750612c2181836155a4565b4211155b15612c3457612b618284613bf4565b60006001856002811115612c4a57612c4a614c33565b14612c5d57612c5842612185565b612c66565b612c668361216e565b90506000612c748483613c8c565b905080421015612cb9576040517f013ce60b00000000000000000000000000000000000000000000000000000000815242600482015260248101829052604401610ec1565b6000612cc584836155a4565b90504281108015612d0b576040517f013ce60b00000000000000000000000000000000000000000000000000000000815242600482015260248101839052604401610ec1565b612d158388613bf4565b600d5550505050505050505050565b612d2d82611079565b610949576040517f7a2410450000000000000000000000000000000000000000000000000000000081526001600160a01b0383166004820152602401610ec1565b6000612d7983611883565b80519091506001600160a01b0316612d9057505050565b6000836001600160a01b031682600001516001600160a01b031614612dcc57612dc7612dc0858460000151612914565b8490612920565b612dce565b825b9050600082602001518210158015612df6575060408301511580612df6575082604001518211155b9050806107a7578251602084015160408086015190517f7c63a4b00000000000000000000000000000000000000000000000000000000081526001600160a01b0390931660048401526024830185905260448301919091526064820152608401610ec1565b6000612e6683612001565b6040805160a08101825282546001600160a01b031680825260018401546020830152600284015492820192909252600383015460608201526004909201546080830152909150612eb557505050565b6000836001600160a01b031682600001516001600160a01b031614612eea57612ee5612dc0858460000151612914565b612eec565b825b9050600082608001514210612f02576000612f08565b82604001515b612f1290836155a4565b905082602001518111156107a757825160208401516040517fb8858d5d0000000000000000000000000000000000000000000000000000000081526001600160a01b039092166004830152602482015260448101829052606401610ec1565b6000808251604103612fa75760208301516040840151606085015160001a612f9b87828585613cab565b94509450505050612fd8565b8251604003612fd05760208301516040840151612fc5868383613d98565b935093505050612fd8565b506000905060025b9250929050565b6000816004811115612ff357612ff3614c33565b03612ffb5750565b600181600481111561300f5761300f614c33565b0361305c5760405162461bcd60e51b815260206004820152601860248201527f45434453413a20696e76616c6964207369676e617475726500000000000000006044820152606401610ec1565b600281600481111561307057613070614c33565b036130bd5760405162461bcd60e51b815260206004820152601f60248201527f45434453413a20696e76616c6964207369676e6174757265206c656e677468006044820152606401610ec1565b60038160048111156130d1576130d1614c33565b036131445760405162461bcd60e51b815260206004820152602260248201527f45434453413a20696e76616c6964207369676e6174757265202773272076616c60448201527f75650000000000000000000000000000000000000000000000000000000000006064820152608401610ec1565b600481600481111561315857613158614c33565b03610b215760405162461bcd60e51b815260206004820152602260248201527f45434453413a20696e76616c6964207369676e6174757265202776272076616c60448201527f75650000000000000000000000000000000000000000000000000000000000006064820152608401610ec1565b60006131d683612001565b80549091506001600160a01b03166131ed57505050565b80546000906001600160a01b0385811691161461322357815461321e90612dc09086906001600160a01b0316612914565b613225565b825b90508160040154421061324e5760006002830155600382015461324890426155a4565b60048301555b8082600201600082825461326291906155a4565b909155505050505050565b600d5460000361327b575050565b613286600d54613dea565b50506000600d55565b6005546000036132cb576040517f1f5b8fc600000000000000000000000000000000000000000000000000000000815260040160405180910390fd5b604080516080810182526006548152600754602082015260085491810191909152600954606082015260005a60055461330491906155b7565b905060006133123a836153c9565b9050600083604001516000148061332d575083604001518211155b905080613377578184604001516040517faf258ef2000000000000000000000000000000000000000000000000000000008152600401610ec1929190918252602082015260400190565b600060055560608401511580159061338f5750600085115b15611c50576000613462306001600160a01b0316634fd49efd6040518163ffffffff1660e01b8152600401602060405180830381865afa1580156133d7573d6000803e3d6000fd5b505050506040513d601f19601f820116820180604052508101906133fb91906155f9565b6001600160a01b03166317fcb39b6040518163ffffffff1660e01b8152600401602060405180830381865afa158015613438573d6000803e3d6000fd5b505050506040513d601f19601f8201168201806040525081019061345c91906155f9565b88612914565b905060006134708483613e1f565b9050600061347e8289613eaa565b905086606001518111156134ce5760608701516040517f0297747f000000000000000000000000000000000000000000000000000000008152610ec1918391600401918252602082015260400190565b505050505050505050565b6040517f68f46c45a243a0e9065a97649faf9a5afe1692f2679e650c2f853b9cd734cc0e90600090a15050565b600054610100900460ff166135715760405162461bcd60e51b815260206004820152602b60248201527f496e697469616c697a61626c653a20636f6e7472616374206973206e6f74206960448201526a6e697469616c697a696e6760a81b6064820152608401610ec1565b6135df81600001516001600160a01b031663d09edf316040518163ffffffff1660e01b8152600401602060405180830381865afa1580156135b6573d6000803e3d6000fd5b505050506040513d601f19601f820116820180604052508101906135da91906155f9565b613f73565b610b2181613fe7565b600054610100900460ff166136535760405162461bcd60e51b815260206004820152602b60248201527f496e697469616c697a61626c653a20636f6e7472616374206973206e6f74206960448201526a6e697469616c697a696e6760a81b6064820152608401610ec1565b61365b61409f565b565b600054610100900460ff166136c85760405162461bcd60e51b815260206004820152602b60248201527f496e697469616c697a61626c653a20636f6e7472616374206973206e6f74206960448201526a6e697469616c697a696e6760a81b6064820152608401610ec1565b610b218161410a565b600054610100900460ff1661373c5760405162461bcd60e51b815260206004820152602b60248201527f496e697469616c697a61626c653a20636f6e7472616374206973206e6f74206960448201526a6e697469616c697a696e6760a81b6064820152608401610ec1565b610b2181614191565b600054610100900460ff166137b05760405162461bcd60e51b815260206004820152602b60248201527f496e697469616c697a61626c653a20636f6e7472616374206973206e6f74206960448201526a6e697469616c697a696e6760a81b6064820152608401610ec1565b610b2181614218565b600054610100900460ff166138245760405162461bcd60e51b815260206004820152602b60248201527f496e697469616c697a61626c653a20636f6e7472616374206973206e6f74206960448201526a6e697469616c697a696e6760a81b6064820152608401610ec1565b610b21816142d8565b600054610100900460ff166138985760405162461bcd60e51b815260206004820152602b60248201527f496e697469616c697a61626c653a20636f6e7472616374206973206e6f74206960448201526a6e697469616c697a696e6760a81b6064820152608401610ec1565b610b21816143c8565b600054610100900460ff16610b215760405162461bcd60e51b815260206004820152602b60248201527f496e697469616c697a61626c653a20636f6e7472616374206973206e6f74206960448201526a6e697469616c697a696e6760a81b6064820152608401610ec1565b6000613919600483615616565b15801561392f575061392c606483615616565b15155b80610e13575061394161019083615616565b1592915050565b600080600160009054906101000a90046001600160a01b03166001600160a01b0316632630c12f6040518163ffffffff1660e01b8152600401602060405180830381865afa15801561399e573d6000803e3d6000fd5b505050506040513d601f19601f820116820180604052508101906139c291906155f9565b90506001600160a01b038116613a13576001546040517f38d2baae0000000000000000000000000000000000000000000000000000000081526001600160a01b039091166004820152602401610ec1565b6000613a1d6144b8565b90508051600014613aae57816001600160a01b031663355efdd9613a4087614538565b613a4987614538565b846040518463ffffffff1660e01b8152600401613a689392919061562a565b602060405180830381865afa158015613a85573d6000803e3d6000fd5b505050506040513d601f19601f82011682018060405250810190613aa9919061532b565b613b56565b816001600160a01b031663ac41865a613ac687614538565b613acf87614538565b6040517fffffffff0000000000000000000000000000000000000000000000000000000060e085901b1681526001600160a01b03928316600482015291166024820152604401602060405180830381865afa158015613b32573d6000803e3d6000fd5b505050506040513d601f19601f82011682018060405250810190613b56919061532b565b95945050505050565b60025415610949576001546002546040517feb056bbb00000000000000000000000000000000000000000000000000000000815260048101919091526001600160a01b03848116602483015260448201849052600060648301529091169063eb056bbb90608401600060405180830381600087803b158015613be057600080fd5b505af1158015611c50573d6000803e3d6000fd5b600080600080613c038661456c565b919450925090506000613c1686846155a4565b90506000613c25600c83615616565b90506000613c34600c84615590565b613c3e90876155a4565b905060006002600a5460ff166002811115613c5b57613c5b614c33565b14613c665784613c70565b613c708284612745565b9050613c7e8a83858461458b565b9a9950505050505050505050565b6000806000613c9a4261456c565b5091509150613b568583838761458b565b6000807f7fffffffffffffffffffffffffffffff5d576e7357a4501ddfe92f46681b20a0831115613ce25750600090506003613d8f565b8460ff16601b14158015613cfa57508460ff16601c14155b15613d0b5750600090506004613d8f565b6040805160008082526020820180845289905260ff881692820192909252606081018690526080810185905260019060a0016020604051602081039080840390855afa158015613d5f573d6000803e3d6000fd5b5050604051601f1901519150506001600160a01b038116613d8857600060019250925050613d8f565b9150600090505b94509492505050565b6000807f7fffffffffffffffffffffffffffffffffffffffffffffffffffffffffffffff831681613dce60ff86901c601b6155a4565b9050613ddc87828885613cab565b935093505050935093915050565b600c8190556040518181527ff90744bee56935ec5acc9de37b89c0c545298c667ee417bd9469e9c6836ad064906020016117b8565b60008282028315801590613e42575082848281613e3e57613e3e615561565b0414155b15613e83576040517fe8e4a4fa0000000000000000000000000000000000000000000000000000000081526004810185905260248101849052604401610ec1565b8015613ea057670de0b6b3a7640000600019820104600101612166565b6000949350505050565b600081600003613ee6576040517fb8a2f92100000000000000000000000000000000000000000000000000000000815260040160405180910390fd5b82600003613ef657506000610e13565b670de0b6b3a764000083810290848281613f1257613f12615561565b0414613f54576040517fea7b49e60000000000000000000000000000000000000000000000000000000081526004810185905260248101829052604401610ec1565b826001820381613f6657613f66615561565b0460010191505092915050565b600054610100900460ff16613fde5760405162461bcd60e51b815260206004820152602b60248201527f496e697469616c697a61626c653a20636f6e7472616374206973206e6f74206960448201526a6e697469616c697a696e6760a81b6064820152608401610ec1565b610b21816145b3565b600054610100900460ff166140525760405162461bcd60e51b815260206004820152602b60248201527f496e697469616c697a61626c653a20636f6e7472616374206973206e6f74206960448201526a6e697469616c697a696e6760a81b6064820152608401610ec1565b8051600180547fffffffffffffffffffffffff0000000000000000000000000000000000000000166001600160a01b0390921691909117905560208101516040820151610b219190611df9565b600054610100900460ff1661365b5760405162461bcd60e51b815260206004820152602b60248201527f496e697469616c697a61626c653a20636f6e7472616374206973206e6f74206960448201526a6e697469616c697a696e6760a81b6064820152608401610ec1565b600054610100900460ff166141755760405162461bcd60e51b815260206004820152602b60248201527f496e697469616c697a61626c653a20636f6e7472616374206973206e6f74206960448201526a6e697469616c697a696e6760a81b6064820152608401610ec1565b610b218160000151826020015183604001518460600151612035565b600054610100900460ff166141fc5760405162461bcd60e51b815260206004820152602b60248201527f496e697469616c697a61626c653a20636f6e7472616374206973206e6f74206960448201526a6e697469616c697a696e6760a81b6064820152608401610ec1565b610b2181600001518260200151836040015184606001516111b6565b600054610100900460ff166142835760405162461bcd60e51b815260206004820152602b60248201527f496e697469616c697a61626c653a20636f6e7472616374206973206e6f74206960448201526a6e697469616c697a696e6760a81b6064820152608401610ec1565b805161428e90611766565b60005b816020015151811015610949576142c6826020015182815181106142b7576142b7615260565b60200260200101516001611553565b806142d0816152be565b915050614291565b600054610100900460ff166143435760405162461bcd60e51b815260206004820152602b60248201527f496e697469616c697a61626c653a20636f6e7472616374206973206e6f74206960448201526a6e697469616c697a696e6760a81b6064820152608401610ec1565b805180516020820151604083015161435c929190611fa5565b60005b8260200151518110156108a85760008360200151828151811061438457614384615260565b602002602001015190506000816020015190506143b38260000151826000015183602001518460400151611666565b505080806143c0906152be565b91505061435f565b600054610100900460ff166144335760405162461bcd60e51b815260206004820152602b60248201527f496e697469616c697a61626c653a20636f6e7472616374206973206e6f74206960448201526a6e697469616c697a696e6760a81b6064820152608401610ec1565b805180516020820151604083015161444c929190611ed0565b60005b8260200151518110156108a85760008360200151828151811061447457614474615260565b602002602001015190506000816020015190506144a382600001518260000151836020015184604001516117c3565b505080806144b0906152be565b91505061444f565b606060006144c461465e565b9050368111156144e257505060408051600081526020810190915290565b8067ffffffffffffffff8111156144fb576144fb614934565b6040519080825280601f01601f191660200182016040528015614525576020820181803683370190505b5091508060208236030360208401375090565b600073eeeeeeeeeeeeeeeeeeeeeeeeeeeeeeeeeeeeeeee6001600160a01b038316146145645781610e13565b610e13614679565b6000808061457e62015180850461268b565b9196909550909350915050565b6000613b5684848461459c89614705565b6145a58a614723565b6145ae8b61473f565b61474c565b600054610100900460ff1661461e5760405162461bcd60e51b815260206004820152602b60248201527f496e697469616c697a61626c653a20636f6e7472616374206973206e6f74206960448201526a6e697469616c697a696e6760a81b6064820152608401610ec1565b600080546001600160a01b0390921662010000027fffffffffffffffffffff0000000000000000000000000000000000000000ffff909216919091179055565b6000602436101561466f5750600090565b50601f1936013590565b600154604080517f17fcb39b00000000000000000000000000000000000000000000000000000000815290516000926001600160a01b0316916317fcb39b9160048083019260209291908290030181865afa1580156146dc573d6000803e3d6000fd5b505050506040513d601f19601f8201168201806040525081019061470091906155f9565b905090565b6000806147156201518084615616565b90506110bd610e1082615590565b600080614732610e1084615616565b90506110bd603c82615590565b6000610e13603c83615616565b60008161475a603c856153c9565b614766610e10876153c9565b620151806147758b8b8b6147a8565b61477f91906153c9565b61478991906155a4565b61479391906155a4565b61479d91906155a4565b979650505050505050565b60006107b28410156147b957600080fd5b838383600062253d8c60046064600c6147d3600e88615656565b6147dd9190615676565b6147e9886113246156c0565b6147f391906156c0565b6147fd9190615676565b6148089060036156e8565b6148129190615676565b600c80614820600e88615656565b61482a9190615676565b61483590600c6156e8565b614840600288615656565b61484a9190615656565b6148569061016f6156e8565b6148609190615676565b6004600c61486f600e89615656565b6148799190615676565b614885896112c06156c0565b61488f91906156c0565b61489b906105b56156e8565b6148a59190615676565b6148b1617d4b87615656565b6148bb91906156c0565b6148c591906156c0565b6148cf9190615656565b6148d99190615656565b98975050505050505050565b803560ff811681146148f657600080fd5b919050565b6000806000806080858703121561491157600080fd5b61491a856148e5565b966020860135965060408601359560600135945092505050565b7f4e487b7100000000000000000000000000000000000000000000000000000000600052604160045260246000fd5b6040516080810167ffffffffffffffff8111828210171561498657614986614934565b60405290565b6040805190810167ffffffffffffffff8111828210171561498657614986614934565b60405160c0810167ffffffffffffffff8111828210171561498657614986614934565b604051601f8201601f1916810167ffffffffffffffff811182821017156149fb576149fb614934565b604052919050565b600067ffffffffffffffff821115614a1d57614a1d614934565b5060051b60200190565b6001600160a01b0381168114610b2157600080fd5b80356148f681614a27565b600082601f830112614a5857600080fd5b81356020614a6d614a6883614a03565b6149d2565b82815260059290921b84018101918181019086841115614a8c57600080fd5b8286015b84811015614ab0578035614aa381614a27565b8352918301918301614a90565b509695505050505050565b8015158114610b2157600080fd5b60008060408385031215614adc57600080fd5b823567ffffffffffffffff80821115614af457600080fd5b614b0086838701614a47565b9350602091508185013581811115614b1757600080fd5b85019050601f81018613614b2a57600080fd5b8035614b38614a6882614a03565b81815260059190911b82018301908381019088831115614b5757600080fd5b928401925b82841015614b7e578335614b6f81614abb565b82529284019290840190614b5c565b80955050505050509250929050565b600060208284031215614b9f57600080fd5b81356110bd81614a27565b60008060008060808587031215614bc057600080fd5b8435614bcb81614a27565b93506020850135614bdb81614a27565b93969395505050506040820135916060013590565b600060208284031215614c0257600080fd5b5035919050565b8035600281106148f657600080fd5b600060208284031215614c2a57600080fd5b6110bd82614c09565b7f4e487b7100000000000000000000000000000000000000000000000000000000600052602160045260246000fd5b6020810160028310614c9d577f4e487b7100000000000000000000000000000000000000000000000000000000600052602160045260246000fd5b91905290565b6000815180845260005b81811015614cc957602081850181015186830182015201614cad565b506000602082860101526020601f19601f83011685010191505092915050565b6020815260006110bd6020830184614ca3565b600067ffffffffffffffff831115614d1657614d16614934565b614d296020601f19601f860116016149d2565b9050828152838383011115614d3d57600080fd5b828260208301376000602084830101529392505050565b600082601f830112614d6557600080fd5b6110bd83833560208501614cfc565b600060208284031215614d8657600080fd5b813567ffffffffffffffff811115614d9d57600080fd5b61216684828501614d54565b60008060008060808587031215614dbf57600080fd5b8435614dca81614a27565b9350602085013592506040850135614de181614a27565b9150606085013567ffffffffffffffff811115614dfd57600080fd5b8501601f81018713614e0e57600080fd5b614e1d87823560208401614cfc565b91505092959194509250565b60008060408385031215614e3c57600080fd5b50508035926020909101359150565b600080600060608486031215614e6057600080fd5b8335614e6b81614a27565b95602085013595506040909401359392505050565b600080600060608486031215614e9557600080fd5b8335614ea081614a27565b9250602084013591506040840135614eb781614a27565b809150509250925092565b600060608284031215614ed457600080fd5b6040516060810181811067ffffffffffffffff82111715614ef757614ef7614934565b6040529050808235614f0881614a27565b8082525060208301356020820152604083013560408201525092915050565b600060808284031215614f3957600080fd5b614f41614963565b90508135815260208201356020820152604082013560408201526060820135606082015292915050565b600060808284031215614f7d57600080fd5b614f85614963565b9050614f90826148e5565b815260208201356020820152604082013560408201526060820135606082015292915050565b600060408284031215614fc857600080fd5b614fd061498c565b9050614fdb82614c09565b8152602082013567ffffffffffffffff811115614ff757600080fd5b61500384828501614a47565b60208301525092915050565b60006080828403121561502157600080fd5b61502961498c565b9050813561503681614a27565b81526150458360208401614ec2565b602082015292915050565b6000608080838503121561506357600080fd5b61506b61498c565b91506150778484614ec2565b8252606083013567ffffffffffffffff81111561509357600080fd5b8301601f810185136150a457600080fd5b803560206150b4614a6883614a03565b82815260079290921b830181019181810190888411156150d357600080fd5b938201935b838510156150f9576150ea898661500f565b825293850193908201906150d8565b808388015250505050505092915050565b60008060006060848603121561511f57600080fd5b833567ffffffffffffffff8082111561513757600080fd5b908501906101c0828803121561514c57600080fd5b6151546149af565b61515e8884614ec2565b815261516d8860608501614f27565b602082015261517f8860e08501614f6b565b60408201526101608301358281111561519757600080fd5b6151a389828601614fb6565b606083015250610180830135828111156151bc57600080fd5b6151c889828601615050565b6080830152506101a0830135828111156151e157600080fd5b6151ed89828601615050565b60a083015250945061520160208701614a3c565b9350604086013591508082111561521757600080fd5b5061522486828701614d54565b9150509250925092565b6000806000806080858703121561524457600080fd5b5050823594602084013594506040840135936060013592509050565b7f4e487b7100000000000000000000000000000000000000000000000000000000600052603260045260246000fd5b7f4e487b7100000000000000000000000000000000000000000000000000000000600052601160045260246000fd5b600060001982036152d1576152d161528f565b5060010190565b600181811c908216806152ec57607f821691505b602082108103615325577f4e487b7100000000000000000000000000000000000000000000000000000000600052602260045260246000fd5b50919050565b60006020828403121561533d57600080fd5b5051919050565b600081518084526020808501945080840160005b8381101561537457815187529582019590820190600101615358565b509495945050505050565b6001600160a01b03841681527fffffffff0000000000000000000000000000000000000000000000000000000083166020820152606060408201526000613b566060830184615344565b8082028115828204841417610e1357610e1361528f565b601f8211156108a857600081815260208120601f850160051c810160208610156154075750805b601f850160051c820191505b81811015611c5057828155600101615413565b815167ffffffffffffffff81111561544057615440614934565b6154548161544e84546152d8565b846153e0565b602080601f83116001811461548957600084156154715750858301515b600019600386901b1c1916600185901b178555611c50565b600085815260208120601f198616915b828110156154b857888601518255948401946001909101908401615499565b50858210156154d65787850151600019600388901b60f8161c191681555b5050505050600190811b01905550565b60006001600160a01b0380871683528086166020840152507fffffffff00000000000000000000000000000000000000000000000000000000841660408301526080606083015261553a6080830184615344565b9695505050505050565b60006020828403121561555657600080fd5b81516110bd81614abb565b7f4e487b7100000000000000000000000000000000000000000000000000000000600052601260045260246000fd5b60008261559f5761559f615561565b500490565b80820180821115610e1357610e1361528f565b81810381811115610e1357610e1361528f565b7f4e487b7100000000000000000000000000000000000000000000000000000000600052603160045260246000fd5b60006020828403121561560b57600080fd5b81516110bd81614a27565b60008261562557615625615561565b500690565b60006001600160a01b03808616835280851660208401525060606040830152613b566060830184614ca3565b81810360008312801583831316838312821617156128be576128be61528f565b60008261568557615685615561565b60001983147f8000000000000000000000000000000000000000000000000000000000000000831416156156bb576156bb61528f565b500590565b80820182811260008312801582168215821617156156e0576156e061528f565b505092915050565b808202600082127f8000000000000000000000000000000000000000000000000000000000000000841416156157205761572061528f565b8181058314821517610e1357610e1361528f56fea2646970667358221220322d108d21e1461a5e829262427b4a95fedd77628ef06219ca1d8cfbc7aa018564736f6c63430008110033","opcodes":"PUSH1 0x80 PUSH1 0x40 MSTORE CALLVALUE DUP1 ISZERO PUSH3 0x11 JUMPI PUSH1 0x0 DUP1 REVERT JUMPDEST POP PUSH3 0x1C PUSH3 0x22 JUMP JUMPDEST PUSH3 0xE4 JUMP JUMPDEST PUSH1 0x0 SLOAD PUSH2 0x100 SWAP1 DIV PUSH1 0xFF AND ISZERO PUSH3 0x8F JUMPI PUSH1 0x40 MLOAD PUSH3 0x461BCD PUSH1 0xE5 SHL DUP2 MSTORE PUSH1 0x20 PUSH1 0x4 DUP3 ADD MSTORE PUSH1 0x27 PUSH1 0x24 DUP3 ADD MSTORE PUSH32 0x496E697469616C697A61626C653A20636F6E747261637420697320696E697469 PUSH1 0x44 DUP3 ADD MSTORE PUSH7 0x616C697A696E67 PUSH1 0xC8 SHL PUSH1 0x64 DUP3 ADD MSTORE PUSH1 0x84 ADD PUSH1 0x40 MLOAD DUP1 SWAP2 SUB SWAP1 REVERT JUMPDEST PUSH1 0x0 SLOAD PUSH1 0xFF SWAP1 DUP2 AND LT ISZERO PUSH3 0xE2 JUMPI PUSH1 0x0 DUP1 SLOAD PUSH1 0xFF NOT AND PUSH1 0xFF SWAP1 DUP2 OR SWAP1 SWAP2 SSTORE PUSH1 0x40 MLOAD SWAP1 DUP2 MSTORE PUSH32 0x7F26B83FF96E1F2B6A682F133852F6798A09C465DA95921460CEFB3847402498 SWAP1 PUSH1 0x20 ADD PUSH1 0x40 MLOAD DUP1 SWAP2 SUB SWAP1 LOG1 JUMPDEST JUMP JUMPDEST PUSH2 0x576A DUP1 PUSH3 0xF4 PUSH1 0x0 CODECOPY PUSH1 0x0 RETURN INVALID PUSH1 0x80 PUSH1 0x40 MSTORE CALLVALUE DUP1 ISZERO PUSH2 0x10 JUMPI PUSH1 0x0 DUP1 REVERT JUMPDEST POP PUSH1 0x4 CALLDATASIZE LT PUSH2 0x25C JUMPI PUSH1 0x0 CALLDATALOAD PUSH1 0xE0 SHR DUP1 PUSH4 0x62F57B60 GT PUSH2 0x145 JUMPI DUP1 PUSH4 0xA7DAAD60 GT PUSH2 0xBD JUMPI DUP1 PUSH4 0xD09EDF31 GT PUSH2 0x8C JUMPI DUP1 PUSH4 0xD45A76CF GT PUSH2 0x71 JUMPI DUP1 PUSH4 0xD45A76CF EQ PUSH2 0x724 JUMPI DUP1 PUSH4 0xE6B5BE98 EQ PUSH2 0x737 JUMPI DUP1 PUSH4 0xF9EAEE0D EQ PUSH2 0x74A JUMPI PUSH1 0x0 DUP1 REVERT JUMPDEST DUP1 PUSH4 0xD09EDF31 EQ PUSH2 0x6F8 JUMPI DUP1 PUSH4 0xD3FEB602 EQ PUSH2 0x711 JUMPI PUSH1 0x0 DUP1 REVERT JUMPDEST DUP1 PUSH4 0xA7DAAD60 EQ PUSH2 0x646 JUMPI DUP1 PUSH4 0xA808644E EQ PUSH2 0x6C7 JUMPI DUP1 PUSH4 0xB187BD26 EQ PUSH2 0x6DA JUMPI DUP1 PUSH4 0xC267621E EQ PUSH2 0x6E7 JUMPI PUSH1 0x0 DUP1 REVERT JUMPDEST DUP1 PUSH4 0x8456CB59 GT PUSH2 0x114 JUMPI DUP1 PUSH4 0xA0C3774F GT PUSH2 0xF9 JUMPI DUP1 PUSH4 0xA0C3774F EQ PUSH2 0x5A6 JUMPI DUP1 PUSH4 0xA3374177 EQ PUSH2 0x5B9 JUMPI DUP1 PUSH4 0xA5900C4D EQ PUSH2 0x5EC JUMPI PUSH1 0x0 DUP1 REVERT JUMPDEST DUP1 PUSH4 0x8456CB59 EQ PUSH2 0x58B JUMPI DUP1 PUSH4 0x90333BA8 EQ PUSH2 0x593 JUMPI PUSH1 0x0 DUP1 REVERT JUMPDEST DUP1 PUSH4 0x62F57B60 EQ PUSH2 0x506 JUMPI DUP1 PUSH4 0x6AACAAD8 EQ PUSH2 0x519 JUMPI DUP1 PUSH4 0x6C19E783 EQ PUSH2 0x565 JUMPI DUP1 PUSH4 0x7125590A EQ PUSH2 0x578 JUMPI PUSH1 0x0 DUP1 REVERT JUMPDEST DUP1 PUSH4 0x423A4B40 GT PUSH2 0x1D8 JUMPI DUP1 PUSH4 0x4FD49EFD GT PUSH2 0x1A7 JUMPI DUP1 PUSH4 0x53F98376 GT PUSH2 0x18C JUMPI DUP1 PUSH4 0x53F98376 EQ PUSH2 0x4AC JUMPI DUP1 PUSH4 0x5670E2CE EQ PUSH2 0x4BF JUMPI DUP1 PUSH4 0x5EA54EEE EQ PUSH2 0x4DA JUMPI PUSH1 0x0 DUP1 REVERT JUMPDEST DUP1 PUSH4 0x4FD49EFD EQ PUSH2 0x461 JUMPI DUP1 PUSH4 0x51A424B1 EQ PUSH2 0x474 JUMPI PUSH1 0x0 DUP1 REVERT JUMPDEST DUP1 PUSH4 0x423A4B40 EQ PUSH2 0x3EA JUMPI DUP1 PUSH4 0x42D4693E EQ PUSH2 0x3FD JUMPI DUP1 PUSH4 0x4A3E903E EQ PUSH2 0x417 JUMPI DUP1 PUSH4 0x4A45A3A8 EQ PUSH2 0x42C JUMPI PUSH1 0x0 DUP1 REVERT JUMPDEST DUP1 PUSH4 0x2384C32D GT PUSH2 0x22F JUMPI DUP1 PUSH4 0x2A682D3B GT PUSH2 0x214 JUMPI DUP1 PUSH4 0x2A682D3B EQ PUSH2 0x39C JUMPI DUP1 PUSH4 0x30EAE572 EQ PUSH2 0x3CF JUMPI DUP1 PUSH4 0x3F4BA83A EQ PUSH2 0x3E2 JUMPI PUSH1 0x0 DUP1 REVERT JUMPDEST DUP1 PUSH4 0x2384C32D EQ PUSH2 0x35E JUMPI DUP1 PUSH4 0x238AC933 EQ PUSH2 0x371 JUMPI PUSH1 0x0 DUP1 REVERT JUMPDEST DUP1 PUSH4 0xFE105E8 EQ PUSH2 0x261 JUMPI DUP1 PUSH4 0x119A5E96 EQ PUSH2 0x276 JUMPI DUP1 PUSH4 0x21972384 EQ PUSH2 0x2A7 JUMPI DUP1 PUSH4 0x221A8C68 EQ PUSH2 0x2BA JUMPI JUMPDEST PUSH1 0x0 DUP1 REVERT JUMPDEST PUSH2 0x274 PUSH2 0x26F CALLDATASIZE PUSH1 0x4 PUSH2 0x48FB JUMP JUMPDEST PUSH2 0x75D JUMP JUMPDEST STOP JUMPDEST PUSH2 0x27E PUSH2 0x7AE JUMP JUMPDEST PUSH1 0x40 DUP1 MLOAD PUSH1 0xFF SWAP1 SWAP6 AND DUP6 MSTORE PUSH1 0x20 DUP6 ADD SWAP4 SWAP1 SWAP4 MSTORE SWAP2 DUP4 ADD MSTORE PUSH1 0x60 DUP3 ADD MSTORE PUSH1 0x80 ADD JUMPDEST PUSH1 0x40 MLOAD DUP1 SWAP2 SUB SWAP1 RETURN JUMPDEST PUSH2 0x274 PUSH2 0x2B5 CALLDATASIZE PUSH1 0x4 PUSH2 0x4AC9 JUMP JUMPDEST PUSH2 0x7E5 JUMP JUMPDEST PUSH2 0x32C PUSH2 0x2C8 CALLDATASIZE PUSH1 0x4 PUSH2 0x4B8D JUMP JUMPDEST PUSH1 0x1 PUSH1 0x1 PUSH1 0xA0 SHL SUB SWAP1 DUP2 AND PUSH1 0x0 SWAP1 DUP2 MSTORE PUSH1 0x1B PUSH1 0x20 SWAP1 DUP2 MSTORE PUSH1 0x40 SWAP2 DUP3 SWAP1 KECCAK256 DUP3 MLOAD PUSH1 0xA0 DUP2 ADD DUP5 MSTORE DUP2 SLOAD SWAP1 SWAP5 AND DUP1 DUP6 MSTORE PUSH1 0x1 DUP3 ADD SLOAD SWAP3 DUP6 ADD DUP4 SWAP1 MSTORE PUSH1 0x2 DUP3 ADD SLOAD SWAP4 DUP6 ADD DUP5 SWAP1 MSTORE PUSH1 0x3 DUP3 ADD SLOAD PUSH1 0x60 DUP7 ADD DUP2 SWAP1 MSTORE PUSH1 0x4 SWAP1 SWAP3 ADD SLOAD PUSH1 0x80 SWAP1 SWAP6 ADD DUP6 SWAP1 MSTORE SWAP5 SWAP2 SWAP4 SWAP1 SWAP2 JUMP JUMPDEST PUSH1 0x40 DUP1 MLOAD PUSH1 0x1 PUSH1 0x1 PUSH1 0xA0 SHL SUB SWAP1 SWAP7 AND DUP7 MSTORE PUSH1 0x20 DUP7 ADD SWAP5 SWAP1 SWAP5 MSTORE SWAP3 DUP5 ADD SWAP2 SWAP1 SWAP2 MSTORE PUSH1 0x60 DUP4 ADD MSTORE PUSH1 0x80 DUP3 ADD MSTORE PUSH1 0xA0 ADD PUSH2 0x29E JUMP JUMPDEST PUSH2 0x274 PUSH2 0x36C CALLDATASIZE PUSH1 0x4 PUSH2 0x4BAA JUMP JUMPDEST PUSH2 0x8AD JUMP JUMPDEST PUSH1 0x1C SLOAD PUSH2 0x384 SWAP1 PUSH1 0x1 PUSH1 0x1 PUSH1 0xA0 SHL SUB AND DUP2 JUMP JUMPDEST PUSH1 0x40 MLOAD PUSH1 0x1 PUSH1 0x1 PUSH1 0xA0 SHL SUB SWAP1 SWAP2 AND DUP2 MSTORE PUSH1 0x20 ADD PUSH2 0x29E JUMP JUMPDEST PUSH2 0x3BF PUSH2 0x3AA CALLDATASIZE PUSH1 0x4 PUSH2 0x4BF0 JUMP JUMPDEST PUSH1 0x1E PUSH1 0x20 MSTORE PUSH1 0x0 SWAP1 DUP2 MSTORE PUSH1 0x40 SWAP1 KECCAK256 SLOAD PUSH1 0xFF AND DUP2 JUMP JUMPDEST PUSH1 0x40 MLOAD SWAP1 ISZERO ISZERO DUP2 MSTORE PUSH1 0x20 ADD PUSH2 0x29E JUMP JUMPDEST PUSH2 0x274 PUSH2 0x3DD CALLDATASIZE PUSH1 0x4 PUSH2 0x4C18 JUMP JUMPDEST PUSH2 0x8F4 JUMP JUMPDEST PUSH2 0x274 PUSH2 0x94D JUMP JUMPDEST PUSH2 0x274 PUSH2 0x3F8 CALLDATASIZE PUSH1 0x4 PUSH2 0x4BAA JUMP JUMPDEST PUSH2 0x9EC JUMP JUMPDEST PUSH1 0xF SLOAD PUSH2 0x40A SWAP1 PUSH1 0xFF AND DUP2 JUMP JUMPDEST PUSH1 0x40 MLOAD PUSH2 0x29E SWAP2 SWAP1 PUSH2 0x4C62 JUMP JUMPDEST PUSH2 0x41F PUSH2 0xA33 JUMP JUMPDEST PUSH1 0x40 MLOAD PUSH2 0x29E SWAP2 SWAP1 PUSH2 0x4CE9 JUMP JUMPDEST PUSH2 0x453 PUSH32 0x6F48FEA04FA9F5A5EF2C321133CF2A12D8FC3AD8DFEF312FE81F896355AF4D94 DUP2 JUMP JUMPDEST PUSH1 0x40 MLOAD SWAP1 DUP2 MSTORE PUSH1 0x20 ADD PUSH2 0x29E JUMP JUMPDEST PUSH1 0x1 SLOAD PUSH2 0x384 SWAP1 PUSH1 0x1 PUSH1 0x1 PUSH1 0xA0 SHL SUB AND DUP2 JUMP JUMPDEST PUSH2 0x487 PUSH2 0x482 CALLDATASIZE PUSH1 0x4 PUSH2 0x4B8D JUMP JUMPDEST PUSH2 0xAC1 JUMP JUMPDEST PUSH1 0x40 DUP1 MLOAD PUSH1 0x1 PUSH1 0x1 PUSH1 0xA0 SHL SUB SWAP1 SWAP5 AND DUP5 MSTORE PUSH1 0x20 DUP5 ADD SWAP3 SWAP1 SWAP3 MSTORE SWAP1 DUP3 ADD MSTORE PUSH1 0x60 ADD PUSH2 0x29E JUMP JUMPDEST PUSH2 0x274 PUSH2 0x4BA CALLDATASIZE PUSH1 0x4 PUSH2 0x4D74 JUMP JUMPDEST PUSH2 0xAEA JUMP JUMPDEST PUSH1 0x2 SLOAD PUSH1 0x3 SLOAD PUSH1 0x40 DUP1 MLOAD SWAP3 DUP4 MSTORE PUSH1 0x20 DUP4 ADD SWAP2 SWAP1 SWAP2 MSTORE ADD PUSH2 0x29E JUMP JUMPDEST PUSH1 0x6 SLOAD PUSH1 0x7 SLOAD PUSH1 0x8 SLOAD PUSH1 0x9 SLOAD PUSH1 0x40 DUP1 MLOAD SWAP5 DUP6 MSTORE PUSH1 0x20 DUP6 ADD SWAP4 SWAP1 SWAP4 MSTORE SWAP2 DUP4 ADD MSTORE PUSH1 0x60 DUP3 ADD MSTORE PUSH1 0x80 ADD PUSH2 0x29E JUMP JUMPDEST PUSH2 0x274 PUSH2 0x514 CALLDATASIZE PUSH1 0x4 PUSH2 0x4DA9 JUMP JUMPDEST PUSH2 0xB24 JUMP JUMPDEST PUSH2 0x32C PUSH1 0x40 DUP1 MLOAD PUSH1 0xA0 DUP2 ADD DUP3 MSTORE PUSH1 0x16 SLOAD PUSH1 0x1 PUSH1 0x1 PUSH1 0xA0 SHL SUB AND DUP1 DUP3 MSTORE PUSH1 0x17 SLOAD PUSH1 0x20 DUP4 ADD DUP2 SWAP1 MSTORE PUSH1 0x18 SLOAD SWAP4 DUP4 ADD DUP5 SWAP1 MSTORE PUSH1 0x19 SLOAD PUSH1 0x60 DUP5 ADD DUP2 SWAP1 MSTORE PUSH1 0x1A SLOAD PUSH1 0x80 SWAP1 SWAP5 ADD DUP5 SWAP1 MSTORE SWAP2 SWAP5 SWAP1 SWAP4 SWAP3 SWAP1 JUMP JUMPDEST PUSH2 0x274 PUSH2 0x573 CALLDATASIZE PUSH1 0x4 PUSH2 0x4B8D JUMP JUMPDEST PUSH2 0xC10 JUMP JUMPDEST PUSH2 0x274 PUSH2 0x586 CALLDATASIZE PUSH1 0x4 PUSH2 0x4E29 JUMP JUMPDEST PUSH2 0xC51 JUMP JUMPDEST PUSH2 0x274 PUSH2 0xC94 JUMP JUMPDEST PUSH2 0x274 PUSH2 0x5A1 CALLDATASIZE PUSH1 0x4 PUSH2 0x4E4B JUMP JUMPDEST PUSH2 0xD37 JUMP JUMPDEST PUSH2 0x453 PUSH2 0x5B4 CALLDATASIZE PUSH1 0x4 PUSH2 0x4B8D JUMP JUMPDEST PUSH2 0xD82 JUMP JUMPDEST PUSH2 0x487 PUSH1 0x40 DUP1 MLOAD PUSH1 0x60 DUP2 ADD DUP3 MSTORE PUSH1 0x12 SLOAD PUSH1 0x1 PUSH1 0x1 PUSH1 0xA0 SHL SUB AND DUP1 DUP3 MSTORE PUSH1 0x13 SLOAD PUSH1 0x20 DUP4 ADD DUP2 SWAP1 MSTORE PUSH1 0x14 SLOAD SWAP3 SWAP1 SWAP4 ADD DUP3 SWAP1 MSTORE SWAP3 JUMP JUMPDEST PUSH2 0x487 PUSH2 0x5FA CALLDATASIZE PUSH1 0x4 PUSH2 0x4B8D JUMP JUMPDEST PUSH1 0x1 PUSH1 0x1 PUSH1 0xA0 SHL SUB DUP1 DUP3 AND PUSH1 0x0 SWAP1 DUP2 MSTORE PUSH1 0x15 PUSH1 0x20 SWAP1 DUP2 MSTORE PUSH1 0x40 SWAP2 DUP3 SWAP1 KECCAK256 DUP3 MLOAD PUSH1 0x60 DUP2 ADD DUP5 MSTORE DUP2 SLOAD SWAP1 SWAP5 AND DUP1 DUP6 MSTORE PUSH1 0x1 DUP3 ADD SLOAD SWAP3 DUP6 ADD DUP4 SWAP1 MSTORE PUSH1 0x2 SWAP1 SWAP2 ADD SLOAD SWAP4 SWAP1 SWAP3 ADD DUP4 SWAP1 MSTORE SWAP1 SWAP4 SWAP1 SWAP3 POP JUMP JUMPDEST PUSH2 0x453 PUSH2 0x654 CALLDATASIZE PUSH1 0x4 PUSH2 0x4E80 JUMP JUMPDEST PUSH1 0x40 DUP1 MLOAD CHAINID PUSH1 0x20 DUP1 DUP4 ADD SWAP2 SWAP1 SWAP2 MSTORE PUSH32 0xFFFFFFFFFFFFFFFFFFFFFFFFFFFFFFFFFFFFFFFF000000000000000000000000 ADDRESS PUSH1 0x60 SWAP1 DUP2 SHL DUP3 AND DUP5 DUP7 ADD MSTORE SWAP7 DUP8 SHL DUP2 AND PUSH1 0x54 DUP5 ADD MSTORE PUSH1 0x68 DUP4 ADD SWAP6 SWAP1 SWAP6 MSTORE SWAP3 SWAP1 SWAP5 SHL SWAP1 SWAP3 AND PUSH1 0x88 DUP5 ADD MSTORE DUP2 MLOAD DUP1 DUP5 SUB PUSH1 0x7C ADD DUP2 MSTORE PUSH1 0x9C SWAP1 SWAP4 ADD SWAP1 SWAP2 MSTORE DUP2 MLOAD SWAP2 ADD KECCAK256 SWAP1 JUMP JUMPDEST PUSH2 0x274 PUSH2 0x6D5 CALLDATASIZE PUSH1 0x4 PUSH2 0x510A JUMP JUMPDEST PUSH2 0xE19 JUMP JUMPDEST PUSH1 0x4 SLOAD PUSH2 0x3BF SWAP1 PUSH1 0xFF AND DUP2 JUMP JUMPDEST PUSH1 0x1 SLOAD PUSH1 0x1 PUSH1 0x1 PUSH1 0xA0 SHL SUB AND PUSH2 0x384 JUMP JUMPDEST PUSH1 0x0 SLOAD PUSH2 0x384 SWAP1 PUSH3 0x10000 SWAP1 DIV PUSH1 0x1 PUSH1 0x1 PUSH1 0xA0 SHL SUB AND DUP2 JUMP JUMPDEST PUSH2 0x274 PUSH2 0x71F CALLDATASIZE PUSH1 0x4 PUSH2 0x4E4B JUMP JUMPDEST PUSH2 0xF7E JUMP JUMPDEST PUSH2 0x32C PUSH2 0x732 CALLDATASIZE PUSH1 0x4 PUSH2 0x4B8D JUMP JUMPDEST PUSH2 0xFC3 JUMP JUMPDEST PUSH2 0x274 PUSH2 0x745 CALLDATASIZE PUSH1 0x4 PUSH2 0x522E JUMP JUMPDEST PUSH2 0x1032 JUMP JUMPDEST PUSH2 0x3BF PUSH2 0x758 CALLDATASIZE PUSH1 0x4 PUSH2 0x4B8D JUMP JUMPDEST PUSH2 0x1079 JUMP JUMPDEST PUSH2 0x76C DUP5 PUSH1 0xFF AND DUP5 DUP5 DUP5 PUSH2 0x10C4 JUMP JUMPDEST PUSH2 0x79B CALLER PUSH1 0x0 CALLDATALOAD PUSH32 0xFFFFFFFF00000000000000000000000000000000000000000000000000000000 AND DUP4 PUSH2 0x116F JUMP JUMPDEST PUSH2 0x7A7 DUP6 DUP6 DUP6 DUP6 PUSH2 0x11B6 JUMP JUMPDEST POP POP POP POP POP JUMP JUMPDEST PUSH1 0xA SLOAD PUSH1 0x0 SWAP1 DUP2 SWAP1 DUP2 SWAP1 DUP2 SWAP1 PUSH1 0xFF AND PUSH1 0x2 DUP2 GT ISZERO PUSH2 0x7CE JUMPI PUSH2 0x7CE PUSH2 0x4C33 JUMP JUMPDEST PUSH1 0xB SLOAD PUSH1 0xC SLOAD PUSH1 0xE SLOAD SWAP4 POP SWAP4 POP SWAP4 POP SWAP4 POP SWAP1 SWAP2 SWAP3 SWAP4 JUMP JUMPDEST PUSH2 0x813 CALLER PUSH1 0x0 CALLDATALOAD PUSH32 0xFFFFFFFF00000000000000000000000000000000000000000000000000000000 AND PUSH2 0x1537 JUMP JUMPDEST DUP1 MLOAD DUP3 MLOAD EQ PUSH2 0x84E JUMPI PUSH1 0x40 MLOAD PUSH32 0x5D32021A00000000000000000000000000000000000000000000000000000000 DUP2 MSTORE PUSH1 0x4 ADD PUSH1 0x40 MLOAD DUP1 SWAP2 SUB SWAP1 REVERT JUMPDEST PUSH1 0x0 JUMPDEST DUP3 MLOAD DUP2 LT ISZERO PUSH2 0x8A8 JUMPI PUSH2 0x896 DUP4 DUP3 DUP2 MLOAD DUP2 LT PUSH2 0x86F JUMPI PUSH2 0x86F PUSH2 0x5260 JUMP JUMPDEST PUSH1 0x20 MUL PUSH1 0x20 ADD ADD MLOAD DUP4 DUP4 DUP2 MLOAD DUP2 LT PUSH2 0x889 JUMPI PUSH2 0x889 PUSH2 0x5260 JUMP JUMPDEST PUSH1 0x20 MUL PUSH1 0x20 ADD ADD MLOAD PUSH2 0x1553 JUMP JUMPDEST DUP1 PUSH2 0x8A0 DUP2 PUSH2 0x52BE JUMP JUMPDEST SWAP2 POP POP PUSH2 0x851 JUMP JUMPDEST POP POP POP JUMP JUMPDEST PUSH2 0x8B9 DUP5 DUP5 DUP5 DUP5 PUSH2 0x15FD JUMP JUMPDEST PUSH2 0x8E8 CALLER PUSH1 0x0 CALLDATALOAD PUSH32 0xFFFFFFFF00000000000000000000000000000000000000000000000000000000 AND DUP4 PUSH2 0x116F JUMP JUMPDEST PUSH2 0x7A7 DUP6 DUP6 DUP6 DUP6 PUSH2 0x1666 JUMP JUMPDEST PUSH2 0x911 DUP2 PUSH1 0x1 DUP2 GT ISZERO PUSH2 0x909 JUMPI PUSH2 0x909 PUSH2 0x4C33 JUMP JUMPDEST PUSH1 0xFF AND PUSH2 0x171F JUMP JUMPDEST PUSH2 0x940 CALLER PUSH1 0x0 CALLDATALOAD PUSH32 0xFFFFFFFF00000000000000000000000000000000000000000000000000000000 AND DUP4 PUSH2 0x116F JUMP JUMPDEST PUSH2 0x949 DUP3 PUSH2 0x1766 JUMP JUMPDEST POP POP JUMP JUMPDEST PUSH2 0x97B CALLER PUSH1 0x0 CALLDATALOAD PUSH32 0xFFFFFFFF00000000000000000000000000000000000000000000000000000000 AND PUSH2 0x1537 JUMP JUMPDEST PUSH1 0x4 SLOAD PUSH1 0xFF AND PUSH2 0x9B7 JUMPI PUSH1 0x40 MLOAD PUSH32 0x9E6558BD00000000000000000000000000000000000000000000000000000000 DUP2 MSTORE PUSH1 0x4 ADD PUSH1 0x40 MLOAD DUP1 SWAP2 SUB SWAP1 REVERT JUMPDEST PUSH1 0x4 DUP1 SLOAD PUSH1 0xFF NOT AND SWAP1 SSTORE PUSH1 0x40 MLOAD PUSH32 0xA45F47FDEA8A1EFDD9029A5691C7F759C32B7C698632B563573E155625D16933 SWAP1 PUSH1 0x0 SWAP1 LOG1 JUMP JUMPDEST PUSH2 0x9F8 DUP5 DUP5 DUP5 DUP5 PUSH2 0x15FD JUMP JUMPDEST PUSH2 0xA27 CALLER PUSH1 0x0 CALLDATALOAD PUSH32 0xFFFFFFFF00000000000000000000000000000000000000000000000000000000 AND DUP4 PUSH2 0x116F JUMP JUMPDEST PUSH2 0x7A7 DUP6 DUP6 DUP6 DUP6 PUSH2 0x17C3 JUMP JUMPDEST PUSH1 0x1D DUP1 SLOAD PUSH2 0xA40 SWAP1 PUSH2 0x52D8 JUMP JUMPDEST DUP1 PUSH1 0x1F ADD PUSH1 0x20 DUP1 SWAP2 DIV MUL PUSH1 0x20 ADD PUSH1 0x40 MLOAD SWAP1 DUP2 ADD PUSH1 0x40 MSTORE DUP1 SWAP3 SWAP2 SWAP1 DUP2 DUP2 MSTORE PUSH1 0x20 ADD DUP3 DUP1 SLOAD PUSH2 0xA6C SWAP1 PUSH2 0x52D8 JUMP JUMPDEST DUP1 ISZERO PUSH2 0xAB9 JUMPI DUP1 PUSH1 0x1F LT PUSH2 0xA8E JUMPI PUSH2 0x100 DUP1 DUP4 SLOAD DIV MUL DUP4 MSTORE SWAP2 PUSH1 0x20 ADD SWAP2 PUSH2 0xAB9 JUMP JUMPDEST DUP3 ADD SWAP2 SWAP1 PUSH1 0x0 MSTORE PUSH1 0x20 PUSH1 0x0 KECCAK256 SWAP1 JUMPDEST DUP2 SLOAD DUP2 MSTORE SWAP1 PUSH1 0x1 ADD SWAP1 PUSH1 0x20 ADD DUP1 DUP4 GT PUSH2 0xA9C JUMPI DUP3 SWAP1 SUB PUSH1 0x1F AND DUP3 ADD SWAP2 JUMPDEST POP POP POP POP POP DUP2 JUMP JUMPDEST PUSH1 0x0 DUP1 PUSH1 0x0 DUP1 PUSH2 0xAD0 DUP6 PUSH2 0x1883 JUMP JUMPDEST DUP1 MLOAD PUSH1 0x20 DUP3 ADD MLOAD PUSH1 0x40 SWAP1 SWAP3 ADD MLOAD SWAP1 SWAP8 SWAP2 SWAP7 POP SWAP5 POP SWAP3 POP POP POP JUMP JUMPDEST PUSH2 0xB18 CALLER PUSH1 0x0 CALLDATALOAD PUSH32 0xFFFFFFFF00000000000000000000000000000000000000000000000000000000 AND PUSH2 0x1537 JUMP JUMPDEST PUSH2 0xB21 DUP2 PUSH2 0x190E JUMP JUMPDEST POP JUMP JUMPDEST PUSH2 0xB2E DUP5 DUP5 PUSH2 0x1985 JUMP JUMPDEST PUSH2 0xB5D CALLER PUSH1 0x0 CALLDATALOAD PUSH32 0xFFFFFFFF00000000000000000000000000000000000000000000000000000000 AND DUP4 PUSH2 0x116F JUMP JUMPDEST DUP4 PUSH1 0x0 SUB PUSH2 0xB71 JUMPI PUSH2 0xB6E DUP6 PUSH2 0xD82 JUMP JUMPDEST SWAP4 POP JUMPDEST PUSH2 0xB7D DUP6 DUP6 DUP6 DUP6 PUSH2 0x19F4 JUMP JUMPDEST PUSH1 0x1 SLOAD PUSH1 0x40 MLOAD PUSH32 0xD9CAED1200000000000000000000000000000000000000000000000000000000 DUP2 MSTORE PUSH1 0x1 PUSH1 0x1 PUSH1 0xA0 SHL SUB DUP8 DUP2 AND PUSH1 0x4 DUP4 ADD MSTORE DUP6 DUP2 AND PUSH1 0x24 DUP4 ADD MSTORE PUSH1 0x44 DUP3 ADD DUP8 SWAP1 MSTORE SWAP1 SWAP2 AND SWAP1 PUSH4 0xD9CAED12 SWAP1 PUSH1 0x64 ADD PUSH1 0x0 PUSH1 0x40 MLOAD DUP1 DUP4 SUB DUP2 PUSH1 0x0 DUP8 DUP1 EXTCODESIZE ISZERO DUP1 ISZERO PUSH2 0xBEC JUMPI PUSH1 0x0 DUP1 REVERT JUMPDEST POP GAS CALL ISZERO DUP1 ISZERO PUSH2 0xC00 JUMPI RETURNDATASIZE PUSH1 0x0 DUP1 RETURNDATACOPY RETURNDATASIZE PUSH1 0x0 REVERT JUMPDEST POP POP POP POP PUSH2 0x7A7 DUP6 DUP6 DUP6 DUP6 PUSH2 0x1C58 JUMP JUMPDEST PUSH2 0xC19 DUP2 PUSH2 0x1CE9 JUMP JUMPDEST PUSH2 0xC48 CALLER PUSH1 0x0 CALLDATALOAD PUSH32 0xFFFFFFFF00000000000000000000000000000000000000000000000000000000 AND DUP4 PUSH2 0x116F JUMP JUMPDEST PUSH2 0x949 DUP3 PUSH2 0x1CFD JUMP JUMPDEST PUSH2 0xC5B DUP3 DUP3 PUSH2 0x1D9F JUMP JUMPDEST PUSH2 0xC8A CALLER PUSH1 0x0 CALLDATALOAD PUSH32 0xFFFFFFFF00000000000000000000000000000000000000000000000000000000 AND DUP4 PUSH2 0x116F JUMP JUMPDEST PUSH2 0x8A8 DUP4 DUP4 PUSH2 0x1DF9 JUMP JUMPDEST PUSH2 0xCC2 CALLER PUSH1 0x0 CALLDATALOAD PUSH32 0xFFFFFFFF00000000000000000000000000000000000000000000000000000000 AND PUSH2 0x1537 JUMP JUMPDEST PUSH1 0x4 SLOAD PUSH1 0xFF AND ISZERO PUSH2 0xCFF JUMPI PUSH1 0x40 MLOAD PUSH32 0xC0F2312800000000000000000000000000000000000000000000000000000000 DUP2 MSTORE PUSH1 0x4 ADD PUSH1 0x40 MLOAD DUP1 SWAP2 SUB SWAP1 REVERT JUMPDEST PUSH1 0x4 DUP1 SLOAD PUSH1 0xFF NOT AND PUSH1 0x1 OR SWAP1 SSTORE PUSH1 0x40 MLOAD PUSH32 0x9E87FAC88FF661F02D44F95383C817FECE4BCE600A3DAB7A54406878B965E752 SWAP1 PUSH1 0x0 SWAP1 LOG1 JUMP JUMPDEST PUSH2 0xD42 DUP4 DUP4 DUP4 PUSH2 0x1E3E JUMP JUMPDEST PUSH2 0xD71 CALLER PUSH1 0x0 CALLDATALOAD PUSH32 0xFFFFFFFF00000000000000000000000000000000000000000000000000000000 AND DUP4 PUSH2 0x116F JUMP JUMPDEST PUSH2 0xD7C DUP5 DUP5 DUP5 PUSH2 0x1ED0 JUMP JUMPDEST POP POP POP POP JUMP JUMPDEST PUSH1 0x1 SLOAD PUSH1 0x2 SLOAD PUSH1 0x40 MLOAD PUSH31 0xBC489400000000000000000000000000000000000000000000000000000000 DUP2 MSTORE PUSH1 0x4 DUP2 ADD SWAP2 SWAP1 SWAP2 MSTORE PUSH1 0x1 PUSH1 0x1 PUSH1 0xA0 SHL SUB DUP4 DUP2 AND PUSH1 0x24 DUP4 ADD MSTORE PUSH1 0x0 SWAP3 AND SWAP1 PUSH3 0xBC4894 SWAP1 PUSH1 0x44 ADD PUSH1 0x20 PUSH1 0x40 MLOAD DUP1 DUP4 SUB DUP2 DUP7 GAS STATICCALL ISZERO DUP1 ISZERO PUSH2 0xDEF JUMPI RETURNDATASIZE PUSH1 0x0 DUP1 RETURNDATACOPY RETURNDATASIZE PUSH1 0x0 REVERT JUMPDEST POP POP POP POP PUSH1 0x40 MLOAD RETURNDATASIZE PUSH1 0x1F NOT PUSH1 0x1F DUP3 ADD AND DUP3 ADD DUP1 PUSH1 0x40 MSTORE POP DUP2 ADD SWAP1 PUSH2 0xE13 SWAP2 SWAP1 PUSH2 0x532B JUMP JUMPDEST SWAP3 SWAP2 POP POP JUMP JUMPDEST PUSH1 0x0 SLOAD PUSH2 0x100 SWAP1 DIV PUSH1 0xFF AND ISZERO DUP1 DUP1 ISZERO PUSH2 0xE39 JUMPI POP PUSH1 0x0 SLOAD PUSH1 0x1 PUSH1 0xFF SWAP1 SWAP2 AND LT JUMPDEST DUP1 PUSH2 0xE53 JUMPI POP ADDRESS EXTCODESIZE ISZERO DUP1 ISZERO PUSH2 0xE53 JUMPI POP PUSH1 0x0 SLOAD PUSH1 0xFF AND PUSH1 0x1 EQ JUMPDEST PUSH2 0xECA JUMPI PUSH1 0x40 MLOAD PUSH3 0x461BCD PUSH1 0xE5 SHL DUP2 MSTORE PUSH1 0x20 PUSH1 0x4 DUP3 ADD MSTORE PUSH1 0x2E PUSH1 0x24 DUP3 ADD MSTORE PUSH32 0x496E697469616C697A61626C653A20636F6E747261637420697320616C726561 PUSH1 0x44 DUP3 ADD MSTORE PUSH32 0x647920696E697469616C697A6564000000000000000000000000000000000000 PUSH1 0x64 DUP3 ADD MSTORE PUSH1 0x84 ADD JUMPDEST PUSH1 0x40 MLOAD DUP1 SWAP2 SUB SWAP1 REVERT JUMPDEST PUSH1 0x0 DUP1 SLOAD PUSH1 0xFF NOT AND PUSH1 0x1 OR SWAP1 SSTORE DUP1 ISZERO PUSH2 0xF0A JUMPI PUSH1 0x0 DUP1 SLOAD PUSH32 0xFFFFFFFFFFFFFFFFFFFFFFFFFFFFFFFFFFFFFFFFFFFFFFFFFFFFFFFFFFFF00FF AND PUSH2 0x100 OR SWAP1 SSTORE JUMPDEST PUSH2 0xF15 DUP5 DUP5 DUP5 PUSH2 0x1F26 JUMP JUMPDEST DUP1 ISZERO PUSH2 0xD7C JUMPI PUSH1 0x0 DUP1 SLOAD PUSH32 0xFFFFFFFFFFFFFFFFFFFFFFFFFFFFFFFFFFFFFFFFFFFFFFFFFFFFFFFFFFFF00FF AND SWAP1 SSTORE PUSH1 0x40 MLOAD PUSH1 0x1 DUP2 MSTORE PUSH32 0x7F26B83FF96E1F2B6A682F133852F6798A09C465DA95921460CEFB3847402498 SWAP1 PUSH1 0x20 ADD JUMPDEST PUSH1 0x40 MLOAD DUP1 SWAP2 SUB SWAP1 LOG1 POP POP POP POP JUMP JUMPDEST PUSH2 0xF89 DUP4 DUP4 DUP4 PUSH2 0x1E3E JUMP JUMPDEST PUSH2 0xFB8 CALLER PUSH1 0x0 CALLDATALOAD PUSH32 0xFFFFFFFF00000000000000000000000000000000000000000000000000000000 AND DUP4 PUSH2 0x116F JUMP JUMPDEST PUSH2 0xD7C DUP5 DUP5 DUP5 PUSH2 0x1FA5 JUMP JUMPDEST PUSH1 0x0 DUP1 PUSH1 0x0 DUP1 PUSH1 0x0 DUP1 PUSH2 0xFD5 DUP8 PUSH2 0x2001 JUMP JUMPDEST PUSH1 0x40 DUP1 MLOAD PUSH1 0xA0 DUP2 ADD DUP3 MSTORE DUP3 SLOAD PUSH1 0x1 PUSH1 0x1 PUSH1 0xA0 SHL SUB AND DUP1 DUP3 MSTORE PUSH1 0x1 DUP5 ADD SLOAD PUSH1 0x20 DUP4 ADD DUP2 SWAP1 MSTORE PUSH1 0x2 DUP6 ADD SLOAD SWAP4 DUP4 ADD DUP5 SWAP1 MSTORE PUSH1 0x3 DUP6 ADD SLOAD PUSH1 0x60 DUP5 ADD DUP2 SWAP1 MSTORE PUSH1 0x4 SWAP1 SWAP6 ADD SLOAD PUSH1 0x80 SWAP1 SWAP4 ADD DUP4 SWAP1 MSTORE SWAP1 SWAP12 SWAP1 SWAP11 POP SWAP2 SWAP9 POP SWAP2 SWAP7 POP SWAP1 SWAP5 POP SWAP3 POP POP POP JUMP JUMPDEST PUSH2 0x103E DUP5 DUP5 DUP5 DUP5 PUSH2 0x10C4 JUMP JUMPDEST PUSH2 0x106D CALLER PUSH1 0x0 CALLDATALOAD PUSH32 0xFFFFFFFF00000000000000000000000000000000000000000000000000000000 AND DUP4 PUSH2 0x116F JUMP JUMPDEST PUSH2 0x7A7 DUP6 DUP6 DUP6 DUP6 PUSH2 0x2035 JUMP JUMPDEST PUSH1 0x1 PUSH1 0x1 PUSH1 0xA0 SHL SUB DUP2 AND PUSH1 0x0 SWAP1 DUP2 MSTORE PUSH1 0x11 PUSH1 0x20 MSTORE PUSH1 0x40 DUP2 KECCAK256 SLOAD PUSH1 0xF SLOAD SWAP1 ISZERO ISZERO SWAP1 PUSH1 0x1 SWAP1 PUSH1 0xFF AND DUP2 DUP2 GT ISZERO PUSH2 0x10AF JUMPI PUSH2 0x10AF PUSH2 0x4C33 JUMP JUMPDEST EQ PUSH2 0x10BB JUMPI DUP1 ISZERO PUSH2 0x10BD JUMP JUMPDEST DUP1 JUMPDEST SWAP4 SWAP3 POP POP POP JUMP JUMPDEST PUSH1 0x40 DUP1 MLOAD PUSH1 0x4 DUP1 DUP3 MSTORE PUSH1 0xA0 DUP3 ADD SWAP1 SWAP3 MSTORE PUSH1 0x60 SWAP2 PUSH1 0x20 DUP3 ADD PUSH1 0x80 DUP1 CALLDATASIZE DUP4 CALLDATACOPY ADD SWAP1 POP POP SWAP1 POP DUP5 DUP2 PUSH1 0x0 DUP2 MLOAD DUP2 LT PUSH2 0x10FB JUMPI PUSH2 0x10FB PUSH2 0x5260 JUMP JUMPDEST PUSH1 0x20 MUL PUSH1 0x20 ADD ADD DUP2 DUP2 MSTORE POP POP DUP4 DUP2 PUSH1 0x1 DUP2 MLOAD DUP2 LT PUSH2 0x111B JUMPI PUSH2 0x111B PUSH2 0x5260 JUMP JUMPDEST PUSH1 0x20 MUL PUSH1 0x20 ADD ADD DUP2 DUP2 MSTORE POP POP DUP3 DUP2 PUSH1 0x2 DUP2 MLOAD DUP2 LT PUSH2 0x113B JUMPI PUSH2 0x113B PUSH2 0x5260 JUMP JUMPDEST PUSH1 0x20 MUL PUSH1 0x20 ADD ADD DUP2 DUP2 MSTORE POP POP DUP2 DUP2 PUSH1 0x3 DUP2 MLOAD DUP2 LT PUSH2 0x115B JUMPI PUSH2 0x115B PUSH2 0x5260 JUMP JUMPDEST PUSH1 0x20 MUL PUSH1 0x20 ADD ADD DUP2 DUP2 MSTORE POP POP SWAP5 SWAP4 POP POP POP POP JUMP JUMPDEST PUSH2 0x117A DUP4 DUP4 DUP4 PUSH2 0x20D0 JUMP JUMPDEST PUSH2 0x8A8 JUMPI DUP3 DUP3 DUP3 PUSH1 0x40 MLOAD PUSH32 0x960C80DA00000000000000000000000000000000000000000000000000000000 DUP2 MSTORE PUSH1 0x4 ADD PUSH2 0xEC1 SWAP4 SWAP3 SWAP2 SWAP1 PUSH2 0x537F JUMP JUMPDEST PUSH1 0xFF DUP5 AND PUSH2 0x12B2 JUMPI PUSH1 0x0 DUP2 GT DUP1 PUSH2 0x11CD JUMPI POP PUSH1 0x0 DUP3 GT JUMPDEST ISZERO PUSH2 0x12AD JUMPI DUP3 PUSH1 0x0 SUB PUSH2 0x1218 JUMPI PUSH1 0x40 MLOAD PUSH32 0xBEA499CB00000000000000000000000000000000000000000000000000000000 DUP2 MSTORE PUSH1 0xFF DUP6 AND PUSH1 0x4 DUP3 ADD MSTORE PUSH1 0x24 DUP2 ADD DUP5 SWAP1 MSTORE PUSH1 0x44 ADD PUSH2 0xEC1 JUMP JUMPDEST DUP1 ISZERO DUP1 PUSH2 0x1224 JUMPI POP DUP3 DUP2 GT JUMPDEST ISZERO PUSH2 0x1267 JUMPI PUSH1 0x40 MLOAD PUSH32 0x9E12FCCF00000000000000000000000000000000000000000000000000000000 DUP2 MSTORE PUSH1 0xFF DUP6 AND PUSH1 0x4 DUP3 ADD MSTORE PUSH1 0x24 DUP2 ADD DUP3 SWAP1 MSTORE PUSH1 0x44 ADD PUSH2 0xEC1 JUMP JUMPDEST DUP2 PUSH1 0x0 SUB PUSH2 0x12AD JUMPI PUSH1 0x40 MLOAD PUSH32 0xAD0D7EB200000000000000000000000000000000000000000000000000000000 DUP2 MSTORE PUSH1 0xFF DUP6 AND PUSH1 0x4 DUP3 ADD MSTORE PUSH1 0x24 DUP2 ADD DUP4 SWAP1 MSTORE PUSH1 0x44 ADD PUSH2 0xEC1 JUMP JUMPDEST PUSH2 0x14AA JUMP JUMPDEST DUP3 PUSH1 0x0 SUB PUSH2 0x12F8 JUMPI PUSH1 0x40 MLOAD PUSH32 0xBEA499CB00000000000000000000000000000000000000000000000000000000 DUP2 MSTORE PUSH1 0xFF DUP6 AND PUSH1 0x4 DUP3 ADD MSTORE PUSH1 0x24 DUP2 ADD DUP5 SWAP1 MSTORE PUSH1 0x44 ADD PUSH2 0xEC1 JUMP JUMPDEST DUP1 ISZERO DUP1 PUSH2 0x1310 JUMPI POP PUSH2 0x130D PUSH3 0x24EA00 DUP5 PUSH2 0x53C9 JUMP JUMPDEST DUP2 GT JUMPDEST ISZERO PUSH2 0x1353 JUMPI PUSH1 0x40 MLOAD PUSH32 0x9E12FCCF00000000000000000000000000000000000000000000000000000000 DUP2 MSTORE PUSH1 0xFF DUP6 AND PUSH1 0x4 DUP3 ADD MSTORE PUSH1 0x24 DUP2 ADD DUP3 SWAP1 MSTORE PUSH1 0x44 ADD PUSH2 0xEC1 JUMP JUMPDEST DUP2 PUSH1 0x0 SUB PUSH2 0x1399 JUMPI PUSH1 0x40 MLOAD PUSH32 0xAD0D7EB200000000000000000000000000000000000000000000000000000000 DUP2 MSTORE PUSH1 0xFF DUP6 AND PUSH1 0x4 DUP3 ADD MSTORE PUSH1 0x24 DUP2 ADD DUP4 SWAP1 MSTORE PUSH1 0x44 ADD PUSH2 0xEC1 JUMP JUMPDEST PUSH1 0x0 NOT PUSH1 0xFF DUP6 AND ADD PUSH2 0x13F4 JUMPI PUSH1 0x1C PUSH2 0x13B0 DUP4 PUSH2 0x216E JUMP JUMPDEST GT ISZERO PUSH2 0x12AD JUMPI PUSH1 0x40 MLOAD PUSH32 0xAD0D7EB200000000000000000000000000000000000000000000000000000000 DUP2 MSTORE PUSH1 0xFF DUP6 AND PUSH1 0x4 DUP3 ADD MSTORE PUSH1 0x24 DUP2 ADD DUP4 SWAP1 MSTORE PUSH1 0x44 ADD PUSH2 0xEC1 JUMP JUMPDEST PUSH32 0xFFFFFFFFFFFFFFFFFFFFFFFFFFFFFFFFFFFFFFFFFFFFFFFFFFFFFFFFFFFFFFFE PUSH1 0xFF DUP6 AND ADD PUSH2 0x1473 JUMPI PUSH2 0x1427 DUP3 PUSH2 0x2185 JUMP JUMPDEST PUSH2 0x1430 DUP4 PUSH2 0x216E JUMP JUMPDEST EQ PUSH2 0x12AD JUMPI PUSH1 0x40 MLOAD PUSH32 0xAD0D7EB200000000000000000000000000000000000000000000000000000000 DUP2 MSTORE PUSH1 0xFF DUP6 AND PUSH1 0x4 DUP3 ADD MSTORE PUSH1 0x24 DUP2 ADD DUP4 SWAP1 MSTORE PUSH1 0x44 ADD PUSH2 0xEC1 JUMP JUMPDEST PUSH1 0x40 MLOAD PUSH32 0x33A738BC00000000000000000000000000000000000000000000000000000000 DUP2 MSTORE PUSH1 0xFF DUP6 AND PUSH1 0x4 DUP3 ADD MSTORE PUSH1 0x24 ADD PUSH2 0xEC1 JUMP JUMPDEST DUP4 PUSH1 0xFF AND PUSH1 0x2 DUP2 GT ISZERO PUSH2 0x14BF JUMPI PUSH2 0x14BF PUSH2 0x4C33 JUMP JUMPDEST PUSH1 0xA DUP1 SLOAD PUSH1 0xFF NOT AND PUSH1 0x1 DUP4 PUSH1 0x2 DUP2 GT ISZERO PUSH2 0x14DB JUMPI PUSH2 0x14DB PUSH2 0x4C33 JUMP JUMPDEST MUL OR SWAP1 SSTORE POP PUSH1 0xB DUP4 SWAP1 SSTORE PUSH1 0xC DUP3 SWAP1 SSTORE PUSH1 0xE DUP2 SWAP1 SSTORE PUSH1 0x40 DUP1 MLOAD PUSH1 0xFF DUP7 AND DUP2 MSTORE PUSH1 0x20 DUP2 ADD DUP6 SWAP1 MSTORE SWAP1 DUP2 ADD DUP4 SWAP1 MSTORE PUSH1 0x60 DUP2 ADD DUP3 SWAP1 MSTORE PUSH32 0x182FD6FA2A8560221614C1396DD4FCC78D26DFACF821A6AFB61D25876057E412 SWAP1 PUSH1 0x80 ADD PUSH2 0xF70 JUMP JUMPDEST PUSH1 0x40 DUP1 MLOAD PUSH1 0x0 DUP2 MSTORE PUSH1 0x20 DUP2 ADD SWAP1 SWAP2 MSTORE PUSH2 0x949 SWAP1 DUP4 SWAP1 DUP4 SWAP1 PUSH2 0x116F JUMP JUMPDEST PUSH1 0x1 PUSH1 0x1 PUSH1 0xA0 SHL SUB DUP3 AND PUSH2 0x1593 JUMPI PUSH1 0x40 MLOAD PUSH32 0xC41A13EC00000000000000000000000000000000000000000000000000000000 DUP2 MSTORE PUSH1 0x4 ADD PUSH1 0x40 MLOAD DUP1 SWAP2 SUB SWAP1 REVERT JUMPDEST DUP1 PUSH2 0x15A8 JUMPI PUSH2 0x15A3 PUSH1 0x10 DUP4 PUSH2 0x21A8 JUMP JUMPDEST PUSH2 0x15B3 JUMP JUMPDEST PUSH2 0x15B3 PUSH1 0x10 DUP4 PUSH2 0x21BD JUMP JUMPDEST POP DUP2 PUSH1 0x1 PUSH1 0x1 PUSH1 0xA0 SHL SUB AND PUSH32 0x6264362E9DE26EFEFDA321DFAEB4E4A9090DEEF40C5435FAD8E9E2E306889A1C DUP3 PUSH1 0x40 MLOAD PUSH2 0x15F1 SWAP2 ISZERO ISZERO DUP2 MSTORE PUSH1 0x20 ADD SWAP1 JUMP JUMPDEST PUSH1 0x40 MLOAD DUP1 SWAP2 SUB SWAP1 LOG2 POP POP JUMP JUMPDEST PUSH1 0x40 DUP1 MLOAD PUSH1 0x4 DUP1 DUP3 MSTORE PUSH1 0xA0 DUP3 ADD SWAP1 SWAP3 MSTORE PUSH1 0x60 SWAP2 PUSH1 0x20 DUP3 ADD PUSH1 0x80 DUP1 CALLDATASIZE DUP4 CALLDATACOPY ADD SWAP1 POP POP SWAP1 POP DUP5 PUSH1 0x1 PUSH1 0x1 PUSH1 0xA0 SHL SUB AND DUP2 PUSH1 0x0 DUP2 MLOAD DUP2 LT PUSH2 0x163D JUMPI PUSH2 0x163D PUSH2 0x5260 JUMP JUMPDEST PUSH1 0x20 MUL PUSH1 0x20 ADD ADD DUP2 DUP2 MSTORE POP POP DUP4 PUSH1 0x1 PUSH1 0x1 PUSH1 0xA0 SHL SUB AND DUP2 PUSH1 0x1 DUP2 MLOAD DUP2 LT PUSH2 0x111B JUMPI PUSH2 0x111B PUSH2 0x5260 JUMP JUMPDEST PUSH1 0x1 PUSH1 0x1 PUSH1 0xA0 SHL SUB DUP5 AND PUSH2 0x16A6 JUMPI PUSH1 0x40 MLOAD PUSH32 0xE7BA3E4A00000000000000000000000000000000000000000000000000000000 DUP2 MSTORE PUSH1 0x4 ADD PUSH1 0x40 MLOAD DUP1 SWAP2 SUB SWAP1 REVERT JUMPDEST PUSH1 0x1 PUSH1 0x1 PUSH1 0xA0 SHL SUB DUP5 AND PUSH1 0x0 SWAP1 DUP2 MSTORE PUSH1 0x15 PUSH1 0x20 MSTORE PUSH1 0x40 SWAP1 KECCAK256 PUSH2 0x16CA SWAP1 DUP5 DUP5 DUP5 PUSH2 0x21D2 JUMP JUMPDEST PUSH1 0x40 DUP1 MLOAD PUSH1 0x1 PUSH1 0x1 PUSH1 0xA0 SHL SUB DUP6 DUP2 AND DUP3 MSTORE PUSH1 0x20 DUP3 ADD DUP6 SWAP1 MSTORE SWAP2 DUP2 ADD DUP4 SWAP1 MSTORE SWAP1 DUP6 AND SWAP1 PUSH32 0xF099617C054D3A65E02A9C3B786F23CC03D5982BC7CFAE84DFF0408049CF1707 SWAP1 PUSH1 0x60 ADD PUSH1 0x40 MLOAD DUP1 SWAP2 SUB SWAP1 LOG2 POP POP POP POP JUMP JUMPDEST PUSH1 0x40 DUP1 MLOAD PUSH1 0x1 DUP1 DUP3 MSTORE DUP2 DUP4 ADD SWAP1 SWAP3 MSTORE PUSH1 0x60 SWAP2 PUSH1 0x20 DUP1 DUP4 ADD SWAP1 DUP1 CALLDATASIZE DUP4 CALLDATACOPY ADD SWAP1 POP POP SWAP1 POP DUP2 DUP2 PUSH1 0x0 DUP2 MLOAD DUP2 LT PUSH2 0x1755 JUMPI PUSH2 0x1755 PUSH2 0x5260 JUMP JUMPDEST PUSH1 0x20 MUL PUSH1 0x20 ADD ADD DUP2 DUP2 MSTORE POP POP SWAP2 SWAP1 POP JUMP JUMPDEST PUSH1 0xF DUP1 SLOAD DUP3 SWAP2 SWAP1 PUSH1 0xFF NOT AND PUSH1 0x1 DUP4 DUP2 DUP2 GT ISZERO PUSH2 0x1784 JUMPI PUSH2 0x1784 PUSH2 0x4C33 JUMP JUMPDEST MUL OR SWAP1 SSTORE POP PUSH32 0x216B6A9618D607BA436D0F2E17E9A83E70929ADFF805AC2385D67401360E551A DUP2 PUSH1 0x40 MLOAD PUSH2 0x17B8 SWAP2 SWAP1 PUSH2 0x4C62 JUMP JUMPDEST PUSH1 0x40 MLOAD DUP1 SWAP2 SUB SWAP1 LOG1 POP JUMP JUMPDEST PUSH1 0x1 PUSH1 0x1 PUSH1 0xA0 SHL SUB DUP5 AND PUSH2 0x1803 JUMPI PUSH1 0x40 MLOAD PUSH32 0x1DE0C9C700000000000000000000000000000000000000000000000000000000 DUP2 MSTORE PUSH1 0x4 ADD PUSH1 0x40 MLOAD DUP1 SWAP2 SUB SWAP1 REVERT JUMPDEST PUSH1 0x1 PUSH1 0x1 PUSH1 0xA0 SHL SUB DUP5 AND PUSH1 0x0 SWAP1 DUP2 MSTORE PUSH1 0x1B PUSH1 0x20 MSTORE PUSH1 0x40 SWAP1 KECCAK256 PUSH2 0x1827 SWAP1 DUP5 DUP5 DUP5 PUSH2 0x22BA JUMP JUMPDEST DUP3 PUSH1 0x1 PUSH1 0x1 PUSH1 0xA0 SHL SUB AND DUP5 PUSH1 0x1 PUSH1 0x1 PUSH1 0xA0 SHL SUB AND PUSH32 0x1B5C5E27ED5443E409BAE85849D41D7BF12D5352E8FDDB3728B6408F836E1448 DUP5 DUP5 PUSH1 0x40 MLOAD PUSH2 0x1875 SWAP3 SWAP2 SWAP1 SWAP2 DUP3 MSTORE PUSH1 0x20 DUP3 ADD MSTORE PUSH1 0x40 ADD SWAP1 JUMP JUMPDEST PUSH1 0x40 MLOAD DUP1 SWAP2 SUB SWAP1 LOG3 POP POP POP POP JUMP JUMPDEST PUSH2 0x18B0 PUSH1 0x40 MLOAD DUP1 PUSH1 0x60 ADD PUSH1 0x40 MSTORE DUP1 PUSH1 0x0 PUSH1 0x1 PUSH1 0x1 PUSH1 0xA0 SHL SUB AND DUP2 MSTORE PUSH1 0x20 ADD PUSH1 0x0 DUP2 MSTORE PUSH1 0x20 ADD PUSH1 0x0 DUP2 MSTORE POP SWAP1 JUMP JUMPDEST PUSH1 0x1 PUSH1 0x1 PUSH1 0xA0 SHL SUB DUP1 DUP4 AND PUSH1 0x0 SWAP1 DUP2 MSTORE PUSH1 0x15 PUSH1 0x20 MSTORE PUSH1 0x40 SWAP1 KECCAK256 DUP1 SLOAD SWAP1 SWAP2 AND ISZERO PUSH2 0x18D9 JUMPI DUP1 PUSH2 0x18DC JUMP JUMPDEST PUSH1 0x12 JUMPDEST PUSH1 0x40 DUP1 MLOAD PUSH1 0x60 DUP2 ADD DUP3 MSTORE DUP3 SLOAD PUSH1 0x1 PUSH1 0x1 PUSH1 0xA0 SHL SUB AND DUP2 MSTORE PUSH1 0x1 DUP4 ADD SLOAD PUSH1 0x20 DUP3 ADD MSTORE PUSH1 0x2 SWAP1 SWAP3 ADD SLOAD SWAP1 DUP3 ADD MSTORE SWAP4 SWAP3 POP POP POP JUMP JUMPDEST DUP1 MLOAD PUSH1 0x0 SUB PUSH2 0x1949 JUMPI PUSH1 0x40 MLOAD PUSH32 0xEDAF4DF500000000000000000000000000000000000000000000000000000000 DUP2 MSTORE PUSH1 0x4 ADD PUSH1 0x40 MLOAD DUP1 SWAP2 SUB SWAP1 REVERT JUMPDEST PUSH1 0x1D PUSH2 0x1955 DUP3 DUP3 PUSH2 0x5426 JUMP JUMPDEST POP PUSH32 0xB536117039B9F092020F65947BE2F7ED81B167BE574C4CF8F4291825D545B072 DUP2 PUSH1 0x40 MLOAD PUSH2 0x17B8 SWAP2 SWAP1 PUSH2 0x4CE9 JUMP JUMPDEST PUSH1 0x40 DUP1 MLOAD PUSH1 0x2 DUP1 DUP3 MSTORE PUSH1 0x60 DUP1 DUP4 ADD DUP5 MSTORE SWAP3 PUSH1 0x20 DUP4 ADD SWAP1 DUP1 CALLDATASIZE DUP4 CALLDATACOPY ADD SWAP1 POP POP SWAP1 POP DUP3 PUSH1 0x1 PUSH1 0x1 PUSH1 0xA0 SHL SUB AND DUP2 PUSH1 0x0 DUP2 MLOAD DUP2 LT PUSH2 0x19C2 JUMPI PUSH2 0x19C2 PUSH2 0x5260 JUMP JUMPDEST PUSH1 0x20 MUL PUSH1 0x20 ADD ADD DUP2 DUP2 MSTORE POP POP DUP2 DUP2 PUSH1 0x1 DUP2 MLOAD DUP2 LT PUSH2 0x19E2 JUMPI PUSH2 0x19E2 PUSH2 0x5260 JUMP JUMPDEST PUSH1 0x20 MUL PUSH1 0x20 ADD ADD DUP2 DUP2 MSTORE POP POP SWAP3 SWAP2 POP POP JUMP JUMPDEST PUSH2 0x19FE DUP5 DUP5 PUSH2 0x2431 JUMP JUMPDEST PUSH1 0x1 PUSH1 0x1 PUSH1 0xA0 SHL SUB DUP5 AND PUSH2 0x1A3E JUMPI PUSH1 0x40 MLOAD PUSH32 0xC0E0F12200000000000000000000000000000000000000000000000000000000 DUP2 MSTORE PUSH1 0x4 ADD PUSH1 0x40 MLOAD DUP1 SWAP2 SUB SWAP1 REVERT JUMPDEST DUP3 PUSH1 0x0 SUB PUSH2 0x1A78 JUMPI PUSH1 0x40 MLOAD PUSH32 0x1463ACBE00000000000000000000000000000000000000000000000000000000 DUP2 MSTORE PUSH1 0x4 ADD PUSH1 0x40 MLOAD DUP1 SWAP2 SUB SWAP1 REVERT JUMPDEST PUSH1 0x1 PUSH1 0x1 PUSH1 0xA0 SHL SUB DUP3 AND PUSH2 0x1AB8 JUMPI PUSH1 0x40 MLOAD PUSH32 0x2586AE9100000000000000000000000000000000000000000000000000000000 DUP2 MSTORE PUSH1 0x4 ADD PUSH1 0x40 MLOAD DUP1 SWAP2 SUB SWAP1 REVERT JUMPDEST PUSH1 0x40 DUP1 MLOAD CHAINID PUSH1 0x20 DUP1 DUP4 ADD SWAP2 SWAP1 SWAP2 MSTORE PUSH32 0xFFFFFFFFFFFFFFFFFFFFFFFFFFFFFFFFFFFFFFFF000000000000000000000000 ADDRESS PUSH1 0x60 SWAP1 DUP2 SHL DUP3 AND DUP5 DUP7 ADD MSTORE DUP9 DUP2 SHL DUP3 AND PUSH1 0x54 DUP6 ADD MSTORE PUSH1 0x68 DUP5 ADD DUP9 SWAP1 MSTORE DUP7 SWAP1 SHL AND PUSH1 0x88 DUP4 ADD MSTORE DUP3 MLOAD DUP1 DUP4 SUB PUSH1 0x7C ADD DUP2 MSTORE PUSH1 0x9C SWAP1 SWAP3 ADD SWAP1 SWAP3 MSTORE DUP1 MLOAD SWAP2 ADD KECCAK256 PUSH1 0x0 SWAP1 PUSH1 0x0 DUP2 DUP2 MSTORE PUSH1 0x1E PUSH1 0x20 MSTORE PUSH1 0x40 SWAP1 KECCAK256 SLOAD SWAP1 SWAP2 POP PUSH1 0xFF AND ISZERO PUSH2 0x1B8D JUMPI PUSH1 0x40 MLOAD PUSH32 0xF78A351800000000000000000000000000000000000000000000000000000000 DUP2 MSTORE PUSH1 0x1 PUSH1 0x1 PUSH1 0xA0 SHL SUB DUP1 DUP8 AND PUSH1 0x4 DUP4 ADD MSTORE PUSH1 0x24 DUP3 ADD DUP7 SWAP1 MSTORE DUP5 AND PUSH1 0x44 DUP3 ADD MSTORE PUSH1 0x64 ADD PUSH2 0xEC1 JUMP JUMPDEST PUSH1 0x0 PUSH2 0x1BEF PUSH2 0x1BE9 DUP4 PUSH1 0x40 MLOAD PUSH32 0x19457468657265756D205369676E6564204D6573736167653A0A333200000000 PUSH1 0x20 DUP3 ADD MSTORE PUSH1 0x3C DUP2 ADD DUP3 SWAP1 MSTORE PUSH1 0x0 SWAP1 PUSH1 0x5C ADD PUSH1 0x40 MLOAD PUSH1 0x20 DUP2 DUP4 SUB SUB DUP2 MSTORE SWAP1 PUSH1 0x40 MSTORE DUP1 MLOAD SWAP1 PUSH1 0x20 ADD KECCAK256 SWAP1 POP SWAP2 SWAP1 POP JUMP JUMPDEST DUP5 PUSH2 0x2477 JUMP JUMPDEST PUSH1 0x1C SLOAD SWAP1 SWAP2 POP PUSH1 0x1 PUSH1 0x1 PUSH1 0xA0 SHL SUB DUP1 DUP4 AND SWAP2 AND EQ PUSH2 0x1C50 JUMPI PUSH1 0x1C SLOAD PUSH1 0x40 MLOAD PUSH32 0x8311C63100000000000000000000000000000000000000000000000000000000 DUP2 MSTORE PUSH1 0x1 PUSH1 0x1 PUSH1 0xA0 SHL SUB DUP1 DUP5 AND PUSH1 0x4 DUP4 ADD MSTORE SWAP1 SWAP2 AND PUSH1 0x24 DUP3 ADD MSTORE PUSH1 0x44 ADD PUSH2 0xEC1 JUMP JUMPDEST POP POP POP POP POP POP JUMP JUMPDEST PUSH1 0x40 DUP1 MLOAD CHAINID PUSH1 0x20 DUP1 DUP4 ADD SWAP2 SWAP1 SWAP2 MSTORE ADDRESS PUSH1 0x60 SWAP1 DUP2 SHL PUSH32 0xFFFFFFFFFFFFFFFFFFFFFFFFFFFFFFFFFFFFFFFF000000000000000000000000 SWAP1 DUP2 AND DUP5 DUP7 ADD MSTORE DUP9 DUP3 SHL DUP2 AND PUSH1 0x54 DUP6 ADD MSTORE PUSH1 0x68 DUP5 ADD DUP9 SWAP1 MSTORE SWAP1 DUP7 SWAP1 SHL AND PUSH1 0x88 DUP4 ADD MSTORE DUP3 MLOAD PUSH1 0x7C DUP2 DUP5 SUB ADD DUP2 MSTORE PUSH1 0x9C SWAP1 SWAP3 ADD DUP4 MSTORE DUP2 MLOAD SWAP2 DUP2 ADD SWAP2 SWAP1 SWAP2 KECCAK256 PUSH1 0x0 SWAP1 DUP2 MSTORE PUSH1 0x1E SWAP1 SWAP2 MSTORE KECCAK256 DUP1 SLOAD PUSH1 0xFF NOT AND PUSH1 0x1 OR SWAP1 SSTORE PUSH2 0xD7C DUP5 DUP5 PUSH2 0x249B JUMP JUMPDEST PUSH1 0x60 PUSH2 0xE13 DUP3 PUSH1 0x1 PUSH1 0x1 PUSH1 0xA0 SHL SUB AND PUSH2 0x171F JUMP JUMPDEST PUSH1 0x1 PUSH1 0x1 PUSH1 0xA0 SHL SUB DUP2 AND PUSH2 0x1D3D JUMPI PUSH1 0x40 MLOAD PUSH32 0x98E743D200000000000000000000000000000000000000000000000000000000 DUP2 MSTORE PUSH1 0x4 ADD PUSH1 0x40 MLOAD DUP1 SWAP2 SUB SWAP1 REVERT JUMPDEST PUSH1 0x1C DUP1 SLOAD PUSH32 0xFFFFFFFFFFFFFFFFFFFFFFFF0000000000000000000000000000000000000000 AND PUSH1 0x1 PUSH1 0x1 PUSH1 0xA0 SHL SUB DUP4 AND SWAP1 DUP2 OR SWAP1 SWAP2 SSTORE PUSH1 0x40 MLOAD PUSH32 0x9EAA897564D022FB8C5EFAF0ACDB5D9D27B440B2AAD44400B6E1C702E65B9ED3 SWAP1 PUSH1 0x0 SWAP1 LOG2 POP JUMP JUMPDEST PUSH1 0x40 DUP1 MLOAD PUSH1 0x2 DUP1 DUP3 MSTORE PUSH1 0x60 DUP1 DUP4 ADD DUP5 MSTORE SWAP3 PUSH1 0x20 DUP4 ADD SWAP1 DUP1 CALLDATASIZE DUP4 CALLDATACOPY ADD SWAP1 POP POP SWAP1 POP DUP3 PUSH1 0x0 SHR DUP2 PUSH1 0x0 DUP2 MLOAD DUP2 LT PUSH2 0x1DD6 JUMPI PUSH2 0x1DD6 PUSH2 0x5260 JUMP JUMPDEST PUSH1 0x20 MUL PUSH1 0x20 ADD ADD DUP2 DUP2 MSTORE POP POP DUP2 PUSH1 0x0 SHR DUP2 PUSH1 0x1 DUP2 MLOAD DUP2 LT PUSH2 0x19E2 JUMPI PUSH2 0x19E2 PUSH2 0x5260 JUMP JUMPDEST DUP1 ISZERO PUSH2 0x1E34 JUMPI PUSH1 0x40 MLOAD PUSH32 0x9842F26F00000000000000000000000000000000000000000000000000000000 DUP2 MSTORE PUSH1 0x4 DUP2 ADD DUP3 SWAP1 MSTORE PUSH1 0x24 ADD PUSH2 0xEC1 JUMP JUMPDEST PUSH2 0x949 DUP3 DUP3 PUSH2 0x24C3 JUMP JUMPDEST PUSH1 0x40 DUP1 MLOAD PUSH1 0x3 DUP1 DUP3 MSTORE PUSH1 0x80 DUP3 ADD SWAP1 SWAP3 MSTORE PUSH1 0x60 SWAP2 PUSH1 0x20 DUP3 ADD DUP4 DUP1 CALLDATASIZE DUP4 CALLDATACOPY ADD SWAP1 POP POP SWAP1 POP DUP4 PUSH1 0x1 PUSH1 0x1 PUSH1 0xA0 SHL SUB AND DUP2 PUSH1 0x0 DUP2 MLOAD DUP2 LT PUSH2 0x1E7D JUMPI PUSH2 0x1E7D PUSH2 0x5260 JUMP JUMPDEST PUSH1 0x20 MUL PUSH1 0x20 ADD ADD DUP2 DUP2 MSTORE POP POP DUP3 DUP2 PUSH1 0x1 DUP2 MLOAD DUP2 LT PUSH2 0x1E9D JUMPI PUSH2 0x1E9D PUSH2 0x5260 JUMP JUMPDEST PUSH1 0x20 MUL PUSH1 0x20 ADD ADD DUP2 DUP2 MSTORE POP POP DUP2 DUP2 PUSH1 0x2 DUP2 MLOAD DUP2 LT PUSH2 0x1EBD JUMPI PUSH2 0x1EBD PUSH2 0x5260 JUMP JUMPDEST PUSH1 0x20 MUL PUSH1 0x20 ADD ADD DUP2 DUP2 MSTORE POP POP SWAP4 SWAP3 POP POP POP JUMP JUMPDEST PUSH2 0x1EDD PUSH1 0x16 DUP5 DUP5 DUP5 PUSH2 0x22BA JUMP JUMPDEST PUSH1 0x40 DUP1 MLOAD DUP4 DUP2 MSTORE PUSH1 0x20 DUP2 ADD DUP4 SWAP1 MSTORE PUSH1 0x1 PUSH1 0x1 PUSH1 0xA0 SHL SUB DUP6 AND SWAP2 PUSH32 0x6324B5F18E615697A2B44F16D7A649DEB0BBBC7CB09DAD4C610306105730E7D9 SWAP2 ADD PUSH1 0x40 MLOAD DUP1 SWAP2 SUB SWAP1 LOG2 POP POP POP JUMP JUMPDEST PUSH1 0x0 SLOAD PUSH2 0x100 SWAP1 DIV PUSH1 0xFF AND PUSH2 0x1F91 JUMPI PUSH1 0x40 MLOAD PUSH3 0x461BCD PUSH1 0xE5 SHL DUP2 MSTORE PUSH1 0x20 PUSH1 0x4 DUP3 ADD MSTORE PUSH1 0x2B PUSH1 0x24 DUP3 ADD MSTORE PUSH32 0x496E697469616C697A61626C653A20636F6E7472616374206973206E6F742069 PUSH1 0x44 DUP3 ADD MSTORE PUSH11 0x6E697469616C697A696E67 PUSH1 0xA8 SHL PUSH1 0x64 DUP3 ADD MSTORE PUSH1 0x84 ADD PUSH2 0xEC1 JUMP JUMPDEST PUSH2 0x1F9A DUP4 PUSH2 0x2546 JUMP JUMPDEST PUSH2 0x8A8 DUP4 DUP4 DUP4 PUSH2 0x260E JUMP JUMPDEST PUSH2 0x1FB2 PUSH1 0x12 DUP5 DUP5 DUP5 PUSH2 0x21D2 JUMP JUMPDEST PUSH1 0x40 DUP1 MLOAD PUSH1 0x1 PUSH1 0x1 PUSH1 0xA0 SHL SUB DUP6 AND DUP2 MSTORE PUSH1 0x20 DUP2 ADD DUP5 SWAP1 MSTORE SWAP1 DUP2 ADD DUP3 SWAP1 MSTORE PUSH32 0xA80953BDC344B2EBD0BCDD001A3418A8FD1B858BDECF12A4BA5A9366AD65D345 SWAP1 PUSH1 0x60 ADD PUSH1 0x40 MLOAD DUP1 SWAP2 SUB SWAP1 LOG1 POP POP POP JUMP JUMPDEST PUSH1 0x1 PUSH1 0x1 PUSH1 0xA0 SHL SUB DUP1 DUP3 AND PUSH1 0x0 SWAP1 DUP2 MSTORE PUSH1 0x1B PUSH1 0x20 MSTORE PUSH1 0x40 DUP2 KECCAK256 DUP1 SLOAD SWAP2 SWAP3 SWAP1 SWAP2 AND ISZERO PUSH2 0x202C JUMPI DUP1 PUSH2 0x10BD JUMP JUMPDEST PUSH1 0x16 SWAP4 SWAP3 POP POP POP JUMP JUMPDEST PUSH8 0xDE0B6B3A7640000 DUP2 GT ISZERO PUSH2 0x2077 JUMPI PUSH1 0x40 MLOAD PUSH32 0xCE57496100000000000000000000000000000000000000000000000000000000 DUP2 MSTORE PUSH1 0x4 ADD PUSH1 0x40 MLOAD DUP1 SWAP2 SUB SWAP1 REVERT JUMPDEST PUSH1 0x6 DUP5 SWAP1 SSTORE PUSH1 0x7 DUP4 SWAP1 SSTORE PUSH1 0x8 DUP3 SWAP1 SSTORE PUSH1 0x9 DUP2 SWAP1 SSTORE PUSH1 0x40 DUP1 MLOAD DUP6 DUP2 MSTORE PUSH1 0x20 DUP2 ADD DUP6 SWAP1 MSTORE SWAP1 DUP2 ADD DUP4 SWAP1 MSTORE PUSH1 0x60 DUP2 ADD DUP3 SWAP1 MSTORE PUSH32 0x746DC5EB53C5DE07C40B06D428506D6982EA10C423AC2875ABFC44038927D691 SWAP1 PUSH1 0x80 ADD PUSH2 0xF70 JUMP JUMPDEST PUSH1 0x0 DUP1 SLOAD PUSH1 0x40 MLOAD PUSH32 0x2852289500000000000000000000000000000000000000000000000000000000 DUP2 MSTORE PUSH3 0x10000 SWAP1 SWAP2 DIV PUSH1 0x1 PUSH1 0x1 PUSH1 0xA0 SHL SUB AND SWAP1 PUSH4 0x28522895 SWAP1 PUSH2 0x2125 SWAP1 DUP8 SWAP1 ADDRESS SWAP1 DUP9 SWAP1 DUP9 SWAP1 PUSH1 0x4 ADD PUSH2 0x54E6 JUMP JUMPDEST PUSH1 0x20 PUSH1 0x40 MLOAD DUP1 DUP4 SUB DUP2 DUP7 GAS STATICCALL ISZERO DUP1 ISZERO PUSH2 0x2142 JUMPI RETURNDATASIZE PUSH1 0x0 DUP1 RETURNDATACOPY RETURNDATASIZE PUSH1 0x0 REVERT JUMPDEST POP POP POP POP PUSH1 0x40 MLOAD RETURNDATASIZE PUSH1 0x1F NOT PUSH1 0x1F DUP3 ADD AND DUP3 ADD DUP1 PUSH1 0x40 MSTORE POP DUP2 ADD SWAP1 PUSH2 0x2166 SWAP2 SWAP1 PUSH2 0x5544 JUMP JUMPDEST SWAP5 SWAP4 POP POP POP POP JUMP JUMPDEST PUSH1 0x0 PUSH2 0x2166 PUSH2 0x2180 PUSH3 0x15180 DUP5 PUSH2 0x5590 JUMP JUMPDEST PUSH2 0x268B JUMP JUMPDEST PUSH1 0x0 DUP1 DUP1 PUSH2 0x2199 PUSH2 0x2180 PUSH3 0x15180 DUP7 PUSH2 0x5590 JUMP JUMPDEST POP SWAP2 POP SWAP2 POP PUSH2 0x2166 DUP3 DUP3 PUSH2 0x2745 JUMP JUMPDEST PUSH1 0x0 PUSH2 0x10BD DUP4 PUSH1 0x1 PUSH1 0x1 PUSH1 0xA0 SHL SUB DUP5 AND PUSH2 0x27CB JUMP JUMPDEST PUSH1 0x0 PUSH2 0x10BD DUP4 PUSH1 0x1 PUSH1 0x1 PUSH1 0xA0 SHL SUB DUP5 AND PUSH2 0x28C5 JUMP JUMPDEST PUSH1 0x0 PUSH1 0x1 PUSH1 0x1 PUSH1 0xA0 SHL SUB DUP5 AND ISZERO DUP1 ISZERO PUSH2 0x21E9 JUMPI POP DUP3 ISZERO JUMPDEST DUP1 ISZERO PUSH2 0x21F3 JUMPI POP DUP2 ISZERO JUMPDEST SWAP1 POP PUSH1 0x0 PUSH1 0x1 PUSH1 0x1 PUSH1 0xA0 SHL SUB DUP6 AND ISZERO DUP1 ISZERO SWAP1 PUSH2 0x2217 JUMPI POP DUP3 ISZERO DUP1 PUSH2 0x2217 JUMPI POP DUP4 DUP4 LT ISZERO JUMPDEST SWAP1 POP DUP2 ISZERO DUP1 ISZERO PUSH2 0x2225 JUMPI POP DUP1 ISZERO JUMPDEST ISZERO PUSH2 0x2275 JUMPI PUSH1 0x40 MLOAD PUSH32 0xCA1F048300000000000000000000000000000000000000000000000000000000 DUP2 MSTORE PUSH1 0x1 PUSH1 0x1 PUSH1 0xA0 SHL SUB DUP7 AND PUSH1 0x4 DUP3 ADD MSTORE PUSH1 0x24 DUP2 ADD DUP6 SWAP1 MSTORE PUSH1 0x44 DUP2 ADD DUP5 SWAP1 MSTORE PUSH1 0x64 ADD PUSH2 0xEC1 JUMP JUMPDEST POP POP DUP4 SLOAD PUSH32 0xFFFFFFFFFFFFFFFFFFFFFFFF0000000000000000000000000000000000000000 AND PUSH1 0x1 PUSH1 0x1 PUSH1 0xA0 SHL SUB SWAP4 SWAP1 SWAP4 AND SWAP3 SWAP1 SWAP3 OR DUP4 SSTORE PUSH1 0x1 DUP4 ADD SSTORE PUSH1 0x2 SWAP1 SWAP2 ADD SSTORE JUMP JUMPDEST PUSH1 0x0 PUSH1 0x1 PUSH1 0x1 PUSH1 0xA0 SHL SUB DUP5 AND ISZERO DUP1 ISZERO PUSH2 0x22D1 JUMPI POP DUP3 ISZERO JUMPDEST DUP1 ISZERO PUSH2 0x22DB JUMPI POP DUP2 ISZERO JUMPDEST SWAP1 POP PUSH1 0x0 PUSH1 0x1 PUSH1 0x1 PUSH1 0xA0 SHL SUB DUP6 AND ISZERO DUP1 ISZERO SWAP1 PUSH2 0x22F7 JUMPI POP PUSH1 0x0 DUP5 GT JUMPDEST DUP1 ISZERO PUSH2 0x2303 JUMPI POP PUSH1 0x0 DUP4 GT JUMPDEST SWAP1 POP DUP2 ISZERO DUP1 ISZERO PUSH2 0x2311 JUMPI POP DUP1 ISZERO JUMPDEST ISZERO PUSH2 0x2361 JUMPI PUSH1 0x40 MLOAD PUSH32 0xF5DEB5DC00000000000000000000000000000000000000000000000000000000 DUP2 MSTORE PUSH1 0x1 PUSH1 0x1 PUSH1 0xA0 SHL SUB DUP7 AND PUSH1 0x4 DUP3 ADD MSTORE PUSH1 0x24 DUP2 ADD DUP6 SWAP1 MSTORE PUSH1 0x44 DUP2 ADD DUP5 SWAP1 MSTORE PUSH1 0x64 ADD PUSH2 0xEC1 JUMP JUMPDEST PUSH1 0x3 DUP7 ADD DUP4 SWAP1 SSTORE PUSH1 0x1 DUP7 ADD DUP5 SWAP1 SSTORE DUP2 ISZERO PUSH2 0x2388 JUMPI PUSH1 0x0 PUSH1 0x2 DUP8 ADD DUP2 SWAP1 SSTORE PUSH1 0x4 DUP8 ADD SSTORE PUSH2 0x23F4 JUMP JUMPDEST DUP6 PUSH1 0x4 ADD SLOAD PUSH1 0x0 SUB PUSH2 0x23AF JUMPI PUSH1 0x0 PUSH1 0x2 DUP8 ADD SSTORE PUSH2 0x23A5 DUP4 TIMESTAMP PUSH2 0x55A4 JUMP JUMPDEST PUSH1 0x4 DUP8 ADD SSTORE PUSH2 0x23F4 JUMP JUMPDEST DUP6 SLOAD PUSH1 0x1 PUSH1 0x1 PUSH1 0xA0 SHL SUB DUP7 DUP2 AND SWAP2 AND EQ PUSH2 0x23F4 JUMPI DUP6 SLOAD PUSH1 0x0 SWAP1 PUSH2 0x23DB SWAP1 PUSH1 0x1 PUSH1 0x1 PUSH1 0xA0 SHL SUB AND DUP8 PUSH2 0x2914 JUMP JUMPDEST PUSH1 0x2 DUP9 ADD SLOAD SWAP1 SWAP2 POP PUSH2 0x23ED SWAP1 DUP3 PUSH2 0x2920 JUMP JUMPDEST PUSH1 0x2 DUP9 ADD SSTORE POP JUMPDEST POP POP DUP4 SLOAD PUSH32 0xFFFFFFFFFFFFFFFFFFFFFFFF0000000000000000000000000000000000000000 AND PUSH1 0x1 PUSH1 0x1 PUSH1 0xA0 SHL SUB SWAP4 SWAP1 SWAP4 AND SWAP3 SWAP1 SWAP3 OR SWAP1 SWAP3 SSTORE POP POP JUMP JUMPDEST PUSH2 0x243B DUP3 DUP3 PUSH2 0x2996 JUMP JUMPDEST PUSH2 0x2445 DUP3 DUP3 PUSH2 0x29A0 JUMP JUMPDEST PUSH2 0x244F DUP3 DUP3 PUSH2 0x29DD JUMP JUMPDEST PUSH2 0x2459 DUP3 DUP3 PUSH2 0x2AD1 JUMP JUMPDEST PUSH2 0x2463 DUP3 DUP3 PUSH2 0x2D24 JUMP JUMPDEST PUSH2 0x246D DUP3 DUP3 PUSH2 0x2D6E JUMP JUMPDEST PUSH2 0x949 DUP3 DUP3 PUSH2 0x2E5B JUMP JUMPDEST PUSH1 0x0 DUP1 PUSH1 0x0 PUSH2 0x2486 DUP6 DUP6 PUSH2 0x2F71 JUMP JUMPDEST SWAP2 POP SWAP2 POP PUSH2 0x2493 DUP2 PUSH2 0x2FDF JUMP JUMPDEST POP SWAP4 SWAP3 POP POP POP JUMP JUMPDEST PUSH2 0x24A5 DUP3 DUP3 PUSH2 0x31CB JUMP JUMPDEST PUSH2 0x24AF DUP3 DUP3 PUSH2 0x326D JUMP JUMPDEST PUSH2 0x24B9 DUP3 DUP3 PUSH2 0x328F JUMP JUMPDEST PUSH2 0x949 DUP3 DUP3 PUSH2 0x34D9 JUMP JUMPDEST DUP1 DUP3 EQ DUP1 ISZERO PUSH2 0x24D1 JUMPI POP DUP2 ISZERO ISZERO JUMPDEST ISZERO PUSH2 0x250B JUMPI PUSH1 0x40 MLOAD PUSH32 0xFB49EDB00000000000000000000000000000000000000000000000000000000 DUP2 MSTORE PUSH1 0x4 DUP2 ADD DUP4 SWAP1 MSTORE PUSH1 0x24 ADD PUSH2 0xEC1 JUMP JUMPDEST PUSH1 0x2 DUP3 SWAP1 SSTORE PUSH1 0x3 DUP2 SWAP1 SSTORE PUSH1 0x40 MLOAD DUP2 SWAP1 DUP4 SWAP1 PUSH32 0xF950A929751D87DB181A0A517DF21BB3ECD433ABBA584594402DB4B58A554835 SWAP1 PUSH1 0x0 SWAP1 LOG3 POP POP JUMP JUMPDEST PUSH1 0x0 SLOAD PUSH2 0x100 SWAP1 DIV PUSH1 0xFF AND PUSH2 0x25B1 JUMPI PUSH1 0x40 MLOAD PUSH3 0x461BCD PUSH1 0xE5 SHL DUP2 MSTORE PUSH1 0x20 PUSH1 0x4 DUP3 ADD MSTORE PUSH1 0x2B PUSH1 0x24 DUP3 ADD MSTORE PUSH32 0x496E697469616C697A61626C653A20636F6E7472616374206973206E6F742069 PUSH1 0x44 DUP3 ADD MSTORE PUSH11 0x6E697469616C697A696E67 PUSH1 0xA8 SHL PUSH1 0x64 DUP3 ADD MSTORE PUSH1 0x84 ADD PUSH2 0xEC1 JUMP JUMPDEST DUP1 MLOAD PUSH2 0x25BC SWAP1 PUSH2 0x3506 JUMP JUMPDEST PUSH2 0x25C4 PUSH2 0x35E8 JUMP JUMPDEST PUSH2 0x25D1 DUP2 PUSH1 0x20 ADD MLOAD PUSH2 0x365D JUMP JUMPDEST PUSH2 0x25DE DUP2 PUSH1 0x40 ADD MLOAD PUSH2 0x36D1 JUMP JUMPDEST PUSH2 0x25EB DUP2 PUSH1 0x60 ADD MLOAD PUSH2 0x3745 JUMP JUMPDEST PUSH2 0x25F8 DUP2 PUSH1 0x80 ADD MLOAD PUSH2 0x37B9 JUMP JUMPDEST PUSH2 0x2605 DUP2 PUSH1 0xA0 ADD MLOAD PUSH2 0x382D JUMP JUMPDEST PUSH2 0xB21 DUP2 PUSH2 0x38A1 JUMP JUMPDEST PUSH1 0x0 SLOAD PUSH2 0x100 SWAP1 DIV PUSH1 0xFF AND PUSH2 0x2679 JUMPI PUSH1 0x40 MLOAD PUSH3 0x461BCD PUSH1 0xE5 SHL DUP2 MSTORE PUSH1 0x20 PUSH1 0x4 DUP3 ADD MSTORE PUSH1 0x2B PUSH1 0x24 DUP3 ADD MSTORE PUSH32 0x496E697469616C697A61626C653A20636F6E7472616374206973206E6F742069 PUSH1 0x44 DUP3 ADD MSTORE PUSH11 0x6E697469616C697A696E67 PUSH1 0xA8 SHL PUSH1 0x64 DUP3 ADD MSTORE PUSH1 0x84 ADD PUSH2 0xEC1 JUMP JUMPDEST PUSH2 0x2682 DUP3 PUSH2 0x1CFD JUMP JUMPDEST PUSH2 0x8A8 DUP2 PUSH2 0x190E JUMP JUMPDEST PUSH1 0x0 DUP1 DUP1 DUP4 PUSH3 0x264965 DUP2 ADD DUP3 PUSH3 0x23AB1 PUSH1 0x4 DUP4 MUL SDIV SWAP1 POP PUSH1 0x4 PUSH1 0x3 PUSH3 0x23AB1 DUP4 MUL ADD SDIV SWAP1 SWAP2 SUB SWAP1 PUSH1 0x0 PUSH3 0x164B09 PUSH2 0xFA0 PUSH1 0x1 DUP6 ADD MUL SDIV SWAP1 POP PUSH1 0x4 PUSH2 0x5B5 DUP3 MUL SDIV DUP4 SUB PUSH1 0x1F ADD SWAP3 POP PUSH1 0x0 PUSH2 0x98F DUP5 PUSH1 0x50 MUL DUP2 PUSH2 0x26E8 JUMPI PUSH2 0x26E8 PUSH2 0x5561 JUMP JUMPDEST SDIV SWAP1 POP PUSH1 0x0 PUSH1 0x50 PUSH2 0x98F DUP4 MUL SDIV DUP6 SUB SWAP1 POP PUSH1 0xB DUP3 SDIV PUSH32 0xFFFFFFFFFFFFFFFFFFFFFFFFFFFFFFFFFFFFFFFFFFFFFFFFFFFFFFFFFFFFFFCF SWAP5 SWAP1 SWAP5 ADD PUSH1 0x64 MUL SWAP3 SWAP1 SWAP3 ADD DUP4 ADD SWAP10 PUSH1 0x2 PUSH1 0xC SWAP1 SWAP5 MUL SWAP1 SWAP2 SUB SWAP3 SWAP1 SWAP3 ADD SWAP8 POP SWAP6 POP SWAP4 POP POP POP POP JUMP JUMPDEST PUSH1 0x0 DUP2 PUSH1 0x1 EQ DUP1 PUSH2 0x2756 JUMPI POP DUP2 PUSH1 0x3 EQ JUMPDEST DUP1 PUSH2 0x2761 JUMPI POP DUP2 PUSH1 0x5 EQ JUMPDEST DUP1 PUSH2 0x276C JUMPI POP DUP2 PUSH1 0x7 EQ JUMPDEST DUP1 PUSH2 0x2777 JUMPI POP DUP2 PUSH1 0x8 EQ JUMPDEST DUP1 PUSH2 0x2782 JUMPI POP DUP2 PUSH1 0xA EQ JUMPDEST DUP1 PUSH2 0x278D JUMPI POP DUP2 PUSH1 0xC EQ JUMPDEST ISZERO PUSH2 0x279A JUMPI POP PUSH1 0x1F PUSH2 0xE13 JUMP JUMPDEST DUP2 PUSH1 0x2 EQ PUSH2 0x27AA JUMPI POP PUSH1 0x1E PUSH2 0xE13 JUMP JUMPDEST PUSH2 0x27B3 DUP4 PUSH2 0x390C JUMP JUMPDEST PUSH2 0x27BE JUMPI PUSH1 0x1C PUSH2 0x27C1 JUMP JUMPDEST PUSH1 0x1D JUMPDEST PUSH1 0xFF AND SWAP4 SWAP3 POP POP POP JUMP JUMPDEST PUSH1 0x0 DUP2 DUP2 MSTORE PUSH1 0x1 DUP4 ADD PUSH1 0x20 MSTORE PUSH1 0x40 DUP2 KECCAK256 SLOAD DUP1 ISZERO PUSH2 0x28B4 JUMPI PUSH1 0x0 PUSH2 0x27EF PUSH1 0x1 DUP4 PUSH2 0x55B7 JUMP JUMPDEST DUP6 SLOAD SWAP1 SWAP2 POP PUSH1 0x0 SWAP1 PUSH2 0x2803 SWAP1 PUSH1 0x1 SWAP1 PUSH2 0x55B7 JUMP JUMPDEST SWAP1 POP DUP2 DUP2 EQ PUSH2 0x2868 JUMPI PUSH1 0x0 DUP7 PUSH1 0x0 ADD DUP3 DUP2 SLOAD DUP2 LT PUSH2 0x2823 JUMPI PUSH2 0x2823 PUSH2 0x5260 JUMP JUMPDEST SWAP1 PUSH1 0x0 MSTORE PUSH1 0x20 PUSH1 0x0 KECCAK256 ADD SLOAD SWAP1 POP DUP1 DUP8 PUSH1 0x0 ADD DUP5 DUP2 SLOAD DUP2 LT PUSH2 0x2846 JUMPI PUSH2 0x2846 PUSH2 0x5260 JUMP JUMPDEST PUSH1 0x0 SWAP2 DUP3 MSTORE PUSH1 0x20 DUP1 DUP4 KECCAK256 SWAP1 SWAP2 ADD SWAP3 SWAP1 SWAP3 SSTORE SWAP2 DUP3 MSTORE PUSH1 0x1 DUP9 ADD SWAP1 MSTORE PUSH1 0x40 SWAP1 KECCAK256 DUP4 SWAP1 SSTORE JUMPDEST DUP6 SLOAD DUP7 SWAP1 DUP1 PUSH2 0x2879 JUMPI PUSH2 0x2879 PUSH2 0x55CA JUMP JUMPDEST PUSH1 0x1 SWAP1 SUB DUP2 DUP2 SWAP1 PUSH1 0x0 MSTORE PUSH1 0x20 PUSH1 0x0 KECCAK256 ADD PUSH1 0x0 SWAP1 SSTORE SWAP1 SSTORE DUP6 PUSH1 0x1 ADD PUSH1 0x0 DUP7 DUP2 MSTORE PUSH1 0x20 ADD SWAP1 DUP2 MSTORE PUSH1 0x20 ADD PUSH1 0x0 KECCAK256 PUSH1 0x0 SWAP1 SSTORE PUSH1 0x1 SWAP4 POP POP POP POP PUSH2 0xE13 JUMP JUMPDEST PUSH1 0x0 SWAP2 POP POP PUSH2 0xE13 JUMP JUMPDEST POP SWAP3 SWAP2 POP POP JUMP JUMPDEST PUSH1 0x0 DUP2 DUP2 MSTORE PUSH1 0x1 DUP4 ADD PUSH1 0x20 MSTORE PUSH1 0x40 DUP2 KECCAK256 SLOAD PUSH2 0x290C JUMPI POP DUP2 SLOAD PUSH1 0x1 DUP2 DUP2 ADD DUP5 SSTORE PUSH1 0x0 DUP5 DUP2 MSTORE PUSH1 0x20 DUP1 DUP3 KECCAK256 SWAP1 SWAP4 ADD DUP5 SWAP1 SSTORE DUP5 SLOAD DUP5 DUP3 MSTORE DUP3 DUP7 ADD SWAP1 SWAP4 MSTORE PUSH1 0x40 SWAP1 KECCAK256 SWAP2 SWAP1 SWAP2 SSTORE PUSH2 0xE13 JUMP JUMPDEST POP PUSH1 0x0 PUSH2 0xE13 JUMP JUMPDEST PUSH1 0x0 PUSH2 0x10BD DUP4 DUP4 PUSH2 0x3948 JUMP JUMPDEST PUSH1 0x0 DUP3 DUP3 MUL DUP4 ISZERO DUP1 ISZERO SWAP1 PUSH2 0x2943 JUMPI POP DUP3 DUP5 DUP3 DUP2 PUSH2 0x293F JUMPI PUSH2 0x293F PUSH2 0x5561 JUMP JUMPDEST DIV EQ ISZERO JUMPDEST ISZERO PUSH2 0x2984 JUMPI PUSH1 0x40 MLOAD PUSH32 0xE8E4A4FA00000000000000000000000000000000000000000000000000000000 DUP2 MSTORE PUSH1 0x4 DUP2 ADD DUP6 SWAP1 MSTORE PUSH1 0x24 DUP2 ADD DUP5 SWAP1 MSTORE PUSH1 0x44 ADD PUSH2 0xEC1 JUMP JUMPDEST PUSH8 0xDE0B6B3A7640000 SWAP1 DIV SWAP4 SWAP3 POP POP POP JUMP JUMPDEST PUSH2 0x949 DUP3 DUP3 PUSH2 0x3B5F JUMP JUMPDEST PUSH1 0x4 SLOAD PUSH1 0xFF AND ISZERO PUSH2 0x949 JUMPI PUSH1 0x40 MLOAD PUSH32 0xC0F2312800000000000000000000000000000000000000000000000000000000 DUP2 MSTORE PUSH1 0x4 ADD PUSH1 0x40 MLOAD DUP1 SWAP2 SUB SWAP1 REVERT JUMPDEST GAS PUSH1 0x5 SSTORE PUSH1 0x40 DUP1 MLOAD PUSH1 0x80 DUP2 ADD DUP3 MSTORE PUSH1 0x6 SLOAD DUP1 DUP3 MSTORE PUSH1 0x7 SLOAD PUSH1 0x20 DUP4 ADD MSTORE PUSH1 0x8 SLOAD SWAP3 DUP3 ADD SWAP3 SWAP1 SWAP3 MSTORE PUSH1 0x9 SLOAD PUSH1 0x60 DUP3 ADD MSTORE SWAP1 PUSH1 0x0 SWAP1 ISZERO DUP1 PUSH2 0x2A1C JUMPI POP DUP2 MLOAD GASPRICE GT ISZERO JUMPDEST SWAP1 POP DUP1 PUSH2 0x2A61 JUMPI DUP2 MLOAD PUSH1 0x40 MLOAD PUSH32 0xCBB35EB700000000000000000000000000000000000000000000000000000000 DUP2 MSTORE GASPRICE PUSH1 0x4 DUP3 ADD MSTORE PUSH1 0x24 DUP2 ADD SWAP2 SWAP1 SWAP2 MSTORE PUSH1 0x44 ADD PUSH2 0xEC1 JUMP JUMPDEST PUSH1 0x0 PUSH2 0x2A6D BASEFEE GASPRICE PUSH2 0x55B7 JUMP JUMPDEST SWAP1 POP PUSH1 0x0 DUP4 PUSH1 0x20 ADD MLOAD PUSH1 0x0 EQ DUP1 PUSH2 0x2A88 JUMPI POP DUP4 PUSH1 0x20 ADD MLOAD DUP3 GT ISZERO JUMPDEST SWAP1 POP DUP1 PUSH2 0x1C50 JUMPI PUSH1 0x20 DUP5 ADD MLOAD PUSH1 0x40 MLOAD PUSH32 0x56E5387F00000000000000000000000000000000000000000000000000000000 DUP2 MSTORE PUSH2 0xEC1 SWAP2 DUP5 SWAP2 PUSH1 0x4 ADD SWAP2 DUP3 MSTORE PUSH1 0x20 DUP3 ADD MSTORE PUSH1 0x40 ADD SWAP1 JUMP JUMPDEST PUSH1 0xA SLOAD PUSH1 0xB SLOAD PUSH1 0xC SLOAD PUSH1 0xE SLOAD PUSH1 0xFF SWAP1 SWAP4 AND SWAP3 TIMESTAMP DUP3 GT ISZERO PUSH2 0x2B26 JUMPI PUSH1 0x40 MLOAD PUSH32 0x13CE60B00000000000000000000000000000000000000000000000000000000 DUP2 MSTORE TIMESTAMP PUSH1 0x4 DUP3 ADD MSTORE PUSH1 0x24 DUP2 ADD DUP4 SWAP1 MSTORE PUSH1 0x44 ADD PUSH2 0xEC1 JUMP JUMPDEST PUSH1 0x0 DUP5 PUSH1 0x2 DUP2 GT ISZERO PUSH2 0x2B3A JUMPI PUSH2 0x2B3A PUSH2 0x4C33 JUMP JUMPDEST SUB PUSH2 0x2C0C JUMPI DUP3 PUSH1 0x0 SUB PUSH2 0x2B4F JUMPI POP POP POP POP POP POP JUMP JUMPDEST DUP1 PUSH1 0x0 SUB PUSH2 0x2B69 JUMPI PUSH2 0x2B61 DUP4 TIMESTAMP PUSH2 0x55A4 JUMP JUMPDEST PUSH1 0xD SSTORE PUSH2 0x1C50 JUMP JUMPDEST PUSH1 0x0 PUSH2 0x2B75 DUP4 TIMESTAMP PUSH2 0x55B7 JUMP JUMPDEST SWAP1 POP PUSH1 0x0 PUSH2 0x2B83 DUP6 DUP4 PUSH2 0x5590 JUMP JUMPDEST SWAP1 POP PUSH1 0x0 PUSH2 0x2B91 DUP7 DUP4 PUSH2 0x53C9 JUMP JUMPDEST PUSH2 0x2B9B SWAP1 DUP5 PUSH2 0x55B7 JUMP JUMPDEST SWAP1 POP DUP4 DUP2 GT ISZERO PUSH2 0x2BE0 JUMPI PUSH1 0x40 MLOAD PUSH32 0x13CE60B00000000000000000000000000000000000000000000000000000000 DUP2 MSTORE TIMESTAMP PUSH1 0x4 DUP3 ADD MSTORE PUSH1 0x24 DUP2 ADD DUP7 SWAP1 MSTORE PUSH1 0x44 ADD PUSH2 0xEC1 JUMP JUMPDEST DUP6 PUSH2 0x2BEC DUP4 PUSH1 0x1 PUSH2 0x55A4 JUMP JUMPDEST PUSH2 0x2BF6 SWAP2 SWAP1 PUSH2 0x53C9 JUMP JUMPDEST PUSH2 0x2C00 SWAP1 DUP7 PUSH2 0x55A4 JUMP JUMPDEST PUSH1 0xD SSTORE POP PUSH2 0x1C50 SWAP2 POP POP JUMP JUMPDEST DUP2 TIMESTAMP LT ISZERO DUP1 ISZERO PUSH2 0x2C25 JUMPI POP PUSH2 0x2C21 DUP2 DUP4 PUSH2 0x55A4 JUMP JUMPDEST TIMESTAMP GT ISZERO JUMPDEST ISZERO PUSH2 0x2C34 JUMPI PUSH2 0x2B61 DUP3 DUP5 PUSH2 0x3BF4 JUMP JUMPDEST PUSH1 0x0 PUSH1 0x1 DUP6 PUSH1 0x2 DUP2 GT ISZERO PUSH2 0x2C4A JUMPI PUSH2 0x2C4A PUSH2 0x4C33 JUMP JUMPDEST EQ PUSH2 0x2C5D JUMPI PUSH2 0x2C58 TIMESTAMP PUSH2 0x2185 JUMP JUMPDEST PUSH2 0x2C66 JUMP JUMPDEST PUSH2 0x2C66 DUP4 PUSH2 0x216E JUMP JUMPDEST SWAP1 POP PUSH1 0x0 PUSH2 0x2C74 DUP5 DUP4 PUSH2 0x3C8C JUMP JUMPDEST SWAP1 POP DUP1 TIMESTAMP LT ISZERO PUSH2 0x2CB9 JUMPI PUSH1 0x40 MLOAD PUSH32 0x13CE60B00000000000000000000000000000000000000000000000000000000 DUP2 MSTORE TIMESTAMP PUSH1 0x4 DUP3 ADD MSTORE PUSH1 0x24 DUP2 ADD DUP3 SWAP1 MSTORE PUSH1 0x44 ADD PUSH2 0xEC1 JUMP JUMPDEST PUSH1 0x0 PUSH2 0x2CC5 DUP5 DUP4 PUSH2 0x55A4 JUMP JUMPDEST SWAP1 POP TIMESTAMP DUP2 LT DUP1 ISZERO PUSH2 0x2D0B JUMPI PUSH1 0x40 MLOAD PUSH32 0x13CE60B00000000000000000000000000000000000000000000000000000000 DUP2 MSTORE TIMESTAMP PUSH1 0x4 DUP3 ADD MSTORE PUSH1 0x24 DUP2 ADD DUP4 SWAP1 MSTORE PUSH1 0x44 ADD PUSH2 0xEC1 JUMP JUMPDEST PUSH2 0x2D15 DUP4 DUP9 PUSH2 0x3BF4 JUMP JUMPDEST PUSH1 0xD SSTORE POP POP POP POP POP POP POP POP POP POP JUMP JUMPDEST PUSH2 0x2D2D DUP3 PUSH2 0x1079 JUMP JUMPDEST PUSH2 0x949 JUMPI PUSH1 0x40 MLOAD PUSH32 0x7A24104500000000000000000000000000000000000000000000000000000000 DUP2 MSTORE PUSH1 0x1 PUSH1 0x1 PUSH1 0xA0 SHL SUB DUP4 AND PUSH1 0x4 DUP3 ADD MSTORE PUSH1 0x24 ADD PUSH2 0xEC1 JUMP JUMPDEST PUSH1 0x0 PUSH2 0x2D79 DUP4 PUSH2 0x1883 JUMP JUMPDEST DUP1 MLOAD SWAP1 SWAP2 POP PUSH1 0x1 PUSH1 0x1 PUSH1 0xA0 SHL SUB AND PUSH2 0x2D90 JUMPI POP POP POP JUMP JUMPDEST PUSH1 0x0 DUP4 PUSH1 0x1 PUSH1 0x1 PUSH1 0xA0 SHL SUB AND DUP3 PUSH1 0x0 ADD MLOAD PUSH1 0x1 PUSH1 0x1 PUSH1 0xA0 SHL SUB AND EQ PUSH2 0x2DCC JUMPI PUSH2 0x2DC7 PUSH2 0x2DC0 DUP6 DUP5 PUSH1 0x0 ADD MLOAD PUSH2 0x2914 JUMP JUMPDEST DUP5 SWAP1 PUSH2 0x2920 JUMP JUMPDEST PUSH2 0x2DCE JUMP JUMPDEST DUP3 JUMPDEST SWAP1 POP PUSH1 0x0 DUP3 PUSH1 0x20 ADD MLOAD DUP3 LT ISZERO DUP1 ISZERO PUSH2 0x2DF6 JUMPI POP PUSH1 0x40 DUP4 ADD MLOAD ISZERO DUP1 PUSH2 0x2DF6 JUMPI POP DUP3 PUSH1 0x40 ADD MLOAD DUP3 GT ISZERO JUMPDEST SWAP1 POP DUP1 PUSH2 0x7A7 JUMPI DUP3 MLOAD PUSH1 0x20 DUP5 ADD MLOAD PUSH1 0x40 DUP1 DUP7 ADD MLOAD SWAP1 MLOAD PUSH32 0x7C63A4B000000000000000000000000000000000000000000000000000000000 DUP2 MSTORE PUSH1 0x1 PUSH1 0x1 PUSH1 0xA0 SHL SUB SWAP1 SWAP4 AND PUSH1 0x4 DUP5 ADD MSTORE PUSH1 0x24 DUP4 ADD DUP6 SWAP1 MSTORE PUSH1 0x44 DUP4 ADD SWAP2 SWAP1 SWAP2 MSTORE PUSH1 0x64 DUP3 ADD MSTORE PUSH1 0x84 ADD PUSH2 0xEC1 JUMP JUMPDEST PUSH1 0x0 PUSH2 0x2E66 DUP4 PUSH2 0x2001 JUMP JUMPDEST PUSH1 0x40 DUP1 MLOAD PUSH1 0xA0 DUP2 ADD DUP3 MSTORE DUP3 SLOAD PUSH1 0x1 PUSH1 0x1 PUSH1 0xA0 SHL SUB AND DUP1 DUP3 MSTORE PUSH1 0x1 DUP5 ADD SLOAD PUSH1 0x20 DUP4 ADD MSTORE PUSH1 0x2 DUP5 ADD SLOAD SWAP3 DUP3 ADD SWAP3 SWAP1 SWAP3 MSTORE PUSH1 0x3 DUP4 ADD SLOAD PUSH1 0x60 DUP3 ADD MSTORE PUSH1 0x4 SWAP1 SWAP3 ADD SLOAD PUSH1 0x80 DUP4 ADD MSTORE SWAP1 SWAP2 POP PUSH2 0x2EB5 JUMPI POP POP POP JUMP JUMPDEST PUSH1 0x0 DUP4 PUSH1 0x1 PUSH1 0x1 PUSH1 0xA0 SHL SUB AND DUP3 PUSH1 0x0 ADD MLOAD PUSH1 0x1 PUSH1 0x1 PUSH1 0xA0 SHL SUB AND EQ PUSH2 0x2EEA JUMPI PUSH2 0x2EE5 PUSH2 0x2DC0 DUP6 DUP5 PUSH1 0x0 ADD MLOAD PUSH2 0x2914 JUMP JUMPDEST PUSH2 0x2EEC JUMP JUMPDEST DUP3 JUMPDEST SWAP1 POP PUSH1 0x0 DUP3 PUSH1 0x80 ADD MLOAD TIMESTAMP LT PUSH2 0x2F02 JUMPI PUSH1 0x0 PUSH2 0x2F08 JUMP JUMPDEST DUP3 PUSH1 0x40 ADD MLOAD JUMPDEST PUSH2 0x2F12 SWAP1 DUP4 PUSH2 0x55A4 JUMP JUMPDEST SWAP1 POP DUP3 PUSH1 0x20 ADD MLOAD DUP2 GT ISZERO PUSH2 0x7A7 JUMPI DUP3 MLOAD PUSH1 0x20 DUP5 ADD MLOAD PUSH1 0x40 MLOAD PUSH32 0xB8858D5D00000000000000000000000000000000000000000000000000000000 DUP2 MSTORE PUSH1 0x1 PUSH1 0x1 PUSH1 0xA0 SHL SUB SWAP1 SWAP3 AND PUSH1 0x4 DUP4 ADD MSTORE PUSH1 0x24 DUP3 ADD MSTORE PUSH1 0x44 DUP2 ADD DUP3 SWAP1 MSTORE PUSH1 0x64 ADD PUSH2 0xEC1 JUMP JUMPDEST PUSH1 0x0 DUP1 DUP3 MLOAD PUSH1 0x41 SUB PUSH2 0x2FA7 JUMPI PUSH1 0x20 DUP4 ADD MLOAD PUSH1 0x40 DUP5 ADD MLOAD PUSH1 0x60 DUP6 ADD MLOAD PUSH1 0x0 BYTE PUSH2 0x2F9B DUP8 DUP3 DUP6 DUP6 PUSH2 0x3CAB JUMP JUMPDEST SWAP5 POP SWAP5 POP POP POP POP PUSH2 0x2FD8 JUMP JUMPDEST DUP3 MLOAD PUSH1 0x40 SUB PUSH2 0x2FD0 JUMPI PUSH1 0x20 DUP4 ADD MLOAD PUSH1 0x40 DUP5 ADD MLOAD PUSH2 0x2FC5 DUP7 DUP4 DUP4 PUSH2 0x3D98 JUMP JUMPDEST SWAP4 POP SWAP4 POP POP POP PUSH2 0x2FD8 JUMP JUMPDEST POP PUSH1 0x0 SWAP1 POP PUSH1 0x2 JUMPDEST SWAP3 POP SWAP3 SWAP1 POP JUMP JUMPDEST PUSH1 0x0 DUP2 PUSH1 0x4 DUP2 GT ISZERO PUSH2 0x2FF3 JUMPI PUSH2 0x2FF3 PUSH2 0x4C33 JUMP JUMPDEST SUB PUSH2 0x2FFB JUMPI POP JUMP JUMPDEST PUSH1 0x1 DUP2 PUSH1 0x4 DUP2 GT ISZERO PUSH2 0x300F JUMPI PUSH2 0x300F PUSH2 0x4C33 JUMP JUMPDEST SUB PUSH2 0x305C JUMPI PUSH1 0x40 MLOAD PUSH3 0x461BCD PUSH1 0xE5 SHL DUP2 MSTORE PUSH1 0x20 PUSH1 0x4 DUP3 ADD MSTORE PUSH1 0x18 PUSH1 0x24 DUP3 ADD MSTORE PUSH32 0x45434453413A20696E76616C6964207369676E61747572650000000000000000 PUSH1 0x44 DUP3 ADD MSTORE PUSH1 0x64 ADD PUSH2 0xEC1 JUMP JUMPDEST PUSH1 0x2 DUP2 PUSH1 0x4 DUP2 GT ISZERO PUSH2 0x3070 JUMPI PUSH2 0x3070 PUSH2 0x4C33 JUMP JUMPDEST SUB PUSH2 0x30BD JUMPI PUSH1 0x40 MLOAD PUSH3 0x461BCD PUSH1 0xE5 SHL DUP2 MSTORE PUSH1 0x20 PUSH1 0x4 DUP3 ADD MSTORE PUSH1 0x1F PUSH1 0x24 DUP3 ADD MSTORE PUSH32 0x45434453413A20696E76616C6964207369676E6174757265206C656E67746800 PUSH1 0x44 DUP3 ADD MSTORE PUSH1 0x64 ADD PUSH2 0xEC1 JUMP JUMPDEST PUSH1 0x3 DUP2 PUSH1 0x4 DUP2 GT ISZERO PUSH2 0x30D1 JUMPI PUSH2 0x30D1 PUSH2 0x4C33 JUMP JUMPDEST SUB PUSH2 0x3144 JUMPI PUSH1 0x40 MLOAD PUSH3 0x461BCD PUSH1 0xE5 SHL DUP2 MSTORE PUSH1 0x20 PUSH1 0x4 DUP3 ADD MSTORE PUSH1 0x22 PUSH1 0x24 DUP3 ADD MSTORE PUSH32 0x45434453413A20696E76616C6964207369676E6174757265202773272076616C PUSH1 0x44 DUP3 ADD MSTORE PUSH32 0x7565000000000000000000000000000000000000000000000000000000000000 PUSH1 0x64 DUP3 ADD MSTORE PUSH1 0x84 ADD PUSH2 0xEC1 JUMP JUMPDEST PUSH1 0x4 DUP2 PUSH1 0x4 DUP2 GT ISZERO PUSH2 0x3158 JUMPI PUSH2 0x3158 PUSH2 0x4C33 JUMP JUMPDEST SUB PUSH2 0xB21 JUMPI PUSH1 0x40 MLOAD PUSH3 0x461BCD PUSH1 0xE5 SHL DUP2 MSTORE PUSH1 0x20 PUSH1 0x4 DUP3 ADD MSTORE PUSH1 0x22 PUSH1 0x24 DUP3 ADD MSTORE PUSH32 0x45434453413A20696E76616C6964207369676E6174757265202776272076616C PUSH1 0x44 DUP3 ADD MSTORE PUSH32 0x7565000000000000000000000000000000000000000000000000000000000000 PUSH1 0x64 DUP3 ADD MSTORE PUSH1 0x84 ADD PUSH2 0xEC1 JUMP JUMPDEST PUSH1 0x0 PUSH2 0x31D6 DUP4 PUSH2 0x2001 JUMP JUMPDEST DUP1 SLOAD SWAP1 SWAP2 POP PUSH1 0x1 PUSH1 0x1 PUSH1 0xA0 SHL SUB AND PUSH2 0x31ED JUMPI POP POP POP JUMP JUMPDEST DUP1 SLOAD PUSH1 0x0 SWAP1 PUSH1 0x1 PUSH1 0x1 PUSH1 0xA0 SHL SUB DUP6 DUP2 AND SWAP2 AND EQ PUSH2 0x3223 JUMPI DUP2 SLOAD PUSH2 0x321E SWAP1 PUSH2 0x2DC0 SWAP1 DUP7 SWAP1 PUSH1 0x1 PUSH1 0x1 PUSH1 0xA0 SHL SUB AND PUSH2 0x2914 JUMP JUMPDEST PUSH2 0x3225 JUMP JUMPDEST DUP3 JUMPDEST SWAP1 POP DUP2 PUSH1 0x4 ADD SLOAD TIMESTAMP LT PUSH2 0x324E JUMPI PUSH1 0x0 PUSH1 0x2 DUP4 ADD SSTORE PUSH1 0x3 DUP3 ADD SLOAD PUSH2 0x3248 SWAP1 TIMESTAMP PUSH2 0x55A4 JUMP JUMPDEST PUSH1 0x4 DUP4 ADD SSTORE JUMPDEST DUP1 DUP3 PUSH1 0x2 ADD PUSH1 0x0 DUP3 DUP3 SLOAD PUSH2 0x3262 SWAP2 SWAP1 PUSH2 0x55A4 JUMP JUMPDEST SWAP1 SWAP2 SSTORE POP POP POP POP POP POP JUMP JUMPDEST PUSH1 0xD SLOAD PUSH1 0x0 SUB PUSH2 0x327B JUMPI POP POP JUMP JUMPDEST PUSH2 0x3286 PUSH1 0xD SLOAD PUSH2 0x3DEA JUMP JUMPDEST POP POP PUSH1 0x0 PUSH1 0xD SSTORE JUMP JUMPDEST PUSH1 0x5 SLOAD PUSH1 0x0 SUB PUSH2 0x32CB JUMPI PUSH1 0x40 MLOAD PUSH32 0x1F5B8FC600000000000000000000000000000000000000000000000000000000 DUP2 MSTORE PUSH1 0x4 ADD PUSH1 0x40 MLOAD DUP1 SWAP2 SUB SWAP1 REVERT JUMPDEST PUSH1 0x40 DUP1 MLOAD PUSH1 0x80 DUP2 ADD DUP3 MSTORE PUSH1 0x6 SLOAD DUP2 MSTORE PUSH1 0x7 SLOAD PUSH1 0x20 DUP3 ADD MSTORE PUSH1 0x8 SLOAD SWAP2 DUP2 ADD SWAP2 SWAP1 SWAP2 MSTORE PUSH1 0x9 SLOAD PUSH1 0x60 DUP3 ADD MSTORE PUSH1 0x0 GAS PUSH1 0x5 SLOAD PUSH2 0x3304 SWAP2 SWAP1 PUSH2 0x55B7 JUMP JUMPDEST SWAP1 POP PUSH1 0x0 PUSH2 0x3312 GASPRICE DUP4 PUSH2 0x53C9 JUMP JUMPDEST SWAP1 POP PUSH1 0x0 DUP4 PUSH1 0x40 ADD MLOAD PUSH1 0x0 EQ DUP1 PUSH2 0x332D JUMPI POP DUP4 PUSH1 0x40 ADD MLOAD DUP3 GT ISZERO JUMPDEST SWAP1 POP DUP1 PUSH2 0x3377 JUMPI DUP2 DUP5 PUSH1 0x40 ADD MLOAD PUSH1 0x40 MLOAD PUSH32 0xAF258EF200000000000000000000000000000000000000000000000000000000 DUP2 MSTORE PUSH1 0x4 ADD PUSH2 0xEC1 SWAP3 SWAP2 SWAP1 SWAP2 DUP3 MSTORE PUSH1 0x20 DUP3 ADD MSTORE PUSH1 0x40 ADD SWAP1 JUMP JUMPDEST PUSH1 0x0 PUSH1 0x5 SSTORE PUSH1 0x60 DUP5 ADD MLOAD ISZERO DUP1 ISZERO SWAP1 PUSH2 0x338F JUMPI POP PUSH1 0x0 DUP6 GT JUMPDEST ISZERO PUSH2 0x1C50 JUMPI PUSH1 0x0 PUSH2 0x3462 ADDRESS PUSH1 0x1 PUSH1 0x1 PUSH1 0xA0 SHL SUB AND PUSH4 0x4FD49EFD PUSH1 0x40 MLOAD DUP2 PUSH4 0xFFFFFFFF AND PUSH1 0xE0 SHL DUP2 MSTORE PUSH1 0x4 ADD PUSH1 0x20 PUSH1 0x40 MLOAD DUP1 DUP4 SUB DUP2 DUP7 GAS STATICCALL ISZERO DUP1 ISZERO PUSH2 0x33D7 JUMPI RETURNDATASIZE PUSH1 0x0 DUP1 RETURNDATACOPY RETURNDATASIZE PUSH1 0x0 REVERT JUMPDEST POP POP POP POP PUSH1 0x40 MLOAD RETURNDATASIZE PUSH1 0x1F NOT PUSH1 0x1F DUP3 ADD AND DUP3 ADD DUP1 PUSH1 0x40 MSTORE POP DUP2 ADD SWAP1 PUSH2 0x33FB SWAP2 SWAP1 PUSH2 0x55F9 JUMP JUMPDEST PUSH1 0x1 PUSH1 0x1 PUSH1 0xA0 SHL SUB AND PUSH4 0x17FCB39B PUSH1 0x40 MLOAD DUP2 PUSH4 0xFFFFFFFF AND PUSH1 0xE0 SHL DUP2 MSTORE PUSH1 0x4 ADD PUSH1 0x20 PUSH1 0x40 MLOAD DUP1 DUP4 SUB DUP2 DUP7 GAS STATICCALL ISZERO DUP1 ISZERO PUSH2 0x3438 JUMPI RETURNDATASIZE PUSH1 0x0 DUP1 RETURNDATACOPY RETURNDATASIZE PUSH1 0x0 REVERT JUMPDEST POP POP POP POP PUSH1 0x40 MLOAD RETURNDATASIZE PUSH1 0x1F NOT PUSH1 0x1F DUP3 ADD AND DUP3 ADD DUP1 PUSH1 0x40 MSTORE POP DUP2 ADD SWAP1 PUSH2 0x345C SWAP2 SWAP1 PUSH2 0x55F9 JUMP JUMPDEST DUP9 PUSH2 0x2914 JUMP JUMPDEST SWAP1 POP PUSH1 0x0 PUSH2 0x3470 DUP5 DUP4 PUSH2 0x3E1F JUMP JUMPDEST SWAP1 POP PUSH1 0x0 PUSH2 0x347E DUP3 DUP10 PUSH2 0x3EAA JUMP JUMPDEST SWAP1 POP DUP7 PUSH1 0x60 ADD MLOAD DUP2 GT ISZERO PUSH2 0x34CE JUMPI PUSH1 0x60 DUP8 ADD MLOAD PUSH1 0x40 MLOAD PUSH32 0x297747F00000000000000000000000000000000000000000000000000000000 DUP2 MSTORE PUSH2 0xEC1 SWAP2 DUP4 SWAP2 PUSH1 0x4 ADD SWAP2 DUP3 MSTORE PUSH1 0x20 DUP3 ADD MSTORE PUSH1 0x40 ADD SWAP1 JUMP JUMPDEST POP POP POP POP POP POP POP POP POP JUMP JUMPDEST PUSH1 0x40 MLOAD PUSH32 0x68F46C45A243A0E9065A97649FAF9A5AFE1692F2679E650C2F853B9CD734CC0E SWAP1 PUSH1 0x0 SWAP1 LOG1 POP POP JUMP JUMPDEST PUSH1 0x0 SLOAD PUSH2 0x100 SWAP1 DIV PUSH1 0xFF AND PUSH2 0x3571 JUMPI PUSH1 0x40 MLOAD PUSH3 0x461BCD PUSH1 0xE5 SHL DUP2 MSTORE PUSH1 0x20 PUSH1 0x4 DUP3 ADD MSTORE PUSH1 0x2B PUSH1 0x24 DUP3 ADD MSTORE PUSH32 0x496E697469616C697A61626C653A20636F6E7472616374206973206E6F742069 PUSH1 0x44 DUP3 ADD MSTORE PUSH11 0x6E697469616C697A696E67 PUSH1 0xA8 SHL PUSH1 0x64 DUP3 ADD MSTORE PUSH1 0x84 ADD PUSH2 0xEC1 JUMP JUMPDEST PUSH2 0x35DF DUP2 PUSH1 0x0 ADD MLOAD PUSH1 0x1 PUSH1 0x1 PUSH1 0xA0 SHL SUB AND PUSH4 0xD09EDF31 PUSH1 0x40 MLOAD DUP2 PUSH4 0xFFFFFFFF AND PUSH1 0xE0 SHL DUP2 MSTORE PUSH1 0x4 ADD PUSH1 0x20 PUSH1 0x40 MLOAD DUP1 DUP4 SUB DUP2 DUP7 GAS STATICCALL ISZERO DUP1 ISZERO PUSH2 0x35B6 JUMPI RETURNDATASIZE PUSH1 0x0 DUP1 RETURNDATACOPY RETURNDATASIZE PUSH1 0x0 REVERT JUMPDEST POP POP POP POP PUSH1 0x40 MLOAD RETURNDATASIZE PUSH1 0x1F NOT PUSH1 0x1F DUP3 ADD AND DUP3 ADD DUP1 PUSH1 0x40 MSTORE POP DUP2 ADD SWAP1 PUSH2 0x35DA SWAP2 SWAP1 PUSH2 0x55F9 JUMP JUMPDEST PUSH2 0x3F73 JUMP JUMPDEST PUSH2 0xB21 DUP2 PUSH2 0x3FE7 JUMP JUMPDEST PUSH1 0x0 SLOAD PUSH2 0x100 SWAP1 DIV PUSH1 0xFF AND PUSH2 0x3653 JUMPI PUSH1 0x40 MLOAD PUSH3 0x461BCD PUSH1 0xE5 SHL DUP2 MSTORE PUSH1 0x20 PUSH1 0x4 DUP3 ADD MSTORE PUSH1 0x2B PUSH1 0x24 DUP3 ADD MSTORE PUSH32 0x496E697469616C697A61626C653A20636F6E7472616374206973206E6F742069 PUSH1 0x44 DUP3 ADD MSTORE PUSH11 0x6E697469616C697A696E67 PUSH1 0xA8 SHL PUSH1 0x64 DUP3 ADD MSTORE PUSH1 0x84 ADD PUSH2 0xEC1 JUMP JUMPDEST PUSH2 0x365B PUSH2 0x409F JUMP JUMPDEST JUMP JUMPDEST PUSH1 0x0 SLOAD PUSH2 0x100 SWAP1 DIV PUSH1 0xFF AND PUSH2 0x36C8 JUMPI PUSH1 0x40 MLOAD PUSH3 0x461BCD PUSH1 0xE5 SHL DUP2 MSTORE PUSH1 0x20 PUSH1 0x4 DUP3 ADD MSTORE PUSH1 0x2B PUSH1 0x24 DUP3 ADD MSTORE PUSH32 0x496E697469616C697A61626C653A20636F6E7472616374206973206E6F742069 PUSH1 0x44 DUP3 ADD MSTORE PUSH11 0x6E697469616C697A696E67 PUSH1 0xA8 SHL PUSH1 0x64 DUP3 ADD MSTORE PUSH1 0x84 ADD PUSH2 0xEC1 JUMP JUMPDEST PUSH2 0xB21 DUP2 PUSH2 0x410A JUMP JUMPDEST PUSH1 0x0 SLOAD PUSH2 0x100 SWAP1 DIV PUSH1 0xFF AND PUSH2 0x373C JUMPI PUSH1 0x40 MLOAD PUSH3 0x461BCD PUSH1 0xE5 SHL DUP2 MSTORE PUSH1 0x20 PUSH1 0x4 DUP3 ADD MSTORE PUSH1 0x2B PUSH1 0x24 DUP3 ADD MSTORE PUSH32 0x496E697469616C697A61626C653A20636F6E7472616374206973206E6F742069 PUSH1 0x44 DUP3 ADD MSTORE PUSH11 0x6E697469616C697A696E67 PUSH1 0xA8 SHL PUSH1 0x64 DUP3 ADD MSTORE PUSH1 0x84 ADD PUSH2 0xEC1 JUMP JUMPDEST PUSH2 0xB21 DUP2 PUSH2 0x4191 JUMP JUMPDEST PUSH1 0x0 SLOAD PUSH2 0x100 SWAP1 DIV PUSH1 0xFF AND PUSH2 0x37B0 JUMPI PUSH1 0x40 MLOAD PUSH3 0x461BCD PUSH1 0xE5 SHL DUP2 MSTORE PUSH1 0x20 PUSH1 0x4 DUP3 ADD MSTORE PUSH1 0x2B PUSH1 0x24 DUP3 ADD MSTORE PUSH32 0x496E697469616C697A61626C653A20636F6E7472616374206973206E6F742069 PUSH1 0x44 DUP3 ADD MSTORE PUSH11 0x6E697469616C697A696E67 PUSH1 0xA8 SHL PUSH1 0x64 DUP3 ADD MSTORE PUSH1 0x84 ADD PUSH2 0xEC1 JUMP JUMPDEST PUSH2 0xB21 DUP2 PUSH2 0x4218 JUMP JUMPDEST PUSH1 0x0 SLOAD PUSH2 0x100 SWAP1 DIV PUSH1 0xFF AND PUSH2 0x3824 JUMPI PUSH1 0x40 MLOAD PUSH3 0x461BCD PUSH1 0xE5 SHL DUP2 MSTORE PUSH1 0x20 PUSH1 0x4 DUP3 ADD MSTORE PUSH1 0x2B PUSH1 0x24 DUP3 ADD MSTORE PUSH32 0x496E697469616C697A61626C653A20636F6E7472616374206973206E6F742069 PUSH1 0x44 DUP3 ADD MSTORE PUSH11 0x6E697469616C697A696E67 PUSH1 0xA8 SHL PUSH1 0x64 DUP3 ADD MSTORE PUSH1 0x84 ADD PUSH2 0xEC1 JUMP JUMPDEST PUSH2 0xB21 DUP2 PUSH2 0x42D8 JUMP JUMPDEST PUSH1 0x0 SLOAD PUSH2 0x100 SWAP1 DIV PUSH1 0xFF AND PUSH2 0x3898 JUMPI PUSH1 0x40 MLOAD PUSH3 0x461BCD PUSH1 0xE5 SHL DUP2 MSTORE PUSH1 0x20 PUSH1 0x4 DUP3 ADD MSTORE PUSH1 0x2B PUSH1 0x24 DUP3 ADD MSTORE PUSH32 0x496E697469616C697A61626C653A20636F6E7472616374206973206E6F742069 PUSH1 0x44 DUP3 ADD MSTORE PUSH11 0x6E697469616C697A696E67 PUSH1 0xA8 SHL PUSH1 0x64 DUP3 ADD MSTORE PUSH1 0x84 ADD PUSH2 0xEC1 JUMP JUMPDEST PUSH2 0xB21 DUP2 PUSH2 0x43C8 JUMP JUMPDEST PUSH1 0x0 SLOAD PUSH2 0x100 SWAP1 DIV PUSH1 0xFF AND PUSH2 0xB21 JUMPI PUSH1 0x40 MLOAD PUSH3 0x461BCD PUSH1 0xE5 SHL DUP2 MSTORE PUSH1 0x20 PUSH1 0x4 DUP3 ADD MSTORE PUSH1 0x2B PUSH1 0x24 DUP3 ADD MSTORE PUSH32 0x496E697469616C697A61626C653A20636F6E7472616374206973206E6F742069 PUSH1 0x44 DUP3 ADD MSTORE PUSH11 0x6E697469616C697A696E67 PUSH1 0xA8 SHL PUSH1 0x64 DUP3 ADD MSTORE PUSH1 0x84 ADD PUSH2 0xEC1 JUMP JUMPDEST PUSH1 0x0 PUSH2 0x3919 PUSH1 0x4 DUP4 PUSH2 0x5616 JUMP JUMPDEST ISZERO DUP1 ISZERO PUSH2 0x392F JUMPI POP PUSH2 0x392C PUSH1 0x64 DUP4 PUSH2 0x5616 JUMP JUMPDEST ISZERO ISZERO JUMPDEST DUP1 PUSH2 0xE13 JUMPI POP PUSH2 0x3941 PUSH2 0x190 DUP4 PUSH2 0x5616 JUMP JUMPDEST ISZERO SWAP3 SWAP2 POP POP JUMP JUMPDEST PUSH1 0x0 DUP1 PUSH1 0x1 PUSH1 0x0 SWAP1 SLOAD SWAP1 PUSH2 0x100 EXP SWAP1 DIV PUSH1 0x1 PUSH1 0x1 PUSH1 0xA0 SHL SUB AND PUSH1 0x1 PUSH1 0x1 PUSH1 0xA0 SHL SUB AND PUSH4 0x2630C12F PUSH1 0x40 MLOAD DUP2 PUSH4 0xFFFFFFFF AND PUSH1 0xE0 SHL DUP2 MSTORE PUSH1 0x4 ADD PUSH1 0x20 PUSH1 0x40 MLOAD DUP1 DUP4 SUB DUP2 DUP7 GAS STATICCALL ISZERO DUP1 ISZERO PUSH2 0x399E JUMPI RETURNDATASIZE PUSH1 0x0 DUP1 RETURNDATACOPY RETURNDATASIZE PUSH1 0x0 REVERT JUMPDEST POP POP POP POP PUSH1 0x40 MLOAD RETURNDATASIZE PUSH1 0x1F NOT PUSH1 0x1F DUP3 ADD AND DUP3 ADD DUP1 PUSH1 0x40 MSTORE POP DUP2 ADD SWAP1 PUSH2 0x39C2 SWAP2 SWAP1 PUSH2 0x55F9 JUMP JUMPDEST SWAP1 POP PUSH1 0x1 PUSH1 0x1 PUSH1 0xA0 SHL SUB DUP2 AND PUSH2 0x3A13 JUMPI PUSH1 0x1 SLOAD PUSH1 0x40 MLOAD PUSH32 0x38D2BAAE00000000000000000000000000000000000000000000000000000000 DUP2 MSTORE PUSH1 0x1 PUSH1 0x1 PUSH1 0xA0 SHL SUB SWAP1 SWAP2 AND PUSH1 0x4 DUP3 ADD MSTORE PUSH1 0x24 ADD PUSH2 0xEC1 JUMP JUMPDEST PUSH1 0x0 PUSH2 0x3A1D PUSH2 0x44B8 JUMP JUMPDEST SWAP1 POP DUP1 MLOAD PUSH1 0x0 EQ PUSH2 0x3AAE JUMPI DUP2 PUSH1 0x1 PUSH1 0x1 PUSH1 0xA0 SHL SUB AND PUSH4 0x355EFDD9 PUSH2 0x3A40 DUP8 PUSH2 0x4538 JUMP JUMPDEST PUSH2 0x3A49 DUP8 PUSH2 0x4538 JUMP JUMPDEST DUP5 PUSH1 0x40 MLOAD DUP5 PUSH4 0xFFFFFFFF AND PUSH1 0xE0 SHL DUP2 MSTORE PUSH1 0x4 ADD PUSH2 0x3A68 SWAP4 SWAP3 SWAP2 SWAP1 PUSH2 0x562A JUMP JUMPDEST PUSH1 0x20 PUSH1 0x40 MLOAD DUP1 DUP4 SUB DUP2 DUP7 GAS STATICCALL ISZERO DUP1 ISZERO PUSH2 0x3A85 JUMPI RETURNDATASIZE PUSH1 0x0 DUP1 RETURNDATACOPY RETURNDATASIZE PUSH1 0x0 REVERT JUMPDEST POP POP POP POP PUSH1 0x40 MLOAD RETURNDATASIZE PUSH1 0x1F NOT PUSH1 0x1F DUP3 ADD AND DUP3 ADD DUP1 PUSH1 0x40 MSTORE POP DUP2 ADD SWAP1 PUSH2 0x3AA9 SWAP2 SWAP1 PUSH2 0x532B JUMP JUMPDEST PUSH2 0x3B56 JUMP JUMPDEST DUP2 PUSH1 0x1 PUSH1 0x1 PUSH1 0xA0 SHL SUB AND PUSH4 0xAC41865A PUSH2 0x3AC6 DUP8 PUSH2 0x4538 JUMP JUMPDEST PUSH2 0x3ACF DUP8 PUSH2 0x4538 JUMP JUMPDEST PUSH1 0x40 MLOAD PUSH32 0xFFFFFFFF00000000000000000000000000000000000000000000000000000000 PUSH1 0xE0 DUP6 SWAP1 SHL AND DUP2 MSTORE PUSH1 0x1 PUSH1 0x1 PUSH1 0xA0 SHL SUB SWAP3 DUP4 AND PUSH1 0x4 DUP3 ADD MSTORE SWAP2 AND PUSH1 0x24 DUP3 ADD MSTORE PUSH1 0x44 ADD PUSH1 0x20 PUSH1 0x40 MLOAD DUP1 DUP4 SUB DUP2 DUP7 GAS STATICCALL ISZERO DUP1 ISZERO PUSH2 0x3B32 JUMPI RETURNDATASIZE PUSH1 0x0 DUP1 RETURNDATACOPY RETURNDATASIZE PUSH1 0x0 REVERT JUMPDEST POP POP POP POP PUSH1 0x40 MLOAD RETURNDATASIZE PUSH1 0x1F NOT PUSH1 0x1F DUP3 ADD AND DUP3 ADD DUP1 PUSH1 0x40 MSTORE POP DUP2 ADD SWAP1 PUSH2 0x3B56 SWAP2 SWAP1 PUSH2 0x532B JUMP JUMPDEST SWAP6 SWAP5 POP POP POP POP POP JUMP JUMPDEST PUSH1 0x2 SLOAD ISZERO PUSH2 0x949 JUMPI PUSH1 0x1 SLOAD PUSH1 0x2 SLOAD PUSH1 0x40 MLOAD PUSH32 0xEB056BBB00000000000000000000000000000000000000000000000000000000 DUP2 MSTORE PUSH1 0x4 DUP2 ADD SWAP2 SWAP1 SWAP2 MSTORE PUSH1 0x1 PUSH1 0x1 PUSH1 0xA0 SHL SUB DUP5 DUP2 AND PUSH1 0x24 DUP4 ADD MSTORE PUSH1 0x44 DUP3 ADD DUP5 SWAP1 MSTORE PUSH1 0x0 PUSH1 0x64 DUP4 ADD MSTORE SWAP1 SWAP2 AND SWAP1 PUSH4 0xEB056BBB SWAP1 PUSH1 0x84 ADD PUSH1 0x0 PUSH1 0x40 MLOAD DUP1 DUP4 SUB DUP2 PUSH1 0x0 DUP8 DUP1 EXTCODESIZE ISZERO DUP1 ISZERO PUSH2 0x3BE0 JUMPI PUSH1 0x0 DUP1 REVERT JUMPDEST POP GAS CALL ISZERO DUP1 ISZERO PUSH2 0x1C50 JUMPI RETURNDATASIZE PUSH1 0x0 DUP1 RETURNDATACOPY RETURNDATASIZE PUSH1 0x0 REVERT JUMPDEST PUSH1 0x0 DUP1 PUSH1 0x0 DUP1 PUSH2 0x3C03 DUP7 PUSH2 0x456C JUMP JUMPDEST SWAP2 SWAP5 POP SWAP3 POP SWAP1 POP PUSH1 0x0 PUSH2 0x3C16 DUP7 DUP5 PUSH2 0x55A4 JUMP JUMPDEST SWAP1 POP PUSH1 0x0 PUSH2 0x3C25 PUSH1 0xC DUP4 PUSH2 0x5616 JUMP JUMPDEST SWAP1 POP PUSH1 0x0 PUSH2 0x3C34 PUSH1 0xC DUP5 PUSH2 0x5590 JUMP JUMPDEST PUSH2 0x3C3E SWAP1 DUP8 PUSH2 0x55A4 JUMP JUMPDEST SWAP1 POP PUSH1 0x0 PUSH1 0x2 PUSH1 0xA SLOAD PUSH1 0xFF AND PUSH1 0x2 DUP2 GT ISZERO PUSH2 0x3C5B JUMPI PUSH2 0x3C5B PUSH2 0x4C33 JUMP JUMPDEST EQ PUSH2 0x3C66 JUMPI DUP5 PUSH2 0x3C70 JUMP JUMPDEST PUSH2 0x3C70 DUP3 DUP5 PUSH2 0x2745 JUMP JUMPDEST SWAP1 POP PUSH2 0x3C7E DUP11 DUP4 DUP6 DUP5 PUSH2 0x458B JUMP JUMPDEST SWAP11 SWAP10 POP POP POP POP POP POP POP POP POP POP JUMP JUMPDEST PUSH1 0x0 DUP1 PUSH1 0x0 PUSH2 0x3C9A TIMESTAMP PUSH2 0x456C JUMP JUMPDEST POP SWAP2 POP SWAP2 POP PUSH2 0x3B56 DUP6 DUP4 DUP4 DUP8 PUSH2 0x458B JUMP JUMPDEST PUSH1 0x0 DUP1 PUSH32 0x7FFFFFFFFFFFFFFFFFFFFFFFFFFFFFFF5D576E7357A4501DDFE92F46681B20A0 DUP4 GT ISZERO PUSH2 0x3CE2 JUMPI POP PUSH1 0x0 SWAP1 POP PUSH1 0x3 PUSH2 0x3D8F JUMP JUMPDEST DUP5 PUSH1 0xFF AND PUSH1 0x1B EQ ISZERO DUP1 ISZERO PUSH2 0x3CFA JUMPI POP DUP5 PUSH1 0xFF AND PUSH1 0x1C EQ ISZERO JUMPDEST ISZERO PUSH2 0x3D0B JUMPI POP PUSH1 0x0 SWAP1 POP PUSH1 0x4 PUSH2 0x3D8F JUMP JUMPDEST PUSH1 0x40 DUP1 MLOAD PUSH1 0x0 DUP1 DUP3 MSTORE PUSH1 0x20 DUP3 ADD DUP1 DUP5 MSTORE DUP10 SWAP1 MSTORE PUSH1 0xFF DUP9 AND SWAP3 DUP3 ADD SWAP3 SWAP1 SWAP3 MSTORE PUSH1 0x60 DUP2 ADD DUP7 SWAP1 MSTORE PUSH1 0x80 DUP2 ADD DUP6 SWAP1 MSTORE PUSH1 0x1 SWAP1 PUSH1 0xA0 ADD PUSH1 0x20 PUSH1 0x40 MLOAD PUSH1 0x20 DUP2 SUB SWAP1 DUP1 DUP5 SUB SWAP1 DUP6 GAS STATICCALL ISZERO DUP1 ISZERO PUSH2 0x3D5F JUMPI RETURNDATASIZE PUSH1 0x0 DUP1 RETURNDATACOPY RETURNDATASIZE PUSH1 0x0 REVERT JUMPDEST POP POP PUSH1 0x40 MLOAD PUSH1 0x1F NOT ADD MLOAD SWAP2 POP POP PUSH1 0x1 PUSH1 0x1 PUSH1 0xA0 SHL SUB DUP2 AND PUSH2 0x3D88 JUMPI PUSH1 0x0 PUSH1 0x1 SWAP3 POP SWAP3 POP POP PUSH2 0x3D8F JUMP JUMPDEST SWAP2 POP PUSH1 0x0 SWAP1 POP JUMPDEST SWAP5 POP SWAP5 SWAP3 POP POP POP JUMP JUMPDEST PUSH1 0x0 DUP1 PUSH32 0x7FFFFFFFFFFFFFFFFFFFFFFFFFFFFFFFFFFFFFFFFFFFFFFFFFFFFFFFFFFFFFFF DUP4 AND DUP2 PUSH2 0x3DCE PUSH1 0xFF DUP7 SWAP1 SHR PUSH1 0x1B PUSH2 0x55A4 JUMP JUMPDEST SWAP1 POP PUSH2 0x3DDC DUP8 DUP3 DUP9 DUP6 PUSH2 0x3CAB JUMP JUMPDEST SWAP4 POP SWAP4 POP POP POP SWAP4 POP SWAP4 SWAP2 POP POP JUMP JUMPDEST PUSH1 0xC DUP2 SWAP1 SSTORE PUSH1 0x40 MLOAD DUP2 DUP2 MSTORE PUSH32 0xF90744BEE56935EC5ACC9DE37B89C0C545298C667EE417BD9469E9C6836AD064 SWAP1 PUSH1 0x20 ADD PUSH2 0x17B8 JUMP JUMPDEST PUSH1 0x0 DUP3 DUP3 MUL DUP4 ISZERO DUP1 ISZERO SWAP1 PUSH2 0x3E42 JUMPI POP DUP3 DUP5 DUP3 DUP2 PUSH2 0x3E3E JUMPI PUSH2 0x3E3E PUSH2 0x5561 JUMP JUMPDEST DIV EQ ISZERO JUMPDEST ISZERO PUSH2 0x3E83 JUMPI PUSH1 0x40 MLOAD PUSH32 0xE8E4A4FA00000000000000000000000000000000000000000000000000000000 DUP2 MSTORE PUSH1 0x4 DUP2 ADD DUP6 SWAP1 MSTORE PUSH1 0x24 DUP2 ADD DUP5 SWAP1 MSTORE PUSH1 0x44 ADD PUSH2 0xEC1 JUMP JUMPDEST DUP1 ISZERO PUSH2 0x3EA0 JUMPI PUSH8 0xDE0B6B3A7640000 PUSH1 0x0 NOT DUP3 ADD DIV PUSH1 0x1 ADD PUSH2 0x2166 JUMP JUMPDEST PUSH1 0x0 SWAP5 SWAP4 POP POP POP POP JUMP JUMPDEST PUSH1 0x0 DUP2 PUSH1 0x0 SUB PUSH2 0x3EE6 JUMPI PUSH1 0x40 MLOAD PUSH32 0xB8A2F92100000000000000000000000000000000000000000000000000000000 DUP2 MSTORE PUSH1 0x4 ADD PUSH1 0x40 MLOAD DUP1 SWAP2 SUB SWAP1 REVERT JUMPDEST DUP3 PUSH1 0x0 SUB PUSH2 0x3EF6 JUMPI POP PUSH1 0x0 PUSH2 0xE13 JUMP JUMPDEST PUSH8 0xDE0B6B3A7640000 DUP4 DUP2 MUL SWAP1 DUP5 DUP3 DUP2 PUSH2 0x3F12 JUMPI PUSH2 0x3F12 PUSH2 0x5561 JUMP JUMPDEST DIV EQ PUSH2 0x3F54 JUMPI PUSH1 0x40 MLOAD PUSH32 0xEA7B49E600000000000000000000000000000000000000000000000000000000 DUP2 MSTORE PUSH1 0x4 DUP2 ADD DUP6 SWAP1 MSTORE PUSH1 0x24 DUP2 ADD DUP3 SWAP1 MSTORE PUSH1 0x44 ADD PUSH2 0xEC1 JUMP JUMPDEST DUP3 PUSH1 0x1 DUP3 SUB DUP2 PUSH2 0x3F66 JUMPI PUSH2 0x3F66 PUSH2 0x5561 JUMP JUMPDEST DIV PUSH1 0x1 ADD SWAP2 POP POP SWAP3 SWAP2 POP POP JUMP JUMPDEST PUSH1 0x0 SLOAD PUSH2 0x100 SWAP1 DIV PUSH1 0xFF AND PUSH2 0x3FDE JUMPI PUSH1 0x40 MLOAD PUSH3 0x461BCD PUSH1 0xE5 SHL DUP2 MSTORE PUSH1 0x20 PUSH1 0x4 DUP3 ADD MSTORE PUSH1 0x2B PUSH1 0x24 DUP3 ADD MSTORE PUSH32 0x496E697469616C697A61626C653A20636F6E7472616374206973206E6F742069 PUSH1 0x44 DUP3 ADD MSTORE PUSH11 0x6E697469616C697A696E67 PUSH1 0xA8 SHL PUSH1 0x64 DUP3 ADD MSTORE PUSH1 0x84 ADD PUSH2 0xEC1 JUMP JUMPDEST PUSH2 0xB21 DUP2 PUSH2 0x45B3 JUMP JUMPDEST PUSH1 0x0 SLOAD PUSH2 0x100 SWAP1 DIV PUSH1 0xFF AND PUSH2 0x4052 JUMPI PUSH1 0x40 MLOAD PUSH3 0x461BCD PUSH1 0xE5 SHL DUP2 MSTORE PUSH1 0x20 PUSH1 0x4 DUP3 ADD MSTORE PUSH1 0x2B PUSH1 0x24 DUP3 ADD MSTORE PUSH32 0x496E697469616C697A61626C653A20636F6E7472616374206973206E6F742069 PUSH1 0x44 DUP3 ADD MSTORE PUSH11 0x6E697469616C697A696E67 PUSH1 0xA8 SHL PUSH1 0x64 DUP3 ADD MSTORE PUSH1 0x84 ADD PUSH2 0xEC1 JUMP JUMPDEST DUP1 MLOAD PUSH1 0x1 DUP1 SLOAD PUSH32 0xFFFFFFFFFFFFFFFFFFFFFFFF0000000000000000000000000000000000000000 AND PUSH1 0x1 PUSH1 0x1 PUSH1 0xA0 SHL SUB SWAP1 SWAP3 AND SWAP2 SWAP1 SWAP2 OR SWAP1 SSTORE PUSH1 0x20 DUP2 ADD MLOAD PUSH1 0x40 DUP3 ADD MLOAD PUSH2 0xB21 SWAP2 SWAP1 PUSH2 0x1DF9 JUMP JUMPDEST PUSH1 0x0 SLOAD PUSH2 0x100 SWAP1 DIV PUSH1 0xFF AND PUSH2 0x365B JUMPI PUSH1 0x40 MLOAD PUSH3 0x461BCD PUSH1 0xE5 SHL DUP2 MSTORE PUSH1 0x20 PUSH1 0x4 DUP3 ADD MSTORE PUSH1 0x2B PUSH1 0x24 DUP3 ADD MSTORE PUSH32 0x496E697469616C697A61626C653A20636F6E7472616374206973206E6F742069 PUSH1 0x44 DUP3 ADD MSTORE PUSH11 0x6E697469616C697A696E67 PUSH1 0xA8 SHL PUSH1 0x64 DUP3 ADD MSTORE PUSH1 0x84 ADD PUSH2 0xEC1 JUMP JUMPDEST PUSH1 0x0 SLOAD PUSH2 0x100 SWAP1 DIV PUSH1 0xFF AND PUSH2 0x4175 JUMPI PUSH1 0x40 MLOAD PUSH3 0x461BCD PUSH1 0xE5 SHL DUP2 MSTORE PUSH1 0x20 PUSH1 0x4 DUP3 ADD MSTORE PUSH1 0x2B PUSH1 0x24 DUP3 ADD MSTORE PUSH32 0x496E697469616C697A61626C653A20636F6E7472616374206973206E6F742069 PUSH1 0x44 DUP3 ADD MSTORE PUSH11 0x6E697469616C697A696E67 PUSH1 0xA8 SHL PUSH1 0x64 DUP3 ADD MSTORE PUSH1 0x84 ADD PUSH2 0xEC1 JUMP JUMPDEST PUSH2 0xB21 DUP2 PUSH1 0x0 ADD MLOAD DUP3 PUSH1 0x20 ADD MLOAD DUP4 PUSH1 0x40 ADD MLOAD DUP5 PUSH1 0x60 ADD MLOAD PUSH2 0x2035 JUMP JUMPDEST PUSH1 0x0 SLOAD PUSH2 0x100 SWAP1 DIV PUSH1 0xFF AND PUSH2 0x41FC JUMPI PUSH1 0x40 MLOAD PUSH3 0x461BCD PUSH1 0xE5 SHL DUP2 MSTORE PUSH1 0x20 PUSH1 0x4 DUP3 ADD MSTORE PUSH1 0x2B PUSH1 0x24 DUP3 ADD MSTORE PUSH32 0x496E697469616C697A61626C653A20636F6E7472616374206973206E6F742069 PUSH1 0x44 DUP3 ADD MSTORE PUSH11 0x6E697469616C697A696E67 PUSH1 0xA8 SHL PUSH1 0x64 DUP3 ADD MSTORE PUSH1 0x84 ADD PUSH2 0xEC1 JUMP JUMPDEST PUSH2 0xB21 DUP2 PUSH1 0x0 ADD MLOAD DUP3 PUSH1 0x20 ADD MLOAD DUP4 PUSH1 0x40 ADD MLOAD DUP5 PUSH1 0x60 ADD MLOAD PUSH2 0x11B6 JUMP JUMPDEST PUSH1 0x0 SLOAD PUSH2 0x100 SWAP1 DIV PUSH1 0xFF AND PUSH2 0x4283 JUMPI PUSH1 0x40 MLOAD PUSH3 0x461BCD PUSH1 0xE5 SHL DUP2 MSTORE PUSH1 0x20 PUSH1 0x4 DUP3 ADD MSTORE PUSH1 0x2B PUSH1 0x24 DUP3 ADD MSTORE PUSH32 0x496E697469616C697A61626C653A20636F6E7472616374206973206E6F742069 PUSH1 0x44 DUP3 ADD MSTORE PUSH11 0x6E697469616C697A696E67 PUSH1 0xA8 SHL PUSH1 0x64 DUP3 ADD MSTORE PUSH1 0x84 ADD PUSH2 0xEC1 JUMP JUMPDEST DUP1 MLOAD PUSH2 0x428E SWAP1 PUSH2 0x1766 JUMP JUMPDEST PUSH1 0x0 JUMPDEST DUP2 PUSH1 0x20 ADD MLOAD MLOAD DUP2 LT ISZERO PUSH2 0x949 JUMPI PUSH2 0x42C6 DUP3 PUSH1 0x20 ADD MLOAD DUP3 DUP2 MLOAD DUP2 LT PUSH2 0x42B7 JUMPI PUSH2 0x42B7 PUSH2 0x5260 JUMP JUMPDEST PUSH1 0x20 MUL PUSH1 0x20 ADD ADD MLOAD PUSH1 0x1 PUSH2 0x1553 JUMP JUMPDEST DUP1 PUSH2 0x42D0 DUP2 PUSH2 0x52BE JUMP JUMPDEST SWAP2 POP POP PUSH2 0x4291 JUMP JUMPDEST PUSH1 0x0 SLOAD PUSH2 0x100 SWAP1 DIV PUSH1 0xFF AND PUSH2 0x4343 JUMPI PUSH1 0x40 MLOAD PUSH3 0x461BCD PUSH1 0xE5 SHL DUP2 MSTORE PUSH1 0x20 PUSH1 0x4 DUP3 ADD MSTORE PUSH1 0x2B PUSH1 0x24 DUP3 ADD MSTORE PUSH32 0x496E697469616C697A61626C653A20636F6E7472616374206973206E6F742069 PUSH1 0x44 DUP3 ADD MSTORE PUSH11 0x6E697469616C697A696E67 PUSH1 0xA8 SHL PUSH1 0x64 DUP3 ADD MSTORE PUSH1 0x84 ADD PUSH2 0xEC1 JUMP JUMPDEST DUP1 MLOAD DUP1 MLOAD PUSH1 0x20 DUP3 ADD MLOAD PUSH1 0x40 DUP4 ADD MLOAD PUSH2 0x435C SWAP3 SWAP2 SWAP1 PUSH2 0x1FA5 JUMP JUMPDEST PUSH1 0x0 JUMPDEST DUP3 PUSH1 0x20 ADD MLOAD MLOAD DUP2 LT ISZERO PUSH2 0x8A8 JUMPI PUSH1 0x0 DUP4 PUSH1 0x20 ADD MLOAD DUP3 DUP2 MLOAD DUP2 LT PUSH2 0x4384 JUMPI PUSH2 0x4384 PUSH2 0x5260 JUMP JUMPDEST PUSH1 0x20 MUL PUSH1 0x20 ADD ADD MLOAD SWAP1 POP PUSH1 0x0 DUP2 PUSH1 0x20 ADD MLOAD SWAP1 POP PUSH2 0x43B3 DUP3 PUSH1 0x0 ADD MLOAD DUP3 PUSH1 0x0 ADD MLOAD DUP4 PUSH1 0x20 ADD MLOAD DUP5 PUSH1 0x40 ADD MLOAD PUSH2 0x1666 JUMP JUMPDEST POP POP DUP1 DUP1 PUSH2 0x43C0 SWAP1 PUSH2 0x52BE JUMP JUMPDEST SWAP2 POP POP PUSH2 0x435F JUMP JUMPDEST PUSH1 0x0 SLOAD PUSH2 0x100 SWAP1 DIV PUSH1 0xFF AND PUSH2 0x4433 JUMPI PUSH1 0x40 MLOAD PUSH3 0x461BCD PUSH1 0xE5 SHL DUP2 MSTORE PUSH1 0x20 PUSH1 0x4 DUP3 ADD MSTORE PUSH1 0x2B PUSH1 0x24 DUP3 ADD MSTORE PUSH32 0x496E697469616C697A61626C653A20636F6E7472616374206973206E6F742069 PUSH1 0x44 DUP3 ADD MSTORE PUSH11 0x6E697469616C697A696E67 PUSH1 0xA8 SHL PUSH1 0x64 DUP3 ADD MSTORE PUSH1 0x84 ADD PUSH2 0xEC1 JUMP JUMPDEST DUP1 MLOAD DUP1 MLOAD PUSH1 0x20 DUP3 ADD MLOAD PUSH1 0x40 DUP4 ADD MLOAD PUSH2 0x444C SWAP3 SWAP2 SWAP1 PUSH2 0x1ED0 JUMP JUMPDEST PUSH1 0x0 JUMPDEST DUP3 PUSH1 0x20 ADD MLOAD MLOAD DUP2 LT ISZERO PUSH2 0x8A8 JUMPI PUSH1 0x0 DUP4 PUSH1 0x20 ADD MLOAD DUP3 DUP2 MLOAD DUP2 LT PUSH2 0x4474 JUMPI PUSH2 0x4474 PUSH2 0x5260 JUMP JUMPDEST PUSH1 0x20 MUL PUSH1 0x20 ADD ADD MLOAD SWAP1 POP PUSH1 0x0 DUP2 PUSH1 0x20 ADD MLOAD SWAP1 POP PUSH2 0x44A3 DUP3 PUSH1 0x0 ADD MLOAD DUP3 PUSH1 0x0 ADD MLOAD DUP4 PUSH1 0x20 ADD MLOAD DUP5 PUSH1 0x40 ADD MLOAD PUSH2 0x17C3 JUMP JUMPDEST POP POP DUP1 DUP1 PUSH2 0x44B0 SWAP1 PUSH2 0x52BE JUMP JUMPDEST SWAP2 POP POP PUSH2 0x444F JUMP JUMPDEST PUSH1 0x60 PUSH1 0x0 PUSH2 0x44C4 PUSH2 0x465E JUMP JUMPDEST SWAP1 POP CALLDATASIZE DUP2 GT ISZERO PUSH2 0x44E2 JUMPI POP POP PUSH1 0x40 DUP1 MLOAD PUSH1 0x0 DUP2 MSTORE PUSH1 0x20 DUP2 ADD SWAP1 SWAP2 MSTORE SWAP1 JUMP JUMPDEST DUP1 PUSH8 0xFFFFFFFFFFFFFFFF DUP2 GT ISZERO PUSH2 0x44FB JUMPI PUSH2 0x44FB PUSH2 0x4934 JUMP JUMPDEST PUSH1 0x40 MLOAD SWAP1 DUP1 DUP3 MSTORE DUP1 PUSH1 0x1F ADD PUSH1 0x1F NOT AND PUSH1 0x20 ADD DUP3 ADD PUSH1 0x40 MSTORE DUP1 ISZERO PUSH2 0x4525 JUMPI PUSH1 0x20 DUP3 ADD DUP2 DUP1 CALLDATASIZE DUP4 CALLDATACOPY ADD SWAP1 POP JUMPDEST POP SWAP2 POP DUP1 PUSH1 0x20 DUP3 CALLDATASIZE SUB SUB PUSH1 0x20 DUP5 ADD CALLDATACOPY POP SWAP1 JUMP JUMPDEST PUSH1 0x0 PUSH20 0xEEEEEEEEEEEEEEEEEEEEEEEEEEEEEEEEEEEEEEEE PUSH1 0x1 PUSH1 0x1 PUSH1 0xA0 SHL SUB DUP4 AND EQ PUSH2 0x4564 JUMPI DUP2 PUSH2 0xE13 JUMP JUMPDEST PUSH2 0xE13 PUSH2 0x4679 JUMP JUMPDEST PUSH1 0x0 DUP1 DUP1 PUSH2 0x457E PUSH3 0x15180 DUP6 DIV PUSH2 0x268B JUMP JUMPDEST SWAP2 SWAP7 SWAP1 SWAP6 POP SWAP1 SWAP4 POP SWAP2 POP POP JUMP JUMPDEST PUSH1 0x0 PUSH2 0x3B56 DUP5 DUP5 DUP5 PUSH2 0x459C DUP10 PUSH2 0x4705 JUMP JUMPDEST PUSH2 0x45A5 DUP11 PUSH2 0x4723 JUMP JUMPDEST PUSH2 0x45AE DUP12 PUSH2 0x473F JUMP JUMPDEST PUSH2 0x474C JUMP JUMPDEST PUSH1 0x0 SLOAD PUSH2 0x100 SWAP1 DIV PUSH1 0xFF AND PUSH2 0x461E JUMPI PUSH1 0x40 MLOAD PUSH3 0x461BCD PUSH1 0xE5 SHL DUP2 MSTORE PUSH1 0x20 PUSH1 0x4 DUP3 ADD MSTORE PUSH1 0x2B PUSH1 0x24 DUP3 ADD MSTORE PUSH32 0x496E697469616C697A61626C653A20636F6E7472616374206973206E6F742069 PUSH1 0x44 DUP3 ADD MSTORE PUSH11 0x6E697469616C697A696E67 PUSH1 0xA8 SHL PUSH1 0x64 DUP3 ADD MSTORE PUSH1 0x84 ADD PUSH2 0xEC1 JUMP JUMPDEST PUSH1 0x0 DUP1 SLOAD PUSH1 0x1 PUSH1 0x1 PUSH1 0xA0 SHL SUB SWAP1 SWAP3 AND PUSH3 0x10000 MUL PUSH32 0xFFFFFFFFFFFFFFFFFFFF0000000000000000000000000000000000000000FFFF SWAP1 SWAP3 AND SWAP2 SWAP1 SWAP2 OR SWAP1 SSTORE JUMP JUMPDEST PUSH1 0x0 PUSH1 0x24 CALLDATASIZE LT ISZERO PUSH2 0x466F JUMPI POP PUSH1 0x0 SWAP1 JUMP JUMPDEST POP PUSH1 0x1F NOT CALLDATASIZE ADD CALLDATALOAD SWAP1 JUMP JUMPDEST PUSH1 0x1 SLOAD PUSH1 0x40 DUP1 MLOAD PUSH32 0x17FCB39B00000000000000000000000000000000000000000000000000000000 DUP2 MSTORE SWAP1 MLOAD PUSH1 0x0 SWAP3 PUSH1 0x1 PUSH1 0x1 PUSH1 0xA0 SHL SUB AND SWAP2 PUSH4 0x17FCB39B SWAP2 PUSH1 0x4 DUP1 DUP4 ADD SWAP3 PUSH1 0x20 SWAP3 SWAP2 SWAP1 DUP3 SWAP1 SUB ADD DUP2 DUP7 GAS STATICCALL ISZERO DUP1 ISZERO PUSH2 0x46DC JUMPI RETURNDATASIZE PUSH1 0x0 DUP1 RETURNDATACOPY RETURNDATASIZE PUSH1 0x0 REVERT JUMPDEST POP POP POP POP PUSH1 0x40 MLOAD RETURNDATASIZE PUSH1 0x1F NOT PUSH1 0x1F DUP3 ADD AND DUP3 ADD DUP1 PUSH1 0x40 MSTORE POP DUP2 ADD SWAP1 PUSH2 0x4700 SWAP2 SWAP1 PUSH2 0x55F9 JUMP JUMPDEST SWAP1 POP SWAP1 JUMP JUMPDEST PUSH1 0x0 DUP1 PUSH2 0x4715 PUSH3 0x15180 DUP5 PUSH2 0x5616 JUMP JUMPDEST SWAP1 POP PUSH2 0x10BD PUSH2 0xE10 DUP3 PUSH2 0x5590 JUMP JUMPDEST PUSH1 0x0 DUP1 PUSH2 0x4732 PUSH2 0xE10 DUP5 PUSH2 0x5616 JUMP JUMPDEST SWAP1 POP PUSH2 0x10BD PUSH1 0x3C DUP3 PUSH2 0x5590 JUMP JUMPDEST PUSH1 0x0 PUSH2 0xE13 PUSH1 0x3C DUP4 PUSH2 0x5616 JUMP JUMPDEST PUSH1 0x0 DUP2 PUSH2 0x475A PUSH1 0x3C DUP6 PUSH2 0x53C9 JUMP JUMPDEST PUSH2 0x4766 PUSH2 0xE10 DUP8 PUSH2 0x53C9 JUMP JUMPDEST PUSH3 0x15180 PUSH2 0x4775 DUP12 DUP12 DUP12 PUSH2 0x47A8 JUMP JUMPDEST PUSH2 0x477F SWAP2 SWAP1 PUSH2 0x53C9 JUMP JUMPDEST PUSH2 0x4789 SWAP2 SWAP1 PUSH2 0x55A4 JUMP JUMPDEST PUSH2 0x4793 SWAP2 SWAP1 PUSH2 0x55A4 JUMP JUMPDEST PUSH2 0x479D SWAP2 SWAP1 PUSH2 0x55A4 JUMP JUMPDEST SWAP8 SWAP7 POP POP POP POP POP POP POP JUMP JUMPDEST PUSH1 0x0 PUSH2 0x7B2 DUP5 LT ISZERO PUSH2 0x47B9 JUMPI PUSH1 0x0 DUP1 REVERT JUMPDEST DUP4 DUP4 DUP4 PUSH1 0x0 PUSH3 0x253D8C PUSH1 0x4 PUSH1 0x64 PUSH1 0xC PUSH2 0x47D3 PUSH1 0xE DUP9 PUSH2 0x5656 JUMP JUMPDEST PUSH2 0x47DD SWAP2 SWAP1 PUSH2 0x5676 JUMP JUMPDEST PUSH2 0x47E9 DUP9 PUSH2 0x1324 PUSH2 0x56C0 JUMP JUMPDEST PUSH2 0x47F3 SWAP2 SWAP1 PUSH2 0x56C0 JUMP JUMPDEST PUSH2 0x47FD SWAP2 SWAP1 PUSH2 0x5676 JUMP JUMPDEST PUSH2 0x4808 SWAP1 PUSH1 0x3 PUSH2 0x56E8 JUMP JUMPDEST PUSH2 0x4812 SWAP2 SWAP1 PUSH2 0x5676 JUMP JUMPDEST PUSH1 0xC DUP1 PUSH2 0x4820 PUSH1 0xE DUP9 PUSH2 0x5656 JUMP JUMPDEST PUSH2 0x482A SWAP2 SWAP1 PUSH2 0x5676 JUMP JUMPDEST PUSH2 0x4835 SWAP1 PUSH1 0xC PUSH2 0x56E8 JUMP JUMPDEST PUSH2 0x4840 PUSH1 0x2 DUP9 PUSH2 0x5656 JUMP JUMPDEST PUSH2 0x484A SWAP2 SWAP1 PUSH2 0x5656 JUMP JUMPDEST PUSH2 0x4856 SWAP1 PUSH2 0x16F PUSH2 0x56E8 JUMP JUMPDEST PUSH2 0x4860 SWAP2 SWAP1 PUSH2 0x5676 JUMP JUMPDEST PUSH1 0x4 PUSH1 0xC PUSH2 0x486F PUSH1 0xE DUP10 PUSH2 0x5656 JUMP JUMPDEST PUSH2 0x4879 SWAP2 SWAP1 PUSH2 0x5676 JUMP JUMPDEST PUSH2 0x4885 DUP10 PUSH2 0x12C0 PUSH2 0x56C0 JUMP JUMPDEST PUSH2 0x488F SWAP2 SWAP1 PUSH2 0x56C0 JUMP JUMPDEST PUSH2 0x489B SWAP1 PUSH2 0x5B5 PUSH2 0x56E8 JUMP JUMPDEST PUSH2 0x48A5 SWAP2 SWAP1 PUSH2 0x5676 JUMP JUMPDEST PUSH2 0x48B1 PUSH2 0x7D4B DUP8 PUSH2 0x5656 JUMP JUMPDEST PUSH2 0x48BB SWAP2 SWAP1 PUSH2 0x56C0 JUMP JUMPDEST PUSH2 0x48C5 SWAP2 SWAP1 PUSH2 0x56C0 JUMP JUMPDEST PUSH2 0x48CF SWAP2 SWAP1 PUSH2 0x5656 JUMP JUMPDEST PUSH2 0x48D9 SWAP2 SWAP1 PUSH2 0x5656 JUMP JUMPDEST SWAP9 SWAP8 POP POP POP POP POP POP POP POP JUMP JUMPDEST DUP1 CALLDATALOAD PUSH1 0xFF DUP2 AND DUP2 EQ PUSH2 0x48F6 JUMPI PUSH1 0x0 DUP1 REVERT JUMPDEST SWAP2 SWAP1 POP JUMP JUMPDEST PUSH1 0x0 DUP1 PUSH1 0x0 DUP1 PUSH1 0x80 DUP6 DUP8 SUB SLT ISZERO PUSH2 0x4911 JUMPI PUSH1 0x0 DUP1 REVERT JUMPDEST PUSH2 0x491A DUP6 PUSH2 0x48E5 JUMP JUMPDEST SWAP7 PUSH1 0x20 DUP7 ADD CALLDATALOAD SWAP7 POP PUSH1 0x40 DUP7 ADD CALLDATALOAD SWAP6 PUSH1 0x60 ADD CALLDATALOAD SWAP5 POP SWAP3 POP POP POP JUMP JUMPDEST PUSH32 0x4E487B7100000000000000000000000000000000000000000000000000000000 PUSH1 0x0 MSTORE PUSH1 0x41 PUSH1 0x4 MSTORE PUSH1 0x24 PUSH1 0x0 REVERT JUMPDEST PUSH1 0x40 MLOAD PUSH1 0x80 DUP2 ADD PUSH8 0xFFFFFFFFFFFFFFFF DUP2 GT DUP3 DUP3 LT OR ISZERO PUSH2 0x4986 JUMPI PUSH2 0x4986 PUSH2 0x4934 JUMP JUMPDEST PUSH1 0x40 MSTORE SWAP1 JUMP JUMPDEST PUSH1 0x40 DUP1 MLOAD SWAP1 DUP2 ADD PUSH8 0xFFFFFFFFFFFFFFFF DUP2 GT DUP3 DUP3 LT OR ISZERO PUSH2 0x4986 JUMPI PUSH2 0x4986 PUSH2 0x4934 JUMP JUMPDEST PUSH1 0x40 MLOAD PUSH1 0xC0 DUP2 ADD PUSH8 0xFFFFFFFFFFFFFFFF DUP2 GT DUP3 DUP3 LT OR ISZERO PUSH2 0x4986 JUMPI PUSH2 0x4986 PUSH2 0x4934 JUMP JUMPDEST PUSH1 0x40 MLOAD PUSH1 0x1F DUP3 ADD PUSH1 0x1F NOT AND DUP2 ADD PUSH8 0xFFFFFFFFFFFFFFFF DUP2 GT DUP3 DUP3 LT OR ISZERO PUSH2 0x49FB JUMPI PUSH2 0x49FB PUSH2 0x4934 JUMP JUMPDEST PUSH1 0x40 MSTORE SWAP2 SWAP1 POP JUMP JUMPDEST PUSH1 0x0 PUSH8 0xFFFFFFFFFFFFFFFF DUP3 GT ISZERO PUSH2 0x4A1D JUMPI PUSH2 0x4A1D PUSH2 0x4934 JUMP JUMPDEST POP PUSH1 0x5 SHL PUSH1 0x20 ADD SWAP1 JUMP JUMPDEST PUSH1 0x1 PUSH1 0x1 PUSH1 0xA0 SHL SUB DUP2 AND DUP2 EQ PUSH2 0xB21 JUMPI PUSH1 0x0 DUP1 REVERT JUMPDEST DUP1 CALLDATALOAD PUSH2 0x48F6 DUP2 PUSH2 0x4A27 JUMP JUMPDEST PUSH1 0x0 DUP3 PUSH1 0x1F DUP4 ADD SLT PUSH2 0x4A58 JUMPI PUSH1 0x0 DUP1 REVERT JUMPDEST DUP2 CALLDATALOAD PUSH1 0x20 PUSH2 0x4A6D PUSH2 0x4A68 DUP4 PUSH2 0x4A03 JUMP JUMPDEST PUSH2 0x49D2 JUMP JUMPDEST DUP3 DUP2 MSTORE PUSH1 0x5 SWAP3 SWAP1 SWAP3 SHL DUP5 ADD DUP2 ADD SWAP2 DUP2 DUP2 ADD SWAP1 DUP7 DUP5 GT ISZERO PUSH2 0x4A8C JUMPI PUSH1 0x0 DUP1 REVERT JUMPDEST DUP3 DUP7 ADD JUMPDEST DUP5 DUP2 LT ISZERO PUSH2 0x4AB0 JUMPI DUP1 CALLDATALOAD PUSH2 0x4AA3 DUP2 PUSH2 0x4A27 JUMP JUMPDEST DUP4 MSTORE SWAP2 DUP4 ADD SWAP2 DUP4 ADD PUSH2 0x4A90 JUMP JUMPDEST POP SWAP7 SWAP6 POP POP POP POP POP POP JUMP JUMPDEST DUP1 ISZERO ISZERO DUP2 EQ PUSH2 0xB21 JUMPI PUSH1 0x0 DUP1 REVERT JUMPDEST PUSH1 0x0 DUP1 PUSH1 0x40 DUP4 DUP6 SUB SLT ISZERO PUSH2 0x4ADC JUMPI PUSH1 0x0 DUP1 REVERT JUMPDEST DUP3 CALLDATALOAD PUSH8 0xFFFFFFFFFFFFFFFF DUP1 DUP3 GT ISZERO PUSH2 0x4AF4 JUMPI PUSH1 0x0 DUP1 REVERT JUMPDEST PUSH2 0x4B00 DUP7 DUP4 DUP8 ADD PUSH2 0x4A47 JUMP JUMPDEST SWAP4 POP PUSH1 0x20 SWAP2 POP DUP2 DUP6 ADD CALLDATALOAD DUP2 DUP2 GT ISZERO PUSH2 0x4B17 JUMPI PUSH1 0x0 DUP1 REVERT JUMPDEST DUP6 ADD SWAP1 POP PUSH1 0x1F DUP2 ADD DUP7 SGT PUSH2 0x4B2A JUMPI PUSH1 0x0 DUP1 REVERT JUMPDEST DUP1 CALLDATALOAD PUSH2 0x4B38 PUSH2 0x4A68 DUP3 PUSH2 0x4A03 JUMP JUMPDEST DUP2 DUP2 MSTORE PUSH1 0x5 SWAP2 SWAP1 SWAP2 SHL DUP3 ADD DUP4 ADD SWAP1 DUP4 DUP2 ADD SWAP1 DUP9 DUP4 GT ISZERO PUSH2 0x4B57 JUMPI PUSH1 0x0 DUP1 REVERT JUMPDEST SWAP3 DUP5 ADD SWAP3 JUMPDEST DUP3 DUP5 LT ISZERO PUSH2 0x4B7E JUMPI DUP4 CALLDATALOAD PUSH2 0x4B6F DUP2 PUSH2 0x4ABB JUMP JUMPDEST DUP3 MSTORE SWAP3 DUP5 ADD SWAP3 SWAP1 DUP5 ADD SWAP1 PUSH2 0x4B5C JUMP JUMPDEST DUP1 SWAP6 POP POP POP POP POP POP SWAP3 POP SWAP3 SWAP1 POP JUMP JUMPDEST PUSH1 0x0 PUSH1 0x20 DUP3 DUP5 SUB SLT ISZERO PUSH2 0x4B9F JUMPI PUSH1 0x0 DUP1 REVERT JUMPDEST DUP2 CALLDATALOAD PUSH2 0x10BD DUP2 PUSH2 0x4A27 JUMP JUMPDEST PUSH1 0x0 DUP1 PUSH1 0x0 DUP1 PUSH1 0x80 DUP6 DUP8 SUB SLT ISZERO PUSH2 0x4BC0 JUMPI PUSH1 0x0 DUP1 REVERT JUMPDEST DUP5 CALLDATALOAD PUSH2 0x4BCB DUP2 PUSH2 0x4A27 JUMP JUMPDEST SWAP4 POP PUSH1 0x20 DUP6 ADD CALLDATALOAD PUSH2 0x4BDB DUP2 PUSH2 0x4A27 JUMP JUMPDEST SWAP4 SWAP7 SWAP4 SWAP6 POP POP POP POP PUSH1 0x40 DUP3 ADD CALLDATALOAD SWAP2 PUSH1 0x60 ADD CALLDATALOAD SWAP1 JUMP JUMPDEST PUSH1 0x0 PUSH1 0x20 DUP3 DUP5 SUB SLT ISZERO PUSH2 0x4C02 JUMPI PUSH1 0x0 DUP1 REVERT JUMPDEST POP CALLDATALOAD SWAP2 SWAP1 POP JUMP JUMPDEST DUP1 CALLDATALOAD PUSH1 0x2 DUP2 LT PUSH2 0x48F6 JUMPI PUSH1 0x0 DUP1 REVERT JUMPDEST PUSH1 0x0 PUSH1 0x20 DUP3 DUP5 SUB SLT ISZERO PUSH2 0x4C2A JUMPI PUSH1 0x0 DUP1 REVERT JUMPDEST PUSH2 0x10BD DUP3 PUSH2 0x4C09 JUMP JUMPDEST PUSH32 0x4E487B7100000000000000000000000000000000000000000000000000000000 PUSH1 0x0 MSTORE PUSH1 0x21 PUSH1 0x4 MSTORE PUSH1 0x24 PUSH1 0x0 REVERT JUMPDEST PUSH1 0x20 DUP2 ADD PUSH1 0x2 DUP4 LT PUSH2 0x4C9D JUMPI PUSH32 0x4E487B7100000000000000000000000000000000000000000000000000000000 PUSH1 0x0 MSTORE PUSH1 0x21 PUSH1 0x4 MSTORE PUSH1 0x24 PUSH1 0x0 REVERT JUMPDEST SWAP2 SWAP1 MSTORE SWAP1 JUMP JUMPDEST PUSH1 0x0 DUP2 MLOAD DUP1 DUP5 MSTORE PUSH1 0x0 JUMPDEST DUP2 DUP2 LT ISZERO PUSH2 0x4CC9 JUMPI PUSH1 0x20 DUP2 DUP6 ADD DUP2 ADD MLOAD DUP7 DUP4 ADD DUP3 ADD MSTORE ADD PUSH2 0x4CAD JUMP JUMPDEST POP PUSH1 0x0 PUSH1 0x20 DUP3 DUP7 ADD ADD MSTORE PUSH1 0x20 PUSH1 0x1F NOT PUSH1 0x1F DUP4 ADD AND DUP6 ADD ADD SWAP2 POP POP SWAP3 SWAP2 POP POP JUMP JUMPDEST PUSH1 0x20 DUP2 MSTORE PUSH1 0x0 PUSH2 0x10BD PUSH1 0x20 DUP4 ADD DUP5 PUSH2 0x4CA3 JUMP JUMPDEST PUSH1 0x0 PUSH8 0xFFFFFFFFFFFFFFFF DUP4 GT ISZERO PUSH2 0x4D16 JUMPI PUSH2 0x4D16 PUSH2 0x4934 JUMP JUMPDEST PUSH2 0x4D29 PUSH1 0x20 PUSH1 0x1F NOT PUSH1 0x1F DUP7 ADD AND ADD PUSH2 0x49D2 JUMP JUMPDEST SWAP1 POP DUP3 DUP2 MSTORE DUP4 DUP4 DUP4 ADD GT ISZERO PUSH2 0x4D3D JUMPI PUSH1 0x0 DUP1 REVERT JUMPDEST DUP3 DUP3 PUSH1 0x20 DUP4 ADD CALLDATACOPY PUSH1 0x0 PUSH1 0x20 DUP5 DUP4 ADD ADD MSTORE SWAP4 SWAP3 POP POP POP JUMP JUMPDEST PUSH1 0x0 DUP3 PUSH1 0x1F DUP4 ADD SLT PUSH2 0x4D65 JUMPI PUSH1 0x0 DUP1 REVERT JUMPDEST PUSH2 0x10BD DUP4 DUP4 CALLDATALOAD PUSH1 0x20 DUP6 ADD PUSH2 0x4CFC JUMP JUMPDEST PUSH1 0x0 PUSH1 0x20 DUP3 DUP5 SUB SLT ISZERO PUSH2 0x4D86 JUMPI PUSH1 0x0 DUP1 REVERT JUMPDEST DUP2 CALLDATALOAD PUSH8 0xFFFFFFFFFFFFFFFF DUP2 GT ISZERO PUSH2 0x4D9D JUMPI PUSH1 0x0 DUP1 REVERT JUMPDEST PUSH2 0x2166 DUP5 DUP3 DUP6 ADD PUSH2 0x4D54 JUMP JUMPDEST PUSH1 0x0 DUP1 PUSH1 0x0 DUP1 PUSH1 0x80 DUP6 DUP8 SUB SLT ISZERO PUSH2 0x4DBF JUMPI PUSH1 0x0 DUP1 REVERT JUMPDEST DUP5 CALLDATALOAD PUSH2 0x4DCA DUP2 PUSH2 0x4A27 JUMP JUMPDEST SWAP4 POP PUSH1 0x20 DUP6 ADD CALLDATALOAD SWAP3 POP PUSH1 0x40 DUP6 ADD CALLDATALOAD PUSH2 0x4DE1 DUP2 PUSH2 0x4A27 JUMP JUMPDEST SWAP2 POP PUSH1 0x60 DUP6 ADD CALLDATALOAD PUSH8 0xFFFFFFFFFFFFFFFF DUP2 GT ISZERO PUSH2 0x4DFD JUMPI PUSH1 0x0 DUP1 REVERT JUMPDEST DUP6 ADD PUSH1 0x1F DUP2 ADD DUP8 SGT PUSH2 0x4E0E JUMPI PUSH1 0x0 DUP1 REVERT JUMPDEST PUSH2 0x4E1D DUP8 DUP3 CALLDATALOAD PUSH1 0x20 DUP5 ADD PUSH2 0x4CFC JUMP JUMPDEST SWAP2 POP POP SWAP3 SWAP6 SWAP2 SWAP5 POP SWAP3 POP JUMP JUMPDEST PUSH1 0x0 DUP1 PUSH1 0x40 DUP4 DUP6 SUB SLT ISZERO PUSH2 0x4E3C JUMPI PUSH1 0x0 DUP1 REVERT JUMPDEST POP POP DUP1 CALLDATALOAD SWAP3 PUSH1 0x20 SWAP1 SWAP2 ADD CALLDATALOAD SWAP2 POP JUMP JUMPDEST PUSH1 0x0 DUP1 PUSH1 0x0 PUSH1 0x60 DUP5 DUP7 SUB SLT ISZERO PUSH2 0x4E60 JUMPI PUSH1 0x0 DUP1 REVERT JUMPDEST DUP4 CALLDATALOAD PUSH2 0x4E6B DUP2 PUSH2 0x4A27 JUMP JUMPDEST SWAP6 PUSH1 0x20 DUP6 ADD CALLDATALOAD SWAP6 POP PUSH1 0x40 SWAP1 SWAP5 ADD CALLDATALOAD SWAP4 SWAP3 POP POP POP JUMP JUMPDEST PUSH1 0x0 DUP1 PUSH1 0x0 PUSH1 0x60 DUP5 DUP7 SUB SLT ISZERO PUSH2 0x4E95 JUMPI PUSH1 0x0 DUP1 REVERT JUMPDEST DUP4 CALLDATALOAD PUSH2 0x4EA0 DUP2 PUSH2 0x4A27 JUMP JUMPDEST SWAP3 POP PUSH1 0x20 DUP5 ADD CALLDATALOAD SWAP2 POP PUSH1 0x40 DUP5 ADD CALLDATALOAD PUSH2 0x4EB7 DUP2 PUSH2 0x4A27 JUMP JUMPDEST DUP1 SWAP2 POP POP SWAP3 POP SWAP3 POP SWAP3 JUMP JUMPDEST PUSH1 0x0 PUSH1 0x60 DUP3 DUP5 SUB SLT ISZERO PUSH2 0x4ED4 JUMPI PUSH1 0x0 DUP1 REVERT JUMPDEST PUSH1 0x40 MLOAD PUSH1 0x60 DUP2 ADD DUP2 DUP2 LT PUSH8 0xFFFFFFFFFFFFFFFF DUP3 GT OR ISZERO PUSH2 0x4EF7 JUMPI PUSH2 0x4EF7 PUSH2 0x4934 JUMP JUMPDEST PUSH1 0x40 MSTORE SWAP1 POP DUP1 DUP3 CALLDATALOAD PUSH2 0x4F08 DUP2 PUSH2 0x4A27 JUMP JUMPDEST DUP1 DUP3 MSTORE POP PUSH1 0x20 DUP4 ADD CALLDATALOAD PUSH1 0x20 DUP3 ADD MSTORE PUSH1 0x40 DUP4 ADD CALLDATALOAD PUSH1 0x40 DUP3 ADD MSTORE POP SWAP3 SWAP2 POP POP JUMP JUMPDEST PUSH1 0x0 PUSH1 0x80 DUP3 DUP5 SUB SLT ISZERO PUSH2 0x4F39 JUMPI PUSH1 0x0 DUP1 REVERT JUMPDEST PUSH2 0x4F41 PUSH2 0x4963 JUMP JUMPDEST SWAP1 POP DUP2 CALLDATALOAD DUP2 MSTORE PUSH1 0x20 DUP3 ADD CALLDATALOAD PUSH1 0x20 DUP3 ADD MSTORE PUSH1 0x40 DUP3 ADD CALLDATALOAD PUSH1 0x40 DUP3 ADD MSTORE PUSH1 0x60 DUP3 ADD CALLDATALOAD PUSH1 0x60 DUP3 ADD MSTORE SWAP3 SWAP2 POP POP JUMP JUMPDEST PUSH1 0x0 PUSH1 0x80 DUP3 DUP5 SUB SLT ISZERO PUSH2 0x4F7D JUMPI PUSH1 0x0 DUP1 REVERT JUMPDEST PUSH2 0x4F85 PUSH2 0x4963 JUMP JUMPDEST SWAP1 POP PUSH2 0x4F90 DUP3 PUSH2 0x48E5 JUMP JUMPDEST DUP2 MSTORE PUSH1 0x20 DUP3 ADD CALLDATALOAD PUSH1 0x20 DUP3 ADD MSTORE PUSH1 0x40 DUP3 ADD CALLDATALOAD PUSH1 0x40 DUP3 ADD MSTORE PUSH1 0x60 DUP3 ADD CALLDATALOAD PUSH1 0x60 DUP3 ADD MSTORE SWAP3 SWAP2 POP POP JUMP JUMPDEST PUSH1 0x0 PUSH1 0x40 DUP3 DUP5 SUB SLT ISZERO PUSH2 0x4FC8 JUMPI PUSH1 0x0 DUP1 REVERT JUMPDEST PUSH2 0x4FD0 PUSH2 0x498C JUMP JUMPDEST SWAP1 POP PUSH2 0x4FDB DUP3 PUSH2 0x4C09 JUMP JUMPDEST DUP2 MSTORE PUSH1 0x20 DUP3 ADD CALLDATALOAD PUSH8 0xFFFFFFFFFFFFFFFF DUP2 GT ISZERO PUSH2 0x4FF7 JUMPI PUSH1 0x0 DUP1 REVERT JUMPDEST PUSH2 0x5003 DUP5 DUP3 DUP6 ADD PUSH2 0x4A47 JUMP JUMPDEST PUSH1 0x20 DUP4 ADD MSTORE POP SWAP3 SWAP2 POP POP JUMP JUMPDEST PUSH1 0x0 PUSH1 0x80 DUP3 DUP5 SUB SLT ISZERO PUSH2 0x5021 JUMPI PUSH1 0x0 DUP1 REVERT JUMPDEST PUSH2 0x5029 PUSH2 0x498C JUMP JUMPDEST SWAP1 POP DUP2 CALLDATALOAD PUSH2 0x5036 DUP2 PUSH2 0x4A27 JUMP JUMPDEST DUP2 MSTORE PUSH2 0x5045 DUP4 PUSH1 0x20 DUP5 ADD PUSH2 0x4EC2 JUMP JUMPDEST PUSH1 0x20 DUP3 ADD MSTORE SWAP3 SWAP2 POP POP JUMP JUMPDEST PUSH1 0x0 PUSH1 0x80 DUP1 DUP4 DUP6 SUB SLT ISZERO PUSH2 0x5063 JUMPI PUSH1 0x0 DUP1 REVERT JUMPDEST PUSH2 0x506B PUSH2 0x498C JUMP JUMPDEST SWAP2 POP PUSH2 0x5077 DUP5 DUP5 PUSH2 0x4EC2 JUMP JUMPDEST DUP3 MSTORE PUSH1 0x60 DUP4 ADD CALLDATALOAD PUSH8 0xFFFFFFFFFFFFFFFF DUP2 GT ISZERO PUSH2 0x5093 JUMPI PUSH1 0x0 DUP1 REVERT JUMPDEST DUP4 ADD PUSH1 0x1F DUP2 ADD DUP6 SGT PUSH2 0x50A4 JUMPI PUSH1 0x0 DUP1 REVERT JUMPDEST DUP1 CALLDATALOAD PUSH1 0x20 PUSH2 0x50B4 PUSH2 0x4A68 DUP4 PUSH2 0x4A03 JUMP JUMPDEST DUP3 DUP2 MSTORE PUSH1 0x7 SWAP3 SWAP1 SWAP3 SHL DUP4 ADD DUP2 ADD SWAP2 DUP2 DUP2 ADD SWAP1 DUP9 DUP5 GT ISZERO PUSH2 0x50D3 JUMPI PUSH1 0x0 DUP1 REVERT JUMPDEST SWAP4 DUP3 ADD SWAP4 JUMPDEST DUP4 DUP6 LT ISZERO PUSH2 0x50F9 JUMPI PUSH2 0x50EA DUP10 DUP7 PUSH2 0x500F JUMP JUMPDEST DUP3 MSTORE SWAP4 DUP6 ADD SWAP4 SWAP1 DUP3 ADD SWAP1 PUSH2 0x50D8 JUMP JUMPDEST DUP1 DUP4 DUP9 ADD MSTORE POP POP POP POP POP POP SWAP3 SWAP2 POP POP JUMP JUMPDEST PUSH1 0x0 DUP1 PUSH1 0x0 PUSH1 0x60 DUP5 DUP7 SUB SLT ISZERO PUSH2 0x511F JUMPI PUSH1 0x0 DUP1 REVERT JUMPDEST DUP4 CALLDATALOAD PUSH8 0xFFFFFFFFFFFFFFFF DUP1 DUP3 GT ISZERO PUSH2 0x5137 JUMPI PUSH1 0x0 DUP1 REVERT JUMPDEST SWAP1 DUP6 ADD SWAP1 PUSH2 0x1C0 DUP3 DUP9 SUB SLT ISZERO PUSH2 0x514C JUMPI PUSH1 0x0 DUP1 REVERT JUMPDEST PUSH2 0x5154 PUSH2 0x49AF JUMP JUMPDEST PUSH2 0x515E DUP9 DUP5 PUSH2 0x4EC2 JUMP JUMPDEST DUP2 MSTORE PUSH2 0x516D DUP9 PUSH1 0x60 DUP6 ADD PUSH2 0x4F27 JUMP JUMPDEST PUSH1 0x20 DUP3 ADD MSTORE PUSH2 0x517F DUP9 PUSH1 0xE0 DUP6 ADD PUSH2 0x4F6B JUMP JUMPDEST PUSH1 0x40 DUP3 ADD MSTORE PUSH2 0x160 DUP4 ADD CALLDATALOAD DUP3 DUP2 GT ISZERO PUSH2 0x5197 JUMPI PUSH1 0x0 DUP1 REVERT JUMPDEST PUSH2 0x51A3 DUP10 DUP3 DUP7 ADD PUSH2 0x4FB6 JUMP JUMPDEST PUSH1 0x60 DUP4 ADD MSTORE POP PUSH2 0x180 DUP4 ADD CALLDATALOAD DUP3 DUP2 GT ISZERO PUSH2 0x51BC JUMPI PUSH1 0x0 DUP1 REVERT JUMPDEST PUSH2 0x51C8 DUP10 DUP3 DUP7 ADD PUSH2 0x5050 JUMP JUMPDEST PUSH1 0x80 DUP4 ADD MSTORE POP PUSH2 0x1A0 DUP4 ADD CALLDATALOAD DUP3 DUP2 GT ISZERO PUSH2 0x51E1 JUMPI PUSH1 0x0 DUP1 REVERT JUMPDEST PUSH2 0x51ED DUP10 DUP3 DUP7 ADD PUSH2 0x5050 JUMP JUMPDEST PUSH1 0xA0 DUP4 ADD MSTORE POP SWAP5 POP PUSH2 0x5201 PUSH1 0x20 DUP8 ADD PUSH2 0x4A3C JUMP JUMPDEST SWAP4 POP PUSH1 0x40 DUP7 ADD CALLDATALOAD SWAP2 POP DUP1 DUP3 GT ISZERO PUSH2 0x5217 JUMPI PUSH1 0x0 DUP1 REVERT JUMPDEST POP PUSH2 0x5224 DUP7 DUP3 DUP8 ADD PUSH2 0x4D54 JUMP JUMPDEST SWAP2 POP POP SWAP3 POP SWAP3 POP SWAP3 JUMP JUMPDEST PUSH1 0x0 DUP1 PUSH1 0x0 DUP1 PUSH1 0x80 DUP6 DUP8 SUB SLT ISZERO PUSH2 0x5244 JUMPI PUSH1 0x0 DUP1 REVERT JUMPDEST POP POP DUP3 CALLDATALOAD SWAP5 PUSH1 0x20 DUP5 ADD CALLDATALOAD SWAP5 POP PUSH1 0x40 DUP5 ADD CALLDATALOAD SWAP4 PUSH1 0x60 ADD CALLDATALOAD SWAP3 POP SWAP1 POP JUMP JUMPDEST PUSH32 0x4E487B7100000000000000000000000000000000000000000000000000000000 PUSH1 0x0 MSTORE PUSH1 0x32 PUSH1 0x4 MSTORE PUSH1 0x24 PUSH1 0x0 REVERT JUMPDEST PUSH32 0x4E487B7100000000000000000000000000000000000000000000000000000000 PUSH1 0x0 MSTORE PUSH1 0x11 PUSH1 0x4 MSTORE PUSH1 0x24 PUSH1 0x0 REVERT JUMPDEST PUSH1 0x0 PUSH1 0x0 NOT DUP3 SUB PUSH2 0x52D1 JUMPI PUSH2 0x52D1 PUSH2 0x528F JUMP JUMPDEST POP PUSH1 0x1 ADD SWAP1 JUMP JUMPDEST PUSH1 0x1 DUP2 DUP2 SHR SWAP1 DUP3 AND DUP1 PUSH2 0x52EC JUMPI PUSH1 0x7F DUP3 AND SWAP2 POP JUMPDEST PUSH1 0x20 DUP3 LT DUP2 SUB PUSH2 0x5325 JUMPI PUSH32 0x4E487B7100000000000000000000000000000000000000000000000000000000 PUSH1 0x0 MSTORE PUSH1 0x22 PUSH1 0x4 MSTORE PUSH1 0x24 PUSH1 0x0 REVERT JUMPDEST POP SWAP2 SWAP1 POP JUMP JUMPDEST PUSH1 0x0 PUSH1 0x20 DUP3 DUP5 SUB SLT ISZERO PUSH2 0x533D JUMPI PUSH1 0x0 DUP1 REVERT JUMPDEST POP MLOAD SWAP2 SWAP1 POP JUMP JUMPDEST PUSH1 0x0 DUP2 MLOAD DUP1 DUP5 MSTORE PUSH1 0x20 DUP1 DUP6 ADD SWAP5 POP DUP1 DUP5 ADD PUSH1 0x0 JUMPDEST DUP4 DUP2 LT ISZERO PUSH2 0x5374 JUMPI DUP2 MLOAD DUP8 MSTORE SWAP6 DUP3 ADD SWAP6 SWAP1 DUP3 ADD SWAP1 PUSH1 0x1 ADD PUSH2 0x5358 JUMP JUMPDEST POP SWAP5 SWAP6 SWAP5 POP POP POP POP POP JUMP JUMPDEST PUSH1 0x1 PUSH1 0x1 PUSH1 0xA0 SHL SUB DUP5 AND DUP2 MSTORE PUSH32 0xFFFFFFFF00000000000000000000000000000000000000000000000000000000 DUP4 AND PUSH1 0x20 DUP3 ADD MSTORE PUSH1 0x60 PUSH1 0x40 DUP3 ADD MSTORE PUSH1 0x0 PUSH2 0x3B56 PUSH1 0x60 DUP4 ADD DUP5 PUSH2 0x5344 JUMP JUMPDEST DUP1 DUP3 MUL DUP2 ISZERO DUP3 DUP3 DIV DUP5 EQ OR PUSH2 0xE13 JUMPI PUSH2 0xE13 PUSH2 0x528F JUMP JUMPDEST PUSH1 0x1F DUP3 GT ISZERO PUSH2 0x8A8 JUMPI PUSH1 0x0 DUP2 DUP2 MSTORE PUSH1 0x20 DUP2 KECCAK256 PUSH1 0x1F DUP6 ADD PUSH1 0x5 SHR DUP2 ADD PUSH1 0x20 DUP7 LT ISZERO PUSH2 0x5407 JUMPI POP DUP1 JUMPDEST PUSH1 0x1F DUP6 ADD PUSH1 0x5 SHR DUP3 ADD SWAP2 POP JUMPDEST DUP2 DUP2 LT ISZERO PUSH2 0x1C50 JUMPI DUP3 DUP2 SSTORE PUSH1 0x1 ADD PUSH2 0x5413 JUMP JUMPDEST DUP2 MLOAD PUSH8 0xFFFFFFFFFFFFFFFF DUP2 GT ISZERO PUSH2 0x5440 JUMPI PUSH2 0x5440 PUSH2 0x4934 JUMP JUMPDEST PUSH2 0x5454 DUP2 PUSH2 0x544E DUP5 SLOAD PUSH2 0x52D8 JUMP JUMPDEST DUP5 PUSH2 0x53E0 JUMP JUMPDEST PUSH1 0x20 DUP1 PUSH1 0x1F DUP4 GT PUSH1 0x1 DUP2 EQ PUSH2 0x5489 JUMPI PUSH1 0x0 DUP5 ISZERO PUSH2 0x5471 JUMPI POP DUP6 DUP4 ADD MLOAD JUMPDEST PUSH1 0x0 NOT PUSH1 0x3 DUP7 SWAP1 SHL SHR NOT AND PUSH1 0x1 DUP6 SWAP1 SHL OR DUP6 SSTORE PUSH2 0x1C50 JUMP JUMPDEST PUSH1 0x0 DUP6 DUP2 MSTORE PUSH1 0x20 DUP2 KECCAK256 PUSH1 0x1F NOT DUP7 AND SWAP2 JUMPDEST DUP3 DUP2 LT ISZERO PUSH2 0x54B8 JUMPI DUP9 DUP7 ADD MLOAD DUP3 SSTORE SWAP5 DUP5 ADD SWAP5 PUSH1 0x1 SWAP1 SWAP2 ADD SWAP1 DUP5 ADD PUSH2 0x5499 JUMP JUMPDEST POP DUP6 DUP3 LT ISZERO PUSH2 0x54D6 JUMPI DUP8 DUP6 ADD MLOAD PUSH1 0x0 NOT PUSH1 0x3 DUP9 SWAP1 SHL PUSH1 0xF8 AND SHR NOT AND DUP2 SSTORE JUMPDEST POP POP POP POP POP PUSH1 0x1 SWAP1 DUP2 SHL ADD SWAP1 SSTORE POP JUMP JUMPDEST PUSH1 0x0 PUSH1 0x1 PUSH1 0x1 PUSH1 0xA0 SHL SUB DUP1 DUP8 AND DUP4 MSTORE DUP1 DUP7 AND PUSH1 0x20 DUP5 ADD MSTORE POP PUSH32 0xFFFFFFFF00000000000000000000000000000000000000000000000000000000 DUP5 AND PUSH1 0x40 DUP4 ADD MSTORE PUSH1 0x80 PUSH1 0x60 DUP4 ADD MSTORE PUSH2 0x553A PUSH1 0x80 DUP4 ADD DUP5 PUSH2 0x5344 JUMP JUMPDEST SWAP7 SWAP6 POP POP POP POP POP POP JUMP JUMPDEST PUSH1 0x0 PUSH1 0x20 DUP3 DUP5 SUB SLT ISZERO PUSH2 0x5556 JUMPI PUSH1 0x0 DUP1 REVERT JUMPDEST DUP2 MLOAD PUSH2 0x10BD DUP2 PUSH2 0x4ABB JUMP JUMPDEST PUSH32 0x4E487B7100000000000000000000000000000000000000000000000000000000 PUSH1 0x0 MSTORE PUSH1 0x12 PUSH1 0x4 MSTORE PUSH1 0x24 PUSH1 0x0 REVERT JUMPDEST PUSH1 0x0 DUP3 PUSH2 0x559F JUMPI PUSH2 0x559F PUSH2 0x5561 JUMP JUMPDEST POP DIV SWAP1 JUMP JUMPDEST DUP1 DUP3 ADD DUP1 DUP3 GT ISZERO PUSH2 0xE13 JUMPI PUSH2 0xE13 PUSH2 0x528F JUMP JUMPDEST DUP2 DUP2 SUB DUP2 DUP2 GT ISZERO PUSH2 0xE13 JUMPI PUSH2 0xE13 PUSH2 0x528F JUMP JUMPDEST PUSH32 0x4E487B7100000000000000000000000000000000000000000000000000000000 PUSH1 0x0 MSTORE PUSH1 0x31 PUSH1 0x4 MSTORE PUSH1 0x24 PUSH1 0x0 REVERT JUMPDEST PUSH1 0x0 PUSH1 0x20 DUP3 DUP5 SUB SLT ISZERO PUSH2 0x560B JUMPI PUSH1 0x0 DUP1 REVERT JUMPDEST DUP2 MLOAD PUSH2 0x10BD DUP2 PUSH2 0x4A27 JUMP JUMPDEST PUSH1 0x0 DUP3 PUSH2 0x5625 JUMPI PUSH2 0x5625 PUSH2 0x5561 JUMP JUMPDEST POP MOD SWAP1 JUMP JUMPDEST PUSH1 0x0 PUSH1 0x1 PUSH1 0x1 PUSH1 0xA0 SHL SUB DUP1 DUP7 AND DUP4 MSTORE DUP1 DUP6 AND PUSH1 0x20 DUP5 ADD MSTORE POP PUSH1 0x60 PUSH1 0x40 DUP4 ADD MSTORE PUSH2 0x3B56 PUSH1 0x60 DUP4 ADD DUP5 PUSH2 0x4CA3 JUMP JUMPDEST DUP2 DUP2 SUB PUSH1 0x0 DUP4 SLT DUP1 ISZERO DUP4 DUP4 SGT AND DUP4 DUP4 SLT DUP3 AND OR ISZERO PUSH2 0x28BE JUMPI PUSH2 0x28BE PUSH2 0x528F JUMP JUMPDEST PUSH1 0x0 DUP3 PUSH2 0x5685 JUMPI PUSH2 0x5685 PUSH2 0x5561 JUMP JUMPDEST PUSH1 0x0 NOT DUP4 EQ PUSH32 0x8000000000000000000000000000000000000000000000000000000000000000 DUP4 EQ AND ISZERO PUSH2 0x56BB JUMPI PUSH2 0x56BB PUSH2 0x528F JUMP JUMPDEST POP SDIV SWAP1 JUMP JUMPDEST DUP1 DUP3 ADD DUP3 DUP2 SLT PUSH1 0x0 DUP4 SLT DUP1 ISZERO DUP3 AND DUP3 ISZERO DUP3 AND OR ISZERO PUSH2 0x56E0 JUMPI PUSH2 0x56E0 PUSH2 0x528F JUMP JUMPDEST POP POP SWAP3 SWAP2 POP POP JUMP JUMPDEST DUP1 DUP3 MUL PUSH1 0x0 DUP3 SLT PUSH32 0x8000000000000000000000000000000000000000000000000000000000000000 DUP5 EQ AND ISZERO PUSH2 0x5720 JUMPI PUSH2 0x5720 PUSH2 0x528F JUMP JUMPDEST DUP2 DUP2 SDIV DUP4 EQ DUP3 ISZERO OR PUSH2 0xE13 JUMPI PUSH2 0xE13 PUSH2 0x528F JUMP INVALID LOG2 PUSH5 0x6970667358 0x22 SLT KECCAK256 ORIGIN 0x2D LT DUP14 0x21 0xE1 CHAINID BYTE 0x5E DUP3 SWAP3 PUSH3 0x427B4A SWAP6 INVALID 0xDD PUSH24 0x628EF06219CA1D8CFBC7AA018564736F6C63430008110033 "},"methodIdentifiers":{"EXECUTION_TYPE()":"4a45a3a8","authorizer()":"d09edf31","call(address,uint256,address,bytes)":"62f57b60","customTokenThreshold(address)":"a5900c4d","customVolumeLimit(address)":"221a8c68","defaultTokenThreshold()":"a3374177","defaultVolumeLimit()":"6aacaad8","getBalanceConnectors()":"5670e2ce","getGasLimits()":"5ea54eee","getTaskAmount(address)":"a0c3774f","getTimeLock()":"119a5e96","getTokenThreshold(address)":"51a424b1","getTokensSource()":"c267621e","getVolumeLimit(address)":"d45a76cf","getWithdrawalId(address,uint256,address)":"a7daad60","initialize(((address,bytes32,bytes32),(uint256,uint256,uint256,uint256),(uint8,uint256,uint256,uint256),(uint8,address[]),((address,uint256,uint256),(address,(address,uint256,uint256))[]),((address,uint256,uint256),(address,(address,uint256,uint256))[])),address,string)":"a808644e","isPaused()":"b187bd26","isTokenAllowed(address)":"f9eaee0d","pause()":"8456cb59","setBalanceConnectors(bytes32,bytes32)":"7125590a","setCustomTokenThreshold(address,address,uint256,uint256)":"2384c32d","setCustomVolumeLimit(address,address,uint256,uint256)":"423a4b40","setDefaultTokenThreshold(address,uint256,uint256)":"d3feb602","setDefaultVolumeLimit(address,uint256,uint256)":"90333ba8","setGasLimits(uint256,uint256,uint256,uint256)":"e6b5be98","setSignedWithdrawalsUrl(string)":"53f98376","setSigner(address)":"6c19e783","setTimeLock(uint8,uint256,uint256,uint256)":"0fe105e8","setTokensAcceptanceList(address[],bool[])":"21972384","setTokensAcceptanceType(uint8)":"30eae572","signedWithdrawalsUrl()":"4a3e903e","signer()":"238ac933","smartVault()":"4fd49efd","tokensAcceptanceType()":"42d4693e","unpause()":"3f4ba83a","wasExecuted(bytes32)":"2a682d3b"}}}}}