{"contracts/OffChainSignedWithdrawer.sol":{"OffChainSignedWithdrawer":{"abi":[{"inputs":[{"internalType":"address","name":"who","type":"address"},{"internalType":"bytes4","name":"what","type":"bytes4"},{"internalType":"uint256[]","name":"how","type":"uint256[]"}],"name":"AuthSenderNotAllowed","type":"error"},{"inputs":[{"internalType":"uint256","name":"a","type":"uint256"},{"internalType":"uint256","name":"aInflated","type":"uint256"}],"name":"FixedPointDivInternal","type":"error"},{"inputs":[{"internalType":"uint256","name":"a","type":"uint256"},{"internalType":"uint256","name":"b","type":"uint256"}],"name":"FixedPointMulOverflow","type":"error"},{"inputs":[],"name":"FixedPointZeroDivision","type":"error"},{"inputs":[],"name":"TaskAcceptanceInputLengthMismatch","type":"error"},{"inputs":[],"name":"TaskAcceptanceTokenZero","type":"error"},{"inputs":[],"name":"TaskAmountZero","type":"error"},{"inputs":[{"internalType":"uint256","name":"executionPeriod","type":"uint256"},{"internalType":"uint256","name":"delay","type":"uint256"}],"name":"TaskExecutionPeriodGtDelay","type":"error"},{"inputs":[],"name":"TaskGasNotInitialized","type":"error"},{"inputs":[{"internalType":"uint256","name":"gasPrice","type":"uint256"},{"internalType":"uint256","name":"gasPriceLimit","type":"uint256"}],"name":"TaskGasPriceLimitExceeded","type":"error"},{"inputs":[{"internalType":"address","name":"actual","type":"address"},{"internalType":"address","name":"expected","type":"address"}],"name":"TaskInvalidOffChainSignedWithdrawer","type":"error"},{"inputs":[{"internalType":"address","name":"token","type":"address"},{"internalType":"uint256","name":"min","type":"uint256"},{"internalType":"uint256","name":"max","type":"uint256"}],"name":"TaskInvalidThresholdInput","type":"error"},{"inputs":[{"internalType":"address","name":"token","type":"address"},{"internalType":"uint256","name":"amount","type":"uint256"},{"internalType":"uint256","name":"period","type":"uint256"}],"name":"TaskInvalidVolumeLimitInput","type":"error"},{"inputs":[{"internalType":"bytes32","name":"id","type":"bytes32"}],"name":"TaskNextConnectorNotZero","type":"error"},{"inputs":[],"name":"TaskPaused","type":"error"},{"inputs":[{"internalType":"uint256","name":"priorityFee","type":"uint256"},{"internalType":"uint256","name":"priorityFeeLimit","type":"uint256"}],"name":"TaskPriorityFeeLimitExceeded","type":"error"},{"inputs":[],"name":"TaskRecipientZero","type":"error"},{"inputs":[{"internalType":"bytes32","name":"connectorId","type":"bytes32"}],"name":"TaskSameBalanceConnectors","type":"error"},{"inputs":[],"name":"TaskSignedWithdrawalsUrlEmpty","type":"error"},{"inputs":[],"name":"TaskSignerZero","type":"error"},{"inputs":[{"internalType":"address","name":"smartVault","type":"address"}],"name":"TaskSmartVaultPriceOracleNotSet","type":"error"},{"inputs":[],"name":"TaskThresholdTokenZero","type":"error"},{"inputs":[{"internalType":"uint256","name":"expiration","type":"uint256"},{"internalType":"uint256","name":"currentTimestamp","type":"uint256"}],"name":"TaskTimeLockNotExpired","type":"error"},{"inputs":[{"internalType":"uint256","name":"offset","type":"uint256"},{"internalType":"uint256","name":"executionPeriod","type":"uint256"}],"name":"TaskTimeLockWaitNextPeriod","type":"error"},{"inputs":[{"internalType":"address","name":"token","type":"address"}],"name":"TaskTokenNotAllowed","type":"error"},{"inputs":[{"internalType":"address","name":"token","type":"address"},{"internalType":"uint256","name":"amount","type":"uint256"},{"internalType":"uint256","name":"min","type":"uint256"},{"internalType":"uint256","name":"max","type":"uint256"}],"name":"TaskTokenThresholdNotMet","type":"error"},{"inputs":[],"name":"TaskTokenZero","type":"error"},{"inputs":[{"internalType":"uint256","name":"txCost","type":"uint256"},{"internalType":"uint256","name":"txCostLimit","type":"uint256"}],"name":"TaskTxCostLimitExceeded","type":"error"},{"inputs":[],"name":"TaskTxCostLimitPctAboveOne","type":"error"},{"inputs":[{"internalType":"uint256","name":"txCostPct","type":"uint256"},{"internalType":"uint256","name":"txCostLimitPct","type":"uint256"}],"name":"TaskTxCostLimitPctExceeded","type":"error"},{"inputs":[],"name":"TaskUnpaused","type":"error"},{"inputs":[{"internalType":"address","name":"token","type":"address"},{"internalType":"uint256","name":"limit","type":"uint256"},{"internalType":"uint256","name":"volume","type":"uint256"}],"name":"TaskVolumeLimitExceeded","type":"error"},{"inputs":[],"name":"TaskVolumeLimitTokenZero","type":"error"},{"inputs":[{"internalType":"address","name":"token","type":"address"},{"internalType":"uint256","name":"amount","type":"uint256"},{"internalType":"address","name":"recipient","type":"address"}],"name":"TaskWithdrawalAlreadyExecuted","type":"error"},{"anonymous":false,"inputs":[{"indexed":true,"internalType":"bytes32","name":"previous","type":"bytes32"},{"indexed":true,"internalType":"bytes32","name":"next","type":"bytes32"}],"name":"BalanceConnectorsSet","type":"event"},{"anonymous":false,"inputs":[{"indexed":true,"internalType":"address","name":"token","type":"address"},{"indexed":false,"internalType":"address","name":"thresholdToken","type":"address"},{"indexed":false,"internalType":"uint256","name":"min","type":"uint256"},{"indexed":false,"internalType":"uint256","name":"max","type":"uint256"}],"name":"CustomTokenThresholdSet","type":"event"},{"anonymous":false,"inputs":[{"indexed":true,"internalType":"address","name":"token","type":"address"},{"indexed":true,"internalType":"address","name":"limitToken","type":"address"},{"indexed":false,"internalType":"uint256","name":"amount","type":"uint256"},{"indexed":false,"internalType":"uint256","name":"period","type":"uint256"}],"name":"CustomVolumeLimitSet","type":"event"},{"anonymous":false,"inputs":[{"indexed":false,"internalType":"address","name":"token","type":"address"},{"indexed":false,"internalType":"uint256","name":"min","type":"uint256"},{"indexed":false,"internalType":"uint256","name":"max","type":"uint256"}],"name":"DefaultTokenThresholdSet","type":"event"},{"anonymous":false,"inputs":[{"indexed":true,"internalType":"address","name":"token","type":"address"},{"indexed":false,"internalType":"uint256","name":"amount","type":"uint256"},{"indexed":false,"internalType":"uint256","name":"period","type":"uint256"}],"name":"DefaultVolumeLimitSet","type":"event"},{"anonymous":false,"inputs":[],"name":"Executed","type":"event"},{"anonymous":false,"inputs":[{"indexed":false,"internalType":"uint256","name":"gasPriceLimit","type":"uint256"}],"name":"GasPriceLimitSet","type":"event"},{"anonymous":false,"inputs":[{"indexed":false,"internalType":"uint8","name":"version","type":"uint8"}],"name":"Initialized","type":"event"},{"anonymous":false,"inputs":[],"name":"Paused","type":"event"},{"anonymous":false,"inputs":[{"indexed":false,"internalType":"uint256","name":"priorityFeeLimit","type":"uint256"}],"name":"PriorityFeeLimitSet","type":"event"},{"anonymous":false,"inputs":[{"indexed":false,"internalType":"string","name":"signedWithdrawalsUrl","type":"string"}],"name":"SignedWithdrawalsUrlSet","type":"event"},{"anonymous":false,"inputs":[{"indexed":true,"internalType":"address","name":"signer","type":"address"}],"name":"SignerSet","type":"event"},{"anonymous":false,"inputs":[{"indexed":false,"internalType":"uint256","name":"delay","type":"uint256"}],"name":"TimeLockDelaySet","type":"event"},{"anonymous":false,"inputs":[{"indexed":false,"internalType":"uint256","name":"period","type":"uint256"}],"name":"TimeLockExecutionPeriodSet","type":"event"},{"anonymous":false,"inputs":[{"indexed":false,"internalType":"uint256","name":"expiration","type":"uint256"}],"name":"TimeLockExpirationSet","type":"event"},{"anonymous":false,"inputs":[{"indexed":true,"internalType":"address","name":"token","type":"address"},{"indexed":false,"internalType":"bool","name":"added","type":"bool"}],"name":"TokensAcceptanceListSet","type":"event"},{"anonymous":false,"inputs":[{"indexed":false,"internalType":"enum ITokenIndexedTask.TokensAcceptanceType","name":"acceptanceType","type":"uint8"}],"name":"TokensAcceptanceTypeSet","type":"event"},{"anonymous":false,"inputs":[{"indexed":false,"internalType":"uint256","name":"txCostLimitPct","type":"uint256"}],"name":"TxCostLimitPctSet","type":"event"},{"anonymous":false,"inputs":[{"indexed":false,"internalType":"uint256","name":"txCostLimit","type":"uint256"}],"name":"TxCostLimitSet","type":"event"},{"anonymous":false,"inputs":[],"name":"Unpaused","type":"event"},{"inputs":[],"name":"EXECUTION_TYPE","outputs":[{"internalType":"bytes32","name":"","type":"bytes32"}],"stateMutability":"view","type":"function"},{"inputs":[],"name":"authorizer","outputs":[{"internalType":"address","name":"","type":"address"}],"stateMutability":"view","type":"function"},{"inputs":[{"internalType":"address","name":"token","type":"address"},{"internalType":"uint256","name":"amount","type":"uint256"},{"internalType":"address","name":"recipient","type":"address"},{"internalType":"bytes","name":"signature","type":"bytes"}],"name":"call","outputs":[],"stateMutability":"nonpayable","type":"function"},{"inputs":[{"internalType":"address","name":"token","type":"address"}],"name":"customTokenThreshold","outputs":[{"components":[{"internalType":"address","name":"token","type":"address"},{"internalType":"uint256","name":"min","type":"uint256"},{"internalType":"uint256","name":"max","type":"uint256"}],"internalType":"struct ITokenThresholdTask.Threshold","name":"","type":"tuple"}],"stateMutability":"view","type":"function"},{"inputs":[{"internalType":"address","name":"token","type":"address"}],"name":"customVolumeLimit","outputs":[{"components":[{"internalType":"address","name":"token","type":"address"},{"internalType":"uint256","name":"amount","type":"uint256"},{"internalType":"uint256","name":"accrued","type":"uint256"},{"internalType":"uint256","name":"period","type":"uint256"},{"internalType":"uint256","name":"nextResetTime","type":"uint256"}],"internalType":"struct IVolumeLimitedTask.VolumeLimit","name":"","type":"tuple"}],"stateMutability":"view","type":"function"},{"inputs":[],"name":"defaultTokenThreshold","outputs":[{"components":[{"internalType":"address","name":"token","type":"address"},{"internalType":"uint256","name":"min","type":"uint256"},{"internalType":"uint256","name":"max","type":"uint256"}],"internalType":"struct ITokenThresholdTask.Threshold","name":"","type":"tuple"}],"stateMutability":"view","type":"function"},{"inputs":[],"name":"defaultVolumeLimit","outputs":[{"components":[{"internalType":"address","name":"token","type":"address"},{"internalType":"uint256","name":"amount","type":"uint256"},{"internalType":"uint256","name":"accrued","type":"uint256"},{"internalType":"uint256","name":"period","type":"uint256"},{"internalType":"uint256","name":"nextResetTime","type":"uint256"}],"internalType":"struct IVolumeLimitedTask.VolumeLimit","name":"","type":"tuple"}],"stateMutability":"view","type":"function"},{"inputs":[],"name":"gasPriceLimit","outputs":[{"internalType":"uint256","name":"","type":"uint256"}],"stateMutability":"view","type":"function"},{"inputs":[{"internalType":"address","name":"token","type":"address"}],"name":"getTaskAmount","outputs":[{"internalType":"uint256","name":"","type":"uint256"}],"stateMutability":"view","type":"function"},{"inputs":[{"internalType":"address","name":"token","type":"address"}],"name":"getTokenThreshold","outputs":[{"components":[{"internalType":"address","name":"token","type":"address"},{"internalType":"uint256","name":"min","type":"uint256"},{"internalType":"uint256","name":"max","type":"uint256"}],"internalType":"struct ITokenThresholdTask.Threshold","name":"","type":"tuple"}],"stateMutability":"view","type":"function"},{"inputs":[],"name":"getTokensSource","outputs":[{"internalType":"address","name":"","type":"address"}],"stateMutability":"view","type":"function"},{"inputs":[{"internalType":"address","name":"token","type":"address"}],"name":"getVolumeLimit","outputs":[{"components":[{"internalType":"address","name":"token","type":"address"},{"internalType":"uint256","name":"amount","type":"uint256"},{"internalType":"uint256","name":"accrued","type":"uint256"},{"internalType":"uint256","name":"period","type":"uint256"},{"internalType":"uint256","name":"nextResetTime","type":"uint256"}],"internalType":"struct IVolumeLimitedTask.VolumeLimit","name":"","type":"tuple"}],"stateMutability":"view","type":"function"},{"inputs":[{"internalType":"address","name":"token","type":"address"},{"internalType":"uint256","name":"amount","type":"uint256"},{"internalType":"address","name":"recipient","type":"address"}],"name":"getWithdrawalId","outputs":[{"internalType":"bytes32","name":"","type":"bytes32"}],"stateMutability":"view","type":"function"},{"inputs":[{"components":[{"components":[{"internalType":"address","name":"smartVault","type":"address"},{"internalType":"bytes32","name":"previousBalanceConnectorId","type":"bytes32"},{"internalType":"bytes32","name":"nextBalanceConnectorId","type":"bytes32"}],"internalType":"struct BaseTask.BaseConfig","name":"baseConfig","type":"tuple"},{"components":[{"internalType":"uint256","name":"gasPriceLimit","type":"uint256"},{"internalType":"uint256","name":"priorityFeeLimit","type":"uint256"},{"internalType":"uint256","name":"txCostLimit","type":"uint256"},{"internalType":"uint256","name":"txCostLimitPct","type":"uint256"}],"internalType":"struct GasLimitedTask.GasLimitConfig","name":"gasLimitConfig","type":"tuple"},{"components":[{"internalType":"uint256","name":"delay","type":"uint256"},{"internalType":"uint256","name":"nextExecutionTimestamp","type":"uint256"},{"internalType":"uint256","name":"executionPeriod","type":"uint256"}],"internalType":"struct TimeLockedTask.TimeLockConfig","name":"timeLockConfig","type":"tuple"},{"components":[{"internalType":"enum ITokenIndexedTask.TokensAcceptanceType","name":"acceptanceType","type":"uint8"},{"internalType":"address[]","name":"tokens","type":"address[]"}],"internalType":"struct TokenIndexedTask.TokenIndexConfig","name":"tokenIndexConfig","type":"tuple"},{"components":[{"components":[{"internalType":"address","name":"token","type":"address"},{"internalType":"uint256","name":"min","type":"uint256"},{"internalType":"uint256","name":"max","type":"uint256"}],"internalType":"struct ITokenThresholdTask.Threshold","name":"defaultThreshold","type":"tuple"},{"components":[{"internalType":"address","name":"token","type":"address"},{"components":[{"internalType":"address","name":"token","type":"address"},{"internalType":"uint256","name":"min","type":"uint256"},{"internalType":"uint256","name":"max","type":"uint256"}],"internalType":"struct ITokenThresholdTask.Threshold","name":"threshold","type":"tuple"}],"internalType":"struct TokenThresholdTask.CustomThresholdConfig[]","name":"customThresholdConfigs","type":"tuple[]"}],"internalType":"struct TokenThresholdTask.TokenThresholdConfig","name":"tokenThresholdConfig","type":"tuple"},{"components":[{"components":[{"internalType":"address","name":"token","type":"address"},{"internalType":"uint256","name":"amount","type":"uint256"},{"internalType":"uint256","name":"period","type":"uint256"}],"internalType":"struct VolumeLimitedTask.VolumeLimitParams","name":"defaultVolumeLimit","type":"tuple"},{"components":[{"internalType":"address","name":"token","type":"address"},{"components":[{"internalType":"address","name":"token","type":"address"},{"internalType":"uint256","name":"amount","type":"uint256"},{"internalType":"uint256","name":"period","type":"uint256"}],"internalType":"struct VolumeLimitedTask.VolumeLimitParams","name":"volumeLimit","type":"tuple"}],"internalType":"struct VolumeLimitedTask.CustomVolumeLimitConfig[]","name":"customVolumeLimitConfigs","type":"tuple[]"}],"internalType":"struct VolumeLimitedTask.VolumeLimitConfig","name":"volumeLimitConfig","type":"tuple"}],"internalType":"struct Task.TaskConfig","name":"taskConfig","type":"tuple"},{"internalType":"address","name":"initialSigner","type":"address"},{"internalType":"string","name":"initialSignedWithdrawalsUrl","type":"string"}],"name":"initialize","outputs":[],"stateMutability":"nonpayable","type":"function"},{"inputs":[],"name":"isPaused","outputs":[{"internalType":"bool","name":"","type":"bool"}],"stateMutability":"view","type":"function"},{"inputs":[],"name":"nextBalanceConnectorId","outputs":[{"internalType":"bytes32","name":"","type":"bytes32"}],"stateMutability":"view","type":"function"},{"inputs":[],"name":"pause","outputs":[],"stateMutability":"nonpayable","type":"function"},{"inputs":[],"name":"previousBalanceConnectorId","outputs":[{"internalType":"bytes32","name":"","type":"bytes32"}],"stateMutability":"view","type":"function"},{"inputs":[],"name":"priorityFeeLimit","outputs":[{"internalType":"uint256","name":"","type":"uint256"}],"stateMutability":"view","type":"function"},{"inputs":[{"internalType":"bytes32","name":"previous","type":"bytes32"},{"internalType":"bytes32","name":"next","type":"bytes32"}],"name":"setBalanceConnectors","outputs":[],"stateMutability":"nonpayable","type":"function"},{"inputs":[{"internalType":"address","name":"token","type":"address"},{"internalType":"address","name":"thresholdToken","type":"address"},{"internalType":"uint256","name":"thresholdMin","type":"uint256"},{"internalType":"uint256","name":"thresholdMax","type":"uint256"}],"name":"setCustomTokenThreshold","outputs":[],"stateMutability":"nonpayable","type":"function"},{"inputs":[{"internalType":"address","name":"token","type":"address"},{"internalType":"address","name":"limitToken","type":"address"},{"internalType":"uint256","name":"limitAmount","type":"uint256"},{"internalType":"uint256","name":"limitPeriod","type":"uint256"}],"name":"setCustomVolumeLimit","outputs":[],"stateMutability":"nonpayable","type":"function"},{"inputs":[{"internalType":"address","name":"thresholdToken","type":"address"},{"internalType":"uint256","name":"thresholdMin","type":"uint256"},{"internalType":"uint256","name":"thresholdMax","type":"uint256"}],"name":"setDefaultTokenThreshold","outputs":[],"stateMutability":"nonpayable","type":"function"},{"inputs":[{"internalType":"address","name":"limitToken","type":"address"},{"internalType":"uint256","name":"limitAmount","type":"uint256"},{"internalType":"uint256","name":"limitPeriod","type":"uint256"}],"name":"setDefaultVolumeLimit","outputs":[],"stateMutability":"nonpayable","type":"function"},{"inputs":[{"internalType":"uint256","name":"newGasPriceLimit","type":"uint256"}],"name":"setGasPriceLimit","outputs":[],"stateMutability":"nonpayable","type":"function"},{"inputs":[{"internalType":"uint256","name":"newPriorityFeeLimit","type":"uint256"}],"name":"setPriorityFeeLimit","outputs":[],"stateMutability":"nonpayable","type":"function"},{"inputs":[{"internalType":"string","name":"newSignedWithdrawalsUrl","type":"string"}],"name":"setSignedWithdrawalsUrl","outputs":[],"stateMutability":"nonpayable","type":"function"},{"inputs":[{"internalType":"address","name":"newSigner","type":"address"}],"name":"setSigner","outputs":[],"stateMutability":"nonpayable","type":"function"},{"inputs":[{"internalType":"uint256","name":"delay","type":"uint256"}],"name":"setTimeLockDelay","outputs":[],"stateMutability":"nonpayable","type":"function"},{"inputs":[{"internalType":"uint256","name":"period","type":"uint256"}],"name":"setTimeLockExecutionPeriod","outputs":[],"stateMutability":"nonpayable","type":"function"},{"inputs":[{"internalType":"uint256","name":"expiration","type":"uint256"}],"name":"setTimeLockExpiration","outputs":[],"stateMutability":"nonpayable","type":"function"},{"inputs":[{"internalType":"address[]","name":"tokens","type":"address[]"},{"internalType":"bool[]","name":"added","type":"bool[]"}],"name":"setTokensAcceptanceList","outputs":[],"stateMutability":"nonpayable","type":"function"},{"inputs":[{"internalType":"enum ITokenIndexedTask.TokensAcceptanceType","name":"newTokensAcceptanceType","type":"uint8"}],"name":"setTokensAcceptanceType","outputs":[],"stateMutability":"nonpayable","type":"function"},{"inputs":[{"internalType":"uint256","name":"newTxCostLimit","type":"uint256"}],"name":"setTxCostLimit","outputs":[],"stateMutability":"nonpayable","type":"function"},{"inputs":[{"internalType":"uint256","name":"newTxCostLimitPct","type":"uint256"}],"name":"setTxCostLimitPct","outputs":[],"stateMutability":"nonpayable","type":"function"},{"inputs":[],"name":"signedWithdrawalsUrl","outputs":[{"internalType":"string","name":"","type":"string"}],"stateMutability":"view","type":"function"},{"inputs":[],"name":"signer","outputs":[{"internalType":"address","name":"","type":"address"}],"stateMutability":"view","type":"function"},{"inputs":[],"name":"smartVault","outputs":[{"internalType":"address","name":"","type":"address"}],"stateMutability":"view","type":"function"},{"inputs":[],"name":"timeLockDelay","outputs":[{"internalType":"uint256","name":"","type":"uint256"}],"stateMutability":"view","type":"function"},{"inputs":[],"name":"timeLockExecutionPeriod","outputs":[{"internalType":"uint256","name":"","type":"uint256"}],"stateMutability":"view","type":"function"},{"inputs":[],"name":"timeLockExpiration","outputs":[{"internalType":"uint256","name":"","type":"uint256"}],"stateMutability":"view","type":"function"},{"inputs":[],"name":"tokensAcceptanceType","outputs":[{"internalType":"enum ITokenIndexedTask.TokensAcceptanceType","name":"","type":"uint8"}],"stateMutability":"view","type":"function"},{"inputs":[],"name":"txCostLimit","outputs":[{"internalType":"uint256","name":"","type":"uint256"}],"stateMutability":"view","type":"function"},{"inputs":[],"name":"txCostLimitPct","outputs":[{"internalType":"uint256","name":"","type":"uint256"}],"stateMutability":"view","type":"function"},{"inputs":[],"name":"unpause","outputs":[],"stateMutability":"nonpayable","type":"function"},{"inputs":[{"internalType":"bytes32","name":"","type":"bytes32"}],"name":"wasExecuted","outputs":[{"internalType":"bool","name":"","type":"bool"}],"stateMutability":"view","type":"function"}],"evm":{"bytecode":{"linkReferences":{},"object":"60806040523480156200001157600080fd5b506200001c62000022565b620000e4565b600054610100900460ff16156200008f5760405162461bcd60e51b815260206004820152602760248201527f496e697469616c697a61626c653a20636f6e747261637420697320696e697469604482015266616c697a696e6760c81b606482015260840160405180910390fd5b60005460ff9081161015620000e2576000805460ff191660ff9081179091556040519081527f7f26b83ff96e1f2b6a682f133852f6798a09c465da95921460cefb38474024989060200160405180910390a15b565b61517980620000f46000396000f3fe608060405234801561001057600080fd5b506004361061030a5760003560e01c80637125590a1161019c578063ab76d408116100ee578063d45a76cf11610097578063ee98cf6d11610071578063ee98cf6d14610714578063f440284b14610727578063f605145b1461073a57600080fd5b8063d45a76cf146106e5578063d4dfd588146106f8578063dccf56ce1461070157600080fd5b8063c49a91fe116100c8578063c49a91fe146106a6578063d09edf31146106b9578063d3feb602146106d257600080fd5b8063ab76d4081461067f578063b187bd2614610688578063c267621e1461069557600080fd5b806390333ba811610150578063a33741771161012a578063a3374177146105e3578063a5900c4d146105eb578063a7daad60146105fe57600080fd5b806390333ba8146105b4578063961a929c146105c7578063a0c3774f146105d057600080fd5b80638456cb59116101815780638456cb591461059a57806385538533146105a25780638bbc6446146105ab57600080fd5b80637125590a1461057e5780637d43d4ed1461059157600080fd5b8063423a4b401161026057806353f98376116102095780636aacaad8116101e35780636aacaad81461055a5780636c19e783146105625780636cd8fca71461057557600080fd5b806353f983761461052b5780635d28414c1461053e57806362f57b601461054757600080fd5b80634a45a3a81161023a5780634a45a3a8146104a55780634fd49efd146104da57806351a424b1146104ed57600080fd5b8063423a4b401461046357806342d4693e146104765780634a3e903e1461049057600080fd5b80632384c32d116102c257806330eae5721161029c57806330eae5721461043557806334077acc146104485780633f4ba83a1461045b57600080fd5b80632384c32d146103c4578063238ac933146103d75780632a682d3b1461040257600080fd5b80630c74e630116102f35780630c74e63014610337578063219723841461034a578063221a8c681461035d57600080fd5b80630652095d1461030f5780630923160214610324575b600080fd5b61032261031d3660046143f0565b610743565b005b6103226103323660046143f0565b610788565b610322610345366004614855565b6107c9565b610322610358366004614987565b61094c565b61037061036b366004614a4b565b610a14565b6040516103bb9190600060a0820190506001600160a01b0383511682526020830151602083015260408301516040830152606083015160608301526080830151608083015292915050565b60405180910390f35b6103226103d2366004614a68565b610aaa565b601a546103ea906001600160a01b031681565b6040516001600160a01b0390911681526020016103bb565b6104256104103660046143f0565b601c6020526000908152604090205460ff1681565b60405190151581526020016103bb565b610322610443366004614aae565b610af8565b6103226104563660046143f0565b610b4d565b610322610b8e565b610322610471366004614a68565b610c4b565b600d546104839060ff1681565b6040516103bb9190614af8565b610498610c92565b6040516103bb9190614b7f565b6104cc7f6f48fea04fa9f5a5ef2c321133cf2a12d8fc3ad8dfef312fe81f896355af4d9481565b6040519081526020016103bb565b6001546103ea906001600160a01b031681565b6105006104fb366004614a4b565b610d20565b6040805182516001600160a01b031681526020808401519082015291810151908201526060016103bb565b610322610539366004614b92565b610dab565b6104cc600b5481565b610322610555366004614bc7565b610de5565b610370610ed1565b610322610570366004614a4b565b610f4a565b6104cc60075481565b61032261058c366004614c47565b610f8b565b6104cc60085481565b610322610fce565b6104cc600c5481565b6104cc600a5481565b6103226105c2366004614c69565b61108f565b6104cc60065481565b6104cc6105de366004614a4b565b6110d4565b61050061116b565b6105006105f9366004614a4b565b6111c6565b6104cc61060c366004614c9e565b60408051466020808301919091527fffffffffffffffffffffffffffffffffffffffff00000000000000000000000030606090811b82168486015296871b8116605484015260688301959095529290941b90921660888401528151808403607c018152609c909301909152815191012090565b6104cc60025481565b6004546104259060ff1681565b6001546001600160a01b03166103ea565b6103226106b43660046143f0565b611237565b6000546103ea906201000090046001600160a01b031681565b6103226106e0366004614c69565b611278565b6103706106f3366004614a4b565b6112bd565b6104cc60095481565b61032261070f3660046143f0565b611349565b6103226107223660046143f0565b61138a565b6103226107353660046143f0565b6113cb565b6104cc60035481565b61074c8161140c565b61077b336000357fffffffff000000000000000000000000000000000000000000000000000000001683611453565b6107848261149a565b5050565b6107918161140c565b6107c0336000357fffffffff000000000000000000000000000000000000000000000000000000001683611453565b610784826114d6565b600054610100900460ff16158080156107e95750600054600160ff909116105b806108035750303b158015610803575060005460ff166001145b61087a5760405162461bcd60e51b815260206004820152602e60248201527f496e697469616c697a61626c653a20636f6e747261637420697320616c72656160448201527f647920696e697469616c697a656400000000000000000000000000000000000060648201526084015b60405180910390fd5b600080547fffffffffffffffffffffffffffffffffffffffffffffffffffffffffffffff0016600117905580156108d857600080547fffffffffffffffffffffffffffffffffffffffffffffffffffffffffffff00ff166101001790555b6108e384848461150b565b801561094657600080547fffffffffffffffffffffffffffffffffffffffffffffffffffffffffffff00ff169055604051600181527f7f26b83ff96e1f2b6a682f133852f6798a09c465da95921460cefb38474024989060200160405180910390a15b50505050565b61097a336000357fffffffff000000000000000000000000000000000000000000000000000000001661158a565b80518251146109b5576040517f5d32021a00000000000000000000000000000000000000000000000000000000815260040160405180910390fd5b60005b8251811015610a0f576109fd8382815181106109d6576109d6614ce0565b60200260200101518383815181106109f0576109f0614ce0565b60200260200101516115a6565b80610a0781614d3e565b9150506109b8565b505050565b610a4f6040518060a0016040528060006001600160a01b03168152602001600081526020016000815260200160008152602001600081525090565b506001600160a01b03908116600090815260196020908152604091829020825160a081018452815490941684526001810154918401919091526002810154918301919091526003810154606083015260040154608082015290565b610ab684848484611650565b610ae5336000357fffffffff000000000000000000000000000000000000000000000000000000001683611453565b610af18585858561170d565b5050505050565b610b15816001811115610b0d57610b0d614ac9565b60ff1661140c565b610b44336000357fffffffff000000000000000000000000000000000000000000000000000000001683611453565b610784826117c6565b610b568161140c565b610b85336000357fffffffff000000000000000000000000000000000000000000000000000000001683611453565b61078482611836565b610bbc336000357fffffffff000000000000000000000000000000000000000000000000000000001661158a565b60045460ff16610bf8576040517f9e6558bd00000000000000000000000000000000000000000000000000000000815260040160405180910390fd5b600480547fffffffffffffffffffffffffffffffffffffffffffffffffffffffffffffff001690556040517fa45f47fdea8a1efdd9029a5691c7f759c32b7c698632b563573e155625d1693390600090a1565b610c5784848484611650565b610c86336000357fffffffff000000000000000000000000000000000000000000000000000000001683611453565b610af18585858561186b565b601b8054610c9f90614d76565b80601f0160208091040260200160405190810160405280929190818152602001828054610ccb90614d76565b8015610d185780601f10610ced57610100808354040283529160200191610d18565b820191906000526020600020905b815481529060010190602001808311610cfb57829003601f168201915b505050505081565b610d4d604051806060016040528060006001600160a01b0316815260200160008152602001600081525090565b6001600160a01b038083166000908152601360205260409020805490911615610d765780610d79565b60105b6040805160608101825282546001600160a01b0316815260018301546020820152600290920154908201529392505050565b610dd9336000357fffffffff000000000000000000000000000000000000000000000000000000001661158a565b610de28161192b565b50565b610def84846119a2565b610e1e336000357fffffffff000000000000000000000000000000000000000000000000000000001683611453565b83600003610e3257610e2f856110d4565b93505b610e3e85858585611a11565b6001546040517fd9caed120000000000000000000000000000000000000000000000000000000081526001600160a01b0387811660048301528581166024830152604482018790529091169063d9caed1290606401600060405180830381600087803b158015610ead57600080fd5b505af1158015610ec1573d6000803e3d6000fd5b50505050610af185858585611c75565b610f0c6040518060a0016040528060006001600160a01b03168152602001600081526020016000815260200160008152602001600081525090565b506040805160a0810182526014546001600160a01b031681526015546020820152601654918101919091526017546060820152601854608082015290565b610f5381611d24565b610f82336000357fffffffff000000000000000000000000000000000000000000000000000000001683611453565b61078482611d38565b610f958282611dda565b610fc4336000357fffffffff000000000000000000000000000000000000000000000000000000001683611453565b610a0f8383611e34565b610ffc336000357fffffffff000000000000000000000000000000000000000000000000000000001661158a565b60045460ff1615611039576040517fc0f2312800000000000000000000000000000000000000000000000000000000815260040160405180910390fd5b600480547fffffffffffffffffffffffffffffffffffffffffffffffffffffffffffffff001660011790556040517f9e87fac88ff661f02d44f95383c817fece4bce600a3dab7a54406878b965e75290600090a1565b61109a838383611e79565b6110c9336000357fffffffff000000000000000000000000000000000000000000000000000000001683611453565b610946848484611f0b565b6001546002546040517ebc489400000000000000000000000000000000000000000000000000000000815260048101919091526001600160a01b038381166024830152600092169062bc489490604401602060405180830381865afa158015611141573d6000803e3d6000fd5b505050506040513d601f19601f820116820180604052508101906111659190614dc9565b92915050565b611198604051806060016040528060006001600160a01b0316815260200160008152602001600081525090565b50604080516060810182526010546001600160a01b0316815260115460208201526012549181019190915290565b6111f3604051806060016040528060006001600160a01b0316815260200160008152602001600081525090565b506001600160a01b03908116600090815260136020908152604091829020825160608101845281549094168452600181015491840191909152600201549082015290565b6112408161140c565b61126f336000357fffffffff000000000000000000000000000000000000000000000000000000001683611453565b61078482611f61565b611283838383611e79565b6112b2336000357fffffffff000000000000000000000000000000000000000000000000000000001683611453565b610946848484611fe0565b6112f86040518060a0016040528060006001600160a01b03168152602001600081526020016000815260200160008152602001600081525090565b6113018261203c565b6040805160a08101825282546001600160a01b031681526001830154602082015260028301549181019190915260038201546060820152600490910154608082015292915050565b6113528161140c565b611381336000357fffffffff000000000000000000000000000000000000000000000000000000001683611453565b61078482612071565b6113938161140c565b6113c2336000357fffffffff000000000000000000000000000000000000000000000000000000001683611453565b610784826120e8565b6113d48161140c565b611403336000357fffffffff000000000000000000000000000000000000000000000000000000001683611453565b61078482612167565b60408051600180825281830190925260609160208083019080368337019050509050818160008151811061144257611442614ce0565b602002602001018181525050919050565b61145e83838361219c565b610a0f578282826040517f960c80da00000000000000000000000000000000000000000000000000000000815260040161087193929190614e1d565b60088190556040518181527f3f6c9c24d9513c13d3b3cde07a6d023891e0a453697b804236062ff89f8911bf906020015b60405180910390a150565b60068190556040518181527f82a6981d2edcffa06330f002d2155243475d202ce6cc11693da2ca897fb8e372906020016114cb565b600054610100900460ff166115765760405162461bcd60e51b815260206004820152602b60248201527f496e697469616c697a61626c653a20636f6e7472616374206973206e6f74206960448201526a6e697469616c697a696e6760a81b6064820152608401610871565b61157f8361223a565b610a0f838383612302565b6040805160008152602081019091526107849083908390611453565b6001600160a01b0382166115e6576040517fc41a13ec00000000000000000000000000000000000000000000000000000000815260040160405180910390fd5b806115fb576115f6600e8361237f565b611606565b611606600e83612394565b50816001600160a01b03167f6264362e9de26efefda321dfaeb4e4a9090deef40c5435fad8e9e2e306889a1c82604051611644911515815260200190565b60405180910390a25050565b60408051600480825260a0820190925260609160208201608080368337019050509050846001600160a01b03168160008151811061169057611690614ce0565b602002602001018181525050836001600160a01b0316816001815181106116b9576116b9614ce0565b60200260200101818152505082816002815181106116d9576116d9614ce0565b60200260200101818152505081816003815181106116f9576116f9614ce0565b602002602001018181525050949350505050565b6001600160a01b03841661174d576040517fe7ba3e4a00000000000000000000000000000000000000000000000000000000815260040160405180910390fd5b6001600160a01b0384166000908152601360205260409020611771908484846123a9565b604080516001600160a01b03858116825260208201859052918101839052908516907ff099617c054d3a65e02a9c3b786f23cc03d5982bc7cfae84dff0408049cf17079060600160405180910390a250505050565b600d80548291907fffffffffffffffffffffffffffffffffffffffffffffffffffffffffffffff00166001838181111561180257611802614ac9565b02179055507f216b6a9618d607ba436d0f2e17e9a83e70929adff805ac2385d67401360e551a816040516114cb9190614af8565b60078190556040518181527fea12b72eef155a5c546ace7f0bb7e8dc49ef4e666c276cdc6d5687b83525fada906020016114cb565b6001600160a01b0384166118ab576040517f1de0c9c700000000000000000000000000000000000000000000000000000000815260040160405180910390fd5b6001600160a01b03841660009081526019602052604090206118cf90848484612491565b826001600160a01b0316846001600160a01b03167f1b5c5e27ed5443e409bae85849d41d7bf12d5352e8fddb3728b6408f836e1448848460405161191d929190918252602082015260400190565b60405180910390a350505050565b8051600003611966576040517fedaf4df500000000000000000000000000000000000000000000000000000000815260040160405180910390fd5b601b6119728282614ead565b507fb536117039b9f092020f65947be2f7ed81b167be574c4cf8f4291825d545b072816040516114cb9190614b7f565b6040805160028082526060808301845292602083019080368337019050509050826001600160a01b0316816000815181106119df576119df614ce0565b60200260200101818152505081816001815181106119ff576119ff614ce0565b60200260200101818152505092915050565b611a1b8484612608565b6001600160a01b038416611a5b576040517fc0e0f12200000000000000000000000000000000000000000000000000000000815260040160405180910390fd5b82600003611a95576040517f1463acbe00000000000000000000000000000000000000000000000000000000815260040160405180910390fd5b6001600160a01b038216611ad5576040517f2586ae9100000000000000000000000000000000000000000000000000000000815260040160405180910390fd5b60408051466020808301919091527fffffffffffffffffffffffffffffffffffffffff00000000000000000000000030606090811b82168486015288811b821660548501526068840188905286901b1660888301528251808303607c018152609c90920190925280519101206000906000818152601c602052604090205490915060ff1615611baa576040517ff78a35180000000000000000000000000000000000000000000000000000000081526001600160a01b0380871660048301526024820186905284166044820152606401610871565b6000611c0c611c06836040517f19457468657265756d205369676e6564204d6573736167653a0a3332000000006020820152603c8101829052600090605c01604051602081830303815290604052805190602001209050919050565b8461264e565b601a549091506001600160a01b03808316911614611c6d57601a546040517f8311c6310000000000000000000000000000000000000000000000000000000081526001600160a01b0380841660048301529091166024820152604401610871565b505050505050565b604080514660208083019190915230606090811b7fffffffffffffffffffffffffffffffffffffffff0000000000000000000000009081168486015288821b81166054850152606884018890529086901b1660888301528251607c818403018152609c90920183528151918101919091206000908152601c9091522080547fffffffffffffffffffffffffffffffffffffffffffffffffffffffffffffff001660011790556109468484612672565b6060611165826001600160a01b031661140c565b6001600160a01b038116611d78576040517f98e743d200000000000000000000000000000000000000000000000000000000815260040160405180910390fd5b601a80547fffffffffffffffffffffffff0000000000000000000000000000000000000000166001600160a01b0383169081179091556040517f9eaa897564d022fb8c5efaf0acdb5d9d27b440b2aad44400b6e1c702e65b9ed390600090a250565b60408051600280825260608083018452926020830190803683370190505090508260001c81600081518110611e1157611e11614ce0565b6020026020010181815250508160001c816001815181106119ff576119ff614ce0565b8015611e6f576040517f9842f26f00000000000000000000000000000000000000000000000000000000815260048101829052602401610871565b610784828261269a565b60408051600380825260808201909252606091602082018380368337019050509050836001600160a01b031681600081518110611eb857611eb8614ce0565b6020026020010181815250508281600181518110611ed857611ed8614ce0565b6020026020010181815250508181600281518110611ef857611ef8614ce0565b6020026020010181815250509392505050565b611f186014848484612491565b60408051838152602081018390526001600160a01b038516917f6324b5f18e615697a2b44f16d7a649deb0bbbc7cb09dad4c610306105730e7d9910160405180910390a2505050565b600c54811015611fab57600c546040517f5e55db19000000000000000000000000000000000000000000000000000000008152600481019190915260248101829052604401610871565b600a8190556040518181527f19977a2303ceb34bef2e4dd4565faac5f9b6ebc0c20a5ee6ec7aca38d5b15938906020016114cb565b611fed60108484846123a9565b604080516001600160a01b0385168152602081018490529081018290527fa80953bdc344b2ebd0bcdd001a3418a8fd1b858bdecf12a4ba5a9366ad65d3459060600160405180910390a1505050565b6001600160a01b0380821660009081526019602052604081208054919290911615612067578061206a565b60145b9392505050565b670de0b6b3a76400008111156120b3576040517fce57496100000000000000000000000000000000000000000000000000000000815260040160405180910390fd5b60098190556040518181527f6f595fa7bd8d8d8862d5832788f1ce1fe642af019a167c3bb93c793246185a96906020016114cb565b600a5481111561213257600a546040517f5e55db19000000000000000000000000000000000000000000000000000000008152610871918391600401918252602082015260400190565b600c8190556040518181527f6243d0b89023d75f69a263222092c4479e48ec8866bee94a0c6d38288425ca76906020016114cb565b600b8190556040518181527f591533b8b1db3df52ac5cbf75069102b6618d2a941cb88c223fd353ff4e65d4d906020016114cb565b600080546040517f28522895000000000000000000000000000000000000000000000000000000008152620100009091046001600160a01b0316906328522895906121f1908790309088908890600401614fa9565b602060405180830381865afa15801561220e573d6000803e3d6000fd5b505050506040513d601f19601f820116820180604052508101906122329190615007565b949350505050565b600054610100900460ff166122a55760405162461bcd60e51b815260206004820152602b60248201527f496e697469616c697a61626c653a20636f6e7472616374206973206e6f74206960448201526a6e697469616c697a696e6760a81b6064820152608401610871565b80516122b09061271d565b6122b86127ff565b6122c58160200151612874565b6122d281604001516128e8565b6122df816060015161295c565b6122ec81608001516129d0565b6122f98160a00151612a44565b610de281612ab8565b600054610100900460ff1661236d5760405162461bcd60e51b815260206004820152602b60248201527f496e697469616c697a61626c653a20636f6e7472616374206973206e6f74206960448201526a6e697469616c697a696e6760a81b6064820152608401610871565b61237682611d38565b610a0f8161192b565b600061206a836001600160a01b038416612b23565b600061206a836001600160a01b038416612c16565b60006001600160a01b0384161580156123c0575082155b80156123ca575081155b905060006001600160a01b038516158015906123ee57508215806123ee5750838310155b9050811580156123fc575080155b1561244c576040517fca1f04830000000000000000000000000000000000000000000000000000000081526001600160a01b03861660048201526024810185905260448101849052606401610871565b505083547fffffffffffffffffffffffff0000000000000000000000000000000000000000166001600160a01b03939093169290921783556001830155600290910155565b60006001600160a01b0384161580156124a8575082155b80156124b2575081155b905060006001600160a01b038516158015906124ce5750600084115b80156124da5750600083115b9050811580156124e8575080155b15612538576040517ff5deb5dc0000000000000000000000000000000000000000000000000000000081526001600160a01b03861660048201526024810185905260448101849052606401610871565b6003860183905560018601849055811561255f5760006002870181905560048701556125cb565b8560040154600003612586576000600287015561257c8342615024565b60048701556125cb565b85546001600160a01b038681169116146125cb5785546000906125b2906001600160a01b031687612c65565b60028801549091506125c49082612c71565b6002880155505b505083547fffffffffffffffffffffffff0000000000000000000000000000000000000000166001600160a01b0393909316929092179092555050565b6126128282612ce7565b61261c8282612cf1565b6126268282612d2e565b6126308282612df6565b61263a8282612ed1565b6126448282612f4d565b610784828261303a565b600080600061265d8585613150565b9150915061266a816131be565b509392505050565b61267c82826133aa565b612686828261344c565b61269082826134cc565b61078482826136da565b80821480156126a857508115155b156126e2576040517f0fb49edb00000000000000000000000000000000000000000000000000000000815260048101839052602401610871565b60028290556003819055604051819083907ff950a929751d87db181a0a517df21bb3ecd433abba584594402db4b58a55483590600090a35050565b600054610100900460ff166127885760405162461bcd60e51b815260206004820152602b60248201527f496e697469616c697a61626c653a20636f6e7472616374206973206e6f74206960448201526a6e697469616c697a696e6760a81b6064820152608401610871565b6127f681600001516001600160a01b031663d09edf316040518163ffffffff1660e01b8152600401602060405180830381865afa1580156127cd573d6000803e3d6000fd5b505050506040513d601f19601f820116820180604052508101906127f19190615037565b613707565b610de28161377b565b600054610100900460ff1661286a5760405162461bcd60e51b815260206004820152602b60248201527f496e697469616c697a61626c653a20636f6e7472616374206973206e6f74206960448201526a6e697469616c697a696e6760a81b6064820152608401610871565b612872613833565b565b600054610100900460ff166128df5760405162461bcd60e51b815260206004820152602b60248201527f496e697469616c697a61626c653a20636f6e7472616374206973206e6f74206960448201526a6e697469616c697a696e6760a81b6064820152608401610871565b610de28161389e565b600054610100900460ff166129535760405162461bcd60e51b815260206004820152602b60248201527f496e697469616c697a61626c653a20636f6e7472616374206973206e6f74206960448201526a6e697469616c697a696e6760a81b6064820152608401610871565b610de28161393b565b600054610100900460ff166129c75760405162461bcd60e51b815260206004820152602b60248201527f496e697469616c697a61626c653a20636f6e7472616374206973206e6f74206960448201526a6e697469616c697a696e6760a81b6064820152608401610871565b610de2816139cb565b600054610100900460ff16612a3b5760405162461bcd60e51b815260206004820152602b60248201527f496e697469616c697a61626c653a20636f6e7472616374206973206e6f74206960448201526a6e697469616c697a696e6760a81b6064820152608401610871565b610de281613a8b565b600054610100900460ff16612aaf5760405162461bcd60e51b815260206004820152602b60248201527f496e697469616c697a61626c653a20636f6e7472616374206973206e6f74206960448201526a6e697469616c697a696e6760a81b6064820152608401610871565b610de281613b7b565b600054610100900460ff16610de25760405162461bcd60e51b815260206004820152602b60248201527f496e697469616c697a61626c653a20636f6e7472616374206973206e6f74206960448201526a6e697469616c697a696e6760a81b6064820152608401610871565b60008181526001830160205260408120548015612c0c576000612b47600183615054565b8554909150600090612b5b90600190615054565b9050818114612bc0576000866000018281548110612b7b57612b7b614ce0565b9060005260206000200154905080876000018481548110612b9e57612b9e614ce0565b6000918252602080832090910192909255918252600188019052604090208390555b8554869080612bd157612bd1615067565b600190038181906000526020600020016000905590558560010160008681526020019081526020016000206000905560019350505050611165565b6000915050611165565b6000818152600183016020526040812054612c5d57508154600181810184556000848152602080822090930184905584548482528286019093526040902091909155611165565b506000611165565b600061206a8383613c6b565b60008282028315801590612c94575082848281612c9057612c90615096565b0414155b15612cd5576040517fe8e4a4fa0000000000000000000000000000000000000000000000000000000081526004810185905260248101849052604401610871565b670de0b6b3a764000090049392505050565b6107848282613e82565b60045460ff1615610784576040517fc0f2312800000000000000000000000000000000000000000000000000000000815260040160405180910390fd5b5a6005556006546000901580612d4657506006543a11155b905080612d8c576006546040517fcbb35eb70000000000000000000000000000000000000000000000000000000081523a60048201526024810191909152604401610871565b6000612d98483a615054565b9050600060075460001480612daf57506007548211155b905080610af1576007546040517f56e5387f000000000000000000000000000000000000000000000000000000008152610871918491600401918252602082015260400190565b600b54421015612e3f57600b546040517f17d7a5d60000000000000000000000000000000000000000000000000000000081526004810191909152426024820152604401610871565b600c5415610784576000600b5442612e579190615054565b90506000600a5482612e6991906150c5565b90506000600a5482612e7b9190615100565b612e859084615054565b9050600c54811115610af157600c546040517f5001a871000000000000000000000000000000000000000000000000000000008152610871918391600401918252602082015260400190565b6000612ede600e84613f17565b905060006001600d5460ff166001811115612efb57612efb614ac9565b14612f07578115612f09565b815b905080610946576040517f7a2410450000000000000000000000000000000000000000000000000000000081526001600160a01b0385166004820152602401610871565b6000612f5883610d20565b80519091506001600160a01b0316612f6f57505050565b6000836001600160a01b031682600001516001600160a01b031614612fab57612fa6612f9f858460000151612c65565b8490612c71565b612fad565b825b9050600082602001518210158015612fd5575060408301511580612fd5575082604001518211155b905080610af1578251602084015160408086015190517f7c63a4b00000000000000000000000000000000000000000000000000000000081526001600160a01b0390931660048401526024830185905260448301919091526064820152608401610871565b60006130458361203c565b6040805160a08101825282546001600160a01b03168082526001840154602083015260028401549282019290925260038301546060820152600490920154608083015290915061309457505050565b6000836001600160a01b031682600001516001600160a01b0316146130c9576130c4612f9f858460000151612c65565b6130cb565b825b90506000826080015142106130e15760006130e7565b82604001515b6130f19083615024565b90508260200151811115610af157825160208401516040517fb8858d5d0000000000000000000000000000000000000000000000000000000081526001600160a01b039092166004830152602482015260448101829052606401610871565b60008082516041036131865760208301516040840151606085015160001a61317a87828585613f39565b945094505050506131b7565b82516040036131af57602083015160408401516131a4868383614026565b9350935050506131b7565b506000905060025b9250929050565b60008160048111156131d2576131d2614ac9565b036131da5750565b60018160048111156131ee576131ee614ac9565b0361323b5760405162461bcd60e51b815260206004820152601860248201527f45434453413a20696e76616c6964207369676e617475726500000000000000006044820152606401610871565b600281600481111561324f5761324f614ac9565b0361329c5760405162461bcd60e51b815260206004820152601f60248201527f45434453413a20696e76616c6964207369676e6174757265206c656e677468006044820152606401610871565b60038160048111156132b0576132b0614ac9565b036133235760405162461bcd60e51b815260206004820152602260248201527f45434453413a20696e76616c6964207369676e6174757265202773272076616c60448201527f75650000000000000000000000000000000000000000000000000000000000006064820152608401610871565b600481600481111561333757613337614ac9565b03610de25760405162461bcd60e51b815260206004820152602260248201527f45434453413a20696e76616c6964207369676e6174757265202776272076616c60448201527f75650000000000000000000000000000000000000000000000000000000000006064820152608401610871565b60006133b58361203c565b80549091506001600160a01b03166133cc57505050565b80546000906001600160a01b038581169116146134025781546133fd90612f9f9086906001600160a01b0316612c65565b613404565b825b90508160040154421061342d576000600283015560038201546134279042615024565b60048301555b808260020160008282546134419190615024565b909155505050505050565b600a5415610784576000600b5460000361347457600a5461346d9042615024565b90506134c3565b6000600b54426134849190615054565b90506000600a548261349691906150c5565b6134a1906001615024565b9050600a54816134b19190615100565b600b546134be9190615024565b925050505b610a0f81612167565b600554600003613508576040517f1f5b8fc600000000000000000000000000000000000000000000000000000000815260040160405180910390fd5b60005a6005546135189190615054565b905060006135263a83615100565b9050600060085411801561353b575060085481115b15613580576008546040517faf258ef2000000000000000000000000000000000000000000000000000000008152610871918391600401918252602082015260400190565b6000600555600954158015906135965750600083115b15610946576000613669306001600160a01b0316634fd49efd6040518163ffffffff1660e01b8152600401602060405180830381865afa1580156135de573d6000803e3d6000fd5b505050506040513d601f19601f820116820180604052508101906136029190615037565b6001600160a01b03166317fcb39b6040518163ffffffff1660e01b8152600401602060405180830381865afa15801561363f573d6000803e3d6000fd5b505050506040513d601f19601f820116820180604052508101906136639190615037565b86612c65565b905060006136778383614078565b905060006136858287614121565b90506009548111156136d1576009546040517f0297747f000000000000000000000000000000000000000000000000000000008152610871918391600401918252602082015260400190565b50505050505050565b6040517f68f46c45a243a0e9065a97649faf9a5afe1692f2679e650c2f853b9cd734cc0e90600090a15050565b600054610100900460ff166137725760405162461bcd60e51b815260206004820152602b60248201527f496e697469616c697a61626c653a20636f6e7472616374206973206e6f74206960448201526a6e697469616c697a696e6760a81b6064820152608401610871565b610de2816141ea565b600054610100900460ff166137e65760405162461bcd60e51b815260206004820152602b60248201527f496e697469616c697a61626c653a20636f6e7472616374206973206e6f74206960448201526a6e697469616c697a696e6760a81b6064820152608401610871565b8051600180547fffffffffffffffffffffffff0000000000000000000000000000000000000000166001600160a01b0390921691909117905560208101516040820151610de29190611e34565b600054610100900460ff166128725760405162461bcd60e51b815260206004820152602b60248201527f496e697469616c697a61626c653a20636f6e7472616374206973206e6f74206960448201526a6e697469616c697a696e6760a81b6064820152608401610871565b600054610100900460ff166139095760405162461bcd60e51b815260206004820152602b60248201527f496e697469616c697a61626c653a20636f6e7472616374206973206e6f74206960448201526a6e697469616c697a696e6760a81b6064820152608401610871565b8051613914906114d6565b6139218160200151611836565b61392e816040015161149a565b610de28160600151612071565b600054610100900460ff166139a65760405162461bcd60e51b815260206004820152602b60248201527f496e697469616c697a61626c653a20636f6e7472616374206973206e6f74206960448201526a6e697469616c697a696e6760a81b6064820152608401610871565b80516139b190611f61565b6139be8160200151612167565b610de281604001516120e8565b600054610100900460ff16613a365760405162461bcd60e51b815260206004820152602b60248201527f496e697469616c697a61626c653a20636f6e7472616374206973206e6f74206960448201526a6e697469616c697a696e6760a81b6064820152608401610871565b8051613a41906117c6565b60005b81602001515181101561078457613a7982602001518281518110613a6a57613a6a614ce0565b602002602001015160016115a6565b80613a8381614d3e565b915050613a44565b600054610100900460ff16613af65760405162461bcd60e51b815260206004820152602b60248201527f496e697469616c697a61626c653a20636f6e7472616374206973206e6f74206960448201526a6e697469616c697a696e6760a81b6064820152608401610871565b8051805160208201516040830151613b0f929190611fe0565b60005b826020015151811015610a0f57600083602001518281518110613b3757613b37614ce0565b60200260200101519050600081602001519050613b66826000015182600001518360200151846040015161170d565b50508080613b7390614d3e565b915050613b12565b600054610100900460ff16613be65760405162461bcd60e51b815260206004820152602b60248201527f496e697469616c697a61626c653a20636f6e7472616374206973206e6f74206960448201526a6e697469616c697a696e6760a81b6064820152608401610871565b8051805160208201516040830151613bff929190611f0b565b60005b826020015151811015610a0f57600083602001518281518110613c2757613c27614ce0565b60200260200101519050600081602001519050613c56826000015182600001518360200151846040015161186b565b50508080613c6390614d3e565b915050613c02565b600080600160009054906101000a90046001600160a01b03166001600160a01b0316632630c12f6040518163ffffffff1660e01b8152600401602060405180830381865afa158015613cc1573d6000803e3d6000fd5b505050506040513d601f19601f82011682018060405250810190613ce59190615037565b90506001600160a01b038116613d36576001546040517f38d2baae0000000000000000000000000000000000000000000000000000000081526001600160a01b039091166004820152602401610871565b6000613d40614295565b90508051600014613dd157816001600160a01b031663355efdd9613d6387614315565b613d6c87614315565b846040518463ffffffff1660e01b8152600401613d8b93929190615117565b602060405180830381865afa158015613da8573d6000803e3d6000fd5b505050506040513d601f19601f82011682018060405250810190613dcc9190614dc9565b613e79565b816001600160a01b031663ac41865a613de987614315565b613df287614315565b6040517fffffffff0000000000000000000000000000000000000000000000000000000060e085901b1681526001600160a01b03928316600482015291166024820152604401602060405180830381865afa158015613e55573d6000803e3d6000fd5b505050506040513d601f19601f82011682018060405250810190613e799190614dc9565b95945050505050565b60025415610784576001546002546040517feb056bbb00000000000000000000000000000000000000000000000000000000815260048101919091526001600160a01b03848116602483015260448201849052600060648301529091169063eb056bbb90608401600060405180830381600087803b158015613f0357600080fd5b505af1158015611c6d573d6000803e3d6000fd5b6001600160a01b0381166000908152600183016020526040812054151561206a565b6000807f7fffffffffffffffffffffffffffffff5d576e7357a4501ddfe92f46681b20a0831115613f70575060009050600361401d565b8460ff16601b14158015613f8857508460ff16601c14155b15613f99575060009050600461401d565b6040805160008082526020820180845289905260ff881692820192909252606081018690526080810185905260019060a0016020604051602081039080840390855afa158015613fed573d6000803e3d6000fd5b5050604051601f1901519150506001600160a01b0381166140165760006001925092505061401d565b9150600090505b94509492505050565b6000807f7fffffffffffffffffffffffffffffffffffffffffffffffffffffffffffffff83168161405c60ff86901c601b615024565b905061406a87828885613f39565b935093505050935093915050565b6000828202831580159061409b57508284828161409757614097615096565b0414155b156140dc576040517fe8e4a4fa0000000000000000000000000000000000000000000000000000000081526004810185905260248101849052604401610871565b801561411757670de0b6b3a76400007fffffffffffffffffffffffffffffffffffffffffffffffffffffffffffffffff820104600101612232565b6000949350505050565b60008160000361415d576040517fb8a2f92100000000000000000000000000000000000000000000000000000000815260040160405180910390fd5b8260000361416d57506000611165565b670de0b6b3a76400008381029084828161418957614189615096565b04146141cb576040517fea7b49e60000000000000000000000000000000000000000000000000000000081526004810185905260248101829052604401610871565b8260018203816141dd576141dd615096565b0460010191505092915050565b600054610100900460ff166142555760405162461bcd60e51b815260206004820152602b60248201527f496e697469616c697a61626c653a20636f6e7472616374206973206e6f74206960448201526a6e697469616c697a696e6760a81b6064820152608401610871565b600080546001600160a01b0390921662010000027fffffffffffffffffffff0000000000000000000000000000000000000000ffff909216919091179055565b606060006142a1614349565b9050368111156142bf57505060408051600081526020810190915290565b8067ffffffffffffffff8111156142d8576142d8614409565b6040519080825280601f01601f191660200182016040528015614302576020820181803683370190505b5091508060208236030360208401375090565b600073eeeeeeeeeeeeeeeeeeeeeeeeeeeeeeeeeeeeeeee6001600160a01b038316146143415781611165565b611165614364565b6000602436101561435a5750600090565b50601f1936013590565b600154604080517f17fcb39b00000000000000000000000000000000000000000000000000000000815290516000926001600160a01b0316916317fcb39b9160048083019260209291908290030181865afa1580156143c7573d6000803e3d6000fd5b505050506040513d601f19601f820116820180604052508101906143eb9190615037565b905090565b60006020828403121561440257600080fd5b5035919050565b7f4e487b7100000000000000000000000000000000000000000000000000000000600052604160045260246000fd5b6040516060810167ffffffffffffffff8111828210171561445b5761445b614409565b60405290565b6040805190810167ffffffffffffffff8111828210171561445b5761445b614409565b60405160c0810167ffffffffffffffff8111828210171561445b5761445b614409565b604051601f8201601f1916810167ffffffffffffffff811182821017156144d0576144d0614409565b604052919050565b6001600160a01b0381168114610de257600080fd5b80356144f8816144d8565b919050565b60006060828403121561450f57600080fd5b614517614438565b90508135614524816144d8565b80825250602082013560208201526040820135604082015292915050565b60006080828403121561455457600080fd5b6040516080810181811067ffffffffffffffff8211171561457757614577614409565b8060405250809150823581526020830135602082015260408301356040820152606083013560608201525092915050565b6000606082840312156145ba57600080fd5b6145c2614438565b905081358152602082013560208201526040820135604082015292915050565b8035600281106144f857600080fd5b600067ffffffffffffffff82111561460b5761460b614409565b5060051b60200190565b600082601f83011261462657600080fd5b8135602061463b614636836145f1565b6144a7565b82815260059290921b8401810191818101908684111561465a57600080fd5b8286015b8481101561467e578035614671816144d8565b835291830191830161465e565b509695505050505050565b60006040828403121561469b57600080fd5b6146a3614461565b90506146ae826145e2565b8152602082013567ffffffffffffffff8111156146ca57600080fd5b6146d684828501614615565b60208301525092915050565b6000608082840312156146f457600080fd5b6146fc614461565b90508135614709816144d8565b815261471883602084016144fd565b602082015292915050565b6000608080838503121561473657600080fd5b61473e614461565b915061474a84846144fd565b8252606083013567ffffffffffffffff81111561476657600080fd5b8301601f8101851361477757600080fd5b80356020614787614636836145f1565b82815260079290921b830181019181810190888411156147a657600080fd5b938201935b838510156147cc576147bd89866146e2565b825293850193908201906147ab565b808388015250505050505092915050565b600067ffffffffffffffff8311156147f7576147f7614409565b61480a6020601f19601f860116016144a7565b905082815283838301111561481e57600080fd5b828260208301376000602084830101529392505050565b600082601f83011261484657600080fd5b61206a838335602085016147dd565b60008060006060848603121561486a57600080fd5b833567ffffffffffffffff8082111561488257600080fd5b908501906101a0828803121561489757600080fd5b61489f614484565b6148a988846144fd565b81526148b88860608501614542565b60208201526148ca8860e085016145a8565b6040820152610140830135828111156148e257600080fd5b6148ee89828601614689565b6060830152506101608301358281111561490757600080fd5b61491389828601614723565b6080830152506101808301358281111561492c57600080fd5b61493889828601614723565b60a083015250945061494c602087016144ed565b9350604086013591508082111561496257600080fd5b5061496f86828701614835565b9150509250925092565b8015158114610de257600080fd5b6000806040838503121561499a57600080fd5b823567ffffffffffffffff808211156149b257600080fd5b6149be86838701614615565b93506020915081850135818111156149d557600080fd5b85019050601f810186136149e857600080fd5b80356149f6614636826145f1565b81815260059190911b82018301908381019088831115614a1557600080fd5b928401925b82841015614a3c578335614a2d81614979565b82529284019290840190614a1a565b80955050505050509250929050565b600060208284031215614a5d57600080fd5b813561206a816144d8565b60008060008060808587031215614a7e57600080fd5b8435614a89816144d8565b93506020850135614a99816144d8565b93969395505050506040820135916060013590565b600060208284031215614ac057600080fd5b61206a826145e2565b7f4e487b7100000000000000000000000000000000000000000000000000000000600052602160045260246000fd5b6020810160028310614b33577f4e487b7100000000000000000000000000000000000000000000000000000000600052602160045260246000fd5b91905290565b6000815180845260005b81811015614b5f57602081850181015186830182015201614b43565b506000602082860101526020601f19601f83011685010191505092915050565b60208152600061206a6020830184614b39565b600060208284031215614ba457600080fd5b813567ffffffffffffffff811115614bbb57600080fd5b61223284828501614835565b60008060008060808587031215614bdd57600080fd5b8435614be8816144d8565b9350602085013592506040850135614bff816144d8565b9150606085013567ffffffffffffffff811115614c1b57600080fd5b8501601f81018713614c2c57600080fd5b614c3b878235602084016147dd565b91505092959194509250565b60008060408385031215614c5a57600080fd5b50508035926020909101359150565b600080600060608486031215614c7e57600080fd5b8335614c89816144d8565b95602085013595506040909401359392505050565b600080600060608486031215614cb357600080fd5b8335614cbe816144d8565b9250602084013591506040840135614cd5816144d8565b809150509250925092565b7f4e487b7100000000000000000000000000000000000000000000000000000000600052603260045260246000fd5b7f4e487b7100000000000000000000000000000000000000000000000000000000600052601160045260246000fd5b60007fffffffffffffffffffffffffffffffffffffffffffffffffffffffffffffffff8203614d6f57614d6f614d0f565b5060010190565b600181811c90821680614d8a57607f821691505b602082108103614dc3577f4e487b7100000000000000000000000000000000000000000000000000000000600052602260045260246000fd5b50919050565b600060208284031215614ddb57600080fd5b5051919050565b600081518084526020808501945080840160005b83811015614e1257815187529582019590820190600101614df6565b509495945050505050565b6001600160a01b03841681527fffffffff0000000000000000000000000000000000000000000000000000000083166020820152606060408201526000613e796060830184614de2565b601f821115610a0f57600081815260208120601f850160051c81016020861015614e8e5750805b601f850160051c820191505b81811015611c6d57828155600101614e9a565b815167ffffffffffffffff811115614ec757614ec7614409565b614edb81614ed58454614d76565b84614e67565b602080601f831160018114614f2e5760008415614ef85750858301515b7fffffffffffffffffffffffffffffffffffffffffffffffffffffffffffffffff600386901b1c1916600185901b178555611c6d565b600085815260208120601f198616915b82811015614f5d57888601518255948401946001909101908401614f3e565b5085821015614f9957878501517fffffffffffffffffffffffffffffffffffffffffffffffffffffffffffffffff600388901b60f8161c191681555b5050505050600190811b01905550565b60006001600160a01b0380871683528086166020840152507fffffffff000000000000000000000000000000000000000000000000000000008416604083015260806060830152614ffd6080830184614de2565b9695505050505050565b60006020828403121561501957600080fd5b815161206a81614979565b8082018082111561116557611165614d0f565b60006020828403121561504957600080fd5b815161206a816144d8565b8181038181111561116557611165614d0f565b7f4e487b7100000000000000000000000000000000000000000000000000000000600052603160045260246000fd5b7f4e487b7100000000000000000000000000000000000000000000000000000000600052601260045260246000fd5b6000826150fb577f4e487b7100000000000000000000000000000000000000000000000000000000600052601260045260246000fd5b500490565b808202811582820484141761116557611165614d0f565b60006001600160a01b03808616835280851660208401525060606040830152613e796060830184614b3956fea26469706673582212200bef1d420732316567614acd65789443b77cae12f15688b23a3f81cd2767f64964736f6c63430008110033","opcodes":"PUSH1 0x80 PUSH1 0x40 MSTORE CALLVALUE DUP1 ISZERO PUSH3 0x11 JUMPI PUSH1 0x0 DUP1 REVERT JUMPDEST POP PUSH3 0x1C PUSH3 0x22 JUMP JUMPDEST PUSH3 0xE4 JUMP JUMPDEST PUSH1 0x0 SLOAD PUSH2 0x100 SWAP1 DIV PUSH1 0xFF AND ISZERO PUSH3 0x8F JUMPI PUSH1 0x40 MLOAD PUSH3 0x461BCD PUSH1 0xE5 SHL DUP2 MSTORE PUSH1 0x20 PUSH1 0x4 DUP3 ADD MSTORE PUSH1 0x27 PUSH1 0x24 DUP3 ADD MSTORE PUSH32 0x496E697469616C697A61626C653A20636F6E747261637420697320696E697469 PUSH1 0x44 DUP3 ADD MSTORE PUSH7 0x616C697A696E67 PUSH1 0xC8 SHL PUSH1 0x64 DUP3 ADD MSTORE PUSH1 0x84 ADD PUSH1 0x40 MLOAD DUP1 SWAP2 SUB SWAP1 REVERT JUMPDEST PUSH1 0x0 SLOAD PUSH1 0xFF SWAP1 DUP2 AND LT ISZERO PUSH3 0xE2 JUMPI PUSH1 0x0 DUP1 SLOAD PUSH1 0xFF NOT AND PUSH1 0xFF SWAP1 DUP2 OR SWAP1 SWAP2 SSTORE PUSH1 0x40 MLOAD SWAP1 DUP2 MSTORE PUSH32 0x7F26B83FF96E1F2B6A682F133852F6798A09C465DA95921460CEFB3847402498 SWAP1 PUSH1 0x20 ADD PUSH1 0x40 MLOAD DUP1 SWAP2 SUB SWAP1 LOG1 JUMPDEST JUMP JUMPDEST PUSH2 0x5179 DUP1 PUSH3 0xF4 PUSH1 0x0 CODECOPY PUSH1 0x0 RETURN INVALID PUSH1 0x80 PUSH1 0x40 MSTORE CALLVALUE DUP1 ISZERO PUSH2 0x10 JUMPI PUSH1 0x0 DUP1 REVERT JUMPDEST POP PUSH1 0x4 CALLDATASIZE LT PUSH2 0x30A JUMPI PUSH1 0x0 CALLDATALOAD PUSH1 0xE0 SHR DUP1 PUSH4 0x7125590A GT PUSH2 0x19C JUMPI DUP1 PUSH4 0xAB76D408 GT PUSH2 0xEE JUMPI DUP1 PUSH4 0xD45A76CF GT PUSH2 0x97 JUMPI DUP1 PUSH4 0xEE98CF6D GT PUSH2 0x71 JUMPI DUP1 PUSH4 0xEE98CF6D EQ PUSH2 0x714 JUMPI DUP1 PUSH4 0xF440284B EQ PUSH2 0x727 JUMPI DUP1 PUSH4 0xF605145B EQ PUSH2 0x73A JUMPI PUSH1 0x0 DUP1 REVERT JUMPDEST DUP1 PUSH4 0xD45A76CF EQ PUSH2 0x6E5 JUMPI DUP1 PUSH4 0xD4DFD588 EQ PUSH2 0x6F8 JUMPI DUP1 PUSH4 0xDCCF56CE EQ PUSH2 0x701 JUMPI PUSH1 0x0 DUP1 REVERT JUMPDEST DUP1 PUSH4 0xC49A91FE GT PUSH2 0xC8 JUMPI DUP1 PUSH4 0xC49A91FE EQ PUSH2 0x6A6 JUMPI DUP1 PUSH4 0xD09EDF31 EQ PUSH2 0x6B9 JUMPI DUP1 PUSH4 0xD3FEB602 EQ PUSH2 0x6D2 JUMPI PUSH1 0x0 DUP1 REVERT JUMPDEST DUP1 PUSH4 0xAB76D408 EQ PUSH2 0x67F JUMPI DUP1 PUSH4 0xB187BD26 EQ PUSH2 0x688 JUMPI DUP1 PUSH4 0xC267621E EQ PUSH2 0x695 JUMPI PUSH1 0x0 DUP1 REVERT JUMPDEST DUP1 PUSH4 0x90333BA8 GT PUSH2 0x150 JUMPI DUP1 PUSH4 0xA3374177 GT PUSH2 0x12A JUMPI DUP1 PUSH4 0xA3374177 EQ PUSH2 0x5E3 JUMPI DUP1 PUSH4 0xA5900C4D EQ PUSH2 0x5EB JUMPI DUP1 PUSH4 0xA7DAAD60 EQ PUSH2 0x5FE JUMPI PUSH1 0x0 DUP1 REVERT JUMPDEST DUP1 PUSH4 0x90333BA8 EQ PUSH2 0x5B4 JUMPI DUP1 PUSH4 0x961A929C EQ PUSH2 0x5C7 JUMPI DUP1 PUSH4 0xA0C3774F EQ PUSH2 0x5D0 JUMPI PUSH1 0x0 DUP1 REVERT JUMPDEST DUP1 PUSH4 0x8456CB59 GT PUSH2 0x181 JUMPI DUP1 PUSH4 0x8456CB59 EQ PUSH2 0x59A JUMPI DUP1 PUSH4 0x85538533 EQ PUSH2 0x5A2 JUMPI DUP1 PUSH4 0x8BBC6446 EQ PUSH2 0x5AB JUMPI PUSH1 0x0 DUP1 REVERT JUMPDEST DUP1 PUSH4 0x7125590A EQ PUSH2 0x57E JUMPI DUP1 PUSH4 0x7D43D4ED EQ PUSH2 0x591 JUMPI PUSH1 0x0 DUP1 REVERT JUMPDEST DUP1 PUSH4 0x423A4B40 GT PUSH2 0x260 JUMPI DUP1 PUSH4 0x53F98376 GT PUSH2 0x209 JUMPI DUP1 PUSH4 0x6AACAAD8 GT PUSH2 0x1E3 JUMPI DUP1 PUSH4 0x6AACAAD8 EQ PUSH2 0x55A JUMPI DUP1 PUSH4 0x6C19E783 EQ PUSH2 0x562 JUMPI DUP1 PUSH4 0x6CD8FCA7 EQ PUSH2 0x575 JUMPI PUSH1 0x0 DUP1 REVERT JUMPDEST DUP1 PUSH4 0x53F98376 EQ PUSH2 0x52B JUMPI DUP1 PUSH4 0x5D28414C EQ PUSH2 0x53E JUMPI DUP1 PUSH4 0x62F57B60 EQ PUSH2 0x547 JUMPI PUSH1 0x0 DUP1 REVERT JUMPDEST DUP1 PUSH4 0x4A45A3A8 GT PUSH2 0x23A JUMPI DUP1 PUSH4 0x4A45A3A8 EQ PUSH2 0x4A5 JUMPI DUP1 PUSH4 0x4FD49EFD EQ PUSH2 0x4DA JUMPI DUP1 PUSH4 0x51A424B1 EQ PUSH2 0x4ED JUMPI PUSH1 0x0 DUP1 REVERT JUMPDEST DUP1 PUSH4 0x423A4B40 EQ PUSH2 0x463 JUMPI DUP1 PUSH4 0x42D4693E EQ PUSH2 0x476 JUMPI DUP1 PUSH4 0x4A3E903E EQ PUSH2 0x490 JUMPI PUSH1 0x0 DUP1 REVERT JUMPDEST DUP1 PUSH4 0x2384C32D GT PUSH2 0x2C2 JUMPI DUP1 PUSH4 0x30EAE572 GT PUSH2 0x29C JUMPI DUP1 PUSH4 0x30EAE572 EQ PUSH2 0x435 JUMPI DUP1 PUSH4 0x34077ACC EQ PUSH2 0x448 JUMPI DUP1 PUSH4 0x3F4BA83A EQ PUSH2 0x45B JUMPI PUSH1 0x0 DUP1 REVERT JUMPDEST DUP1 PUSH4 0x2384C32D EQ PUSH2 0x3C4 JUMPI DUP1 PUSH4 0x238AC933 EQ PUSH2 0x3D7 JUMPI DUP1 PUSH4 0x2A682D3B EQ PUSH2 0x402 JUMPI PUSH1 0x0 DUP1 REVERT JUMPDEST DUP1 PUSH4 0xC74E630 GT PUSH2 0x2F3 JUMPI DUP1 PUSH4 0xC74E630 EQ PUSH2 0x337 JUMPI DUP1 PUSH4 0x21972384 EQ PUSH2 0x34A JUMPI DUP1 PUSH4 0x221A8C68 EQ PUSH2 0x35D JUMPI PUSH1 0x0 DUP1 REVERT JUMPDEST DUP1 PUSH4 0x652095D EQ PUSH2 0x30F JUMPI DUP1 PUSH4 0x9231602 EQ PUSH2 0x324 JUMPI JUMPDEST PUSH1 0x0 DUP1 REVERT JUMPDEST PUSH2 0x322 PUSH2 0x31D CALLDATASIZE PUSH1 0x4 PUSH2 0x43F0 JUMP JUMPDEST PUSH2 0x743 JUMP JUMPDEST STOP JUMPDEST PUSH2 0x322 PUSH2 0x332 CALLDATASIZE PUSH1 0x4 PUSH2 0x43F0 JUMP JUMPDEST PUSH2 0x788 JUMP JUMPDEST PUSH2 0x322 PUSH2 0x345 CALLDATASIZE PUSH1 0x4 PUSH2 0x4855 JUMP JUMPDEST PUSH2 0x7C9 JUMP JUMPDEST PUSH2 0x322 PUSH2 0x358 CALLDATASIZE PUSH1 0x4 PUSH2 0x4987 JUMP JUMPDEST PUSH2 0x94C JUMP JUMPDEST PUSH2 0x370 PUSH2 0x36B CALLDATASIZE PUSH1 0x4 PUSH2 0x4A4B JUMP JUMPDEST PUSH2 0xA14 JUMP JUMPDEST PUSH1 0x40 MLOAD PUSH2 0x3BB SWAP2 SWAP1 PUSH1 0x0 PUSH1 0xA0 DUP3 ADD SWAP1 POP PUSH1 0x1 PUSH1 0x1 PUSH1 0xA0 SHL SUB DUP4 MLOAD AND DUP3 MSTORE PUSH1 0x20 DUP4 ADD MLOAD PUSH1 0x20 DUP4 ADD MSTORE PUSH1 0x40 DUP4 ADD MLOAD PUSH1 0x40 DUP4 ADD MSTORE PUSH1 0x60 DUP4 ADD MLOAD PUSH1 0x60 DUP4 ADD MSTORE PUSH1 0x80 DUP4 ADD MLOAD PUSH1 0x80 DUP4 ADD MSTORE SWAP3 SWAP2 POP POP JUMP JUMPDEST PUSH1 0x40 MLOAD DUP1 SWAP2 SUB SWAP1 RETURN JUMPDEST PUSH2 0x322 PUSH2 0x3D2 CALLDATASIZE PUSH1 0x4 PUSH2 0x4A68 JUMP JUMPDEST PUSH2 0xAAA JUMP JUMPDEST PUSH1 0x1A SLOAD PUSH2 0x3EA SWAP1 PUSH1 0x1 PUSH1 0x1 PUSH1 0xA0 SHL SUB AND DUP2 JUMP JUMPDEST PUSH1 0x40 MLOAD PUSH1 0x1 PUSH1 0x1 PUSH1 0xA0 SHL SUB SWAP1 SWAP2 AND DUP2 MSTORE PUSH1 0x20 ADD PUSH2 0x3BB JUMP JUMPDEST PUSH2 0x425 PUSH2 0x410 CALLDATASIZE PUSH1 0x4 PUSH2 0x43F0 JUMP JUMPDEST PUSH1 0x1C PUSH1 0x20 MSTORE PUSH1 0x0 SWAP1 DUP2 MSTORE PUSH1 0x40 SWAP1 KECCAK256 SLOAD PUSH1 0xFF AND DUP2 JUMP JUMPDEST PUSH1 0x40 MLOAD SWAP1 ISZERO ISZERO DUP2 MSTORE PUSH1 0x20 ADD PUSH2 0x3BB JUMP JUMPDEST PUSH2 0x322 PUSH2 0x443 CALLDATASIZE PUSH1 0x4 PUSH2 0x4AAE JUMP JUMPDEST PUSH2 0xAF8 JUMP JUMPDEST PUSH2 0x322 PUSH2 0x456 CALLDATASIZE PUSH1 0x4 PUSH2 0x43F0 JUMP JUMPDEST PUSH2 0xB4D JUMP JUMPDEST PUSH2 0x322 PUSH2 0xB8E JUMP JUMPDEST PUSH2 0x322 PUSH2 0x471 CALLDATASIZE PUSH1 0x4 PUSH2 0x4A68 JUMP JUMPDEST PUSH2 0xC4B JUMP JUMPDEST PUSH1 0xD SLOAD PUSH2 0x483 SWAP1 PUSH1 0xFF AND DUP2 JUMP JUMPDEST PUSH1 0x40 MLOAD PUSH2 0x3BB SWAP2 SWAP1 PUSH2 0x4AF8 JUMP JUMPDEST PUSH2 0x498 PUSH2 0xC92 JUMP JUMPDEST PUSH1 0x40 MLOAD PUSH2 0x3BB SWAP2 SWAP1 PUSH2 0x4B7F JUMP JUMPDEST PUSH2 0x4CC PUSH32 0x6F48FEA04FA9F5A5EF2C321133CF2A12D8FC3AD8DFEF312FE81F896355AF4D94 DUP2 JUMP JUMPDEST PUSH1 0x40 MLOAD SWAP1 DUP2 MSTORE PUSH1 0x20 ADD PUSH2 0x3BB JUMP JUMPDEST PUSH1 0x1 SLOAD PUSH2 0x3EA SWAP1 PUSH1 0x1 PUSH1 0x1 PUSH1 0xA0 SHL SUB AND DUP2 JUMP JUMPDEST PUSH2 0x500 PUSH2 0x4FB CALLDATASIZE PUSH1 0x4 PUSH2 0x4A4B JUMP JUMPDEST PUSH2 0xD20 JUMP JUMPDEST PUSH1 0x40 DUP1 MLOAD DUP3 MLOAD PUSH1 0x1 PUSH1 0x1 PUSH1 0xA0 SHL SUB AND DUP2 MSTORE PUSH1 0x20 DUP1 DUP5 ADD MLOAD SWAP1 DUP3 ADD MSTORE SWAP2 DUP2 ADD MLOAD SWAP1 DUP3 ADD MSTORE PUSH1 0x60 ADD PUSH2 0x3BB JUMP JUMPDEST PUSH2 0x322 PUSH2 0x539 CALLDATASIZE PUSH1 0x4 PUSH2 0x4B92 JUMP JUMPDEST PUSH2 0xDAB JUMP JUMPDEST PUSH2 0x4CC PUSH1 0xB SLOAD DUP2 JUMP JUMPDEST PUSH2 0x322 PUSH2 0x555 CALLDATASIZE PUSH1 0x4 PUSH2 0x4BC7 JUMP JUMPDEST PUSH2 0xDE5 JUMP JUMPDEST PUSH2 0x370 PUSH2 0xED1 JUMP JUMPDEST PUSH2 0x322 PUSH2 0x570 CALLDATASIZE PUSH1 0x4 PUSH2 0x4A4B JUMP JUMPDEST PUSH2 0xF4A JUMP JUMPDEST PUSH2 0x4CC PUSH1 0x7 SLOAD DUP2 JUMP JUMPDEST PUSH2 0x322 PUSH2 0x58C CALLDATASIZE PUSH1 0x4 PUSH2 0x4C47 JUMP JUMPDEST PUSH2 0xF8B JUMP JUMPDEST PUSH2 0x4CC PUSH1 0x8 SLOAD DUP2 JUMP JUMPDEST PUSH2 0x322 PUSH2 0xFCE JUMP JUMPDEST PUSH2 0x4CC PUSH1 0xC SLOAD DUP2 JUMP JUMPDEST PUSH2 0x4CC PUSH1 0xA SLOAD DUP2 JUMP JUMPDEST PUSH2 0x322 PUSH2 0x5C2 CALLDATASIZE PUSH1 0x4 PUSH2 0x4C69 JUMP JUMPDEST PUSH2 0x108F JUMP JUMPDEST PUSH2 0x4CC PUSH1 0x6 SLOAD DUP2 JUMP JUMPDEST PUSH2 0x4CC PUSH2 0x5DE CALLDATASIZE PUSH1 0x4 PUSH2 0x4A4B JUMP JUMPDEST PUSH2 0x10D4 JUMP JUMPDEST PUSH2 0x500 PUSH2 0x116B JUMP JUMPDEST PUSH2 0x500 PUSH2 0x5F9 CALLDATASIZE PUSH1 0x4 PUSH2 0x4A4B JUMP JUMPDEST PUSH2 0x11C6 JUMP JUMPDEST PUSH2 0x4CC PUSH2 0x60C CALLDATASIZE PUSH1 0x4 PUSH2 0x4C9E JUMP JUMPDEST PUSH1 0x40 DUP1 MLOAD CHAINID PUSH1 0x20 DUP1 DUP4 ADD SWAP2 SWAP1 SWAP2 MSTORE PUSH32 0xFFFFFFFFFFFFFFFFFFFFFFFFFFFFFFFFFFFFFFFF000000000000000000000000 ADDRESS PUSH1 0x60 SWAP1 DUP2 SHL DUP3 AND DUP5 DUP7 ADD MSTORE SWAP7 DUP8 SHL DUP2 AND PUSH1 0x54 DUP5 ADD MSTORE PUSH1 0x68 DUP4 ADD SWAP6 SWAP1 SWAP6 MSTORE SWAP3 SWAP1 SWAP5 SHL SWAP1 SWAP3 AND PUSH1 0x88 DUP5 ADD MSTORE DUP2 MLOAD DUP1 DUP5 SUB PUSH1 0x7C ADD DUP2 MSTORE PUSH1 0x9C SWAP1 SWAP4 ADD SWAP1 SWAP2 MSTORE DUP2 MLOAD SWAP2 ADD KECCAK256 SWAP1 JUMP JUMPDEST PUSH2 0x4CC PUSH1 0x2 SLOAD DUP2 JUMP JUMPDEST PUSH1 0x4 SLOAD PUSH2 0x425 SWAP1 PUSH1 0xFF AND DUP2 JUMP JUMPDEST PUSH1 0x1 SLOAD PUSH1 0x1 PUSH1 0x1 PUSH1 0xA0 SHL SUB AND PUSH2 0x3EA JUMP JUMPDEST PUSH2 0x322 PUSH2 0x6B4 CALLDATASIZE PUSH1 0x4 PUSH2 0x43F0 JUMP JUMPDEST PUSH2 0x1237 JUMP JUMPDEST PUSH1 0x0 SLOAD PUSH2 0x3EA SWAP1 PUSH3 0x10000 SWAP1 DIV PUSH1 0x1 PUSH1 0x1 PUSH1 0xA0 SHL SUB AND DUP2 JUMP JUMPDEST PUSH2 0x322 PUSH2 0x6E0 CALLDATASIZE PUSH1 0x4 PUSH2 0x4C69 JUMP JUMPDEST PUSH2 0x1278 JUMP JUMPDEST PUSH2 0x370 PUSH2 0x6F3 CALLDATASIZE PUSH1 0x4 PUSH2 0x4A4B JUMP JUMPDEST PUSH2 0x12BD JUMP JUMPDEST PUSH2 0x4CC PUSH1 0x9 SLOAD DUP2 JUMP JUMPDEST PUSH2 0x322 PUSH2 0x70F CALLDATASIZE PUSH1 0x4 PUSH2 0x43F0 JUMP JUMPDEST PUSH2 0x1349 JUMP JUMPDEST PUSH2 0x322 PUSH2 0x722 CALLDATASIZE PUSH1 0x4 PUSH2 0x43F0 JUMP JUMPDEST PUSH2 0x138A JUMP JUMPDEST PUSH2 0x322 PUSH2 0x735 CALLDATASIZE PUSH1 0x4 PUSH2 0x43F0 JUMP JUMPDEST PUSH2 0x13CB JUMP JUMPDEST PUSH2 0x4CC PUSH1 0x3 SLOAD DUP2 JUMP JUMPDEST PUSH2 0x74C DUP2 PUSH2 0x140C JUMP JUMPDEST PUSH2 0x77B CALLER PUSH1 0x0 CALLDATALOAD PUSH32 0xFFFFFFFF00000000000000000000000000000000000000000000000000000000 AND DUP4 PUSH2 0x1453 JUMP JUMPDEST PUSH2 0x784 DUP3 PUSH2 0x149A JUMP JUMPDEST POP POP JUMP JUMPDEST PUSH2 0x791 DUP2 PUSH2 0x140C JUMP JUMPDEST PUSH2 0x7C0 CALLER PUSH1 0x0 CALLDATALOAD PUSH32 0xFFFFFFFF00000000000000000000000000000000000000000000000000000000 AND DUP4 PUSH2 0x1453 JUMP JUMPDEST PUSH2 0x784 DUP3 PUSH2 0x14D6 JUMP JUMPDEST PUSH1 0x0 SLOAD PUSH2 0x100 SWAP1 DIV PUSH1 0xFF AND ISZERO DUP1 DUP1 ISZERO PUSH2 0x7E9 JUMPI POP PUSH1 0x0 SLOAD PUSH1 0x1 PUSH1 0xFF SWAP1 SWAP2 AND LT JUMPDEST DUP1 PUSH2 0x803 JUMPI POP ADDRESS EXTCODESIZE ISZERO DUP1 ISZERO PUSH2 0x803 JUMPI POP PUSH1 0x0 SLOAD PUSH1 0xFF AND PUSH1 0x1 EQ JUMPDEST PUSH2 0x87A JUMPI PUSH1 0x40 MLOAD PUSH3 0x461BCD PUSH1 0xE5 SHL DUP2 MSTORE PUSH1 0x20 PUSH1 0x4 DUP3 ADD MSTORE PUSH1 0x2E PUSH1 0x24 DUP3 ADD MSTORE PUSH32 0x496E697469616C697A61626C653A20636F6E747261637420697320616C726561 PUSH1 0x44 DUP3 ADD MSTORE PUSH32 0x647920696E697469616C697A6564000000000000000000000000000000000000 PUSH1 0x64 DUP3 ADD MSTORE PUSH1 0x84 ADD JUMPDEST PUSH1 0x40 MLOAD DUP1 SWAP2 SUB SWAP1 REVERT JUMPDEST PUSH1 0x0 DUP1 SLOAD PUSH32 0xFFFFFFFFFFFFFFFFFFFFFFFFFFFFFFFFFFFFFFFFFFFFFFFFFFFFFFFFFFFFFF00 AND PUSH1 0x1 OR SWAP1 SSTORE DUP1 ISZERO PUSH2 0x8D8 JUMPI PUSH1 0x0 DUP1 SLOAD PUSH32 0xFFFFFFFFFFFFFFFFFFFFFFFFFFFFFFFFFFFFFFFFFFFFFFFFFFFFFFFFFFFF00FF AND PUSH2 0x100 OR SWAP1 SSTORE JUMPDEST PUSH2 0x8E3 DUP5 DUP5 DUP5 PUSH2 0x150B JUMP JUMPDEST DUP1 ISZERO PUSH2 0x946 JUMPI PUSH1 0x0 DUP1 SLOAD PUSH32 0xFFFFFFFFFFFFFFFFFFFFFFFFFFFFFFFFFFFFFFFFFFFFFFFFFFFFFFFFFFFF00FF AND SWAP1 SSTORE PUSH1 0x40 MLOAD PUSH1 0x1 DUP2 MSTORE PUSH32 0x7F26B83FF96E1F2B6A682F133852F6798A09C465DA95921460CEFB3847402498 SWAP1 PUSH1 0x20 ADD PUSH1 0x40 MLOAD DUP1 SWAP2 SUB SWAP1 LOG1 JUMPDEST POP POP POP POP JUMP JUMPDEST PUSH2 0x97A CALLER PUSH1 0x0 CALLDATALOAD PUSH32 0xFFFFFFFF00000000000000000000000000000000000000000000000000000000 AND PUSH2 0x158A JUMP JUMPDEST DUP1 MLOAD DUP3 MLOAD EQ PUSH2 0x9B5 JUMPI PUSH1 0x40 MLOAD PUSH32 0x5D32021A00000000000000000000000000000000000000000000000000000000 DUP2 MSTORE PUSH1 0x4 ADD PUSH1 0x40 MLOAD DUP1 SWAP2 SUB SWAP1 REVERT JUMPDEST PUSH1 0x0 JUMPDEST DUP3 MLOAD DUP2 LT ISZERO PUSH2 0xA0F JUMPI PUSH2 0x9FD DUP4 DUP3 DUP2 MLOAD DUP2 LT PUSH2 0x9D6 JUMPI PUSH2 0x9D6 PUSH2 0x4CE0 JUMP JUMPDEST PUSH1 0x20 MUL PUSH1 0x20 ADD ADD MLOAD DUP4 DUP4 DUP2 MLOAD DUP2 LT PUSH2 0x9F0 JUMPI PUSH2 0x9F0 PUSH2 0x4CE0 JUMP JUMPDEST PUSH1 0x20 MUL PUSH1 0x20 ADD ADD MLOAD PUSH2 0x15A6 JUMP JUMPDEST DUP1 PUSH2 0xA07 DUP2 PUSH2 0x4D3E JUMP JUMPDEST SWAP2 POP POP PUSH2 0x9B8 JUMP JUMPDEST POP POP POP JUMP JUMPDEST PUSH2 0xA4F PUSH1 0x40 MLOAD DUP1 PUSH1 0xA0 ADD PUSH1 0x40 MSTORE DUP1 PUSH1 0x0 PUSH1 0x1 PUSH1 0x1 PUSH1 0xA0 SHL SUB AND DUP2 MSTORE PUSH1 0x20 ADD PUSH1 0x0 DUP2 MSTORE PUSH1 0x20 ADD PUSH1 0x0 DUP2 MSTORE PUSH1 0x20 ADD PUSH1 0x0 DUP2 MSTORE PUSH1 0x20 ADD PUSH1 0x0 DUP2 MSTORE POP SWAP1 JUMP JUMPDEST POP PUSH1 0x1 PUSH1 0x1 PUSH1 0xA0 SHL SUB SWAP1 DUP2 AND PUSH1 0x0 SWAP1 DUP2 MSTORE PUSH1 0x19 PUSH1 0x20 SWAP1 DUP2 MSTORE PUSH1 0x40 SWAP2 DUP3 SWAP1 KECCAK256 DUP3 MLOAD PUSH1 0xA0 DUP2 ADD DUP5 MSTORE DUP2 SLOAD SWAP1 SWAP5 AND DUP5 MSTORE PUSH1 0x1 DUP2 ADD SLOAD SWAP2 DUP5 ADD SWAP2 SWAP1 SWAP2 MSTORE PUSH1 0x2 DUP2 ADD SLOAD SWAP2 DUP4 ADD SWAP2 SWAP1 SWAP2 MSTORE PUSH1 0x3 DUP2 ADD SLOAD PUSH1 0x60 DUP4 ADD MSTORE PUSH1 0x4 ADD SLOAD PUSH1 0x80 DUP3 ADD MSTORE SWAP1 JUMP JUMPDEST PUSH2 0xAB6 DUP5 DUP5 DUP5 DUP5 PUSH2 0x1650 JUMP JUMPDEST PUSH2 0xAE5 CALLER PUSH1 0x0 CALLDATALOAD PUSH32 0xFFFFFFFF00000000000000000000000000000000000000000000000000000000 AND DUP4 PUSH2 0x1453 JUMP JUMPDEST PUSH2 0xAF1 DUP6 DUP6 DUP6 DUP6 PUSH2 0x170D JUMP JUMPDEST POP POP POP POP POP JUMP JUMPDEST PUSH2 0xB15 DUP2 PUSH1 0x1 DUP2 GT ISZERO PUSH2 0xB0D JUMPI PUSH2 0xB0D PUSH2 0x4AC9 JUMP JUMPDEST PUSH1 0xFF AND PUSH2 0x140C JUMP JUMPDEST PUSH2 0xB44 CALLER PUSH1 0x0 CALLDATALOAD PUSH32 0xFFFFFFFF00000000000000000000000000000000000000000000000000000000 AND DUP4 PUSH2 0x1453 JUMP JUMPDEST PUSH2 0x784 DUP3 PUSH2 0x17C6 JUMP JUMPDEST PUSH2 0xB56 DUP2 PUSH2 0x140C JUMP JUMPDEST PUSH2 0xB85 CALLER PUSH1 0x0 CALLDATALOAD PUSH32 0xFFFFFFFF00000000000000000000000000000000000000000000000000000000 AND DUP4 PUSH2 0x1453 JUMP JUMPDEST PUSH2 0x784 DUP3 PUSH2 0x1836 JUMP JUMPDEST PUSH2 0xBBC CALLER PUSH1 0x0 CALLDATALOAD PUSH32 0xFFFFFFFF00000000000000000000000000000000000000000000000000000000 AND PUSH2 0x158A JUMP JUMPDEST PUSH1 0x4 SLOAD PUSH1 0xFF AND PUSH2 0xBF8 JUMPI PUSH1 0x40 MLOAD PUSH32 0x9E6558BD00000000000000000000000000000000000000000000000000000000 DUP2 MSTORE PUSH1 0x4 ADD PUSH1 0x40 MLOAD DUP1 SWAP2 SUB SWAP1 REVERT JUMPDEST PUSH1 0x4 DUP1 SLOAD PUSH32 0xFFFFFFFFFFFFFFFFFFFFFFFFFFFFFFFFFFFFFFFFFFFFFFFFFFFFFFFFFFFFFF00 AND SWAP1 SSTORE PUSH1 0x40 MLOAD PUSH32 0xA45F47FDEA8A1EFDD9029A5691C7F759C32B7C698632B563573E155625D16933 SWAP1 PUSH1 0x0 SWAP1 LOG1 JUMP JUMPDEST PUSH2 0xC57 DUP5 DUP5 DUP5 DUP5 PUSH2 0x1650 JUMP JUMPDEST PUSH2 0xC86 CALLER PUSH1 0x0 CALLDATALOAD PUSH32 0xFFFFFFFF00000000000000000000000000000000000000000000000000000000 AND DUP4 PUSH2 0x1453 JUMP JUMPDEST PUSH2 0xAF1 DUP6 DUP6 DUP6 DUP6 PUSH2 0x186B JUMP JUMPDEST PUSH1 0x1B DUP1 SLOAD PUSH2 0xC9F SWAP1 PUSH2 0x4D76 JUMP JUMPDEST DUP1 PUSH1 0x1F ADD PUSH1 0x20 DUP1 SWAP2 DIV MUL PUSH1 0x20 ADD PUSH1 0x40 MLOAD SWAP1 DUP2 ADD PUSH1 0x40 MSTORE DUP1 SWAP3 SWAP2 SWAP1 DUP2 DUP2 MSTORE PUSH1 0x20 ADD DUP3 DUP1 SLOAD PUSH2 0xCCB SWAP1 PUSH2 0x4D76 JUMP JUMPDEST DUP1 ISZERO PUSH2 0xD18 JUMPI DUP1 PUSH1 0x1F LT PUSH2 0xCED JUMPI PUSH2 0x100 DUP1 DUP4 SLOAD DIV MUL DUP4 MSTORE SWAP2 PUSH1 0x20 ADD SWAP2 PUSH2 0xD18 JUMP JUMPDEST DUP3 ADD SWAP2 SWAP1 PUSH1 0x0 MSTORE PUSH1 0x20 PUSH1 0x0 KECCAK256 SWAP1 JUMPDEST DUP2 SLOAD DUP2 MSTORE SWAP1 PUSH1 0x1 ADD SWAP1 PUSH1 0x20 ADD DUP1 DUP4 GT PUSH2 0xCFB JUMPI DUP3 SWAP1 SUB PUSH1 0x1F AND DUP3 ADD SWAP2 JUMPDEST POP POP POP POP POP DUP2 JUMP JUMPDEST PUSH2 0xD4D PUSH1 0x40 MLOAD DUP1 PUSH1 0x60 ADD PUSH1 0x40 MSTORE DUP1 PUSH1 0x0 PUSH1 0x1 PUSH1 0x1 PUSH1 0xA0 SHL SUB AND DUP2 MSTORE PUSH1 0x20 ADD PUSH1 0x0 DUP2 MSTORE PUSH1 0x20 ADD PUSH1 0x0 DUP2 MSTORE POP SWAP1 JUMP JUMPDEST PUSH1 0x1 PUSH1 0x1 PUSH1 0xA0 SHL SUB DUP1 DUP4 AND PUSH1 0x0 SWAP1 DUP2 MSTORE PUSH1 0x13 PUSH1 0x20 MSTORE PUSH1 0x40 SWAP1 KECCAK256 DUP1 SLOAD SWAP1 SWAP2 AND ISZERO PUSH2 0xD76 JUMPI DUP1 PUSH2 0xD79 JUMP JUMPDEST PUSH1 0x10 JUMPDEST PUSH1 0x40 DUP1 MLOAD PUSH1 0x60 DUP2 ADD DUP3 MSTORE DUP3 SLOAD PUSH1 0x1 PUSH1 0x1 PUSH1 0xA0 SHL SUB AND DUP2 MSTORE PUSH1 0x1 DUP4 ADD SLOAD PUSH1 0x20 DUP3 ADD MSTORE PUSH1 0x2 SWAP1 SWAP3 ADD SLOAD SWAP1 DUP3 ADD MSTORE SWAP4 SWAP3 POP POP POP JUMP JUMPDEST PUSH2 0xDD9 CALLER PUSH1 0x0 CALLDATALOAD PUSH32 0xFFFFFFFF00000000000000000000000000000000000000000000000000000000 AND PUSH2 0x158A JUMP JUMPDEST PUSH2 0xDE2 DUP2 PUSH2 0x192B JUMP JUMPDEST POP JUMP JUMPDEST PUSH2 0xDEF DUP5 DUP5 PUSH2 0x19A2 JUMP JUMPDEST PUSH2 0xE1E CALLER PUSH1 0x0 CALLDATALOAD PUSH32 0xFFFFFFFF00000000000000000000000000000000000000000000000000000000 AND DUP4 PUSH2 0x1453 JUMP JUMPDEST DUP4 PUSH1 0x0 SUB PUSH2 0xE32 JUMPI PUSH2 0xE2F DUP6 PUSH2 0x10D4 JUMP JUMPDEST SWAP4 POP JUMPDEST PUSH2 0xE3E DUP6 DUP6 DUP6 DUP6 PUSH2 0x1A11 JUMP JUMPDEST PUSH1 0x1 SLOAD PUSH1 0x40 MLOAD PUSH32 0xD9CAED1200000000000000000000000000000000000000000000000000000000 DUP2 MSTORE PUSH1 0x1 PUSH1 0x1 PUSH1 0xA0 SHL SUB DUP8 DUP2 AND PUSH1 0x4 DUP4 ADD MSTORE DUP6 DUP2 AND PUSH1 0x24 DUP4 ADD MSTORE PUSH1 0x44 DUP3 ADD DUP8 SWAP1 MSTORE SWAP1 SWAP2 AND SWAP1 PUSH4 0xD9CAED12 SWAP1 PUSH1 0x64 ADD PUSH1 0x0 PUSH1 0x40 MLOAD DUP1 DUP4 SUB DUP2 PUSH1 0x0 DUP8 DUP1 EXTCODESIZE ISZERO DUP1 ISZERO PUSH2 0xEAD JUMPI PUSH1 0x0 DUP1 REVERT JUMPDEST POP GAS CALL ISZERO DUP1 ISZERO PUSH2 0xEC1 JUMPI RETURNDATASIZE PUSH1 0x0 DUP1 RETURNDATACOPY RETURNDATASIZE PUSH1 0x0 REVERT JUMPDEST POP POP POP POP PUSH2 0xAF1 DUP6 DUP6 DUP6 DUP6 PUSH2 0x1C75 JUMP JUMPDEST PUSH2 0xF0C PUSH1 0x40 MLOAD DUP1 PUSH1 0xA0 ADD PUSH1 0x40 MSTORE DUP1 PUSH1 0x0 PUSH1 0x1 PUSH1 0x1 PUSH1 0xA0 SHL SUB AND DUP2 MSTORE PUSH1 0x20 ADD PUSH1 0x0 DUP2 MSTORE PUSH1 0x20 ADD PUSH1 0x0 DUP2 MSTORE PUSH1 0x20 ADD PUSH1 0x0 DUP2 MSTORE PUSH1 0x20 ADD PUSH1 0x0 DUP2 MSTORE POP SWAP1 JUMP JUMPDEST POP PUSH1 0x40 DUP1 MLOAD PUSH1 0xA0 DUP2 ADD DUP3 MSTORE PUSH1 0x14 SLOAD PUSH1 0x1 PUSH1 0x1 PUSH1 0xA0 SHL SUB AND DUP2 MSTORE PUSH1 0x15 SLOAD PUSH1 0x20 DUP3 ADD MSTORE PUSH1 0x16 SLOAD SWAP2 DUP2 ADD SWAP2 SWAP1 SWAP2 MSTORE PUSH1 0x17 SLOAD PUSH1 0x60 DUP3 ADD MSTORE PUSH1 0x18 SLOAD PUSH1 0x80 DUP3 ADD MSTORE SWAP1 JUMP JUMPDEST PUSH2 0xF53 DUP2 PUSH2 0x1D24 JUMP JUMPDEST PUSH2 0xF82 CALLER PUSH1 0x0 CALLDATALOAD PUSH32 0xFFFFFFFF00000000000000000000000000000000000000000000000000000000 AND DUP4 PUSH2 0x1453 JUMP JUMPDEST PUSH2 0x784 DUP3 PUSH2 0x1D38 JUMP JUMPDEST PUSH2 0xF95 DUP3 DUP3 PUSH2 0x1DDA JUMP JUMPDEST PUSH2 0xFC4 CALLER PUSH1 0x0 CALLDATALOAD PUSH32 0xFFFFFFFF00000000000000000000000000000000000000000000000000000000 AND DUP4 PUSH2 0x1453 JUMP JUMPDEST PUSH2 0xA0F DUP4 DUP4 PUSH2 0x1E34 JUMP JUMPDEST PUSH2 0xFFC CALLER PUSH1 0x0 CALLDATALOAD PUSH32 0xFFFFFFFF00000000000000000000000000000000000000000000000000000000 AND PUSH2 0x158A JUMP JUMPDEST PUSH1 0x4 SLOAD PUSH1 0xFF AND ISZERO PUSH2 0x1039 JUMPI PUSH1 0x40 MLOAD PUSH32 0xC0F2312800000000000000000000000000000000000000000000000000000000 DUP2 MSTORE PUSH1 0x4 ADD PUSH1 0x40 MLOAD DUP1 SWAP2 SUB SWAP1 REVERT JUMPDEST PUSH1 0x4 DUP1 SLOAD PUSH32 0xFFFFFFFFFFFFFFFFFFFFFFFFFFFFFFFFFFFFFFFFFFFFFFFFFFFFFFFFFFFFFF00 AND PUSH1 0x1 OR SWAP1 SSTORE PUSH1 0x40 MLOAD PUSH32 0x9E87FAC88FF661F02D44F95383C817FECE4BCE600A3DAB7A54406878B965E752 SWAP1 PUSH1 0x0 SWAP1 LOG1 JUMP JUMPDEST PUSH2 0x109A DUP4 DUP4 DUP4 PUSH2 0x1E79 JUMP JUMPDEST PUSH2 0x10C9 CALLER PUSH1 0x0 CALLDATALOAD PUSH32 0xFFFFFFFF00000000000000000000000000000000000000000000000000000000 AND DUP4 PUSH2 0x1453 JUMP JUMPDEST PUSH2 0x946 DUP5 DUP5 DUP5 PUSH2 0x1F0B JUMP JUMPDEST PUSH1 0x1 SLOAD PUSH1 0x2 SLOAD PUSH1 0x40 MLOAD PUSH31 0xBC489400000000000000000000000000000000000000000000000000000000 DUP2 MSTORE PUSH1 0x4 DUP2 ADD SWAP2 SWAP1 SWAP2 MSTORE PUSH1 0x1 PUSH1 0x1 PUSH1 0xA0 SHL SUB DUP4 DUP2 AND PUSH1 0x24 DUP4 ADD MSTORE PUSH1 0x0 SWAP3 AND SWAP1 PUSH3 0xBC4894 SWAP1 PUSH1 0x44 ADD PUSH1 0x20 PUSH1 0x40 MLOAD DUP1 DUP4 SUB DUP2 DUP7 GAS STATICCALL ISZERO DUP1 ISZERO PUSH2 0x1141 JUMPI RETURNDATASIZE PUSH1 0x0 DUP1 RETURNDATACOPY RETURNDATASIZE PUSH1 0x0 REVERT JUMPDEST POP POP POP POP PUSH1 0x40 MLOAD RETURNDATASIZE PUSH1 0x1F NOT PUSH1 0x1F DUP3 ADD AND DUP3 ADD DUP1 PUSH1 0x40 MSTORE POP DUP2 ADD SWAP1 PUSH2 0x1165 SWAP2 SWAP1 PUSH2 0x4DC9 JUMP JUMPDEST SWAP3 SWAP2 POP POP JUMP JUMPDEST PUSH2 0x1198 PUSH1 0x40 MLOAD DUP1 PUSH1 0x60 ADD PUSH1 0x40 MSTORE DUP1 PUSH1 0x0 PUSH1 0x1 PUSH1 0x1 PUSH1 0xA0 SHL SUB AND DUP2 MSTORE PUSH1 0x20 ADD PUSH1 0x0 DUP2 MSTORE PUSH1 0x20 ADD PUSH1 0x0 DUP2 MSTORE POP SWAP1 JUMP JUMPDEST POP PUSH1 0x40 DUP1 MLOAD PUSH1 0x60 DUP2 ADD DUP3 MSTORE PUSH1 0x10 SLOAD PUSH1 0x1 PUSH1 0x1 PUSH1 0xA0 SHL SUB AND DUP2 MSTORE PUSH1 0x11 SLOAD PUSH1 0x20 DUP3 ADD MSTORE PUSH1 0x12 SLOAD SWAP2 DUP2 ADD SWAP2 SWAP1 SWAP2 MSTORE SWAP1 JUMP JUMPDEST PUSH2 0x11F3 PUSH1 0x40 MLOAD DUP1 PUSH1 0x60 ADD PUSH1 0x40 MSTORE DUP1 PUSH1 0x0 PUSH1 0x1 PUSH1 0x1 PUSH1 0xA0 SHL SUB AND DUP2 MSTORE PUSH1 0x20 ADD PUSH1 0x0 DUP2 MSTORE PUSH1 0x20 ADD PUSH1 0x0 DUP2 MSTORE POP SWAP1 JUMP JUMPDEST POP PUSH1 0x1 PUSH1 0x1 PUSH1 0xA0 SHL SUB SWAP1 DUP2 AND PUSH1 0x0 SWAP1 DUP2 MSTORE PUSH1 0x13 PUSH1 0x20 SWAP1 DUP2 MSTORE PUSH1 0x40 SWAP2 DUP3 SWAP1 KECCAK256 DUP3 MLOAD PUSH1 0x60 DUP2 ADD DUP5 MSTORE DUP2 SLOAD SWAP1 SWAP5 AND DUP5 MSTORE PUSH1 0x1 DUP2 ADD SLOAD SWAP2 DUP5 ADD SWAP2 SWAP1 SWAP2 MSTORE PUSH1 0x2 ADD SLOAD SWAP1 DUP3 ADD MSTORE SWAP1 JUMP JUMPDEST PUSH2 0x1240 DUP2 PUSH2 0x140C JUMP JUMPDEST PUSH2 0x126F CALLER PUSH1 0x0 CALLDATALOAD PUSH32 0xFFFFFFFF00000000000000000000000000000000000000000000000000000000 AND DUP4 PUSH2 0x1453 JUMP JUMPDEST PUSH2 0x784 DUP3 PUSH2 0x1F61 JUMP JUMPDEST PUSH2 0x1283 DUP4 DUP4 DUP4 PUSH2 0x1E79 JUMP JUMPDEST PUSH2 0x12B2 CALLER PUSH1 0x0 CALLDATALOAD PUSH32 0xFFFFFFFF00000000000000000000000000000000000000000000000000000000 AND DUP4 PUSH2 0x1453 JUMP JUMPDEST PUSH2 0x946 DUP5 DUP5 DUP5 PUSH2 0x1FE0 JUMP JUMPDEST PUSH2 0x12F8 PUSH1 0x40 MLOAD DUP1 PUSH1 0xA0 ADD PUSH1 0x40 MSTORE DUP1 PUSH1 0x0 PUSH1 0x1 PUSH1 0x1 PUSH1 0xA0 SHL SUB AND DUP2 MSTORE PUSH1 0x20 ADD PUSH1 0x0 DUP2 MSTORE PUSH1 0x20 ADD PUSH1 0x0 DUP2 MSTORE PUSH1 0x20 ADD PUSH1 0x0 DUP2 MSTORE PUSH1 0x20 ADD PUSH1 0x0 DUP2 MSTORE POP SWAP1 JUMP JUMPDEST PUSH2 0x1301 DUP3 PUSH2 0x203C JUMP JUMPDEST PUSH1 0x40 DUP1 MLOAD PUSH1 0xA0 DUP2 ADD DUP3 MSTORE DUP3 SLOAD PUSH1 0x1 PUSH1 0x1 PUSH1 0xA0 SHL SUB AND DUP2 MSTORE PUSH1 0x1 DUP4 ADD SLOAD PUSH1 0x20 DUP3 ADD MSTORE PUSH1 0x2 DUP4 ADD SLOAD SWAP2 DUP2 ADD SWAP2 SWAP1 SWAP2 MSTORE PUSH1 0x3 DUP3 ADD SLOAD PUSH1 0x60 DUP3 ADD MSTORE PUSH1 0x4 SWAP1 SWAP2 ADD SLOAD PUSH1 0x80 DUP3 ADD MSTORE SWAP3 SWAP2 POP POP JUMP JUMPDEST PUSH2 0x1352 DUP2 PUSH2 0x140C JUMP JUMPDEST PUSH2 0x1381 CALLER PUSH1 0x0 CALLDATALOAD PUSH32 0xFFFFFFFF00000000000000000000000000000000000000000000000000000000 AND DUP4 PUSH2 0x1453 JUMP JUMPDEST PUSH2 0x784 DUP3 PUSH2 0x2071 JUMP JUMPDEST PUSH2 0x1393 DUP2 PUSH2 0x140C JUMP JUMPDEST PUSH2 0x13C2 CALLER PUSH1 0x0 CALLDATALOAD PUSH32 0xFFFFFFFF00000000000000000000000000000000000000000000000000000000 AND DUP4 PUSH2 0x1453 JUMP JUMPDEST PUSH2 0x784 DUP3 PUSH2 0x20E8 JUMP JUMPDEST PUSH2 0x13D4 DUP2 PUSH2 0x140C JUMP JUMPDEST PUSH2 0x1403 CALLER PUSH1 0x0 CALLDATALOAD PUSH32 0xFFFFFFFF00000000000000000000000000000000000000000000000000000000 AND DUP4 PUSH2 0x1453 JUMP JUMPDEST PUSH2 0x784 DUP3 PUSH2 0x2167 JUMP JUMPDEST PUSH1 0x40 DUP1 MLOAD PUSH1 0x1 DUP1 DUP3 MSTORE DUP2 DUP4 ADD SWAP1 SWAP3 MSTORE PUSH1 0x60 SWAP2 PUSH1 0x20 DUP1 DUP4 ADD SWAP1 DUP1 CALLDATASIZE DUP4 CALLDATACOPY ADD SWAP1 POP POP SWAP1 POP DUP2 DUP2 PUSH1 0x0 DUP2 MLOAD DUP2 LT PUSH2 0x1442 JUMPI PUSH2 0x1442 PUSH2 0x4CE0 JUMP JUMPDEST PUSH1 0x20 MUL PUSH1 0x20 ADD ADD DUP2 DUP2 MSTORE POP POP SWAP2 SWAP1 POP JUMP JUMPDEST PUSH2 0x145E DUP4 DUP4 DUP4 PUSH2 0x219C JUMP JUMPDEST PUSH2 0xA0F JUMPI DUP3 DUP3 DUP3 PUSH1 0x40 MLOAD PUSH32 0x960C80DA00000000000000000000000000000000000000000000000000000000 DUP2 MSTORE PUSH1 0x4 ADD PUSH2 0x871 SWAP4 SWAP3 SWAP2 SWAP1 PUSH2 0x4E1D JUMP JUMPDEST PUSH1 0x8 DUP2 SWAP1 SSTORE PUSH1 0x40 MLOAD DUP2 DUP2 MSTORE PUSH32 0x3F6C9C24D9513C13D3B3CDE07A6D023891E0A453697B804236062FF89F8911BF SWAP1 PUSH1 0x20 ADD JUMPDEST PUSH1 0x40 MLOAD DUP1 SWAP2 SUB SWAP1 LOG1 POP JUMP JUMPDEST PUSH1 0x6 DUP2 SWAP1 SSTORE PUSH1 0x40 MLOAD DUP2 DUP2 MSTORE PUSH32 0x82A6981D2EDCFFA06330F002D2155243475D202CE6CC11693DA2CA897FB8E372 SWAP1 PUSH1 0x20 ADD PUSH2 0x14CB JUMP JUMPDEST PUSH1 0x0 SLOAD PUSH2 0x100 SWAP1 DIV PUSH1 0xFF AND PUSH2 0x1576 JUMPI PUSH1 0x40 MLOAD PUSH3 0x461BCD PUSH1 0xE5 SHL DUP2 MSTORE PUSH1 0x20 PUSH1 0x4 DUP3 ADD MSTORE PUSH1 0x2B PUSH1 0x24 DUP3 ADD MSTORE PUSH32 0x496E697469616C697A61626C653A20636F6E7472616374206973206E6F742069 PUSH1 0x44 DUP3 ADD MSTORE PUSH11 0x6E697469616C697A696E67 PUSH1 0xA8 SHL PUSH1 0x64 DUP3 ADD MSTORE PUSH1 0x84 ADD PUSH2 0x871 JUMP JUMPDEST PUSH2 0x157F DUP4 PUSH2 0x223A JUMP JUMPDEST PUSH2 0xA0F DUP4 DUP4 DUP4 PUSH2 0x2302 JUMP JUMPDEST PUSH1 0x40 DUP1 MLOAD PUSH1 0x0 DUP2 MSTORE PUSH1 0x20 DUP2 ADD SWAP1 SWAP2 MSTORE PUSH2 0x784 SWAP1 DUP4 SWAP1 DUP4 SWAP1 PUSH2 0x1453 JUMP JUMPDEST PUSH1 0x1 PUSH1 0x1 PUSH1 0xA0 SHL SUB DUP3 AND PUSH2 0x15E6 JUMPI PUSH1 0x40 MLOAD PUSH32 0xC41A13EC00000000000000000000000000000000000000000000000000000000 DUP2 MSTORE PUSH1 0x4 ADD PUSH1 0x40 MLOAD DUP1 SWAP2 SUB SWAP1 REVERT JUMPDEST DUP1 PUSH2 0x15FB JUMPI PUSH2 0x15F6 PUSH1 0xE DUP4 PUSH2 0x237F JUMP JUMPDEST PUSH2 0x1606 JUMP JUMPDEST PUSH2 0x1606 PUSH1 0xE DUP4 PUSH2 0x2394 JUMP JUMPDEST POP DUP2 PUSH1 0x1 PUSH1 0x1 PUSH1 0xA0 SHL SUB AND PUSH32 0x6264362E9DE26EFEFDA321DFAEB4E4A9090DEEF40C5435FAD8E9E2E306889A1C DUP3 PUSH1 0x40 MLOAD PUSH2 0x1644 SWAP2 ISZERO ISZERO DUP2 MSTORE PUSH1 0x20 ADD SWAP1 JUMP JUMPDEST PUSH1 0x40 MLOAD DUP1 SWAP2 SUB SWAP1 LOG2 POP POP JUMP JUMPDEST PUSH1 0x40 DUP1 MLOAD PUSH1 0x4 DUP1 DUP3 MSTORE PUSH1 0xA0 DUP3 ADD SWAP1 SWAP3 MSTORE PUSH1 0x60 SWAP2 PUSH1 0x20 DUP3 ADD PUSH1 0x80 DUP1 CALLDATASIZE DUP4 CALLDATACOPY ADD SWAP1 POP POP SWAP1 POP DUP5 PUSH1 0x1 PUSH1 0x1 PUSH1 0xA0 SHL SUB AND DUP2 PUSH1 0x0 DUP2 MLOAD DUP2 LT PUSH2 0x1690 JUMPI PUSH2 0x1690 PUSH2 0x4CE0 JUMP JUMPDEST PUSH1 0x20 MUL PUSH1 0x20 ADD ADD DUP2 DUP2 MSTORE POP POP DUP4 PUSH1 0x1 PUSH1 0x1 PUSH1 0xA0 SHL SUB AND DUP2 PUSH1 0x1 DUP2 MLOAD DUP2 LT PUSH2 0x16B9 JUMPI PUSH2 0x16B9 PUSH2 0x4CE0 JUMP JUMPDEST PUSH1 0x20 MUL PUSH1 0x20 ADD ADD DUP2 DUP2 MSTORE POP POP DUP3 DUP2 PUSH1 0x2 DUP2 MLOAD DUP2 LT PUSH2 0x16D9 JUMPI PUSH2 0x16D9 PUSH2 0x4CE0 JUMP JUMPDEST PUSH1 0x20 MUL PUSH1 0x20 ADD ADD DUP2 DUP2 MSTORE POP POP DUP2 DUP2 PUSH1 0x3 DUP2 MLOAD DUP2 LT PUSH2 0x16F9 JUMPI PUSH2 0x16F9 PUSH2 0x4CE0 JUMP JUMPDEST PUSH1 0x20 MUL PUSH1 0x20 ADD ADD DUP2 DUP2 MSTORE POP POP SWAP5 SWAP4 POP POP POP POP JUMP JUMPDEST PUSH1 0x1 PUSH1 0x1 PUSH1 0xA0 SHL SUB DUP5 AND PUSH2 0x174D JUMPI PUSH1 0x40 MLOAD PUSH32 0xE7BA3E4A00000000000000000000000000000000000000000000000000000000 DUP2 MSTORE PUSH1 0x4 ADD PUSH1 0x40 MLOAD DUP1 SWAP2 SUB SWAP1 REVERT JUMPDEST PUSH1 0x1 PUSH1 0x1 PUSH1 0xA0 SHL SUB DUP5 AND PUSH1 0x0 SWAP1 DUP2 MSTORE PUSH1 0x13 PUSH1 0x20 MSTORE PUSH1 0x40 SWAP1 KECCAK256 PUSH2 0x1771 SWAP1 DUP5 DUP5 DUP5 PUSH2 0x23A9 JUMP JUMPDEST PUSH1 0x40 DUP1 MLOAD PUSH1 0x1 PUSH1 0x1 PUSH1 0xA0 SHL SUB DUP6 DUP2 AND DUP3 MSTORE PUSH1 0x20 DUP3 ADD DUP6 SWAP1 MSTORE SWAP2 DUP2 ADD DUP4 SWAP1 MSTORE SWAP1 DUP6 AND SWAP1 PUSH32 0xF099617C054D3A65E02A9C3B786F23CC03D5982BC7CFAE84DFF0408049CF1707 SWAP1 PUSH1 0x60 ADD PUSH1 0x40 MLOAD DUP1 SWAP2 SUB SWAP1 LOG2 POP POP POP POP JUMP JUMPDEST PUSH1 0xD DUP1 SLOAD DUP3 SWAP2 SWAP1 PUSH32 0xFFFFFFFFFFFFFFFFFFFFFFFFFFFFFFFFFFFFFFFFFFFFFFFFFFFFFFFFFFFFFF00 AND PUSH1 0x1 DUP4 DUP2 DUP2 GT ISZERO PUSH2 0x1802 JUMPI PUSH2 0x1802 PUSH2 0x4AC9 JUMP JUMPDEST MUL OR SWAP1 SSTORE POP PUSH32 0x216B6A9618D607BA436D0F2E17E9A83E70929ADFF805AC2385D67401360E551A DUP2 PUSH1 0x40 MLOAD PUSH2 0x14CB SWAP2 SWAP1 PUSH2 0x4AF8 JUMP JUMPDEST PUSH1 0x7 DUP2 SWAP1 SSTORE PUSH1 0x40 MLOAD DUP2 DUP2 MSTORE PUSH32 0xEA12B72EEF155A5C546ACE7F0BB7E8DC49EF4E666C276CDC6D5687B83525FADA SWAP1 PUSH1 0x20 ADD PUSH2 0x14CB JUMP JUMPDEST PUSH1 0x1 PUSH1 0x1 PUSH1 0xA0 SHL SUB DUP5 AND PUSH2 0x18AB JUMPI PUSH1 0x40 MLOAD PUSH32 0x1DE0C9C700000000000000000000000000000000000000000000000000000000 DUP2 MSTORE PUSH1 0x4 ADD PUSH1 0x40 MLOAD DUP1 SWAP2 SUB SWAP1 REVERT JUMPDEST PUSH1 0x1 PUSH1 0x1 PUSH1 0xA0 SHL SUB DUP5 AND PUSH1 0x0 SWAP1 DUP2 MSTORE PUSH1 0x19 PUSH1 0x20 MSTORE PUSH1 0x40 SWAP1 KECCAK256 PUSH2 0x18CF SWAP1 DUP5 DUP5 DUP5 PUSH2 0x2491 JUMP JUMPDEST DUP3 PUSH1 0x1 PUSH1 0x1 PUSH1 0xA0 SHL SUB AND DUP5 PUSH1 0x1 PUSH1 0x1 PUSH1 0xA0 SHL SUB AND PUSH32 0x1B5C5E27ED5443E409BAE85849D41D7BF12D5352E8FDDB3728B6408F836E1448 DUP5 DUP5 PUSH1 0x40 MLOAD PUSH2 0x191D SWAP3 SWAP2 SWAP1 SWAP2 DUP3 MSTORE PUSH1 0x20 DUP3 ADD MSTORE PUSH1 0x40 ADD SWAP1 JUMP JUMPDEST PUSH1 0x40 MLOAD DUP1 SWAP2 SUB SWAP1 LOG3 POP POP POP POP JUMP JUMPDEST DUP1 MLOAD PUSH1 0x0 SUB PUSH2 0x1966 JUMPI PUSH1 0x40 MLOAD PUSH32 0xEDAF4DF500000000000000000000000000000000000000000000000000000000 DUP2 MSTORE PUSH1 0x4 ADD PUSH1 0x40 MLOAD DUP1 SWAP2 SUB SWAP1 REVERT JUMPDEST PUSH1 0x1B PUSH2 0x1972 DUP3 DUP3 PUSH2 0x4EAD JUMP JUMPDEST POP PUSH32 0xB536117039B9F092020F65947BE2F7ED81B167BE574C4CF8F4291825D545B072 DUP2 PUSH1 0x40 MLOAD PUSH2 0x14CB SWAP2 SWAP1 PUSH2 0x4B7F JUMP JUMPDEST PUSH1 0x40 DUP1 MLOAD PUSH1 0x2 DUP1 DUP3 MSTORE PUSH1 0x60 DUP1 DUP4 ADD DUP5 MSTORE SWAP3 PUSH1 0x20 DUP4 ADD SWAP1 DUP1 CALLDATASIZE DUP4 CALLDATACOPY ADD SWAP1 POP POP SWAP1 POP DUP3 PUSH1 0x1 PUSH1 0x1 PUSH1 0xA0 SHL SUB AND DUP2 PUSH1 0x0 DUP2 MLOAD DUP2 LT PUSH2 0x19DF JUMPI PUSH2 0x19DF PUSH2 0x4CE0 JUMP JUMPDEST PUSH1 0x20 MUL PUSH1 0x20 ADD ADD DUP2 DUP2 MSTORE POP POP DUP2 DUP2 PUSH1 0x1 DUP2 MLOAD DUP2 LT PUSH2 0x19FF JUMPI PUSH2 0x19FF PUSH2 0x4CE0 JUMP JUMPDEST PUSH1 0x20 MUL PUSH1 0x20 ADD ADD DUP2 DUP2 MSTORE POP POP SWAP3 SWAP2 POP POP JUMP JUMPDEST PUSH2 0x1A1B DUP5 DUP5 PUSH2 0x2608 JUMP JUMPDEST PUSH1 0x1 PUSH1 0x1 PUSH1 0xA0 SHL SUB DUP5 AND PUSH2 0x1A5B JUMPI PUSH1 0x40 MLOAD PUSH32 0xC0E0F12200000000000000000000000000000000000000000000000000000000 DUP2 MSTORE PUSH1 0x4 ADD PUSH1 0x40 MLOAD DUP1 SWAP2 SUB SWAP1 REVERT JUMPDEST DUP3 PUSH1 0x0 SUB PUSH2 0x1A95 JUMPI PUSH1 0x40 MLOAD PUSH32 0x1463ACBE00000000000000000000000000000000000000000000000000000000 DUP2 MSTORE PUSH1 0x4 ADD PUSH1 0x40 MLOAD DUP1 SWAP2 SUB SWAP1 REVERT JUMPDEST PUSH1 0x1 PUSH1 0x1 PUSH1 0xA0 SHL SUB DUP3 AND PUSH2 0x1AD5 JUMPI PUSH1 0x40 MLOAD PUSH32 0x2586AE9100000000000000000000000000000000000000000000000000000000 DUP2 MSTORE PUSH1 0x4 ADD PUSH1 0x40 MLOAD DUP1 SWAP2 SUB SWAP1 REVERT JUMPDEST PUSH1 0x40 DUP1 MLOAD CHAINID PUSH1 0x20 DUP1 DUP4 ADD SWAP2 SWAP1 SWAP2 MSTORE PUSH32 0xFFFFFFFFFFFFFFFFFFFFFFFFFFFFFFFFFFFFFFFF000000000000000000000000 ADDRESS PUSH1 0x60 SWAP1 DUP2 SHL DUP3 AND DUP5 DUP7 ADD MSTORE DUP9 DUP2 SHL DUP3 AND PUSH1 0x54 DUP6 ADD MSTORE PUSH1 0x68 DUP5 ADD DUP9 SWAP1 MSTORE DUP7 SWAP1 SHL AND PUSH1 0x88 DUP4 ADD MSTORE DUP3 MLOAD DUP1 DUP4 SUB PUSH1 0x7C ADD DUP2 MSTORE PUSH1 0x9C SWAP1 SWAP3 ADD SWAP1 SWAP3 MSTORE DUP1 MLOAD SWAP2 ADD KECCAK256 PUSH1 0x0 SWAP1 PUSH1 0x0 DUP2 DUP2 MSTORE PUSH1 0x1C PUSH1 0x20 MSTORE PUSH1 0x40 SWAP1 KECCAK256 SLOAD SWAP1 SWAP2 POP PUSH1 0xFF AND ISZERO PUSH2 0x1BAA JUMPI PUSH1 0x40 MLOAD PUSH32 0xF78A351800000000000000000000000000000000000000000000000000000000 DUP2 MSTORE PUSH1 0x1 PUSH1 0x1 PUSH1 0xA0 SHL SUB DUP1 DUP8 AND PUSH1 0x4 DUP4 ADD MSTORE PUSH1 0x24 DUP3 ADD DUP7 SWAP1 MSTORE DUP5 AND PUSH1 0x44 DUP3 ADD MSTORE PUSH1 0x64 ADD PUSH2 0x871 JUMP JUMPDEST PUSH1 0x0 PUSH2 0x1C0C PUSH2 0x1C06 DUP4 PUSH1 0x40 MLOAD PUSH32 0x19457468657265756D205369676E6564204D6573736167653A0A333200000000 PUSH1 0x20 DUP3 ADD MSTORE PUSH1 0x3C DUP2 ADD DUP3 SWAP1 MSTORE PUSH1 0x0 SWAP1 PUSH1 0x5C ADD PUSH1 0x40 MLOAD PUSH1 0x20 DUP2 DUP4 SUB SUB DUP2 MSTORE SWAP1 PUSH1 0x40 MSTORE DUP1 MLOAD SWAP1 PUSH1 0x20 ADD KECCAK256 SWAP1 POP SWAP2 SWAP1 POP JUMP JUMPDEST DUP5 PUSH2 0x264E JUMP JUMPDEST PUSH1 0x1A SLOAD SWAP1 SWAP2 POP PUSH1 0x1 PUSH1 0x1 PUSH1 0xA0 SHL SUB DUP1 DUP4 AND SWAP2 AND EQ PUSH2 0x1C6D JUMPI PUSH1 0x1A SLOAD PUSH1 0x40 MLOAD PUSH32 0x8311C63100000000000000000000000000000000000000000000000000000000 DUP2 MSTORE PUSH1 0x1 PUSH1 0x1 PUSH1 0xA0 SHL SUB DUP1 DUP5 AND PUSH1 0x4 DUP4 ADD MSTORE SWAP1 SWAP2 AND PUSH1 0x24 DUP3 ADD MSTORE PUSH1 0x44 ADD PUSH2 0x871 JUMP JUMPDEST POP POP POP POP POP POP JUMP JUMPDEST PUSH1 0x40 DUP1 MLOAD CHAINID PUSH1 0x20 DUP1 DUP4 ADD SWAP2 SWAP1 SWAP2 MSTORE ADDRESS PUSH1 0x60 SWAP1 DUP2 SHL PUSH32 0xFFFFFFFFFFFFFFFFFFFFFFFFFFFFFFFFFFFFFFFF000000000000000000000000 SWAP1 DUP2 AND DUP5 DUP7 ADD MSTORE DUP9 DUP3 SHL DUP2 AND PUSH1 0x54 DUP6 ADD MSTORE PUSH1 0x68 DUP5 ADD DUP9 SWAP1 MSTORE SWAP1 DUP7 SWAP1 SHL AND PUSH1 0x88 DUP4 ADD MSTORE DUP3 MLOAD PUSH1 0x7C DUP2 DUP5 SUB ADD DUP2 MSTORE PUSH1 0x9C SWAP1 SWAP3 ADD DUP4 MSTORE DUP2 MLOAD SWAP2 DUP2 ADD SWAP2 SWAP1 SWAP2 KECCAK256 PUSH1 0x0 SWAP1 DUP2 MSTORE PUSH1 0x1C SWAP1 SWAP2 MSTORE KECCAK256 DUP1 SLOAD PUSH32 0xFFFFFFFFFFFFFFFFFFFFFFFFFFFFFFFFFFFFFFFFFFFFFFFFFFFFFFFFFFFFFF00 AND PUSH1 0x1 OR SWAP1 SSTORE PUSH2 0x946 DUP5 DUP5 PUSH2 0x2672 JUMP JUMPDEST PUSH1 0x60 PUSH2 0x1165 DUP3 PUSH1 0x1 PUSH1 0x1 PUSH1 0xA0 SHL SUB AND PUSH2 0x140C JUMP JUMPDEST PUSH1 0x1 PUSH1 0x1 PUSH1 0xA0 SHL SUB DUP2 AND PUSH2 0x1D78 JUMPI PUSH1 0x40 MLOAD PUSH32 0x98E743D200000000000000000000000000000000000000000000000000000000 DUP2 MSTORE PUSH1 0x4 ADD PUSH1 0x40 MLOAD DUP1 SWAP2 SUB SWAP1 REVERT JUMPDEST PUSH1 0x1A DUP1 SLOAD PUSH32 0xFFFFFFFFFFFFFFFFFFFFFFFF0000000000000000000000000000000000000000 AND PUSH1 0x1 PUSH1 0x1 PUSH1 0xA0 SHL SUB DUP4 AND SWAP1 DUP2 OR SWAP1 SWAP2 SSTORE PUSH1 0x40 MLOAD PUSH32 0x9EAA897564D022FB8C5EFAF0ACDB5D9D27B440B2AAD44400B6E1C702E65B9ED3 SWAP1 PUSH1 0x0 SWAP1 LOG2 POP JUMP JUMPDEST PUSH1 0x40 DUP1 MLOAD PUSH1 0x2 DUP1 DUP3 MSTORE PUSH1 0x60 DUP1 DUP4 ADD DUP5 MSTORE SWAP3 PUSH1 0x20 DUP4 ADD SWAP1 DUP1 CALLDATASIZE DUP4 CALLDATACOPY ADD SWAP1 POP POP SWAP1 POP DUP3 PUSH1 0x0 SHR DUP2 PUSH1 0x0 DUP2 MLOAD DUP2 LT PUSH2 0x1E11 JUMPI PUSH2 0x1E11 PUSH2 0x4CE0 JUMP JUMPDEST PUSH1 0x20 MUL PUSH1 0x20 ADD ADD DUP2 DUP2 MSTORE POP POP DUP2 PUSH1 0x0 SHR DUP2 PUSH1 0x1 DUP2 MLOAD DUP2 LT PUSH2 0x19FF JUMPI PUSH2 0x19FF PUSH2 0x4CE0 JUMP JUMPDEST DUP1 ISZERO PUSH2 0x1E6F JUMPI PUSH1 0x40 MLOAD PUSH32 0x9842F26F00000000000000000000000000000000000000000000000000000000 DUP2 MSTORE PUSH1 0x4 DUP2 ADD DUP3 SWAP1 MSTORE PUSH1 0x24 ADD PUSH2 0x871 JUMP JUMPDEST PUSH2 0x784 DUP3 DUP3 PUSH2 0x269A JUMP JUMPDEST PUSH1 0x40 DUP1 MLOAD PUSH1 0x3 DUP1 DUP3 MSTORE PUSH1 0x80 DUP3 ADD SWAP1 SWAP3 MSTORE PUSH1 0x60 SWAP2 PUSH1 0x20 DUP3 ADD DUP4 DUP1 CALLDATASIZE DUP4 CALLDATACOPY ADD SWAP1 POP POP SWAP1 POP DUP4 PUSH1 0x1 PUSH1 0x1 PUSH1 0xA0 SHL SUB AND DUP2 PUSH1 0x0 DUP2 MLOAD DUP2 LT PUSH2 0x1EB8 JUMPI PUSH2 0x1EB8 PUSH2 0x4CE0 JUMP JUMPDEST PUSH1 0x20 MUL PUSH1 0x20 ADD ADD DUP2 DUP2 MSTORE POP POP DUP3 DUP2 PUSH1 0x1 DUP2 MLOAD DUP2 LT PUSH2 0x1ED8 JUMPI PUSH2 0x1ED8 PUSH2 0x4CE0 JUMP JUMPDEST PUSH1 0x20 MUL PUSH1 0x20 ADD ADD DUP2 DUP2 MSTORE POP POP DUP2 DUP2 PUSH1 0x2 DUP2 MLOAD DUP2 LT PUSH2 0x1EF8 JUMPI PUSH2 0x1EF8 PUSH2 0x4CE0 JUMP JUMPDEST PUSH1 0x20 MUL PUSH1 0x20 ADD ADD DUP2 DUP2 MSTORE POP POP SWAP4 SWAP3 POP POP POP JUMP JUMPDEST PUSH2 0x1F18 PUSH1 0x14 DUP5 DUP5 DUP5 PUSH2 0x2491 JUMP JUMPDEST PUSH1 0x40 DUP1 MLOAD DUP4 DUP2 MSTORE PUSH1 0x20 DUP2 ADD DUP4 SWAP1 MSTORE PUSH1 0x1 PUSH1 0x1 PUSH1 0xA0 SHL SUB DUP6 AND SWAP2 PUSH32 0x6324B5F18E615697A2B44F16D7A649DEB0BBBC7CB09DAD4C610306105730E7D9 SWAP2 ADD PUSH1 0x40 MLOAD DUP1 SWAP2 SUB SWAP1 LOG2 POP POP POP JUMP JUMPDEST PUSH1 0xC SLOAD DUP2 LT ISZERO PUSH2 0x1FAB JUMPI PUSH1 0xC SLOAD PUSH1 0x40 MLOAD PUSH32 0x5E55DB1900000000000000000000000000000000000000000000000000000000 DUP2 MSTORE PUSH1 0x4 DUP2 ADD SWAP2 SWAP1 SWAP2 MSTORE PUSH1 0x24 DUP2 ADD DUP3 SWAP1 MSTORE PUSH1 0x44 ADD PUSH2 0x871 JUMP JUMPDEST PUSH1 0xA DUP2 SWAP1 SSTORE PUSH1 0x40 MLOAD DUP2 DUP2 MSTORE PUSH32 0x19977A2303CEB34BEF2E4DD4565FAAC5F9B6EBC0C20A5EE6EC7ACA38D5B15938 SWAP1 PUSH1 0x20 ADD PUSH2 0x14CB JUMP JUMPDEST PUSH2 0x1FED PUSH1 0x10 DUP5 DUP5 DUP5 PUSH2 0x23A9 JUMP JUMPDEST PUSH1 0x40 DUP1 MLOAD PUSH1 0x1 PUSH1 0x1 PUSH1 0xA0 SHL SUB DUP6 AND DUP2 MSTORE PUSH1 0x20 DUP2 ADD DUP5 SWAP1 MSTORE SWAP1 DUP2 ADD DUP3 SWAP1 MSTORE PUSH32 0xA80953BDC344B2EBD0BCDD001A3418A8FD1B858BDECF12A4BA5A9366AD65D345 SWAP1 PUSH1 0x60 ADD PUSH1 0x40 MLOAD DUP1 SWAP2 SUB SWAP1 LOG1 POP POP POP JUMP JUMPDEST PUSH1 0x1 PUSH1 0x1 PUSH1 0xA0 SHL SUB DUP1 DUP3 AND PUSH1 0x0 SWAP1 DUP2 MSTORE PUSH1 0x19 PUSH1 0x20 MSTORE PUSH1 0x40 DUP2 KECCAK256 DUP1 SLOAD SWAP2 SWAP3 SWAP1 SWAP2 AND ISZERO PUSH2 0x2067 JUMPI DUP1 PUSH2 0x206A JUMP JUMPDEST PUSH1 0x14 JUMPDEST SWAP4 SWAP3 POP POP POP JUMP JUMPDEST PUSH8 0xDE0B6B3A7640000 DUP2 GT ISZERO PUSH2 0x20B3 JUMPI PUSH1 0x40 MLOAD PUSH32 0xCE57496100000000000000000000000000000000000000000000000000000000 DUP2 MSTORE PUSH1 0x4 ADD PUSH1 0x40 MLOAD DUP1 SWAP2 SUB SWAP1 REVERT JUMPDEST PUSH1 0x9 DUP2 SWAP1 SSTORE PUSH1 0x40 MLOAD DUP2 DUP2 MSTORE PUSH32 0x6F595FA7BD8D8D8862D5832788F1CE1FE642AF019A167C3BB93C793246185A96 SWAP1 PUSH1 0x20 ADD PUSH2 0x14CB JUMP JUMPDEST PUSH1 0xA SLOAD DUP2 GT ISZERO PUSH2 0x2132 JUMPI PUSH1 0xA SLOAD PUSH1 0x40 MLOAD PUSH32 0x5E55DB1900000000000000000000000000000000000000000000000000000000 DUP2 MSTORE PUSH2 0x871 SWAP2 DUP4 SWAP2 PUSH1 0x4 ADD SWAP2 DUP3 MSTORE PUSH1 0x20 DUP3 ADD MSTORE PUSH1 0x40 ADD SWAP1 JUMP JUMPDEST PUSH1 0xC DUP2 SWAP1 SSTORE PUSH1 0x40 MLOAD DUP2 DUP2 MSTORE PUSH32 0x6243D0B89023D75F69A263222092C4479E48EC8866BEE94A0C6D38288425CA76 SWAP1 PUSH1 0x20 ADD PUSH2 0x14CB JUMP JUMPDEST PUSH1 0xB DUP2 SWAP1 SSTORE PUSH1 0x40 MLOAD DUP2 DUP2 MSTORE PUSH32 0x591533B8B1DB3DF52AC5CBF75069102B6618D2A941CB88C223FD353FF4E65D4D SWAP1 PUSH1 0x20 ADD PUSH2 0x14CB JUMP JUMPDEST PUSH1 0x0 DUP1 SLOAD PUSH1 0x40 MLOAD PUSH32 0x2852289500000000000000000000000000000000000000000000000000000000 DUP2 MSTORE PUSH3 0x10000 SWAP1 SWAP2 DIV PUSH1 0x1 PUSH1 0x1 PUSH1 0xA0 SHL SUB AND SWAP1 PUSH4 0x28522895 SWAP1 PUSH2 0x21F1 SWAP1 DUP8 SWAP1 ADDRESS SWAP1 DUP9 SWAP1 DUP9 SWAP1 PUSH1 0x4 ADD PUSH2 0x4FA9 JUMP JUMPDEST PUSH1 0x20 PUSH1 0x40 MLOAD DUP1 DUP4 SUB DUP2 DUP7 GAS STATICCALL ISZERO DUP1 ISZERO PUSH2 0x220E JUMPI RETURNDATASIZE PUSH1 0x0 DUP1 RETURNDATACOPY RETURNDATASIZE PUSH1 0x0 REVERT JUMPDEST POP POP POP POP PUSH1 0x40 MLOAD RETURNDATASIZE PUSH1 0x1F NOT PUSH1 0x1F DUP3 ADD AND DUP3 ADD DUP1 PUSH1 0x40 MSTORE POP DUP2 ADD SWAP1 PUSH2 0x2232 SWAP2 SWAP1 PUSH2 0x5007 JUMP JUMPDEST SWAP5 SWAP4 POP POP POP POP JUMP JUMPDEST PUSH1 0x0 SLOAD PUSH2 0x100 SWAP1 DIV PUSH1 0xFF AND PUSH2 0x22A5 JUMPI PUSH1 0x40 MLOAD PUSH3 0x461BCD PUSH1 0xE5 SHL DUP2 MSTORE PUSH1 0x20 PUSH1 0x4 DUP3 ADD MSTORE PUSH1 0x2B PUSH1 0x24 DUP3 ADD MSTORE PUSH32 0x496E697469616C697A61626C653A20636F6E7472616374206973206E6F742069 PUSH1 0x44 DUP3 ADD MSTORE PUSH11 0x6E697469616C697A696E67 PUSH1 0xA8 SHL PUSH1 0x64 DUP3 ADD MSTORE PUSH1 0x84 ADD PUSH2 0x871 JUMP JUMPDEST DUP1 MLOAD PUSH2 0x22B0 SWAP1 PUSH2 0x271D JUMP JUMPDEST PUSH2 0x22B8 PUSH2 0x27FF JUMP JUMPDEST PUSH2 0x22C5 DUP2 PUSH1 0x20 ADD MLOAD PUSH2 0x2874 JUMP JUMPDEST PUSH2 0x22D2 DUP2 PUSH1 0x40 ADD MLOAD PUSH2 0x28E8 JUMP JUMPDEST PUSH2 0x22DF DUP2 PUSH1 0x60 ADD MLOAD PUSH2 0x295C JUMP JUMPDEST PUSH2 0x22EC DUP2 PUSH1 0x80 ADD MLOAD PUSH2 0x29D0 JUMP JUMPDEST PUSH2 0x22F9 DUP2 PUSH1 0xA0 ADD MLOAD PUSH2 0x2A44 JUMP JUMPDEST PUSH2 0xDE2 DUP2 PUSH2 0x2AB8 JUMP JUMPDEST PUSH1 0x0 SLOAD PUSH2 0x100 SWAP1 DIV PUSH1 0xFF AND PUSH2 0x236D JUMPI PUSH1 0x40 MLOAD PUSH3 0x461BCD PUSH1 0xE5 SHL DUP2 MSTORE PUSH1 0x20 PUSH1 0x4 DUP3 ADD MSTORE PUSH1 0x2B PUSH1 0x24 DUP3 ADD MSTORE PUSH32 0x496E697469616C697A61626C653A20636F6E7472616374206973206E6F742069 PUSH1 0x44 DUP3 ADD MSTORE PUSH11 0x6E697469616C697A696E67 PUSH1 0xA8 SHL PUSH1 0x64 DUP3 ADD MSTORE PUSH1 0x84 ADD PUSH2 0x871 JUMP JUMPDEST PUSH2 0x2376 DUP3 PUSH2 0x1D38 JUMP JUMPDEST PUSH2 0xA0F DUP2 PUSH2 0x192B JUMP JUMPDEST PUSH1 0x0 PUSH2 0x206A DUP4 PUSH1 0x1 PUSH1 0x1 PUSH1 0xA0 SHL SUB DUP5 AND PUSH2 0x2B23 JUMP JUMPDEST PUSH1 0x0 PUSH2 0x206A DUP4 PUSH1 0x1 PUSH1 0x1 PUSH1 0xA0 SHL SUB DUP5 AND PUSH2 0x2C16 JUMP JUMPDEST PUSH1 0x0 PUSH1 0x1 PUSH1 0x1 PUSH1 0xA0 SHL SUB DUP5 AND ISZERO DUP1 ISZERO PUSH2 0x23C0 JUMPI POP DUP3 ISZERO JUMPDEST DUP1 ISZERO PUSH2 0x23CA JUMPI POP DUP2 ISZERO JUMPDEST SWAP1 POP PUSH1 0x0 PUSH1 0x1 PUSH1 0x1 PUSH1 0xA0 SHL SUB DUP6 AND ISZERO DUP1 ISZERO SWAP1 PUSH2 0x23EE JUMPI POP DUP3 ISZERO DUP1 PUSH2 0x23EE JUMPI POP DUP4 DUP4 LT ISZERO JUMPDEST SWAP1 POP DUP2 ISZERO DUP1 ISZERO PUSH2 0x23FC JUMPI POP DUP1 ISZERO JUMPDEST ISZERO PUSH2 0x244C JUMPI PUSH1 0x40 MLOAD PUSH32 0xCA1F048300000000000000000000000000000000000000000000000000000000 DUP2 MSTORE PUSH1 0x1 PUSH1 0x1 PUSH1 0xA0 SHL SUB DUP7 AND PUSH1 0x4 DUP3 ADD MSTORE PUSH1 0x24 DUP2 ADD DUP6 SWAP1 MSTORE PUSH1 0x44 DUP2 ADD DUP5 SWAP1 MSTORE PUSH1 0x64 ADD PUSH2 0x871 JUMP JUMPDEST POP POP DUP4 SLOAD PUSH32 0xFFFFFFFFFFFFFFFFFFFFFFFF0000000000000000000000000000000000000000 AND PUSH1 0x1 PUSH1 0x1 PUSH1 0xA0 SHL SUB SWAP4 SWAP1 SWAP4 AND SWAP3 SWAP1 SWAP3 OR DUP4 SSTORE PUSH1 0x1 DUP4 ADD SSTORE PUSH1 0x2 SWAP1 SWAP2 ADD SSTORE JUMP JUMPDEST PUSH1 0x0 PUSH1 0x1 PUSH1 0x1 PUSH1 0xA0 SHL SUB DUP5 AND ISZERO DUP1 ISZERO PUSH2 0x24A8 JUMPI POP DUP3 ISZERO JUMPDEST DUP1 ISZERO PUSH2 0x24B2 JUMPI POP DUP2 ISZERO JUMPDEST SWAP1 POP PUSH1 0x0 PUSH1 0x1 PUSH1 0x1 PUSH1 0xA0 SHL SUB DUP6 AND ISZERO DUP1 ISZERO SWAP1 PUSH2 0x24CE JUMPI POP PUSH1 0x0 DUP5 GT JUMPDEST DUP1 ISZERO PUSH2 0x24DA JUMPI POP PUSH1 0x0 DUP4 GT JUMPDEST SWAP1 POP DUP2 ISZERO DUP1 ISZERO PUSH2 0x24E8 JUMPI POP DUP1 ISZERO JUMPDEST ISZERO PUSH2 0x2538 JUMPI PUSH1 0x40 MLOAD PUSH32 0xF5DEB5DC00000000000000000000000000000000000000000000000000000000 DUP2 MSTORE PUSH1 0x1 PUSH1 0x1 PUSH1 0xA0 SHL SUB DUP7 AND PUSH1 0x4 DUP3 ADD MSTORE PUSH1 0x24 DUP2 ADD DUP6 SWAP1 MSTORE PUSH1 0x44 DUP2 ADD DUP5 SWAP1 MSTORE PUSH1 0x64 ADD PUSH2 0x871 JUMP JUMPDEST PUSH1 0x3 DUP7 ADD DUP4 SWAP1 SSTORE PUSH1 0x1 DUP7 ADD DUP5 SWAP1 SSTORE DUP2 ISZERO PUSH2 0x255F JUMPI PUSH1 0x0 PUSH1 0x2 DUP8 ADD DUP2 SWAP1 SSTORE PUSH1 0x4 DUP8 ADD SSTORE PUSH2 0x25CB JUMP JUMPDEST DUP6 PUSH1 0x4 ADD SLOAD PUSH1 0x0 SUB PUSH2 0x2586 JUMPI PUSH1 0x0 PUSH1 0x2 DUP8 ADD SSTORE PUSH2 0x257C DUP4 TIMESTAMP PUSH2 0x5024 JUMP JUMPDEST PUSH1 0x4 DUP8 ADD SSTORE PUSH2 0x25CB JUMP JUMPDEST DUP6 SLOAD PUSH1 0x1 PUSH1 0x1 PUSH1 0xA0 SHL SUB DUP7 DUP2 AND SWAP2 AND EQ PUSH2 0x25CB JUMPI DUP6 SLOAD PUSH1 0x0 SWAP1 PUSH2 0x25B2 SWAP1 PUSH1 0x1 PUSH1 0x1 PUSH1 0xA0 SHL SUB AND DUP8 PUSH2 0x2C65 JUMP JUMPDEST PUSH1 0x2 DUP9 ADD SLOAD SWAP1 SWAP2 POP PUSH2 0x25C4 SWAP1 DUP3 PUSH2 0x2C71 JUMP JUMPDEST PUSH1 0x2 DUP9 ADD SSTORE POP JUMPDEST POP POP DUP4 SLOAD PUSH32 0xFFFFFFFFFFFFFFFFFFFFFFFF0000000000000000000000000000000000000000 AND PUSH1 0x1 PUSH1 0x1 PUSH1 0xA0 SHL SUB SWAP4 SWAP1 SWAP4 AND SWAP3 SWAP1 SWAP3 OR SWAP1 SWAP3 SSTORE POP POP JUMP JUMPDEST PUSH2 0x2612 DUP3 DUP3 PUSH2 0x2CE7 JUMP JUMPDEST PUSH2 0x261C DUP3 DUP3 PUSH2 0x2CF1 JUMP JUMPDEST PUSH2 0x2626 DUP3 DUP3 PUSH2 0x2D2E JUMP JUMPDEST PUSH2 0x2630 DUP3 DUP3 PUSH2 0x2DF6 JUMP JUMPDEST PUSH2 0x263A DUP3 DUP3 PUSH2 0x2ED1 JUMP JUMPDEST PUSH2 0x2644 DUP3 DUP3 PUSH2 0x2F4D JUMP JUMPDEST PUSH2 0x784 DUP3 DUP3 PUSH2 0x303A JUMP JUMPDEST PUSH1 0x0 DUP1 PUSH1 0x0 PUSH2 0x265D DUP6 DUP6 PUSH2 0x3150 JUMP JUMPDEST SWAP2 POP SWAP2 POP PUSH2 0x266A DUP2 PUSH2 0x31BE JUMP JUMPDEST POP SWAP4 SWAP3 POP POP POP JUMP JUMPDEST PUSH2 0x267C DUP3 DUP3 PUSH2 0x33AA JUMP JUMPDEST PUSH2 0x2686 DUP3 DUP3 PUSH2 0x344C JUMP JUMPDEST PUSH2 0x2690 DUP3 DUP3 PUSH2 0x34CC JUMP JUMPDEST PUSH2 0x784 DUP3 DUP3 PUSH2 0x36DA JUMP JUMPDEST DUP1 DUP3 EQ DUP1 ISZERO PUSH2 0x26A8 JUMPI POP DUP2 ISZERO ISZERO JUMPDEST ISZERO PUSH2 0x26E2 JUMPI PUSH1 0x40 MLOAD PUSH32 0xFB49EDB00000000000000000000000000000000000000000000000000000000 DUP2 MSTORE PUSH1 0x4 DUP2 ADD DUP4 SWAP1 MSTORE PUSH1 0x24 ADD PUSH2 0x871 JUMP JUMPDEST PUSH1 0x2 DUP3 SWAP1 SSTORE PUSH1 0x3 DUP2 SWAP1 SSTORE PUSH1 0x40 MLOAD DUP2 SWAP1 DUP4 SWAP1 PUSH32 0xF950A929751D87DB181A0A517DF21BB3ECD433ABBA584594402DB4B58A554835 SWAP1 PUSH1 0x0 SWAP1 LOG3 POP POP JUMP JUMPDEST PUSH1 0x0 SLOAD PUSH2 0x100 SWAP1 DIV PUSH1 0xFF AND PUSH2 0x2788 JUMPI PUSH1 0x40 MLOAD PUSH3 0x461BCD PUSH1 0xE5 SHL DUP2 MSTORE PUSH1 0x20 PUSH1 0x4 DUP3 ADD MSTORE PUSH1 0x2B PUSH1 0x24 DUP3 ADD MSTORE PUSH32 0x496E697469616C697A61626C653A20636F6E7472616374206973206E6F742069 PUSH1 0x44 DUP3 ADD MSTORE PUSH11 0x6E697469616C697A696E67 PUSH1 0xA8 SHL PUSH1 0x64 DUP3 ADD MSTORE PUSH1 0x84 ADD PUSH2 0x871 JUMP JUMPDEST PUSH2 0x27F6 DUP2 PUSH1 0x0 ADD MLOAD PUSH1 0x1 PUSH1 0x1 PUSH1 0xA0 SHL SUB AND PUSH4 0xD09EDF31 PUSH1 0x40 MLOAD DUP2 PUSH4 0xFFFFFFFF AND PUSH1 0xE0 SHL DUP2 MSTORE PUSH1 0x4 ADD PUSH1 0x20 PUSH1 0x40 MLOAD DUP1 DUP4 SUB DUP2 DUP7 GAS STATICCALL ISZERO DUP1 ISZERO PUSH2 0x27CD JUMPI RETURNDATASIZE PUSH1 0x0 DUP1 RETURNDATACOPY RETURNDATASIZE PUSH1 0x0 REVERT JUMPDEST POP POP POP POP PUSH1 0x40 MLOAD RETURNDATASIZE PUSH1 0x1F NOT PUSH1 0x1F DUP3 ADD AND DUP3 ADD DUP1 PUSH1 0x40 MSTORE POP DUP2 ADD SWAP1 PUSH2 0x27F1 SWAP2 SWAP1 PUSH2 0x5037 JUMP JUMPDEST PUSH2 0x3707 JUMP JUMPDEST PUSH2 0xDE2 DUP2 PUSH2 0x377B JUMP JUMPDEST PUSH1 0x0 SLOAD PUSH2 0x100 SWAP1 DIV PUSH1 0xFF AND PUSH2 0x286A JUMPI PUSH1 0x40 MLOAD PUSH3 0x461BCD PUSH1 0xE5 SHL DUP2 MSTORE PUSH1 0x20 PUSH1 0x4 DUP3 ADD MSTORE PUSH1 0x2B PUSH1 0x24 DUP3 ADD MSTORE PUSH32 0x496E697469616C697A61626C653A20636F6E7472616374206973206E6F742069 PUSH1 0x44 DUP3 ADD MSTORE PUSH11 0x6E697469616C697A696E67 PUSH1 0xA8 SHL PUSH1 0x64 DUP3 ADD MSTORE PUSH1 0x84 ADD PUSH2 0x871 JUMP JUMPDEST PUSH2 0x2872 PUSH2 0x3833 JUMP JUMPDEST JUMP JUMPDEST PUSH1 0x0 SLOAD PUSH2 0x100 SWAP1 DIV PUSH1 0xFF AND PUSH2 0x28DF JUMPI PUSH1 0x40 MLOAD PUSH3 0x461BCD PUSH1 0xE5 SHL DUP2 MSTORE PUSH1 0x20 PUSH1 0x4 DUP3 ADD MSTORE PUSH1 0x2B PUSH1 0x24 DUP3 ADD MSTORE PUSH32 0x496E697469616C697A61626C653A20636F6E7472616374206973206E6F742069 PUSH1 0x44 DUP3 ADD MSTORE PUSH11 0x6E697469616C697A696E67 PUSH1 0xA8 SHL PUSH1 0x64 DUP3 ADD MSTORE PUSH1 0x84 ADD PUSH2 0x871 JUMP JUMPDEST PUSH2 0xDE2 DUP2 PUSH2 0x389E JUMP JUMPDEST PUSH1 0x0 SLOAD PUSH2 0x100 SWAP1 DIV PUSH1 0xFF AND PUSH2 0x2953 JUMPI PUSH1 0x40 MLOAD PUSH3 0x461BCD PUSH1 0xE5 SHL DUP2 MSTORE PUSH1 0x20 PUSH1 0x4 DUP3 ADD MSTORE PUSH1 0x2B PUSH1 0x24 DUP3 ADD MSTORE PUSH32 0x496E697469616C697A61626C653A20636F6E7472616374206973206E6F742069 PUSH1 0x44 DUP3 ADD MSTORE PUSH11 0x6E697469616C697A696E67 PUSH1 0xA8 SHL PUSH1 0x64 DUP3 ADD MSTORE PUSH1 0x84 ADD PUSH2 0x871 JUMP JUMPDEST PUSH2 0xDE2 DUP2 PUSH2 0x393B JUMP JUMPDEST PUSH1 0x0 SLOAD PUSH2 0x100 SWAP1 DIV PUSH1 0xFF AND PUSH2 0x29C7 JUMPI PUSH1 0x40 MLOAD PUSH3 0x461BCD PUSH1 0xE5 SHL DUP2 MSTORE PUSH1 0x20 PUSH1 0x4 DUP3 ADD MSTORE PUSH1 0x2B PUSH1 0x24 DUP3 ADD MSTORE PUSH32 0x496E697469616C697A61626C653A20636F6E7472616374206973206E6F742069 PUSH1 0x44 DUP3 ADD MSTORE PUSH11 0x6E697469616C697A696E67 PUSH1 0xA8 SHL PUSH1 0x64 DUP3 ADD MSTORE PUSH1 0x84 ADD PUSH2 0x871 JUMP JUMPDEST PUSH2 0xDE2 DUP2 PUSH2 0x39CB JUMP JUMPDEST PUSH1 0x0 SLOAD PUSH2 0x100 SWAP1 DIV PUSH1 0xFF AND PUSH2 0x2A3B JUMPI PUSH1 0x40 MLOAD PUSH3 0x461BCD PUSH1 0xE5 SHL DUP2 MSTORE PUSH1 0x20 PUSH1 0x4 DUP3 ADD MSTORE PUSH1 0x2B PUSH1 0x24 DUP3 ADD MSTORE PUSH32 0x496E697469616C697A61626C653A20636F6E7472616374206973206E6F742069 PUSH1 0x44 DUP3 ADD MSTORE PUSH11 0x6E697469616C697A696E67 PUSH1 0xA8 SHL PUSH1 0x64 DUP3 ADD MSTORE PUSH1 0x84 ADD PUSH2 0x871 JUMP JUMPDEST PUSH2 0xDE2 DUP2 PUSH2 0x3A8B JUMP JUMPDEST PUSH1 0x0 SLOAD PUSH2 0x100 SWAP1 DIV PUSH1 0xFF AND PUSH2 0x2AAF JUMPI PUSH1 0x40 MLOAD PUSH3 0x461BCD PUSH1 0xE5 SHL DUP2 MSTORE PUSH1 0x20 PUSH1 0x4 DUP3 ADD MSTORE PUSH1 0x2B PUSH1 0x24 DUP3 ADD MSTORE PUSH32 0x496E697469616C697A61626C653A20636F6E7472616374206973206E6F742069 PUSH1 0x44 DUP3 ADD MSTORE PUSH11 0x6E697469616C697A696E67 PUSH1 0xA8 SHL PUSH1 0x64 DUP3 ADD MSTORE PUSH1 0x84 ADD PUSH2 0x871 JUMP JUMPDEST PUSH2 0xDE2 DUP2 PUSH2 0x3B7B JUMP JUMPDEST PUSH1 0x0 SLOAD PUSH2 0x100 SWAP1 DIV PUSH1 0xFF AND PUSH2 0xDE2 JUMPI PUSH1 0x40 MLOAD PUSH3 0x461BCD PUSH1 0xE5 SHL DUP2 MSTORE PUSH1 0x20 PUSH1 0x4 DUP3 ADD MSTORE PUSH1 0x2B PUSH1 0x24 DUP3 ADD MSTORE PUSH32 0x496E697469616C697A61626C653A20636F6E7472616374206973206E6F742069 PUSH1 0x44 DUP3 ADD MSTORE PUSH11 0x6E697469616C697A696E67 PUSH1 0xA8 SHL PUSH1 0x64 DUP3 ADD MSTORE PUSH1 0x84 ADD PUSH2 0x871 JUMP JUMPDEST PUSH1 0x0 DUP2 DUP2 MSTORE PUSH1 0x1 DUP4 ADD PUSH1 0x20 MSTORE PUSH1 0x40 DUP2 KECCAK256 SLOAD DUP1 ISZERO PUSH2 0x2C0C JUMPI PUSH1 0x0 PUSH2 0x2B47 PUSH1 0x1 DUP4 PUSH2 0x5054 JUMP JUMPDEST DUP6 SLOAD SWAP1 SWAP2 POP PUSH1 0x0 SWAP1 PUSH2 0x2B5B SWAP1 PUSH1 0x1 SWAP1 PUSH2 0x5054 JUMP JUMPDEST SWAP1 POP DUP2 DUP2 EQ PUSH2 0x2BC0 JUMPI PUSH1 0x0 DUP7 PUSH1 0x0 ADD DUP3 DUP2 SLOAD DUP2 LT PUSH2 0x2B7B JUMPI PUSH2 0x2B7B PUSH2 0x4CE0 JUMP JUMPDEST SWAP1 PUSH1 0x0 MSTORE PUSH1 0x20 PUSH1 0x0 KECCAK256 ADD SLOAD SWAP1 POP DUP1 DUP8 PUSH1 0x0 ADD DUP5 DUP2 SLOAD DUP2 LT PUSH2 0x2B9E JUMPI PUSH2 0x2B9E PUSH2 0x4CE0 JUMP JUMPDEST PUSH1 0x0 SWAP2 DUP3 MSTORE PUSH1 0x20 DUP1 DUP4 KECCAK256 SWAP1 SWAP2 ADD SWAP3 SWAP1 SWAP3 SSTORE SWAP2 DUP3 MSTORE PUSH1 0x1 DUP9 ADD SWAP1 MSTORE PUSH1 0x40 SWAP1 KECCAK256 DUP4 SWAP1 SSTORE JUMPDEST DUP6 SLOAD DUP7 SWAP1 DUP1 PUSH2 0x2BD1 JUMPI PUSH2 0x2BD1 PUSH2 0x5067 JUMP JUMPDEST PUSH1 0x1 SWAP1 SUB DUP2 DUP2 SWAP1 PUSH1 0x0 MSTORE PUSH1 0x20 PUSH1 0x0 KECCAK256 ADD PUSH1 0x0 SWAP1 SSTORE SWAP1 SSTORE DUP6 PUSH1 0x1 ADD PUSH1 0x0 DUP7 DUP2 MSTORE PUSH1 0x20 ADD SWAP1 DUP2 MSTORE PUSH1 0x20 ADD PUSH1 0x0 KECCAK256 PUSH1 0x0 SWAP1 SSTORE PUSH1 0x1 SWAP4 POP POP POP POP PUSH2 0x1165 JUMP JUMPDEST PUSH1 0x0 SWAP2 POP POP PUSH2 0x1165 JUMP JUMPDEST PUSH1 0x0 DUP2 DUP2 MSTORE PUSH1 0x1 DUP4 ADD PUSH1 0x20 MSTORE PUSH1 0x40 DUP2 KECCAK256 SLOAD PUSH2 0x2C5D JUMPI POP DUP2 SLOAD PUSH1 0x1 DUP2 DUP2 ADD DUP5 SSTORE PUSH1 0x0 DUP5 DUP2 MSTORE PUSH1 0x20 DUP1 DUP3 KECCAK256 SWAP1 SWAP4 ADD DUP5 SWAP1 SSTORE DUP5 SLOAD DUP5 DUP3 MSTORE DUP3 DUP7 ADD SWAP1 SWAP4 MSTORE PUSH1 0x40 SWAP1 KECCAK256 SWAP2 SWAP1 SWAP2 SSTORE PUSH2 0x1165 JUMP JUMPDEST POP PUSH1 0x0 PUSH2 0x1165 JUMP JUMPDEST PUSH1 0x0 PUSH2 0x206A DUP4 DUP4 PUSH2 0x3C6B JUMP JUMPDEST PUSH1 0x0 DUP3 DUP3 MUL DUP4 ISZERO DUP1 ISZERO SWAP1 PUSH2 0x2C94 JUMPI POP DUP3 DUP5 DUP3 DUP2 PUSH2 0x2C90 JUMPI PUSH2 0x2C90 PUSH2 0x5096 JUMP JUMPDEST DIV EQ ISZERO JUMPDEST ISZERO PUSH2 0x2CD5 JUMPI PUSH1 0x40 MLOAD PUSH32 0xE8E4A4FA00000000000000000000000000000000000000000000000000000000 DUP2 MSTORE PUSH1 0x4 DUP2 ADD DUP6 SWAP1 MSTORE PUSH1 0x24 DUP2 ADD DUP5 SWAP1 MSTORE PUSH1 0x44 ADD PUSH2 0x871 JUMP JUMPDEST PUSH8 0xDE0B6B3A7640000 SWAP1 DIV SWAP4 SWAP3 POP POP POP JUMP JUMPDEST PUSH2 0x784 DUP3 DUP3 PUSH2 0x3E82 JUMP JUMPDEST PUSH1 0x4 SLOAD PUSH1 0xFF AND ISZERO PUSH2 0x784 JUMPI PUSH1 0x40 MLOAD PUSH32 0xC0F2312800000000000000000000000000000000000000000000000000000000 DUP2 MSTORE PUSH1 0x4 ADD PUSH1 0x40 MLOAD DUP1 SWAP2 SUB SWAP1 REVERT JUMPDEST GAS PUSH1 0x5 SSTORE PUSH1 0x6 SLOAD PUSH1 0x0 SWAP1 ISZERO DUP1 PUSH2 0x2D46 JUMPI POP PUSH1 0x6 SLOAD GASPRICE GT ISZERO JUMPDEST SWAP1 POP DUP1 PUSH2 0x2D8C JUMPI PUSH1 0x6 SLOAD PUSH1 0x40 MLOAD PUSH32 0xCBB35EB700000000000000000000000000000000000000000000000000000000 DUP2 MSTORE GASPRICE PUSH1 0x4 DUP3 ADD MSTORE PUSH1 0x24 DUP2 ADD SWAP2 SWAP1 SWAP2 MSTORE PUSH1 0x44 ADD PUSH2 0x871 JUMP JUMPDEST PUSH1 0x0 PUSH2 0x2D98 BASEFEE GASPRICE PUSH2 0x5054 JUMP JUMPDEST SWAP1 POP PUSH1 0x0 PUSH1 0x7 SLOAD PUSH1 0x0 EQ DUP1 PUSH2 0x2DAF JUMPI POP PUSH1 0x7 SLOAD DUP3 GT ISZERO JUMPDEST SWAP1 POP DUP1 PUSH2 0xAF1 JUMPI PUSH1 0x7 SLOAD PUSH1 0x40 MLOAD PUSH32 0x56E5387F00000000000000000000000000000000000000000000000000000000 DUP2 MSTORE PUSH2 0x871 SWAP2 DUP5 SWAP2 PUSH1 0x4 ADD SWAP2 DUP3 MSTORE PUSH1 0x20 DUP3 ADD MSTORE PUSH1 0x40 ADD SWAP1 JUMP JUMPDEST PUSH1 0xB SLOAD TIMESTAMP LT ISZERO PUSH2 0x2E3F JUMPI PUSH1 0xB SLOAD PUSH1 0x40 MLOAD PUSH32 0x17D7A5D600000000000000000000000000000000000000000000000000000000 DUP2 MSTORE PUSH1 0x4 DUP2 ADD SWAP2 SWAP1 SWAP2 MSTORE TIMESTAMP PUSH1 0x24 DUP3 ADD MSTORE PUSH1 0x44 ADD PUSH2 0x871 JUMP JUMPDEST PUSH1 0xC SLOAD ISZERO PUSH2 0x784 JUMPI PUSH1 0x0 PUSH1 0xB SLOAD TIMESTAMP PUSH2 0x2E57 SWAP2 SWAP1 PUSH2 0x5054 JUMP JUMPDEST SWAP1 POP PUSH1 0x0 PUSH1 0xA SLOAD DUP3 PUSH2 0x2E69 SWAP2 SWAP1 PUSH2 0x50C5 JUMP JUMPDEST SWAP1 POP PUSH1 0x0 PUSH1 0xA SLOAD DUP3 PUSH2 0x2E7B SWAP2 SWAP1 PUSH2 0x5100 JUMP JUMPDEST PUSH2 0x2E85 SWAP1 DUP5 PUSH2 0x5054 JUMP JUMPDEST SWAP1 POP PUSH1 0xC SLOAD DUP2 GT ISZERO PUSH2 0xAF1 JUMPI PUSH1 0xC SLOAD PUSH1 0x40 MLOAD PUSH32 0x5001A87100000000000000000000000000000000000000000000000000000000 DUP2 MSTORE PUSH2 0x871 SWAP2 DUP4 SWAP2 PUSH1 0x4 ADD SWAP2 DUP3 MSTORE PUSH1 0x20 DUP3 ADD MSTORE PUSH1 0x40 ADD SWAP1 JUMP JUMPDEST PUSH1 0x0 PUSH2 0x2EDE PUSH1 0xE DUP5 PUSH2 0x3F17 JUMP JUMPDEST SWAP1 POP PUSH1 0x0 PUSH1 0x1 PUSH1 0xD SLOAD PUSH1 0xFF AND PUSH1 0x1 DUP2 GT ISZERO PUSH2 0x2EFB JUMPI PUSH2 0x2EFB PUSH2 0x4AC9 JUMP JUMPDEST EQ PUSH2 0x2F07 JUMPI DUP2 ISZERO PUSH2 0x2F09 JUMP JUMPDEST DUP2 JUMPDEST SWAP1 POP DUP1 PUSH2 0x946 JUMPI PUSH1 0x40 MLOAD PUSH32 0x7A24104500000000000000000000000000000000000000000000000000000000 DUP2 MSTORE PUSH1 0x1 PUSH1 0x1 PUSH1 0xA0 SHL SUB DUP6 AND PUSH1 0x4 DUP3 ADD MSTORE PUSH1 0x24 ADD PUSH2 0x871 JUMP JUMPDEST PUSH1 0x0 PUSH2 0x2F58 DUP4 PUSH2 0xD20 JUMP JUMPDEST DUP1 MLOAD SWAP1 SWAP2 POP PUSH1 0x1 PUSH1 0x1 PUSH1 0xA0 SHL SUB AND PUSH2 0x2F6F JUMPI POP POP POP JUMP JUMPDEST PUSH1 0x0 DUP4 PUSH1 0x1 PUSH1 0x1 PUSH1 0xA0 SHL SUB AND DUP3 PUSH1 0x0 ADD MLOAD PUSH1 0x1 PUSH1 0x1 PUSH1 0xA0 SHL SUB AND EQ PUSH2 0x2FAB JUMPI PUSH2 0x2FA6 PUSH2 0x2F9F DUP6 DUP5 PUSH1 0x0 ADD MLOAD PUSH2 0x2C65 JUMP JUMPDEST DUP5 SWAP1 PUSH2 0x2C71 JUMP JUMPDEST PUSH2 0x2FAD JUMP JUMPDEST DUP3 JUMPDEST SWAP1 POP PUSH1 0x0 DUP3 PUSH1 0x20 ADD MLOAD DUP3 LT ISZERO DUP1 ISZERO PUSH2 0x2FD5 JUMPI POP PUSH1 0x40 DUP4 ADD MLOAD ISZERO DUP1 PUSH2 0x2FD5 JUMPI POP DUP3 PUSH1 0x40 ADD MLOAD DUP3 GT ISZERO JUMPDEST SWAP1 POP DUP1 PUSH2 0xAF1 JUMPI DUP3 MLOAD PUSH1 0x20 DUP5 ADD MLOAD PUSH1 0x40 DUP1 DUP7 ADD MLOAD SWAP1 MLOAD PUSH32 0x7C63A4B000000000000000000000000000000000000000000000000000000000 DUP2 MSTORE PUSH1 0x1 PUSH1 0x1 PUSH1 0xA0 SHL SUB SWAP1 SWAP4 AND PUSH1 0x4 DUP5 ADD MSTORE PUSH1 0x24 DUP4 ADD DUP6 SWAP1 MSTORE PUSH1 0x44 DUP4 ADD SWAP2 SWAP1 SWAP2 MSTORE PUSH1 0x64 DUP3 ADD MSTORE PUSH1 0x84 ADD PUSH2 0x871 JUMP JUMPDEST PUSH1 0x0 PUSH2 0x3045 DUP4 PUSH2 0x203C JUMP JUMPDEST PUSH1 0x40 DUP1 MLOAD PUSH1 0xA0 DUP2 ADD DUP3 MSTORE DUP3 SLOAD PUSH1 0x1 PUSH1 0x1 PUSH1 0xA0 SHL SUB AND DUP1 DUP3 MSTORE PUSH1 0x1 DUP5 ADD SLOAD PUSH1 0x20 DUP4 ADD MSTORE PUSH1 0x2 DUP5 ADD SLOAD SWAP3 DUP3 ADD SWAP3 SWAP1 SWAP3 MSTORE PUSH1 0x3 DUP4 ADD SLOAD PUSH1 0x60 DUP3 ADD MSTORE PUSH1 0x4 SWAP1 SWAP3 ADD SLOAD PUSH1 0x80 DUP4 ADD MSTORE SWAP1 SWAP2 POP PUSH2 0x3094 JUMPI POP POP POP JUMP JUMPDEST PUSH1 0x0 DUP4 PUSH1 0x1 PUSH1 0x1 PUSH1 0xA0 SHL SUB AND DUP3 PUSH1 0x0 ADD MLOAD PUSH1 0x1 PUSH1 0x1 PUSH1 0xA0 SHL SUB AND EQ PUSH2 0x30C9 JUMPI PUSH2 0x30C4 PUSH2 0x2F9F DUP6 DUP5 PUSH1 0x0 ADD MLOAD PUSH2 0x2C65 JUMP JUMPDEST PUSH2 0x30CB JUMP JUMPDEST DUP3 JUMPDEST SWAP1 POP PUSH1 0x0 DUP3 PUSH1 0x80 ADD MLOAD TIMESTAMP LT PUSH2 0x30E1 JUMPI PUSH1 0x0 PUSH2 0x30E7 JUMP JUMPDEST DUP3 PUSH1 0x40 ADD MLOAD JUMPDEST PUSH2 0x30F1 SWAP1 DUP4 PUSH2 0x5024 JUMP JUMPDEST SWAP1 POP DUP3 PUSH1 0x20 ADD MLOAD DUP2 GT ISZERO PUSH2 0xAF1 JUMPI DUP3 MLOAD PUSH1 0x20 DUP5 ADD MLOAD PUSH1 0x40 MLOAD PUSH32 0xB8858D5D00000000000000000000000000000000000000000000000000000000 DUP2 MSTORE PUSH1 0x1 PUSH1 0x1 PUSH1 0xA0 SHL SUB SWAP1 SWAP3 AND PUSH1 0x4 DUP4 ADD MSTORE PUSH1 0x24 DUP3 ADD MSTORE PUSH1 0x44 DUP2 ADD DUP3 SWAP1 MSTORE PUSH1 0x64 ADD PUSH2 0x871 JUMP JUMPDEST PUSH1 0x0 DUP1 DUP3 MLOAD PUSH1 0x41 SUB PUSH2 0x3186 JUMPI PUSH1 0x20 DUP4 ADD MLOAD PUSH1 0x40 DUP5 ADD MLOAD PUSH1 0x60 DUP6 ADD MLOAD PUSH1 0x0 BYTE PUSH2 0x317A DUP8 DUP3 DUP6 DUP6 PUSH2 0x3F39 JUMP JUMPDEST SWAP5 POP SWAP5 POP POP POP POP PUSH2 0x31B7 JUMP JUMPDEST DUP3 MLOAD PUSH1 0x40 SUB PUSH2 0x31AF JUMPI PUSH1 0x20 DUP4 ADD MLOAD PUSH1 0x40 DUP5 ADD MLOAD PUSH2 0x31A4 DUP7 DUP4 DUP4 PUSH2 0x4026 JUMP JUMPDEST SWAP4 POP SWAP4 POP POP POP PUSH2 0x31B7 JUMP JUMPDEST POP PUSH1 0x0 SWAP1 POP PUSH1 0x2 JUMPDEST SWAP3 POP SWAP3 SWAP1 POP JUMP JUMPDEST PUSH1 0x0 DUP2 PUSH1 0x4 DUP2 GT ISZERO PUSH2 0x31D2 JUMPI PUSH2 0x31D2 PUSH2 0x4AC9 JUMP JUMPDEST SUB PUSH2 0x31DA JUMPI POP JUMP JUMPDEST PUSH1 0x1 DUP2 PUSH1 0x4 DUP2 GT ISZERO PUSH2 0x31EE JUMPI PUSH2 0x31EE PUSH2 0x4AC9 JUMP JUMPDEST SUB PUSH2 0x323B JUMPI PUSH1 0x40 MLOAD PUSH3 0x461BCD PUSH1 0xE5 SHL DUP2 MSTORE PUSH1 0x20 PUSH1 0x4 DUP3 ADD MSTORE PUSH1 0x18 PUSH1 0x24 DUP3 ADD MSTORE PUSH32 0x45434453413A20696E76616C6964207369676E61747572650000000000000000 PUSH1 0x44 DUP3 ADD MSTORE PUSH1 0x64 ADD PUSH2 0x871 JUMP JUMPDEST PUSH1 0x2 DUP2 PUSH1 0x4 DUP2 GT ISZERO PUSH2 0x324F JUMPI PUSH2 0x324F PUSH2 0x4AC9 JUMP JUMPDEST SUB PUSH2 0x329C JUMPI PUSH1 0x40 MLOAD PUSH3 0x461BCD PUSH1 0xE5 SHL DUP2 MSTORE PUSH1 0x20 PUSH1 0x4 DUP3 ADD MSTORE PUSH1 0x1F PUSH1 0x24 DUP3 ADD MSTORE PUSH32 0x45434453413A20696E76616C6964207369676E6174757265206C656E67746800 PUSH1 0x44 DUP3 ADD MSTORE PUSH1 0x64 ADD PUSH2 0x871 JUMP JUMPDEST PUSH1 0x3 DUP2 PUSH1 0x4 DUP2 GT ISZERO PUSH2 0x32B0 JUMPI PUSH2 0x32B0 PUSH2 0x4AC9 JUMP JUMPDEST SUB PUSH2 0x3323 JUMPI PUSH1 0x40 MLOAD PUSH3 0x461BCD PUSH1 0xE5 SHL DUP2 MSTORE PUSH1 0x20 PUSH1 0x4 DUP3 ADD MSTORE PUSH1 0x22 PUSH1 0x24 DUP3 ADD MSTORE PUSH32 0x45434453413A20696E76616C6964207369676E6174757265202773272076616C PUSH1 0x44 DUP3 ADD MSTORE PUSH32 0x7565000000000000000000000000000000000000000000000000000000000000 PUSH1 0x64 DUP3 ADD MSTORE PUSH1 0x84 ADD PUSH2 0x871 JUMP JUMPDEST PUSH1 0x4 DUP2 PUSH1 0x4 DUP2 GT ISZERO PUSH2 0x3337 JUMPI PUSH2 0x3337 PUSH2 0x4AC9 JUMP JUMPDEST SUB PUSH2 0xDE2 JUMPI PUSH1 0x40 MLOAD PUSH3 0x461BCD PUSH1 0xE5 SHL DUP2 MSTORE PUSH1 0x20 PUSH1 0x4 DUP3 ADD MSTORE PUSH1 0x22 PUSH1 0x24 DUP3 ADD MSTORE PUSH32 0x45434453413A20696E76616C6964207369676E6174757265202776272076616C PUSH1 0x44 DUP3 ADD MSTORE PUSH32 0x7565000000000000000000000000000000000000000000000000000000000000 PUSH1 0x64 DUP3 ADD MSTORE PUSH1 0x84 ADD PUSH2 0x871 JUMP JUMPDEST PUSH1 0x0 PUSH2 0x33B5 DUP4 PUSH2 0x203C JUMP JUMPDEST DUP1 SLOAD SWAP1 SWAP2 POP PUSH1 0x1 PUSH1 0x1 PUSH1 0xA0 SHL SUB AND PUSH2 0x33CC JUMPI POP POP POP JUMP JUMPDEST DUP1 SLOAD PUSH1 0x0 SWAP1 PUSH1 0x1 PUSH1 0x1 PUSH1 0xA0 SHL SUB DUP6 DUP2 AND SWAP2 AND EQ PUSH2 0x3402 JUMPI DUP2 SLOAD PUSH2 0x33FD SWAP1 PUSH2 0x2F9F SWAP1 DUP7 SWAP1 PUSH1 0x1 PUSH1 0x1 PUSH1 0xA0 SHL SUB AND PUSH2 0x2C65 JUMP JUMPDEST PUSH2 0x3404 JUMP JUMPDEST DUP3 JUMPDEST SWAP1 POP DUP2 PUSH1 0x4 ADD SLOAD TIMESTAMP LT PUSH2 0x342D JUMPI PUSH1 0x0 PUSH1 0x2 DUP4 ADD SSTORE PUSH1 0x3 DUP3 ADD SLOAD PUSH2 0x3427 SWAP1 TIMESTAMP PUSH2 0x5024 JUMP JUMPDEST PUSH1 0x4 DUP4 ADD SSTORE JUMPDEST DUP1 DUP3 PUSH1 0x2 ADD PUSH1 0x0 DUP3 DUP3 SLOAD PUSH2 0x3441 SWAP2 SWAP1 PUSH2 0x5024 JUMP JUMPDEST SWAP1 SWAP2 SSTORE POP POP POP POP POP POP JUMP JUMPDEST PUSH1 0xA SLOAD ISZERO PUSH2 0x784 JUMPI PUSH1 0x0 PUSH1 0xB SLOAD PUSH1 0x0 SUB PUSH2 0x3474 JUMPI PUSH1 0xA SLOAD PUSH2 0x346D SWAP1 TIMESTAMP PUSH2 0x5024 JUMP JUMPDEST SWAP1 POP PUSH2 0x34C3 JUMP JUMPDEST PUSH1 0x0 PUSH1 0xB SLOAD TIMESTAMP PUSH2 0x3484 SWAP2 SWAP1 PUSH2 0x5054 JUMP JUMPDEST SWAP1 POP PUSH1 0x0 PUSH1 0xA SLOAD DUP3 PUSH2 0x3496 SWAP2 SWAP1 PUSH2 0x50C5 JUMP JUMPDEST PUSH2 0x34A1 SWAP1 PUSH1 0x1 PUSH2 0x5024 JUMP JUMPDEST SWAP1 POP PUSH1 0xA SLOAD DUP2 PUSH2 0x34B1 SWAP2 SWAP1 PUSH2 0x5100 JUMP JUMPDEST PUSH1 0xB SLOAD PUSH2 0x34BE SWAP2 SWAP1 PUSH2 0x5024 JUMP JUMPDEST SWAP3 POP POP POP JUMPDEST PUSH2 0xA0F DUP2 PUSH2 0x2167 JUMP JUMPDEST PUSH1 0x5 SLOAD PUSH1 0x0 SUB PUSH2 0x3508 JUMPI PUSH1 0x40 MLOAD PUSH32 0x1F5B8FC600000000000000000000000000000000000000000000000000000000 DUP2 MSTORE PUSH1 0x4 ADD PUSH1 0x40 MLOAD DUP1 SWAP2 SUB SWAP1 REVERT JUMPDEST PUSH1 0x0 GAS PUSH1 0x5 SLOAD PUSH2 0x3518 SWAP2 SWAP1 PUSH2 0x5054 JUMP JUMPDEST SWAP1 POP PUSH1 0x0 PUSH2 0x3526 GASPRICE DUP4 PUSH2 0x5100 JUMP JUMPDEST SWAP1 POP PUSH1 0x0 PUSH1 0x8 SLOAD GT DUP1 ISZERO PUSH2 0x353B JUMPI POP PUSH1 0x8 SLOAD DUP2 GT JUMPDEST ISZERO PUSH2 0x3580 JUMPI PUSH1 0x8 SLOAD PUSH1 0x40 MLOAD PUSH32 0xAF258EF200000000000000000000000000000000000000000000000000000000 DUP2 MSTORE PUSH2 0x871 SWAP2 DUP4 SWAP2 PUSH1 0x4 ADD SWAP2 DUP3 MSTORE PUSH1 0x20 DUP3 ADD MSTORE PUSH1 0x40 ADD SWAP1 JUMP JUMPDEST PUSH1 0x0 PUSH1 0x5 SSTORE PUSH1 0x9 SLOAD ISZERO DUP1 ISZERO SWAP1 PUSH2 0x3596 JUMPI POP PUSH1 0x0 DUP4 GT JUMPDEST ISZERO PUSH2 0x946 JUMPI PUSH1 0x0 PUSH2 0x3669 ADDRESS PUSH1 0x1 PUSH1 0x1 PUSH1 0xA0 SHL SUB AND PUSH4 0x4FD49EFD PUSH1 0x40 MLOAD DUP2 PUSH4 0xFFFFFFFF AND PUSH1 0xE0 SHL DUP2 MSTORE PUSH1 0x4 ADD PUSH1 0x20 PUSH1 0x40 MLOAD DUP1 DUP4 SUB DUP2 DUP7 GAS STATICCALL ISZERO DUP1 ISZERO PUSH2 0x35DE JUMPI RETURNDATASIZE PUSH1 0x0 DUP1 RETURNDATACOPY RETURNDATASIZE PUSH1 0x0 REVERT JUMPDEST POP POP POP POP PUSH1 0x40 MLOAD RETURNDATASIZE PUSH1 0x1F NOT PUSH1 0x1F DUP3 ADD AND DUP3 ADD DUP1 PUSH1 0x40 MSTORE POP DUP2 ADD SWAP1 PUSH2 0x3602 SWAP2 SWAP1 PUSH2 0x5037 JUMP JUMPDEST PUSH1 0x1 PUSH1 0x1 PUSH1 0xA0 SHL SUB AND PUSH4 0x17FCB39B PUSH1 0x40 MLOAD DUP2 PUSH4 0xFFFFFFFF AND PUSH1 0xE0 SHL DUP2 MSTORE PUSH1 0x4 ADD PUSH1 0x20 PUSH1 0x40 MLOAD DUP1 DUP4 SUB DUP2 DUP7 GAS STATICCALL ISZERO DUP1 ISZERO PUSH2 0x363F JUMPI RETURNDATASIZE PUSH1 0x0 DUP1 RETURNDATACOPY RETURNDATASIZE PUSH1 0x0 REVERT JUMPDEST POP POP POP POP PUSH1 0x40 MLOAD RETURNDATASIZE PUSH1 0x1F NOT PUSH1 0x1F DUP3 ADD AND DUP3 ADD DUP1 PUSH1 0x40 MSTORE POP DUP2 ADD SWAP1 PUSH2 0x3663 SWAP2 SWAP1 PUSH2 0x5037 JUMP JUMPDEST DUP7 PUSH2 0x2C65 JUMP JUMPDEST SWAP1 POP PUSH1 0x0 PUSH2 0x3677 DUP4 DUP4 PUSH2 0x4078 JUMP JUMPDEST SWAP1 POP PUSH1 0x0 PUSH2 0x3685 DUP3 DUP8 PUSH2 0x4121 JUMP JUMPDEST SWAP1 POP PUSH1 0x9 SLOAD DUP2 GT ISZERO PUSH2 0x36D1 JUMPI PUSH1 0x9 SLOAD PUSH1 0x40 MLOAD PUSH32 0x297747F00000000000000000000000000000000000000000000000000000000 DUP2 MSTORE PUSH2 0x871 SWAP2 DUP4 SWAP2 PUSH1 0x4 ADD SWAP2 DUP3 MSTORE PUSH1 0x20 DUP3 ADD MSTORE PUSH1 0x40 ADD SWAP1 JUMP JUMPDEST POP POP POP POP POP POP POP JUMP JUMPDEST PUSH1 0x40 MLOAD PUSH32 0x68F46C45A243A0E9065A97649FAF9A5AFE1692F2679E650C2F853B9CD734CC0E SWAP1 PUSH1 0x0 SWAP1 LOG1 POP POP JUMP JUMPDEST PUSH1 0x0 SLOAD PUSH2 0x100 SWAP1 DIV PUSH1 0xFF AND PUSH2 0x3772 JUMPI PUSH1 0x40 MLOAD PUSH3 0x461BCD PUSH1 0xE5 SHL DUP2 MSTORE PUSH1 0x20 PUSH1 0x4 DUP3 ADD MSTORE PUSH1 0x2B PUSH1 0x24 DUP3 ADD MSTORE PUSH32 0x496E697469616C697A61626C653A20636F6E7472616374206973206E6F742069 PUSH1 0x44 DUP3 ADD MSTORE PUSH11 0x6E697469616C697A696E67 PUSH1 0xA8 SHL PUSH1 0x64 DUP3 ADD MSTORE PUSH1 0x84 ADD PUSH2 0x871 JUMP JUMPDEST PUSH2 0xDE2 DUP2 PUSH2 0x41EA JUMP JUMPDEST PUSH1 0x0 SLOAD PUSH2 0x100 SWAP1 DIV PUSH1 0xFF AND PUSH2 0x37E6 JUMPI PUSH1 0x40 MLOAD PUSH3 0x461BCD PUSH1 0xE5 SHL DUP2 MSTORE PUSH1 0x20 PUSH1 0x4 DUP3 ADD MSTORE PUSH1 0x2B PUSH1 0x24 DUP3 ADD MSTORE PUSH32 0x496E697469616C697A61626C653A20636F6E7472616374206973206E6F742069 PUSH1 0x44 DUP3 ADD MSTORE PUSH11 0x6E697469616C697A696E67 PUSH1 0xA8 SHL PUSH1 0x64 DUP3 ADD MSTORE PUSH1 0x84 ADD PUSH2 0x871 JUMP JUMPDEST DUP1 MLOAD PUSH1 0x1 DUP1 SLOAD PUSH32 0xFFFFFFFFFFFFFFFFFFFFFFFF0000000000000000000000000000000000000000 AND PUSH1 0x1 PUSH1 0x1 PUSH1 0xA0 SHL SUB SWAP1 SWAP3 AND SWAP2 SWAP1 SWAP2 OR SWAP1 SSTORE PUSH1 0x20 DUP2 ADD MLOAD PUSH1 0x40 DUP3 ADD MLOAD PUSH2 0xDE2 SWAP2 SWAP1 PUSH2 0x1E34 JUMP JUMPDEST PUSH1 0x0 SLOAD PUSH2 0x100 SWAP1 DIV PUSH1 0xFF AND PUSH2 0x2872 JUMPI PUSH1 0x40 MLOAD PUSH3 0x461BCD PUSH1 0xE5 SHL DUP2 MSTORE PUSH1 0x20 PUSH1 0x4 DUP3 ADD MSTORE PUSH1 0x2B PUSH1 0x24 DUP3 ADD MSTORE PUSH32 0x496E697469616C697A61626C653A20636F6E7472616374206973206E6F742069 PUSH1 0x44 DUP3 ADD MSTORE PUSH11 0x6E697469616C697A696E67 PUSH1 0xA8 SHL PUSH1 0x64 DUP3 ADD MSTORE PUSH1 0x84 ADD PUSH2 0x871 JUMP JUMPDEST PUSH1 0x0 SLOAD PUSH2 0x100 SWAP1 DIV PUSH1 0xFF AND PUSH2 0x3909 JUMPI PUSH1 0x40 MLOAD PUSH3 0x461BCD PUSH1 0xE5 SHL DUP2 MSTORE PUSH1 0x20 PUSH1 0x4 DUP3 ADD MSTORE PUSH1 0x2B PUSH1 0x24 DUP3 ADD MSTORE PUSH32 0x496E697469616C697A61626C653A20636F6E7472616374206973206E6F742069 PUSH1 0x44 DUP3 ADD MSTORE PUSH11 0x6E697469616C697A696E67 PUSH1 0xA8 SHL PUSH1 0x64 DUP3 ADD MSTORE PUSH1 0x84 ADD PUSH2 0x871 JUMP JUMPDEST DUP1 MLOAD PUSH2 0x3914 SWAP1 PUSH2 0x14D6 JUMP JUMPDEST PUSH2 0x3921 DUP2 PUSH1 0x20 ADD MLOAD PUSH2 0x1836 JUMP JUMPDEST PUSH2 0x392E DUP2 PUSH1 0x40 ADD MLOAD PUSH2 0x149A JUMP JUMPDEST PUSH2 0xDE2 DUP2 PUSH1 0x60 ADD MLOAD PUSH2 0x2071 JUMP JUMPDEST PUSH1 0x0 SLOAD PUSH2 0x100 SWAP1 DIV PUSH1 0xFF AND PUSH2 0x39A6 JUMPI PUSH1 0x40 MLOAD PUSH3 0x461BCD PUSH1 0xE5 SHL DUP2 MSTORE PUSH1 0x20 PUSH1 0x4 DUP3 ADD MSTORE PUSH1 0x2B PUSH1 0x24 DUP3 ADD MSTORE PUSH32 0x496E697469616C697A61626C653A20636F6E7472616374206973206E6F742069 PUSH1 0x44 DUP3 ADD MSTORE PUSH11 0x6E697469616C697A696E67 PUSH1 0xA8 SHL PUSH1 0x64 DUP3 ADD MSTORE PUSH1 0x84 ADD PUSH2 0x871 JUMP JUMPDEST DUP1 MLOAD PUSH2 0x39B1 SWAP1 PUSH2 0x1F61 JUMP JUMPDEST PUSH2 0x39BE DUP2 PUSH1 0x20 ADD MLOAD PUSH2 0x2167 JUMP JUMPDEST PUSH2 0xDE2 DUP2 PUSH1 0x40 ADD MLOAD PUSH2 0x20E8 JUMP JUMPDEST PUSH1 0x0 SLOAD PUSH2 0x100 SWAP1 DIV PUSH1 0xFF AND PUSH2 0x3A36 JUMPI PUSH1 0x40 MLOAD PUSH3 0x461BCD PUSH1 0xE5 SHL DUP2 MSTORE PUSH1 0x20 PUSH1 0x4 DUP3 ADD MSTORE PUSH1 0x2B PUSH1 0x24 DUP3 ADD MSTORE PUSH32 0x496E697469616C697A61626C653A20636F6E7472616374206973206E6F742069 PUSH1 0x44 DUP3 ADD MSTORE PUSH11 0x6E697469616C697A696E67 PUSH1 0xA8 SHL PUSH1 0x64 DUP3 ADD MSTORE PUSH1 0x84 ADD PUSH2 0x871 JUMP JUMPDEST DUP1 MLOAD PUSH2 0x3A41 SWAP1 PUSH2 0x17C6 JUMP JUMPDEST PUSH1 0x0 JUMPDEST DUP2 PUSH1 0x20 ADD MLOAD MLOAD DUP2 LT ISZERO PUSH2 0x784 JUMPI PUSH2 0x3A79 DUP3 PUSH1 0x20 ADD MLOAD DUP3 DUP2 MLOAD DUP2 LT PUSH2 0x3A6A JUMPI PUSH2 0x3A6A PUSH2 0x4CE0 JUMP JUMPDEST PUSH1 0x20 MUL PUSH1 0x20 ADD ADD MLOAD PUSH1 0x1 PUSH2 0x15A6 JUMP JUMPDEST DUP1 PUSH2 0x3A83 DUP2 PUSH2 0x4D3E JUMP JUMPDEST SWAP2 POP POP PUSH2 0x3A44 JUMP JUMPDEST PUSH1 0x0 SLOAD PUSH2 0x100 SWAP1 DIV PUSH1 0xFF AND PUSH2 0x3AF6 JUMPI PUSH1 0x40 MLOAD PUSH3 0x461BCD PUSH1 0xE5 SHL DUP2 MSTORE PUSH1 0x20 PUSH1 0x4 DUP3 ADD MSTORE PUSH1 0x2B PUSH1 0x24 DUP3 ADD MSTORE PUSH32 0x496E697469616C697A61626C653A20636F6E7472616374206973206E6F742069 PUSH1 0x44 DUP3 ADD MSTORE PUSH11 0x6E697469616C697A696E67 PUSH1 0xA8 SHL PUSH1 0x64 DUP3 ADD MSTORE PUSH1 0x84 ADD PUSH2 0x871 JUMP JUMPDEST DUP1 MLOAD DUP1 MLOAD PUSH1 0x20 DUP3 ADD MLOAD PUSH1 0x40 DUP4 ADD MLOAD PUSH2 0x3B0F SWAP3 SWAP2 SWAP1 PUSH2 0x1FE0 JUMP JUMPDEST PUSH1 0x0 JUMPDEST DUP3 PUSH1 0x20 ADD MLOAD MLOAD DUP2 LT ISZERO PUSH2 0xA0F JUMPI PUSH1 0x0 DUP4 PUSH1 0x20 ADD MLOAD DUP3 DUP2 MLOAD DUP2 LT PUSH2 0x3B37 JUMPI PUSH2 0x3B37 PUSH2 0x4CE0 JUMP JUMPDEST PUSH1 0x20 MUL PUSH1 0x20 ADD ADD MLOAD SWAP1 POP PUSH1 0x0 DUP2 PUSH1 0x20 ADD MLOAD SWAP1 POP PUSH2 0x3B66 DUP3 PUSH1 0x0 ADD MLOAD DUP3 PUSH1 0x0 ADD MLOAD DUP4 PUSH1 0x20 ADD MLOAD DUP5 PUSH1 0x40 ADD MLOAD PUSH2 0x170D JUMP JUMPDEST POP POP DUP1 DUP1 PUSH2 0x3B73 SWAP1 PUSH2 0x4D3E JUMP JUMPDEST SWAP2 POP POP PUSH2 0x3B12 JUMP JUMPDEST PUSH1 0x0 SLOAD PUSH2 0x100 SWAP1 DIV PUSH1 0xFF AND PUSH2 0x3BE6 JUMPI PUSH1 0x40 MLOAD PUSH3 0x461BCD PUSH1 0xE5 SHL DUP2 MSTORE PUSH1 0x20 PUSH1 0x4 DUP3 ADD MSTORE PUSH1 0x2B PUSH1 0x24 DUP3 ADD MSTORE PUSH32 0x496E697469616C697A61626C653A20636F6E7472616374206973206E6F742069 PUSH1 0x44 DUP3 ADD MSTORE PUSH11 0x6E697469616C697A696E67 PUSH1 0xA8 SHL PUSH1 0x64 DUP3 ADD MSTORE PUSH1 0x84 ADD PUSH2 0x871 JUMP JUMPDEST DUP1 MLOAD DUP1 MLOAD PUSH1 0x20 DUP3 ADD MLOAD PUSH1 0x40 DUP4 ADD MLOAD PUSH2 0x3BFF SWAP3 SWAP2 SWAP1 PUSH2 0x1F0B JUMP JUMPDEST PUSH1 0x0 JUMPDEST DUP3 PUSH1 0x20 ADD MLOAD MLOAD DUP2 LT ISZERO PUSH2 0xA0F JUMPI PUSH1 0x0 DUP4 PUSH1 0x20 ADD MLOAD DUP3 DUP2 MLOAD DUP2 LT PUSH2 0x3C27 JUMPI PUSH2 0x3C27 PUSH2 0x4CE0 JUMP JUMPDEST PUSH1 0x20 MUL PUSH1 0x20 ADD ADD MLOAD SWAP1 POP PUSH1 0x0 DUP2 PUSH1 0x20 ADD MLOAD SWAP1 POP PUSH2 0x3C56 DUP3 PUSH1 0x0 ADD MLOAD DUP3 PUSH1 0x0 ADD MLOAD DUP4 PUSH1 0x20 ADD MLOAD DUP5 PUSH1 0x40 ADD MLOAD PUSH2 0x186B JUMP JUMPDEST POP POP DUP1 DUP1 PUSH2 0x3C63 SWAP1 PUSH2 0x4D3E JUMP JUMPDEST SWAP2 POP POP PUSH2 0x3C02 JUMP JUMPDEST PUSH1 0x0 DUP1 PUSH1 0x1 PUSH1 0x0 SWAP1 SLOAD SWAP1 PUSH2 0x100 EXP SWAP1 DIV PUSH1 0x1 PUSH1 0x1 PUSH1 0xA0 SHL SUB AND PUSH1 0x1 PUSH1 0x1 PUSH1 0xA0 SHL SUB AND PUSH4 0x2630C12F PUSH1 0x40 MLOAD DUP2 PUSH4 0xFFFFFFFF AND PUSH1 0xE0 SHL DUP2 MSTORE PUSH1 0x4 ADD PUSH1 0x20 PUSH1 0x40 MLOAD DUP1 DUP4 SUB DUP2 DUP7 GAS STATICCALL ISZERO DUP1 ISZERO PUSH2 0x3CC1 JUMPI RETURNDATASIZE PUSH1 0x0 DUP1 RETURNDATACOPY RETURNDATASIZE PUSH1 0x0 REVERT JUMPDEST POP POP POP POP PUSH1 0x40 MLOAD RETURNDATASIZE PUSH1 0x1F NOT PUSH1 0x1F DUP3 ADD AND DUP3 ADD DUP1 PUSH1 0x40 MSTORE POP DUP2 ADD SWAP1 PUSH2 0x3CE5 SWAP2 SWAP1 PUSH2 0x5037 JUMP JUMPDEST SWAP1 POP PUSH1 0x1 PUSH1 0x1 PUSH1 0xA0 SHL SUB DUP2 AND PUSH2 0x3D36 JUMPI PUSH1 0x1 SLOAD PUSH1 0x40 MLOAD PUSH32 0x38D2BAAE00000000000000000000000000000000000000000000000000000000 DUP2 MSTORE PUSH1 0x1 PUSH1 0x1 PUSH1 0xA0 SHL SUB SWAP1 SWAP2 AND PUSH1 0x4 DUP3 ADD MSTORE PUSH1 0x24 ADD PUSH2 0x871 JUMP JUMPDEST PUSH1 0x0 PUSH2 0x3D40 PUSH2 0x4295 JUMP JUMPDEST SWAP1 POP DUP1 MLOAD PUSH1 0x0 EQ PUSH2 0x3DD1 JUMPI DUP2 PUSH1 0x1 PUSH1 0x1 PUSH1 0xA0 SHL SUB AND PUSH4 0x355EFDD9 PUSH2 0x3D63 DUP8 PUSH2 0x4315 JUMP JUMPDEST PUSH2 0x3D6C DUP8 PUSH2 0x4315 JUMP JUMPDEST DUP5 PUSH1 0x40 MLOAD DUP5 PUSH4 0xFFFFFFFF AND PUSH1 0xE0 SHL DUP2 MSTORE PUSH1 0x4 ADD PUSH2 0x3D8B SWAP4 SWAP3 SWAP2 SWAP1 PUSH2 0x5117 JUMP JUMPDEST PUSH1 0x20 PUSH1 0x40 MLOAD DUP1 DUP4 SUB DUP2 DUP7 GAS STATICCALL ISZERO DUP1 ISZERO PUSH2 0x3DA8 JUMPI RETURNDATASIZE PUSH1 0x0 DUP1 RETURNDATACOPY RETURNDATASIZE PUSH1 0x0 REVERT JUMPDEST POP POP POP POP PUSH1 0x40 MLOAD RETURNDATASIZE PUSH1 0x1F NOT PUSH1 0x1F DUP3 ADD AND DUP3 ADD DUP1 PUSH1 0x40 MSTORE POP DUP2 ADD SWAP1 PUSH2 0x3DCC SWAP2 SWAP1 PUSH2 0x4DC9 JUMP JUMPDEST PUSH2 0x3E79 JUMP JUMPDEST DUP2 PUSH1 0x1 PUSH1 0x1 PUSH1 0xA0 SHL SUB AND PUSH4 0xAC41865A PUSH2 0x3DE9 DUP8 PUSH2 0x4315 JUMP JUMPDEST PUSH2 0x3DF2 DUP8 PUSH2 0x4315 JUMP JUMPDEST PUSH1 0x40 MLOAD PUSH32 0xFFFFFFFF00000000000000000000000000000000000000000000000000000000 PUSH1 0xE0 DUP6 SWAP1 SHL AND DUP2 MSTORE PUSH1 0x1 PUSH1 0x1 PUSH1 0xA0 SHL SUB SWAP3 DUP4 AND PUSH1 0x4 DUP3 ADD MSTORE SWAP2 AND PUSH1 0x24 DUP3 ADD MSTORE PUSH1 0x44 ADD PUSH1 0x20 PUSH1 0x40 MLOAD DUP1 DUP4 SUB DUP2 DUP7 GAS STATICCALL ISZERO DUP1 ISZERO PUSH2 0x3E55 JUMPI RETURNDATASIZE PUSH1 0x0 DUP1 RETURNDATACOPY RETURNDATASIZE PUSH1 0x0 REVERT JUMPDEST POP POP POP POP PUSH1 0x40 MLOAD RETURNDATASIZE PUSH1 0x1F NOT PUSH1 0x1F DUP3 ADD AND DUP3 ADD DUP1 PUSH1 0x40 MSTORE POP DUP2 ADD SWAP1 PUSH2 0x3E79 SWAP2 SWAP1 PUSH2 0x4DC9 JUMP JUMPDEST SWAP6 SWAP5 POP POP POP POP POP JUMP JUMPDEST PUSH1 0x2 SLOAD ISZERO PUSH2 0x784 JUMPI PUSH1 0x1 SLOAD PUSH1 0x2 SLOAD PUSH1 0x40 MLOAD PUSH32 0xEB056BBB00000000000000000000000000000000000000000000000000000000 DUP2 MSTORE PUSH1 0x4 DUP2 ADD SWAP2 SWAP1 SWAP2 MSTORE PUSH1 0x1 PUSH1 0x1 PUSH1 0xA0 SHL SUB DUP5 DUP2 AND PUSH1 0x24 DUP4 ADD MSTORE PUSH1 0x44 DUP3 ADD DUP5 SWAP1 MSTORE PUSH1 0x0 PUSH1 0x64 DUP4 ADD MSTORE SWAP1 SWAP2 AND SWAP1 PUSH4 0xEB056BBB SWAP1 PUSH1 0x84 ADD PUSH1 0x0 PUSH1 0x40 MLOAD DUP1 DUP4 SUB DUP2 PUSH1 0x0 DUP8 DUP1 EXTCODESIZE ISZERO DUP1 ISZERO PUSH2 0x3F03 JUMPI PUSH1 0x0 DUP1 REVERT JUMPDEST POP GAS CALL ISZERO DUP1 ISZERO PUSH2 0x1C6D JUMPI RETURNDATASIZE PUSH1 0x0 DUP1 RETURNDATACOPY RETURNDATASIZE PUSH1 0x0 REVERT JUMPDEST PUSH1 0x1 PUSH1 0x1 PUSH1 0xA0 SHL SUB DUP2 AND PUSH1 0x0 SWAP1 DUP2 MSTORE PUSH1 0x1 DUP4 ADD PUSH1 0x20 MSTORE PUSH1 0x40 DUP2 KECCAK256 SLOAD ISZERO ISZERO PUSH2 0x206A JUMP JUMPDEST PUSH1 0x0 DUP1 PUSH32 0x7FFFFFFFFFFFFFFFFFFFFFFFFFFFFFFF5D576E7357A4501DDFE92F46681B20A0 DUP4 GT ISZERO PUSH2 0x3F70 JUMPI POP PUSH1 0x0 SWAP1 POP PUSH1 0x3 PUSH2 0x401D JUMP JUMPDEST DUP5 PUSH1 0xFF AND PUSH1 0x1B EQ ISZERO DUP1 ISZERO PUSH2 0x3F88 JUMPI POP DUP5 PUSH1 0xFF AND PUSH1 0x1C EQ ISZERO JUMPDEST ISZERO PUSH2 0x3F99 JUMPI POP PUSH1 0x0 SWAP1 POP PUSH1 0x4 PUSH2 0x401D JUMP JUMPDEST PUSH1 0x40 DUP1 MLOAD PUSH1 0x0 DUP1 DUP3 MSTORE PUSH1 0x20 DUP3 ADD DUP1 DUP5 MSTORE DUP10 SWAP1 MSTORE PUSH1 0xFF DUP9 AND SWAP3 DUP3 ADD SWAP3 SWAP1 SWAP3 MSTORE PUSH1 0x60 DUP2 ADD DUP7 SWAP1 MSTORE PUSH1 0x80 DUP2 ADD DUP6 SWAP1 MSTORE PUSH1 0x1 SWAP1 PUSH1 0xA0 ADD PUSH1 0x20 PUSH1 0x40 MLOAD PUSH1 0x20 DUP2 SUB SWAP1 DUP1 DUP5 SUB SWAP1 DUP6 GAS STATICCALL ISZERO DUP1 ISZERO PUSH2 0x3FED JUMPI RETURNDATASIZE PUSH1 0x0 DUP1 RETURNDATACOPY RETURNDATASIZE PUSH1 0x0 REVERT JUMPDEST POP POP PUSH1 0x40 MLOAD PUSH1 0x1F NOT ADD MLOAD SWAP2 POP POP PUSH1 0x1 PUSH1 0x1 PUSH1 0xA0 SHL SUB DUP2 AND PUSH2 0x4016 JUMPI PUSH1 0x0 PUSH1 0x1 SWAP3 POP SWAP3 POP POP PUSH2 0x401D JUMP JUMPDEST SWAP2 POP PUSH1 0x0 SWAP1 POP JUMPDEST SWAP5 POP SWAP5 SWAP3 POP POP POP JUMP JUMPDEST PUSH1 0x0 DUP1 PUSH32 0x7FFFFFFFFFFFFFFFFFFFFFFFFFFFFFFFFFFFFFFFFFFFFFFFFFFFFFFFFFFFFFFF DUP4 AND DUP2 PUSH2 0x405C PUSH1 0xFF DUP7 SWAP1 SHR PUSH1 0x1B PUSH2 0x5024 JUMP JUMPDEST SWAP1 POP PUSH2 0x406A DUP8 DUP3 DUP9 DUP6 PUSH2 0x3F39 JUMP JUMPDEST SWAP4 POP SWAP4 POP POP POP SWAP4 POP SWAP4 SWAP2 POP POP JUMP JUMPDEST PUSH1 0x0 DUP3 DUP3 MUL DUP4 ISZERO DUP1 ISZERO SWAP1 PUSH2 0x409B JUMPI POP DUP3 DUP5 DUP3 DUP2 PUSH2 0x4097 JUMPI PUSH2 0x4097 PUSH2 0x5096 JUMP JUMPDEST DIV EQ ISZERO JUMPDEST ISZERO PUSH2 0x40DC JUMPI PUSH1 0x40 MLOAD PUSH32 0xE8E4A4FA00000000000000000000000000000000000000000000000000000000 DUP2 MSTORE PUSH1 0x4 DUP2 ADD DUP6 SWAP1 MSTORE PUSH1 0x24 DUP2 ADD DUP5 SWAP1 MSTORE PUSH1 0x44 ADD PUSH2 0x871 JUMP JUMPDEST DUP1 ISZERO PUSH2 0x4117 JUMPI PUSH8 0xDE0B6B3A7640000 PUSH32 0xFFFFFFFFFFFFFFFFFFFFFFFFFFFFFFFFFFFFFFFFFFFFFFFFFFFFFFFFFFFFFFFF DUP3 ADD DIV PUSH1 0x1 ADD PUSH2 0x2232 JUMP JUMPDEST PUSH1 0x0 SWAP5 SWAP4 POP POP POP POP JUMP JUMPDEST PUSH1 0x0 DUP2 PUSH1 0x0 SUB PUSH2 0x415D JUMPI PUSH1 0x40 MLOAD PUSH32 0xB8A2F92100000000000000000000000000000000000000000000000000000000 DUP2 MSTORE PUSH1 0x4 ADD PUSH1 0x40 MLOAD DUP1 SWAP2 SUB SWAP1 REVERT JUMPDEST DUP3 PUSH1 0x0 SUB PUSH2 0x416D JUMPI POP PUSH1 0x0 PUSH2 0x1165 JUMP JUMPDEST PUSH8 0xDE0B6B3A7640000 DUP4 DUP2 MUL SWAP1 DUP5 DUP3 DUP2 PUSH2 0x4189 JUMPI PUSH2 0x4189 PUSH2 0x5096 JUMP JUMPDEST DIV EQ PUSH2 0x41CB JUMPI PUSH1 0x40 MLOAD PUSH32 0xEA7B49E600000000000000000000000000000000000000000000000000000000 DUP2 MSTORE PUSH1 0x4 DUP2 ADD DUP6 SWAP1 MSTORE PUSH1 0x24 DUP2 ADD DUP3 SWAP1 MSTORE PUSH1 0x44 ADD PUSH2 0x871 JUMP JUMPDEST DUP3 PUSH1 0x1 DUP3 SUB DUP2 PUSH2 0x41DD JUMPI PUSH2 0x41DD PUSH2 0x5096 JUMP JUMPDEST DIV PUSH1 0x1 ADD SWAP2 POP POP SWAP3 SWAP2 POP POP JUMP JUMPDEST PUSH1 0x0 SLOAD PUSH2 0x100 SWAP1 DIV PUSH1 0xFF AND PUSH2 0x4255 JUMPI PUSH1 0x40 MLOAD PUSH3 0x461BCD PUSH1 0xE5 SHL DUP2 MSTORE PUSH1 0x20 PUSH1 0x4 DUP3 ADD MSTORE PUSH1 0x2B PUSH1 0x24 DUP3 ADD MSTORE PUSH32 0x496E697469616C697A61626C653A20636F6E7472616374206973206E6F742069 PUSH1 0x44 DUP3 ADD MSTORE PUSH11 0x6E697469616C697A696E67 PUSH1 0xA8 SHL PUSH1 0x64 DUP3 ADD MSTORE PUSH1 0x84 ADD PUSH2 0x871 JUMP JUMPDEST PUSH1 0x0 DUP1 SLOAD PUSH1 0x1 PUSH1 0x1 PUSH1 0xA0 SHL SUB SWAP1 SWAP3 AND PUSH3 0x10000 MUL PUSH32 0xFFFFFFFFFFFFFFFFFFFF0000000000000000000000000000000000000000FFFF SWAP1 SWAP3 AND SWAP2 SWAP1 SWAP2 OR SWAP1 SSTORE JUMP JUMPDEST PUSH1 0x60 PUSH1 0x0 PUSH2 0x42A1 PUSH2 0x4349 JUMP JUMPDEST SWAP1 POP CALLDATASIZE DUP2 GT ISZERO PUSH2 0x42BF JUMPI POP POP PUSH1 0x40 DUP1 MLOAD PUSH1 0x0 DUP2 MSTORE PUSH1 0x20 DUP2 ADD SWAP1 SWAP2 MSTORE SWAP1 JUMP JUMPDEST DUP1 PUSH8 0xFFFFFFFFFFFFFFFF DUP2 GT ISZERO PUSH2 0x42D8 JUMPI PUSH2 0x42D8 PUSH2 0x4409 JUMP JUMPDEST PUSH1 0x40 MLOAD SWAP1 DUP1 DUP3 MSTORE DUP1 PUSH1 0x1F ADD PUSH1 0x1F NOT AND PUSH1 0x20 ADD DUP3 ADD PUSH1 0x40 MSTORE DUP1 ISZERO PUSH2 0x4302 JUMPI PUSH1 0x20 DUP3 ADD DUP2 DUP1 CALLDATASIZE DUP4 CALLDATACOPY ADD SWAP1 POP JUMPDEST POP SWAP2 POP DUP1 PUSH1 0x20 DUP3 CALLDATASIZE SUB SUB PUSH1 0x20 DUP5 ADD CALLDATACOPY POP SWAP1 JUMP JUMPDEST PUSH1 0x0 PUSH20 0xEEEEEEEEEEEEEEEEEEEEEEEEEEEEEEEEEEEEEEEE PUSH1 0x1 PUSH1 0x1 PUSH1 0xA0 SHL SUB DUP4 AND EQ PUSH2 0x4341 JUMPI DUP2 PUSH2 0x1165 JUMP JUMPDEST PUSH2 0x1165 PUSH2 0x4364 JUMP JUMPDEST PUSH1 0x0 PUSH1 0x24 CALLDATASIZE LT ISZERO PUSH2 0x435A JUMPI POP PUSH1 0x0 SWAP1 JUMP JUMPDEST POP PUSH1 0x1F NOT CALLDATASIZE ADD CALLDATALOAD SWAP1 JUMP JUMPDEST PUSH1 0x1 SLOAD PUSH1 0x40 DUP1 MLOAD PUSH32 0x17FCB39B00000000000000000000000000000000000000000000000000000000 DUP2 MSTORE SWAP1 MLOAD PUSH1 0x0 SWAP3 PUSH1 0x1 PUSH1 0x1 PUSH1 0xA0 SHL SUB AND SWAP2 PUSH4 0x17FCB39B SWAP2 PUSH1 0x4 DUP1 DUP4 ADD SWAP3 PUSH1 0x20 SWAP3 SWAP2 SWAP1 DUP3 SWAP1 SUB ADD DUP2 DUP7 GAS STATICCALL ISZERO DUP1 ISZERO PUSH2 0x43C7 JUMPI RETURNDATASIZE PUSH1 0x0 DUP1 RETURNDATACOPY RETURNDATASIZE PUSH1 0x0 REVERT JUMPDEST POP POP POP POP PUSH1 0x40 MLOAD RETURNDATASIZE PUSH1 0x1F NOT PUSH1 0x1F DUP3 ADD AND DUP3 ADD DUP1 PUSH1 0x40 MSTORE POP DUP2 ADD SWAP1 PUSH2 0x43EB SWAP2 SWAP1 PUSH2 0x5037 JUMP JUMPDEST SWAP1 POP SWAP1 JUMP JUMPDEST PUSH1 0x0 PUSH1 0x20 DUP3 DUP5 SUB SLT ISZERO PUSH2 0x4402 JUMPI PUSH1 0x0 DUP1 REVERT JUMPDEST POP CALLDATALOAD SWAP2 SWAP1 POP JUMP JUMPDEST PUSH32 0x4E487B7100000000000000000000000000000000000000000000000000000000 PUSH1 0x0 MSTORE PUSH1 0x41 PUSH1 0x4 MSTORE PUSH1 0x24 PUSH1 0x0 REVERT JUMPDEST PUSH1 0x40 MLOAD PUSH1 0x60 DUP2 ADD PUSH8 0xFFFFFFFFFFFFFFFF DUP2 GT DUP3 DUP3 LT OR ISZERO PUSH2 0x445B JUMPI PUSH2 0x445B PUSH2 0x4409 JUMP JUMPDEST PUSH1 0x40 MSTORE SWAP1 JUMP JUMPDEST PUSH1 0x40 DUP1 MLOAD SWAP1 DUP2 ADD PUSH8 0xFFFFFFFFFFFFFFFF DUP2 GT DUP3 DUP3 LT OR ISZERO PUSH2 0x445B JUMPI PUSH2 0x445B PUSH2 0x4409 JUMP JUMPDEST PUSH1 0x40 MLOAD PUSH1 0xC0 DUP2 ADD PUSH8 0xFFFFFFFFFFFFFFFF DUP2 GT DUP3 DUP3 LT OR ISZERO PUSH2 0x445B JUMPI PUSH2 0x445B PUSH2 0x4409 JUMP JUMPDEST PUSH1 0x40 MLOAD PUSH1 0x1F DUP3 ADD PUSH1 0x1F NOT AND DUP2 ADD PUSH8 0xFFFFFFFFFFFFFFFF DUP2 GT DUP3 DUP3 LT OR ISZERO PUSH2 0x44D0 JUMPI PUSH2 0x44D0 PUSH2 0x4409 JUMP JUMPDEST PUSH1 0x40 MSTORE SWAP2 SWAP1 POP JUMP JUMPDEST PUSH1 0x1 PUSH1 0x1 PUSH1 0xA0 SHL SUB DUP2 AND DUP2 EQ PUSH2 0xDE2 JUMPI PUSH1 0x0 DUP1 REVERT JUMPDEST DUP1 CALLDATALOAD PUSH2 0x44F8 DUP2 PUSH2 0x44D8 JUMP JUMPDEST SWAP2 SWAP1 POP JUMP JUMPDEST PUSH1 0x0 PUSH1 0x60 DUP3 DUP5 SUB SLT ISZERO PUSH2 0x450F JUMPI PUSH1 0x0 DUP1 REVERT JUMPDEST PUSH2 0x4517 PUSH2 0x4438 JUMP JUMPDEST SWAP1 POP DUP2 CALLDATALOAD PUSH2 0x4524 DUP2 PUSH2 0x44D8 JUMP JUMPDEST DUP1 DUP3 MSTORE POP PUSH1 0x20 DUP3 ADD CALLDATALOAD PUSH1 0x20 DUP3 ADD MSTORE PUSH1 0x40 DUP3 ADD CALLDATALOAD PUSH1 0x40 DUP3 ADD MSTORE SWAP3 SWAP2 POP POP JUMP JUMPDEST PUSH1 0x0 PUSH1 0x80 DUP3 DUP5 SUB SLT ISZERO PUSH2 0x4554 JUMPI PUSH1 0x0 DUP1 REVERT JUMPDEST PUSH1 0x40 MLOAD PUSH1 0x80 DUP2 ADD DUP2 DUP2 LT PUSH8 0xFFFFFFFFFFFFFFFF DUP3 GT OR ISZERO PUSH2 0x4577 JUMPI PUSH2 0x4577 PUSH2 0x4409 JUMP JUMPDEST DUP1 PUSH1 0x40 MSTORE POP DUP1 SWAP2 POP DUP3 CALLDATALOAD DUP2 MSTORE PUSH1 0x20 DUP4 ADD CALLDATALOAD PUSH1 0x20 DUP3 ADD MSTORE PUSH1 0x40 DUP4 ADD CALLDATALOAD PUSH1 0x40 DUP3 ADD MSTORE PUSH1 0x60 DUP4 ADD CALLDATALOAD PUSH1 0x60 DUP3 ADD MSTORE POP SWAP3 SWAP2 POP POP JUMP JUMPDEST PUSH1 0x0 PUSH1 0x60 DUP3 DUP5 SUB SLT ISZERO PUSH2 0x45BA JUMPI PUSH1 0x0 DUP1 REVERT JUMPDEST PUSH2 0x45C2 PUSH2 0x4438 JUMP JUMPDEST SWAP1 POP DUP2 CALLDATALOAD DUP2 MSTORE PUSH1 0x20 DUP3 ADD CALLDATALOAD PUSH1 0x20 DUP3 ADD MSTORE PUSH1 0x40 DUP3 ADD CALLDATALOAD PUSH1 0x40 DUP3 ADD MSTORE SWAP3 SWAP2 POP POP JUMP JUMPDEST DUP1 CALLDATALOAD PUSH1 0x2 DUP2 LT PUSH2 0x44F8 JUMPI PUSH1 0x0 DUP1 REVERT JUMPDEST PUSH1 0x0 PUSH8 0xFFFFFFFFFFFFFFFF DUP3 GT ISZERO PUSH2 0x460B JUMPI PUSH2 0x460B PUSH2 0x4409 JUMP JUMPDEST POP PUSH1 0x5 SHL PUSH1 0x20 ADD SWAP1 JUMP JUMPDEST PUSH1 0x0 DUP3 PUSH1 0x1F DUP4 ADD SLT PUSH2 0x4626 JUMPI PUSH1 0x0 DUP1 REVERT JUMPDEST DUP2 CALLDATALOAD PUSH1 0x20 PUSH2 0x463B PUSH2 0x4636 DUP4 PUSH2 0x45F1 JUMP JUMPDEST PUSH2 0x44A7 JUMP JUMPDEST DUP3 DUP2 MSTORE PUSH1 0x5 SWAP3 SWAP1 SWAP3 SHL DUP5 ADD DUP2 ADD SWAP2 DUP2 DUP2 ADD SWAP1 DUP7 DUP5 GT ISZERO PUSH2 0x465A JUMPI PUSH1 0x0 DUP1 REVERT JUMPDEST DUP3 DUP7 ADD JUMPDEST DUP5 DUP2 LT ISZERO PUSH2 0x467E JUMPI DUP1 CALLDATALOAD PUSH2 0x4671 DUP2 PUSH2 0x44D8 JUMP JUMPDEST DUP4 MSTORE SWAP2 DUP4 ADD SWAP2 DUP4 ADD PUSH2 0x465E JUMP JUMPDEST POP SWAP7 SWAP6 POP POP POP POP POP POP JUMP JUMPDEST PUSH1 0x0 PUSH1 0x40 DUP3 DUP5 SUB SLT ISZERO PUSH2 0x469B JUMPI PUSH1 0x0 DUP1 REVERT JUMPDEST PUSH2 0x46A3 PUSH2 0x4461 JUMP JUMPDEST SWAP1 POP PUSH2 0x46AE DUP3 PUSH2 0x45E2 JUMP JUMPDEST DUP2 MSTORE PUSH1 0x20 DUP3 ADD CALLDATALOAD PUSH8 0xFFFFFFFFFFFFFFFF DUP2 GT ISZERO PUSH2 0x46CA JUMPI PUSH1 0x0 DUP1 REVERT JUMPDEST PUSH2 0x46D6 DUP5 DUP3 DUP6 ADD PUSH2 0x4615 JUMP JUMPDEST PUSH1 0x20 DUP4 ADD MSTORE POP SWAP3 SWAP2 POP POP JUMP JUMPDEST PUSH1 0x0 PUSH1 0x80 DUP3 DUP5 SUB SLT ISZERO PUSH2 0x46F4 JUMPI PUSH1 0x0 DUP1 REVERT JUMPDEST PUSH2 0x46FC PUSH2 0x4461 JUMP JUMPDEST SWAP1 POP DUP2 CALLDATALOAD PUSH2 0x4709 DUP2 PUSH2 0x44D8 JUMP JUMPDEST DUP2 MSTORE PUSH2 0x4718 DUP4 PUSH1 0x20 DUP5 ADD PUSH2 0x44FD JUMP JUMPDEST PUSH1 0x20 DUP3 ADD MSTORE SWAP3 SWAP2 POP POP JUMP JUMPDEST PUSH1 0x0 PUSH1 0x80 DUP1 DUP4 DUP6 SUB SLT ISZERO PUSH2 0x4736 JUMPI PUSH1 0x0 DUP1 REVERT JUMPDEST PUSH2 0x473E PUSH2 0x4461 JUMP JUMPDEST SWAP2 POP PUSH2 0x474A DUP5 DUP5 PUSH2 0x44FD JUMP JUMPDEST DUP3 MSTORE PUSH1 0x60 DUP4 ADD CALLDATALOAD PUSH8 0xFFFFFFFFFFFFFFFF DUP2 GT ISZERO PUSH2 0x4766 JUMPI PUSH1 0x0 DUP1 REVERT JUMPDEST DUP4 ADD PUSH1 0x1F DUP2 ADD DUP6 SGT PUSH2 0x4777 JUMPI PUSH1 0x0 DUP1 REVERT JUMPDEST DUP1 CALLDATALOAD PUSH1 0x20 PUSH2 0x4787 PUSH2 0x4636 DUP4 PUSH2 0x45F1 JUMP JUMPDEST DUP3 DUP2 MSTORE PUSH1 0x7 SWAP3 SWAP1 SWAP3 SHL DUP4 ADD DUP2 ADD SWAP2 DUP2 DUP2 ADD SWAP1 DUP9 DUP5 GT ISZERO PUSH2 0x47A6 JUMPI PUSH1 0x0 DUP1 REVERT JUMPDEST SWAP4 DUP3 ADD SWAP4 JUMPDEST DUP4 DUP6 LT ISZERO PUSH2 0x47CC JUMPI PUSH2 0x47BD DUP10 DUP7 PUSH2 0x46E2 JUMP JUMPDEST DUP3 MSTORE SWAP4 DUP6 ADD SWAP4 SWAP1 DUP3 ADD SWAP1 PUSH2 0x47AB JUMP JUMPDEST DUP1 DUP4 DUP9 ADD MSTORE POP POP POP POP POP POP SWAP3 SWAP2 POP POP JUMP JUMPDEST PUSH1 0x0 PUSH8 0xFFFFFFFFFFFFFFFF DUP4 GT ISZERO PUSH2 0x47F7 JUMPI PUSH2 0x47F7 PUSH2 0x4409 JUMP JUMPDEST PUSH2 0x480A PUSH1 0x20 PUSH1 0x1F NOT PUSH1 0x1F DUP7 ADD AND ADD PUSH2 0x44A7 JUMP JUMPDEST SWAP1 POP DUP3 DUP2 MSTORE DUP4 DUP4 DUP4 ADD GT ISZERO PUSH2 0x481E JUMPI PUSH1 0x0 DUP1 REVERT JUMPDEST DUP3 DUP3 PUSH1 0x20 DUP4 ADD CALLDATACOPY PUSH1 0x0 PUSH1 0x20 DUP5 DUP4 ADD ADD MSTORE SWAP4 SWAP3 POP POP POP JUMP JUMPDEST PUSH1 0x0 DUP3 PUSH1 0x1F DUP4 ADD SLT PUSH2 0x4846 JUMPI PUSH1 0x0 DUP1 REVERT JUMPDEST PUSH2 0x206A DUP4 DUP4 CALLDATALOAD PUSH1 0x20 DUP6 ADD PUSH2 0x47DD JUMP JUMPDEST PUSH1 0x0 DUP1 PUSH1 0x0 PUSH1 0x60 DUP5 DUP7 SUB SLT ISZERO PUSH2 0x486A JUMPI PUSH1 0x0 DUP1 REVERT JUMPDEST DUP4 CALLDATALOAD PUSH8 0xFFFFFFFFFFFFFFFF DUP1 DUP3 GT ISZERO PUSH2 0x4882 JUMPI PUSH1 0x0 DUP1 REVERT JUMPDEST SWAP1 DUP6 ADD SWAP1 PUSH2 0x1A0 DUP3 DUP9 SUB SLT ISZERO PUSH2 0x4897 JUMPI PUSH1 0x0 DUP1 REVERT JUMPDEST PUSH2 0x489F PUSH2 0x4484 JUMP JUMPDEST PUSH2 0x48A9 DUP9 DUP5 PUSH2 0x44FD JUMP JUMPDEST DUP2 MSTORE PUSH2 0x48B8 DUP9 PUSH1 0x60 DUP6 ADD PUSH2 0x4542 JUMP JUMPDEST PUSH1 0x20 DUP3 ADD MSTORE PUSH2 0x48CA DUP9 PUSH1 0xE0 DUP6 ADD PUSH2 0x45A8 JUMP JUMPDEST PUSH1 0x40 DUP3 ADD MSTORE PUSH2 0x140 DUP4 ADD CALLDATALOAD DUP3 DUP2 GT ISZERO PUSH2 0x48E2 JUMPI PUSH1 0x0 DUP1 REVERT JUMPDEST PUSH2 0x48EE DUP10 DUP3 DUP7 ADD PUSH2 0x4689 JUMP JUMPDEST PUSH1 0x60 DUP4 ADD MSTORE POP PUSH2 0x160 DUP4 ADD CALLDATALOAD DUP3 DUP2 GT ISZERO PUSH2 0x4907 JUMPI PUSH1 0x0 DUP1 REVERT JUMPDEST PUSH2 0x4913 DUP10 DUP3 DUP7 ADD PUSH2 0x4723 JUMP JUMPDEST PUSH1 0x80 DUP4 ADD MSTORE POP PUSH2 0x180 DUP4 ADD CALLDATALOAD DUP3 DUP2 GT ISZERO PUSH2 0x492C JUMPI PUSH1 0x0 DUP1 REVERT JUMPDEST PUSH2 0x4938 DUP10 DUP3 DUP7 ADD PUSH2 0x4723 JUMP JUMPDEST PUSH1 0xA0 DUP4 ADD MSTORE POP SWAP5 POP PUSH2 0x494C PUSH1 0x20 DUP8 ADD PUSH2 0x44ED JUMP JUMPDEST SWAP4 POP PUSH1 0x40 DUP7 ADD CALLDATALOAD SWAP2 POP DUP1 DUP3 GT ISZERO PUSH2 0x4962 JUMPI PUSH1 0x0 DUP1 REVERT JUMPDEST POP PUSH2 0x496F DUP7 DUP3 DUP8 ADD PUSH2 0x4835 JUMP JUMPDEST SWAP2 POP POP SWAP3 POP SWAP3 POP SWAP3 JUMP JUMPDEST DUP1 ISZERO ISZERO DUP2 EQ PUSH2 0xDE2 JUMPI PUSH1 0x0 DUP1 REVERT JUMPDEST PUSH1 0x0 DUP1 PUSH1 0x40 DUP4 DUP6 SUB SLT ISZERO PUSH2 0x499A JUMPI PUSH1 0x0 DUP1 REVERT JUMPDEST DUP3 CALLDATALOAD PUSH8 0xFFFFFFFFFFFFFFFF DUP1 DUP3 GT ISZERO PUSH2 0x49B2 JUMPI PUSH1 0x0 DUP1 REVERT JUMPDEST PUSH2 0x49BE DUP7 DUP4 DUP8 ADD PUSH2 0x4615 JUMP JUMPDEST SWAP4 POP PUSH1 0x20 SWAP2 POP DUP2 DUP6 ADD CALLDATALOAD DUP2 DUP2 GT ISZERO PUSH2 0x49D5 JUMPI PUSH1 0x0 DUP1 REVERT JUMPDEST DUP6 ADD SWAP1 POP PUSH1 0x1F DUP2 ADD DUP7 SGT PUSH2 0x49E8 JUMPI PUSH1 0x0 DUP1 REVERT JUMPDEST DUP1 CALLDATALOAD PUSH2 0x49F6 PUSH2 0x4636 DUP3 PUSH2 0x45F1 JUMP JUMPDEST DUP2 DUP2 MSTORE PUSH1 0x5 SWAP2 SWAP1 SWAP2 SHL DUP3 ADD DUP4 ADD SWAP1 DUP4 DUP2 ADD SWAP1 DUP9 DUP4 GT ISZERO PUSH2 0x4A15 JUMPI PUSH1 0x0 DUP1 REVERT JUMPDEST SWAP3 DUP5 ADD SWAP3 JUMPDEST DUP3 DUP5 LT ISZERO PUSH2 0x4A3C JUMPI DUP4 CALLDATALOAD PUSH2 0x4A2D DUP2 PUSH2 0x4979 JUMP JUMPDEST DUP3 MSTORE SWAP3 DUP5 ADD SWAP3 SWAP1 DUP5 ADD SWAP1 PUSH2 0x4A1A JUMP JUMPDEST DUP1 SWAP6 POP POP POP POP POP POP SWAP3 POP SWAP3 SWAP1 POP JUMP JUMPDEST PUSH1 0x0 PUSH1 0x20 DUP3 DUP5 SUB SLT ISZERO PUSH2 0x4A5D JUMPI PUSH1 0x0 DUP1 REVERT JUMPDEST DUP2 CALLDATALOAD PUSH2 0x206A DUP2 PUSH2 0x44D8 JUMP JUMPDEST PUSH1 0x0 DUP1 PUSH1 0x0 DUP1 PUSH1 0x80 DUP6 DUP8 SUB SLT ISZERO PUSH2 0x4A7E JUMPI PUSH1 0x0 DUP1 REVERT JUMPDEST DUP5 CALLDATALOAD PUSH2 0x4A89 DUP2 PUSH2 0x44D8 JUMP JUMPDEST SWAP4 POP PUSH1 0x20 DUP6 ADD CALLDATALOAD PUSH2 0x4A99 DUP2 PUSH2 0x44D8 JUMP JUMPDEST SWAP4 SWAP7 SWAP4 SWAP6 POP POP POP POP PUSH1 0x40 DUP3 ADD CALLDATALOAD SWAP2 PUSH1 0x60 ADD CALLDATALOAD SWAP1 JUMP JUMPDEST PUSH1 0x0 PUSH1 0x20 DUP3 DUP5 SUB SLT ISZERO PUSH2 0x4AC0 JUMPI PUSH1 0x0 DUP1 REVERT JUMPDEST PUSH2 0x206A DUP3 PUSH2 0x45E2 JUMP JUMPDEST PUSH32 0x4E487B7100000000000000000000000000000000000000000000000000000000 PUSH1 0x0 MSTORE PUSH1 0x21 PUSH1 0x4 MSTORE PUSH1 0x24 PUSH1 0x0 REVERT JUMPDEST PUSH1 0x20 DUP2 ADD PUSH1 0x2 DUP4 LT PUSH2 0x4B33 JUMPI PUSH32 0x4E487B7100000000000000000000000000000000000000000000000000000000 PUSH1 0x0 MSTORE PUSH1 0x21 PUSH1 0x4 MSTORE PUSH1 0x24 PUSH1 0x0 REVERT JUMPDEST SWAP2 SWAP1 MSTORE SWAP1 JUMP JUMPDEST PUSH1 0x0 DUP2 MLOAD DUP1 DUP5 MSTORE PUSH1 0x0 JUMPDEST DUP2 DUP2 LT ISZERO PUSH2 0x4B5F JUMPI PUSH1 0x20 DUP2 DUP6 ADD DUP2 ADD MLOAD DUP7 DUP4 ADD DUP3 ADD MSTORE ADD PUSH2 0x4B43 JUMP JUMPDEST POP PUSH1 0x0 PUSH1 0x20 DUP3 DUP7 ADD ADD MSTORE PUSH1 0x20 PUSH1 0x1F NOT PUSH1 0x1F DUP4 ADD AND DUP6 ADD ADD SWAP2 POP POP SWAP3 SWAP2 POP POP JUMP JUMPDEST PUSH1 0x20 DUP2 MSTORE PUSH1 0x0 PUSH2 0x206A PUSH1 0x20 DUP4 ADD DUP5 PUSH2 0x4B39 JUMP JUMPDEST PUSH1 0x0 PUSH1 0x20 DUP3 DUP5 SUB SLT ISZERO PUSH2 0x4BA4 JUMPI PUSH1 0x0 DUP1 REVERT JUMPDEST DUP2 CALLDATALOAD PUSH8 0xFFFFFFFFFFFFFFFF DUP2 GT ISZERO PUSH2 0x4BBB JUMPI PUSH1 0x0 DUP1 REVERT JUMPDEST PUSH2 0x2232 DUP5 DUP3 DUP6 ADD PUSH2 0x4835 JUMP JUMPDEST PUSH1 0x0 DUP1 PUSH1 0x0 DUP1 PUSH1 0x80 DUP6 DUP8 SUB SLT ISZERO PUSH2 0x4BDD JUMPI PUSH1 0x0 DUP1 REVERT JUMPDEST DUP5 CALLDATALOAD PUSH2 0x4BE8 DUP2 PUSH2 0x44D8 JUMP JUMPDEST SWAP4 POP PUSH1 0x20 DUP6 ADD CALLDATALOAD SWAP3 POP PUSH1 0x40 DUP6 ADD CALLDATALOAD PUSH2 0x4BFF DUP2 PUSH2 0x44D8 JUMP JUMPDEST SWAP2 POP PUSH1 0x60 DUP6 ADD CALLDATALOAD PUSH8 0xFFFFFFFFFFFFFFFF DUP2 GT ISZERO PUSH2 0x4C1B JUMPI PUSH1 0x0 DUP1 REVERT JUMPDEST DUP6 ADD PUSH1 0x1F DUP2 ADD DUP8 SGT PUSH2 0x4C2C JUMPI PUSH1 0x0 DUP1 REVERT JUMPDEST PUSH2 0x4C3B DUP8 DUP3 CALLDATALOAD PUSH1 0x20 DUP5 ADD PUSH2 0x47DD JUMP JUMPDEST SWAP2 POP POP SWAP3 SWAP6 SWAP2 SWAP5 POP SWAP3 POP JUMP JUMPDEST PUSH1 0x0 DUP1 PUSH1 0x40 DUP4 DUP6 SUB SLT ISZERO PUSH2 0x4C5A JUMPI PUSH1 0x0 DUP1 REVERT JUMPDEST POP POP DUP1 CALLDATALOAD SWAP3 PUSH1 0x20 SWAP1 SWAP2 ADD CALLDATALOAD SWAP2 POP JUMP JUMPDEST PUSH1 0x0 DUP1 PUSH1 0x0 PUSH1 0x60 DUP5 DUP7 SUB SLT ISZERO PUSH2 0x4C7E JUMPI PUSH1 0x0 DUP1 REVERT JUMPDEST DUP4 CALLDATALOAD PUSH2 0x4C89 DUP2 PUSH2 0x44D8 JUMP JUMPDEST SWAP6 PUSH1 0x20 DUP6 ADD CALLDATALOAD SWAP6 POP PUSH1 0x40 SWAP1 SWAP5 ADD CALLDATALOAD SWAP4 SWAP3 POP POP POP JUMP JUMPDEST PUSH1 0x0 DUP1 PUSH1 0x0 PUSH1 0x60 DUP5 DUP7 SUB SLT ISZERO PUSH2 0x4CB3 JUMPI PUSH1 0x0 DUP1 REVERT JUMPDEST DUP4 CALLDATALOAD PUSH2 0x4CBE DUP2 PUSH2 0x44D8 JUMP JUMPDEST SWAP3 POP PUSH1 0x20 DUP5 ADD CALLDATALOAD SWAP2 POP PUSH1 0x40 DUP5 ADD CALLDATALOAD PUSH2 0x4CD5 DUP2 PUSH2 0x44D8 JUMP JUMPDEST DUP1 SWAP2 POP POP SWAP3 POP SWAP3 POP SWAP3 JUMP JUMPDEST PUSH32 0x4E487B7100000000000000000000000000000000000000000000000000000000 PUSH1 0x0 MSTORE PUSH1 0x32 PUSH1 0x4 MSTORE PUSH1 0x24 PUSH1 0x0 REVERT JUMPDEST PUSH32 0x4E487B7100000000000000000000000000000000000000000000000000000000 PUSH1 0x0 MSTORE PUSH1 0x11 PUSH1 0x4 MSTORE PUSH1 0x24 PUSH1 0x0 REVERT JUMPDEST PUSH1 0x0 PUSH32 0xFFFFFFFFFFFFFFFFFFFFFFFFFFFFFFFFFFFFFFFFFFFFFFFFFFFFFFFFFFFFFFFF DUP3 SUB PUSH2 0x4D6F JUMPI PUSH2 0x4D6F PUSH2 0x4D0F JUMP JUMPDEST POP PUSH1 0x1 ADD SWAP1 JUMP JUMPDEST PUSH1 0x1 DUP2 DUP2 SHR SWAP1 DUP3 AND DUP1 PUSH2 0x4D8A JUMPI PUSH1 0x7F DUP3 AND SWAP2 POP JUMPDEST PUSH1 0x20 DUP3 LT DUP2 SUB PUSH2 0x4DC3 JUMPI PUSH32 0x4E487B7100000000000000000000000000000000000000000000000000000000 PUSH1 0x0 MSTORE PUSH1 0x22 PUSH1 0x4 MSTORE PUSH1 0x24 PUSH1 0x0 REVERT JUMPDEST POP SWAP2 SWAP1 POP JUMP JUMPDEST PUSH1 0x0 PUSH1 0x20 DUP3 DUP5 SUB SLT ISZERO PUSH2 0x4DDB JUMPI PUSH1 0x0 DUP1 REVERT JUMPDEST POP MLOAD SWAP2 SWAP1 POP JUMP JUMPDEST PUSH1 0x0 DUP2 MLOAD DUP1 DUP5 MSTORE PUSH1 0x20 DUP1 DUP6 ADD SWAP5 POP DUP1 DUP5 ADD PUSH1 0x0 JUMPDEST DUP4 DUP2 LT ISZERO PUSH2 0x4E12 JUMPI DUP2 MLOAD DUP8 MSTORE SWAP6 DUP3 ADD SWAP6 SWAP1 DUP3 ADD SWAP1 PUSH1 0x1 ADD PUSH2 0x4DF6 JUMP JUMPDEST POP SWAP5 SWAP6 SWAP5 POP POP POP POP POP JUMP JUMPDEST PUSH1 0x1 PUSH1 0x1 PUSH1 0xA0 SHL SUB DUP5 AND DUP2 MSTORE PUSH32 0xFFFFFFFF00000000000000000000000000000000000000000000000000000000 DUP4 AND PUSH1 0x20 DUP3 ADD MSTORE PUSH1 0x60 PUSH1 0x40 DUP3 ADD MSTORE PUSH1 0x0 PUSH2 0x3E79 PUSH1 0x60 DUP4 ADD DUP5 PUSH2 0x4DE2 JUMP JUMPDEST PUSH1 0x1F DUP3 GT ISZERO PUSH2 0xA0F JUMPI PUSH1 0x0 DUP2 DUP2 MSTORE PUSH1 0x20 DUP2 KECCAK256 PUSH1 0x1F DUP6 ADD PUSH1 0x5 SHR DUP2 ADD PUSH1 0x20 DUP7 LT ISZERO PUSH2 0x4E8E JUMPI POP DUP1 JUMPDEST PUSH1 0x1F DUP6 ADD PUSH1 0x5 SHR DUP3 ADD SWAP2 POP JUMPDEST DUP2 DUP2 LT ISZERO PUSH2 0x1C6D JUMPI DUP3 DUP2 SSTORE PUSH1 0x1 ADD PUSH2 0x4E9A JUMP JUMPDEST DUP2 MLOAD PUSH8 0xFFFFFFFFFFFFFFFF DUP2 GT ISZERO PUSH2 0x4EC7 JUMPI PUSH2 0x4EC7 PUSH2 0x4409 JUMP JUMPDEST PUSH2 0x4EDB DUP2 PUSH2 0x4ED5 DUP5 SLOAD PUSH2 0x4D76 JUMP JUMPDEST DUP5 PUSH2 0x4E67 JUMP JUMPDEST PUSH1 0x20 DUP1 PUSH1 0x1F DUP4 GT PUSH1 0x1 DUP2 EQ PUSH2 0x4F2E JUMPI PUSH1 0x0 DUP5 ISZERO PUSH2 0x4EF8 JUMPI POP DUP6 DUP4 ADD MLOAD JUMPDEST PUSH32 0xFFFFFFFFFFFFFFFFFFFFFFFFFFFFFFFFFFFFFFFFFFFFFFFFFFFFFFFFFFFFFFFF PUSH1 0x3 DUP7 SWAP1 SHL SHR NOT AND PUSH1 0x1 DUP6 SWAP1 SHL OR DUP6 SSTORE PUSH2 0x1C6D JUMP JUMPDEST PUSH1 0x0 DUP6 DUP2 MSTORE PUSH1 0x20 DUP2 KECCAK256 PUSH1 0x1F NOT DUP7 AND SWAP2 JUMPDEST DUP3 DUP2 LT ISZERO PUSH2 0x4F5D JUMPI DUP9 DUP7 ADD MLOAD DUP3 SSTORE SWAP5 DUP5 ADD SWAP5 PUSH1 0x1 SWAP1 SWAP2 ADD SWAP1 DUP5 ADD PUSH2 0x4F3E JUMP JUMPDEST POP DUP6 DUP3 LT ISZERO PUSH2 0x4F99 JUMPI DUP8 DUP6 ADD MLOAD PUSH32 0xFFFFFFFFFFFFFFFFFFFFFFFFFFFFFFFFFFFFFFFFFFFFFFFFFFFFFFFFFFFFFFFF PUSH1 0x3 DUP9 SWAP1 SHL PUSH1 0xF8 AND SHR NOT AND DUP2 SSTORE JUMPDEST POP POP POP POP POP PUSH1 0x1 SWAP1 DUP2 SHL ADD SWAP1 SSTORE POP JUMP JUMPDEST PUSH1 0x0 PUSH1 0x1 PUSH1 0x1 PUSH1 0xA0 SHL SUB DUP1 DUP8 AND DUP4 MSTORE DUP1 DUP7 AND PUSH1 0x20 DUP5 ADD MSTORE POP PUSH32 0xFFFFFFFF00000000000000000000000000000000000000000000000000000000 DUP5 AND PUSH1 0x40 DUP4 ADD MSTORE PUSH1 0x80 PUSH1 0x60 DUP4 ADD MSTORE PUSH2 0x4FFD PUSH1 0x80 DUP4 ADD DUP5 PUSH2 0x4DE2 JUMP JUMPDEST SWAP7 SWAP6 POP POP POP POP POP POP JUMP JUMPDEST PUSH1 0x0 PUSH1 0x20 DUP3 DUP5 SUB SLT ISZERO PUSH2 0x5019 JUMPI PUSH1 0x0 DUP1 REVERT JUMPDEST DUP2 MLOAD PUSH2 0x206A DUP2 PUSH2 0x4979 JUMP JUMPDEST DUP1 DUP3 ADD DUP1 DUP3 GT ISZERO PUSH2 0x1165 JUMPI PUSH2 0x1165 PUSH2 0x4D0F JUMP JUMPDEST PUSH1 0x0 PUSH1 0x20 DUP3 DUP5 SUB SLT ISZERO PUSH2 0x5049 JUMPI PUSH1 0x0 DUP1 REVERT JUMPDEST DUP2 MLOAD PUSH2 0x206A DUP2 PUSH2 0x44D8 JUMP JUMPDEST DUP2 DUP2 SUB DUP2 DUP2 GT ISZERO PUSH2 0x1165 JUMPI PUSH2 0x1165 PUSH2 0x4D0F JUMP JUMPDEST PUSH32 0x4E487B7100000000000000000000000000000000000000000000000000000000 PUSH1 0x0 MSTORE PUSH1 0x31 PUSH1 0x4 MSTORE PUSH1 0x24 PUSH1 0x0 REVERT JUMPDEST PUSH32 0x4E487B7100000000000000000000000000000000000000000000000000000000 PUSH1 0x0 MSTORE PUSH1 0x12 PUSH1 0x4 MSTORE PUSH1 0x24 PUSH1 0x0 REVERT JUMPDEST PUSH1 0x0 DUP3 PUSH2 0x50FB JUMPI PUSH32 0x4E487B7100000000000000000000000000000000000000000000000000000000 PUSH1 0x0 MSTORE PUSH1 0x12 PUSH1 0x4 MSTORE PUSH1 0x24 PUSH1 0x0 REVERT JUMPDEST POP DIV SWAP1 JUMP JUMPDEST DUP1 DUP3 MUL DUP2 ISZERO DUP3 DUP3 DIV DUP5 EQ OR PUSH2 0x1165 JUMPI PUSH2 0x1165 PUSH2 0x4D0F JUMP JUMPDEST PUSH1 0x0 PUSH1 0x1 PUSH1 0x1 PUSH1 0xA0 SHL SUB DUP1 DUP7 AND DUP4 MSTORE DUP1 DUP6 AND PUSH1 0x20 DUP5 ADD MSTORE POP PUSH1 0x60 PUSH1 0x40 DUP4 ADD MSTORE PUSH2 0x3E79 PUSH1 0x60 DUP4 ADD DUP5 PUSH2 0x4B39 JUMP INVALID LOG2 PUSH5 0x6970667358 0x22 SLT KECCAK256 SIGNEXTEND 0xEF SAR TIMESTAMP SMOD ORIGIN BALANCE PUSH6 0x67614ACD6578 SWAP5 NUMBER 0xB7 PUSH29 0xAE12F15688B23A3F81CD2767F64964736F6C6343000811003300000000 "},"methodIdentifiers":{"EXECUTION_TYPE()":"4a45a3a8","authorizer()":"d09edf31","call(address,uint256,address,bytes)":"62f57b60","customTokenThreshold(address)":"a5900c4d","customVolumeLimit(address)":"221a8c68","defaultTokenThreshold()":"a3374177","defaultVolumeLimit()":"6aacaad8","gasPriceLimit()":"961a929c","getTaskAmount(address)":"a0c3774f","getTokenThreshold(address)":"51a424b1","getTokensSource()":"c267621e","getVolumeLimit(address)":"d45a76cf","getWithdrawalId(address,uint256,address)":"a7daad60","initialize(((address,bytes32,bytes32),(uint256,uint256,uint256,uint256),(uint256,uint256,uint256),(uint8,address[]),((address,uint256,uint256),(address,(address,uint256,uint256))[]),((address,uint256,uint256),(address,(address,uint256,uint256))[])),address,string)":"0c74e630","isPaused()":"b187bd26","nextBalanceConnectorId()":"f605145b","pause()":"8456cb59","previousBalanceConnectorId()":"ab76d408","priorityFeeLimit()":"6cd8fca7","setBalanceConnectors(bytes32,bytes32)":"7125590a","setCustomTokenThreshold(address,address,uint256,uint256)":"2384c32d","setCustomVolumeLimit(address,address,uint256,uint256)":"423a4b40","setDefaultTokenThreshold(address,uint256,uint256)":"d3feb602","setDefaultVolumeLimit(address,uint256,uint256)":"90333ba8","setGasPriceLimit(uint256)":"09231602","setPriorityFeeLimit(uint256)":"34077acc","setSignedWithdrawalsUrl(string)":"53f98376","setSigner(address)":"6c19e783","setTimeLockDelay(uint256)":"c49a91fe","setTimeLockExecutionPeriod(uint256)":"ee98cf6d","setTimeLockExpiration(uint256)":"f440284b","setTokensAcceptanceList(address[],bool[])":"21972384","setTokensAcceptanceType(uint8)":"30eae572","setTxCostLimit(uint256)":"0652095d","setTxCostLimitPct(uint256)":"dccf56ce","signedWithdrawalsUrl()":"4a3e903e","signer()":"238ac933","smartVault()":"4fd49efd","timeLockDelay()":"8bbc6446","timeLockExecutionPeriod()":"85538533","timeLockExpiration()":"5d28414c","tokensAcceptanceType()":"42d4693e","txCostLimit()":"7d43d4ed","txCostLimitPct()":"d4dfd588","unpause()":"3f4ba83a","wasExecuted(bytes32)":"2a682d3b"}}}}}